{"contracts/cygnus-periphery/CygnusAltairX.sol":{"CygnusAltairX":{"abi":[{"inputs":[{"internalType":"address","name":"factory","type":"address"},{"internalType":"address","name":"oneInchRouterV5","type":"address"}],"stateMutability":"nonpayable","type":"constructor"},{"inputs":[{"internalType":"uint256","name":"amount","type":"uint256"}],"name":"CygnusAltair__InsufficientBurnAmountA","type":"error"},{"inputs":[{"internalType":"uint256","name":"amount","type":"uint256"}],"name":"CygnusAltair__InsufficientBurnAmountB","type":"error"},{"inputs":[{"internalType":"uint256","name":"lpAmountMin","type":"uint256"},{"internalType":"uint256","name":"liquidity","type":"uint256"}],"name":"CygnusAltair__InsufficientLPTokenAmount","type":"error"},{"inputs":[{"internalType":"uint256","name":"usdAmountMin","type":"uint256"},{"internalType":"uint256","name":"usdAmount","type":"uint256"}],"name":"CygnusAltair__InsufficientLiquidateUsd","type":"error"},{"inputs":[{"internalType":"uint256","name":"usdAmountMin","type":"uint256"},{"internalType":"uint256","name":"usdAmount","type":"uint256"}],"name":"CygnusAltair__InsufficientRedeemAmount","type":"error"},{"inputs":[{"internalType":"address","name":"redeemer","type":"address"},{"internalType":"uint256","name":"redeemTokens","type":"uint256"}],"name":"CygnusAltair__InvalidRedeemAmount","type":"error"},{"inputs":[{"internalType":"address","name":"sender","type":"address"},{"internalType":"address","name":"admin","type":"address"}],"name":"CygnusAltair__MsgSenderNotAdmin","type":"error"},{"inputs":[{"internalType":"address","name":"sender","type":"address"},{"internalType":"address","name":"borrowable","type":"address"}],"name":"CygnusAltair__MsgSenderNotBorrowable","type":"error"},{"inputs":[{"internalType":"address","name":"sender","type":"address"},{"internalType":"address","name":"collateral","type":"address"}],"name":"CygnusAltair__MsgSenderNotCollateral","type":"error"},{"inputs":[{"internalType":"address","name":"sender","type":"address"},{"internalType":"address","name":"origin","type":"address"}],"name":"CygnusAltair__MsgSenderNotRouter","type":"error"},{"inputs":[{"internalType":"address","name":"poolToken","type":"address"}],"name":"CygnusAltair__NotNativeTokenSender","type":"error"},{"inputs":[{"internalType":"uint256","name":"deadline","type":"uint256"}],"name":"CygnusAltair__TransactionExpired","type":"error"},{"inputs":[],"name":"LOCAL_BYTES","outputs":[{"internalType":"bytes","name":"","type":"bytes"}],"stateMutability":"view","type":"function"},{"inputs":[],"name":"aggregationRouterV5","outputs":[{"internalType":"contract IAggregationRouterV5","name":"","type":"address"}],"stateMutability":"view","type":"function"},{"inputs":[{"internalType":"address","name":"sender","type":"address"},{"internalType":"uint256","name":"borrowAmount","type":"uint256"},{"internalType":"bytes","name":"data","type":"bytes"}],"name":"altairBorrow_O9E","outputs":[],"stateMutability":"nonpayable","type":"function"},{"inputs":[{"internalType":"address","name":"sender","type":"address"},{"internalType":"uint256","name":"redeemAmount","type":"uint256"},{"internalType":"address","name":"token0","type":"address"},{"internalType":"address","name":"token1","type":"address"},{"internalType":"bytes","name":"data","type":"bytes"}],"name":"altairRedeem_u91A","outputs":[],"stateMutability":"nonpayable","type":"function"},{"inputs":[{"internalType":"address","name":"borrowable","type":"address"},{"internalType":"uint256","name":"amount","type":"uint256"},{"internalType":"address","name":"recipient","type":"address"},{"internalType":"uint256","name":"deadline","type":"uint256"},{"internalType":"bytes","name":"permitData","type":"bytes"}],"name":"borrow","outputs":[],"stateMutability":"nonpayable","type":"function"},{"inputs":[{"internalType":"address","name":"collateral","type":"address"},{"internalType":"address","name":"borrowable","type":"address"},{"internalType":"uint256","name":"redeemTokens","type":"uint256"},{"internalType":"uint256","name":"usdAmountMin","type":"uint256"},{"internalType":"uint256","name":"deadline","type":"uint256"},{"internalType":"bytes[]","name":"swapData","type":"bytes[]"},{"internalType":"bytes","name":"permitData","type":"bytes"}],"name":"deleverage","outputs":[],"stateMutability":"nonpayable","type":"function"},{"inputs":[],"name":"hangar18","outputs":[{"internalType":"address","name":"","type":"address"}],"stateMutability":"view","type":"function"},{"inputs":[{"internalType":"address","name":"collateral","type":"address"},{"internalType":"address","name":"borrowable","type":"address"},{"internalType":"uint256","name":"amountUsd","type":"uint256"},{"internalType":"uint256","name":"amountLPMin","type":"uint256"},{"internalType":"address","name":"recipient","type":"address"},{"internalType":"uint256","name":"deadline","type":"uint256"},{"internalType":"bytes[]","name":"swapData","type":"bytes[]"},{"internalType":"bytes","name":"permitData","type":"bytes"}],"name":"leverage","outputs":[],"stateMutability":"nonpayable","type":"function"},{"inputs":[{"internalType":"address","name":"borrowable","type":"address"},{"internalType":"uint256","name":"amountMax","type":"uint256"},{"internalType":"address","name":"borrower","type":"address"},{"internalType":"address","name":"recipient","type":"address"},{"internalType":"uint256","name":"deadline","type":"uint256"}],"name":"liquidate","outputs":[{"internalType":"uint256","name":"amount","type":"uint256"},{"internalType":"uint256","name":"seizeTokens","type":"uint256"}],"stateMutability":"nonpayable","type":"function"},{"inputs":[{"internalType":"address","name":"lpTokenPair","type":"address"},{"internalType":"address","name":"collateral","type":"address"},{"internalType":"address","name":"borrowable","type":"address"},{"internalType":"uint256","name":"amountMax","type":"uint256"},{"internalType":"uint256","name":"amountMin","type":"uint256"},{"internalType":"address","name":"borrower","type":"address"},{"internalType":"address","name":"recipient","type":"address"},{"internalType":"uint256","name":"deadline","type":"uint256"},{"internalType":"bytes[]","name":"swapData","type":"bytes[]"}],"name":"liquidateToUsd","outputs":[{"internalType":"uint256","name":"amountUsd","type":"uint256"}],"stateMutability":"nonpayable","type":"function"},{"inputs":[],"name":"nativeToken","outputs":[{"internalType":"address","name":"","type":"address"}],"stateMutability":"view","type":"function"},{"inputs":[{"internalType":"address","name":"borrowable","type":"address"},{"internalType":"uint256","name":"amountMax","type":"uint256"},{"internalType":"address","name":"borrower","type":"address"},{"internalType":"uint256","name":"deadline","type":"uint256"}],"name":"repay","outputs":[{"internalType":"uint256","name":"amount","type":"uint256"}],"stateMutability":"nonpayable","type":"function"},{"inputs":[],"name":"usd","outputs":[{"internalType":"address","name":"","type":"address"}],"stateMutability":"view","type":"function"},{"stateMutability":"payable","type":"receive"}],"evm":{"bytecode":{"linkReferences":{},"object":"6101006040523480156200001257600080fd5b5060405162003beb38038062003beb8339810160408190526200003591620001ba565b816001600160a01b031660a0816001600160a01b031660601b81525050816001600160a01b031663e1758bd86040518163ffffffff1660e01b815260040160206040518083038186803b1580156200008c57600080fd5b505afa158015620000a1573d6000803e3d6000fd5b505050506040513d601f19601f82011682018060405250810190620000c7919062000196565b6001600160a01b031660c0816001600160a01b031660601b81525050816001600160a01b031663d63a6ccd6040518163ffffffff1660e01b815260040160206040518083038186803b1580156200011d57600080fd5b505afa15801562000132573d6000803e3d6000fd5b505050506040513d601f19601f8201168201806040525081019062000158919062000196565b6001600160601b0319606091821b811660805291901b1660e05250620001f1565b80516001600160a01b03811681146200019157600080fd5b919050565b600060208284031215620001a8578081fd5b620001b38262000179565b9392505050565b60008060408385031215620001cd578081fd5b620001d88362000179565b9150620001e86020840162000179565b90509250929050565b60805160601c60a05160601c60c05160601c60e05160601c613937620002b4600039600081816101bd0152818161272d015261279301526000818160de0152818161034e01528181611d1101528181611d6601528181611dbb0152818161257c01526125fd015260006103820152600081816102fa015281816111e00152818161174701528181611bb401528181611c0901528181611c5e015281816122360152818161228b015281816122e0015281816123c4015261247001526139376000f3fe6080604052600436106100d65760003560e01c80637f69e8d21161007f578063d63a6ccd11610059578063d63a6ccd146102e8578063dbe5f2fb1461031c578063e1758bd81461033c578063e8a24e1d1461037057600080fd5b80637f69e8d2146102795780638f53d74f14610299578063953ec666146102b957600080fd5b80635c1e6404116100b05780635c1e6404146102045780636aee7c1e14610239578063726bb08c1461025957600080fd5b8063188a4b6c1461015857806324a288131461017857806341cb8afd146101ab57600080fd5b3661015357337f000000000000000000000000000000000000000000000000000000000000000073ffffffffffffffffffffffffffffffffffffffff1614610151576040517fb58564160000000000000000000000000000000000000000000000000000000081523360048201526024015b60405180910390fd5b005b600080fd5b34801561016457600080fd5b50610151610173366004612fac565b6103a4565b34801561018457600080fd5b50610198610193366004612d8f565b6104e5565b6040519081526020015b60405180910390f35b3480156101b757600080fd5b506101df7f000000000000000000000000000000000000000000000000000000000000000081565b60405173ffffffffffffffffffffffffffffffffffffffff90911681526020016101a2565b34801561021057600080fd5b5061022461021f36600461302f565b610672565b604080519283526020830191909152016101a2565b34801561024557600080fd5b50610198610254366004613089565b61078e565b34801561026557600080fd5b50610151610274366004612e4f565b610892565b34801561028557600080fd5b50610151610294366004612efb565b61097e565b3480156102a557600080fd5b506101516102b436600461312c565b610aab565b3480156102c557600080fd5b506102db60408051600081526020810190915281565b6040516101a29190613500565b3480156102f457600080fd5b506101df7f000000000000000000000000000000000000000000000000000000000000000081565b34801561032857600080fd5b506101516103373660046130d0565b610ede565b34801561034857600080fd5b506101df7f000000000000000000000000000000000000000000000000000000000000000081565b34801561037c57600080fd5b506101df7f000000000000000000000000000000000000000000000000000000000000000081565b60006103b2828401846132a4565b905073ffffffffffffffffffffffffffffffffffffffff87163014610421576040517fb61e0f2900000000000000000000000000000000000000000000000000000000815273ffffffffffffffffffffffffffffffffffffffff88166004820152326024820152604401610148565b602081015173ffffffffffffffffffffffffffffffffffffffff163373ffffffffffffffffffffffffffffffffffffffff16146104ae5760208101516040517fe5ac816600000000000000000000000000000000000000000000000000000000815233600482015273ffffffffffffffffffffffffffffffffffffffff9091166024820152604401610148565b6104dc816000015182606001518360200151846040015185608001518660a001518c8c8c8a60c00151610fbd565b50505050505050565b6000836104f1816112c5565b60006104fe8b8b8a611305565b90506105a2338c838e73ffffffffffffffffffffffffffffffffffffffff16636f307dc36040518163ffffffff1660e01b815260040160206040518083038186803b15801561054c57600080fd5b505afa158015610560573d6000803e3d6000fd5b505050506040513d601f19601f820116820180604052508101906105849190612c54565b73ffffffffffffffffffffffffffffffffffffffff16929190611423565b6040517f86b9d81f00000000000000000000000000000000000000000000000000000000815273ffffffffffffffffffffffffffffffffffffffff89811660048301528881166024830152600091908d16906386b9d81f90604401602060405180830381600087803b15801561061757600080fd5b505af115801561062b573d6000803e3d6000fd5b505050506040513d601f19601f8201168201806040525081019061064f91906133b3565b90506106608e8e8a848e8b8b611471565b9e9d5050505050505050505050505050565b6000808261067f816112c5565b61068a888888611305565b92506106d83389858b73ffffffffffffffffffffffffffffffffffffffff16636f307dc36040518163ffffffff1660e01b815260040160206040518083038186803b15801561054c57600080fd5b6040517f86b9d81f00000000000000000000000000000000000000000000000000000000815273ffffffffffffffffffffffffffffffffffffffff878116600483015286811660248301528916906386b9d81f90604401602060405180830381600087803b15801561074957600080fd5b505af115801561075d573d6000803e3d6000fd5b505050506040513d601f19601f8201168201806040525081019061078191906133b3565b9150509550959350505050565b60008161079a816112c5565b6107a5868686611305565b91506107f33387848973ffffffffffffffffffffffffffffffffffffffff16636f307dc36040518163ffffffff1660e01b815260040160206040518083038186803b15801561054c57600080fd5b60408051600080825260208201928390527f1e7dcc0d0000000000000000000000000000000000000000000000000000000090925273ffffffffffffffffffffffffffffffffffffffff881691631e7dcc0d9161085791889181906024810161348c565b600060405180830381600087803b15801561087157600080fd5b505af1158015610885573d6000803e3d6000fd5b5050505050949350505050565b8461089c816112c5565b6108de8a8a8886868080601f01602080910402602001604051908101604052809392919081815260200183838082843760009201919091525061177d92505050565b60008b73ffffffffffffffffffffffffffffffffffffffff16636f307dc36040518163ffffffff1660e01b815260040160206040518083038186803b15801561092657600080fd5b505afa15801561093a573d6000803e3d6000fd5b505050506040513d601f19601f8201168201806040525081019061095e9190612c54565b9050610970818d8d8d8d8d8c8c611893565b505050505050505050505050565b84610988816112c5565b600088116109cb576040517f0c1055d000000000000000000000000000000000000000000000000000000000815233600482015260248101899052604401610148565b610a0d8a898886868080601f01602080910402602001604051908101604052809392919081815260200183838082843760009201919091525061177d92505050565b60008a73ffffffffffffffffffffffffffffffffffffffff16636f307dc36040518163ffffffff1660e01b815260040160206040518083038186803b158015610a5557600080fd5b505afa158015610a69573d6000803e3d6000fd5b505050506040513d601f19601f82011682018060405250810190610a8d9190612c54565b9050610a9e8b8b8b848c8b8b6119bb565b5050505050505050505050565b6000610ab9828401846131e9565b905073ffffffffffffffffffffffffffffffffffffffff85163014610b28576040517fb61e0f2900000000000000000000000000000000000000000000000000000000815273ffffffffffffffffffffffffffffffffffffffff86166004820152326024820152604401610148565b604081015173ffffffffffffffffffffffffffffffffffffffff163373ffffffffffffffffffffffffffffffffffffffff1614610bb55760408181015190517faead146700000000000000000000000000000000000000000000000000000000815233600482015273ffffffffffffffffffffffffffffffffffffffff9091166024820152604401610148565b6000816000015173ffffffffffffffffffffffffffffffffffffffff16630dfe16816040518163ffffffff1660e01b815260040160206040518083038186803b158015610c0157600080fd5b505afa158015610c15573d6000803e3d6000fd5b505050506040513d601f19601f82011682018060405250810190610c399190612c54565b90506000826000015173ffffffffffffffffffffffffffffffffffffffff1663d21220a76040518163ffffffff1660e01b815260040160206040518083038186803b158015610c8757600080fd5b505afa158015610c9b573d6000803e3d6000fd5b505050506040513d601f19601f82011682018060405250810190610cbf9190612c54565b9050600080610cd9856000015185858b8960a00151611bac565b86519193509150610d029073ffffffffffffffffffffffffffffffffffffffff861690846120f1565b8451610d269073ffffffffffffffffffffffffffffffffffffffff851690836120f1565b84516040517f6a62784200000000000000000000000000000000000000000000000000000000815230600482015260009173ffffffffffffffffffffffffffffffffffffffff1690636a62784290602401602060405180830381600087803b158015610d9157600080fd5b505af1158015610da5573d6000803e3d6000fd5b505050506040513d601f19601f82011682018060405250810190610dc991906133b3565b90508560800151811015610e195760808601516040517f4f9e62b4000000000000000000000000000000000000000000000000000000008152600481019190915260248101829052604401610148565b610e2c866000015187602001518361213a565b602086015160608701516040517f6e553f650000000000000000000000000000000000000000000000000000000081526004810184905273ffffffffffffffffffffffffffffffffffffffff9182166024820152911690636e553f6590604401602060405180830381600087803b158015610ea657600080fd5b505af1158015610eba573d6000803e3d6000fd5b505050506040513d601f19601f82011682018060405250810190610a9e91906133b3565b82610ee8816112c5565b610f2a87878686868080601f01602080910402602001604051908101604052809392919081815260200183838082843760009201919091525061177d92505050565b604080516000815260208101918290527f1e7dcc0d0000000000000000000000000000000000000000000000000000000090915273ffffffffffffffffffffffffffffffffffffffff881690631e7dcc0d90610f8f90339089908b906024810161348c565b600060405180830381600087803b158015610fa957600080fd5b505af1158015610a9e573d6000803e3d6000fd5b6040517fa9059cbb00000000000000000000000000000000000000000000000000000000815273ffffffffffffffffffffffffffffffffffffffff8b1660048201819052602482018690529063a9059cbb90604401602060405180830381600087803b15801561102c57600080fd5b505af1158015611040573d6000803e3d6000fd5b505050506040513d601f19601f820116820180604052508101906110649190613186565b506040517f89afcb44000000000000000000000000000000000000000000000000000000008152306004820152600090819073ffffffffffffffffffffffffffffffffffffffff8d16906389afcb44906024016040805180830381600087803b1580156110d057600080fd5b505af11580156110e4573d6000803e3d6000fd5b505050506040513d601f19601f8201168201806040525081019061110891906133cb565b9150915060008211611149576040517fd5ff6de300000000000000000000000000000000000000000000000000000000815260048101839052602401610148565b60008111611186576040517fa0bd09d300000000000000000000000000000000000000000000000000000000815260048101829052602401610148565b60006111958383888888612232565b9050878110156111da576040517e6d48fc0000000000000000000000000000000000000000000000000000000081526004810189905260248101829052604401610148565b6112068a7f00000000000000000000000000000000000000000000000000000000000000008e8461249e565b6040517f23b872dd00000000000000000000000000000000000000000000000000000000815273ffffffffffffffffffffffffffffffffffffffff8d811660048301528c1660248201819052604482018b9052906323b872dd90606401602060405180830381600087803b15801561127d57600080fd5b505af1158015611291573d6000803e3d6000fd5b505050506040513d601f19601f820116820180604052508101906112b59190613186565b5050505050505050505050505050565b80421115611302576040517fd8bf612600000000000000000000000000000000000000000000000000000000815260048101829052602401610148565b50565b60008373ffffffffffffffffffffffffffffffffffffffff1663a6afed956040518163ffffffff1660e01b8152600401600060405180830381600087803b15801561134f57600080fd5b505af1158015611363573d6000803e3d6000fd5b50506040517f7d6af07900000000000000000000000000000000000000000000000000000000815273ffffffffffffffffffffffffffffffffffffffff85811660048301526000935087169150637d6af0799060240160206040518083038186803b1580156113d157600080fd5b505afa1580156113e5573d6000803e3d6000fd5b505050506040513d601f19601f8201168201806040525081019061140991906133b3565b9050808410611418578061141a565b835b95945050505050565b6040516323b872dd600052836020528260405281606052602060006064601c6000895af13d15600160005114171661146357637939f4246000526004601cfd5b600060605260405250505050565b6040517fba0876520000000000000000000000000000000000000000000000000000000081526004810185905273ffffffffffffffffffffffffffffffffffffffff888116602483015286811660448301526000919088169063ba08765290606401602060405180830381600087803b1580156114ed57600080fd5b505af1158015611501573d6000803e3d6000fd5b505050506040513d601f19601f8201168201806040525081019061152591906133b3565b506040517f89afcb44000000000000000000000000000000000000000000000000000000008152306004820152600090819073ffffffffffffffffffffffffffffffffffffffff8b16906389afcb44906024016040805180830381600087803b15801561159157600080fd5b505af11580156115a5573d6000803e3d6000fd5b505050506040513d601f19601f820116820180604052508101906115c991906133cb565b9150915060008a73ffffffffffffffffffffffffffffffffffffffff16630dfe16816040518163ffffffff1660e01b815260040160206040518083038186803b15801561161557600080fd5b505afa158015611629573d6000803e3d6000fd5b505050506040513d601f19601f8201168201806040525081019061164d9190612c54565b905060008b73ffffffffffffffffffffffffffffffffffffffff1663d21220a76040518163ffffffff1660e01b815260040160206040518083038186803b15801561169757600080fd5b505afa1580156116ab573d6000803e3d6000fd5b505050506040513d601f19601f820116820180604052508101906116cf9190612c54565b90506116e7848484846116e28b8d613848565b612232565b94508785101561172d576040517f6efd26080000000000000000000000000000000000000000000000000000000081526004810189905260248101869052604401610148565b61176e73ffffffffffffffffffffffffffffffffffffffff7f0000000000000000000000000000000000000000000000000000000000000000168b876120f1565b50505050979650505050505050565b80516117885761188d565b600080600080848060200190518101906117a291906131a0565b93509350935093506000846117b757876117d9565b7fffffffffffffffffffffffffffffffffffffffffffffffffffffffffffffffff5b6040517fd505accf000000000000000000000000000000000000000000000000000000008152336004820152306024820152604481018290526064810189905260ff8616608482015260a4810185905260c4810184905290915073ffffffffffffffffffffffffffffffffffffffff8a169063d505accf9060e4015b600060405180830381600087803b15801561186f57600080fd5b505af1158015611883573d6000803e3d6000fd5b5050505050505050505b50505050565b60006040518060c001604052808a73ffffffffffffffffffffffffffffffffffffffff1681526020018973ffffffffffffffffffffffffffffffffffffffff1681526020018873ffffffffffffffffffffffffffffffffffffffff1681526020018573ffffffffffffffffffffffffffffffffffffffff1681526020018681526020018484906119239190613848565b905260405161193591906020016135e1565b604080517fffffffffffffffffffffffffffffffffffffffffffffffffffffffffffffffe0818403018152908290527f1e7dcc0d000000000000000000000000000000000000000000000000000000008252915073ffffffffffffffffffffffffffffffffffffffff881690631e7dcc0d9061185590879030908b90879060040161348c565b60008773ffffffffffffffffffffffffffffffffffffffff16633ba0b9a96040518163ffffffff1660e01b8152600401602060405180830381600087803b158015611a0557600080fd5b505af1158015611a19573d6000803e3d6000fd5b505050506040513d601f19601f82011682018060405250810190611a3d91906133b3565b90506000611a4b87836126be565b905060006040518060e001604052808873ffffffffffffffffffffffffffffffffffffffff1681526020018b73ffffffffffffffffffffffffffffffffffffffff1681526020018a73ffffffffffffffffffffffffffffffffffffffff168152602001611ab53390565b73ffffffffffffffffffffffffffffffffffffffff168152602081018a905260408101889052606001611ae88688613848565b9052604051611afa919060200161364c565b604080517fffffffffffffffffffffffffffffffffffffffffffffffffffffffffffffffe0818403018152908290527ffa14fdc2000000000000000000000000000000000000000000000000000000008252915073ffffffffffffffffffffffffffffffffffffffff8b169063fa14fdc290611b7e903090869086906004016134cb565b600060405180830381600087803b158015611b9857600080fd5b505af11580156112b5573d6000803e3d6000fd5b6000806000807f000000000000000000000000000000000000000000000000000000000000000073ffffffffffffffffffffffffffffffffffffffff168873ffffffffffffffffffffffffffffffffffffffff161480611c5757507f000000000000000000000000000000000000000000000000000000000000000073ffffffffffffffffffffffffffffffffffffffff168773ffffffffffffffffffffffffffffffffffffffff16145b15611cc3577f000000000000000000000000000000000000000000000000000000000000000073ffffffffffffffffffffffffffffffffffffffff168873ffffffffffffffffffffffffffffffffffffffff1614611cb6578688611cb9565b87875b9092509050611e19565b611d0e85600081518110611d00577f4e487b7100000000000000000000000000000000000000000000000000000000600052603260045260246000fd5b6020026020010151876126ec565b507f000000000000000000000000000000000000000000000000000000000000000073ffffffffffffffffffffffffffffffffffffffff168873ffffffffffffffffffffffffffffffffffffffff161480611db457507f000000000000000000000000000000000000000000000000000000000000000073ffffffffffffffffffffffffffffffffffffffff168773ffffffffffffffffffffffffffffffffffffffff16145b15611e13577f000000000000000000000000000000000000000000000000000000000000000073ffffffffffffffffffffffffffffffffffffffff168873ffffffffffffffffffffffffffffffffffffffff1614611cb6578688611cb9565b50869050855b6000808a73ffffffffffffffffffffffffffffffffffffffff16630902f1ac6040518163ffffffff1660e01b815260040160606040518083038186803b158015611e6257600080fd5b505afa158015611e76573d6000803e3d6000fd5b505050506040513d601f19601f82011682018060405250810190611e9a9190613365565b50915091506000808b73ffffffffffffffffffffffffffffffffffffffff168673ffffffffffffffffffffffffffffffffffffffff1614611edc578284611edf565b83835b6dffffffffffffffffffffffffffff1691506dffffffffffffffffffffffffffff1691506000611f1a611f118861282b565b846103e5612853565b90506000611f29828585612978565b9050611f568f838a73ffffffffffffffffffffffffffffffffffffffff166120f19092919063ffffffff16565b8d73ffffffffffffffffffffffffffffffffffffffff168873ffffffffffffffffffffffffffffffffffffffff161461202b5773ffffffffffffffffffffffffffffffffffffffff8f1663022c0d9f82600030816040519080825280601f01601f191660200182016040528015611fd4576020820181803683370190505b506040518563ffffffff1660e01b8152600401611ff494939291906135a6565b600060405180830381600087803b15801561200e57600080fd5b505af1158015612022573d6000803e3d6000fd5b505050506120c9565b73ffffffffffffffffffffffffffffffffffffffff8f1663022c0d9f60008330826040519080825280601f01601f191660200182016040528015612076576020820181803683370190505b506040518563ffffffff1660e01b815260040161209694939291906135a6565b600060405180830381600087803b1580156120b057600080fd5b505af11580156120c4573d6000803e3d6000fd5b505050505b6120d28e61282b565b99506120dd8d61282b565b985050505050505050509550959350505050565b81601a5280603a5269a9059cbb00000000000060005260206000604460166000875af13d156001600051141716612130576390b8ec186000526004601cfd5b6000603a52505050565b6040517fdd62ed3e00000000000000000000000000000000000000000000000000000000815230600482015273ffffffffffffffffffffffffffffffffffffffff838116602483015282919085169063dd62ed3e9060440160206040518083038186803b1580156121aa57600080fd5b505afa1580156121be573d6000803e3d6000fd5b505050506040513d601f19601f820116820180604052508101906121e291906133b3565b106121ec57505050565b61222d73ffffffffffffffffffffffffffffffffffffffff8416837fffffffffffffffffffffffffffffffffffffffffffffffffffffffffffffffff6129c7565b505050565b60007f000000000000000000000000000000000000000000000000000000000000000073ffffffffffffffffffffffffffffffffffffffff168473ffffffffffffffffffffffffffffffffffffffff1614806122d957507f000000000000000000000000000000000000000000000000000000000000000073ffffffffffffffffffffffffffffffffffffffff168373ffffffffffffffffffffffffffffffffffffffff16145b156123ef577f000000000000000000000000000000000000000000000000000000000000000073ffffffffffffffffffffffffffffffffffffffff168473ffffffffffffffffffffffffffffffffffffffff16146123735761236e82600081518110611d00577f4e487b7100000000000000000000000000000000000000000000000000000000600052603260045260246000fd5b6123be565b6123be826000815181106123b0577f4e487b7100000000000000000000000000000000000000000000000000000000600052603260045260246000fd5b6020026020010151866126ec565b506123e87f000000000000000000000000000000000000000000000000000000000000000061282b565b905061141a565b61242c82600081518110611d00577f4e487b7100000000000000000000000000000000000000000000000000000000600052603260045260246000fd5b5061246a826001815181106123b0577f4e487b7100000000000000000000000000000000000000000000000000000000600052603260045260246000fd5b506124947f000000000000000000000000000000000000000000000000000000000000000061282b565b9695505050505050565b60006124ab858385611305565b90506124ce73ffffffffffffffffffffffffffffffffffffffff851686836120f1565b60408051600080825260208201928390527f1e7dcc0d0000000000000000000000000000000000000000000000000000000090925273ffffffffffffffffffffffffffffffffffffffff871691631e7dcc0d9161253291879181906024810161348c565b600060405180830381600087803b15801561254c57600080fd5b505af1158015612560573d6000803e3d6000fd5b50505050808211156126b75760006125788284613831565b90507f000000000000000000000000000000000000000000000000000000000000000073ffffffffffffffffffffffffffffffffffffffff168573ffffffffffffffffffffffffffffffffffffffff161415612694576040517f2e1a7d4d000000000000000000000000000000000000000000000000000000008152600481018290527f000000000000000000000000000000000000000000000000000000000000000073ffffffffffffffffffffffffffffffffffffffff1690632e1a7d4d90602401600060405180830381600087803b15801561265657600080fd5b505af115801561266a573d6000803e3d6000fd5b5061268f9250505073ffffffffffffffffffffffffffffffffffffffff851682612a06565b6126b5565b6126b573ffffffffffffffffffffffffffffffffffffffff861685836120f1565b505b5050505050565b6000816000190483118202156126dc5763bac65e5b6000526004601cfd5b50670de0b6b3a764000091020490565b6000806000806000868060200190518101906127089190612c70565b93509350935093508583608001511461272357608083018690525b61275683600001517f0000000000000000000000000000000000000000000000000000000000000000856080015161213a565b6040517f12aa3caf00000000000000000000000000000000000000000000000000000000815273ffffffffffffffffffffffffffffffffffffffff7f000000000000000000000000000000000000000000000000000000000000000016906312aa3caf906127ce908790879087908790600401613513565b6040805180830381600087803b1580156127e757600080fd5b505af11580156127fb573d6000803e3d6000fd5b505050506040513d601f19601f8201168201806040525081019061281f91906133cb565b50979650505050505050565b600061284d73ffffffffffffffffffffffffffffffffffffffff831630612a26565b92915050565b60008083612863846103e86137a3565b61286d91906137f4565b90506000838561287f886103e86137f4565b61288991906137f4565b6128949060046137f4565b61289e91906137f4565b90506000612946826128b085806137f4565b6128ba91906137a3565b70ffffffffffffffffffffffffffffffffff811160071b81811c68ffffffffffffffffff1060061b1781811c64ffffffffff1060051b1781811c62ffffff1060041b1781811c620100000160b5600192831c1b0260121c80830401811c80830401811c80830401811c80830401811c80830401811c80830401811c80830401901c908190048111900390565b905060006129558660026137f4565b9050806129628584613831565b61296c91906137bb565b98975050505050505050565b600080612987856103e56137f4565b9050600061299584836137f4565b90506000826129a6876103e86137f4565b6129b091906137a3565b90506129bc81836137bb565b979650505050505050565b81601a5280603a5269095ea7b300000000000060005260206000604460166000875af13d15600160005114171661213057633e3f8f736000526004601cfd5b60008060008084865af1612a225763b12d13eb6000526004601cfd5b5050565b60006370a08231600052816020526020806024601c865afa601f3d111660205102905092915050565b600067ffffffffffffffff80841115612a6a57612a6a6138b0565b8360051b6020612a7b81830161370e565b868152935080840185838101891015612a9357600080fd5b600093505b87841015612b0f57803585811115612aaf57600080fd5b8701601f81018a13612ac057600080fd5b8035612ad3612ace8261375d565b61370e565b8181528b86838501011115612ae757600080fd5b8186840187830137600091810186019190915283525060019390930192908201908201612a98565b50505050509392505050565b8035612b26816138df565b919050565b60008083601f840112612b3c578182fd5b50813567ffffffffffffffff811115612b53578182fd5b6020830191508360208260051b8501011115612b6e57600080fd5b9250929050565b600082601f830112612b85578081fd5b612b9483833560208501612a4f565b9392505050565b80518015158114612b2657600080fd5b60008083601f840112612bbc578182fd5b50813567ffffffffffffffff811115612bd3578182fd5b602083019150836020828501011115612b6e57600080fd5b600082601f830112612bfb578081fd5b8151612c09612ace8261375d565b818152846020838601011115612c1d578283fd5b612c2e826020830160208701613855565b949350505050565b80516dffffffffffffffffffffffffffff81168114612b2657600080fd5b600060208284031215612c65578081fd5b8151612b94816138df565b600080600080848603610140811215612c87578384fd5b8551612c92816138df565b945060e07fffffffffffffffffffffffffffffffffffffffffffffffffffffffffffffffe082011215612cc3578384fd5b50612ccc6136c2565b6020860151612cda816138df565b81526040860151612cea816138df565b60208201526060860151612cfd816138df565b60408201526080860151612d10816138df565b8060608301525060a0860151608082015260c086015160a082015260e086015160c08201528093505061010085015167ffffffffffffffff80821115612d54578384fd5b612d6088838901612beb565b9350610120870151915080821115612d76578283fd5b50612d8387828801612beb565b91505092959194509250565b6000806000806000806000806000806101208b8d031215612dae578788fd5b8a35612db9816138df565b995060208b0135612dc9816138df565b985060408b0135612dd9816138df565b975060608b0135965060808b0135955060a08b0135612df7816138df565b945060c08b0135612e07816138df565b935060e08b013592506101008b013567ffffffffffffffff811115612e2a578283fd5b612e368d828e01612b2b565b915080935050809150509295989b9194979a5092959850565b6000806000806000806000806000806101008b8d031215612e6e578384fd5b8a35612e79816138df565b995060208b0135612e89816138df565b985060408b0135975060608b0135965060808b0135612ea7816138df565b955060a08b0135945060c08b013567ffffffffffffffff80821115612eca578586fd5b612ed68e838f01612b2b565b909650945060e08d0135915080821115612eee578384fd5b50612e368d828e01612bab565b600080600080600080600080600060e08a8c031215612f18578283fd5b8935612f23816138df565b985060208a0135612f33816138df565b975060408a0135965060608a0135955060808a0135945060a08a013567ffffffffffffffff80821115612f64578485fd5b612f708d838e01612b2b565b909650945060c08c0135915080821115612f88578384fd5b50612f958c828d01612bab565b915080935050809150509295985092959850929598565b60008060008060008060a08789031215612fc4578384fd5b8635612fcf816138df565b9550602087013594506040870135612fe6816138df565b93506060870135612ff6816138df565b9250608087013567ffffffffffffffff811115613011578283fd5b61301d89828a01612bab565b979a9699509497509295939492505050565b600080600080600060a08688031215613046578283fd5b8535613051816138df565b9450602086013593506040860135613068816138df565b92506060860135613078816138df565b949793965091946080013592915050565b6000806000806080858703121561309e578182fd5b84356130a9816138df565b93506020850135925060408501356130c0816138df565b9396929550929360600135925050565b60008060008060008060a087890312156130e8578384fd5b86356130f3816138df565b955060208701359450604087013561310a816138df565b935060608701359250608087013567ffffffffffffffff811115613011578283fd5b60008060008060608587031215613141578182fd5b843561314c816138df565b935060208501359250604085013567ffffffffffffffff81111561316e578283fd5b61317a87828801612bab565b95989497509550505050565b600060208284031215613197578081fd5b612b9482612b9b565b600080600080608085870312156131b5578182fd5b6131be85612b9b565b9350602085015160ff811681146131d3578283fd5b6040860151606090960151949790965092505050565b6000602082840312156131fa578081fd5b813567ffffffffffffffff80821115613211578283fd5b9083019060c08286031215613224578283fd5b61322c6136eb565b8235613237816138df565b81526020830135613247816138df565b602082015261325860408401612b1b565b604082015261326960608401612b1b565b60608201526080830135608082015260a083013582811115613289578485fd5b61329587828601612b75565b60a08301525095945050505050565b6000602082840312156132b5578081fd5b813567ffffffffffffffff808211156132cc578283fd5b9083019060e082860312156132df578283fd5b6132e76136c2565b6132f083612b1b565b81526132fe60208401612b1b565b602082015261330f60408401612b1b565b604082015261332060608401612b1b565b60608201526080830135608082015260a083013560a082015260c08301358281111561334a578485fd5b61335687828601612b75565b60c08301525095945050505050565b600080600060608486031215613379578081fd5b61338284612c36565b925061339060208501612c36565b9150604084015163ffffffff811681146133a8578182fd5b809150509250925092565b6000602082840312156133c4578081fd5b5051919050565b600080604083850312156133dd578182fd5b505080516020909101519092909150565b600081518084526020808501808196508360051b81019150828601855b85811015613435578284038952613423848351613442565b9885019893509084019060010161340b565b5091979650505050505050565b6000815180845261345a816020860160208601613855565b601f017fffffffffffffffffffffffffffffffffffffffffffffffffffffffffffffffe0169290920160200192915050565b600073ffffffffffffffffffffffffffffffffffffffff8087168352808616602084015250836040830152608060608301526124946080830184613442565b73ffffffffffffffffffffffffffffffffffffffff8416815282602082015260606040820152600061141a6060830184613442565b602081526000612b946020830184613442565b600061014073ffffffffffffffffffffffffffffffffffffffff808816845280875116602085015280602088015116604085015280604088015116606085015280606088015116608085015250608086015160a084015260a086015160c084015260c086015160e08401528061010084015261359181840186613442565b90508281036101208401526129bc8185613442565b84815283602082015273ffffffffffffffffffffffffffffffffffffffff831660408201526080606082015260006124946080830184613442565b60208152600073ffffffffffffffffffffffffffffffffffffffff80845116602084015280602085015116604084015280604085015116606084015280606085015116608084015250608083015160a083015260a083015160c080840152612c2e60e08401826133ee565b60208152600073ffffffffffffffffffffffffffffffffffffffff80845116602084015280602085015116604084015280604085015116606084015280606085015116608084015250608083015160a083015260a083015160c083015260c083015160e080840152612c2e6101008401826133ee565b60405160e0810167ffffffffffffffff811182821017156136e5576136e56138b0565b60405290565b60405160c0810167ffffffffffffffff811182821017156136e5576136e56138b0565b604051601f82017fffffffffffffffffffffffffffffffffffffffffffffffffffffffffffffffe016810167ffffffffffffffff81118282101715613755576137556138b0565b604052919050565b600067ffffffffffffffff821115613777576137776138b0565b50601f017fffffffffffffffffffffffffffffffffffffffffffffffffffffffffffffffe01660200190565b600082198211156137b6576137b6613881565b500190565b6000826137ef577f4e487b710000000000000000000000000000000000000000000000000000000081526012600452602481fd5b500490565b6000817fffffffffffffffffffffffffffffffffffffffffffffffffffffffffffffffff048311821515161561382c5761382c613881565b500290565b60008282101561384357613843613881565b500390565b6000612b94368484612a4f565b60005b83811015613870578181015183820152602001613858565b8381111561188d5750506000910152565b7f4e487b7100000000000000000000000000000000000000000000000000000000600052601160045260246000fd5b7f4e487b7100000000000000000000000000000000000000000000000000000000600052604160045260246000fd5b73ffffffffffffffffffffffffffffffffffffffff8116811461130257600080fdfea26469706673582212207c6846511876f5b6f1ab0ea47cad04e8d43136ba878ab5d56a36a5d2428d6ec664736f6c63430008040033","opcodes":"PUSH2 0x100 PUSH1 0x40 MSTORE CALLVALUE DUP1 ISZERO PUSH3 0x12 JUMPI PUSH1 0x0 DUP1 REVERT JUMPDEST POP PUSH1 0x40 MLOAD PUSH3 0x3BEB CODESIZE SUB DUP1 PUSH3 0x3BEB DUP4 CODECOPY DUP2 ADD PUSH1 0x40 DUP2 SWAP1 MSTORE PUSH3 0x35 SWAP2 PUSH3 0x1BA JUMP JUMPDEST DUP2 PUSH1 0x1 PUSH1 0x1 PUSH1 0xA0 SHL SUB AND PUSH1 0xA0 DUP2 PUSH1 0x1 PUSH1 0x1 PUSH1 0xA0 SHL SUB AND PUSH1 0x60 SHL DUP2 MSTORE POP POP DUP2 PUSH1 0x1 PUSH1 0x1 PUSH1 0xA0 SHL SUB AND PUSH4 0xE1758BD8 PUSH1 0x40 MLOAD DUP2 PUSH4 0xFFFFFFFF AND PUSH1 0xE0 SHL DUP2 MSTORE PUSH1 0x4 ADD PUSH1 0x20 PUSH1 0x40 MLOAD DUP1 DUP4 SUB DUP2 DUP7 DUP1 EXTCODESIZE ISZERO DUP1 ISZERO PUSH3 0x8C JUMPI PUSH1 0x0 DUP1 REVERT JUMPDEST POP GAS STATICCALL ISZERO DUP1 ISZERO PUSH3 0xA1 JUMPI RETURNDATASIZE PUSH1 0x0 DUP1 RETURNDATACOPY RETURNDATASIZE PUSH1 0x0 REVERT JUMPDEST POP POP POP POP PUSH1 0x40 MLOAD RETURNDATASIZE PUSH1 0x1F NOT PUSH1 0x1F DUP3 ADD AND DUP3 ADD DUP1 PUSH1 0x40 MSTORE POP DUP2 ADD SWAP1 PUSH3 0xC7 SWAP2 SWAP1 PUSH3 0x196 JUMP JUMPDEST PUSH1 0x1 PUSH1 0x1 PUSH1 0xA0 SHL SUB AND PUSH1 0xC0 DUP2 PUSH1 0x1 PUSH1 0x1 PUSH1 0xA0 SHL SUB AND PUSH1 0x60 SHL DUP2 MSTORE POP POP DUP2 PUSH1 0x1 PUSH1 0x1 PUSH1 0xA0 SHL SUB AND PUSH4 0xD63A6CCD PUSH1 0x40 MLOAD DUP2 PUSH4 0xFFFFFFFF AND PUSH1 0xE0 SHL DUP2 MSTORE PUSH1 0x4 ADD PUSH1 0x20 PUSH1 0x40 MLOAD DUP1 DUP4 SUB DUP2 DUP7 DUP1 EXTCODESIZE ISZERO DUP1 ISZERO PUSH3 0x11D JUMPI PUSH1 0x0 DUP1 REVERT JUMPDEST POP GAS STATICCALL ISZERO DUP1 ISZERO PUSH3 0x132 JUMPI RETURNDATASIZE PUSH1 0x0 DUP1 RETURNDATACOPY RETURNDATASIZE PUSH1 0x0 REVERT JUMPDEST POP POP POP POP PUSH1 0x40 MLOAD RETURNDATASIZE PUSH1 0x1F NOT PUSH1 0x1F DUP3 ADD AND DUP3 ADD DUP1 PUSH1 0x40 MSTORE POP DUP2 ADD SWAP1 PUSH3 0x158 SWAP2 SWAP1 PUSH3 0x196 JUMP JUMPDEST PUSH1 0x1 PUSH1 0x1 PUSH1 0x60 SHL SUB NOT PUSH1 0x60 SWAP2 DUP3 SHL DUP2 AND PUSH1 0x80 MSTORE SWAP2 SWAP1 SHL AND PUSH1 0xE0 MSTORE POP PUSH3 0x1F1 JUMP JUMPDEST DUP1 MLOAD PUSH1 0x1 PUSH1 0x1 PUSH1 0xA0 SHL SUB DUP2 AND DUP2 EQ PUSH3 0x191 JUMPI PUSH1 0x0 DUP1 REVERT JUMPDEST SWAP2 SWAP1 POP JUMP JUMPDEST PUSH1 0x0 PUSH1 0x20 DUP3 DUP5 SUB SLT ISZERO PUSH3 0x1A8 JUMPI DUP1 DUP2 REVERT JUMPDEST PUSH3 0x1B3 DUP3 PUSH3 0x179 JUMP JUMPDEST SWAP4 SWAP3 POP POP POP JUMP JUMPDEST PUSH1 0x0 DUP1 PUSH1 0x40 DUP4 DUP6 SUB SLT ISZERO PUSH3 0x1CD JUMPI DUP1 DUP2 REVERT JUMPDEST PUSH3 0x1D8 DUP4 PUSH3 0x179 JUMP JUMPDEST SWAP2 POP PUSH3 0x1E8 PUSH1 0x20 DUP5 ADD PUSH3 0x179 JUMP JUMPDEST SWAP1 POP SWAP3 POP SWAP3 SWAP1 POP JUMP JUMPDEST PUSH1 0x80 MLOAD PUSH1 0x60 SHR PUSH1 0xA0 MLOAD PUSH1 0x60 SHR PUSH1 0xC0 MLOAD PUSH1 0x60 SHR PUSH1 0xE0 MLOAD PUSH1 0x60 SHR PUSH2 0x3937 PUSH3 0x2B4 PUSH1 0x0 CODECOPY PUSH1 0x0 DUP2 DUP2 PUSH2 0x1BD ADD MSTORE DUP2 DUP2 PUSH2 0x272D ADD MSTORE PUSH2 0x2793 ADD MSTORE PUSH1 0x0 DUP2 DUP2 PUSH1 0xDE ADD MSTORE DUP2 DUP2 PUSH2 0x34E ADD MSTORE DUP2 DUP2 PUSH2 0x1D11 ADD MSTORE DUP2 DUP2 PUSH2 0x1D66 ADD MSTORE DUP2 DUP2 PUSH2 0x1DBB ADD MSTORE DUP2 DUP2 PUSH2 0x257C ADD MSTORE PUSH2 0x25FD ADD MSTORE PUSH1 0x0 PUSH2 0x382 ADD MSTORE PUSH1 0x0 DUP2 DUP2 PUSH2 0x2FA ADD MSTORE DUP2 DUP2 PUSH2 0x11E0 ADD MSTORE DUP2 DUP2 PUSH2 0x1747 ADD MSTORE DUP2 DUP2 PUSH2 0x1BB4 ADD MSTORE DUP2 DUP2 PUSH2 0x1C09 ADD MSTORE DUP2 DUP2 PUSH2 0x1C5E ADD MSTORE DUP2 DUP2 PUSH2 0x2236 ADD MSTORE DUP2 DUP2 PUSH2 0x228B ADD MSTORE DUP2 DUP2 PUSH2 0x22E0 ADD MSTORE DUP2 DUP2 PUSH2 0x23C4 ADD MSTORE PUSH2 0x2470 ADD MSTORE PUSH2 0x3937 PUSH1 0x0 RETURN INVALID PUSH1 0x80 PUSH1 0x40 MSTORE PUSH1 0x4 CALLDATASIZE LT PUSH2 0xD6 JUMPI PUSH1 0x0 CALLDATALOAD PUSH1 0xE0 SHR DUP1 PUSH4 0x7F69E8D2 GT PUSH2 0x7F JUMPI DUP1 PUSH4 0xD63A6CCD GT PUSH2 0x59 JUMPI DUP1 PUSH4 0xD63A6CCD EQ PUSH2 0x2E8 JUMPI DUP1 PUSH4 0xDBE5F2FB EQ PUSH2 0x31C JUMPI DUP1 PUSH4 0xE1758BD8 EQ PUSH2 0x33C JUMPI DUP1 PUSH4 0xE8A24E1D EQ PUSH2 0x370 JUMPI PUSH1 0x0 DUP1 REVERT JUMPDEST DUP1 PUSH4 0x7F69E8D2 EQ PUSH2 0x279 JUMPI DUP1 PUSH4 0x8F53D74F EQ PUSH2 0x299 JUMPI DUP1 PUSH4 0x953EC666 EQ PUSH2 0x2B9 JUMPI PUSH1 0x0 DUP1 REVERT JUMPDEST DUP1 PUSH4 0x5C1E6404 GT PUSH2 0xB0 JUMPI DUP1 PUSH4 0x5C1E6404 EQ PUSH2 0x204 JUMPI DUP1 PUSH4 0x6AEE7C1E EQ PUSH2 0x239 JUMPI DUP1 PUSH4 0x726BB08C EQ PUSH2 0x259 JUMPI PUSH1 0x0 DUP1 REVERT JUMPDEST DUP1 PUSH4 0x188A4B6C EQ PUSH2 0x158 JUMPI DUP1 PUSH4 0x24A28813 EQ PUSH2 0x178 JUMPI DUP1 PUSH4 0x41CB8AFD EQ PUSH2 0x1AB JUMPI PUSH1 0x0 DUP1 REVERT JUMPDEST CALLDATASIZE PUSH2 0x153 JUMPI CALLER PUSH32 0x0 PUSH20 0xFFFFFFFFFFFFFFFFFFFFFFFFFFFFFFFFFFFFFFFF AND EQ PUSH2 0x151 JUMPI PUSH1 0x40 MLOAD PUSH32 0xB585641600000000000000000000000000000000000000000000000000000000 DUP2 MSTORE CALLER PUSH1 0x4 DUP3 ADD MSTORE PUSH1 0x24 ADD JUMPDEST PUSH1 0x40 MLOAD DUP1 SWAP2 SUB SWAP1 REVERT JUMPDEST STOP JUMPDEST PUSH1 0x0 DUP1 REVERT JUMPDEST CALLVALUE DUP1 ISZERO PUSH2 0x164 JUMPI PUSH1 0x0 DUP1 REVERT JUMPDEST POP PUSH2 0x151 PUSH2 0x173 CALLDATASIZE PUSH1 0x4 PUSH2 0x2FAC JUMP JUMPDEST PUSH2 0x3A4 JUMP JUMPDEST CALLVALUE DUP1 ISZERO PUSH2 0x184 JUMPI PUSH1 0x0 DUP1 REVERT JUMPDEST POP PUSH2 0x198 PUSH2 0x193 CALLDATASIZE PUSH1 0x4 PUSH2 0x2D8F JUMP JUMPDEST PUSH2 0x4E5 JUMP JUMPDEST PUSH1 0x40 MLOAD SWAP1 DUP2 MSTORE PUSH1 0x20 ADD JUMPDEST PUSH1 0x40 MLOAD DUP1 SWAP2 SUB SWAP1 RETURN JUMPDEST CALLVALUE DUP1 ISZERO PUSH2 0x1B7 JUMPI PUSH1 0x0 DUP1 REVERT JUMPDEST POP PUSH2 0x1DF PUSH32 0x0 DUP2 JUMP JUMPDEST PUSH1 0x40 MLOAD PUSH20 0xFFFFFFFFFFFFFFFFFFFFFFFFFFFFFFFFFFFFFFFF SWAP1 SWAP2 AND DUP2 MSTORE PUSH1 0x20 ADD PUSH2 0x1A2 JUMP JUMPDEST CALLVALUE DUP1 ISZERO PUSH2 0x210 JUMPI PUSH1 0x0 DUP1 REVERT JUMPDEST POP PUSH2 0x224 PUSH2 0x21F CALLDATASIZE PUSH1 0x4 PUSH2 0x302F JUMP JUMPDEST PUSH2 0x672 JUMP JUMPDEST PUSH1 0x40 DUP1 MLOAD SWAP3 DUP4 MSTORE PUSH1 0x20 DUP4 ADD SWAP2 SWAP1 SWAP2 MSTORE ADD PUSH2 0x1A2 JUMP JUMPDEST CALLVALUE DUP1 ISZERO PUSH2 0x245 JUMPI PUSH1 0x0 DUP1 REVERT JUMPDEST POP PUSH2 0x198 PUSH2 0x254 CALLDATASIZE PUSH1 0x4 PUSH2 0x3089 JUMP JUMPDEST PUSH2 0x78E JUMP JUMPDEST CALLVALUE DUP1 ISZERO PUSH2 0x265 JUMPI PUSH1 0x0 DUP1 REVERT JUMPDEST POP PUSH2 0x151 PUSH2 0x274 CALLDATASIZE PUSH1 0x4 PUSH2 0x2E4F JUMP JUMPDEST PUSH2 0x892 JUMP JUMPDEST CALLVALUE DUP1 ISZERO PUSH2 0x285 JUMPI PUSH1 0x0 DUP1 REVERT JUMPDEST POP PUSH2 0x151 PUSH2 0x294 CALLDATASIZE PUSH1 0x4 PUSH2 0x2EFB JUMP JUMPDEST PUSH2 0x97E JUMP JUMPDEST CALLVALUE DUP1 ISZERO PUSH2 0x2A5 JUMPI PUSH1 0x0 DUP1 REVERT JUMPDEST POP PUSH2 0x151 PUSH2 0x2B4 CALLDATASIZE PUSH1 0x4 PUSH2 0x312C JUMP JUMPDEST PUSH2 0xAAB JUMP JUMPDEST CALLVALUE DUP1 ISZERO PUSH2 0x2C5 JUMPI PUSH1 0x0 DUP1 REVERT JUMPDEST POP PUSH2 0x2DB PUSH1 0x40 DUP1 MLOAD PUSH1 0x0 DUP2 MSTORE PUSH1 0x20 DUP2 ADD SWAP1 SWAP2 MSTORE DUP2 JUMP JUMPDEST PUSH1 0x40 MLOAD PUSH2 0x1A2 SWAP2 SWAP1 PUSH2 0x3500 JUMP JUMPDEST CALLVALUE DUP1 ISZERO PUSH2 0x2F4 JUMPI PUSH1 0x0 DUP1 REVERT JUMPDEST POP PUSH2 0x1DF PUSH32 0x0 DUP2 JUMP JUMPDEST CALLVALUE DUP1 ISZERO PUSH2 0x328 JUMPI PUSH1 0x0 DUP1 REVERT JUMPDEST POP PUSH2 0x151 PUSH2 0x337 CALLDATASIZE PUSH1 0x4 PUSH2 0x30D0 JUMP JUMPDEST PUSH2 0xEDE JUMP JUMPDEST CALLVALUE DUP1 ISZERO PUSH2 0x348 JUMPI PUSH1 0x0 DUP1 REVERT JUMPDEST POP PUSH2 0x1DF PUSH32 0x0 DUP2 JUMP JUMPDEST CALLVALUE DUP1 ISZERO PUSH2 0x37C JUMPI PUSH1 0x0 DUP1 REVERT JUMPDEST POP PUSH2 0x1DF PUSH32 0x0 DUP2 JUMP JUMPDEST PUSH1 0x0 PUSH2 0x3B2 DUP3 DUP5 ADD DUP5 PUSH2 0x32A4 JUMP JUMPDEST SWAP1 POP PUSH20 0xFFFFFFFFFFFFFFFFFFFFFFFFFFFFFFFFFFFFFFFF DUP8 AND ADDRESS EQ PUSH2 0x421 JUMPI PUSH1 0x40 MLOAD PUSH32 0xB61E0F2900000000000000000000000000000000000000000000000000000000 DUP2 MSTORE PUSH20 0xFFFFFFFFFFFFFFFFFFFFFFFFFFFFFFFFFFFFFFFF DUP9 AND PUSH1 0x4 DUP3 ADD MSTORE ORIGIN PUSH1 0x24 DUP3 ADD MSTORE PUSH1 0x44 ADD PUSH2 0x148 JUMP JUMPDEST PUSH1 0x20 DUP2 ADD MLOAD PUSH20 0xFFFFFFFFFFFFFFFFFFFFFFFFFFFFFFFFFFFFFFFF AND CALLER PUSH20 0xFFFFFFFFFFFFFFFFFFFFFFFFFFFFFFFFFFFFFFFF AND EQ PUSH2 0x4AE JUMPI PUSH1 0x20 DUP2 ADD MLOAD PUSH1 0x40 MLOAD PUSH32 0xE5AC816600000000000000000000000000000000000000000000000000000000 DUP2 MSTORE CALLER PUSH1 0x4 DUP3 ADD MSTORE PUSH20 0xFFFFFFFFFFFFFFFFFFFFFFFFFFFFFFFFFFFFFFFF SWAP1 SWAP2 AND PUSH1 0x24 DUP3 ADD MSTORE PUSH1 0x44 ADD PUSH2 0x148 JUMP JUMPDEST PUSH2 0x4DC DUP2 PUSH1 0x0 ADD MLOAD DUP3 PUSH1 0x60 ADD MLOAD DUP4 PUSH1 0x20 ADD MLOAD DUP5 PUSH1 0x40 ADD MLOAD DUP6 PUSH1 0x80 ADD MLOAD DUP7 PUSH1 0xA0 ADD MLOAD DUP13 DUP13 DUP13 DUP11 PUSH1 0xC0 ADD MLOAD PUSH2 0xFBD JUMP JUMPDEST POP POP POP POP POP POP POP JUMP JUMPDEST PUSH1 0x0 DUP4 PUSH2 0x4F1 DUP2 PUSH2 0x12C5 JUMP JUMPDEST PUSH1 0x0 PUSH2 0x4FE DUP12 DUP12 DUP11 PUSH2 0x1305 JUMP JUMPDEST SWAP1 POP PUSH2 0x5A2 CALLER DUP13 DUP4 DUP15 PUSH20 0xFFFFFFFFFFFFFFFFFFFFFFFFFFFFFFFFFFFFFFFF AND PUSH4 0x6F307DC3 PUSH1 0x40 MLOAD DUP2 PUSH4 0xFFFFFFFF AND PUSH1 0xE0 SHL DUP2 MSTORE PUSH1 0x4 ADD PUSH1 0x20 PUSH1 0x40 MLOAD DUP1 DUP4 SUB DUP2 DUP7 DUP1 EXTCODESIZE ISZERO DUP1 ISZERO PUSH2 0x54C JUMPI PUSH1 0x0 DUP1 REVERT JUMPDEST POP GAS STATICCALL ISZERO DUP1 ISZERO PUSH2 0x560 JUMPI RETURNDATASIZE PUSH1 0x0 DUP1 RETURNDATACOPY RETURNDATASIZE PUSH1 0x0 REVERT JUMPDEST POP POP POP POP PUSH1 0x40 MLOAD RETURNDATASIZE PUSH1 0x1F NOT PUSH1 0x1F DUP3 ADD AND DUP3 ADD DUP1 PUSH1 0x40 MSTORE POP DUP2 ADD SWAP1 PUSH2 0x584 SWAP2 SWAP1 PUSH2 0x2C54 JUMP JUMPDEST PUSH20 0xFFFFFFFFFFFFFFFFFFFFFFFFFFFFFFFFFFFFFFFF AND SWAP3 SWAP2 SWAP1 PUSH2 0x1423 JUMP JUMPDEST PUSH1 0x40 MLOAD PUSH32 0x86B9D81F00000000000000000000000000000000000000000000000000000000 DUP2 MSTORE PUSH20 0xFFFFFFFFFFFFFFFFFFFFFFFFFFFFFFFFFFFFFFFF DUP10 DUP2 AND PUSH1 0x4 DUP4 ADD MSTORE DUP9 DUP2 AND PUSH1 0x24 DUP4 ADD MSTORE PUSH1 0x0 SWAP2 SWAP1 DUP14 AND SWAP1 PUSH4 0x86B9D81F SWAP1 PUSH1 0x44 ADD PUSH1 0x20 PUSH1 0x40 MLOAD DUP1 DUP4 SUB DUP2 PUSH1 0x0 DUP8 DUP1 EXTCODESIZE ISZERO DUP1 ISZERO PUSH2 0x617 JUMPI PUSH1 0x0 DUP1 REVERT JUMPDEST POP GAS CALL ISZERO DUP1 ISZERO PUSH2 0x62B JUMPI RETURNDATASIZE PUSH1 0x0 DUP1 RETURNDATACOPY RETURNDATASIZE PUSH1 0x0 REVERT JUMPDEST POP POP POP POP PUSH1 0x40 MLOAD RETURNDATASIZE PUSH1 0x1F NOT PUSH1 0x1F DUP3 ADD AND DUP3 ADD DUP1 PUSH1 0x40 MSTORE POP DUP2 ADD SWAP1 PUSH2 0x64F SWAP2 SWAP1 PUSH2 0x33B3 JUMP JUMPDEST SWAP1 POP PUSH2 0x660 DUP15 DUP15 DUP11 DUP5 DUP15 DUP12 DUP12 PUSH2 0x1471 JUMP JUMPDEST SWAP15 SWAP14 POP POP POP POP POP POP POP POP POP POP POP POP POP POP JUMP JUMPDEST PUSH1 0x0 DUP1 DUP3 PUSH2 0x67F DUP2 PUSH2 0x12C5 JUMP JUMPDEST PUSH2 0x68A DUP9 DUP9 DUP9 PUSH2 0x1305 JUMP JUMPDEST SWAP3 POP PUSH2 0x6D8 CALLER DUP10 DUP6 DUP12 PUSH20 0xFFFFFFFFFFFFFFFFFFFFFFFFFFFFFFFFFFFFFFFF AND PUSH4 0x6F307DC3 PUSH1 0x40 MLOAD DUP2 PUSH4 0xFFFFFFFF AND PUSH1 0xE0 SHL DUP2 MSTORE PUSH1 0x4 ADD PUSH1 0x20 PUSH1 0x40 MLOAD DUP1 DUP4 SUB DUP2 DUP7 DUP1 EXTCODESIZE ISZERO DUP1 ISZERO PUSH2 0x54C JUMPI PUSH1 0x0 DUP1 REVERT JUMPDEST PUSH1 0x40 MLOAD PUSH32 0x86B9D81F00000000000000000000000000000000000000000000000000000000 DUP2 MSTORE PUSH20 0xFFFFFFFFFFFFFFFFFFFFFFFFFFFFFFFFFFFFFFFF DUP8 DUP2 AND PUSH1 0x4 DUP4 ADD MSTORE DUP7 DUP2 AND PUSH1 0x24 DUP4 ADD MSTORE DUP10 AND SWAP1 PUSH4 0x86B9D81F SWAP1 PUSH1 0x44 ADD PUSH1 0x20 PUSH1 0x40 MLOAD DUP1 DUP4 SUB DUP2 PUSH1 0x0 DUP8 DUP1 EXTCODESIZE ISZERO DUP1 ISZERO PUSH2 0x749 JUMPI PUSH1 0x0 DUP1 REVERT JUMPDEST POP GAS CALL ISZERO DUP1 ISZERO PUSH2 0x75D JUMPI RETURNDATASIZE PUSH1 0x0 DUP1 RETURNDATACOPY RETURNDATASIZE PUSH1 0x0 REVERT JUMPDEST POP POP POP POP PUSH1 0x40 MLOAD RETURNDATASIZE PUSH1 0x1F NOT PUSH1 0x1F DUP3 ADD AND DUP3 ADD DUP1 PUSH1 0x40 MSTORE POP DUP2 ADD SWAP1 PUSH2 0x781 SWAP2 SWAP1 PUSH2 0x33B3 JUMP JUMPDEST SWAP2 POP POP SWAP6 POP SWAP6 SWAP4 POP POP POP POP JUMP JUMPDEST PUSH1 0x0 DUP2 PUSH2 0x79A DUP2 PUSH2 0x12C5 JUMP JUMPDEST PUSH2 0x7A5 DUP7 DUP7 DUP7 PUSH2 0x1305 JUMP JUMPDEST SWAP2 POP PUSH2 0x7F3 CALLER DUP8 DUP5 DUP10 PUSH20 0xFFFFFFFFFFFFFFFFFFFFFFFFFFFFFFFFFFFFFFFF AND PUSH4 0x6F307DC3 PUSH1 0x40 MLOAD DUP2 PUSH4 0xFFFFFFFF AND PUSH1 0xE0 SHL DUP2 MSTORE PUSH1 0x4 ADD PUSH1 0x20 PUSH1 0x40 MLOAD DUP1 DUP4 SUB DUP2 DUP7 DUP1 EXTCODESIZE ISZERO DUP1 ISZERO PUSH2 0x54C JUMPI PUSH1 0x0 DUP1 REVERT JUMPDEST PUSH1 0x40 DUP1 MLOAD PUSH1 0x0 DUP1 DUP3 MSTORE PUSH1 0x20 DUP3 ADD SWAP3 DUP4 SWAP1 MSTORE PUSH32 0x1E7DCC0D00000000000000000000000000000000000000000000000000000000 SWAP1 SWAP3 MSTORE PUSH20 0xFFFFFFFFFFFFFFFFFFFFFFFFFFFFFFFFFFFFFFFF DUP9 AND SWAP2 PUSH4 0x1E7DCC0D SWAP2 PUSH2 0x857 SWAP2 DUP9 SWAP2 DUP2 SWAP1 PUSH1 0x24 DUP2 ADD PUSH2 0x348C JUMP JUMPDEST PUSH1 0x0 PUSH1 0x40 MLOAD DUP1 DUP4 SUB DUP2 PUSH1 0x0 DUP8 DUP1 EXTCODESIZE ISZERO DUP1 ISZERO PUSH2 0x871 JUMPI PUSH1 0x0 DUP1 REVERT JUMPDEST POP GAS CALL ISZERO DUP1 ISZERO PUSH2 0x885 JUMPI RETURNDATASIZE PUSH1 0x0 DUP1 RETURNDATACOPY RETURNDATASIZE PUSH1 0x0 REVERT JUMPDEST POP POP POP POP POP SWAP5 SWAP4 POP POP POP POP JUMP JUMPDEST DUP5 PUSH2 0x89C DUP2 PUSH2 0x12C5 JUMP JUMPDEST PUSH2 0x8DE DUP11 DUP11 DUP9 DUP7 DUP7 DUP1 DUP1 PUSH1 0x1F ADD PUSH1 0x20 DUP1 SWAP2 DIV MUL PUSH1 0x20 ADD PUSH1 0x40 MLOAD SWAP1 DUP2 ADD PUSH1 0x40 MSTORE DUP1 SWAP4 SWAP3 SWAP2 SWAP1 DUP2 DUP2 MSTORE PUSH1 0x20 ADD DUP4 DUP4 DUP1 DUP3 DUP5 CALLDATACOPY PUSH1 0x0 SWAP3 ADD SWAP2 SWAP1 SWAP2 MSTORE POP PUSH2 0x177D SWAP3 POP POP POP JUMP JUMPDEST PUSH1 0x0 DUP12 PUSH20 0xFFFFFFFFFFFFFFFFFFFFFFFFFFFFFFFFFFFFFFFF AND PUSH4 0x6F307DC3 PUSH1 0x40 MLOAD DUP2 PUSH4 0xFFFFFFFF AND PUSH1 0xE0 SHL DUP2 MSTORE PUSH1 0x4 ADD PUSH1 0x20 PUSH1 0x40 MLOAD DUP1 DUP4 SUB DUP2 DUP7 DUP1 EXTCODESIZE ISZERO DUP1 ISZERO PUSH2 0x926 JUMPI PUSH1 0x0 DUP1 REVERT JUMPDEST POP GAS STATICCALL ISZERO DUP1 ISZERO PUSH2 0x93A JUMPI RETURNDATASIZE PUSH1 0x0 DUP1 RETURNDATACOPY RETURNDATASIZE PUSH1 0x0 REVERT JUMPDEST POP POP POP POP PUSH1 0x40 MLOAD RETURNDATASIZE PUSH1 0x1F NOT PUSH1 0x1F DUP3 ADD AND DUP3 ADD DUP1 PUSH1 0x40 MSTORE POP DUP2 ADD SWAP1 PUSH2 0x95E SWAP2 SWAP1 PUSH2 0x2C54 JUMP JUMPDEST SWAP1 POP PUSH2 0x970 DUP2 DUP14 DUP14 DUP14 DUP14 DUP14 DUP13 DUP13 PUSH2 0x1893 JUMP JUMPDEST POP POP POP POP POP POP POP POP POP POP POP POP JUMP JUMPDEST DUP5 PUSH2 0x988 DUP2 PUSH2 0x12C5 JUMP JUMPDEST PUSH1 0x0 DUP9 GT PUSH2 0x9CB JUMPI PUSH1 0x40 MLOAD PUSH32 0xC1055D000000000000000000000000000000000000000000000000000000000 DUP2 MSTORE CALLER PUSH1 0x4 DUP3 ADD MSTORE PUSH1 0x24 DUP2 ADD DUP10 SWAP1 MSTORE PUSH1 0x44 ADD PUSH2 0x148 JUMP JUMPDEST PUSH2 0xA0D DUP11 DUP10 DUP9 DUP7 DUP7 DUP1 DUP1 PUSH1 0x1F ADD PUSH1 0x20 DUP1 SWAP2 DIV MUL PUSH1 0x20 ADD PUSH1 0x40 MLOAD SWAP1 DUP2 ADD PUSH1 0x40 MSTORE DUP1 SWAP4 SWAP3 SWAP2 SWAP1 DUP2 DUP2 MSTORE PUSH1 0x20 ADD DUP4 DUP4 DUP1 DUP3 DUP5 CALLDATACOPY PUSH1 0x0 SWAP3 ADD SWAP2 SWAP1 SWAP2 MSTORE POP PUSH2 0x177D SWAP3 POP POP POP JUMP JUMPDEST PUSH1 0x0 DUP11 PUSH20 0xFFFFFFFFFFFFFFFFFFFFFFFFFFFFFFFFFFFFFFFF AND PUSH4 0x6F307DC3 PUSH1 0x40 MLOAD DUP2 PUSH4 0xFFFFFFFF AND PUSH1 0xE0 SHL DUP2 MSTORE PUSH1 0x4 ADD PUSH1 0x20 PUSH1 0x40 MLOAD DUP1 DUP4 SUB DUP2 DUP7 DUP1 EXTCODESIZE ISZERO DUP1 ISZERO PUSH2 0xA55 JUMPI PUSH1 0x0 DUP1 REVERT JUMPDEST POP GAS STATICCALL ISZERO DUP1 ISZERO PUSH2 0xA69 JUMPI RETURNDATASIZE PUSH1 0x0 DUP1 RETURNDATACOPY RETURNDATASIZE PUSH1 0x0 REVERT JUMPDEST POP POP POP POP PUSH1 0x40 MLOAD RETURNDATASIZE PUSH1 0x1F NOT PUSH1 0x1F DUP3 ADD AND DUP3 ADD DUP1 PUSH1 0x40 MSTORE POP DUP2 ADD SWAP1 PUSH2 0xA8D SWAP2 SWAP1 PUSH2 0x2C54 JUMP JUMPDEST SWAP1 POP PUSH2 0xA9E DUP12 DUP12 DUP12 DUP5 DUP13 DUP12 DUP12 PUSH2 0x19BB JUMP JUMPDEST POP POP POP POP POP POP POP POP POP POP POP JUMP JUMPDEST PUSH1 0x0 PUSH2 0xAB9 DUP3 DUP5 ADD DUP5 PUSH2 0x31E9 JUMP JUMPDEST SWAP1 POP PUSH20 0xFFFFFFFFFFFFFFFFFFFFFFFFFFFFFFFFFFFFFFFF DUP6 AND ADDRESS EQ PUSH2 0xB28 JUMPI PUSH1 0x40 MLOAD PUSH32 0xB61E0F2900000000000000000000000000000000000000000000000000000000 DUP2 MSTORE PUSH20 0xFFFFFFFFFFFFFFFFFFFFFFFFFFFFFFFFFFFFFFFF DUP7 AND PUSH1 0x4 DUP3 ADD MSTORE ORIGIN PUSH1 0x24 DUP3 ADD MSTORE PUSH1 0x44 ADD PUSH2 0x148 JUMP JUMPDEST PUSH1 0x40 DUP2 ADD MLOAD PUSH20 0xFFFFFFFFFFFFFFFFFFFFFFFFFFFFFFFFFFFFFFFF AND CALLER PUSH20 0xFFFFFFFFFFFFFFFFFFFFFFFFFFFFFFFFFFFFFFFF AND EQ PUSH2 0xBB5 JUMPI PUSH1 0x40 DUP2 DUP2 ADD MLOAD SWAP1 MLOAD PUSH32 0xAEAD146700000000000000000000000000000000000000000000000000000000 DUP2 MSTORE CALLER PUSH1 0x4 DUP3 ADD MSTORE PUSH20 0xFFFFFFFFFFFFFFFFFFFFFFFFFFFFFFFFFFFFFFFF SWAP1 SWAP2 AND PUSH1 0x24 DUP3 ADD MSTORE PUSH1 0x44 ADD PUSH2 0x148 JUMP JUMPDEST PUSH1 0x0 DUP2 PUSH1 0x0 ADD MLOAD PUSH20 0xFFFFFFFFFFFFFFFFFFFFFFFFFFFFFFFFFFFFFFFF AND PUSH4 0xDFE1681 PUSH1 0x40 MLOAD DUP2 PUSH4 0xFFFFFFFF AND PUSH1 0xE0 SHL DUP2 MSTORE PUSH1 0x4 ADD PUSH1 0x20 PUSH1 0x40 MLOAD DUP1 DUP4 SUB DUP2 DUP7 DUP1 EXTCODESIZE ISZERO DUP1 ISZERO PUSH2 0xC01 JUMPI PUSH1 0x0 DUP1 REVERT JUMPDEST POP GAS STATICCALL ISZERO DUP1 ISZERO PUSH2 0xC15 JUMPI RETURNDATASIZE PUSH1 0x0 DUP1 RETURNDATACOPY RETURNDATASIZE PUSH1 0x0 REVERT JUMPDEST POP POP POP POP PUSH1 0x40 MLOAD RETURNDATASIZE PUSH1 0x1F NOT PUSH1 0x1F DUP3 ADD AND DUP3 ADD DUP1 PUSH1 0x40 MSTORE POP DUP2 ADD SWAP1 PUSH2 0xC39 SWAP2 SWAP1 PUSH2 0x2C54 JUMP JUMPDEST SWAP1 POP PUSH1 0x0 DUP3 PUSH1 0x0 ADD MLOAD PUSH20 0xFFFFFFFFFFFFFFFFFFFFFFFFFFFFFFFFFFFFFFFF AND PUSH4 0xD21220A7 PUSH1 0x40 MLOAD DUP2 PUSH4 0xFFFFFFFF AND PUSH1 0xE0 SHL DUP2 MSTORE PUSH1 0x4 ADD PUSH1 0x20 PUSH1 0x40 MLOAD DUP1 DUP4 SUB DUP2 DUP7 DUP1 EXTCODESIZE ISZERO DUP1 ISZERO PUSH2 0xC87 JUMPI PUSH1 0x0 DUP1 REVERT JUMPDEST POP GAS STATICCALL ISZERO DUP1 ISZERO PUSH2 0xC9B JUMPI RETURNDATASIZE PUSH1 0x0 DUP1 RETURNDATACOPY RETURNDATASIZE PUSH1 0x0 REVERT JUMPDEST POP POP POP POP PUSH1 0x40 MLOAD RETURNDATASIZE PUSH1 0x1F NOT PUSH1 0x1F DUP3 ADD AND DUP3 ADD DUP1 PUSH1 0x40 MSTORE POP DUP2 ADD SWAP1 PUSH2 0xCBF SWAP2 SWAP1 PUSH2 0x2C54 JUMP JUMPDEST SWAP1 POP PUSH1 0x0 DUP1 PUSH2 0xCD9 DUP6 PUSH1 0x0 ADD MLOAD DUP6 DUP6 DUP12 DUP10 PUSH1 0xA0 ADD MLOAD PUSH2 0x1BAC JUMP JUMPDEST DUP7 MLOAD SWAP2 SWAP4 POP SWAP2 POP PUSH2 0xD02 SWAP1 PUSH20 0xFFFFFFFFFFFFFFFFFFFFFFFFFFFFFFFFFFFFFFFF DUP7 AND SWAP1 DUP5 PUSH2 0x20F1 JUMP JUMPDEST DUP5 MLOAD PUSH2 0xD26 SWAP1 PUSH20 0xFFFFFFFFFFFFFFFFFFFFFFFFFFFFFFFFFFFFFFFF DUP6 AND SWAP1 DUP4 PUSH2 0x20F1 JUMP JUMPDEST DUP5 MLOAD PUSH1 0x40 MLOAD PUSH32 0x6A62784200000000000000000000000000000000000000000000000000000000 DUP2 MSTORE ADDRESS PUSH1 0x4 DUP3 ADD MSTORE PUSH1 0x0 SWAP2 PUSH20 0xFFFFFFFFFFFFFFFFFFFFFFFFFFFFFFFFFFFFFFFF AND SWAP1 PUSH4 0x6A627842 SWAP1 PUSH1 0x24 ADD PUSH1 0x20 PUSH1 0x40 MLOAD DUP1 DUP4 SUB DUP2 PUSH1 0x0 DUP8 DUP1 EXTCODESIZE ISZERO DUP1 ISZERO PUSH2 0xD91 JUMPI PUSH1 0x0 DUP1 REVERT JUMPDEST POP GAS CALL ISZERO DUP1 ISZERO PUSH2 0xDA5 JUMPI RETURNDATASIZE PUSH1 0x0 DUP1 RETURNDATACOPY RETURNDATASIZE PUSH1 0x0 REVERT JUMPDEST POP POP POP POP PUSH1 0x40 MLOAD RETURNDATASIZE PUSH1 0x1F NOT PUSH1 0x1F DUP3 ADD AND DUP3 ADD DUP1 PUSH1 0x40 MSTORE POP DUP2 ADD SWAP1 PUSH2 0xDC9 SWAP2 SWAP1 PUSH2 0x33B3 JUMP JUMPDEST SWAP1 POP DUP6 PUSH1 0x80 ADD MLOAD DUP2 LT ISZERO PUSH2 0xE19 JUMPI PUSH1 0x80 DUP7 ADD MLOAD PUSH1 0x40 MLOAD PUSH32 0x4F9E62B400000000000000000000000000000000000000000000000000000000 DUP2 MSTORE PUSH1 0x4 DUP2 ADD SWAP2 SWAP1 SWAP2 MSTORE PUSH1 0x24 DUP2 ADD DUP3 SWAP1 MSTORE PUSH1 0x44 ADD PUSH2 0x148 JUMP JUMPDEST PUSH2 0xE2C DUP7 PUSH1 0x0 ADD MLOAD DUP8 PUSH1 0x20 ADD MLOAD DUP4 PUSH2 0x213A JUMP JUMPDEST PUSH1 0x20 DUP7 ADD MLOAD PUSH1 0x60 DUP8 ADD MLOAD PUSH1 0x40 MLOAD PUSH32 0x6E553F6500000000000000000000000000000000000000000000000000000000 DUP2 MSTORE PUSH1 0x4 DUP2 ADD DUP5 SWAP1 MSTORE PUSH20 0xFFFFFFFFFFFFFFFFFFFFFFFFFFFFFFFFFFFFFFFF SWAP2 DUP3 AND PUSH1 0x24 DUP3 ADD MSTORE SWAP2 AND SWAP1 PUSH4 0x6E553F65 SWAP1 PUSH1 0x44 ADD PUSH1 0x20 PUSH1 0x40 MLOAD DUP1 DUP4 SUB DUP2 PUSH1 0x0 DUP8 DUP1 EXTCODESIZE ISZERO DUP1 ISZERO PUSH2 0xEA6 JUMPI PUSH1 0x0 DUP1 REVERT JUMPDEST POP GAS CALL ISZERO DUP1 ISZERO PUSH2 0xEBA JUMPI RETURNDATASIZE PUSH1 0x0 DUP1 RETURNDATACOPY RETURNDATASIZE PUSH1 0x0 REVERT JUMPDEST POP POP POP POP PUSH1 0x40 MLOAD RETURNDATASIZE PUSH1 0x1F NOT PUSH1 0x1F DUP3 ADD AND DUP3 ADD DUP1 PUSH1 0x40 MSTORE POP DUP2 ADD SWAP1 PUSH2 0xA9E SWAP2 SWAP1 PUSH2 0x33B3 JUMP JUMPDEST DUP3 PUSH2 0xEE8 DUP2 PUSH2 0x12C5 JUMP JUMPDEST PUSH2 0xF2A DUP8 DUP8 DUP7 DUP7 DUP7 DUP1 DUP1 PUSH1 0x1F ADD PUSH1 0x20 DUP1 SWAP2 DIV MUL PUSH1 0x20 ADD PUSH1 0x40 MLOAD SWAP1 DUP2 ADD PUSH1 0x40 MSTORE DUP1 SWAP4 SWAP3 SWAP2 SWAP1 DUP2 DUP2 MSTORE PUSH1 0x20 ADD DUP4 DUP4 DUP1 DUP3 DUP5 CALLDATACOPY PUSH1 0x0 SWAP3 ADD SWAP2 SWAP1 SWAP2 MSTORE POP PUSH2 0x177D SWAP3 POP POP POP JUMP JUMPDEST PUSH1 0x40 DUP1 MLOAD PUSH1 0x0 DUP2 MSTORE PUSH1 0x20 DUP2 ADD SWAP2 DUP3 SWAP1 MSTORE PUSH32 0x1E7DCC0D00000000000000000000000000000000000000000000000000000000 SWAP1 SWAP2 MSTORE PUSH20 0xFFFFFFFFFFFFFFFFFFFFFFFFFFFFFFFFFFFFFFFF DUP9 AND SWAP1 PUSH4 0x1E7DCC0D SWAP1 PUSH2 0xF8F SWAP1 CALLER SWAP1 DUP10 SWAP1 DUP12 SWAP1 PUSH1 0x24 DUP2 ADD PUSH2 0x348C JUMP JUMPDEST PUSH1 0x0 PUSH1 0x40 MLOAD DUP1 DUP4 SUB DUP2 PUSH1 0x0 DUP8 DUP1 EXTCODESIZE ISZERO DUP1 ISZERO PUSH2 0xFA9 JUMPI PUSH1 0x0 DUP1 REVERT JUMPDEST POP GAS CALL ISZERO DUP1 ISZERO PUSH2 0xA9E JUMPI RETURNDATASIZE PUSH1 0x0 DUP1 RETURNDATACOPY RETURNDATASIZE PUSH1 0x0 REVERT JUMPDEST PUSH1 0x40 MLOAD PUSH32 0xA9059CBB00000000000000000000000000000000000000000000000000000000 DUP2 MSTORE PUSH20 0xFFFFFFFFFFFFFFFFFFFFFFFFFFFFFFFFFFFFFFFF DUP12 AND PUSH1 0x4 DUP3 ADD DUP2 SWAP1 MSTORE PUSH1 0x24 DUP3 ADD DUP7 SWAP1 MSTORE SWAP1 PUSH4 0xA9059CBB SWAP1 PUSH1 0x44 ADD PUSH1 0x20 PUSH1 0x40 MLOAD DUP1 DUP4 SUB DUP2 PUSH1 0x0 DUP8 DUP1 EXTCODESIZE ISZERO DUP1 ISZERO PUSH2 0x102C JUMPI PUSH1 0x0 DUP1 REVERT JUMPDEST POP GAS CALL ISZERO DUP1 ISZERO PUSH2 0x1040 JUMPI RETURNDATASIZE PUSH1 0x0 DUP1 RETURNDATACOPY RETURNDATASIZE PUSH1 0x0 REVERT JUMPDEST POP POP POP POP PUSH1 0x40 MLOAD RETURNDATASIZE PUSH1 0x1F NOT PUSH1 0x1F DUP3 ADD AND DUP3 ADD DUP1 PUSH1 0x40 MSTORE POP DUP2 ADD SWAP1 PUSH2 0x1064 SWAP2 SWAP1 PUSH2 0x3186 JUMP JUMPDEST POP PUSH1 0x40 MLOAD PUSH32 0x89AFCB4400000000000000000000000000000000000000000000000000000000 DUP2 MSTORE ADDRESS PUSH1 0x4 DUP3 ADD MSTORE PUSH1 0x0 SWAP1 DUP2 SWAP1 PUSH20 0xFFFFFFFFFFFFFFFFFFFFFFFFFFFFFFFFFFFFFFFF DUP14 AND SWAP1 PUSH4 0x89AFCB44 SWAP1 PUSH1 0x24 ADD PUSH1 0x40 DUP1 MLOAD DUP1 DUP4 SUB DUP2 PUSH1 0x0 DUP8 DUP1 EXTCODESIZE ISZERO DUP1 ISZERO PUSH2 0x10D0 JUMPI PUSH1 0x0 DUP1 REVERT JUMPDEST POP GAS CALL ISZERO DUP1 ISZERO PUSH2 0x10E4 JUMPI RETURNDATASIZE PUSH1 0x0 DUP1 RETURNDATACOPY RETURNDATASIZE PUSH1 0x0 REVERT JUMPDEST POP POP POP POP PUSH1 0x40 MLOAD RETURNDATASIZE PUSH1 0x1F NOT PUSH1 0x1F DUP3 ADD AND DUP3 ADD DUP1 PUSH1 0x40 MSTORE POP DUP2 ADD SWAP1 PUSH2 0x1108 SWAP2 SWAP1 PUSH2 0x33CB JUMP JUMPDEST SWAP2 POP SWAP2 POP PUSH1 0x0 DUP3 GT PUSH2 0x1149 JUMPI PUSH1 0x40 MLOAD PUSH32 0xD5FF6DE300000000000000000000000000000000000000000000000000000000 DUP2 MSTORE PUSH1 0x4 DUP2 ADD DUP4 SWAP1 MSTORE PUSH1 0x24 ADD PUSH2 0x148 JUMP JUMPDEST PUSH1 0x0 DUP2 GT PUSH2 0x1186 JUMPI PUSH1 0x40 MLOAD PUSH32 0xA0BD09D300000000000000000000000000000000000000000000000000000000 DUP2 MSTORE PUSH1 0x4 DUP2 ADD DUP3 SWAP1 MSTORE PUSH1 0x24 ADD PUSH2 0x148 JUMP JUMPDEST PUSH1 0x0 PUSH2 0x1195 DUP4 DUP4 DUP9 DUP9 DUP9 PUSH2 0x2232 JUMP JUMPDEST SWAP1 POP DUP8 DUP2 LT ISZERO PUSH2 0x11DA JUMPI PUSH1 0x40 MLOAD PUSH31 0x6D48FC00000000000000000000000000000000000000000000000000000000 DUP2 MSTORE PUSH1 0x4 DUP2 ADD DUP10 SWAP1 MSTORE PUSH1 0x24 DUP2 ADD DUP3 SWAP1 MSTORE PUSH1 0x44 ADD PUSH2 0x148 JUMP JUMPDEST PUSH2 0x1206 DUP11 PUSH32 0x0 DUP15 DUP5 PUSH2 0x249E JUMP JUMPDEST PUSH1 0x40 MLOAD PUSH32 0x23B872DD00000000000000000000000000000000000000000000000000000000 DUP2 MSTORE PUSH20 0xFFFFFFFFFFFFFFFFFFFFFFFFFFFFFFFFFFFFFFFF DUP14 DUP2 AND PUSH1 0x4 DUP4 ADD MSTORE DUP13 AND PUSH1 0x24 DUP3 ADD DUP2 SWAP1 MSTORE PUSH1 0x44 DUP3 ADD DUP12 SWAP1 MSTORE SWAP1 PUSH4 0x23B872DD SWAP1 PUSH1 0x64 ADD PUSH1 0x20 PUSH1 0x40 MLOAD DUP1 DUP4 SUB DUP2 PUSH1 0x0 DUP8 DUP1 EXTCODESIZE ISZERO DUP1 ISZERO PUSH2 0x127D JUMPI PUSH1 0x0 DUP1 REVERT JUMPDEST POP GAS CALL ISZERO DUP1 ISZERO PUSH2 0x1291 JUMPI RETURNDATASIZE PUSH1 0x0 DUP1 RETURNDATACOPY RETURNDATASIZE PUSH1 0x0 REVERT JUMPDEST POP POP POP POP PUSH1 0x40 MLOAD RETURNDATASIZE PUSH1 0x1F NOT PUSH1 0x1F DUP3 ADD AND DUP3 ADD DUP1 PUSH1 0x40 MSTORE POP DUP2 ADD SWAP1 PUSH2 0x12B5 SWAP2 SWAP1 PUSH2 0x3186 JUMP JUMPDEST POP POP POP POP POP POP POP POP POP POP POP POP POP POP JUMP JUMPDEST DUP1 TIMESTAMP GT ISZERO PUSH2 0x1302 JUMPI PUSH1 0x40 MLOAD PUSH32 0xD8BF612600000000000000000000000000000000000000000000000000000000 DUP2 MSTORE PUSH1 0x4 DUP2 ADD DUP3 SWAP1 MSTORE PUSH1 0x24 ADD PUSH2 0x148 JUMP JUMPDEST POP JUMP JUMPDEST PUSH1 0x0 DUP4 PUSH20 0xFFFFFFFFFFFFFFFFFFFFFFFFFFFFFFFFFFFFFFFF AND PUSH4 0xA6AFED95 PUSH1 0x40 MLOAD DUP2 PUSH4 0xFFFFFFFF AND PUSH1 0xE0 SHL DUP2 MSTORE PUSH1 0x4 ADD PUSH1 0x0 PUSH1 0x40 MLOAD DUP1 DUP4 SUB DUP2 PUSH1 0x0 DUP8 DUP1 EXTCODESIZE ISZERO DUP1 ISZERO PUSH2 0x134F JUMPI PUSH1 0x0 DUP1 REVERT JUMPDEST POP GAS CALL ISZERO DUP1 ISZERO PUSH2 0x1363 JUMPI RETURNDATASIZE PUSH1 0x0 DUP1 RETURNDATACOPY RETURNDATASIZE PUSH1 0x0 REVERT JUMPDEST POP POP PUSH1 0x40 MLOAD PUSH32 0x7D6AF07900000000000000000000000000000000000000000000000000000000 DUP2 MSTORE PUSH20 0xFFFFFFFFFFFFFFFFFFFFFFFFFFFFFFFFFFFFFFFF DUP6 DUP2 AND PUSH1 0x4 DUP4 ADD MSTORE PUSH1 0x0 SWAP4 POP DUP8 AND SWAP2 POP PUSH4 0x7D6AF079 SWAP1 PUSH1 0x24 ADD PUSH1 0x20 PUSH1 0x40 MLOAD DUP1 DUP4 SUB DUP2 DUP7 DUP1 EXTCODESIZE ISZERO DUP1 ISZERO PUSH2 0x13D1 JUMPI PUSH1 0x0 DUP1 REVERT JUMPDEST POP GAS STATICCALL ISZERO DUP1 ISZERO PUSH2 0x13E5 JUMPI RETURNDATASIZE PUSH1 0x0 DUP1 RETURNDATACOPY RETURNDATASIZE PUSH1 0x0 REVERT JUMPDEST POP POP POP POP PUSH1 0x40 MLOAD RETURNDATASIZE PUSH1 0x1F NOT PUSH1 0x1F DUP3 ADD AND DUP3 ADD DUP1 PUSH1 0x40 MSTORE POP DUP2 ADD SWAP1 PUSH2 0x1409 SWAP2 SWAP1 PUSH2 0x33B3 JUMP JUMPDEST SWAP1 POP DUP1 DUP5 LT PUSH2 0x1418 JUMPI DUP1 PUSH2 0x141A JUMP JUMPDEST DUP4 JUMPDEST SWAP6 SWAP5 POP POP POP POP POP JUMP JUMPDEST PUSH1 0x40 MLOAD PUSH4 0x23B872DD PUSH1 0x0 MSTORE DUP4 PUSH1 0x20 MSTORE DUP3 PUSH1 0x40 MSTORE DUP2 PUSH1 0x60 MSTORE PUSH1 0x20 PUSH1 0x0 PUSH1 0x64 PUSH1 0x1C PUSH1 0x0 DUP10 GAS CALL RETURNDATASIZE ISZERO PUSH1 0x1 PUSH1 0x0 MLOAD EQ OR AND PUSH2 0x1463 JUMPI PUSH4 0x7939F424 PUSH1 0x0 MSTORE PUSH1 0x4 PUSH1 0x1C REVERT JUMPDEST PUSH1 0x0 PUSH1 0x60 MSTORE PUSH1 0x40 MSTORE POP POP POP POP JUMP JUMPDEST PUSH1 0x40 MLOAD PUSH32 0xBA08765200000000000000000000000000000000000000000000000000000000 DUP2 MSTORE PUSH1 0x4 DUP2 ADD DUP6 SWAP1 MSTORE PUSH20 0xFFFFFFFFFFFFFFFFFFFFFFFFFFFFFFFFFFFFFFFF DUP9 DUP2 AND PUSH1 0x24 DUP4 ADD MSTORE DUP7 DUP2 AND PUSH1 0x44 DUP4 ADD MSTORE PUSH1 0x0 SWAP2 SWAP1 DUP9 AND SWAP1 PUSH4 0xBA087652 SWAP1 PUSH1 0x64 ADD PUSH1 0x20 PUSH1 0x40 MLOAD DUP1 DUP4 SUB DUP2 PUSH1 0x0 DUP8 DUP1 EXTCODESIZE ISZERO DUP1 ISZERO PUSH2 0x14ED JUMPI PUSH1 0x0 DUP1 REVERT JUMPDEST POP GAS CALL ISZERO DUP1 ISZERO PUSH2 0x1501 JUMPI RETURNDATASIZE PUSH1 0x0 DUP1 RETURNDATACOPY RETURNDATASIZE PUSH1 0x0 REVERT JUMPDEST POP POP POP POP PUSH1 0x40 MLOAD RETURNDATASIZE PUSH1 0x1F NOT PUSH1 0x1F DUP3 ADD AND DUP3 ADD DUP1 PUSH1 0x40 MSTORE POP DUP2 ADD SWAP1 PUSH2 0x1525 SWAP2 SWAP1 PUSH2 0x33B3 JUMP JUMPDEST POP PUSH1 0x40 MLOAD PUSH32 0x89AFCB4400000000000000000000000000000000000000000000000000000000 DUP2 MSTORE ADDRESS PUSH1 0x4 DUP3 ADD MSTORE PUSH1 0x0 SWAP1 DUP2 SWAP1 PUSH20 0xFFFFFFFFFFFFFFFFFFFFFFFFFFFFFFFFFFFFFFFF DUP12 AND SWAP1 PUSH4 0x89AFCB44 SWAP1 PUSH1 0x24 ADD PUSH1 0x40 DUP1 MLOAD DUP1 DUP4 SUB DUP2 PUSH1 0x0 DUP8 DUP1 EXTCODESIZE ISZERO DUP1 ISZERO PUSH2 0x1591 JUMPI PUSH1 0x0 DUP1 REVERT JUMPDEST POP GAS CALL ISZERO DUP1 ISZERO PUSH2 0x15A5 JUMPI RETURNDATASIZE PUSH1 0x0 DUP1 RETURNDATACOPY RETURNDATASIZE PUSH1 0x0 REVERT JUMPDEST POP POP POP POP PUSH1 0x40 MLOAD RETURNDATASIZE PUSH1 0x1F NOT PUSH1 0x1F DUP3 ADD AND DUP3 ADD DUP1 PUSH1 0x40 MSTORE POP DUP2 ADD SWAP1 PUSH2 0x15C9 SWAP2 SWAP1 PUSH2 0x33CB JUMP JUMPDEST SWAP2 POP SWAP2 POP PUSH1 0x0 DUP11 PUSH20 0xFFFFFFFFFFFFFFFFFFFFFFFFFFFFFFFFFFFFFFFF AND PUSH4 0xDFE1681 PUSH1 0x40 MLOAD DUP2 PUSH4 0xFFFFFFFF AND PUSH1 0xE0 SHL DUP2 MSTORE PUSH1 0x4 ADD PUSH1 0x20 PUSH1 0x40 MLOAD DUP1 DUP4 SUB DUP2 DUP7 DUP1 EXTCODESIZE ISZERO DUP1 ISZERO PUSH2 0x1615 JUMPI PUSH1 0x0 DUP1 REVERT JUMPDEST POP GAS STATICCALL ISZERO DUP1 ISZERO PUSH2 0x1629 JUMPI RETURNDATASIZE PUSH1 0x0 DUP1 RETURNDATACOPY RETURNDATASIZE PUSH1 0x0 REVERT JUMPDEST POP POP POP POP PUSH1 0x40 MLOAD RETURNDATASIZE PUSH1 0x1F NOT PUSH1 0x1F DUP3 ADD AND DUP3 ADD DUP1 PUSH1 0x40 MSTORE POP DUP2 ADD SWAP1 PUSH2 0x164D SWAP2 SWAP1 PUSH2 0x2C54 JUMP JUMPDEST SWAP1 POP PUSH1 0x0 DUP12 PUSH20 0xFFFFFFFFFFFFFFFFFFFFFFFFFFFFFFFFFFFFFFFF AND PUSH4 0xD21220A7 PUSH1 0x40 MLOAD DUP2 PUSH4 0xFFFFFFFF AND PUSH1 0xE0 SHL DUP2 MSTORE PUSH1 0x4 ADD PUSH1 0x20 PUSH1 0x40 MLOAD DUP1 DUP4 SUB DUP2 DUP7 DUP1 EXTCODESIZE ISZERO DUP1 ISZERO PUSH2 0x1697 JUMPI PUSH1 0x0 DUP1 REVERT JUMPDEST POP GAS STATICCALL ISZERO DUP1 ISZERO PUSH2 0x16AB JUMPI RETURNDATASIZE PUSH1 0x0 DUP1 RETURNDATACOPY RETURNDATASIZE PUSH1 0x0 REVERT JUMPDEST POP POP POP POP PUSH1 0x40 MLOAD RETURNDATASIZE PUSH1 0x1F NOT PUSH1 0x1F DUP3 ADD AND DUP3 ADD DUP1 PUSH1 0x40 MSTORE POP DUP2 ADD SWAP1 PUSH2 0x16CF SWAP2 SWAP1 PUSH2 0x2C54 JUMP JUMPDEST SWAP1 POP PUSH2 0x16E7 DUP5 DUP5 DUP5 DUP5 PUSH2 0x16E2 DUP12 DUP14 PUSH2 0x3848 JUMP JUMPDEST PUSH2 0x2232 JUMP JUMPDEST SWAP5 POP DUP8 DUP6 LT ISZERO PUSH2 0x172D JUMPI PUSH1 0x40 MLOAD PUSH32 0x6EFD260800000000000000000000000000000000000000000000000000000000 DUP2 MSTORE PUSH1 0x4 DUP2 ADD DUP10 SWAP1 MSTORE PUSH1 0x24 DUP2 ADD DUP7 SWAP1 MSTORE PUSH1 0x44 ADD PUSH2 0x148 JUMP JUMPDEST PUSH2 0x176E PUSH20 0xFFFFFFFFFFFFFFFFFFFFFFFFFFFFFFFFFFFFFFFF PUSH32 0x0 AND DUP12 DUP8 PUSH2 0x20F1 JUMP JUMPDEST POP POP POP POP SWAP8 SWAP7 POP POP POP POP POP POP POP JUMP JUMPDEST DUP1 MLOAD PUSH2 0x1788 JUMPI PUSH2 0x188D JUMP JUMPDEST PUSH1 0x0 DUP1 PUSH1 0x0 DUP1 DUP5 DUP1 PUSH1 0x20 ADD SWAP1 MLOAD DUP2 ADD SWAP1 PUSH2 0x17A2 SWAP2 SWAP1 PUSH2 0x31A0 JUMP JUMPDEST SWAP4 POP SWAP4 POP SWAP4 POP SWAP4 POP PUSH1 0x0 DUP5 PUSH2 0x17B7 JUMPI DUP8 PUSH2 0x17D9 JUMP JUMPDEST PUSH32 0xFFFFFFFFFFFFFFFFFFFFFFFFFFFFFFFFFFFFFFFFFFFFFFFFFFFFFFFFFFFFFFFF JUMPDEST PUSH1 0x40 MLOAD PUSH32 0xD505ACCF00000000000000000000000000000000000000000000000000000000 DUP2 MSTORE CALLER PUSH1 0x4 DUP3 ADD MSTORE ADDRESS PUSH1 0x24 DUP3 ADD MSTORE PUSH1 0x44 DUP2 ADD DUP3 SWAP1 MSTORE PUSH1 0x64 DUP2 ADD DUP10 SWAP1 MSTORE PUSH1 0xFF DUP7 AND PUSH1 0x84 DUP3 ADD MSTORE PUSH1 0xA4 DUP2 ADD DUP6 SWAP1 MSTORE PUSH1 0xC4 DUP2 ADD DUP5 SWAP1 MSTORE SWAP1 SWAP2 POP PUSH20 0xFFFFFFFFFFFFFFFFFFFFFFFFFFFFFFFFFFFFFFFF DUP11 AND SWAP1 PUSH4 0xD505ACCF SWAP1 PUSH1 0xE4 ADD JUMPDEST PUSH1 0x0 PUSH1 0x40 MLOAD DUP1 DUP4 SUB DUP2 PUSH1 0x0 DUP8 DUP1 EXTCODESIZE ISZERO DUP1 ISZERO PUSH2 0x186F JUMPI PUSH1 0x0 DUP1 REVERT JUMPDEST POP GAS CALL ISZERO DUP1 ISZERO PUSH2 0x1883 JUMPI RETURNDATASIZE PUSH1 0x0 DUP1 RETURNDATACOPY RETURNDATASIZE PUSH1 0x0 REVERT JUMPDEST POP POP POP POP POP POP POP POP POP JUMPDEST POP POP POP POP JUMP JUMPDEST PUSH1 0x0 PUSH1 0x40 MLOAD DUP1 PUSH1 0xC0 ADD PUSH1 0x40 MSTORE DUP1 DUP11 PUSH20 0xFFFFFFFFFFFFFFFFFFFFFFFFFFFFFFFFFFFFFFFF AND DUP2 MSTORE PUSH1 0x20 ADD DUP10 PUSH20 0xFFFFFFFFFFFFFFFFFFFFFFFFFFFFFFFFFFFFFFFF AND DUP2 MSTORE PUSH1 0x20 ADD DUP9 PUSH20 0xFFFFFFFFFFFFFFFFFFFFFFFFFFFFFFFFFFFFFFFF AND DUP2 MSTORE PUSH1 0x20 ADD DUP6 PUSH20 0xFFFFFFFFFFFFFFFFFFFFFFFFFFFFFFFFFFFFFFFF AND DUP2 MSTORE PUSH1 0x20 ADD DUP7 DUP2 MSTORE PUSH1 0x20 ADD DUP5 DUP5 SWAP1 PUSH2 0x1923 SWAP2 SWAP1 PUSH2 0x3848 JUMP JUMPDEST SWAP1 MSTORE PUSH1 0x40 MLOAD PUSH2 0x1935 SWAP2 SWAP1 PUSH1 0x20 ADD PUSH2 0x35E1 JUMP JUMPDEST PUSH1 0x40 DUP1 MLOAD PUSH32 0xFFFFFFFFFFFFFFFFFFFFFFFFFFFFFFFFFFFFFFFFFFFFFFFFFFFFFFFFFFFFFFE0 DUP2 DUP5 SUB ADD DUP2 MSTORE SWAP1 DUP3 SWAP1 MSTORE PUSH32 0x1E7DCC0D00000000000000000000000000000000000000000000000000000000 DUP3 MSTORE SWAP2 POP PUSH20 0xFFFFFFFFFFFFFFFFFFFFFFFFFFFFFFFFFFFFFFFF DUP9 AND SWAP1 PUSH4 0x1E7DCC0D SWAP1 PUSH2 0x1855 SWAP1 DUP8 SWAP1 ADDRESS SWAP1 DUP12 SWAP1 DUP8 SWAP1 PUSH1 0x4 ADD PUSH2 0x348C JUMP JUMPDEST PUSH1 0x0 DUP8 PUSH20 0xFFFFFFFFFFFFFFFFFFFFFFFFFFFFFFFFFFFFFFFF AND PUSH4 0x3BA0B9A9 PUSH1 0x40 MLOAD DUP2 PUSH4 0xFFFFFFFF AND PUSH1 0xE0 SHL DUP2 MSTORE PUSH1 0x4 ADD PUSH1 0x20 PUSH1 0x40 MLOAD DUP1 DUP4 SUB DUP2 PUSH1 0x0 DUP8 DUP1 EXTCODESIZE ISZERO DUP1 ISZERO PUSH2 0x1A05 JUMPI PUSH1 0x0 DUP1 REVERT JUMPDEST POP GAS CALL ISZERO DUP1 ISZERO PUSH2 0x1A19 JUMPI RETURNDATASIZE PUSH1 0x0 DUP1 RETURNDATACOPY RETURNDATASIZE PUSH1 0x0 REVERT JUMPDEST POP POP POP POP PUSH1 0x40 MLOAD RETURNDATASIZE PUSH1 0x1F NOT PUSH1 0x1F DUP3 ADD AND DUP3 ADD DUP1 PUSH1 0x40 MSTORE POP DUP2 ADD SWAP1 PUSH2 0x1A3D SWAP2 SWAP1 PUSH2 0x33B3 JUMP JUMPDEST SWAP1 POP PUSH1 0x0 PUSH2 0x1A4B DUP8 DUP4 PUSH2 0x26BE JUMP JUMPDEST SWAP1 POP PUSH1 0x0 PUSH1 0x40 MLOAD DUP1 PUSH1 0xE0 ADD PUSH1 0x40 MSTORE DUP1 DUP9 PUSH20 0xFFFFFFFFFFFFFFFFFFFFFFFFFFFFFFFFFFFFFFFF AND DUP2 MSTORE PUSH1 0x20 ADD DUP12 PUSH20 0xFFFFFFFFFFFFFFFFFFFFFFFFFFFFFFFFFFFFFFFF AND DUP2 MSTORE PUSH1 0x20 ADD DUP11 PUSH20 0xFFFFFFFFFFFFFFFFFFFFFFFFFFFFFFFFFFFFFFFF AND DUP2 MSTORE PUSH1 0x20 ADD PUSH2 0x1AB5 CALLER SWAP1 JUMP JUMPDEST PUSH20 0xFFFFFFFFFFFFFFFFFFFFFFFFFFFFFFFFFFFFFFFF AND DUP2 MSTORE PUSH1 0x20 DUP2 ADD DUP11 SWAP1 MSTORE PUSH1 0x40 DUP2 ADD DUP9 SWAP1 MSTORE PUSH1 0x60 ADD PUSH2 0x1AE8 DUP7 DUP9 PUSH2 0x3848 JUMP JUMPDEST SWAP1 MSTORE PUSH1 0x40 MLOAD PUSH2 0x1AFA SWAP2 SWAP1 PUSH1 0x20 ADD PUSH2 0x364C JUMP JUMPDEST PUSH1 0x40 DUP1 MLOAD PUSH32 0xFFFFFFFFFFFFFFFFFFFFFFFFFFFFFFFFFFFFFFFFFFFFFFFFFFFFFFFFFFFFFFE0 DUP2 DUP5 SUB ADD DUP2 MSTORE SWAP1 DUP3 SWAP1 MSTORE PUSH32 0xFA14FDC200000000000000000000000000000000000000000000000000000000 DUP3 MSTORE SWAP2 POP PUSH20 0xFFFFFFFFFFFFFFFFFFFFFFFFFFFFFFFFFFFFFFFF DUP12 AND SWAP1 PUSH4 0xFA14FDC2 SWAP1 PUSH2 0x1B7E SWAP1 ADDRESS SWAP1 DUP7 SWAP1 DUP7 SWAP1 PUSH1 0x4 ADD PUSH2 0x34CB JUMP JUMPDEST PUSH1 0x0 PUSH1 0x40 MLOAD DUP1 DUP4 SUB DUP2 PUSH1 0x0 DUP8 DUP1 EXTCODESIZE ISZERO DUP1 ISZERO PUSH2 0x1B98 JUMPI PUSH1 0x0 DUP1 REVERT JUMPDEST POP GAS CALL ISZERO DUP1 ISZERO PUSH2 0x12B5 JUMPI RETURNDATASIZE PUSH1 0x0 DUP1 RETURNDATACOPY RETURNDATASIZE PUSH1 0x0 REVERT JUMPDEST PUSH1 0x0 DUP1 PUSH1 0x0 DUP1 PUSH32 0x0 PUSH20 0xFFFFFFFFFFFFFFFFFFFFFFFFFFFFFFFFFFFFFFFF AND DUP9 PUSH20 0xFFFFFFFFFFFFFFFFFFFFFFFFFFFFFFFFFFFFFFFF AND EQ DUP1 PUSH2 0x1C57 JUMPI POP PUSH32 0x0 PUSH20 0xFFFFFFFFFFFFFFFFFFFFFFFFFFFFFFFFFFFFFFFF AND DUP8 PUSH20 0xFFFFFFFFFFFFFFFFFFFFFFFFFFFFFFFFFFFFFFFF AND EQ JUMPDEST ISZERO PUSH2 0x1CC3 JUMPI PUSH32 0x0 PUSH20 0xFFFFFFFFFFFFFFFFFFFFFFFFFFFFFFFFFFFFFFFF AND DUP9 PUSH20 0xFFFFFFFFFFFFFFFFFFFFFFFFFFFFFFFFFFFFFFFF AND EQ PUSH2 0x1CB6 JUMPI DUP7 DUP9 PUSH2 0x1CB9 JUMP JUMPDEST DUP8 DUP8 JUMPDEST SWAP1 SWAP3 POP SWAP1 POP PUSH2 0x1E19 JUMP JUMPDEST PUSH2 0x1D0E DUP6 PUSH1 0x0 DUP2 MLOAD DUP2 LT PUSH2 0x1D00 JUMPI PUSH32 0x4E487B7100000000000000000000000000000000000000000000000000000000 PUSH1 0x0 MSTORE PUSH1 0x32 PUSH1 0x4 MSTORE PUSH1 0x24 PUSH1 0x0 REVERT JUMPDEST PUSH1 0x20 MUL PUSH1 0x20 ADD ADD MLOAD DUP8 PUSH2 0x26EC JUMP JUMPDEST POP PUSH32 0x0 PUSH20 0xFFFFFFFFFFFFFFFFFFFFFFFFFFFFFFFFFFFFFFFF AND DUP9 PUSH20 0xFFFFFFFFFFFFFFFFFFFFFFFFFFFFFFFFFFFFFFFF AND EQ DUP1 PUSH2 0x1DB4 JUMPI POP PUSH32 0x0 PUSH20 0xFFFFFFFFFFFFFFFFFFFFFFFFFFFFFFFFFFFFFFFF AND DUP8 PUSH20 0xFFFFFFFFFFFFFFFFFFFFFFFFFFFFFFFFFFFFFFFF AND EQ JUMPDEST ISZERO PUSH2 0x1E13 JUMPI PUSH32 0x0 PUSH20 0xFFFFFFFFFFFFFFFFFFFFFFFFFFFFFFFFFFFFFFFF AND DUP9 PUSH20 0xFFFFFFFFFFFFFFFFFFFFFFFFFFFFFFFFFFFFFFFF AND EQ PUSH2 0x1CB6 JUMPI DUP7 DUP9 PUSH2 0x1CB9 JUMP JUMPDEST POP DUP7 SWAP1 POP DUP6 JUMPDEST PUSH1 0x0 DUP1 DUP11 PUSH20 0xFFFFFFFFFFFFFFFFFFFFFFFFFFFFFFFFFFFFFFFF AND PUSH4 0x902F1AC PUSH1 0x40 MLOAD DUP2 PUSH4 0xFFFFFFFF AND PUSH1 0xE0 SHL DUP2 MSTORE PUSH1 0x4 ADD PUSH1 0x60 PUSH1 0x40 MLOAD DUP1 DUP4 SUB DUP2 DUP7 DUP1 EXTCODESIZE ISZERO DUP1 ISZERO PUSH2 0x1E62 JUMPI PUSH1 0x0 DUP1 REVERT JUMPDEST POP GAS STATICCALL ISZERO DUP1 ISZERO PUSH2 0x1E76 JUMPI RETURNDATASIZE PUSH1 0x0 DUP1 RETURNDATACOPY RETURNDATASIZE PUSH1 0x0 REVERT JUMPDEST POP POP POP POP PUSH1 0x40 MLOAD RETURNDATASIZE PUSH1 0x1F NOT PUSH1 0x1F DUP3 ADD AND DUP3 ADD DUP1 PUSH1 0x40 MSTORE POP DUP2 ADD SWAP1 PUSH2 0x1E9A SWAP2 SWAP1 PUSH2 0x3365 JUMP JUMPDEST POP SWAP2 POP SWAP2 POP PUSH1 0x0 DUP1 DUP12 PUSH20 0xFFFFFFFFFFFFFFFFFFFFFFFFFFFFFFFFFFFFFFFF AND DUP7 PUSH20 0xFFFFFFFFFFFFFFFFFFFFFFFFFFFFFFFFFFFFFFFF AND EQ PUSH2 0x1EDC JUMPI DUP3 DUP5 PUSH2 0x1EDF JUMP JUMPDEST DUP4 DUP4 JUMPDEST PUSH14 0xFFFFFFFFFFFFFFFFFFFFFFFFFFFF AND SWAP2 POP PUSH14 0xFFFFFFFFFFFFFFFFFFFFFFFFFFFF AND SWAP2 POP PUSH1 0x0 PUSH2 0x1F1A PUSH2 0x1F11 DUP9 PUSH2 0x282B JUMP JUMPDEST DUP5 PUSH2 0x3E5 PUSH2 0x2853 JUMP JUMPDEST SWAP1 POP PUSH1 0x0 PUSH2 0x1F29 DUP3 DUP6 DUP6 PUSH2 0x2978 JUMP JUMPDEST SWAP1 POP PUSH2 0x1F56 DUP16 DUP4 DUP11 PUSH20 0xFFFFFFFFFFFFFFFFFFFFFFFFFFFFFFFFFFFFFFFF AND PUSH2 0x20F1 SWAP1 SWAP3 SWAP2 SWAP1 PUSH4 0xFFFFFFFF AND JUMP JUMPDEST DUP14 PUSH20 0xFFFFFFFFFFFFFFFFFFFFFFFFFFFFFFFFFFFFFFFF AND DUP9 PUSH20 0xFFFFFFFFFFFFFFFFFFFFFFFFFFFFFFFFFFFFFFFF AND EQ PUSH2 0x202B JUMPI PUSH20 0xFFFFFFFFFFFFFFFFFFFFFFFFFFFFFFFFFFFFFFFF DUP16 AND PUSH4 0x22C0D9F DUP3 PUSH1 0x0 ADDRESS DUP2 PUSH1 0x40 MLOAD SWAP1 DUP1 DUP3 MSTORE DUP1 PUSH1 0x1F ADD PUSH1 0x1F NOT AND PUSH1 0x20 ADD DUP3 ADD PUSH1 0x40 MSTORE DUP1 ISZERO PUSH2 0x1FD4 JUMPI PUSH1 0x20 DUP3 ADD DUP2 DUP1 CALLDATASIZE DUP4 CALLDATACOPY ADD SWAP1 POP JUMPDEST POP PUSH1 0x40 MLOAD DUP6 PUSH4 0xFFFFFFFF AND PUSH1 0xE0 SHL DUP2 MSTORE PUSH1 0x4 ADD PUSH2 0x1FF4 SWAP5 SWAP4 SWAP3 SWAP2 SWAP1 PUSH2 0x35A6 JUMP JUMPDEST PUSH1 0x0 PUSH1 0x40 MLOAD DUP1 DUP4 SUB DUP2 PUSH1 0x0 DUP8 DUP1 EXTCODESIZE ISZERO DUP1 ISZERO PUSH2 0x200E JUMPI PUSH1 0x0 DUP1 REVERT JUMPDEST POP GAS CALL ISZERO DUP1 ISZERO PUSH2 0x2022 JUMPI RETURNDATASIZE PUSH1 0x0 DUP1 RETURNDATACOPY RETURNDATASIZE PUSH1 0x0 REVERT JUMPDEST POP POP POP POP PUSH2 0x20C9 JUMP JUMPDEST PUSH20 0xFFFFFFFFFFFFFFFFFFFFFFFFFFFFFFFFFFFFFFFF DUP16 AND PUSH4 0x22C0D9F PUSH1 0x0 DUP4 ADDRESS DUP3 PUSH1 0x40 MLOAD SWAP1 DUP1 DUP3 MSTORE DUP1 PUSH1 0x1F ADD PUSH1 0x1F NOT AND PUSH1 0x20 ADD DUP3 ADD PUSH1 0x40 MSTORE DUP1 ISZERO PUSH2 0x2076 JUMPI PUSH1 0x20 DUP3 ADD DUP2 DUP1 CALLDATASIZE DUP4 CALLDATACOPY ADD SWAP1 POP JUMPDEST POP PUSH1 0x40 MLOAD DUP6 PUSH4 0xFFFFFFFF AND PUSH1 0xE0 SHL DUP2 MSTORE PUSH1 0x4 ADD PUSH2 0x2096 SWAP5 SWAP4 SWAP3 SWAP2 SWAP1 PUSH2 0x35A6 JUMP JUMPDEST PUSH1 0x0 PUSH1 0x40 MLOAD DUP1 DUP4 SUB DUP2 PUSH1 0x0 DUP8 DUP1 EXTCODESIZE ISZERO DUP1 ISZERO PUSH2 0x20B0 JUMPI PUSH1 0x0 DUP1 REVERT JUMPDEST POP GAS CALL ISZERO DUP1 ISZERO PUSH2 0x20C4 JUMPI RETURNDATASIZE PUSH1 0x0 DUP1 RETURNDATACOPY RETURNDATASIZE PUSH1 0x0 REVERT JUMPDEST POP POP POP POP JUMPDEST PUSH2 0x20D2 DUP15 PUSH2 0x282B JUMP JUMPDEST SWAP10 POP PUSH2 0x20DD DUP14 PUSH2 0x282B JUMP JUMPDEST SWAP9 POP POP POP POP POP POP POP POP POP SWAP6 POP SWAP6 SWAP4 POP POP POP POP JUMP JUMPDEST DUP2 PUSH1 0x1A MSTORE DUP1 PUSH1 0x3A MSTORE PUSH10 0xA9059CBB000000000000 PUSH1 0x0 MSTORE PUSH1 0x20 PUSH1 0x0 PUSH1 0x44 PUSH1 0x16 PUSH1 0x0 DUP8 GAS CALL RETURNDATASIZE ISZERO PUSH1 0x1 PUSH1 0x0 MLOAD EQ OR AND PUSH2 0x2130 JUMPI PUSH4 0x90B8EC18 PUSH1 0x0 MSTORE PUSH1 0x4 PUSH1 0x1C REVERT JUMPDEST PUSH1 0x0 PUSH1 0x3A MSTORE POP POP POP JUMP JUMPDEST PUSH1 0x40 MLOAD PUSH32 0xDD62ED3E00000000000000000000000000000000000000000000000000000000 DUP2 MSTORE ADDRESS PUSH1 0x4 DUP3 ADD MSTORE PUSH20 0xFFFFFFFFFFFFFFFFFFFFFFFFFFFFFFFFFFFFFFFF DUP4 DUP2 AND PUSH1 0x24 DUP4 ADD MSTORE DUP3 SWAP2 SWAP1 DUP6 AND SWAP1 PUSH4 0xDD62ED3E SWAP1 PUSH1 0x44 ADD PUSH1 0x20 PUSH1 0x40 MLOAD DUP1 DUP4 SUB DUP2 DUP7 DUP1 EXTCODESIZE ISZERO DUP1 ISZERO PUSH2 0x21AA JUMPI PUSH1 0x0 DUP1 REVERT JUMPDEST POP GAS STATICCALL ISZERO DUP1 ISZERO PUSH2 0x21BE JUMPI RETURNDATASIZE PUSH1 0x0 DUP1 RETURNDATACOPY RETURNDATASIZE PUSH1 0x0 REVERT JUMPDEST POP POP POP POP PUSH1 0x40 MLOAD RETURNDATASIZE PUSH1 0x1F NOT PUSH1 0x1F DUP3 ADD AND DUP3 ADD DUP1 PUSH1 0x40 MSTORE POP DUP2 ADD SWAP1 PUSH2 0x21E2 SWAP2 SWAP1 PUSH2 0x33B3 JUMP JUMPDEST LT PUSH2 0x21EC JUMPI POP POP POP JUMP JUMPDEST PUSH2 0x222D PUSH20 0xFFFFFFFFFFFFFFFFFFFFFFFFFFFFFFFFFFFFFFFF DUP5 AND DUP4 PUSH32 0xFFFFFFFFFFFFFFFFFFFFFFFFFFFFFFFFFFFFFFFFFFFFFFFFFFFFFFFFFFFFFFFF PUSH2 0x29C7 JUMP JUMPDEST POP POP POP JUMP JUMPDEST PUSH1 0x0 PUSH32 0x0 PUSH20 0xFFFFFFFFFFFFFFFFFFFFFFFFFFFFFFFFFFFFFFFF AND DUP5 PUSH20 0xFFFFFFFFFFFFFFFFFFFFFFFFFFFFFFFFFFFFFFFF AND EQ DUP1 PUSH2 0x22D9 JUMPI POP PUSH32 0x0 PUSH20 0xFFFFFFFFFFFFFFFFFFFFFFFFFFFFFFFFFFFFFFFF AND DUP4 PUSH20 0xFFFFFFFFFFFFFFFFFFFFFFFFFFFFFFFFFFFFFFFF AND EQ JUMPDEST ISZERO PUSH2 0x23EF JUMPI PUSH32 0x0 PUSH20 0xFFFFFFFFFFFFFFFFFFFFFFFFFFFFFFFFFFFFFFFF AND DUP5 PUSH20 0xFFFFFFFFFFFFFFFFFFFFFFFFFFFFFFFFFFFFFFFF AND EQ PUSH2 0x2373 JUMPI PUSH2 0x236E DUP3 PUSH1 0x0 DUP2 MLOAD DUP2 LT PUSH2 0x1D00 JUMPI PUSH32 0x4E487B7100000000000000000000000000000000000000000000000000000000 PUSH1 0x0 MSTORE PUSH1 0x32 PUSH1 0x4 MSTORE PUSH1 0x24 PUSH1 0x0 REVERT JUMPDEST PUSH2 0x23BE JUMP JUMPDEST PUSH2 0x23BE DUP3 PUSH1 0x0 DUP2 MLOAD DUP2 LT PUSH2 0x23B0 JUMPI PUSH32 0x4E487B7100000000000000000000000000000000000000000000000000000000 PUSH1 0x0 MSTORE PUSH1 0x32 PUSH1 0x4 MSTORE PUSH1 0x24 PUSH1 0x0 REVERT JUMPDEST PUSH1 0x20 MUL PUSH1 0x20 ADD ADD MLOAD DUP7 PUSH2 0x26EC JUMP JUMPDEST POP PUSH2 0x23E8 PUSH32 0x0 PUSH2 0x282B JUMP JUMPDEST SWAP1 POP PUSH2 0x141A JUMP JUMPDEST PUSH2 0x242C DUP3 PUSH1 0x0 DUP2 MLOAD DUP2 LT PUSH2 0x1D00 JUMPI PUSH32 0x4E487B7100000000000000000000000000000000000000000000000000000000 PUSH1 0x0 MSTORE PUSH1 0x32 PUSH1 0x4 MSTORE PUSH1 0x24 PUSH1 0x0 REVERT JUMPDEST POP PUSH2 0x246A DUP3 PUSH1 0x1 DUP2 MLOAD DUP2 LT PUSH2 0x23B0 JUMPI PUSH32 0x4E487B7100000000000000000000000000000000000000000000000000000000 PUSH1 0x0 MSTORE PUSH1 0x32 PUSH1 0x4 MSTORE PUSH1 0x24 PUSH1 0x0 REVERT JUMPDEST POP PUSH2 0x2494 PUSH32 0x0 PUSH2 0x282B JUMP JUMPDEST SWAP7 SWAP6 POP POP POP POP POP POP JUMP JUMPDEST PUSH1 0x0 PUSH2 0x24AB DUP6 DUP4 DUP6 PUSH2 0x1305 JUMP JUMPDEST SWAP1 POP PUSH2 0x24CE PUSH20 0xFFFFFFFFFFFFFFFFFFFFFFFFFFFFFFFFFFFFFFFF DUP6 AND DUP7 DUP4 PUSH2 0x20F1 JUMP JUMPDEST PUSH1 0x40 DUP1 MLOAD PUSH1 0x0 DUP1 DUP3 MSTORE PUSH1 0x20 DUP3 ADD SWAP3 DUP4 SWAP1 MSTORE PUSH32 0x1E7DCC0D00000000000000000000000000000000000000000000000000000000 SWAP1 SWAP3 MSTORE PUSH20 0xFFFFFFFFFFFFFFFFFFFFFFFFFFFFFFFFFFFFFFFF DUP8 AND SWAP2 PUSH4 0x1E7DCC0D SWAP2 PUSH2 0x2532 SWAP2 DUP8 SWAP2 DUP2 SWAP1 PUSH1 0x24 DUP2 ADD PUSH2 0x348C JUMP JUMPDEST PUSH1 0x0 PUSH1 0x40 MLOAD DUP1 DUP4 SUB DUP2 PUSH1 0x0 DUP8 DUP1 EXTCODESIZE ISZERO DUP1 ISZERO PUSH2 0x254C JUMPI PUSH1 0x0 DUP1 REVERT JUMPDEST POP GAS CALL ISZERO DUP1 ISZERO PUSH2 0x2560 JUMPI RETURNDATASIZE PUSH1 0x0 DUP1 RETURNDATACOPY RETURNDATASIZE PUSH1 0x0 REVERT JUMPDEST POP POP POP POP DUP1 DUP3 GT ISZERO PUSH2 0x26B7 JUMPI PUSH1 0x0 PUSH2 0x2578 DUP3 DUP5 PUSH2 0x3831 JUMP JUMPDEST SWAP1 POP PUSH32 0x0 PUSH20 0xFFFFFFFFFFFFFFFFFFFFFFFFFFFFFFFFFFFFFFFF AND DUP6 PUSH20 0xFFFFFFFFFFFFFFFFFFFFFFFFFFFFFFFFFFFFFFFF AND EQ ISZERO PUSH2 0x2694 JUMPI PUSH1 0x40 MLOAD PUSH32 0x2E1A7D4D00000000000000000000000000000000000000000000000000000000 DUP2 MSTORE PUSH1 0x4 DUP2 ADD DUP3 SWAP1 MSTORE PUSH32 0x0 PUSH20 0xFFFFFFFFFFFFFFFFFFFFFFFFFFFFFFFFFFFFFFFF AND SWAP1 PUSH4 0x2E1A7D4D SWAP1 PUSH1 0x24 ADD PUSH1 0x0 PUSH1 0x40 MLOAD DUP1 DUP4 SUB DUP2 PUSH1 0x0 DUP8 DUP1 EXTCODESIZE ISZERO DUP1 ISZERO PUSH2 0x2656 JUMPI PUSH1 0x0 DUP1 REVERT JUMPDEST POP GAS CALL ISZERO DUP1 ISZERO PUSH2 0x266A JUMPI RETURNDATASIZE PUSH1 0x0 DUP1 RETURNDATACOPY RETURNDATASIZE PUSH1 0x0 REVERT JUMPDEST POP PUSH2 0x268F SWAP3 POP POP POP PUSH20 0xFFFFFFFFFFFFFFFFFFFFFFFFFFFFFFFFFFFFFFFF DUP6 AND DUP3 PUSH2 0x2A06 JUMP JUMPDEST PUSH2 0x26B5 JUMP JUMPDEST PUSH2 0x26B5 PUSH20 0xFFFFFFFFFFFFFFFFFFFFFFFFFFFFFFFFFFFFFFFF DUP7 AND DUP6 DUP4 PUSH2 0x20F1 JUMP JUMPDEST POP JUMPDEST POP POP POP POP POP JUMP JUMPDEST PUSH1 0x0 DUP2 PUSH1 0x0 NOT DIV DUP4 GT DUP3 MUL ISZERO PUSH2 0x26DC JUMPI PUSH4 0xBAC65E5B PUSH1 0x0 MSTORE PUSH1 0x4 PUSH1 0x1C REVERT JUMPDEST POP PUSH8 0xDE0B6B3A7640000 SWAP2 MUL DIV SWAP1 JUMP JUMPDEST PUSH1 0x0 DUP1 PUSH1 0x0 DUP1 PUSH1 0x0 DUP7 DUP1 PUSH1 0x20 ADD SWAP1 MLOAD DUP2 ADD SWAP1 PUSH2 0x2708 SWAP2 SWAP1 PUSH2 0x2C70 JUMP JUMPDEST SWAP4 POP SWAP4 POP SWAP4 POP SWAP4 POP DUP6 DUP4 PUSH1 0x80 ADD MLOAD EQ PUSH2 0x2723 JUMPI PUSH1 0x80 DUP4 ADD DUP7 SWAP1 MSTORE JUMPDEST PUSH2 0x2756 DUP4 PUSH1 0x0 ADD MLOAD PUSH32 0x0 DUP6 PUSH1 0x80 ADD MLOAD PUSH2 0x213A JUMP JUMPDEST PUSH1 0x40 MLOAD PUSH32 0x12AA3CAF00000000000000000000000000000000000000000000000000000000 DUP2 MSTORE PUSH20 0xFFFFFFFFFFFFFFFFFFFFFFFFFFFFFFFFFFFFFFFF PUSH32 0x0 AND SWAP1 PUSH4 0x12AA3CAF SWAP1 PUSH2 0x27CE SWAP1 DUP8 SWAP1 DUP8 SWAP1 DUP8 SWAP1 DUP8 SWAP1 PUSH1 0x4 ADD PUSH2 0x3513 JUMP JUMPDEST PUSH1 0x40 DUP1 MLOAD DUP1 DUP4 SUB DUP2 PUSH1 0x0 DUP8 DUP1 EXTCODESIZE ISZERO DUP1 ISZERO PUSH2 0x27E7 JUMPI PUSH1 0x0 DUP1 REVERT JUMPDEST POP GAS CALL ISZERO DUP1 ISZERO PUSH2 0x27FB JUMPI RETURNDATASIZE PUSH1 0x0 DUP1 RETURNDATACOPY RETURNDATASIZE PUSH1 0x0 REVERT JUMPDEST POP POP POP POP PUSH1 0x40 MLOAD RETURNDATASIZE PUSH1 0x1F NOT PUSH1 0x1F DUP3 ADD AND DUP3 ADD DUP1 PUSH1 0x40 MSTORE POP DUP2 ADD SWAP1 PUSH2 0x281F SWAP2 SWAP1 PUSH2 0x33CB JUMP JUMPDEST POP SWAP8 SWAP7 POP POP POP POP POP POP POP JUMP JUMPDEST PUSH1 0x0 PUSH2 0x284D PUSH20 0xFFFFFFFFFFFFFFFFFFFFFFFFFFFFFFFFFFFFFFFF DUP4 AND ADDRESS PUSH2 0x2A26 JUMP JUMPDEST SWAP3 SWAP2 POP POP JUMP JUMPDEST PUSH1 0x0 DUP1 DUP4 PUSH2 0x2863 DUP5 PUSH2 0x3E8 PUSH2 0x37A3 JUMP JUMPDEST PUSH2 0x286D SWAP2 SWAP1 PUSH2 0x37F4 JUMP JUMPDEST SWAP1 POP PUSH1 0x0 DUP4 DUP6 PUSH2 0x287F DUP9 PUSH2 0x3E8 PUSH2 0x37F4 JUMP JUMPDEST PUSH2 0x2889 SWAP2 SWAP1 PUSH2 0x37F4 JUMP JUMPDEST PUSH2 0x2894 SWAP1 PUSH1 0x4 PUSH2 0x37F4 JUMP JUMPDEST PUSH2 0x289E SWAP2 SWAP1 PUSH2 0x37F4 JUMP JUMPDEST SWAP1 POP PUSH1 0x0 PUSH2 0x2946 DUP3 PUSH2 0x28B0 DUP6 DUP1 PUSH2 0x37F4 JUMP JUMPDEST PUSH2 0x28BA SWAP2 SWAP1 PUSH2 0x37A3 JUMP JUMPDEST PUSH17 0xFFFFFFFFFFFFFFFFFFFFFFFFFFFFFFFFFF DUP2 GT PUSH1 0x7 SHL DUP2 DUP2 SHR PUSH9 0xFFFFFFFFFFFFFFFFFF LT PUSH1 0x6 SHL OR DUP2 DUP2 SHR PUSH5 0xFFFFFFFFFF LT PUSH1 0x5 SHL OR DUP2 DUP2 SHR PUSH3 0xFFFFFF LT PUSH1 0x4 SHL OR DUP2 DUP2 SHR PUSH3 0x10000 ADD PUSH1 0xB5 PUSH1 0x1 SWAP3 DUP4 SHR SHL MUL PUSH1 0x12 SHR DUP1 DUP4 DIV ADD DUP2 SHR DUP1 DUP4 DIV ADD DUP2 SHR DUP1 DUP4 DIV ADD DUP2 SHR DUP1 DUP4 DIV ADD DUP2 SHR DUP1 DUP4 DIV ADD DUP2 SHR DUP1 DUP4 DIV ADD DUP2 SHR DUP1 DUP4 DIV ADD SWAP1 SHR SWAP1 DUP2 SWAP1 DIV DUP2 GT SWAP1 SUB SWAP1 JUMP JUMPDEST SWAP1 POP PUSH1 0x0 PUSH2 0x2955 DUP7 PUSH1 0x2 PUSH2 0x37F4 JUMP JUMPDEST SWAP1 POP DUP1 PUSH2 0x2962 DUP6 DUP5 PUSH2 0x3831 JUMP JUMPDEST PUSH2 0x296C SWAP2 SWAP1 PUSH2 0x37BB JUMP JUMPDEST SWAP9 SWAP8 POP POP POP POP POP POP POP POP JUMP JUMPDEST PUSH1 0x0 DUP1 PUSH2 0x2987 DUP6 PUSH2 0x3E5 PUSH2 0x37F4 JUMP JUMPDEST SWAP1 POP PUSH1 0x0 PUSH2 0x2995 DUP5 DUP4 PUSH2 0x37F4 JUMP JUMPDEST SWAP1 POP PUSH1 0x0 DUP3 PUSH2 0x29A6 DUP8 PUSH2 0x3E8 PUSH2 0x37F4 JUMP JUMPDEST PUSH2 0x29B0 SWAP2 SWAP1 PUSH2 0x37A3 JUMP JUMPDEST SWAP1 POP PUSH2 0x29BC DUP2 DUP4 PUSH2 0x37BB JUMP JUMPDEST SWAP8 SWAP7 POP POP POP POP POP POP POP JUMP JUMPDEST DUP2 PUSH1 0x1A MSTORE DUP1 PUSH1 0x3A MSTORE PUSH10 0x95EA7B3000000000000 PUSH1 0x0 MSTORE PUSH1 0x20 PUSH1 0x0 PUSH1 0x44 PUSH1 0x16 PUSH1 0x0 DUP8 GAS CALL RETURNDATASIZE ISZERO PUSH1 0x1 PUSH1 0x0 MLOAD EQ OR AND PUSH2 0x2130 JUMPI PUSH4 0x3E3F8F73 PUSH1 0x0 MSTORE PUSH1 0x4 PUSH1 0x1C REVERT JUMPDEST PUSH1 0x0 DUP1 PUSH1 0x0 DUP1 DUP5 DUP7 GAS CALL PUSH2 0x2A22 JUMPI PUSH4 0xB12D13EB PUSH1 0x0 MSTORE PUSH1 0x4 PUSH1 0x1C REVERT JUMPDEST POP POP JUMP JUMPDEST PUSH1 0x0 PUSH4 0x70A08231 PUSH1 0x0 MSTORE DUP2 PUSH1 0x20 MSTORE PUSH1 0x20 DUP1 PUSH1 0x24 PUSH1 0x1C DUP7 GAS STATICCALL PUSH1 0x1F RETURNDATASIZE GT AND PUSH1 0x20 MLOAD MUL SWAP1 POP SWAP3 SWAP2 POP POP JUMP JUMPDEST PUSH1 0x0 PUSH8 0xFFFFFFFFFFFFFFFF DUP1 DUP5 GT ISZERO PUSH2 0x2A6A JUMPI PUSH2 0x2A6A PUSH2 0x38B0 JUMP JUMPDEST DUP4 PUSH1 0x5 SHL PUSH1 0x20 PUSH2 0x2A7B DUP2 DUP4 ADD PUSH2 0x370E JUMP JUMPDEST DUP7 DUP2 MSTORE SWAP4 POP DUP1 DUP5 ADD DUP6 DUP4 DUP2 ADD DUP10 LT ISZERO PUSH2 0x2A93 JUMPI PUSH1 0x0 DUP1 REVERT JUMPDEST PUSH1 0x0 SWAP4 POP JUMPDEST DUP8 DUP5 LT ISZERO PUSH2 0x2B0F JUMPI DUP1 CALLDATALOAD DUP6 DUP2 GT ISZERO PUSH2 0x2AAF JUMPI PUSH1 0x0 DUP1 REVERT JUMPDEST DUP8 ADD PUSH1 0x1F DUP2 ADD DUP11 SGT PUSH2 0x2AC0 JUMPI PUSH1 0x0 DUP1 REVERT JUMPDEST DUP1 CALLDATALOAD PUSH2 0x2AD3 PUSH2 0x2ACE DUP3 PUSH2 0x375D JUMP JUMPDEST PUSH2 0x370E JUMP JUMPDEST DUP2 DUP2 MSTORE DUP12 DUP7 DUP4 DUP6 ADD ADD GT ISZERO PUSH2 0x2AE7 JUMPI PUSH1 0x0 DUP1 REVERT JUMPDEST DUP2 DUP7 DUP5 ADD DUP8 DUP4 ADD CALLDATACOPY PUSH1 0x0 SWAP2 DUP2 ADD DUP7 ADD SWAP2 SWAP1 SWAP2 MSTORE DUP4 MSTORE POP PUSH1 0x1 SWAP4 SWAP1 SWAP4 ADD SWAP3 SWAP1 DUP3 ADD SWAP1 DUP3 ADD PUSH2 0x2A98 JUMP JUMPDEST POP POP POP POP POP SWAP4 SWAP3 POP POP POP JUMP JUMPDEST DUP1 CALLDATALOAD PUSH2 0x2B26 DUP2 PUSH2 0x38DF JUMP JUMPDEST SWAP2 SWAP1 POP JUMP JUMPDEST PUSH1 0x0 DUP1 DUP4 PUSH1 0x1F DUP5 ADD SLT PUSH2 0x2B3C JUMPI DUP2 DUP3 REVERT JUMPDEST POP DUP2 CALLDATALOAD PUSH8 0xFFFFFFFFFFFFFFFF DUP2 GT ISZERO PUSH2 0x2B53 JUMPI DUP2 DUP3 REVERT JUMPDEST PUSH1 0x20 DUP4 ADD SWAP2 POP DUP4 PUSH1 0x20 DUP3 PUSH1 0x5 SHL DUP6 ADD ADD GT ISZERO PUSH2 0x2B6E JUMPI PUSH1 0x0 DUP1 REVERT JUMPDEST SWAP3 POP SWAP3 SWAP1 POP JUMP JUMPDEST PUSH1 0x0 DUP3 PUSH1 0x1F DUP4 ADD SLT PUSH2 0x2B85 JUMPI DUP1 DUP2 REVERT JUMPDEST PUSH2 0x2B94 DUP4 DUP4 CALLDATALOAD PUSH1 0x20 DUP6 ADD PUSH2 0x2A4F JUMP JUMPDEST SWAP4 SWAP3 POP POP POP JUMP JUMPDEST DUP1 MLOAD DUP1 ISZERO ISZERO DUP2 EQ PUSH2 0x2B26 JUMPI PUSH1 0x0 DUP1 REVERT JUMPDEST PUSH1 0x0 DUP1 DUP4 PUSH1 0x1F DUP5 ADD SLT PUSH2 0x2BBC JUMPI DUP2 DUP3 REVERT JUMPDEST POP DUP2 CALLDATALOAD PUSH8 0xFFFFFFFFFFFFFFFF DUP2 GT ISZERO PUSH2 0x2BD3 JUMPI DUP2 DUP3 REVERT JUMPDEST PUSH1 0x20 DUP4 ADD SWAP2 POP DUP4 PUSH1 0x20 DUP3 DUP6 ADD ADD GT ISZERO PUSH2 0x2B6E JUMPI PUSH1 0x0 DUP1 REVERT JUMPDEST PUSH1 0x0 DUP3 PUSH1 0x1F DUP4 ADD SLT PUSH2 0x2BFB JUMPI DUP1 DUP2 REVERT JUMPDEST DUP2 MLOAD PUSH2 0x2C09 PUSH2 0x2ACE DUP3 PUSH2 0x375D JUMP JUMPDEST DUP2 DUP2 MSTORE DUP5 PUSH1 0x20 DUP4 DUP7 ADD ADD GT ISZERO PUSH2 0x2C1D JUMPI DUP3 DUP4 REVERT JUMPDEST PUSH2 0x2C2E DUP3 PUSH1 0x20 DUP4 ADD PUSH1 0x20 DUP8 ADD PUSH2 0x3855 JUMP JUMPDEST SWAP5 SWAP4 POP POP POP POP JUMP JUMPDEST DUP1 MLOAD PUSH14 0xFFFFFFFFFFFFFFFFFFFFFFFFFFFF DUP2 AND DUP2 EQ PUSH2 0x2B26 JUMPI PUSH1 0x0 DUP1 REVERT JUMPDEST PUSH1 0x0 PUSH1 0x20 DUP3 DUP5 SUB SLT ISZERO PUSH2 0x2C65 JUMPI DUP1 DUP2 REVERT JUMPDEST DUP2 MLOAD PUSH2 0x2B94 DUP2 PUSH2 0x38DF JUMP JUMPDEST PUSH1 0x0 DUP1 PUSH1 0x0 DUP1 DUP5 DUP7 SUB PUSH2 0x140 DUP2 SLT ISZERO PUSH2 0x2C87 JUMPI DUP4 DUP5 REVERT JUMPDEST DUP6 MLOAD PUSH2 0x2C92 DUP2 PUSH2 0x38DF JUMP JUMPDEST SWAP5 POP PUSH1 0xE0 PUSH32 0xFFFFFFFFFFFFFFFFFFFFFFFFFFFFFFFFFFFFFFFFFFFFFFFFFFFFFFFFFFFFFFE0 DUP3 ADD SLT ISZERO PUSH2 0x2CC3 JUMPI DUP4 DUP5 REVERT JUMPDEST POP PUSH2 0x2CCC PUSH2 0x36C2 JUMP JUMPDEST PUSH1 0x20 DUP7 ADD MLOAD PUSH2 0x2CDA DUP2 PUSH2 0x38DF JUMP JUMPDEST DUP2 MSTORE PUSH1 0x40 DUP7 ADD MLOAD PUSH2 0x2CEA DUP2 PUSH2 0x38DF JUMP JUMPDEST PUSH1 0x20 DUP3 ADD MSTORE PUSH1 0x60 DUP7 ADD MLOAD PUSH2 0x2CFD DUP2 PUSH2 0x38DF JUMP JUMPDEST PUSH1 0x40 DUP3 ADD MSTORE PUSH1 0x80 DUP7 ADD MLOAD PUSH2 0x2D10 DUP2 PUSH2 0x38DF JUMP JUMPDEST DUP1 PUSH1 0x60 DUP4 ADD MSTORE POP PUSH1 0xA0 DUP7 ADD MLOAD PUSH1 0x80 DUP3 ADD MSTORE PUSH1 0xC0 DUP7 ADD MLOAD PUSH1 0xA0 DUP3 ADD MSTORE PUSH1 0xE0 DUP7 ADD MLOAD PUSH1 0xC0 DUP3 ADD MSTORE DUP1 SWAP4 POP POP PUSH2 0x100 DUP6 ADD MLOAD PUSH8 0xFFFFFFFFFFFFFFFF DUP1 DUP3 GT ISZERO PUSH2 0x2D54 JUMPI DUP4 DUP5 REVERT JUMPDEST PUSH2 0x2D60 DUP9 DUP4 DUP10 ADD PUSH2 0x2BEB JUMP JUMPDEST SWAP4 POP PUSH2 0x120 DUP8 ADD MLOAD SWAP2 POP DUP1 DUP3 GT ISZERO PUSH2 0x2D76 JUMPI DUP3 DUP4 REVERT JUMPDEST POP PUSH2 0x2D83 DUP8 DUP3 DUP9 ADD PUSH2 0x2BEB JUMP JUMPDEST SWAP2 POP POP SWAP3 SWAP6 SWAP2 SWAP5 POP SWAP3 POP JUMP JUMPDEST PUSH1 0x0 DUP1 PUSH1 0x0 DUP1 PUSH1 0x0 DUP1 PUSH1 0x0 DUP1 PUSH1 0x0 DUP1 PUSH2 0x120 DUP12 DUP14 SUB SLT ISZERO PUSH2 0x2DAE JUMPI DUP8 DUP9 REVERT JUMPDEST DUP11 CALLDATALOAD PUSH2 0x2DB9 DUP2 PUSH2 0x38DF JUMP JUMPDEST SWAP10 POP PUSH1 0x20 DUP12 ADD CALLDATALOAD PUSH2 0x2DC9 DUP2 PUSH2 0x38DF JUMP JUMPDEST SWAP9 POP PUSH1 0x40 DUP12 ADD CALLDATALOAD PUSH2 0x2DD9 DUP2 PUSH2 0x38DF JUMP JUMPDEST SWAP8 POP PUSH1 0x60 DUP12 ADD CALLDATALOAD SWAP7 POP PUSH1 0x80 DUP12 ADD CALLDATALOAD SWAP6 POP PUSH1 0xA0 DUP12 ADD CALLDATALOAD PUSH2 0x2DF7 DUP2 PUSH2 0x38DF JUMP JUMPDEST SWAP5 POP PUSH1 0xC0 DUP12 ADD CALLDATALOAD PUSH2 0x2E07 DUP2 PUSH2 0x38DF JUMP JUMPDEST SWAP4 POP PUSH1 0xE0 DUP12 ADD CALLDATALOAD SWAP3 POP PUSH2 0x100 DUP12 ADD CALLDATALOAD PUSH8 0xFFFFFFFFFFFFFFFF DUP2 GT ISZERO PUSH2 0x2E2A JUMPI DUP3 DUP4 REVERT JUMPDEST PUSH2 0x2E36 DUP14 DUP3 DUP15 ADD PUSH2 0x2B2B JUMP JUMPDEST SWAP2 POP DUP1 SWAP4 POP POP DUP1 SWAP2 POP POP SWAP3 SWAP6 SWAP9 SWAP12 SWAP2 SWAP5 SWAP8 SWAP11 POP SWAP3 SWAP6 SWAP9 POP JUMP JUMPDEST PUSH1 0x0 DUP1 PUSH1 0x0 DUP1 PUSH1 0x0 DUP1 PUSH1 0x0 DUP1 PUSH1 0x0 DUP1 PUSH2 0x100 DUP12 DUP14 SUB SLT ISZERO PUSH2 0x2E6E JUMPI DUP4 DUP5 REVERT JUMPDEST DUP11 CALLDATALOAD PUSH2 0x2E79 DUP2 PUSH2 0x38DF JUMP JUMPDEST SWAP10 POP PUSH1 0x20 DUP12 ADD CALLDATALOAD PUSH2 0x2E89 DUP2 PUSH2 0x38DF JUMP JUMPDEST SWAP9 POP PUSH1 0x40 DUP12 ADD CALLDATALOAD SWAP8 POP PUSH1 0x60 DUP12 ADD CALLDATALOAD SWAP7 POP PUSH1 0x80 DUP12 ADD CALLDATALOAD PUSH2 0x2EA7 DUP2 PUSH2 0x38DF JUMP JUMPDEST SWAP6 POP PUSH1 0xA0 DUP12 ADD CALLDATALOAD SWAP5 POP PUSH1 0xC0 DUP12 ADD CALLDATALOAD PUSH8 0xFFFFFFFFFFFFFFFF DUP1 DUP3 GT ISZERO PUSH2 0x2ECA JUMPI DUP6 DUP7 REVERT JUMPDEST PUSH2 0x2ED6 DUP15 DUP4 DUP16 ADD PUSH2 0x2B2B JUMP JUMPDEST SWAP1 SWAP7 POP SWAP5 POP PUSH1 0xE0 DUP14 ADD CALLDATALOAD SWAP2 POP DUP1 DUP3 GT ISZERO PUSH2 0x2EEE JUMPI DUP4 DUP5 REVERT JUMPDEST POP PUSH2 0x2E36 DUP14 DUP3 DUP15 ADD PUSH2 0x2BAB JUMP JUMPDEST PUSH1 0x0 DUP1 PUSH1 0x0 DUP1 PUSH1 0x0 DUP1 PUSH1 0x0 DUP1 PUSH1 0x0 PUSH1 0xE0 DUP11 DUP13 SUB SLT ISZERO PUSH2 0x2F18 JUMPI DUP3 DUP4 REVERT JUMPDEST DUP10 CALLDATALOAD PUSH2 0x2F23 DUP2 PUSH2 0x38DF JUMP JUMPDEST SWAP9 POP PUSH1 0x20 DUP11 ADD CALLDATALOAD PUSH2 0x2F33 DUP2 PUSH2 0x38DF JUMP JUMPDEST SWAP8 POP PUSH1 0x40 DUP11 ADD CALLDATALOAD SWAP7 POP PUSH1 0x60 DUP11 ADD CALLDATALOAD SWAP6 POP PUSH1 0x80 DUP11 ADD CALLDATALOAD SWAP5 POP PUSH1 0xA0 DUP11 ADD CALLDATALOAD PUSH8 0xFFFFFFFFFFFFFFFF DUP1 DUP3 GT ISZERO PUSH2 0x2F64 JUMPI DUP5 DUP6 REVERT JUMPDEST PUSH2 0x2F70 DUP14 DUP4 DUP15 ADD PUSH2 0x2B2B JUMP JUMPDEST SWAP1 SWAP7 POP SWAP5 POP PUSH1 0xC0 DUP13 ADD CALLDATALOAD SWAP2 POP DUP1 DUP3 GT ISZERO PUSH2 0x2F88 JUMPI DUP4 DUP5 REVERT JUMPDEST POP PUSH2 0x2F95 DUP13 DUP3 DUP14 ADD PUSH2 0x2BAB JUMP JUMPDEST SWAP2 POP DUP1 SWAP4 POP POP DUP1 SWAP2 POP POP SWAP3 SWAP6 SWAP9 POP SWAP3 SWAP6 SWAP9 POP SWAP3 SWAP6 SWAP9 JUMP JUMPDEST PUSH1 0x0 DUP1 PUSH1 0x0 DUP1 PUSH1 0x0 DUP1 PUSH1 0xA0 DUP8 DUP10 SUB SLT ISZERO PUSH2 0x2FC4 JUMPI DUP4 DUP5 REVERT JUMPDEST DUP7 CALLDATALOAD PUSH2 0x2FCF DUP2 PUSH2 0x38DF JUMP JUMPDEST SWAP6 POP PUSH1 0x20 DUP8 ADD CALLDATALOAD SWAP5 POP PUSH1 0x40 DUP8 ADD CALLDATALOAD PUSH2 0x2FE6 DUP2 PUSH2 0x38DF JUMP JUMPDEST SWAP4 POP PUSH1 0x60 DUP8 ADD CALLDATALOAD PUSH2 0x2FF6 DUP2 PUSH2 0x38DF JUMP JUMPDEST SWAP3 POP PUSH1 0x80 DUP8 ADD CALLDATALOAD PUSH8 0xFFFFFFFFFFFFFFFF DUP2 GT ISZERO PUSH2 0x3011 JUMPI DUP3 DUP4 REVERT JUMPDEST PUSH2 0x301D DUP10 DUP3 DUP11 ADD PUSH2 0x2BAB JUMP JUMPDEST SWAP8 SWAP11 SWAP7 SWAP10 POP SWAP5 SWAP8 POP SWAP3 SWAP6 SWAP4 SWAP5 SWAP3 POP POP POP JUMP JUMPDEST PUSH1 0x0 DUP1 PUSH1 0x0 DUP1 PUSH1 0x0 PUSH1 0xA0 DUP7 DUP9 SUB SLT ISZERO PUSH2 0x3046 JUMPI DUP3 DUP4 REVERT JUMPDEST DUP6 CALLDATALOAD PUSH2 0x3051 DUP2 PUSH2 0x38DF JUMP JUMPDEST SWAP5 POP PUSH1 0x20 DUP7 ADD CALLDATALOAD SWAP4 POP PUSH1 0x40 DUP7 ADD CALLDATALOAD PUSH2 0x3068 DUP2 PUSH2 0x38DF JUMP JUMPDEST SWAP3 POP PUSH1 0x60 DUP7 ADD CALLDATALOAD PUSH2 0x3078 DUP2 PUSH2 0x38DF JUMP JUMPDEST SWAP5 SWAP8 SWAP4 SWAP7 POP SWAP2 SWAP5 PUSH1 0x80 ADD CALLDATALOAD SWAP3 SWAP2 POP POP JUMP JUMPDEST PUSH1 0x0 DUP1 PUSH1 0x0 DUP1 PUSH1 0x80 DUP6 DUP8 SUB SLT ISZERO PUSH2 0x309E JUMPI DUP2 DUP3 REVERT JUMPDEST DUP5 CALLDATALOAD PUSH2 0x30A9 DUP2 PUSH2 0x38DF JUMP JUMPDEST SWAP4 POP PUSH1 0x20 DUP6 ADD CALLDATALOAD SWAP3 POP PUSH1 0x40 DUP6 ADD CALLDATALOAD PUSH2 0x30C0 DUP2 PUSH2 0x38DF JUMP JUMPDEST SWAP4 SWAP7 SWAP3 SWAP6 POP SWAP3 SWAP4 PUSH1 0x60 ADD CALLDATALOAD SWAP3 POP POP JUMP JUMPDEST PUSH1 0x0 DUP1 PUSH1 0x0 DUP1 PUSH1 0x0 DUP1 PUSH1 0xA0 DUP8 DUP10 SUB SLT ISZERO PUSH2 0x30E8 JUMPI DUP4 DUP5 REVERT JUMPDEST DUP7 CALLDATALOAD PUSH2 0x30F3 DUP2 PUSH2 0x38DF JUMP JUMPDEST SWAP6 POP PUSH1 0x20 DUP8 ADD CALLDATALOAD SWAP5 POP PUSH1 0x40 DUP8 ADD CALLDATALOAD PUSH2 0x310A DUP2 PUSH2 0x38DF JUMP JUMPDEST SWAP4 POP PUSH1 0x60 DUP8 ADD CALLDATALOAD SWAP3 POP PUSH1 0x80 DUP8 ADD CALLDATALOAD PUSH8 0xFFFFFFFFFFFFFFFF DUP2 GT ISZERO PUSH2 0x3011 JUMPI DUP3 DUP4 REVERT JUMPDEST PUSH1 0x0 DUP1 PUSH1 0x0 DUP1 PUSH1 0x60 DUP6 DUP8 SUB SLT ISZERO PUSH2 0x3141 JUMPI DUP2 DUP3 REVERT JUMPDEST DUP5 CALLDATALOAD PUSH2 0x314C DUP2 PUSH2 0x38DF JUMP JUMPDEST SWAP4 POP PUSH1 0x20 DUP6 ADD CALLDATALOAD SWAP3 POP PUSH1 0x40 DUP6 ADD CALLDATALOAD PUSH8 0xFFFFFFFFFFFFFFFF DUP2 GT ISZERO PUSH2 0x316E JUMPI DUP3 DUP4 REVERT JUMPDEST PUSH2 0x317A DUP8 DUP3 DUP9 ADD PUSH2 0x2BAB JUMP JUMPDEST SWAP6 SWAP9 SWAP5 SWAP8 POP SWAP6 POP POP POP POP JUMP JUMPDEST PUSH1 0x0 PUSH1 0x20 DUP3 DUP5 SUB SLT ISZERO PUSH2 0x3197 JUMPI DUP1 DUP2 REVERT JUMPDEST PUSH2 0x2B94 DUP3 PUSH2 0x2B9B JUMP JUMPDEST PUSH1 0x0 DUP1 PUSH1 0x0 DUP1 PUSH1 0x80 DUP6 DUP8 SUB SLT ISZERO PUSH2 0x31B5 JUMPI DUP2 DUP3 REVERT JUMPDEST PUSH2 0x31BE DUP6 PUSH2 0x2B9B JUMP JUMPDEST SWAP4 POP PUSH1 0x20 DUP6 ADD MLOAD PUSH1 0xFF DUP2 AND DUP2 EQ PUSH2 0x31D3 JUMPI DUP3 DUP4 REVERT JUMPDEST PUSH1 0x40 DUP7 ADD MLOAD PUSH1 0x60 SWAP1 SWAP7 ADD MLOAD SWAP5 SWAP8 SWAP1 SWAP7 POP SWAP3 POP POP POP JUMP JUMPDEST PUSH1 0x0 PUSH1 0x20 DUP3 DUP5 SUB SLT ISZERO PUSH2 0x31FA JUMPI DUP1 DUP2 REVERT JUMPDEST DUP2 CALLDATALOAD PUSH8 0xFFFFFFFFFFFFFFFF DUP1 DUP3 GT ISZERO PUSH2 0x3211 JUMPI DUP3 DUP4 REVERT JUMPDEST SWAP1 DUP4 ADD SWAP1 PUSH1 0xC0 DUP3 DUP7 SUB SLT ISZERO PUSH2 0x3224 JUMPI DUP3 DUP4 REVERT JUMPDEST PUSH2 0x322C PUSH2 0x36EB JUMP JUMPDEST DUP3 CALLDATALOAD PUSH2 0x3237 DUP2 PUSH2 0x38DF JUMP JUMPDEST DUP2 MSTORE PUSH1 0x20 DUP4 ADD CALLDATALOAD PUSH2 0x3247 DUP2 PUSH2 0x38DF JUMP JUMPDEST PUSH1 0x20 DUP3 ADD MSTORE PUSH2 0x3258 PUSH1 0x40 DUP5 ADD PUSH2 0x2B1B JUMP JUMPDEST PUSH1 0x40 DUP3 ADD MSTORE PUSH2 0x3269 PUSH1 0x60 DUP5 ADD PUSH2 0x2B1B JUMP JUMPDEST PUSH1 0x60 DUP3 ADD MSTORE PUSH1 0x80 DUP4 ADD CALLDATALOAD PUSH1 0x80 DUP3 ADD MSTORE PUSH1 0xA0 DUP4 ADD CALLDATALOAD DUP3 DUP2 GT ISZERO PUSH2 0x3289 JUMPI DUP5 DUP6 REVERT JUMPDEST PUSH2 0x3295 DUP8 DUP3 DUP7 ADD PUSH2 0x2B75 JUMP JUMPDEST PUSH1 0xA0 DUP4 ADD MSTORE POP SWAP6 SWAP5 POP POP POP POP POP JUMP JUMPDEST PUSH1 0x0 PUSH1 0x20 DUP3 DUP5 SUB SLT ISZERO PUSH2 0x32B5 JUMPI DUP1 DUP2 REVERT JUMPDEST DUP2 CALLDATALOAD PUSH8 0xFFFFFFFFFFFFFFFF DUP1 DUP3 GT ISZERO PUSH2 0x32CC JUMPI DUP3 DUP4 REVERT JUMPDEST SWAP1 DUP4 ADD SWAP1 PUSH1 0xE0 DUP3 DUP7 SUB SLT ISZERO PUSH2 0x32DF JUMPI DUP3 DUP4 REVERT JUMPDEST PUSH2 0x32E7 PUSH2 0x36C2 JUMP JUMPDEST PUSH2 0x32F0 DUP4 PUSH2 0x2B1B JUMP JUMPDEST DUP2 MSTORE PUSH2 0x32FE PUSH1 0x20 DUP5 ADD PUSH2 0x2B1B JUMP JUMPDEST PUSH1 0x20 DUP3 ADD MSTORE PUSH2 0x330F PUSH1 0x40 DUP5 ADD PUSH2 0x2B1B JUMP JUMPDEST PUSH1 0x40 DUP3 ADD MSTORE PUSH2 0x3320 PUSH1 0x60 DUP5 ADD PUSH2 0x2B1B JUMP JUMPDEST PUSH1 0x60 DUP3 ADD MSTORE PUSH1 0x80 DUP4 ADD CALLDATALOAD PUSH1 0x80 DUP3 ADD MSTORE PUSH1 0xA0 DUP4 ADD CALLDATALOAD PUSH1 0xA0 DUP3 ADD MSTORE PUSH1 0xC0 DUP4 ADD CALLDATALOAD DUP3 DUP2 GT ISZERO PUSH2 0x334A JUMPI DUP5 DUP6 REVERT JUMPDEST PUSH2 0x3356 DUP8 DUP3 DUP7 ADD PUSH2 0x2B75 JUMP JUMPDEST PUSH1 0xC0 DUP4 ADD MSTORE POP SWAP6 SWAP5 POP POP POP POP POP JUMP JUMPDEST PUSH1 0x0 DUP1 PUSH1 0x0 PUSH1 0x60 DUP5 DUP7 SUB SLT ISZERO PUSH2 0x3379 JUMPI DUP1 DUP2 REVERT JUMPDEST PUSH2 0x3382 DUP5 PUSH2 0x2C36 JUMP JUMPDEST SWAP3 POP PUSH2 0x3390 PUSH1 0x20 DUP6 ADD PUSH2 0x2C36 JUMP JUMPDEST SWAP2 POP PUSH1 0x40 DUP5 ADD MLOAD PUSH4 0xFFFFFFFF DUP2 AND DUP2 EQ PUSH2 0x33A8 JUMPI DUP2 DUP3 REVERT JUMPDEST DUP1 SWAP2 POP POP SWAP3 POP SWAP3 POP SWAP3 JUMP JUMPDEST PUSH1 0x0 PUSH1 0x20 DUP3 DUP5 SUB SLT ISZERO PUSH2 0x33C4 JUMPI DUP1 DUP2 REVERT JUMPDEST POP MLOAD SWAP2 SWAP1 POP JUMP JUMPDEST PUSH1 0x0 DUP1 PUSH1 0x40 DUP4 DUP6 SUB SLT ISZERO PUSH2 0x33DD JUMPI DUP2 DUP3 REVERT JUMPDEST POP POP DUP1 MLOAD PUSH1 0x20 SWAP1 SWAP2 ADD MLOAD SWAP1 SWAP3 SWAP1 SWAP2 POP JUMP JUMPDEST PUSH1 0x0 DUP2 MLOAD DUP1 DUP5 MSTORE PUSH1 0x20 DUP1 DUP6 ADD DUP1 DUP2 SWAP7 POP DUP4 PUSH1 0x5 SHL DUP2 ADD SWAP2 POP DUP3 DUP7 ADD DUP6 JUMPDEST DUP6 DUP2 LT ISZERO PUSH2 0x3435 JUMPI DUP3 DUP5 SUB DUP10 MSTORE PUSH2 0x3423 DUP5 DUP4 MLOAD PUSH2 0x3442 JUMP JUMPDEST SWAP9 DUP6 ADD SWAP9 SWAP4 POP SWAP1 DUP5 ADD SWAP1 PUSH1 0x1 ADD PUSH2 0x340B JUMP JUMPDEST POP SWAP2 SWAP8 SWAP7 POP POP POP POP POP POP POP JUMP JUMPDEST PUSH1 0x0 DUP2 MLOAD DUP1 DUP5 MSTORE PUSH2 0x345A DUP2 PUSH1 0x20 DUP7 ADD PUSH1 0x20 DUP7 ADD PUSH2 0x3855 JUMP JUMPDEST PUSH1 0x1F ADD PUSH32 0xFFFFFFFFFFFFFFFFFFFFFFFFFFFFFFFFFFFFFFFFFFFFFFFFFFFFFFFFFFFFFFE0 AND SWAP3 SWAP1 SWAP3 ADD PUSH1 0x20 ADD SWAP3 SWAP2 POP POP JUMP JUMPDEST PUSH1 0x0 PUSH20 0xFFFFFFFFFFFFFFFFFFFFFFFFFFFFFFFFFFFFFFFF DUP1 DUP8 AND DUP4 MSTORE DUP1 DUP7 AND PUSH1 0x20 DUP5 ADD MSTORE POP DUP4 PUSH1 0x40 DUP4 ADD MSTORE PUSH1 0x80 PUSH1 0x60 DUP4 ADD MSTORE PUSH2 0x2494 PUSH1 0x80 DUP4 ADD DUP5 PUSH2 0x3442 JUMP JUMPDEST PUSH20 0xFFFFFFFFFFFFFFFFFFFFFFFFFFFFFFFFFFFFFFFF DUP5 AND DUP2 MSTORE DUP3 PUSH1 0x20 DUP3 ADD MSTORE PUSH1 0x60 PUSH1 0x40 DUP3 ADD MSTORE PUSH1 0x0 PUSH2 0x141A PUSH1 0x60 DUP4 ADD DUP5 PUSH2 0x3442 JUMP JUMPDEST PUSH1 0x20 DUP2 MSTORE PUSH1 0x0 PUSH2 0x2B94 PUSH1 0x20 DUP4 ADD DUP5 PUSH2 0x3442 JUMP JUMPDEST PUSH1 0x0 PUSH2 0x140 PUSH20 0xFFFFFFFFFFFFFFFFFFFFFFFFFFFFFFFFFFFFFFFF DUP1 DUP9 AND DUP5 MSTORE DUP1 DUP8 MLOAD AND PUSH1 0x20 DUP6 ADD MSTORE DUP1 PUSH1 0x20 DUP9 ADD MLOAD AND PUSH1 0x40 DUP6 ADD MSTORE DUP1 PUSH1 0x40 DUP9 ADD MLOAD AND PUSH1 0x60 DUP6 ADD MSTORE DUP1 PUSH1 0x60 DUP9 ADD MLOAD AND PUSH1 0x80 DUP6 ADD MSTORE POP PUSH1 0x80 DUP7 ADD MLOAD PUSH1 0xA0 DUP5 ADD MSTORE PUSH1 0xA0 DUP7 ADD MLOAD PUSH1 0xC0 DUP5 ADD MSTORE PUSH1 0xC0 DUP7 ADD MLOAD PUSH1 0xE0 DUP5 ADD MSTORE DUP1 PUSH2 0x100 DUP5 ADD MSTORE PUSH2 0x3591 DUP2 DUP5 ADD DUP7 PUSH2 0x3442 JUMP JUMPDEST SWAP1 POP DUP3 DUP2 SUB PUSH2 0x120 DUP5 ADD MSTORE PUSH2 0x29BC DUP2 DUP6 PUSH2 0x3442 JUMP JUMPDEST DUP5 DUP2 MSTORE DUP4 PUSH1 0x20 DUP3 ADD MSTORE PUSH20 0xFFFFFFFFFFFFFFFFFFFFFFFFFFFFFFFFFFFFFFFF DUP4 AND PUSH1 0x40 DUP3 ADD MSTORE PUSH1 0x80 PUSH1 0x60 DUP3 ADD MSTORE PUSH1 0x0 PUSH2 0x2494 PUSH1 0x80 DUP4 ADD DUP5 PUSH2 0x3442 JUMP JUMPDEST PUSH1 0x20 DUP2 MSTORE PUSH1 0x0 PUSH20 0xFFFFFFFFFFFFFFFFFFFFFFFFFFFFFFFFFFFFFFFF DUP1 DUP5 MLOAD AND PUSH1 0x20 DUP5 ADD MSTORE DUP1 PUSH1 0x20 DUP6 ADD MLOAD AND PUSH1 0x40 DUP5 ADD MSTORE DUP1 PUSH1 0x40 DUP6 ADD MLOAD AND PUSH1 0x60 DUP5 ADD MSTORE DUP1 PUSH1 0x60 DUP6 ADD MLOAD AND PUSH1 0x80 DUP5 ADD MSTORE POP PUSH1 0x80 DUP4 ADD MLOAD PUSH1 0xA0 DUP4 ADD MSTORE PUSH1 0xA0 DUP4 ADD MLOAD PUSH1 0xC0 DUP1 DUP5 ADD MSTORE PUSH2 0x2C2E PUSH1 0xE0 DUP5 ADD DUP3 PUSH2 0x33EE JUMP JUMPDEST PUSH1 0x20 DUP2 MSTORE PUSH1 0x0 PUSH20 0xFFFFFFFFFFFFFFFFFFFFFFFFFFFFFFFFFFFFFFFF DUP1 DUP5 MLOAD AND PUSH1 0x20 DUP5 ADD MSTORE DUP1 PUSH1 0x20 DUP6 ADD MLOAD AND PUSH1 0x40 DUP5 ADD MSTORE DUP1 PUSH1 0x40 DUP6 ADD MLOAD AND PUSH1 0x60 DUP5 ADD MSTORE DUP1 PUSH1 0x60 DUP6 ADD MLOAD AND PUSH1 0x80 DUP5 ADD MSTORE POP PUSH1 0x80 DUP4 ADD MLOAD PUSH1 0xA0 DUP4 ADD MSTORE PUSH1 0xA0 DUP4 ADD MLOAD PUSH1 0xC0 DUP4 ADD MSTORE PUSH1 0xC0 DUP4 ADD MLOAD PUSH1 0xE0 DUP1 DUP5 ADD MSTORE PUSH2 0x2C2E PUSH2 0x100 DUP5 ADD DUP3 PUSH2 0x33EE JUMP JUMPDEST PUSH1 0x40 MLOAD PUSH1 0xE0 DUP2 ADD PUSH8 0xFFFFFFFFFFFFFFFF DUP2 GT DUP3 DUP3 LT OR ISZERO PUSH2 0x36E5 JUMPI PUSH2 0x36E5 PUSH2 0x38B0 JUMP JUMPDEST PUSH1 0x40 MSTORE SWAP1 JUMP JUMPDEST PUSH1 0x40 MLOAD PUSH1 0xC0 DUP2 ADD PUSH8 0xFFFFFFFFFFFFFFFF DUP2 GT DUP3 DUP3 LT OR ISZERO PUSH2 0x36E5 JUMPI PUSH2 0x36E5 PUSH2 0x38B0 JUMP JUMPDEST PUSH1 0x40 MLOAD PUSH1 0x1F DUP3 ADD PUSH32 0xFFFFFFFFFFFFFFFFFFFFFFFFFFFFFFFFFFFFFFFFFFFFFFFFFFFFFFFFFFFFFFE0 AND DUP2 ADD PUSH8 0xFFFFFFFFFFFFFFFF DUP2 GT DUP3 DUP3 LT OR ISZERO PUSH2 0x3755 JUMPI PUSH2 0x3755 PUSH2 0x38B0 JUMP JUMPDEST PUSH1 0x40 MSTORE SWAP2 SWAP1 POP JUMP JUMPDEST PUSH1 0x0 PUSH8 0xFFFFFFFFFFFFFFFF DUP3 GT ISZERO PUSH2 0x3777 JUMPI PUSH2 0x3777 PUSH2 0x38B0 JUMP JUMPDEST POP PUSH1 0x1F ADD PUSH32 0xFFFFFFFFFFFFFFFFFFFFFFFFFFFFFFFFFFFFFFFFFFFFFFFFFFFFFFFFFFFFFFE0 AND PUSH1 0x20 ADD SWAP1 JUMP JUMPDEST PUSH1 0x0 DUP3 NOT DUP3 GT ISZERO PUSH2 0x37B6 JUMPI PUSH2 0x37B6 PUSH2 0x3881 JUMP JUMPDEST POP ADD SWAP1 JUMP JUMPDEST PUSH1 0x0 DUP3 PUSH2 0x37EF JUMPI PUSH32 0x4E487B7100000000000000000000000000000000000000000000000000000000 DUP2 MSTORE PUSH1 0x12 PUSH1 0x4 MSTORE PUSH1 0x24 DUP2 REVERT JUMPDEST POP DIV SWAP1 JUMP JUMPDEST PUSH1 0x0 DUP2 PUSH32 0xFFFFFFFFFFFFFFFFFFFFFFFFFFFFFFFFFFFFFFFFFFFFFFFFFFFFFFFFFFFFFFFF DIV DUP4 GT DUP3 ISZERO ISZERO AND ISZERO PUSH2 0x382C JUMPI PUSH2 0x382C PUSH2 0x3881 JUMP JUMPDEST POP MUL SWAP1 JUMP JUMPDEST PUSH1 0x0 DUP3 DUP3 LT ISZERO PUSH2 0x3843 JUMPI PUSH2 0x3843 PUSH2 0x3881 JUMP JUMPDEST POP SUB SWAP1 JUMP JUMPDEST PUSH1 0x0 PUSH2 0x2B94 CALLDATASIZE DUP5 DUP5 PUSH2 0x2A4F JUMP JUMPDEST PUSH1 0x0 JUMPDEST DUP4 DUP2 LT ISZERO PUSH2 0x3870 JUMPI DUP2 DUP2 ADD MLOAD DUP4 DUP3 ADD MSTORE PUSH1 0x20 ADD PUSH2 0x3858 JUMP JUMPDEST DUP4 DUP2 GT ISZERO PUSH2 0x188D JUMPI POP POP PUSH1 0x0 SWAP2 ADD MSTORE JUMP JUMPDEST PUSH32 0x4E487B7100000000000000000000000000000000000000000000000000000000 PUSH1 0x0 MSTORE PUSH1 0x11 PUSH1 0x4 MSTORE PUSH1 0x24 PUSH1 0x0 REVERT JUMPDEST PUSH32 0x4E487B7100000000000000000000000000000000000000000000000000000000 PUSH1 0x0 MSTORE PUSH1 0x41 PUSH1 0x4 MSTORE PUSH1 0x24 PUSH1 0x0 REVERT JUMPDEST PUSH20 0xFFFFFFFFFFFFFFFFFFFFFFFFFFFFFFFFFFFFFFFF DUP2 AND DUP2 EQ PUSH2 0x1302 JUMPI PUSH1 0x0 DUP1 REVERT INVALID LOG2 PUSH5 0x6970667358 0x22 SLT KECCAK256 PUSH29 0x6846511876F5B6F1AB0EA47CAD04E8D43136BA878AB5D56A36A5D2428D PUSH15 0xC664736F6C63430008040033000000 "},"methodIdentifiers":{"LOCAL_BYTES()":"953ec666","aggregationRouterV5()":"41cb8afd","altairBorrow_O9E(address,uint256,bytes)":"8f53d74f","altairRedeem_u91A(address,uint256,address,address,bytes)":"188a4b6c","borrow(address,uint256,address,uint256,bytes)":"dbe5f2fb","deleverage(address,address,uint256,uint256,uint256,bytes[],bytes)":"7f69e8d2","hangar18()":"e8a24e1d","leverage(address,address,uint256,uint256,address,uint256,bytes[],bytes)":"726bb08c","liquidate(address,uint256,address,address,uint256)":"5c1e6404","liquidateToUsd(address,address,address,uint256,uint256,address,address,uint256,bytes[])":"24a28813","nativeToken()":"e1758bd8","repay(address,uint256,address,uint256)":"6aee7c1e","usd()":"d63a6ccd"}},"storageLayout":{"storage":[],"types":null}}}}