{"contracts/cygnus-periphery/BorrowableHarvester.sol":{"BorrowableHarvester":{"abi":[{"inputs":[{"internalType":"contract IHangar18","name":"_hangar18","type":"address"}],"stateMutability":"nonpayable","type":"constructor"},{"inputs":[],"name":"CygnusHarvester__CantReinvestZero","type":"error"},{"inputs":[{"internalType":"address","name":"token","type":"address"}],"name":"CygnusHarvester__CantSweepRewardToken","type":"error"},{"inputs":[{"internalType":"address","name":"dstReceiver","type":"address"},{"internalType":"address","name":"receiver","type":"address"}],"name":"CygnusHarvester__DstReceiverNotValid","type":"error"},{"inputs":[{"internalType":"address","name":"dstToken","type":"address"},{"internalType":"address","name":"token","type":"address"}],"name":"CygnusHarvester__DstTokenNotValid","type":"error"},{"inputs":[{"internalType":"uint256","name":"newFee","type":"uint256"},{"internalType":"uint256","name":"maxFee","type":"uint256"}],"name":"CygnusHarvester__FeeExceedsLimit","type":"error"},{"inputs":[{"internalType":"address","name":"harvester","type":"address"}],"name":"CygnusHarvester__HarvesterAlreadyInitialized","type":"error"},{"inputs":[{"internalType":"address","name":"harvester","type":"address"}],"name":"CygnusHarvester__HarvesterNotInitialized","type":"error"},{"inputs":[{"internalType":"address","name":"sender","type":"address"},{"internalType":"address","name":"admin","type":"address"}],"name":"CygnusHarvester__MsgSenderNotAdmin","type":"error"},{"inputs":[{"internalType":"address","name":"sender","type":"address"},{"internalType":"address","name":"origin","type":"address"}],"name":"CygnusHarvester__OnlyEOAAllowed","type":"error"},{"inputs":[{"internalType":"address","name":"srcToken","type":"address"},{"internalType":"address","name":"token","type":"address"}],"name":"CygnusHarvester__SrcTokenNotValid","type":"error"},{"inputs":[{"internalType":"uint256","name":"min","type":"uint256"},{"internalType":"uint256","name":"max","type":"uint256"},{"internalType":"uint256","name":"reward","type":"uint256"}],"name":"CygnusHarvester__X1RewardNotInRange","type":"error"},{"inputs":[],"name":"CygnusHarvester__X1VaultRewardNotOne","type":"error"},{"inputs":[],"name":"ReentrantCall","type":"error"},{"anonymous":false,"inputs":[{"indexed":false,"internalType":"uint256","name":"timestamp","type":"uint256"},{"indexed":false,"internalType":"address","name":"sender","type":"address"},{"indexed":false,"internalType":"uint256","name":"tokensLength","type":"uint256"}],"name":"CygnusX1VaultCollect","type":"event"},{"anonymous":false,"inputs":[{"indexed":true,"internalType":"uint256","name":"harvesterId","type":"uint256"},{"indexed":false,"internalType":"address","name":"poolToken","type":"address"},{"indexed":false,"internalType":"address","name":"underlying","type":"address"}],"name":"InitializeHarvester","type":"event"},{"anonymous":false,"inputs":[{"indexed":true,"internalType":"address","name":"sender","type":"address"},{"indexed":false,"internalType":"uint256","name":"oldFee","type":"uint256"},{"indexed":false,"internalType":"uint256","name":"newFee","type":"uint256"}],"name":"NewHarvestFee","type":"event"},{"anonymous":false,"inputs":[{"indexed":false,"internalType":"address","name":"newToken","type":"address"},{"indexed":false,"internalType":"uint256","name":"rewardTokensLength","type":"uint256"}],"name":"NewX1RewardToken","type":"event"},{"anonymous":false,"inputs":[{"indexed":true,"internalType":"address","name":"sender","type":"address"},{"indexed":false,"internalType":"uint256","name":"oldReward","type":"uint256"},{"indexed":false,"internalType":"uint256","name":"newReward","type":"uint256"}],"name":"NewX1VaultReward","type":"event"},{"inputs":[],"name":"MAX_X1_REWARD","outputs":[{"internalType":"uint256","name":"","type":"uint256"}],"stateMutability":"view","type":"function"},{"inputs":[],"name":"MIN_X1_REWARD","outputs":[{"internalType":"uint256","name":"","type":"uint256"}],"stateMutability":"view","type":"function"},{"inputs":[],"name":"ONE_INCH_ROUTER_V5","outputs":[{"internalType":"contract IAggregationRouterV5","name":"","type":"address"}],"stateMutability":"view","type":"function"},{"inputs":[{"internalType":"address","name":"rewardToken","type":"address"}],"name":"addX1VaultRewardToken","outputs":[],"stateMutability":"nonpayable","type":"function"},{"inputs":[{"internalType":"uint256","name":"","type":"uint256"}],"name":"allHarvesters","outputs":[{"internalType":"address","name":"","type":"address"}],"stateMutability":"view","type":"function"},{"inputs":[{"internalType":"uint256","name":"","type":"uint256"}],"name":"allX1RewardTokens","outputs":[{"internalType":"address","name":"","type":"address"}],"stateMutability":"view","type":"function"},{"inputs":[{"internalType":"address","name":"rewardToken","type":"address"}],"name":"collectX1RewardToken","outputs":[],"stateMutability":"nonpayable","type":"function"},{"inputs":[],"name":"collectX1RewardsAll","outputs":[],"stateMutability":"nonpayable","type":"function"},{"inputs":[],"name":"cygnusX1Vault","outputs":[{"internalType":"address","name":"","type":"address"}],"stateMutability":"view","type":"function"},{"inputs":[{"internalType":"address","name":"","type":"address"}],"name":"getHarvester","outputs":[{"internalType":"address","name":"underlying","type":"address"},{"internalType":"address","name":"wantToken","type":"address"}],"stateMutability":"view","type":"function"},{"inputs":[],"name":"hangar18","outputs":[{"internalType":"contract IHangar18","name":"","type":"address"}],"stateMutability":"view","type":"function"},{"inputs":[],"name":"harvestersLength","outputs":[{"internalType":"uint256","name":"","type":"uint256"}],"stateMutability":"view","type":"function"},{"inputs":[{"internalType":"address","name":"borrowable","type":"address"}],"name":"initializeHarvester","outputs":[],"stateMutability":"nonpayable","type":"function"},{"inputs":[],"name":"lastX1Collect","outputs":[{"internalType":"uint256","name":"","type":"uint256"}],"stateMutability":"view","type":"function"},{"inputs":[],"name":"name","outputs":[{"internalType":"string","name":"","type":"string"}],"stateMutability":"view","type":"function"},{"inputs":[],"name":"nativeToken","outputs":[{"internalType":"address","name":"","type":"address"}],"stateMutability":"view","type":"function"},{"inputs":[{"internalType":"uint256","name":"vaultReward","type":"uint256"}],"name":"newX1VaultReward","outputs":[],"stateMutability":"nonpayable","type":"function"},{"inputs":[{"internalType":"address","name":"borrowable","type":"address"},{"internalType":"bytes[]","name":"swapData","type":"bytes[]"}],"name":"reinvestRewards","outputs":[{"internalType":"uint256","name":"liquidity","type":"uint256"}],"stateMutability":"nonpayable","type":"function"},{"inputs":[{"internalType":"address","name":"rewardToken","type":"address"}],"name":"rewardTokenBalance","outputs":[{"internalType":"uint256","name":"","type":"uint256"}],"stateMutability":"view","type":"function"},{"inputs":[{"internalType":"uint256","name":"index","type":"uint256"}],"name":"rewardTokenBalanceAtIndex","outputs":[{"internalType":"uint256","name":"","type":"uint256"}],"stateMutability":"view","type":"function"},{"inputs":[{"internalType":"address","name":"token","type":"address"}],"name":"sweepToken","outputs":[],"stateMutability":"nonpayable","type":"function"},{"inputs":[],"name":"x1RewardTokensLength","outputs":[{"internalType":"uint256","name":"","type":"uint256"}],"stateMutability":"view","type":"function"},{"inputs":[],"name":"x1VaultReward","outputs":[{"internalType":"uint256","name":"","type":"uint256"}],"stateMutability":"view","type":"function"}],"evm":{"bytecode":{"linkReferences":{},"object":"60e06040908082523462000164578062002028803803809162000023828562000169565b8339602092839181010312620001645751906001600160a01b0382168083036200016457600092600160ff198554161784556702c68af0bb1400006004556080528351631c2eb17b60e31b81528281600481855afa9081156200015a579183929160049492869162000138575b5060a05285516318e7df3d60e31b815293849182905afa9283156200012d5792620000f9575b505060c05251611e639081620001c582396080518181816101640152611c6b015260a051816101d8015260c0518181816102810152818161105901526112020152f35b6200011d9250803d1062000125575b62000114818362000169565b810190620001a3565b3880620000b6565b503d62000108565b8451903d90823e3d90fd5b620001539150833d8511620001255762000114818362000169565b3862000090565b85513d86823e3d90fd5b600080fd5b601f909101601f19168101906001600160401b038211908210176200018d57604052565b634e487b7160e01b600052604160045260246000fd5b908160209103126200016457516001600160a01b038116810362000164579056fe6080604052600436101561001257600080fd5b60003560e01c806306fdde031461178057806311475b2a1461173f5780631be19560146116cc5780631f700dcd1461165e57806320750215146116225780632c0da13d146115c05780632c3de320146114f15780634bb2bfa3146112d85780635fa9d9b01461129c57806385f80f071461122e578063941177a51461115857806394bbf438146110fc57806397f4e01b14610f81578063a62df98d1461046e578063a7ba8a39146103d7578063b5b946e31461039b578063b7218b371461035f578063ba3f30c6146102f2578063bdcb9932146102a5578063c73ef9e814610236578063d5d4f0e1146101fc578063e1758bd81461018d5763e8a24e1d1461011957600080fd5b346101885760007ffffffffffffffffffffffffffffffffffffffffffffffffffffffffffffffffc36011261018857602060405173ffffffffffffffffffffffffffffffffffffffff7f0000000000000000000000000000000000000000000000000000000000000000168152f35b600080fd5b346101885760007ffffffffffffffffffffffffffffffffffffffffffffffffffffffffffffffffc36011261018857602060405173ffffffffffffffffffffffffffffffffffffffff7f0000000000000000000000000000000000000000000000000000000000000000168152f35b346101885760007ffffffffffffffffffffffffffffffffffffffffffffffffffffffffffffffffc36011261018857602060405160008152f35b346101885760007ffffffffffffffffffffffffffffffffffffffffffffffffffffffffffffffffc36011261018857602060405173ffffffffffffffffffffffffffffffffffffffff7f0000000000000000000000000000000000000000000000000000000000000000168152f35b346101885760007ffffffffffffffffffffffffffffffffffffffffffffffffffffffffffffffffc360112610188576020604051731111111254eeb25477b68fb85ed929f73a9605828152f35b346101885760207ffffffffffffffffffffffffffffffffffffffffffffffffffffffffffffffffc36011261018857602061035773ffffffffffffffffffffffffffffffffffffffff6103486004356003611930565b90549060031b1c163090611e27565b604051908152f35b346101885760007ffffffffffffffffffffffffffffffffffffffffffffffffffffffffffffffffc360112610188576020600454604051908152f35b346101885760007ffffffffffffffffffffffffffffffffffffffffffffffffffffffffffffffffc360112610188576020600554604051908152f35b346101885760207ffffffffffffffffffffffffffffffffffffffffffffffffffffffffffffffffc3601126101885760043573ffffffffffffffffffffffffffffffffffffffff90818116809103610188576000908152600160208181526040928390208054920154835173ffffffffffffffffffffffffffffffffffffffff9386168416815294169091169083015290f35b0390f35b346101885760407ffffffffffffffffffffffffffffffffffffffffffffffffffffffffffffffffc3601126101885760043573ffffffffffffffffffffffffffffffffffffffff811681036101885767ffffffffffffffff60243511610188573660236024350112156101885767ffffffffffffffff60243560040135116101885736602480356004013560051b81350101116101885760009073ffffffffffffffffffffffffffffffffffffffff8116600052600160205260406000206040519061053b604083611807565b73ffffffffffffffffffffffffffffffffffffffff60018183541692838552015416602083015215610f5157604051917f0572b0cc0000000000000000000000000000000000000000000000000000000083526000836004818373ffffffffffffffffffffffffffffffffffffffff86165af1908115610bb557600093600092610e0c575b5060005b8451811015610cfa576105d78184611981565b516105e5575b6001016105c4565b9473ffffffffffffffffffffffffffffffffffffffff6106058787611981565b5116600060208160646106188b89611981565b519460405195606052306040523360601b602c526f23b872dd000000000000000000000000600c52601c9485915af13d15600160005114171615610ced5750600060605260405273ffffffffffffffffffffffffffffffffffffffff61067e8787611981565b51602086015173ffffffffffffffffffffffffffffffffffffffff16911614610cd05760243560040135861015610ca1577fffffffffffffffffffffffffffffffffffffffffffffffffffffffffffffffbd60243536030160248760051b813501013512156101885767ffffffffffffffff6024808860051b81350101358135010135116101885760248035600588901b8101820135019081013536036044909101136101885773ffffffffffffffffffffffffffffffffffffffff6107448787611981565b511673ffffffffffffffffffffffffffffffffffffffff60208601511661076b8886611981565b516024803560058b901b810182013501908101358101039161014083126101885760e07fffffffffffffffffffffffffffffffffffffffffffffffffffffffffffffffe06107c9604460248e60051b8135010135602435010161190f565b94011261018857604051936107df60e086611807565b6107f9606460248d60051b8135010135602435010161190f565b8552610815608460248d60051b8135010135602435010161190f565b602086015261083460a460248d60051b8135010135602435010161190f565b604086015261085360c460248d60051b8135010135602435010161190f565b60608601526024803560058d901b8101909101350160e4810135608087015261010481013560a087015261012481013560c087015267ffffffffffffffff6101449091013511610188576108c86024803560058e901b81018201350190810135810160449081019161014481013501016119d1565b5067ffffffffffffffff61016460248d60051b813501013560243501013511610188576109166024803560058e901b81018201350190810135810160449081019161016481013501016119d1565b9280608087015103610c96575b5073ffffffffffffffffffffffffffffffffffffffff855116818103610c4757505073ffffffffffffffffffffffffffffffffffffffff602085015116818103610bf857505073ffffffffffffffffffffffffffffffffffffffff60608401511673ffffffffffffffffffffffffffffffffffffffff86168103610bc15750604091610b4273ffffffffffffffffffffffffffffffffffffffff926109e584875116731111111254eeb25477b68fb85ed929f73a960582608089015191611a18565b610b116109f26000611877565b6109fe87519182611807565b600081527fffffffffffffffffffffffffffffffffffffffffffffffffffffffffffffffe0610a2d6000611877565b0136602083013760c0875198899788977f12aa3caf00000000000000000000000000000000000000000000000000000000895216600488015273ffffffffffffffffffffffffffffffffffffffff815116602488015273ffffffffffffffffffffffffffffffffffffffff602082015116604488015273ffffffffffffffffffffffffffffffffffffffff8982015116606488015273ffffffffffffffffffffffffffffffffffffffff6060820151166084880152608081015160a488015260a081015160c4880152015160e48601526101406101048601526101448501906118b1565b907ffffffffffffffffffffffffffffffffffffffffffffffffffffffffffffffffc848303016101248501526118b1565b03816000731111111254eeb25477b68fb85ed929f73a9605825af1908115610bb557600091610b82575b50610b7990600192611995565b955b90506105dd565b90506040813d604011610bad575b81610b9d60409383611807565b8101031261018857516001610b6c565b3d9150610b90565b6040513d6000823e3d90fd5b604490604051907f03918a030000000000000000000000000000000000000000000000000000000082526004820152336024820152fd5b6040517f74924cb200000000000000000000000000000000000000000000000000000000815273ffffffffffffffffffffffffffffffffffffffff918216600482015291166024820152604490fd5b6040517fbf3a09e600000000000000000000000000000000000000000000000000000000815273ffffffffffffffffffffffffffffffffffffffff918216600482015291166024820152604490fd5b60808601528b610923565b7f4e487b7100000000000000000000000000000000000000000000000000000000600052603260045260246000fd5b610ce7600191610ce08886611981565b5190611995565b95610b7b565b600490637939f424600052fd5b50848015610de257600454807fffffffffffffffffffffffffffffffffffffffffffffffffffffffffffffffff0482118102610dd457670de0b6b3a764000090820204900373ffffffffffffffffffffffffffffffffffffffff82163b1561018857600073ffffffffffffffffffffffffffffffffffffffff6024829460405195869384927f81f5b6f4000000000000000000000000000000000000000000000000000000008452876004850152165af1918215610bb557602092610dc3575b50604051908152f35b6000610dce91611807565b82610dba565b63bac65e5b6000526004601cfd5b60046040517f496ee71b000000000000000000000000000000000000000000000000000000008152fd5b935090503d806000853e610e208185611807565b60408482810103126101885783519067ffffffffffffffff821161018857808501601f8387010112156101885781850151610e5a81611948565b92610e686040519485611807565b818452602084019083880160208460051b838b010101116101885790602082890101915b60208460051b828b0101018310610f36575050505060208501519067ffffffffffffffff821161018857808601601f838801011215610188578186015191610ed383611948565b96610ee16040519889611807565b8388526020880192810160208560051b8484010101116101885780820160200192915b60208560051b82840101018410610f225750505050509290856105c0565b602080809486518152019401939250610f04565b6020808093610f4486611960565b8152019301929150610e8c565b60246040517fce9b924b000000000000000000000000000000000000000000000000000000008152336004820152fd5b346101885760007ffffffffffffffffffffffffffffffffffffffffffffffffffffffffffffffffc3601126101885760005460ff8116156110d2577fffffffffffffffffffffffffffffffffffffffffffffffffffffffffffffff00809116600055610fed6003611b40565b9060009160005b81518110156110875773ffffffffffffffffffffffffffffffffffffffff61102830826110218587611981565b5116611e27565b908161103f575b505061103a90611ba7565b610ff4565b9461107e600192849761105561103a9688611981565b51167f000000000000000000000000000000000000000000000000000000000000000090611dde565b0193908561102f565b6001837f16a9fd824a632ba02af308c1f7597f156fa9ec25b50bf207e0c0c34d28d27ab660608742600555604051904282523360208301526040820152a16000541617600055600080f35b60046040517f37ed32e8000000000000000000000000000000000000000000000000000000008152fd5b346101885760207ffffffffffffffffffffffffffffffffffffffffffffffffffffffffffffffffc3601126101885760043573ffffffffffffffffffffffffffffffffffffffff81168103610188576103576020913090611e27565b346101885760207ffffffffffffffffffffffffffffffffffffffffffffffffffffffffffffffffc3601126101885760043573ffffffffffffffffffffffffffffffffffffffff81168103610188576111af611c27565b6111b93082611e27565b806111fc575b426005557f16a9fd824a632ba02af308c1f7597f156fa9ec25b50bf207e0c0c34d28d27ab6606060405142815233602082015260016040820152a1005b611227917f000000000000000000000000000000000000000000000000000000000000000090611dde565b80806111bf565b346101885760207ffffffffffffffffffffffffffffffffffffffffffffffffffffffffffffffffc360112610188576004356002548110156101885773ffffffffffffffffffffffffffffffffffffffff61128c6020926002611930565b9190546040519260031b1c168152f35b346101885760007ffffffffffffffffffffffffffffffffffffffffffffffffffffffffffffffffc360112610188576020600254604051908152f35b34610188576020807ffffffffffffffffffffffffffffffffffffffffffffffffffffffffffffffffc360112610188576004359073ffffffffffffffffffffffffffffffffffffffff80831680840361018857611333611c27565b8060005260018352604060002060405161134e604082611807565b8484600181855416948585520154169101526114c057604051927f6f307dc30000000000000000000000000000000000000000000000000000000084528084600481855afa928315610bb55760009361146a575b7faaba566daac618884a3651a227aed179a85936588f933de535762f4a9aaae31694506001604051926113d6604085611807565b82861694858552818501958652600052526001816040600020935116927fffffffffffffffffffffffff00000000000000000000000000000000000000009384825416178155019251169082541617905561143081611d32565b61143b836002611bd4565b6002546040805173ffffffffffffffffffffffffffffffffffffffff95861681529290941660208301529290a2005b92508084813d83116114b9575b6114818183611807565b81010312610188576114b37faaba566daac618884a3651a227aed179a85936588f933de535762f4a9aaae31694611960565b926113a2565b503d611477565b602490604051907f769200dd0000000000000000000000000000000000000000000000000000000082526004820152fd5b346101885760207ffffffffffffffffffffffffffffffffffffffffffffffffffffffffffffffffc3601126101885760043561152b611c27565b670de0b6b3a764000080821180156115b8575b61157b5750806004556040519080825260208201527fa1367aa3830e872ca7d226920b1be2dcd9b6ebe0844a6f86c22d717a34b7ef0260403392a2005b606491604051917f2f753cf00000000000000000000000000000000000000000000000000000000083526000600484015260248301526044820152fd5b50600061153e565b346101885760207ffffffffffffffffffffffffffffffffffffffffffffffffffffffffffffffffc3601126101885760043573ffffffffffffffffffffffffffffffffffffffff81168103610188576116209061161b611c27565b611d32565b005b346101885760007ffffffffffffffffffffffffffffffffffffffffffffffffffffffffffffffffc360112610188576020600354604051908152f35b346101885760207ffffffffffffffffffffffffffffffffffffffffffffffffffffffffffffffffc360112610188576004356003548110156101885773ffffffffffffffffffffffffffffffffffffffff6116bc6020926003611930565b90549060031b1c16604051908152f35b346101885760207ffffffffffffffffffffffffffffffffffffffffffffffffffffffffffffffffc3601126101885760043573ffffffffffffffffffffffffffffffffffffffff8116810361018857611723611c27565b61172d3082611e27565b8061173457005b611620913390611dde565b346101885760007ffffffffffffffffffffffffffffffffffffffffffffffffffffffffffffffffc360112610188576020604051670de0b6b3a76400008152f35b346101885760007ffffffffffffffffffffffffffffffffffffffffffffffffffffffffffffffffc3601126101885761046a6117bc601f611877565b6117c96040519182611807565b601f81527f4379676e7573204861727665737465723a20536f6e6e6520526577617264730060208201526040519182916020835260208301906118b1565b90601f7fffffffffffffffffffffffffffffffffffffffffffffffffffffffffffffffe0910116810190811067ffffffffffffffff82111761184857604052565b7f4e487b7100000000000000000000000000000000000000000000000000000000600052604160045260246000fd5b67ffffffffffffffff811161184857601f017fffffffffffffffffffffffffffffffffffffffffffffffffffffffffffffffe01660200190565b919082519283825260005b8481106118fb5750507fffffffffffffffffffffffffffffffffffffffffffffffffffffffffffffffe0601f8460006020809697860101520116010190565b6020818301810151848301820152016118bc565b359073ffffffffffffffffffffffffffffffffffffffff8216820361018857565b8054821015610ca15760005260206000200190600090565b67ffffffffffffffff81116118485760051b60200190565b519073ffffffffffffffffffffffffffffffffffffffff8216820361018857565b8051821015610ca15760209160051b010190565b919082018092116119a257565b7f4e487b7100000000000000000000000000000000000000000000000000000000600052601160045260246000fd5b81601f82011215610188578035906119e882611877565b926119f66040519485611807565b8284526020838301011161018857816000926020809301838601378301015290565b6040517fdd62ed3e00000000000000000000000000000000000000000000000000000000815230600482015273ffffffffffffffffffffffffffffffffffffffff83166024820152919290916020818060448101038173ffffffffffffffffffffffffffffffffffffffff87165afa908115610bb557600091611b0c575b501015611b085760446010600080936020956014527fffffffffffffffffffffffffffffffffffffffffffffffffffffffffffffffff6034526f095ea7b300000000000000000000000082525af13d15600160005114171615611afa576000603452565b633e3f8f736000526004601cfd5b5050565b906020823d8211611b38575b81611b2560209383611807565b81010312611b3557505138611a96565b80fd5b3d9150611b18565b9060405191828154918282526020928383019160005283600020936000905b828210611b7757505050611b7592500383611807565b565b855473ffffffffffffffffffffffffffffffffffffffff1684526001958601958895509381019390910190611b5f565b7fffffffffffffffffffffffffffffffffffffffffffffffffffffffffffffffff81146119a25760010190565b80546801000000000000000081101561184857611bf691600182018155611930565b819291549060031b9173ffffffffffffffffffffffffffffffffffffffff9283811b93849216901b16911916179055565b6040517ff851a44000000000000000000000000000000000000000000000000000000000815273ffffffffffffffffffffffffffffffffffffffff602082600481847f0000000000000000000000000000000000000000000000000000000000000000165afa918215610bb557600092611cf7575b5081163303611ca85750565b6040517f90a9d16f00000000000000000000000000000000000000000000000000000000815233600482015273ffffffffffffffffffffffffffffffffffffffff919091166024820152604490fd5b90916020823d8211611d2a575b81611d1160209383611807565b81010312611b355750611d2390611960565b9038611c9c565b3d9150611d04565b611d3c6003611b40565b9060005b8251811015611d865773ffffffffffffffffffffffffffffffffffffffff80611d698386611981565b511690831614611d8157611d7c90611ba7565b611d40565b505050565b507f6e88551d1e5f4e837d99cdaeb8dab5a3e0eede87e21670b9c9d3787d0a0d11ea9150604090611db8816003611bd4565b60035473ffffffffffffffffffffffffffffffffffffffff8351921682526020820152a1565b60109260209260145260345260446000938480936fa9059cbb00000000000000000000000082525af13d156001835114171615611e1a57603452565b6390b8ec1890526004601cfd5b602460106020939284936014526f70a082310000000000000000000000006000525afa601f3d1116602051029056fea164736f6c6343000811000a","opcodes":"PUSH1 0xE0 PUSH1 0x40 SWAP1 DUP1 DUP3 MSTORE CALLVALUE PUSH3 0x164 JUMPI DUP1 PUSH3 0x2028 DUP1 CODESIZE SUB DUP1 SWAP2 PUSH3 0x23 DUP3 DUP6 PUSH3 0x169 JUMP JUMPDEST DUP4 CODECOPY PUSH1 0x20 SWAP3 DUP4 SWAP2 DUP2 ADD SUB SLT PUSH3 0x164 JUMPI MLOAD SWAP1 PUSH1 0x1 PUSH1 0x1 PUSH1 0xA0 SHL SUB DUP3 AND DUP1 DUP4 SUB PUSH3 0x164 JUMPI PUSH1 0x0 SWAP3 PUSH1 0x1 PUSH1 0xFF NOT DUP6 SLOAD AND OR DUP5 SSTORE PUSH8 0x2C68AF0BB140000 PUSH1 0x4 SSTORE PUSH1 0x80 MSTORE DUP4 MLOAD PUSH4 0x1C2EB17B PUSH1 0xE3 SHL DUP2 MSTORE DUP3 DUP2 PUSH1 0x4 DUP2 DUP6 GAS STATICCALL SWAP1 DUP2 ISZERO PUSH3 0x15A JUMPI SWAP2 DUP4 SWAP3 SWAP2 PUSH1 0x4 SWAP5 SWAP3 DUP7 SWAP2 PUSH3 0x138 JUMPI JUMPDEST POP PUSH1 0xA0 MSTORE DUP6 MLOAD PUSH4 0x18E7DF3D PUSH1 0xE3 SHL DUP2 MSTORE SWAP4 DUP5 SWAP2 DUP3 SWAP1 GAS STATICCALL SWAP3 DUP4 ISZERO PUSH3 0x12D JUMPI SWAP3 PUSH3 0xF9 JUMPI JUMPDEST POP POP PUSH1 0xC0 MSTORE MLOAD PUSH2 0x1E63 SWAP1 DUP2 PUSH3 0x1C5 DUP3 CODECOPY PUSH1 0x80 MLOAD DUP2 DUP2 DUP2 PUSH2 0x164 ADD MSTORE PUSH2 0x1C6B ADD MSTORE PUSH1 0xA0 MLOAD DUP2 PUSH2 0x1D8 ADD MSTORE PUSH1 0xC0 MLOAD DUP2 DUP2 DUP2 PUSH2 0x281 ADD MSTORE DUP2 DUP2 PUSH2 0x1059 ADD MSTORE PUSH2 0x1202 ADD MSTORE RETURN JUMPDEST PUSH3 0x11D SWAP3 POP DUP1 RETURNDATASIZE LT PUSH3 0x125 JUMPI JUMPDEST PUSH3 0x114 DUP2 DUP4 PUSH3 0x169 JUMP JUMPDEST DUP2 ADD SWAP1 PUSH3 0x1A3 JUMP JUMPDEST CODESIZE DUP1 PUSH3 0xB6 JUMP JUMPDEST POP RETURNDATASIZE PUSH3 0x108 JUMP JUMPDEST DUP5 MLOAD SWAP1 RETURNDATASIZE SWAP1 DUP3 RETURNDATACOPY RETURNDATASIZE SWAP1 REVERT JUMPDEST PUSH3 0x153 SWAP2 POP DUP4 RETURNDATASIZE DUP6 GT PUSH3 0x125 JUMPI PUSH3 0x114 DUP2 DUP4 PUSH3 0x169 JUMP JUMPDEST CODESIZE PUSH3 0x90 JUMP JUMPDEST DUP6 MLOAD RETURNDATASIZE DUP7 DUP3 RETURNDATACOPY RETURNDATASIZE SWAP1 REVERT JUMPDEST PUSH1 0x0 DUP1 REVERT JUMPDEST PUSH1 0x1F SWAP1 SWAP2 ADD PUSH1 0x1F NOT AND DUP2 ADD SWAP1 PUSH1 0x1 PUSH1 0x1 PUSH1 0x40 SHL SUB DUP3 GT SWAP1 DUP3 LT OR PUSH3 0x18D JUMPI PUSH1 0x40 MSTORE JUMP JUMPDEST PUSH4 0x4E487B71 PUSH1 0xE0 SHL PUSH1 0x0 MSTORE PUSH1 0x41 PUSH1 0x4 MSTORE PUSH1 0x24 PUSH1 0x0 REVERT JUMPDEST SWAP1 DUP2 PUSH1 0x20 SWAP2 SUB SLT PUSH3 0x164 JUMPI MLOAD PUSH1 0x1 PUSH1 0x1 PUSH1 0xA0 SHL SUB DUP2 AND DUP2 SUB PUSH3 0x164 JUMPI SWAP1 JUMP INVALID PUSH1 0x80 PUSH1 0x40 MSTORE PUSH1 0x4 CALLDATASIZE LT ISZERO PUSH2 0x12 JUMPI PUSH1 0x0 DUP1 REVERT JUMPDEST PUSH1 0x0 CALLDATALOAD PUSH1 0xE0 SHR DUP1 PUSH4 0x6FDDE03 EQ PUSH2 0x1780 JUMPI DUP1 PUSH4 0x11475B2A EQ PUSH2 0x173F JUMPI DUP1 PUSH4 0x1BE19560 EQ PUSH2 0x16CC JUMPI DUP1 PUSH4 0x1F700DCD EQ PUSH2 0x165E JUMPI DUP1 PUSH4 0x20750215 EQ PUSH2 0x1622 JUMPI DUP1 PUSH4 0x2C0DA13D EQ PUSH2 0x15C0 JUMPI DUP1 PUSH4 0x2C3DE320 EQ PUSH2 0x14F1 JUMPI DUP1 PUSH4 0x4BB2BFA3 EQ PUSH2 0x12D8 JUMPI DUP1 PUSH4 0x5FA9D9B0 EQ PUSH2 0x129C JUMPI DUP1 PUSH4 0x85F80F07 EQ PUSH2 0x122E JUMPI DUP1 PUSH4 0x941177A5 EQ PUSH2 0x1158 JUMPI DUP1 PUSH4 0x94BBF438 EQ PUSH2 0x10FC JUMPI DUP1 PUSH4 0x97F4E01B EQ PUSH2 0xF81 JUMPI DUP1 PUSH4 0xA62DF98D EQ PUSH2 0x46E JUMPI DUP1 PUSH4 0xA7BA8A39 EQ PUSH2 0x3D7 JUMPI DUP1 PUSH4 0xB5B946E3 EQ PUSH2 0x39B JUMPI DUP1 PUSH4 0xB7218B37 EQ PUSH2 0x35F JUMPI DUP1 PUSH4 0xBA3F30C6 EQ PUSH2 0x2F2 JUMPI DUP1 PUSH4 0xBDCB9932 EQ PUSH2 0x2A5 JUMPI DUP1 PUSH4 0xC73EF9E8 EQ PUSH2 0x236 JUMPI DUP1 PUSH4 0xD5D4F0E1 EQ PUSH2 0x1FC JUMPI DUP1 PUSH4 0xE1758BD8 EQ PUSH2 0x18D JUMPI PUSH4 0xE8A24E1D EQ PUSH2 0x119 JUMPI PUSH1 0x0 DUP1 REVERT JUMPDEST CALLVALUE PUSH2 0x188 JUMPI PUSH1 0x0 PUSH32 0xFFFFFFFFFFFFFFFFFFFFFFFFFFFFFFFFFFFFFFFFFFFFFFFFFFFFFFFFFFFFFFFC CALLDATASIZE ADD SLT PUSH2 0x188 JUMPI PUSH1 0x20 PUSH1 0x40 MLOAD PUSH20 0xFFFFFFFFFFFFFFFFFFFFFFFFFFFFFFFFFFFFFFFF PUSH32 0x0 AND DUP2 MSTORE RETURN JUMPDEST PUSH1 0x0 DUP1 REVERT JUMPDEST CALLVALUE PUSH2 0x188 JUMPI PUSH1 0x0 PUSH32 0xFFFFFFFFFFFFFFFFFFFFFFFFFFFFFFFFFFFFFFFFFFFFFFFFFFFFFFFFFFFFFFFC CALLDATASIZE ADD SLT PUSH2 0x188 JUMPI PUSH1 0x20 PUSH1 0x40 MLOAD PUSH20 0xFFFFFFFFFFFFFFFFFFFFFFFFFFFFFFFFFFFFFFFF PUSH32 0x0 AND DUP2 MSTORE RETURN JUMPDEST CALLVALUE PUSH2 0x188 JUMPI PUSH1 0x0 PUSH32 0xFFFFFFFFFFFFFFFFFFFFFFFFFFFFFFFFFFFFFFFFFFFFFFFFFFFFFFFFFFFFFFFC CALLDATASIZE ADD SLT PUSH2 0x188 JUMPI PUSH1 0x20 PUSH1 0x40 MLOAD PUSH1 0x0 DUP2 MSTORE RETURN JUMPDEST CALLVALUE PUSH2 0x188 JUMPI PUSH1 0x0 PUSH32 0xFFFFFFFFFFFFFFFFFFFFFFFFFFFFFFFFFFFFFFFFFFFFFFFFFFFFFFFFFFFFFFFC CALLDATASIZE ADD SLT PUSH2 0x188 JUMPI PUSH1 0x20 PUSH1 0x40 MLOAD PUSH20 0xFFFFFFFFFFFFFFFFFFFFFFFFFFFFFFFFFFFFFFFF PUSH32 0x0 AND DUP2 MSTORE RETURN JUMPDEST CALLVALUE PUSH2 0x188 JUMPI PUSH1 0x0 PUSH32 0xFFFFFFFFFFFFFFFFFFFFFFFFFFFFFFFFFFFFFFFFFFFFFFFFFFFFFFFFFFFFFFFC CALLDATASIZE ADD SLT PUSH2 0x188 JUMPI PUSH1 0x20 PUSH1 0x40 MLOAD PUSH20 0x1111111254EEB25477B68FB85ED929F73A960582 DUP2 MSTORE RETURN JUMPDEST CALLVALUE PUSH2 0x188 JUMPI PUSH1 0x20 PUSH32 0xFFFFFFFFFFFFFFFFFFFFFFFFFFFFFFFFFFFFFFFFFFFFFFFFFFFFFFFFFFFFFFFC CALLDATASIZE ADD SLT PUSH2 0x188 JUMPI PUSH1 0x20 PUSH2 0x357 PUSH20 0xFFFFFFFFFFFFFFFFFFFFFFFFFFFFFFFFFFFFFFFF PUSH2 0x348 PUSH1 0x4 CALLDATALOAD PUSH1 0x3 PUSH2 0x1930 JUMP JUMPDEST SWAP1 SLOAD SWAP1 PUSH1 0x3 SHL SHR AND ADDRESS SWAP1 PUSH2 0x1E27 JUMP JUMPDEST PUSH1 0x40 MLOAD SWAP1 DUP2 MSTORE RETURN JUMPDEST CALLVALUE PUSH2 0x188 JUMPI PUSH1 0x0 PUSH32 0xFFFFFFFFFFFFFFFFFFFFFFFFFFFFFFFFFFFFFFFFFFFFFFFFFFFFFFFFFFFFFFFC CALLDATASIZE ADD SLT PUSH2 0x188 JUMPI PUSH1 0x20 PUSH1 0x4 SLOAD PUSH1 0x40 MLOAD SWAP1 DUP2 MSTORE RETURN JUMPDEST CALLVALUE PUSH2 0x188 JUMPI PUSH1 0x0 PUSH32 0xFFFFFFFFFFFFFFFFFFFFFFFFFFFFFFFFFFFFFFFFFFFFFFFFFFFFFFFFFFFFFFFC CALLDATASIZE ADD SLT PUSH2 0x188 JUMPI PUSH1 0x20 PUSH1 0x5 SLOAD PUSH1 0x40 MLOAD SWAP1 DUP2 MSTORE RETURN JUMPDEST CALLVALUE PUSH2 0x188 JUMPI PUSH1 0x20 PUSH32 0xFFFFFFFFFFFFFFFFFFFFFFFFFFFFFFFFFFFFFFFFFFFFFFFFFFFFFFFFFFFFFFFC CALLDATASIZE ADD SLT PUSH2 0x188 JUMPI PUSH1 0x4 CALLDATALOAD PUSH20 0xFFFFFFFFFFFFFFFFFFFFFFFFFFFFFFFFFFFFFFFF SWAP1 DUP2 DUP2 AND DUP1 SWAP2 SUB PUSH2 0x188 JUMPI PUSH1 0x0 SWAP1 DUP2 MSTORE PUSH1 0x1 PUSH1 0x20 DUP2 DUP2 MSTORE PUSH1 0x40 SWAP3 DUP4 SWAP1 KECCAK256 DUP1 SLOAD SWAP3 ADD SLOAD DUP4 MLOAD PUSH20 0xFFFFFFFFFFFFFFFFFFFFFFFFFFFFFFFFFFFFFFFF SWAP4 DUP7 AND DUP5 AND DUP2 MSTORE SWAP5 AND SWAP1 SWAP2 AND SWAP1 DUP4 ADD MSTORE SWAP1 RETURN JUMPDEST SUB SWAP1 RETURN JUMPDEST CALLVALUE PUSH2 0x188 JUMPI PUSH1 0x40 PUSH32 0xFFFFFFFFFFFFFFFFFFFFFFFFFFFFFFFFFFFFFFFFFFFFFFFFFFFFFFFFFFFFFFFC CALLDATASIZE ADD SLT PUSH2 0x188 JUMPI PUSH1 0x4 CALLDATALOAD PUSH20 0xFFFFFFFFFFFFFFFFFFFFFFFFFFFFFFFFFFFFFFFF DUP2 AND DUP2 SUB PUSH2 0x188 JUMPI PUSH8 0xFFFFFFFFFFFFFFFF PUSH1 0x24 CALLDATALOAD GT PUSH2 0x188 JUMPI CALLDATASIZE PUSH1 0x23 PUSH1 0x24 CALLDATALOAD ADD SLT ISZERO PUSH2 0x188 JUMPI PUSH8 0xFFFFFFFFFFFFFFFF PUSH1 0x24 CALLDATALOAD PUSH1 0x4 ADD CALLDATALOAD GT PUSH2 0x188 JUMPI CALLDATASIZE PUSH1 0x24 DUP1 CALLDATALOAD PUSH1 0x4 ADD CALLDATALOAD PUSH1 0x5 SHL DUP2 CALLDATALOAD ADD ADD GT PUSH2 0x188 JUMPI PUSH1 0x0 SWAP1 PUSH20 0xFFFFFFFFFFFFFFFFFFFFFFFFFFFFFFFFFFFFFFFF DUP2 AND PUSH1 0x0 MSTORE PUSH1 0x1 PUSH1 0x20 MSTORE PUSH1 0x40 PUSH1 0x0 KECCAK256 PUSH1 0x40 MLOAD SWAP1 PUSH2 0x53B PUSH1 0x40 DUP4 PUSH2 0x1807 JUMP JUMPDEST PUSH20 0xFFFFFFFFFFFFFFFFFFFFFFFFFFFFFFFFFFFFFFFF PUSH1 0x1 DUP2 DUP4 SLOAD AND SWAP3 DUP4 DUP6 MSTORE ADD SLOAD AND PUSH1 0x20 DUP4 ADD MSTORE ISZERO PUSH2 0xF51 JUMPI PUSH1 0x40 MLOAD SWAP2 PUSH32 0x572B0CC00000000000000000000000000000000000000000000000000000000 DUP4 MSTORE PUSH1 0x0 DUP4 PUSH1 0x4 DUP2 DUP4 PUSH20 0xFFFFFFFFFFFFFFFFFFFFFFFFFFFFFFFFFFFFFFFF DUP7 AND GAS CALL SWAP1 DUP2 ISZERO PUSH2 0xBB5 JUMPI PUSH1 0x0 SWAP4 PUSH1 0x0 SWAP3 PUSH2 0xE0C JUMPI JUMPDEST POP PUSH1 0x0 JUMPDEST DUP5 MLOAD DUP2 LT ISZERO PUSH2 0xCFA JUMPI PUSH2 0x5D7 DUP2 DUP5 PUSH2 0x1981 JUMP JUMPDEST MLOAD PUSH2 0x5E5 JUMPI JUMPDEST PUSH1 0x1 ADD PUSH2 0x5C4 JUMP JUMPDEST SWAP5 PUSH20 0xFFFFFFFFFFFFFFFFFFFFFFFFFFFFFFFFFFFFFFFF PUSH2 0x605 DUP8 DUP8 PUSH2 0x1981 JUMP JUMPDEST MLOAD AND PUSH1 0x0 PUSH1 0x20 DUP2 PUSH1 0x64 PUSH2 0x618 DUP12 DUP10 PUSH2 0x1981 JUMP JUMPDEST MLOAD SWAP5 PUSH1 0x40 MLOAD SWAP6 PUSH1 0x60 MSTORE ADDRESS PUSH1 0x40 MSTORE CALLER PUSH1 0x60 SHL PUSH1 0x2C MSTORE PUSH16 0x23B872DD000000000000000000000000 PUSH1 0xC MSTORE PUSH1 0x1C SWAP5 DUP6 SWAP2 GAS CALL RETURNDATASIZE ISZERO PUSH1 0x1 PUSH1 0x0 MLOAD EQ OR AND ISZERO PUSH2 0xCED JUMPI POP PUSH1 0x0 PUSH1 0x60 MSTORE PUSH1 0x40 MSTORE PUSH20 0xFFFFFFFFFFFFFFFFFFFFFFFFFFFFFFFFFFFFFFFF PUSH2 0x67E DUP8 DUP8 PUSH2 0x1981 JUMP JUMPDEST MLOAD PUSH1 0x20 DUP7 ADD MLOAD PUSH20 0xFFFFFFFFFFFFFFFFFFFFFFFFFFFFFFFFFFFFFFFF AND SWAP2 AND EQ PUSH2 0xCD0 JUMPI PUSH1 0x24 CALLDATALOAD PUSH1 0x4 ADD CALLDATALOAD DUP7 LT ISZERO PUSH2 0xCA1 JUMPI PUSH32 0xFFFFFFFFFFFFFFFFFFFFFFFFFFFFFFFFFFFFFFFFFFFFFFFFFFFFFFFFFFFFFFBD PUSH1 0x24 CALLDATALOAD CALLDATASIZE SUB ADD PUSH1 0x24 DUP8 PUSH1 0x5 SHL DUP2 CALLDATALOAD ADD ADD CALLDATALOAD SLT ISZERO PUSH2 0x188 JUMPI PUSH8 0xFFFFFFFFFFFFFFFF PUSH1 0x24 DUP1 DUP9 PUSH1 0x5 SHL DUP2 CALLDATALOAD ADD ADD CALLDATALOAD DUP2 CALLDATALOAD ADD ADD CALLDATALOAD GT PUSH2 0x188 JUMPI PUSH1 0x24 DUP1 CALLDATALOAD PUSH1 0x5 DUP9 SWAP1 SHL DUP2 ADD DUP3 ADD CALLDATALOAD ADD SWAP1 DUP2 ADD CALLDATALOAD CALLDATASIZE SUB PUSH1 0x44 SWAP1 SWAP2 ADD SGT PUSH2 0x188 JUMPI PUSH20 0xFFFFFFFFFFFFFFFFFFFFFFFFFFFFFFFFFFFFFFFF PUSH2 0x744 DUP8 DUP8 PUSH2 0x1981 JUMP JUMPDEST MLOAD AND PUSH20 0xFFFFFFFFFFFFFFFFFFFFFFFFFFFFFFFFFFFFFFFF PUSH1 0x20 DUP7 ADD MLOAD AND PUSH2 0x76B DUP9 DUP7 PUSH2 0x1981 JUMP JUMPDEST MLOAD PUSH1 0x24 DUP1 CALLDATALOAD PUSH1 0x5 DUP12 SWAP1 SHL DUP2 ADD DUP3 ADD CALLDATALOAD ADD SWAP1 DUP2 ADD CALLDATALOAD DUP2 ADD SUB SWAP2 PUSH2 0x140 DUP4 SLT PUSH2 0x188 JUMPI PUSH1 0xE0 PUSH32 0xFFFFFFFFFFFFFFFFFFFFFFFFFFFFFFFFFFFFFFFFFFFFFFFFFFFFFFFFFFFFFFE0 PUSH2 0x7C9 PUSH1 0x44 PUSH1 0x24 DUP15 PUSH1 0x5 SHL DUP2 CALLDATALOAD ADD ADD CALLDATALOAD PUSH1 0x24 CALLDATALOAD ADD ADD PUSH2 0x190F JUMP JUMPDEST SWAP5 ADD SLT PUSH2 0x188 JUMPI PUSH1 0x40 MLOAD SWAP4 PUSH2 0x7DF PUSH1 0xE0 DUP7 PUSH2 0x1807 JUMP JUMPDEST PUSH2 0x7F9 PUSH1 0x64 PUSH1 0x24 DUP14 PUSH1 0x5 SHL DUP2 CALLDATALOAD ADD ADD CALLDATALOAD PUSH1 0x24 CALLDATALOAD ADD ADD PUSH2 0x190F JUMP JUMPDEST DUP6 MSTORE PUSH2 0x815 PUSH1 0x84 PUSH1 0x24 DUP14 PUSH1 0x5 SHL DUP2 CALLDATALOAD ADD ADD CALLDATALOAD PUSH1 0x24 CALLDATALOAD ADD ADD PUSH2 0x190F JUMP JUMPDEST PUSH1 0x20 DUP7 ADD MSTORE PUSH2 0x834 PUSH1 0xA4 PUSH1 0x24 DUP14 PUSH1 0x5 SHL DUP2 CALLDATALOAD ADD ADD CALLDATALOAD PUSH1 0x24 CALLDATALOAD ADD ADD PUSH2 0x190F JUMP JUMPDEST PUSH1 0x40 DUP7 ADD MSTORE PUSH2 0x853 PUSH1 0xC4 PUSH1 0x24 DUP14 PUSH1 0x5 SHL DUP2 CALLDATALOAD ADD ADD CALLDATALOAD PUSH1 0x24 CALLDATALOAD ADD ADD PUSH2 0x190F JUMP JUMPDEST PUSH1 0x60 DUP7 ADD MSTORE PUSH1 0x24 DUP1 CALLDATALOAD PUSH1 0x5 DUP14 SWAP1 SHL DUP2 ADD SWAP1 SWAP2 ADD CALLDATALOAD ADD PUSH1 0xE4 DUP2 ADD CALLDATALOAD PUSH1 0x80 DUP8 ADD MSTORE PUSH2 0x104 DUP2 ADD CALLDATALOAD PUSH1 0xA0 DUP8 ADD MSTORE PUSH2 0x124 DUP2 ADD CALLDATALOAD PUSH1 0xC0 DUP8 ADD MSTORE PUSH8 0xFFFFFFFFFFFFFFFF PUSH2 0x144 SWAP1 SWAP2 ADD CALLDATALOAD GT PUSH2 0x188 JUMPI PUSH2 0x8C8 PUSH1 0x24 DUP1 CALLDATALOAD PUSH1 0x5 DUP15 SWAP1 SHL DUP2 ADD DUP3 ADD CALLDATALOAD ADD SWAP1 DUP2 ADD CALLDATALOAD DUP2 ADD PUSH1 0x44 SWAP1 DUP2 ADD SWAP2 PUSH2 0x144 DUP2 ADD CALLDATALOAD ADD ADD PUSH2 0x19D1 JUMP JUMPDEST POP PUSH8 0xFFFFFFFFFFFFFFFF PUSH2 0x164 PUSH1 0x24 DUP14 PUSH1 0x5 SHL DUP2 CALLDATALOAD ADD ADD CALLDATALOAD PUSH1 0x24 CALLDATALOAD ADD ADD CALLDATALOAD GT PUSH2 0x188 JUMPI PUSH2 0x916 PUSH1 0x24 DUP1 CALLDATALOAD PUSH1 0x5 DUP15 SWAP1 SHL DUP2 ADD DUP3 ADD CALLDATALOAD ADD SWAP1 DUP2 ADD CALLDATALOAD DUP2 ADD PUSH1 0x44 SWAP1 DUP2 ADD SWAP2 PUSH2 0x164 DUP2 ADD CALLDATALOAD ADD ADD PUSH2 0x19D1 JUMP JUMPDEST SWAP3 DUP1 PUSH1 0x80 DUP8 ADD MLOAD SUB PUSH2 0xC96 JUMPI JUMPDEST POP PUSH20 0xFFFFFFFFFFFFFFFFFFFFFFFFFFFFFFFFFFFFFFFF DUP6 MLOAD AND DUP2 DUP2 SUB PUSH2 0xC47 JUMPI POP POP PUSH20 0xFFFFFFFFFFFFFFFFFFFFFFFFFFFFFFFFFFFFFFFF PUSH1 0x20 DUP6 ADD MLOAD AND DUP2 DUP2 SUB PUSH2 0xBF8 JUMPI POP POP PUSH20 0xFFFFFFFFFFFFFFFFFFFFFFFFFFFFFFFFFFFFFFFF PUSH1 0x60 DUP5 ADD MLOAD AND PUSH20 0xFFFFFFFFFFFFFFFFFFFFFFFFFFFFFFFFFFFFFFFF DUP7 AND DUP2 SUB PUSH2 0xBC1 JUMPI POP PUSH1 0x40 SWAP2 PUSH2 0xB42 PUSH20 0xFFFFFFFFFFFFFFFFFFFFFFFFFFFFFFFFFFFFFFFF SWAP3 PUSH2 0x9E5 DUP5 DUP8 MLOAD AND PUSH20 0x1111111254EEB25477B68FB85ED929F73A960582 PUSH1 0x80 DUP10 ADD MLOAD SWAP2 PUSH2 0x1A18 JUMP JUMPDEST PUSH2 0xB11 PUSH2 0x9F2 PUSH1 0x0 PUSH2 0x1877 JUMP JUMPDEST PUSH2 0x9FE DUP8 MLOAD SWAP2 DUP3 PUSH2 0x1807 JUMP JUMPDEST PUSH1 0x0 DUP2 MSTORE PUSH32 0xFFFFFFFFFFFFFFFFFFFFFFFFFFFFFFFFFFFFFFFFFFFFFFFFFFFFFFFFFFFFFFE0 PUSH2 0xA2D PUSH1 0x0 PUSH2 0x1877 JUMP JUMPDEST ADD CALLDATASIZE PUSH1 0x20 DUP4 ADD CALLDATACOPY PUSH1 0xC0 DUP8 MLOAD SWAP9 DUP10 SWAP8 DUP9 SWAP8 PUSH32 0x12AA3CAF00000000000000000000000000000000000000000000000000000000 DUP10 MSTORE AND PUSH1 0x4 DUP9 ADD MSTORE PUSH20 0xFFFFFFFFFFFFFFFFFFFFFFFFFFFFFFFFFFFFFFFF DUP2 MLOAD AND PUSH1 0x24 DUP9 ADD MSTORE PUSH20 0xFFFFFFFFFFFFFFFFFFFFFFFFFFFFFFFFFFFFFFFF PUSH1 0x20 DUP3 ADD MLOAD AND PUSH1 0x44 DUP9 ADD MSTORE PUSH20 0xFFFFFFFFFFFFFFFFFFFFFFFFFFFFFFFFFFFFFFFF DUP10 DUP3 ADD MLOAD AND PUSH1 0x64 DUP9 ADD MSTORE PUSH20 0xFFFFFFFFFFFFFFFFFFFFFFFFFFFFFFFFFFFFFFFF PUSH1 0x60 DUP3 ADD MLOAD AND PUSH1 0x84 DUP9 ADD MSTORE PUSH1 0x80 DUP2 ADD MLOAD PUSH1 0xA4 DUP9 ADD MSTORE PUSH1 0xA0 DUP2 ADD MLOAD PUSH1 0xC4 DUP9 ADD MSTORE ADD MLOAD PUSH1 0xE4 DUP7 ADD MSTORE PUSH2 0x140 PUSH2 0x104 DUP7 ADD MSTORE PUSH2 0x144 DUP6 ADD SWAP1 PUSH2 0x18B1 JUMP JUMPDEST SWAP1 PUSH32 0xFFFFFFFFFFFFFFFFFFFFFFFFFFFFFFFFFFFFFFFFFFFFFFFFFFFFFFFFFFFFFFFC DUP5 DUP4 SUB ADD PUSH2 0x124 DUP6 ADD MSTORE PUSH2 0x18B1 JUMP JUMPDEST SUB DUP2 PUSH1 0x0 PUSH20 0x1111111254EEB25477B68FB85ED929F73A960582 GAS CALL SWAP1 DUP2 ISZERO PUSH2 0xBB5 JUMPI PUSH1 0x0 SWAP2 PUSH2 0xB82 JUMPI JUMPDEST POP PUSH2 0xB79 SWAP1 PUSH1 0x1 SWAP3 PUSH2 0x1995 JUMP JUMPDEST SWAP6 JUMPDEST SWAP1 POP PUSH2 0x5DD JUMP JUMPDEST SWAP1 POP PUSH1 0x40 DUP2 RETURNDATASIZE PUSH1 0x40 GT PUSH2 0xBAD JUMPI JUMPDEST DUP2 PUSH2 0xB9D PUSH1 0x40 SWAP4 DUP4 PUSH2 0x1807 JUMP JUMPDEST DUP2 ADD SUB SLT PUSH2 0x188 JUMPI MLOAD PUSH1 0x1 PUSH2 0xB6C JUMP JUMPDEST RETURNDATASIZE SWAP2 POP PUSH2 0xB90 JUMP JUMPDEST PUSH1 0x40 MLOAD RETURNDATASIZE PUSH1 0x0 DUP3 RETURNDATACOPY RETURNDATASIZE SWAP1 REVERT JUMPDEST PUSH1 0x44 SWAP1 PUSH1 0x40 MLOAD SWAP1 PUSH32 0x3918A0300000000000000000000000000000000000000000000000000000000 DUP3 MSTORE PUSH1 0x4 DUP3 ADD MSTORE CALLER PUSH1 0x24 DUP3 ADD MSTORE REVERT JUMPDEST PUSH1 0x40 MLOAD PUSH32 0x74924CB200000000000000000000000000000000000000000000000000000000 DUP2 MSTORE PUSH20 0xFFFFFFFFFFFFFFFFFFFFFFFFFFFFFFFFFFFFFFFF SWAP2 DUP3 AND PUSH1 0x4 DUP3 ADD MSTORE SWAP2 AND PUSH1 0x24 DUP3 ADD MSTORE PUSH1 0x44 SWAP1 REVERT JUMPDEST PUSH1 0x40 MLOAD PUSH32 0xBF3A09E600000000000000000000000000000000000000000000000000000000 DUP2 MSTORE PUSH20 0xFFFFFFFFFFFFFFFFFFFFFFFFFFFFFFFFFFFFFFFF SWAP2 DUP3 AND PUSH1 0x4 DUP3 ADD MSTORE SWAP2 AND PUSH1 0x24 DUP3 ADD MSTORE PUSH1 0x44 SWAP1 REVERT JUMPDEST PUSH1 0x80 DUP7 ADD MSTORE DUP12 PUSH2 0x923 JUMP JUMPDEST PUSH32 0x4E487B7100000000000000000000000000000000000000000000000000000000 PUSH1 0x0 MSTORE PUSH1 0x32 PUSH1 0x4 MSTORE PUSH1 0x24 PUSH1 0x0 REVERT JUMPDEST PUSH2 0xCE7 PUSH1 0x1 SWAP2 PUSH2 0xCE0 DUP9 DUP7 PUSH2 0x1981 JUMP JUMPDEST MLOAD SWAP1 PUSH2 0x1995 JUMP JUMPDEST SWAP6 PUSH2 0xB7B JUMP JUMPDEST PUSH1 0x4 SWAP1 PUSH4 0x7939F424 PUSH1 0x0 MSTORE REVERT JUMPDEST POP DUP5 DUP1 ISZERO PUSH2 0xDE2 JUMPI PUSH1 0x4 SLOAD DUP1 PUSH32 0xFFFFFFFFFFFFFFFFFFFFFFFFFFFFFFFFFFFFFFFFFFFFFFFFFFFFFFFFFFFFFFFF DIV DUP3 GT DUP2 MUL PUSH2 0xDD4 JUMPI PUSH8 0xDE0B6B3A7640000 SWAP1 DUP3 MUL DIV SWAP1 SUB PUSH20 0xFFFFFFFFFFFFFFFFFFFFFFFFFFFFFFFFFFFFFFFF DUP3 AND EXTCODESIZE ISZERO PUSH2 0x188 JUMPI PUSH1 0x0 PUSH20 0xFFFFFFFFFFFFFFFFFFFFFFFFFFFFFFFFFFFFFFFF PUSH1 0x24 DUP3 SWAP5 PUSH1 0x40 MLOAD SWAP6 DUP7 SWAP4 DUP5 SWAP3 PUSH32 0x81F5B6F400000000000000000000000000000000000000000000000000000000 DUP5 MSTORE DUP8 PUSH1 0x4 DUP6 ADD MSTORE AND GAS CALL SWAP2 DUP3 ISZERO PUSH2 0xBB5 JUMPI PUSH1 0x20 SWAP3 PUSH2 0xDC3 JUMPI JUMPDEST POP PUSH1 0x40 MLOAD SWAP1 DUP2 MSTORE RETURN JUMPDEST PUSH1 0x0 PUSH2 0xDCE SWAP2 PUSH2 0x1807 JUMP JUMPDEST DUP3 PUSH2 0xDBA JUMP JUMPDEST PUSH4 0xBAC65E5B PUSH1 0x0 MSTORE PUSH1 0x4 PUSH1 0x1C REVERT JUMPDEST PUSH1 0x4 PUSH1 0x40 MLOAD PUSH32 0x496EE71B00000000000000000000000000000000000000000000000000000000 DUP2 MSTORE REVERT JUMPDEST SWAP4 POP SWAP1 POP RETURNDATASIZE DUP1 PUSH1 0x0 DUP6 RETURNDATACOPY PUSH2 0xE20 DUP2 DUP6 PUSH2 0x1807 JUMP JUMPDEST PUSH1 0x40 DUP5 DUP3 DUP2 ADD SUB SLT PUSH2 0x188 JUMPI DUP4 MLOAD SWAP1 PUSH8 0xFFFFFFFFFFFFFFFF DUP3 GT PUSH2 0x188 JUMPI DUP1 DUP6 ADD PUSH1 0x1F DUP4 DUP8 ADD ADD SLT ISZERO PUSH2 0x188 JUMPI DUP2 DUP6 ADD MLOAD PUSH2 0xE5A DUP2 PUSH2 0x1948 JUMP JUMPDEST SWAP3 PUSH2 0xE68 PUSH1 0x40 MLOAD SWAP5 DUP6 PUSH2 0x1807 JUMP JUMPDEST DUP2 DUP5 MSTORE PUSH1 0x20 DUP5 ADD SWAP1 DUP4 DUP9 ADD PUSH1 0x20 DUP5 PUSH1 0x5 SHL DUP4 DUP12 ADD ADD ADD GT PUSH2 0x188 JUMPI SWAP1 PUSH1 0x20 DUP3 DUP10 ADD ADD SWAP2 JUMPDEST PUSH1 0x20 DUP5 PUSH1 0x5 SHL DUP3 DUP12 ADD ADD ADD DUP4 LT PUSH2 0xF36 JUMPI POP POP POP POP PUSH1 0x20 DUP6 ADD MLOAD SWAP1 PUSH8 0xFFFFFFFFFFFFFFFF DUP3 GT PUSH2 0x188 JUMPI DUP1 DUP7 ADD PUSH1 0x1F DUP4 DUP9 ADD ADD SLT ISZERO PUSH2 0x188 JUMPI DUP2 DUP7 ADD MLOAD SWAP2 PUSH2 0xED3 DUP4 PUSH2 0x1948 JUMP JUMPDEST SWAP7 PUSH2 0xEE1 PUSH1 0x40 MLOAD SWAP9 DUP10 PUSH2 0x1807 JUMP JUMPDEST DUP4 DUP9 MSTORE PUSH1 0x20 DUP9 ADD SWAP3 DUP2 ADD PUSH1 0x20 DUP6 PUSH1 0x5 SHL DUP5 DUP5 ADD ADD ADD GT PUSH2 0x188 JUMPI DUP1 DUP3 ADD PUSH1 0x20 ADD SWAP3 SWAP2 JUMPDEST PUSH1 0x20 DUP6 PUSH1 0x5 SHL DUP3 DUP5 ADD ADD ADD DUP5 LT PUSH2 0xF22 JUMPI POP POP POP POP POP SWAP3 SWAP1 DUP6 PUSH2 0x5C0 JUMP JUMPDEST PUSH1 0x20 DUP1 DUP1 SWAP5 DUP7 MLOAD DUP2 MSTORE ADD SWAP5 ADD SWAP4 SWAP3 POP PUSH2 0xF04 JUMP JUMPDEST PUSH1 0x20 DUP1 DUP1 SWAP4 PUSH2 0xF44 DUP7 PUSH2 0x1960 JUMP JUMPDEST DUP2 MSTORE ADD SWAP4 ADD SWAP3 SWAP2 POP PUSH2 0xE8C JUMP JUMPDEST PUSH1 0x24 PUSH1 0x40 MLOAD PUSH32 0xCE9B924B00000000000000000000000000000000000000000000000000000000 DUP2 MSTORE CALLER PUSH1 0x4 DUP3 ADD MSTORE REVERT JUMPDEST CALLVALUE PUSH2 0x188 JUMPI PUSH1 0x0 PUSH32 0xFFFFFFFFFFFFFFFFFFFFFFFFFFFFFFFFFFFFFFFFFFFFFFFFFFFFFFFFFFFFFFFC CALLDATASIZE ADD SLT PUSH2 0x188 JUMPI PUSH1 0x0 SLOAD PUSH1 0xFF DUP2 AND ISZERO PUSH2 0x10D2 JUMPI PUSH32 0xFFFFFFFFFFFFFFFFFFFFFFFFFFFFFFFFFFFFFFFFFFFFFFFFFFFFFFFFFFFFFF00 DUP1 SWAP2 AND PUSH1 0x0 SSTORE PUSH2 0xFED PUSH1 0x3 PUSH2 0x1B40 JUMP JUMPDEST SWAP1 PUSH1 0x0 SWAP2 PUSH1 0x0 JUMPDEST DUP2 MLOAD DUP2 LT ISZERO PUSH2 0x1087 JUMPI PUSH20 0xFFFFFFFFFFFFFFFFFFFFFFFFFFFFFFFFFFFFFFFF PUSH2 0x1028 ADDRESS DUP3 PUSH2 0x1021 DUP6 DUP8 PUSH2 0x1981 JUMP JUMPDEST MLOAD AND PUSH2 0x1E27 JUMP JUMPDEST SWAP1 DUP2 PUSH2 0x103F JUMPI JUMPDEST POP POP PUSH2 0x103A SWAP1 PUSH2 0x1BA7 JUMP JUMPDEST PUSH2 0xFF4 JUMP JUMPDEST SWAP5 PUSH2 0x107E PUSH1 0x1 SWAP3 DUP5 SWAP8 PUSH2 0x1055 PUSH2 0x103A SWAP7 DUP9 PUSH2 0x1981 JUMP JUMPDEST MLOAD AND PUSH32 0x0 SWAP1 PUSH2 0x1DDE JUMP JUMPDEST ADD SWAP4 SWAP1 DUP6 PUSH2 0x102F JUMP JUMPDEST PUSH1 0x1 DUP4 PUSH32 0x16A9FD824A632BA02AF308C1F7597F156FA9EC25B50BF207E0C0C34D28D27AB6 PUSH1 0x60 DUP8 TIMESTAMP PUSH1 0x5 SSTORE PUSH1 0x40 MLOAD SWAP1 TIMESTAMP DUP3 MSTORE CALLER PUSH1 0x20 DUP4 ADD MSTORE PUSH1 0x40 DUP3 ADD MSTORE LOG1 PUSH1 0x0 SLOAD AND OR PUSH1 0x0 SSTORE PUSH1 0x0 DUP1 RETURN JUMPDEST PUSH1 0x4 PUSH1 0x40 MLOAD PUSH32 0x37ED32E800000000000000000000000000000000000000000000000000000000 DUP2 MSTORE REVERT JUMPDEST CALLVALUE PUSH2 0x188 JUMPI PUSH1 0x20 PUSH32 0xFFFFFFFFFFFFFFFFFFFFFFFFFFFFFFFFFFFFFFFFFFFFFFFFFFFFFFFFFFFFFFFC CALLDATASIZE ADD SLT PUSH2 0x188 JUMPI PUSH1 0x4 CALLDATALOAD PUSH20 0xFFFFFFFFFFFFFFFFFFFFFFFFFFFFFFFFFFFFFFFF DUP2 AND DUP2 SUB PUSH2 0x188 JUMPI PUSH2 0x357 PUSH1 0x20 SWAP2 ADDRESS SWAP1 PUSH2 0x1E27 JUMP JUMPDEST CALLVALUE PUSH2 0x188 JUMPI PUSH1 0x20 PUSH32 0xFFFFFFFFFFFFFFFFFFFFFFFFFFFFFFFFFFFFFFFFFFFFFFFFFFFFFFFFFFFFFFFC CALLDATASIZE ADD SLT PUSH2 0x188 JUMPI PUSH1 0x4 CALLDATALOAD PUSH20 0xFFFFFFFFFFFFFFFFFFFFFFFFFFFFFFFFFFFFFFFF DUP2 AND DUP2 SUB PUSH2 0x188 JUMPI PUSH2 0x11AF PUSH2 0x1C27 JUMP JUMPDEST PUSH2 0x11B9 ADDRESS DUP3 PUSH2 0x1E27 JUMP JUMPDEST DUP1 PUSH2 0x11FC JUMPI JUMPDEST TIMESTAMP PUSH1 0x5 SSTORE PUSH32 0x16A9FD824A632BA02AF308C1F7597F156FA9EC25B50BF207E0C0C34D28D27AB6 PUSH1 0x60 PUSH1 0x40 MLOAD TIMESTAMP DUP2 MSTORE CALLER PUSH1 0x20 DUP3 ADD MSTORE PUSH1 0x1 PUSH1 0x40 DUP3 ADD MSTORE LOG1 STOP JUMPDEST PUSH2 0x1227 SWAP2 PUSH32 0x0 SWAP1 PUSH2 0x1DDE JUMP JUMPDEST DUP1 DUP1 PUSH2 0x11BF JUMP JUMPDEST CALLVALUE PUSH2 0x188 JUMPI PUSH1 0x20 PUSH32 0xFFFFFFFFFFFFFFFFFFFFFFFFFFFFFFFFFFFFFFFFFFFFFFFFFFFFFFFFFFFFFFFC CALLDATASIZE ADD SLT PUSH2 0x188 JUMPI PUSH1 0x4 CALLDATALOAD PUSH1 0x2 SLOAD DUP2 LT ISZERO PUSH2 0x188 JUMPI PUSH20 0xFFFFFFFFFFFFFFFFFFFFFFFFFFFFFFFFFFFFFFFF PUSH2 0x128C PUSH1 0x20 SWAP3 PUSH1 0x2 PUSH2 0x1930 JUMP JUMPDEST SWAP2 SWAP1 SLOAD PUSH1 0x40 MLOAD SWAP3 PUSH1 0x3 SHL SHR AND DUP2 MSTORE RETURN JUMPDEST CALLVALUE PUSH2 0x188 JUMPI PUSH1 0x0 PUSH32 0xFFFFFFFFFFFFFFFFFFFFFFFFFFFFFFFFFFFFFFFFFFFFFFFFFFFFFFFFFFFFFFFC CALLDATASIZE ADD SLT PUSH2 0x188 JUMPI PUSH1 0x20 PUSH1 0x2 SLOAD PUSH1 0x40 MLOAD SWAP1 DUP2 MSTORE RETURN JUMPDEST CALLVALUE PUSH2 0x188 JUMPI PUSH1 0x20 DUP1 PUSH32 0xFFFFFFFFFFFFFFFFFFFFFFFFFFFFFFFFFFFFFFFFFFFFFFFFFFFFFFFFFFFFFFFC CALLDATASIZE ADD SLT PUSH2 0x188 JUMPI PUSH1 0x4 CALLDATALOAD SWAP1 PUSH20 0xFFFFFFFFFFFFFFFFFFFFFFFFFFFFFFFFFFFFFFFF DUP1 DUP4 AND DUP1 DUP5 SUB PUSH2 0x188 JUMPI PUSH2 0x1333 PUSH2 0x1C27 JUMP JUMPDEST DUP1 PUSH1 0x0 MSTORE PUSH1 0x1 DUP4 MSTORE PUSH1 0x40 PUSH1 0x0 KECCAK256 PUSH1 0x40 MLOAD PUSH2 0x134E PUSH1 0x40 DUP3 PUSH2 0x1807 JUMP JUMPDEST DUP5 DUP5 PUSH1 0x1 DUP2 DUP6 SLOAD AND SWAP5 DUP6 DUP6 MSTORE ADD SLOAD AND SWAP2 ADD MSTORE PUSH2 0x14C0 JUMPI PUSH1 0x40 MLOAD SWAP3 PUSH32 0x6F307DC300000000000000000000000000000000000000000000000000000000 DUP5 MSTORE DUP1 DUP5 PUSH1 0x4 DUP2 DUP6 GAS STATICCALL SWAP3 DUP4 ISZERO PUSH2 0xBB5 JUMPI PUSH1 0x0 SWAP4 PUSH2 0x146A JUMPI JUMPDEST PUSH32 0xAABA566DAAC618884A3651A227AED179A85936588F933DE535762F4A9AAAE316 SWAP5 POP PUSH1 0x1 PUSH1 0x40 MLOAD SWAP3 PUSH2 0x13D6 PUSH1 0x40 DUP6 PUSH2 0x1807 JUMP JUMPDEST DUP3 DUP7 AND SWAP5 DUP6 DUP6 MSTORE DUP2 DUP6 ADD SWAP6 DUP7 MSTORE PUSH1 0x0 MSTORE MSTORE PUSH1 0x1 DUP2 PUSH1 0x40 PUSH1 0x0 KECCAK256 SWAP4 MLOAD AND SWAP3 PUSH32 0xFFFFFFFFFFFFFFFFFFFFFFFF0000000000000000000000000000000000000000 SWAP4 DUP5 DUP3 SLOAD AND OR DUP2 SSTORE ADD SWAP3 MLOAD AND SWAP1 DUP3 SLOAD AND OR SWAP1 SSTORE PUSH2 0x1430 DUP2 PUSH2 0x1D32 JUMP JUMPDEST PUSH2 0x143B DUP4 PUSH1 0x2 PUSH2 0x1BD4 JUMP JUMPDEST PUSH1 0x2 SLOAD PUSH1 0x40 DUP1 MLOAD PUSH20 0xFFFFFFFFFFFFFFFFFFFFFFFFFFFFFFFFFFFFFFFF SWAP6 DUP7 AND DUP2 MSTORE SWAP3 SWAP1 SWAP5 AND PUSH1 0x20 DUP4 ADD MSTORE SWAP3 SWAP1 LOG2 STOP JUMPDEST SWAP3 POP DUP1 DUP5 DUP2 RETURNDATASIZE DUP4 GT PUSH2 0x14B9 JUMPI JUMPDEST PUSH2 0x1481 DUP2 DUP4 PUSH2 0x1807 JUMP JUMPDEST DUP2 ADD SUB SLT PUSH2 0x188 JUMPI PUSH2 0x14B3 PUSH32 0xAABA566DAAC618884A3651A227AED179A85936588F933DE535762F4A9AAAE316 SWAP5 PUSH2 0x1960 JUMP JUMPDEST SWAP3 PUSH2 0x13A2 JUMP JUMPDEST POP RETURNDATASIZE PUSH2 0x1477 JUMP JUMPDEST PUSH1 0x24 SWAP1 PUSH1 0x40 MLOAD SWAP1 PUSH32 0x769200DD00000000000000000000000000000000000000000000000000000000 DUP3 MSTORE PUSH1 0x4 DUP3 ADD MSTORE REVERT JUMPDEST CALLVALUE PUSH2 0x188 JUMPI PUSH1 0x20 PUSH32 0xFFFFFFFFFFFFFFFFFFFFFFFFFFFFFFFFFFFFFFFFFFFFFFFFFFFFFFFFFFFFFFFC CALLDATASIZE ADD SLT PUSH2 0x188 JUMPI PUSH1 0x4 CALLDATALOAD PUSH2 0x152B PUSH2 0x1C27 JUMP JUMPDEST PUSH8 0xDE0B6B3A7640000 DUP1 DUP3 GT DUP1 ISZERO PUSH2 0x15B8 JUMPI JUMPDEST PUSH2 0x157B JUMPI POP DUP1 PUSH1 0x4 SSTORE PUSH1 0x40 MLOAD SWAP1 DUP1 DUP3 MSTORE PUSH1 0x20 DUP3 ADD MSTORE PUSH32 0xA1367AA3830E872CA7D226920B1BE2DCD9B6EBE0844A6F86C22D717A34B7EF02 PUSH1 0x40 CALLER SWAP3 LOG2 STOP JUMPDEST PUSH1 0x64 SWAP2 PUSH1 0x40 MLOAD SWAP2 PUSH32 0x2F753CF000000000000000000000000000000000000000000000000000000000 DUP4 MSTORE PUSH1 0x0 PUSH1 0x4 DUP5 ADD MSTORE PUSH1 0x24 DUP4 ADD MSTORE PUSH1 0x44 DUP3 ADD MSTORE REVERT JUMPDEST POP PUSH1 0x0 PUSH2 0x153E JUMP JUMPDEST CALLVALUE PUSH2 0x188 JUMPI PUSH1 0x20 PUSH32 0xFFFFFFFFFFFFFFFFFFFFFFFFFFFFFFFFFFFFFFFFFFFFFFFFFFFFFFFFFFFFFFFC CALLDATASIZE ADD SLT PUSH2 0x188 JUMPI PUSH1 0x4 CALLDATALOAD PUSH20 0xFFFFFFFFFFFFFFFFFFFFFFFFFFFFFFFFFFFFFFFF DUP2 AND DUP2 SUB PUSH2 0x188 JUMPI PUSH2 0x1620 SWAP1 PUSH2 0x161B PUSH2 0x1C27 JUMP JUMPDEST PUSH2 0x1D32 JUMP JUMPDEST STOP JUMPDEST CALLVALUE PUSH2 0x188 JUMPI PUSH1 0x0 PUSH32 0xFFFFFFFFFFFFFFFFFFFFFFFFFFFFFFFFFFFFFFFFFFFFFFFFFFFFFFFFFFFFFFFC CALLDATASIZE ADD SLT PUSH2 0x188 JUMPI PUSH1 0x20 PUSH1 0x3 SLOAD PUSH1 0x40 MLOAD SWAP1 DUP2 MSTORE RETURN JUMPDEST CALLVALUE PUSH2 0x188 JUMPI PUSH1 0x20 PUSH32 0xFFFFFFFFFFFFFFFFFFFFFFFFFFFFFFFFFFFFFFFFFFFFFFFFFFFFFFFFFFFFFFFC CALLDATASIZE ADD SLT PUSH2 0x188 JUMPI PUSH1 0x4 CALLDATALOAD PUSH1 0x3 SLOAD DUP2 LT ISZERO PUSH2 0x188 JUMPI PUSH20 0xFFFFFFFFFFFFFFFFFFFFFFFFFFFFFFFFFFFFFFFF PUSH2 0x16BC PUSH1 0x20 SWAP3 PUSH1 0x3 PUSH2 0x1930 JUMP JUMPDEST SWAP1 SLOAD SWAP1 PUSH1 0x3 SHL SHR AND PUSH1 0x40 MLOAD SWAP1 DUP2 MSTORE RETURN JUMPDEST CALLVALUE PUSH2 0x188 JUMPI PUSH1 0x20 PUSH32 0xFFFFFFFFFFFFFFFFFFFFFFFFFFFFFFFFFFFFFFFFFFFFFFFFFFFFFFFFFFFFFFFC CALLDATASIZE ADD SLT PUSH2 0x188 JUMPI PUSH1 0x4 CALLDATALOAD PUSH20 0xFFFFFFFFFFFFFFFFFFFFFFFFFFFFFFFFFFFFFFFF DUP2 AND DUP2 SUB PUSH2 0x188 JUMPI PUSH2 0x1723 PUSH2 0x1C27 JUMP JUMPDEST PUSH2 0x172D ADDRESS DUP3 PUSH2 0x1E27 JUMP JUMPDEST DUP1 PUSH2 0x1734 JUMPI STOP JUMPDEST PUSH2 0x1620 SWAP2 CALLER SWAP1 PUSH2 0x1DDE JUMP JUMPDEST CALLVALUE PUSH2 0x188 JUMPI PUSH1 0x0 PUSH32 0xFFFFFFFFFFFFFFFFFFFFFFFFFFFFFFFFFFFFFFFFFFFFFFFFFFFFFFFFFFFFFFFC CALLDATASIZE ADD SLT PUSH2 0x188 JUMPI PUSH1 0x20 PUSH1 0x40 MLOAD PUSH8 0xDE0B6B3A7640000 DUP2 MSTORE RETURN JUMPDEST CALLVALUE PUSH2 0x188 JUMPI PUSH1 0x0 PUSH32 0xFFFFFFFFFFFFFFFFFFFFFFFFFFFFFFFFFFFFFFFFFFFFFFFFFFFFFFFFFFFFFFFC CALLDATASIZE ADD SLT PUSH2 0x188 JUMPI PUSH2 0x46A PUSH2 0x17BC PUSH1 0x1F PUSH2 0x1877 JUMP JUMPDEST PUSH2 0x17C9 PUSH1 0x40 MLOAD SWAP2 DUP3 PUSH2 0x1807 JUMP JUMPDEST PUSH1 0x1F DUP2 MSTORE PUSH32 0x4379676E7573204861727665737465723A20536F6E6E65205265776172647300 PUSH1 0x20 DUP3 ADD MSTORE PUSH1 0x40 MLOAD SWAP2 DUP3 SWAP2 PUSH1 0x20 DUP4 MSTORE PUSH1 0x20 DUP4 ADD SWAP1 PUSH2 0x18B1 JUMP JUMPDEST SWAP1 PUSH1 0x1F PUSH32 0xFFFFFFFFFFFFFFFFFFFFFFFFFFFFFFFFFFFFFFFFFFFFFFFFFFFFFFFFFFFFFFE0 SWAP2 ADD AND DUP2 ADD SWAP1 DUP2 LT PUSH8 0xFFFFFFFFFFFFFFFF DUP3 GT OR PUSH2 0x1848 JUMPI PUSH1 0x40 MSTORE JUMP JUMPDEST PUSH32 0x4E487B7100000000000000000000000000000000000000000000000000000000 PUSH1 0x0 MSTORE PUSH1 0x41 PUSH1 0x4 MSTORE PUSH1 0x24 PUSH1 0x0 REVERT JUMPDEST PUSH8 0xFFFFFFFFFFFFFFFF DUP2 GT PUSH2 0x1848 JUMPI PUSH1 0x1F ADD PUSH32 0xFFFFFFFFFFFFFFFFFFFFFFFFFFFFFFFFFFFFFFFFFFFFFFFFFFFFFFFFFFFFFFE0 AND PUSH1 0x20 ADD SWAP1 JUMP JUMPDEST SWAP2 SWAP1 DUP3 MLOAD SWAP3 DUP4 DUP3 MSTORE PUSH1 0x0 JUMPDEST DUP5 DUP2 LT PUSH2 0x18FB JUMPI POP POP PUSH32 0xFFFFFFFFFFFFFFFFFFFFFFFFFFFFFFFFFFFFFFFFFFFFFFFFFFFFFFFFFFFFFFE0 PUSH1 0x1F DUP5 PUSH1 0x0 PUSH1 0x20 DUP1 SWAP7 SWAP8 DUP7 ADD ADD MSTORE ADD AND ADD ADD SWAP1 JUMP JUMPDEST PUSH1 0x20 DUP2 DUP4 ADD DUP2 ADD MLOAD DUP5 DUP4 ADD DUP3 ADD MSTORE ADD PUSH2 0x18BC JUMP JUMPDEST CALLDATALOAD SWAP1 PUSH20 0xFFFFFFFFFFFFFFFFFFFFFFFFFFFFFFFFFFFFFFFF DUP3 AND DUP3 SUB PUSH2 0x188 JUMPI JUMP JUMPDEST DUP1 SLOAD DUP3 LT ISZERO PUSH2 0xCA1 JUMPI PUSH1 0x0 MSTORE PUSH1 0x20 PUSH1 0x0 KECCAK256 ADD SWAP1 PUSH1 0x0 SWAP1 JUMP JUMPDEST PUSH8 0xFFFFFFFFFFFFFFFF DUP2 GT PUSH2 0x1848 JUMPI PUSH1 0x5 SHL PUSH1 0x20 ADD SWAP1 JUMP JUMPDEST MLOAD SWAP1 PUSH20 0xFFFFFFFFFFFFFFFFFFFFFFFFFFFFFFFFFFFFFFFF DUP3 AND DUP3 SUB PUSH2 0x188 JUMPI JUMP JUMPDEST DUP1 MLOAD DUP3 LT ISZERO PUSH2 0xCA1 JUMPI PUSH1 0x20 SWAP2 PUSH1 0x5 SHL ADD ADD SWAP1 JUMP JUMPDEST SWAP2 SWAP1 DUP3 ADD DUP1 SWAP3 GT PUSH2 0x19A2 JUMPI JUMP JUMPDEST PUSH32 0x4E487B7100000000000000000000000000000000000000000000000000000000 PUSH1 0x0 MSTORE PUSH1 0x11 PUSH1 0x4 MSTORE PUSH1 0x24 PUSH1 0x0 REVERT JUMPDEST DUP2 PUSH1 0x1F DUP3 ADD SLT ISZERO PUSH2 0x188 JUMPI DUP1 CALLDATALOAD SWAP1 PUSH2 0x19E8 DUP3 PUSH2 0x1877 JUMP JUMPDEST SWAP3 PUSH2 0x19F6 PUSH1 0x40 MLOAD SWAP5 DUP6 PUSH2 0x1807 JUMP JUMPDEST DUP3 DUP5 MSTORE PUSH1 0x20 DUP4 DUP4 ADD ADD GT PUSH2 0x188 JUMPI DUP2 PUSH1 0x0 SWAP3 PUSH1 0x20 DUP1 SWAP4 ADD DUP4 DUP7 ADD CALLDATACOPY DUP4 ADD ADD MSTORE SWAP1 JUMP JUMPDEST PUSH1 0x40 MLOAD PUSH32 0xDD62ED3E00000000000000000000000000000000000000000000000000000000 DUP2 MSTORE ADDRESS PUSH1 0x4 DUP3 ADD MSTORE PUSH20 0xFFFFFFFFFFFFFFFFFFFFFFFFFFFFFFFFFFFFFFFF DUP4 AND PUSH1 0x24 DUP3 ADD MSTORE SWAP2 SWAP3 SWAP1 SWAP2 PUSH1 0x20 DUP2 DUP1 PUSH1 0x44 DUP2 ADD SUB DUP2 PUSH20 0xFFFFFFFFFFFFFFFFFFFFFFFFFFFFFFFFFFFFFFFF DUP8 AND GAS STATICCALL SWAP1 DUP2 ISZERO PUSH2 0xBB5 JUMPI PUSH1 0x0 SWAP2 PUSH2 0x1B0C JUMPI JUMPDEST POP LT ISZERO PUSH2 0x1B08 JUMPI PUSH1 0x44 PUSH1 0x10 PUSH1 0x0 DUP1 SWAP4 PUSH1 0x20 SWAP6 PUSH1 0x14 MSTORE PUSH32 0xFFFFFFFFFFFFFFFFFFFFFFFFFFFFFFFFFFFFFFFFFFFFFFFFFFFFFFFFFFFFFFFF PUSH1 0x34 MSTORE PUSH16 0x95EA7B3000000000000000000000000 DUP3 MSTORE GAS CALL RETURNDATASIZE ISZERO PUSH1 0x1 PUSH1 0x0 MLOAD EQ OR AND ISZERO PUSH2 0x1AFA JUMPI PUSH1 0x0 PUSH1 0x34 MSTORE JUMP JUMPDEST PUSH4 0x3E3F8F73 PUSH1 0x0 MSTORE PUSH1 0x4 PUSH1 0x1C REVERT JUMPDEST POP POP JUMP JUMPDEST SWAP1 PUSH1 0x20 DUP3 RETURNDATASIZE DUP3 GT PUSH2 0x1B38 JUMPI JUMPDEST DUP2 PUSH2 0x1B25 PUSH1 0x20 SWAP4 DUP4 PUSH2 0x1807 JUMP JUMPDEST DUP2 ADD SUB SLT PUSH2 0x1B35 JUMPI POP MLOAD CODESIZE PUSH2 0x1A96 JUMP JUMPDEST DUP1 REVERT JUMPDEST RETURNDATASIZE SWAP2 POP PUSH2 0x1B18 JUMP JUMPDEST SWAP1 PUSH1 0x40 MLOAD SWAP2 DUP3 DUP2 SLOAD SWAP2 DUP3 DUP3 MSTORE PUSH1 0x20 SWAP3 DUP4 DUP4 ADD SWAP2 PUSH1 0x0 MSTORE DUP4 PUSH1 0x0 KECCAK256 SWAP4 PUSH1 0x0 SWAP1 JUMPDEST DUP3 DUP3 LT PUSH2 0x1B77 JUMPI POP POP POP PUSH2 0x1B75 SWAP3 POP SUB DUP4 PUSH2 0x1807 JUMP JUMPDEST JUMP JUMPDEST DUP6 SLOAD PUSH20 0xFFFFFFFFFFFFFFFFFFFFFFFFFFFFFFFFFFFFFFFF AND DUP5 MSTORE PUSH1 0x1 SWAP6 DUP7 ADD SWAP6 DUP9 SWAP6 POP SWAP4 DUP2 ADD SWAP4 SWAP1 SWAP2 ADD SWAP1 PUSH2 0x1B5F JUMP JUMPDEST PUSH32 0xFFFFFFFFFFFFFFFFFFFFFFFFFFFFFFFFFFFFFFFFFFFFFFFFFFFFFFFFFFFFFFFF DUP2 EQ PUSH2 0x19A2 JUMPI PUSH1 0x1 ADD SWAP1 JUMP JUMPDEST DUP1 SLOAD PUSH9 0x10000000000000000 DUP2 LT ISZERO PUSH2 0x1848 JUMPI PUSH2 0x1BF6 SWAP2 PUSH1 0x1 DUP3 ADD DUP2 SSTORE PUSH2 0x1930 JUMP JUMPDEST DUP2 SWAP3 SWAP2 SLOAD SWAP1 PUSH1 0x3 SHL SWAP2 PUSH20 0xFFFFFFFFFFFFFFFFFFFFFFFFFFFFFFFFFFFFFFFF SWAP3 DUP4 DUP2 SHL SWAP4 DUP5 SWAP3 AND SWAP1 SHL AND SWAP2 NOT AND OR SWAP1 SSTORE JUMP JUMPDEST PUSH1 0x40 MLOAD PUSH32 0xF851A44000000000000000000000000000000000000000000000000000000000 DUP2 MSTORE PUSH20 0xFFFFFFFFFFFFFFFFFFFFFFFFFFFFFFFFFFFFFFFF PUSH1 0x20 DUP3 PUSH1 0x4 DUP2 DUP5 PUSH32 0x0 AND GAS STATICCALL SWAP2 DUP3 ISZERO PUSH2 0xBB5 JUMPI PUSH1 0x0 SWAP3 PUSH2 0x1CF7 JUMPI JUMPDEST POP DUP2 AND CALLER SUB PUSH2 0x1CA8 JUMPI POP JUMP JUMPDEST PUSH1 0x40 MLOAD PUSH32 0x90A9D16F00000000000000000000000000000000000000000000000000000000 DUP2 MSTORE CALLER PUSH1 0x4 DUP3 ADD MSTORE PUSH20 0xFFFFFFFFFFFFFFFFFFFFFFFFFFFFFFFFFFFFFFFF SWAP2 SWAP1 SWAP2 AND PUSH1 0x24 DUP3 ADD MSTORE PUSH1 0x44 SWAP1 REVERT JUMPDEST SWAP1 SWAP2 PUSH1 0x20 DUP3 RETURNDATASIZE DUP3 GT PUSH2 0x1D2A JUMPI JUMPDEST DUP2 PUSH2 0x1D11 PUSH1 0x20 SWAP4 DUP4 PUSH2 0x1807 JUMP JUMPDEST DUP2 ADD SUB SLT PUSH2 0x1B35 JUMPI POP PUSH2 0x1D23 SWAP1 PUSH2 0x1960 JUMP JUMPDEST SWAP1 CODESIZE PUSH2 0x1C9C JUMP JUMPDEST RETURNDATASIZE SWAP2 POP PUSH2 0x1D04 JUMP JUMPDEST PUSH2 0x1D3C PUSH1 0x3 PUSH2 0x1B40 JUMP JUMPDEST SWAP1 PUSH1 0x0 JUMPDEST DUP3 MLOAD DUP2 LT ISZERO PUSH2 0x1D86 JUMPI PUSH20 0xFFFFFFFFFFFFFFFFFFFFFFFFFFFFFFFFFFFFFFFF DUP1 PUSH2 0x1D69 DUP4 DUP7 PUSH2 0x1981 JUMP JUMPDEST MLOAD AND SWAP1 DUP4 AND EQ PUSH2 0x1D81 JUMPI PUSH2 0x1D7C SWAP1 PUSH2 0x1BA7 JUMP JUMPDEST PUSH2 0x1D40 JUMP JUMPDEST POP POP POP JUMP JUMPDEST POP PUSH32 0x6E88551D1E5F4E837D99CDAEB8DAB5A3E0EEDE87E21670B9C9D3787D0A0D11EA SWAP2 POP PUSH1 0x40 SWAP1 PUSH2 0x1DB8 DUP2 PUSH1 0x3 PUSH2 0x1BD4 JUMP JUMPDEST PUSH1 0x3 SLOAD PUSH20 0xFFFFFFFFFFFFFFFFFFFFFFFFFFFFFFFFFFFFFFFF DUP4 MLOAD SWAP3 AND DUP3 MSTORE PUSH1 0x20 DUP3 ADD MSTORE LOG1 JUMP JUMPDEST PUSH1 0x10 SWAP3 PUSH1 0x20 SWAP3 PUSH1 0x14 MSTORE PUSH1 0x34 MSTORE PUSH1 0x44 PUSH1 0x0 SWAP4 DUP5 DUP1 SWAP4 PUSH16 0xA9059CBB000000000000000000000000 DUP3 MSTORE GAS CALL RETURNDATASIZE ISZERO PUSH1 0x1 DUP4 MLOAD EQ OR AND ISZERO PUSH2 0x1E1A JUMPI PUSH1 0x34 MSTORE JUMP JUMPDEST PUSH4 0x90B8EC18 SWAP1 MSTORE PUSH1 0x4 PUSH1 0x1C REVERT JUMPDEST PUSH1 0x24 PUSH1 0x10 PUSH1 0x20 SWAP4 SWAP3 DUP5 SWAP4 PUSH1 0x14 MSTORE PUSH16 0x70A08231000000000000000000000000 PUSH1 0x0 MSTORE GAS STATICCALL PUSH1 0x1F RETURNDATASIZE GT AND PUSH1 0x20 MLOAD MUL SWAP1 JUMP INVALID LOG1 PUSH5 0x736F6C6343 STOP ADDMOD GT STOP EXP "},"methodIdentifiers":{"MAX_X1_REWARD()":"11475b2a","MIN_X1_REWARD()":"d5d4f0e1","ONE_INCH_ROUTER_V5()":"bdcb9932","addX1VaultRewardToken(address)":"2c0da13d","allHarvesters(uint256)":"85f80f07","allX1RewardTokens(uint256)":"1f700dcd","collectX1RewardToken(address)":"941177a5","collectX1RewardsAll()":"97f4e01b","cygnusX1Vault()":"c73ef9e8","getHarvester(address)":"a7ba8a39","hangar18()":"e8a24e1d","harvestersLength()":"5fa9d9b0","initializeHarvester(address)":"4bb2bfa3","lastX1Collect()":"b5b946e3","name()":"06fdde03","nativeToken()":"e1758bd8","newX1VaultReward(uint256)":"2c3de320","reinvestRewards(address,bytes[])":"a62df98d","rewardTokenBalance(address)":"94bbf438","rewardTokenBalanceAtIndex(uint256)":"ba3f30c6","sweepToken(address)":"1be19560","x1RewardTokensLength()":"20750215","x1VaultReward()":"b7218b37"}}}}}