{"contracts/cygnus-periphery/CollateralHarvester.sol":{"CollateralHarvester":{"abi":[{"inputs":[{"internalType":"contract IHangar18","name":"_hangar18","type":"address"}],"stateMutability":"nonpayable","type":"constructor"},{"inputs":[],"name":"CygnusHarvester__CantReinvestZero","type":"error"},{"inputs":[{"internalType":"address","name":"token","type":"address"}],"name":"CygnusHarvester__CantSweepRewardToken","type":"error"},{"inputs":[{"internalType":"address","name":"dstReceiver","type":"address"},{"internalType":"address","name":"receiver","type":"address"}],"name":"CygnusHarvester__DstReceiverNotValid","type":"error"},{"inputs":[{"internalType":"address","name":"dstToken","type":"address"},{"internalType":"address","name":"token","type":"address"}],"name":"CygnusHarvester__DstTokenNotValid","type":"error"},{"inputs":[{"internalType":"uint256","name":"newFee","type":"uint256"},{"internalType":"uint256","name":"maxFee","type":"uint256"}],"name":"CygnusHarvester__FeeExceedsLimit","type":"error"},{"inputs":[{"internalType":"address","name":"harvester","type":"address"}],"name":"CygnusHarvester__HarvesterAlreadyInitialized","type":"error"},{"inputs":[{"internalType":"address","name":"harvester","type":"address"}],"name":"CygnusHarvester__HarvesterNotInitialized","type":"error"},{"inputs":[{"internalType":"address","name":"sender","type":"address"},{"internalType":"address","name":"admin","type":"address"}],"name":"CygnusHarvester__MsgSenderNotAdmin","type":"error"},{"inputs":[{"internalType":"address","name":"sender","type":"address"},{"internalType":"address","name":"origin","type":"address"}],"name":"CygnusHarvester__OnlyEOAAllowed","type":"error"},{"inputs":[{"internalType":"address","name":"srcToken","type":"address"},{"internalType":"address","name":"token","type":"address"}],"name":"CygnusHarvester__SrcTokenNotValid","type":"error"},{"inputs":[{"internalType":"uint256","name":"min","type":"uint256"},{"internalType":"uint256","name":"max","type":"uint256"},{"internalType":"uint256","name":"reward","type":"uint256"}],"name":"CygnusHarvester__X1RewardNotInRange","type":"error"},{"inputs":[],"name":"CygnusHarvester__X1VaultRewardNotOne","type":"error"},{"inputs":[],"name":"ReentrantCall","type":"error"},{"anonymous":false,"inputs":[{"indexed":false,"internalType":"uint256","name":"timestamp","type":"uint256"},{"indexed":false,"internalType":"address","name":"sender","type":"address"},{"indexed":false,"internalType":"uint256","name":"tokensLength","type":"uint256"}],"name":"CygnusX1VaultCollect","type":"event"},{"anonymous":false,"inputs":[{"indexed":true,"internalType":"uint256","name":"harvesterId","type":"uint256"},{"indexed":false,"internalType":"address","name":"poolToken","type":"address"},{"indexed":false,"internalType":"address","name":"underlying","type":"address"}],"name":"InitializeHarvester","type":"event"},{"anonymous":false,"inputs":[{"indexed":true,"internalType":"address","name":"sender","type":"address"},{"indexed":false,"internalType":"uint256","name":"oldFee","type":"uint256"},{"indexed":false,"internalType":"uint256","name":"newFee","type":"uint256"}],"name":"NewHarvestFee","type":"event"},{"anonymous":false,"inputs":[{"indexed":false,"internalType":"address","name":"newToken","type":"address"},{"indexed":false,"internalType":"uint256","name":"rewardTokensLength","type":"uint256"}],"name":"NewX1RewardToken","type":"event"},{"anonymous":false,"inputs":[{"indexed":true,"internalType":"address","name":"sender","type":"address"},{"indexed":false,"internalType":"uint256","name":"oldReward","type":"uint256"},{"indexed":false,"internalType":"uint256","name":"newReward","type":"uint256"}],"name":"NewX1VaultReward","type":"event"},{"inputs":[],"name":"HARVESTER_REWARD","outputs":[{"internalType":"uint256","name":"","type":"uint256"}],"stateMutability":"view","type":"function"},{"inputs":[],"name":"MAX_X1_REWARD","outputs":[{"internalType":"uint256","name":"","type":"uint256"}],"stateMutability":"view","type":"function"},{"inputs":[],"name":"MIN_X1_REWARD","outputs":[{"internalType":"uint256","name":"","type":"uint256"}],"stateMutability":"view","type":"function"},{"inputs":[],"name":"ONE_INCH_ROUTER_V5","outputs":[{"internalType":"contract IAggregationRouterV5","name":"","type":"address"}],"stateMutability":"view","type":"function"},{"inputs":[{"internalType":"address","name":"rewardToken","type":"address"}],"name":"addX1VaultRewardToken","outputs":[],"stateMutability":"nonpayable","type":"function"},{"inputs":[{"internalType":"uint256","name":"","type":"uint256"}],"name":"allHarvesters","outputs":[{"internalType":"address","name":"","type":"address"}],"stateMutability":"view","type":"function"},{"inputs":[{"internalType":"uint256","name":"","type":"uint256"}],"name":"allX1RewardTokens","outputs":[{"internalType":"address","name":"","type":"address"}],"stateMutability":"view","type":"function"},{"inputs":[{"internalType":"address","name":"rewardToken","type":"address"}],"name":"collectX1RewardToken","outputs":[],"stateMutability":"nonpayable","type":"function"},{"inputs":[],"name":"collectX1RewardsAll","outputs":[],"stateMutability":"nonpayable","type":"function"},{"inputs":[],"name":"cygnusX1Vault","outputs":[{"internalType":"address","name":"","type":"address"}],"stateMutability":"view","type":"function"},{"inputs":[{"internalType":"address","name":"","type":"address"}],"name":"getHarvester","outputs":[{"internalType":"address","name":"underlying","type":"address"},{"internalType":"address","name":"wantToken","type":"address"},{"internalType":"address","name":"needToken","type":"address"}],"stateMutability":"view","type":"function"},{"inputs":[],"name":"hangar18","outputs":[{"internalType":"contract IHangar18","name":"","type":"address"}],"stateMutability":"view","type":"function"},{"inputs":[{"internalType":"address","name":"collateral","type":"address"}],"name":"harvestToVault","outputs":[],"stateMutability":"nonpayable","type":"function"},{"inputs":[],"name":"harvestersLength","outputs":[{"internalType":"uint256","name":"","type":"uint256"}],"stateMutability":"view","type":"function"},{"inputs":[{"internalType":"address","name":"collateral","type":"address"}],"name":"initializeHarvester","outputs":[],"stateMutability":"nonpayable","type":"function"},{"inputs":[],"name":"lastX1Collect","outputs":[{"internalType":"uint256","name":"","type":"uint256"}],"stateMutability":"view","type":"function"},{"inputs":[],"name":"name","outputs":[{"internalType":"string","name":"","type":"string"}],"stateMutability":"view","type":"function"},{"inputs":[],"name":"nativeToken","outputs":[{"internalType":"address","name":"","type":"address"}],"stateMutability":"view","type":"function"},{"inputs":[{"internalType":"uint256","name":"vaultReward","type":"uint256"}],"name":"newX1VaultReward","outputs":[],"stateMutability":"nonpayable","type":"function"},{"inputs":[{"internalType":"address","name":"collateral","type":"address"},{"internalType":"bytes[]","name":"swapData","type":"bytes[]"}],"name":"reinvestRewards","outputs":[{"internalType":"uint256","name":"liquidity","type":"uint256"}],"stateMutability":"nonpayable","type":"function"},{"inputs":[{"internalType":"address","name":"rewardToken","type":"address"}],"name":"rewardTokenBalance","outputs":[{"internalType":"uint256","name":"","type":"uint256"}],"stateMutability":"view","type":"function"},{"inputs":[{"internalType":"uint256","name":"index","type":"uint256"}],"name":"rewardTokenBalanceAtIndex","outputs":[{"internalType":"uint256","name":"","type":"uint256"}],"stateMutability":"view","type":"function"},{"inputs":[{"internalType":"address","name":"token","type":"address"}],"name":"sweepToken","outputs":[],"stateMutability":"nonpayable","type":"function"},{"inputs":[],"name":"x1RewardTokensLength","outputs":[{"internalType":"uint256","name":"","type":"uint256"}],"stateMutability":"view","type":"function"},{"inputs":[],"name":"x1VaultReward","outputs":[{"internalType":"uint256","name":"","type":"uint256"}],"stateMutability":"view","type":"function"}],"evm":{"bytecode":{"linkReferences":{},"object":"60e060409080825234620001915780620028e5803803809162000023828562000196565b8339602092839181010312620001915751906001600160a01b0382168083036200019157600092600160ff198554161784556702c68af0bb1400006004556080528351631c2eb17b60e31b81528281600481855afa90811562000187579183929160049492869162000165575b5060a05285516318e7df3d60e31b815293849182905afa9283156200015a579262000126575b505060c052620000da733c8b650257cfb5f272f799f5e2b4e65093a11a05620001f1565b5161257a90816200036b823960805181818161017a0152612274015260a051818181610443015261190b015260c05181818161032b015281816104ec015281816113ee015261156c0152f35b6200014a9250803d1062000152575b62000141818362000196565b810190620001d0565b3880620000b6565b503d62000135565b8451903d90823e3d90fd5b620001809150833d8511620001525762000141818362000196565b3862000090565b85513d86823e3d90fd5b600080fd5b601f909101601f19168101906001600160401b03821190821017620001ba57604052565b634e487b7160e01b600052604160045260246000fd5b908160209103126200019157516001600160a01b0381168103620001915790565b60405160038054808352600091825293909290916020907fc2575a0e9e593c00f959f8c92f12db2869c3395a3b0502d05e2516446f71f85b81838101875b858a82106200034a575050620002489250038262000196565b845b8151811015620002a157600581901b82018301516001600160a01b038581169116146200029857600019811462000284576001016200024a565b634e487b7160e01b86526011600452602486fd5b50505050915050565b5050919390926801000000000000000082101562000336576001820180600355821015620003225760038082529083902090910180546001600160a01b0319166001600160a01b0390941693841790555460408051938452918301527f6e88551d1e5f4e837d99cdaeb8dab5a3e0eede87e21670b9c9d3787d0a0d11ea91a1565b634e487b7160e01b81526032600452602490fd5b634e487b7160e01b81526041600452602490fd5b84546001600160a01b03168352600194850194869450920191016200022f56fe6080604052600436101561001257600080fd5b60003560e01c806306fdde0314611d0f57806311475b2a14611cce5780631be1956014611c5b5780631f700dcd14611bed5780632075021514611bb15780632c0da13d14611b545780632c3de32014611a855780634bb2bfa3146116825780635fa9d9b01461164657806384a537171461160657806385f80f0714611598578063941177a5146114c257806394bbf4381461146657806397f4e01b1461131f578063a62df98d146106c8578063a7ba8a3914610642578063b5b946e314610606578063b7218b37146105ca578063ba3f30c61461055d578063bdcb993214610510578063c73ef9e8146104a1578063d5d4f0e114610467578063e1758bd8146103f8578063e4cf44ba146101a35763e8a24e1d1461012f57600080fd5b3461019e5760007ffffffffffffffffffffffffffffffffffffffffffffffffffffffffffffffffc36011261019e57602060405173ffffffffffffffffffffffffffffffffffffffff7f0000000000000000000000000000000000000000000000000000000000000000168152f35b600080fd5b3461019e5760207ffffffffffffffffffffffffffffffffffffffffffffffffffffffffffffffffc36011261019e5773ffffffffffffffffffffffffffffffffffffffff6004358181169182820361019e576000549160ff8316156103ce577fffffffffffffffffffffffffffffffffffffffffffffffffffffffffffffff00809316600055670de0b6b3a76400009384600454036103a457600080916004604051809481937f0572b0cc0000000000000000000000000000000000000000000000000000000083525af190811561039857600090600092610372575b5060005b8151811015610365576102978184612013565b516102ab575b6102a6906121b0565b610284565b6102b58184612013565b5190666a94d74f430000790266e437520b7a58f375d1fbc14419c489fe83caf24dbfd6b85f831181026103575788610350916102a694020461030681896102fc8689612013565b511689339161249c565b610327886103148588612013565b5116916103218589612013565b51612034565b90877f00000000000000000000000000000000000000000000000000000000000000009161249c565b905061029d565b63bac65e5b6000526004601cfd5b6000805487166001179055005b905061039191503d806000833e6103898183611d9a565b810190611f72565b9086610280565b6040513d6000823e3d90fd5b60046040517ff47f74ff000000000000000000000000000000000000000000000000000000008152fd5b60046040517f37ed32e8000000000000000000000000000000000000000000000000000000008152fd5b3461019e5760007ffffffffffffffffffffffffffffffffffffffffffffffffffffffffffffffffc36011261019e57602060405173ffffffffffffffffffffffffffffffffffffffff7f0000000000000000000000000000000000000000000000000000000000000000168152f35b3461019e5760007ffffffffffffffffffffffffffffffffffffffffffffffffffffffffffffffffc36011261019e57602060405160008152f35b3461019e5760007ffffffffffffffffffffffffffffffffffffffffffffffffffffffffffffffffc36011261019e57602060405173ffffffffffffffffffffffffffffffffffffffff7f0000000000000000000000000000000000000000000000000000000000000000168152f35b3461019e5760007ffffffffffffffffffffffffffffffffffffffffffffffffffffffffffffffffc36011261019e576020604051731111111254eeb25477b68fb85ed929f73a9605828152f35b3461019e5760207ffffffffffffffffffffffffffffffffffffffffffffffffffffffffffffffffc36011261019e5760206105c273ffffffffffffffffffffffffffffffffffffffff6105b36004356003611ec3565b90549060031b1c16309061253e565b604051908152f35b3461019e5760007ffffffffffffffffffffffffffffffffffffffffffffffffffffffffffffffffc36011261019e576020600454604051908152f35b3461019e5760007ffffffffffffffffffffffffffffffffffffffffffffffffffffffffffffffffc36011261019e576020600554604051908152f35b3461019e5760207ffffffffffffffffffffffffffffffffffffffffffffffffffffffffffffffffc36011261019e5760043573ffffffffffffffffffffffffffffffffffffffff80821680920361019e57606091600052600160205260406000208181541691600281600184015416920154169060405192835260208301526040820152f35b3461019e5760407ffffffffffffffffffffffffffffffffffffffffffffffffffffffffffffffffc36011261019e5773ffffffffffffffffffffffffffffffffffffffff60043516806004350361019e5767ffffffffffffffff6024351161019e5736602360243501121561019e5767ffffffffffffffff602435600401351161019e5736602480356004013560051b813501011161019e57806000526001602052604060002073ffffffffffffffffffffffffffffffffffffffff815416156112ef576040517f0572b0cc00000000000000000000000000000000000000000000000000000000815260008160048183875af18015610398576000916000916112d2575b5073ffffffffffffffffffffffffffffffffffffffff6001840154169160009460005b8251811015610e37576108038185612013565b51610811575b6001016107f0565b9561084d73ffffffffffffffffffffffffffffffffffffffff6108348986612013565b51166108408987612013565b519030906004359061249c565b8473ffffffffffffffffffffffffffffffffffffffff61086d8986612013565b511614610e1a5760243560040135871015610deb577fffffffffffffffffffffffffffffffffffffffffffffffffffffffffffffffbd60243536030160248860051b8135010135121561019e5767ffffffffffffffff6024808960051b813501013581350101351161019e5760248035600589901b81018201350190810135360360449091011361019e5773ffffffffffffffffffffffffffffffffffffffff6109178885612013565b51166109238886612013565b516024803560058b901b8101820135019081013581010390610140821261019e5760e07fffffffffffffffffffffffffffffffffffffffffffffffffffffffffffffffe0610981604460248e60051b81350101356024350101611ea2565b93011261019e576040519261099760e085611d9a565b6109b1606460248d60051b81350101356024350101611ea2565b84526109cd608460248d60051b81350101356024350101611ea2565b60208501526109ec60a460248d60051b81350101356024350101611ea2565b6040850152610a0b60c460248d60051b81350101356024350101611ea2565b60608501526024803560058d901b8101909101350160e4810135608086015261010481013560a086015261012481013560c086015267ffffffffffffffff610144909101351161019e578a9067ffffffffffffffff6101646024610a8e8135600587901b8101830135018083013581016044908101916101448101350101612041565b9460051b81350101356024350101351161019e57610acd6024803560058f901b8101820135019081013581016044908101916101648101350101612041565b9280608087015103610de0575b5073ffffffffffffffffffffffffffffffffffffffff855116818103610d9157505073ffffffffffffffffffffffffffffffffffffffff602085015116898103610d41575073ffffffffffffffffffffffffffffffffffffffff606085015116308103610d0a575091610c9773ffffffffffffffffffffffffffffffffffffffff92610c66604095610b8986895116731111111254eeb25477b68fb85ed929f73a96058260808b015191612088565b60c0875198899788977f12aa3caf00000000000000000000000000000000000000000000000000000000895216600488015273ffffffffffffffffffffffffffffffffffffffff815116602488015273ffffffffffffffffffffffffffffffffffffffff602082015116604488015273ffffffffffffffffffffffffffffffffffffffff8982015116606488015273ffffffffffffffffffffffffffffffffffffffff6060820151166084880152608081015160a488015260a081015160c4880152015160e4860152610140610104860152610144850190611e44565b907ffffffffffffffffffffffffffffffffffffffffffffffffffffffffffffffffc84830301610124850152611e44565b03816000731111111254eeb25477b68fb85ed929f73a9605825af190811561039857600091610cd7575b50610cce90600192612027565b965b9050610809565b90506040813d604011610d02575b81610cf260409383611d9a565b8101031261019e57516001610cc1565b3d9150610ce5565b604490604051907f03918a030000000000000000000000000000000000000000000000000000000082526004820152306024820152fd5b6040517f74924cb200000000000000000000000000000000000000000000000000000000815273ffffffffffffffffffffffffffffffffffffffff9182166004820152908a166024820152604490fd5b6040517fbf3a09e600000000000000000000000000000000000000000000000000000000815273ffffffffffffffffffffffffffffffffffffffff918216600482015291166024820152604490fd5b60808601528c610ada565b7f4e487b7100000000000000000000000000000000000000000000000000000000600052603260045260246000fd5b610e31600191610e2a8987612013565b5190612027565b96610cd0565b5084848780156112a85773ffffffffffffffffffffffffffffffffffffffff835416604051907f70a082310000000000000000000000000000000000000000000000000000000082526004820152602081602481865afa90811561039857600091611276575b50614e1b908082029182048103611206576127108302907fffffffffffffffffffffffffffffffffffffffffffffffffffffffffffffd8f08483040161120657610ee69161244e565b908160021b91808304600414901517156112065761270b9182810292818404149015171561120657610fbd81610f2a600294610f2583614e169661244e565b612027565b8070ffffffffffffffffffffffffffffffffff1060071b81811c68ffffffffffffffffff1060061b1781811c64ffffffffff1060051b1781811c62ffffff1060041b1760b56201000083831c019160011c1b0260121c8082040160011c8082040160011c8082040160011c8082040160011c8082040160011c8082040160011c8082040160011c80809204109003612034565b0493019273ffffffffffffffffffffffffffffffffffffffff84541692739c12939390052919af3155f41bf4160fd3666a6f610ffa838284612088565b604051947f13dcfc59000000000000000000000000000000000000000000000000000000008652836004870152600060248701528260448701526064860152600060848601523060a48601524260c486015260008560e48183855af194851561039857600095611235575b508451907fffffffffffffffffffffffffffffffffffffffffffffffffffffffffffffffff8201918211611206576110c76101249473ffffffffffffffffffffffffffffffffffffffff6110bd60009560609a612013565b5199541696612034565b966110d3888386612088565b6110de818388612088565b6110f8600454986110ef8a82612461565b90039882612461565b900360405197889687957f5a47ddc300000000000000000000000000000000000000000000000000000000875260048701526024860152836044860152606485015260848401528160a48401528160c48401528760e4840152426101048401525af1908115610398576000916111d2575b50813b1561019e57600080926024604051809581937f81f5b6f40000000000000000000000000000000000000000000000000000000083528660048401525af1918215610398576020926111c1575b50604051908152f35b60006111cc91611d9a565b826111b8565b90506060813d82116111fe575b816111ec60609383611d9a565b8101031261019e576040015182611169565b3d91506111df565b7f4e487b7100000000000000000000000000000000000000000000000000000000600052601160045260246000fd5b9094503d806000833e6112488183611d9a565b810160208282031261019e57815167ffffffffffffffff811161019e5761126f9201611f14565b9387611065565b90506020813d6020116112a0575b8161129160209383611d9a565b8101031261019e575185610e9d565b3d9150611284565b60046040517f496ee71b000000000000000000000000000000000000000000000000000000008152fd5b90506112e991503d806000833e6103898183611d9a565b846107cd565b60246040517fce9b924b000000000000000000000000000000000000000000000000000000008152336004820152fd5b3461019e5760007ffffffffffffffffffffffffffffffffffffffffffffffffffffffffffffffffc36011261019e5760005460ff8116156103ce576001907fffffffffffffffffffffffffffffffffffffffffffffffffffffffffffffff0080911660005561138e600361233b565b6000805b825181101561141c5773ffffffffffffffffffffffffffffffffffffffff6113c630826113bf8588612013565b511661253e565b90816113d6575b50508401611392565b926114138793949284936113ea8789612013565b51167f0000000000000000000000000000000000000000000000000000000000000000906124f5565b019190866113cd565b84847f16a9fd824a632ba02af308c1f7597f156fa9ec25b50bf207e0c0c34d28d27ab660608542600555604051904282523360208301526040820152a16000541617600055600080f35b3461019e5760207ffffffffffffffffffffffffffffffffffffffffffffffffffffffffffffffffc36011261019e5760043573ffffffffffffffffffffffffffffffffffffffff8116810361019e576105c2602091309061253e565b3461019e5760207ffffffffffffffffffffffffffffffffffffffffffffffffffffffffffffffffc36011261019e5760043573ffffffffffffffffffffffffffffffffffffffff8116810361019e57611519612230565b611523308261253e565b80611566575b426005557f16a9fd824a632ba02af308c1f7597f156fa9ec25b50bf207e0c0c34d28d27ab6606060405142815233602082015260016040820152a1005b611591917f0000000000000000000000000000000000000000000000000000000000000000906124f5565b8080611529565b3461019e5760207ffffffffffffffffffffffffffffffffffffffffffffffffffffffffffffffffc36011261019e5760043560025481101561019e5773ffffffffffffffffffffffffffffffffffffffff6115f66020926002611ec3565b9190546040519260031b1c168152f35b3461019e5760007ffffffffffffffffffffffffffffffffffffffffffffffffffffffffffffffffc36011261019e576020604051666a94d74f4300008152f35b3461019e5760007ffffffffffffffffffffffffffffffffffffffffffffffffffffffffffffffffc36011261019e576020600254604051908152f35b3461019e576020807ffffffffffffffffffffffffffffffffffffffffffffffffffffffffffffffffc36011261019e576004359073ffffffffffffffffffffffffffffffffffffffff80831680840361019e576116dd612230565b806000526001835260406000206040516116f8606082611d9a565b604084600281855416948585528260018201541689860152015416910152611a5457604051917f6f307dc30000000000000000000000000000000000000000000000000000000083528383600481855afa92831561039857600093611a1d575b50808316604051927f0dfe16810000000000000000000000000000000000000000000000000000000084528584600481855afa938415610398576000946119e6575b50604051927fd21220a70000000000000000000000000000000000000000000000000000000084528684600481865afa93841561039857600094611982575b50907faaba566daac618884a3651a227aed179a85936588f933de535762f4a9aaae3169682869594936118c09716733c8b650257cfb5f272f799f5e2b4e65093a11a059081811480928115611976575b50156119065750156118fa5760026118bb955b96945b6040519061184e606083611d9a565b815260018482019484881686526040830196858b16885260005252826040600020915116937fffffffffffffffffffffffff0000000000000000000000000000000000000000948583541617825583600183019151168582541617905501925116908254161790556123a2565b6123a2565b6118cb8360026121dd565b6002546040805173ffffffffffffffffffffffffffffffffffffffff95861681529290941660208301529290a2005b60026118bb959661183c565b9050817f0000000000000000000000000000000000000000000000000000000000000000168091148091811561196a575b501561195c57156119505760026118bb955b969461183f565b60026118bb9596611949565b5060026118bb95969461183f565b9050828716148c611937565b9050838816148d611829565b94935091908685813d83116119df575b61199c8183611d9a565b8101031261019e577faaba566daac618884a3651a227aed179a85936588f933de535762f4a9aaae316966119d26118c096611ef3565b94955096929091926117d9565b503d611992565b9093508581813d8311611a16575b6119fe8183611d9a565b8101031261019e57611a0f90611ef3565b928761179a565b503d6119f4565b9092508381813d8311611a4d575b611a358183611d9a565b8101031261019e57611a4690611ef3565b9185611758565b503d611a2b565b602490604051907f769200dd0000000000000000000000000000000000000000000000000000000082526004820152fd5b3461019e5760207ffffffffffffffffffffffffffffffffffffffffffffffffffffffffffffffffc36011261019e57600435611abf612230565b670de0b6b3a76400008082118015611b4c575b611b0f5750806004556040519080825260208201527fa1367aa3830e872ca7d226920b1be2dcd9b6ebe0844a6f86c22d717a34b7ef0260403392a2005b606491604051917f2f753cf00000000000000000000000000000000000000000000000000000000083526000600484015260248301526044820152fd5b506000611ad2565b3461019e5760207ffffffffffffffffffffffffffffffffffffffffffffffffffffffffffffffffc36011261019e5760043573ffffffffffffffffffffffffffffffffffffffff8116810361019e57611baf906118bb612230565b005b3461019e5760007ffffffffffffffffffffffffffffffffffffffffffffffffffffffffffffffffc36011261019e576020600354604051908152f35b3461019e5760207ffffffffffffffffffffffffffffffffffffffffffffffffffffffffffffffffc36011261019e5760043560035481101561019e5773ffffffffffffffffffffffffffffffffffffffff611c4b6020926003611ec3565b90549060031b1c16604051908152f35b3461019e5760207ffffffffffffffffffffffffffffffffffffffffffffffffffffffffffffffffc36011261019e5760043573ffffffffffffffffffffffffffffffffffffffff8116810361019e57611cb2612230565b611cbc308261253e565b80611cc357005b611baf9133906124f5565b3461019e5760007ffffffffffffffffffffffffffffffffffffffffffffffffffffffffffffffffc36011261019e576020604051670de0b6b3a76400008152f35b3461019e5760007ffffffffffffffffffffffffffffffffffffffffffffffffffffffffffffffffc36011261019e57611d96611d4b601e611e0a565b611d586040519182611d9a565b601e81527f4379676e7573204861727665737465723a2056454c4f205265776172647300006020820152604051918291602083526020830190611e44565b0390f35b90601f7fffffffffffffffffffffffffffffffffffffffffffffffffffffffffffffffe0910116810190811067ffffffffffffffff821117611ddb57604052565b7f4e487b7100000000000000000000000000000000000000000000000000000000600052604160045260246000fd5b67ffffffffffffffff8111611ddb57601f017fffffffffffffffffffffffffffffffffffffffffffffffffffffffffffffffe01660200190565b919082519283825260005b848110611e8e5750507fffffffffffffffffffffffffffffffffffffffffffffffffffffffffffffffe0601f8460006020809697860101520116010190565b602081830181015184830182015201611e4f565b359073ffffffffffffffffffffffffffffffffffffffff8216820361019e57565b8054821015610deb5760005260206000200190600090565b67ffffffffffffffff8111611ddb5760051b60200190565b519073ffffffffffffffffffffffffffffffffffffffff8216820361019e57565b81601f8201121561019e57805191611f2b83611edb565b92611f396040519485611d9a565b808452602092838086019260051b82010192831161019e578301905b828210611f63575050505090565b81518152908301908301611f55565b91909160408184031261019e5780519267ffffffffffffffff9384811161019e5782019381601f8601121561019e578451611fac81611edb565b90611fba6040519283611d9a565b808252602096878084019260051b8201019185831161019e5788809201905b838210611ffc57505050509483015190811161019e57611ff99201611f14565b90565b82809161200884611ef3565b815201910190611fd9565b8051821015610deb5760209160051b010190565b9190820180921161120657565b9190820391821161120657565b81601f8201121561019e5780359061205882611e0a565b926120666040519485611d9a565b8284526020838301011161019e57816000926020809301838601378301015290565b6040517fdd62ed3e00000000000000000000000000000000000000000000000000000000815230600482015273ffffffffffffffffffffffffffffffffffffffff83166024820152919290916020818060448101038173ffffffffffffffffffffffffffffffffffffffff87165afa9081156103985760009161217c575b5010156121785760446010600080936020956014527fffffffffffffffffffffffffffffffffffffffffffffffffffffffffffffffff6034526f095ea7b300000000000000000000000082525af13d1560016000511417161561216a576000603452565b633e3f8f736000526004601cfd5b5050565b906020823d82116121a8575b8161219560209383611d9a565b810103126121a557505138612106565b80fd5b3d9150612188565b7fffffffffffffffffffffffffffffffffffffffffffffffffffffffffffffffff81146112065760010190565b805468010000000000000000811015611ddb576121ff91600182018155611ec3565b819291549060031b9173ffffffffffffffffffffffffffffffffffffffff9283811b93849216901b16911916179055565b6040517ff851a44000000000000000000000000000000000000000000000000000000000815273ffffffffffffffffffffffffffffffffffffffff602082600481847f0000000000000000000000000000000000000000000000000000000000000000165afa91821561039857600092612300575b50811633036122b15750565b6040517f90a9d16f00000000000000000000000000000000000000000000000000000000815233600482015273ffffffffffffffffffffffffffffffffffffffff919091166024820152604490fd5b90916020823d8211612333575b8161231a60209383611d9a565b810103126121a5575061232c90611ef3565b90386122a5565b3d915061230d565b9060405191828154918282526020928383019160005283600020936000905b8282106123725750505061237092500383611d9a565b565b855473ffffffffffffffffffffffffffffffffffffffff168452600195860195889550938101939091019061235a565b6123ac600361233b565b9060005b82518110156123f65773ffffffffffffffffffffffffffffffffffffffff806123d98386612013565b5116908316146123f1576123ec906121b0565b6123b0565b505050565b507f6e88551d1e5f4e837d99cdaeb8dab5a3e0eede87e21670b9c9d3787d0a0d11ea91506040906124288160036121dd565b60035473ffffffffffffffffffffffffffffffffffffffff8351921682526020820152a1565b8181029291811591840414171561120657565b90807fffffffffffffffffffffffffffffffffffffffffffffffffffffffffffffffff048211810261035757670de0b6b3a764000091020490565b601c600060649281946020966040519860605260405260601b602c526f23b872dd000000000000000000000000600c525af13d156001600051141716156124e7576000606052604052565b637939f4246000526004601cfd5b60109260209260145260345260446000938480936fa9059cbb00000000000000000000000082525af13d15600183511417161561253157603452565b6390b8ec1890526004601cfd5b602460106020939284936014526f70a082310000000000000000000000006000525afa601f3d1116602051029056fea164736f6c6343000811000a","opcodes":"PUSH1 0xE0 PUSH1 0x40 SWAP1 DUP1 DUP3 MSTORE CALLVALUE PUSH3 0x191 JUMPI DUP1 PUSH3 0x28E5 DUP1 CODESIZE SUB DUP1 SWAP2 PUSH3 0x23 DUP3 DUP6 PUSH3 0x196 JUMP JUMPDEST DUP4 CODECOPY PUSH1 0x20 SWAP3 DUP4 SWAP2 DUP2 ADD SUB SLT PUSH3 0x191 JUMPI MLOAD SWAP1 PUSH1 0x1 PUSH1 0x1 PUSH1 0xA0 SHL SUB DUP3 AND DUP1 DUP4 SUB PUSH3 0x191 JUMPI PUSH1 0x0 SWAP3 PUSH1 0x1 PUSH1 0xFF NOT DUP6 SLOAD AND OR DUP5 SSTORE PUSH8 0x2C68AF0BB140000 PUSH1 0x4 SSTORE PUSH1 0x80 MSTORE DUP4 MLOAD PUSH4 0x1C2EB17B PUSH1 0xE3 SHL DUP2 MSTORE DUP3 DUP2 PUSH1 0x4 DUP2 DUP6 GAS STATICCALL SWAP1 DUP2 ISZERO PUSH3 0x187 JUMPI SWAP2 DUP4 SWAP3 SWAP2 PUSH1 0x4 SWAP5 SWAP3 DUP7 SWAP2 PUSH3 0x165 JUMPI JUMPDEST POP PUSH1 0xA0 MSTORE DUP6 MLOAD PUSH4 0x18E7DF3D PUSH1 0xE3 SHL DUP2 MSTORE SWAP4 DUP5 SWAP2 DUP3 SWAP1 GAS STATICCALL SWAP3 DUP4 ISZERO PUSH3 0x15A JUMPI SWAP3 PUSH3 0x126 JUMPI JUMPDEST POP POP PUSH1 0xC0 MSTORE PUSH3 0xDA PUSH20 0x3C8B650257CFB5F272F799F5E2B4E65093A11A05 PUSH3 0x1F1 JUMP JUMPDEST MLOAD PUSH2 0x257A SWAP1 DUP2 PUSH3 0x36B DUP3 CODECOPY PUSH1 0x80 MLOAD DUP2 DUP2 DUP2 PUSH2 0x17A ADD MSTORE PUSH2 0x2274 ADD MSTORE PUSH1 0xA0 MLOAD DUP2 DUP2 DUP2 PUSH2 0x443 ADD MSTORE PUSH2 0x190B ADD MSTORE PUSH1 0xC0 MLOAD DUP2 DUP2 DUP2 PUSH2 0x32B ADD MSTORE DUP2 DUP2 PUSH2 0x4EC ADD MSTORE DUP2 DUP2 PUSH2 0x13EE ADD MSTORE PUSH2 0x156C ADD MSTORE RETURN JUMPDEST PUSH3 0x14A SWAP3 POP DUP1 RETURNDATASIZE LT PUSH3 0x152 JUMPI JUMPDEST PUSH3 0x141 DUP2 DUP4 PUSH3 0x196 JUMP JUMPDEST DUP2 ADD SWAP1 PUSH3 0x1D0 JUMP JUMPDEST CODESIZE DUP1 PUSH3 0xB6 JUMP JUMPDEST POP RETURNDATASIZE PUSH3 0x135 JUMP JUMPDEST DUP5 MLOAD SWAP1 RETURNDATASIZE SWAP1 DUP3 RETURNDATACOPY RETURNDATASIZE SWAP1 REVERT JUMPDEST PUSH3 0x180 SWAP2 POP DUP4 RETURNDATASIZE DUP6 GT PUSH3 0x152 JUMPI PUSH3 0x141 DUP2 DUP4 PUSH3 0x196 JUMP JUMPDEST CODESIZE PUSH3 0x90 JUMP JUMPDEST DUP6 MLOAD RETURNDATASIZE DUP7 DUP3 RETURNDATACOPY RETURNDATASIZE SWAP1 REVERT JUMPDEST PUSH1 0x0 DUP1 REVERT JUMPDEST PUSH1 0x1F SWAP1 SWAP2 ADD PUSH1 0x1F NOT AND DUP2 ADD SWAP1 PUSH1 0x1 PUSH1 0x1 PUSH1 0x40 SHL SUB DUP3 GT SWAP1 DUP3 LT OR PUSH3 0x1BA JUMPI PUSH1 0x40 MSTORE JUMP JUMPDEST PUSH4 0x4E487B71 PUSH1 0xE0 SHL PUSH1 0x0 MSTORE PUSH1 0x41 PUSH1 0x4 MSTORE PUSH1 0x24 PUSH1 0x0 REVERT JUMPDEST SWAP1 DUP2 PUSH1 0x20 SWAP2 SUB SLT PUSH3 0x191 JUMPI MLOAD PUSH1 0x1 PUSH1 0x1 PUSH1 0xA0 SHL SUB DUP2 AND DUP2 SUB PUSH3 0x191 JUMPI SWAP1 JUMP JUMPDEST PUSH1 0x40 MLOAD PUSH1 0x3 DUP1 SLOAD DUP1 DUP4 MSTORE PUSH1 0x0 SWAP2 DUP3 MSTORE SWAP4 SWAP1 SWAP3 SWAP1 SWAP2 PUSH1 0x20 SWAP1 PUSH32 0xC2575A0E9E593C00F959F8C92F12DB2869C3395A3B0502D05E2516446F71F85B DUP2 DUP4 DUP2 ADD DUP8 JUMPDEST DUP6 DUP11 DUP3 LT PUSH3 0x34A JUMPI POP POP PUSH3 0x248 SWAP3 POP SUB DUP3 PUSH3 0x196 JUMP JUMPDEST DUP5 JUMPDEST DUP2 MLOAD DUP2 LT ISZERO PUSH3 0x2A1 JUMPI PUSH1 0x5 DUP2 SWAP1 SHL DUP3 ADD DUP4 ADD MLOAD PUSH1 0x1 PUSH1 0x1 PUSH1 0xA0 SHL SUB DUP6 DUP2 AND SWAP2 AND EQ PUSH3 0x298 JUMPI PUSH1 0x0 NOT DUP2 EQ PUSH3 0x284 JUMPI PUSH1 0x1 ADD PUSH3 0x24A JUMP JUMPDEST PUSH4 0x4E487B71 PUSH1 0xE0 SHL DUP7 MSTORE PUSH1 0x11 PUSH1 0x4 MSTORE PUSH1 0x24 DUP7 REVERT JUMPDEST POP POP POP POP SWAP2 POP POP JUMP JUMPDEST POP POP SWAP2 SWAP4 SWAP1 SWAP3 PUSH9 0x10000000000000000 DUP3 LT ISZERO PUSH3 0x336 JUMPI PUSH1 0x1 DUP3 ADD DUP1 PUSH1 0x3 SSTORE DUP3 LT ISZERO PUSH3 0x322 JUMPI PUSH1 0x3 DUP1 DUP3 MSTORE SWAP1 DUP4 SWAP1 KECCAK256 SWAP1 SWAP2 ADD DUP1 SLOAD PUSH1 0x1 PUSH1 0x1 PUSH1 0xA0 SHL SUB NOT AND PUSH1 0x1 PUSH1 0x1 PUSH1 0xA0 SHL SUB SWAP1 SWAP5 AND SWAP4 DUP5 OR SWAP1 SSTORE SLOAD PUSH1 0x40 DUP1 MLOAD SWAP4 DUP5 MSTORE SWAP2 DUP4 ADD MSTORE PUSH32 0x6E88551D1E5F4E837D99CDAEB8DAB5A3E0EEDE87E21670B9C9D3787D0A0D11EA SWAP2 LOG1 JUMP JUMPDEST PUSH4 0x4E487B71 PUSH1 0xE0 SHL DUP2 MSTORE PUSH1 0x32 PUSH1 0x4 MSTORE PUSH1 0x24 SWAP1 REVERT JUMPDEST PUSH4 0x4E487B71 PUSH1 0xE0 SHL DUP2 MSTORE PUSH1 0x41 PUSH1 0x4 MSTORE PUSH1 0x24 SWAP1 REVERT JUMPDEST DUP5 SLOAD PUSH1 0x1 PUSH1 0x1 PUSH1 0xA0 SHL SUB AND DUP4 MSTORE PUSH1 0x1 SWAP5 DUP6 ADD SWAP5 DUP7 SWAP5 POP SWAP3 ADD SWAP2 ADD PUSH3 0x22F JUMP INVALID PUSH1 0x80 PUSH1 0x40 MSTORE PUSH1 0x4 CALLDATASIZE LT ISZERO PUSH2 0x12 JUMPI PUSH1 0x0 DUP1 REVERT JUMPDEST PUSH1 0x0 CALLDATALOAD PUSH1 0xE0 SHR DUP1 PUSH4 0x6FDDE03 EQ PUSH2 0x1D0F JUMPI DUP1 PUSH4 0x11475B2A EQ PUSH2 0x1CCE JUMPI DUP1 PUSH4 0x1BE19560 EQ PUSH2 0x1C5B JUMPI DUP1 PUSH4 0x1F700DCD EQ PUSH2 0x1BED JUMPI DUP1 PUSH4 0x20750215 EQ PUSH2 0x1BB1 JUMPI DUP1 PUSH4 0x2C0DA13D EQ PUSH2 0x1B54 JUMPI DUP1 PUSH4 0x2C3DE320 EQ PUSH2 0x1A85 JUMPI DUP1 PUSH4 0x4BB2BFA3 EQ PUSH2 0x1682 JUMPI DUP1 PUSH4 0x5FA9D9B0 EQ PUSH2 0x1646 JUMPI DUP1 PUSH4 0x84A53717 EQ PUSH2 0x1606 JUMPI DUP1 PUSH4 0x85F80F07 EQ PUSH2 0x1598 JUMPI DUP1 PUSH4 0x941177A5 EQ PUSH2 0x14C2 JUMPI DUP1 PUSH4 0x94BBF438 EQ PUSH2 0x1466 JUMPI DUP1 PUSH4 0x97F4E01B EQ PUSH2 0x131F JUMPI DUP1 PUSH4 0xA62DF98D EQ PUSH2 0x6C8 JUMPI DUP1 PUSH4 0xA7BA8A39 EQ PUSH2 0x642 JUMPI DUP1 PUSH4 0xB5B946E3 EQ PUSH2 0x606 JUMPI DUP1 PUSH4 0xB7218B37 EQ PUSH2 0x5CA JUMPI DUP1 PUSH4 0xBA3F30C6 EQ PUSH2 0x55D JUMPI DUP1 PUSH4 0xBDCB9932 EQ PUSH2 0x510 JUMPI DUP1 PUSH4 0xC73EF9E8 EQ PUSH2 0x4A1 JUMPI DUP1 PUSH4 0xD5D4F0E1 EQ PUSH2 0x467 JUMPI DUP1 PUSH4 0xE1758BD8 EQ PUSH2 0x3F8 JUMPI DUP1 PUSH4 0xE4CF44BA EQ PUSH2 0x1A3 JUMPI PUSH4 0xE8A24E1D EQ PUSH2 0x12F JUMPI PUSH1 0x0 DUP1 REVERT JUMPDEST CALLVALUE PUSH2 0x19E JUMPI PUSH1 0x0 PUSH32 0xFFFFFFFFFFFFFFFFFFFFFFFFFFFFFFFFFFFFFFFFFFFFFFFFFFFFFFFFFFFFFFFC CALLDATASIZE ADD SLT PUSH2 0x19E JUMPI PUSH1 0x20 PUSH1 0x40 MLOAD PUSH20 0xFFFFFFFFFFFFFFFFFFFFFFFFFFFFFFFFFFFFFFFF PUSH32 0x0 AND DUP2 MSTORE RETURN JUMPDEST PUSH1 0x0 DUP1 REVERT JUMPDEST CALLVALUE PUSH2 0x19E JUMPI PUSH1 0x20 PUSH32 0xFFFFFFFFFFFFFFFFFFFFFFFFFFFFFFFFFFFFFFFFFFFFFFFFFFFFFFFFFFFFFFFC CALLDATASIZE ADD SLT PUSH2 0x19E JUMPI PUSH20 0xFFFFFFFFFFFFFFFFFFFFFFFFFFFFFFFFFFFFFFFF PUSH1 0x4 CALLDATALOAD DUP2 DUP2 AND SWAP2 DUP3 DUP3 SUB PUSH2 0x19E JUMPI PUSH1 0x0 SLOAD SWAP2 PUSH1 0xFF DUP4 AND ISZERO PUSH2 0x3CE JUMPI PUSH32 0xFFFFFFFFFFFFFFFFFFFFFFFFFFFFFFFFFFFFFFFFFFFFFFFFFFFFFFFFFFFFFF00 DUP1 SWAP4 AND PUSH1 0x0 SSTORE PUSH8 0xDE0B6B3A7640000 SWAP4 DUP5 PUSH1 0x4 SLOAD SUB PUSH2 0x3A4 JUMPI PUSH1 0x0 DUP1 SWAP2 PUSH1 0x4 PUSH1 0x40 MLOAD DUP1 SWAP5 DUP2 SWAP4 PUSH32 0x572B0CC00000000000000000000000000000000000000000000000000000000 DUP4 MSTORE GAS CALL SWAP1 DUP2 ISZERO PUSH2 0x398 JUMPI PUSH1 0x0 SWAP1 PUSH1 0x0 SWAP3 PUSH2 0x372 JUMPI JUMPDEST POP PUSH1 0x0 JUMPDEST DUP2 MLOAD DUP2 LT ISZERO PUSH2 0x365 JUMPI PUSH2 0x297 DUP2 DUP5 PUSH2 0x2013 JUMP JUMPDEST MLOAD PUSH2 0x2AB JUMPI JUMPDEST PUSH2 0x2A6 SWAP1 PUSH2 0x21B0 JUMP JUMPDEST PUSH2 0x284 JUMP JUMPDEST PUSH2 0x2B5 DUP2 DUP5 PUSH2 0x2013 JUMP JUMPDEST MLOAD SWAP1 PUSH7 0x6A94D74F430000 PUSH26 0x266E437520B7A58F375D1FBC14419C489FE83CAF24DBFD6B85F DUP4 GT DUP2 MUL PUSH2 0x357 JUMPI DUP9 PUSH2 0x350 SWAP2 PUSH2 0x2A6 SWAP5 MUL DIV PUSH2 0x306 DUP2 DUP10 PUSH2 0x2FC DUP7 DUP10 PUSH2 0x2013 JUMP JUMPDEST MLOAD AND DUP10 CALLER SWAP2 PUSH2 0x249C JUMP JUMPDEST PUSH2 0x327 DUP9 PUSH2 0x314 DUP6 DUP9 PUSH2 0x2013 JUMP JUMPDEST MLOAD AND SWAP2 PUSH2 0x321 DUP6 DUP10 PUSH2 0x2013 JUMP JUMPDEST MLOAD PUSH2 0x2034 JUMP JUMPDEST SWAP1 DUP8 PUSH32 0x0 SWAP2 PUSH2 0x249C JUMP JUMPDEST SWAP1 POP PUSH2 0x29D JUMP JUMPDEST PUSH4 0xBAC65E5B PUSH1 0x0 MSTORE PUSH1 0x4 PUSH1 0x1C REVERT JUMPDEST PUSH1 0x0 DUP1 SLOAD DUP8 AND PUSH1 0x1 OR SWAP1 SSTORE STOP JUMPDEST SWAP1 POP PUSH2 0x391 SWAP2 POP RETURNDATASIZE DUP1 PUSH1 0x0 DUP4 RETURNDATACOPY PUSH2 0x389 DUP2 DUP4 PUSH2 0x1D9A JUMP JUMPDEST DUP2 ADD SWAP1 PUSH2 0x1F72 JUMP JUMPDEST SWAP1 DUP7 PUSH2 0x280 JUMP JUMPDEST PUSH1 0x40 MLOAD RETURNDATASIZE PUSH1 0x0 DUP3 RETURNDATACOPY RETURNDATASIZE SWAP1 REVERT JUMPDEST PUSH1 0x4 PUSH1 0x40 MLOAD PUSH32 0xF47F74FF00000000000000000000000000000000000000000000000000000000 DUP2 MSTORE REVERT JUMPDEST PUSH1 0x4 PUSH1 0x40 MLOAD PUSH32 0x37ED32E800000000000000000000000000000000000000000000000000000000 DUP2 MSTORE REVERT JUMPDEST CALLVALUE PUSH2 0x19E JUMPI PUSH1 0x0 PUSH32 0xFFFFFFFFFFFFFFFFFFFFFFFFFFFFFFFFFFFFFFFFFFFFFFFFFFFFFFFFFFFFFFFC CALLDATASIZE ADD SLT PUSH2 0x19E JUMPI PUSH1 0x20 PUSH1 0x40 MLOAD PUSH20 0xFFFFFFFFFFFFFFFFFFFFFFFFFFFFFFFFFFFFFFFF PUSH32 0x0 AND DUP2 MSTORE RETURN JUMPDEST CALLVALUE PUSH2 0x19E JUMPI PUSH1 0x0 PUSH32 0xFFFFFFFFFFFFFFFFFFFFFFFFFFFFFFFFFFFFFFFFFFFFFFFFFFFFFFFFFFFFFFFC CALLDATASIZE ADD SLT PUSH2 0x19E JUMPI PUSH1 0x20 PUSH1 0x40 MLOAD PUSH1 0x0 DUP2 MSTORE RETURN JUMPDEST CALLVALUE PUSH2 0x19E JUMPI PUSH1 0x0 PUSH32 0xFFFFFFFFFFFFFFFFFFFFFFFFFFFFFFFFFFFFFFFFFFFFFFFFFFFFFFFFFFFFFFFC CALLDATASIZE ADD SLT PUSH2 0x19E JUMPI PUSH1 0x20 PUSH1 0x40 MLOAD PUSH20 0xFFFFFFFFFFFFFFFFFFFFFFFFFFFFFFFFFFFFFFFF PUSH32 0x0 AND DUP2 MSTORE RETURN JUMPDEST CALLVALUE PUSH2 0x19E JUMPI PUSH1 0x0 PUSH32 0xFFFFFFFFFFFFFFFFFFFFFFFFFFFFFFFFFFFFFFFFFFFFFFFFFFFFFFFFFFFFFFFC CALLDATASIZE ADD SLT PUSH2 0x19E JUMPI PUSH1 0x20 PUSH1 0x40 MLOAD PUSH20 0x1111111254EEB25477B68FB85ED929F73A960582 DUP2 MSTORE RETURN JUMPDEST CALLVALUE PUSH2 0x19E JUMPI PUSH1 0x20 PUSH32 0xFFFFFFFFFFFFFFFFFFFFFFFFFFFFFFFFFFFFFFFFFFFFFFFFFFFFFFFFFFFFFFFC CALLDATASIZE ADD SLT PUSH2 0x19E JUMPI PUSH1 0x20 PUSH2 0x5C2 PUSH20 0xFFFFFFFFFFFFFFFFFFFFFFFFFFFFFFFFFFFFFFFF PUSH2 0x5B3 PUSH1 0x4 CALLDATALOAD PUSH1 0x3 PUSH2 0x1EC3 JUMP JUMPDEST SWAP1 SLOAD SWAP1 PUSH1 0x3 SHL SHR AND ADDRESS SWAP1 PUSH2 0x253E JUMP JUMPDEST PUSH1 0x40 MLOAD SWAP1 DUP2 MSTORE RETURN JUMPDEST CALLVALUE PUSH2 0x19E JUMPI PUSH1 0x0 PUSH32 0xFFFFFFFFFFFFFFFFFFFFFFFFFFFFFFFFFFFFFFFFFFFFFFFFFFFFFFFFFFFFFFFC CALLDATASIZE ADD SLT PUSH2 0x19E JUMPI PUSH1 0x20 PUSH1 0x4 SLOAD PUSH1 0x40 MLOAD SWAP1 DUP2 MSTORE RETURN JUMPDEST CALLVALUE PUSH2 0x19E JUMPI PUSH1 0x0 PUSH32 0xFFFFFFFFFFFFFFFFFFFFFFFFFFFFFFFFFFFFFFFFFFFFFFFFFFFFFFFFFFFFFFFC CALLDATASIZE ADD SLT PUSH2 0x19E JUMPI PUSH1 0x20 PUSH1 0x5 SLOAD PUSH1 0x40 MLOAD SWAP1 DUP2 MSTORE RETURN JUMPDEST CALLVALUE PUSH2 0x19E JUMPI PUSH1 0x20 PUSH32 0xFFFFFFFFFFFFFFFFFFFFFFFFFFFFFFFFFFFFFFFFFFFFFFFFFFFFFFFFFFFFFFFC CALLDATASIZE ADD SLT PUSH2 0x19E JUMPI PUSH1 0x4 CALLDATALOAD PUSH20 0xFFFFFFFFFFFFFFFFFFFFFFFFFFFFFFFFFFFFFFFF DUP1 DUP3 AND DUP1 SWAP3 SUB PUSH2 0x19E JUMPI PUSH1 0x60 SWAP2 PUSH1 0x0 MSTORE PUSH1 0x1 PUSH1 0x20 MSTORE PUSH1 0x40 PUSH1 0x0 KECCAK256 DUP2 DUP2 SLOAD AND SWAP2 PUSH1 0x2 DUP2 PUSH1 0x1 DUP5 ADD SLOAD AND SWAP3 ADD SLOAD AND SWAP1 PUSH1 0x40 MLOAD SWAP3 DUP4 MSTORE PUSH1 0x20 DUP4 ADD MSTORE PUSH1 0x40 DUP3 ADD MSTORE RETURN JUMPDEST CALLVALUE PUSH2 0x19E JUMPI PUSH1 0x40 PUSH32 0xFFFFFFFFFFFFFFFFFFFFFFFFFFFFFFFFFFFFFFFFFFFFFFFFFFFFFFFFFFFFFFFC CALLDATASIZE ADD SLT PUSH2 0x19E JUMPI PUSH20 0xFFFFFFFFFFFFFFFFFFFFFFFFFFFFFFFFFFFFFFFF PUSH1 0x4 CALLDATALOAD AND DUP1 PUSH1 0x4 CALLDATALOAD SUB PUSH2 0x19E JUMPI PUSH8 0xFFFFFFFFFFFFFFFF PUSH1 0x24 CALLDATALOAD GT PUSH2 0x19E JUMPI CALLDATASIZE PUSH1 0x23 PUSH1 0x24 CALLDATALOAD ADD SLT ISZERO PUSH2 0x19E JUMPI PUSH8 0xFFFFFFFFFFFFFFFF PUSH1 0x24 CALLDATALOAD PUSH1 0x4 ADD CALLDATALOAD GT PUSH2 0x19E JUMPI CALLDATASIZE PUSH1 0x24 DUP1 CALLDATALOAD PUSH1 0x4 ADD CALLDATALOAD PUSH1 0x5 SHL DUP2 CALLDATALOAD ADD ADD GT PUSH2 0x19E JUMPI DUP1 PUSH1 0x0 MSTORE PUSH1 0x1 PUSH1 0x20 MSTORE PUSH1 0x40 PUSH1 0x0 KECCAK256 PUSH20 0xFFFFFFFFFFFFFFFFFFFFFFFFFFFFFFFFFFFFFFFF DUP2 SLOAD AND ISZERO PUSH2 0x12EF JUMPI PUSH1 0x40 MLOAD PUSH32 0x572B0CC00000000000000000000000000000000000000000000000000000000 DUP2 MSTORE PUSH1 0x0 DUP2 PUSH1 0x4 DUP2 DUP4 DUP8 GAS CALL DUP1 ISZERO PUSH2 0x398 JUMPI PUSH1 0x0 SWAP2 PUSH1 0x0 SWAP2 PUSH2 0x12D2 JUMPI JUMPDEST POP PUSH20 0xFFFFFFFFFFFFFFFFFFFFFFFFFFFFFFFFFFFFFFFF PUSH1 0x1 DUP5 ADD SLOAD AND SWAP2 PUSH1 0x0 SWAP5 PUSH1 0x0 JUMPDEST DUP3 MLOAD DUP2 LT ISZERO PUSH2 0xE37 JUMPI PUSH2 0x803 DUP2 DUP6 PUSH2 0x2013 JUMP JUMPDEST MLOAD PUSH2 0x811 JUMPI JUMPDEST PUSH1 0x1 ADD PUSH2 0x7F0 JUMP JUMPDEST SWAP6 PUSH2 0x84D PUSH20 0xFFFFFFFFFFFFFFFFFFFFFFFFFFFFFFFFFFFFFFFF PUSH2 0x834 DUP10 DUP7 PUSH2 0x2013 JUMP JUMPDEST MLOAD AND PUSH2 0x840 DUP10 DUP8 PUSH2 0x2013 JUMP JUMPDEST MLOAD SWAP1 ADDRESS SWAP1 PUSH1 0x4 CALLDATALOAD SWAP1 PUSH2 0x249C JUMP JUMPDEST DUP5 PUSH20 0xFFFFFFFFFFFFFFFFFFFFFFFFFFFFFFFFFFFFFFFF PUSH2 0x86D DUP10 DUP7 PUSH2 0x2013 JUMP JUMPDEST MLOAD AND EQ PUSH2 0xE1A JUMPI PUSH1 0x24 CALLDATALOAD PUSH1 0x4 ADD CALLDATALOAD DUP8 LT ISZERO PUSH2 0xDEB JUMPI PUSH32 0xFFFFFFFFFFFFFFFFFFFFFFFFFFFFFFFFFFFFFFFFFFFFFFFFFFFFFFFFFFFFFFBD PUSH1 0x24 CALLDATALOAD CALLDATASIZE SUB ADD PUSH1 0x24 DUP9 PUSH1 0x5 SHL DUP2 CALLDATALOAD ADD ADD CALLDATALOAD SLT ISZERO PUSH2 0x19E JUMPI PUSH8 0xFFFFFFFFFFFFFFFF PUSH1 0x24 DUP1 DUP10 PUSH1 0x5 SHL DUP2 CALLDATALOAD ADD ADD CALLDATALOAD DUP2 CALLDATALOAD ADD ADD CALLDATALOAD GT PUSH2 0x19E JUMPI PUSH1 0x24 DUP1 CALLDATALOAD PUSH1 0x5 DUP10 SWAP1 SHL DUP2 ADD DUP3 ADD CALLDATALOAD ADD SWAP1 DUP2 ADD CALLDATALOAD CALLDATASIZE SUB PUSH1 0x44 SWAP1 SWAP2 ADD SGT PUSH2 0x19E JUMPI PUSH20 0xFFFFFFFFFFFFFFFFFFFFFFFFFFFFFFFFFFFFFFFF PUSH2 0x917 DUP9 DUP6 PUSH2 0x2013 JUMP JUMPDEST MLOAD AND PUSH2 0x923 DUP9 DUP7 PUSH2 0x2013 JUMP JUMPDEST MLOAD PUSH1 0x24 DUP1 CALLDATALOAD PUSH1 0x5 DUP12 SWAP1 SHL DUP2 ADD DUP3 ADD CALLDATALOAD ADD SWAP1 DUP2 ADD CALLDATALOAD DUP2 ADD SUB SWAP1 PUSH2 0x140 DUP3 SLT PUSH2 0x19E JUMPI PUSH1 0xE0 PUSH32 0xFFFFFFFFFFFFFFFFFFFFFFFFFFFFFFFFFFFFFFFFFFFFFFFFFFFFFFFFFFFFFFE0 PUSH2 0x981 PUSH1 0x44 PUSH1 0x24 DUP15 PUSH1 0x5 SHL DUP2 CALLDATALOAD ADD ADD CALLDATALOAD PUSH1 0x24 CALLDATALOAD ADD ADD PUSH2 0x1EA2 JUMP JUMPDEST SWAP4 ADD SLT PUSH2 0x19E JUMPI PUSH1 0x40 MLOAD SWAP3 PUSH2 0x997 PUSH1 0xE0 DUP6 PUSH2 0x1D9A JUMP JUMPDEST PUSH2 0x9B1 PUSH1 0x64 PUSH1 0x24 DUP14 PUSH1 0x5 SHL DUP2 CALLDATALOAD ADD ADD CALLDATALOAD PUSH1 0x24 CALLDATALOAD ADD ADD PUSH2 0x1EA2 JUMP JUMPDEST DUP5 MSTORE PUSH2 0x9CD PUSH1 0x84 PUSH1 0x24 DUP14 PUSH1 0x5 SHL DUP2 CALLDATALOAD ADD ADD CALLDATALOAD PUSH1 0x24 CALLDATALOAD ADD ADD PUSH2 0x1EA2 JUMP JUMPDEST PUSH1 0x20 DUP6 ADD MSTORE PUSH2 0x9EC PUSH1 0xA4 PUSH1 0x24 DUP14 PUSH1 0x5 SHL DUP2 CALLDATALOAD ADD ADD CALLDATALOAD PUSH1 0x24 CALLDATALOAD ADD ADD PUSH2 0x1EA2 JUMP JUMPDEST PUSH1 0x40 DUP6 ADD MSTORE PUSH2 0xA0B PUSH1 0xC4 PUSH1 0x24 DUP14 PUSH1 0x5 SHL DUP2 CALLDATALOAD ADD ADD CALLDATALOAD PUSH1 0x24 CALLDATALOAD ADD ADD PUSH2 0x1EA2 JUMP JUMPDEST PUSH1 0x60 DUP6 ADD MSTORE PUSH1 0x24 DUP1 CALLDATALOAD PUSH1 0x5 DUP14 SWAP1 SHL DUP2 ADD SWAP1 SWAP2 ADD CALLDATALOAD ADD PUSH1 0xE4 DUP2 ADD CALLDATALOAD PUSH1 0x80 DUP7 ADD MSTORE PUSH2 0x104 DUP2 ADD CALLDATALOAD PUSH1 0xA0 DUP7 ADD MSTORE PUSH2 0x124 DUP2 ADD CALLDATALOAD PUSH1 0xC0 DUP7 ADD MSTORE PUSH8 0xFFFFFFFFFFFFFFFF PUSH2 0x144 SWAP1 SWAP2 ADD CALLDATALOAD GT PUSH2 0x19E JUMPI DUP11 SWAP1 PUSH8 0xFFFFFFFFFFFFFFFF PUSH2 0x164 PUSH1 0x24 PUSH2 0xA8E DUP2 CALLDATALOAD PUSH1 0x5 DUP8 SWAP1 SHL DUP2 ADD DUP4 ADD CALLDATALOAD ADD DUP1 DUP4 ADD CALLDATALOAD DUP2 ADD PUSH1 0x44 SWAP1 DUP2 ADD SWAP2 PUSH2 0x144 DUP2 ADD CALLDATALOAD ADD ADD PUSH2 0x2041 JUMP JUMPDEST SWAP5 PUSH1 0x5 SHL DUP2 CALLDATALOAD ADD ADD CALLDATALOAD PUSH1 0x24 CALLDATALOAD ADD ADD CALLDATALOAD GT PUSH2 0x19E JUMPI PUSH2 0xACD PUSH1 0x24 DUP1 CALLDATALOAD PUSH1 0x5 DUP16 SWAP1 SHL DUP2 ADD DUP3 ADD CALLDATALOAD ADD SWAP1 DUP2 ADD CALLDATALOAD DUP2 ADD PUSH1 0x44 SWAP1 DUP2 ADD SWAP2 PUSH2 0x164 DUP2 ADD CALLDATALOAD ADD ADD PUSH2 0x2041 JUMP JUMPDEST SWAP3 DUP1 PUSH1 0x80 DUP8 ADD MLOAD SUB PUSH2 0xDE0 JUMPI JUMPDEST POP PUSH20 0xFFFFFFFFFFFFFFFFFFFFFFFFFFFFFFFFFFFFFFFF DUP6 MLOAD AND DUP2 DUP2 SUB PUSH2 0xD91 JUMPI POP POP PUSH20 0xFFFFFFFFFFFFFFFFFFFFFFFFFFFFFFFFFFFFFFFF PUSH1 0x20 DUP6 ADD MLOAD AND DUP10 DUP2 SUB PUSH2 0xD41 JUMPI POP PUSH20 0xFFFFFFFFFFFFFFFFFFFFFFFFFFFFFFFFFFFFFFFF PUSH1 0x60 DUP6 ADD MLOAD AND ADDRESS DUP2 SUB PUSH2 0xD0A JUMPI POP SWAP2 PUSH2 0xC97 PUSH20 0xFFFFFFFFFFFFFFFFFFFFFFFFFFFFFFFFFFFFFFFF SWAP3 PUSH2 0xC66 PUSH1 0x40 SWAP6 PUSH2 0xB89 DUP7 DUP10 MLOAD AND PUSH20 0x1111111254EEB25477B68FB85ED929F73A960582 PUSH1 0x80 DUP12 ADD MLOAD SWAP2 PUSH2 0x2088 JUMP JUMPDEST PUSH1 0xC0 DUP8 MLOAD SWAP9 DUP10 SWAP8 DUP9 SWAP8 PUSH32 0x12AA3CAF00000000000000000000000000000000000000000000000000000000 DUP10 MSTORE AND PUSH1 0x4 DUP9 ADD MSTORE PUSH20 0xFFFFFFFFFFFFFFFFFFFFFFFFFFFFFFFFFFFFFFFF DUP2 MLOAD AND PUSH1 0x24 DUP9 ADD MSTORE PUSH20 0xFFFFFFFFFFFFFFFFFFFFFFFFFFFFFFFFFFFFFFFF PUSH1 0x20 DUP3 ADD MLOAD AND PUSH1 0x44 DUP9 ADD MSTORE PUSH20 0xFFFFFFFFFFFFFFFFFFFFFFFFFFFFFFFFFFFFFFFF DUP10 DUP3 ADD MLOAD AND PUSH1 0x64 DUP9 ADD MSTORE PUSH20 0xFFFFFFFFFFFFFFFFFFFFFFFFFFFFFFFFFFFFFFFF PUSH1 0x60 DUP3 ADD MLOAD AND PUSH1 0x84 DUP9 ADD MSTORE PUSH1 0x80 DUP2 ADD MLOAD PUSH1 0xA4 DUP9 ADD MSTORE PUSH1 0xA0 DUP2 ADD MLOAD PUSH1 0xC4 DUP9 ADD MSTORE ADD MLOAD PUSH1 0xE4 DUP7 ADD MSTORE PUSH2 0x140 PUSH2 0x104 DUP7 ADD MSTORE PUSH2 0x144 DUP6 ADD SWAP1 PUSH2 0x1E44 JUMP JUMPDEST SWAP1 PUSH32 0xFFFFFFFFFFFFFFFFFFFFFFFFFFFFFFFFFFFFFFFFFFFFFFFFFFFFFFFFFFFFFFFC DUP5 DUP4 SUB ADD PUSH2 0x124 DUP6 ADD MSTORE PUSH2 0x1E44 JUMP JUMPDEST SUB DUP2 PUSH1 0x0 PUSH20 0x1111111254EEB25477B68FB85ED929F73A960582 GAS CALL SWAP1 DUP2 ISZERO PUSH2 0x398 JUMPI PUSH1 0x0 SWAP2 PUSH2 0xCD7 JUMPI JUMPDEST POP PUSH2 0xCCE SWAP1 PUSH1 0x1 SWAP3 PUSH2 0x2027 JUMP JUMPDEST SWAP7 JUMPDEST SWAP1 POP PUSH2 0x809 JUMP JUMPDEST SWAP1 POP PUSH1 0x40 DUP2 RETURNDATASIZE PUSH1 0x40 GT PUSH2 0xD02 JUMPI JUMPDEST DUP2 PUSH2 0xCF2 PUSH1 0x40 SWAP4 DUP4 PUSH2 0x1D9A JUMP JUMPDEST DUP2 ADD SUB SLT PUSH2 0x19E JUMPI MLOAD PUSH1 0x1 PUSH2 0xCC1 JUMP JUMPDEST RETURNDATASIZE SWAP2 POP PUSH2 0xCE5 JUMP JUMPDEST PUSH1 0x44 SWAP1 PUSH1 0x40 MLOAD SWAP1 PUSH32 0x3918A0300000000000000000000000000000000000000000000000000000000 DUP3 MSTORE PUSH1 0x4 DUP3 ADD MSTORE ADDRESS PUSH1 0x24 DUP3 ADD MSTORE REVERT JUMPDEST PUSH1 0x40 MLOAD PUSH32 0x74924CB200000000000000000000000000000000000000000000000000000000 DUP2 MSTORE PUSH20 0xFFFFFFFFFFFFFFFFFFFFFFFFFFFFFFFFFFFFFFFF SWAP2 DUP3 AND PUSH1 0x4 DUP3 ADD MSTORE SWAP1 DUP11 AND PUSH1 0x24 DUP3 ADD MSTORE PUSH1 0x44 SWAP1 REVERT JUMPDEST PUSH1 0x40 MLOAD PUSH32 0xBF3A09E600000000000000000000000000000000000000000000000000000000 DUP2 MSTORE PUSH20 0xFFFFFFFFFFFFFFFFFFFFFFFFFFFFFFFFFFFFFFFF SWAP2 DUP3 AND PUSH1 0x4 DUP3 ADD MSTORE SWAP2 AND PUSH1 0x24 DUP3 ADD MSTORE PUSH1 0x44 SWAP1 REVERT JUMPDEST PUSH1 0x80 DUP7 ADD MSTORE DUP13 PUSH2 0xADA JUMP JUMPDEST PUSH32 0x4E487B7100000000000000000000000000000000000000000000000000000000 PUSH1 0x0 MSTORE PUSH1 0x32 PUSH1 0x4 MSTORE PUSH1 0x24 PUSH1 0x0 REVERT JUMPDEST PUSH2 0xE31 PUSH1 0x1 SWAP2 PUSH2 0xE2A DUP10 DUP8 PUSH2 0x2013 JUMP JUMPDEST MLOAD SWAP1 PUSH2 0x2027 JUMP JUMPDEST SWAP7 PUSH2 0xCD0 JUMP JUMPDEST POP DUP5 DUP5 DUP8 DUP1 ISZERO PUSH2 0x12A8 JUMPI PUSH20 0xFFFFFFFFFFFFFFFFFFFFFFFFFFFFFFFFFFFFFFFF DUP4 SLOAD AND PUSH1 0x40 MLOAD SWAP1 PUSH32 0x70A0823100000000000000000000000000000000000000000000000000000000 DUP3 MSTORE PUSH1 0x4 DUP3 ADD MSTORE PUSH1 0x20 DUP2 PUSH1 0x24 DUP2 DUP7 GAS STATICCALL SWAP1 DUP2 ISZERO PUSH2 0x398 JUMPI PUSH1 0x0 SWAP2 PUSH2 0x1276 JUMPI JUMPDEST POP PUSH2 0x4E1B SWAP1 DUP1 DUP3 MUL SWAP2 DUP3 DIV DUP2 SUB PUSH2 0x1206 JUMPI PUSH2 0x2710 DUP4 MUL SWAP1 PUSH32 0xFFFFFFFFFFFFFFFFFFFFFFFFFFFFFFFFFFFFFFFFFFFFFFFFFFFFFFFFFFFFD8F0 DUP5 DUP4 DIV ADD PUSH2 0x1206 JUMPI PUSH2 0xEE6 SWAP2 PUSH2 0x244E JUMP JUMPDEST SWAP1 DUP2 PUSH1 0x2 SHL SWAP2 DUP1 DUP4 DIV PUSH1 0x4 EQ SWAP1 ISZERO OR ISZERO PUSH2 0x1206 JUMPI PUSH2 0x270B SWAP2 DUP3 DUP2 MUL SWAP3 DUP2 DUP5 DIV EQ SWAP1 ISZERO OR ISZERO PUSH2 0x1206 JUMPI PUSH2 0xFBD DUP2 PUSH2 0xF2A PUSH1 0x2 SWAP5 PUSH2 0xF25 DUP4 PUSH2 0x4E16 SWAP7 PUSH2 0x244E JUMP JUMPDEST PUSH2 0x2027 JUMP JUMPDEST DUP1 PUSH17 0xFFFFFFFFFFFFFFFFFFFFFFFFFFFFFFFFFF LT PUSH1 0x7 SHL DUP2 DUP2 SHR PUSH9 0xFFFFFFFFFFFFFFFFFF LT PUSH1 0x6 SHL OR DUP2 DUP2 SHR PUSH5 0xFFFFFFFFFF LT PUSH1 0x5 SHL OR DUP2 DUP2 SHR PUSH3 0xFFFFFF LT PUSH1 0x4 SHL OR PUSH1 0xB5 PUSH3 0x10000 DUP4 DUP4 SHR ADD SWAP2 PUSH1 0x1 SHR SHL MUL PUSH1 0x12 SHR DUP1 DUP3 DIV ADD PUSH1 0x1 SHR DUP1 DUP3 DIV ADD PUSH1 0x1 SHR DUP1 DUP3 DIV ADD PUSH1 0x1 SHR DUP1 DUP3 DIV ADD PUSH1 0x1 SHR DUP1 DUP3 DIV ADD PUSH1 0x1 SHR DUP1 DUP3 DIV ADD PUSH1 0x1 SHR DUP1 DUP3 DIV ADD PUSH1 0x1 SHR DUP1 DUP1 SWAP3 DIV LT SWAP1 SUB PUSH2 0x2034 JUMP JUMPDEST DIV SWAP4 ADD SWAP3 PUSH20 0xFFFFFFFFFFFFFFFFFFFFFFFFFFFFFFFFFFFFFFFF DUP5 SLOAD AND SWAP3 PUSH20 0x9C12939390052919AF3155F41BF4160FD3666A6F PUSH2 0xFFA DUP4 DUP3 DUP5 PUSH2 0x2088 JUMP JUMPDEST PUSH1 0x40 MLOAD SWAP5 PUSH32 0x13DCFC5900000000000000000000000000000000000000000000000000000000 DUP7 MSTORE DUP4 PUSH1 0x4 DUP8 ADD MSTORE PUSH1 0x0 PUSH1 0x24 DUP8 ADD MSTORE DUP3 PUSH1 0x44 DUP8 ADD MSTORE PUSH1 0x64 DUP7 ADD MSTORE PUSH1 0x0 PUSH1 0x84 DUP7 ADD MSTORE ADDRESS PUSH1 0xA4 DUP7 ADD MSTORE TIMESTAMP PUSH1 0xC4 DUP7 ADD MSTORE PUSH1 0x0 DUP6 PUSH1 0xE4 DUP2 DUP4 DUP6 GAS CALL SWAP5 DUP6 ISZERO PUSH2 0x398 JUMPI PUSH1 0x0 SWAP6 PUSH2 0x1235 JUMPI JUMPDEST POP DUP5 MLOAD SWAP1 PUSH32 0xFFFFFFFFFFFFFFFFFFFFFFFFFFFFFFFFFFFFFFFFFFFFFFFFFFFFFFFFFFFFFFFF DUP3 ADD SWAP2 DUP3 GT PUSH2 0x1206 JUMPI PUSH2 0x10C7 PUSH2 0x124 SWAP5 PUSH20 0xFFFFFFFFFFFFFFFFFFFFFFFFFFFFFFFFFFFFFFFF PUSH2 0x10BD PUSH1 0x0 SWAP6 PUSH1 0x60 SWAP11 PUSH2 0x2013 JUMP JUMPDEST MLOAD SWAP10 SLOAD AND SWAP7 PUSH2 0x2034 JUMP JUMPDEST SWAP7 PUSH2 0x10D3 DUP9 DUP4 DUP7 PUSH2 0x2088 JUMP JUMPDEST PUSH2 0x10DE DUP2 DUP4 DUP9 PUSH2 0x2088 JUMP JUMPDEST PUSH2 0x10F8 PUSH1 0x4 SLOAD SWAP9 PUSH2 0x10EF DUP11 DUP3 PUSH2 0x2461 JUMP JUMPDEST SWAP1 SUB SWAP9 DUP3 PUSH2 0x2461 JUMP JUMPDEST SWAP1 SUB PUSH1 0x40 MLOAD SWAP8 DUP9 SWAP7 DUP8 SWAP6 PUSH32 0x5A47DDC300000000000000000000000000000000000000000000000000000000 DUP8 MSTORE PUSH1 0x4 DUP8 ADD MSTORE PUSH1 0x24 DUP7 ADD MSTORE DUP4 PUSH1 0x44 DUP7 ADD MSTORE PUSH1 0x64 DUP6 ADD MSTORE PUSH1 0x84 DUP5 ADD MSTORE DUP2 PUSH1 0xA4 DUP5 ADD MSTORE DUP2 PUSH1 0xC4 DUP5 ADD MSTORE DUP8 PUSH1 0xE4 DUP5 ADD MSTORE TIMESTAMP PUSH2 0x104 DUP5 ADD MSTORE GAS CALL SWAP1 DUP2 ISZERO PUSH2 0x398 JUMPI PUSH1 0x0 SWAP2 PUSH2 0x11D2 JUMPI JUMPDEST POP DUP2 EXTCODESIZE ISZERO PUSH2 0x19E JUMPI PUSH1 0x0 DUP1 SWAP3 PUSH1 0x24 PUSH1 0x40 MLOAD DUP1 SWAP6 DUP2 SWAP4 PUSH32 0x81F5B6F400000000000000000000000000000000000000000000000000000000 DUP4 MSTORE DUP7 PUSH1 0x4 DUP5 ADD MSTORE GAS CALL SWAP2 DUP3 ISZERO PUSH2 0x398 JUMPI PUSH1 0x20 SWAP3 PUSH2 0x11C1 JUMPI JUMPDEST POP PUSH1 0x40 MLOAD SWAP1 DUP2 MSTORE RETURN JUMPDEST PUSH1 0x0 PUSH2 0x11CC SWAP2 PUSH2 0x1D9A JUMP JUMPDEST DUP3 PUSH2 0x11B8 JUMP JUMPDEST SWAP1 POP PUSH1 0x60 DUP2 RETURNDATASIZE DUP3 GT PUSH2 0x11FE JUMPI JUMPDEST DUP2 PUSH2 0x11EC PUSH1 0x60 SWAP4 DUP4 PUSH2 0x1D9A JUMP JUMPDEST DUP2 ADD SUB SLT PUSH2 0x19E JUMPI PUSH1 0x40 ADD MLOAD DUP3 PUSH2 0x1169 JUMP JUMPDEST RETURNDATASIZE SWAP2 POP PUSH2 0x11DF JUMP JUMPDEST PUSH32 0x4E487B7100000000000000000000000000000000000000000000000000000000 PUSH1 0x0 MSTORE PUSH1 0x11 PUSH1 0x4 MSTORE PUSH1 0x24 PUSH1 0x0 REVERT JUMPDEST SWAP1 SWAP5 POP RETURNDATASIZE DUP1 PUSH1 0x0 DUP4 RETURNDATACOPY PUSH2 0x1248 DUP2 DUP4 PUSH2 0x1D9A JUMP JUMPDEST DUP2 ADD PUSH1 0x20 DUP3 DUP3 SUB SLT PUSH2 0x19E JUMPI DUP2 MLOAD PUSH8 0xFFFFFFFFFFFFFFFF DUP2 GT PUSH2 0x19E JUMPI PUSH2 0x126F SWAP3 ADD PUSH2 0x1F14 JUMP JUMPDEST SWAP4 DUP8 PUSH2 0x1065 JUMP JUMPDEST SWAP1 POP PUSH1 0x20 DUP2 RETURNDATASIZE PUSH1 0x20 GT PUSH2 0x12A0 JUMPI JUMPDEST DUP2 PUSH2 0x1291 PUSH1 0x20 SWAP4 DUP4 PUSH2 0x1D9A JUMP JUMPDEST DUP2 ADD SUB SLT PUSH2 0x19E JUMPI MLOAD DUP6 PUSH2 0xE9D JUMP JUMPDEST RETURNDATASIZE SWAP2 POP PUSH2 0x1284 JUMP JUMPDEST PUSH1 0x4 PUSH1 0x40 MLOAD PUSH32 0x496EE71B00000000000000000000000000000000000000000000000000000000 DUP2 MSTORE REVERT JUMPDEST SWAP1 POP PUSH2 0x12E9 SWAP2 POP RETURNDATASIZE DUP1 PUSH1 0x0 DUP4 RETURNDATACOPY PUSH2 0x389 DUP2 DUP4 PUSH2 0x1D9A JUMP JUMPDEST DUP5 PUSH2 0x7CD JUMP JUMPDEST PUSH1 0x24 PUSH1 0x40 MLOAD PUSH32 0xCE9B924B00000000000000000000000000000000000000000000000000000000 DUP2 MSTORE CALLER PUSH1 0x4 DUP3 ADD MSTORE REVERT JUMPDEST CALLVALUE PUSH2 0x19E JUMPI PUSH1 0x0 PUSH32 0xFFFFFFFFFFFFFFFFFFFFFFFFFFFFFFFFFFFFFFFFFFFFFFFFFFFFFFFFFFFFFFFC CALLDATASIZE ADD SLT PUSH2 0x19E JUMPI PUSH1 0x0 SLOAD PUSH1 0xFF DUP2 AND ISZERO PUSH2 0x3CE JUMPI PUSH1 0x1 SWAP1 PUSH32 0xFFFFFFFFFFFFFFFFFFFFFFFFFFFFFFFFFFFFFFFFFFFFFFFFFFFFFFFFFFFFFF00 DUP1 SWAP2 AND PUSH1 0x0 SSTORE PUSH2 0x138E PUSH1 0x3 PUSH2 0x233B JUMP JUMPDEST PUSH1 0x0 DUP1 JUMPDEST DUP3 MLOAD DUP2 LT ISZERO PUSH2 0x141C JUMPI PUSH20 0xFFFFFFFFFFFFFFFFFFFFFFFFFFFFFFFFFFFFFFFF PUSH2 0x13C6 ADDRESS DUP3 PUSH2 0x13BF DUP6 DUP9 PUSH2 0x2013 JUMP JUMPDEST MLOAD AND PUSH2 0x253E JUMP JUMPDEST SWAP1 DUP2 PUSH2 0x13D6 JUMPI JUMPDEST POP POP DUP5 ADD PUSH2 0x1392 JUMP JUMPDEST SWAP3 PUSH2 0x1413 DUP8 SWAP4 SWAP5 SWAP3 DUP5 SWAP4 PUSH2 0x13EA DUP8 DUP10 PUSH2 0x2013 JUMP JUMPDEST MLOAD AND PUSH32 0x0 SWAP1 PUSH2 0x24F5 JUMP JUMPDEST ADD SWAP2 SWAP1 DUP7 PUSH2 0x13CD JUMP JUMPDEST DUP5 DUP5 PUSH32 0x16A9FD824A632BA02AF308C1F7597F156FA9EC25B50BF207E0C0C34D28D27AB6 PUSH1 0x60 DUP6 TIMESTAMP PUSH1 0x5 SSTORE PUSH1 0x40 MLOAD SWAP1 TIMESTAMP DUP3 MSTORE CALLER PUSH1 0x20 DUP4 ADD MSTORE PUSH1 0x40 DUP3 ADD MSTORE LOG1 PUSH1 0x0 SLOAD AND OR PUSH1 0x0 SSTORE PUSH1 0x0 DUP1 RETURN JUMPDEST CALLVALUE PUSH2 0x19E JUMPI PUSH1 0x20 PUSH32 0xFFFFFFFFFFFFFFFFFFFFFFFFFFFFFFFFFFFFFFFFFFFFFFFFFFFFFFFFFFFFFFFC CALLDATASIZE ADD SLT PUSH2 0x19E JUMPI PUSH1 0x4 CALLDATALOAD PUSH20 0xFFFFFFFFFFFFFFFFFFFFFFFFFFFFFFFFFFFFFFFF DUP2 AND DUP2 SUB PUSH2 0x19E JUMPI PUSH2 0x5C2 PUSH1 0x20 SWAP2 ADDRESS SWAP1 PUSH2 0x253E JUMP JUMPDEST CALLVALUE PUSH2 0x19E JUMPI PUSH1 0x20 PUSH32 0xFFFFFFFFFFFFFFFFFFFFFFFFFFFFFFFFFFFFFFFFFFFFFFFFFFFFFFFFFFFFFFFC CALLDATASIZE ADD SLT PUSH2 0x19E JUMPI PUSH1 0x4 CALLDATALOAD PUSH20 0xFFFFFFFFFFFFFFFFFFFFFFFFFFFFFFFFFFFFFFFF DUP2 AND DUP2 SUB PUSH2 0x19E JUMPI PUSH2 0x1519 PUSH2 0x2230 JUMP JUMPDEST PUSH2 0x1523 ADDRESS DUP3 PUSH2 0x253E JUMP JUMPDEST DUP1 PUSH2 0x1566 JUMPI JUMPDEST TIMESTAMP PUSH1 0x5 SSTORE PUSH32 0x16A9FD824A632BA02AF308C1F7597F156FA9EC25B50BF207E0C0C34D28D27AB6 PUSH1 0x60 PUSH1 0x40 MLOAD TIMESTAMP DUP2 MSTORE CALLER PUSH1 0x20 DUP3 ADD MSTORE PUSH1 0x1 PUSH1 0x40 DUP3 ADD MSTORE LOG1 STOP JUMPDEST PUSH2 0x1591 SWAP2 PUSH32 0x0 SWAP1 PUSH2 0x24F5 JUMP JUMPDEST DUP1 DUP1 PUSH2 0x1529 JUMP JUMPDEST CALLVALUE PUSH2 0x19E JUMPI PUSH1 0x20 PUSH32 0xFFFFFFFFFFFFFFFFFFFFFFFFFFFFFFFFFFFFFFFFFFFFFFFFFFFFFFFFFFFFFFFC CALLDATASIZE ADD SLT PUSH2 0x19E JUMPI PUSH1 0x4 CALLDATALOAD PUSH1 0x2 SLOAD DUP2 LT ISZERO PUSH2 0x19E JUMPI PUSH20 0xFFFFFFFFFFFFFFFFFFFFFFFFFFFFFFFFFFFFFFFF PUSH2 0x15F6 PUSH1 0x20 SWAP3 PUSH1 0x2 PUSH2 0x1EC3 JUMP JUMPDEST SWAP2 SWAP1 SLOAD PUSH1 0x40 MLOAD SWAP3 PUSH1 0x3 SHL SHR AND DUP2 MSTORE RETURN JUMPDEST CALLVALUE PUSH2 0x19E JUMPI PUSH1 0x0 PUSH32 0xFFFFFFFFFFFFFFFFFFFFFFFFFFFFFFFFFFFFFFFFFFFFFFFFFFFFFFFFFFFFFFFC CALLDATASIZE ADD SLT PUSH2 0x19E JUMPI PUSH1 0x20 PUSH1 0x40 MLOAD PUSH7 0x6A94D74F430000 DUP2 MSTORE RETURN JUMPDEST CALLVALUE PUSH2 0x19E JUMPI PUSH1 0x0 PUSH32 0xFFFFFFFFFFFFFFFFFFFFFFFFFFFFFFFFFFFFFFFFFFFFFFFFFFFFFFFFFFFFFFFC CALLDATASIZE ADD SLT PUSH2 0x19E JUMPI PUSH1 0x20 PUSH1 0x2 SLOAD PUSH1 0x40 MLOAD SWAP1 DUP2 MSTORE RETURN JUMPDEST CALLVALUE PUSH2 0x19E JUMPI PUSH1 0x20 DUP1 PUSH32 0xFFFFFFFFFFFFFFFFFFFFFFFFFFFFFFFFFFFFFFFFFFFFFFFFFFFFFFFFFFFFFFFC CALLDATASIZE ADD SLT PUSH2 0x19E JUMPI PUSH1 0x4 CALLDATALOAD SWAP1 PUSH20 0xFFFFFFFFFFFFFFFFFFFFFFFFFFFFFFFFFFFFFFFF DUP1 DUP4 AND DUP1 DUP5 SUB PUSH2 0x19E JUMPI PUSH2 0x16DD PUSH2 0x2230 JUMP JUMPDEST DUP1 PUSH1 0x0 MSTORE PUSH1 0x1 DUP4 MSTORE PUSH1 0x40 PUSH1 0x0 KECCAK256 PUSH1 0x40 MLOAD PUSH2 0x16F8 PUSH1 0x60 DUP3 PUSH2 0x1D9A JUMP JUMPDEST PUSH1 0x40 DUP5 PUSH1 0x2 DUP2 DUP6 SLOAD AND SWAP5 DUP6 DUP6 MSTORE DUP3 PUSH1 0x1 DUP3 ADD SLOAD AND DUP10 DUP7 ADD MSTORE ADD SLOAD AND SWAP2 ADD MSTORE PUSH2 0x1A54 JUMPI PUSH1 0x40 MLOAD SWAP2 PUSH32 0x6F307DC300000000000000000000000000000000000000000000000000000000 DUP4 MSTORE DUP4 DUP4 PUSH1 0x4 DUP2 DUP6 GAS STATICCALL SWAP3 DUP4 ISZERO PUSH2 0x398 JUMPI PUSH1 0x0 SWAP4 PUSH2 0x1A1D JUMPI JUMPDEST POP DUP1 DUP4 AND PUSH1 0x40 MLOAD SWAP3 PUSH32 0xDFE168100000000000000000000000000000000000000000000000000000000 DUP5 MSTORE DUP6 DUP5 PUSH1 0x4 DUP2 DUP6 GAS STATICCALL SWAP4 DUP5 ISZERO PUSH2 0x398 JUMPI PUSH1 0x0 SWAP5 PUSH2 0x19E6 JUMPI JUMPDEST POP PUSH1 0x40 MLOAD SWAP3 PUSH32 0xD21220A700000000000000000000000000000000000000000000000000000000 DUP5 MSTORE DUP7 DUP5 PUSH1 0x4 DUP2 DUP7 GAS STATICCALL SWAP4 DUP5 ISZERO PUSH2 0x398 JUMPI PUSH1 0x0 SWAP5 PUSH2 0x1982 JUMPI JUMPDEST POP SWAP1 PUSH32 0xAABA566DAAC618884A3651A227AED179A85936588F933DE535762F4A9AAAE316 SWAP7 DUP3 DUP7 SWAP6 SWAP5 SWAP4 PUSH2 0x18C0 SWAP8 AND PUSH20 0x3C8B650257CFB5F272F799F5E2B4E65093A11A05 SWAP1 DUP2 DUP2 EQ DUP1 SWAP3 DUP2 ISZERO PUSH2 0x1976 JUMPI JUMPDEST POP ISZERO PUSH2 0x1906 JUMPI POP ISZERO PUSH2 0x18FA JUMPI PUSH1 0x2 PUSH2 0x18BB SWAP6 JUMPDEST SWAP7 SWAP5 JUMPDEST PUSH1 0x40 MLOAD SWAP1 PUSH2 0x184E PUSH1 0x60 DUP4 PUSH2 0x1D9A JUMP JUMPDEST DUP2 MSTORE PUSH1 0x1 DUP5 DUP3 ADD SWAP5 DUP5 DUP9 AND DUP7 MSTORE PUSH1 0x40 DUP4 ADD SWAP7 DUP6 DUP12 AND DUP9 MSTORE PUSH1 0x0 MSTORE MSTORE DUP3 PUSH1 0x40 PUSH1 0x0 KECCAK256 SWAP2 MLOAD AND SWAP4 PUSH32 0xFFFFFFFFFFFFFFFFFFFFFFFF0000000000000000000000000000000000000000 SWAP5 DUP6 DUP4 SLOAD AND OR DUP3 SSTORE DUP4 PUSH1 0x1 DUP4 ADD SWAP2 MLOAD AND DUP6 DUP3 SLOAD AND OR SWAP1 SSTORE ADD SWAP3 MLOAD AND SWAP1 DUP3 SLOAD AND OR SWAP1 SSTORE PUSH2 0x23A2 JUMP JUMPDEST PUSH2 0x23A2 JUMP JUMPDEST PUSH2 0x18CB DUP4 PUSH1 0x2 PUSH2 0x21DD JUMP JUMPDEST PUSH1 0x2 SLOAD PUSH1 0x40 DUP1 MLOAD PUSH20 0xFFFFFFFFFFFFFFFFFFFFFFFFFFFFFFFFFFFFFFFF SWAP6 DUP7 AND DUP2 MSTORE SWAP3 SWAP1 SWAP5 AND PUSH1 0x20 DUP4 ADD MSTORE SWAP3 SWAP1 LOG2 STOP JUMPDEST PUSH1 0x2 PUSH2 0x18BB SWAP6 SWAP7 PUSH2 0x183C JUMP JUMPDEST SWAP1 POP DUP2 PUSH32 0x0 AND DUP1 SWAP2 EQ DUP1 SWAP2 DUP2 ISZERO PUSH2 0x196A JUMPI JUMPDEST POP ISZERO PUSH2 0x195C JUMPI ISZERO PUSH2 0x1950 JUMPI PUSH1 0x2 PUSH2 0x18BB SWAP6 JUMPDEST SWAP7 SWAP5 PUSH2 0x183F JUMP JUMPDEST PUSH1 0x2 PUSH2 0x18BB SWAP6 SWAP7 PUSH2 0x1949 JUMP JUMPDEST POP PUSH1 0x2 PUSH2 0x18BB SWAP6 SWAP7 SWAP5 PUSH2 0x183F JUMP JUMPDEST SWAP1 POP DUP3 DUP8 AND EQ DUP13 PUSH2 0x1937 JUMP JUMPDEST SWAP1 POP DUP4 DUP9 AND EQ DUP14 PUSH2 0x1829 JUMP JUMPDEST SWAP5 SWAP4 POP SWAP2 SWAP1 DUP7 DUP6 DUP2 RETURNDATASIZE DUP4 GT PUSH2 0x19DF JUMPI JUMPDEST PUSH2 0x199C DUP2 DUP4 PUSH2 0x1D9A JUMP JUMPDEST DUP2 ADD SUB SLT PUSH2 0x19E JUMPI PUSH32 0xAABA566DAAC618884A3651A227AED179A85936588F933DE535762F4A9AAAE316 SWAP7 PUSH2 0x19D2 PUSH2 0x18C0 SWAP7 PUSH2 0x1EF3 JUMP JUMPDEST SWAP5 SWAP6 POP SWAP7 SWAP3 SWAP1 SWAP2 SWAP3 PUSH2 0x17D9 JUMP JUMPDEST POP RETURNDATASIZE PUSH2 0x1992 JUMP JUMPDEST SWAP1 SWAP4 POP DUP6 DUP2 DUP2 RETURNDATASIZE DUP4 GT PUSH2 0x1A16 JUMPI JUMPDEST PUSH2 0x19FE DUP2 DUP4 PUSH2 0x1D9A JUMP JUMPDEST DUP2 ADD SUB SLT PUSH2 0x19E JUMPI PUSH2 0x1A0F SWAP1 PUSH2 0x1EF3 JUMP JUMPDEST SWAP3 DUP8 PUSH2 0x179A JUMP JUMPDEST POP RETURNDATASIZE PUSH2 0x19F4 JUMP JUMPDEST SWAP1 SWAP3 POP DUP4 DUP2 DUP2 RETURNDATASIZE DUP4 GT PUSH2 0x1A4D JUMPI JUMPDEST PUSH2 0x1A35 DUP2 DUP4 PUSH2 0x1D9A JUMP JUMPDEST DUP2 ADD SUB SLT PUSH2 0x19E JUMPI PUSH2 0x1A46 SWAP1 PUSH2 0x1EF3 JUMP JUMPDEST SWAP2 DUP6 PUSH2 0x1758 JUMP JUMPDEST POP RETURNDATASIZE PUSH2 0x1A2B JUMP JUMPDEST PUSH1 0x24 SWAP1 PUSH1 0x40 MLOAD SWAP1 PUSH32 0x769200DD00000000000000000000000000000000000000000000000000000000 DUP3 MSTORE PUSH1 0x4 DUP3 ADD MSTORE REVERT JUMPDEST CALLVALUE PUSH2 0x19E JUMPI PUSH1 0x20 PUSH32 0xFFFFFFFFFFFFFFFFFFFFFFFFFFFFFFFFFFFFFFFFFFFFFFFFFFFFFFFFFFFFFFFC CALLDATASIZE ADD SLT PUSH2 0x19E JUMPI PUSH1 0x4 CALLDATALOAD PUSH2 0x1ABF PUSH2 0x2230 JUMP JUMPDEST PUSH8 0xDE0B6B3A7640000 DUP1 DUP3 GT DUP1 ISZERO PUSH2 0x1B4C JUMPI JUMPDEST PUSH2 0x1B0F JUMPI POP DUP1 PUSH1 0x4 SSTORE PUSH1 0x40 MLOAD SWAP1 DUP1 DUP3 MSTORE PUSH1 0x20 DUP3 ADD MSTORE PUSH32 0xA1367AA3830E872CA7D226920B1BE2DCD9B6EBE0844A6F86C22D717A34B7EF02 PUSH1 0x40 CALLER SWAP3 LOG2 STOP JUMPDEST PUSH1 0x64 SWAP2 PUSH1 0x40 MLOAD SWAP2 PUSH32 0x2F753CF000000000000000000000000000000000000000000000000000000000 DUP4 MSTORE PUSH1 0x0 PUSH1 0x4 DUP5 ADD MSTORE PUSH1 0x24 DUP4 ADD MSTORE PUSH1 0x44 DUP3 ADD MSTORE REVERT JUMPDEST POP PUSH1 0x0 PUSH2 0x1AD2 JUMP JUMPDEST CALLVALUE PUSH2 0x19E JUMPI PUSH1 0x20 PUSH32 0xFFFFFFFFFFFFFFFFFFFFFFFFFFFFFFFFFFFFFFFFFFFFFFFFFFFFFFFFFFFFFFFC CALLDATASIZE ADD SLT PUSH2 0x19E JUMPI PUSH1 0x4 CALLDATALOAD PUSH20 0xFFFFFFFFFFFFFFFFFFFFFFFFFFFFFFFFFFFFFFFF DUP2 AND DUP2 SUB PUSH2 0x19E JUMPI PUSH2 0x1BAF SWAP1 PUSH2 0x18BB PUSH2 0x2230 JUMP JUMPDEST STOP JUMPDEST CALLVALUE PUSH2 0x19E JUMPI PUSH1 0x0 PUSH32 0xFFFFFFFFFFFFFFFFFFFFFFFFFFFFFFFFFFFFFFFFFFFFFFFFFFFFFFFFFFFFFFFC CALLDATASIZE ADD SLT PUSH2 0x19E JUMPI PUSH1 0x20 PUSH1 0x3 SLOAD PUSH1 0x40 MLOAD SWAP1 DUP2 MSTORE RETURN JUMPDEST CALLVALUE PUSH2 0x19E JUMPI PUSH1 0x20 PUSH32 0xFFFFFFFFFFFFFFFFFFFFFFFFFFFFFFFFFFFFFFFFFFFFFFFFFFFFFFFFFFFFFFFC CALLDATASIZE ADD SLT PUSH2 0x19E JUMPI PUSH1 0x4 CALLDATALOAD PUSH1 0x3 SLOAD DUP2 LT ISZERO PUSH2 0x19E JUMPI PUSH20 0xFFFFFFFFFFFFFFFFFFFFFFFFFFFFFFFFFFFFFFFF PUSH2 0x1C4B PUSH1 0x20 SWAP3 PUSH1 0x3 PUSH2 0x1EC3 JUMP JUMPDEST SWAP1 SLOAD SWAP1 PUSH1 0x3 SHL SHR AND PUSH1 0x40 MLOAD SWAP1 DUP2 MSTORE RETURN JUMPDEST CALLVALUE PUSH2 0x19E JUMPI PUSH1 0x20 PUSH32 0xFFFFFFFFFFFFFFFFFFFFFFFFFFFFFFFFFFFFFFFFFFFFFFFFFFFFFFFFFFFFFFFC CALLDATASIZE ADD SLT PUSH2 0x19E JUMPI PUSH1 0x4 CALLDATALOAD PUSH20 0xFFFFFFFFFFFFFFFFFFFFFFFFFFFFFFFFFFFFFFFF DUP2 AND DUP2 SUB PUSH2 0x19E JUMPI PUSH2 0x1CB2 PUSH2 0x2230 JUMP JUMPDEST PUSH2 0x1CBC ADDRESS DUP3 PUSH2 0x253E JUMP JUMPDEST DUP1 PUSH2 0x1CC3 JUMPI STOP JUMPDEST PUSH2 0x1BAF SWAP2 CALLER SWAP1 PUSH2 0x24F5 JUMP JUMPDEST CALLVALUE PUSH2 0x19E JUMPI PUSH1 0x0 PUSH32 0xFFFFFFFFFFFFFFFFFFFFFFFFFFFFFFFFFFFFFFFFFFFFFFFFFFFFFFFFFFFFFFFC CALLDATASIZE ADD SLT PUSH2 0x19E JUMPI PUSH1 0x20 PUSH1 0x40 MLOAD PUSH8 0xDE0B6B3A7640000 DUP2 MSTORE RETURN JUMPDEST CALLVALUE PUSH2 0x19E JUMPI PUSH1 0x0 PUSH32 0xFFFFFFFFFFFFFFFFFFFFFFFFFFFFFFFFFFFFFFFFFFFFFFFFFFFFFFFFFFFFFFFC CALLDATASIZE ADD SLT PUSH2 0x19E JUMPI PUSH2 0x1D96 PUSH2 0x1D4B PUSH1 0x1E PUSH2 0x1E0A JUMP JUMPDEST PUSH2 0x1D58 PUSH1 0x40 MLOAD SWAP2 DUP3 PUSH2 0x1D9A JUMP JUMPDEST PUSH1 0x1E DUP2 MSTORE PUSH32 0x4379676E7573204861727665737465723A2056454C4F20526577617264730000 PUSH1 0x20 DUP3 ADD MSTORE PUSH1 0x40 MLOAD SWAP2 DUP3 SWAP2 PUSH1 0x20 DUP4 MSTORE PUSH1 0x20 DUP4 ADD SWAP1 PUSH2 0x1E44 JUMP JUMPDEST SUB SWAP1 RETURN JUMPDEST SWAP1 PUSH1 0x1F PUSH32 0xFFFFFFFFFFFFFFFFFFFFFFFFFFFFFFFFFFFFFFFFFFFFFFFFFFFFFFFFFFFFFFE0 SWAP2 ADD AND DUP2 ADD SWAP1 DUP2 LT PUSH8 0xFFFFFFFFFFFFFFFF DUP3 GT OR PUSH2 0x1DDB JUMPI PUSH1 0x40 MSTORE JUMP JUMPDEST PUSH32 0x4E487B7100000000000000000000000000000000000000000000000000000000 PUSH1 0x0 MSTORE PUSH1 0x41 PUSH1 0x4 MSTORE PUSH1 0x24 PUSH1 0x0 REVERT JUMPDEST PUSH8 0xFFFFFFFFFFFFFFFF DUP2 GT PUSH2 0x1DDB JUMPI PUSH1 0x1F ADD PUSH32 0xFFFFFFFFFFFFFFFFFFFFFFFFFFFFFFFFFFFFFFFFFFFFFFFFFFFFFFFFFFFFFFE0 AND PUSH1 0x20 ADD SWAP1 JUMP JUMPDEST SWAP2 SWAP1 DUP3 MLOAD SWAP3 DUP4 DUP3 MSTORE PUSH1 0x0 JUMPDEST DUP5 DUP2 LT PUSH2 0x1E8E JUMPI POP POP PUSH32 0xFFFFFFFFFFFFFFFFFFFFFFFFFFFFFFFFFFFFFFFFFFFFFFFFFFFFFFFFFFFFFFE0 PUSH1 0x1F DUP5 PUSH1 0x0 PUSH1 0x20 DUP1 SWAP7 SWAP8 DUP7 ADD ADD MSTORE ADD AND ADD ADD SWAP1 JUMP JUMPDEST PUSH1 0x20 DUP2 DUP4 ADD DUP2 ADD MLOAD DUP5 DUP4 ADD DUP3 ADD MSTORE ADD PUSH2 0x1E4F JUMP JUMPDEST CALLDATALOAD SWAP1 PUSH20 0xFFFFFFFFFFFFFFFFFFFFFFFFFFFFFFFFFFFFFFFF DUP3 AND DUP3 SUB PUSH2 0x19E JUMPI JUMP JUMPDEST DUP1 SLOAD DUP3 LT ISZERO PUSH2 0xDEB JUMPI PUSH1 0x0 MSTORE PUSH1 0x20 PUSH1 0x0 KECCAK256 ADD SWAP1 PUSH1 0x0 SWAP1 JUMP JUMPDEST PUSH8 0xFFFFFFFFFFFFFFFF DUP2 GT PUSH2 0x1DDB JUMPI PUSH1 0x5 SHL PUSH1 0x20 ADD SWAP1 JUMP JUMPDEST MLOAD SWAP1 PUSH20 0xFFFFFFFFFFFFFFFFFFFFFFFFFFFFFFFFFFFFFFFF DUP3 AND DUP3 SUB PUSH2 0x19E JUMPI JUMP JUMPDEST DUP2 PUSH1 0x1F DUP3 ADD SLT ISZERO PUSH2 0x19E JUMPI DUP1 MLOAD SWAP2 PUSH2 0x1F2B DUP4 PUSH2 0x1EDB JUMP JUMPDEST SWAP3 PUSH2 0x1F39 PUSH1 0x40 MLOAD SWAP5 DUP6 PUSH2 0x1D9A JUMP JUMPDEST DUP1 DUP5 MSTORE PUSH1 0x20 SWAP3 DUP4 DUP1 DUP7 ADD SWAP3 PUSH1 0x5 SHL DUP3 ADD ADD SWAP3 DUP4 GT PUSH2 0x19E JUMPI DUP4 ADD SWAP1 JUMPDEST DUP3 DUP3 LT PUSH2 0x1F63 JUMPI POP POP POP POP SWAP1 JUMP JUMPDEST DUP2 MLOAD DUP2 MSTORE SWAP1 DUP4 ADD SWAP1 DUP4 ADD PUSH2 0x1F55 JUMP JUMPDEST SWAP2 SWAP1 SWAP2 PUSH1 0x40 DUP2 DUP5 SUB SLT PUSH2 0x19E JUMPI DUP1 MLOAD SWAP3 PUSH8 0xFFFFFFFFFFFFFFFF SWAP4 DUP5 DUP2 GT PUSH2 0x19E JUMPI DUP3 ADD SWAP4 DUP2 PUSH1 0x1F DUP7 ADD SLT ISZERO PUSH2 0x19E JUMPI DUP5 MLOAD PUSH2 0x1FAC DUP2 PUSH2 0x1EDB JUMP JUMPDEST SWAP1 PUSH2 0x1FBA PUSH1 0x40 MLOAD SWAP3 DUP4 PUSH2 0x1D9A JUMP JUMPDEST DUP1 DUP3 MSTORE PUSH1 0x20 SWAP7 DUP8 DUP1 DUP5 ADD SWAP3 PUSH1 0x5 SHL DUP3 ADD ADD SWAP2 DUP6 DUP4 GT PUSH2 0x19E JUMPI DUP9 DUP1 SWAP3 ADD SWAP1 JUMPDEST DUP4 DUP3 LT PUSH2 0x1FFC JUMPI POP POP POP POP SWAP5 DUP4 ADD MLOAD SWAP1 DUP2 GT PUSH2 0x19E JUMPI PUSH2 0x1FF9 SWAP3 ADD PUSH2 0x1F14 JUMP JUMPDEST SWAP1 JUMP JUMPDEST DUP3 DUP1 SWAP2 PUSH2 0x2008 DUP5 PUSH2 0x1EF3 JUMP JUMPDEST DUP2 MSTORE ADD SWAP2 ADD SWAP1 PUSH2 0x1FD9 JUMP JUMPDEST DUP1 MLOAD DUP3 LT ISZERO PUSH2 0xDEB JUMPI PUSH1 0x20 SWAP2 PUSH1 0x5 SHL ADD ADD SWAP1 JUMP JUMPDEST SWAP2 SWAP1 DUP3 ADD DUP1 SWAP3 GT PUSH2 0x1206 JUMPI JUMP JUMPDEST SWAP2 SWAP1 DUP3 SUB SWAP2 DUP3 GT PUSH2 0x1206 JUMPI JUMP JUMPDEST DUP2 PUSH1 0x1F DUP3 ADD SLT ISZERO PUSH2 0x19E JUMPI DUP1 CALLDATALOAD SWAP1 PUSH2 0x2058 DUP3 PUSH2 0x1E0A JUMP JUMPDEST SWAP3 PUSH2 0x2066 PUSH1 0x40 MLOAD SWAP5 DUP6 PUSH2 0x1D9A JUMP JUMPDEST DUP3 DUP5 MSTORE PUSH1 0x20 DUP4 DUP4 ADD ADD GT PUSH2 0x19E JUMPI DUP2 PUSH1 0x0 SWAP3 PUSH1 0x20 DUP1 SWAP4 ADD DUP4 DUP7 ADD CALLDATACOPY DUP4 ADD ADD MSTORE SWAP1 JUMP JUMPDEST PUSH1 0x40 MLOAD PUSH32 0xDD62ED3E00000000000000000000000000000000000000000000000000000000 DUP2 MSTORE ADDRESS PUSH1 0x4 DUP3 ADD MSTORE PUSH20 0xFFFFFFFFFFFFFFFFFFFFFFFFFFFFFFFFFFFFFFFF DUP4 AND PUSH1 0x24 DUP3 ADD MSTORE SWAP2 SWAP3 SWAP1 SWAP2 PUSH1 0x20 DUP2 DUP1 PUSH1 0x44 DUP2 ADD SUB DUP2 PUSH20 0xFFFFFFFFFFFFFFFFFFFFFFFFFFFFFFFFFFFFFFFF DUP8 AND GAS STATICCALL SWAP1 DUP2 ISZERO PUSH2 0x398 JUMPI PUSH1 0x0 SWAP2 PUSH2 0x217C JUMPI JUMPDEST POP LT ISZERO PUSH2 0x2178 JUMPI PUSH1 0x44 PUSH1 0x10 PUSH1 0x0 DUP1 SWAP4 PUSH1 0x20 SWAP6 PUSH1 0x14 MSTORE PUSH32 0xFFFFFFFFFFFFFFFFFFFFFFFFFFFFFFFFFFFFFFFFFFFFFFFFFFFFFFFFFFFFFFFF PUSH1 0x34 MSTORE PUSH16 0x95EA7B3000000000000000000000000 DUP3 MSTORE GAS CALL RETURNDATASIZE ISZERO PUSH1 0x1 PUSH1 0x0 MLOAD EQ OR AND ISZERO PUSH2 0x216A JUMPI PUSH1 0x0 PUSH1 0x34 MSTORE JUMP JUMPDEST PUSH4 0x3E3F8F73 PUSH1 0x0 MSTORE PUSH1 0x4 PUSH1 0x1C REVERT JUMPDEST POP POP JUMP JUMPDEST SWAP1 PUSH1 0x20 DUP3 RETURNDATASIZE DUP3 GT PUSH2 0x21A8 JUMPI JUMPDEST DUP2 PUSH2 0x2195 PUSH1 0x20 SWAP4 DUP4 PUSH2 0x1D9A JUMP JUMPDEST DUP2 ADD SUB SLT PUSH2 0x21A5 JUMPI POP MLOAD CODESIZE PUSH2 0x2106 JUMP JUMPDEST DUP1 REVERT JUMPDEST RETURNDATASIZE SWAP2 POP PUSH2 0x2188 JUMP JUMPDEST PUSH32 0xFFFFFFFFFFFFFFFFFFFFFFFFFFFFFFFFFFFFFFFFFFFFFFFFFFFFFFFFFFFFFFFF DUP2 EQ PUSH2 0x1206 JUMPI PUSH1 0x1 ADD SWAP1 JUMP JUMPDEST DUP1 SLOAD PUSH9 0x10000000000000000 DUP2 LT ISZERO PUSH2 0x1DDB JUMPI PUSH2 0x21FF SWAP2 PUSH1 0x1 DUP3 ADD DUP2 SSTORE PUSH2 0x1EC3 JUMP JUMPDEST DUP2 SWAP3 SWAP2 SLOAD SWAP1 PUSH1 0x3 SHL SWAP2 PUSH20 0xFFFFFFFFFFFFFFFFFFFFFFFFFFFFFFFFFFFFFFFF SWAP3 DUP4 DUP2 SHL SWAP4 DUP5 SWAP3 AND SWAP1 SHL AND SWAP2 NOT AND OR SWAP1 SSTORE JUMP JUMPDEST PUSH1 0x40 MLOAD PUSH32 0xF851A44000000000000000000000000000000000000000000000000000000000 DUP2 MSTORE PUSH20 0xFFFFFFFFFFFFFFFFFFFFFFFFFFFFFFFFFFFFFFFF PUSH1 0x20 DUP3 PUSH1 0x4 DUP2 DUP5 PUSH32 0x0 AND GAS STATICCALL SWAP2 DUP3 ISZERO PUSH2 0x398 JUMPI PUSH1 0x0 SWAP3 PUSH2 0x2300 JUMPI JUMPDEST POP DUP2 AND CALLER SUB PUSH2 0x22B1 JUMPI POP JUMP JUMPDEST PUSH1 0x40 MLOAD PUSH32 0x90A9D16F00000000000000000000000000000000000000000000000000000000 DUP2 MSTORE CALLER PUSH1 0x4 DUP3 ADD MSTORE PUSH20 0xFFFFFFFFFFFFFFFFFFFFFFFFFFFFFFFFFFFFFFFF SWAP2 SWAP1 SWAP2 AND PUSH1 0x24 DUP3 ADD MSTORE PUSH1 0x44 SWAP1 REVERT JUMPDEST SWAP1 SWAP2 PUSH1 0x20 DUP3 RETURNDATASIZE DUP3 GT PUSH2 0x2333 JUMPI JUMPDEST DUP2 PUSH2 0x231A PUSH1 0x20 SWAP4 DUP4 PUSH2 0x1D9A JUMP JUMPDEST DUP2 ADD SUB SLT PUSH2 0x21A5 JUMPI POP PUSH2 0x232C SWAP1 PUSH2 0x1EF3 JUMP JUMPDEST SWAP1 CODESIZE PUSH2 0x22A5 JUMP JUMPDEST RETURNDATASIZE SWAP2 POP PUSH2 0x230D JUMP JUMPDEST SWAP1 PUSH1 0x40 MLOAD SWAP2 DUP3 DUP2 SLOAD SWAP2 DUP3 DUP3 MSTORE PUSH1 0x20 SWAP3 DUP4 DUP4 ADD SWAP2 PUSH1 0x0 MSTORE DUP4 PUSH1 0x0 KECCAK256 SWAP4 PUSH1 0x0 SWAP1 JUMPDEST DUP3 DUP3 LT PUSH2 0x2372 JUMPI POP POP POP PUSH2 0x2370 SWAP3 POP SUB DUP4 PUSH2 0x1D9A JUMP JUMPDEST JUMP JUMPDEST DUP6 SLOAD PUSH20 0xFFFFFFFFFFFFFFFFFFFFFFFFFFFFFFFFFFFFFFFF AND DUP5 MSTORE PUSH1 0x1 SWAP6 DUP7 ADD SWAP6 DUP9 SWAP6 POP SWAP4 DUP2 ADD SWAP4 SWAP1 SWAP2 ADD SWAP1 PUSH2 0x235A JUMP JUMPDEST PUSH2 0x23AC PUSH1 0x3 PUSH2 0x233B JUMP JUMPDEST SWAP1 PUSH1 0x0 JUMPDEST DUP3 MLOAD DUP2 LT ISZERO PUSH2 0x23F6 JUMPI PUSH20 0xFFFFFFFFFFFFFFFFFFFFFFFFFFFFFFFFFFFFFFFF DUP1 PUSH2 0x23D9 DUP4 DUP7 PUSH2 0x2013 JUMP JUMPDEST MLOAD AND SWAP1 DUP4 AND EQ PUSH2 0x23F1 JUMPI PUSH2 0x23EC SWAP1 PUSH2 0x21B0 JUMP JUMPDEST PUSH2 0x23B0 JUMP JUMPDEST POP POP POP JUMP JUMPDEST POP PUSH32 0x6E88551D1E5F4E837D99CDAEB8DAB5A3E0EEDE87E21670B9C9D3787D0A0D11EA SWAP2 POP PUSH1 0x40 SWAP1 PUSH2 0x2428 DUP2 PUSH1 0x3 PUSH2 0x21DD JUMP JUMPDEST PUSH1 0x3 SLOAD PUSH20 0xFFFFFFFFFFFFFFFFFFFFFFFFFFFFFFFFFFFFFFFF DUP4 MLOAD SWAP3 AND DUP3 MSTORE PUSH1 0x20 DUP3 ADD MSTORE LOG1 JUMP JUMPDEST DUP2 DUP2 MUL SWAP3 SWAP2 DUP2 ISZERO SWAP2 DUP5 DIV EQ OR ISZERO PUSH2 0x1206 JUMPI JUMP JUMPDEST SWAP1 DUP1 PUSH32 0xFFFFFFFFFFFFFFFFFFFFFFFFFFFFFFFFFFFFFFFFFFFFFFFFFFFFFFFFFFFFFFFF DIV DUP3 GT DUP2 MUL PUSH2 0x357 JUMPI PUSH8 0xDE0B6B3A7640000 SWAP2 MUL DIV SWAP1 JUMP JUMPDEST PUSH1 0x1C PUSH1 0x0 PUSH1 0x64 SWAP3 DUP2 SWAP5 PUSH1 0x20 SWAP7 PUSH1 0x40 MLOAD SWAP9 PUSH1 0x60 MSTORE PUSH1 0x40 MSTORE PUSH1 0x60 SHL PUSH1 0x2C MSTORE PUSH16 0x23B872DD000000000000000000000000 PUSH1 0xC MSTORE GAS CALL RETURNDATASIZE ISZERO PUSH1 0x1 PUSH1 0x0 MLOAD EQ OR AND ISZERO PUSH2 0x24E7 JUMPI PUSH1 0x0 PUSH1 0x60 MSTORE PUSH1 0x40 MSTORE JUMP JUMPDEST PUSH4 0x7939F424 PUSH1 0x0 MSTORE PUSH1 0x4 PUSH1 0x1C REVERT JUMPDEST PUSH1 0x10 SWAP3 PUSH1 0x20 SWAP3 PUSH1 0x14 MSTORE PUSH1 0x34 MSTORE PUSH1 0x44 PUSH1 0x0 SWAP4 DUP5 DUP1 SWAP4 PUSH16 0xA9059CBB000000000000000000000000 DUP3 MSTORE GAS CALL RETURNDATASIZE ISZERO PUSH1 0x1 DUP4 MLOAD EQ OR AND ISZERO PUSH2 0x2531 JUMPI PUSH1 0x34 MSTORE JUMP JUMPDEST PUSH4 0x90B8EC18 SWAP1 MSTORE PUSH1 0x4 PUSH1 0x1C REVERT JUMPDEST PUSH1 0x24 PUSH1 0x10 PUSH1 0x20 SWAP4 SWAP3 DUP5 SWAP4 PUSH1 0x14 MSTORE PUSH16 0x70A08231000000000000000000000000 PUSH1 0x0 MSTORE GAS STATICCALL PUSH1 0x1F RETURNDATASIZE GT AND PUSH1 0x20 MLOAD MUL SWAP1 JUMP INVALID LOG1 PUSH5 0x736F6C6343 STOP ADDMOD GT STOP EXP "},"methodIdentifiers":{"HARVESTER_REWARD()":"84a53717","MAX_X1_REWARD()":"11475b2a","MIN_X1_REWARD()":"d5d4f0e1","ONE_INCH_ROUTER_V5()":"bdcb9932","addX1VaultRewardToken(address)":"2c0da13d","allHarvesters(uint256)":"85f80f07","allX1RewardTokens(uint256)":"1f700dcd","collectX1RewardToken(address)":"941177a5","collectX1RewardsAll()":"97f4e01b","cygnusX1Vault()":"c73ef9e8","getHarvester(address)":"a7ba8a39","hangar18()":"e8a24e1d","harvestToVault(address)":"e4cf44ba","harvestersLength()":"5fa9d9b0","initializeHarvester(address)":"4bb2bfa3","lastX1Collect()":"b5b946e3","name()":"06fdde03","nativeToken()":"e1758bd8","newX1VaultReward(uint256)":"2c3de320","reinvestRewards(address,bytes[])":"a62df98d","rewardTokenBalance(address)":"94bbf438","rewardTokenBalanceAtIndex(uint256)":"ba3f30c6","sweepToken(address)":"1be19560","x1RewardTokensLength()":"20750215","x1VaultReward()":"b7218b37"}}}}}