{"contracts/cygnus-periphery/CygnusAltairX.sol":{"CygnusAltairX":{"abi":[{"inputs":[{"internalType":"contract IHangar18","name":"_hangar18","type":"address"},{"internalType":"uint256","name":"_orbiterId","type":"uint256"}],"stateMutability":"nonpayable","type":"constructor"},{"inputs":[],"name":"CygnusAltairY__OrbitersNotActive","type":"error"},{"inputs":[],"name":"CygnusAltair__InsufficientLPTokenAmount","type":"error"},{"inputs":[],"name":"CygnusAltair__InsufficientLiquidateUsd","type":"error"},{"inputs":[],"name":"CygnusAltair__InsufficientUSDAmount","type":"error"},{"inputs":[{"internalType":"address","name":"redeemer","type":"address"},{"internalType":"uint256","name":"redeemTokens","type":"uint256"}],"name":"CygnusAltair__InvalidRedeemAmount","type":"error"},{"inputs":[{"internalType":"address","name":"sender","type":"address"},{"internalType":"address","name":"admin","type":"address"}],"name":"CygnusAltair__MsgSenderNotAdmin","type":"error"},{"inputs":[{"internalType":"address","name":"sender","type":"address"},{"internalType":"address","name":"borrowable","type":"address"}],"name":"CygnusAltair__MsgSenderNotBorrowable","type":"error"},{"inputs":[{"internalType":"address","name":"sender","type":"address"},{"internalType":"address","name":"collateral","type":"address"}],"name":"CygnusAltair__MsgSenderNotCollateral","type":"error"},{"inputs":[{"internalType":"address","name":"sender","type":"address"},{"internalType":"address","name":"origin","type":"address"}],"name":"CygnusAltair__MsgSenderNotRouter","type":"error"},{"inputs":[{"internalType":"address","name":"poolToken","type":"address"}],"name":"CygnusAltair__NotNativeTokenSender","type":"error"},{"inputs":[],"name":"CygnusAltair__ParaswapTransactionFailed","type":"error"},{"inputs":[{"internalType":"uint256","name":"deadline","type":"uint256"}],"name":"CygnusAltair__TransactionExpired","type":"error"},{"inputs":[],"name":"DEX_ROUTER","outputs":[{"internalType":"contract IDexRouter","name":"","type":"address"}],"stateMutability":"view","type":"function"},{"inputs":[],"name":"ONE_INCH_ROUTER_V5","outputs":[{"internalType":"address","name":"","type":"address"}],"stateMutability":"view","type":"function"},{"inputs":[],"name":"PARASWAP_AUGUSTUS_SWAPPER_V5","outputs":[{"internalType":"address","name":"","type":"address"}],"stateMutability":"view","type":"function"},{"inputs":[],"name":"PERMIT2","outputs":[{"internalType":"address","name":"","type":"address"}],"stateMutability":"view","type":"function"},{"inputs":[],"name":"albireo","outputs":[{"internalType":"contract IAlbireoOrbiter","name":"","type":"address"}],"stateMutability":"view","type":"function"},{"inputs":[{"internalType":"address","name":"sender","type":"address"},{"internalType":"uint256","name":"borrowAmount","type":"uint256"},{"internalType":"bytes","name":"data","type":"bytes"}],"name":"altairBorrow_O9E","outputs":[],"stateMutability":"nonpayable","type":"function"},{"inputs":[{"internalType":"address","name":"sender","type":"address"},{"internalType":"uint256","name":"cygLPAmount","type":"uint256"},{"internalType":"uint256","name":"repayAmount","type":"uint256"},{"internalType":"bytes","name":"data","type":"bytes"}],"name":"altairLiquidate_f2x","outputs":[],"stateMutability":"nonpayable","type":"function"},{"inputs":[{"internalType":"address","name":"sender","type":"address"},{"internalType":"uint256","name":"redeemAmount","type":"uint256"},{"internalType":"bytes","name":"data","type":"bytes"}],"name":"altairRedeem_u91A","outputs":[],"stateMutability":"nonpayable","type":"function"},{"inputs":[{"internalType":"address","name":"borrowable","type":"address"},{"internalType":"uint256","name":"amount","type":"uint256"},{"internalType":"address","name":"recipient","type":"address"},{"internalType":"uint256","name":"deadline","type":"uint256"},{"internalType":"bytes","name":"permitData","type":"bytes"}],"name":"borrow","outputs":[],"stateMutability":"nonpayable","type":"function"},{"inputs":[{"internalType":"address","name":"lpTokenPair","type":"address"},{"internalType":"address","name":"collateral","type":"address"},{"internalType":"address","name":"borrowable","type":"address"},{"internalType":"uint256","name":"cygLPAmount","type":"uint256"},{"internalType":"uint256","name":"usdAmountMin","type":"uint256"},{"internalType":"uint256","name":"deadline","type":"uint256"},{"internalType":"bytes","name":"permitData","type":"bytes"},{"internalType":"enum ICygnusAltair.DexAggregator","name":"dexAggregator","type":"uint8"},{"internalType":"bytes[]","name":"swapData","type":"bytes[]"}],"name":"deleverage","outputs":[],"stateMutability":"nonpayable","type":"function"},{"inputs":[],"name":"deneb","outputs":[{"internalType":"contract IDenebOrbiter","name":"","type":"address"}],"stateMutability":"view","type":"function"},{"inputs":[],"name":"emptyPermit","outputs":[{"components":[{"internalType":"address","name":"token","type":"address"},{"internalType":"uint160","name":"amount","type":"uint160"},{"internalType":"uint48","name":"expiration","type":"uint48"},{"internalType":"uint48","name":"nonce","type":"uint48"}],"internalType":"struct IAllowanceTransfer.PermitDetails","name":"details","type":"tuple"},{"internalType":"address","name":"spender","type":"address"},{"internalType":"uint256","name":"sigDeadline","type":"uint256"}],"stateMutability":"view","type":"function"},{"inputs":[{"internalType":"address","name":"borrowable","type":"address"},{"internalType":"address","name":"collateral","type":"address"},{"internalType":"uint256","name":"amountMax","type":"uint256"},{"internalType":"address","name":"borrower","type":"address"},{"internalType":"address","name":"recipient","type":"address"},{"internalType":"uint256","name":"deadline","type":"uint256"},{"internalType":"enum ICygnusAltair.DexAggregator","name":"dexAggregator","type":"uint8"},{"internalType":"bytes[]","name":"swapData","type":"bytes[]"}],"name":"flashLiquidate","outputs":[{"internalType":"uint256","name":"amount","type":"uint256"}],"stateMutability":"nonpayable","type":"function"},{"inputs":[{"internalType":"address","name":"underlying","type":"address"},{"internalType":"uint256","name":"shares","type":"uint256"}],"name":"getAssetsForShares","outputs":[{"internalType":"address[]","name":"tokens","type":"address[]"},{"internalType":"uint256[]","name":"amounts","type":"uint256[]"}],"stateMutability":"view","type":"function"},{"inputs":[],"name":"hangar18","outputs":[{"internalType":"contract IHangar18","name":"","type":"address"}],"stateMutability":"view","type":"function"},{"inputs":[{"internalType":"address","name":"lpTokenPair","type":"address"},{"internalType":"address","name":"collateral","type":"address"},{"internalType":"address","name":"borrowable","type":"address"},{"internalType":"uint256","name":"usdAmount","type":"uint256"},{"internalType":"uint256","name":"lpAmountMin","type":"uint256"},{"internalType":"uint256","name":"deadline","type":"uint256"},{"internalType":"bytes","name":"permitData","type":"bytes"},{"internalType":"enum ICygnusAltair.DexAggregator","name":"dexAggregator","type":"uint8"},{"internalType":"bytes[]","name":"swapData","type":"bytes[]"}],"name":"leverage","outputs":[],"stateMutability":"nonpayable","type":"function"},{"inputs":[{"internalType":"address","name":"borrowable","type":"address"},{"internalType":"uint256","name":"amountMax","type":"uint256"},{"internalType":"address","name":"borrower","type":"address"},{"internalType":"address","name":"recipient","type":"address"},{"internalType":"uint256","name":"deadline","type":"uint256"}],"name":"liquidate","outputs":[{"internalType":"uint256","name":"amount","type":"uint256"},{"internalType":"uint256","name":"seizeTokens","type":"uint256"}],"stateMutability":"nonpayable","type":"function"},{"inputs":[{"internalType":"address","name":"borrowable","type":"address"},{"internalType":"uint256","name":"amountMax","type":"uint256"},{"internalType":"address","name":"borrower","type":"address"},{"internalType":"address","name":"recipient","type":"address"},{"internalType":"uint256","name":"deadline","type":"uint256"},{"components":[{"components":[{"internalType":"address","name":"token","type":"address"},{"internalType":"uint160","name":"amount","type":"uint160"},{"internalType":"uint48","name":"expiration","type":"uint48"},{"internalType":"uint48","name":"nonce","type":"uint48"}],"internalType":"struct IAllowanceTransfer.PermitDetails","name":"details","type":"tuple"},{"internalType":"address","name":"spender","type":"address"},{"internalType":"uint256","name":"sigDeadline","type":"uint256"}],"internalType":"struct IAllowanceTransfer.PermitSingle","name":"_permit","type":"tuple"},{"internalType":"bytes","name":"signature","type":"bytes"}],"name":"liquidatePermit2Allowance","outputs":[{"internalType":"uint256","name":"amount","type":"uint256"},{"internalType":"uint256","name":"seizeTokens","type":"uint256"}],"stateMutability":"nonpayable","type":"function"},{"inputs":[{"internalType":"address","name":"borrowable","type":"address"},{"internalType":"uint256","name":"amountMax","type":"uint256"},{"internalType":"address","name":"borrower","type":"address"},{"internalType":"address","name":"recipient","type":"address"},{"internalType":"uint256","name":"deadline","type":"uint256"},{"components":[{"components":[{"internalType":"address","name":"token","type":"address"},{"internalType":"uint256","name":"amount","type":"uint256"}],"internalType":"struct ISignatureTransfer.TokenPermissions","name":"permitted","type":"tuple"},{"internalType":"uint256","name":"nonce","type":"uint256"},{"internalType":"uint256","name":"deadline","type":"uint256"}],"internalType":"struct ISignatureTransfer.PermitTransferFrom","name":"_permit","type":"tuple"},{"internalType":"bytes","name":"signature","type":"bytes"}],"name":"liquidatePermit2Signature","outputs":[{"internalType":"uint256","name":"amount","type":"uint256"},{"internalType":"uint256","name":"seizeTokens","type":"uint256"}],"stateMutability":"nonpayable","type":"function"},{"inputs":[],"name":"name","outputs":[{"internalType":"string","name":"","type":"string"}],"stateMutability":"view","type":"function"},{"inputs":[],"name":"nativeToken","outputs":[{"internalType":"address","name":"","type":"address"}],"stateMutability":"view","type":"function"},{"inputs":[],"name":"orbiterId","outputs":[{"internalType":"uint256","name":"","type":"uint256"}],"stateMutability":"view","type":"function"},{"inputs":[{"internalType":"address","name":"borrowable","type":"address"},{"internalType":"uint256","name":"amountMax","type":"uint256"},{"internalType":"address","name":"borrower","type":"address"},{"internalType":"uint256","name":"deadline","type":"uint256"}],"name":"repay","outputs":[{"internalType":"uint256","name":"amount","type":"uint256"}],"stateMutability":"nonpayable","type":"function"},{"inputs":[{"internalType":"address","name":"borrowable","type":"address"},{"internalType":"uint256","name":"amountMax","type":"uint256"},{"internalType":"address","name":"borrower","type":"address"},{"internalType":"uint256","name":"deadline","type":"uint256"},{"components":[{"components":[{"internalType":"address","name":"token","type":"address"},{"internalType":"uint160","name":"amount","type":"uint160"},{"internalType":"uint48","name":"expiration","type":"uint48"},{"internalType":"uint48","name":"nonce","type":"uint48"}],"internalType":"struct IAllowanceTransfer.PermitDetails","name":"details","type":"tuple"},{"internalType":"address","name":"spender","type":"address"},{"internalType":"uint256","name":"sigDeadline","type":"uint256"}],"internalType":"struct IAllowanceTransfer.PermitSingle","name":"_permit","type":"tuple"},{"internalType":"bytes","name":"signature","type":"bytes"}],"name":"repayPermit2Allowance","outputs":[{"internalType":"uint256","name":"amount","type":"uint256"}],"stateMutability":"nonpayable","type":"function"},{"inputs":[{"internalType":"address","name":"borrowable","type":"address"},{"internalType":"uint256","name":"amountMax","type":"uint256"},{"internalType":"address","name":"borrower","type":"address"},{"internalType":"uint256","name":"deadline","type":"uint256"},{"components":[{"components":[{"internalType":"address","name":"token","type":"address"},{"internalType":"uint256","name":"amount","type":"uint256"}],"internalType":"struct ISignatureTransfer.TokenPermissions","name":"permitted","type":"tuple"},{"internalType":"uint256","name":"nonce","type":"uint256"},{"internalType":"uint256","name":"deadline","type":"uint256"}],"internalType":"struct ISignatureTransfer.PermitTransferFrom","name":"_permit","type":"tuple"},{"internalType":"bytes","name":"signature","type":"bytes"}],"name":"repayPermit2Signature","outputs":[{"internalType":"uint256","name":"amount","type":"uint256"}],"stateMutability":"nonpayable","type":"function"},{"inputs":[],"name":"usd","outputs":[{"internalType":"address","name":"","type":"address"}],"stateMutability":"view","type":"function"},{"stateMutability":"payable","type":"receive"}],"evm":{"bytecode":{"linkReferences":{},"object":"610140604081815234620004b057808262004fd58038038091620000248285620004b5565b833981010312620004b05781516001600160a01b039290919083831690818403620004b05760208091015193608052825191631c2eb17b60e31b835260049282818581855afa90811562000483576000916200048e575b5060c052835163d63a6ccd60e01b815282818581855afa9081156200048357916000916024949383916200044f575b5060a052855193848092632815a89760e11b825289888301525afa91821562000444576000908190829883956200033f575b505061010097885260e052156200032f576200013560318551809470021bcb3b73ab996a0b63a30b4b916ac1d1607d1b858301526200012481518092878686019101620004ef565b8101036011810185520183620004b5565b8151916001600160401b0383116200031a576000546001948582811c921680156200030f575b84831014620002fa5750601f8111620002ac575b5081601f841160011462000240575092829391839260009462000234575b50501b916000199060031b1c1916176000555b6101209182525190614a9f92836200053684396080518361193a015260a0518381816107fe01528181610a7e01528181610bdf015281816113020152818161265601528181613253015281816133b301528181613e5701526143d1015260c0518381816116b20152818161200c01528181613f1301526145e0015260e0518361118d0152518261091701525181610d170152f35b0151925038806200018d565b919083601f1981166000805284600020946000905b8883831062000291575050501062000277575b505050811b01600055620001a0565b015160001960f88460031b161c1916905538808062000268565b85870151885590960195948501948793509081019062000255565b6000805282600020601f850160051c810191848610620002ef575b601f0160051c019085905b828110620002e25750506200016f565b60008155018590620002d2565b9091508190620002c7565b602290634e487b7160e01b6000525260246000fd5b91607f16916200015b565b604184634e487b7160e01b6000525260246000fd5b835163cb18368160e01b81528390fd5b94509750503d8082893e620003558189620004b5565b87019661012081890312620004405780519081151582036200043c57808401516001600160581b038116036200043c578681015192858416840362000426576060820151958087168703620004405760c08301519081160362000426576101008201516001600160401b03928382116200043c5701908a601f8301121562000426578151928311620004295788519a620003f9601f8501601f191688018d620004b5565b838c52868484010111620004265750906200041a9185808c019101620004ef565b909296923880620000dc565b80fd5b634e487b7160e01b815260418852602490fd5b8280fd5b5080fd5b84513d6000823e3d90fd5b620004749150843d86116200047b575b6200046b8183620004b5565b81019062000514565b38620000aa565b503d6200045f565b85513d6000823e3d90fd5b620004a99150833d85116200047b576200046b8183620004b5565b386200007b565b600080fd5b601f909101601f19168101906001600160401b03821190821017620004d957604052565b634e487b7160e01b600052604160045260246000fd5b60005b838110620005035750506000910152565b8181015183820152602001620004f2565b90816020910312620004b057516001600160a01b0381168103620004b0579056fe60806040526004361015610023575b361561001957600080fd5b610021611ff5565b005b60003560e01c806306fdde031461022b5780630e12d008146102225780630f22d435146102195780631907cd7d1461021057806321a5e908146102075780635c1e6404146101fe5780636aee7c1e146101f55780636afdd850146101ec578063729f6cfe146101e35780637af11ac0146101da57806388a799f6146101d15780638f53d74f146101c8578063989bebcf146101bf5780639bbf470d146101b6578063bdcb9932146101ad578063c2a95ddf146101a4578063d63a6ccd1461019b578063d6906d2314610192578063dbe5f2fb14610189578063e1758bd814610180578063e75ee2e314610177578063e8a24e1d1461016e578063e95471c714610165578063ebb0d6161461015c578063fd62695b146101535763fee0bdc40361000e5761014e611f09565b61000e565b5061014e611e45565b5061014e611bd6565b5061014e61195e565b5061014e6118ee565b5061014e6116d6565b5061014e611666565b5061014e611544565b5061014e6113f4565b5061014e6112b6565b5061014e6111ff565b5061014e6111b1565b5061014e611141565b5061014e610f9b565b5061014e610e15565b5061014e610d88565b5061014e610d3a565b5061014e610ce0565b5061014e610c97565b5061014e610b60565b5061014e610a04565b5061014e61093b565b5061014e6108cb565b5061014e6106fa565b5061014e6104ec565b5061014e61033c565b600091031261023f57565b600080fd5b507f4e487b7100000000000000000000000000000000000000000000000000000000600052604160045260246000fd5b90601f7fffffffffffffffffffffffffffffffffffffffffffffffffffffffffffffffe0910116810190811067ffffffffffffffff8211176102b557604052565b6102bd610244565b604052565b60005b8381106102d55750506000910152565b81810151838201526020016102c5565b907fffffffffffffffffffffffffffffffffffffffffffffffffffffffffffffffe0601f602093610321815180928187528780880191016102c2565b0116010190565b9060206103399281815201906102e5565b90565b503461023f576000807ffffffffffffffffffffffffffffffffffffffffffffffffffffffffffffffffc36011261048257604051908080549060019180831c92808216928315610478575b602092838610851461044b57858852602088019490811561040c57506001146103cb575b6103c7876103bb81890382610274565b60405191829182610328565b0390f35b94506103df85949394600052602060002090565b8386106103fb57505050910190506103bb826103c738806103ab565b8054858701529482019481016103df565b7fffffffffffffffffffffffffffffffffffffffffffffffffffffffffffffff001685525050505090151560051b0190506103bb826103c738806103ab565b6024827f4e487b710000000000000000000000000000000000000000000000000000000081526022600452fd5b93607f1693610387565b80fd5b73ffffffffffffffffffffffffffffffffffffffff81160361023f57565b35906104ae82610485565b565b9081608091031261023f5790565b9181601f8401121561023f5782359167ffffffffffffffff831161023f576020838186019501011161023f57565b503461023f576101207ffffffffffffffffffffffffffffffffffffffffffffffffffffffffffffffffc36011261023f5760043561052981610485565b6044359061053682610485565b6105413660846104b0565b906101043567ffffffffffffffff811161023f576105639036906004016104be565b909161057060643561217c565b61057d8560243583612318565b936105886040611efb565b73ffffffffffffffffffffffffffffffffffffffff83168152908560208301526e22d473030f116ddee9f6b43ac78ba393843b1561023f5773ffffffffffffffffffffffffffffffffffffffff94610618916040519485809481937f30f28b7a00000000000000000000000000000000000000000000000000000000835260009b8c988995339160048701612545565b03925af180156106df575b6106cb575b501692610634826120e4565b90843b156106c757826103c7958180809461067e604051978896879586947f1e7dcc0d00000000000000000000000000000000000000000000000000000000865260048601612133565b03925af180156106ba575b6106a0575b50506040519081529081906020820190565b6106ad6106b39282610274565b80610234565b388061068e565b6106c261216f565b610689565b8280fd5b806106ad856106d993610274565b38610628565b6106e761216f565b610623565b908160c091031261023f5790565b503461023f576101607ffffffffffffffffffffffffffffffffffffffffffffffffffffffffffffffffc36011261023f5760043561073781610485565b6044359061074482610485565b61074f3660846106ec565b906101443567ffffffffffffffff811161023f576107719036906004016104be565b9261077d60643561217c565b61078a8560243585612318565b938061083c575b5050506e22d473030f116ddee9f6b43ac78ba3803b1561023f576040517f36c7851600000000000000000000000000000000000000000000000000000000815233600482015273ffffffffffffffffffffffffffffffffffffffff808416602483015284811660448301527f00000000000000000000000000000000000000000000000000000000000000008116606483015260009390929091908490829081838160848101610618565b6e22d473030f116ddee9f6b43ac78ba3803b1561023f576108929360008094604051968795869485937f2b67b570000000000000000000000000000000000000000000000000000000008552336004860161249f565b03925af180156108be575b6108a9575b8080610791565b806106ad60006108b893610274565b386108a2565b6108c661216f565b61089d565b503461023f5760007ffffffffffffffffffffffffffffffffffffffffffffffffffffffffffffffffc36011261023f57602060405173ffffffffffffffffffffffffffffffffffffffff7f0000000000000000000000000000000000000000000000000000000000000000168152f35b503461023f576101407ffffffffffffffffffffffffffffffffffffffffffffffffffffffffffffffffc36011261023f5760043561097881610485565b60443561098481610485565b6064359061099182610485565b60807fffffffffffffffffffffffffffffffffffffffffffffffffffffffffffffff5c36011261023f576101243567ffffffffffffffff811161023f576109f2936109e260a49236906004016104be565b94909360843592602435906127d7565b60408051928352602083019190915290f35b503461023f5760a07ffffffffffffffffffffffffffffffffffffffffffffffffffffffffffffffffc36011261023f57600435610a4081610485565b60443590610a4d82610485565b6020606435610a5b81610485565b610a6660843561217c565b610a738460243585612318565b928391610aa28383337f00000000000000000000000000000000000000000000000000000000000000006149c1565b600073ffffffffffffffffffffffffffffffffffffffff610ac2826120e4565b97610afc604051998a97889687947f27ce385400000000000000000000000000000000000000000000000000000000865260048601612133565b0393165af1918215610b53575b600092610b23575b50604080519182526020820192909252f35b610b4591925060203d8111610b4c575b610b3d8183610274565b8101906125b6565b9038610b11565b503d610b33565b610b5b61216f565b610b09565b503461023f5760807ffffffffffffffffffffffffffffffffffffffffffffffffffffffffffffffffc36011261023f57600435610b9c81610485565b60443590610ba982610485565b610bb460643561217c565b73ffffffffffffffffffffffffffffffffffffffff610bd68360243584612318565b91610c038382337f00000000000000000000000000000000000000000000000000000000000000006149c1565b1691600092610c11846120e4565b91813b15610c93579380809281806103c798610c5c604051988996879586947f1e7dcc0d00000000000000000000000000000000000000000000000000000000865260048601612133565b03925af18015610c86575b610c7d5750506040519081529081906020820190565b6106b391610274565b610c8e61216f565b610c67565b8480fd5b503461023f5760007ffffffffffffffffffffffffffffffffffffffffffffffffffffffffffffffffc36011261023f5760206040516e22d473030f116ddee9f6b43ac78ba38152f35b503461023f5760007ffffffffffffffffffffffffffffffffffffffffffffffffffffffffffffffffc36011261023f5760206040517f00000000000000000000000000000000000000000000000000000000000000008152f35b503461023f5760007ffffffffffffffffffffffffffffffffffffffffffffffffffffffffffffffffc36011261023f576020604051739c12939390052919af3155f41bf4160fd3666a6f8152f35b503461023f5760007ffffffffffffffffffffffffffffffffffffffffffffffffffffffffffffffffc36011261023f57602060405173def171fe48cf0115b1d80b88dc8eab59176fee578152f35b9160608383031261023f578235610dec81610485565b92602081013592604082013567ffffffffffffffff811161023f57610e1192016104be565b9091565b503461023f57610e34610e29366004610dd6565b8194929401906139be565b73ffffffffffffffffffffffffffffffffffffffff92908284163014610ea1576040517fb61e0f2900000000000000000000000000000000000000000000000000000000815273ffffffffffffffffffffffffffffffffffffffff84166004820152326024820152604490fd5b909150610ec5604082015173ffffffffffffffffffffffffffffffffffffffff1690565b9283163303610f4e578051610021935073ffffffffffffffffffffffffffffffffffffffff1691610f0d606083015173ffffffffffffffffffffffffffffffffffffffff1690565b90610f2f602084015173ffffffffffffffffffffffffffffffffffffffff1690565b60808401519260c060a086015195610f4687612b16565b015195613b1c565b6040517faead146700000000000000000000000000000000000000000000000000000000815233600482015273ffffffffffffffffffffffffffffffffffffffff84166024820152604490fd5b503461023f57610fbb610faf366004610dd6565b9293928101915061424c565b9073ffffffffffffffffffffffffffffffffffffffff8082163014611027576040517fb61e0f2900000000000000000000000000000000000000000000000000000000815273ffffffffffffffffffffffffffffffffffffffff83166004820152326024820152604490fd5b905061104a602083015173ffffffffffffffffffffffffffffffffffffffff1690565b90811633036110f25761002182611075815173ffffffffffffffffffffffffffffffffffffffff1690565b90611097606082015173ffffffffffffffffffffffffffffffffffffffff1690565b602082015173ffffffffffffffffffffffffffffffffffffffff16604083015173ffffffffffffffffffffffffffffffffffffffff1660808401519160a08501519360e060c0870151966110ea88612b16565b0151966142f4565b6040517fe5ac816600000000000000000000000000000000000000000000000000000000815233600482015273ffffffffffffffffffffffffffffffffffffffff919091166024820152604490fd5b503461023f5760007ffffffffffffffffffffffffffffffffffffffffffffffffffffffffffffffffc36011261023f57602060405173ffffffffffffffffffffffffffffffffffffffff7f0000000000000000000000000000000000000000000000000000000000000000168152f35b503461023f5760007ffffffffffffffffffffffffffffffffffffffffffffffffffffffffffffffffc36011261023f576020604051731111111254eeb25477b68fb85ed929f73a9605828152f35b503461023f576101807ffffffffffffffffffffffffffffffffffffffffffffffffffffffffffffffffc36011261023f5760043561123c81610485565b60443561124881610485565b6064359061125582610485565b60c07fffffffffffffffffffffffffffffffffffffffffffffffffffffffffffffff5c36011261023f576101643567ffffffffffffffff811161023f576109f2936112a660a49236906004016104be565b94909360843592602435906125c5565b503461023f5760007ffffffffffffffffffffffffffffffffffffffffffffffffffffffffffffffffc36011261023f57602060405173ffffffffffffffffffffffffffffffffffffffff7f0000000000000000000000000000000000000000000000000000000000000000168152f35b3590600282101561023f57565b9181601f8401121561023f5782359167ffffffffffffffff831161023f576020808501948460051b01011161023f57565b916101208383031261023f57823561137b81610485565b92602081013561138a81610485565b92611397604083016104a3565b9260608301359260808101359260a08201359267ffffffffffffffff9060c084013582811161023f57836113cc9186016104be565b949094936113dc60e08301611326565b9361010083013590811161023f57610e119201611333565b503461023f5761148a61143d6114a56114d1611435611491611417366004611364565b98959f979492969e9390999b919661142e8461217c565b36916120ad565b908d846121c4565b6040519761144c60e08a610274565b73ffffffffffffffffffffffffffffffffffffffff92838092168a5216602089015216998a6040880152336060880152608087015260a08601612b4f565b3691612b82565b60c082015260405192839160208301612d2d565b037fffffffffffffffffffffffffffffffffffffffffffffffffffffffffffffffe08101835282610274565b823b1561023f5761151792600092836040518096819582947f1e7dcc0d000000000000000000000000000000000000000000000000000000008452303360048601612133565b03925af18015611537575b61152857005b806106ad600061002193610274565b61153f61216f565b611522565b503461023f57600060a07ffffffffffffffffffffffffffffffffffffffffffffffffffffffffffffffffc3601126104825760043561158281610485565b81602435916044359061159482610485565b6064359060843567ffffffffffffffff8111610c935773ffffffffffffffffffffffffffffffffffffffff926115dd6115d46115e59336906004016104be565b61142e8461217c565b9087846121c4565b166115ef836120e4565b90803b156116625761163594848094604051978895869485937f1e7dcc0d0000000000000000000000000000000000000000000000000000000085523360048601612133565b03925af18015611655575b6116475780f35b61165091610274565b388180f35b61165d61216f565b611640565b8380fd5b503461023f5760007ffffffffffffffffffffffffffffffffffffffffffffffffffffffffffffffffc36011261023f57602060405173ffffffffffffffffffffffffffffffffffffffff7f0000000000000000000000000000000000000000000000000000000000000000168152f35b503461023f576116e7366004611364565b91999894909597969389936116fb8361217c565b3690611706926120ad565b6117119185876121c4565b73ffffffffffffffffffffffffffffffffffffffff841694604051917f3ba0b9a90000000000000000000000000000000000000000000000000000000083526000809b819a82868b815a93600492602095f19788156118249c6117da6117926118509c6118109b61148a996117f7966118e1575b916118c3575b508561489e565b9c6117bd6117a1610100611efb565b73ffffffffffffffffffffffffffffffffffffffff909d168d52565b73ffffffffffffffffffffffffffffffffffffffff1660208c0152565b73ffffffffffffffffffffffffffffffffffffffff1660408a0152565b336060890152608088015260a087015260c08601612b4f565b60e082015260405194859160208301612da6565b037fffffffffffffffffffffffffffffffffffffffffffffffffffffffffffffffe08101855284610274565b813b15611662578361189295604051968795869485937ffa14fdc200000000000000000000000000000000000000000000000000000000855260048501612e48565b03925af180156118b6575b6118a5575080f35b806106ad836118b393610274565b80f35b6118be61216f565b61189d565b6118db915060203d8111610b4c57610b3d8183610274565b3861178b565b6118e961216f565b611785565b503461023f5760007ffffffffffffffffffffffffffffffffffffffffffffffffffffffffffffffffc36011261023f57602060405173ffffffffffffffffffffffffffffffffffffffff7f0000000000000000000000000000000000000000000000000000000000000000168152f35b503461023f5760807ffffffffffffffffffffffffffffffffffffffffffffffffffffffffffffffffc36011261023f5760043561199a81610485565b60643567ffffffffffffffff811161023f576119bd6119c59136906004016104be565b810190612fc6565b9073ffffffffffffffffffffffffffffffffffffffff8082163014611a31576040517fb61e0f2900000000000000000000000000000000000000000000000000000000815273ffffffffffffffffffffffffffffffffffffffff83166004820152326024820152604490fd5b9050611a54604083015173ffffffffffffffffffffffffffffffffffffffff1690565b9081163303611aff5761002182611a7f815173ffffffffffffffffffffffffffffffffffffffff1690565b90611aa1602082015173ffffffffffffffffffffffffffffffffffffffff1690565b604082015173ffffffffffffffffffffffffffffffffffffffff1692611ade606084015173ffffffffffffffffffffffffffffffffffffffff1690565b60e060c085015194611aef86612b16565b01519460443593602435936130c9565b6040517faead146700000000000000000000000000000000000000000000000000000000815233600482015273ffffffffffffffffffffffffffffffffffffffff919091166024820152604490fd5b6040810190604081528251809252606081019160208094019060005b818110611bac575050508281830391015281808451928381520193019160005b828110611b98575050505090565b835185529381019392810192600101611b8a565b825173ffffffffffffffffffffffffffffffffffffffff1685529385019391850191600101611b6a565b503461023f5760407ffffffffffffffffffffffffffffffffffffffffffffffffffffffffffffffffc36011261023f57600435611c1281610485565b73ffffffffffffffffffffffffffffffffffffffff6024359116906040517f18160ddd000000000000000000000000000000000000000000000000000000008152602081600481865afa908115611e38575b600091611e1a575b50604051907f0902f1ac000000000000000000000000000000000000000000000000000000008252606082600481875afa918215611e0d575b6000908193611dd9575b5092611d769293611cc06002612ecb565b94611d47600460e0611cd26002612ecb565b99604051928380927f392f37e90000000000000000000000000000000000000000000000000000000082525afa908115611dcc575b6000908192611d91575b50611d3c90611d2160008b612f89565b9073ffffffffffffffffffffffffffffffffffffffff169052565b611d21600189612f89565b611d63846dffffffffffffffffffffffffffff809416856148e7565b611d6e600089612f89565b5216906148e7565b611d81600184612f89565b526103c760405192839283611b4e565b611d3c9250611db7915060e03d8111611dc5575b611daf8183610274565b810190612f10565b969550935050505090611d11565b503d611da5565b611dd461216f565b611d07565b611d769350611dff915060603d8111611e06575b611df78183610274565b810190612e95565b5092611caf565b503d611ded565b611e1561216f565b611ca5565b611e32915060203d8111610b4c57610b3d8183610274565b38611c6c565b611e4061216f565b611c64565b503461023f576101007ffffffffffffffffffffffffffffffffffffffffffffffffffffffffffffffffc36011261023f57600435611e8281610485565b602435611e8e81610485565b606435611e9a81610485565b60843592611ea784610485565b60c435600281101561023f5760e4359367ffffffffffffffff851161023f576103c795611edb611eeb963690600401611333565b95909460a43593604435916128ce565b6040519081529081906020820190565b906104ae6040519283610274565b503461023f5760007ffffffffffffffffffffffffffffffffffffffffffffffffffffffffffffffffc36011261023f57604051611f47608082610274565b73ffffffffffffffffffffffffffffffffffffffff80600154168252600254818116602084015265ffffffffffff8160a01c16604084015260d01c606083015260035416906103c76004546040519384938460a0919493929460c082019573ffffffffffffffffffffffffffffffffffffffff91828151168452826020820151166020850152606065ffffffffffff9182604082015116604087015201511660608401521660808201520152565b73ffffffffffffffffffffffffffffffffffffffff7f000000000000000000000000000000000000000000000000000000000000000016330361203457565b60246040517fb5856416000000000000000000000000000000000000000000000000000000008152336004820152fd5b7fffffffffffffffffffffffffffffffffffffffffffffffffffffffffffffffe0601f60209267ffffffffffffffff81116120a0575b01160190565b6120a8610244565b61209a565b9291926120b982612064565b916120c76040519384610274565b82948184528183011161023f578281602093846000960137010152565b906120ee82612064565b6120fb6040519182610274565b8281527fffffffffffffffffffffffffffffffffffffffffffffffffffffffffffffffe06121298294612064565b0190602036910137565b9092610339949360809373ffffffffffffffffffffffffffffffffffffffff8092168452166020830152604082015281606082015201906102e5565b506040513d6000823e3d90fd5b8042116121865750565b602490604051907fd8bf61260000000000000000000000000000000000000000000000000000000082526004820152fd5b5190811515820361023f57565b91835180156122fb57846080918101031261023f576121e5602085016121b7565b9060408501519260ff8416840361023f5760806060870151960151926000146122df575073ffffffffffffffffffffffffffffffffffffffff7fffffffffffffffffffffffffffffffffffffffffffffffffffffffffffffffff945b1691823b1561023f576040517fd505accf0000000000000000000000000000000000000000000000000000000081523360048201523060248201526044810195909552606485019190915260ff909216608484015260a483019390935260c482015290600090829081838160e481015b03925af180156122d2575b6122c35750565b806106ad60006104ae93610274565b6122da61216f565b6122bc565b73ffffffffffffffffffffffffffffffffffffffff9094612241565b5050505050565b919082604091031261023f576020825192015190565b90919073ffffffffffffffffffffffffffffffffffffffff16803b1561023f576123cb9160409182517fa6afed9500000000000000000000000000000000000000000000000000000000815260008160048183865af18015612443575b61242e575b50825180809581947f7d6af0790000000000000000000000000000000000000000000000000000000083526004830191909173ffffffffffffffffffffffffffffffffffffffff6020820193169052565b03915afa908115612421575b6000916123f1575b50808210156123ec575090565b905090565b612412915060403d811161241a575b61240a8183610274565b810190612302565b9050386123df565b503d612400565b61242961216f565b6123d7565b806106ad600061243d93610274565b3861237a565b61244b61216f565b612375565b65ffffffffffff81160361023f57565b601f82602094937fffffffffffffffffffffffffffffffffffffffffffffffffffffffffffffffe0938186528686013760008582860101520116010190565b90610339949260a09173ffffffffffffffffffffffffffffffffffffffff80911684528082356124ce81610485565b1660208501528060208301356124e381610485565b16604085015260408201356124f781612450565b65ffffffffffff8091166060860152606083013561251481612450565b166080850152608082013561252881610485565b1682840152013560c0820152610100908160e08201520191612460565b919260206103399694606084359461255c86610485565b73ffffffffffffffffffffffffffffffffffffffff809616875283810135848801526040810135604088015201356060860152838151166080860152015160a08401521660c0820152610100908160e08201520191612460565b9081602091031261023f575190565b93916125e1916125db8297949a9998959a61217c565b85612318565b9480612748575b5050506e22d473030f116ddee9f6b43ac78ba394853b1561023f576040517f36c7851600000000000000000000000000000000000000000000000000000000815233600482015273ffffffffffffffffffffffffffffffffffffffff838116602483015285811660448301527f0000000000000000000000000000000000000000000000000000000000000000811660648301526000976020948794909390928a9290919083908290608490829084905af1801561273b575b612727575b506126b0826120e4565b966126ea604051988997889687947f27ce385400000000000000000000000000000000000000000000000000000000865260048601612133565b0393165af193841561271a575b9361270157509190565b61033991935060203d8111610b4c57610b3d8183610274565b61272261216f565b6126f7565b806106ad8461273593610274565b386126a6565b61274361216f565b6126a1565b6e22d473030f116ddee9f6b43ac78ba3803b1561023f5761279e9360008094604051968795869485937f2b67b570000000000000000000000000000000000000000000000000000000008552336004860161249f565b03925af180156127ca575b6127b5575b80806125e8565b806106ad60006127c493610274565b386127ae565b6127d261216f565b6127a9565b916127f2916127ec82979598969a999a61217c565b83612318565b946127fd6040611efb565b73ffffffffffffffffffffffffffffffffffffffff83168152938660208601526e22d473030f116ddee9f6b43ac78ba393843b1561023f57879460405180978180947f30f28b7a00000000000000000000000000000000000000000000000000000000825260009e8f9788943390600486019461287995612545565b03925af16020949080156128c1575b6128ad575b508773ffffffffffffffffffffffffffffffffffffffff6126b0826120e4565b806106ad8a6128bb93610274565b3861288d565b6128c961216f565b612888565b9296876128f0612a369a99600094956128ea612a0a9b9a61217c565b87612318565b998a9660405180947f6f307dc300000000000000000000000000000000000000000000000000000000825260209c8d9b8c948b8b8787600473ffffffffffffffffffffffffffffffffffffffff9d8e85165afa968715612af4575b8c97612aab575b50916129af6129cc926117da61148a96956129f79a9b612992612976610100611efb565b73ffffffffffffffffffffffffffffffffffffffff909e168e52565b8c019073ffffffffffffffffffffffffffffffffffffffff169052565b73ffffffffffffffffffffffffffffffffffffffff166060880152565b73ffffffffffffffffffffffffffffffffffffffff881660808701528c60a087015260c08601612b4f565b60e0820152604051998a918a8301612c64565b037fffffffffffffffffffffffffffffffffffffffffffffffffffffffffffffffe081018a5289610274565b612a6f604051988997889687947f27ce385400000000000000000000000000000000000000000000000000000000865260048601612133565b0393165af18015612a9e575b612a8457505090565b81612a9a92903d10610b4c57610b3d8183610274565b5090565b612aa661216f565b612a7b565b6129f797506129cc926117da61148a969593612adf6129af948d803d10612aed575b612ad78183610274565b810190612b01565b9a5093959650509250612952565b503d612acd565b612afc61216f565b61294b565b9081602091031261023f575161033981610485565b60021115612b2057565b7f4e487b7100000000000000000000000000000000000000000000000000000000600052602160045260246000fd5b6002821015612b205752565b60209067ffffffffffffffff8111612b75575b60051b0190565b612b7d610244565b612b6e565b92919092612b8f84612b5b565b91612b9d6040519384610274565b829480845260208094019060051b83019282841161023f5780915b848310612bc757505050505050565b823567ffffffffffffffff811161023f57820184601f8201121561023f578691612bf786838580953591016120ad565b815201920191612bb8565b906002821015612b205752565b90815180825260208092019182818360051b82019501936000915b848310612c3a5750505050505090565b9091929394958480612c5483856001950387528a516102e5565b9801930193019194939290612c2a565b61012060e0610339936020845273ffffffffffffffffffffffffffffffffffffffff8082511660208601526020820151166040850152612cc16040820151606086019073ffffffffffffffffffffffffffffffffffffffff169052565b606081015173ffffffffffffffffffffffffffffffffffffffff166080850152608081015173ffffffffffffffffffffffffffffffffffffffff1660a085015260a081015160c0850152612d1c60c082015183860190612c02565b015191610100808201520190612c0f565b61010060c0610339936020845273ffffffffffffffffffffffffffffffffffffffff8082511660208601528060208301511660408601528060408301511660608601526060820151166080850152608081015160a0850152612d9660a082015183860190612c02565b01519160e0808201520190612c0f565b61012060e0610339936020845273ffffffffffffffffffffffffffffffffffffffff8082511660208601526020820151166040850152612e036040820151606086019073ffffffffffffffffffffffffffffffffffffffff169052565b606081015173ffffffffffffffffffffffffffffffffffffffff166080850152608081015160a085015260a081015160c0850152612d1c60c082015183860190612c02565b610339939273ffffffffffffffffffffffffffffffffffffffff606093168252602082015281604082015201906102e5565b51906dffffffffffffffffffffffffffff8216820361023f57565b9081606091031261023f57612ea981612e7a565b916040612eb860208401612e7a565b92015163ffffffff8116810361023f5790565b90612ed582612b5b565b612ee26040519182610274565b8281527fffffffffffffffffffffffffffffffffffffffffffffffffffffffffffffffe06121298294612b5b565b908160e091031261023f57805191602082015191604081015191606082015191612f3c608082016121b7565b9160c060a0830151612f4d81610485565b92015161033981610485565b507f4e487b7100000000000000000000000000000000000000000000000000000000600052603260045260246000fd5b6020918151811015612f9e575b60051b010190565b612fa6612f59565b612f96565b9080601f8301121561023f5781602061033993359101612b82565b9060208282031261023f57813567ffffffffffffffff9283821161023f570190610100808383031261023f57612ffb90611efb565b92613005836104a3565b8452613013602084016104a3565b6020850152613024604084016104a3565b6040850152613035606084016104a3565b6060850152613046608084016104a3565b608085015260a083013560a085015261306160c08401611326565b60c085015260e083013590811161023f5761307c9201612fab565b60e082015290565b507f4e487b7100000000000000000000000000000000000000000000000000000000600052601160045260246000fd5b919082039182116130c157565b6104ae613084565b969297959093919373ffffffffffffffffffffffffffffffffffffffff809116976040986131378a517f3ba0b9a90000000000000000000000000000000000000000000000000000000081526000966020826004818b885af191821561337c575b889261335c575b5061489e565b90613141866120e4565b91813b1561335857868095936004979593613190938f9a6132509c9b518096819582947ffa14fdc20000000000000000000000000000000000000000000000000000000084528a8f8501612e48565b03925af1801561334b575b613337575b5016908951907f89afcb440000000000000000000000000000000000000000000000000000000082528a82806131f53089830191909173ffffffffffffffffffffffffffffffffffffffff6020820193169052565b038187875af192831561332a575b84928594613306575b5060e0908c51968780927f392f37e90000000000000000000000000000000000000000000000000000000082525afa9485156132f9575b84956132cd575b50613396565b507f000000000000000000000000000000000000000000000000000000000000000061327c3082614a63565b948386106132a4575061329f8596613298856104ae97986130b4565b9083614a1a565b614a1a565b600490517f38040e8d000000000000000000000000000000000000000000000000000000008152fd5b9094506132e991935060e03d8111611dc557611daf8183610274565b979550935050505092933861324a565b61330161216f565b613243565b61332291945060e093508c8d3d1061241a5761240a8183610274565b93909261320c565b61333261216f565b613203565b806106ad8661334593610274565b386131a0565b61335361216f565b61319b565b8680fd5b61337591925060203d8111610b4c57610b3d8183610274565b9038613131565b61338461216f565b61312a565b919082018092116130c157565b919294939473ffffffffffffffffffffffffffffffffffffffff807f00000000000000000000000000000000000000000000000000000000000000001680828416149081928215613475575b5050613421575091613414600161340e610339989461341b979661340760008b612f89565b5186613481565b96612f89565b5190613481565b90613389565b61033996929493919015613457575060408561341b9596516001101561344a575b015190613481565b613452612f59565b613442565b9150602085613470959496511561344a57015190613481565b613389565b891614905038806133e2565b939291906000946002811015612b2057806134a257506103399394506135d6565b60019192506134b081612b16565b146134ba575b5050565b600092935060409173ffffffffffffffffffffffffffffffffffffffff6134ed8360208061359296518301019101613724565b60808397929994930195808751036135ce575b5061355c61353e613525895173ffffffffffffffffffffffffffffffffffffffff1690565b73ffffffffffffffffffffffffffffffffffffffff1690565b9651731111111254eeb25477b68fb85ed929f73a96058280986138a2565b8751988997889687957f12aa3caf0000000000000000000000000000000000000000000000000000000087521660048601613815565b03925af19081156135c1575b6000916135a9575090565b612a9a915060403d811161241a5761240a8183610274565b6135c961216f565b61359e565b865238613500565b60009190829161363c604051957fd2c4b59800000000000000000000000000000000000000000000000000000000875260209673def171fe48cf0115b1d80b88dc8eab59176fee57938882600481885afa9182156136ca575b87926136ab575b506138a2565b84825192019034905af13d156136a3573d9061365782612064565b916136656040519384610274565b82523d60008484013e5b1561367957015190565b60046040517f29e660eb000000000000000000000000000000000000000000000000000000008152fd5b60609061366f565b6136c3919250893d8b11612aed57612ad78183610274565b9038613636565b6136d261216f565b61362f565b51906104ae82610485565b81601f8201121561023f5780516136f881612064565b926137066040519485610274565b8184526020828401011161023f5761033991602080850191016102c2565b9081810392610140841261023f5760e07fffffffffffffffffffffffffffffffffffffffffffffffffffffffffffffffe0845161376081610485565b95011261023f5760405161377560e082610274565b602084015161378381610485565b8152604084015161379381610485565b60208201526137a4606085016136d7565b60408201526137b5608085016136d7565b606082015260a0840151608082015260c084015160a082015260e084015160c0820152926101008101519267ffffffffffffffff9384811161023f57816137fd9184016136e2565b9361012083015190811161023f5761033992016136e2565b9260c061033995936138939373ffffffffffffffffffffffffffffffffffffffff80911687528082511660208801528060208301511660408801528060408301511660608801526060820151166080870152608081015160a087015260a081015182870152015160e0850152610140806101008601528401906102e5565b916101208184039101526102e5565b6040517fdd62ed3e00000000000000000000000000000000000000000000000000000000815230600482015273ffffffffffffffffffffffffffffffffffffffff83166024820152919290916020818060448101038173ffffffffffffffffffffffffffffffffffffffff87165afa9081156139b1575b600091613993575b5010156134b65760446010600080936020956014527fffffffffffffffffffffffffffffffffffffffffffffffffffffffffffffffff6034526f095ea7b300000000000000000000000082525af13d15600160005114171615613985576000603452565b633e3f8f736000526004601cfd5b6139ab915060203d8111610b4c57610b3d8183610274565b38613921565b6139b961216f565b613919565b9060208282031261023f57813567ffffffffffffffff9283821161023f57019060e08282031261023f576139f260e0611efb565b926139fc836104a3565b8452613a0a602084016104a3565b6020850152613a1b604084016104a3565b6040850152613a2c606084016104a3565b606085015260808301356080850152613a4760a08401611326565b60a085015260c083013590811161023f57613a629201612fab565b60c082015290565b91926103399493600392845273ffffffffffffffffffffffffffffffffffffffff80911660208501528082541660408501526001820154908116606085015265ffffffffffff8160a01c16608085015260d01c60a0840152613b03613ae6600283015473ffffffffffffffffffffffffffffffffffffffff1690565b73ffffffffffffffffffffffffffffffffffffffff1660c0850152565b015460e0820152610120908161010082015201906102e5565b9593919594929094604051937f392f37e900000000000000000000000000000000000000000000000000000000855273ffffffffffffffffffffffffffffffffffffffff9260e0866004818787165afa968715613cb1575b60009182938398849a613c78575b50908989613b9296959493613e4a565b928310613c4f5786866000602094613bca876104ae9c87613bc5836e22d473030f116ddee9f6b43ac78ba360019b6138a2565b613cf1565b613bd3826120e4565b96613c0d604051988997889687947f8808e71c00000000000000000000000000000000000000000000000000000000865260048601613a6a565b0393165af18015613c42575b613c24575b506146d0565b613c3b9060203d8111610b4c57610b3d8183610274565b5038613c1e565b613c4a61216f565b613c19565b60046040517ebf8768000000000000000000000000000000000000000000000000000000008152fd5b9193509850613c9b919750613b92935060e03d8111611dc557611daf8183610274565b9c909b9297939692955091935090919050613b82565b613cb961216f565b613b74565b9081606091031261023f578051613cd481610485565b9160406020830151613ce581612450565b92015161033981612450565b6040517f927da10500000000000000000000000000000000000000000000000000000000815230600482015273ffffffffffffffffffffffffffffffffffffffff82811660248301528316604482015291929091906e22d473030f116ddee9f6b43ac78ba390606083606481855afa928315613e3d575b600093613e0b575b5073ffffffffffffffffffffffffffffffffffffffff8093161015613e0557803b1561023f576040517f87517c4500000000000000000000000000000000000000000000000000000000815273ffffffffffffffffffffffffffffffffffffffff938416600482015293831660248501529116604483015265ffffffffffff60648301526000908290818381608481016122b1565b50505050565b613e2d91935060603d8111613e36575b613e258183610274565b810190613cbe565b50509138613d70565b503d613e1b565b613e4561216f565b613d68565b93906103399691959293957f00000000000000000000000000000000000000000000000000000000000000009073ffffffffffffffffffffffffffffffffffffffff978883169289851698848a1480958115613fba575b5015613f0a5750505050600014613efa57613eed92613edc92600592955b95965b613ecc3089614a63565b98881603613ef357505b86614762565b613ee7818486614040565b946130b4565b9161414e565b9050613ed6565b613eed92613edc92600592613ebf565b919350919793897f00000000000000000000000000000000000000000000000000000000000000001680861480918115613fae575b5015613f8e5715613f7057613eed9693613edc9693600596936134146000613f6a959c5b9c9d612f89565b50613ec2565b96613eed9693613edc9693600596936134146000613f6a959c613f63565b5096613eed9693613edc9693600596936134146000613f6a959c9d612f89565b90508b8a161438613f3f565b90508b8a161438613ea1565b602090818184031261023f5780519067ffffffffffffffff821161023f57019180601f8401121561023f578251613ffc81612b5b565b9361400a6040519586610274565b818552838086019260051b82010192831161023f578301905b828210614031575050505090565b81518152908301908301614023565b906140ff9291739c12939390052919af3155f41bf4160fd3666a6f926140678185846138a2565b60e4604051809481937f13dcfc5900000000000000000000000000000000000000000000000000000000835260048301526000968795869283602486015273ffffffffffffffffffffffffffffffffffffffff80921660448601521660648401528160848401523060a48401524260c48401525af1918215614126575b8092614103575b50506140f9600182516130b4565b90612f89565b5190565b61411f92503d8091833e6141178183610274565b810190613fc6565b38806140eb565b61412e61216f565b6140e4565b9081606091031261023f578051916040602083015192015190565b9061012490600060609495739c12939390052919af3155f41bf4160fd3666a6f9061417a8883886138a2565b6141858183866138a2565b60405197889687957f5a47ddc300000000000000000000000000000000000000000000000000000000875273ffffffffffffffffffffffffffffffffffffffff8092166004880152166024860152836044860152606485015260848401528160a48401528160c48401523060e4840152426101048401525af190811561423f575b600091614211575090565b614232915060603d8111614238575b61422a8183610274565b810190614133565b91505090565b503d614220565b61424761216f565b614206565b9060208282031261023f57813567ffffffffffffffff9283821161023f570190610100808383031261023f5761428190611efb565b9261428b836104a3565b8452614299602084016104a3565b60208501526142aa604084016104a3565b60408501526142bb606084016104a3565b60608501526080830135608085015260a083013560a085015261306160c08401611326565b9081602091031261023f57610339906121b7565b93969490929591956143ce73ffffffffffffffffffffffffffffffffffffffff8096169660409460048651997f89afcb44000000000000000000000000000000000000000000000000000000008b528a8881806143703087830191909173ffffffffffffffffffffffffffffffffffffffff6020820193169052565b0360009e8f865af191821561451d575b8c918d936144f9575b5060e0908a51948580927f392f37e90000000000000000000000000000000000000000000000000000000082525afa9384156144ec575b8c938d956132cd5750613396565b507f0000000000000000000000000000000000000000000000000000000000000000906143fb3083614a63565b9283106144c3579261441a8896938660209a97946144799c9a9761452a565b51978896879586937f23b872dd0000000000000000000000000000000000000000000000000000000085526004850160409194939294606082019573ffffffffffffffffffffffffffffffffffffffff80921683521660208201520152565b0393165af180156144b6575b61448c5750565b6144ac9060203d81116144af575b6144a48183610274565b8101906142e0565b50565b503d61449a565b6144be61216f565b614485565b600484517fb2a4caeb000000000000000000000000000000000000000000000000000000008152fd5b6144f461216f565b6143c0565b61451591935060e092508a3d8c1161241a5761240a8183610274565b929091614389565b61452561216f565b614380565b93929391909161453b828683612318565b614546818386614a1a565b60009573ffffffffffffffffffffffffffffffffffffffff9283168761456b816120e4565b91803b156146cc5781908180896145b1604051978896879586947f1e7dcc0d00000000000000000000000000000000000000000000000000000000865260048601612133565b03925af180156146bf575b6146ab575b508181116145d3575b50505050509050565b906145dd916130b4565b927f0000000000000000000000000000000000000000000000000000000000000000821691811682036146995750803b15610c93579361466d93948160405180927f2e1a7d4d0000000000000000000000000000000000000000000000000000000082528183816146568a600483019190602083019252565b03925af1801561468c575b614678575b50506149a3565b8038808080806145ca565b6106ad6146859282610274565b3880614666565b61469461216f565b614661565b90506146a6939450614a1a565b61466d565b806106ad896146b993610274565b386145c1565b6146c761216f565b6145bc565b5080fd5b90916146dc3083614a63565b916146e73085614a63565b928281614705575b505050816146fc57505050565b6104ae92614a1a565b61470e92614a1a565b3880826146ef565b818102929181159184041417156130c157565b8115614733570490565b7f4e487b7100000000000000000000000000000000000000000000000000000000600052601260045260246000fd5b614872906148686147c5610339956147ad612710918203968288938411614891575b6147978285830180841161488457614716565b9681810291818304149015171561488457614716565b8060021b908082046004149015171561488457614716565b936147d08380614716565b948501809511614877575b8470ffffffffffffffffffffffffffffffffff1060071b85811c68ffffffffffffffffff1060061b1785811c64ffffffffff1060051b1785811c62ffffff1060041b1760019060b56201000088831c0191831c1b0260121c80870401811c80870401811c80870401811c80870401811c80870401811c80870401811c80870401901c809281926002614716565b95041090036130b4565b614729565b61487f613084565b6147db565b61488c613084565b614716565b614899613084565b614784565b90807fffffffffffffffffffffffffffffffffffffffffffffffffffffffffffffffff04821181026148d957670de0b6b3a764000091020490565b63bac65e5b6000526004601cfd5b91600092828102927fffffffffffffffffffffffffffffffffffffffffffffffffffffffffffffffff8183099184831085018084039314614987578284111561497a57908391099060018386038416808080960460028082600302188083028203028083028203028083028203028083028203028083028203028092029003029703040190848311900302920304170290565b63ae47f70286526004601cfd5b50505091821561499657500490565b63ae47f70290526004601cfd5b600080809381935af1156149b357565b63b12d13eb6000526004601cfd5b601c600060649281946020966040519860605260405260601b602c526f23b872dd000000000000000000000000600c525af13d15600160005114171615614a0c576000606052604052565b637939f4246000526004601cfd5b60109260209260145260345260446000938480936fa9059cbb00000000000000000000000082525af13d156001835114171615614a5657603452565b6390b8ec1890526004601cfd5b602460106020939284936014526f70a082310000000000000000000000006000525afa601f3d1116602051029056fea164736f6c6343000811000a","opcodes":"PUSH2 0x140 PUSH1 0x40 DUP2 DUP2 MSTORE CALLVALUE PUSH3 0x4B0 JUMPI DUP1 DUP3 PUSH3 0x4FD5 DUP1 CODESIZE SUB DUP1 SWAP2 PUSH3 0x24 DUP3 DUP6 PUSH3 0x4B5 JUMP JUMPDEST DUP4 CODECOPY DUP2 ADD SUB SLT PUSH3 0x4B0 JUMPI DUP2 MLOAD PUSH1 0x1 PUSH1 0x1 PUSH1 0xA0 SHL SUB SWAP3 SWAP1 SWAP2 SWAP1 DUP4 DUP4 AND SWAP1 DUP2 DUP5 SUB PUSH3 0x4B0 JUMPI PUSH1 0x20 DUP1 SWAP2 ADD MLOAD SWAP4 PUSH1 0x80 MSTORE DUP3 MLOAD SWAP2 PUSH4 0x1C2EB17B PUSH1 0xE3 SHL DUP4 MSTORE PUSH1 0x4 SWAP3 DUP3 DUP2 DUP6 DUP2 DUP6 GAS STATICCALL SWAP1 DUP2 ISZERO PUSH3 0x483 JUMPI PUSH1 0x0 SWAP2 PUSH3 0x48E JUMPI JUMPDEST POP PUSH1 0xC0 MSTORE DUP4 MLOAD PUSH4 0xD63A6CCD PUSH1 0xE0 SHL DUP2 MSTORE DUP3 DUP2 DUP6 DUP2 DUP6 GAS STATICCALL SWAP1 DUP2 ISZERO PUSH3 0x483 JUMPI SWAP2 PUSH1 0x0 SWAP2 PUSH1 0x24 SWAP5 SWAP4 DUP4 SWAP2 PUSH3 0x44F JUMPI JUMPDEST POP PUSH1 0xA0 MSTORE DUP6 MLOAD SWAP4 DUP5 DUP1 SWAP3 PUSH4 0x2815A897 PUSH1 0xE1 SHL DUP3 MSTORE DUP10 DUP9 DUP4 ADD MSTORE GAS STATICCALL SWAP2 DUP3 ISZERO PUSH3 0x444 JUMPI PUSH1 0x0 SWAP1 DUP2 SWAP1 DUP3 SWAP9 DUP4 SWAP6 PUSH3 0x33F JUMPI JUMPDEST POP POP PUSH2 0x100 SWAP8 DUP9 MSTORE PUSH1 0xE0 MSTORE ISZERO PUSH3 0x32F JUMPI PUSH3 0x135 PUSH1 0x31 DUP6 MLOAD DUP1 SWAP5 PUSH17 0x21BCB3B73AB996A0B63A30B4B916AC1D1 PUSH1 0x7D SHL DUP6 DUP4 ADD MSTORE PUSH3 0x124 DUP2 MLOAD DUP1 SWAP3 DUP8 DUP7 DUP7 ADD SWAP2 ADD PUSH3 0x4EF JUMP JUMPDEST DUP2 ADD SUB PUSH1 0x11 DUP2 ADD DUP6 MSTORE ADD DUP4 PUSH3 0x4B5 JUMP JUMPDEST DUP2 MLOAD SWAP2 PUSH1 0x1 PUSH1 0x1 PUSH1 0x40 SHL SUB DUP4 GT PUSH3 0x31A JUMPI PUSH1 0x0 SLOAD PUSH1 0x1 SWAP5 DUP6 DUP3 DUP2 SHR SWAP3 AND DUP1 ISZERO PUSH3 0x30F JUMPI JUMPDEST DUP5 DUP4 LT EQ PUSH3 0x2FA JUMPI POP PUSH1 0x1F DUP2 GT PUSH3 0x2AC JUMPI JUMPDEST POP DUP2 PUSH1 0x1F DUP5 GT PUSH1 0x1 EQ PUSH3 0x240 JUMPI POP SWAP3 DUP3 SWAP4 SWAP2 DUP4 SWAP3 PUSH1 0x0 SWAP5 PUSH3 0x234 JUMPI JUMPDEST POP POP SHL SWAP2 PUSH1 0x0 NOT SWAP1 PUSH1 0x3 SHL SHR NOT AND OR PUSH1 0x0 SSTORE JUMPDEST PUSH2 0x120 SWAP2 DUP3 MSTORE MLOAD SWAP1 PUSH2 0x4A9F SWAP3 DUP4 PUSH3 0x536 DUP5 CODECOPY PUSH1 0x80 MLOAD DUP4 PUSH2 0x193A ADD MSTORE PUSH1 0xA0 MLOAD DUP4 DUP2 DUP2 PUSH2 0x7FE ADD MSTORE DUP2 DUP2 PUSH2 0xA7E ADD MSTORE DUP2 DUP2 PUSH2 0xBDF ADD MSTORE DUP2 DUP2 PUSH2 0x1302 ADD MSTORE DUP2 DUP2 PUSH2 0x2656 ADD MSTORE DUP2 DUP2 PUSH2 0x3253 ADD MSTORE DUP2 DUP2 PUSH2 0x33B3 ADD MSTORE DUP2 DUP2 PUSH2 0x3E57 ADD MSTORE PUSH2 0x43D1 ADD MSTORE PUSH1 0xC0 MLOAD DUP4 DUP2 DUP2 PUSH2 0x16B2 ADD MSTORE DUP2 DUP2 PUSH2 0x200C ADD MSTORE DUP2 DUP2 PUSH2 0x3F13 ADD MSTORE PUSH2 0x45E0 ADD MSTORE PUSH1 0xE0 MLOAD DUP4 PUSH2 0x118D ADD MSTORE MLOAD DUP3 PUSH2 0x917 ADD MSTORE MLOAD DUP2 PUSH2 0xD17 ADD MSTORE RETURN JUMPDEST ADD MLOAD SWAP3 POP CODESIZE DUP1 PUSH3 0x18D JUMP JUMPDEST SWAP2 SWAP1 DUP4 PUSH1 0x1F NOT DUP2 AND PUSH1 0x0 DUP1 MSTORE DUP5 PUSH1 0x0 KECCAK256 SWAP5 PUSH1 0x0 SWAP1 JUMPDEST DUP9 DUP4 DUP4 LT PUSH3 0x291 JUMPI POP POP POP LT PUSH3 0x277 JUMPI JUMPDEST POP POP POP DUP2 SHL ADD PUSH1 0x0 SSTORE PUSH3 0x1A0 JUMP JUMPDEST ADD MLOAD PUSH1 0x0 NOT PUSH1 0xF8 DUP5 PUSH1 0x3 SHL AND SHR NOT AND SWAP1 SSTORE CODESIZE DUP1 DUP1 PUSH3 0x268 JUMP JUMPDEST DUP6 DUP8 ADD MLOAD DUP9 SSTORE SWAP1 SWAP7 ADD SWAP6 SWAP5 DUP6 ADD SWAP5 DUP8 SWAP4 POP SWAP1 DUP2 ADD SWAP1 PUSH3 0x255 JUMP JUMPDEST PUSH1 0x0 DUP1 MSTORE DUP3 PUSH1 0x0 KECCAK256 PUSH1 0x1F DUP6 ADD PUSH1 0x5 SHR DUP2 ADD SWAP2 DUP5 DUP7 LT PUSH3 0x2EF JUMPI JUMPDEST PUSH1 0x1F ADD PUSH1 0x5 SHR ADD SWAP1 DUP6 SWAP1 JUMPDEST DUP3 DUP2 LT PUSH3 0x2E2 JUMPI POP POP PUSH3 0x16F JUMP JUMPDEST PUSH1 0x0 DUP2 SSTORE ADD DUP6 SWAP1 PUSH3 0x2D2 JUMP JUMPDEST SWAP1 SWAP2 POP DUP2 SWAP1 PUSH3 0x2C7 JUMP JUMPDEST PUSH1 0x22 SWAP1 PUSH4 0x4E487B71 PUSH1 0xE0 SHL PUSH1 0x0 MSTORE MSTORE PUSH1 0x24 PUSH1 0x0 REVERT JUMPDEST SWAP2 PUSH1 0x7F AND SWAP2 PUSH3 0x15B JUMP JUMPDEST PUSH1 0x41 DUP5 PUSH4 0x4E487B71 PUSH1 0xE0 SHL PUSH1 0x0 MSTORE MSTORE PUSH1 0x24 PUSH1 0x0 REVERT JUMPDEST DUP4 MLOAD PUSH4 0xCB183681 PUSH1 0xE0 SHL DUP2 MSTORE DUP4 SWAP1 REVERT JUMPDEST SWAP5 POP SWAP8 POP POP RETURNDATASIZE DUP1 DUP3 DUP10 RETURNDATACOPY PUSH3 0x355 DUP2 DUP10 PUSH3 0x4B5 JUMP JUMPDEST DUP8 ADD SWAP7 PUSH2 0x120 DUP2 DUP10 SUB SLT PUSH3 0x440 JUMPI DUP1 MLOAD SWAP1 DUP2 ISZERO ISZERO DUP3 SUB PUSH3 0x43C JUMPI DUP1 DUP5 ADD MLOAD PUSH1 0x1 PUSH1 0x1 PUSH1 0x58 SHL SUB DUP2 AND SUB PUSH3 0x43C JUMPI DUP7 DUP2 ADD MLOAD SWAP3 DUP6 DUP5 AND DUP5 SUB PUSH3 0x426 JUMPI PUSH1 0x60 DUP3 ADD MLOAD SWAP6 DUP1 DUP8 AND DUP8 SUB PUSH3 0x440 JUMPI PUSH1 0xC0 DUP4 ADD MLOAD SWAP1 DUP2 AND SUB PUSH3 0x426 JUMPI PUSH2 0x100 DUP3 ADD MLOAD PUSH1 0x1 PUSH1 0x1 PUSH1 0x40 SHL SUB SWAP3 DUP4 DUP3 GT PUSH3 0x43C JUMPI ADD SWAP1 DUP11 PUSH1 0x1F DUP4 ADD SLT ISZERO PUSH3 0x426 JUMPI DUP2 MLOAD SWAP3 DUP4 GT PUSH3 0x429 JUMPI DUP9 MLOAD SWAP11 PUSH3 0x3F9 PUSH1 0x1F DUP6 ADD PUSH1 0x1F NOT AND DUP9 ADD DUP14 PUSH3 0x4B5 JUMP JUMPDEST DUP4 DUP13 MSTORE DUP7 DUP5 DUP5 ADD ADD GT PUSH3 0x426 JUMPI POP SWAP1 PUSH3 0x41A SWAP2 DUP6 DUP1 DUP13 ADD SWAP2 ADD PUSH3 0x4EF JUMP JUMPDEST SWAP1 SWAP3 SWAP7 SWAP3 CODESIZE DUP1 PUSH3 0xDC JUMP JUMPDEST DUP1 REVERT JUMPDEST PUSH4 0x4E487B71 PUSH1 0xE0 SHL DUP2 MSTORE PUSH1 0x41 DUP9 MSTORE PUSH1 0x24 SWAP1 REVERT JUMPDEST DUP3 DUP1 REVERT JUMPDEST POP DUP1 REVERT JUMPDEST DUP5 MLOAD RETURNDATASIZE PUSH1 0x0 DUP3 RETURNDATACOPY RETURNDATASIZE SWAP1 REVERT JUMPDEST PUSH3 0x474 SWAP2 POP DUP5 RETURNDATASIZE DUP7 GT PUSH3 0x47B JUMPI JUMPDEST PUSH3 0x46B DUP2 DUP4 PUSH3 0x4B5 JUMP JUMPDEST DUP2 ADD SWAP1 PUSH3 0x514 JUMP JUMPDEST CODESIZE PUSH3 0xAA JUMP JUMPDEST POP RETURNDATASIZE PUSH3 0x45F JUMP JUMPDEST DUP6 MLOAD RETURNDATASIZE PUSH1 0x0 DUP3 RETURNDATACOPY RETURNDATASIZE SWAP1 REVERT JUMPDEST PUSH3 0x4A9 SWAP2 POP DUP4 RETURNDATASIZE DUP6 GT PUSH3 0x47B JUMPI PUSH3 0x46B DUP2 DUP4 PUSH3 0x4B5 JUMP JUMPDEST CODESIZE PUSH3 0x7B JUMP JUMPDEST PUSH1 0x0 DUP1 REVERT JUMPDEST PUSH1 0x1F SWAP1 SWAP2 ADD PUSH1 0x1F NOT AND DUP2 ADD SWAP1 PUSH1 0x1 PUSH1 0x1 PUSH1 0x40 SHL SUB DUP3 GT SWAP1 DUP3 LT OR PUSH3 0x4D9 JUMPI PUSH1 0x40 MSTORE JUMP JUMPDEST PUSH4 0x4E487B71 PUSH1 0xE0 SHL PUSH1 0x0 MSTORE PUSH1 0x41 PUSH1 0x4 MSTORE PUSH1 0x24 PUSH1 0x0 REVERT JUMPDEST PUSH1 0x0 JUMPDEST DUP4 DUP2 LT PUSH3 0x503 JUMPI POP POP PUSH1 0x0 SWAP2 ADD MSTORE JUMP JUMPDEST DUP2 DUP2 ADD MLOAD DUP4 DUP3 ADD MSTORE PUSH1 0x20 ADD PUSH3 0x4F2 JUMP JUMPDEST SWAP1 DUP2 PUSH1 0x20 SWAP2 SUB SLT PUSH3 0x4B0 JUMPI MLOAD PUSH1 0x1 PUSH1 0x1 PUSH1 0xA0 SHL SUB DUP2 AND DUP2 SUB PUSH3 0x4B0 JUMPI SWAP1 JUMP INVALID PUSH1 0x80 PUSH1 0x40 MSTORE PUSH1 0x4 CALLDATASIZE LT ISZERO PUSH2 0x23 JUMPI JUMPDEST CALLDATASIZE ISZERO PUSH2 0x19 JUMPI PUSH1 0x0 DUP1 REVERT JUMPDEST PUSH2 0x21 PUSH2 0x1FF5 JUMP JUMPDEST STOP JUMPDEST PUSH1 0x0 CALLDATALOAD PUSH1 0xE0 SHR DUP1 PUSH4 0x6FDDE03 EQ PUSH2 0x22B JUMPI DUP1 PUSH4 0xE12D008 EQ PUSH2 0x222 JUMPI DUP1 PUSH4 0xF22D435 EQ PUSH2 0x219 JUMPI DUP1 PUSH4 0x1907CD7D EQ PUSH2 0x210 JUMPI DUP1 PUSH4 0x21A5E908 EQ PUSH2 0x207 JUMPI DUP1 PUSH4 0x5C1E6404 EQ PUSH2 0x1FE JUMPI DUP1 PUSH4 0x6AEE7C1E EQ PUSH2 0x1F5 JUMPI DUP1 PUSH4 0x6AFDD850 EQ PUSH2 0x1EC JUMPI DUP1 PUSH4 0x729F6CFE EQ PUSH2 0x1E3 JUMPI DUP1 PUSH4 0x7AF11AC0 EQ PUSH2 0x1DA JUMPI DUP1 PUSH4 0x88A799F6 EQ PUSH2 0x1D1 JUMPI DUP1 PUSH4 0x8F53D74F EQ PUSH2 0x1C8 JUMPI DUP1 PUSH4 0x989BEBCF EQ PUSH2 0x1BF JUMPI DUP1 PUSH4 0x9BBF470D EQ PUSH2 0x1B6 JUMPI DUP1 PUSH4 0xBDCB9932 EQ PUSH2 0x1AD JUMPI DUP1 PUSH4 0xC2A95DDF EQ PUSH2 0x1A4 JUMPI DUP1 PUSH4 0xD63A6CCD EQ PUSH2 0x19B JUMPI DUP1 PUSH4 0xD6906D23 EQ PUSH2 0x192 JUMPI DUP1 PUSH4 0xDBE5F2FB EQ PUSH2 0x189 JUMPI DUP1 PUSH4 0xE1758BD8 EQ PUSH2 0x180 JUMPI DUP1 PUSH4 0xE75EE2E3 EQ PUSH2 0x177 JUMPI DUP1 PUSH4 0xE8A24E1D EQ PUSH2 0x16E JUMPI DUP1 PUSH4 0xE95471C7 EQ PUSH2 0x165 JUMPI DUP1 PUSH4 0xEBB0D616 EQ PUSH2 0x15C JUMPI DUP1 PUSH4 0xFD62695B EQ PUSH2 0x153 JUMPI PUSH4 0xFEE0BDC4 SUB PUSH2 0xE JUMPI PUSH2 0x14E PUSH2 0x1F09 JUMP JUMPDEST PUSH2 0xE JUMP JUMPDEST POP PUSH2 0x14E PUSH2 0x1E45 JUMP JUMPDEST POP PUSH2 0x14E PUSH2 0x1BD6 JUMP JUMPDEST POP PUSH2 0x14E PUSH2 0x195E JUMP JUMPDEST POP PUSH2 0x14E PUSH2 0x18EE JUMP JUMPDEST POP PUSH2 0x14E PUSH2 0x16D6 JUMP JUMPDEST POP PUSH2 0x14E PUSH2 0x1666 JUMP JUMPDEST POP PUSH2 0x14E PUSH2 0x1544 JUMP JUMPDEST POP PUSH2 0x14E PUSH2 0x13F4 JUMP JUMPDEST POP PUSH2 0x14E PUSH2 0x12B6 JUMP JUMPDEST POP PUSH2 0x14E PUSH2 0x11FF JUMP JUMPDEST POP PUSH2 0x14E PUSH2 0x11B1 JUMP JUMPDEST POP PUSH2 0x14E PUSH2 0x1141 JUMP JUMPDEST POP PUSH2 0x14E PUSH2 0xF9B JUMP JUMPDEST POP PUSH2 0x14E PUSH2 0xE15 JUMP JUMPDEST POP PUSH2 0x14E PUSH2 0xD88 JUMP JUMPDEST POP PUSH2 0x14E PUSH2 0xD3A JUMP JUMPDEST POP PUSH2 0x14E PUSH2 0xCE0 JUMP JUMPDEST POP PUSH2 0x14E PUSH2 0xC97 JUMP JUMPDEST POP PUSH2 0x14E PUSH2 0xB60 JUMP JUMPDEST POP PUSH2 0x14E PUSH2 0xA04 JUMP JUMPDEST POP PUSH2 0x14E PUSH2 0x93B JUMP JUMPDEST POP PUSH2 0x14E PUSH2 0x8CB JUMP JUMPDEST POP PUSH2 0x14E PUSH2 0x6FA JUMP JUMPDEST POP PUSH2 0x14E PUSH2 0x4EC JUMP JUMPDEST POP PUSH2 0x14E PUSH2 0x33C JUMP JUMPDEST PUSH1 0x0 SWAP2 SUB SLT PUSH2 0x23F JUMPI JUMP JUMPDEST PUSH1 0x0 DUP1 REVERT JUMPDEST POP PUSH32 0x4E487B7100000000000000000000000000000000000000000000000000000000 PUSH1 0x0 MSTORE PUSH1 0x41 PUSH1 0x4 MSTORE PUSH1 0x24 PUSH1 0x0 REVERT JUMPDEST SWAP1 PUSH1 0x1F PUSH32 0xFFFFFFFFFFFFFFFFFFFFFFFFFFFFFFFFFFFFFFFFFFFFFFFFFFFFFFFFFFFFFFE0 SWAP2 ADD AND DUP2 ADD SWAP1 DUP2 LT PUSH8 0xFFFFFFFFFFFFFFFF DUP3 GT OR PUSH2 0x2B5 JUMPI PUSH1 0x40 MSTORE JUMP JUMPDEST PUSH2 0x2BD PUSH2 0x244 JUMP JUMPDEST PUSH1 0x40 MSTORE JUMP JUMPDEST PUSH1 0x0 JUMPDEST DUP4 DUP2 LT PUSH2 0x2D5 JUMPI POP POP PUSH1 0x0 SWAP2 ADD MSTORE JUMP JUMPDEST DUP2 DUP2 ADD MLOAD DUP4 DUP3 ADD MSTORE PUSH1 0x20 ADD PUSH2 0x2C5 JUMP JUMPDEST SWAP1 PUSH32 0xFFFFFFFFFFFFFFFFFFFFFFFFFFFFFFFFFFFFFFFFFFFFFFFFFFFFFFFFFFFFFFE0 PUSH1 0x1F PUSH1 0x20 SWAP4 PUSH2 0x321 DUP2 MLOAD DUP1 SWAP3 DUP2 DUP8 MSTORE DUP8 DUP1 DUP9 ADD SWAP2 ADD PUSH2 0x2C2 JUMP JUMPDEST ADD AND ADD ADD SWAP1 JUMP JUMPDEST SWAP1 PUSH1 0x20 PUSH2 0x339 SWAP3 DUP2 DUP2 MSTORE ADD SWAP1 PUSH2 0x2E5 JUMP JUMPDEST SWAP1 JUMP JUMPDEST POP CALLVALUE PUSH2 0x23F JUMPI PUSH1 0x0 DUP1 PUSH32 0xFFFFFFFFFFFFFFFFFFFFFFFFFFFFFFFFFFFFFFFFFFFFFFFFFFFFFFFFFFFFFFFC CALLDATASIZE ADD SLT PUSH2 0x482 JUMPI PUSH1 0x40 MLOAD SWAP1 DUP1 DUP1 SLOAD SWAP1 PUSH1 0x1 SWAP2 DUP1 DUP4 SHR SWAP3 DUP1 DUP3 AND SWAP3 DUP4 ISZERO PUSH2 0x478 JUMPI JUMPDEST PUSH1 0x20 SWAP3 DUP4 DUP7 LT DUP6 EQ PUSH2 0x44B JUMPI DUP6 DUP9 MSTORE PUSH1 0x20 DUP9 ADD SWAP5 SWAP1 DUP2 ISZERO PUSH2 0x40C JUMPI POP PUSH1 0x1 EQ PUSH2 0x3CB JUMPI JUMPDEST PUSH2 0x3C7 DUP8 PUSH2 0x3BB DUP2 DUP10 SUB DUP3 PUSH2 0x274 JUMP JUMPDEST PUSH1 0x40 MLOAD SWAP2 DUP3 SWAP2 DUP3 PUSH2 0x328 JUMP JUMPDEST SUB SWAP1 RETURN JUMPDEST SWAP5 POP PUSH2 0x3DF DUP6 SWAP5 SWAP4 SWAP5 PUSH1 0x0 MSTORE PUSH1 0x20 PUSH1 0x0 KECCAK256 SWAP1 JUMP JUMPDEST DUP4 DUP7 LT PUSH2 0x3FB JUMPI POP POP POP SWAP2 ADD SWAP1 POP PUSH2 0x3BB DUP3 PUSH2 0x3C7 CODESIZE DUP1 PUSH2 0x3AB JUMP JUMPDEST DUP1 SLOAD DUP6 DUP8 ADD MSTORE SWAP5 DUP3 ADD SWAP5 DUP2 ADD PUSH2 0x3DF JUMP JUMPDEST PUSH32 0xFFFFFFFFFFFFFFFFFFFFFFFFFFFFFFFFFFFFFFFFFFFFFFFFFFFFFFFFFFFFFF00 AND DUP6 MSTORE POP POP POP POP SWAP1 ISZERO ISZERO PUSH1 0x5 SHL ADD SWAP1 POP PUSH2 0x3BB DUP3 PUSH2 0x3C7 CODESIZE DUP1 PUSH2 0x3AB JUMP JUMPDEST PUSH1 0x24 DUP3 PUSH32 0x4E487B7100000000000000000000000000000000000000000000000000000000 DUP2 MSTORE PUSH1 0x22 PUSH1 0x4 MSTORE REVERT JUMPDEST SWAP4 PUSH1 0x7F AND SWAP4 PUSH2 0x387 JUMP JUMPDEST DUP1 REVERT JUMPDEST PUSH20 0xFFFFFFFFFFFFFFFFFFFFFFFFFFFFFFFFFFFFFFFF DUP2 AND SUB PUSH2 0x23F JUMPI JUMP JUMPDEST CALLDATALOAD SWAP1 PUSH2 0x4AE DUP3 PUSH2 0x485 JUMP JUMPDEST JUMP JUMPDEST SWAP1 DUP2 PUSH1 0x80 SWAP2 SUB SLT PUSH2 0x23F JUMPI SWAP1 JUMP JUMPDEST SWAP2 DUP2 PUSH1 0x1F DUP5 ADD SLT ISZERO PUSH2 0x23F JUMPI DUP3 CALLDATALOAD SWAP2 PUSH8 0xFFFFFFFFFFFFFFFF DUP4 GT PUSH2 0x23F JUMPI PUSH1 0x20 DUP4 DUP2 DUP7 ADD SWAP6 ADD ADD GT PUSH2 0x23F JUMPI JUMP JUMPDEST POP CALLVALUE PUSH2 0x23F JUMPI PUSH2 0x120 PUSH32 0xFFFFFFFFFFFFFFFFFFFFFFFFFFFFFFFFFFFFFFFFFFFFFFFFFFFFFFFFFFFFFFFC CALLDATASIZE ADD SLT PUSH2 0x23F JUMPI PUSH1 0x4 CALLDATALOAD PUSH2 0x529 DUP2 PUSH2 0x485 JUMP JUMPDEST PUSH1 0x44 CALLDATALOAD SWAP1 PUSH2 0x536 DUP3 PUSH2 0x485 JUMP JUMPDEST PUSH2 0x541 CALLDATASIZE PUSH1 0x84 PUSH2 0x4B0 JUMP JUMPDEST SWAP1 PUSH2 0x104 CALLDATALOAD PUSH8 0xFFFFFFFFFFFFFFFF DUP2 GT PUSH2 0x23F JUMPI PUSH2 0x563 SWAP1 CALLDATASIZE SWAP1 PUSH1 0x4 ADD PUSH2 0x4BE JUMP JUMPDEST SWAP1 SWAP2 PUSH2 0x570 PUSH1 0x64 CALLDATALOAD PUSH2 0x217C JUMP JUMPDEST PUSH2 0x57D DUP6 PUSH1 0x24 CALLDATALOAD DUP4 PUSH2 0x2318 JUMP JUMPDEST SWAP4 PUSH2 0x588 PUSH1 0x40 PUSH2 0x1EFB JUMP JUMPDEST PUSH20 0xFFFFFFFFFFFFFFFFFFFFFFFFFFFFFFFFFFFFFFFF DUP4 AND DUP2 MSTORE SWAP1 DUP6 PUSH1 0x20 DUP4 ADD MSTORE PUSH15 0x22D473030F116DDEE9F6B43AC78BA3 SWAP4 DUP5 EXTCODESIZE ISZERO PUSH2 0x23F JUMPI PUSH20 0xFFFFFFFFFFFFFFFFFFFFFFFFFFFFFFFFFFFFFFFF SWAP5 PUSH2 0x618 SWAP2 PUSH1 0x40 MLOAD SWAP5 DUP6 DUP1 SWAP5 DUP2 SWAP4 PUSH32 0x30F28B7A00000000000000000000000000000000000000000000000000000000 DUP4 MSTORE PUSH1 0x0 SWAP12 DUP13 SWAP9 DUP10 SWAP6 CALLER SWAP2 PUSH1 0x4 DUP8 ADD PUSH2 0x2545 JUMP JUMPDEST SUB SWAP3 GAS CALL DUP1 ISZERO PUSH2 0x6DF JUMPI JUMPDEST PUSH2 0x6CB JUMPI JUMPDEST POP AND SWAP3 PUSH2 0x634 DUP3 PUSH2 0x20E4 JUMP JUMPDEST SWAP1 DUP5 EXTCODESIZE ISZERO PUSH2 0x6C7 JUMPI DUP3 PUSH2 0x3C7 SWAP6 DUP2 DUP1 DUP1 SWAP5 PUSH2 0x67E PUSH1 0x40 MLOAD SWAP8 DUP9 SWAP7 DUP8 SWAP6 DUP7 SWAP5 PUSH32 0x1E7DCC0D00000000000000000000000000000000000000000000000000000000 DUP7 MSTORE PUSH1 0x4 DUP7 ADD PUSH2 0x2133 JUMP JUMPDEST SUB SWAP3 GAS CALL DUP1 ISZERO PUSH2 0x6BA JUMPI JUMPDEST PUSH2 0x6A0 JUMPI JUMPDEST POP POP PUSH1 0x40 MLOAD SWAP1 DUP2 MSTORE SWAP1 DUP2 SWAP1 PUSH1 0x20 DUP3 ADD SWAP1 JUMP JUMPDEST PUSH2 0x6AD PUSH2 0x6B3 SWAP3 DUP3 PUSH2 0x274 JUMP JUMPDEST DUP1 PUSH2 0x234 JUMP JUMPDEST CODESIZE DUP1 PUSH2 0x68E JUMP JUMPDEST PUSH2 0x6C2 PUSH2 0x216F JUMP JUMPDEST PUSH2 0x689 JUMP JUMPDEST DUP3 DUP1 REVERT JUMPDEST DUP1 PUSH2 0x6AD DUP6 PUSH2 0x6D9 SWAP4 PUSH2 0x274 JUMP JUMPDEST CODESIZE PUSH2 0x628 JUMP JUMPDEST PUSH2 0x6E7 PUSH2 0x216F JUMP JUMPDEST PUSH2 0x623 JUMP JUMPDEST SWAP1 DUP2 PUSH1 0xC0 SWAP2 SUB SLT PUSH2 0x23F JUMPI SWAP1 JUMP JUMPDEST POP CALLVALUE PUSH2 0x23F JUMPI PUSH2 0x160 PUSH32 0xFFFFFFFFFFFFFFFFFFFFFFFFFFFFFFFFFFFFFFFFFFFFFFFFFFFFFFFFFFFFFFFC CALLDATASIZE ADD SLT PUSH2 0x23F JUMPI PUSH1 0x4 CALLDATALOAD PUSH2 0x737 DUP2 PUSH2 0x485 JUMP JUMPDEST PUSH1 0x44 CALLDATALOAD SWAP1 PUSH2 0x744 DUP3 PUSH2 0x485 JUMP JUMPDEST PUSH2 0x74F CALLDATASIZE PUSH1 0x84 PUSH2 0x6EC JUMP JUMPDEST SWAP1 PUSH2 0x144 CALLDATALOAD PUSH8 0xFFFFFFFFFFFFFFFF DUP2 GT PUSH2 0x23F JUMPI PUSH2 0x771 SWAP1 CALLDATASIZE SWAP1 PUSH1 0x4 ADD PUSH2 0x4BE JUMP JUMPDEST SWAP3 PUSH2 0x77D PUSH1 0x64 CALLDATALOAD PUSH2 0x217C JUMP JUMPDEST PUSH2 0x78A DUP6 PUSH1 0x24 CALLDATALOAD DUP6 PUSH2 0x2318 JUMP JUMPDEST SWAP4 DUP1 PUSH2 0x83C JUMPI JUMPDEST POP POP POP PUSH15 0x22D473030F116DDEE9F6B43AC78BA3 DUP1 EXTCODESIZE ISZERO PUSH2 0x23F JUMPI PUSH1 0x40 MLOAD PUSH32 0x36C7851600000000000000000000000000000000000000000000000000000000 DUP2 MSTORE CALLER PUSH1 0x4 DUP3 ADD MSTORE PUSH20 0xFFFFFFFFFFFFFFFFFFFFFFFFFFFFFFFFFFFFFFFF DUP1 DUP5 AND PUSH1 0x24 DUP4 ADD MSTORE DUP5 DUP2 AND PUSH1 0x44 DUP4 ADD MSTORE PUSH32 0x0 DUP2 AND PUSH1 0x64 DUP4 ADD MSTORE PUSH1 0x0 SWAP4 SWAP1 SWAP3 SWAP1 SWAP2 SWAP1 DUP5 SWAP1 DUP3 SWAP1 DUP2 DUP4 DUP2 PUSH1 0x84 DUP2 ADD PUSH2 0x618 JUMP JUMPDEST PUSH15 0x22D473030F116DDEE9F6B43AC78BA3 DUP1 EXTCODESIZE ISZERO PUSH2 0x23F JUMPI PUSH2 0x892 SWAP4 PUSH1 0x0 DUP1 SWAP5 PUSH1 0x40 MLOAD SWAP7 DUP8 SWAP6 DUP7 SWAP5 DUP6 SWAP4 PUSH32 0x2B67B57000000000000000000000000000000000000000000000000000000000 DUP6 MSTORE CALLER PUSH1 0x4 DUP7 ADD PUSH2 0x249F JUMP JUMPDEST SUB SWAP3 GAS CALL DUP1 ISZERO PUSH2 0x8BE JUMPI JUMPDEST PUSH2 0x8A9 JUMPI JUMPDEST DUP1 DUP1 PUSH2 0x791 JUMP JUMPDEST DUP1 PUSH2 0x6AD PUSH1 0x0 PUSH2 0x8B8 SWAP4 PUSH2 0x274 JUMP JUMPDEST CODESIZE PUSH2 0x8A2 JUMP JUMPDEST PUSH2 0x8C6 PUSH2 0x216F JUMP JUMPDEST PUSH2 0x89D JUMP JUMPDEST POP CALLVALUE PUSH2 0x23F JUMPI PUSH1 0x0 PUSH32 0xFFFFFFFFFFFFFFFFFFFFFFFFFFFFFFFFFFFFFFFFFFFFFFFFFFFFFFFFFFFFFFFC CALLDATASIZE ADD SLT PUSH2 0x23F JUMPI PUSH1 0x20 PUSH1 0x40 MLOAD PUSH20 0xFFFFFFFFFFFFFFFFFFFFFFFFFFFFFFFFFFFFFFFF PUSH32 0x0 AND DUP2 MSTORE RETURN JUMPDEST POP CALLVALUE PUSH2 0x23F JUMPI PUSH2 0x140 PUSH32 0xFFFFFFFFFFFFFFFFFFFFFFFFFFFFFFFFFFFFFFFFFFFFFFFFFFFFFFFFFFFFFFFC CALLDATASIZE ADD SLT PUSH2 0x23F JUMPI PUSH1 0x4 CALLDATALOAD PUSH2 0x978 DUP2 PUSH2 0x485 JUMP JUMPDEST PUSH1 0x44 CALLDATALOAD PUSH2 0x984 DUP2 PUSH2 0x485 JUMP JUMPDEST PUSH1 0x64 CALLDATALOAD SWAP1 PUSH2 0x991 DUP3 PUSH2 0x485 JUMP JUMPDEST PUSH1 0x80 PUSH32 0xFFFFFFFFFFFFFFFFFFFFFFFFFFFFFFFFFFFFFFFFFFFFFFFFFFFFFFFFFFFFFF5C CALLDATASIZE ADD SLT PUSH2 0x23F JUMPI PUSH2 0x124 CALLDATALOAD PUSH8 0xFFFFFFFFFFFFFFFF DUP2 GT PUSH2 0x23F JUMPI PUSH2 0x9F2 SWAP4 PUSH2 0x9E2 PUSH1 0xA4 SWAP3 CALLDATASIZE SWAP1 PUSH1 0x4 ADD PUSH2 0x4BE JUMP JUMPDEST SWAP5 SWAP1 SWAP4 PUSH1 0x84 CALLDATALOAD SWAP3 PUSH1 0x24 CALLDATALOAD SWAP1 PUSH2 0x27D7 JUMP JUMPDEST PUSH1 0x40 DUP1 MLOAD SWAP3 DUP4 MSTORE PUSH1 0x20 DUP4 ADD SWAP2 SWAP1 SWAP2 MSTORE SWAP1 RETURN JUMPDEST POP CALLVALUE PUSH2 0x23F JUMPI PUSH1 0xA0 PUSH32 0xFFFFFFFFFFFFFFFFFFFFFFFFFFFFFFFFFFFFFFFFFFFFFFFFFFFFFFFFFFFFFFFC CALLDATASIZE ADD SLT PUSH2 0x23F JUMPI PUSH1 0x4 CALLDATALOAD PUSH2 0xA40 DUP2 PUSH2 0x485 JUMP JUMPDEST PUSH1 0x44 CALLDATALOAD SWAP1 PUSH2 0xA4D DUP3 PUSH2 0x485 JUMP JUMPDEST PUSH1 0x20 PUSH1 0x64 CALLDATALOAD PUSH2 0xA5B DUP2 PUSH2 0x485 JUMP JUMPDEST PUSH2 0xA66 PUSH1 0x84 CALLDATALOAD PUSH2 0x217C JUMP JUMPDEST PUSH2 0xA73 DUP5 PUSH1 0x24 CALLDATALOAD DUP6 PUSH2 0x2318 JUMP JUMPDEST SWAP3 DUP4 SWAP2 PUSH2 0xAA2 DUP4 DUP4 CALLER PUSH32 0x0 PUSH2 0x49C1 JUMP JUMPDEST PUSH1 0x0 PUSH20 0xFFFFFFFFFFFFFFFFFFFFFFFFFFFFFFFFFFFFFFFF PUSH2 0xAC2 DUP3 PUSH2 0x20E4 JUMP JUMPDEST SWAP8 PUSH2 0xAFC PUSH1 0x40 MLOAD SWAP10 DUP11 SWAP8 DUP9 SWAP7 DUP8 SWAP5 PUSH32 0x27CE385400000000000000000000000000000000000000000000000000000000 DUP7 MSTORE PUSH1 0x4 DUP7 ADD PUSH2 0x2133 JUMP JUMPDEST SUB SWAP4 AND GAS CALL SWAP2 DUP3 ISZERO PUSH2 0xB53 JUMPI JUMPDEST PUSH1 0x0 SWAP3 PUSH2 0xB23 JUMPI JUMPDEST POP PUSH1 0x40 DUP1 MLOAD SWAP2 DUP3 MSTORE PUSH1 0x20 DUP3 ADD SWAP3 SWAP1 SWAP3 MSTORE RETURN JUMPDEST PUSH2 0xB45 SWAP2 SWAP3 POP PUSH1 0x20 RETURNDATASIZE DUP2 GT PUSH2 0xB4C JUMPI JUMPDEST PUSH2 0xB3D DUP2 DUP4 PUSH2 0x274 JUMP JUMPDEST DUP2 ADD SWAP1 PUSH2 0x25B6 JUMP JUMPDEST SWAP1 CODESIZE PUSH2 0xB11 JUMP JUMPDEST POP RETURNDATASIZE PUSH2 0xB33 JUMP JUMPDEST PUSH2 0xB5B PUSH2 0x216F JUMP JUMPDEST PUSH2 0xB09 JUMP JUMPDEST POP CALLVALUE PUSH2 0x23F JUMPI PUSH1 0x80 PUSH32 0xFFFFFFFFFFFFFFFFFFFFFFFFFFFFFFFFFFFFFFFFFFFFFFFFFFFFFFFFFFFFFFFC CALLDATASIZE ADD SLT PUSH2 0x23F JUMPI PUSH1 0x4 CALLDATALOAD PUSH2 0xB9C DUP2 PUSH2 0x485 JUMP JUMPDEST PUSH1 0x44 CALLDATALOAD SWAP1 PUSH2 0xBA9 DUP3 PUSH2 0x485 JUMP JUMPDEST PUSH2 0xBB4 PUSH1 0x64 CALLDATALOAD PUSH2 0x217C JUMP JUMPDEST PUSH20 0xFFFFFFFFFFFFFFFFFFFFFFFFFFFFFFFFFFFFFFFF PUSH2 0xBD6 DUP4 PUSH1 0x24 CALLDATALOAD DUP5 PUSH2 0x2318 JUMP JUMPDEST SWAP2 PUSH2 0xC03 DUP4 DUP3 CALLER PUSH32 0x0 PUSH2 0x49C1 JUMP JUMPDEST AND SWAP2 PUSH1 0x0 SWAP3 PUSH2 0xC11 DUP5 PUSH2 0x20E4 JUMP JUMPDEST SWAP2 DUP2 EXTCODESIZE ISZERO PUSH2 0xC93 JUMPI SWAP4 DUP1 DUP1 SWAP3 DUP2 DUP1 PUSH2 0x3C7 SWAP9 PUSH2 0xC5C PUSH1 0x40 MLOAD SWAP9 DUP10 SWAP7 DUP8 SWAP6 DUP7 SWAP5 PUSH32 0x1E7DCC0D00000000000000000000000000000000000000000000000000000000 DUP7 MSTORE PUSH1 0x4 DUP7 ADD PUSH2 0x2133 JUMP JUMPDEST SUB SWAP3 GAS CALL DUP1 ISZERO PUSH2 0xC86 JUMPI JUMPDEST PUSH2 0xC7D JUMPI POP POP PUSH1 0x40 MLOAD SWAP1 DUP2 MSTORE SWAP1 DUP2 SWAP1 PUSH1 0x20 DUP3 ADD SWAP1 JUMP JUMPDEST PUSH2 0x6B3 SWAP2 PUSH2 0x274 JUMP JUMPDEST PUSH2 0xC8E PUSH2 0x216F JUMP JUMPDEST PUSH2 0xC67 JUMP JUMPDEST DUP5 DUP1 REVERT JUMPDEST POP CALLVALUE PUSH2 0x23F JUMPI PUSH1 0x0 PUSH32 0xFFFFFFFFFFFFFFFFFFFFFFFFFFFFFFFFFFFFFFFFFFFFFFFFFFFFFFFFFFFFFFFC CALLDATASIZE ADD SLT PUSH2 0x23F JUMPI PUSH1 0x20 PUSH1 0x40 MLOAD PUSH15 0x22D473030F116DDEE9F6B43AC78BA3 DUP2 MSTORE RETURN JUMPDEST POP CALLVALUE PUSH2 0x23F JUMPI PUSH1 0x0 PUSH32 0xFFFFFFFFFFFFFFFFFFFFFFFFFFFFFFFFFFFFFFFFFFFFFFFFFFFFFFFFFFFFFFFC CALLDATASIZE ADD SLT PUSH2 0x23F JUMPI PUSH1 0x20 PUSH1 0x40 MLOAD PUSH32 0x0 DUP2 MSTORE RETURN JUMPDEST POP CALLVALUE PUSH2 0x23F JUMPI PUSH1 0x0 PUSH32 0xFFFFFFFFFFFFFFFFFFFFFFFFFFFFFFFFFFFFFFFFFFFFFFFFFFFFFFFFFFFFFFFC CALLDATASIZE ADD SLT PUSH2 0x23F JUMPI PUSH1 0x20 PUSH1 0x40 MLOAD PUSH20 0x9C12939390052919AF3155F41BF4160FD3666A6F DUP2 MSTORE RETURN JUMPDEST POP CALLVALUE PUSH2 0x23F JUMPI PUSH1 0x0 PUSH32 0xFFFFFFFFFFFFFFFFFFFFFFFFFFFFFFFFFFFFFFFFFFFFFFFFFFFFFFFFFFFFFFFC CALLDATASIZE ADD SLT PUSH2 0x23F JUMPI PUSH1 0x20 PUSH1 0x40 MLOAD PUSH20 0xDEF171FE48CF0115B1D80B88DC8EAB59176FEE57 DUP2 MSTORE RETURN JUMPDEST SWAP2 PUSH1 0x60 DUP4 DUP4 SUB SLT PUSH2 0x23F JUMPI DUP3 CALLDATALOAD PUSH2 0xDEC DUP2 PUSH2 0x485 JUMP JUMPDEST SWAP3 PUSH1 0x20 DUP2 ADD CALLDATALOAD SWAP3 PUSH1 0x40 DUP3 ADD CALLDATALOAD PUSH8 0xFFFFFFFFFFFFFFFF DUP2 GT PUSH2 0x23F JUMPI PUSH2 0xE11 SWAP3 ADD PUSH2 0x4BE JUMP JUMPDEST SWAP1 SWAP2 JUMP JUMPDEST POP CALLVALUE PUSH2 0x23F JUMPI PUSH2 0xE34 PUSH2 0xE29 CALLDATASIZE PUSH1 0x4 PUSH2 0xDD6 JUMP JUMPDEST DUP2 SWAP5 SWAP3 SWAP5 ADD SWAP1 PUSH2 0x39BE JUMP JUMPDEST PUSH20 0xFFFFFFFFFFFFFFFFFFFFFFFFFFFFFFFFFFFFFFFF SWAP3 SWAP1 DUP3 DUP5 AND ADDRESS EQ PUSH2 0xEA1 JUMPI PUSH1 0x40 MLOAD PUSH32 0xB61E0F2900000000000000000000000000000000000000000000000000000000 DUP2 MSTORE PUSH20 0xFFFFFFFFFFFFFFFFFFFFFFFFFFFFFFFFFFFFFFFF DUP5 AND PUSH1 0x4 DUP3 ADD MSTORE ORIGIN PUSH1 0x24 DUP3 ADD MSTORE PUSH1 0x44 SWAP1 REVERT JUMPDEST SWAP1 SWAP2 POP PUSH2 0xEC5 PUSH1 0x40 DUP3 ADD MLOAD PUSH20 0xFFFFFFFFFFFFFFFFFFFFFFFFFFFFFFFFFFFFFFFF AND SWAP1 JUMP JUMPDEST SWAP3 DUP4 AND CALLER SUB PUSH2 0xF4E JUMPI DUP1 MLOAD PUSH2 0x21 SWAP4 POP PUSH20 0xFFFFFFFFFFFFFFFFFFFFFFFFFFFFFFFFFFFFFFFF AND SWAP2 PUSH2 0xF0D PUSH1 0x60 DUP4 ADD MLOAD PUSH20 0xFFFFFFFFFFFFFFFFFFFFFFFFFFFFFFFFFFFFFFFF AND SWAP1 JUMP JUMPDEST SWAP1 PUSH2 0xF2F PUSH1 0x20 DUP5 ADD MLOAD PUSH20 0xFFFFFFFFFFFFFFFFFFFFFFFFFFFFFFFFFFFFFFFF AND SWAP1 JUMP JUMPDEST PUSH1 0x80 DUP5 ADD MLOAD SWAP3 PUSH1 0xC0 PUSH1 0xA0 DUP7 ADD MLOAD SWAP6 PUSH2 0xF46 DUP8 PUSH2 0x2B16 JUMP JUMPDEST ADD MLOAD SWAP6 PUSH2 0x3B1C JUMP JUMPDEST PUSH1 0x40 MLOAD PUSH32 0xAEAD146700000000000000000000000000000000000000000000000000000000 DUP2 MSTORE CALLER PUSH1 0x4 DUP3 ADD MSTORE PUSH20 0xFFFFFFFFFFFFFFFFFFFFFFFFFFFFFFFFFFFFFFFF DUP5 AND PUSH1 0x24 DUP3 ADD MSTORE PUSH1 0x44 SWAP1 REVERT JUMPDEST POP CALLVALUE PUSH2 0x23F JUMPI PUSH2 0xFBB PUSH2 0xFAF CALLDATASIZE PUSH1 0x4 PUSH2 0xDD6 JUMP JUMPDEST SWAP3 SWAP4 SWAP3 DUP2 ADD SWAP2 POP PUSH2 0x424C JUMP JUMPDEST SWAP1 PUSH20 0xFFFFFFFFFFFFFFFFFFFFFFFFFFFFFFFFFFFFFFFF DUP1 DUP3 AND ADDRESS EQ PUSH2 0x1027 JUMPI PUSH1 0x40 MLOAD PUSH32 0xB61E0F2900000000000000000000000000000000000000000000000000000000 DUP2 MSTORE PUSH20 0xFFFFFFFFFFFFFFFFFFFFFFFFFFFFFFFFFFFFFFFF DUP4 AND PUSH1 0x4 DUP3 ADD MSTORE ORIGIN PUSH1 0x24 DUP3 ADD MSTORE PUSH1 0x44 SWAP1 REVERT JUMPDEST SWAP1 POP PUSH2 0x104A PUSH1 0x20 DUP4 ADD MLOAD PUSH20 0xFFFFFFFFFFFFFFFFFFFFFFFFFFFFFFFFFFFFFFFF AND SWAP1 JUMP JUMPDEST SWAP1 DUP2 AND CALLER SUB PUSH2 0x10F2 JUMPI PUSH2 0x21 DUP3 PUSH2 0x1075 DUP2 MLOAD PUSH20 0xFFFFFFFFFFFFFFFFFFFFFFFFFFFFFFFFFFFFFFFF AND SWAP1 JUMP JUMPDEST SWAP1 PUSH2 0x1097 PUSH1 0x60 DUP3 ADD MLOAD PUSH20 0xFFFFFFFFFFFFFFFFFFFFFFFFFFFFFFFFFFFFFFFF AND SWAP1 JUMP JUMPDEST PUSH1 0x20 DUP3 ADD MLOAD PUSH20 0xFFFFFFFFFFFFFFFFFFFFFFFFFFFFFFFFFFFFFFFF AND PUSH1 0x40 DUP4 ADD MLOAD PUSH20 0xFFFFFFFFFFFFFFFFFFFFFFFFFFFFFFFFFFFFFFFF AND PUSH1 0x80 DUP5 ADD MLOAD SWAP2 PUSH1 0xA0 DUP6 ADD MLOAD SWAP4 PUSH1 0xE0 PUSH1 0xC0 DUP8 ADD MLOAD SWAP7 PUSH2 0x10EA DUP9 PUSH2 0x2B16 JUMP JUMPDEST ADD MLOAD SWAP7 PUSH2 0x42F4 JUMP JUMPDEST PUSH1 0x40 MLOAD PUSH32 0xE5AC816600000000000000000000000000000000000000000000000000000000 DUP2 MSTORE CALLER PUSH1 0x4 DUP3 ADD MSTORE PUSH20 0xFFFFFFFFFFFFFFFFFFFFFFFFFFFFFFFFFFFFFFFF SWAP2 SWAP1 SWAP2 AND PUSH1 0x24 DUP3 ADD MSTORE PUSH1 0x44 SWAP1 REVERT JUMPDEST POP CALLVALUE PUSH2 0x23F JUMPI PUSH1 0x0 PUSH32 0xFFFFFFFFFFFFFFFFFFFFFFFFFFFFFFFFFFFFFFFFFFFFFFFFFFFFFFFFFFFFFFFC CALLDATASIZE ADD SLT PUSH2 0x23F JUMPI PUSH1 0x20 PUSH1 0x40 MLOAD PUSH20 0xFFFFFFFFFFFFFFFFFFFFFFFFFFFFFFFFFFFFFFFF PUSH32 0x0 AND DUP2 MSTORE RETURN JUMPDEST POP CALLVALUE PUSH2 0x23F JUMPI PUSH1 0x0 PUSH32 0xFFFFFFFFFFFFFFFFFFFFFFFFFFFFFFFFFFFFFFFFFFFFFFFFFFFFFFFFFFFFFFFC CALLDATASIZE ADD SLT PUSH2 0x23F JUMPI PUSH1 0x20 PUSH1 0x40 MLOAD PUSH20 0x1111111254EEB25477B68FB85ED929F73A960582 DUP2 MSTORE RETURN JUMPDEST POP CALLVALUE PUSH2 0x23F JUMPI PUSH2 0x180 PUSH32 0xFFFFFFFFFFFFFFFFFFFFFFFFFFFFFFFFFFFFFFFFFFFFFFFFFFFFFFFFFFFFFFFC CALLDATASIZE ADD SLT PUSH2 0x23F JUMPI PUSH1 0x4 CALLDATALOAD PUSH2 0x123C DUP2 PUSH2 0x485 JUMP JUMPDEST PUSH1 0x44 CALLDATALOAD PUSH2 0x1248 DUP2 PUSH2 0x485 JUMP JUMPDEST PUSH1 0x64 CALLDATALOAD SWAP1 PUSH2 0x1255 DUP3 PUSH2 0x485 JUMP JUMPDEST PUSH1 0xC0 PUSH32 0xFFFFFFFFFFFFFFFFFFFFFFFFFFFFFFFFFFFFFFFFFFFFFFFFFFFFFFFFFFFFFF5C CALLDATASIZE ADD SLT PUSH2 0x23F JUMPI PUSH2 0x164 CALLDATALOAD PUSH8 0xFFFFFFFFFFFFFFFF DUP2 GT PUSH2 0x23F JUMPI PUSH2 0x9F2 SWAP4 PUSH2 0x12A6 PUSH1 0xA4 SWAP3 CALLDATASIZE SWAP1 PUSH1 0x4 ADD PUSH2 0x4BE JUMP JUMPDEST SWAP5 SWAP1 SWAP4 PUSH1 0x84 CALLDATALOAD SWAP3 PUSH1 0x24 CALLDATALOAD SWAP1 PUSH2 0x25C5 JUMP JUMPDEST POP CALLVALUE PUSH2 0x23F JUMPI PUSH1 0x0 PUSH32 0xFFFFFFFFFFFFFFFFFFFFFFFFFFFFFFFFFFFFFFFFFFFFFFFFFFFFFFFFFFFFFFFC CALLDATASIZE ADD SLT PUSH2 0x23F JUMPI PUSH1 0x20 PUSH1 0x40 MLOAD PUSH20 0xFFFFFFFFFFFFFFFFFFFFFFFFFFFFFFFFFFFFFFFF PUSH32 0x0 AND DUP2 MSTORE RETURN JUMPDEST CALLDATALOAD SWAP1 PUSH1 0x2 DUP3 LT ISZERO PUSH2 0x23F JUMPI JUMP JUMPDEST SWAP2 DUP2 PUSH1 0x1F DUP5 ADD SLT ISZERO PUSH2 0x23F JUMPI DUP3 CALLDATALOAD SWAP2 PUSH8 0xFFFFFFFFFFFFFFFF DUP4 GT PUSH2 0x23F JUMPI PUSH1 0x20 DUP1 DUP6 ADD SWAP5 DUP5 PUSH1 0x5 SHL ADD ADD GT PUSH2 0x23F JUMPI JUMP JUMPDEST SWAP2 PUSH2 0x120 DUP4 DUP4 SUB SLT PUSH2 0x23F JUMPI DUP3 CALLDATALOAD PUSH2 0x137B DUP2 PUSH2 0x485 JUMP JUMPDEST SWAP3 PUSH1 0x20 DUP2 ADD CALLDATALOAD PUSH2 0x138A DUP2 PUSH2 0x485 JUMP JUMPDEST SWAP3 PUSH2 0x1397 PUSH1 0x40 DUP4 ADD PUSH2 0x4A3 JUMP JUMPDEST SWAP3 PUSH1 0x60 DUP4 ADD CALLDATALOAD SWAP3 PUSH1 0x80 DUP2 ADD CALLDATALOAD SWAP3 PUSH1 0xA0 DUP3 ADD CALLDATALOAD SWAP3 PUSH8 0xFFFFFFFFFFFFFFFF SWAP1 PUSH1 0xC0 DUP5 ADD CALLDATALOAD DUP3 DUP2 GT PUSH2 0x23F JUMPI DUP4 PUSH2 0x13CC SWAP2 DUP7 ADD PUSH2 0x4BE JUMP JUMPDEST SWAP5 SWAP1 SWAP5 SWAP4 PUSH2 0x13DC PUSH1 0xE0 DUP4 ADD PUSH2 0x1326 JUMP JUMPDEST SWAP4 PUSH2 0x100 DUP4 ADD CALLDATALOAD SWAP1 DUP2 GT PUSH2 0x23F JUMPI PUSH2 0xE11 SWAP3 ADD PUSH2 0x1333 JUMP JUMPDEST POP CALLVALUE PUSH2 0x23F JUMPI PUSH2 0x148A PUSH2 0x143D PUSH2 0x14A5 PUSH2 0x14D1 PUSH2 0x1435 PUSH2 0x1491 PUSH2 0x1417 CALLDATASIZE PUSH1 0x4 PUSH2 0x1364 JUMP JUMPDEST SWAP9 SWAP6 SWAP16 SWAP8 SWAP5 SWAP3 SWAP7 SWAP15 SWAP4 SWAP1 SWAP10 SWAP12 SWAP2 SWAP7 PUSH2 0x142E DUP5 PUSH2 0x217C JUMP JUMPDEST CALLDATASIZE SWAP2 PUSH2 0x20AD JUMP JUMPDEST SWAP1 DUP14 DUP5 PUSH2 0x21C4 JUMP JUMPDEST PUSH1 0x40 MLOAD SWAP8 PUSH2 0x144C PUSH1 0xE0 DUP11 PUSH2 0x274 JUMP JUMPDEST PUSH20 0xFFFFFFFFFFFFFFFFFFFFFFFFFFFFFFFFFFFFFFFF SWAP3 DUP4 DUP1 SWAP3 AND DUP11 MSTORE AND PUSH1 0x20 DUP10 ADD MSTORE AND SWAP10 DUP11 PUSH1 0x40 DUP9 ADD MSTORE CALLER PUSH1 0x60 DUP9 ADD MSTORE PUSH1 0x80 DUP8 ADD MSTORE PUSH1 0xA0 DUP7 ADD PUSH2 0x2B4F JUMP JUMPDEST CALLDATASIZE SWAP2 PUSH2 0x2B82 JUMP JUMPDEST PUSH1 0xC0 DUP3 ADD MSTORE PUSH1 0x40 MLOAD SWAP3 DUP4 SWAP2 PUSH1 0x20 DUP4 ADD PUSH2 0x2D2D JUMP JUMPDEST SUB PUSH32 0xFFFFFFFFFFFFFFFFFFFFFFFFFFFFFFFFFFFFFFFFFFFFFFFFFFFFFFFFFFFFFFE0 DUP2 ADD DUP4 MSTORE DUP3 PUSH2 0x274 JUMP JUMPDEST DUP3 EXTCODESIZE ISZERO PUSH2 0x23F JUMPI PUSH2 0x1517 SWAP3 PUSH1 0x0 SWAP3 DUP4 PUSH1 0x40 MLOAD DUP1 SWAP7 DUP2 SWAP6 DUP3 SWAP5 PUSH32 0x1E7DCC0D00000000000000000000000000000000000000000000000000000000 DUP5 MSTORE ADDRESS CALLER PUSH1 0x4 DUP7 ADD PUSH2 0x2133 JUMP JUMPDEST SUB SWAP3 GAS CALL DUP1 ISZERO PUSH2 0x1537 JUMPI JUMPDEST PUSH2 0x1528 JUMPI STOP JUMPDEST DUP1 PUSH2 0x6AD PUSH1 0x0 PUSH2 0x21 SWAP4 PUSH2 0x274 JUMP JUMPDEST PUSH2 0x153F PUSH2 0x216F JUMP JUMPDEST PUSH2 0x1522 JUMP JUMPDEST POP CALLVALUE PUSH2 0x23F JUMPI PUSH1 0x0 PUSH1 0xA0 PUSH32 0xFFFFFFFFFFFFFFFFFFFFFFFFFFFFFFFFFFFFFFFFFFFFFFFFFFFFFFFFFFFFFFFC CALLDATASIZE ADD SLT PUSH2 0x482 JUMPI PUSH1 0x4 CALLDATALOAD PUSH2 0x1582 DUP2 PUSH2 0x485 JUMP JUMPDEST DUP2 PUSH1 0x24 CALLDATALOAD SWAP2 PUSH1 0x44 CALLDATALOAD SWAP1 PUSH2 0x1594 DUP3 PUSH2 0x485 JUMP JUMPDEST PUSH1 0x64 CALLDATALOAD SWAP1 PUSH1 0x84 CALLDATALOAD PUSH8 0xFFFFFFFFFFFFFFFF DUP2 GT PUSH2 0xC93 JUMPI PUSH20 0xFFFFFFFFFFFFFFFFFFFFFFFFFFFFFFFFFFFFFFFF SWAP3 PUSH2 0x15DD PUSH2 0x15D4 PUSH2 0x15E5 SWAP4 CALLDATASIZE SWAP1 PUSH1 0x4 ADD PUSH2 0x4BE JUMP JUMPDEST PUSH2 0x142E DUP5 PUSH2 0x217C JUMP JUMPDEST SWAP1 DUP8 DUP5 PUSH2 0x21C4 JUMP JUMPDEST AND PUSH2 0x15EF DUP4 PUSH2 0x20E4 JUMP JUMPDEST SWAP1 DUP1 EXTCODESIZE ISZERO PUSH2 0x1662 JUMPI PUSH2 0x1635 SWAP5 DUP5 DUP1 SWAP5 PUSH1 0x40 MLOAD SWAP8 DUP9 SWAP6 DUP7 SWAP5 DUP6 SWAP4 PUSH32 0x1E7DCC0D00000000000000000000000000000000000000000000000000000000 DUP6 MSTORE CALLER PUSH1 0x4 DUP7 ADD PUSH2 0x2133 JUMP JUMPDEST SUB SWAP3 GAS CALL DUP1 ISZERO PUSH2 0x1655 JUMPI JUMPDEST PUSH2 0x1647 JUMPI DUP1 RETURN JUMPDEST PUSH2 0x1650 SWAP2 PUSH2 0x274 JUMP JUMPDEST CODESIZE DUP2 DUP1 RETURN JUMPDEST PUSH2 0x165D PUSH2 0x216F JUMP JUMPDEST PUSH2 0x1640 JUMP JUMPDEST DUP4 DUP1 REVERT JUMPDEST POP CALLVALUE PUSH2 0x23F JUMPI PUSH1 0x0 PUSH32 0xFFFFFFFFFFFFFFFFFFFFFFFFFFFFFFFFFFFFFFFFFFFFFFFFFFFFFFFFFFFFFFFC CALLDATASIZE ADD SLT PUSH2 0x23F JUMPI PUSH1 0x20 PUSH1 0x40 MLOAD PUSH20 0xFFFFFFFFFFFFFFFFFFFFFFFFFFFFFFFFFFFFFFFF PUSH32 0x0 AND DUP2 MSTORE RETURN JUMPDEST POP CALLVALUE PUSH2 0x23F JUMPI PUSH2 0x16E7 CALLDATASIZE PUSH1 0x4 PUSH2 0x1364 JUMP JUMPDEST SWAP2 SWAP10 SWAP9 SWAP5 SWAP1 SWAP6 SWAP8 SWAP7 SWAP4 DUP10 SWAP4 PUSH2 0x16FB DUP4 PUSH2 0x217C JUMP JUMPDEST CALLDATASIZE SWAP1 PUSH2 0x1706 SWAP3 PUSH2 0x20AD JUMP JUMPDEST PUSH2 0x1711 SWAP2 DUP6 DUP8 PUSH2 0x21C4 JUMP JUMPDEST PUSH20 0xFFFFFFFFFFFFFFFFFFFFFFFFFFFFFFFFFFFFFFFF DUP5 AND SWAP5 PUSH1 0x40 MLOAD SWAP2 PUSH32 0x3BA0B9A900000000000000000000000000000000000000000000000000000000 DUP4 MSTORE PUSH1 0x0 DUP1 SWAP12 DUP2 SWAP11 DUP3 DUP7 DUP12 DUP2 GAS SWAP4 PUSH1 0x4 SWAP3 PUSH1 0x20 SWAP6 CALL SWAP8 DUP9 ISZERO PUSH2 0x1824 SWAP13 PUSH2 0x17DA PUSH2 0x1792 PUSH2 0x1850 SWAP13 PUSH2 0x1810 SWAP12 PUSH2 0x148A SWAP10 PUSH2 0x17F7 SWAP7 PUSH2 0x18E1 JUMPI JUMPDEST SWAP2 PUSH2 0x18C3 JUMPI JUMPDEST POP DUP6 PUSH2 0x489E JUMP JUMPDEST SWAP13 PUSH2 0x17BD PUSH2 0x17A1 PUSH2 0x100 PUSH2 0x1EFB JUMP JUMPDEST PUSH20 0xFFFFFFFFFFFFFFFFFFFFFFFFFFFFFFFFFFFFFFFF SWAP1 SWAP14 AND DUP14 MSTORE JUMP JUMPDEST PUSH20 0xFFFFFFFFFFFFFFFFFFFFFFFFFFFFFFFFFFFFFFFF AND PUSH1 0x20 DUP13 ADD MSTORE JUMP JUMPDEST PUSH20 0xFFFFFFFFFFFFFFFFFFFFFFFFFFFFFFFFFFFFFFFF AND PUSH1 0x40 DUP11 ADD MSTORE JUMP JUMPDEST CALLER PUSH1 0x60 DUP10 ADD MSTORE PUSH1 0x80 DUP9 ADD MSTORE PUSH1 0xA0 DUP8 ADD MSTORE PUSH1 0xC0 DUP7 ADD PUSH2 0x2B4F JUMP JUMPDEST PUSH1 0xE0 DUP3 ADD MSTORE PUSH1 0x40 MLOAD SWAP5 DUP6 SWAP2 PUSH1 0x20 DUP4 ADD PUSH2 0x2DA6 JUMP JUMPDEST SUB PUSH32 0xFFFFFFFFFFFFFFFFFFFFFFFFFFFFFFFFFFFFFFFFFFFFFFFFFFFFFFFFFFFFFFE0 DUP2 ADD DUP6 MSTORE DUP5 PUSH2 0x274 JUMP JUMPDEST DUP2 EXTCODESIZE ISZERO PUSH2 0x1662 JUMPI DUP4 PUSH2 0x1892 SWAP6 PUSH1 0x40 MLOAD SWAP7 DUP8 SWAP6 DUP7 SWAP5 DUP6 SWAP4 PUSH32 0xFA14FDC200000000000000000000000000000000000000000000000000000000 DUP6 MSTORE PUSH1 0x4 DUP6 ADD PUSH2 0x2E48 JUMP JUMPDEST SUB SWAP3 GAS CALL DUP1 ISZERO PUSH2 0x18B6 JUMPI JUMPDEST PUSH2 0x18A5 JUMPI POP DUP1 RETURN JUMPDEST DUP1 PUSH2 0x6AD DUP4 PUSH2 0x18B3 SWAP4 PUSH2 0x274 JUMP JUMPDEST DUP1 RETURN JUMPDEST PUSH2 0x18BE PUSH2 0x216F JUMP JUMPDEST PUSH2 0x189D JUMP JUMPDEST PUSH2 0x18DB SWAP2 POP PUSH1 0x20 RETURNDATASIZE DUP2 GT PUSH2 0xB4C JUMPI PUSH2 0xB3D DUP2 DUP4 PUSH2 0x274 JUMP JUMPDEST CODESIZE PUSH2 0x178B JUMP JUMPDEST PUSH2 0x18E9 PUSH2 0x216F JUMP JUMPDEST PUSH2 0x1785 JUMP JUMPDEST POP CALLVALUE PUSH2 0x23F JUMPI PUSH1 0x0 PUSH32 0xFFFFFFFFFFFFFFFFFFFFFFFFFFFFFFFFFFFFFFFFFFFFFFFFFFFFFFFFFFFFFFFC CALLDATASIZE ADD SLT PUSH2 0x23F JUMPI PUSH1 0x20 PUSH1 0x40 MLOAD PUSH20 0xFFFFFFFFFFFFFFFFFFFFFFFFFFFFFFFFFFFFFFFF PUSH32 0x0 AND DUP2 MSTORE RETURN JUMPDEST POP CALLVALUE PUSH2 0x23F JUMPI PUSH1 0x80 PUSH32 0xFFFFFFFFFFFFFFFFFFFFFFFFFFFFFFFFFFFFFFFFFFFFFFFFFFFFFFFFFFFFFFFC CALLDATASIZE ADD SLT PUSH2 0x23F JUMPI PUSH1 0x4 CALLDATALOAD PUSH2 0x199A DUP2 PUSH2 0x485 JUMP JUMPDEST PUSH1 0x64 CALLDATALOAD PUSH8 0xFFFFFFFFFFFFFFFF DUP2 GT PUSH2 0x23F JUMPI PUSH2 0x19BD PUSH2 0x19C5 SWAP2 CALLDATASIZE SWAP1 PUSH1 0x4 ADD PUSH2 0x4BE JUMP JUMPDEST DUP2 ADD SWAP1 PUSH2 0x2FC6 JUMP JUMPDEST SWAP1 PUSH20 0xFFFFFFFFFFFFFFFFFFFFFFFFFFFFFFFFFFFFFFFF DUP1 DUP3 AND ADDRESS EQ PUSH2 0x1A31 JUMPI PUSH1 0x40 MLOAD PUSH32 0xB61E0F2900000000000000000000000000000000000000000000000000000000 DUP2 MSTORE PUSH20 0xFFFFFFFFFFFFFFFFFFFFFFFFFFFFFFFFFFFFFFFF DUP4 AND PUSH1 0x4 DUP3 ADD MSTORE ORIGIN PUSH1 0x24 DUP3 ADD MSTORE PUSH1 0x44 SWAP1 REVERT JUMPDEST SWAP1 POP PUSH2 0x1A54 PUSH1 0x40 DUP4 ADD MLOAD PUSH20 0xFFFFFFFFFFFFFFFFFFFFFFFFFFFFFFFFFFFFFFFF AND SWAP1 JUMP JUMPDEST SWAP1 DUP2 AND CALLER SUB PUSH2 0x1AFF JUMPI PUSH2 0x21 DUP3 PUSH2 0x1A7F DUP2 MLOAD PUSH20 0xFFFFFFFFFFFFFFFFFFFFFFFFFFFFFFFFFFFFFFFF AND SWAP1 JUMP JUMPDEST SWAP1 PUSH2 0x1AA1 PUSH1 0x20 DUP3 ADD MLOAD PUSH20 0xFFFFFFFFFFFFFFFFFFFFFFFFFFFFFFFFFFFFFFFF AND SWAP1 JUMP JUMPDEST PUSH1 0x40 DUP3 ADD MLOAD PUSH20 0xFFFFFFFFFFFFFFFFFFFFFFFFFFFFFFFFFFFFFFFF AND SWAP3 PUSH2 0x1ADE PUSH1 0x60 DUP5 ADD MLOAD PUSH20 0xFFFFFFFFFFFFFFFFFFFFFFFFFFFFFFFFFFFFFFFF AND SWAP1 JUMP JUMPDEST PUSH1 0xE0 PUSH1 0xC0 DUP6 ADD MLOAD SWAP5 PUSH2 0x1AEF DUP7 PUSH2 0x2B16 JUMP JUMPDEST ADD MLOAD SWAP5 PUSH1 0x44 CALLDATALOAD SWAP4 PUSH1 0x24 CALLDATALOAD SWAP4 PUSH2 0x30C9 JUMP JUMPDEST PUSH1 0x40 MLOAD PUSH32 0xAEAD146700000000000000000000000000000000000000000000000000000000 DUP2 MSTORE CALLER PUSH1 0x4 DUP3 ADD MSTORE PUSH20 0xFFFFFFFFFFFFFFFFFFFFFFFFFFFFFFFFFFFFFFFF SWAP2 SWAP1 SWAP2 AND PUSH1 0x24 DUP3 ADD MSTORE PUSH1 0x44 SWAP1 REVERT JUMPDEST PUSH1 0x40 DUP2 ADD SWAP1 PUSH1 0x40 DUP2 MSTORE DUP3 MLOAD DUP1 SWAP3 MSTORE PUSH1 0x60 DUP2 ADD SWAP2 PUSH1 0x20 DUP1 SWAP5 ADD SWAP1 PUSH1 0x0 JUMPDEST DUP2 DUP2 LT PUSH2 0x1BAC JUMPI POP POP POP DUP3 DUP2 DUP4 SUB SWAP2 ADD MSTORE DUP2 DUP1 DUP5 MLOAD SWAP3 DUP4 DUP2 MSTORE ADD SWAP4 ADD SWAP2 PUSH1 0x0 JUMPDEST DUP3 DUP2 LT PUSH2 0x1B98 JUMPI POP POP POP POP SWAP1 JUMP JUMPDEST DUP4 MLOAD DUP6 MSTORE SWAP4 DUP2 ADD SWAP4 SWAP3 DUP2 ADD SWAP3 PUSH1 0x1 ADD PUSH2 0x1B8A JUMP JUMPDEST DUP3 MLOAD PUSH20 0xFFFFFFFFFFFFFFFFFFFFFFFFFFFFFFFFFFFFFFFF AND DUP6 MSTORE SWAP4 DUP6 ADD SWAP4 SWAP2 DUP6 ADD SWAP2 PUSH1 0x1 ADD PUSH2 0x1B6A JUMP JUMPDEST POP CALLVALUE PUSH2 0x23F JUMPI PUSH1 0x40 PUSH32 0xFFFFFFFFFFFFFFFFFFFFFFFFFFFFFFFFFFFFFFFFFFFFFFFFFFFFFFFFFFFFFFFC CALLDATASIZE ADD SLT PUSH2 0x23F JUMPI PUSH1 0x4 CALLDATALOAD PUSH2 0x1C12 DUP2 PUSH2 0x485 JUMP JUMPDEST PUSH20 0xFFFFFFFFFFFFFFFFFFFFFFFFFFFFFFFFFFFFFFFF PUSH1 0x24 CALLDATALOAD SWAP2 AND SWAP1 PUSH1 0x40 MLOAD PUSH32 0x18160DDD00000000000000000000000000000000000000000000000000000000 DUP2 MSTORE PUSH1 0x20 DUP2 PUSH1 0x4 DUP2 DUP7 GAS STATICCALL SWAP1 DUP2 ISZERO PUSH2 0x1E38 JUMPI JUMPDEST PUSH1 0x0 SWAP2 PUSH2 0x1E1A JUMPI JUMPDEST POP PUSH1 0x40 MLOAD SWAP1 PUSH32 0x902F1AC00000000000000000000000000000000000000000000000000000000 DUP3 MSTORE PUSH1 0x60 DUP3 PUSH1 0x4 DUP2 DUP8 GAS STATICCALL SWAP2 DUP3 ISZERO PUSH2 0x1E0D JUMPI JUMPDEST PUSH1 0x0 SWAP1 DUP2 SWAP4 PUSH2 0x1DD9 JUMPI JUMPDEST POP SWAP3 PUSH2 0x1D76 SWAP3 SWAP4 PUSH2 0x1CC0 PUSH1 0x2 PUSH2 0x2ECB JUMP JUMPDEST SWAP5 PUSH2 0x1D47 PUSH1 0x4 PUSH1 0xE0 PUSH2 0x1CD2 PUSH1 0x2 PUSH2 0x2ECB JUMP JUMPDEST SWAP10 PUSH1 0x40 MLOAD SWAP3 DUP4 DUP1 SWAP3 PUSH32 0x392F37E900000000000000000000000000000000000000000000000000000000 DUP3 MSTORE GAS STATICCALL SWAP1 DUP2 ISZERO PUSH2 0x1DCC JUMPI JUMPDEST PUSH1 0x0 SWAP1 DUP2 SWAP3 PUSH2 0x1D91 JUMPI JUMPDEST POP PUSH2 0x1D3C SWAP1 PUSH2 0x1D21 PUSH1 0x0 DUP12 PUSH2 0x2F89 JUMP JUMPDEST SWAP1 PUSH20 0xFFFFFFFFFFFFFFFFFFFFFFFFFFFFFFFFFFFFFFFF AND SWAP1 MSTORE JUMP JUMPDEST PUSH2 0x1D21 PUSH1 0x1 DUP10 PUSH2 0x2F89 JUMP JUMPDEST PUSH2 0x1D63 DUP5 PUSH14 0xFFFFFFFFFFFFFFFFFFFFFFFFFFFF DUP1 SWAP5 AND DUP6 PUSH2 0x48E7 JUMP JUMPDEST PUSH2 0x1D6E PUSH1 0x0 DUP10 PUSH2 0x2F89 JUMP JUMPDEST MSTORE AND SWAP1 PUSH2 0x48E7 JUMP JUMPDEST PUSH2 0x1D81 PUSH1 0x1 DUP5 PUSH2 0x2F89 JUMP JUMPDEST MSTORE PUSH2 0x3C7 PUSH1 0x40 MLOAD SWAP3 DUP4 SWAP3 DUP4 PUSH2 0x1B4E JUMP JUMPDEST PUSH2 0x1D3C SWAP3 POP PUSH2 0x1DB7 SWAP2 POP PUSH1 0xE0 RETURNDATASIZE DUP2 GT PUSH2 0x1DC5 JUMPI JUMPDEST PUSH2 0x1DAF DUP2 DUP4 PUSH2 0x274 JUMP JUMPDEST DUP2 ADD SWAP1 PUSH2 0x2F10 JUMP JUMPDEST SWAP7 SWAP6 POP SWAP4 POP POP POP POP SWAP1 PUSH2 0x1D11 JUMP JUMPDEST POP RETURNDATASIZE PUSH2 0x1DA5 JUMP JUMPDEST PUSH2 0x1DD4 PUSH2 0x216F JUMP JUMPDEST PUSH2 0x1D07 JUMP JUMPDEST PUSH2 0x1D76 SWAP4 POP PUSH2 0x1DFF SWAP2 POP PUSH1 0x60 RETURNDATASIZE DUP2 GT PUSH2 0x1E06 JUMPI JUMPDEST PUSH2 0x1DF7 DUP2 DUP4 PUSH2 0x274 JUMP JUMPDEST DUP2 ADD SWAP1 PUSH2 0x2E95 JUMP JUMPDEST POP SWAP3 PUSH2 0x1CAF JUMP JUMPDEST POP RETURNDATASIZE PUSH2 0x1DED JUMP JUMPDEST PUSH2 0x1E15 PUSH2 0x216F JUMP JUMPDEST PUSH2 0x1CA5 JUMP JUMPDEST PUSH2 0x1E32 SWAP2 POP PUSH1 0x20 RETURNDATASIZE DUP2 GT PUSH2 0xB4C JUMPI PUSH2 0xB3D DUP2 DUP4 PUSH2 0x274 JUMP JUMPDEST CODESIZE PUSH2 0x1C6C JUMP JUMPDEST PUSH2 0x1E40 PUSH2 0x216F JUMP JUMPDEST PUSH2 0x1C64 JUMP JUMPDEST POP CALLVALUE PUSH2 0x23F JUMPI PUSH2 0x100 PUSH32 0xFFFFFFFFFFFFFFFFFFFFFFFFFFFFFFFFFFFFFFFFFFFFFFFFFFFFFFFFFFFFFFFC CALLDATASIZE ADD SLT PUSH2 0x23F JUMPI PUSH1 0x4 CALLDATALOAD PUSH2 0x1E82 DUP2 PUSH2 0x485 JUMP JUMPDEST PUSH1 0x24 CALLDATALOAD PUSH2 0x1E8E DUP2 PUSH2 0x485 JUMP JUMPDEST PUSH1 0x64 CALLDATALOAD PUSH2 0x1E9A DUP2 PUSH2 0x485 JUMP JUMPDEST PUSH1 0x84 CALLDATALOAD SWAP3 PUSH2 0x1EA7 DUP5 PUSH2 0x485 JUMP JUMPDEST PUSH1 0xC4 CALLDATALOAD PUSH1 0x2 DUP2 LT ISZERO PUSH2 0x23F JUMPI PUSH1 0xE4 CALLDATALOAD SWAP4 PUSH8 0xFFFFFFFFFFFFFFFF DUP6 GT PUSH2 0x23F JUMPI PUSH2 0x3C7 SWAP6 PUSH2 0x1EDB PUSH2 0x1EEB SWAP7 CALLDATASIZE SWAP1 PUSH1 0x4 ADD PUSH2 0x1333 JUMP JUMPDEST SWAP6 SWAP1 SWAP5 PUSH1 0xA4 CALLDATALOAD SWAP4 PUSH1 0x44 CALLDATALOAD SWAP2 PUSH2 0x28CE JUMP JUMPDEST PUSH1 0x40 MLOAD SWAP1 DUP2 MSTORE SWAP1 DUP2 SWAP1 PUSH1 0x20 DUP3 ADD SWAP1 JUMP JUMPDEST SWAP1 PUSH2 0x4AE PUSH1 0x40 MLOAD SWAP3 DUP4 PUSH2 0x274 JUMP JUMPDEST POP CALLVALUE PUSH2 0x23F JUMPI PUSH1 0x0 PUSH32 0xFFFFFFFFFFFFFFFFFFFFFFFFFFFFFFFFFFFFFFFFFFFFFFFFFFFFFFFFFFFFFFFC CALLDATASIZE ADD SLT PUSH2 0x23F JUMPI PUSH1 0x40 MLOAD PUSH2 0x1F47 PUSH1 0x80 DUP3 PUSH2 0x274 JUMP JUMPDEST PUSH20 0xFFFFFFFFFFFFFFFFFFFFFFFFFFFFFFFFFFFFFFFF DUP1 PUSH1 0x1 SLOAD AND DUP3 MSTORE PUSH1 0x2 SLOAD DUP2 DUP2 AND PUSH1 0x20 DUP5 ADD MSTORE PUSH6 0xFFFFFFFFFFFF DUP2 PUSH1 0xA0 SHR AND PUSH1 0x40 DUP5 ADD MSTORE PUSH1 0xD0 SHR PUSH1 0x60 DUP4 ADD MSTORE PUSH1 0x3 SLOAD AND SWAP1 PUSH2 0x3C7 PUSH1 0x4 SLOAD PUSH1 0x40 MLOAD SWAP4 DUP5 SWAP4 DUP5 PUSH1 0xA0 SWAP2 SWAP5 SWAP4 SWAP3 SWAP5 PUSH1 0xC0 DUP3 ADD SWAP6 PUSH20 0xFFFFFFFFFFFFFFFFFFFFFFFFFFFFFFFFFFFFFFFF SWAP2 DUP3 DUP2 MLOAD AND DUP5 MSTORE DUP3 PUSH1 0x20 DUP3 ADD MLOAD AND PUSH1 0x20 DUP6 ADD MSTORE PUSH1 0x60 PUSH6 0xFFFFFFFFFFFF SWAP2 DUP3 PUSH1 0x40 DUP3 ADD MLOAD AND PUSH1 0x40 DUP8 ADD MSTORE ADD MLOAD AND PUSH1 0x60 DUP5 ADD MSTORE AND PUSH1 0x80 DUP3 ADD MSTORE ADD MSTORE JUMP JUMPDEST PUSH20 0xFFFFFFFFFFFFFFFFFFFFFFFFFFFFFFFFFFFFFFFF PUSH32 0x0 AND CALLER SUB PUSH2 0x2034 JUMPI JUMP JUMPDEST PUSH1 0x24 PUSH1 0x40 MLOAD PUSH32 0xB585641600000000000000000000000000000000000000000000000000000000 DUP2 MSTORE CALLER PUSH1 0x4 DUP3 ADD MSTORE REVERT JUMPDEST PUSH32 0xFFFFFFFFFFFFFFFFFFFFFFFFFFFFFFFFFFFFFFFFFFFFFFFFFFFFFFFFFFFFFFE0 PUSH1 0x1F PUSH1 0x20 SWAP3 PUSH8 0xFFFFFFFFFFFFFFFF DUP2 GT PUSH2 0x20A0 JUMPI JUMPDEST ADD AND ADD SWAP1 JUMP JUMPDEST PUSH2 0x20A8 PUSH2 0x244 JUMP JUMPDEST PUSH2 0x209A JUMP JUMPDEST SWAP3 SWAP2 SWAP3 PUSH2 0x20B9 DUP3 PUSH2 0x2064 JUMP JUMPDEST SWAP2 PUSH2 0x20C7 PUSH1 0x40 MLOAD SWAP4 DUP5 PUSH2 0x274 JUMP JUMPDEST DUP3 SWAP5 DUP2 DUP5 MSTORE DUP2 DUP4 ADD GT PUSH2 0x23F JUMPI DUP3 DUP2 PUSH1 0x20 SWAP4 DUP5 PUSH1 0x0 SWAP7 ADD CALLDATACOPY ADD ADD MSTORE JUMP JUMPDEST SWAP1 PUSH2 0x20EE DUP3 PUSH2 0x2064 JUMP JUMPDEST PUSH2 0x20FB PUSH1 0x40 MLOAD SWAP2 DUP3 PUSH2 0x274 JUMP JUMPDEST DUP3 DUP2 MSTORE PUSH32 0xFFFFFFFFFFFFFFFFFFFFFFFFFFFFFFFFFFFFFFFFFFFFFFFFFFFFFFFFFFFFFFE0 PUSH2 0x2129 DUP3 SWAP5 PUSH2 0x2064 JUMP JUMPDEST ADD SWAP1 PUSH1 0x20 CALLDATASIZE SWAP2 ADD CALLDATACOPY JUMP JUMPDEST SWAP1 SWAP3 PUSH2 0x339 SWAP5 SWAP4 PUSH1 0x80 SWAP4 PUSH20 0xFFFFFFFFFFFFFFFFFFFFFFFFFFFFFFFFFFFFFFFF DUP1 SWAP3 AND DUP5 MSTORE AND PUSH1 0x20 DUP4 ADD MSTORE PUSH1 0x40 DUP3 ADD MSTORE DUP2 PUSH1 0x60 DUP3 ADD MSTORE ADD SWAP1 PUSH2 0x2E5 JUMP JUMPDEST POP PUSH1 0x40 MLOAD RETURNDATASIZE PUSH1 0x0 DUP3 RETURNDATACOPY RETURNDATASIZE SWAP1 REVERT JUMPDEST DUP1 TIMESTAMP GT PUSH2 0x2186 JUMPI POP JUMP JUMPDEST PUSH1 0x24 SWAP1 PUSH1 0x40 MLOAD SWAP1 PUSH32 0xD8BF612600000000000000000000000000000000000000000000000000000000 DUP3 MSTORE PUSH1 0x4 DUP3 ADD MSTORE REVERT JUMPDEST MLOAD SWAP1 DUP2 ISZERO ISZERO DUP3 SUB PUSH2 0x23F JUMPI JUMP JUMPDEST SWAP2 DUP4 MLOAD DUP1 ISZERO PUSH2 0x22FB JUMPI DUP5 PUSH1 0x80 SWAP2 DUP2 ADD SUB SLT PUSH2 0x23F JUMPI PUSH2 0x21E5 PUSH1 0x20 DUP6 ADD PUSH2 0x21B7 JUMP JUMPDEST SWAP1 PUSH1 0x40 DUP6 ADD MLOAD SWAP3 PUSH1 0xFF DUP5 AND DUP5 SUB PUSH2 0x23F JUMPI PUSH1 0x80 PUSH1 0x60 DUP8 ADD MLOAD SWAP7 ADD MLOAD SWAP3 PUSH1 0x0 EQ PUSH2 0x22DF JUMPI POP PUSH20 0xFFFFFFFFFFFFFFFFFFFFFFFFFFFFFFFFFFFFFFFF PUSH32 0xFFFFFFFFFFFFFFFFFFFFFFFFFFFFFFFFFFFFFFFFFFFFFFFFFFFFFFFFFFFFFFFF SWAP5 JUMPDEST AND SWAP2 DUP3 EXTCODESIZE ISZERO PUSH2 0x23F JUMPI PUSH1 0x40 MLOAD PUSH32 0xD505ACCF00000000000000000000000000000000000000000000000000000000 DUP2 MSTORE CALLER PUSH1 0x4 DUP3 ADD MSTORE ADDRESS PUSH1 0x24 DUP3 ADD MSTORE PUSH1 0x44 DUP2 ADD SWAP6 SWAP1 SWAP6 MSTORE PUSH1 0x64 DUP6 ADD SWAP2 SWAP1 SWAP2 MSTORE PUSH1 0xFF SWAP1 SWAP3 AND PUSH1 0x84 DUP5 ADD MSTORE PUSH1 0xA4 DUP4 ADD SWAP4 SWAP1 SWAP4 MSTORE PUSH1 0xC4 DUP3 ADD MSTORE SWAP1 PUSH1 0x0 SWAP1 DUP3 SWAP1 DUP2 DUP4 DUP2 PUSH1 0xE4 DUP2 ADD JUMPDEST SUB SWAP3 GAS CALL DUP1 ISZERO PUSH2 0x22D2 JUMPI JUMPDEST PUSH2 0x22C3 JUMPI POP JUMP JUMPDEST DUP1 PUSH2 0x6AD PUSH1 0x0 PUSH2 0x4AE SWAP4 PUSH2 0x274 JUMP JUMPDEST PUSH2 0x22DA PUSH2 0x216F JUMP JUMPDEST PUSH2 0x22BC JUMP JUMPDEST PUSH20 0xFFFFFFFFFFFFFFFFFFFFFFFFFFFFFFFFFFFFFFFF SWAP1 SWAP5 PUSH2 0x2241 JUMP JUMPDEST POP POP POP POP POP JUMP JUMPDEST SWAP2 SWAP1 DUP3 PUSH1 0x40 SWAP2 SUB SLT PUSH2 0x23F JUMPI PUSH1 0x20 DUP3 MLOAD SWAP3 ADD MLOAD SWAP1 JUMP JUMPDEST SWAP1 SWAP2 SWAP1 PUSH20 0xFFFFFFFFFFFFFFFFFFFFFFFFFFFFFFFFFFFFFFFF AND DUP1 EXTCODESIZE ISZERO PUSH2 0x23F JUMPI PUSH2 0x23CB SWAP2 PUSH1 0x40 SWAP2 DUP3 MLOAD PUSH32 0xA6AFED9500000000000000000000000000000000000000000000000000000000 DUP2 MSTORE PUSH1 0x0 DUP2 PUSH1 0x4 DUP2 DUP4 DUP7 GAS CALL DUP1 ISZERO PUSH2 0x2443 JUMPI JUMPDEST PUSH2 0x242E JUMPI JUMPDEST POP DUP3 MLOAD DUP1 DUP1 SWAP6 DUP2 SWAP5 PUSH32 0x7D6AF07900000000000000000000000000000000000000000000000000000000 DUP4 MSTORE PUSH1 0x4 DUP4 ADD SWAP2 SWAP1 SWAP2 PUSH20 0xFFFFFFFFFFFFFFFFFFFFFFFFFFFFFFFFFFFFFFFF PUSH1 0x20 DUP3 ADD SWAP4 AND SWAP1 MSTORE JUMP JUMPDEST SUB SWAP2 GAS STATICCALL SWAP1 DUP2 ISZERO PUSH2 0x2421 JUMPI JUMPDEST PUSH1 0x0 SWAP2 PUSH2 0x23F1 JUMPI JUMPDEST POP DUP1 DUP3 LT ISZERO PUSH2 0x23EC JUMPI POP SWAP1 JUMP JUMPDEST SWAP1 POP SWAP1 JUMP JUMPDEST PUSH2 0x2412 SWAP2 POP PUSH1 0x40 RETURNDATASIZE DUP2 GT PUSH2 0x241A JUMPI JUMPDEST PUSH2 0x240A DUP2 DUP4 PUSH2 0x274 JUMP JUMPDEST DUP2 ADD SWAP1 PUSH2 0x2302 JUMP JUMPDEST SWAP1 POP CODESIZE PUSH2 0x23DF JUMP JUMPDEST POP RETURNDATASIZE PUSH2 0x2400 JUMP JUMPDEST PUSH2 0x2429 PUSH2 0x216F JUMP JUMPDEST PUSH2 0x23D7 JUMP JUMPDEST DUP1 PUSH2 0x6AD PUSH1 0x0 PUSH2 0x243D SWAP4 PUSH2 0x274 JUMP JUMPDEST CODESIZE PUSH2 0x237A JUMP JUMPDEST PUSH2 0x244B PUSH2 0x216F JUMP JUMPDEST PUSH2 0x2375 JUMP JUMPDEST PUSH6 0xFFFFFFFFFFFF DUP2 AND SUB PUSH2 0x23F JUMPI JUMP JUMPDEST PUSH1 0x1F DUP3 PUSH1 0x20 SWAP5 SWAP4 PUSH32 0xFFFFFFFFFFFFFFFFFFFFFFFFFFFFFFFFFFFFFFFFFFFFFFFFFFFFFFFFFFFFFFE0 SWAP4 DUP2 DUP7 MSTORE DUP7 DUP7 ADD CALLDATACOPY PUSH1 0x0 DUP6 DUP3 DUP7 ADD ADD MSTORE ADD AND ADD ADD SWAP1 JUMP JUMPDEST SWAP1 PUSH2 0x339 SWAP5 SWAP3 PUSH1 0xA0 SWAP2 PUSH20 0xFFFFFFFFFFFFFFFFFFFFFFFFFFFFFFFFFFFFFFFF DUP1 SWAP2 AND DUP5 MSTORE DUP1 DUP3 CALLDATALOAD PUSH2 0x24CE DUP2 PUSH2 0x485 JUMP JUMPDEST AND PUSH1 0x20 DUP6 ADD MSTORE DUP1 PUSH1 0x20 DUP4 ADD CALLDATALOAD PUSH2 0x24E3 DUP2 PUSH2 0x485 JUMP JUMPDEST AND PUSH1 0x40 DUP6 ADD MSTORE PUSH1 0x40 DUP3 ADD CALLDATALOAD PUSH2 0x24F7 DUP2 PUSH2 0x2450 JUMP JUMPDEST PUSH6 0xFFFFFFFFFFFF DUP1 SWAP2 AND PUSH1 0x60 DUP7 ADD MSTORE PUSH1 0x60 DUP4 ADD CALLDATALOAD PUSH2 0x2514 DUP2 PUSH2 0x2450 JUMP JUMPDEST AND PUSH1 0x80 DUP6 ADD MSTORE PUSH1 0x80 DUP3 ADD CALLDATALOAD PUSH2 0x2528 DUP2 PUSH2 0x485 JUMP JUMPDEST AND DUP3 DUP5 ADD MSTORE ADD CALLDATALOAD PUSH1 0xC0 DUP3 ADD MSTORE PUSH2 0x100 SWAP1 DUP2 PUSH1 0xE0 DUP3 ADD MSTORE ADD SWAP2 PUSH2 0x2460 JUMP JUMPDEST SWAP2 SWAP3 PUSH1 0x20 PUSH2 0x339 SWAP7 SWAP5 PUSH1 0x60 DUP5 CALLDATALOAD SWAP5 PUSH2 0x255C DUP7 PUSH2 0x485 JUMP JUMPDEST PUSH20 0xFFFFFFFFFFFFFFFFFFFFFFFFFFFFFFFFFFFFFFFF DUP1 SWAP7 AND DUP8 MSTORE DUP4 DUP2 ADD CALLDATALOAD DUP5 DUP9 ADD MSTORE PUSH1 0x40 DUP2 ADD CALLDATALOAD PUSH1 0x40 DUP9 ADD MSTORE ADD CALLDATALOAD PUSH1 0x60 DUP7 ADD MSTORE DUP4 DUP2 MLOAD AND PUSH1 0x80 DUP7 ADD MSTORE ADD MLOAD PUSH1 0xA0 DUP5 ADD MSTORE AND PUSH1 0xC0 DUP3 ADD MSTORE PUSH2 0x100 SWAP1 DUP2 PUSH1 0xE0 DUP3 ADD MSTORE ADD SWAP2 PUSH2 0x2460 JUMP JUMPDEST SWAP1 DUP2 PUSH1 0x20 SWAP2 SUB SLT PUSH2 0x23F JUMPI MLOAD SWAP1 JUMP JUMPDEST SWAP4 SWAP2 PUSH2 0x25E1 SWAP2 PUSH2 0x25DB DUP3 SWAP8 SWAP5 SWAP11 SWAP10 SWAP9 SWAP6 SWAP11 PUSH2 0x217C JUMP JUMPDEST DUP6 PUSH2 0x2318 JUMP JUMPDEST SWAP5 DUP1 PUSH2 0x2748 JUMPI JUMPDEST POP POP POP PUSH15 0x22D473030F116DDEE9F6B43AC78BA3 SWAP5 DUP6 EXTCODESIZE ISZERO PUSH2 0x23F JUMPI PUSH1 0x40 MLOAD PUSH32 0x36C7851600000000000000000000000000000000000000000000000000000000 DUP2 MSTORE CALLER PUSH1 0x4 DUP3 ADD MSTORE PUSH20 0xFFFFFFFFFFFFFFFFFFFFFFFFFFFFFFFFFFFFFFFF DUP4 DUP2 AND PUSH1 0x24 DUP4 ADD MSTORE DUP6 DUP2 AND PUSH1 0x44 DUP4 ADD MSTORE PUSH32 0x0 DUP2 AND PUSH1 0x64 DUP4 ADD MSTORE PUSH1 0x0 SWAP8 PUSH1 0x20 SWAP5 DUP8 SWAP5 SWAP1 SWAP4 SWAP1 SWAP3 DUP11 SWAP3 SWAP1 SWAP2 SWAP1 DUP4 SWAP1 DUP3 SWAP1 PUSH1 0x84 SWAP1 DUP3 SWAP1 DUP5 SWAP1 GAS CALL DUP1 ISZERO PUSH2 0x273B JUMPI JUMPDEST PUSH2 0x2727 JUMPI JUMPDEST POP PUSH2 0x26B0 DUP3 PUSH2 0x20E4 JUMP JUMPDEST SWAP7 PUSH2 0x26EA PUSH1 0x40 MLOAD SWAP9 DUP10 SWAP8 DUP9 SWAP7 DUP8 SWAP5 PUSH32 0x27CE385400000000000000000000000000000000000000000000000000000000 DUP7 MSTORE PUSH1 0x4 DUP7 ADD PUSH2 0x2133 JUMP JUMPDEST SUB SWAP4 AND GAS CALL SWAP4 DUP5 ISZERO PUSH2 0x271A JUMPI JUMPDEST SWAP4 PUSH2 0x2701 JUMPI POP SWAP2 SWAP1 JUMP JUMPDEST PUSH2 0x339 SWAP2 SWAP4 POP PUSH1 0x20 RETURNDATASIZE DUP2 GT PUSH2 0xB4C JUMPI PUSH2 0xB3D DUP2 DUP4 PUSH2 0x274 JUMP JUMPDEST PUSH2 0x2722 PUSH2 0x216F JUMP JUMPDEST PUSH2 0x26F7 JUMP JUMPDEST DUP1 PUSH2 0x6AD DUP5 PUSH2 0x2735 SWAP4 PUSH2 0x274 JUMP JUMPDEST CODESIZE PUSH2 0x26A6 JUMP JUMPDEST PUSH2 0x2743 PUSH2 0x216F JUMP JUMPDEST PUSH2 0x26A1 JUMP JUMPDEST PUSH15 0x22D473030F116DDEE9F6B43AC78BA3 DUP1 EXTCODESIZE ISZERO PUSH2 0x23F JUMPI PUSH2 0x279E SWAP4 PUSH1 0x0 DUP1 SWAP5 PUSH1 0x40 MLOAD SWAP7 DUP8 SWAP6 DUP7 SWAP5 DUP6 SWAP4 PUSH32 0x2B67B57000000000000000000000000000000000000000000000000000000000 DUP6 MSTORE CALLER PUSH1 0x4 DUP7 ADD PUSH2 0x249F JUMP JUMPDEST SUB SWAP3 GAS CALL DUP1 ISZERO PUSH2 0x27CA JUMPI JUMPDEST PUSH2 0x27B5 JUMPI JUMPDEST DUP1 DUP1 PUSH2 0x25E8 JUMP JUMPDEST DUP1 PUSH2 0x6AD PUSH1 0x0 PUSH2 0x27C4 SWAP4 PUSH2 0x274 JUMP JUMPDEST CODESIZE PUSH2 0x27AE JUMP JUMPDEST PUSH2 0x27D2 PUSH2 0x216F JUMP JUMPDEST PUSH2 0x27A9 JUMP JUMPDEST SWAP2 PUSH2 0x27F2 SWAP2 PUSH2 0x27EC DUP3 SWAP8 SWAP6 SWAP9 SWAP7 SWAP11 SWAP10 SWAP11 PUSH2 0x217C JUMP JUMPDEST DUP4 PUSH2 0x2318 JUMP JUMPDEST SWAP5 PUSH2 0x27FD PUSH1 0x40 PUSH2 0x1EFB JUMP JUMPDEST PUSH20 0xFFFFFFFFFFFFFFFFFFFFFFFFFFFFFFFFFFFFFFFF DUP4 AND DUP2 MSTORE SWAP4 DUP7 PUSH1 0x20 DUP7 ADD MSTORE PUSH15 0x22D473030F116DDEE9F6B43AC78BA3 SWAP4 DUP5 EXTCODESIZE ISZERO PUSH2 0x23F JUMPI DUP8 SWAP5 PUSH1 0x40 MLOAD DUP1 SWAP8 DUP2 DUP1 SWAP5 PUSH32 0x30F28B7A00000000000000000000000000000000000000000000000000000000 DUP3 MSTORE PUSH1 0x0 SWAP15 DUP16 SWAP8 DUP9 SWAP5 CALLER SWAP1 PUSH1 0x4 DUP7 ADD SWAP5 PUSH2 0x2879 SWAP6 PUSH2 0x2545 JUMP JUMPDEST SUB SWAP3 GAS CALL PUSH1 0x20 SWAP5 SWAP1 DUP1 ISZERO PUSH2 0x28C1 JUMPI JUMPDEST PUSH2 0x28AD JUMPI JUMPDEST POP DUP8 PUSH20 0xFFFFFFFFFFFFFFFFFFFFFFFFFFFFFFFFFFFFFFFF PUSH2 0x26B0 DUP3 PUSH2 0x20E4 JUMP JUMPDEST DUP1 PUSH2 0x6AD DUP11 PUSH2 0x28BB SWAP4 PUSH2 0x274 JUMP JUMPDEST CODESIZE PUSH2 0x288D JUMP JUMPDEST PUSH2 0x28C9 PUSH2 0x216F JUMP JUMPDEST PUSH2 0x2888 JUMP JUMPDEST SWAP3 SWAP7 DUP8 PUSH2 0x28F0 PUSH2 0x2A36 SWAP11 SWAP10 PUSH1 0x0 SWAP5 SWAP6 PUSH2 0x28EA PUSH2 0x2A0A SWAP12 SWAP11 PUSH2 0x217C JUMP JUMPDEST DUP8 PUSH2 0x2318 JUMP JUMPDEST SWAP10 DUP11 SWAP7 PUSH1 0x40 MLOAD DUP1 SWAP5 PUSH32 0x6F307DC300000000000000000000000000000000000000000000000000000000 DUP3 MSTORE PUSH1 0x20 SWAP13 DUP14 SWAP12 DUP13 SWAP5 DUP12 DUP12 DUP8 DUP8 PUSH1 0x4 PUSH20 0xFFFFFFFFFFFFFFFFFFFFFFFFFFFFFFFFFFFFFFFF SWAP14 DUP15 DUP6 AND GAS STATICCALL SWAP7 DUP8 ISZERO PUSH2 0x2AF4 JUMPI JUMPDEST DUP13 SWAP8 PUSH2 0x2AAB JUMPI JUMPDEST POP SWAP2 PUSH2 0x29AF PUSH2 0x29CC SWAP3 PUSH2 0x17DA PUSH2 0x148A SWAP7 SWAP6 PUSH2 0x29F7 SWAP11 SWAP12 PUSH2 0x2992 PUSH2 0x2976 PUSH2 0x100 PUSH2 0x1EFB JUMP JUMPDEST PUSH20 0xFFFFFFFFFFFFFFFFFFFFFFFFFFFFFFFFFFFFFFFF SWAP1 SWAP15 AND DUP15 MSTORE JUMP JUMPDEST DUP13 ADD SWAP1 PUSH20 0xFFFFFFFFFFFFFFFFFFFFFFFFFFFFFFFFFFFFFFFF AND SWAP1 MSTORE JUMP JUMPDEST PUSH20 0xFFFFFFFFFFFFFFFFFFFFFFFFFFFFFFFFFFFFFFFF AND PUSH1 0x60 DUP9 ADD MSTORE JUMP JUMPDEST PUSH20 0xFFFFFFFFFFFFFFFFFFFFFFFFFFFFFFFFFFFFFFFF DUP9 AND PUSH1 0x80 DUP8 ADD MSTORE DUP13 PUSH1 0xA0 DUP8 ADD MSTORE PUSH1 0xC0 DUP7 ADD PUSH2 0x2B4F JUMP JUMPDEST PUSH1 0xE0 DUP3 ADD MSTORE PUSH1 0x40 MLOAD SWAP10 DUP11 SWAP2 DUP11 DUP4 ADD PUSH2 0x2C64 JUMP JUMPDEST SUB PUSH32 0xFFFFFFFFFFFFFFFFFFFFFFFFFFFFFFFFFFFFFFFFFFFFFFFFFFFFFFFFFFFFFFE0 DUP2 ADD DUP11 MSTORE DUP10 PUSH2 0x274 JUMP JUMPDEST PUSH2 0x2A6F PUSH1 0x40 MLOAD SWAP9 DUP10 SWAP8 DUP9 SWAP7 DUP8 SWAP5 PUSH32 0x27CE385400000000000000000000000000000000000000000000000000000000 DUP7 MSTORE PUSH1 0x4 DUP7 ADD PUSH2 0x2133 JUMP JUMPDEST SUB SWAP4 AND GAS CALL DUP1 ISZERO PUSH2 0x2A9E JUMPI JUMPDEST PUSH2 0x2A84 JUMPI POP POP SWAP1 JUMP JUMPDEST DUP2 PUSH2 0x2A9A SWAP3 SWAP1 RETURNDATASIZE LT PUSH2 0xB4C JUMPI PUSH2 0xB3D DUP2 DUP4 PUSH2 0x274 JUMP JUMPDEST POP SWAP1 JUMP JUMPDEST PUSH2 0x2AA6 PUSH2 0x216F JUMP JUMPDEST PUSH2 0x2A7B JUMP JUMPDEST PUSH2 0x29F7 SWAP8 POP PUSH2 0x29CC SWAP3 PUSH2 0x17DA PUSH2 0x148A SWAP7 SWAP6 SWAP4 PUSH2 0x2ADF PUSH2 0x29AF SWAP5 DUP14 DUP1 RETURNDATASIZE LT PUSH2 0x2AED JUMPI JUMPDEST PUSH2 0x2AD7 DUP2 DUP4 PUSH2 0x274 JUMP JUMPDEST DUP2 ADD SWAP1 PUSH2 0x2B01 JUMP JUMPDEST SWAP11 POP SWAP4 SWAP6 SWAP7 POP POP SWAP3 POP PUSH2 0x2952 JUMP JUMPDEST POP RETURNDATASIZE PUSH2 0x2ACD JUMP JUMPDEST PUSH2 0x2AFC PUSH2 0x216F JUMP JUMPDEST PUSH2 0x294B JUMP JUMPDEST SWAP1 DUP2 PUSH1 0x20 SWAP2 SUB SLT PUSH2 0x23F JUMPI MLOAD PUSH2 0x339 DUP2 PUSH2 0x485 JUMP JUMPDEST PUSH1 0x2 GT ISZERO PUSH2 0x2B20 JUMPI JUMP JUMPDEST PUSH32 0x4E487B7100000000000000000000000000000000000000000000000000000000 PUSH1 0x0 MSTORE PUSH1 0x21 PUSH1 0x4 MSTORE PUSH1 0x24 PUSH1 0x0 REVERT JUMPDEST PUSH1 0x2 DUP3 LT ISZERO PUSH2 0x2B20 JUMPI MSTORE JUMP JUMPDEST PUSH1 0x20 SWAP1 PUSH8 0xFFFFFFFFFFFFFFFF DUP2 GT PUSH2 0x2B75 JUMPI JUMPDEST PUSH1 0x5 SHL ADD SWAP1 JUMP JUMPDEST PUSH2 0x2B7D PUSH2 0x244 JUMP JUMPDEST PUSH2 0x2B6E JUMP JUMPDEST SWAP3 SWAP2 SWAP1 SWAP3 PUSH2 0x2B8F DUP5 PUSH2 0x2B5B JUMP JUMPDEST SWAP2 PUSH2 0x2B9D PUSH1 0x40 MLOAD SWAP4 DUP5 PUSH2 0x274 JUMP JUMPDEST DUP3 SWAP5 DUP1 DUP5 MSTORE PUSH1 0x20 DUP1 SWAP5 ADD SWAP1 PUSH1 0x5 SHL DUP4 ADD SWAP3 DUP3 DUP5 GT PUSH2 0x23F JUMPI DUP1 SWAP2 JUMPDEST DUP5 DUP4 LT PUSH2 0x2BC7 JUMPI POP POP POP POP POP POP JUMP JUMPDEST DUP3 CALLDATALOAD PUSH8 0xFFFFFFFFFFFFFFFF DUP2 GT PUSH2 0x23F JUMPI DUP3 ADD DUP5 PUSH1 0x1F DUP3 ADD SLT ISZERO PUSH2 0x23F JUMPI DUP7 SWAP2 PUSH2 0x2BF7 DUP7 DUP4 DUP6 DUP1 SWAP6 CALLDATALOAD SWAP2 ADD PUSH2 0x20AD JUMP JUMPDEST DUP2 MSTORE ADD SWAP3 ADD SWAP2 PUSH2 0x2BB8 JUMP JUMPDEST SWAP1 PUSH1 0x2 DUP3 LT ISZERO PUSH2 0x2B20 JUMPI MSTORE JUMP JUMPDEST SWAP1 DUP2 MLOAD DUP1 DUP3 MSTORE PUSH1 0x20 DUP1 SWAP3 ADD SWAP2 DUP3 DUP2 DUP4 PUSH1 0x5 SHL DUP3 ADD SWAP6 ADD SWAP4 PUSH1 0x0 SWAP2 JUMPDEST DUP5 DUP4 LT PUSH2 0x2C3A JUMPI POP POP POP POP POP POP SWAP1 JUMP JUMPDEST SWAP1 SWAP2 SWAP3 SWAP4 SWAP5 SWAP6 DUP5 DUP1 PUSH2 0x2C54 DUP4 DUP6 PUSH1 0x1 SWAP6 SUB DUP8 MSTORE DUP11 MLOAD PUSH2 0x2E5 JUMP JUMPDEST SWAP9 ADD SWAP4 ADD SWAP4 ADD SWAP2 SWAP5 SWAP4 SWAP3 SWAP1 PUSH2 0x2C2A JUMP JUMPDEST PUSH2 0x120 PUSH1 0xE0 PUSH2 0x339 SWAP4 PUSH1 0x20 DUP5 MSTORE PUSH20 0xFFFFFFFFFFFFFFFFFFFFFFFFFFFFFFFFFFFFFFFF DUP1 DUP3 MLOAD AND PUSH1 0x20 DUP7 ADD MSTORE PUSH1 0x20 DUP3 ADD MLOAD AND PUSH1 0x40 DUP6 ADD MSTORE PUSH2 0x2CC1 PUSH1 0x40 DUP3 ADD MLOAD PUSH1 0x60 DUP7 ADD SWAP1 PUSH20 0xFFFFFFFFFFFFFFFFFFFFFFFFFFFFFFFFFFFFFFFF AND SWAP1 MSTORE JUMP JUMPDEST PUSH1 0x60 DUP2 ADD MLOAD PUSH20 0xFFFFFFFFFFFFFFFFFFFFFFFFFFFFFFFFFFFFFFFF AND PUSH1 0x80 DUP6 ADD MSTORE PUSH1 0x80 DUP2 ADD MLOAD PUSH20 0xFFFFFFFFFFFFFFFFFFFFFFFFFFFFFFFFFFFFFFFF AND PUSH1 0xA0 DUP6 ADD MSTORE PUSH1 0xA0 DUP2 ADD MLOAD PUSH1 0xC0 DUP6 ADD MSTORE PUSH2 0x2D1C PUSH1 0xC0 DUP3 ADD MLOAD DUP4 DUP7 ADD SWAP1 PUSH2 0x2C02 JUMP JUMPDEST ADD MLOAD SWAP2 PUSH2 0x100 DUP1 DUP3 ADD MSTORE ADD SWAP1 PUSH2 0x2C0F JUMP JUMPDEST PUSH2 0x100 PUSH1 0xC0 PUSH2 0x339 SWAP4 PUSH1 0x20 DUP5 MSTORE PUSH20 0xFFFFFFFFFFFFFFFFFFFFFFFFFFFFFFFFFFFFFFFF DUP1 DUP3 MLOAD AND PUSH1 0x20 DUP7 ADD MSTORE DUP1 PUSH1 0x20 DUP4 ADD MLOAD AND PUSH1 0x40 DUP7 ADD MSTORE DUP1 PUSH1 0x40 DUP4 ADD MLOAD AND PUSH1 0x60 DUP7 ADD MSTORE PUSH1 0x60 DUP3 ADD MLOAD AND PUSH1 0x80 DUP6 ADD MSTORE PUSH1 0x80 DUP2 ADD MLOAD PUSH1 0xA0 DUP6 ADD MSTORE PUSH2 0x2D96 PUSH1 0xA0 DUP3 ADD MLOAD DUP4 DUP7 ADD SWAP1 PUSH2 0x2C02 JUMP JUMPDEST ADD MLOAD SWAP2 PUSH1 0xE0 DUP1 DUP3 ADD MSTORE ADD SWAP1 PUSH2 0x2C0F JUMP JUMPDEST PUSH2 0x120 PUSH1 0xE0 PUSH2 0x339 SWAP4 PUSH1 0x20 DUP5 MSTORE PUSH20 0xFFFFFFFFFFFFFFFFFFFFFFFFFFFFFFFFFFFFFFFF DUP1 DUP3 MLOAD AND PUSH1 0x20 DUP7 ADD MSTORE PUSH1 0x20 DUP3 ADD MLOAD AND PUSH1 0x40 DUP6 ADD MSTORE PUSH2 0x2E03 PUSH1 0x40 DUP3 ADD MLOAD PUSH1 0x60 DUP7 ADD SWAP1 PUSH20 0xFFFFFFFFFFFFFFFFFFFFFFFFFFFFFFFFFFFFFFFF AND SWAP1 MSTORE JUMP JUMPDEST PUSH1 0x60 DUP2 ADD MLOAD PUSH20 0xFFFFFFFFFFFFFFFFFFFFFFFFFFFFFFFFFFFFFFFF AND PUSH1 0x80 DUP6 ADD MSTORE PUSH1 0x80 DUP2 ADD MLOAD PUSH1 0xA0 DUP6 ADD MSTORE PUSH1 0xA0 DUP2 ADD MLOAD PUSH1 0xC0 DUP6 ADD MSTORE PUSH2 0x2D1C PUSH1 0xC0 DUP3 ADD MLOAD DUP4 DUP7 ADD SWAP1 PUSH2 0x2C02 JUMP JUMPDEST PUSH2 0x339 SWAP4 SWAP3 PUSH20 0xFFFFFFFFFFFFFFFFFFFFFFFFFFFFFFFFFFFFFFFF PUSH1 0x60 SWAP4 AND DUP3 MSTORE PUSH1 0x20 DUP3 ADD MSTORE DUP2 PUSH1 0x40 DUP3 ADD MSTORE ADD SWAP1 PUSH2 0x2E5 JUMP JUMPDEST MLOAD SWAP1 PUSH14 0xFFFFFFFFFFFFFFFFFFFFFFFFFFFF DUP3 AND DUP3 SUB PUSH2 0x23F JUMPI JUMP JUMPDEST SWAP1 DUP2 PUSH1 0x60 SWAP2 SUB SLT PUSH2 0x23F JUMPI PUSH2 0x2EA9 DUP2 PUSH2 0x2E7A JUMP JUMPDEST SWAP2 PUSH1 0x40 PUSH2 0x2EB8 PUSH1 0x20 DUP5 ADD PUSH2 0x2E7A JUMP JUMPDEST SWAP3 ADD MLOAD PUSH4 0xFFFFFFFF DUP2 AND DUP2 SUB PUSH2 0x23F JUMPI SWAP1 JUMP JUMPDEST SWAP1 PUSH2 0x2ED5 DUP3 PUSH2 0x2B5B JUMP JUMPDEST PUSH2 0x2EE2 PUSH1 0x40 MLOAD SWAP2 DUP3 PUSH2 0x274 JUMP JUMPDEST DUP3 DUP2 MSTORE PUSH32 0xFFFFFFFFFFFFFFFFFFFFFFFFFFFFFFFFFFFFFFFFFFFFFFFFFFFFFFFFFFFFFFE0 PUSH2 0x2129 DUP3 SWAP5 PUSH2 0x2B5B JUMP JUMPDEST SWAP1 DUP2 PUSH1 0xE0 SWAP2 SUB SLT PUSH2 0x23F JUMPI DUP1 MLOAD SWAP2 PUSH1 0x20 DUP3 ADD MLOAD SWAP2 PUSH1 0x40 DUP2 ADD MLOAD SWAP2 PUSH1 0x60 DUP3 ADD MLOAD SWAP2 PUSH2 0x2F3C PUSH1 0x80 DUP3 ADD PUSH2 0x21B7 JUMP JUMPDEST SWAP2 PUSH1 0xC0 PUSH1 0xA0 DUP4 ADD MLOAD PUSH2 0x2F4D DUP2 PUSH2 0x485 JUMP JUMPDEST SWAP3 ADD MLOAD PUSH2 0x339 DUP2 PUSH2 0x485 JUMP JUMPDEST POP PUSH32 0x4E487B7100000000000000000000000000000000000000000000000000000000 PUSH1 0x0 MSTORE PUSH1 0x32 PUSH1 0x4 MSTORE PUSH1 0x24 PUSH1 0x0 REVERT JUMPDEST PUSH1 0x20 SWAP2 DUP2 MLOAD DUP2 LT ISZERO PUSH2 0x2F9E JUMPI JUMPDEST PUSH1 0x5 SHL ADD ADD SWAP1 JUMP JUMPDEST PUSH2 0x2FA6 PUSH2 0x2F59 JUMP JUMPDEST PUSH2 0x2F96 JUMP JUMPDEST SWAP1 DUP1 PUSH1 0x1F DUP4 ADD SLT ISZERO PUSH2 0x23F JUMPI DUP2 PUSH1 0x20 PUSH2 0x339 SWAP4 CALLDATALOAD SWAP2 ADD PUSH2 0x2B82 JUMP JUMPDEST SWAP1 PUSH1 0x20 DUP3 DUP3 SUB SLT PUSH2 0x23F JUMPI DUP2 CALLDATALOAD PUSH8 0xFFFFFFFFFFFFFFFF SWAP3 DUP4 DUP3 GT PUSH2 0x23F JUMPI ADD SWAP1 PUSH2 0x100 DUP1 DUP4 DUP4 SUB SLT PUSH2 0x23F JUMPI PUSH2 0x2FFB SWAP1 PUSH2 0x1EFB JUMP JUMPDEST SWAP3 PUSH2 0x3005 DUP4 PUSH2 0x4A3 JUMP JUMPDEST DUP5 MSTORE PUSH2 0x3013 PUSH1 0x20 DUP5 ADD PUSH2 0x4A3 JUMP JUMPDEST PUSH1 0x20 DUP6 ADD MSTORE PUSH2 0x3024 PUSH1 0x40 DUP5 ADD PUSH2 0x4A3 JUMP JUMPDEST PUSH1 0x40 DUP6 ADD MSTORE PUSH2 0x3035 PUSH1 0x60 DUP5 ADD PUSH2 0x4A3 JUMP JUMPDEST PUSH1 0x60 DUP6 ADD MSTORE PUSH2 0x3046 PUSH1 0x80 DUP5 ADD PUSH2 0x4A3 JUMP JUMPDEST PUSH1 0x80 DUP6 ADD MSTORE PUSH1 0xA0 DUP4 ADD CALLDATALOAD PUSH1 0xA0 DUP6 ADD MSTORE PUSH2 0x3061 PUSH1 0xC0 DUP5 ADD PUSH2 0x1326 JUMP JUMPDEST PUSH1 0xC0 DUP6 ADD MSTORE PUSH1 0xE0 DUP4 ADD CALLDATALOAD SWAP1 DUP2 GT PUSH2 0x23F JUMPI PUSH2 0x307C SWAP3 ADD PUSH2 0x2FAB JUMP JUMPDEST PUSH1 0xE0 DUP3 ADD MSTORE SWAP1 JUMP JUMPDEST POP PUSH32 0x4E487B7100000000000000000000000000000000000000000000000000000000 PUSH1 0x0 MSTORE PUSH1 0x11 PUSH1 0x4 MSTORE PUSH1 0x24 PUSH1 0x0 REVERT JUMPDEST SWAP2 SWAP1 DUP3 SUB SWAP2 DUP3 GT PUSH2 0x30C1 JUMPI JUMP JUMPDEST PUSH2 0x4AE PUSH2 0x3084 JUMP JUMPDEST SWAP7 SWAP3 SWAP8 SWAP6 SWAP1 SWAP4 SWAP2 SWAP4 PUSH20 0xFFFFFFFFFFFFFFFFFFFFFFFFFFFFFFFFFFFFFFFF DUP1 SWAP2 AND SWAP8 PUSH1 0x40 SWAP9 PUSH2 0x3137 DUP11 MLOAD PUSH32 0x3BA0B9A900000000000000000000000000000000000000000000000000000000 DUP2 MSTORE PUSH1 0x0 SWAP7 PUSH1 0x20 DUP3 PUSH1 0x4 DUP2 DUP12 DUP9 GAS CALL SWAP2 DUP3 ISZERO PUSH2 0x337C JUMPI JUMPDEST DUP9 SWAP3 PUSH2 0x335C JUMPI JUMPDEST POP PUSH2 0x489E JUMP JUMPDEST SWAP1 PUSH2 0x3141 DUP7 PUSH2 0x20E4 JUMP JUMPDEST SWAP2 DUP2 EXTCODESIZE ISZERO PUSH2 0x3358 JUMPI DUP7 DUP1 SWAP6 SWAP4 PUSH1 0x4 SWAP8 SWAP6 SWAP4 PUSH2 0x3190 SWAP4 DUP16 SWAP11 PUSH2 0x3250 SWAP13 SWAP12 MLOAD DUP1 SWAP7 DUP2 SWAP6 DUP3 SWAP5 PUSH32 0xFA14FDC200000000000000000000000000000000000000000000000000000000 DUP5 MSTORE DUP11 DUP16 DUP6 ADD PUSH2 0x2E48 JUMP JUMPDEST SUB SWAP3 GAS CALL DUP1 ISZERO PUSH2 0x334B JUMPI JUMPDEST PUSH2 0x3337 JUMPI JUMPDEST POP AND SWAP1 DUP10 MLOAD SWAP1 PUSH32 0x89AFCB4400000000000000000000000000000000000000000000000000000000 DUP3 MSTORE DUP11 DUP3 DUP1 PUSH2 0x31F5 ADDRESS DUP10 DUP4 ADD SWAP2 SWAP1 SWAP2 PUSH20 0xFFFFFFFFFFFFFFFFFFFFFFFFFFFFFFFFFFFFFFFF PUSH1 0x20 DUP3 ADD SWAP4 AND SWAP1 MSTORE JUMP JUMPDEST SUB DUP2 DUP8 DUP8 GAS CALL SWAP3 DUP4 ISZERO PUSH2 0x332A JUMPI JUMPDEST DUP5 SWAP3 DUP6 SWAP5 PUSH2 0x3306 JUMPI JUMPDEST POP PUSH1 0xE0 SWAP1 DUP13 MLOAD SWAP7 DUP8 DUP1 SWAP3 PUSH32 0x392F37E900000000000000000000000000000000000000000000000000000000 DUP3 MSTORE GAS STATICCALL SWAP5 DUP6 ISZERO PUSH2 0x32F9 JUMPI JUMPDEST DUP5 SWAP6 PUSH2 0x32CD JUMPI JUMPDEST POP PUSH2 0x3396 JUMP JUMPDEST POP PUSH32 0x0 PUSH2 0x327C ADDRESS DUP3 PUSH2 0x4A63 JUMP JUMPDEST SWAP5 DUP4 DUP7 LT PUSH2 0x32A4 JUMPI POP PUSH2 0x329F DUP6 SWAP7 PUSH2 0x3298 DUP6 PUSH2 0x4AE SWAP8 SWAP9 PUSH2 0x30B4 JUMP JUMPDEST SWAP1 DUP4 PUSH2 0x4A1A JUMP JUMPDEST PUSH2 0x4A1A JUMP JUMPDEST PUSH1 0x4 SWAP1 MLOAD PUSH32 0x38040E8D00000000000000000000000000000000000000000000000000000000 DUP2 MSTORE REVERT JUMPDEST SWAP1 SWAP5 POP PUSH2 0x32E9 SWAP2 SWAP4 POP PUSH1 0xE0 RETURNDATASIZE DUP2 GT PUSH2 0x1DC5 JUMPI PUSH2 0x1DAF DUP2 DUP4 PUSH2 0x274 JUMP JUMPDEST SWAP8 SWAP6 POP SWAP4 POP POP POP POP SWAP3 SWAP4 CODESIZE PUSH2 0x324A JUMP JUMPDEST PUSH2 0x3301 PUSH2 0x216F JUMP JUMPDEST PUSH2 0x3243 JUMP JUMPDEST PUSH2 0x3322 SWAP2 SWAP5 POP PUSH1 0xE0 SWAP4 POP DUP13 DUP14 RETURNDATASIZE LT PUSH2 0x241A JUMPI PUSH2 0x240A DUP2 DUP4 PUSH2 0x274 JUMP JUMPDEST SWAP4 SWAP1 SWAP3 PUSH2 0x320C JUMP JUMPDEST PUSH2 0x3332 PUSH2 0x216F JUMP JUMPDEST PUSH2 0x3203 JUMP JUMPDEST DUP1 PUSH2 0x6AD DUP7 PUSH2 0x3345 SWAP4 PUSH2 0x274 JUMP JUMPDEST CODESIZE PUSH2 0x31A0 JUMP JUMPDEST PUSH2 0x3353 PUSH2 0x216F JUMP JUMPDEST PUSH2 0x319B JUMP JUMPDEST DUP7 DUP1 REVERT JUMPDEST PUSH2 0x3375 SWAP2 SWAP3 POP PUSH1 0x20 RETURNDATASIZE DUP2 GT PUSH2 0xB4C JUMPI PUSH2 0xB3D DUP2 DUP4 PUSH2 0x274 JUMP JUMPDEST SWAP1 CODESIZE PUSH2 0x3131 JUMP JUMPDEST PUSH2 0x3384 PUSH2 0x216F JUMP JUMPDEST PUSH2 0x312A JUMP JUMPDEST SWAP2 SWAP1 DUP3 ADD DUP1 SWAP3 GT PUSH2 0x30C1 JUMPI JUMP JUMPDEST SWAP2 SWAP3 SWAP5 SWAP4 SWAP5 PUSH20 0xFFFFFFFFFFFFFFFFFFFFFFFFFFFFFFFFFFFFFFFF DUP1 PUSH32 0x0 AND DUP1 DUP3 DUP5 AND EQ SWAP1 DUP2 SWAP3 DUP3 ISZERO PUSH2 0x3475 JUMPI JUMPDEST POP POP PUSH2 0x3421 JUMPI POP SWAP2 PUSH2 0x3414 PUSH1 0x1 PUSH2 0x340E PUSH2 0x339 SWAP9 SWAP5 PUSH2 0x341B SWAP8 SWAP7 PUSH2 0x3407 PUSH1 0x0 DUP12 PUSH2 0x2F89 JUMP JUMPDEST MLOAD DUP7 PUSH2 0x3481 JUMP JUMPDEST SWAP7 PUSH2 0x2F89 JUMP JUMPDEST MLOAD SWAP1 PUSH2 0x3481 JUMP JUMPDEST SWAP1 PUSH2 0x3389 JUMP JUMPDEST PUSH2 0x339 SWAP7 SWAP3 SWAP5 SWAP4 SWAP2 SWAP1 ISZERO PUSH2 0x3457 JUMPI POP PUSH1 0x40 DUP6 PUSH2 0x341B SWAP6 SWAP7 MLOAD PUSH1 0x1 LT ISZERO PUSH2 0x344A JUMPI JUMPDEST ADD MLOAD SWAP1 PUSH2 0x3481 JUMP JUMPDEST PUSH2 0x3452 PUSH2 0x2F59 JUMP JUMPDEST PUSH2 0x3442 JUMP JUMPDEST SWAP2 POP PUSH1 0x20 DUP6 PUSH2 0x3470 SWAP6 SWAP5 SWAP7 MLOAD ISZERO PUSH2 0x344A JUMPI ADD MLOAD SWAP1 PUSH2 0x3481 JUMP JUMPDEST PUSH2 0x3389 JUMP JUMPDEST DUP10 AND EQ SWAP1 POP CODESIZE DUP1 PUSH2 0x33E2 JUMP JUMPDEST SWAP4 SWAP3 SWAP2 SWAP1 PUSH1 0x0 SWAP5 PUSH1 0x2 DUP2 LT ISZERO PUSH2 0x2B20 JUMPI DUP1 PUSH2 0x34A2 JUMPI POP PUSH2 0x339 SWAP4 SWAP5 POP PUSH2 0x35D6 JUMP JUMPDEST PUSH1 0x1 SWAP2 SWAP3 POP PUSH2 0x34B0 DUP2 PUSH2 0x2B16 JUMP JUMPDEST EQ PUSH2 0x34BA JUMPI JUMPDEST POP POP JUMP JUMPDEST PUSH1 0x0 SWAP3 SWAP4 POP PUSH1 0x40 SWAP2 PUSH20 0xFFFFFFFFFFFFFFFFFFFFFFFFFFFFFFFFFFFFFFFF PUSH2 0x34ED DUP4 PUSH1 0x20 DUP1 PUSH2 0x3592 SWAP7 MLOAD DUP4 ADD ADD SWAP2 ADD PUSH2 0x3724 JUMP JUMPDEST PUSH1 0x80 DUP4 SWAP8 SWAP3 SWAP10 SWAP5 SWAP4 ADD SWAP6 DUP1 DUP8 MLOAD SUB PUSH2 0x35CE JUMPI JUMPDEST POP PUSH2 0x355C PUSH2 0x353E PUSH2 0x3525 DUP10 MLOAD PUSH20 0xFFFFFFFFFFFFFFFFFFFFFFFFFFFFFFFFFFFFFFFF AND SWAP1 JUMP JUMPDEST PUSH20 0xFFFFFFFFFFFFFFFFFFFFFFFFFFFFFFFFFFFFFFFF AND SWAP1 JUMP JUMPDEST SWAP7 MLOAD PUSH20 0x1111111254EEB25477B68FB85ED929F73A960582 DUP1 SWAP9 PUSH2 0x38A2 JUMP JUMPDEST DUP8 MLOAD SWAP9 DUP10 SWAP8 DUP9 SWAP7 DUP8 SWAP6 PUSH32 0x12AA3CAF00000000000000000000000000000000000000000000000000000000 DUP8 MSTORE AND PUSH1 0x4 DUP7 ADD PUSH2 0x3815 JUMP JUMPDEST SUB SWAP3 GAS CALL SWAP1 DUP2 ISZERO PUSH2 0x35C1 JUMPI JUMPDEST PUSH1 0x0 SWAP2 PUSH2 0x35A9 JUMPI POP SWAP1 JUMP JUMPDEST PUSH2 0x2A9A SWAP2 POP PUSH1 0x40 RETURNDATASIZE DUP2 GT PUSH2 0x241A JUMPI PUSH2 0x240A DUP2 DUP4 PUSH2 0x274 JUMP JUMPDEST PUSH2 0x35C9 PUSH2 0x216F JUMP JUMPDEST PUSH2 0x359E JUMP JUMPDEST DUP7 MSTORE CODESIZE PUSH2 0x3500 JUMP JUMPDEST PUSH1 0x0 SWAP2 SWAP1 DUP3 SWAP2 PUSH2 0x363C PUSH1 0x40 MLOAD SWAP6 PUSH32 0xD2C4B59800000000000000000000000000000000000000000000000000000000 DUP8 MSTORE PUSH1 0x20 SWAP7 PUSH20 0xDEF171FE48CF0115B1D80B88DC8EAB59176FEE57 SWAP4 DUP9 DUP3 PUSH1 0x4 DUP2 DUP9 GAS STATICCALL SWAP2 DUP3 ISZERO PUSH2 0x36CA JUMPI JUMPDEST DUP8 SWAP3 PUSH2 0x36AB JUMPI JUMPDEST POP PUSH2 0x38A2 JUMP JUMPDEST DUP5 DUP3 MLOAD SWAP3 ADD SWAP1 CALLVALUE SWAP1 GAS CALL RETURNDATASIZE ISZERO PUSH2 0x36A3 JUMPI RETURNDATASIZE SWAP1 PUSH2 0x3657 DUP3 PUSH2 0x2064 JUMP JUMPDEST SWAP2 PUSH2 0x3665 PUSH1 0x40 MLOAD SWAP4 DUP5 PUSH2 0x274 JUMP JUMPDEST DUP3 MSTORE RETURNDATASIZE PUSH1 0x0 DUP5 DUP5 ADD RETURNDATACOPY JUMPDEST ISZERO PUSH2 0x3679 JUMPI ADD MLOAD SWAP1 JUMP JUMPDEST PUSH1 0x4 PUSH1 0x40 MLOAD PUSH32 0x29E660EB00000000000000000000000000000000000000000000000000000000 DUP2 MSTORE REVERT JUMPDEST PUSH1 0x60 SWAP1 PUSH2 0x366F JUMP JUMPDEST PUSH2 0x36C3 SWAP2 SWAP3 POP DUP10 RETURNDATASIZE DUP12 GT PUSH2 0x2AED JUMPI PUSH2 0x2AD7 DUP2 DUP4 PUSH2 0x274 JUMP JUMPDEST SWAP1 CODESIZE PUSH2 0x3636 JUMP JUMPDEST PUSH2 0x36D2 PUSH2 0x216F JUMP JUMPDEST PUSH2 0x362F JUMP JUMPDEST MLOAD SWAP1 PUSH2 0x4AE DUP3 PUSH2 0x485 JUMP JUMPDEST DUP2 PUSH1 0x1F DUP3 ADD SLT ISZERO PUSH2 0x23F JUMPI DUP1 MLOAD PUSH2 0x36F8 DUP2 PUSH2 0x2064 JUMP JUMPDEST SWAP3 PUSH2 0x3706 PUSH1 0x40 MLOAD SWAP5 DUP6 PUSH2 0x274 JUMP JUMPDEST DUP2 DUP5 MSTORE PUSH1 0x20 DUP3 DUP5 ADD ADD GT PUSH2 0x23F JUMPI PUSH2 0x339 SWAP2 PUSH1 0x20 DUP1 DUP6 ADD SWAP2 ADD PUSH2 0x2C2 JUMP JUMPDEST SWAP1 DUP2 DUP2 SUB SWAP3 PUSH2 0x140 DUP5 SLT PUSH2 0x23F JUMPI PUSH1 0xE0 PUSH32 0xFFFFFFFFFFFFFFFFFFFFFFFFFFFFFFFFFFFFFFFFFFFFFFFFFFFFFFFFFFFFFFE0 DUP5 MLOAD PUSH2 0x3760 DUP2 PUSH2 0x485 JUMP JUMPDEST SWAP6 ADD SLT PUSH2 0x23F JUMPI PUSH1 0x40 MLOAD PUSH2 0x3775 PUSH1 0xE0 DUP3 PUSH2 0x274 JUMP JUMPDEST PUSH1 0x20 DUP5 ADD MLOAD PUSH2 0x3783 DUP2 PUSH2 0x485 JUMP JUMPDEST DUP2 MSTORE PUSH1 0x40 DUP5 ADD MLOAD PUSH2 0x3793 DUP2 PUSH2 0x485 JUMP JUMPDEST PUSH1 0x20 DUP3 ADD MSTORE PUSH2 0x37A4 PUSH1 0x60 DUP6 ADD PUSH2 0x36D7 JUMP JUMPDEST PUSH1 0x40 DUP3 ADD MSTORE PUSH2 0x37B5 PUSH1 0x80 DUP6 ADD PUSH2 0x36D7 JUMP JUMPDEST PUSH1 0x60 DUP3 ADD MSTORE PUSH1 0xA0 DUP5 ADD MLOAD PUSH1 0x80 DUP3 ADD MSTORE PUSH1 0xC0 DUP5 ADD MLOAD PUSH1 0xA0 DUP3 ADD MSTORE PUSH1 0xE0 DUP5 ADD MLOAD PUSH1 0xC0 DUP3 ADD MSTORE SWAP3 PUSH2 0x100 DUP2 ADD MLOAD SWAP3 PUSH8 0xFFFFFFFFFFFFFFFF SWAP4 DUP5 DUP2 GT PUSH2 0x23F JUMPI DUP2 PUSH2 0x37FD SWAP2 DUP5 ADD PUSH2 0x36E2 JUMP JUMPDEST SWAP4 PUSH2 0x120 DUP4 ADD MLOAD SWAP1 DUP2 GT PUSH2 0x23F JUMPI PUSH2 0x339 SWAP3 ADD PUSH2 0x36E2 JUMP JUMPDEST SWAP3 PUSH1 0xC0 PUSH2 0x339 SWAP6 SWAP4 PUSH2 0x3893 SWAP4 PUSH20 0xFFFFFFFFFFFFFFFFFFFFFFFFFFFFFFFFFFFFFFFF DUP1 SWAP2 AND DUP8 MSTORE DUP1 DUP3 MLOAD AND PUSH1 0x20 DUP9 ADD MSTORE DUP1 PUSH1 0x20 DUP4 ADD MLOAD AND PUSH1 0x40 DUP9 ADD MSTORE DUP1 PUSH1 0x40 DUP4 ADD MLOAD AND PUSH1 0x60 DUP9 ADD MSTORE PUSH1 0x60 DUP3 ADD MLOAD AND PUSH1 0x80 DUP8 ADD MSTORE PUSH1 0x80 DUP2 ADD MLOAD PUSH1 0xA0 DUP8 ADD MSTORE PUSH1 0xA0 DUP2 ADD MLOAD DUP3 DUP8 ADD MSTORE ADD MLOAD PUSH1 0xE0 DUP6 ADD MSTORE PUSH2 0x140 DUP1 PUSH2 0x100 DUP7 ADD MSTORE DUP5 ADD SWAP1 PUSH2 0x2E5 JUMP JUMPDEST SWAP2 PUSH2 0x120 DUP2 DUP5 SUB SWAP2 ADD MSTORE PUSH2 0x2E5 JUMP JUMPDEST PUSH1 0x40 MLOAD PUSH32 0xDD62ED3E00000000000000000000000000000000000000000000000000000000 DUP2 MSTORE ADDRESS PUSH1 0x4 DUP3 ADD MSTORE PUSH20 0xFFFFFFFFFFFFFFFFFFFFFFFFFFFFFFFFFFFFFFFF DUP4 AND PUSH1 0x24 DUP3 ADD MSTORE SWAP2 SWAP3 SWAP1 SWAP2 PUSH1 0x20 DUP2 DUP1 PUSH1 0x44 DUP2 ADD SUB DUP2 PUSH20 0xFFFFFFFFFFFFFFFFFFFFFFFFFFFFFFFFFFFFFFFF DUP8 AND GAS STATICCALL SWAP1 DUP2 ISZERO PUSH2 0x39B1 JUMPI JUMPDEST PUSH1 0x0 SWAP2 PUSH2 0x3993 JUMPI JUMPDEST POP LT ISZERO PUSH2 0x34B6 JUMPI PUSH1 0x44 PUSH1 0x10 PUSH1 0x0 DUP1 SWAP4 PUSH1 0x20 SWAP6 PUSH1 0x14 MSTORE PUSH32 0xFFFFFFFFFFFFFFFFFFFFFFFFFFFFFFFFFFFFFFFFFFFFFFFFFFFFFFFFFFFFFFFF PUSH1 0x34 MSTORE PUSH16 0x95EA7B3000000000000000000000000 DUP3 MSTORE GAS CALL RETURNDATASIZE ISZERO PUSH1 0x1 PUSH1 0x0 MLOAD EQ OR AND ISZERO PUSH2 0x3985 JUMPI PUSH1 0x0 PUSH1 0x34 MSTORE JUMP JUMPDEST PUSH4 0x3E3F8F73 PUSH1 0x0 MSTORE PUSH1 0x4 PUSH1 0x1C REVERT JUMPDEST PUSH2 0x39AB SWAP2 POP PUSH1 0x20 RETURNDATASIZE DUP2 GT PUSH2 0xB4C JUMPI PUSH2 0xB3D DUP2 DUP4 PUSH2 0x274 JUMP JUMPDEST CODESIZE PUSH2 0x3921 JUMP JUMPDEST PUSH2 0x39B9 PUSH2 0x216F JUMP JUMPDEST PUSH2 0x3919 JUMP JUMPDEST SWAP1 PUSH1 0x20 DUP3 DUP3 SUB SLT PUSH2 0x23F JUMPI DUP2 CALLDATALOAD PUSH8 0xFFFFFFFFFFFFFFFF SWAP3 DUP4 DUP3 GT PUSH2 0x23F JUMPI ADD SWAP1 PUSH1 0xE0 DUP3 DUP3 SUB SLT PUSH2 0x23F JUMPI PUSH2 0x39F2 PUSH1 0xE0 PUSH2 0x1EFB JUMP JUMPDEST SWAP3 PUSH2 0x39FC DUP4 PUSH2 0x4A3 JUMP JUMPDEST DUP5 MSTORE PUSH2 0x3A0A PUSH1 0x20 DUP5 ADD PUSH2 0x4A3 JUMP JUMPDEST PUSH1 0x20 DUP6 ADD MSTORE PUSH2 0x3A1B PUSH1 0x40 DUP5 ADD PUSH2 0x4A3 JUMP JUMPDEST PUSH1 0x40 DUP6 ADD MSTORE PUSH2 0x3A2C PUSH1 0x60 DUP5 ADD PUSH2 0x4A3 JUMP JUMPDEST PUSH1 0x60 DUP6 ADD MSTORE PUSH1 0x80 DUP4 ADD CALLDATALOAD PUSH1 0x80 DUP6 ADD MSTORE PUSH2 0x3A47 PUSH1 0xA0 DUP5 ADD PUSH2 0x1326 JUMP JUMPDEST PUSH1 0xA0 DUP6 ADD MSTORE PUSH1 0xC0 DUP4 ADD CALLDATALOAD SWAP1 DUP2 GT PUSH2 0x23F JUMPI PUSH2 0x3A62 SWAP3 ADD PUSH2 0x2FAB JUMP JUMPDEST PUSH1 0xC0 DUP3 ADD MSTORE SWAP1 JUMP JUMPDEST SWAP2 SWAP3 PUSH2 0x339 SWAP5 SWAP4 PUSH1 0x3 SWAP3 DUP5 MSTORE PUSH20 0xFFFFFFFFFFFFFFFFFFFFFFFFFFFFFFFFFFFFFFFF DUP1 SWAP2 AND PUSH1 0x20 DUP6 ADD MSTORE DUP1 DUP3 SLOAD AND PUSH1 0x40 DUP6 ADD MSTORE PUSH1 0x1 DUP3 ADD SLOAD SWAP1 DUP2 AND PUSH1 0x60 DUP6 ADD MSTORE PUSH6 0xFFFFFFFFFFFF DUP2 PUSH1 0xA0 SHR AND PUSH1 0x80 DUP6 ADD MSTORE PUSH1 0xD0 SHR PUSH1 0xA0 DUP5 ADD MSTORE PUSH2 0x3B03 PUSH2 0x3AE6 PUSH1 0x2 DUP4 ADD SLOAD PUSH20 0xFFFFFFFFFFFFFFFFFFFFFFFFFFFFFFFFFFFFFFFF AND SWAP1 JUMP JUMPDEST PUSH20 0xFFFFFFFFFFFFFFFFFFFFFFFFFFFFFFFFFFFFFFFF AND PUSH1 0xC0 DUP6 ADD MSTORE JUMP JUMPDEST ADD SLOAD PUSH1 0xE0 DUP3 ADD MSTORE PUSH2 0x120 SWAP1 DUP2 PUSH2 0x100 DUP3 ADD MSTORE ADD SWAP1 PUSH2 0x2E5 JUMP JUMPDEST SWAP6 SWAP4 SWAP2 SWAP6 SWAP5 SWAP3 SWAP1 SWAP5 PUSH1 0x40 MLOAD SWAP4 PUSH32 0x392F37E900000000000000000000000000000000000000000000000000000000 DUP6 MSTORE PUSH20 0xFFFFFFFFFFFFFFFFFFFFFFFFFFFFFFFFFFFFFFFF SWAP3 PUSH1 0xE0 DUP7 PUSH1 0x4 DUP2 DUP8 DUP8 AND GAS STATICCALL SWAP7 DUP8 ISZERO PUSH2 0x3CB1 JUMPI JUMPDEST PUSH1 0x0 SWAP2 DUP3 SWAP4 DUP4 SWAP9 DUP5 SWAP11 PUSH2 0x3C78 JUMPI JUMPDEST POP SWAP1 DUP10 DUP10 PUSH2 0x3B92 SWAP7 SWAP6 SWAP5 SWAP4 PUSH2 0x3E4A JUMP JUMPDEST SWAP3 DUP4 LT PUSH2 0x3C4F JUMPI DUP7 DUP7 PUSH1 0x0 PUSH1 0x20 SWAP5 PUSH2 0x3BCA DUP8 PUSH2 0x4AE SWAP13 DUP8 PUSH2 0x3BC5 DUP4 PUSH15 0x22D473030F116DDEE9F6B43AC78BA3 PUSH1 0x1 SWAP12 PUSH2 0x38A2 JUMP JUMPDEST PUSH2 0x3CF1 JUMP JUMPDEST PUSH2 0x3BD3 DUP3 PUSH2 0x20E4 JUMP JUMPDEST SWAP7 PUSH2 0x3C0D PUSH1 0x40 MLOAD SWAP9 DUP10 SWAP8 DUP9 SWAP7 DUP8 SWAP5 PUSH32 0x8808E71C00000000000000000000000000000000000000000000000000000000 DUP7 MSTORE PUSH1 0x4 DUP7 ADD PUSH2 0x3A6A JUMP JUMPDEST SUB SWAP4 AND GAS CALL DUP1 ISZERO PUSH2 0x3C42 JUMPI JUMPDEST PUSH2 0x3C24 JUMPI JUMPDEST POP PUSH2 0x46D0 JUMP JUMPDEST PUSH2 0x3C3B SWAP1 PUSH1 0x20 RETURNDATASIZE DUP2 GT PUSH2 0xB4C JUMPI PUSH2 0xB3D DUP2 DUP4 PUSH2 0x274 JUMP JUMPDEST POP CODESIZE PUSH2 0x3C1E JUMP JUMPDEST PUSH2 0x3C4A PUSH2 0x216F JUMP JUMPDEST PUSH2 0x3C19 JUMP JUMPDEST PUSH1 0x4 PUSH1 0x40 MLOAD PUSH31 0xBF876800000000000000000000000000000000000000000000000000000000 DUP2 MSTORE REVERT JUMPDEST SWAP2 SWAP4 POP SWAP9 POP PUSH2 0x3C9B SWAP2 SWAP8 POP PUSH2 0x3B92 SWAP4 POP PUSH1 0xE0 RETURNDATASIZE DUP2 GT PUSH2 0x1DC5 JUMPI PUSH2 0x1DAF DUP2 DUP4 PUSH2 0x274 JUMP JUMPDEST SWAP13 SWAP1 SWAP12 SWAP3 SWAP8 SWAP4 SWAP7 SWAP3 SWAP6 POP SWAP2 SWAP4 POP SWAP1 SWAP2 SWAP1 POP PUSH2 0x3B82 JUMP JUMPDEST PUSH2 0x3CB9 PUSH2 0x216F JUMP JUMPDEST PUSH2 0x3B74 JUMP JUMPDEST SWAP1 DUP2 PUSH1 0x60 SWAP2 SUB SLT PUSH2 0x23F JUMPI DUP1 MLOAD PUSH2 0x3CD4 DUP2 PUSH2 0x485 JUMP JUMPDEST SWAP2 PUSH1 0x40 PUSH1 0x20 DUP4 ADD MLOAD PUSH2 0x3CE5 DUP2 PUSH2 0x2450 JUMP JUMPDEST SWAP3 ADD MLOAD PUSH2 0x339 DUP2 PUSH2 0x2450 JUMP JUMPDEST PUSH1 0x40 MLOAD PUSH32 0x927DA10500000000000000000000000000000000000000000000000000000000 DUP2 MSTORE ADDRESS PUSH1 0x4 DUP3 ADD MSTORE PUSH20 0xFFFFFFFFFFFFFFFFFFFFFFFFFFFFFFFFFFFFFFFF DUP3 DUP2 AND PUSH1 0x24 DUP4 ADD MSTORE DUP4 AND PUSH1 0x44 DUP3 ADD MSTORE SWAP2 SWAP3 SWAP1 SWAP2 SWAP1 PUSH15 0x22D473030F116DDEE9F6B43AC78BA3 SWAP1 PUSH1 0x60 DUP4 PUSH1 0x64 DUP2 DUP6 GAS STATICCALL SWAP3 DUP4 ISZERO PUSH2 0x3E3D JUMPI JUMPDEST PUSH1 0x0 SWAP4 PUSH2 0x3E0B JUMPI JUMPDEST POP PUSH20 0xFFFFFFFFFFFFFFFFFFFFFFFFFFFFFFFFFFFFFFFF DUP1 SWAP4 AND LT ISZERO PUSH2 0x3E05 JUMPI DUP1 EXTCODESIZE ISZERO PUSH2 0x23F JUMPI PUSH1 0x40 MLOAD PUSH32 0x87517C4500000000000000000000000000000000000000000000000000000000 DUP2 MSTORE PUSH20 0xFFFFFFFFFFFFFFFFFFFFFFFFFFFFFFFFFFFFFFFF SWAP4 DUP5 AND PUSH1 0x4 DUP3 ADD MSTORE SWAP4 DUP4 AND PUSH1 0x24 DUP6 ADD MSTORE SWAP2 AND PUSH1 0x44 DUP4 ADD MSTORE PUSH6 0xFFFFFFFFFFFF PUSH1 0x64 DUP4 ADD MSTORE PUSH1 0x0 SWAP1 DUP3 SWAP1 DUP2 DUP4 DUP2 PUSH1 0x84 DUP2 ADD PUSH2 0x22B1 JUMP JUMPDEST POP POP POP POP JUMP JUMPDEST PUSH2 0x3E2D SWAP2 SWAP4 POP PUSH1 0x60 RETURNDATASIZE DUP2 GT PUSH2 0x3E36 JUMPI JUMPDEST PUSH2 0x3E25 DUP2 DUP4 PUSH2 0x274 JUMP JUMPDEST DUP2 ADD SWAP1 PUSH2 0x3CBE JUMP JUMPDEST POP POP SWAP2 CODESIZE PUSH2 0x3D70 JUMP JUMPDEST POP RETURNDATASIZE PUSH2 0x3E1B JUMP JUMPDEST PUSH2 0x3E45 PUSH2 0x216F JUMP JUMPDEST PUSH2 0x3D68 JUMP JUMPDEST SWAP4 SWAP1 PUSH2 0x339 SWAP7 SWAP2 SWAP6 SWAP3 SWAP4 SWAP6 PUSH32 0x0 SWAP1 PUSH20 0xFFFFFFFFFFFFFFFFFFFFFFFFFFFFFFFFFFFFFFFF SWAP8 DUP9 DUP4 AND SWAP3 DUP10 DUP6 AND SWAP9 DUP5 DUP11 EQ DUP1 SWAP6 DUP2 ISZERO PUSH2 0x3FBA JUMPI JUMPDEST POP ISZERO PUSH2 0x3F0A JUMPI POP POP POP POP PUSH1 0x0 EQ PUSH2 0x3EFA JUMPI PUSH2 0x3EED SWAP3 PUSH2 0x3EDC SWAP3 PUSH1 0x5 SWAP3 SWAP6 JUMPDEST SWAP6 SWAP7 JUMPDEST PUSH2 0x3ECC ADDRESS DUP10 PUSH2 0x4A63 JUMP JUMPDEST SWAP9 DUP9 AND SUB PUSH2 0x3EF3 JUMPI POP JUMPDEST DUP7 PUSH2 0x4762 JUMP JUMPDEST PUSH2 0x3EE7 DUP2 DUP5 DUP7 PUSH2 0x4040 JUMP JUMPDEST SWAP5 PUSH2 0x30B4 JUMP JUMPDEST SWAP2 PUSH2 0x414E JUMP JUMPDEST SWAP1 POP PUSH2 0x3ED6 JUMP JUMPDEST PUSH2 0x3EED SWAP3 PUSH2 0x3EDC SWAP3 PUSH1 0x5 SWAP3 PUSH2 0x3EBF JUMP JUMPDEST SWAP2 SWAP4 POP SWAP2 SWAP8 SWAP4 DUP10 PUSH32 0x0 AND DUP1 DUP7 EQ DUP1 SWAP2 DUP2 ISZERO PUSH2 0x3FAE JUMPI JUMPDEST POP ISZERO PUSH2 0x3F8E JUMPI ISZERO PUSH2 0x3F70 JUMPI PUSH2 0x3EED SWAP7 SWAP4 PUSH2 0x3EDC SWAP7 SWAP4 PUSH1 0x5 SWAP7 SWAP4 PUSH2 0x3414 PUSH1 0x0 PUSH2 0x3F6A SWAP6 SWAP13 JUMPDEST SWAP13 SWAP14 PUSH2 0x2F89 JUMP JUMPDEST POP PUSH2 0x3EC2 JUMP JUMPDEST SWAP7 PUSH2 0x3EED SWAP7 SWAP4 PUSH2 0x3EDC SWAP7 SWAP4 PUSH1 0x5 SWAP7 SWAP4 PUSH2 0x3414 PUSH1 0x0 PUSH2 0x3F6A SWAP6 SWAP13 PUSH2 0x3F63 JUMP JUMPDEST POP SWAP7 PUSH2 0x3EED SWAP7 SWAP4 PUSH2 0x3EDC SWAP7 SWAP4 PUSH1 0x5 SWAP7 SWAP4 PUSH2 0x3414 PUSH1 0x0 PUSH2 0x3F6A SWAP6 SWAP13 SWAP14 PUSH2 0x2F89 JUMP JUMPDEST SWAP1 POP DUP12 DUP11 AND EQ CODESIZE PUSH2 0x3F3F JUMP JUMPDEST SWAP1 POP DUP12 DUP11 AND EQ CODESIZE PUSH2 0x3EA1 JUMP JUMPDEST PUSH1 0x20 SWAP1 DUP2 DUP2 DUP5 SUB SLT PUSH2 0x23F JUMPI DUP1 MLOAD SWAP1 PUSH8 0xFFFFFFFFFFFFFFFF DUP3 GT PUSH2 0x23F JUMPI ADD SWAP2 DUP1 PUSH1 0x1F DUP5 ADD SLT ISZERO PUSH2 0x23F JUMPI DUP3 MLOAD PUSH2 0x3FFC DUP2 PUSH2 0x2B5B JUMP JUMPDEST SWAP4 PUSH2 0x400A PUSH1 0x40 MLOAD SWAP6 DUP7 PUSH2 0x274 JUMP JUMPDEST DUP2 DUP6 MSTORE DUP4 DUP1 DUP7 ADD SWAP3 PUSH1 0x5 SHL DUP3 ADD ADD SWAP3 DUP4 GT PUSH2 0x23F JUMPI DUP4 ADD SWAP1 JUMPDEST DUP3 DUP3 LT PUSH2 0x4031 JUMPI POP POP POP POP SWAP1 JUMP JUMPDEST DUP2 MLOAD DUP2 MSTORE SWAP1 DUP4 ADD SWAP1 DUP4 ADD PUSH2 0x4023 JUMP JUMPDEST SWAP1 PUSH2 0x40FF SWAP3 SWAP2 PUSH20 0x9C12939390052919AF3155F41BF4160FD3666A6F SWAP3 PUSH2 0x4067 DUP2 DUP6 DUP5 PUSH2 0x38A2 JUMP JUMPDEST PUSH1 0xE4 PUSH1 0x40 MLOAD DUP1 SWAP5 DUP2 SWAP4 PUSH32 0x13DCFC5900000000000000000000000000000000000000000000000000000000 DUP4 MSTORE PUSH1 0x4 DUP4 ADD MSTORE PUSH1 0x0 SWAP7 DUP8 SWAP6 DUP7 SWAP3 DUP4 PUSH1 0x24 DUP7 ADD MSTORE PUSH20 0xFFFFFFFFFFFFFFFFFFFFFFFFFFFFFFFFFFFFFFFF DUP1 SWAP3 AND PUSH1 0x44 DUP7 ADD MSTORE AND PUSH1 0x64 DUP5 ADD MSTORE DUP2 PUSH1 0x84 DUP5 ADD MSTORE ADDRESS PUSH1 0xA4 DUP5 ADD MSTORE TIMESTAMP PUSH1 0xC4 DUP5 ADD MSTORE GAS CALL SWAP2 DUP3 ISZERO PUSH2 0x4126 JUMPI JUMPDEST DUP1 SWAP3 PUSH2 0x4103 JUMPI JUMPDEST POP POP PUSH2 0x40F9 PUSH1 0x1 DUP3 MLOAD PUSH2 0x30B4 JUMP JUMPDEST SWAP1 PUSH2 0x2F89 JUMP JUMPDEST MLOAD SWAP1 JUMP JUMPDEST PUSH2 0x411F SWAP3 POP RETURNDATASIZE DUP1 SWAP2 DUP4 RETURNDATACOPY PUSH2 0x4117 DUP2 DUP4 PUSH2 0x274 JUMP JUMPDEST DUP2 ADD SWAP1 PUSH2 0x3FC6 JUMP JUMPDEST CODESIZE DUP1 PUSH2 0x40EB JUMP JUMPDEST PUSH2 0x412E PUSH2 0x216F JUMP JUMPDEST PUSH2 0x40E4 JUMP JUMPDEST SWAP1 DUP2 PUSH1 0x60 SWAP2 SUB SLT PUSH2 0x23F JUMPI DUP1 MLOAD SWAP2 PUSH1 0x40 PUSH1 0x20 DUP4 ADD MLOAD SWAP3 ADD MLOAD SWAP1 JUMP JUMPDEST SWAP1 PUSH2 0x124 SWAP1 PUSH1 0x0 PUSH1 0x60 SWAP5 SWAP6 PUSH20 0x9C12939390052919AF3155F41BF4160FD3666A6F SWAP1 PUSH2 0x417A DUP9 DUP4 DUP9 PUSH2 0x38A2 JUMP JUMPDEST PUSH2 0x4185 DUP2 DUP4 DUP7 PUSH2 0x38A2 JUMP JUMPDEST PUSH1 0x40 MLOAD SWAP8 DUP9 SWAP7 DUP8 SWAP6 PUSH32 0x5A47DDC300000000000000000000000000000000000000000000000000000000 DUP8 MSTORE PUSH20 0xFFFFFFFFFFFFFFFFFFFFFFFFFFFFFFFFFFFFFFFF DUP1 SWAP3 AND PUSH1 0x4 DUP9 ADD MSTORE AND PUSH1 0x24 DUP7 ADD MSTORE DUP4 PUSH1 0x44 DUP7 ADD MSTORE PUSH1 0x64 DUP6 ADD MSTORE PUSH1 0x84 DUP5 ADD MSTORE DUP2 PUSH1 0xA4 DUP5 ADD MSTORE DUP2 PUSH1 0xC4 DUP5 ADD MSTORE ADDRESS PUSH1 0xE4 DUP5 ADD MSTORE TIMESTAMP PUSH2 0x104 DUP5 ADD MSTORE GAS CALL SWAP1 DUP2 ISZERO PUSH2 0x423F JUMPI JUMPDEST PUSH1 0x0 SWAP2 PUSH2 0x4211 JUMPI POP SWAP1 JUMP JUMPDEST PUSH2 0x4232 SWAP2 POP PUSH1 0x60 RETURNDATASIZE DUP2 GT PUSH2 0x4238 JUMPI JUMPDEST PUSH2 0x422A DUP2 DUP4 PUSH2 0x274 JUMP JUMPDEST DUP2 ADD SWAP1 PUSH2 0x4133 JUMP JUMPDEST SWAP2 POP POP SWAP1 JUMP JUMPDEST POP RETURNDATASIZE PUSH2 0x4220 JUMP JUMPDEST PUSH2 0x4247 PUSH2 0x216F JUMP JUMPDEST PUSH2 0x4206 JUMP JUMPDEST SWAP1 PUSH1 0x20 DUP3 DUP3 SUB SLT PUSH2 0x23F JUMPI DUP2 CALLDATALOAD PUSH8 0xFFFFFFFFFFFFFFFF SWAP3 DUP4 DUP3 GT PUSH2 0x23F JUMPI ADD SWAP1 PUSH2 0x100 DUP1 DUP4 DUP4 SUB SLT PUSH2 0x23F JUMPI PUSH2 0x4281 SWAP1 PUSH2 0x1EFB JUMP JUMPDEST SWAP3 PUSH2 0x428B DUP4 PUSH2 0x4A3 JUMP JUMPDEST DUP5 MSTORE PUSH2 0x4299 PUSH1 0x20 DUP5 ADD PUSH2 0x4A3 JUMP JUMPDEST PUSH1 0x20 DUP6 ADD MSTORE PUSH2 0x42AA PUSH1 0x40 DUP5 ADD PUSH2 0x4A3 JUMP JUMPDEST PUSH1 0x40 DUP6 ADD MSTORE PUSH2 0x42BB PUSH1 0x60 DUP5 ADD PUSH2 0x4A3 JUMP JUMPDEST PUSH1 0x60 DUP6 ADD MSTORE PUSH1 0x80 DUP4 ADD CALLDATALOAD PUSH1 0x80 DUP6 ADD MSTORE PUSH1 0xA0 DUP4 ADD CALLDATALOAD PUSH1 0xA0 DUP6 ADD MSTORE PUSH2 0x3061 PUSH1 0xC0 DUP5 ADD PUSH2 0x1326 JUMP JUMPDEST SWAP1 DUP2 PUSH1 0x20 SWAP2 SUB SLT PUSH2 0x23F JUMPI PUSH2 0x339 SWAP1 PUSH2 0x21B7 JUMP JUMPDEST SWAP4 SWAP7 SWAP5 SWAP1 SWAP3 SWAP6 SWAP2 SWAP6 PUSH2 0x43CE PUSH20 0xFFFFFFFFFFFFFFFFFFFFFFFFFFFFFFFFFFFFFFFF DUP1 SWAP7 AND SWAP7 PUSH1 0x40 SWAP5 PUSH1 0x4 DUP7 MLOAD SWAP10 PUSH32 0x89AFCB4400000000000000000000000000000000000000000000000000000000 DUP12 MSTORE DUP11 DUP9 DUP2 DUP1 PUSH2 0x4370 ADDRESS DUP8 DUP4 ADD SWAP2 SWAP1 SWAP2 PUSH20 0xFFFFFFFFFFFFFFFFFFFFFFFFFFFFFFFFFFFFFFFF PUSH1 0x20 DUP3 ADD SWAP4 AND SWAP1 MSTORE JUMP JUMPDEST SUB PUSH1 0x0 SWAP15 DUP16 DUP7 GAS CALL SWAP2 DUP3 ISZERO PUSH2 0x451D JUMPI JUMPDEST DUP13 SWAP2 DUP14 SWAP4 PUSH2 0x44F9 JUMPI JUMPDEST POP PUSH1 0xE0 SWAP1 DUP11 MLOAD SWAP5 DUP6 DUP1 SWAP3 PUSH32 0x392F37E900000000000000000000000000000000000000000000000000000000 DUP3 MSTORE GAS STATICCALL SWAP4 DUP5 ISZERO PUSH2 0x44EC JUMPI JUMPDEST DUP13 SWAP4 DUP14 SWAP6 PUSH2 0x32CD JUMPI POP PUSH2 0x3396 JUMP JUMPDEST POP PUSH32 0x0 SWAP1 PUSH2 0x43FB ADDRESS DUP4 PUSH2 0x4A63 JUMP JUMPDEST SWAP3 DUP4 LT PUSH2 0x44C3 JUMPI SWAP3 PUSH2 0x441A DUP9 SWAP7 SWAP4 DUP7 PUSH1 0x20 SWAP11 SWAP8 SWAP5 PUSH2 0x4479 SWAP13 SWAP11 SWAP8 PUSH2 0x452A JUMP JUMPDEST MLOAD SWAP8 DUP9 SWAP7 DUP8 SWAP6 DUP7 SWAP4 PUSH32 0x23B872DD00000000000000000000000000000000000000000000000000000000 DUP6 MSTORE PUSH1 0x4 DUP6 ADD PUSH1 0x40 SWAP2 SWAP5 SWAP4 SWAP3 SWAP5 PUSH1 0x60 DUP3 ADD SWAP6 PUSH20 0xFFFFFFFFFFFFFFFFFFFFFFFFFFFFFFFFFFFFFFFF DUP1 SWAP3 AND DUP4 MSTORE AND PUSH1 0x20 DUP3 ADD MSTORE ADD MSTORE JUMP JUMPDEST SUB SWAP4 AND GAS CALL DUP1 ISZERO PUSH2 0x44B6 JUMPI JUMPDEST PUSH2 0x448C JUMPI POP JUMP JUMPDEST PUSH2 0x44AC SWAP1 PUSH1 0x20 RETURNDATASIZE DUP2 GT PUSH2 0x44AF JUMPI JUMPDEST PUSH2 0x44A4 DUP2 DUP4 PUSH2 0x274 JUMP JUMPDEST DUP2 ADD SWAP1 PUSH2 0x42E0 JUMP JUMPDEST POP JUMP JUMPDEST POP RETURNDATASIZE PUSH2 0x449A JUMP JUMPDEST PUSH2 0x44BE PUSH2 0x216F JUMP JUMPDEST PUSH2 0x4485 JUMP JUMPDEST PUSH1 0x4 DUP5 MLOAD PUSH32 0xB2A4CAEB00000000000000000000000000000000000000000000000000000000 DUP2 MSTORE REVERT JUMPDEST PUSH2 0x44F4 PUSH2 0x216F JUMP JUMPDEST PUSH2 0x43C0 JUMP JUMPDEST PUSH2 0x4515 SWAP2 SWAP4 POP PUSH1 0xE0 SWAP3 POP DUP11 RETURNDATASIZE DUP13 GT PUSH2 0x241A JUMPI PUSH2 0x240A DUP2 DUP4 PUSH2 0x274 JUMP JUMPDEST SWAP3 SWAP1 SWAP2 PUSH2 0x4389 JUMP JUMPDEST PUSH2 0x4525 PUSH2 0x216F JUMP JUMPDEST PUSH2 0x4380 JUMP JUMPDEST SWAP4 SWAP3 SWAP4 SWAP2 SWAP1 SWAP2 PUSH2 0x453B DUP3 DUP7 DUP4 PUSH2 0x2318 JUMP JUMPDEST PUSH2 0x4546 DUP2 DUP4 DUP7 PUSH2 0x4A1A JUMP JUMPDEST PUSH1 0x0 SWAP6 PUSH20 0xFFFFFFFFFFFFFFFFFFFFFFFFFFFFFFFFFFFFFFFF SWAP3 DUP4 AND DUP8 PUSH2 0x456B DUP2 PUSH2 0x20E4 JUMP JUMPDEST SWAP2 DUP1 EXTCODESIZE ISZERO PUSH2 0x46CC JUMPI DUP2 SWAP1 DUP2 DUP1 DUP10 PUSH2 0x45B1 PUSH1 0x40 MLOAD SWAP8 DUP9 SWAP7 DUP8 SWAP6 DUP7 SWAP5 PUSH32 0x1E7DCC0D00000000000000000000000000000000000000000000000000000000 DUP7 MSTORE PUSH1 0x4 DUP7 ADD PUSH2 0x2133 JUMP JUMPDEST SUB SWAP3 GAS CALL DUP1 ISZERO PUSH2 0x46BF JUMPI JUMPDEST PUSH2 0x46AB JUMPI JUMPDEST POP DUP2 DUP2 GT PUSH2 0x45D3 JUMPI JUMPDEST POP POP POP POP POP SWAP1 POP JUMP JUMPDEST SWAP1 PUSH2 0x45DD SWAP2 PUSH2 0x30B4 JUMP JUMPDEST SWAP3 PUSH32 0x0 DUP3 AND SWAP2 DUP2 AND DUP3 SUB PUSH2 0x4699 JUMPI POP DUP1 EXTCODESIZE ISZERO PUSH2 0xC93 JUMPI SWAP4 PUSH2 0x466D SWAP4 SWAP5 DUP2 PUSH1 0x40 MLOAD DUP1 SWAP3 PUSH32 0x2E1A7D4D00000000000000000000000000000000000000000000000000000000 DUP3 MSTORE DUP2 DUP4 DUP2 PUSH2 0x4656 DUP11 PUSH1 0x4 DUP4 ADD SWAP2 SWAP1 PUSH1 0x20 DUP4 ADD SWAP3 MSTORE JUMP JUMPDEST SUB SWAP3 GAS CALL DUP1 ISZERO PUSH2 0x468C JUMPI JUMPDEST PUSH2 0x4678 JUMPI JUMPDEST POP POP PUSH2 0x49A3 JUMP JUMPDEST DUP1 CODESIZE DUP1 DUP1 DUP1 DUP1 PUSH2 0x45CA JUMP JUMPDEST PUSH2 0x6AD PUSH2 0x4685 SWAP3 DUP3 PUSH2 0x274 JUMP JUMPDEST CODESIZE DUP1 PUSH2 0x4666 JUMP JUMPDEST PUSH2 0x4694 PUSH2 0x216F JUMP JUMPDEST PUSH2 0x4661 JUMP JUMPDEST SWAP1 POP PUSH2 0x46A6 SWAP4 SWAP5 POP PUSH2 0x4A1A JUMP JUMPDEST PUSH2 0x466D JUMP JUMPDEST DUP1 PUSH2 0x6AD DUP10 PUSH2 0x46B9 SWAP4 PUSH2 0x274 JUMP JUMPDEST CODESIZE PUSH2 0x45C1 JUMP JUMPDEST PUSH2 0x46C7 PUSH2 0x216F JUMP JUMPDEST PUSH2 0x45BC JUMP JUMPDEST POP DUP1 REVERT JUMPDEST SWAP1 SWAP2 PUSH2 0x46DC ADDRESS DUP4 PUSH2 0x4A63 JUMP JUMPDEST SWAP2 PUSH2 0x46E7 ADDRESS DUP6 PUSH2 0x4A63 JUMP JUMPDEST SWAP3 DUP3 DUP2 PUSH2 0x4705 JUMPI JUMPDEST POP POP POP DUP2 PUSH2 0x46FC JUMPI POP POP POP JUMP JUMPDEST PUSH2 0x4AE SWAP3 PUSH2 0x4A1A JUMP JUMPDEST PUSH2 0x470E SWAP3 PUSH2 0x4A1A JUMP JUMPDEST CODESIZE DUP1 DUP3 PUSH2 0x46EF JUMP JUMPDEST DUP2 DUP2 MUL SWAP3 SWAP2 DUP2 ISZERO SWAP2 DUP5 DIV EQ OR ISZERO PUSH2 0x30C1 JUMPI JUMP JUMPDEST DUP2 ISZERO PUSH2 0x4733 JUMPI DIV SWAP1 JUMP JUMPDEST PUSH32 0x4E487B7100000000000000000000000000000000000000000000000000000000 PUSH1 0x0 MSTORE PUSH1 0x12 PUSH1 0x4 MSTORE PUSH1 0x24 PUSH1 0x0 REVERT JUMPDEST PUSH2 0x4872 SWAP1 PUSH2 0x4868 PUSH2 0x47C5 PUSH2 0x339 SWAP6 PUSH2 0x47AD PUSH2 0x2710 SWAP2 DUP3 SUB SWAP7 DUP3 DUP9 SWAP4 DUP5 GT PUSH2 0x4891 JUMPI JUMPDEST PUSH2 0x4797 DUP3 DUP6 DUP4 ADD DUP1 DUP5 GT PUSH2 0x4884 JUMPI PUSH2 0x4716 JUMP JUMPDEST SWAP7 DUP2 DUP2 MUL SWAP2 DUP2 DUP4 DIV EQ SWAP1 ISZERO OR ISZERO PUSH2 0x4884 JUMPI PUSH2 0x4716 JUMP JUMPDEST DUP1 PUSH1 0x2 SHL SWAP1 DUP1 DUP3 DIV PUSH1 0x4 EQ SWAP1 ISZERO OR ISZERO PUSH2 0x4884 JUMPI PUSH2 0x4716 JUMP JUMPDEST SWAP4 PUSH2 0x47D0 DUP4 DUP1 PUSH2 0x4716 JUMP JUMPDEST SWAP5 DUP6 ADD DUP1 SWAP6 GT PUSH2 0x4877 JUMPI JUMPDEST DUP5 PUSH17 0xFFFFFFFFFFFFFFFFFFFFFFFFFFFFFFFFFF LT PUSH1 0x7 SHL DUP6 DUP2 SHR PUSH9 0xFFFFFFFFFFFFFFFFFF LT PUSH1 0x6 SHL OR DUP6 DUP2 SHR PUSH5 0xFFFFFFFFFF LT PUSH1 0x5 SHL OR DUP6 DUP2 SHR PUSH3 0xFFFFFF LT PUSH1 0x4 SHL OR PUSH1 0x1 SWAP1 PUSH1 0xB5 PUSH3 0x10000 DUP9 DUP4 SHR ADD SWAP2 DUP4 SHR SHL MUL PUSH1 0x12 SHR DUP1 DUP8 DIV ADD DUP2 SHR DUP1 DUP8 DIV ADD DUP2 SHR DUP1 DUP8 DIV ADD DUP2 SHR DUP1 DUP8 DIV ADD DUP2 SHR DUP1 DUP8 DIV ADD DUP2 SHR DUP1 DUP8 DIV ADD DUP2 SHR DUP1 DUP8 DIV ADD SWAP1 SHR DUP1 SWAP3 DUP2 SWAP3 PUSH1 0x2 PUSH2 0x4716 JUMP JUMPDEST SWAP6 DIV LT SWAP1 SUB PUSH2 0x30B4 JUMP JUMPDEST PUSH2 0x4729 JUMP JUMPDEST PUSH2 0x487F PUSH2 0x3084 JUMP JUMPDEST PUSH2 0x47DB JUMP JUMPDEST PUSH2 0x488C PUSH2 0x3084 JUMP JUMPDEST PUSH2 0x4716 JUMP JUMPDEST PUSH2 0x4899 PUSH2 0x3084 JUMP JUMPDEST PUSH2 0x4784 JUMP JUMPDEST SWAP1 DUP1 PUSH32 0xFFFFFFFFFFFFFFFFFFFFFFFFFFFFFFFFFFFFFFFFFFFFFFFFFFFFFFFFFFFFFFFF DIV DUP3 GT DUP2 MUL PUSH2 0x48D9 JUMPI PUSH8 0xDE0B6B3A7640000 SWAP2 MUL DIV SWAP1 JUMP JUMPDEST PUSH4 0xBAC65E5B PUSH1 0x0 MSTORE PUSH1 0x4 PUSH1 0x1C REVERT JUMPDEST SWAP2 PUSH1 0x0 SWAP3 DUP3 DUP2 MUL SWAP3 PUSH32 0xFFFFFFFFFFFFFFFFFFFFFFFFFFFFFFFFFFFFFFFFFFFFFFFFFFFFFFFFFFFFFFFF DUP2 DUP4 MULMOD SWAP2 DUP5 DUP4 LT DUP6 ADD DUP1 DUP5 SUB SWAP4 EQ PUSH2 0x4987 JUMPI DUP3 DUP5 GT ISZERO PUSH2 0x497A JUMPI SWAP1 DUP4 SWAP2 MULMOD SWAP1 PUSH1 0x1 DUP4 DUP7 SUB DUP5 AND DUP1 DUP1 DUP1 SWAP7 DIV PUSH1 0x2 DUP1 DUP3 PUSH1 0x3 MUL XOR DUP1 DUP4 MUL DUP3 SUB MUL DUP1 DUP4 MUL DUP3 SUB MUL DUP1 DUP4 MUL DUP3 SUB MUL DUP1 DUP4 MUL DUP3 SUB MUL DUP1 DUP4 MUL DUP3 SUB MUL DUP1 SWAP3 MUL SWAP1 SUB MUL SWAP8 SUB DIV ADD SWAP1 DUP5 DUP4 GT SWAP1 SUB MUL SWAP3 SUB DIV OR MUL SWAP1 JUMP JUMPDEST PUSH4 0xAE47F702 DUP7 MSTORE PUSH1 0x4 PUSH1 0x1C REVERT JUMPDEST POP POP POP SWAP2 DUP3 ISZERO PUSH2 0x4996 JUMPI POP DIV SWAP1 JUMP JUMPDEST PUSH4 0xAE47F702 SWAP1 MSTORE PUSH1 0x4 PUSH1 0x1C REVERT JUMPDEST PUSH1 0x0 DUP1 DUP1 SWAP4 DUP2 SWAP4 GAS CALL ISZERO PUSH2 0x49B3 JUMPI JUMP JUMPDEST PUSH4 0xB12D13EB PUSH1 0x0 MSTORE PUSH1 0x4 PUSH1 0x1C REVERT JUMPDEST PUSH1 0x1C PUSH1 0x0 PUSH1 0x64 SWAP3 DUP2 SWAP5 PUSH1 0x20 SWAP7 PUSH1 0x40 MLOAD SWAP9 PUSH1 0x60 MSTORE PUSH1 0x40 MSTORE PUSH1 0x60 SHL PUSH1 0x2C MSTORE PUSH16 0x23B872DD000000000000000000000000 PUSH1 0xC MSTORE GAS CALL RETURNDATASIZE ISZERO PUSH1 0x1 PUSH1 0x0 MLOAD EQ OR AND ISZERO PUSH2 0x4A0C JUMPI PUSH1 0x0 PUSH1 0x60 MSTORE PUSH1 0x40 MSTORE JUMP JUMPDEST PUSH4 0x7939F424 PUSH1 0x0 MSTORE PUSH1 0x4 PUSH1 0x1C REVERT JUMPDEST PUSH1 0x10 SWAP3 PUSH1 0x20 SWAP3 PUSH1 0x14 MSTORE PUSH1 0x34 MSTORE PUSH1 0x44 PUSH1 0x0 SWAP4 DUP5 DUP1 SWAP4 PUSH16 0xA9059CBB000000000000000000000000 DUP3 MSTORE GAS CALL RETURNDATASIZE ISZERO PUSH1 0x1 DUP4 MLOAD EQ OR AND ISZERO PUSH2 0x4A56 JUMPI PUSH1 0x34 MSTORE JUMP JUMPDEST PUSH4 0x90B8EC18 SWAP1 MSTORE PUSH1 0x4 PUSH1 0x1C REVERT JUMPDEST PUSH1 0x24 PUSH1 0x10 PUSH1 0x20 SWAP4 SWAP3 DUP5 SWAP4 PUSH1 0x14 MSTORE PUSH16 0x70A08231000000000000000000000000 PUSH1 0x0 MSTORE GAS STATICCALL PUSH1 0x1F RETURNDATASIZE GT AND PUSH1 0x20 MLOAD MUL SWAP1 JUMP INVALID LOG1 PUSH5 0x736F6C6343 STOP ADDMOD GT STOP EXP "},"methodIdentifiers":{"DEX_ROUTER()":"7af11ac0","ONE_INCH_ROUTER_V5()":"bdcb9932","PARASWAP_AUGUSTUS_SWAPPER_V5()":"88a799f6","PERMIT2()":"6afdd850","albireo()":"9bbf470d","altairBorrow_O9E(address,uint256,bytes)":"8f53d74f","altairLiquidate_f2x(address,uint256,uint256,bytes)":"e95471c7","altairRedeem_u91A(address,uint256,bytes)":"989bebcf","borrow(address,uint256,address,uint256,bytes)":"dbe5f2fb","deleverage(address,address,address,uint256,uint256,uint256,bytes,uint8,bytes[])":"e75ee2e3","deneb()":"1907cd7d","emptyPermit()":"fee0bdc4","flashLiquidate(address,address,uint256,address,address,uint256,uint8,bytes[])":"fd62695b","getAssetsForShares(address,uint256)":"ebb0d616","hangar18()":"e8a24e1d","leverage(address,address,address,uint256,uint256,uint256,bytes,uint8,bytes[])":"d6906d23","liquidate(address,uint256,address,address,uint256)":"5c1e6404","liquidatePermit2Allowance(address,uint256,address,address,uint256,((address,uint160,uint48,uint48),address,uint256),bytes)":"c2a95ddf","liquidatePermit2Signature(address,uint256,address,address,uint256,((address,uint256),uint256,uint256),bytes)":"21a5e908","name()":"06fdde03","nativeToken()":"e1758bd8","orbiterId()":"729f6cfe","repay(address,uint256,address,uint256)":"6aee7c1e","repayPermit2Allowance(address,uint256,address,uint256,((address,uint160,uint48,uint48),address,uint256),bytes)":"0f22d435","repayPermit2Signature(address,uint256,address,uint256,((address,uint256),uint256,uint256),bytes)":"0e12d008","usd()":"d63a6ccd"}}}}}