{"contracts/cygnus-periphery/XHypervisor.sol":{"XHypervisor":{"abi":[{"inputs":[{"internalType":"contract IHangar18","name":"_hangar18","type":"address"}],"stateMutability":"nonpayable","type":"constructor"},{"inputs":[],"name":"CygnusAltair__0xProjectTransactionFailed","type":"error"},{"inputs":[],"name":"CygnusAltair__InsufficientLPTokenAmount","type":"error"},{"inputs":[],"name":"CygnusAltair__InsufficientLiquidateUsd","type":"error"},{"inputs":[],"name":"CygnusAltair__InsufficientUSDAmount","type":"error"},{"inputs":[],"name":"CygnusAltair__InvalidAggregator","type":"error"},{"inputs":[],"name":"CygnusAltair__InvalidPool","type":"error"},{"inputs":[],"name":"CygnusAltair__MsgSenderNotAdmin","type":"error"},{"inputs":[],"name":"CygnusAltair__MsgSenderNotBorrowable","type":"error"},{"inputs":[],"name":"CygnusAltair__MsgSenderNotCollateral","type":"error"},{"inputs":[],"name":"CygnusAltair__MsgSenderNotRouter","type":"error"},{"inputs":[],"name":"CygnusAltair__OneInchTransactionFailed","type":"error"},{"inputs":[],"name":"CygnusAltair__OnlyDelegateCall","type":"error"},{"inputs":[],"name":"CygnusAltair__OpenOceanTransactionFailed","type":"error"},{"inputs":[],"name":"CygnusAltair__ParaswapTransactionFailed","type":"error"},{"inputs":[],"name":"OKX_AGGREGATION_ROUTER","outputs":[{"internalType":"address","name":"","type":"address"}],"stateMutability":"view","type":"function"},{"inputs":[],"name":"ONE_INCH_ROUTER_V5","outputs":[{"internalType":"address","name":"","type":"address"}],"stateMutability":"view","type":"function"},{"inputs":[],"name":"OPEN_OCEAN_EXCHANGE_PROXY","outputs":[{"internalType":"address","name":"","type":"address"}],"stateMutability":"view","type":"function"},{"inputs":[],"name":"OxPROJECT_EXCHANGE_PROXY","outputs":[{"internalType":"address","name":"","type":"address"}],"stateMutability":"view","type":"function"},{"inputs":[],"name":"PARASWAP_AUGUSTUS_SWAPPER_V5","outputs":[{"internalType":"address","name":"","type":"address"}],"stateMutability":"view","type":"function"},{"inputs":[],"name":"PERMIT2","outputs":[{"internalType":"address","name":"","type":"address"}],"stateMutability":"view","type":"function"},{"inputs":[],"name":"UNISWAP_V3_ROUTER","outputs":[{"internalType":"address","name":"","type":"address"}],"stateMutability":"view","type":"function"},{"inputs":[{"internalType":"address","name":"sender","type":"address"},{"internalType":"uint256","name":"borrowAmount","type":"uint256"},{"internalType":"bytes","name":"data","type":"bytes"}],"name":"altairBorrow_O9E","outputs":[{"internalType":"uint256","name":"liquidity","type":"uint256"}],"stateMutability":"nonpayable","type":"function"},{"inputs":[{"internalType":"address","name":"sender","type":"address"},{"internalType":"uint256","name":"cygLPAmount","type":"uint256"},{"internalType":"uint256","name":"repayAmount","type":"uint256"},{"internalType":"bytes","name":"data","type":"bytes"}],"name":"altairLiquidate_f2x","outputs":[],"stateMutability":"nonpayable","type":"function"},{"inputs":[{"internalType":"address","name":"sender","type":"address"},{"internalType":"uint256","name":"redeemAmount","type":"uint256"},{"internalType":"bytes","name":"data","type":"bytes"}],"name":"altairRedeem_u91A","outputs":[{"internalType":"uint256","name":"usdAmount","type":"uint256"}],"stateMutability":"nonpayable","type":"function"},{"inputs":[{"internalType":"address","name":"underlying","type":"address"},{"internalType":"uint256","name":"shares","type":"uint256"},{"internalType":"uint256","name":"difference","type":"uint256"}],"name":"getAssetsForShares","outputs":[{"internalType":"address[]","name":"tokens","type":"address[]"},{"internalType":"uint256[]","name":"amounts","type":"uint256[]"}],"stateMutability":"view","type":"function"},{"inputs":[],"name":"hangar18","outputs":[{"internalType":"contract IHangar18","name":"","type":"address"}],"stateMutability":"view","type":"function"},{"inputs":[],"name":"name","outputs":[{"internalType":"string","name":"","type":"string"}],"stateMutability":"view","type":"function"},{"inputs":[],"name":"nativeToken","outputs":[{"internalType":"contract IWrappedNative","name":"","type":"address"}],"stateMutability":"view","type":"function"},{"inputs":[],"name":"sweepNative","outputs":[],"stateMutability":"nonpayable","type":"function"},{"inputs":[{"internalType":"contract IERC20[]","name":"tokens","type":"address[]"},{"internalType":"address","name":"to","type":"address"}],"name":"sweepTokens","outputs":[],"stateMutability":"nonpayable","type":"function"},{"inputs":[],"name":"usd","outputs":[{"internalType":"address","name":"","type":"address"}],"stateMutability":"view","type":"function"},{"inputs":[],"name":"version","outputs":[{"internalType":"string","name":"","type":"string"}],"stateMutability":"view","type":"function"},{"stateMutability":"payable","type":"receive"}],"evm":{"bytecode":{"linkReferences":{},"object":"610100604090808252346200018757806200439680380380916200002482856200018c565b83396020928391810103126200018757516001600160a01b039081811690818103620001875760a0528351631c2eb17b60e31b8152908382600481845afa9283156200017c5760049385936000916200015a575b501660e052845163d63a6ccd60e01b815292839182905afa9182156200014f576000926200011b575b505060c05230608052516141ae9081620001e8823960805181612c26015260a05181818161078701528181610d040152612523015260c0518181816104c7015281816108650152818161101d01528181611a62015281816121c301528181612cf00152613f50015260e0518181816107f601526112900152f35b6200013f9250803d1062000147575b6200013681836200018c565b810190620001c6565b3880620000a1565b503d6200012a565b83513d6000823e3d90fd5b620001759150843d861162000147576200013681836200018c565b3862000078565b85513d6000823e3d90fd5b600080fd5b601f909101601f19168101906001600160401b03821190821017620001b057604052565b634e487b7160e01b600052604160045260246000fd5b908160209103126200018757516001600160a01b038116810362000187579056fe6080604052600436101561001b575b361561001957600080fd5b005b6000803560e01c806306fdde031461283e5780632f764135146127f157806341c64a2f146127a457806354fd4d50146127195780636afdd850146126d15780637071f0c41461244157806372e05064146123f457806388a799f6146123a75780638f53d74f1461153b578063989bebcf14610dbf578063ab803a7614610c91578063bdcb993214610c44578063d0189a91146108d6578063d073674914610889578063d63a6ccd1461081a578063e1758bd8146107ab578063e8a24e1d1461073c5763e95471c7146100ed575061000e565b346107395760807ffffffffffffffffffffffffffffffffffffffffffffffffffffffffffffffffc3601126107395760043573ffffffffffffffffffffffffffffffffffffffff80821680920361063e576044359167ffffffffffffffff9160643583811161073557610164903690600401612a34565b61016f939193612c0f565b83019060209384818403126107315780359086821161072d57019061010093848385031261072d576101a460405195866128eb565b6101ad83612a13565b85526101ba868401612a13565b948681019586526101cd60408501612a13565b93604082019485526101e160608201612a13565b95606083019687526101f560808301612a13565b608084015260a082013560a084015260c08201359960088b10156107295760c084019a8b5260e0830135908111610729576102309201612b55565b60e082019081529230146102685760046040517fa610e788000000000000000000000000000000000000000000000000000000008152fd5b8184511633036106ff5781808092511696511693511693511695519060088210156106d2575191886040517f18160ddd0000000000000000000000000000000000000000000000000000000081528781600481865afa9081156106c7578291610696575b50604051907f01e1d1140000000000000000000000000000000000000000000000000000000082528882600481875afa801561068b5789928491610655575b506103af9161031c9160243561404f565b936103268461295b565b61033360405191826128eb565b8481527fffffffffffffffffffffffffffffffffffffffffffffffffffffffffffffffe06103608661295b565b0136858301376040519485809481937ffa14fdc20000000000000000000000000000000000000000000000000000000083523060048401528960248401526060604484015260648301906129b8565b03925af190811561064a57879161061c575b505060408051610420926103d66080836128eb565b8b82528b898301528b838301528b6060830152825193849283927fa85598720000000000000000000000000000000000000000000000000000000084523090309060048601612ca0565b03818c895af19182156106115789918a936105de575b506040517f0dfe168100000000000000000000000000000000000000000000000000000000815287816004818a5afa9687156105945788918c9861059f575b5090600491604051928380927fd21220a70000000000000000000000000000000000000000000000000000000082525afa978815610594578b9861054b575b50506104c4939287928792612ce9565b507f0000000000000000000000000000000000000000000000000000000000000000946104f13087614172565b918183106105215761051e9661051461050d8461051996612b19565b8883614129565b614129565b613f38565b80f35b60046040517f38040e8d000000000000000000000000000000000000000000000000000000008152fd5b908092939850819594953d831161058d575b61056781836128eb565b81010312610589576104c49361057d8792612a9f565b979291819495506104b4565b8980fd5b503d61055d565b6040513d8d823e3d90fd5b8281939299503d83116105d7575b6105b781836128eb565b810103126105d357876105cb600492612a9f565b979091610475565b8a80fd5b503d6105ad565b909250610603915060403d60401161060a575b6105fb81836128eb565b810190612b03565b9138610436565b503d6105f1565b6040513d8b823e3d90fd5b813d8311610643575b61062f81836128eb565b8101031261063e5785386103c1565b600080fd5b503d610625565b6040513d8c823e3d90fd5b92809294508391503d8311610684575b61066f81836128eb565b8101031261063e57518a9188916103af61030b565b503d610665565b6040513d85823e3d90fd5b809250888092503d83116106c0575b6106af81836128eb565b8101031261063e57899051386102cc565b503d6106a5565b6040513d84823e3d90fd5b6024897f4e487b710000000000000000000000000000000000000000000000000000000081526021600452fd5b60046040517fe0ffcbfd000000000000000000000000000000000000000000000000000000008152fd5b8c80fd5b8880fd5b8780fd5b8580fd5b80fd5b503461073957807ffffffffffffffffffffffffffffffffffffffffffffffffffffffffffffffffc36011261073957602060405173ffffffffffffffffffffffffffffffffffffffff7f0000000000000000000000000000000000000000000000000000000000000000168152f35b503461073957807ffffffffffffffffffffffffffffffffffffffffffffffffffffffffffffffffc36011261073957602060405173ffffffffffffffffffffffffffffffffffffffff7f0000000000000000000000000000000000000000000000000000000000000000168152f35b503461073957807ffffffffffffffffffffffffffffffffffffffffffffffffffffffffffffffffc36011261073957602060405173ffffffffffffffffffffffffffffffffffffffff7f0000000000000000000000000000000000000000000000000000000000000000168152f35b503461073957807ffffffffffffffffffffffffffffffffffffffffffffffffffffffffffffffffc36011261073957602060405173a748d6573aca135af68f2635be60cb80278bd8558152f35b50346107395760607ffffffffffffffffffffffffffffffffffffffffffffffffffffffffffffffffc3601126107395760043573ffffffffffffffffffffffffffffffffffffffff9182821680920361063e576040517f18160ddd00000000000000000000000000000000000000000000000000000000815260243591602091604435908381600481895afa90811561068b578391610c17575b50604051917fc4a7761e0000000000000000000000000000000000000000000000000000000083526040836004818a5afa918215610c0c5784938593610be5575b50604051926109c16060856128eb565b60028452868401976040368a37604051956109dd6060886128eb565b600287528887019a6040368d376040517f0dfe16810000000000000000000000000000000000000000000000000000000081528a81600481855afa90811561064a57918b918f938c91610ba7575b50600493610a398d8c612ac0565b91169052604051928380927fd21220a70000000000000000000000000000000000000000000000000000000082525afa90811561061157878e918b93610b47575b509c9b999a989796610aab87610aab979583999795610ab095610aa16001610ac09e612ac0565b911690528561404f565b612b19565b610aba8b89612ac0565b5261404f565b610acb600183612ac0565b526040519687966040880190604089525180915260608801949186905b828210610b2a5750505050858303868301525180835291810193925b828110610b1357505050500390f35b835185528695509381019392810192600101610b04565b8351811687528a9950958501959285019260019190910190610ae8565b925050508981813d8311610ba0575b610b6081836128eb565b8101031261072d5791610ab086610aab8f97610aab97958b610ac09b9a610aa16001610b8c869c612a9f565b999b50505095509350959750979850610a7a565b503d610b56565b92809294508391503d8311610bde575b610bc181836128eb565b81010312610589576004918e610bd78d93612a9f565b9093610a2b565b503d610bb7565b909250610c0291935060403d60401161060a576105fb81836128eb565b92909291386109b1565b6040513d86823e3d90fd5b90508381813d8311610c3d575b610c2e81836128eb565b8101031261063e575138610970565b503d610c24565b503461073957807ffffffffffffffffffffffffffffffffffffffffffffffffffffffffffffffffc360112610739576020604051731111111254eeb25477b68fb85ed929f73a9605828152f35b503461073957807ffffffffffffffffffffffffffffffffffffffffffffffffffffffffffffffffc360112610739576040517ff851a44000000000000000000000000000000000000000000000000000000000815273ffffffffffffffffffffffffffffffffffffffff602082600481847f0000000000000000000000000000000000000000000000000000000000000000165afa91821561068b578392610d80575b5081163303610d56574780610d47578280f35b610d509161410b565b38808280f35b60046040517f1a19b036000000000000000000000000000000000000000000000000000000008152fd5b9091506020813d8211610db7575b81610d9b602093836128eb565b81010312610db357610dac90612a9f565b9038610d34565b8280fd5b3d9150610d8e565b503461073957610dd0366004612a62565b610ddc93919293612c0f565b820190602093848484031261073557833567ffffffffffffffff9485821161073157019261010092838583031261073157610e1a60405194856128eb565b610e2385612a13565b8452610e30878601612a13565b94878501958652610e4360408201612a13565b6040860152610e5460608201612a13565b936060860194855260808601916080810135835260a087019460a0820135865260c08201359960088b10156107295760c089019a8b5260e083013590811161072957610ea09201612b55565b60e087019081529573ffffffffffffffffffffffffffffffffffffffff9384163014610ef05760046040517fa610e788000000000000000000000000000000000000000000000000000000008152fd5b838851163303611511578380809251169651169751169151935197519560088710156114e45760408a8c610f7893519481845193610f2f6080866128eb565b818552840152818484015281606084015283518095819482937fa85598720000000000000000000000000000000000000000000000000000000084523090309060048601612ca0565b03918a5af1908115610594578b908c926114c2575b50604051977f0dfe16810000000000000000000000000000000000000000000000000000000089528c8c8a6004818c5afa98891561126f578d919961148b575b60049a506040519a8b80927fd21220a70000000000000000000000000000000000000000000000000000000082525afa988915611480578d9961143c575b5061101a939289928992612ce9565b507f0000000000000000000000000000000000000000000000000000000000000000926110473085614172565b978810611412578993604051937fe99a6ac70000000000000000000000000000000000000000000000000000000085528a85600481875afa9485156114075786956113d0575b5080851694604051957f7d6af0790000000000000000000000000000000000000000000000000000000087528a6004880152604087602481845afa9081156113c5578c8e92611190998b916113a4575b5080911060001461139957506110f68d80945b87614129565b6110ff8961295b565b9061110d60405192836128eb565b8982527fffffffffffffffffffffffffffffffffffffffffffffffffffffffffffffffe061113a8b61295b565b0136848401378c8a604051809b819582947f1e7dcc0d00000000000000000000000000000000000000000000000000000000845260048401528360248401528360448401526080606484015260848301906129b8565b03925af190811561138e578c968b9261135f575b50808c1161127c575b50506040517f23b872dd00000000000000000000000000000000000000000000000000000000815273ffffffffffffffffffffffffffffffffffffffff808b1660048301528516602482015260448101939093525090998a929150829081606481015b03925af1801561126f57611233575b509061122b9291613f38565b604051908152f35b8587813d8311611268575b61124881836128eb565b81010312610739575061125f61122b949596613e60565b5085949361121f565b503d61123e565b50604051903d90823e3d90fd5b61128d908c98959793949698612b19565b947f00000000000000000000000000000000000000000000000000000000000000008416938116840361134557505050803b156113415781906024604051809481937f2e1a7d4d0000000000000000000000000000000000000000000000000000000083528760048401525af1801561064a57611321575b5088928892611317611210938961410b565b90913888816111ad565b9288928a6113366113179c61121095976128eb565b9a5092509290611305565b5080fd5b61135a92969350906112109591979497614129565b611317565b90968092503d8311611387575b61137681836128eb565b8101031261073557888b95386111a4565b503d61136c565b6040513d89823e3d90fd5b6110f69080946110f0565b6113bd915060403d60401161060a576105fb81836128eb565b9050386110dd565b6040513d8a823e3d90fd5b9094508a81813d8311611400575b6113e881836128eb565b81010312610735576113f990612a9f565b933861108d565b503d6113de565b6040513d88823e3d90fd5b60046040517fb2a4caeb000000000000000000000000000000000000000000000000000000008152fd5b909198508b81819594953d8311611479575b61145881836128eb565b810103126107295761101a9361146e8992612a9f565b99929150929361100b565b503d61144e565b6040513d8f823e3d90fd5b985089813d83116114bb575b6114a181836128eb565b81010312610729578b6114b560049a612a9f565b98610fcd565b503d611497565b90506114dd915060403d60401161060a576105fb81836128eb565b9038610f8d565b60248b7f4e487b710000000000000000000000000000000000000000000000000000000081526021600452fd5b60046040517fd0e9c9f6000000000000000000000000000000000000000000000000000000008152fd5b50346107395761154c366004612a62565b611557939293612c0f565b81019360208286031261073957813567ffffffffffffffff92838211610db357019160e083870312611341576040519561159260e0886128eb565b61159b84612a13565b87526115a960208501612a13565b96602081019788526115bd60408601612a13565b604082019081526115d060608701612a13565b926060830193845260808301946080880135865260a08801359760088910156107315760a0850198895260c081013591821161073157611611929101612b55565b60c083019081529673ffffffffffffffffffffffffffffffffffffffff16301461165f5760046040517fa610e788000000000000000000000000000000000000000000000000000000008152fd5b5173ffffffffffffffffffffffffffffffffffffffff1633036106ff5773ffffffffffffffffffffffffffffffffffffffff80809251169251169751169151935194600886101561237a575193604051947f0dfe1681000000000000000000000000000000000000000000000000000000008652602086600481865afa958615611e2d57859661233e575b50604051967fd21220a7000000000000000000000000000000000000000000000000000000008852602088600481875afa978815611407578698612302575b50604051987f86a29081000000000000000000000000000000000000000000000000000000008a5260208a600481885afa998a1561138e57879a6122c2575b5088600483148881156122b6575b8115612277575b50156121bf57506040517f313ce56700000000000000000000000000000000000000000000000000000000815260208160048173ffffffffffffffffffffffffffffffffffffffff8d165afa80156113c5578890612184575b6117e09150613e40565b6040517f313ce56700000000000000000000000000000000000000000000000000000000815260208160048173ffffffffffffffffffffffffffffffffffffffff8f165afa8015610611578990612149575b61183c9150613e40565b90611847828261400c565b64e8d4a5100081111561214157620f4240905b6040517f16f0115b0000000000000000000000000000000000000000000000000000000081526020816004818d5afa9081156120e4578c916120ef575b5060e073ffffffffffffffffffffffffffffffffffffffff916004604051809481937fe76c01e4000000000000000000000000000000000000000000000000000000008352165afa9081156120e4578c91612017575b507fffffffffffffffffffffffffffffffffffffffffffffffffffffffffffffffff600273ffffffffffffffffffffffffffffffffffffffff6119309316613e6d565b9062ffffff831615611fea57926119678f95949361195f6040946119df9662ffffff8085169416900490613f25565b60c01c613f25565b948d73ffffffffffffffffffffffffffffffffffffffff8c8551968795869485937f5ccfb71d0000000000000000000000000000000000000000000000000000000085526004850160409194939294606082019573ffffffffffffffffffffffffffffffffffffffff80921683521660208201520152565b0392165afa90811561064a5791611a06611a0e928c611a1396958192611fc8575b50612cdc565b60011c61400c565b61400c565b90670de0b6b3a764000091828101809111611f6e578015611f9b576ec097ce7bc90715b34b9f100000000004808303928311611f6e5781611a598c9493611a5f93613fc3565b92613fc3565b927f0000000000000000000000000000000000000000000000000000000000000000918973ffffffffffffffffffffffffffffffffffffffff8416918c858473ffffffffffffffffffffffffffffffffffffffff831603611f50575b5050505073ffffffffffffffffffffffffffffffffffffffff841603611f30575b50505050505b611aec3086614172565b611af63088614172565b97611b02828589613b70565b611b0d89858a613b70565b604080517f5ccfb71d00000000000000000000000000000000000000000000000000000000815273ffffffffffffffffffffffffffffffffffffffff8087166004830152891660248201526044810184905290818060648101038173ffffffffffffffffffffffffffffffffffffffff86165afa90811561138e5787908892611f0e575b508a10611e54575b808a11611e38575b5073ffffffffffffffffffffffffffffffffffffffff9291602091611c2a604051611bcd6080826128eb565b89815289858201528960408201528960608201526040519c8d947f8e3c92e4000000000000000000000000000000000000000000000000000000008652600486015260248501523060448501528760648501526084840190612c78565b8188610104968793165af1978815611e2d578598611df5575b508710611dcc5782611c75886101209585611c70836e22d473030f116ddee9f6b43ac78ba3602099613b70565b613ce1565b888589611d84611c848361295b565b611c9160405191826128eb565b8381527fffffffffffffffffffffffffffffffffffffffffffffffffffffffffffffffe0611cbe8561295b565b013689830137604051988997889687957f8808e71c0000000000000000000000000000000000000000000000000000000087526004870152602486015273ffffffffffffffffffffffffffffffffffffffff865416604486015260015473ffffffffffffffffffffffffffffffffffffffff8116606487015265ffffffffffff8160a01c16608487015260d01c60a486015273ffffffffffffffffffffffffffffffffffffffff6002541660c486015260035460e48601528401526101248301906129b8565b03925af180156106c757611da1575b60208561122b888787613f38565b602090813d8311611dc5575b611db781836128eb565b810103126107395780611d93565b503d611dad565b60046040517ebf8768000000000000000000000000000000000000000000000000000000008152fd5b9097506020813d602011611e25575b81611e11602093836128eb565b81010312611e2157519638611c43565b8480fd5b3d9150611e04565b6040513d87823e3d90fd5b985073ffffffffffffffffffffffffffffffffffffffff611ba1565b604080517f5ccfb71d00000000000000000000000000000000000000000000000000000000815273ffffffffffffffffffffffffffffffffffffffff80881660048301528b166024820152604481018c905290818060648101038173ffffffffffffffffffffffffffffffffffffffff87165afa9081156113c5578891611eed575b50808411611ee5575b50611b99565b925038611edf565b611f06915060403d60401161060a576105fb81836128eb565b905038611ed6565b9050611f29915060403d60401161060a576105fb81836128eb565b9038611b91565b611f3e6001611f4596612ac0565b5190612dbb565b503880878180611adc565b611f5d611f64948b612ac0565b5186612dbb565b5089388c85611abb565b6024897f4e487b710000000000000000000000000000000000000000000000000000000081526011600452fd5b6024897f4e487b710000000000000000000000000000000000000000000000000000000081526012600452fd5b9050611fe3915060403d60401161060a576105fb81836128eb565b9038611a00565b60248c7f4e487b710000000000000000000000000000000000000000000000000000000081526012600452fd5b905060e0813d60e0116120dc575b8161203260e093836128eb565b810103126120d85761204381612a9f565b9060208101518060020b0361072957600273ffffffffffffffffffffffffffffffffffffffff611930936120ce60c0856120a060407fffffffffffffffffffffffffffffffffffffffffffffffffffffffffffffffff9801613e51565b506120ad60608201613e51565b506120ba60808201613e32565b506120c760a08201613e32565b5001613e60565b50935050506118ed565b8b80fd5b3d9150612025565b6040513d8e823e3d90fd5b90506020813d602011612139575b8161210a602093836128eb565b810103126120d85760e061213273ffffffffffffffffffffffffffffffffffffffff92612a9f565b9150611897565b3d91506120fd565b60019061185a565b506020813d60201161217c575b81612163602093836128eb565b8101031261072d5761217761183c91613e32565b611832565b3d9150612156565b506020813d6020116121b7575b8161219e602093836128eb565b81010312610731576121b26117e091613e32565b6117d6565b3d9150612191565b90917f00000000000000000000000000000000000000000000000000000000000000009073ffffffffffffffffffffffffffffffffffffffff821689858c858473ffffffffffffffffffffffffffffffffffffffff831603612260575b5050505073ffffffffffffffffffffffffffffffffffffffff841603612247575b5050505050611ae2565b611f3e600161225596612ac0565b50388087818061223d565b611f5d61226d948b612ac0565b5089858c8561221c565b9150506122895788600783143861177d565b6024877f4e487b710000000000000000000000000000000000000000000000000000000081526021600452fd5b50506001831488611776565b9099506020813d6020116122fa575b816122de602093836128eb565b810103126122f6576122ef90612a9f565b9838611768565b8680fd5b3d91506122d1565b9097506020813d602011612336575b8161231e602093836128eb565b810103126107355761232f90612a9f565b9638611729565b3d9150612311565b9095506020813d602011612372575b8161235a602093836128eb565b81010312611e215761236b90612a9f565b94386116ea565b3d915061234d565b6024847f4e487b710000000000000000000000000000000000000000000000000000000081526021600452fd5b503461073957807ffffffffffffffffffffffffffffffffffffffffffffffffffffffffffffffffc36011261073957602060405173def171fe48cf0115b1d80b88dc8eab59176fee578152f35b503461073957807ffffffffffffffffffffffffffffffffffffffffffffffffffffffffffffffffc360112610739576020604051736352a56caadc4f1e25cd6c75970fa768a3304e648152f35b50346107395760407ffffffffffffffffffffffffffffffffffffffffffffffffffffffffffffffffc360112610739576004359067ffffffffffffffff821161073957366023830112156107395781600401359061249e826129fb565b906124ac60405192836128eb565b8282526020938483016024809560051b8301019136831161269a578501905b8282106126a557505050823573ffffffffffffffffffffffffffffffffffffffff8082168203610db3576040517ff851a4400000000000000000000000000000000000000000000000000000000081528681600481857f0000000000000000000000000000000000000000000000000000000000000000165afa908115610c0c579082918591612669575b50163303610d5657825b8451811015612665578587836125768489612ac0565b5116604051928380927f70a082310000000000000000000000000000000000000000000000000000000082523060048301525afa908115611e2d578591612638575b508061261b575b507fffffffffffffffffffffffffffffffffffffffffffffffffffffffffffffffff81146125ef57600101612560565b85847f4e487b710000000000000000000000000000000000000000000000000000000081526011600452fd5b61263290848461262b858a612ac0565b5116614129565b386125bf565b90508781813d831161265e575b61264f81836128eb565b81010312611e215751386125b8565b503d612645565b8380f35b809250888092503d831161269e575b61268281836128eb565b8101031261269a576126948291612a9f565b38612556565b8380fd5b503d612678565b813573ffffffffffffffffffffffffffffffffffffffff81168103611e215781529086019086016124cb565b503461073957807ffffffffffffffffffffffffffffffffffffffffffffffffffffffffffffffffc3601126107395760206040516e22d473030f116ddee9f6b43ac78ba38152f35b503461073957807ffffffffffffffffffffffffffffffffffffffffffffffffffffffffffffffffc360112610739576127a0612755600561295b565b61276260405191826128eb565b600581527f312e302e3000000000000000000000000000000000000000000000000000000060208201526040519182916020835260208301906129b8565b0390f35b503461073957807ffffffffffffffffffffffffffffffffffffffffffffffffffffffffffffffffc36011261073957602060405173e592427a0aece92de3edee1f18e0157c058615648152f35b503461073957807ffffffffffffffffffffffffffffffffffffffffffffffffffffffffffffffffc36011261073957602060405173def1c0ded9bec7f1a1670819833240f027b25eff8152f35b503461073957807ffffffffffffffffffffffffffffffffffffffffffffffffffffffffffffffffc360112610739576127a061287a602261295b565b61288760405191826128eb565b602281527f416c7461697220457874656e73696f6e3a2048797065727669736f7220506f6f60208201527f6c7300000000000000000000000000000000000000000000000000000000000060408201526040519182916020835260208301906129b8565b90601f7fffffffffffffffffffffffffffffffffffffffffffffffffffffffffffffffe0910116810190811067ffffffffffffffff82111761292c57604052565b7f4e487b7100000000000000000000000000000000000000000000000000000000600052604160045260246000fd5b67ffffffffffffffff811161292c57601f017fffffffffffffffffffffffffffffffffffffffffffffffffffffffffffffffe01660200190565b60005b8381106129a85750506000910152565b8181015183820152602001612998565b907fffffffffffffffffffffffffffffffffffffffffffffffffffffffffffffffe0601f6020936129f481518092818752878088019101612995565b0116010190565b67ffffffffffffffff811161292c5760051b60200190565b359073ffffffffffffffffffffffffffffffffffffffff8216820361063e57565b9181601f8401121561063e5782359167ffffffffffffffff831161063e576020838186019501011161063e57565b9160608383031261063e57612a7683612a13565b92602081013592604082013567ffffffffffffffff811161063e57612a9b9201612a34565b9091565b519073ffffffffffffffffffffffffffffffffffffffff8216820361063e57565b8051821015612ad45760209160051b010190565b7f4e487b7100000000000000000000000000000000000000000000000000000000600052603260045260246000fd5b919082604091031261063e576020825192015190565b91908203918211612b2657565b7f4e487b7100000000000000000000000000000000000000000000000000000000600052601160045260246000fd5b9080601f8301121561063e57813591612b6d836129fb565b92604090612b7d825195866128eb565b808552602093848087019260051b8501019381851161063e57858101925b858410612bac575050505050505090565b833567ffffffffffffffff811161063e57820183603f8201121561063e578781013591612bd88361295b565b612be4885191826128eb565b8381528588858501011161063e5760008a8581968b8397018386013783010152815201930192612b9b565b73ffffffffffffffffffffffffffffffffffffffff7f0000000000000000000000000000000000000000000000000000000000000000163014612c4e57565b60046040517fc97bbbae000000000000000000000000000000000000000000000000000000008152fd5b6000915b60048310612c8957505050565b600190825181526020809101920192019190612c7c565b90815273ffffffffffffffffffffffffffffffffffffffff91821660208201529116604082015260e081019291612cda9160600190612c78565b565b91908201809211612b2657565b90949391947f00000000000000000000000000000000000000000000000000000000000000009373ffffffffffffffffffffffffffffffffffffffff80861680828416149081928215612daf575b5050612d74575091611f3e6001612d65612d7199969488612d6b9997612d5e60008d612ac0565b5187612dbb565b97612ac0565b90612cdc565b90565b90612d71979492959391600090600014612d99575050611f3e6001612d6b9697612ac0565b611f3e919350612daa969597612ac0565b612cdc565b87161490503880612d37565b93929091936008811015613b115780612ead575050604051927fd2c4b59800000000000000000000000000000000000000000000000000000000845260209373def171fe48cf0115b1d80b88dc8eab59176fee57918582600481865afa918215612ea157600092612e5b575b5060009485949392612e3892613b70565b84825192019034905af1612e4a613b40565b9015612e5557015190565b80519101fd5b90939291508581813d8311612e9a575b612e7581836128eb565b8101031261063e576000948594612e8e612e3893612a9f565b93949550915094612e27565b503d612e6b565b6040513d6000823e3d90fd5b929391926001810361310457505090805181018160208201910393610140851261063e5760e07fffffffffffffffffffffffffffffffffffffffffffffffffffffffffffffffe0612f0060208601612a9f565b96011261063e57604094855194612f1860e0876128eb565b612f23878601612a9f565b8652612f3160608601612a9f565b9060208701918252612f4560808701612a9f565b94888801958652612f5860a08801612a9f565b976060810198895260c08801516080820190815260e08901519060a083019182526101008a01519260c081019384526101208b015167ffffffffffffffff9081811161063e57866020612fad928f0101613c7b565b956101408d015191821161063e578e9c612fca9201602001613c7b565b95898351036130fc575b731111111254eeb25477b68fb85ed929f73a960582998a612ff492613b70565b8a519b8c809b819a829a7f12aa3caf00000000000000000000000000000000000000000000000000000000845273ffffffffffffffffffffffffffffffffffffffff80968195828095169060040152511660248d0152511660448b015251166064890152511660848701525160a48601525160c48501525160e4840152610104830161014090526101448301613089916129b8565b8281037ffffffffffffffffffffffffffffffffffffffffffffffffffffffffffffffffc016101248401526130bd916129b8565b03915a90600091f19182156130f2576000926130d857505090565b6130ee9250803d1061060a576105fb81836128eb565b5090565b513d6000823e3d90fd5b898352612fd4565b6002810361315c57505090600092916131348493731111111254eeb25477b68fb85ed929f73a9605828093613b70565b6020825192019034905af1613147613b40565b9015613154576020015190565b602081519101fd5b6003810361318c5750509060009291613134849373def1c0ded9bec7f1a1670819833240f027b25eff8093613b70565b60048103613604575050815182019060608383031261063e576131b160208401612a9f565b60408401519467ffffffffffffffff861161063e5761014086860185031261063e57604051926131e3610140856128eb565b6131f1602088880101612a9f565b8452613201604088880101612a9f565b6020850152613214606088880101612a9f565b6040850152613227608088880101612a9f565b606085015260a08787010151608085015260c0878701015160a085015260e0878701015160c08501526101009687818801015160e086015261326e61012082890101612a9f565b8886015261014081880101519067ffffffffffffffff821161063e57602061329d92818901928a010101613c7b565b61012085015260608601519467ffffffffffffffff861161063e5760208101603f87890101121561063e57602086880101516132d8816129fb565b966132e660405198896128eb565b8188526020880180996020850160408560051b85840101011161063e57604083820101915b60408560051b85840101018310613551575050505050509161335d82736352a56caadc4f1e25cd6c75970fa768a3304e64610120958795608061342299015103613546575b9998979695949399613b70565b6040519687967f90411a3200000000000000000000000000000000000000000000000000000000885273ffffffffffffffffffffffffffffffffffffffff8092166004890152606060248901528183511660648901528160208401511660848901528160408401511660a48901528160608401511660c4890152608083015160e489015260a083015161010489015260c083015161012489015260e08301516101448901528201511661016487015201516101406101848601526101a48501906129b8565b907ffffffffffffffffffffffffffffffffffffffffffffffffffffffffffffffffc84830301604485015251808252602082019160208260051b82010193926000915b8383106134d2575050505050908060209203816000736352a56caadc4f1e25cd6c75970fa768a3304e645af1908115612ea1576000916134a3575090565b90506020813d6020116134ca575b816134be602093836128eb565b8101031261063e575190565b3d91506134b1565b919395509193602080613534837fffffffffffffffffffffffffffffffffffffffffffffffffffffffffffffffe08660019603018752608060608b518051845285810151868501526040810151604085015201519181606082015201906129b8565b97019301930190928695949293613465565b826080870152613350565b82519067ffffffffffffffff821161063e5760807fffffffffffffffffffffffffffffffffffffffffffffffffffffffffffffffe083878601018903011261063e57604051916135a26080846128eb565b838601810160408181015185526060820151602086015260808201519085015260a001519167ffffffffffffffff831161063e576040936135f260209493868695868e01928c8b01010101613c7b565b6060820152815201930192905061330b565b91939160058103613636575050906000926131348493736352a56caadc4f1e25cd6c75970fa768a3304e648093613b70565b91929160068103613748575050604051927ff3dced3c00000000000000000000000000000000000000000000000000000000845260209373a748d6573aca135af68f2635be60cb80278bd855918582600481865afa8015612ea1578690600090613700575b73ffffffffffffffffffffffffffffffffffffffff93506004604051809581937f1c6eced5000000000000000000000000000000000000000000000000000000008352165afa918215612ea157600092612e5b575060009485949392612e3892613b70565b5082813d8311613741575b61371581836128eb565b8101031261063e578561373c73ffffffffffffffffffffffffffffffffffffffff93612a9f565b61369b565b503d61370b565b909150600703613ae7576137718273e592427a0aece92de3edee1f18e0157c0586156485613b70565b600080604051906137836080836128eb565b606482526101f46020830152610bb86040830152612710606083015260005b600481106139015750505062ffffff169081156138d75773ffffffffffffffffffffffffffffffffffffffff9081604051956137e0610100886128eb565b168552166020840152604083015230606083015263ffffffff608083015260a0820152600060c0820152600060e082015273ffffffffffffffffffffffffffffffffffffffff60e0604051927f414bf38900000000000000000000000000000000000000000000000000000000845282815116600485015282602082015116602485015262ffffff60408201511660448501528260608201511660648501526080810151608485015260a081015160a485015260c081015160c485015201511660e482015260208161010481600073e592427a0aece92de3edee1f18e0157c058615645af1908115612ea1576000916134a3575090565b60046040517fe2db3aad000000000000000000000000000000000000000000000000000000008152fd5b62ffffff61390f8285613cbd565b5116604051907f1698ee8200000000000000000000000000000000000000000000000000000000825273ffffffffffffffffffffffffffffffffffffffff8916600483015273ffffffffffffffffffffffffffffffffffffffff871660248301526044820152602081606481731f98431c8ad98523631ae4a59f267346ea31f9845afa8015612ea157600090613a9a575b73ffffffffffffffffffffffffffffffffffffffff915016806139c7575b506001016137a2565b6020600491604051928380927f1a6865020000000000000000000000000000000000000000000000000000000082525afa8015612ea157600090613a3f575b6fffffffffffffffffffffffffffffffff915016828111156139be5791509250600162ffffff613a368585613cbd565b511693906139be565b506020813d602011613a92575b81613a59602093836128eb565b8101031261063e57516fffffffffffffffffffffffffffffffff8116810361063e576fffffffffffffffffffffffffffffffff90613a06565b3d9150613a4c565b506020813d602011613adf575b81613ab4602093836128eb565b8101031261063e57613ada73ffffffffffffffffffffffffffffffffffffffff91612a9f565b6139a0565b3d9150613aa7565b60046040517feff442c1000000000000000000000000000000000000000000000000000000008152fd5b7f4e487b7100000000000000000000000000000000000000000000000000000000600052602160045260246000fd5b3d15613b6b573d90613b518261295b565b91613b5f60405193846128eb565b82523d6000602084013e565b606090565b90916040517fdd62ed3e00000000000000000000000000000000000000000000000000000000815230600482015260208160448173ffffffffffffffffffffffffffffffffffffffff808916602483015287165afa908115612ea157600091613c4a575b501015613c465760446010600080936020956014527fffffffffffffffffffffffffffffffffffffffffffffffffffffffffffffffff6034526f095ea7b300000000000000000000000082525af13d15600160005114171615613c38576000603452565b633e3f8f736000526004601cfd5b5050565b906020823d8211613c73575b81613c63602093836128eb565b8101031261073957505138613bd4565b3d9150613c56565b81601f8201121561063e578051613c918161295b565b92613c9f60405194856128eb565b8184526020828401011161063e57612d719160208085019101612995565b906004811015612ad45760051b0190565b519065ffffffffffff8216820361063e57565b916040517f927da10500000000000000000000000000000000000000000000000000000000815230600482015273ffffffffffffffffffffffffffffffffffffffff808095169384602484015216918260448301526e22d473030f116ddee9f6b43ac78ba391606081606481865afa8015612ea1578691600091613ddc575b50161015613dd657803b1561063e576000928360849260405196879586947f87517c4500000000000000000000000000000000000000000000000000000000865260048601526024850152604484015265ffffffffffff60648401525af18015612ea157613dcb5750565b6000612cda916128eb565b50505050565b91506060823d8211613e2a575b81613df6606093836128eb565b81010312610739575080613e236040613e0f8994612a9f565b92613e1c60208201613cce565b5001613cce565b5038613d60565b3d9150613de9565b519060ff8216820361063e57565b60ff16604d8111612b2657600a0a90565b519061ffff8216820361063e57565b5190811515820361063e57565b908015613f1d578115613f15578180600114613f0c57600214613ef25760208110610133831016604e8210600b84101617613ee6579091600191825b808211613ebf5750508290048111612b26570290565b90938083048111612b2657818516613edd575b800293811c90613ea9565b80930292613ed2565b900a91908211612b2657565b905060ff8193929311612b26576001901b918211612b2657565b50505050600190565b505050600090565b505050600190565b81810292918115918404141715612b2657565b91613f433084614172565b91613f4e3082614172565b7f000000000000000000000000000000000000000000000000000000000000000094613f7a3087614172565b948481613fb2575b91505081613fa1575b50505081613f9857505050565b612cda92614129565b613faa92614129565b388082613f8b565b613fbb92614129565b388084613f82565b90807fffffffffffffffffffffffffffffffffffffffffffffffffffffffffffffffff0482118102613ffe57670de0b6b3a764000091020490565b63bac65e5b6000526004601cfd5b670de0b6b3a7640000907812725dd1d243aba0e75fe645cc4873f9e65afe688c928e1f21811182021583021561404157020490565b637c5f487d6000526004601cfd5b91600092828102927fffffffffffffffffffffffffffffffffffffffffffffffffffffffffffffffff81830991848310850180840393146140ef57828411156140e257908391099060018386038416808080960460028082600302188083028203028083028203028083028203028083028203028083028203028092029003029703040190848311900302920304170290565b63ae47f70286526004601cfd5b5050509182156140fe57500490565b63ae47f70290526004601cfd5b600080809381935af11561411b57565b63b12d13eb6000526004601cfd5b60109260209260145260345260446000938480936fa9059cbb00000000000000000000000082525af13d15600183511417161561416557603452565b6390b8ec1890526004601cfd5b602460106020939284936014526f70a082310000000000000000000000006000525afa601f3d1116602051029056fea164736f6c6343000811000a","opcodes":"PUSH2 0x100 PUSH1 0x40 SWAP1 DUP1 DUP3 MSTORE CALLVALUE PUSH3 0x187 JUMPI DUP1 PUSH3 0x4396 DUP1 CODESIZE SUB DUP1 SWAP2 PUSH3 0x24 DUP3 DUP6 PUSH3 0x18C JUMP JUMPDEST DUP4 CODECOPY PUSH1 0x20 SWAP3 DUP4 SWAP2 DUP2 ADD SUB SLT PUSH3 0x187 JUMPI MLOAD PUSH1 0x1 PUSH1 0x1 PUSH1 0xA0 SHL SUB SWAP1 DUP2 DUP2 AND SWAP1 DUP2 DUP2 SUB PUSH3 0x187 JUMPI PUSH1 0xA0 MSTORE DUP4 MLOAD PUSH4 0x1C2EB17B PUSH1 0xE3 SHL DUP2 MSTORE SWAP1 DUP4 DUP3 PUSH1 0x4 DUP2 DUP5 GAS STATICCALL SWAP3 DUP4 ISZERO PUSH3 0x17C JUMPI PUSH1 0x4 SWAP4 DUP6 SWAP4 PUSH1 0x0 SWAP2 PUSH3 0x15A JUMPI JUMPDEST POP AND PUSH1 0xE0 MSTORE DUP5 MLOAD PUSH4 0xD63A6CCD PUSH1 0xE0 SHL DUP2 MSTORE SWAP3 DUP4 SWAP2 DUP3 SWAP1 GAS STATICCALL SWAP2 DUP3 ISZERO PUSH3 0x14F JUMPI PUSH1 0x0 SWAP3 PUSH3 0x11B JUMPI JUMPDEST POP POP PUSH1 0xC0 MSTORE ADDRESS PUSH1 0x80 MSTORE MLOAD PUSH2 0x41AE SWAP1 DUP2 PUSH3 0x1E8 DUP3 CODECOPY PUSH1 0x80 MLOAD DUP2 PUSH2 0x2C26 ADD MSTORE PUSH1 0xA0 MLOAD DUP2 DUP2 DUP2 PUSH2 0x787 ADD MSTORE DUP2 DUP2 PUSH2 0xD04 ADD MSTORE PUSH2 0x2523 ADD MSTORE PUSH1 0xC0 MLOAD DUP2 DUP2 DUP2 PUSH2 0x4C7 ADD MSTORE DUP2 DUP2 PUSH2 0x865 ADD MSTORE DUP2 DUP2 PUSH2 0x101D ADD MSTORE DUP2 DUP2 PUSH2 0x1A62 ADD MSTORE DUP2 DUP2 PUSH2 0x21C3 ADD MSTORE DUP2 DUP2 PUSH2 0x2CF0 ADD MSTORE PUSH2 0x3F50 ADD MSTORE PUSH1 0xE0 MLOAD DUP2 DUP2 DUP2 PUSH2 0x7F6 ADD MSTORE PUSH2 0x1290 ADD MSTORE RETURN JUMPDEST PUSH3 0x13F SWAP3 POP DUP1 RETURNDATASIZE LT PUSH3 0x147 JUMPI JUMPDEST PUSH3 0x136 DUP2 DUP4 PUSH3 0x18C JUMP JUMPDEST DUP2 ADD SWAP1 PUSH3 0x1C6 JUMP JUMPDEST CODESIZE DUP1 PUSH3 0xA1 JUMP JUMPDEST POP RETURNDATASIZE PUSH3 0x12A JUMP JUMPDEST DUP4 MLOAD RETURNDATASIZE PUSH1 0x0 DUP3 RETURNDATACOPY RETURNDATASIZE SWAP1 REVERT JUMPDEST PUSH3 0x175 SWAP2 POP DUP5 RETURNDATASIZE DUP7 GT PUSH3 0x147 JUMPI PUSH3 0x136 DUP2 DUP4 PUSH3 0x18C JUMP JUMPDEST CODESIZE PUSH3 0x78 JUMP JUMPDEST DUP6 MLOAD RETURNDATASIZE PUSH1 0x0 DUP3 RETURNDATACOPY RETURNDATASIZE SWAP1 REVERT JUMPDEST PUSH1 0x0 DUP1 REVERT JUMPDEST PUSH1 0x1F SWAP1 SWAP2 ADD PUSH1 0x1F NOT AND DUP2 ADD SWAP1 PUSH1 0x1 PUSH1 0x1 PUSH1 0x40 SHL SUB DUP3 GT SWAP1 DUP3 LT OR PUSH3 0x1B0 JUMPI PUSH1 0x40 MSTORE JUMP JUMPDEST PUSH4 0x4E487B71 PUSH1 0xE0 SHL PUSH1 0x0 MSTORE PUSH1 0x41 PUSH1 0x4 MSTORE PUSH1 0x24 PUSH1 0x0 REVERT JUMPDEST SWAP1 DUP2 PUSH1 0x20 SWAP2 SUB SLT PUSH3 0x187 JUMPI MLOAD PUSH1 0x1 PUSH1 0x1 PUSH1 0xA0 SHL SUB DUP2 AND DUP2 SUB PUSH3 0x187 JUMPI SWAP1 JUMP INVALID PUSH1 0x80 PUSH1 0x40 MSTORE PUSH1 0x4 CALLDATASIZE LT ISZERO PUSH2 0x1B JUMPI JUMPDEST CALLDATASIZE ISZERO PUSH2 0x19 JUMPI PUSH1 0x0 DUP1 REVERT JUMPDEST STOP JUMPDEST PUSH1 0x0 DUP1 CALLDATALOAD PUSH1 0xE0 SHR DUP1 PUSH4 0x6FDDE03 EQ PUSH2 0x283E JUMPI DUP1 PUSH4 0x2F764135 EQ PUSH2 0x27F1 JUMPI DUP1 PUSH4 0x41C64A2F EQ PUSH2 0x27A4 JUMPI DUP1 PUSH4 0x54FD4D50 EQ PUSH2 0x2719 JUMPI DUP1 PUSH4 0x6AFDD850 EQ PUSH2 0x26D1 JUMPI DUP1 PUSH4 0x7071F0C4 EQ PUSH2 0x2441 JUMPI DUP1 PUSH4 0x72E05064 EQ PUSH2 0x23F4 JUMPI DUP1 PUSH4 0x88A799F6 EQ PUSH2 0x23A7 JUMPI DUP1 PUSH4 0x8F53D74F EQ PUSH2 0x153B JUMPI DUP1 PUSH4 0x989BEBCF EQ PUSH2 0xDBF JUMPI DUP1 PUSH4 0xAB803A76 EQ PUSH2 0xC91 JUMPI DUP1 PUSH4 0xBDCB9932 EQ PUSH2 0xC44 JUMPI DUP1 PUSH4 0xD0189A91 EQ PUSH2 0x8D6 JUMPI DUP1 PUSH4 0xD0736749 EQ PUSH2 0x889 JUMPI DUP1 PUSH4 0xD63A6CCD EQ PUSH2 0x81A JUMPI DUP1 PUSH4 0xE1758BD8 EQ PUSH2 0x7AB JUMPI DUP1 PUSH4 0xE8A24E1D EQ PUSH2 0x73C JUMPI PUSH4 0xE95471C7 EQ PUSH2 0xED JUMPI POP PUSH2 0xE JUMP JUMPDEST CALLVALUE PUSH2 0x739 JUMPI PUSH1 0x80 PUSH32 0xFFFFFFFFFFFFFFFFFFFFFFFFFFFFFFFFFFFFFFFFFFFFFFFFFFFFFFFFFFFFFFFC CALLDATASIZE ADD SLT PUSH2 0x739 JUMPI PUSH1 0x4 CALLDATALOAD PUSH20 0xFFFFFFFFFFFFFFFFFFFFFFFFFFFFFFFFFFFFFFFF DUP1 DUP3 AND DUP1 SWAP3 SUB PUSH2 0x63E JUMPI PUSH1 0x44 CALLDATALOAD SWAP2 PUSH8 0xFFFFFFFFFFFFFFFF SWAP2 PUSH1 0x64 CALLDATALOAD DUP4 DUP2 GT PUSH2 0x735 JUMPI PUSH2 0x164 SWAP1 CALLDATASIZE SWAP1 PUSH1 0x4 ADD PUSH2 0x2A34 JUMP JUMPDEST PUSH2 0x16F SWAP4 SWAP2 SWAP4 PUSH2 0x2C0F JUMP JUMPDEST DUP4 ADD SWAP1 PUSH1 0x20 SWAP4 DUP5 DUP2 DUP5 SUB SLT PUSH2 0x731 JUMPI DUP1 CALLDATALOAD SWAP1 DUP7 DUP3 GT PUSH2 0x72D JUMPI ADD SWAP1 PUSH2 0x100 SWAP4 DUP5 DUP4 DUP6 SUB SLT PUSH2 0x72D JUMPI PUSH2 0x1A4 PUSH1 0x40 MLOAD SWAP6 DUP7 PUSH2 0x28EB JUMP JUMPDEST PUSH2 0x1AD DUP4 PUSH2 0x2A13 JUMP JUMPDEST DUP6 MSTORE PUSH2 0x1BA DUP7 DUP5 ADD PUSH2 0x2A13 JUMP JUMPDEST SWAP5 DUP7 DUP2 ADD SWAP6 DUP7 MSTORE PUSH2 0x1CD PUSH1 0x40 DUP6 ADD PUSH2 0x2A13 JUMP JUMPDEST SWAP4 PUSH1 0x40 DUP3 ADD SWAP5 DUP6 MSTORE PUSH2 0x1E1 PUSH1 0x60 DUP3 ADD PUSH2 0x2A13 JUMP JUMPDEST SWAP6 PUSH1 0x60 DUP4 ADD SWAP7 DUP8 MSTORE PUSH2 0x1F5 PUSH1 0x80 DUP4 ADD PUSH2 0x2A13 JUMP JUMPDEST PUSH1 0x80 DUP5 ADD MSTORE PUSH1 0xA0 DUP3 ADD CALLDATALOAD PUSH1 0xA0 DUP5 ADD MSTORE PUSH1 0xC0 DUP3 ADD CALLDATALOAD SWAP10 PUSH1 0x8 DUP12 LT ISZERO PUSH2 0x729 JUMPI PUSH1 0xC0 DUP5 ADD SWAP11 DUP12 MSTORE PUSH1 0xE0 DUP4 ADD CALLDATALOAD SWAP1 DUP2 GT PUSH2 0x729 JUMPI PUSH2 0x230 SWAP3 ADD PUSH2 0x2B55 JUMP JUMPDEST PUSH1 0xE0 DUP3 ADD SWAP1 DUP2 MSTORE SWAP3 ADDRESS EQ PUSH2 0x268 JUMPI PUSH1 0x4 PUSH1 0x40 MLOAD PUSH32 0xA610E78800000000000000000000000000000000000000000000000000000000 DUP2 MSTORE REVERT JUMPDEST DUP2 DUP5 MLOAD AND CALLER SUB PUSH2 0x6FF JUMPI DUP2 DUP1 DUP1 SWAP3 MLOAD AND SWAP7 MLOAD AND SWAP4 MLOAD AND SWAP4 MLOAD AND SWAP6 MLOAD SWAP1 PUSH1 0x8 DUP3 LT ISZERO PUSH2 0x6D2 JUMPI MLOAD SWAP2 DUP9 PUSH1 0x40 MLOAD PUSH32 0x18160DDD00000000000000000000000000000000000000000000000000000000 DUP2 MSTORE DUP8 DUP2 PUSH1 0x4 DUP2 DUP7 GAS STATICCALL SWAP1 DUP2 ISZERO PUSH2 0x6C7 JUMPI DUP3 SWAP2 PUSH2 0x696 JUMPI JUMPDEST POP PUSH1 0x40 MLOAD SWAP1 PUSH32 0x1E1D11400000000000000000000000000000000000000000000000000000000 DUP3 MSTORE DUP9 DUP3 PUSH1 0x4 DUP2 DUP8 GAS STATICCALL DUP1 ISZERO PUSH2 0x68B JUMPI DUP10 SWAP3 DUP5 SWAP2 PUSH2 0x655 JUMPI JUMPDEST POP PUSH2 0x3AF SWAP2 PUSH2 0x31C SWAP2 PUSH1 0x24 CALLDATALOAD PUSH2 0x404F JUMP JUMPDEST SWAP4 PUSH2 0x326 DUP5 PUSH2 0x295B JUMP JUMPDEST PUSH2 0x333 PUSH1 0x40 MLOAD SWAP2 DUP3 PUSH2 0x28EB JUMP JUMPDEST DUP5 DUP2 MSTORE PUSH32 0xFFFFFFFFFFFFFFFFFFFFFFFFFFFFFFFFFFFFFFFFFFFFFFFFFFFFFFFFFFFFFFE0 PUSH2 0x360 DUP7 PUSH2 0x295B JUMP JUMPDEST ADD CALLDATASIZE DUP6 DUP4 ADD CALLDATACOPY PUSH1 0x40 MLOAD SWAP5 DUP6 DUP1 SWAP5 DUP2 SWAP4 PUSH32 0xFA14FDC200000000000000000000000000000000000000000000000000000000 DUP4 MSTORE ADDRESS PUSH1 0x4 DUP5 ADD MSTORE DUP10 PUSH1 0x24 DUP5 ADD MSTORE PUSH1 0x60 PUSH1 0x44 DUP5 ADD MSTORE PUSH1 0x64 DUP4 ADD SWAP1 PUSH2 0x29B8 JUMP JUMPDEST SUB SWAP3 GAS CALL SWAP1 DUP2 ISZERO PUSH2 0x64A JUMPI DUP8 SWAP2 PUSH2 0x61C JUMPI JUMPDEST POP POP PUSH1 0x40 DUP1 MLOAD PUSH2 0x420 SWAP3 PUSH2 0x3D6 PUSH1 0x80 DUP4 PUSH2 0x28EB JUMP JUMPDEST DUP12 DUP3 MSTORE DUP12 DUP10 DUP4 ADD MSTORE DUP12 DUP4 DUP4 ADD MSTORE DUP12 PUSH1 0x60 DUP4 ADD MSTORE DUP3 MLOAD SWAP4 DUP5 SWAP3 DUP4 SWAP3 PUSH32 0xA855987200000000000000000000000000000000000000000000000000000000 DUP5 MSTORE ADDRESS SWAP1 ADDRESS SWAP1 PUSH1 0x4 DUP7 ADD PUSH2 0x2CA0 JUMP JUMPDEST SUB DUP2 DUP13 DUP10 GAS CALL SWAP2 DUP3 ISZERO PUSH2 0x611 JUMPI DUP10 SWAP2 DUP11 SWAP4 PUSH2 0x5DE JUMPI JUMPDEST POP PUSH1 0x40 MLOAD PUSH32 0xDFE168100000000000000000000000000000000000000000000000000000000 DUP2 MSTORE DUP8 DUP2 PUSH1 0x4 DUP2 DUP11 GAS STATICCALL SWAP7 DUP8 ISZERO PUSH2 0x594 JUMPI DUP9 SWAP2 DUP13 SWAP9 PUSH2 0x59F JUMPI JUMPDEST POP SWAP1 PUSH1 0x4 SWAP2 PUSH1 0x40 MLOAD SWAP3 DUP4 DUP1 SWAP3 PUSH32 0xD21220A700000000000000000000000000000000000000000000000000000000 DUP3 MSTORE GAS STATICCALL SWAP8 DUP9 ISZERO PUSH2 0x594 JUMPI DUP12 SWAP9 PUSH2 0x54B JUMPI JUMPDEST POP POP PUSH2 0x4C4 SWAP4 SWAP3 DUP8 SWAP3 DUP8 SWAP3 PUSH2 0x2CE9 JUMP JUMPDEST POP PUSH32 0x0 SWAP5 PUSH2 0x4F1 ADDRESS DUP8 PUSH2 0x4172 JUMP JUMPDEST SWAP2 DUP2 DUP4 LT PUSH2 0x521 JUMPI PUSH2 0x51E SWAP7 PUSH2 0x514 PUSH2 0x50D DUP5 PUSH2 0x519 SWAP7 PUSH2 0x2B19 JUMP JUMPDEST DUP9 DUP4 PUSH2 0x4129 JUMP JUMPDEST PUSH2 0x4129 JUMP JUMPDEST PUSH2 0x3F38 JUMP JUMPDEST DUP1 RETURN JUMPDEST PUSH1 0x4 PUSH1 0x40 MLOAD PUSH32 0x38040E8D00000000000000000000000000000000000000000000000000000000 DUP2 MSTORE REVERT JUMPDEST SWAP1 DUP1 SWAP3 SWAP4 SWAP9 POP DUP2 SWAP6 SWAP5 SWAP6 RETURNDATASIZE DUP4 GT PUSH2 0x58D JUMPI JUMPDEST PUSH2 0x567 DUP2 DUP4 PUSH2 0x28EB JUMP JUMPDEST DUP2 ADD SUB SLT PUSH2 0x589 JUMPI PUSH2 0x4C4 SWAP4 PUSH2 0x57D DUP8 SWAP3 PUSH2 0x2A9F JUMP JUMPDEST SWAP8 SWAP3 SWAP2 DUP2 SWAP5 SWAP6 POP PUSH2 0x4B4 JUMP JUMPDEST DUP10 DUP1 REVERT JUMPDEST POP RETURNDATASIZE PUSH2 0x55D JUMP JUMPDEST PUSH1 0x40 MLOAD RETURNDATASIZE DUP14 DUP3 RETURNDATACOPY RETURNDATASIZE SWAP1 REVERT JUMPDEST DUP3 DUP2 SWAP4 SWAP3 SWAP10 POP RETURNDATASIZE DUP4 GT PUSH2 0x5D7 JUMPI JUMPDEST PUSH2 0x5B7 DUP2 DUP4 PUSH2 0x28EB JUMP JUMPDEST DUP2 ADD SUB SLT PUSH2 0x5D3 JUMPI DUP8 PUSH2 0x5CB PUSH1 0x4 SWAP3 PUSH2 0x2A9F JUMP JUMPDEST SWAP8 SWAP1 SWAP2 PUSH2 0x475 JUMP JUMPDEST DUP11 DUP1 REVERT JUMPDEST POP RETURNDATASIZE PUSH2 0x5AD JUMP JUMPDEST SWAP1 SWAP3 POP PUSH2 0x603 SWAP2 POP PUSH1 0x40 RETURNDATASIZE PUSH1 0x40 GT PUSH2 0x60A JUMPI JUMPDEST PUSH2 0x5FB DUP2 DUP4 PUSH2 0x28EB JUMP JUMPDEST DUP2 ADD SWAP1 PUSH2 0x2B03 JUMP JUMPDEST SWAP2 CODESIZE PUSH2 0x436 JUMP JUMPDEST POP RETURNDATASIZE PUSH2 0x5F1 JUMP JUMPDEST PUSH1 0x40 MLOAD RETURNDATASIZE DUP12 DUP3 RETURNDATACOPY RETURNDATASIZE SWAP1 REVERT JUMPDEST DUP2 RETURNDATASIZE DUP4 GT PUSH2 0x643 JUMPI JUMPDEST PUSH2 0x62F DUP2 DUP4 PUSH2 0x28EB JUMP JUMPDEST DUP2 ADD SUB SLT PUSH2 0x63E JUMPI DUP6 CODESIZE PUSH2 0x3C1 JUMP JUMPDEST PUSH1 0x0 DUP1 REVERT JUMPDEST POP RETURNDATASIZE PUSH2 0x625 JUMP JUMPDEST PUSH1 0x40 MLOAD RETURNDATASIZE DUP13 DUP3 RETURNDATACOPY RETURNDATASIZE SWAP1 REVERT JUMPDEST SWAP3 DUP1 SWAP3 SWAP5 POP DUP4 SWAP2 POP RETURNDATASIZE DUP4 GT PUSH2 0x684 JUMPI JUMPDEST PUSH2 0x66F DUP2 DUP4 PUSH2 0x28EB JUMP JUMPDEST DUP2 ADD SUB SLT PUSH2 0x63E JUMPI MLOAD DUP11 SWAP2 DUP9 SWAP2 PUSH2 0x3AF PUSH2 0x30B JUMP JUMPDEST POP RETURNDATASIZE PUSH2 0x665 JUMP JUMPDEST PUSH1 0x40 MLOAD RETURNDATASIZE DUP6 DUP3 RETURNDATACOPY RETURNDATASIZE SWAP1 REVERT JUMPDEST DUP1 SWAP3 POP DUP9 DUP1 SWAP3 POP RETURNDATASIZE DUP4 GT PUSH2 0x6C0 JUMPI JUMPDEST PUSH2 0x6AF DUP2 DUP4 PUSH2 0x28EB JUMP JUMPDEST DUP2 ADD SUB SLT PUSH2 0x63E JUMPI DUP10 SWAP1 MLOAD CODESIZE PUSH2 0x2CC JUMP JUMPDEST POP RETURNDATASIZE PUSH2 0x6A5 JUMP JUMPDEST PUSH1 0x40 MLOAD RETURNDATASIZE DUP5 DUP3 RETURNDATACOPY RETURNDATASIZE SWAP1 REVERT JUMPDEST PUSH1 0x24 DUP10 PUSH32 0x4E487B7100000000000000000000000000000000000000000000000000000000 DUP2 MSTORE PUSH1 0x21 PUSH1 0x4 MSTORE REVERT JUMPDEST PUSH1 0x4 PUSH1 0x40 MLOAD PUSH32 0xE0FFCBFD00000000000000000000000000000000000000000000000000000000 DUP2 MSTORE REVERT JUMPDEST DUP13 DUP1 REVERT JUMPDEST DUP9 DUP1 REVERT JUMPDEST DUP8 DUP1 REVERT JUMPDEST DUP6 DUP1 REVERT JUMPDEST DUP1 REVERT JUMPDEST POP CALLVALUE PUSH2 0x739 JUMPI DUP1 PUSH32 0xFFFFFFFFFFFFFFFFFFFFFFFFFFFFFFFFFFFFFFFFFFFFFFFFFFFFFFFFFFFFFFFC CALLDATASIZE ADD SLT PUSH2 0x739 JUMPI PUSH1 0x20 PUSH1 0x40 MLOAD PUSH20 0xFFFFFFFFFFFFFFFFFFFFFFFFFFFFFFFFFFFFFFFF PUSH32 0x0 AND DUP2 MSTORE RETURN JUMPDEST POP CALLVALUE PUSH2 0x739 JUMPI DUP1 PUSH32 0xFFFFFFFFFFFFFFFFFFFFFFFFFFFFFFFFFFFFFFFFFFFFFFFFFFFFFFFFFFFFFFFC CALLDATASIZE ADD SLT PUSH2 0x739 JUMPI PUSH1 0x20 PUSH1 0x40 MLOAD PUSH20 0xFFFFFFFFFFFFFFFFFFFFFFFFFFFFFFFFFFFFFFFF PUSH32 0x0 AND DUP2 MSTORE RETURN JUMPDEST POP CALLVALUE PUSH2 0x739 JUMPI DUP1 PUSH32 0xFFFFFFFFFFFFFFFFFFFFFFFFFFFFFFFFFFFFFFFFFFFFFFFFFFFFFFFFFFFFFFFC CALLDATASIZE ADD SLT PUSH2 0x739 JUMPI PUSH1 0x20 PUSH1 0x40 MLOAD PUSH20 0xFFFFFFFFFFFFFFFFFFFFFFFFFFFFFFFFFFFFFFFF PUSH32 0x0 AND DUP2 MSTORE RETURN JUMPDEST POP CALLVALUE PUSH2 0x739 JUMPI DUP1 PUSH32 0xFFFFFFFFFFFFFFFFFFFFFFFFFFFFFFFFFFFFFFFFFFFFFFFFFFFFFFFFFFFFFFFC CALLDATASIZE ADD SLT PUSH2 0x739 JUMPI PUSH1 0x20 PUSH1 0x40 MLOAD PUSH20 0xA748D6573ACA135AF68F2635BE60CB80278BD855 DUP2 MSTORE RETURN JUMPDEST POP CALLVALUE PUSH2 0x739 JUMPI PUSH1 0x60 PUSH32 0xFFFFFFFFFFFFFFFFFFFFFFFFFFFFFFFFFFFFFFFFFFFFFFFFFFFFFFFFFFFFFFFC CALLDATASIZE ADD SLT PUSH2 0x739 JUMPI PUSH1 0x4 CALLDATALOAD PUSH20 0xFFFFFFFFFFFFFFFFFFFFFFFFFFFFFFFFFFFFFFFF SWAP2 DUP3 DUP3 AND DUP1 SWAP3 SUB PUSH2 0x63E JUMPI PUSH1 0x40 MLOAD PUSH32 0x18160DDD00000000000000000000000000000000000000000000000000000000 DUP2 MSTORE PUSH1 0x24 CALLDATALOAD SWAP2 PUSH1 0x20 SWAP2 PUSH1 0x44 CALLDATALOAD SWAP1 DUP4 DUP2 PUSH1 0x4 DUP2 DUP10 GAS STATICCALL SWAP1 DUP2 ISZERO PUSH2 0x68B JUMPI DUP4 SWAP2 PUSH2 0xC17 JUMPI JUMPDEST POP PUSH1 0x40 MLOAD SWAP2 PUSH32 0xC4A7761E00000000000000000000000000000000000000000000000000000000 DUP4 MSTORE PUSH1 0x40 DUP4 PUSH1 0x4 DUP2 DUP11 GAS STATICCALL SWAP2 DUP3 ISZERO PUSH2 0xC0C JUMPI DUP5 SWAP4 DUP6 SWAP4 PUSH2 0xBE5 JUMPI JUMPDEST POP PUSH1 0x40 MLOAD SWAP3 PUSH2 0x9C1 PUSH1 0x60 DUP6 PUSH2 0x28EB JUMP JUMPDEST PUSH1 0x2 DUP5 MSTORE DUP7 DUP5 ADD SWAP8 PUSH1 0x40 CALLDATASIZE DUP11 CALLDATACOPY PUSH1 0x40 MLOAD SWAP6 PUSH2 0x9DD PUSH1 0x60 DUP9 PUSH2 0x28EB JUMP JUMPDEST PUSH1 0x2 DUP8 MSTORE DUP9 DUP8 ADD SWAP11 PUSH1 0x40 CALLDATASIZE DUP14 CALLDATACOPY PUSH1 0x40 MLOAD PUSH32 0xDFE168100000000000000000000000000000000000000000000000000000000 DUP2 MSTORE DUP11 DUP2 PUSH1 0x4 DUP2 DUP6 GAS STATICCALL SWAP1 DUP2 ISZERO PUSH2 0x64A JUMPI SWAP2 DUP12 SWAP2 DUP16 SWAP4 DUP13 SWAP2 PUSH2 0xBA7 JUMPI JUMPDEST POP PUSH1 0x4 SWAP4 PUSH2 0xA39 DUP14 DUP13 PUSH2 0x2AC0 JUMP JUMPDEST SWAP2 AND SWAP1 MSTORE PUSH1 0x40 MLOAD SWAP3 DUP4 DUP1 SWAP3 PUSH32 0xD21220A700000000000000000000000000000000000000000000000000000000 DUP3 MSTORE GAS STATICCALL SWAP1 DUP2 ISZERO PUSH2 0x611 JUMPI DUP8 DUP15 SWAP2 DUP12 SWAP4 PUSH2 0xB47 JUMPI JUMPDEST POP SWAP13 SWAP12 SWAP10 SWAP11 SWAP9 SWAP8 SWAP7 PUSH2 0xAAB DUP8 PUSH2 0xAAB SWAP8 SWAP6 DUP4 SWAP10 SWAP8 SWAP6 PUSH2 0xAB0 SWAP6 PUSH2 0xAA1 PUSH1 0x1 PUSH2 0xAC0 SWAP15 PUSH2 0x2AC0 JUMP JUMPDEST SWAP2 AND SWAP1 MSTORE DUP6 PUSH2 0x404F JUMP JUMPDEST PUSH2 0x2B19 JUMP JUMPDEST PUSH2 0xABA DUP12 DUP10 PUSH2 0x2AC0 JUMP JUMPDEST MSTORE PUSH2 0x404F JUMP JUMPDEST PUSH2 0xACB PUSH1 0x1 DUP4 PUSH2 0x2AC0 JUMP JUMPDEST MSTORE PUSH1 0x40 MLOAD SWAP7 DUP8 SWAP7 PUSH1 0x40 DUP9 ADD SWAP1 PUSH1 0x40 DUP10 MSTORE MLOAD DUP1 SWAP2 MSTORE PUSH1 0x60 DUP9 ADD SWAP5 SWAP2 DUP7 SWAP1 JUMPDEST DUP3 DUP3 LT PUSH2 0xB2A JUMPI POP POP POP POP DUP6 DUP4 SUB DUP7 DUP4 ADD MSTORE MLOAD DUP1 DUP4 MSTORE SWAP2 DUP2 ADD SWAP4 SWAP3 JUMPDEST DUP3 DUP2 LT PUSH2 0xB13 JUMPI POP POP POP POP SUB SWAP1 RETURN JUMPDEST DUP4 MLOAD DUP6 MSTORE DUP7 SWAP6 POP SWAP4 DUP2 ADD SWAP4 SWAP3 DUP2 ADD SWAP3 PUSH1 0x1 ADD PUSH2 0xB04 JUMP JUMPDEST DUP4 MLOAD DUP2 AND DUP8 MSTORE DUP11 SWAP10 POP SWAP6 DUP6 ADD SWAP6 SWAP3 DUP6 ADD SWAP3 PUSH1 0x1 SWAP2 SWAP1 SWAP2 ADD SWAP1 PUSH2 0xAE8 JUMP JUMPDEST SWAP3 POP POP POP DUP10 DUP2 DUP2 RETURNDATASIZE DUP4 GT PUSH2 0xBA0 JUMPI JUMPDEST PUSH2 0xB60 DUP2 DUP4 PUSH2 0x28EB JUMP JUMPDEST DUP2 ADD SUB SLT PUSH2 0x72D JUMPI SWAP2 PUSH2 0xAB0 DUP7 PUSH2 0xAAB DUP16 SWAP8 PUSH2 0xAAB SWAP8 SWAP6 DUP12 PUSH2 0xAC0 SWAP12 SWAP11 PUSH2 0xAA1 PUSH1 0x1 PUSH2 0xB8C DUP7 SWAP13 PUSH2 0x2A9F JUMP JUMPDEST SWAP10 SWAP12 POP POP POP SWAP6 POP SWAP4 POP SWAP6 SWAP8 POP SWAP8 SWAP9 POP PUSH2 0xA7A JUMP JUMPDEST POP RETURNDATASIZE PUSH2 0xB56 JUMP JUMPDEST SWAP3 DUP1 SWAP3 SWAP5 POP DUP4 SWAP2 POP RETURNDATASIZE DUP4 GT PUSH2 0xBDE JUMPI JUMPDEST PUSH2 0xBC1 DUP2 DUP4 PUSH2 0x28EB JUMP JUMPDEST DUP2 ADD SUB SLT PUSH2 0x589 JUMPI PUSH1 0x4 SWAP2 DUP15 PUSH2 0xBD7 DUP14 SWAP4 PUSH2 0x2A9F JUMP JUMPDEST SWAP1 SWAP4 PUSH2 0xA2B JUMP JUMPDEST POP RETURNDATASIZE PUSH2 0xBB7 JUMP JUMPDEST SWAP1 SWAP3 POP PUSH2 0xC02 SWAP2 SWAP4 POP PUSH1 0x40 RETURNDATASIZE PUSH1 0x40 GT PUSH2 0x60A JUMPI PUSH2 0x5FB DUP2 DUP4 PUSH2 0x28EB JUMP JUMPDEST SWAP3 SWAP1 SWAP3 SWAP2 CODESIZE PUSH2 0x9B1 JUMP JUMPDEST PUSH1 0x40 MLOAD RETURNDATASIZE DUP7 DUP3 RETURNDATACOPY RETURNDATASIZE SWAP1 REVERT JUMPDEST SWAP1 POP DUP4 DUP2 DUP2 RETURNDATASIZE DUP4 GT PUSH2 0xC3D JUMPI JUMPDEST PUSH2 0xC2E DUP2 DUP4 PUSH2 0x28EB JUMP JUMPDEST DUP2 ADD SUB SLT PUSH2 0x63E JUMPI MLOAD CODESIZE PUSH2 0x970 JUMP JUMPDEST POP RETURNDATASIZE PUSH2 0xC24 JUMP JUMPDEST POP CALLVALUE PUSH2 0x739 JUMPI DUP1 PUSH32 0xFFFFFFFFFFFFFFFFFFFFFFFFFFFFFFFFFFFFFFFFFFFFFFFFFFFFFFFFFFFFFFFC CALLDATASIZE ADD SLT PUSH2 0x739 JUMPI PUSH1 0x20 PUSH1 0x40 MLOAD PUSH20 0x1111111254EEB25477B68FB85ED929F73A960582 DUP2 MSTORE RETURN JUMPDEST POP CALLVALUE PUSH2 0x739 JUMPI DUP1 PUSH32 0xFFFFFFFFFFFFFFFFFFFFFFFFFFFFFFFFFFFFFFFFFFFFFFFFFFFFFFFFFFFFFFFC CALLDATASIZE ADD SLT PUSH2 0x739 JUMPI PUSH1 0x40 MLOAD PUSH32 0xF851A44000000000000000000000000000000000000000000000000000000000 DUP2 MSTORE PUSH20 0xFFFFFFFFFFFFFFFFFFFFFFFFFFFFFFFFFFFFFFFF PUSH1 0x20 DUP3 PUSH1 0x4 DUP2 DUP5 PUSH32 0x0 AND GAS STATICCALL SWAP2 DUP3 ISZERO PUSH2 0x68B JUMPI DUP4 SWAP3 PUSH2 0xD80 JUMPI JUMPDEST POP DUP2 AND CALLER SUB PUSH2 0xD56 JUMPI SELFBALANCE DUP1 PUSH2 0xD47 JUMPI DUP3 DUP1 RETURN JUMPDEST PUSH2 0xD50 SWAP2 PUSH2 0x410B JUMP JUMPDEST CODESIZE DUP1 DUP3 DUP1 RETURN JUMPDEST PUSH1 0x4 PUSH1 0x40 MLOAD PUSH32 0x1A19B03600000000000000000000000000000000000000000000000000000000 DUP2 MSTORE REVERT JUMPDEST SWAP1 SWAP2 POP PUSH1 0x20 DUP2 RETURNDATASIZE DUP3 GT PUSH2 0xDB7 JUMPI JUMPDEST DUP2 PUSH2 0xD9B PUSH1 0x20 SWAP4 DUP4 PUSH2 0x28EB JUMP JUMPDEST DUP2 ADD SUB SLT PUSH2 0xDB3 JUMPI PUSH2 0xDAC SWAP1 PUSH2 0x2A9F JUMP JUMPDEST SWAP1 CODESIZE PUSH2 0xD34 JUMP JUMPDEST DUP3 DUP1 REVERT JUMPDEST RETURNDATASIZE SWAP2 POP PUSH2 0xD8E JUMP JUMPDEST POP CALLVALUE PUSH2 0x739 JUMPI PUSH2 0xDD0 CALLDATASIZE PUSH1 0x4 PUSH2 0x2A62 JUMP JUMPDEST PUSH2 0xDDC SWAP4 SWAP2 SWAP3 SWAP4 PUSH2 0x2C0F JUMP JUMPDEST DUP3 ADD SWAP1 PUSH1 0x20 SWAP4 DUP5 DUP5 DUP5 SUB SLT PUSH2 0x735 JUMPI DUP4 CALLDATALOAD PUSH8 0xFFFFFFFFFFFFFFFF SWAP5 DUP6 DUP3 GT PUSH2 0x731 JUMPI ADD SWAP3 PUSH2 0x100 SWAP3 DUP4 DUP6 DUP4 SUB SLT PUSH2 0x731 JUMPI PUSH2 0xE1A PUSH1 0x40 MLOAD SWAP5 DUP6 PUSH2 0x28EB JUMP JUMPDEST PUSH2 0xE23 DUP6 PUSH2 0x2A13 JUMP JUMPDEST DUP5 MSTORE PUSH2 0xE30 DUP8 DUP7 ADD PUSH2 0x2A13 JUMP JUMPDEST SWAP5 DUP8 DUP6 ADD SWAP6 DUP7 MSTORE PUSH2 0xE43 PUSH1 0x40 DUP3 ADD PUSH2 0x2A13 JUMP JUMPDEST PUSH1 0x40 DUP7 ADD MSTORE PUSH2 0xE54 PUSH1 0x60 DUP3 ADD PUSH2 0x2A13 JUMP JUMPDEST SWAP4 PUSH1 0x60 DUP7 ADD SWAP5 DUP6 MSTORE PUSH1 0x80 DUP7 ADD SWAP2 PUSH1 0x80 DUP2 ADD CALLDATALOAD DUP4 MSTORE PUSH1 0xA0 DUP8 ADD SWAP5 PUSH1 0xA0 DUP3 ADD CALLDATALOAD DUP7 MSTORE PUSH1 0xC0 DUP3 ADD CALLDATALOAD SWAP10 PUSH1 0x8 DUP12 LT ISZERO PUSH2 0x729 JUMPI PUSH1 0xC0 DUP10 ADD SWAP11 DUP12 MSTORE PUSH1 0xE0 DUP4 ADD CALLDATALOAD SWAP1 DUP2 GT PUSH2 0x729 JUMPI PUSH2 0xEA0 SWAP3 ADD PUSH2 0x2B55 JUMP JUMPDEST PUSH1 0xE0 DUP8 ADD SWAP1 DUP2 MSTORE SWAP6 PUSH20 0xFFFFFFFFFFFFFFFFFFFFFFFFFFFFFFFFFFFFFFFF SWAP4 DUP5 AND ADDRESS EQ PUSH2 0xEF0 JUMPI PUSH1 0x4 PUSH1 0x40 MLOAD PUSH32 0xA610E78800000000000000000000000000000000000000000000000000000000 DUP2 MSTORE REVERT JUMPDEST DUP4 DUP9 MLOAD AND CALLER SUB PUSH2 0x1511 JUMPI DUP4 DUP1 DUP1 SWAP3 MLOAD AND SWAP7 MLOAD AND SWAP8 MLOAD AND SWAP2 MLOAD SWAP4 MLOAD SWAP8 MLOAD SWAP6 PUSH1 0x8 DUP8 LT ISZERO PUSH2 0x14E4 JUMPI PUSH1 0x40 DUP11 DUP13 PUSH2 0xF78 SWAP4 MLOAD SWAP5 DUP2 DUP5 MLOAD SWAP4 PUSH2 0xF2F PUSH1 0x80 DUP7 PUSH2 0x28EB JUMP JUMPDEST DUP2 DUP6 MSTORE DUP5 ADD MSTORE DUP2 DUP5 DUP5 ADD MSTORE DUP2 PUSH1 0x60 DUP5 ADD MSTORE DUP4 MLOAD DUP1 SWAP6 DUP2 SWAP5 DUP3 SWAP4 PUSH32 0xA855987200000000000000000000000000000000000000000000000000000000 DUP5 MSTORE ADDRESS SWAP1 ADDRESS SWAP1 PUSH1 0x4 DUP7 ADD PUSH2 0x2CA0 JUMP JUMPDEST SUB SWAP2 DUP11 GAS CALL SWAP1 DUP2 ISZERO PUSH2 0x594 JUMPI DUP12 SWAP1 DUP13 SWAP3 PUSH2 0x14C2 JUMPI JUMPDEST POP PUSH1 0x40 MLOAD SWAP8 PUSH32 0xDFE168100000000000000000000000000000000000000000000000000000000 DUP10 MSTORE DUP13 DUP13 DUP11 PUSH1 0x4 DUP2 DUP13 GAS STATICCALL SWAP9 DUP10 ISZERO PUSH2 0x126F JUMPI DUP14 SWAP2 SWAP10 PUSH2 0x148B JUMPI JUMPDEST PUSH1 0x4 SWAP11 POP PUSH1 0x40 MLOAD SWAP11 DUP12 DUP1 SWAP3 PUSH32 0xD21220A700000000000000000000000000000000000000000000000000000000 DUP3 MSTORE GAS STATICCALL SWAP9 DUP10 ISZERO PUSH2 0x1480 JUMPI DUP14 SWAP10 PUSH2 0x143C JUMPI JUMPDEST POP PUSH2 0x101A SWAP4 SWAP3 DUP10 SWAP3 DUP10 SWAP3 PUSH2 0x2CE9 JUMP JUMPDEST POP PUSH32 0x0 SWAP3 PUSH2 0x1047 ADDRESS DUP6 PUSH2 0x4172 JUMP JUMPDEST SWAP8 DUP9 LT PUSH2 0x1412 JUMPI DUP10 SWAP4 PUSH1 0x40 MLOAD SWAP4 PUSH32 0xE99A6AC700000000000000000000000000000000000000000000000000000000 DUP6 MSTORE DUP11 DUP6 PUSH1 0x4 DUP2 DUP8 GAS STATICCALL SWAP5 DUP6 ISZERO PUSH2 0x1407 JUMPI DUP7 SWAP6 PUSH2 0x13D0 JUMPI JUMPDEST POP DUP1 DUP6 AND SWAP5 PUSH1 0x40 MLOAD SWAP6 PUSH32 0x7D6AF07900000000000000000000000000000000000000000000000000000000 DUP8 MSTORE DUP11 PUSH1 0x4 DUP9 ADD MSTORE PUSH1 0x40 DUP8 PUSH1 0x24 DUP2 DUP5 GAS STATICCALL SWAP1 DUP2 ISZERO PUSH2 0x13C5 JUMPI DUP13 DUP15 SWAP3 PUSH2 0x1190 SWAP10 DUP12 SWAP2 PUSH2 0x13A4 JUMPI JUMPDEST POP DUP1 SWAP2 LT PUSH1 0x0 EQ PUSH2 0x1399 JUMPI POP PUSH2 0x10F6 DUP14 DUP1 SWAP5 JUMPDEST DUP8 PUSH2 0x4129 JUMP JUMPDEST PUSH2 0x10FF DUP10 PUSH2 0x295B JUMP JUMPDEST SWAP1 PUSH2 0x110D PUSH1 0x40 MLOAD SWAP3 DUP4 PUSH2 0x28EB JUMP JUMPDEST DUP10 DUP3 MSTORE PUSH32 0xFFFFFFFFFFFFFFFFFFFFFFFFFFFFFFFFFFFFFFFFFFFFFFFFFFFFFFFFFFFFFFE0 PUSH2 0x113A DUP12 PUSH2 0x295B JUMP JUMPDEST ADD CALLDATASIZE DUP5 DUP5 ADD CALLDATACOPY DUP13 DUP11 PUSH1 0x40 MLOAD DUP1 SWAP12 DUP2 SWAP6 DUP3 SWAP5 PUSH32 0x1E7DCC0D00000000000000000000000000000000000000000000000000000000 DUP5 MSTORE PUSH1 0x4 DUP5 ADD MSTORE DUP4 PUSH1 0x24 DUP5 ADD MSTORE DUP4 PUSH1 0x44 DUP5 ADD MSTORE PUSH1 0x80 PUSH1 0x64 DUP5 ADD MSTORE PUSH1 0x84 DUP4 ADD SWAP1 PUSH2 0x29B8 JUMP JUMPDEST SUB SWAP3 GAS CALL SWAP1 DUP2 ISZERO PUSH2 0x138E JUMPI DUP13 SWAP7 DUP12 SWAP3 PUSH2 0x135F JUMPI JUMPDEST POP DUP1 DUP13 GT PUSH2 0x127C JUMPI JUMPDEST POP POP PUSH1 0x40 MLOAD PUSH32 0x23B872DD00000000000000000000000000000000000000000000000000000000 DUP2 MSTORE PUSH20 0xFFFFFFFFFFFFFFFFFFFFFFFFFFFFFFFFFFFFFFFF DUP1 DUP12 AND PUSH1 0x4 DUP4 ADD MSTORE DUP6 AND PUSH1 0x24 DUP3 ADD MSTORE PUSH1 0x44 DUP2 ADD SWAP4 SWAP1 SWAP4 MSTORE POP SWAP1 SWAP10 DUP11 SWAP3 SWAP2 POP DUP3 SWAP1 DUP2 PUSH1 0x64 DUP2 ADD JUMPDEST SUB SWAP3 GAS CALL DUP1 ISZERO PUSH2 0x126F JUMPI PUSH2 0x1233 JUMPI JUMPDEST POP SWAP1 PUSH2 0x122B SWAP3 SWAP2 PUSH2 0x3F38 JUMP JUMPDEST PUSH1 0x40 MLOAD SWAP1 DUP2 MSTORE RETURN JUMPDEST DUP6 DUP8 DUP2 RETURNDATASIZE DUP4 GT PUSH2 0x1268 JUMPI JUMPDEST PUSH2 0x1248 DUP2 DUP4 PUSH2 0x28EB JUMP JUMPDEST DUP2 ADD SUB SLT PUSH2 0x739 JUMPI POP PUSH2 0x125F PUSH2 0x122B SWAP5 SWAP6 SWAP7 PUSH2 0x3E60 JUMP JUMPDEST POP DUP6 SWAP5 SWAP4 PUSH2 0x121F JUMP JUMPDEST POP RETURNDATASIZE PUSH2 0x123E JUMP JUMPDEST POP PUSH1 0x40 MLOAD SWAP1 RETURNDATASIZE SWAP1 DUP3 RETURNDATACOPY RETURNDATASIZE SWAP1 REVERT JUMPDEST PUSH2 0x128D SWAP1 DUP13 SWAP9 SWAP6 SWAP8 SWAP4 SWAP5 SWAP7 SWAP9 PUSH2 0x2B19 JUMP JUMPDEST SWAP5 PUSH32 0x0 DUP5 AND SWAP4 DUP2 AND DUP5 SUB PUSH2 0x1345 JUMPI POP POP POP DUP1 EXTCODESIZE ISZERO PUSH2 0x1341 JUMPI DUP2 SWAP1 PUSH1 0x24 PUSH1 0x40 MLOAD DUP1 SWAP5 DUP2 SWAP4 PUSH32 0x2E1A7D4D00000000000000000000000000000000000000000000000000000000 DUP4 MSTORE DUP8 PUSH1 0x4 DUP5 ADD MSTORE GAS CALL DUP1 ISZERO PUSH2 0x64A JUMPI PUSH2 0x1321 JUMPI JUMPDEST POP DUP9 SWAP3 DUP9 SWAP3 PUSH2 0x1317 PUSH2 0x1210 SWAP4 DUP10 PUSH2 0x410B JUMP JUMPDEST SWAP1 SWAP2 CODESIZE DUP9 DUP2 PUSH2 0x11AD JUMP JUMPDEST SWAP3 DUP9 SWAP3 DUP11 PUSH2 0x1336 PUSH2 0x1317 SWAP13 PUSH2 0x1210 SWAP6 SWAP8 PUSH2 0x28EB JUMP JUMPDEST SWAP11 POP SWAP3 POP SWAP3 SWAP1 PUSH2 0x1305 JUMP JUMPDEST POP DUP1 REVERT JUMPDEST PUSH2 0x135A SWAP3 SWAP7 SWAP4 POP SWAP1 PUSH2 0x1210 SWAP6 SWAP2 SWAP8 SWAP5 SWAP8 PUSH2 0x4129 JUMP JUMPDEST PUSH2 0x1317 JUMP JUMPDEST SWAP1 SWAP7 DUP1 SWAP3 POP RETURNDATASIZE DUP4 GT PUSH2 0x1387 JUMPI JUMPDEST PUSH2 0x1376 DUP2 DUP4 PUSH2 0x28EB JUMP JUMPDEST DUP2 ADD SUB SLT PUSH2 0x735 JUMPI DUP9 DUP12 SWAP6 CODESIZE PUSH2 0x11A4 JUMP JUMPDEST POP RETURNDATASIZE PUSH2 0x136C JUMP JUMPDEST PUSH1 0x40 MLOAD RETURNDATASIZE DUP10 DUP3 RETURNDATACOPY RETURNDATASIZE SWAP1 REVERT JUMPDEST PUSH2 0x10F6 SWAP1 DUP1 SWAP5 PUSH2 0x10F0 JUMP JUMPDEST PUSH2 0x13BD SWAP2 POP PUSH1 0x40 RETURNDATASIZE PUSH1 0x40 GT PUSH2 0x60A JUMPI PUSH2 0x5FB DUP2 DUP4 PUSH2 0x28EB JUMP JUMPDEST SWAP1 POP CODESIZE PUSH2 0x10DD JUMP JUMPDEST PUSH1 0x40 MLOAD RETURNDATASIZE DUP11 DUP3 RETURNDATACOPY RETURNDATASIZE SWAP1 REVERT JUMPDEST SWAP1 SWAP5 POP DUP11 DUP2 DUP2 RETURNDATASIZE DUP4 GT PUSH2 0x1400 JUMPI JUMPDEST PUSH2 0x13E8 DUP2 DUP4 PUSH2 0x28EB JUMP JUMPDEST DUP2 ADD SUB SLT PUSH2 0x735 JUMPI PUSH2 0x13F9 SWAP1 PUSH2 0x2A9F JUMP JUMPDEST SWAP4 CODESIZE PUSH2 0x108D JUMP JUMPDEST POP RETURNDATASIZE PUSH2 0x13DE JUMP JUMPDEST PUSH1 0x40 MLOAD RETURNDATASIZE DUP9 DUP3 RETURNDATACOPY RETURNDATASIZE SWAP1 REVERT JUMPDEST PUSH1 0x4 PUSH1 0x40 MLOAD PUSH32 0xB2A4CAEB00000000000000000000000000000000000000000000000000000000 DUP2 MSTORE REVERT JUMPDEST SWAP1 SWAP2 SWAP9 POP DUP12 DUP2 DUP2 SWAP6 SWAP5 SWAP6 RETURNDATASIZE DUP4 GT PUSH2 0x1479 JUMPI JUMPDEST PUSH2 0x1458 DUP2 DUP4 PUSH2 0x28EB JUMP JUMPDEST DUP2 ADD SUB SLT PUSH2 0x729 JUMPI PUSH2 0x101A SWAP4 PUSH2 0x146E DUP10 SWAP3 PUSH2 0x2A9F JUMP JUMPDEST SWAP10 SWAP3 SWAP2 POP SWAP3 SWAP4 PUSH2 0x100B JUMP JUMPDEST POP RETURNDATASIZE PUSH2 0x144E JUMP JUMPDEST PUSH1 0x40 MLOAD RETURNDATASIZE DUP16 DUP3 RETURNDATACOPY RETURNDATASIZE SWAP1 REVERT JUMPDEST SWAP9 POP DUP10 DUP2 RETURNDATASIZE DUP4 GT PUSH2 0x14BB JUMPI JUMPDEST PUSH2 0x14A1 DUP2 DUP4 PUSH2 0x28EB JUMP JUMPDEST DUP2 ADD SUB SLT PUSH2 0x729 JUMPI DUP12 PUSH2 0x14B5 PUSH1 0x4 SWAP11 PUSH2 0x2A9F JUMP JUMPDEST SWAP9 PUSH2 0xFCD JUMP JUMPDEST POP RETURNDATASIZE PUSH2 0x1497 JUMP JUMPDEST SWAP1 POP PUSH2 0x14DD SWAP2 POP PUSH1 0x40 RETURNDATASIZE PUSH1 0x40 GT PUSH2 0x60A JUMPI PUSH2 0x5FB DUP2 DUP4 PUSH2 0x28EB JUMP JUMPDEST SWAP1 CODESIZE PUSH2 0xF8D JUMP JUMPDEST PUSH1 0x24 DUP12 PUSH32 0x4E487B7100000000000000000000000000000000000000000000000000000000 DUP2 MSTORE PUSH1 0x21 PUSH1 0x4 MSTORE REVERT JUMPDEST PUSH1 0x4 PUSH1 0x40 MLOAD PUSH32 0xD0E9C9F600000000000000000000000000000000000000000000000000000000 DUP2 MSTORE REVERT JUMPDEST POP CALLVALUE PUSH2 0x739 JUMPI PUSH2 0x154C CALLDATASIZE PUSH1 0x4 PUSH2 0x2A62 JUMP JUMPDEST PUSH2 0x1557 SWAP4 SWAP3 SWAP4 PUSH2 0x2C0F JUMP JUMPDEST DUP2 ADD SWAP4 PUSH1 0x20 DUP3 DUP7 SUB SLT PUSH2 0x739 JUMPI DUP2 CALLDATALOAD PUSH8 0xFFFFFFFFFFFFFFFF SWAP3 DUP4 DUP3 GT PUSH2 0xDB3 JUMPI ADD SWAP2 PUSH1 0xE0 DUP4 DUP8 SUB SLT PUSH2 0x1341 JUMPI PUSH1 0x40 MLOAD SWAP6 PUSH2 0x1592 PUSH1 0xE0 DUP9 PUSH2 0x28EB JUMP JUMPDEST PUSH2 0x159B DUP5 PUSH2 0x2A13 JUMP JUMPDEST DUP8 MSTORE PUSH2 0x15A9 PUSH1 0x20 DUP6 ADD PUSH2 0x2A13 JUMP JUMPDEST SWAP7 PUSH1 0x20 DUP2 ADD SWAP8 DUP9 MSTORE PUSH2 0x15BD PUSH1 0x40 DUP7 ADD PUSH2 0x2A13 JUMP JUMPDEST PUSH1 0x40 DUP3 ADD SWAP1 DUP2 MSTORE PUSH2 0x15D0 PUSH1 0x60 DUP8 ADD PUSH2 0x2A13 JUMP JUMPDEST SWAP3 PUSH1 0x60 DUP4 ADD SWAP4 DUP5 MSTORE PUSH1 0x80 DUP4 ADD SWAP5 PUSH1 0x80 DUP9 ADD CALLDATALOAD DUP7 MSTORE PUSH1 0xA0 DUP9 ADD CALLDATALOAD SWAP8 PUSH1 0x8 DUP10 LT ISZERO PUSH2 0x731 JUMPI PUSH1 0xA0 DUP6 ADD SWAP9 DUP10 MSTORE PUSH1 0xC0 DUP2 ADD CALLDATALOAD SWAP2 DUP3 GT PUSH2 0x731 JUMPI PUSH2 0x1611 SWAP3 SWAP2 ADD PUSH2 0x2B55 JUMP JUMPDEST PUSH1 0xC0 DUP4 ADD SWAP1 DUP2 MSTORE SWAP7 PUSH20 0xFFFFFFFFFFFFFFFFFFFFFFFFFFFFFFFFFFFFFFFF AND ADDRESS EQ PUSH2 0x165F JUMPI PUSH1 0x4 PUSH1 0x40 MLOAD PUSH32 0xA610E78800000000000000000000000000000000000000000000000000000000 DUP2 MSTORE REVERT JUMPDEST MLOAD PUSH20 0xFFFFFFFFFFFFFFFFFFFFFFFFFFFFFFFFFFFFFFFF AND CALLER SUB PUSH2 0x6FF JUMPI PUSH20 0xFFFFFFFFFFFFFFFFFFFFFFFFFFFFFFFFFFFFFFFF DUP1 DUP1 SWAP3 MLOAD AND SWAP3 MLOAD AND SWAP8 MLOAD AND SWAP2 MLOAD SWAP4 MLOAD SWAP5 PUSH1 0x8 DUP7 LT ISZERO PUSH2 0x237A JUMPI MLOAD SWAP4 PUSH1 0x40 MLOAD SWAP5 PUSH32 0xDFE168100000000000000000000000000000000000000000000000000000000 DUP7 MSTORE PUSH1 0x20 DUP7 PUSH1 0x4 DUP2 DUP7 GAS STATICCALL SWAP6 DUP7 ISZERO PUSH2 0x1E2D JUMPI DUP6 SWAP7 PUSH2 0x233E JUMPI JUMPDEST POP PUSH1 0x40 MLOAD SWAP7 PUSH32 0xD21220A700000000000000000000000000000000000000000000000000000000 DUP9 MSTORE PUSH1 0x20 DUP9 PUSH1 0x4 DUP2 DUP8 GAS STATICCALL SWAP8 DUP9 ISZERO PUSH2 0x1407 JUMPI DUP7 SWAP9 PUSH2 0x2302 JUMPI JUMPDEST POP PUSH1 0x40 MLOAD SWAP9 PUSH32 0x86A2908100000000000000000000000000000000000000000000000000000000 DUP11 MSTORE PUSH1 0x20 DUP11 PUSH1 0x4 DUP2 DUP9 GAS STATICCALL SWAP10 DUP11 ISZERO PUSH2 0x138E JUMPI DUP8 SWAP11 PUSH2 0x22C2 JUMPI JUMPDEST POP DUP9 PUSH1 0x4 DUP4 EQ DUP9 DUP2 ISZERO PUSH2 0x22B6 JUMPI JUMPDEST DUP2 ISZERO PUSH2 0x2277 JUMPI JUMPDEST POP ISZERO PUSH2 0x21BF JUMPI POP PUSH1 0x40 MLOAD PUSH32 0x313CE56700000000000000000000000000000000000000000000000000000000 DUP2 MSTORE PUSH1 0x20 DUP2 PUSH1 0x4 DUP2 PUSH20 0xFFFFFFFFFFFFFFFFFFFFFFFFFFFFFFFFFFFFFFFF DUP14 AND GAS STATICCALL DUP1 ISZERO PUSH2 0x13C5 JUMPI DUP9 SWAP1 PUSH2 0x2184 JUMPI JUMPDEST PUSH2 0x17E0 SWAP2 POP PUSH2 0x3E40 JUMP JUMPDEST PUSH1 0x40 MLOAD PUSH32 0x313CE56700000000000000000000000000000000000000000000000000000000 DUP2 MSTORE PUSH1 0x20 DUP2 PUSH1 0x4 DUP2 PUSH20 0xFFFFFFFFFFFFFFFFFFFFFFFFFFFFFFFFFFFFFFFF DUP16 AND GAS STATICCALL DUP1 ISZERO PUSH2 0x611 JUMPI DUP10 SWAP1 PUSH2 0x2149 JUMPI JUMPDEST PUSH2 0x183C SWAP2 POP PUSH2 0x3E40 JUMP JUMPDEST SWAP1 PUSH2 0x1847 DUP3 DUP3 PUSH2 0x400C JUMP JUMPDEST PUSH5 0xE8D4A51000 DUP2 GT ISZERO PUSH2 0x2141 JUMPI PUSH3 0xF4240 SWAP1 JUMPDEST PUSH1 0x40 MLOAD PUSH32 0x16F0115B00000000000000000000000000000000000000000000000000000000 DUP2 MSTORE PUSH1 0x20 DUP2 PUSH1 0x4 DUP2 DUP14 GAS STATICCALL SWAP1 DUP2 ISZERO PUSH2 0x20E4 JUMPI DUP13 SWAP2 PUSH2 0x20EF JUMPI JUMPDEST POP PUSH1 0xE0 PUSH20 0xFFFFFFFFFFFFFFFFFFFFFFFFFFFFFFFFFFFFFFFF SWAP2 PUSH1 0x4 PUSH1 0x40 MLOAD DUP1 SWAP5 DUP2 SWAP4 PUSH32 0xE76C01E400000000000000000000000000000000000000000000000000000000 DUP4 MSTORE AND GAS STATICCALL SWAP1 DUP2 ISZERO PUSH2 0x20E4 JUMPI DUP13 SWAP2 PUSH2 0x2017 JUMPI JUMPDEST POP PUSH32 0xFFFFFFFFFFFFFFFFFFFFFFFFFFFFFFFFFFFFFFFFFFFFFFFFFFFFFFFFFFFFFFFF PUSH1 0x2 PUSH20 0xFFFFFFFFFFFFFFFFFFFFFFFFFFFFFFFFFFFFFFFF PUSH2 0x1930 SWAP4 AND PUSH2 0x3E6D JUMP JUMPDEST SWAP1 PUSH3 0xFFFFFF DUP4 AND ISZERO PUSH2 0x1FEA JUMPI SWAP3 PUSH2 0x1967 DUP16 SWAP6 SWAP5 SWAP4 PUSH2 0x195F PUSH1 0x40 SWAP5 PUSH2 0x19DF SWAP7 PUSH3 0xFFFFFF DUP1 DUP6 AND SWAP5 AND SWAP1 DIV SWAP1 PUSH2 0x3F25 JUMP JUMPDEST PUSH1 0xC0 SHR PUSH2 0x3F25 JUMP JUMPDEST SWAP5 DUP14 PUSH20 0xFFFFFFFFFFFFFFFFFFFFFFFFFFFFFFFFFFFFFFFF DUP13 DUP6 MLOAD SWAP7 DUP8 SWAP6 DUP7 SWAP5 DUP6 SWAP4 PUSH32 0x5CCFB71D00000000000000000000000000000000000000000000000000000000 DUP6 MSTORE PUSH1 0x4 DUP6 ADD PUSH1 0x40 SWAP2 SWAP5 SWAP4 SWAP3 SWAP5 PUSH1 0x60 DUP3 ADD SWAP6 PUSH20 0xFFFFFFFFFFFFFFFFFFFFFFFFFFFFFFFFFFFFFFFF DUP1 SWAP3 AND DUP4 MSTORE AND PUSH1 0x20 DUP3 ADD MSTORE ADD MSTORE JUMP JUMPDEST SUB SWAP3 AND GAS STATICCALL SWAP1 DUP2 ISZERO PUSH2 0x64A JUMPI SWAP2 PUSH2 0x1A06 PUSH2 0x1A0E SWAP3 DUP13 PUSH2 0x1A13 SWAP7 SWAP6 DUP2 SWAP3 PUSH2 0x1FC8 JUMPI JUMPDEST POP PUSH2 0x2CDC JUMP JUMPDEST PUSH1 0x1 SHR PUSH2 0x400C JUMP JUMPDEST PUSH2 0x400C JUMP JUMPDEST SWAP1 PUSH8 0xDE0B6B3A7640000 SWAP2 DUP3 DUP2 ADD DUP1 SWAP2 GT PUSH2 0x1F6E JUMPI DUP1 ISZERO PUSH2 0x1F9B JUMPI PUSH15 0xC097CE7BC90715B34B9F1000000000 DIV DUP1 DUP4 SUB SWAP3 DUP4 GT PUSH2 0x1F6E JUMPI DUP2 PUSH2 0x1A59 DUP13 SWAP5 SWAP4 PUSH2 0x1A5F SWAP4 PUSH2 0x3FC3 JUMP JUMPDEST SWAP3 PUSH2 0x3FC3 JUMP JUMPDEST SWAP3 PUSH32 0x0 SWAP2 DUP10 PUSH20 0xFFFFFFFFFFFFFFFFFFFFFFFFFFFFFFFFFFFFFFFF DUP5 AND SWAP2 DUP13 DUP6 DUP5 PUSH20 0xFFFFFFFFFFFFFFFFFFFFFFFFFFFFFFFFFFFFFFFF DUP4 AND SUB PUSH2 0x1F50 JUMPI JUMPDEST POP POP POP POP PUSH20 0xFFFFFFFFFFFFFFFFFFFFFFFFFFFFFFFFFFFFFFFF DUP5 AND SUB PUSH2 0x1F30 JUMPI JUMPDEST POP POP POP POP POP JUMPDEST PUSH2 0x1AEC ADDRESS DUP7 PUSH2 0x4172 JUMP JUMPDEST PUSH2 0x1AF6 ADDRESS DUP9 PUSH2 0x4172 JUMP JUMPDEST SWAP8 PUSH2 0x1B02 DUP3 DUP6 DUP10 PUSH2 0x3B70 JUMP JUMPDEST PUSH2 0x1B0D DUP10 DUP6 DUP11 PUSH2 0x3B70 JUMP JUMPDEST PUSH1 0x40 DUP1 MLOAD PUSH32 0x5CCFB71D00000000000000000000000000000000000000000000000000000000 DUP2 MSTORE PUSH20 0xFFFFFFFFFFFFFFFFFFFFFFFFFFFFFFFFFFFFFFFF DUP1 DUP8 AND PUSH1 0x4 DUP4 ADD MSTORE DUP10 AND PUSH1 0x24 DUP3 ADD MSTORE PUSH1 0x44 DUP2 ADD DUP5 SWAP1 MSTORE SWAP1 DUP2 DUP1 PUSH1 0x64 DUP2 ADD SUB DUP2 PUSH20 0xFFFFFFFFFFFFFFFFFFFFFFFFFFFFFFFFFFFFFFFF DUP7 AND GAS STATICCALL SWAP1 DUP2 ISZERO PUSH2 0x138E JUMPI DUP8 SWAP1 DUP9 SWAP3 PUSH2 0x1F0E JUMPI JUMPDEST POP DUP11 LT PUSH2 0x1E54 JUMPI JUMPDEST DUP1 DUP11 GT PUSH2 0x1E38 JUMPI JUMPDEST POP PUSH20 0xFFFFFFFFFFFFFFFFFFFFFFFFFFFFFFFFFFFFFFFF SWAP3 SWAP2 PUSH1 0x20 SWAP2 PUSH2 0x1C2A PUSH1 0x40 MLOAD PUSH2 0x1BCD PUSH1 0x80 DUP3 PUSH2 0x28EB JUMP JUMPDEST DUP10 DUP2 MSTORE DUP10 DUP6 DUP3 ADD MSTORE DUP10 PUSH1 0x40 DUP3 ADD MSTORE DUP10 PUSH1 0x60 DUP3 ADD MSTORE PUSH1 0x40 MLOAD SWAP13 DUP14 SWAP5 PUSH32 0x8E3C92E400000000000000000000000000000000000000000000000000000000 DUP7 MSTORE PUSH1 0x4 DUP7 ADD MSTORE PUSH1 0x24 DUP6 ADD MSTORE ADDRESS PUSH1 0x44 DUP6 ADD MSTORE DUP8 PUSH1 0x64 DUP6 ADD MSTORE PUSH1 0x84 DUP5 ADD SWAP1 PUSH2 0x2C78 JUMP JUMPDEST DUP2 DUP9 PUSH2 0x104 SWAP7 DUP8 SWAP4 AND GAS CALL SWAP8 DUP9 ISZERO PUSH2 0x1E2D JUMPI DUP6 SWAP9 PUSH2 0x1DF5 JUMPI JUMPDEST POP DUP8 LT PUSH2 0x1DCC JUMPI DUP3 PUSH2 0x1C75 DUP9 PUSH2 0x120 SWAP6 DUP6 PUSH2 0x1C70 DUP4 PUSH15 0x22D473030F116DDEE9F6B43AC78BA3 PUSH1 0x20 SWAP10 PUSH2 0x3B70 JUMP JUMPDEST PUSH2 0x3CE1 JUMP JUMPDEST DUP9 DUP6 DUP10 PUSH2 0x1D84 PUSH2 0x1C84 DUP4 PUSH2 0x295B JUMP JUMPDEST PUSH2 0x1C91 PUSH1 0x40 MLOAD SWAP2 DUP3 PUSH2 0x28EB JUMP JUMPDEST DUP4 DUP2 MSTORE PUSH32 0xFFFFFFFFFFFFFFFFFFFFFFFFFFFFFFFFFFFFFFFFFFFFFFFFFFFFFFFFFFFFFFE0 PUSH2 0x1CBE DUP6 PUSH2 0x295B JUMP JUMPDEST ADD CALLDATASIZE DUP10 DUP4 ADD CALLDATACOPY PUSH1 0x40 MLOAD SWAP9 DUP10 SWAP8 DUP9 SWAP7 DUP8 SWAP6 PUSH32 0x8808E71C00000000000000000000000000000000000000000000000000000000 DUP8 MSTORE PUSH1 0x4 DUP8 ADD MSTORE PUSH1 0x24 DUP7 ADD MSTORE PUSH20 0xFFFFFFFFFFFFFFFFFFFFFFFFFFFFFFFFFFFFFFFF DUP7 SLOAD AND PUSH1 0x44 DUP7 ADD MSTORE PUSH1 0x1 SLOAD PUSH20 0xFFFFFFFFFFFFFFFFFFFFFFFFFFFFFFFFFFFFFFFF DUP2 AND PUSH1 0x64 DUP8 ADD MSTORE PUSH6 0xFFFFFFFFFFFF DUP2 PUSH1 0xA0 SHR AND PUSH1 0x84 DUP8 ADD MSTORE PUSH1 0xD0 SHR PUSH1 0xA4 DUP7 ADD MSTORE PUSH20 0xFFFFFFFFFFFFFFFFFFFFFFFFFFFFFFFFFFFFFFFF PUSH1 0x2 SLOAD AND PUSH1 0xC4 DUP7 ADD MSTORE PUSH1 0x3 SLOAD PUSH1 0xE4 DUP7 ADD MSTORE DUP5 ADD MSTORE PUSH2 0x124 DUP4 ADD SWAP1 PUSH2 0x29B8 JUMP JUMPDEST SUB SWAP3 GAS CALL DUP1 ISZERO PUSH2 0x6C7 JUMPI PUSH2 0x1DA1 JUMPI JUMPDEST PUSH1 0x20 DUP6 PUSH2 0x122B DUP9 DUP8 DUP8 PUSH2 0x3F38 JUMP JUMPDEST PUSH1 0x20 SWAP1 DUP2 RETURNDATASIZE DUP4 GT PUSH2 0x1DC5 JUMPI JUMPDEST PUSH2 0x1DB7 DUP2 DUP4 PUSH2 0x28EB JUMP JUMPDEST DUP2 ADD SUB SLT PUSH2 0x739 JUMPI DUP1 PUSH2 0x1D93 JUMP JUMPDEST POP RETURNDATASIZE PUSH2 0x1DAD JUMP JUMPDEST PUSH1 0x4 PUSH1 0x40 MLOAD PUSH31 0xBF876800000000000000000000000000000000000000000000000000000000 DUP2 MSTORE REVERT JUMPDEST SWAP1 SWAP8 POP PUSH1 0x20 DUP2 RETURNDATASIZE PUSH1 0x20 GT PUSH2 0x1E25 JUMPI JUMPDEST DUP2 PUSH2 0x1E11 PUSH1 0x20 SWAP4 DUP4 PUSH2 0x28EB JUMP JUMPDEST DUP2 ADD SUB SLT PUSH2 0x1E21 JUMPI MLOAD SWAP7 CODESIZE PUSH2 0x1C43 JUMP JUMPDEST DUP5 DUP1 REVERT JUMPDEST RETURNDATASIZE SWAP2 POP PUSH2 0x1E04 JUMP JUMPDEST PUSH1 0x40 MLOAD RETURNDATASIZE DUP8 DUP3 RETURNDATACOPY RETURNDATASIZE SWAP1 REVERT JUMPDEST SWAP9 POP PUSH20 0xFFFFFFFFFFFFFFFFFFFFFFFFFFFFFFFFFFFFFFFF PUSH2 0x1BA1 JUMP JUMPDEST PUSH1 0x40 DUP1 MLOAD PUSH32 0x5CCFB71D00000000000000000000000000000000000000000000000000000000 DUP2 MSTORE PUSH20 0xFFFFFFFFFFFFFFFFFFFFFFFFFFFFFFFFFFFFFFFF DUP1 DUP9 AND PUSH1 0x4 DUP4 ADD MSTORE DUP12 AND PUSH1 0x24 DUP3 ADD MSTORE PUSH1 0x44 DUP2 ADD DUP13 SWAP1 MSTORE SWAP1 DUP2 DUP1 PUSH1 0x64 DUP2 ADD SUB DUP2 PUSH20 0xFFFFFFFFFFFFFFFFFFFFFFFFFFFFFFFFFFFFFFFF DUP8 AND GAS STATICCALL SWAP1 DUP2 ISZERO PUSH2 0x13C5 JUMPI DUP9 SWAP2 PUSH2 0x1EED JUMPI JUMPDEST POP DUP1 DUP5 GT PUSH2 0x1EE5 JUMPI JUMPDEST POP PUSH2 0x1B99 JUMP JUMPDEST SWAP3 POP CODESIZE PUSH2 0x1EDF JUMP JUMPDEST PUSH2 0x1F06 SWAP2 POP PUSH1 0x40 RETURNDATASIZE PUSH1 0x40 GT PUSH2 0x60A JUMPI PUSH2 0x5FB DUP2 DUP4 PUSH2 0x28EB JUMP JUMPDEST SWAP1 POP CODESIZE PUSH2 0x1ED6 JUMP JUMPDEST SWAP1 POP PUSH2 0x1F29 SWAP2 POP PUSH1 0x40 RETURNDATASIZE PUSH1 0x40 GT PUSH2 0x60A JUMPI PUSH2 0x5FB DUP2 DUP4 PUSH2 0x28EB JUMP JUMPDEST SWAP1 CODESIZE PUSH2 0x1B91 JUMP JUMPDEST PUSH2 0x1F3E PUSH1 0x1 PUSH2 0x1F45 SWAP7 PUSH2 0x2AC0 JUMP JUMPDEST MLOAD SWAP1 PUSH2 0x2DBB JUMP JUMPDEST POP CODESIZE DUP1 DUP8 DUP2 DUP1 PUSH2 0x1ADC JUMP JUMPDEST PUSH2 0x1F5D PUSH2 0x1F64 SWAP5 DUP12 PUSH2 0x2AC0 JUMP JUMPDEST MLOAD DUP7 PUSH2 0x2DBB JUMP JUMPDEST POP DUP10 CODESIZE DUP13 DUP6 PUSH2 0x1ABB JUMP JUMPDEST PUSH1 0x24 DUP10 PUSH32 0x4E487B7100000000000000000000000000000000000000000000000000000000 DUP2 MSTORE PUSH1 0x11 PUSH1 0x4 MSTORE REVERT JUMPDEST PUSH1 0x24 DUP10 PUSH32 0x4E487B7100000000000000000000000000000000000000000000000000000000 DUP2 MSTORE PUSH1 0x12 PUSH1 0x4 MSTORE REVERT JUMPDEST SWAP1 POP PUSH2 0x1FE3 SWAP2 POP PUSH1 0x40 RETURNDATASIZE PUSH1 0x40 GT PUSH2 0x60A JUMPI PUSH2 0x5FB DUP2 DUP4 PUSH2 0x28EB JUMP JUMPDEST SWAP1 CODESIZE PUSH2 0x1A00 JUMP JUMPDEST PUSH1 0x24 DUP13 PUSH32 0x4E487B7100000000000000000000000000000000000000000000000000000000 DUP2 MSTORE PUSH1 0x12 PUSH1 0x4 MSTORE REVERT JUMPDEST SWAP1 POP PUSH1 0xE0 DUP2 RETURNDATASIZE PUSH1 0xE0 GT PUSH2 0x20DC JUMPI JUMPDEST DUP2 PUSH2 0x2032 PUSH1 0xE0 SWAP4 DUP4 PUSH2 0x28EB JUMP JUMPDEST DUP2 ADD SUB SLT PUSH2 0x20D8 JUMPI PUSH2 0x2043 DUP2 PUSH2 0x2A9F JUMP JUMPDEST SWAP1 PUSH1 0x20 DUP2 ADD MLOAD DUP1 PUSH1 0x2 SIGNEXTEND SUB PUSH2 0x729 JUMPI PUSH1 0x2 PUSH20 0xFFFFFFFFFFFFFFFFFFFFFFFFFFFFFFFFFFFFFFFF PUSH2 0x1930 SWAP4 PUSH2 0x20CE PUSH1 0xC0 DUP6 PUSH2 0x20A0 PUSH1 0x40 PUSH32 0xFFFFFFFFFFFFFFFFFFFFFFFFFFFFFFFFFFFFFFFFFFFFFFFFFFFFFFFFFFFFFFFF SWAP9 ADD PUSH2 0x3E51 JUMP JUMPDEST POP PUSH2 0x20AD PUSH1 0x60 DUP3 ADD PUSH2 0x3E51 JUMP JUMPDEST POP PUSH2 0x20BA PUSH1 0x80 DUP3 ADD PUSH2 0x3E32 JUMP JUMPDEST POP PUSH2 0x20C7 PUSH1 0xA0 DUP3 ADD PUSH2 0x3E32 JUMP JUMPDEST POP ADD PUSH2 0x3E60 JUMP JUMPDEST POP SWAP4 POP POP POP PUSH2 0x18ED JUMP JUMPDEST DUP12 DUP1 REVERT JUMPDEST RETURNDATASIZE SWAP2 POP PUSH2 0x2025 JUMP JUMPDEST PUSH1 0x40 MLOAD RETURNDATASIZE DUP15 DUP3 RETURNDATACOPY RETURNDATASIZE SWAP1 REVERT JUMPDEST SWAP1 POP PUSH1 0x20 DUP2 RETURNDATASIZE PUSH1 0x20 GT PUSH2 0x2139 JUMPI JUMPDEST DUP2 PUSH2 0x210A PUSH1 0x20 SWAP4 DUP4 PUSH2 0x28EB JUMP JUMPDEST DUP2 ADD SUB SLT PUSH2 0x20D8 JUMPI PUSH1 0xE0 PUSH2 0x2132 PUSH20 0xFFFFFFFFFFFFFFFFFFFFFFFFFFFFFFFFFFFFFFFF SWAP3 PUSH2 0x2A9F JUMP JUMPDEST SWAP2 POP PUSH2 0x1897 JUMP JUMPDEST RETURNDATASIZE SWAP2 POP PUSH2 0x20FD JUMP JUMPDEST PUSH1 0x1 SWAP1 PUSH2 0x185A JUMP JUMPDEST POP PUSH1 0x20 DUP2 RETURNDATASIZE PUSH1 0x20 GT PUSH2 0x217C JUMPI JUMPDEST DUP2 PUSH2 0x2163 PUSH1 0x20 SWAP4 DUP4 PUSH2 0x28EB JUMP JUMPDEST DUP2 ADD SUB SLT PUSH2 0x72D JUMPI PUSH2 0x2177 PUSH2 0x183C SWAP2 PUSH2 0x3E32 JUMP JUMPDEST PUSH2 0x1832 JUMP JUMPDEST RETURNDATASIZE SWAP2 POP PUSH2 0x2156 JUMP JUMPDEST POP PUSH1 0x20 DUP2 RETURNDATASIZE PUSH1 0x20 GT PUSH2 0x21B7 JUMPI JUMPDEST DUP2 PUSH2 0x219E PUSH1 0x20 SWAP4 DUP4 PUSH2 0x28EB JUMP JUMPDEST DUP2 ADD SUB SLT PUSH2 0x731 JUMPI PUSH2 0x21B2 PUSH2 0x17E0 SWAP2 PUSH2 0x3E32 JUMP JUMPDEST PUSH2 0x17D6 JUMP JUMPDEST RETURNDATASIZE SWAP2 POP PUSH2 0x2191 JUMP JUMPDEST SWAP1 SWAP2 PUSH32 0x0 SWAP1 PUSH20 0xFFFFFFFFFFFFFFFFFFFFFFFFFFFFFFFFFFFFFFFF DUP3 AND DUP10 DUP6 DUP13 DUP6 DUP5 PUSH20 0xFFFFFFFFFFFFFFFFFFFFFFFFFFFFFFFFFFFFFFFF DUP4 AND SUB PUSH2 0x2260 JUMPI JUMPDEST POP POP POP POP PUSH20 0xFFFFFFFFFFFFFFFFFFFFFFFFFFFFFFFFFFFFFFFF DUP5 AND SUB PUSH2 0x2247 JUMPI JUMPDEST POP POP POP POP POP PUSH2 0x1AE2 JUMP JUMPDEST PUSH2 0x1F3E PUSH1 0x1 PUSH2 0x2255 SWAP7 PUSH2 0x2AC0 JUMP JUMPDEST POP CODESIZE DUP1 DUP8 DUP2 DUP1 PUSH2 0x223D JUMP JUMPDEST PUSH2 0x1F5D PUSH2 0x226D SWAP5 DUP12 PUSH2 0x2AC0 JUMP JUMPDEST POP DUP10 DUP6 DUP13 DUP6 PUSH2 0x221C JUMP JUMPDEST SWAP2 POP POP PUSH2 0x2289 JUMPI DUP9 PUSH1 0x7 DUP4 EQ CODESIZE PUSH2 0x177D JUMP JUMPDEST PUSH1 0x24 DUP8 PUSH32 0x4E487B7100000000000000000000000000000000000000000000000000000000 DUP2 MSTORE PUSH1 0x21 PUSH1 0x4 MSTORE REVERT JUMPDEST POP POP PUSH1 0x1 DUP4 EQ DUP9 PUSH2 0x1776 JUMP JUMPDEST SWAP1 SWAP10 POP PUSH1 0x20 DUP2 RETURNDATASIZE PUSH1 0x20 GT PUSH2 0x22FA JUMPI JUMPDEST DUP2 PUSH2 0x22DE PUSH1 0x20 SWAP4 DUP4 PUSH2 0x28EB JUMP JUMPDEST DUP2 ADD SUB SLT PUSH2 0x22F6 JUMPI PUSH2 0x22EF SWAP1 PUSH2 0x2A9F JUMP JUMPDEST SWAP9 CODESIZE PUSH2 0x1768 JUMP JUMPDEST DUP7 DUP1 REVERT JUMPDEST RETURNDATASIZE SWAP2 POP PUSH2 0x22D1 JUMP JUMPDEST SWAP1 SWAP8 POP PUSH1 0x20 DUP2 RETURNDATASIZE PUSH1 0x20 GT PUSH2 0x2336 JUMPI JUMPDEST DUP2 PUSH2 0x231E PUSH1 0x20 SWAP4 DUP4 PUSH2 0x28EB JUMP JUMPDEST DUP2 ADD SUB SLT PUSH2 0x735 JUMPI PUSH2 0x232F SWAP1 PUSH2 0x2A9F JUMP JUMPDEST SWAP7 CODESIZE PUSH2 0x1729 JUMP JUMPDEST RETURNDATASIZE SWAP2 POP PUSH2 0x2311 JUMP JUMPDEST SWAP1 SWAP6 POP PUSH1 0x20 DUP2 RETURNDATASIZE PUSH1 0x20 GT PUSH2 0x2372 JUMPI JUMPDEST DUP2 PUSH2 0x235A PUSH1 0x20 SWAP4 DUP4 PUSH2 0x28EB JUMP JUMPDEST DUP2 ADD SUB SLT PUSH2 0x1E21 JUMPI PUSH2 0x236B SWAP1 PUSH2 0x2A9F JUMP JUMPDEST SWAP5 CODESIZE PUSH2 0x16EA JUMP JUMPDEST RETURNDATASIZE SWAP2 POP PUSH2 0x234D JUMP JUMPDEST PUSH1 0x24 DUP5 PUSH32 0x4E487B7100000000000000000000000000000000000000000000000000000000 DUP2 MSTORE PUSH1 0x21 PUSH1 0x4 MSTORE REVERT JUMPDEST POP CALLVALUE PUSH2 0x739 JUMPI DUP1 PUSH32 0xFFFFFFFFFFFFFFFFFFFFFFFFFFFFFFFFFFFFFFFFFFFFFFFFFFFFFFFFFFFFFFFC CALLDATASIZE ADD SLT PUSH2 0x739 JUMPI PUSH1 0x20 PUSH1 0x40 MLOAD PUSH20 0xDEF171FE48CF0115B1D80B88DC8EAB59176FEE57 DUP2 MSTORE RETURN JUMPDEST POP CALLVALUE PUSH2 0x739 JUMPI DUP1 PUSH32 0xFFFFFFFFFFFFFFFFFFFFFFFFFFFFFFFFFFFFFFFFFFFFFFFFFFFFFFFFFFFFFFFC CALLDATASIZE ADD SLT PUSH2 0x739 JUMPI PUSH1 0x20 PUSH1 0x40 MLOAD PUSH20 0x6352A56CAADC4F1E25CD6C75970FA768A3304E64 DUP2 MSTORE RETURN JUMPDEST POP CALLVALUE PUSH2 0x739 JUMPI PUSH1 0x40 PUSH32 0xFFFFFFFFFFFFFFFFFFFFFFFFFFFFFFFFFFFFFFFFFFFFFFFFFFFFFFFFFFFFFFFC CALLDATASIZE ADD SLT PUSH2 0x739 JUMPI PUSH1 0x4 CALLDATALOAD SWAP1 PUSH8 0xFFFFFFFFFFFFFFFF DUP3 GT PUSH2 0x739 JUMPI CALLDATASIZE PUSH1 0x23 DUP4 ADD SLT ISZERO PUSH2 0x739 JUMPI DUP2 PUSH1 0x4 ADD CALLDATALOAD SWAP1 PUSH2 0x249E DUP3 PUSH2 0x29FB JUMP JUMPDEST SWAP1 PUSH2 0x24AC PUSH1 0x40 MLOAD SWAP3 DUP4 PUSH2 0x28EB JUMP JUMPDEST DUP3 DUP3 MSTORE PUSH1 0x20 SWAP4 DUP5 DUP4 ADD PUSH1 0x24 DUP1 SWAP6 PUSH1 0x5 SHL DUP4 ADD ADD SWAP2 CALLDATASIZE DUP4 GT PUSH2 0x269A JUMPI DUP6 ADD SWAP1 JUMPDEST DUP3 DUP3 LT PUSH2 0x26A5 JUMPI POP POP POP DUP3 CALLDATALOAD PUSH20 0xFFFFFFFFFFFFFFFFFFFFFFFFFFFFFFFFFFFFFFFF DUP1 DUP3 AND DUP3 SUB PUSH2 0xDB3 JUMPI PUSH1 0x40 MLOAD PUSH32 0xF851A44000000000000000000000000000000000000000000000000000000000 DUP2 MSTORE DUP7 DUP2 PUSH1 0x4 DUP2 DUP6 PUSH32 0x0 AND GAS STATICCALL SWAP1 DUP2 ISZERO PUSH2 0xC0C JUMPI SWAP1 DUP3 SWAP2 DUP6 SWAP2 PUSH2 0x2669 JUMPI JUMPDEST POP AND CALLER SUB PUSH2 0xD56 JUMPI DUP3 JUMPDEST DUP5 MLOAD DUP2 LT ISZERO PUSH2 0x2665 JUMPI DUP6 DUP8 DUP4 PUSH2 0x2576 DUP5 DUP10 PUSH2 0x2AC0 JUMP JUMPDEST MLOAD AND PUSH1 0x40 MLOAD SWAP3 DUP4 DUP1 SWAP3 PUSH32 0x70A0823100000000000000000000000000000000000000000000000000000000 DUP3 MSTORE ADDRESS PUSH1 0x4 DUP4 ADD MSTORE GAS STATICCALL SWAP1 DUP2 ISZERO PUSH2 0x1E2D JUMPI DUP6 SWAP2 PUSH2 0x2638 JUMPI JUMPDEST POP DUP1 PUSH2 0x261B JUMPI JUMPDEST POP PUSH32 0xFFFFFFFFFFFFFFFFFFFFFFFFFFFFFFFFFFFFFFFFFFFFFFFFFFFFFFFFFFFFFFFF DUP2 EQ PUSH2 0x25EF JUMPI PUSH1 0x1 ADD PUSH2 0x2560 JUMP JUMPDEST DUP6 DUP5 PUSH32 0x4E487B7100000000000000000000000000000000000000000000000000000000 DUP2 MSTORE PUSH1 0x11 PUSH1 0x4 MSTORE REVERT JUMPDEST PUSH2 0x2632 SWAP1 DUP5 DUP5 PUSH2 0x262B DUP6 DUP11 PUSH2 0x2AC0 JUMP JUMPDEST MLOAD AND PUSH2 0x4129 JUMP JUMPDEST CODESIZE PUSH2 0x25BF JUMP JUMPDEST SWAP1 POP DUP8 DUP2 DUP2 RETURNDATASIZE DUP4 GT PUSH2 0x265E JUMPI JUMPDEST PUSH2 0x264F DUP2 DUP4 PUSH2 0x28EB JUMP JUMPDEST DUP2 ADD SUB SLT PUSH2 0x1E21 JUMPI MLOAD CODESIZE PUSH2 0x25B8 JUMP JUMPDEST POP RETURNDATASIZE PUSH2 0x2645 JUMP JUMPDEST DUP4 DUP1 RETURN JUMPDEST DUP1 SWAP3 POP DUP9 DUP1 SWAP3 POP RETURNDATASIZE DUP4 GT PUSH2 0x269E JUMPI JUMPDEST PUSH2 0x2682 DUP2 DUP4 PUSH2 0x28EB JUMP JUMPDEST DUP2 ADD SUB SLT PUSH2 0x269A JUMPI PUSH2 0x2694 DUP3 SWAP2 PUSH2 0x2A9F JUMP JUMPDEST CODESIZE PUSH2 0x2556 JUMP JUMPDEST DUP4 DUP1 REVERT JUMPDEST POP RETURNDATASIZE PUSH2 0x2678 JUMP JUMPDEST DUP2 CALLDATALOAD PUSH20 0xFFFFFFFFFFFFFFFFFFFFFFFFFFFFFFFFFFFFFFFF DUP2 AND DUP2 SUB PUSH2 0x1E21 JUMPI DUP2 MSTORE SWAP1 DUP7 ADD SWAP1 DUP7 ADD PUSH2 0x24CB JUMP JUMPDEST POP CALLVALUE PUSH2 0x739 JUMPI DUP1 PUSH32 0xFFFFFFFFFFFFFFFFFFFFFFFFFFFFFFFFFFFFFFFFFFFFFFFFFFFFFFFFFFFFFFFC CALLDATASIZE ADD SLT PUSH2 0x739 JUMPI PUSH1 0x20 PUSH1 0x40 MLOAD PUSH15 0x22D473030F116DDEE9F6B43AC78BA3 DUP2 MSTORE RETURN JUMPDEST POP CALLVALUE PUSH2 0x739 JUMPI DUP1 PUSH32 0xFFFFFFFFFFFFFFFFFFFFFFFFFFFFFFFFFFFFFFFFFFFFFFFFFFFFFFFFFFFFFFFC CALLDATASIZE ADD SLT PUSH2 0x739 JUMPI PUSH2 0x27A0 PUSH2 0x2755 PUSH1 0x5 PUSH2 0x295B JUMP JUMPDEST PUSH2 0x2762 PUSH1 0x40 MLOAD SWAP2 DUP3 PUSH2 0x28EB JUMP JUMPDEST PUSH1 0x5 DUP2 MSTORE PUSH32 0x312E302E30000000000000000000000000000000000000000000000000000000 PUSH1 0x20 DUP3 ADD MSTORE PUSH1 0x40 MLOAD SWAP2 DUP3 SWAP2 PUSH1 0x20 DUP4 MSTORE PUSH1 0x20 DUP4 ADD SWAP1 PUSH2 0x29B8 JUMP JUMPDEST SUB SWAP1 RETURN JUMPDEST POP CALLVALUE PUSH2 0x739 JUMPI DUP1 PUSH32 0xFFFFFFFFFFFFFFFFFFFFFFFFFFFFFFFFFFFFFFFFFFFFFFFFFFFFFFFFFFFFFFFC CALLDATASIZE ADD SLT PUSH2 0x739 JUMPI PUSH1 0x20 PUSH1 0x40 MLOAD PUSH20 0xE592427A0AECE92DE3EDEE1F18E0157C05861564 DUP2 MSTORE RETURN JUMPDEST POP CALLVALUE PUSH2 0x739 JUMPI DUP1 PUSH32 0xFFFFFFFFFFFFFFFFFFFFFFFFFFFFFFFFFFFFFFFFFFFFFFFFFFFFFFFFFFFFFFFC CALLDATASIZE ADD SLT PUSH2 0x739 JUMPI PUSH1 0x20 PUSH1 0x40 MLOAD PUSH20 0xDEF1C0DED9BEC7F1A1670819833240F027B25EFF DUP2 MSTORE RETURN JUMPDEST POP CALLVALUE PUSH2 0x739 JUMPI DUP1 PUSH32 0xFFFFFFFFFFFFFFFFFFFFFFFFFFFFFFFFFFFFFFFFFFFFFFFFFFFFFFFFFFFFFFFC CALLDATASIZE ADD SLT PUSH2 0x739 JUMPI PUSH2 0x27A0 PUSH2 0x287A PUSH1 0x22 PUSH2 0x295B JUMP JUMPDEST PUSH2 0x2887 PUSH1 0x40 MLOAD SWAP2 DUP3 PUSH2 0x28EB JUMP JUMPDEST PUSH1 0x22 DUP2 MSTORE PUSH32 0x416C7461697220457874656E73696F6E3A2048797065727669736F7220506F6F PUSH1 0x20 DUP3 ADD MSTORE PUSH32 0x6C73000000000000000000000000000000000000000000000000000000000000 PUSH1 0x40 DUP3 ADD MSTORE PUSH1 0x40 MLOAD SWAP2 DUP3 SWAP2 PUSH1 0x20 DUP4 MSTORE PUSH1 0x20 DUP4 ADD SWAP1 PUSH2 0x29B8 JUMP JUMPDEST SWAP1 PUSH1 0x1F PUSH32 0xFFFFFFFFFFFFFFFFFFFFFFFFFFFFFFFFFFFFFFFFFFFFFFFFFFFFFFFFFFFFFFE0 SWAP2 ADD AND DUP2 ADD SWAP1 DUP2 LT PUSH8 0xFFFFFFFFFFFFFFFF DUP3 GT OR PUSH2 0x292C JUMPI PUSH1 0x40 MSTORE JUMP JUMPDEST PUSH32 0x4E487B7100000000000000000000000000000000000000000000000000000000 PUSH1 0x0 MSTORE PUSH1 0x41 PUSH1 0x4 MSTORE PUSH1 0x24 PUSH1 0x0 REVERT JUMPDEST PUSH8 0xFFFFFFFFFFFFFFFF DUP2 GT PUSH2 0x292C JUMPI PUSH1 0x1F ADD PUSH32 0xFFFFFFFFFFFFFFFFFFFFFFFFFFFFFFFFFFFFFFFFFFFFFFFFFFFFFFFFFFFFFFE0 AND PUSH1 0x20 ADD SWAP1 JUMP JUMPDEST PUSH1 0x0 JUMPDEST DUP4 DUP2 LT PUSH2 0x29A8 JUMPI POP POP PUSH1 0x0 SWAP2 ADD MSTORE JUMP JUMPDEST DUP2 DUP2 ADD MLOAD DUP4 DUP3 ADD MSTORE PUSH1 0x20 ADD PUSH2 0x2998 JUMP JUMPDEST SWAP1 PUSH32 0xFFFFFFFFFFFFFFFFFFFFFFFFFFFFFFFFFFFFFFFFFFFFFFFFFFFFFFFFFFFFFFE0 PUSH1 0x1F PUSH1 0x20 SWAP4 PUSH2 0x29F4 DUP2 MLOAD DUP1 SWAP3 DUP2 DUP8 MSTORE DUP8 DUP1 DUP9 ADD SWAP2 ADD PUSH2 0x2995 JUMP JUMPDEST ADD AND ADD ADD SWAP1 JUMP JUMPDEST PUSH8 0xFFFFFFFFFFFFFFFF DUP2 GT PUSH2 0x292C JUMPI PUSH1 0x5 SHL PUSH1 0x20 ADD SWAP1 JUMP JUMPDEST CALLDATALOAD SWAP1 PUSH20 0xFFFFFFFFFFFFFFFFFFFFFFFFFFFFFFFFFFFFFFFF DUP3 AND DUP3 SUB PUSH2 0x63E JUMPI JUMP JUMPDEST SWAP2 DUP2 PUSH1 0x1F DUP5 ADD SLT ISZERO PUSH2 0x63E JUMPI DUP3 CALLDATALOAD SWAP2 PUSH8 0xFFFFFFFFFFFFFFFF DUP4 GT PUSH2 0x63E JUMPI PUSH1 0x20 DUP4 DUP2 DUP7 ADD SWAP6 ADD ADD GT PUSH2 0x63E JUMPI JUMP JUMPDEST SWAP2 PUSH1 0x60 DUP4 DUP4 SUB SLT PUSH2 0x63E JUMPI PUSH2 0x2A76 DUP4 PUSH2 0x2A13 JUMP JUMPDEST SWAP3 PUSH1 0x20 DUP2 ADD CALLDATALOAD SWAP3 PUSH1 0x40 DUP3 ADD CALLDATALOAD PUSH8 0xFFFFFFFFFFFFFFFF DUP2 GT PUSH2 0x63E JUMPI PUSH2 0x2A9B SWAP3 ADD PUSH2 0x2A34 JUMP JUMPDEST SWAP1 SWAP2 JUMP JUMPDEST MLOAD SWAP1 PUSH20 0xFFFFFFFFFFFFFFFFFFFFFFFFFFFFFFFFFFFFFFFF DUP3 AND DUP3 SUB PUSH2 0x63E JUMPI JUMP JUMPDEST DUP1 MLOAD DUP3 LT ISZERO PUSH2 0x2AD4 JUMPI PUSH1 0x20 SWAP2 PUSH1 0x5 SHL ADD ADD SWAP1 JUMP JUMPDEST PUSH32 0x4E487B7100000000000000000000000000000000000000000000000000000000 PUSH1 0x0 MSTORE PUSH1 0x32 PUSH1 0x4 MSTORE PUSH1 0x24 PUSH1 0x0 REVERT JUMPDEST SWAP2 SWAP1 DUP3 PUSH1 0x40 SWAP2 SUB SLT PUSH2 0x63E JUMPI PUSH1 0x20 DUP3 MLOAD SWAP3 ADD MLOAD SWAP1 JUMP JUMPDEST SWAP2 SWAP1 DUP3 SUB SWAP2 DUP3 GT PUSH2 0x2B26 JUMPI JUMP JUMPDEST PUSH32 0x4E487B7100000000000000000000000000000000000000000000000000000000 PUSH1 0x0 MSTORE PUSH1 0x11 PUSH1 0x4 MSTORE PUSH1 0x24 PUSH1 0x0 REVERT JUMPDEST SWAP1 DUP1 PUSH1 0x1F DUP4 ADD SLT ISZERO PUSH2 0x63E JUMPI DUP2 CALLDATALOAD SWAP2 PUSH2 0x2B6D DUP4 PUSH2 0x29FB JUMP JUMPDEST SWAP3 PUSH1 0x40 SWAP1 PUSH2 0x2B7D DUP3 MLOAD SWAP6 DUP7 PUSH2 0x28EB JUMP JUMPDEST DUP1 DUP6 MSTORE PUSH1 0x20 SWAP4 DUP5 DUP1 DUP8 ADD SWAP3 PUSH1 0x5 SHL DUP6 ADD ADD SWAP4 DUP2 DUP6 GT PUSH2 0x63E JUMPI DUP6 DUP2 ADD SWAP3 JUMPDEST DUP6 DUP5 LT PUSH2 0x2BAC JUMPI POP POP POP POP POP POP POP SWAP1 JUMP JUMPDEST DUP4 CALLDATALOAD PUSH8 0xFFFFFFFFFFFFFFFF DUP2 GT PUSH2 0x63E JUMPI DUP3 ADD DUP4 PUSH1 0x3F DUP3 ADD SLT ISZERO PUSH2 0x63E JUMPI DUP8 DUP2 ADD CALLDATALOAD SWAP2 PUSH2 0x2BD8 DUP4 PUSH2 0x295B JUMP JUMPDEST PUSH2 0x2BE4 DUP9 MLOAD SWAP2 DUP3 PUSH2 0x28EB JUMP JUMPDEST DUP4 DUP2 MSTORE DUP6 DUP9 DUP6 DUP6 ADD ADD GT PUSH2 0x63E JUMPI PUSH1 0x0 DUP11 DUP6 DUP2 SWAP7 DUP12 DUP4 SWAP8 ADD DUP4 DUP7 ADD CALLDATACOPY DUP4 ADD ADD MSTORE DUP2 MSTORE ADD SWAP4 ADD SWAP3 PUSH2 0x2B9B JUMP JUMPDEST PUSH20 0xFFFFFFFFFFFFFFFFFFFFFFFFFFFFFFFFFFFFFFFF PUSH32 0x0 AND ADDRESS EQ PUSH2 0x2C4E JUMPI JUMP JUMPDEST PUSH1 0x4 PUSH1 0x40 MLOAD PUSH32 0xC97BBBAE00000000000000000000000000000000000000000000000000000000 DUP2 MSTORE REVERT JUMPDEST PUSH1 0x0 SWAP2 JUMPDEST PUSH1 0x4 DUP4 LT PUSH2 0x2C89 JUMPI POP POP POP JUMP JUMPDEST PUSH1 0x1 SWAP1 DUP3 MLOAD DUP2 MSTORE PUSH1 0x20 DUP1 SWAP2 ADD SWAP3 ADD SWAP3 ADD SWAP2 SWAP1 PUSH2 0x2C7C JUMP JUMPDEST SWAP1 DUP2 MSTORE PUSH20 0xFFFFFFFFFFFFFFFFFFFFFFFFFFFFFFFFFFFFFFFF SWAP2 DUP3 AND PUSH1 0x20 DUP3 ADD MSTORE SWAP2 AND PUSH1 0x40 DUP3 ADD MSTORE PUSH1 0xE0 DUP2 ADD SWAP3 SWAP2 PUSH2 0x2CDA SWAP2 PUSH1 0x60 ADD SWAP1 PUSH2 0x2C78 JUMP JUMPDEST JUMP JUMPDEST SWAP2 SWAP1 DUP3 ADD DUP1 SWAP3 GT PUSH2 0x2B26 JUMPI JUMP JUMPDEST SWAP1 SWAP5 SWAP4 SWAP2 SWAP5 PUSH32 0x0 SWAP4 PUSH20 0xFFFFFFFFFFFFFFFFFFFFFFFFFFFFFFFFFFFFFFFF DUP1 DUP7 AND DUP1 DUP3 DUP5 AND EQ SWAP1 DUP2 SWAP3 DUP3 ISZERO PUSH2 0x2DAF JUMPI JUMPDEST POP POP PUSH2 0x2D74 JUMPI POP SWAP2 PUSH2 0x1F3E PUSH1 0x1 PUSH2 0x2D65 PUSH2 0x2D71 SWAP10 SWAP7 SWAP5 DUP9 PUSH2 0x2D6B SWAP10 SWAP8 PUSH2 0x2D5E PUSH1 0x0 DUP14 PUSH2 0x2AC0 JUMP JUMPDEST MLOAD DUP8 PUSH2 0x2DBB JUMP JUMPDEST SWAP8 PUSH2 0x2AC0 JUMP JUMPDEST SWAP1 PUSH2 0x2CDC JUMP JUMPDEST SWAP1 JUMP JUMPDEST SWAP1 PUSH2 0x2D71 SWAP8 SWAP5 SWAP3 SWAP6 SWAP4 SWAP2 PUSH1 0x0 SWAP1 PUSH1 0x0 EQ PUSH2 0x2D99 JUMPI POP POP PUSH2 0x1F3E PUSH1 0x1 PUSH2 0x2D6B SWAP7 SWAP8 PUSH2 0x2AC0 JUMP JUMPDEST PUSH2 0x1F3E SWAP2 SWAP4 POP PUSH2 0x2DAA SWAP7 SWAP6 SWAP8 PUSH2 0x2AC0 JUMP JUMPDEST PUSH2 0x2CDC JUMP JUMPDEST DUP8 AND EQ SWAP1 POP CODESIZE DUP1 PUSH2 0x2D37 JUMP JUMPDEST SWAP4 SWAP3 SWAP1 SWAP2 SWAP4 PUSH1 0x8 DUP2 LT ISZERO PUSH2 0x3B11 JUMPI DUP1 PUSH2 0x2EAD JUMPI POP POP PUSH1 0x40 MLOAD SWAP3 PUSH32 0xD2C4B59800000000000000000000000000000000000000000000000000000000 DUP5 MSTORE PUSH1 0x20 SWAP4 PUSH20 0xDEF171FE48CF0115B1D80B88DC8EAB59176FEE57 SWAP2 DUP6 DUP3 PUSH1 0x4 DUP2 DUP7 GAS STATICCALL SWAP2 DUP3 ISZERO PUSH2 0x2EA1 JUMPI PUSH1 0x0 SWAP3 PUSH2 0x2E5B JUMPI JUMPDEST POP PUSH1 0x0 SWAP5 DUP6 SWAP5 SWAP4 SWAP3 PUSH2 0x2E38 SWAP3 PUSH2 0x3B70 JUMP JUMPDEST DUP5 DUP3 MLOAD SWAP3 ADD SWAP1 CALLVALUE SWAP1 GAS CALL PUSH2 0x2E4A PUSH2 0x3B40 JUMP JUMPDEST SWAP1 ISZERO PUSH2 0x2E55 JUMPI ADD MLOAD SWAP1 JUMP JUMPDEST DUP1 MLOAD SWAP2 ADD REVERT JUMPDEST SWAP1 SWAP4 SWAP3 SWAP2 POP DUP6 DUP2 DUP2 RETURNDATASIZE DUP4 GT PUSH2 0x2E9A JUMPI JUMPDEST PUSH2 0x2E75 DUP2 DUP4 PUSH2 0x28EB JUMP JUMPDEST DUP2 ADD SUB SLT PUSH2 0x63E JUMPI PUSH1 0x0 SWAP5 DUP6 SWAP5 PUSH2 0x2E8E PUSH2 0x2E38 SWAP4 PUSH2 0x2A9F JUMP JUMPDEST SWAP4 SWAP5 SWAP6 POP SWAP2 POP SWAP5 PUSH2 0x2E27 JUMP JUMPDEST POP RETURNDATASIZE PUSH2 0x2E6B JUMP JUMPDEST PUSH1 0x40 MLOAD RETURNDATASIZE PUSH1 0x0 DUP3 RETURNDATACOPY RETURNDATASIZE SWAP1 REVERT JUMPDEST SWAP3 SWAP4 SWAP2 SWAP3 PUSH1 0x1 DUP2 SUB PUSH2 0x3104 JUMPI POP POP SWAP1 DUP1 MLOAD DUP2 ADD DUP2 PUSH1 0x20 DUP3 ADD SWAP2 SUB SWAP4 PUSH2 0x140 DUP6 SLT PUSH2 0x63E JUMPI PUSH1 0xE0 PUSH32 0xFFFFFFFFFFFFFFFFFFFFFFFFFFFFFFFFFFFFFFFFFFFFFFFFFFFFFFFFFFFFFFE0 PUSH2 0x2F00 PUSH1 0x20 DUP7 ADD PUSH2 0x2A9F JUMP JUMPDEST SWAP7 ADD SLT PUSH2 0x63E JUMPI PUSH1 0x40 SWAP5 DUP6 MLOAD SWAP5 PUSH2 0x2F18 PUSH1 0xE0 DUP8 PUSH2 0x28EB JUMP JUMPDEST PUSH2 0x2F23 DUP8 DUP7 ADD PUSH2 0x2A9F JUMP JUMPDEST DUP7 MSTORE PUSH2 0x2F31 PUSH1 0x60 DUP7 ADD PUSH2 0x2A9F JUMP JUMPDEST SWAP1 PUSH1 0x20 DUP8 ADD SWAP2 DUP3 MSTORE PUSH2 0x2F45 PUSH1 0x80 DUP8 ADD PUSH2 0x2A9F JUMP JUMPDEST SWAP5 DUP9 DUP9 ADD SWAP6 DUP7 MSTORE PUSH2 0x2F58 PUSH1 0xA0 DUP9 ADD PUSH2 0x2A9F JUMP JUMPDEST SWAP8 PUSH1 0x60 DUP2 ADD SWAP9 DUP10 MSTORE PUSH1 0xC0 DUP9 ADD MLOAD PUSH1 0x80 DUP3 ADD SWAP1 DUP2 MSTORE PUSH1 0xE0 DUP10 ADD MLOAD SWAP1 PUSH1 0xA0 DUP4 ADD SWAP2 DUP3 MSTORE PUSH2 0x100 DUP11 ADD MLOAD SWAP3 PUSH1 0xC0 DUP2 ADD SWAP4 DUP5 MSTORE PUSH2 0x120 DUP12 ADD MLOAD PUSH8 0xFFFFFFFFFFFFFFFF SWAP1 DUP2 DUP2 GT PUSH2 0x63E JUMPI DUP7 PUSH1 0x20 PUSH2 0x2FAD SWAP3 DUP16 ADD ADD PUSH2 0x3C7B JUMP JUMPDEST SWAP6 PUSH2 0x140 DUP14 ADD MLOAD SWAP2 DUP3 GT PUSH2 0x63E JUMPI DUP15 SWAP13 PUSH2 0x2FCA SWAP3 ADD PUSH1 0x20 ADD PUSH2 0x3C7B JUMP JUMPDEST SWAP6 DUP10 DUP4 MLOAD SUB PUSH2 0x30FC JUMPI JUMPDEST PUSH20 0x1111111254EEB25477B68FB85ED929F73A960582 SWAP10 DUP11 PUSH2 0x2FF4 SWAP3 PUSH2 0x3B70 JUMP JUMPDEST DUP11 MLOAD SWAP12 DUP13 DUP1 SWAP12 DUP2 SWAP11 DUP3 SWAP11 PUSH32 0x12AA3CAF00000000000000000000000000000000000000000000000000000000 DUP5 MSTORE PUSH20 0xFFFFFFFFFFFFFFFFFFFFFFFFFFFFFFFFFFFFFFFF DUP1 SWAP7 DUP2 SWAP6 DUP3 DUP1 SWAP6 AND SWAP1 PUSH1 0x4 ADD MSTORE MLOAD AND PUSH1 0x24 DUP14 ADD MSTORE MLOAD AND PUSH1 0x44 DUP12 ADD MSTORE MLOAD AND PUSH1 0x64 DUP10 ADD MSTORE MLOAD AND PUSH1 0x84 DUP8 ADD MSTORE MLOAD PUSH1 0xA4 DUP7 ADD MSTORE MLOAD PUSH1 0xC4 DUP6 ADD MSTORE MLOAD PUSH1 0xE4 DUP5 ADD MSTORE PUSH2 0x104 DUP4 ADD PUSH2 0x140 SWAP1 MSTORE PUSH2 0x144 DUP4 ADD PUSH2 0x3089 SWAP2 PUSH2 0x29B8 JUMP JUMPDEST DUP3 DUP2 SUB PUSH32 0xFFFFFFFFFFFFFFFFFFFFFFFFFFFFFFFFFFFFFFFFFFFFFFFFFFFFFFFFFFFFFFFC ADD PUSH2 0x124 DUP5 ADD MSTORE PUSH2 0x30BD SWAP2 PUSH2 0x29B8 JUMP JUMPDEST SUB SWAP2 GAS SWAP1 PUSH1 0x0 SWAP2 CALL SWAP2 DUP3 ISZERO PUSH2 0x30F2 JUMPI PUSH1 0x0 SWAP3 PUSH2 0x30D8 JUMPI POP POP SWAP1 JUMP JUMPDEST PUSH2 0x30EE SWAP3 POP DUP1 RETURNDATASIZE LT PUSH2 0x60A JUMPI PUSH2 0x5FB DUP2 DUP4 PUSH2 0x28EB JUMP JUMPDEST POP SWAP1 JUMP JUMPDEST MLOAD RETURNDATASIZE PUSH1 0x0 DUP3 RETURNDATACOPY RETURNDATASIZE SWAP1 REVERT JUMPDEST DUP10 DUP4 MSTORE PUSH2 0x2FD4 JUMP JUMPDEST PUSH1 0x2 DUP2 SUB PUSH2 0x315C JUMPI POP POP SWAP1 PUSH1 0x0 SWAP3 SWAP2 PUSH2 0x3134 DUP5 SWAP4 PUSH20 0x1111111254EEB25477B68FB85ED929F73A960582 DUP1 SWAP4 PUSH2 0x3B70 JUMP JUMPDEST PUSH1 0x20 DUP3 MLOAD SWAP3 ADD SWAP1 CALLVALUE SWAP1 GAS CALL PUSH2 0x3147 PUSH2 0x3B40 JUMP JUMPDEST SWAP1 ISZERO PUSH2 0x3154 JUMPI PUSH1 0x20 ADD MLOAD SWAP1 JUMP JUMPDEST PUSH1 0x20 DUP2 MLOAD SWAP2 ADD REVERT JUMPDEST PUSH1 0x3 DUP2 SUB PUSH2 0x318C JUMPI POP POP SWAP1 PUSH1 0x0 SWAP3 SWAP2 PUSH2 0x3134 DUP5 SWAP4 PUSH20 0xDEF1C0DED9BEC7F1A1670819833240F027B25EFF DUP1 SWAP4 PUSH2 0x3B70 JUMP JUMPDEST PUSH1 0x4 DUP2 SUB PUSH2 0x3604 JUMPI POP POP DUP2 MLOAD DUP3 ADD SWAP1 PUSH1 0x60 DUP4 DUP4 SUB SLT PUSH2 0x63E JUMPI PUSH2 0x31B1 PUSH1 0x20 DUP5 ADD PUSH2 0x2A9F JUMP JUMPDEST PUSH1 0x40 DUP5 ADD MLOAD SWAP5 PUSH8 0xFFFFFFFFFFFFFFFF DUP7 GT PUSH2 0x63E JUMPI PUSH2 0x140 DUP7 DUP7 ADD DUP6 SUB SLT PUSH2 0x63E JUMPI PUSH1 0x40 MLOAD SWAP3 PUSH2 0x31E3 PUSH2 0x140 DUP6 PUSH2 0x28EB JUMP JUMPDEST PUSH2 0x31F1 PUSH1 0x20 DUP9 DUP9 ADD ADD PUSH2 0x2A9F JUMP JUMPDEST DUP5 MSTORE PUSH2 0x3201 PUSH1 0x40 DUP9 DUP9 ADD ADD PUSH2 0x2A9F JUMP JUMPDEST PUSH1 0x20 DUP6 ADD MSTORE PUSH2 0x3214 PUSH1 0x60 DUP9 DUP9 ADD ADD PUSH2 0x2A9F JUMP JUMPDEST PUSH1 0x40 DUP6 ADD MSTORE PUSH2 0x3227 PUSH1 0x80 DUP9 DUP9 ADD ADD PUSH2 0x2A9F JUMP JUMPDEST PUSH1 0x60 DUP6 ADD MSTORE PUSH1 0xA0 DUP8 DUP8 ADD ADD MLOAD PUSH1 0x80 DUP6 ADD MSTORE PUSH1 0xC0 DUP8 DUP8 ADD ADD MLOAD PUSH1 0xA0 DUP6 ADD MSTORE PUSH1 0xE0 DUP8 DUP8 ADD ADD MLOAD PUSH1 0xC0 DUP6 ADD MSTORE PUSH2 0x100 SWAP7 DUP8 DUP2 DUP9 ADD ADD MLOAD PUSH1 0xE0 DUP7 ADD MSTORE PUSH2 0x326E PUSH2 0x120 DUP3 DUP10 ADD ADD PUSH2 0x2A9F JUMP JUMPDEST DUP9 DUP7 ADD MSTORE PUSH2 0x140 DUP2 DUP9 ADD ADD MLOAD SWAP1 PUSH8 0xFFFFFFFFFFFFFFFF DUP3 GT PUSH2 0x63E JUMPI PUSH1 0x20 PUSH2 0x329D SWAP3 DUP2 DUP10 ADD SWAP3 DUP11 ADD ADD ADD PUSH2 0x3C7B JUMP JUMPDEST PUSH2 0x120 DUP6 ADD MSTORE PUSH1 0x60 DUP7 ADD MLOAD SWAP5 PUSH8 0xFFFFFFFFFFFFFFFF DUP7 GT PUSH2 0x63E JUMPI PUSH1 0x20 DUP2 ADD PUSH1 0x3F DUP8 DUP10 ADD ADD SLT ISZERO PUSH2 0x63E JUMPI PUSH1 0x20 DUP7 DUP9 ADD ADD MLOAD PUSH2 0x32D8 DUP2 PUSH2 0x29FB JUMP JUMPDEST SWAP7 PUSH2 0x32E6 PUSH1 0x40 MLOAD SWAP9 DUP10 PUSH2 0x28EB JUMP JUMPDEST DUP2 DUP9 MSTORE PUSH1 0x20 DUP9 ADD DUP1 SWAP10 PUSH1 0x20 DUP6 ADD PUSH1 0x40 DUP6 PUSH1 0x5 SHL DUP6 DUP5 ADD ADD ADD GT PUSH2 0x63E JUMPI PUSH1 0x40 DUP4 DUP3 ADD ADD SWAP2 JUMPDEST PUSH1 0x40 DUP6 PUSH1 0x5 SHL DUP6 DUP5 ADD ADD ADD DUP4 LT PUSH2 0x3551 JUMPI POP POP POP POP POP POP SWAP2 PUSH2 0x335D DUP3 PUSH20 0x6352A56CAADC4F1E25CD6C75970FA768A3304E64 PUSH2 0x120 SWAP6 DUP8 SWAP6 PUSH1 0x80 PUSH2 0x3422 SWAP10 ADD MLOAD SUB PUSH2 0x3546 JUMPI JUMPDEST SWAP10 SWAP9 SWAP8 SWAP7 SWAP6 SWAP5 SWAP4 SWAP10 PUSH2 0x3B70 JUMP JUMPDEST PUSH1 0x40 MLOAD SWAP7 DUP8 SWAP7 PUSH32 0x90411A3200000000000000000000000000000000000000000000000000000000 DUP9 MSTORE PUSH20 0xFFFFFFFFFFFFFFFFFFFFFFFFFFFFFFFFFFFFFFFF DUP1 SWAP3 AND PUSH1 0x4 DUP10 ADD MSTORE PUSH1 0x60 PUSH1 0x24 DUP10 ADD MSTORE DUP2 DUP4 MLOAD AND PUSH1 0x64 DUP10 ADD MSTORE DUP2 PUSH1 0x20 DUP5 ADD MLOAD AND PUSH1 0x84 DUP10 ADD MSTORE DUP2 PUSH1 0x40 DUP5 ADD MLOAD AND PUSH1 0xA4 DUP10 ADD MSTORE DUP2 PUSH1 0x60 DUP5 ADD MLOAD AND PUSH1 0xC4 DUP10 ADD MSTORE PUSH1 0x80 DUP4 ADD MLOAD PUSH1 0xE4 DUP10 ADD MSTORE PUSH1 0xA0 DUP4 ADD MLOAD PUSH2 0x104 DUP10 ADD MSTORE PUSH1 0xC0 DUP4 ADD MLOAD PUSH2 0x124 DUP10 ADD MSTORE PUSH1 0xE0 DUP4 ADD MLOAD PUSH2 0x144 DUP10 ADD MSTORE DUP3 ADD MLOAD AND PUSH2 0x164 DUP8 ADD MSTORE ADD MLOAD PUSH2 0x140 PUSH2 0x184 DUP7 ADD MSTORE PUSH2 0x1A4 DUP6 ADD SWAP1 PUSH2 0x29B8 JUMP JUMPDEST SWAP1 PUSH32 0xFFFFFFFFFFFFFFFFFFFFFFFFFFFFFFFFFFFFFFFFFFFFFFFFFFFFFFFFFFFFFFFC DUP5 DUP4 SUB ADD PUSH1 0x44 DUP6 ADD MSTORE MLOAD DUP1 DUP3 MSTORE PUSH1 0x20 DUP3 ADD SWAP2 PUSH1 0x20 DUP3 PUSH1 0x5 SHL DUP3 ADD ADD SWAP4 SWAP3 PUSH1 0x0 SWAP2 JUMPDEST DUP4 DUP4 LT PUSH2 0x34D2 JUMPI POP POP POP POP POP SWAP1 DUP1 PUSH1 0x20 SWAP3 SUB DUP2 PUSH1 0x0 PUSH20 0x6352A56CAADC4F1E25CD6C75970FA768A3304E64 GAS CALL SWAP1 DUP2 ISZERO PUSH2 0x2EA1 JUMPI PUSH1 0x0 SWAP2 PUSH2 0x34A3 JUMPI POP SWAP1 JUMP JUMPDEST SWAP1 POP PUSH1 0x20 DUP2 RETURNDATASIZE PUSH1 0x20 GT PUSH2 0x34CA JUMPI JUMPDEST DUP2 PUSH2 0x34BE PUSH1 0x20 SWAP4 DUP4 PUSH2 0x28EB JUMP JUMPDEST DUP2 ADD SUB SLT PUSH2 0x63E JUMPI MLOAD SWAP1 JUMP JUMPDEST RETURNDATASIZE SWAP2 POP PUSH2 0x34B1 JUMP JUMPDEST SWAP2 SWAP4 SWAP6 POP SWAP2 SWAP4 PUSH1 0x20 DUP1 PUSH2 0x3534 DUP4 PUSH32 0xFFFFFFFFFFFFFFFFFFFFFFFFFFFFFFFFFFFFFFFFFFFFFFFFFFFFFFFFFFFFFFE0 DUP7 PUSH1 0x1 SWAP7 SUB ADD DUP8 MSTORE PUSH1 0x80 PUSH1 0x60 DUP12 MLOAD DUP1 MLOAD DUP5 MSTORE DUP6 DUP2 ADD MLOAD DUP7 DUP6 ADD MSTORE PUSH1 0x40 DUP2 ADD MLOAD PUSH1 0x40 DUP6 ADD MSTORE ADD MLOAD SWAP2 DUP2 PUSH1 0x60 DUP3 ADD MSTORE ADD SWAP1 PUSH2 0x29B8 JUMP JUMPDEST SWAP8 ADD SWAP4 ADD SWAP4 ADD SWAP1 SWAP3 DUP7 SWAP6 SWAP5 SWAP3 SWAP4 PUSH2 0x3465 JUMP JUMPDEST DUP3 PUSH1 0x80 DUP8 ADD MSTORE PUSH2 0x3350 JUMP JUMPDEST DUP3 MLOAD SWAP1 PUSH8 0xFFFFFFFFFFFFFFFF DUP3 GT PUSH2 0x63E JUMPI PUSH1 0x80 PUSH32 0xFFFFFFFFFFFFFFFFFFFFFFFFFFFFFFFFFFFFFFFFFFFFFFFFFFFFFFFFFFFFFFE0 DUP4 DUP8 DUP7 ADD ADD DUP10 SUB ADD SLT PUSH2 0x63E JUMPI PUSH1 0x40 MLOAD SWAP2 PUSH2 0x35A2 PUSH1 0x80 DUP5 PUSH2 0x28EB JUMP JUMPDEST DUP4 DUP7 ADD DUP2 ADD PUSH1 0x40 DUP2 DUP2 ADD MLOAD DUP6 MSTORE PUSH1 0x60 DUP3 ADD MLOAD PUSH1 0x20 DUP7 ADD MSTORE PUSH1 0x80 DUP3 ADD MLOAD SWAP1 DUP6 ADD MSTORE PUSH1 0xA0 ADD MLOAD SWAP2 PUSH8 0xFFFFFFFFFFFFFFFF DUP4 GT PUSH2 0x63E JUMPI PUSH1 0x40 SWAP4 PUSH2 0x35F2 PUSH1 0x20 SWAP5 SWAP4 DUP7 DUP7 SWAP6 DUP7 DUP15 ADD SWAP3 DUP13 DUP12 ADD ADD ADD ADD PUSH2 0x3C7B JUMP JUMPDEST PUSH1 0x60 DUP3 ADD MSTORE DUP2 MSTORE ADD SWAP4 ADD SWAP3 SWAP1 POP PUSH2 0x330B JUMP JUMPDEST SWAP2 SWAP4 SWAP2 PUSH1 0x5 DUP2 SUB PUSH2 0x3636 JUMPI POP POP SWAP1 PUSH1 0x0 SWAP3 PUSH2 0x3134 DUP5 SWAP4 PUSH20 0x6352A56CAADC4F1E25CD6C75970FA768A3304E64 DUP1 SWAP4 PUSH2 0x3B70 JUMP JUMPDEST SWAP2 SWAP3 SWAP2 PUSH1 0x6 DUP2 SUB PUSH2 0x3748 JUMPI POP POP PUSH1 0x40 MLOAD SWAP3 PUSH32 0xF3DCED3C00000000000000000000000000000000000000000000000000000000 DUP5 MSTORE PUSH1 0x20 SWAP4 PUSH20 0xA748D6573ACA135AF68F2635BE60CB80278BD855 SWAP2 DUP6 DUP3 PUSH1 0x4 DUP2 DUP7 GAS STATICCALL DUP1 ISZERO PUSH2 0x2EA1 JUMPI DUP7 SWAP1 PUSH1 0x0 SWAP1 PUSH2 0x3700 JUMPI JUMPDEST PUSH20 0xFFFFFFFFFFFFFFFFFFFFFFFFFFFFFFFFFFFFFFFF SWAP4 POP PUSH1 0x4 PUSH1 0x40 MLOAD DUP1 SWAP6 DUP2 SWAP4 PUSH32 0x1C6ECED500000000000000000000000000000000000000000000000000000000 DUP4 MSTORE AND GAS STATICCALL SWAP2 DUP3 ISZERO PUSH2 0x2EA1 JUMPI PUSH1 0x0 SWAP3 PUSH2 0x2E5B JUMPI POP PUSH1 0x0 SWAP5 DUP6 SWAP5 SWAP4 SWAP3 PUSH2 0x2E38 SWAP3 PUSH2 0x3B70 JUMP JUMPDEST POP DUP3 DUP2 RETURNDATASIZE DUP4 GT PUSH2 0x3741 JUMPI JUMPDEST PUSH2 0x3715 DUP2 DUP4 PUSH2 0x28EB JUMP JUMPDEST DUP2 ADD SUB SLT PUSH2 0x63E JUMPI DUP6 PUSH2 0x373C PUSH20 0xFFFFFFFFFFFFFFFFFFFFFFFFFFFFFFFFFFFFFFFF SWAP4 PUSH2 0x2A9F JUMP JUMPDEST PUSH2 0x369B JUMP JUMPDEST POP RETURNDATASIZE PUSH2 0x370B JUMP JUMPDEST SWAP1 SWAP2 POP PUSH1 0x7 SUB PUSH2 0x3AE7 JUMPI PUSH2 0x3771 DUP3 PUSH20 0xE592427A0AECE92DE3EDEE1F18E0157C05861564 DUP6 PUSH2 0x3B70 JUMP JUMPDEST PUSH1 0x0 DUP1 PUSH1 0x40 MLOAD SWAP1 PUSH2 0x3783 PUSH1 0x80 DUP4 PUSH2 0x28EB JUMP JUMPDEST PUSH1 0x64 DUP3 MSTORE PUSH2 0x1F4 PUSH1 0x20 DUP4 ADD MSTORE PUSH2 0xBB8 PUSH1 0x40 DUP4 ADD MSTORE PUSH2 0x2710 PUSH1 0x60 DUP4 ADD MSTORE PUSH1 0x0 JUMPDEST PUSH1 0x4 DUP2 LT PUSH2 0x3901 JUMPI POP POP POP PUSH3 0xFFFFFF AND SWAP1 DUP2 ISZERO PUSH2 0x38D7 JUMPI PUSH20 0xFFFFFFFFFFFFFFFFFFFFFFFFFFFFFFFFFFFFFFFF SWAP1 DUP2 PUSH1 0x40 MLOAD SWAP6 PUSH2 0x37E0 PUSH2 0x100 DUP9 PUSH2 0x28EB JUMP JUMPDEST AND DUP6 MSTORE AND PUSH1 0x20 DUP5 ADD MSTORE PUSH1 0x40 DUP4 ADD MSTORE ADDRESS PUSH1 0x60 DUP4 ADD MSTORE PUSH4 0xFFFFFFFF PUSH1 0x80 DUP4 ADD MSTORE PUSH1 0xA0 DUP3 ADD MSTORE PUSH1 0x0 PUSH1 0xC0 DUP3 ADD MSTORE PUSH1 0x0 PUSH1 0xE0 DUP3 ADD MSTORE PUSH20 0xFFFFFFFFFFFFFFFFFFFFFFFFFFFFFFFFFFFFFFFF PUSH1 0xE0 PUSH1 0x40 MLOAD SWAP3 PUSH32 0x414BF38900000000000000000000000000000000000000000000000000000000 DUP5 MSTORE DUP3 DUP2 MLOAD AND PUSH1 0x4 DUP6 ADD MSTORE DUP3 PUSH1 0x20 DUP3 ADD MLOAD AND PUSH1 0x24 DUP6 ADD MSTORE PUSH3 0xFFFFFF PUSH1 0x40 DUP3 ADD MLOAD AND PUSH1 0x44 DUP6 ADD MSTORE DUP3 PUSH1 0x60 DUP3 ADD MLOAD AND PUSH1 0x64 DUP6 ADD MSTORE PUSH1 0x80 DUP2 ADD MLOAD PUSH1 0x84 DUP6 ADD MSTORE PUSH1 0xA0 DUP2 ADD MLOAD PUSH1 0xA4 DUP6 ADD MSTORE PUSH1 0xC0 DUP2 ADD MLOAD PUSH1 0xC4 DUP6 ADD MSTORE ADD MLOAD AND PUSH1 0xE4 DUP3 ADD MSTORE PUSH1 0x20 DUP2 PUSH2 0x104 DUP2 PUSH1 0x0 PUSH20 0xE592427A0AECE92DE3EDEE1F18E0157C05861564 GAS CALL SWAP1 DUP2 ISZERO PUSH2 0x2EA1 JUMPI PUSH1 0x0 SWAP2 PUSH2 0x34A3 JUMPI POP SWAP1 JUMP JUMPDEST PUSH1 0x4 PUSH1 0x40 MLOAD PUSH32 0xE2DB3AAD00000000000000000000000000000000000000000000000000000000 DUP2 MSTORE REVERT JUMPDEST PUSH3 0xFFFFFF PUSH2 0x390F DUP3 DUP6 PUSH2 0x3CBD JUMP JUMPDEST MLOAD AND PUSH1 0x40 MLOAD SWAP1 PUSH32 0x1698EE8200000000000000000000000000000000000000000000000000000000 DUP3 MSTORE PUSH20 0xFFFFFFFFFFFFFFFFFFFFFFFFFFFFFFFFFFFFFFFF DUP10 AND PUSH1 0x4 DUP4 ADD MSTORE PUSH20 0xFFFFFFFFFFFFFFFFFFFFFFFFFFFFFFFFFFFFFFFF DUP8 AND PUSH1 0x24 DUP4 ADD MSTORE PUSH1 0x44 DUP3 ADD MSTORE PUSH1 0x20 DUP2 PUSH1 0x64 DUP2 PUSH20 0x1F98431C8AD98523631AE4A59F267346EA31F984 GAS STATICCALL DUP1 ISZERO PUSH2 0x2EA1 JUMPI PUSH1 0x0 SWAP1 PUSH2 0x3A9A JUMPI JUMPDEST PUSH20 0xFFFFFFFFFFFFFFFFFFFFFFFFFFFFFFFFFFFFFFFF SWAP2 POP AND DUP1 PUSH2 0x39C7 JUMPI JUMPDEST POP PUSH1 0x1 ADD PUSH2 0x37A2 JUMP JUMPDEST PUSH1 0x20 PUSH1 0x4 SWAP2 PUSH1 0x40 MLOAD SWAP3 DUP4 DUP1 SWAP3 PUSH32 0x1A68650200000000000000000000000000000000000000000000000000000000 DUP3 MSTORE GAS STATICCALL DUP1 ISZERO PUSH2 0x2EA1 JUMPI PUSH1 0x0 SWAP1 PUSH2 0x3A3F JUMPI JUMPDEST PUSH16 0xFFFFFFFFFFFFFFFFFFFFFFFFFFFFFFFF SWAP2 POP AND DUP3 DUP2 GT ISZERO PUSH2 0x39BE JUMPI SWAP2 POP SWAP3 POP PUSH1 0x1 PUSH3 0xFFFFFF PUSH2 0x3A36 DUP6 DUP6 PUSH2 0x3CBD JUMP JUMPDEST MLOAD AND SWAP4 SWAP1 PUSH2 0x39BE JUMP JUMPDEST POP PUSH1 0x20 DUP2 RETURNDATASIZE PUSH1 0x20 GT PUSH2 0x3A92 JUMPI JUMPDEST DUP2 PUSH2 0x3A59 PUSH1 0x20 SWAP4 DUP4 PUSH2 0x28EB JUMP JUMPDEST DUP2 ADD SUB SLT PUSH2 0x63E JUMPI MLOAD PUSH16 0xFFFFFFFFFFFFFFFFFFFFFFFFFFFFFFFF DUP2 AND DUP2 SUB PUSH2 0x63E JUMPI PUSH16 0xFFFFFFFFFFFFFFFFFFFFFFFFFFFFFFFF SWAP1 PUSH2 0x3A06 JUMP JUMPDEST RETURNDATASIZE SWAP2 POP PUSH2 0x3A4C JUMP JUMPDEST POP PUSH1 0x20 DUP2 RETURNDATASIZE PUSH1 0x20 GT PUSH2 0x3ADF JUMPI JUMPDEST DUP2 PUSH2 0x3AB4 PUSH1 0x20 SWAP4 DUP4 PUSH2 0x28EB JUMP JUMPDEST DUP2 ADD SUB SLT PUSH2 0x63E JUMPI PUSH2 0x3ADA PUSH20 0xFFFFFFFFFFFFFFFFFFFFFFFFFFFFFFFFFFFFFFFF SWAP2 PUSH2 0x2A9F JUMP JUMPDEST PUSH2 0x39A0 JUMP JUMPDEST RETURNDATASIZE SWAP2 POP PUSH2 0x3AA7 JUMP JUMPDEST PUSH1 0x4 PUSH1 0x40 MLOAD PUSH32 0xEFF442C100000000000000000000000000000000000000000000000000000000 DUP2 MSTORE REVERT JUMPDEST PUSH32 0x4E487B7100000000000000000000000000000000000000000000000000000000 PUSH1 0x0 MSTORE PUSH1 0x21 PUSH1 0x4 MSTORE PUSH1 0x24 PUSH1 0x0 REVERT JUMPDEST RETURNDATASIZE ISZERO PUSH2 0x3B6B JUMPI RETURNDATASIZE SWAP1 PUSH2 0x3B51 DUP3 PUSH2 0x295B JUMP JUMPDEST SWAP2 PUSH2 0x3B5F PUSH1 0x40 MLOAD SWAP4 DUP5 PUSH2 0x28EB JUMP JUMPDEST DUP3 MSTORE RETURNDATASIZE PUSH1 0x0 PUSH1 0x20 DUP5 ADD RETURNDATACOPY JUMP JUMPDEST PUSH1 0x60 SWAP1 JUMP JUMPDEST SWAP1 SWAP2 PUSH1 0x40 MLOAD PUSH32 0xDD62ED3E00000000000000000000000000000000000000000000000000000000 DUP2 MSTORE ADDRESS PUSH1 0x4 DUP3 ADD MSTORE PUSH1 0x20 DUP2 PUSH1 0x44 DUP2 PUSH20 0xFFFFFFFFFFFFFFFFFFFFFFFFFFFFFFFFFFFFFFFF DUP1 DUP10 AND PUSH1 0x24 DUP4 ADD MSTORE DUP8 AND GAS STATICCALL SWAP1 DUP2 ISZERO PUSH2 0x2EA1 JUMPI PUSH1 0x0 SWAP2 PUSH2 0x3C4A JUMPI JUMPDEST POP LT ISZERO PUSH2 0x3C46 JUMPI PUSH1 0x44 PUSH1 0x10 PUSH1 0x0 DUP1 SWAP4 PUSH1 0x20 SWAP6 PUSH1 0x14 MSTORE PUSH32 0xFFFFFFFFFFFFFFFFFFFFFFFFFFFFFFFFFFFFFFFFFFFFFFFFFFFFFFFFFFFFFFFF PUSH1 0x34 MSTORE PUSH16 0x95EA7B3000000000000000000000000 DUP3 MSTORE GAS CALL RETURNDATASIZE ISZERO PUSH1 0x1 PUSH1 0x0 MLOAD EQ OR AND ISZERO PUSH2 0x3C38 JUMPI PUSH1 0x0 PUSH1 0x34 MSTORE JUMP JUMPDEST PUSH4 0x3E3F8F73 PUSH1 0x0 MSTORE PUSH1 0x4 PUSH1 0x1C REVERT JUMPDEST POP POP JUMP JUMPDEST SWAP1 PUSH1 0x20 DUP3 RETURNDATASIZE DUP3 GT PUSH2 0x3C73 JUMPI JUMPDEST DUP2 PUSH2 0x3C63 PUSH1 0x20 SWAP4 DUP4 PUSH2 0x28EB JUMP JUMPDEST DUP2 ADD SUB SLT PUSH2 0x739 JUMPI POP MLOAD CODESIZE PUSH2 0x3BD4 JUMP JUMPDEST RETURNDATASIZE SWAP2 POP PUSH2 0x3C56 JUMP JUMPDEST DUP2 PUSH1 0x1F DUP3 ADD SLT ISZERO PUSH2 0x63E JUMPI DUP1 MLOAD PUSH2 0x3C91 DUP2 PUSH2 0x295B JUMP JUMPDEST SWAP3 PUSH2 0x3C9F PUSH1 0x40 MLOAD SWAP5 DUP6 PUSH2 0x28EB JUMP JUMPDEST DUP2 DUP5 MSTORE PUSH1 0x20 DUP3 DUP5 ADD ADD GT PUSH2 0x63E JUMPI PUSH2 0x2D71 SWAP2 PUSH1 0x20 DUP1 DUP6 ADD SWAP2 ADD PUSH2 0x2995 JUMP JUMPDEST SWAP1 PUSH1 0x4 DUP2 LT ISZERO PUSH2 0x2AD4 JUMPI PUSH1 0x5 SHL ADD SWAP1 JUMP JUMPDEST MLOAD SWAP1 PUSH6 0xFFFFFFFFFFFF DUP3 AND DUP3 SUB PUSH2 0x63E JUMPI JUMP JUMPDEST SWAP2 PUSH1 0x40 MLOAD PUSH32 0x927DA10500000000000000000000000000000000000000000000000000000000 DUP2 MSTORE ADDRESS PUSH1 0x4 DUP3 ADD MSTORE PUSH20 0xFFFFFFFFFFFFFFFFFFFFFFFFFFFFFFFFFFFFFFFF DUP1 DUP1 SWAP6 AND SWAP4 DUP5 PUSH1 0x24 DUP5 ADD MSTORE AND SWAP2 DUP3 PUSH1 0x44 DUP4 ADD MSTORE PUSH15 0x22D473030F116DDEE9F6B43AC78BA3 SWAP2 PUSH1 0x60 DUP2 PUSH1 0x64 DUP2 DUP7 GAS STATICCALL DUP1 ISZERO PUSH2 0x2EA1 JUMPI DUP7 SWAP2 PUSH1 0x0 SWAP2 PUSH2 0x3DDC JUMPI JUMPDEST POP AND LT ISZERO PUSH2 0x3DD6 JUMPI DUP1 EXTCODESIZE ISZERO PUSH2 0x63E JUMPI PUSH1 0x0 SWAP3 DUP4 PUSH1 0x84 SWAP3 PUSH1 0x40 MLOAD SWAP7 DUP8 SWAP6 DUP7 SWAP5 PUSH32 0x87517C4500000000000000000000000000000000000000000000000000000000 DUP7 MSTORE PUSH1 0x4 DUP7 ADD MSTORE PUSH1 0x24 DUP6 ADD MSTORE PUSH1 0x44 DUP5 ADD MSTORE PUSH6 0xFFFFFFFFFFFF PUSH1 0x64 DUP5 ADD MSTORE GAS CALL DUP1 ISZERO PUSH2 0x2EA1 JUMPI PUSH2 0x3DCB JUMPI POP JUMP JUMPDEST PUSH1 0x0 PUSH2 0x2CDA SWAP2 PUSH2 0x28EB JUMP JUMPDEST POP POP POP POP JUMP JUMPDEST SWAP2 POP PUSH1 0x60 DUP3 RETURNDATASIZE DUP3 GT PUSH2 0x3E2A JUMPI JUMPDEST DUP2 PUSH2 0x3DF6 PUSH1 0x60 SWAP4 DUP4 PUSH2 0x28EB JUMP JUMPDEST DUP2 ADD SUB SLT PUSH2 0x739 JUMPI POP DUP1 PUSH2 0x3E23 PUSH1 0x40 PUSH2 0x3E0F DUP10 SWAP5 PUSH2 0x2A9F JUMP JUMPDEST SWAP3 PUSH2 0x3E1C PUSH1 0x20 DUP3 ADD PUSH2 0x3CCE JUMP JUMPDEST POP ADD PUSH2 0x3CCE JUMP JUMPDEST POP CODESIZE PUSH2 0x3D60 JUMP JUMPDEST RETURNDATASIZE SWAP2 POP PUSH2 0x3DE9 JUMP JUMPDEST MLOAD SWAP1 PUSH1 0xFF DUP3 AND DUP3 SUB PUSH2 0x63E JUMPI JUMP JUMPDEST PUSH1 0xFF AND PUSH1 0x4D DUP2 GT PUSH2 0x2B26 JUMPI PUSH1 0xA EXP SWAP1 JUMP JUMPDEST MLOAD SWAP1 PUSH2 0xFFFF DUP3 AND DUP3 SUB PUSH2 0x63E JUMPI JUMP JUMPDEST MLOAD SWAP1 DUP2 ISZERO ISZERO DUP3 SUB PUSH2 0x63E JUMPI JUMP JUMPDEST SWAP1 DUP1 ISZERO PUSH2 0x3F1D JUMPI DUP2 ISZERO PUSH2 0x3F15 JUMPI DUP2 DUP1 PUSH1 0x1 EQ PUSH2 0x3F0C JUMPI PUSH1 0x2 EQ PUSH2 0x3EF2 JUMPI PUSH1 0x20 DUP2 LT PUSH2 0x133 DUP4 LT AND PUSH1 0x4E DUP3 LT PUSH1 0xB DUP5 LT AND OR PUSH2 0x3EE6 JUMPI SWAP1 SWAP2 PUSH1 0x1 SWAP2 DUP3 JUMPDEST DUP1 DUP3 GT PUSH2 0x3EBF JUMPI POP POP DUP3 SWAP1 DIV DUP2 GT PUSH2 0x2B26 JUMPI MUL SWAP1 JUMP JUMPDEST SWAP1 SWAP4 DUP1 DUP4 DIV DUP2 GT PUSH2 0x2B26 JUMPI DUP2 DUP6 AND PUSH2 0x3EDD JUMPI JUMPDEST DUP1 MUL SWAP4 DUP2 SHR SWAP1 PUSH2 0x3EA9 JUMP JUMPDEST DUP1 SWAP4 MUL SWAP3 PUSH2 0x3ED2 JUMP JUMPDEST SWAP1 EXP SWAP2 SWAP1 DUP3 GT PUSH2 0x2B26 JUMPI JUMP JUMPDEST SWAP1 POP PUSH1 0xFF DUP2 SWAP4 SWAP3 SWAP4 GT PUSH2 0x2B26 JUMPI PUSH1 0x1 SWAP1 SHL SWAP2 DUP3 GT PUSH2 0x2B26 JUMPI JUMP JUMPDEST POP POP POP POP PUSH1 0x1 SWAP1 JUMP JUMPDEST POP POP POP PUSH1 0x0 SWAP1 JUMP JUMPDEST POP POP POP PUSH1 0x1 SWAP1 JUMP JUMPDEST DUP2 DUP2 MUL SWAP3 SWAP2 DUP2 ISZERO SWAP2 DUP5 DIV EQ OR ISZERO PUSH2 0x2B26 JUMPI JUMP JUMPDEST SWAP2 PUSH2 0x3F43 ADDRESS DUP5 PUSH2 0x4172 JUMP JUMPDEST SWAP2 PUSH2 0x3F4E ADDRESS DUP3 PUSH2 0x4172 JUMP JUMPDEST PUSH32 0x0 SWAP5 PUSH2 0x3F7A ADDRESS DUP8 PUSH2 0x4172 JUMP JUMPDEST SWAP5 DUP5 DUP2 PUSH2 0x3FB2 JUMPI JUMPDEST SWAP2 POP POP DUP2 PUSH2 0x3FA1 JUMPI JUMPDEST POP POP POP DUP2 PUSH2 0x3F98 JUMPI POP POP POP JUMP JUMPDEST PUSH2 0x2CDA SWAP3 PUSH2 0x4129 JUMP JUMPDEST PUSH2 0x3FAA SWAP3 PUSH2 0x4129 JUMP JUMPDEST CODESIZE DUP1 DUP3 PUSH2 0x3F8B JUMP JUMPDEST PUSH2 0x3FBB SWAP3 PUSH2 0x4129 JUMP JUMPDEST CODESIZE DUP1 DUP5 PUSH2 0x3F82 JUMP JUMPDEST SWAP1 DUP1 PUSH32 0xFFFFFFFFFFFFFFFFFFFFFFFFFFFFFFFFFFFFFFFFFFFFFFFFFFFFFFFFFFFFFFFF DIV DUP3 GT DUP2 MUL PUSH2 0x3FFE JUMPI PUSH8 0xDE0B6B3A7640000 SWAP2 MUL DIV SWAP1 JUMP JUMPDEST PUSH4 0xBAC65E5B PUSH1 0x0 MSTORE PUSH1 0x4 PUSH1 0x1C REVERT JUMPDEST PUSH8 0xDE0B6B3A7640000 SWAP1 PUSH25 0x12725DD1D243ABA0E75FE645CC4873F9E65AFE688C928E1F21 DUP2 GT DUP3 MUL ISZERO DUP4 MUL ISZERO PUSH2 0x4041 JUMPI MUL DIV SWAP1 JUMP JUMPDEST PUSH4 0x7C5F487D PUSH1 0x0 MSTORE PUSH1 0x4 PUSH1 0x1C REVERT JUMPDEST SWAP2 PUSH1 0x0 SWAP3 DUP3 DUP2 MUL SWAP3 PUSH32 0xFFFFFFFFFFFFFFFFFFFFFFFFFFFFFFFFFFFFFFFFFFFFFFFFFFFFFFFFFFFFFFFF DUP2 DUP4 MULMOD SWAP2 DUP5 DUP4 LT DUP6 ADD DUP1 DUP5 SUB SWAP4 EQ PUSH2 0x40EF JUMPI DUP3 DUP5 GT ISZERO PUSH2 0x40E2 JUMPI SWAP1 DUP4 SWAP2 MULMOD SWAP1 PUSH1 0x1 DUP4 DUP7 SUB DUP5 AND DUP1 DUP1 DUP1 SWAP7 DIV PUSH1 0x2 DUP1 DUP3 PUSH1 0x3 MUL XOR DUP1 DUP4 MUL DUP3 SUB MUL DUP1 DUP4 MUL DUP3 SUB MUL DUP1 DUP4 MUL DUP3 SUB MUL DUP1 DUP4 MUL DUP3 SUB MUL DUP1 DUP4 MUL DUP3 SUB MUL DUP1 SWAP3 MUL SWAP1 SUB MUL SWAP8 SUB DIV ADD SWAP1 DUP5 DUP4 GT SWAP1 SUB MUL SWAP3 SUB DIV OR MUL SWAP1 JUMP JUMPDEST PUSH4 0xAE47F702 DUP7 MSTORE PUSH1 0x4 PUSH1 0x1C REVERT JUMPDEST POP POP POP SWAP2 DUP3 ISZERO PUSH2 0x40FE JUMPI POP DIV SWAP1 JUMP JUMPDEST PUSH4 0xAE47F702 SWAP1 MSTORE PUSH1 0x4 PUSH1 0x1C REVERT JUMPDEST PUSH1 0x0 DUP1 DUP1 SWAP4 DUP2 SWAP4 GAS CALL ISZERO PUSH2 0x411B JUMPI JUMP JUMPDEST PUSH4 0xB12D13EB PUSH1 0x0 MSTORE PUSH1 0x4 PUSH1 0x1C REVERT JUMPDEST PUSH1 0x10 SWAP3 PUSH1 0x20 SWAP3 PUSH1 0x14 MSTORE PUSH1 0x34 MSTORE PUSH1 0x44 PUSH1 0x0 SWAP4 DUP5 DUP1 SWAP4 PUSH16 0xA9059CBB000000000000000000000000 DUP3 MSTORE GAS CALL RETURNDATASIZE ISZERO PUSH1 0x1 DUP4 MLOAD EQ OR AND ISZERO PUSH2 0x4165 JUMPI PUSH1 0x34 MSTORE JUMP JUMPDEST PUSH4 0x90B8EC18 SWAP1 MSTORE PUSH1 0x4 PUSH1 0x1C REVERT JUMPDEST PUSH1 0x24 PUSH1 0x10 PUSH1 0x20 SWAP4 SWAP3 DUP5 SWAP4 PUSH1 0x14 MSTORE PUSH16 0x70A08231000000000000000000000000 PUSH1 0x0 MSTORE GAS STATICCALL PUSH1 0x1F RETURNDATASIZE GT AND PUSH1 0x20 MLOAD MUL SWAP1 JUMP INVALID LOG1 PUSH5 0x736F6C6343 STOP ADDMOD GT STOP EXP "},"methodIdentifiers":{"OKX_AGGREGATION_ROUTER()":"d0736749","ONE_INCH_ROUTER_V5()":"bdcb9932","OPEN_OCEAN_EXCHANGE_PROXY()":"72e05064","OxPROJECT_EXCHANGE_PROXY()":"2f764135","PARASWAP_AUGUSTUS_SWAPPER_V5()":"88a799f6","PERMIT2()":"6afdd850","UNISWAP_V3_ROUTER()":"41c64a2f","altairBorrow_O9E(address,uint256,bytes)":"8f53d74f","altairLiquidate_f2x(address,uint256,uint256,bytes)":"e95471c7","altairRedeem_u91A(address,uint256,bytes)":"989bebcf","getAssetsForShares(address,uint256,uint256)":"d0189a91","hangar18()":"e8a24e1d","name()":"06fdde03","nativeToken()":"e1758bd8","sweepNative()":"ab803a76","sweepTokens(address[],address)":"7071f0c4","usd()":"d63a6ccd","version()":"54fd4d50"}}}}}