{"contracts/cygnus-periphery/XGyroECLP.sol":{"XGyroECLP":{"abi":[{"inputs":[{"internalType":"contract IHangar18","name":"_hangar18","type":"address"}],"stateMutability":"nonpayable","type":"constructor"},{"inputs":[],"name":"CygnusAltair__0xProjectTransactionFailed","type":"error"},{"inputs":[],"name":"CygnusAltair__InsufficientLPTokenAmount","type":"error"},{"inputs":[],"name":"CygnusAltair__InsufficientLiquidateUsd","type":"error"},{"inputs":[],"name":"CygnusAltair__InsufficientUSDAmount","type":"error"},{"inputs":[],"name":"CygnusAltair__InvalidAggregator","type":"error"},{"inputs":[],"name":"CygnusAltair__InvalidPool","type":"error"},{"inputs":[],"name":"CygnusAltair__MsgSenderNotAdmin","type":"error"},{"inputs":[],"name":"CygnusAltair__MsgSenderNotBorrowable","type":"error"},{"inputs":[],"name":"CygnusAltair__MsgSenderNotCollateral","type":"error"},{"inputs":[],"name":"CygnusAltair__MsgSenderNotRouter","type":"error"},{"inputs":[],"name":"CygnusAltair__OneInchTransactionFailed","type":"error"},{"inputs":[],"name":"CygnusAltair__OnlyDelegateCall","type":"error"},{"inputs":[],"name":"CygnusAltair__OpenOceanTransactionFailed","type":"error"},{"inputs":[],"name":"CygnusAltair__ParaswapTransactionFailed","type":"error"},{"inputs":[],"name":"OKX_AGGREGATION_ROUTER","outputs":[{"internalType":"address","name":"","type":"address"}],"stateMutability":"view","type":"function"},{"inputs":[],"name":"ONE_INCH_ROUTER_V5","outputs":[{"internalType":"address","name":"","type":"address"}],"stateMutability":"view","type":"function"},{"inputs":[],"name":"OPEN_OCEAN_EXCHANGE_PROXY","outputs":[{"internalType":"address","name":"","type":"address"}],"stateMutability":"view","type":"function"},{"inputs":[],"name":"OxPROJECT_EXCHANGE_PROXY","outputs":[{"internalType":"address","name":"","type":"address"}],"stateMutability":"view","type":"function"},{"inputs":[],"name":"PARASWAP_AUGUSTUS_SWAPPER_V5","outputs":[{"internalType":"address","name":"","type":"address"}],"stateMutability":"view","type":"function"},{"inputs":[],"name":"PERMIT2","outputs":[{"internalType":"address","name":"","type":"address"}],"stateMutability":"view","type":"function"},{"inputs":[],"name":"UNISWAP_V3_ROUTER","outputs":[{"internalType":"address","name":"","type":"address"}],"stateMutability":"view","type":"function"},{"inputs":[],"name":"VAULT","outputs":[{"internalType":"contract IVault","name":"","type":"address"}],"stateMutability":"view","type":"function"},{"inputs":[{"internalType":"address","name":"sender","type":"address"},{"internalType":"uint256","name":"borrowAmount","type":"uint256"},{"internalType":"bytes","name":"data","type":"bytes"}],"name":"altairBorrow_O9E","outputs":[{"internalType":"uint256","name":"liquidity","type":"uint256"}],"stateMutability":"nonpayable","type":"function"},{"inputs":[{"internalType":"address","name":"sender","type":"address"},{"internalType":"uint256","name":"cygLPAmount","type":"uint256"},{"internalType":"uint256","name":"repayAmount","type":"uint256"},{"internalType":"bytes","name":"data","type":"bytes"}],"name":"altairLiquidate_f2x","outputs":[],"stateMutability":"nonpayable","type":"function"},{"inputs":[{"internalType":"address","name":"sender","type":"address"},{"internalType":"uint256","name":"redeemAmount","type":"uint256"},{"internalType":"bytes","name":"data","type":"bytes"}],"name":"altairRedeem_u91A","outputs":[{"internalType":"uint256","name":"usdAmount","type":"uint256"}],"stateMutability":"nonpayable","type":"function"},{"inputs":[{"internalType":"address","name":"underlying","type":"address"},{"internalType":"uint256","name":"shares","type":"uint256"},{"internalType":"uint256","name":"difference","type":"uint256"}],"name":"getAssetsForShares","outputs":[{"internalType":"address[]","name":"tokens","type":"address[]"},{"internalType":"uint256[]","name":"amounts","type":"uint256[]"}],"stateMutability":"view","type":"function"},{"inputs":[],"name":"hangar18","outputs":[{"internalType":"contract IHangar18","name":"","type":"address"}],"stateMutability":"view","type":"function"},{"inputs":[],"name":"name","outputs":[{"internalType":"string","name":"","type":"string"}],"stateMutability":"view","type":"function"},{"inputs":[],"name":"nativeToken","outputs":[{"internalType":"contract IWrappedNative","name":"","type":"address"}],"stateMutability":"view","type":"function"},{"inputs":[],"name":"sweepNative","outputs":[],"stateMutability":"nonpayable","type":"function"},{"inputs":[{"internalType":"contract IERC20[]","name":"tokens","type":"address[]"},{"internalType":"address","name":"to","type":"address"}],"name":"sweepTokens","outputs":[],"stateMutability":"nonpayable","type":"function"},{"inputs":[],"name":"usd","outputs":[{"internalType":"address","name":"","type":"address"}],"stateMutability":"view","type":"function"},{"inputs":[],"name":"version","outputs":[{"internalType":"string","name":"","type":"string"}],"stateMutability":"view","type":"function"},{"stateMutability":"payable","type":"receive"}],"evm":{"bytecode":{"linkReferences":{},"object":"61010060409080825234620001b15780620041f68038038091620000248285620001b6565b8339602092839181010312620001b157516001600160a01b039081811690818103620001b15760a0528351631c2eb17b60e31b8152908382600481845afa928315620001a657600493859360009162000184575b501660e052845163d63a6ccd60e01b815292839182905afa918215620001795760009262000145575b505060c0523060805251613fe4908162000212823960805181612b07015260a0518181816107e801528181610c31015261227b015260c051818181610552015281816108c901528181610ffa01528181611863015281816118a301528181611d7e01528181611dba01528181611f4601528181611f8601528181611fc101528181611ff601528181612c3d0152613d9d015260e05181818161085a01526112370152f35b620001699250803d1062000171575b620001608183620001b6565b810190620001f0565b3880620000a1565b503d62000154565b83513d6000823e3d90fd5b6200019f9150843d86116200017157620001608183620001b6565b3862000078565b85513d6000823e3d90fd5b600080fd5b601f909101601f19168101906001600160401b03821190821017620001da57604052565b634e487b7160e01b600052604160045260246000fd5b90816020910312620001b157516001600160a01b0381168103620001b1579056fe6080604052600436101561001b575b361561001957600080fd5b005b600060e08135811c806306fdde03146125925780632f76413514612545578063411557d1146124f857806341c64a2f146124ab57806354fd4d50146124245780636afdd850146123dc5780637071f0c41461219857806372e050641461214b57806388a799f6146120fe5780638f53d74f1461149a578063989bebcf14610ce8578063ab803a7614610bbe578063bdcb993214610b71578063d0189a911461093a578063d0736749146108ed578063d63a6ccd1461087e578063e1758bd81461080f578063e8a24e1d1461079d5763e95471c7146100fa57505061000e565b346107995760807ffffffffffffffffffffffffffffffffffffffffffffffffffffffffffffffffc360112610799576004359073ffffffffffffffffffffffffffffffffffffffff91828116809103610678576044359267ffffffffffffffff9260643584811161079557610173903690600401612788565b61017e929192612af0565b820191602090818185031261060a5780359087821161079157016101008082860312610791576101b1604051918261263f565b6101ba82612767565b81526101c7838301612767565b968382019788526101da60408401612767565b92604083019384526101ee60608201612767565b966060840197885261020260808301612767565b608085015260a082013560a085015260c08201359a60088c101561078d5760c085019b8c528783013590811161078d5761023c9201612a36565b94820194855230146102725760046040517fa610e788000000000000000000000000000000000000000000000000000000008152fd5b85825116330361076357858080809351169851169251169451169651926008841015610736575191896040517f18160ddd0000000000000000000000000000000000000000000000000000000081528281600481875afa90811561072b5782916106fa575b50604051907f01e1d1140000000000000000000000000000000000000000000000000000000082528382600481885afa801561064557849284916106c4575b506103ba9161032791602435613e85565b94610331846126af565b61033e604051918261263f565b8481527fffffffffffffffffffffffffffffffffffffffffffffffffffffffffffffffe061036b866126af565b0136858301376040519485809481937ffa14fdc20000000000000000000000000000000000000000000000000000000083523060048401528a602484015260606044840152606483019061270c565b03925af180156106b95761068f575b5080600497604051988980927f38fff2d00000000000000000000000000000000000000000000000000000000082525afa968715610684578a97610650575b5089604051977ff94d46680000000000000000000000000000000000000000000000000000000089528060048a015273ba12222222228d8ba445958a75a0704d566bf2c892828a602481875afa998a1561064557839a61061f575b5061046e8a51612b59565b946040519060018383015260408201526040815261048d60608261263f565b856040519261049d60808561263f565b8c84528301526040820152826060820152833b1561061b576104f5938392836040518097819582947f8bdb39130000000000000000000000000000000000000000000000000000000084523090309060048601612bf4565b03925af191821561060e5788926105f1575b509361052361054f958861051c3092866128ee565b5116613fa8565b61052d8c856128ee565b5261053e308861051c6001866128ee565b6105496001856128ee565b52612c33565b507f00000000000000000000000000000000000000000000000000000000000000009461057c3087613fa8565b918183106105c7576105c49661059f610598846105a496612a29565b8883613f5f565b613f5f565b6105bc6001826105b488866128ee565b5116936128ee565b511690613d76565b80f35b60046040517f38040e8d000000000000000000000000000000000000000000000000000000008152fd5b819250906105fe9161263f565b61060a57858938610507565b8880fd5b50604051903d90823e3d90fd5b8280fd5b61063c919a503d8085833e610634818361263f565b810190612931565b50509838610463565b6040513d85823e3d90fd5b9080975081813d831161067d575b610668818361263f565b8101031261067857519538610408565b600080fd5b503d61065e565b6040513d8c823e3d90fd5b8190813d83116106b2575b6106a4818361263f565b8101031261067857386103c9565b503d61069a565b6040513d8d823e3d90fd5b92809294508391503d83116106f3575b6106de818361263f565b8101031261067857518b9183916103ba610316565b503d6106d4565b809250838092503d8311610724575b610713818361263f565b81010312610678578a9051386102d7565b503d610709565b6040513d84823e3d90fd5b60248a7f4e487b710000000000000000000000000000000000000000000000000000000081526021600452fd5b60046040517fe0ffcbfd000000000000000000000000000000000000000000000000000000008152fd5b8d80fd5b8980fd5b8680fd5b5080fd5b823461080c57807ffffffffffffffffffffffffffffffffffffffffffffffffffffffffffffffffc36011261080c57602060405173ffffffffffffffffffffffffffffffffffffffff7f0000000000000000000000000000000000000000000000000000000000000000168152f35b80fd5b823461080c57807ffffffffffffffffffffffffffffffffffffffffffffffffffffffffffffffffc36011261080c57602060405173ffffffffffffffffffffffffffffffffffffffff7f0000000000000000000000000000000000000000000000000000000000000000168152f35b823461080c57807ffffffffffffffffffffffffffffffffffffffffffffffffffffffffffffffffc36011261080c57602060405173ffffffffffffffffffffffffffffffffffffffff7f0000000000000000000000000000000000000000000000000000000000000000168152f35b823461080c57807ffffffffffffffffffffffffffffffffffffffffffffffffffffffffffffffffc36011261080c57602060405173a748d6573aca135af68f2635be60cb80278bd8558152f35b823461080c5760607ffffffffffffffffffffffffffffffffffffffffffffffffffffffffffffffffc36011261080c5760043573ffffffffffffffffffffffffffffffffffffffff8116809103610678576024359160443592604051907f38fff2d00000000000000000000000000000000000000000000000000000000082526020938483600481845afa908115610b365785908592610b41575b60049450604051948580927f18160ddd0000000000000000000000000000000000000000000000000000000082525afa928315610b36578493610b07575b50604051907ff94d46680000000000000000000000000000000000000000000000000000000082526004820152838160248173ba12222222228d8ba445958a75a0704d566bf2c85afa938415610afb5780918195610adc575b505b8151811015610aae5780610a9988610a9487610a8d610aa9968b6128ee565b5188613e85565b612a29565b610aa382886128ee565b52612892565b610a6e565b610acb82610ad888886040519485946040865260408601906127f3565b918483039085015261283d565b0390f35b909450610af391503d8086833e610634818361263f565b509387610a6c565b604051903d90823e3d90fd5b9092508481813d8311610b2f575b610b1f818361263f565b8101031261067857519186610a13565b503d610b15565b6040513d86823e3d90fd5b915083813d8311610b6a575b610b57818361263f565b81010312610678578460049351916109d5565b503d610b4d565b823461080c57807ffffffffffffffffffffffffffffffffffffffffffffffffffffffffffffffffc36011261080c576020604051731111111254eeb25477b68fb85ed929f73a9605828152f35b823461080c57807ffffffffffffffffffffffffffffffffffffffffffffffffffffffffffffffffc36011261080c576040517ff851a44000000000000000000000000000000000000000000000000000000000815273ffffffffffffffffffffffffffffffffffffffff602082600481847f0000000000000000000000000000000000000000000000000000000000000000165afa918215610645578392610cad575b5081163303610c83574780610c74578280f35b610c7d91613f41565b81808280f35b60046040517f1a19b036000000000000000000000000000000000000000000000000000000008152fd5b9091506020813d8211610ce0575b81610cc86020938361263f565b8101031261061b57610cd990612871565b9083610c61565b3d9150610cbb565b50903461080c57610cfa3660046127b6565b610d05929192612af0565b820192602093848482031261121057833567ffffffffffffffff9485821161149657019361010093848684031261149657610d43604051958661263f565b610d4c86612767565b8552610d59878701612767565b94878101958652610d6c60408801612767565b6040820152610d7d60608801612767565b906060810191825260808101946080890135865260a082019460a08a0135865260c08a01359960088b10156114925760c084019a8b528d81013591821161149257610dc9929101612a36565b9a81019a8b5273ffffffffffffffffffffffffffffffffffffffff9586163014610e175760046040517fa610e788000000000000000000000000000000000000000000000000000000008152fd5b85875116330361146857858080925116925116965116935192519651916008831015610736578860049798999a9b5192604051988980927f38fff2d00000000000000000000000000000000000000000000000000000000082525afa9687156106b9578b97611439575b50604051967ff94d46680000000000000000000000000000000000000000000000000000000088528060048901528b73ba12222222228d8ba445958a75a0704d566bf2c891818a602481865afa998a1561072b57829a61141b575b508c610ee88b51612b59565b9460405190600183830152604082015260408152610f0760608261263f565b8560405192610f1760808561263f565b8d84528301526040820152826060820152833b1561061b57610f6f938392836040518097819582947f8bdb39130000000000000000000000000000000000000000000000000000000084523090309060048601612bf4565b03925af191821561060e5789926113fe575b5093610fb194610fa0610f99308b61051c85886128ee565b91856128ee565b5261053e308961051c6001866128ee565b9586106113d4578791604051917fe99a6ac70000000000000000000000000000000000000000000000000000000083528883600481855afa928315610b3657849361139d575b507f000000000000000000000000000000000000000000000000000000000000000085841693843b15611210576040517fa6afed950000000000000000000000000000000000000000000000000000000081528681600481838a5af190811561121b578791611388575b50506040517f7d6af079000000000000000000000000000000000000000000000000000000008152896004820152604081602481895afa95861561121b5761115d968d928991611357575b50808d101561134c57506110c38c80945b86613f5f565b6110cc886126af565b906110da604051928361263f565b8882527fffffffffffffffffffffffffffffffffffffffffffffffffffffffffffffffe06111078a6126af565b0136848401378b89604051809a819582947f1e7dcc0d000000000000000000000000000000000000000000000000000000008452600484015283602484015283604484015260806064840152608483019061270c565b03925af1948515611341578b95611310575b50808a11611226575b505060649060405194859384927f23b872dd0000000000000000000000000000000000000000000000000000000084528a600485015281602485015260448401525af1801561121b576111e4575b506105bc6001826105b46111dc979899866128ee565b604051908152f35b8581813d8311611214575b6111f9818361263f565b8101031261079557518015150361121057386111c6565b8580fd5b503d6111ef565b6040513d89823e3d90fd5b61123291945089612a29565b8988877f0000000000000000000000000000000000000000000000000000000000000000169586898216146000146112fa57505050833b156112f6578480946024604051809781937f2e1a7d4d0000000000000000000000000000000000000000000000000000000083528660048401525af180156112eb578a9486916112ca575b5050906112c360649289613f41565b9038611178565b8192939550906112d99161263f565b6112e75791889284386112b4565b8380fd5b6040513d87823e3d90fd5b8480fd5b61130b929650906064949391613f5f565b6112c3565b9094809296503d831161133a575b611328818361263f565b8101031261067857899389933861116f565b503d61131e565b6040513d88823e3d90fd5b6110c39080946110bd565b611379915060403d604011611381575b611371818361263f565b810190613be7565b9050386110ac565b503d611367565b816113929161263f565b611210578538611061565b9092508881813d83116113cd575b6113b5818361263f565b810103126112e7576113c690612871565b9138610ff7565b503d6113ab565b60046040517fb2a4caeb000000000000000000000000000000000000000000000000000000008152fd5b8192509061140b9161263f565b61141757868b38610f81565b8a80fd5b611430919a503d8084833e610634818361263f565b50509838610edc565b9096508981813d8311611461575b611451818361263f565b8101031261067857519538610e81565b503d611447565b60046040517fd0e9c9f6000000000000000000000000000000000000000000000000000000008152fd5b8c80fd5b8780fd5b5034610799576114ab3660046127b6565b6114ba95939295949194612af0565b8401916020858403126112e757843567ffffffffffffffff9586821161121057019082828503126112f6576114f2604051938461263f565b6114fb82612767565b835261150960208301612767565b926020810193845261151d60408401612767565b6040820190815261153060608501612767565b9560608301968752608083019860808601358a5260a08601359560088710156107915760a0850196875260c081013591821161079157611571929101612a36565b60c083019081529273ffffffffffffffffffffffffffffffffffffffff1630146115bf5760046040517fa610e788000000000000000000000000000000000000000000000000000000008152fd5b5173ffffffffffffffffffffffffffffffffffffffff1633036107635773ffffffffffffffffffffffffffffffffffffffff8080925116955116935116955191519060088210156120d1575190604051907f38fff2d0000000000000000000000000000000000000000000000000000000008252602082600481895afa91821561121b57879261209d575b50604051987ff94d4668000000000000000000000000000000000000000000000000000000008a528260048b0152878a60248173ba12222222228d8ba445958a75a0704d566bf2c85afa938415611d6857889a8995612078575b508891908b6004851484811561206c575b8115612027575b5015611efc5773ffffffffffffffffffffffffffffffffffffffff6116e96001826105b4600498866128ee565b51169260208b604051968780927f38fff2d00000000000000000000000000000000000000000000000000000000082525afa948515611eb9578c95611ec4575b50604051947ff94d466800000000000000000000000000000000000000000000000000000000865260048601528b8560248173ba12222222228d8ba445958a75a0704d566bf2c85afa948515611eb9578c95611e99575b50604080517f702ec09100000000000000000000000000000000000000000000000000000000815290816004818f5afa908115611e8e57906117e6918e80918193611e59575b506117e06117da926117da6001938c6128ee565b51613e3c565b986128ee565b8501808611611e2c57670de0b6b3a7640000907812725dd1d243aba0e75fe645cc4873f9e65afe688c928e1f218711820215810215611e1f57818181890204810311611df2579081816118418561184b9695838c0204613e3c565b9802049003613e3c565b9373ffffffffffffffffffffffffffffffffffffffff7f0000000000000000000000000000000000000000000000000000000000000000168203611db4575b505073ffffffffffffffffffffffffffffffffffffffff7f0000000000000000000000000000000000000000000000000000000000000000168203611d73575b505050505b604051916118de60608461263f565b60028352604036602085013761190d3073ffffffffffffffffffffffffffffffffffffffff61051c8a8d6128ee565b61191788856128ee565b5261193c3073ffffffffffffffffffffffffffffffffffffffff61051c60018d6128ee565b6119476001856128ee565b52604051907f18160ddd0000000000000000000000000000000000000000000000000000000082526020826004818a5afa918215611d68578892611d32575b506119c2906119ab6119988a876128ee565b51846119a48c856128ee565b5191613e85565b926119a460016119bb81896128ee565b51936128ee565b9081811115611d2b57505b60405190600360208301526040820152604081526119ec60608261263f565b611a3673ffffffffffffffffffffffffffffffffffffffff611a0e898c6128ee565b511673ba12222222228d8ba445958a75a0704d566bf2c8611a2f8a876128ee565b5191613a9a565b611a7b73ffffffffffffffffffffffffffffffffffffffff611a5960018c6128ee565b511673ba12222222228d8ba445958a75a0704d566bf2c8611a2f6001876128ee565b60405192611a8a60808561263f565b8984526020840152604083015285606083015273ba12222222228d8ba445958a75a0704d566bf2c83b1561121057611b0b91869160405193849283927fb95cac280000000000000000000000000000000000000000000000000000000084526004840152306024840152306044840152608060648401526084830190612ba8565b03818373ba12222222228d8ba445958a75a0704d566bf2c85af180156112eb57611d17575b50611b6582611b3f3086613fa8565b9773ffffffffffffffffffffffffffffffffffffffff6105bc6001826105b48b866128ee565b8510611cee5783611b9686611ca79685611b91836e22d473030f116ddee9f6b43ac78ba3602099613a9a565b613c21565b611b9f846126af565b91611bad604051938461263f565b8483527fffffffffffffffffffffffffffffffffffffffffffffffffffffffffffffffe0611bda866126af565b013685850137846040518097819582947f8808e71c0000000000000000000000000000000000000000000000000000000084528b6004850152602484015273ffffffffffffffffffffffffffffffffffffffff845416604484015260015473ffffffffffffffffffffffffffffffffffffffff8116606485015265ffffffffffff8160a01c16608485015260d01c60a484015273ffffffffffffffffffffffffffffffffffffffff6002541660c484015260035460e484015261012061010484015261012483019061270c565b03925af1908115610afb5750611cc3575b602082604051908152f35b602090813d8311611ce7575b611cd9818361263f565b810103126106785738611cb8565b503d611ccf565b60046040517ebf8768000000000000000000000000000000000000000000000000000000008152fd5b84611d249195929561263f565b9238611b30565b90506119cd565b9091506020813d602011611d60575b81611d4e6020938361263f565b810103126114965751906119c2611986565b3d9150611d41565b6040513d8a823e3d90fd5b611daa93611da360017f0000000000000000000000000000000000000000000000000000000000000000936128ee565b5190612ce4565b50388080806118ca565b611dea917f0000000000000000000000000000000000000000000000000000000000000000611de38e866128ee565b5188612ce4565b50388061188a565b60248e7f4e487b710000000000000000000000000000000000000000000000000000000081526011600452fd5b637c5f487d8e526004601cfd5b60248d7f4e487b710000000000000000000000000000000000000000000000000000000081526011600452fd5b60019193506117da92506117da611e816117e09260403d60401161138157611371818361263f565b9590945092506117c69050565b6040513d8f823e3d90fd5b611eaf9195508c3d8091833e610634818361263f565b5090509338611780565b6040513d8e823e3d90fd5b9094506020813d602011611ef4575b81611ee06020938361263f565b81010312611ef057519338611729565b8b80fd5b3d9150611ed3565b9192611f2b600173ffffffffffffffffffffffffffffffffffffffff611f238194876128ee565b5116946128ee565b5116918373ffffffffffffffffffffffffffffffffffffffff7f0000000000000000000000000000000000000000000000000000000000000000168203611ff0575b505073ffffffffffffffffffffffffffffffffffffffff7f0000000000000000000000000000000000000000000000000000000000000000168203611fb6575b505050506118cf565b611fe693611da360017f0000000000000000000000000000000000000000000000000000000000000000936128ee565b5038808080611fad565b61201f917f0000000000000000000000000000000000000000000000000000000000000000611de38e866128ee565b503883611f6d565b92939450505061203f579088918b60078514386116bc565b6024897f4e487b710000000000000000000000000000000000000000000000000000000081526021600452fd5b505060018514846116b5565b89929b506120919195503d8084833e610634818361263f565b509a909a9490916116a4565b9091506020813d6020116120c9575b816120b96020938361263f565b810103126107955751903861164a565b3d91506120ac565b6024867f4e487b710000000000000000000000000000000000000000000000000000000081526021600452fd5b823461080c57807ffffffffffffffffffffffffffffffffffffffffffffffffffffffffffffffffc36011261080c57602060405173def171fe48cf0115b1d80b88dc8eab59176fee578152f35b823461080c57807ffffffffffffffffffffffffffffffffffffffffffffffffffffffffffffffffc36011261080c576020604051736352a56caadc4f1e25cd6c75970fa768a3304e648152f35b823461080c5760407ffffffffffffffffffffffffffffffffffffffffffffffffffffffffffffffffc36011261080c576004359067ffffffffffffffff821161080c573660238301121561080c5781600401356121f48161274f565b90612202604051928361263f565b8082526020938483016024809360051b83010191368311611210578301905b8282106123b05750505080359173ffffffffffffffffffffffffffffffffffffffff9182841684036112f6576040517ff851a4400000000000000000000000000000000000000000000000000000000081528681600481877f0000000000000000000000000000000000000000000000000000000000000000165afa908115611341579084918791612378575b50163303610c8357845b8251811015612374578087856122cf8594876128ee565b5116604051938480927f70a082310000000000000000000000000000000000000000000000000000000082523060048301525afa801561121b578790612343575b612321925080612326575b50612892565b6122b8565b61233d90878761233685896128ee565b5116613f5f565b8861231b565b50908781813d831161236d575b61235a818361263f565b8101031261079557906123219151612310565b503d612350565b8580f35b809250888092503d83116123a9575b612391818361263f565b81010312611210576123a38491612871565b886122ae565b503d612387565b813573ffffffffffffffffffffffffffffffffffffffff81168103610795578152908601908601612221565b823461080c57807ffffffffffffffffffffffffffffffffffffffffffffffffffffffffffffffffc36011261080c5760206040516e22d473030f116ddee9f6b43ac78ba38152f35b823461080c57807ffffffffffffffffffffffffffffffffffffffffffffffffffffffffffffffffc36011261080c57610ad861246060056126af565b61246d604051918261263f565b600581527f312e302e30000000000000000000000000000000000000000000000000000000602082015260405191829160208352602083019061270c565b823461080c57807ffffffffffffffffffffffffffffffffffffffffffffffffffffffffffffffffc36011261080c57602060405173e592427a0aece92de3edee1f18e0157c058615648152f35b823461080c57807ffffffffffffffffffffffffffffffffffffffffffffffffffffffffffffffffc36011261080c57602060405173ba12222222228d8ba445958a75a0704d566bf2c88152f35b823461080c57807ffffffffffffffffffffffffffffffffffffffffffffffffffffffffffffffffc36011261080c57602060405173def1c0ded9bec7f1a1670819833240f027b25eff8152f35b823461080c57807ffffffffffffffffffffffffffffffffffffffffffffffffffffffffffffffffc36011261080c57610ad86125ce60226126af565b6125db604051918261263f565b602281527f416c7461697220457874656e73696f6e3a2048797065727669736f7220506f6f60208201527f6c73000000000000000000000000000000000000000000000000000000000000604082015260405191829160208352602083019061270c565b90601f7fffffffffffffffffffffffffffffffffffffffffffffffffffffffffffffffe0910116810190811067ffffffffffffffff82111761268057604052565b7f4e487b7100000000000000000000000000000000000000000000000000000000600052604160045260246000fd5b67ffffffffffffffff811161268057601f017fffffffffffffffffffffffffffffffffffffffffffffffffffffffffffffffe01660200190565b60005b8381106126fc5750506000910152565b81810151838201526020016126ec565b907fffffffffffffffffffffffffffffffffffffffffffffffffffffffffffffffe0601f602093612748815180928187528780880191016126e9565b0116010190565b67ffffffffffffffff81116126805760051b60200190565b359073ffffffffffffffffffffffffffffffffffffffff8216820361067857565b9181601f840112156106785782359167ffffffffffffffff8311610678576020838186019501011161067857565b91606083830312610678576127ca83612767565b92602081013592604082013567ffffffffffffffff8111610678576127ef9201612788565b9091565b90815180825260208080930193019160005b828110612813575050505090565b835173ffffffffffffffffffffffffffffffffffffffff1685529381019392810192600101612805565b90815180825260208080930193019160005b82811061285d575050505090565b83518552938101939281019260010161284f565b519073ffffffffffffffffffffffffffffffffffffffff8216820361067857565b7fffffffffffffffffffffffffffffffffffffffffffffffffffffffffffffffff81146128bf5760010190565b7f4e487b7100000000000000000000000000000000000000000000000000000000600052601160045260246000fd5b80518210156129025760209160051b010190565b7f4e487b7100000000000000000000000000000000000000000000000000000000600052603260045260246000fd5b90916060828403126106785781519267ffffffffffffffff9384811161067857830181601f820112156106785780519061296a8261274f565b90612978604051928361263f565b828252602092838084019160051b830101918583116106785784809101915b838310612a11575050505094818501519081116106785784019180601f840112156106785782516129c78161274f565b936129d5604051958661263f565b818552838086019260051b820101928311610678578301905b828210612a02575050505060409092015190565b815181529083019083016129ee565b8190612a1c84612871565b8152019101908490612997565b919082039182116128bf57565b9080601f8301121561067857813591612a4e8361274f565b92604090612a5e8251958661263f565b808552602093848087019260051b8501019381851161067857858101925b858410612a8d575050505050505090565b833567ffffffffffffffff811161067857820183603f82011215610678578781013591612ab9836126af565b612ac58851918261263f565b838152858885850101116106785760008a8581968b8397018386013783010152815201930192612a7c565b73ffffffffffffffffffffffffffffffffffffffff7f0000000000000000000000000000000000000000000000000000000000000000163014612b2f57565b60046040517fc97bbbae000000000000000000000000000000000000000000000000000000008152fd5b90612b638261274f565b612b70604051918261263f565b8281527fffffffffffffffffffffffffffffffffffffffffffffffffffffffffffffffe0612b9e829461274f565b0190602036910137565b90606080612be9612bd7612bc586516080875260808701906127f3565b6020870151868203602088015261283d565b6040860151858203604087015261270c565b930151151591015290565b9091612c309493608093835273ffffffffffffffffffffffffffffffffffffffff80921660208401521660408201528160608201520190612ba8565b90565b90939291936000947f00000000000000000000000000000000000000000000000000000000000000009173ffffffffffffffffffffffffffffffffffffffff94858416975b8251811015612cd057808988612c91612c9d94876128ee565b511603612ca257612892565b612c78565b61231b612caf82856128ee565b51878a612cbc85896128ee565b5116612cc8858a6128ee565b51928b612ce4565b50505050915050612c309192503090613fa8565b93929091936008811015613a3b5780612dd7575050604051927fd2c4b59800000000000000000000000000000000000000000000000000000000845260209373def171fe48cf0115b1d80b88dc8eab59176fee57918582600481865afa918215612dcb57600092612d85575b5060009485949392612d6192613a9a565b84825192019034905af1612d73613a6a565b9015612d7f570151905b565b80519101fd5b90939291508581813d8311612dc4575b612d9f818361263f565b81010312610678576000948594612db8612d6193612871565b93949550915094612d50565b503d612d95565b6040513d6000823e3d90fd5b929391926001810361302e5750509080518101816020820191039361014085126106785760e07fffffffffffffffffffffffffffffffffffffffffffffffffffffffffffffffe0612e2a60208601612871565b96011261067857604094855194612e4260e08761263f565b612e4d878601612871565b8652612e5b60608601612871565b9060208701918252612e6f60808701612871565b94888801958652612e8260a08801612871565b976060810198895260c08801516080820190815260e08901519060a083019182526101008a01519260c081019384526101208b015167ffffffffffffffff9081811161067857866020612ed7928f0101613ba5565b956101408d0151918211610678578e9c612ef49201602001613ba5565b9589835103613026575b731111111254eeb25477b68fb85ed929f73a960582998a612f1e92613a9a565b8a519b8c809b819a829a7f12aa3caf00000000000000000000000000000000000000000000000000000000845273ffffffffffffffffffffffffffffffffffffffff80968195828095169060040152511660248d0152511660448b015251166064890152511660848701525160a48601525160c48501525160e4840152610104830161014090526101448301612fb39161270c565b8281037ffffffffffffffffffffffffffffffffffffffffffffffffffffffffffffffffc01610124840152612fe79161270c565b03915a90600091f191821561301c5760009261300257505090565b6130189250803d1061138157611371818361263f565b5090565b513d6000823e3d90fd5b898352612efe565b60028103613086575050906000929161305e8493731111111254eeb25477b68fb85ed929f73a9605828093613a9a565b6020825192019034905af1613071613a6a565b901561307e576020015190565b602081519101fd5b600381036130b6575050906000929161305e849373def1c0ded9bec7f1a1670819833240f027b25eff8093613a9a565b6004810361352e5750508151820190606083830312610678576130db60208401612871565b60408401519467ffffffffffffffff861161067857610140868601850312610678576040519261310d6101408561263f565b61311b602088880101612871565b845261312b604088880101612871565b602085015261313e606088880101612871565b6040850152613151608088880101612871565b606085015260a08787010151608085015260c0878701015160a085015260e0878701015160c08501526101009687818801015160e086015261319861012082890101612871565b8886015261014081880101519067ffffffffffffffff82116106785760206131c792818901928a010101613ba5565b61012085015260608601519467ffffffffffffffff86116106785760208101603f87890101121561067857602086880101516132028161274f565b96613210604051988961263f565b8188526020880180996020850160408560051b85840101011161067857604083820101915b60408560051b8584010101831061347b575050505050509161328782736352a56caadc4f1e25cd6c75970fa768a3304e64610120958795608061334c99015103613470575b9998979695949399613a9a565b6040519687967f90411a3200000000000000000000000000000000000000000000000000000000885273ffffffffffffffffffffffffffffffffffffffff8092166004890152606060248901528183511660648901528160208401511660848901528160408401511660a48901528160608401511660c4890152608083015160e489015260a083015161010489015260c083015161012489015260e08301516101448901528201511661016487015201516101406101848601526101a485019061270c565b907ffffffffffffffffffffffffffffffffffffffffffffffffffffffffffffffffc84830301604485015251808252602082019160208260051b82010193926000915b8383106133fc575050505050908060209203816000736352a56caadc4f1e25cd6c75970fa768a3304e645af1908115612dcb576000916133cd575090565b90506020813d6020116133f4575b816133e86020938361263f565b81010312610678575190565b3d91506133db565b91939550919360208061345e837fffffffffffffffffffffffffffffffffffffffffffffffffffffffffffffffe08660019603018752608060608b5180518452858101518685015260408101516040850152015191816060820152019061270c565b9701930193019092869594929361338f565b82608087015261327a565b82519067ffffffffffffffff82116106785760807fffffffffffffffffffffffffffffffffffffffffffffffffffffffffffffffe083878601018903011261067857604051916134cc60808461263f565b838601810160408181015185526060820151602086015260808201519085015260a001519167ffffffffffffffff83116106785760409361351c60209493868695868e01928c8b01010101613ba5565b60608201528152019301929050613235565b919391600581036135605750509060009261305e8493736352a56caadc4f1e25cd6c75970fa768a3304e648093613a9a565b91929160068103613672575050604051927ff3dced3c00000000000000000000000000000000000000000000000000000000845260209373a748d6573aca135af68f2635be60cb80278bd855918582600481865afa8015612dcb57869060009061362a575b73ffffffffffffffffffffffffffffffffffffffff93506004604051809581937f1c6eced5000000000000000000000000000000000000000000000000000000008352165afa918215612dcb57600092612d85575060009485949392612d6192613a9a565b5082813d831161366b575b61363f818361263f565b81010312610678578561366673ffffffffffffffffffffffffffffffffffffffff93612871565b6135c5565b503d613635565b909150600703613a115761369b8273e592427a0aece92de3edee1f18e0157c0586156485613a9a565b600080604051906136ad60808361263f565b606482526101f46020830152610bb86040830152612710606083015260005b6004811061382b5750505062ffffff169081156138015773ffffffffffffffffffffffffffffffffffffffff90816040519561370a6101008861263f565b168552166020840152604083015230606083015263ffffffff608083015260a0820152600060c0820152600060e082015273ffffffffffffffffffffffffffffffffffffffff60e0604051927f414bf38900000000000000000000000000000000000000000000000000000000845282815116600485015282602082015116602485015262ffffff60408201511660448501528260608201511660648501526080810151608485015260a081015160a485015260c081015160c485015201511660e482015260208161010481600073e592427a0aece92de3edee1f18e0157c058615645af1908115612dcb576000916133cd575090565b60046040517fe2db3aad000000000000000000000000000000000000000000000000000000008152fd5b62ffffff6138398285613bfd565b5116604051907f1698ee8200000000000000000000000000000000000000000000000000000000825273ffffffffffffffffffffffffffffffffffffffff8916600483015273ffffffffffffffffffffffffffffffffffffffff871660248301526044820152602081606481731f98431c8ad98523631ae4a59f267346ea31f9845afa8015612dcb576000906139c4575b73ffffffffffffffffffffffffffffffffffffffff915016806138f1575b506001016136cc565b6020600491604051928380927f1a6865020000000000000000000000000000000000000000000000000000000082525afa8015612dcb57600090613969575b6fffffffffffffffffffffffffffffffff915016828111156138e85791509250600162ffffff6139608585613bfd565b511693906138e8565b506020813d6020116139bc575b816139836020938361263f565b8101031261067857516fffffffffffffffffffffffffffffffff81168103610678576fffffffffffffffffffffffffffffffff90613930565b3d9150613976565b506020813d602011613a09575b816139de6020938361263f565b8101031261067857613a0473ffffffffffffffffffffffffffffffffffffffff91612871565b6138ca565b3d91506139d1565b60046040517feff442c1000000000000000000000000000000000000000000000000000000008152fd5b7f4e487b7100000000000000000000000000000000000000000000000000000000600052602160045260246000fd5b3d15613a95573d90613a7b826126af565b91613a89604051938461263f565b82523d6000602084013e565b606090565b90916040517fdd62ed3e00000000000000000000000000000000000000000000000000000000815230600482015260208160448173ffffffffffffffffffffffffffffffffffffffff808916602483015287165afa908115612dcb57600091613b74575b501015613b705760446010600080936020956014527fffffffffffffffffffffffffffffffffffffffffffffffffffffffffffffffff6034526f095ea7b300000000000000000000000082525af13d15600160005114171615613b62576000603452565b633e3f8f736000526004601cfd5b5050565b906020823d8211613b9d575b81613b8d6020938361263f565b8101031261080c57505138613afe565b3d9150613b80565b81601f82011215610678578051613bbb816126af565b92613bc9604051948561263f565b8184526020828401011161067857612c3091602080850191016126e9565b9190826040910312610678576020825192015190565b9060048110156129025760051b0190565b519065ffffffffffff8216820361067857565b916040517f927da10500000000000000000000000000000000000000000000000000000000815230600482015273ffffffffffffffffffffffffffffffffffffffff808095169384602484015216918260448301526e22d473030f116ddee9f6b43ac78ba391606081606481865afa8015612dcb578691600091613d1c575b50161015613d1657803b15610678576000928360849260405196879586947f87517c4500000000000000000000000000000000000000000000000000000000865260048601526024850152604484015265ffffffffffff60648401525af18015612dcb57613d0b5750565b6000612d7d9161263f565b50505050565b9091506060813d8211613d6e575b81613d376060938361263f565b8101031261079957805191878316830361080c575090613d67604083613d6060208b9601613c0e565b5001613c0e565b5038613ca0565b3d9150613d2a565b9190613d823084613fa8565b613d8c3083613fa8565b9080613e2b575b5080613e1a575b507f00000000000000000000000000000000000000000000000000000000000000009273ffffffffffffffffffffffffffffffffffffffff80918186169283911614159283613e0d575b505050613def575050565b613df93083613fa8565b9081613e0457505050565b612d7d92613f5f565b1614159050388080613de4565b613e25908383613f5f565b38613d9a565b613e36908486613f5f565b38613d93565b90807fffffffffffffffffffffffffffffffffffffffffffffffffffffffffffffffff0482118102613e7757670de0b6b3a764000091020490565b63bac65e5b6000526004601cfd5b91600092828102927fffffffffffffffffffffffffffffffffffffffffffffffffffffffffffffffff8183099184831085018084039314613f255782841115613f1857908391099060018386038416808080960460028082600302188083028203028083028203028083028203028083028203028083028203028092029003029703040190848311900302920304170290565b63ae47f70286526004601cfd5b505050918215613f3457500490565b63ae47f70290526004601cfd5b600080809381935af115613f5157565b63b12d13eb6000526004601cfd5b60109260209260145260345260446000938480936fa9059cbb00000000000000000000000082525af13d156001835114171615613f9b57603452565b6390b8ec1890526004601cfd5b602460106020939284936014526f70a082310000000000000000000000006000525afa601f3d1116602051029056fea164736f6c6343000811000a","opcodes":"PUSH2 0x100 PUSH1 0x40 SWAP1 DUP1 DUP3 MSTORE CALLVALUE PUSH3 0x1B1 JUMPI DUP1 PUSH3 0x41F6 DUP1 CODESIZE SUB DUP1 SWAP2 PUSH3 0x24 DUP3 DUP6 PUSH3 0x1B6 JUMP JUMPDEST DUP4 CODECOPY PUSH1 0x20 SWAP3 DUP4 SWAP2 DUP2 ADD SUB SLT PUSH3 0x1B1 JUMPI MLOAD PUSH1 0x1 PUSH1 0x1 PUSH1 0xA0 SHL SUB SWAP1 DUP2 DUP2 AND SWAP1 DUP2 DUP2 SUB PUSH3 0x1B1 JUMPI PUSH1 0xA0 MSTORE DUP4 MLOAD PUSH4 0x1C2EB17B PUSH1 0xE3 SHL DUP2 MSTORE SWAP1 DUP4 DUP3 PUSH1 0x4 DUP2 DUP5 GAS STATICCALL SWAP3 DUP4 ISZERO PUSH3 0x1A6 JUMPI PUSH1 0x4 SWAP4 DUP6 SWAP4 PUSH1 0x0 SWAP2 PUSH3 0x184 JUMPI JUMPDEST POP AND PUSH1 0xE0 MSTORE DUP5 MLOAD PUSH4 0xD63A6CCD PUSH1 0xE0 SHL DUP2 MSTORE SWAP3 DUP4 SWAP2 DUP3 SWAP1 GAS STATICCALL SWAP2 DUP3 ISZERO PUSH3 0x179 JUMPI PUSH1 0x0 SWAP3 PUSH3 0x145 JUMPI JUMPDEST POP POP PUSH1 0xC0 MSTORE ADDRESS PUSH1 0x80 MSTORE MLOAD PUSH2 0x3FE4 SWAP1 DUP2 PUSH3 0x212 DUP3 CODECOPY PUSH1 0x80 MLOAD DUP2 PUSH2 0x2B07 ADD MSTORE PUSH1 0xA0 MLOAD DUP2 DUP2 DUP2 PUSH2 0x7E8 ADD MSTORE DUP2 DUP2 PUSH2 0xC31 ADD MSTORE PUSH2 0x227B ADD MSTORE PUSH1 0xC0 MLOAD DUP2 DUP2 DUP2 PUSH2 0x552 ADD MSTORE DUP2 DUP2 PUSH2 0x8C9 ADD MSTORE DUP2 DUP2 PUSH2 0xFFA ADD MSTORE DUP2 DUP2 PUSH2 0x1863 ADD MSTORE DUP2 DUP2 PUSH2 0x18A3 ADD MSTORE DUP2 DUP2 PUSH2 0x1D7E ADD MSTORE DUP2 DUP2 PUSH2 0x1DBA ADD MSTORE DUP2 DUP2 PUSH2 0x1F46 ADD MSTORE DUP2 DUP2 PUSH2 0x1F86 ADD MSTORE DUP2 DUP2 PUSH2 0x1FC1 ADD MSTORE DUP2 DUP2 PUSH2 0x1FF6 ADD MSTORE DUP2 DUP2 PUSH2 0x2C3D ADD MSTORE PUSH2 0x3D9D ADD MSTORE PUSH1 0xE0 MLOAD DUP2 DUP2 DUP2 PUSH2 0x85A ADD MSTORE PUSH2 0x1237 ADD MSTORE RETURN JUMPDEST PUSH3 0x169 SWAP3 POP DUP1 RETURNDATASIZE LT PUSH3 0x171 JUMPI JUMPDEST PUSH3 0x160 DUP2 DUP4 PUSH3 0x1B6 JUMP JUMPDEST DUP2 ADD SWAP1 PUSH3 0x1F0 JUMP JUMPDEST CODESIZE DUP1 PUSH3 0xA1 JUMP JUMPDEST POP RETURNDATASIZE PUSH3 0x154 JUMP JUMPDEST DUP4 MLOAD RETURNDATASIZE PUSH1 0x0 DUP3 RETURNDATACOPY RETURNDATASIZE SWAP1 REVERT JUMPDEST PUSH3 0x19F SWAP2 POP DUP5 RETURNDATASIZE DUP7 GT PUSH3 0x171 JUMPI PUSH3 0x160 DUP2 DUP4 PUSH3 0x1B6 JUMP JUMPDEST CODESIZE PUSH3 0x78 JUMP JUMPDEST DUP6 MLOAD RETURNDATASIZE PUSH1 0x0 DUP3 RETURNDATACOPY RETURNDATASIZE SWAP1 REVERT JUMPDEST PUSH1 0x0 DUP1 REVERT JUMPDEST PUSH1 0x1F SWAP1 SWAP2 ADD PUSH1 0x1F NOT AND DUP2 ADD SWAP1 PUSH1 0x1 PUSH1 0x1 PUSH1 0x40 SHL SUB DUP3 GT SWAP1 DUP3 LT OR PUSH3 0x1DA JUMPI PUSH1 0x40 MSTORE JUMP JUMPDEST PUSH4 0x4E487B71 PUSH1 0xE0 SHL PUSH1 0x0 MSTORE PUSH1 0x41 PUSH1 0x4 MSTORE PUSH1 0x24 PUSH1 0x0 REVERT JUMPDEST SWAP1 DUP2 PUSH1 0x20 SWAP2 SUB SLT PUSH3 0x1B1 JUMPI MLOAD PUSH1 0x1 PUSH1 0x1 PUSH1 0xA0 SHL SUB DUP2 AND DUP2 SUB PUSH3 0x1B1 JUMPI SWAP1 JUMP INVALID PUSH1 0x80 PUSH1 0x40 MSTORE PUSH1 0x4 CALLDATASIZE LT ISZERO PUSH2 0x1B JUMPI JUMPDEST CALLDATASIZE ISZERO PUSH2 0x19 JUMPI PUSH1 0x0 DUP1 REVERT JUMPDEST STOP JUMPDEST PUSH1 0x0 PUSH1 0xE0 DUP2 CALLDATALOAD DUP2 SHR DUP1 PUSH4 0x6FDDE03 EQ PUSH2 0x2592 JUMPI DUP1 PUSH4 0x2F764135 EQ PUSH2 0x2545 JUMPI DUP1 PUSH4 0x411557D1 EQ PUSH2 0x24F8 JUMPI DUP1 PUSH4 0x41C64A2F EQ PUSH2 0x24AB JUMPI DUP1 PUSH4 0x54FD4D50 EQ PUSH2 0x2424 JUMPI DUP1 PUSH4 0x6AFDD850 EQ PUSH2 0x23DC JUMPI DUP1 PUSH4 0x7071F0C4 EQ PUSH2 0x2198 JUMPI DUP1 PUSH4 0x72E05064 EQ PUSH2 0x214B JUMPI DUP1 PUSH4 0x88A799F6 EQ PUSH2 0x20FE JUMPI DUP1 PUSH4 0x8F53D74F EQ PUSH2 0x149A JUMPI DUP1 PUSH4 0x989BEBCF EQ PUSH2 0xCE8 JUMPI DUP1 PUSH4 0xAB803A76 EQ PUSH2 0xBBE JUMPI DUP1 PUSH4 0xBDCB9932 EQ PUSH2 0xB71 JUMPI DUP1 PUSH4 0xD0189A91 EQ PUSH2 0x93A JUMPI DUP1 PUSH4 0xD0736749 EQ PUSH2 0x8ED JUMPI DUP1 PUSH4 0xD63A6CCD EQ PUSH2 0x87E JUMPI DUP1 PUSH4 0xE1758BD8 EQ PUSH2 0x80F JUMPI DUP1 PUSH4 0xE8A24E1D EQ PUSH2 0x79D JUMPI PUSH4 0xE95471C7 EQ PUSH2 0xFA JUMPI POP POP PUSH2 0xE JUMP JUMPDEST CALLVALUE PUSH2 0x799 JUMPI PUSH1 0x80 PUSH32 0xFFFFFFFFFFFFFFFFFFFFFFFFFFFFFFFFFFFFFFFFFFFFFFFFFFFFFFFFFFFFFFFC CALLDATASIZE ADD SLT PUSH2 0x799 JUMPI PUSH1 0x4 CALLDATALOAD SWAP1 PUSH20 0xFFFFFFFFFFFFFFFFFFFFFFFFFFFFFFFFFFFFFFFF SWAP2 DUP3 DUP2 AND DUP1 SWAP2 SUB PUSH2 0x678 JUMPI PUSH1 0x44 CALLDATALOAD SWAP3 PUSH8 0xFFFFFFFFFFFFFFFF SWAP3 PUSH1 0x64 CALLDATALOAD DUP5 DUP2 GT PUSH2 0x795 JUMPI PUSH2 0x173 SWAP1 CALLDATASIZE SWAP1 PUSH1 0x4 ADD PUSH2 0x2788 JUMP JUMPDEST PUSH2 0x17E SWAP3 SWAP2 SWAP3 PUSH2 0x2AF0 JUMP JUMPDEST DUP3 ADD SWAP2 PUSH1 0x20 SWAP1 DUP2 DUP2 DUP6 SUB SLT PUSH2 0x60A JUMPI DUP1 CALLDATALOAD SWAP1 DUP8 DUP3 GT PUSH2 0x791 JUMPI ADD PUSH2 0x100 DUP1 DUP3 DUP7 SUB SLT PUSH2 0x791 JUMPI PUSH2 0x1B1 PUSH1 0x40 MLOAD SWAP2 DUP3 PUSH2 0x263F JUMP JUMPDEST PUSH2 0x1BA DUP3 PUSH2 0x2767 JUMP JUMPDEST DUP2 MSTORE PUSH2 0x1C7 DUP4 DUP4 ADD PUSH2 0x2767 JUMP JUMPDEST SWAP7 DUP4 DUP3 ADD SWAP8 DUP9 MSTORE PUSH2 0x1DA PUSH1 0x40 DUP5 ADD PUSH2 0x2767 JUMP JUMPDEST SWAP3 PUSH1 0x40 DUP4 ADD SWAP4 DUP5 MSTORE PUSH2 0x1EE PUSH1 0x60 DUP3 ADD PUSH2 0x2767 JUMP JUMPDEST SWAP7 PUSH1 0x60 DUP5 ADD SWAP8 DUP9 MSTORE PUSH2 0x202 PUSH1 0x80 DUP4 ADD PUSH2 0x2767 JUMP JUMPDEST PUSH1 0x80 DUP6 ADD MSTORE PUSH1 0xA0 DUP3 ADD CALLDATALOAD PUSH1 0xA0 DUP6 ADD MSTORE PUSH1 0xC0 DUP3 ADD CALLDATALOAD SWAP11 PUSH1 0x8 DUP13 LT ISZERO PUSH2 0x78D JUMPI PUSH1 0xC0 DUP6 ADD SWAP12 DUP13 MSTORE DUP8 DUP4 ADD CALLDATALOAD SWAP1 DUP2 GT PUSH2 0x78D JUMPI PUSH2 0x23C SWAP3 ADD PUSH2 0x2A36 JUMP JUMPDEST SWAP5 DUP3 ADD SWAP5 DUP6 MSTORE ADDRESS EQ PUSH2 0x272 JUMPI PUSH1 0x4 PUSH1 0x40 MLOAD PUSH32 0xA610E78800000000000000000000000000000000000000000000000000000000 DUP2 MSTORE REVERT JUMPDEST DUP6 DUP3 MLOAD AND CALLER SUB PUSH2 0x763 JUMPI DUP6 DUP1 DUP1 DUP1 SWAP4 MLOAD AND SWAP9 MLOAD AND SWAP3 MLOAD AND SWAP5 MLOAD AND SWAP7 MLOAD SWAP3 PUSH1 0x8 DUP5 LT ISZERO PUSH2 0x736 JUMPI MLOAD SWAP2 DUP10 PUSH1 0x40 MLOAD PUSH32 0x18160DDD00000000000000000000000000000000000000000000000000000000 DUP2 MSTORE DUP3 DUP2 PUSH1 0x4 DUP2 DUP8 GAS STATICCALL SWAP1 DUP2 ISZERO PUSH2 0x72B JUMPI DUP3 SWAP2 PUSH2 0x6FA JUMPI JUMPDEST POP PUSH1 0x40 MLOAD SWAP1 PUSH32 0x1E1D11400000000000000000000000000000000000000000000000000000000 DUP3 MSTORE DUP4 DUP3 PUSH1 0x4 DUP2 DUP9 GAS STATICCALL DUP1 ISZERO PUSH2 0x645 JUMPI DUP5 SWAP3 DUP5 SWAP2 PUSH2 0x6C4 JUMPI JUMPDEST POP PUSH2 0x3BA SWAP2 PUSH2 0x327 SWAP2 PUSH1 0x24 CALLDATALOAD PUSH2 0x3E85 JUMP JUMPDEST SWAP5 PUSH2 0x331 DUP5 PUSH2 0x26AF JUMP JUMPDEST PUSH2 0x33E PUSH1 0x40 MLOAD SWAP2 DUP3 PUSH2 0x263F JUMP JUMPDEST DUP5 DUP2 MSTORE PUSH32 0xFFFFFFFFFFFFFFFFFFFFFFFFFFFFFFFFFFFFFFFFFFFFFFFFFFFFFFFFFFFFFFE0 PUSH2 0x36B DUP7 PUSH2 0x26AF JUMP JUMPDEST ADD CALLDATASIZE DUP6 DUP4 ADD CALLDATACOPY PUSH1 0x40 MLOAD SWAP5 DUP6 DUP1 SWAP5 DUP2 SWAP4 PUSH32 0xFA14FDC200000000000000000000000000000000000000000000000000000000 DUP4 MSTORE ADDRESS PUSH1 0x4 DUP5 ADD MSTORE DUP11 PUSH1 0x24 DUP5 ADD MSTORE PUSH1 0x60 PUSH1 0x44 DUP5 ADD MSTORE PUSH1 0x64 DUP4 ADD SWAP1 PUSH2 0x270C JUMP JUMPDEST SUB SWAP3 GAS CALL DUP1 ISZERO PUSH2 0x6B9 JUMPI PUSH2 0x68F JUMPI JUMPDEST POP DUP1 PUSH1 0x4 SWAP8 PUSH1 0x40 MLOAD SWAP9 DUP10 DUP1 SWAP3 PUSH32 0x38FFF2D000000000000000000000000000000000000000000000000000000000 DUP3 MSTORE GAS STATICCALL SWAP7 DUP8 ISZERO PUSH2 0x684 JUMPI DUP11 SWAP8 PUSH2 0x650 JUMPI JUMPDEST POP DUP10 PUSH1 0x40 MLOAD SWAP8 PUSH32 0xF94D466800000000000000000000000000000000000000000000000000000000 DUP10 MSTORE DUP1 PUSH1 0x4 DUP11 ADD MSTORE PUSH20 0xBA12222222228D8BA445958A75A0704D566BF2C8 SWAP3 DUP3 DUP11 PUSH1 0x24 DUP2 DUP8 GAS STATICCALL SWAP10 DUP11 ISZERO PUSH2 0x645 JUMPI DUP4 SWAP11 PUSH2 0x61F JUMPI JUMPDEST POP PUSH2 0x46E DUP11 MLOAD PUSH2 0x2B59 JUMP JUMPDEST SWAP5 PUSH1 0x40 MLOAD SWAP1 PUSH1 0x1 DUP4 DUP4 ADD MSTORE PUSH1 0x40 DUP3 ADD MSTORE PUSH1 0x40 DUP2 MSTORE PUSH2 0x48D PUSH1 0x60 DUP3 PUSH2 0x263F JUMP JUMPDEST DUP6 PUSH1 0x40 MLOAD SWAP3 PUSH2 0x49D PUSH1 0x80 DUP6 PUSH2 0x263F JUMP JUMPDEST DUP13 DUP5 MSTORE DUP4 ADD MSTORE PUSH1 0x40 DUP3 ADD MSTORE DUP3 PUSH1 0x60 DUP3 ADD MSTORE DUP4 EXTCODESIZE ISZERO PUSH2 0x61B JUMPI PUSH2 0x4F5 SWAP4 DUP4 SWAP3 DUP4 PUSH1 0x40 MLOAD DUP1 SWAP8 DUP2 SWAP6 DUP3 SWAP5 PUSH32 0x8BDB391300000000000000000000000000000000000000000000000000000000 DUP5 MSTORE ADDRESS SWAP1 ADDRESS SWAP1 PUSH1 0x4 DUP7 ADD PUSH2 0x2BF4 JUMP JUMPDEST SUB SWAP3 GAS CALL SWAP2 DUP3 ISZERO PUSH2 0x60E JUMPI DUP9 SWAP3 PUSH2 0x5F1 JUMPI JUMPDEST POP SWAP4 PUSH2 0x523 PUSH2 0x54F SWAP6 DUP9 PUSH2 0x51C ADDRESS SWAP3 DUP7 PUSH2 0x28EE JUMP JUMPDEST MLOAD AND PUSH2 0x3FA8 JUMP JUMPDEST PUSH2 0x52D DUP13 DUP6 PUSH2 0x28EE JUMP JUMPDEST MSTORE PUSH2 0x53E ADDRESS DUP9 PUSH2 0x51C PUSH1 0x1 DUP7 PUSH2 0x28EE JUMP JUMPDEST PUSH2 0x549 PUSH1 0x1 DUP6 PUSH2 0x28EE JUMP JUMPDEST MSTORE PUSH2 0x2C33 JUMP JUMPDEST POP PUSH32 0x0 SWAP5 PUSH2 0x57C ADDRESS DUP8 PUSH2 0x3FA8 JUMP JUMPDEST SWAP2 DUP2 DUP4 LT PUSH2 0x5C7 JUMPI PUSH2 0x5C4 SWAP7 PUSH2 0x59F PUSH2 0x598 DUP5 PUSH2 0x5A4 SWAP7 PUSH2 0x2A29 JUMP JUMPDEST DUP9 DUP4 PUSH2 0x3F5F JUMP JUMPDEST PUSH2 0x3F5F JUMP JUMPDEST PUSH2 0x5BC PUSH1 0x1 DUP3 PUSH2 0x5B4 DUP9 DUP7 PUSH2 0x28EE JUMP JUMPDEST MLOAD AND SWAP4 PUSH2 0x28EE JUMP JUMPDEST MLOAD AND SWAP1 PUSH2 0x3D76 JUMP JUMPDEST DUP1 RETURN JUMPDEST PUSH1 0x4 PUSH1 0x40 MLOAD PUSH32 0x38040E8D00000000000000000000000000000000000000000000000000000000 DUP2 MSTORE REVERT JUMPDEST DUP2 SWAP3 POP SWAP1 PUSH2 0x5FE SWAP2 PUSH2 0x263F JUMP JUMPDEST PUSH2 0x60A JUMPI DUP6 DUP10 CODESIZE PUSH2 0x507 JUMP JUMPDEST DUP9 DUP1 REVERT JUMPDEST POP PUSH1 0x40 MLOAD SWAP1 RETURNDATASIZE SWAP1 DUP3 RETURNDATACOPY RETURNDATASIZE SWAP1 REVERT JUMPDEST DUP3 DUP1 REVERT JUMPDEST PUSH2 0x63C SWAP2 SWAP11 POP RETURNDATASIZE DUP1 DUP6 DUP4 RETURNDATACOPY PUSH2 0x634 DUP2 DUP4 PUSH2 0x263F JUMP JUMPDEST DUP2 ADD SWAP1 PUSH2 0x2931 JUMP JUMPDEST POP POP SWAP9 CODESIZE PUSH2 0x463 JUMP JUMPDEST PUSH1 0x40 MLOAD RETURNDATASIZE DUP6 DUP3 RETURNDATACOPY RETURNDATASIZE SWAP1 REVERT JUMPDEST SWAP1 DUP1 SWAP8 POP DUP2 DUP2 RETURNDATASIZE DUP4 GT PUSH2 0x67D JUMPI JUMPDEST PUSH2 0x668 DUP2 DUP4 PUSH2 0x263F JUMP JUMPDEST DUP2 ADD SUB SLT PUSH2 0x678 JUMPI MLOAD SWAP6 CODESIZE PUSH2 0x408 JUMP JUMPDEST PUSH1 0x0 DUP1 REVERT JUMPDEST POP RETURNDATASIZE PUSH2 0x65E JUMP JUMPDEST PUSH1 0x40 MLOAD RETURNDATASIZE DUP13 DUP3 RETURNDATACOPY RETURNDATASIZE SWAP1 REVERT JUMPDEST DUP2 SWAP1 DUP2 RETURNDATASIZE DUP4 GT PUSH2 0x6B2 JUMPI JUMPDEST PUSH2 0x6A4 DUP2 DUP4 PUSH2 0x263F JUMP JUMPDEST DUP2 ADD SUB SLT PUSH2 0x678 JUMPI CODESIZE PUSH2 0x3C9 JUMP JUMPDEST POP RETURNDATASIZE PUSH2 0x69A JUMP JUMPDEST PUSH1 0x40 MLOAD RETURNDATASIZE DUP14 DUP3 RETURNDATACOPY RETURNDATASIZE SWAP1 REVERT JUMPDEST SWAP3 DUP1 SWAP3 SWAP5 POP DUP4 SWAP2 POP RETURNDATASIZE DUP4 GT PUSH2 0x6F3 JUMPI JUMPDEST PUSH2 0x6DE DUP2 DUP4 PUSH2 0x263F JUMP JUMPDEST DUP2 ADD SUB SLT PUSH2 0x678 JUMPI MLOAD DUP12 SWAP2 DUP4 SWAP2 PUSH2 0x3BA PUSH2 0x316 JUMP JUMPDEST POP RETURNDATASIZE PUSH2 0x6D4 JUMP JUMPDEST DUP1 SWAP3 POP DUP4 DUP1 SWAP3 POP RETURNDATASIZE DUP4 GT PUSH2 0x724 JUMPI JUMPDEST PUSH2 0x713 DUP2 DUP4 PUSH2 0x263F JUMP JUMPDEST DUP2 ADD SUB SLT PUSH2 0x678 JUMPI DUP11 SWAP1 MLOAD CODESIZE PUSH2 0x2D7 JUMP JUMPDEST POP RETURNDATASIZE PUSH2 0x709 JUMP JUMPDEST PUSH1 0x40 MLOAD RETURNDATASIZE DUP5 DUP3 RETURNDATACOPY RETURNDATASIZE SWAP1 REVERT JUMPDEST PUSH1 0x24 DUP11 PUSH32 0x4E487B7100000000000000000000000000000000000000000000000000000000 DUP2 MSTORE PUSH1 0x21 PUSH1 0x4 MSTORE REVERT JUMPDEST PUSH1 0x4 PUSH1 0x40 MLOAD PUSH32 0xE0FFCBFD00000000000000000000000000000000000000000000000000000000 DUP2 MSTORE REVERT JUMPDEST DUP14 DUP1 REVERT JUMPDEST DUP10 DUP1 REVERT JUMPDEST DUP7 DUP1 REVERT JUMPDEST POP DUP1 REVERT JUMPDEST DUP3 CALLVALUE PUSH2 0x80C JUMPI DUP1 PUSH32 0xFFFFFFFFFFFFFFFFFFFFFFFFFFFFFFFFFFFFFFFFFFFFFFFFFFFFFFFFFFFFFFFC CALLDATASIZE ADD SLT PUSH2 0x80C JUMPI PUSH1 0x20 PUSH1 0x40 MLOAD PUSH20 0xFFFFFFFFFFFFFFFFFFFFFFFFFFFFFFFFFFFFFFFF PUSH32 0x0 AND DUP2 MSTORE RETURN JUMPDEST DUP1 REVERT JUMPDEST DUP3 CALLVALUE PUSH2 0x80C JUMPI DUP1 PUSH32 0xFFFFFFFFFFFFFFFFFFFFFFFFFFFFFFFFFFFFFFFFFFFFFFFFFFFFFFFFFFFFFFFC CALLDATASIZE ADD SLT PUSH2 0x80C JUMPI PUSH1 0x20 PUSH1 0x40 MLOAD PUSH20 0xFFFFFFFFFFFFFFFFFFFFFFFFFFFFFFFFFFFFFFFF PUSH32 0x0 AND DUP2 MSTORE RETURN JUMPDEST DUP3 CALLVALUE PUSH2 0x80C JUMPI DUP1 PUSH32 0xFFFFFFFFFFFFFFFFFFFFFFFFFFFFFFFFFFFFFFFFFFFFFFFFFFFFFFFFFFFFFFFC CALLDATASIZE ADD SLT PUSH2 0x80C JUMPI PUSH1 0x20 PUSH1 0x40 MLOAD PUSH20 0xFFFFFFFFFFFFFFFFFFFFFFFFFFFFFFFFFFFFFFFF PUSH32 0x0 AND DUP2 MSTORE RETURN JUMPDEST DUP3 CALLVALUE PUSH2 0x80C JUMPI DUP1 PUSH32 0xFFFFFFFFFFFFFFFFFFFFFFFFFFFFFFFFFFFFFFFFFFFFFFFFFFFFFFFFFFFFFFFC CALLDATASIZE ADD SLT PUSH2 0x80C JUMPI PUSH1 0x20 PUSH1 0x40 MLOAD PUSH20 0xA748D6573ACA135AF68F2635BE60CB80278BD855 DUP2 MSTORE RETURN JUMPDEST DUP3 CALLVALUE PUSH2 0x80C JUMPI PUSH1 0x60 PUSH32 0xFFFFFFFFFFFFFFFFFFFFFFFFFFFFFFFFFFFFFFFFFFFFFFFFFFFFFFFFFFFFFFFC CALLDATASIZE ADD SLT PUSH2 0x80C JUMPI PUSH1 0x4 CALLDATALOAD PUSH20 0xFFFFFFFFFFFFFFFFFFFFFFFFFFFFFFFFFFFFFFFF DUP2 AND DUP1 SWAP2 SUB PUSH2 0x678 JUMPI PUSH1 0x24 CALLDATALOAD SWAP2 PUSH1 0x44 CALLDATALOAD SWAP3 PUSH1 0x40 MLOAD SWAP1 PUSH32 0x38FFF2D000000000000000000000000000000000000000000000000000000000 DUP3 MSTORE PUSH1 0x20 SWAP4 DUP5 DUP4 PUSH1 0x4 DUP2 DUP5 GAS STATICCALL SWAP1 DUP2 ISZERO PUSH2 0xB36 JUMPI DUP6 SWAP1 DUP6 SWAP3 PUSH2 0xB41 JUMPI JUMPDEST PUSH1 0x4 SWAP5 POP PUSH1 0x40 MLOAD SWAP5 DUP6 DUP1 SWAP3 PUSH32 0x18160DDD00000000000000000000000000000000000000000000000000000000 DUP3 MSTORE GAS STATICCALL SWAP3 DUP4 ISZERO PUSH2 0xB36 JUMPI DUP5 SWAP4 PUSH2 0xB07 JUMPI JUMPDEST POP PUSH1 0x40 MLOAD SWAP1 PUSH32 0xF94D466800000000000000000000000000000000000000000000000000000000 DUP3 MSTORE PUSH1 0x4 DUP3 ADD MSTORE DUP4 DUP2 PUSH1 0x24 DUP2 PUSH20 0xBA12222222228D8BA445958A75A0704D566BF2C8 GAS STATICCALL SWAP4 DUP5 ISZERO PUSH2 0xAFB JUMPI DUP1 SWAP2 DUP2 SWAP6 PUSH2 0xADC JUMPI JUMPDEST POP JUMPDEST DUP2 MLOAD DUP2 LT ISZERO PUSH2 0xAAE JUMPI DUP1 PUSH2 0xA99 DUP9 PUSH2 0xA94 DUP8 PUSH2 0xA8D PUSH2 0xAA9 SWAP7 DUP12 PUSH2 0x28EE JUMP JUMPDEST MLOAD DUP9 PUSH2 0x3E85 JUMP JUMPDEST PUSH2 0x2A29 JUMP JUMPDEST PUSH2 0xAA3 DUP3 DUP9 PUSH2 0x28EE JUMP JUMPDEST MSTORE PUSH2 0x2892 JUMP JUMPDEST PUSH2 0xA6E JUMP JUMPDEST PUSH2 0xACB DUP3 PUSH2 0xAD8 DUP9 DUP9 PUSH1 0x40 MLOAD SWAP5 DUP6 SWAP5 PUSH1 0x40 DUP7 MSTORE PUSH1 0x40 DUP7 ADD SWAP1 PUSH2 0x27F3 JUMP JUMPDEST SWAP2 DUP5 DUP4 SUB SWAP1 DUP6 ADD MSTORE PUSH2 0x283D JUMP JUMPDEST SUB SWAP1 RETURN JUMPDEST SWAP1 SWAP5 POP PUSH2 0xAF3 SWAP2 POP RETURNDATASIZE DUP1 DUP7 DUP4 RETURNDATACOPY PUSH2 0x634 DUP2 DUP4 PUSH2 0x263F JUMP JUMPDEST POP SWAP4 DUP8 PUSH2 0xA6C JUMP JUMPDEST PUSH1 0x40 MLOAD SWAP1 RETURNDATASIZE SWAP1 DUP3 RETURNDATACOPY RETURNDATASIZE SWAP1 REVERT JUMPDEST SWAP1 SWAP3 POP DUP5 DUP2 DUP2 RETURNDATASIZE DUP4 GT PUSH2 0xB2F JUMPI JUMPDEST PUSH2 0xB1F DUP2 DUP4 PUSH2 0x263F JUMP JUMPDEST DUP2 ADD SUB SLT PUSH2 0x678 JUMPI MLOAD SWAP2 DUP7 PUSH2 0xA13 JUMP JUMPDEST POP RETURNDATASIZE PUSH2 0xB15 JUMP JUMPDEST PUSH1 0x40 MLOAD RETURNDATASIZE DUP7 DUP3 RETURNDATACOPY RETURNDATASIZE SWAP1 REVERT JUMPDEST SWAP2 POP DUP4 DUP2 RETURNDATASIZE DUP4 GT PUSH2 0xB6A JUMPI JUMPDEST PUSH2 0xB57 DUP2 DUP4 PUSH2 0x263F JUMP JUMPDEST DUP2 ADD SUB SLT PUSH2 0x678 JUMPI DUP5 PUSH1 0x4 SWAP4 MLOAD SWAP2 PUSH2 0x9D5 JUMP JUMPDEST POP RETURNDATASIZE PUSH2 0xB4D JUMP JUMPDEST DUP3 CALLVALUE PUSH2 0x80C JUMPI DUP1 PUSH32 0xFFFFFFFFFFFFFFFFFFFFFFFFFFFFFFFFFFFFFFFFFFFFFFFFFFFFFFFFFFFFFFFC CALLDATASIZE ADD SLT PUSH2 0x80C JUMPI PUSH1 0x20 PUSH1 0x40 MLOAD PUSH20 0x1111111254EEB25477B68FB85ED929F73A960582 DUP2 MSTORE RETURN JUMPDEST DUP3 CALLVALUE PUSH2 0x80C JUMPI DUP1 PUSH32 0xFFFFFFFFFFFFFFFFFFFFFFFFFFFFFFFFFFFFFFFFFFFFFFFFFFFFFFFFFFFFFFFC CALLDATASIZE ADD SLT PUSH2 0x80C JUMPI PUSH1 0x40 MLOAD PUSH32 0xF851A44000000000000000000000000000000000000000000000000000000000 DUP2 MSTORE PUSH20 0xFFFFFFFFFFFFFFFFFFFFFFFFFFFFFFFFFFFFFFFF PUSH1 0x20 DUP3 PUSH1 0x4 DUP2 DUP5 PUSH32 0x0 AND GAS STATICCALL SWAP2 DUP3 ISZERO PUSH2 0x645 JUMPI DUP4 SWAP3 PUSH2 0xCAD JUMPI JUMPDEST POP DUP2 AND CALLER SUB PUSH2 0xC83 JUMPI SELFBALANCE DUP1 PUSH2 0xC74 JUMPI DUP3 DUP1 RETURN JUMPDEST PUSH2 0xC7D SWAP2 PUSH2 0x3F41 JUMP JUMPDEST DUP2 DUP1 DUP3 DUP1 RETURN JUMPDEST PUSH1 0x4 PUSH1 0x40 MLOAD PUSH32 0x1A19B03600000000000000000000000000000000000000000000000000000000 DUP2 MSTORE REVERT JUMPDEST SWAP1 SWAP2 POP PUSH1 0x20 DUP2 RETURNDATASIZE DUP3 GT PUSH2 0xCE0 JUMPI JUMPDEST DUP2 PUSH2 0xCC8 PUSH1 0x20 SWAP4 DUP4 PUSH2 0x263F JUMP JUMPDEST DUP2 ADD SUB SLT PUSH2 0x61B JUMPI PUSH2 0xCD9 SWAP1 PUSH2 0x2871 JUMP JUMPDEST SWAP1 DUP4 PUSH2 0xC61 JUMP JUMPDEST RETURNDATASIZE SWAP2 POP PUSH2 0xCBB JUMP JUMPDEST POP SWAP1 CALLVALUE PUSH2 0x80C JUMPI PUSH2 0xCFA CALLDATASIZE PUSH1 0x4 PUSH2 0x27B6 JUMP JUMPDEST PUSH2 0xD05 SWAP3 SWAP2 SWAP3 PUSH2 0x2AF0 JUMP JUMPDEST DUP3 ADD SWAP3 PUSH1 0x20 SWAP4 DUP5 DUP5 DUP3 SUB SLT PUSH2 0x1210 JUMPI DUP4 CALLDATALOAD PUSH8 0xFFFFFFFFFFFFFFFF SWAP5 DUP6 DUP3 GT PUSH2 0x1496 JUMPI ADD SWAP4 PUSH2 0x100 SWAP4 DUP5 DUP7 DUP5 SUB SLT PUSH2 0x1496 JUMPI PUSH2 0xD43 PUSH1 0x40 MLOAD SWAP6 DUP7 PUSH2 0x263F JUMP JUMPDEST PUSH2 0xD4C DUP7 PUSH2 0x2767 JUMP JUMPDEST DUP6 MSTORE PUSH2 0xD59 DUP8 DUP8 ADD PUSH2 0x2767 JUMP JUMPDEST SWAP5 DUP8 DUP2 ADD SWAP6 DUP7 MSTORE PUSH2 0xD6C PUSH1 0x40 DUP9 ADD PUSH2 0x2767 JUMP JUMPDEST PUSH1 0x40 DUP3 ADD MSTORE PUSH2 0xD7D PUSH1 0x60 DUP9 ADD PUSH2 0x2767 JUMP JUMPDEST SWAP1 PUSH1 0x60 DUP2 ADD SWAP2 DUP3 MSTORE PUSH1 0x80 DUP2 ADD SWAP5 PUSH1 0x80 DUP10 ADD CALLDATALOAD DUP7 MSTORE PUSH1 0xA0 DUP3 ADD SWAP5 PUSH1 0xA0 DUP11 ADD CALLDATALOAD DUP7 MSTORE PUSH1 0xC0 DUP11 ADD CALLDATALOAD SWAP10 PUSH1 0x8 DUP12 LT ISZERO PUSH2 0x1492 JUMPI PUSH1 0xC0 DUP5 ADD SWAP11 DUP12 MSTORE DUP14 DUP2 ADD CALLDATALOAD SWAP2 DUP3 GT PUSH2 0x1492 JUMPI PUSH2 0xDC9 SWAP3 SWAP2 ADD PUSH2 0x2A36 JUMP JUMPDEST SWAP11 DUP2 ADD SWAP11 DUP12 MSTORE PUSH20 0xFFFFFFFFFFFFFFFFFFFFFFFFFFFFFFFFFFFFFFFF SWAP6 DUP7 AND ADDRESS EQ PUSH2 0xE17 JUMPI PUSH1 0x4 PUSH1 0x40 MLOAD PUSH32 0xA610E78800000000000000000000000000000000000000000000000000000000 DUP2 MSTORE REVERT JUMPDEST DUP6 DUP8 MLOAD AND CALLER SUB PUSH2 0x1468 JUMPI DUP6 DUP1 DUP1 SWAP3 MLOAD AND SWAP3 MLOAD AND SWAP7 MLOAD AND SWAP4 MLOAD SWAP3 MLOAD SWAP7 MLOAD SWAP2 PUSH1 0x8 DUP4 LT ISZERO PUSH2 0x736 JUMPI DUP9 PUSH1 0x4 SWAP8 SWAP9 SWAP10 SWAP11 SWAP12 MLOAD SWAP3 PUSH1 0x40 MLOAD SWAP9 DUP10 DUP1 SWAP3 PUSH32 0x38FFF2D000000000000000000000000000000000000000000000000000000000 DUP3 MSTORE GAS STATICCALL SWAP7 DUP8 ISZERO PUSH2 0x6B9 JUMPI DUP12 SWAP8 PUSH2 0x1439 JUMPI JUMPDEST POP PUSH1 0x40 MLOAD SWAP7 PUSH32 0xF94D466800000000000000000000000000000000000000000000000000000000 DUP9 MSTORE DUP1 PUSH1 0x4 DUP10 ADD MSTORE DUP12 PUSH20 0xBA12222222228D8BA445958A75A0704D566BF2C8 SWAP2 DUP2 DUP11 PUSH1 0x24 DUP2 DUP7 GAS STATICCALL SWAP10 DUP11 ISZERO PUSH2 0x72B JUMPI DUP3 SWAP11 PUSH2 0x141B JUMPI JUMPDEST POP DUP13 PUSH2 0xEE8 DUP12 MLOAD PUSH2 0x2B59 JUMP JUMPDEST SWAP5 PUSH1 0x40 MLOAD SWAP1 PUSH1 0x1 DUP4 DUP4 ADD MSTORE PUSH1 0x40 DUP3 ADD MSTORE PUSH1 0x40 DUP2 MSTORE PUSH2 0xF07 PUSH1 0x60 DUP3 PUSH2 0x263F JUMP JUMPDEST DUP6 PUSH1 0x40 MLOAD SWAP3 PUSH2 0xF17 PUSH1 0x80 DUP6 PUSH2 0x263F JUMP JUMPDEST DUP14 DUP5 MSTORE DUP4 ADD MSTORE PUSH1 0x40 DUP3 ADD MSTORE DUP3 PUSH1 0x60 DUP3 ADD MSTORE DUP4 EXTCODESIZE ISZERO PUSH2 0x61B JUMPI PUSH2 0xF6F SWAP4 DUP4 SWAP3 DUP4 PUSH1 0x40 MLOAD DUP1 SWAP8 DUP2 SWAP6 DUP3 SWAP5 PUSH32 0x8BDB391300000000000000000000000000000000000000000000000000000000 DUP5 MSTORE ADDRESS SWAP1 ADDRESS SWAP1 PUSH1 0x4 DUP7 ADD PUSH2 0x2BF4 JUMP JUMPDEST SUB SWAP3 GAS CALL SWAP2 DUP3 ISZERO PUSH2 0x60E JUMPI DUP10 SWAP3 PUSH2 0x13FE JUMPI JUMPDEST POP SWAP4 PUSH2 0xFB1 SWAP5 PUSH2 0xFA0 PUSH2 0xF99 ADDRESS DUP12 PUSH2 0x51C DUP6 DUP9 PUSH2 0x28EE JUMP JUMPDEST SWAP2 DUP6 PUSH2 0x28EE JUMP JUMPDEST MSTORE PUSH2 0x53E ADDRESS DUP10 PUSH2 0x51C PUSH1 0x1 DUP7 PUSH2 0x28EE JUMP JUMPDEST SWAP6 DUP7 LT PUSH2 0x13D4 JUMPI DUP8 SWAP2 PUSH1 0x40 MLOAD SWAP2 PUSH32 0xE99A6AC700000000000000000000000000000000000000000000000000000000 DUP4 MSTORE DUP9 DUP4 PUSH1 0x4 DUP2 DUP6 GAS STATICCALL SWAP3 DUP4 ISZERO PUSH2 0xB36 JUMPI DUP5 SWAP4 PUSH2 0x139D JUMPI JUMPDEST POP PUSH32 0x0 DUP6 DUP5 AND SWAP4 DUP5 EXTCODESIZE ISZERO PUSH2 0x1210 JUMPI PUSH1 0x40 MLOAD PUSH32 0xA6AFED9500000000000000000000000000000000000000000000000000000000 DUP2 MSTORE DUP7 DUP2 PUSH1 0x4 DUP2 DUP4 DUP11 GAS CALL SWAP1 DUP2 ISZERO PUSH2 0x121B JUMPI DUP8 SWAP2 PUSH2 0x1388 JUMPI JUMPDEST POP POP PUSH1 0x40 MLOAD PUSH32 0x7D6AF07900000000000000000000000000000000000000000000000000000000 DUP2 MSTORE DUP10 PUSH1 0x4 DUP3 ADD MSTORE PUSH1 0x40 DUP2 PUSH1 0x24 DUP2 DUP10 GAS STATICCALL SWAP6 DUP7 ISZERO PUSH2 0x121B JUMPI PUSH2 0x115D SWAP7 DUP14 SWAP3 DUP10 SWAP2 PUSH2 0x1357 JUMPI JUMPDEST POP DUP1 DUP14 LT ISZERO PUSH2 0x134C JUMPI POP PUSH2 0x10C3 DUP13 DUP1 SWAP5 JUMPDEST DUP7 PUSH2 0x3F5F JUMP JUMPDEST PUSH2 0x10CC DUP9 PUSH2 0x26AF JUMP JUMPDEST SWAP1 PUSH2 0x10DA PUSH1 0x40 MLOAD SWAP3 DUP4 PUSH2 0x263F JUMP JUMPDEST DUP9 DUP3 MSTORE PUSH32 0xFFFFFFFFFFFFFFFFFFFFFFFFFFFFFFFFFFFFFFFFFFFFFFFFFFFFFFFFFFFFFFE0 PUSH2 0x1107 DUP11 PUSH2 0x26AF JUMP JUMPDEST ADD CALLDATASIZE DUP5 DUP5 ADD CALLDATACOPY DUP12 DUP10 PUSH1 0x40 MLOAD DUP1 SWAP11 DUP2 SWAP6 DUP3 SWAP5 PUSH32 0x1E7DCC0D00000000000000000000000000000000000000000000000000000000 DUP5 MSTORE PUSH1 0x4 DUP5 ADD MSTORE DUP4 PUSH1 0x24 DUP5 ADD MSTORE DUP4 PUSH1 0x44 DUP5 ADD MSTORE PUSH1 0x80 PUSH1 0x64 DUP5 ADD MSTORE PUSH1 0x84 DUP4 ADD SWAP1 PUSH2 0x270C JUMP JUMPDEST SUB SWAP3 GAS CALL SWAP5 DUP6 ISZERO PUSH2 0x1341 JUMPI DUP12 SWAP6 PUSH2 0x1310 JUMPI JUMPDEST POP DUP1 DUP11 GT PUSH2 0x1226 JUMPI JUMPDEST POP POP PUSH1 0x64 SWAP1 PUSH1 0x40 MLOAD SWAP5 DUP6 SWAP4 DUP5 SWAP3 PUSH32 0x23B872DD00000000000000000000000000000000000000000000000000000000 DUP5 MSTORE DUP11 PUSH1 0x4 DUP6 ADD MSTORE DUP2 PUSH1 0x24 DUP6 ADD MSTORE PUSH1 0x44 DUP5 ADD MSTORE GAS CALL DUP1 ISZERO PUSH2 0x121B JUMPI PUSH2 0x11E4 JUMPI JUMPDEST POP PUSH2 0x5BC PUSH1 0x1 DUP3 PUSH2 0x5B4 PUSH2 0x11DC SWAP8 SWAP9 SWAP10 DUP7 PUSH2 0x28EE JUMP JUMPDEST PUSH1 0x40 MLOAD SWAP1 DUP2 MSTORE RETURN JUMPDEST DUP6 DUP2 DUP2 RETURNDATASIZE DUP4 GT PUSH2 0x1214 JUMPI JUMPDEST PUSH2 0x11F9 DUP2 DUP4 PUSH2 0x263F JUMP JUMPDEST DUP2 ADD SUB SLT PUSH2 0x795 JUMPI MLOAD DUP1 ISZERO ISZERO SUB PUSH2 0x1210 JUMPI CODESIZE PUSH2 0x11C6 JUMP JUMPDEST DUP6 DUP1 REVERT JUMPDEST POP RETURNDATASIZE PUSH2 0x11EF JUMP JUMPDEST PUSH1 0x40 MLOAD RETURNDATASIZE DUP10 DUP3 RETURNDATACOPY RETURNDATASIZE SWAP1 REVERT JUMPDEST PUSH2 0x1232 SWAP2 SWAP5 POP DUP10 PUSH2 0x2A29 JUMP JUMPDEST DUP10 DUP9 DUP8 PUSH32 0x0 AND SWAP6 DUP7 DUP10 DUP3 AND EQ PUSH1 0x0 EQ PUSH2 0x12FA JUMPI POP POP POP DUP4 EXTCODESIZE ISZERO PUSH2 0x12F6 JUMPI DUP5 DUP1 SWAP5 PUSH1 0x24 PUSH1 0x40 MLOAD DUP1 SWAP8 DUP2 SWAP4 PUSH32 0x2E1A7D4D00000000000000000000000000000000000000000000000000000000 DUP4 MSTORE DUP7 PUSH1 0x4 DUP5 ADD MSTORE GAS CALL DUP1 ISZERO PUSH2 0x12EB JUMPI DUP11 SWAP5 DUP7 SWAP2 PUSH2 0x12CA JUMPI JUMPDEST POP POP SWAP1 PUSH2 0x12C3 PUSH1 0x64 SWAP3 DUP10 PUSH2 0x3F41 JUMP JUMPDEST SWAP1 CODESIZE PUSH2 0x1178 JUMP JUMPDEST DUP2 SWAP3 SWAP4 SWAP6 POP SWAP1 PUSH2 0x12D9 SWAP2 PUSH2 0x263F JUMP JUMPDEST PUSH2 0x12E7 JUMPI SWAP2 DUP9 SWAP3 DUP5 CODESIZE PUSH2 0x12B4 JUMP JUMPDEST DUP4 DUP1 REVERT JUMPDEST PUSH1 0x40 MLOAD RETURNDATASIZE DUP8 DUP3 RETURNDATACOPY RETURNDATASIZE SWAP1 REVERT JUMPDEST DUP5 DUP1 REVERT JUMPDEST PUSH2 0x130B SWAP3 SWAP7 POP SWAP1 PUSH1 0x64 SWAP5 SWAP4 SWAP2 PUSH2 0x3F5F JUMP JUMPDEST PUSH2 0x12C3 JUMP JUMPDEST SWAP1 SWAP5 DUP1 SWAP3 SWAP7 POP RETURNDATASIZE DUP4 GT PUSH2 0x133A JUMPI JUMPDEST PUSH2 0x1328 DUP2 DUP4 PUSH2 0x263F JUMP JUMPDEST DUP2 ADD SUB SLT PUSH2 0x678 JUMPI DUP10 SWAP4 DUP10 SWAP4 CODESIZE PUSH2 0x116F JUMP JUMPDEST POP RETURNDATASIZE PUSH2 0x131E JUMP JUMPDEST PUSH1 0x40 MLOAD RETURNDATASIZE DUP9 DUP3 RETURNDATACOPY RETURNDATASIZE SWAP1 REVERT JUMPDEST PUSH2 0x10C3 SWAP1 DUP1 SWAP5 PUSH2 0x10BD JUMP JUMPDEST PUSH2 0x1379 SWAP2 POP PUSH1 0x40 RETURNDATASIZE PUSH1 0x40 GT PUSH2 0x1381 JUMPI JUMPDEST PUSH2 0x1371 DUP2 DUP4 PUSH2 0x263F JUMP JUMPDEST DUP2 ADD SWAP1 PUSH2 0x3BE7 JUMP JUMPDEST SWAP1 POP CODESIZE PUSH2 0x10AC JUMP JUMPDEST POP RETURNDATASIZE PUSH2 0x1367 JUMP JUMPDEST DUP2 PUSH2 0x1392 SWAP2 PUSH2 0x263F JUMP JUMPDEST PUSH2 0x1210 JUMPI DUP6 CODESIZE PUSH2 0x1061 JUMP JUMPDEST SWAP1 SWAP3 POP DUP9 DUP2 DUP2 RETURNDATASIZE DUP4 GT PUSH2 0x13CD JUMPI JUMPDEST PUSH2 0x13B5 DUP2 DUP4 PUSH2 0x263F JUMP JUMPDEST DUP2 ADD SUB SLT PUSH2 0x12E7 JUMPI PUSH2 0x13C6 SWAP1 PUSH2 0x2871 JUMP JUMPDEST SWAP2 CODESIZE PUSH2 0xFF7 JUMP JUMPDEST POP RETURNDATASIZE PUSH2 0x13AB JUMP JUMPDEST PUSH1 0x4 PUSH1 0x40 MLOAD PUSH32 0xB2A4CAEB00000000000000000000000000000000000000000000000000000000 DUP2 MSTORE REVERT JUMPDEST DUP2 SWAP3 POP SWAP1 PUSH2 0x140B SWAP2 PUSH2 0x263F JUMP JUMPDEST PUSH2 0x1417 JUMPI DUP7 DUP12 CODESIZE PUSH2 0xF81 JUMP JUMPDEST DUP11 DUP1 REVERT JUMPDEST PUSH2 0x1430 SWAP2 SWAP11 POP RETURNDATASIZE DUP1 DUP5 DUP4 RETURNDATACOPY PUSH2 0x634 DUP2 DUP4 PUSH2 0x263F JUMP JUMPDEST POP POP SWAP9 CODESIZE PUSH2 0xEDC JUMP JUMPDEST SWAP1 SWAP7 POP DUP10 DUP2 DUP2 RETURNDATASIZE DUP4 GT PUSH2 0x1461 JUMPI JUMPDEST PUSH2 0x1451 DUP2 DUP4 PUSH2 0x263F JUMP JUMPDEST DUP2 ADD SUB SLT PUSH2 0x678 JUMPI MLOAD SWAP6 CODESIZE PUSH2 0xE81 JUMP JUMPDEST POP RETURNDATASIZE PUSH2 0x1447 JUMP JUMPDEST PUSH1 0x4 PUSH1 0x40 MLOAD PUSH32 0xD0E9C9F600000000000000000000000000000000000000000000000000000000 DUP2 MSTORE REVERT JUMPDEST DUP13 DUP1 REVERT JUMPDEST DUP8 DUP1 REVERT JUMPDEST POP CALLVALUE PUSH2 0x799 JUMPI PUSH2 0x14AB CALLDATASIZE PUSH1 0x4 PUSH2 0x27B6 JUMP JUMPDEST PUSH2 0x14BA SWAP6 SWAP4 SWAP3 SWAP6 SWAP5 SWAP2 SWAP5 PUSH2 0x2AF0 JUMP JUMPDEST DUP5 ADD SWAP2 PUSH1 0x20 DUP6 DUP5 SUB SLT PUSH2 0x12E7 JUMPI DUP5 CALLDATALOAD PUSH8 0xFFFFFFFFFFFFFFFF SWAP6 DUP7 DUP3 GT PUSH2 0x1210 JUMPI ADD SWAP1 DUP3 DUP3 DUP6 SUB SLT PUSH2 0x12F6 JUMPI PUSH2 0x14F2 PUSH1 0x40 MLOAD SWAP4 DUP5 PUSH2 0x263F JUMP JUMPDEST PUSH2 0x14FB DUP3 PUSH2 0x2767 JUMP JUMPDEST DUP4 MSTORE PUSH2 0x1509 PUSH1 0x20 DUP4 ADD PUSH2 0x2767 JUMP JUMPDEST SWAP3 PUSH1 0x20 DUP2 ADD SWAP4 DUP5 MSTORE PUSH2 0x151D PUSH1 0x40 DUP5 ADD PUSH2 0x2767 JUMP JUMPDEST PUSH1 0x40 DUP3 ADD SWAP1 DUP2 MSTORE PUSH2 0x1530 PUSH1 0x60 DUP6 ADD PUSH2 0x2767 JUMP JUMPDEST SWAP6 PUSH1 0x60 DUP4 ADD SWAP7 DUP8 MSTORE PUSH1 0x80 DUP4 ADD SWAP9 PUSH1 0x80 DUP7 ADD CALLDATALOAD DUP11 MSTORE PUSH1 0xA0 DUP7 ADD CALLDATALOAD SWAP6 PUSH1 0x8 DUP8 LT ISZERO PUSH2 0x791 JUMPI PUSH1 0xA0 DUP6 ADD SWAP7 DUP8 MSTORE PUSH1 0xC0 DUP2 ADD CALLDATALOAD SWAP2 DUP3 GT PUSH2 0x791 JUMPI PUSH2 0x1571 SWAP3 SWAP2 ADD PUSH2 0x2A36 JUMP JUMPDEST PUSH1 0xC0 DUP4 ADD SWAP1 DUP2 MSTORE SWAP3 PUSH20 0xFFFFFFFFFFFFFFFFFFFFFFFFFFFFFFFFFFFFFFFF AND ADDRESS EQ PUSH2 0x15BF JUMPI PUSH1 0x4 PUSH1 0x40 MLOAD PUSH32 0xA610E78800000000000000000000000000000000000000000000000000000000 DUP2 MSTORE REVERT JUMPDEST MLOAD PUSH20 0xFFFFFFFFFFFFFFFFFFFFFFFFFFFFFFFFFFFFFFFF AND CALLER SUB PUSH2 0x763 JUMPI PUSH20 0xFFFFFFFFFFFFFFFFFFFFFFFFFFFFFFFFFFFFFFFF DUP1 DUP1 SWAP3 MLOAD AND SWAP6 MLOAD AND SWAP4 MLOAD AND SWAP6 MLOAD SWAP2 MLOAD SWAP1 PUSH1 0x8 DUP3 LT ISZERO PUSH2 0x20D1 JUMPI MLOAD SWAP1 PUSH1 0x40 MLOAD SWAP1 PUSH32 0x38FFF2D000000000000000000000000000000000000000000000000000000000 DUP3 MSTORE PUSH1 0x20 DUP3 PUSH1 0x4 DUP2 DUP10 GAS STATICCALL SWAP2 DUP3 ISZERO PUSH2 0x121B JUMPI DUP8 SWAP3 PUSH2 0x209D JUMPI JUMPDEST POP PUSH1 0x40 MLOAD SWAP9 PUSH32 0xF94D466800000000000000000000000000000000000000000000000000000000 DUP11 MSTORE DUP3 PUSH1 0x4 DUP12 ADD MSTORE DUP8 DUP11 PUSH1 0x24 DUP2 PUSH20 0xBA12222222228D8BA445958A75A0704D566BF2C8 GAS STATICCALL SWAP4 DUP5 ISZERO PUSH2 0x1D68 JUMPI DUP9 SWAP11 DUP10 SWAP6 PUSH2 0x2078 JUMPI JUMPDEST POP DUP9 SWAP2 SWAP1 DUP12 PUSH1 0x4 DUP6 EQ DUP5 DUP2 ISZERO PUSH2 0x206C JUMPI JUMPDEST DUP2 ISZERO PUSH2 0x2027 JUMPI JUMPDEST POP ISZERO PUSH2 0x1EFC JUMPI PUSH20 0xFFFFFFFFFFFFFFFFFFFFFFFFFFFFFFFFFFFFFFFF PUSH2 0x16E9 PUSH1 0x1 DUP3 PUSH2 0x5B4 PUSH1 0x4 SWAP9 DUP7 PUSH2 0x28EE JUMP JUMPDEST MLOAD AND SWAP3 PUSH1 0x20 DUP12 PUSH1 0x40 MLOAD SWAP7 DUP8 DUP1 SWAP3 PUSH32 0x38FFF2D000000000000000000000000000000000000000000000000000000000 DUP3 MSTORE GAS STATICCALL SWAP5 DUP6 ISZERO PUSH2 0x1EB9 JUMPI DUP13 SWAP6 PUSH2 0x1EC4 JUMPI JUMPDEST POP PUSH1 0x40 MLOAD SWAP5 PUSH32 0xF94D466800000000000000000000000000000000000000000000000000000000 DUP7 MSTORE PUSH1 0x4 DUP7 ADD MSTORE DUP12 DUP6 PUSH1 0x24 DUP2 PUSH20 0xBA12222222228D8BA445958A75A0704D566BF2C8 GAS STATICCALL SWAP5 DUP6 ISZERO PUSH2 0x1EB9 JUMPI DUP13 SWAP6 PUSH2 0x1E99 JUMPI JUMPDEST POP PUSH1 0x40 DUP1 MLOAD PUSH32 0x702EC09100000000000000000000000000000000000000000000000000000000 DUP2 MSTORE SWAP1 DUP2 PUSH1 0x4 DUP2 DUP16 GAS STATICCALL SWAP1 DUP2 ISZERO PUSH2 0x1E8E JUMPI SWAP1 PUSH2 0x17E6 SWAP2 DUP15 DUP1 SWAP2 DUP2 SWAP4 PUSH2 0x1E59 JUMPI JUMPDEST POP PUSH2 0x17E0 PUSH2 0x17DA SWAP3 PUSH2 0x17DA PUSH1 0x1 SWAP4 DUP13 PUSH2 0x28EE JUMP JUMPDEST MLOAD PUSH2 0x3E3C JUMP JUMPDEST SWAP9 PUSH2 0x28EE JUMP JUMPDEST DUP6 ADD DUP1 DUP7 GT PUSH2 0x1E2C JUMPI PUSH8 0xDE0B6B3A7640000 SWAP1 PUSH25 0x12725DD1D243ABA0E75FE645CC4873F9E65AFE688C928E1F21 DUP8 GT DUP3 MUL ISZERO DUP2 MUL ISZERO PUSH2 0x1E1F JUMPI DUP2 DUP2 DUP2 DUP10 MUL DIV DUP2 SUB GT PUSH2 0x1DF2 JUMPI SWAP1 DUP2 DUP2 PUSH2 0x1841 DUP6 PUSH2 0x184B SWAP7 SWAP6 DUP4 DUP13 MUL DIV PUSH2 0x3E3C JUMP JUMPDEST SWAP9 MUL DIV SWAP1 SUB PUSH2 0x3E3C JUMP JUMPDEST SWAP4 PUSH20 0xFFFFFFFFFFFFFFFFFFFFFFFFFFFFFFFFFFFFFFFF PUSH32 0x0 AND DUP3 SUB PUSH2 0x1DB4 JUMPI JUMPDEST POP POP PUSH20 0xFFFFFFFFFFFFFFFFFFFFFFFFFFFFFFFFFFFFFFFF PUSH32 0x0 AND DUP3 SUB PUSH2 0x1D73 JUMPI JUMPDEST POP POP POP POP JUMPDEST PUSH1 0x40 MLOAD SWAP2 PUSH2 0x18DE PUSH1 0x60 DUP5 PUSH2 0x263F JUMP JUMPDEST PUSH1 0x2 DUP4 MSTORE PUSH1 0x40 CALLDATASIZE PUSH1 0x20 DUP6 ADD CALLDATACOPY PUSH2 0x190D ADDRESS PUSH20 0xFFFFFFFFFFFFFFFFFFFFFFFFFFFFFFFFFFFFFFFF PUSH2 0x51C DUP11 DUP14 PUSH2 0x28EE JUMP JUMPDEST PUSH2 0x1917 DUP9 DUP6 PUSH2 0x28EE JUMP JUMPDEST MSTORE PUSH2 0x193C ADDRESS PUSH20 0xFFFFFFFFFFFFFFFFFFFFFFFFFFFFFFFFFFFFFFFF PUSH2 0x51C PUSH1 0x1 DUP14 PUSH2 0x28EE JUMP JUMPDEST PUSH2 0x1947 PUSH1 0x1 DUP6 PUSH2 0x28EE JUMP JUMPDEST MSTORE PUSH1 0x40 MLOAD SWAP1 PUSH32 0x18160DDD00000000000000000000000000000000000000000000000000000000 DUP3 MSTORE PUSH1 0x20 DUP3 PUSH1 0x4 DUP2 DUP11 GAS STATICCALL SWAP2 DUP3 ISZERO PUSH2 0x1D68 JUMPI DUP9 SWAP3 PUSH2 0x1D32 JUMPI JUMPDEST POP PUSH2 0x19C2 SWAP1 PUSH2 0x19AB PUSH2 0x1998 DUP11 DUP8 PUSH2 0x28EE JUMP JUMPDEST MLOAD DUP5 PUSH2 0x19A4 DUP13 DUP6 PUSH2 0x28EE JUMP JUMPDEST MLOAD SWAP2 PUSH2 0x3E85 JUMP JUMPDEST SWAP3 PUSH2 0x19A4 PUSH1 0x1 PUSH2 0x19BB DUP2 DUP10 PUSH2 0x28EE JUMP JUMPDEST MLOAD SWAP4 PUSH2 0x28EE JUMP JUMPDEST SWAP1 DUP2 DUP2 GT ISZERO PUSH2 0x1D2B JUMPI POP JUMPDEST PUSH1 0x40 MLOAD SWAP1 PUSH1 0x3 PUSH1 0x20 DUP4 ADD MSTORE PUSH1 0x40 DUP3 ADD MSTORE PUSH1 0x40 DUP2 MSTORE PUSH2 0x19EC PUSH1 0x60 DUP3 PUSH2 0x263F JUMP JUMPDEST PUSH2 0x1A36 PUSH20 0xFFFFFFFFFFFFFFFFFFFFFFFFFFFFFFFFFFFFFFFF PUSH2 0x1A0E DUP10 DUP13 PUSH2 0x28EE JUMP JUMPDEST MLOAD AND PUSH20 0xBA12222222228D8BA445958A75A0704D566BF2C8 PUSH2 0x1A2F DUP11 DUP8 PUSH2 0x28EE JUMP JUMPDEST MLOAD SWAP2 PUSH2 0x3A9A JUMP JUMPDEST PUSH2 0x1A7B PUSH20 0xFFFFFFFFFFFFFFFFFFFFFFFFFFFFFFFFFFFFFFFF PUSH2 0x1A59 PUSH1 0x1 DUP13 PUSH2 0x28EE JUMP JUMPDEST MLOAD AND PUSH20 0xBA12222222228D8BA445958A75A0704D566BF2C8 PUSH2 0x1A2F PUSH1 0x1 DUP8 PUSH2 0x28EE JUMP JUMPDEST PUSH1 0x40 MLOAD SWAP3 PUSH2 0x1A8A PUSH1 0x80 DUP6 PUSH2 0x263F JUMP JUMPDEST DUP10 DUP5 MSTORE PUSH1 0x20 DUP5 ADD MSTORE PUSH1 0x40 DUP4 ADD MSTORE DUP6 PUSH1 0x60 DUP4 ADD MSTORE PUSH20 0xBA12222222228D8BA445958A75A0704D566BF2C8 EXTCODESIZE ISZERO PUSH2 0x1210 JUMPI PUSH2 0x1B0B SWAP2 DUP7 SWAP2 PUSH1 0x40 MLOAD SWAP4 DUP5 SWAP3 DUP4 SWAP3 PUSH32 0xB95CAC2800000000000000000000000000000000000000000000000000000000 DUP5 MSTORE PUSH1 0x4 DUP5 ADD MSTORE ADDRESS PUSH1 0x24 DUP5 ADD MSTORE ADDRESS PUSH1 0x44 DUP5 ADD MSTORE PUSH1 0x80 PUSH1 0x64 DUP5 ADD MSTORE PUSH1 0x84 DUP4 ADD SWAP1 PUSH2 0x2BA8 JUMP JUMPDEST SUB DUP2 DUP4 PUSH20 0xBA12222222228D8BA445958A75A0704D566BF2C8 GAS CALL DUP1 ISZERO PUSH2 0x12EB JUMPI PUSH2 0x1D17 JUMPI JUMPDEST POP PUSH2 0x1B65 DUP3 PUSH2 0x1B3F ADDRESS DUP7 PUSH2 0x3FA8 JUMP JUMPDEST SWAP8 PUSH20 0xFFFFFFFFFFFFFFFFFFFFFFFFFFFFFFFFFFFFFFFF PUSH2 0x5BC PUSH1 0x1 DUP3 PUSH2 0x5B4 DUP12 DUP7 PUSH2 0x28EE JUMP JUMPDEST DUP6 LT PUSH2 0x1CEE JUMPI DUP4 PUSH2 0x1B96 DUP7 PUSH2 0x1CA7 SWAP7 DUP6 PUSH2 0x1B91 DUP4 PUSH15 0x22D473030F116DDEE9F6B43AC78BA3 PUSH1 0x20 SWAP10 PUSH2 0x3A9A JUMP JUMPDEST PUSH2 0x3C21 JUMP JUMPDEST PUSH2 0x1B9F DUP5 PUSH2 0x26AF JUMP JUMPDEST SWAP2 PUSH2 0x1BAD PUSH1 0x40 MLOAD SWAP4 DUP5 PUSH2 0x263F JUMP JUMPDEST DUP5 DUP4 MSTORE PUSH32 0xFFFFFFFFFFFFFFFFFFFFFFFFFFFFFFFFFFFFFFFFFFFFFFFFFFFFFFFFFFFFFFE0 PUSH2 0x1BDA DUP7 PUSH2 0x26AF JUMP JUMPDEST ADD CALLDATASIZE DUP6 DUP6 ADD CALLDATACOPY DUP5 PUSH1 0x40 MLOAD DUP1 SWAP8 DUP2 SWAP6 DUP3 SWAP5 PUSH32 0x8808E71C00000000000000000000000000000000000000000000000000000000 DUP5 MSTORE DUP12 PUSH1 0x4 DUP6 ADD MSTORE PUSH1 0x24 DUP5 ADD MSTORE PUSH20 0xFFFFFFFFFFFFFFFFFFFFFFFFFFFFFFFFFFFFFFFF DUP5 SLOAD AND PUSH1 0x44 DUP5 ADD MSTORE PUSH1 0x1 SLOAD PUSH20 0xFFFFFFFFFFFFFFFFFFFFFFFFFFFFFFFFFFFFFFFF DUP2 AND PUSH1 0x64 DUP6 ADD MSTORE PUSH6 0xFFFFFFFFFFFF DUP2 PUSH1 0xA0 SHR AND PUSH1 0x84 DUP6 ADD MSTORE PUSH1 0xD0 SHR PUSH1 0xA4 DUP5 ADD MSTORE PUSH20 0xFFFFFFFFFFFFFFFFFFFFFFFFFFFFFFFFFFFFFFFF PUSH1 0x2 SLOAD AND PUSH1 0xC4 DUP5 ADD MSTORE PUSH1 0x3 SLOAD PUSH1 0xE4 DUP5 ADD MSTORE PUSH2 0x120 PUSH2 0x104 DUP5 ADD MSTORE PUSH2 0x124 DUP4 ADD SWAP1 PUSH2 0x270C JUMP JUMPDEST SUB SWAP3 GAS CALL SWAP1 DUP2 ISZERO PUSH2 0xAFB JUMPI POP PUSH2 0x1CC3 JUMPI JUMPDEST PUSH1 0x20 DUP3 PUSH1 0x40 MLOAD SWAP1 DUP2 MSTORE RETURN JUMPDEST PUSH1 0x20 SWAP1 DUP2 RETURNDATASIZE DUP4 GT PUSH2 0x1CE7 JUMPI JUMPDEST PUSH2 0x1CD9 DUP2 DUP4 PUSH2 0x263F JUMP JUMPDEST DUP2 ADD SUB SLT PUSH2 0x678 JUMPI CODESIZE PUSH2 0x1CB8 JUMP JUMPDEST POP RETURNDATASIZE PUSH2 0x1CCF JUMP JUMPDEST PUSH1 0x4 PUSH1 0x40 MLOAD PUSH31 0xBF876800000000000000000000000000000000000000000000000000000000 DUP2 MSTORE REVERT JUMPDEST DUP5 PUSH2 0x1D24 SWAP2 SWAP6 SWAP3 SWAP6 PUSH2 0x263F JUMP JUMPDEST SWAP3 CODESIZE PUSH2 0x1B30 JUMP JUMPDEST SWAP1 POP PUSH2 0x19CD JUMP JUMPDEST SWAP1 SWAP2 POP PUSH1 0x20 DUP2 RETURNDATASIZE PUSH1 0x20 GT PUSH2 0x1D60 JUMPI JUMPDEST DUP2 PUSH2 0x1D4E PUSH1 0x20 SWAP4 DUP4 PUSH2 0x263F JUMP JUMPDEST DUP2 ADD SUB SLT PUSH2 0x1496 JUMPI MLOAD SWAP1 PUSH2 0x19C2 PUSH2 0x1986 JUMP JUMPDEST RETURNDATASIZE SWAP2 POP PUSH2 0x1D41 JUMP JUMPDEST PUSH1 0x40 MLOAD RETURNDATASIZE DUP11 DUP3 RETURNDATACOPY RETURNDATASIZE SWAP1 REVERT JUMPDEST PUSH2 0x1DAA SWAP4 PUSH2 0x1DA3 PUSH1 0x1 PUSH32 0x0 SWAP4 PUSH2 0x28EE JUMP JUMPDEST MLOAD SWAP1 PUSH2 0x2CE4 JUMP JUMPDEST POP CODESIZE DUP1 DUP1 DUP1 PUSH2 0x18CA JUMP JUMPDEST PUSH2 0x1DEA SWAP2 PUSH32 0x0 PUSH2 0x1DE3 DUP15 DUP7 PUSH2 0x28EE JUMP JUMPDEST MLOAD DUP9 PUSH2 0x2CE4 JUMP JUMPDEST POP CODESIZE DUP1 PUSH2 0x188A JUMP JUMPDEST PUSH1 0x24 DUP15 PUSH32 0x4E487B7100000000000000000000000000000000000000000000000000000000 DUP2 MSTORE PUSH1 0x11 PUSH1 0x4 MSTORE REVERT JUMPDEST PUSH4 0x7C5F487D DUP15 MSTORE PUSH1 0x4 PUSH1 0x1C REVERT JUMPDEST PUSH1 0x24 DUP14 PUSH32 0x4E487B7100000000000000000000000000000000000000000000000000000000 DUP2 MSTORE PUSH1 0x11 PUSH1 0x4 MSTORE REVERT JUMPDEST PUSH1 0x1 SWAP2 SWAP4 POP PUSH2 0x17DA SWAP3 POP PUSH2 0x17DA PUSH2 0x1E81 PUSH2 0x17E0 SWAP3 PUSH1 0x40 RETURNDATASIZE PUSH1 0x40 GT PUSH2 0x1381 JUMPI PUSH2 0x1371 DUP2 DUP4 PUSH2 0x263F JUMP JUMPDEST SWAP6 SWAP1 SWAP5 POP SWAP3 POP PUSH2 0x17C6 SWAP1 POP JUMP JUMPDEST PUSH1 0x40 MLOAD RETURNDATASIZE DUP16 DUP3 RETURNDATACOPY RETURNDATASIZE SWAP1 REVERT JUMPDEST PUSH2 0x1EAF SWAP2 SWAP6 POP DUP13 RETURNDATASIZE DUP1 SWAP2 DUP4 RETURNDATACOPY PUSH2 0x634 DUP2 DUP4 PUSH2 0x263F JUMP JUMPDEST POP SWAP1 POP SWAP4 CODESIZE PUSH2 0x1780 JUMP JUMPDEST PUSH1 0x40 MLOAD RETURNDATASIZE DUP15 DUP3 RETURNDATACOPY RETURNDATASIZE SWAP1 REVERT JUMPDEST SWAP1 SWAP5 POP PUSH1 0x20 DUP2 RETURNDATASIZE PUSH1 0x20 GT PUSH2 0x1EF4 JUMPI JUMPDEST DUP2 PUSH2 0x1EE0 PUSH1 0x20 SWAP4 DUP4 PUSH2 0x263F JUMP JUMPDEST DUP2 ADD SUB SLT PUSH2 0x1EF0 JUMPI MLOAD SWAP4 CODESIZE PUSH2 0x1729 JUMP JUMPDEST DUP12 DUP1 REVERT JUMPDEST RETURNDATASIZE SWAP2 POP PUSH2 0x1ED3 JUMP JUMPDEST SWAP2 SWAP3 PUSH2 0x1F2B PUSH1 0x1 PUSH20 0xFFFFFFFFFFFFFFFFFFFFFFFFFFFFFFFFFFFFFFFF PUSH2 0x1F23 DUP2 SWAP5 DUP8 PUSH2 0x28EE JUMP JUMPDEST MLOAD AND SWAP5 PUSH2 0x28EE JUMP JUMPDEST MLOAD AND SWAP2 DUP4 PUSH20 0xFFFFFFFFFFFFFFFFFFFFFFFFFFFFFFFFFFFFFFFF PUSH32 0x0 AND DUP3 SUB PUSH2 0x1FF0 JUMPI JUMPDEST POP POP PUSH20 0xFFFFFFFFFFFFFFFFFFFFFFFFFFFFFFFFFFFFFFFF PUSH32 0x0 AND DUP3 SUB PUSH2 0x1FB6 JUMPI JUMPDEST POP POP POP POP PUSH2 0x18CF JUMP JUMPDEST PUSH2 0x1FE6 SWAP4 PUSH2 0x1DA3 PUSH1 0x1 PUSH32 0x0 SWAP4 PUSH2 0x28EE JUMP JUMPDEST POP CODESIZE DUP1 DUP1 DUP1 PUSH2 0x1FAD JUMP JUMPDEST PUSH2 0x201F SWAP2 PUSH32 0x0 PUSH2 0x1DE3 DUP15 DUP7 PUSH2 0x28EE JUMP JUMPDEST POP CODESIZE DUP4 PUSH2 0x1F6D JUMP JUMPDEST SWAP3 SWAP4 SWAP5 POP POP POP PUSH2 0x203F JUMPI SWAP1 DUP9 SWAP2 DUP12 PUSH1 0x7 DUP6 EQ CODESIZE PUSH2 0x16BC JUMP JUMPDEST PUSH1 0x24 DUP10 PUSH32 0x4E487B7100000000000000000000000000000000000000000000000000000000 DUP2 MSTORE PUSH1 0x21 PUSH1 0x4 MSTORE REVERT JUMPDEST POP POP PUSH1 0x1 DUP6 EQ DUP5 PUSH2 0x16B5 JUMP JUMPDEST DUP10 SWAP3 SWAP12 POP PUSH2 0x2091 SWAP2 SWAP6 POP RETURNDATASIZE DUP1 DUP5 DUP4 RETURNDATACOPY PUSH2 0x634 DUP2 DUP4 PUSH2 0x263F JUMP JUMPDEST POP SWAP11 SWAP1 SWAP11 SWAP5 SWAP1 SWAP2 PUSH2 0x16A4 JUMP JUMPDEST SWAP1 SWAP2 POP PUSH1 0x20 DUP2 RETURNDATASIZE PUSH1 0x20 GT PUSH2 0x20C9 JUMPI JUMPDEST DUP2 PUSH2 0x20B9 PUSH1 0x20 SWAP4 DUP4 PUSH2 0x263F JUMP JUMPDEST DUP2 ADD SUB SLT PUSH2 0x795 JUMPI MLOAD SWAP1 CODESIZE PUSH2 0x164A JUMP JUMPDEST RETURNDATASIZE SWAP2 POP PUSH2 0x20AC JUMP JUMPDEST PUSH1 0x24 DUP7 PUSH32 0x4E487B7100000000000000000000000000000000000000000000000000000000 DUP2 MSTORE PUSH1 0x21 PUSH1 0x4 MSTORE REVERT JUMPDEST DUP3 CALLVALUE PUSH2 0x80C JUMPI DUP1 PUSH32 0xFFFFFFFFFFFFFFFFFFFFFFFFFFFFFFFFFFFFFFFFFFFFFFFFFFFFFFFFFFFFFFFC CALLDATASIZE ADD SLT PUSH2 0x80C JUMPI PUSH1 0x20 PUSH1 0x40 MLOAD PUSH20 0xDEF171FE48CF0115B1D80B88DC8EAB59176FEE57 DUP2 MSTORE RETURN JUMPDEST DUP3 CALLVALUE PUSH2 0x80C JUMPI DUP1 PUSH32 0xFFFFFFFFFFFFFFFFFFFFFFFFFFFFFFFFFFFFFFFFFFFFFFFFFFFFFFFFFFFFFFFC CALLDATASIZE ADD SLT PUSH2 0x80C JUMPI PUSH1 0x20 PUSH1 0x40 MLOAD PUSH20 0x6352A56CAADC4F1E25CD6C75970FA768A3304E64 DUP2 MSTORE RETURN JUMPDEST DUP3 CALLVALUE PUSH2 0x80C JUMPI PUSH1 0x40 PUSH32 0xFFFFFFFFFFFFFFFFFFFFFFFFFFFFFFFFFFFFFFFFFFFFFFFFFFFFFFFFFFFFFFFC CALLDATASIZE ADD SLT PUSH2 0x80C JUMPI PUSH1 0x4 CALLDATALOAD SWAP1 PUSH8 0xFFFFFFFFFFFFFFFF DUP3 GT PUSH2 0x80C JUMPI CALLDATASIZE PUSH1 0x23 DUP4 ADD SLT ISZERO PUSH2 0x80C JUMPI DUP2 PUSH1 0x4 ADD CALLDATALOAD PUSH2 0x21F4 DUP2 PUSH2 0x274F JUMP JUMPDEST SWAP1 PUSH2 0x2202 PUSH1 0x40 MLOAD SWAP3 DUP4 PUSH2 0x263F JUMP JUMPDEST DUP1 DUP3 MSTORE PUSH1 0x20 SWAP4 DUP5 DUP4 ADD PUSH1 0x24 DUP1 SWAP4 PUSH1 0x5 SHL DUP4 ADD ADD SWAP2 CALLDATASIZE DUP4 GT PUSH2 0x1210 JUMPI DUP4 ADD SWAP1 JUMPDEST DUP3 DUP3 LT PUSH2 0x23B0 JUMPI POP POP POP DUP1 CALLDATALOAD SWAP2 PUSH20 0xFFFFFFFFFFFFFFFFFFFFFFFFFFFFFFFFFFFFFFFF SWAP2 DUP3 DUP5 AND DUP5 SUB PUSH2 0x12F6 JUMPI PUSH1 0x40 MLOAD PUSH32 0xF851A44000000000000000000000000000000000000000000000000000000000 DUP2 MSTORE DUP7 DUP2 PUSH1 0x4 DUP2 DUP8 PUSH32 0x0 AND GAS STATICCALL SWAP1 DUP2 ISZERO PUSH2 0x1341 JUMPI SWAP1 DUP5 SWAP2 DUP8 SWAP2 PUSH2 0x2378 JUMPI JUMPDEST POP AND CALLER SUB PUSH2 0xC83 JUMPI DUP5 JUMPDEST DUP3 MLOAD DUP2 LT ISZERO PUSH2 0x2374 JUMPI DUP1 DUP8 DUP6 PUSH2 0x22CF DUP6 SWAP5 DUP8 PUSH2 0x28EE JUMP JUMPDEST MLOAD AND PUSH1 0x40 MLOAD SWAP4 DUP5 DUP1 SWAP3 PUSH32 0x70A0823100000000000000000000000000000000000000000000000000000000 DUP3 MSTORE ADDRESS PUSH1 0x4 DUP4 ADD MSTORE GAS STATICCALL DUP1 ISZERO PUSH2 0x121B JUMPI DUP8 SWAP1 PUSH2 0x2343 JUMPI JUMPDEST PUSH2 0x2321 SWAP3 POP DUP1 PUSH2 0x2326 JUMPI JUMPDEST POP PUSH2 0x2892 JUMP JUMPDEST PUSH2 0x22B8 JUMP JUMPDEST PUSH2 0x233D SWAP1 DUP8 DUP8 PUSH2 0x2336 DUP6 DUP10 PUSH2 0x28EE JUMP JUMPDEST MLOAD AND PUSH2 0x3F5F JUMP JUMPDEST DUP9 PUSH2 0x231B JUMP JUMPDEST POP SWAP1 DUP8 DUP2 DUP2 RETURNDATASIZE DUP4 GT PUSH2 0x236D JUMPI JUMPDEST PUSH2 0x235A DUP2 DUP4 PUSH2 0x263F JUMP JUMPDEST DUP2 ADD SUB SLT PUSH2 0x795 JUMPI SWAP1 PUSH2 0x2321 SWAP2 MLOAD PUSH2 0x2310 JUMP JUMPDEST POP RETURNDATASIZE PUSH2 0x2350 JUMP JUMPDEST DUP6 DUP1 RETURN JUMPDEST DUP1 SWAP3 POP DUP9 DUP1 SWAP3 POP RETURNDATASIZE DUP4 GT PUSH2 0x23A9 JUMPI JUMPDEST PUSH2 0x2391 DUP2 DUP4 PUSH2 0x263F JUMP JUMPDEST DUP2 ADD SUB SLT PUSH2 0x1210 JUMPI PUSH2 0x23A3 DUP5 SWAP2 PUSH2 0x2871 JUMP JUMPDEST DUP9 PUSH2 0x22AE JUMP JUMPDEST POP RETURNDATASIZE PUSH2 0x2387 JUMP JUMPDEST DUP2 CALLDATALOAD PUSH20 0xFFFFFFFFFFFFFFFFFFFFFFFFFFFFFFFFFFFFFFFF DUP2 AND DUP2 SUB PUSH2 0x795 JUMPI DUP2 MSTORE SWAP1 DUP7 ADD SWAP1 DUP7 ADD PUSH2 0x2221 JUMP JUMPDEST DUP3 CALLVALUE PUSH2 0x80C JUMPI DUP1 PUSH32 0xFFFFFFFFFFFFFFFFFFFFFFFFFFFFFFFFFFFFFFFFFFFFFFFFFFFFFFFFFFFFFFFC CALLDATASIZE ADD SLT PUSH2 0x80C JUMPI PUSH1 0x20 PUSH1 0x40 MLOAD PUSH15 0x22D473030F116DDEE9F6B43AC78BA3 DUP2 MSTORE RETURN JUMPDEST DUP3 CALLVALUE PUSH2 0x80C JUMPI DUP1 PUSH32 0xFFFFFFFFFFFFFFFFFFFFFFFFFFFFFFFFFFFFFFFFFFFFFFFFFFFFFFFFFFFFFFFC CALLDATASIZE ADD SLT PUSH2 0x80C JUMPI PUSH2 0xAD8 PUSH2 0x2460 PUSH1 0x5 PUSH2 0x26AF JUMP JUMPDEST PUSH2 0x246D PUSH1 0x40 MLOAD SWAP2 DUP3 PUSH2 0x263F JUMP JUMPDEST PUSH1 0x5 DUP2 MSTORE PUSH32 0x312E302E30000000000000000000000000000000000000000000000000000000 PUSH1 0x20 DUP3 ADD MSTORE PUSH1 0x40 MLOAD SWAP2 DUP3 SWAP2 PUSH1 0x20 DUP4 MSTORE PUSH1 0x20 DUP4 ADD SWAP1 PUSH2 0x270C JUMP JUMPDEST DUP3 CALLVALUE PUSH2 0x80C JUMPI DUP1 PUSH32 0xFFFFFFFFFFFFFFFFFFFFFFFFFFFFFFFFFFFFFFFFFFFFFFFFFFFFFFFFFFFFFFFC CALLDATASIZE ADD SLT PUSH2 0x80C JUMPI PUSH1 0x20 PUSH1 0x40 MLOAD PUSH20 0xE592427A0AECE92DE3EDEE1F18E0157C05861564 DUP2 MSTORE RETURN JUMPDEST DUP3 CALLVALUE PUSH2 0x80C JUMPI DUP1 PUSH32 0xFFFFFFFFFFFFFFFFFFFFFFFFFFFFFFFFFFFFFFFFFFFFFFFFFFFFFFFFFFFFFFFC CALLDATASIZE ADD SLT PUSH2 0x80C JUMPI PUSH1 0x20 PUSH1 0x40 MLOAD PUSH20 0xBA12222222228D8BA445958A75A0704D566BF2C8 DUP2 MSTORE RETURN JUMPDEST DUP3 CALLVALUE PUSH2 0x80C JUMPI DUP1 PUSH32 0xFFFFFFFFFFFFFFFFFFFFFFFFFFFFFFFFFFFFFFFFFFFFFFFFFFFFFFFFFFFFFFFC CALLDATASIZE ADD SLT PUSH2 0x80C JUMPI PUSH1 0x20 PUSH1 0x40 MLOAD PUSH20 0xDEF1C0DED9BEC7F1A1670819833240F027B25EFF DUP2 MSTORE RETURN JUMPDEST DUP3 CALLVALUE PUSH2 0x80C JUMPI DUP1 PUSH32 0xFFFFFFFFFFFFFFFFFFFFFFFFFFFFFFFFFFFFFFFFFFFFFFFFFFFFFFFFFFFFFFFC CALLDATASIZE ADD SLT PUSH2 0x80C JUMPI PUSH2 0xAD8 PUSH2 0x25CE PUSH1 0x22 PUSH2 0x26AF JUMP JUMPDEST PUSH2 0x25DB PUSH1 0x40 MLOAD SWAP2 DUP3 PUSH2 0x263F JUMP JUMPDEST PUSH1 0x22 DUP2 MSTORE PUSH32 0x416C7461697220457874656E73696F6E3A2048797065727669736F7220506F6F PUSH1 0x20 DUP3 ADD MSTORE PUSH32 0x6C73000000000000000000000000000000000000000000000000000000000000 PUSH1 0x40 DUP3 ADD MSTORE PUSH1 0x40 MLOAD SWAP2 DUP3 SWAP2 PUSH1 0x20 DUP4 MSTORE PUSH1 0x20 DUP4 ADD SWAP1 PUSH2 0x270C JUMP JUMPDEST SWAP1 PUSH1 0x1F PUSH32 0xFFFFFFFFFFFFFFFFFFFFFFFFFFFFFFFFFFFFFFFFFFFFFFFFFFFFFFFFFFFFFFE0 SWAP2 ADD AND DUP2 ADD SWAP1 DUP2 LT PUSH8 0xFFFFFFFFFFFFFFFF DUP3 GT OR PUSH2 0x2680 JUMPI PUSH1 0x40 MSTORE JUMP JUMPDEST PUSH32 0x4E487B7100000000000000000000000000000000000000000000000000000000 PUSH1 0x0 MSTORE PUSH1 0x41 PUSH1 0x4 MSTORE PUSH1 0x24 PUSH1 0x0 REVERT JUMPDEST PUSH8 0xFFFFFFFFFFFFFFFF DUP2 GT PUSH2 0x2680 JUMPI PUSH1 0x1F ADD PUSH32 0xFFFFFFFFFFFFFFFFFFFFFFFFFFFFFFFFFFFFFFFFFFFFFFFFFFFFFFFFFFFFFFE0 AND PUSH1 0x20 ADD SWAP1 JUMP JUMPDEST PUSH1 0x0 JUMPDEST DUP4 DUP2 LT PUSH2 0x26FC JUMPI POP POP PUSH1 0x0 SWAP2 ADD MSTORE JUMP JUMPDEST DUP2 DUP2 ADD MLOAD DUP4 DUP3 ADD MSTORE PUSH1 0x20 ADD PUSH2 0x26EC JUMP JUMPDEST SWAP1 PUSH32 0xFFFFFFFFFFFFFFFFFFFFFFFFFFFFFFFFFFFFFFFFFFFFFFFFFFFFFFFFFFFFFFE0 PUSH1 0x1F PUSH1 0x20 SWAP4 PUSH2 0x2748 DUP2 MLOAD DUP1 SWAP3 DUP2 DUP8 MSTORE DUP8 DUP1 DUP9 ADD SWAP2 ADD PUSH2 0x26E9 JUMP JUMPDEST ADD AND ADD ADD SWAP1 JUMP JUMPDEST PUSH8 0xFFFFFFFFFFFFFFFF DUP2 GT PUSH2 0x2680 JUMPI PUSH1 0x5 SHL PUSH1 0x20 ADD SWAP1 JUMP JUMPDEST CALLDATALOAD SWAP1 PUSH20 0xFFFFFFFFFFFFFFFFFFFFFFFFFFFFFFFFFFFFFFFF DUP3 AND DUP3 SUB PUSH2 0x678 JUMPI JUMP JUMPDEST SWAP2 DUP2 PUSH1 0x1F DUP5 ADD SLT ISZERO PUSH2 0x678 JUMPI DUP3 CALLDATALOAD SWAP2 PUSH8 0xFFFFFFFFFFFFFFFF DUP4 GT PUSH2 0x678 JUMPI PUSH1 0x20 DUP4 DUP2 DUP7 ADD SWAP6 ADD ADD GT PUSH2 0x678 JUMPI JUMP JUMPDEST SWAP2 PUSH1 0x60 DUP4 DUP4 SUB SLT PUSH2 0x678 JUMPI PUSH2 0x27CA DUP4 PUSH2 0x2767 JUMP JUMPDEST SWAP3 PUSH1 0x20 DUP2 ADD CALLDATALOAD SWAP3 PUSH1 0x40 DUP3 ADD CALLDATALOAD PUSH8 0xFFFFFFFFFFFFFFFF DUP2 GT PUSH2 0x678 JUMPI PUSH2 0x27EF SWAP3 ADD PUSH2 0x2788 JUMP JUMPDEST SWAP1 SWAP2 JUMP JUMPDEST SWAP1 DUP2 MLOAD DUP1 DUP3 MSTORE PUSH1 0x20 DUP1 DUP1 SWAP4 ADD SWAP4 ADD SWAP2 PUSH1 0x0 JUMPDEST DUP3 DUP2 LT PUSH2 0x2813 JUMPI POP POP POP POP SWAP1 JUMP JUMPDEST DUP4 MLOAD PUSH20 0xFFFFFFFFFFFFFFFFFFFFFFFFFFFFFFFFFFFFFFFF AND DUP6 MSTORE SWAP4 DUP2 ADD SWAP4 SWAP3 DUP2 ADD SWAP3 PUSH1 0x1 ADD PUSH2 0x2805 JUMP JUMPDEST SWAP1 DUP2 MLOAD DUP1 DUP3 MSTORE PUSH1 0x20 DUP1 DUP1 SWAP4 ADD SWAP4 ADD SWAP2 PUSH1 0x0 JUMPDEST DUP3 DUP2 LT PUSH2 0x285D JUMPI POP POP POP POP SWAP1 JUMP JUMPDEST DUP4 MLOAD DUP6 MSTORE SWAP4 DUP2 ADD SWAP4 SWAP3 DUP2 ADD SWAP3 PUSH1 0x1 ADD PUSH2 0x284F JUMP JUMPDEST MLOAD SWAP1 PUSH20 0xFFFFFFFFFFFFFFFFFFFFFFFFFFFFFFFFFFFFFFFF DUP3 AND DUP3 SUB PUSH2 0x678 JUMPI JUMP JUMPDEST PUSH32 0xFFFFFFFFFFFFFFFFFFFFFFFFFFFFFFFFFFFFFFFFFFFFFFFFFFFFFFFFFFFFFFFF DUP2 EQ PUSH2 0x28BF JUMPI PUSH1 0x1 ADD SWAP1 JUMP JUMPDEST PUSH32 0x4E487B7100000000000000000000000000000000000000000000000000000000 PUSH1 0x0 MSTORE PUSH1 0x11 PUSH1 0x4 MSTORE PUSH1 0x24 PUSH1 0x0 REVERT JUMPDEST DUP1 MLOAD DUP3 LT ISZERO PUSH2 0x2902 JUMPI PUSH1 0x20 SWAP2 PUSH1 0x5 SHL ADD ADD SWAP1 JUMP JUMPDEST PUSH32 0x4E487B7100000000000000000000000000000000000000000000000000000000 PUSH1 0x0 MSTORE PUSH1 0x32 PUSH1 0x4 MSTORE PUSH1 0x24 PUSH1 0x0 REVERT JUMPDEST SWAP1 SWAP2 PUSH1 0x60 DUP3 DUP5 SUB SLT PUSH2 0x678 JUMPI DUP2 MLOAD SWAP3 PUSH8 0xFFFFFFFFFFFFFFFF SWAP4 DUP5 DUP2 GT PUSH2 0x678 JUMPI DUP4 ADD DUP2 PUSH1 0x1F DUP3 ADD SLT ISZERO PUSH2 0x678 JUMPI DUP1 MLOAD SWAP1 PUSH2 0x296A DUP3 PUSH2 0x274F JUMP JUMPDEST SWAP1 PUSH2 0x2978 PUSH1 0x40 MLOAD SWAP3 DUP4 PUSH2 0x263F JUMP JUMPDEST DUP3 DUP3 MSTORE PUSH1 0x20 SWAP3 DUP4 DUP1 DUP5 ADD SWAP2 PUSH1 0x5 SHL DUP4 ADD ADD SWAP2 DUP6 DUP4 GT PUSH2 0x678 JUMPI DUP5 DUP1 SWAP2 ADD SWAP2 JUMPDEST DUP4 DUP4 LT PUSH2 0x2A11 JUMPI POP POP POP POP SWAP5 DUP2 DUP6 ADD MLOAD SWAP1 DUP2 GT PUSH2 0x678 JUMPI DUP5 ADD SWAP2 DUP1 PUSH1 0x1F DUP5 ADD SLT ISZERO PUSH2 0x678 JUMPI DUP3 MLOAD PUSH2 0x29C7 DUP2 PUSH2 0x274F JUMP JUMPDEST SWAP4 PUSH2 0x29D5 PUSH1 0x40 MLOAD SWAP6 DUP7 PUSH2 0x263F JUMP JUMPDEST DUP2 DUP6 MSTORE DUP4 DUP1 DUP7 ADD SWAP3 PUSH1 0x5 SHL DUP3 ADD ADD SWAP3 DUP4 GT PUSH2 0x678 JUMPI DUP4 ADD SWAP1 JUMPDEST DUP3 DUP3 LT PUSH2 0x2A02 JUMPI POP POP POP POP PUSH1 0x40 SWAP1 SWAP3 ADD MLOAD SWAP1 JUMP JUMPDEST DUP2 MLOAD DUP2 MSTORE SWAP1 DUP4 ADD SWAP1 DUP4 ADD PUSH2 0x29EE JUMP JUMPDEST DUP2 SWAP1 PUSH2 0x2A1C DUP5 PUSH2 0x2871 JUMP JUMPDEST DUP2 MSTORE ADD SWAP2 ADD SWAP1 DUP5 SWAP1 PUSH2 0x2997 JUMP JUMPDEST SWAP2 SWAP1 DUP3 SUB SWAP2 DUP3 GT PUSH2 0x28BF JUMPI JUMP JUMPDEST SWAP1 DUP1 PUSH1 0x1F DUP4 ADD SLT ISZERO PUSH2 0x678 JUMPI DUP2 CALLDATALOAD SWAP2 PUSH2 0x2A4E DUP4 PUSH2 0x274F JUMP JUMPDEST SWAP3 PUSH1 0x40 SWAP1 PUSH2 0x2A5E DUP3 MLOAD SWAP6 DUP7 PUSH2 0x263F JUMP JUMPDEST DUP1 DUP6 MSTORE PUSH1 0x20 SWAP4 DUP5 DUP1 DUP8 ADD SWAP3 PUSH1 0x5 SHL DUP6 ADD ADD SWAP4 DUP2 DUP6 GT PUSH2 0x678 JUMPI DUP6 DUP2 ADD SWAP3 JUMPDEST DUP6 DUP5 LT PUSH2 0x2A8D JUMPI POP POP POP POP POP POP POP SWAP1 JUMP JUMPDEST DUP4 CALLDATALOAD PUSH8 0xFFFFFFFFFFFFFFFF DUP2 GT PUSH2 0x678 JUMPI DUP3 ADD DUP4 PUSH1 0x3F DUP3 ADD SLT ISZERO PUSH2 0x678 JUMPI DUP8 DUP2 ADD CALLDATALOAD SWAP2 PUSH2 0x2AB9 DUP4 PUSH2 0x26AF JUMP JUMPDEST PUSH2 0x2AC5 DUP9 MLOAD SWAP2 DUP3 PUSH2 0x263F JUMP JUMPDEST DUP4 DUP2 MSTORE DUP6 DUP9 DUP6 DUP6 ADD ADD GT PUSH2 0x678 JUMPI PUSH1 0x0 DUP11 DUP6 DUP2 SWAP7 DUP12 DUP4 SWAP8 ADD DUP4 DUP7 ADD CALLDATACOPY DUP4 ADD ADD MSTORE DUP2 MSTORE ADD SWAP4 ADD SWAP3 PUSH2 0x2A7C JUMP JUMPDEST PUSH20 0xFFFFFFFFFFFFFFFFFFFFFFFFFFFFFFFFFFFFFFFF PUSH32 0x0 AND ADDRESS EQ PUSH2 0x2B2F JUMPI JUMP JUMPDEST PUSH1 0x4 PUSH1 0x40 MLOAD PUSH32 0xC97BBBAE00000000000000000000000000000000000000000000000000000000 DUP2 MSTORE REVERT JUMPDEST SWAP1 PUSH2 0x2B63 DUP3 PUSH2 0x274F JUMP JUMPDEST PUSH2 0x2B70 PUSH1 0x40 MLOAD SWAP2 DUP3 PUSH2 0x263F JUMP JUMPDEST DUP3 DUP2 MSTORE PUSH32 0xFFFFFFFFFFFFFFFFFFFFFFFFFFFFFFFFFFFFFFFFFFFFFFFFFFFFFFFFFFFFFFE0 PUSH2 0x2B9E DUP3 SWAP5 PUSH2 0x274F JUMP JUMPDEST ADD SWAP1 PUSH1 0x20 CALLDATASIZE SWAP2 ADD CALLDATACOPY JUMP JUMPDEST SWAP1 PUSH1 0x60 DUP1 PUSH2 0x2BE9 PUSH2 0x2BD7 PUSH2 0x2BC5 DUP7 MLOAD PUSH1 0x80 DUP8 MSTORE PUSH1 0x80 DUP8 ADD SWAP1 PUSH2 0x27F3 JUMP JUMPDEST PUSH1 0x20 DUP8 ADD MLOAD DUP7 DUP3 SUB PUSH1 0x20 DUP9 ADD MSTORE PUSH2 0x283D JUMP JUMPDEST PUSH1 0x40 DUP7 ADD MLOAD DUP6 DUP3 SUB PUSH1 0x40 DUP8 ADD MSTORE PUSH2 0x270C JUMP JUMPDEST SWAP4 ADD MLOAD ISZERO ISZERO SWAP2 ADD MSTORE SWAP1 JUMP JUMPDEST SWAP1 SWAP2 PUSH2 0x2C30 SWAP5 SWAP4 PUSH1 0x80 SWAP4 DUP4 MSTORE PUSH20 0xFFFFFFFFFFFFFFFFFFFFFFFFFFFFFFFFFFFFFFFF DUP1 SWAP3 AND PUSH1 0x20 DUP5 ADD MSTORE AND PUSH1 0x40 DUP3 ADD MSTORE DUP2 PUSH1 0x60 DUP3 ADD MSTORE ADD SWAP1 PUSH2 0x2BA8 JUMP JUMPDEST SWAP1 JUMP JUMPDEST SWAP1 SWAP4 SWAP3 SWAP2 SWAP4 PUSH1 0x0 SWAP5 PUSH32 0x0 SWAP2 PUSH20 0xFFFFFFFFFFFFFFFFFFFFFFFFFFFFFFFFFFFFFFFF SWAP5 DUP6 DUP5 AND SWAP8 JUMPDEST DUP3 MLOAD DUP2 LT ISZERO PUSH2 0x2CD0 JUMPI DUP1 DUP10 DUP9 PUSH2 0x2C91 PUSH2 0x2C9D SWAP5 DUP8 PUSH2 0x28EE JUMP JUMPDEST MLOAD AND SUB PUSH2 0x2CA2 JUMPI PUSH2 0x2892 JUMP JUMPDEST PUSH2 0x2C78 JUMP JUMPDEST PUSH2 0x231B PUSH2 0x2CAF DUP3 DUP6 PUSH2 0x28EE JUMP JUMPDEST MLOAD DUP8 DUP11 PUSH2 0x2CBC DUP6 DUP10 PUSH2 0x28EE JUMP JUMPDEST MLOAD AND PUSH2 0x2CC8 DUP6 DUP11 PUSH2 0x28EE JUMP JUMPDEST MLOAD SWAP3 DUP12 PUSH2 0x2CE4 JUMP JUMPDEST POP POP POP POP SWAP2 POP POP PUSH2 0x2C30 SWAP2 SWAP3 POP ADDRESS SWAP1 PUSH2 0x3FA8 JUMP JUMPDEST SWAP4 SWAP3 SWAP1 SWAP2 SWAP4 PUSH1 0x8 DUP2 LT ISZERO PUSH2 0x3A3B JUMPI DUP1 PUSH2 0x2DD7 JUMPI POP POP PUSH1 0x40 MLOAD SWAP3 PUSH32 0xD2C4B59800000000000000000000000000000000000000000000000000000000 DUP5 MSTORE PUSH1 0x20 SWAP4 PUSH20 0xDEF171FE48CF0115B1D80B88DC8EAB59176FEE57 SWAP2 DUP6 DUP3 PUSH1 0x4 DUP2 DUP7 GAS STATICCALL SWAP2 DUP3 ISZERO PUSH2 0x2DCB JUMPI PUSH1 0x0 SWAP3 PUSH2 0x2D85 JUMPI JUMPDEST POP PUSH1 0x0 SWAP5 DUP6 SWAP5 SWAP4 SWAP3 PUSH2 0x2D61 SWAP3 PUSH2 0x3A9A JUMP JUMPDEST DUP5 DUP3 MLOAD SWAP3 ADD SWAP1 CALLVALUE SWAP1 GAS CALL PUSH2 0x2D73 PUSH2 0x3A6A JUMP JUMPDEST SWAP1 ISZERO PUSH2 0x2D7F JUMPI ADD MLOAD SWAP1 JUMPDEST JUMP JUMPDEST DUP1 MLOAD SWAP2 ADD REVERT JUMPDEST SWAP1 SWAP4 SWAP3 SWAP2 POP DUP6 DUP2 DUP2 RETURNDATASIZE DUP4 GT PUSH2 0x2DC4 JUMPI JUMPDEST PUSH2 0x2D9F DUP2 DUP4 PUSH2 0x263F JUMP JUMPDEST DUP2 ADD SUB SLT PUSH2 0x678 JUMPI PUSH1 0x0 SWAP5 DUP6 SWAP5 PUSH2 0x2DB8 PUSH2 0x2D61 SWAP4 PUSH2 0x2871 JUMP JUMPDEST SWAP4 SWAP5 SWAP6 POP SWAP2 POP SWAP5 PUSH2 0x2D50 JUMP JUMPDEST POP RETURNDATASIZE PUSH2 0x2D95 JUMP JUMPDEST PUSH1 0x40 MLOAD RETURNDATASIZE PUSH1 0x0 DUP3 RETURNDATACOPY RETURNDATASIZE SWAP1 REVERT JUMPDEST SWAP3 SWAP4 SWAP2 SWAP3 PUSH1 0x1 DUP2 SUB PUSH2 0x302E JUMPI POP POP SWAP1 DUP1 MLOAD DUP2 ADD DUP2 PUSH1 0x20 DUP3 ADD SWAP2 SUB SWAP4 PUSH2 0x140 DUP6 SLT PUSH2 0x678 JUMPI PUSH1 0xE0 PUSH32 0xFFFFFFFFFFFFFFFFFFFFFFFFFFFFFFFFFFFFFFFFFFFFFFFFFFFFFFFFFFFFFFE0 PUSH2 0x2E2A PUSH1 0x20 DUP7 ADD PUSH2 0x2871 JUMP JUMPDEST SWAP7 ADD SLT PUSH2 0x678 JUMPI PUSH1 0x40 SWAP5 DUP6 MLOAD SWAP5 PUSH2 0x2E42 PUSH1 0xE0 DUP8 PUSH2 0x263F JUMP JUMPDEST PUSH2 0x2E4D DUP8 DUP7 ADD PUSH2 0x2871 JUMP JUMPDEST DUP7 MSTORE PUSH2 0x2E5B PUSH1 0x60 DUP7 ADD PUSH2 0x2871 JUMP JUMPDEST SWAP1 PUSH1 0x20 DUP8 ADD SWAP2 DUP3 MSTORE PUSH2 0x2E6F PUSH1 0x80 DUP8 ADD PUSH2 0x2871 JUMP JUMPDEST SWAP5 DUP9 DUP9 ADD SWAP6 DUP7 MSTORE PUSH2 0x2E82 PUSH1 0xA0 DUP9 ADD PUSH2 0x2871 JUMP JUMPDEST SWAP8 PUSH1 0x60 DUP2 ADD SWAP9 DUP10 MSTORE PUSH1 0xC0 DUP9 ADD MLOAD PUSH1 0x80 DUP3 ADD SWAP1 DUP2 MSTORE PUSH1 0xE0 DUP10 ADD MLOAD SWAP1 PUSH1 0xA0 DUP4 ADD SWAP2 DUP3 MSTORE PUSH2 0x100 DUP11 ADD MLOAD SWAP3 PUSH1 0xC0 DUP2 ADD SWAP4 DUP5 MSTORE PUSH2 0x120 DUP12 ADD MLOAD PUSH8 0xFFFFFFFFFFFFFFFF SWAP1 DUP2 DUP2 GT PUSH2 0x678 JUMPI DUP7 PUSH1 0x20 PUSH2 0x2ED7 SWAP3 DUP16 ADD ADD PUSH2 0x3BA5 JUMP JUMPDEST SWAP6 PUSH2 0x140 DUP14 ADD MLOAD SWAP2 DUP3 GT PUSH2 0x678 JUMPI DUP15 SWAP13 PUSH2 0x2EF4 SWAP3 ADD PUSH1 0x20 ADD PUSH2 0x3BA5 JUMP JUMPDEST SWAP6 DUP10 DUP4 MLOAD SUB PUSH2 0x3026 JUMPI JUMPDEST PUSH20 0x1111111254EEB25477B68FB85ED929F73A960582 SWAP10 DUP11 PUSH2 0x2F1E SWAP3 PUSH2 0x3A9A JUMP JUMPDEST DUP11 MLOAD SWAP12 DUP13 DUP1 SWAP12 DUP2 SWAP11 DUP3 SWAP11 PUSH32 0x12AA3CAF00000000000000000000000000000000000000000000000000000000 DUP5 MSTORE PUSH20 0xFFFFFFFFFFFFFFFFFFFFFFFFFFFFFFFFFFFFFFFF DUP1 SWAP7 DUP2 SWAP6 DUP3 DUP1 SWAP6 AND SWAP1 PUSH1 0x4 ADD MSTORE MLOAD AND PUSH1 0x24 DUP14 ADD MSTORE MLOAD AND PUSH1 0x44 DUP12 ADD MSTORE MLOAD AND PUSH1 0x64 DUP10 ADD MSTORE MLOAD AND PUSH1 0x84 DUP8 ADD MSTORE MLOAD PUSH1 0xA4 DUP7 ADD MSTORE MLOAD PUSH1 0xC4 DUP6 ADD MSTORE MLOAD PUSH1 0xE4 DUP5 ADD MSTORE PUSH2 0x104 DUP4 ADD PUSH2 0x140 SWAP1 MSTORE PUSH2 0x144 DUP4 ADD PUSH2 0x2FB3 SWAP2 PUSH2 0x270C JUMP JUMPDEST DUP3 DUP2 SUB PUSH32 0xFFFFFFFFFFFFFFFFFFFFFFFFFFFFFFFFFFFFFFFFFFFFFFFFFFFFFFFFFFFFFFFC ADD PUSH2 0x124 DUP5 ADD MSTORE PUSH2 0x2FE7 SWAP2 PUSH2 0x270C JUMP JUMPDEST SUB SWAP2 GAS SWAP1 PUSH1 0x0 SWAP2 CALL SWAP2 DUP3 ISZERO PUSH2 0x301C JUMPI PUSH1 0x0 SWAP3 PUSH2 0x3002 JUMPI POP POP SWAP1 JUMP JUMPDEST PUSH2 0x3018 SWAP3 POP DUP1 RETURNDATASIZE LT PUSH2 0x1381 JUMPI PUSH2 0x1371 DUP2 DUP4 PUSH2 0x263F JUMP JUMPDEST POP SWAP1 JUMP JUMPDEST MLOAD RETURNDATASIZE PUSH1 0x0 DUP3 RETURNDATACOPY RETURNDATASIZE SWAP1 REVERT JUMPDEST DUP10 DUP4 MSTORE PUSH2 0x2EFE JUMP JUMPDEST PUSH1 0x2 DUP2 SUB PUSH2 0x3086 JUMPI POP POP SWAP1 PUSH1 0x0 SWAP3 SWAP2 PUSH2 0x305E DUP5 SWAP4 PUSH20 0x1111111254EEB25477B68FB85ED929F73A960582 DUP1 SWAP4 PUSH2 0x3A9A JUMP JUMPDEST PUSH1 0x20 DUP3 MLOAD SWAP3 ADD SWAP1 CALLVALUE SWAP1 GAS CALL PUSH2 0x3071 PUSH2 0x3A6A JUMP JUMPDEST SWAP1 ISZERO PUSH2 0x307E JUMPI PUSH1 0x20 ADD MLOAD SWAP1 JUMP JUMPDEST PUSH1 0x20 DUP2 MLOAD SWAP2 ADD REVERT JUMPDEST PUSH1 0x3 DUP2 SUB PUSH2 0x30B6 JUMPI POP POP SWAP1 PUSH1 0x0 SWAP3 SWAP2 PUSH2 0x305E DUP5 SWAP4 PUSH20 0xDEF1C0DED9BEC7F1A1670819833240F027B25EFF DUP1 SWAP4 PUSH2 0x3A9A JUMP JUMPDEST PUSH1 0x4 DUP2 SUB PUSH2 0x352E JUMPI POP POP DUP2 MLOAD DUP3 ADD SWAP1 PUSH1 0x60 DUP4 DUP4 SUB SLT PUSH2 0x678 JUMPI PUSH2 0x30DB PUSH1 0x20 DUP5 ADD PUSH2 0x2871 JUMP JUMPDEST PUSH1 0x40 DUP5 ADD MLOAD SWAP5 PUSH8 0xFFFFFFFFFFFFFFFF DUP7 GT PUSH2 0x678 JUMPI PUSH2 0x140 DUP7 DUP7 ADD DUP6 SUB SLT PUSH2 0x678 JUMPI PUSH1 0x40 MLOAD SWAP3 PUSH2 0x310D PUSH2 0x140 DUP6 PUSH2 0x263F JUMP JUMPDEST PUSH2 0x311B PUSH1 0x20 DUP9 DUP9 ADD ADD PUSH2 0x2871 JUMP JUMPDEST DUP5 MSTORE PUSH2 0x312B PUSH1 0x40 DUP9 DUP9 ADD ADD PUSH2 0x2871 JUMP JUMPDEST PUSH1 0x20 DUP6 ADD MSTORE PUSH2 0x313E PUSH1 0x60 DUP9 DUP9 ADD ADD PUSH2 0x2871 JUMP JUMPDEST PUSH1 0x40 DUP6 ADD MSTORE PUSH2 0x3151 PUSH1 0x80 DUP9 DUP9 ADD ADD PUSH2 0x2871 JUMP JUMPDEST PUSH1 0x60 DUP6 ADD MSTORE PUSH1 0xA0 DUP8 DUP8 ADD ADD MLOAD PUSH1 0x80 DUP6 ADD MSTORE PUSH1 0xC0 DUP8 DUP8 ADD ADD MLOAD PUSH1 0xA0 DUP6 ADD MSTORE PUSH1 0xE0 DUP8 DUP8 ADD ADD MLOAD PUSH1 0xC0 DUP6 ADD MSTORE PUSH2 0x100 SWAP7 DUP8 DUP2 DUP9 ADD ADD MLOAD PUSH1 0xE0 DUP7 ADD MSTORE PUSH2 0x3198 PUSH2 0x120 DUP3 DUP10 ADD ADD PUSH2 0x2871 JUMP JUMPDEST DUP9 DUP7 ADD MSTORE PUSH2 0x140 DUP2 DUP9 ADD ADD MLOAD SWAP1 PUSH8 0xFFFFFFFFFFFFFFFF DUP3 GT PUSH2 0x678 JUMPI PUSH1 0x20 PUSH2 0x31C7 SWAP3 DUP2 DUP10 ADD SWAP3 DUP11 ADD ADD ADD PUSH2 0x3BA5 JUMP JUMPDEST PUSH2 0x120 DUP6 ADD MSTORE PUSH1 0x60 DUP7 ADD MLOAD SWAP5 PUSH8 0xFFFFFFFFFFFFFFFF DUP7 GT PUSH2 0x678 JUMPI PUSH1 0x20 DUP2 ADD PUSH1 0x3F DUP8 DUP10 ADD ADD SLT ISZERO PUSH2 0x678 JUMPI PUSH1 0x20 DUP7 DUP9 ADD ADD MLOAD PUSH2 0x3202 DUP2 PUSH2 0x274F JUMP JUMPDEST SWAP7 PUSH2 0x3210 PUSH1 0x40 MLOAD SWAP9 DUP10 PUSH2 0x263F JUMP JUMPDEST DUP2 DUP9 MSTORE PUSH1 0x20 DUP9 ADD DUP1 SWAP10 PUSH1 0x20 DUP6 ADD PUSH1 0x40 DUP6 PUSH1 0x5 SHL DUP6 DUP5 ADD ADD ADD GT PUSH2 0x678 JUMPI PUSH1 0x40 DUP4 DUP3 ADD ADD SWAP2 JUMPDEST PUSH1 0x40 DUP6 PUSH1 0x5 SHL DUP6 DUP5 ADD ADD ADD DUP4 LT PUSH2 0x347B JUMPI POP POP POP POP POP POP SWAP2 PUSH2 0x3287 DUP3 PUSH20 0x6352A56CAADC4F1E25CD6C75970FA768A3304E64 PUSH2 0x120 SWAP6 DUP8 SWAP6 PUSH1 0x80 PUSH2 0x334C SWAP10 ADD MLOAD SUB PUSH2 0x3470 JUMPI JUMPDEST SWAP10 SWAP9 SWAP8 SWAP7 SWAP6 SWAP5 SWAP4 SWAP10 PUSH2 0x3A9A JUMP JUMPDEST PUSH1 0x40 MLOAD SWAP7 DUP8 SWAP7 PUSH32 0x90411A3200000000000000000000000000000000000000000000000000000000 DUP9 MSTORE PUSH20 0xFFFFFFFFFFFFFFFFFFFFFFFFFFFFFFFFFFFFFFFF DUP1 SWAP3 AND PUSH1 0x4 DUP10 ADD MSTORE PUSH1 0x60 PUSH1 0x24 DUP10 ADD MSTORE DUP2 DUP4 MLOAD AND PUSH1 0x64 DUP10 ADD MSTORE DUP2 PUSH1 0x20 DUP5 ADD MLOAD AND PUSH1 0x84 DUP10 ADD MSTORE DUP2 PUSH1 0x40 DUP5 ADD MLOAD AND PUSH1 0xA4 DUP10 ADD MSTORE DUP2 PUSH1 0x60 DUP5 ADD MLOAD AND PUSH1 0xC4 DUP10 ADD MSTORE PUSH1 0x80 DUP4 ADD MLOAD PUSH1 0xE4 DUP10 ADD MSTORE PUSH1 0xA0 DUP4 ADD MLOAD PUSH2 0x104 DUP10 ADD MSTORE PUSH1 0xC0 DUP4 ADD MLOAD PUSH2 0x124 DUP10 ADD MSTORE PUSH1 0xE0 DUP4 ADD MLOAD PUSH2 0x144 DUP10 ADD MSTORE DUP3 ADD MLOAD AND PUSH2 0x164 DUP8 ADD MSTORE ADD MLOAD PUSH2 0x140 PUSH2 0x184 DUP7 ADD MSTORE PUSH2 0x1A4 DUP6 ADD SWAP1 PUSH2 0x270C JUMP JUMPDEST SWAP1 PUSH32 0xFFFFFFFFFFFFFFFFFFFFFFFFFFFFFFFFFFFFFFFFFFFFFFFFFFFFFFFFFFFFFFFC DUP5 DUP4 SUB ADD PUSH1 0x44 DUP6 ADD MSTORE MLOAD DUP1 DUP3 MSTORE PUSH1 0x20 DUP3 ADD SWAP2 PUSH1 0x20 DUP3 PUSH1 0x5 SHL DUP3 ADD ADD SWAP4 SWAP3 PUSH1 0x0 SWAP2 JUMPDEST DUP4 DUP4 LT PUSH2 0x33FC JUMPI POP POP POP POP POP SWAP1 DUP1 PUSH1 0x20 SWAP3 SUB DUP2 PUSH1 0x0 PUSH20 0x6352A56CAADC4F1E25CD6C75970FA768A3304E64 GAS CALL SWAP1 DUP2 ISZERO PUSH2 0x2DCB JUMPI PUSH1 0x0 SWAP2 PUSH2 0x33CD JUMPI POP SWAP1 JUMP JUMPDEST SWAP1 POP PUSH1 0x20 DUP2 RETURNDATASIZE PUSH1 0x20 GT PUSH2 0x33F4 JUMPI JUMPDEST DUP2 PUSH2 0x33E8 PUSH1 0x20 SWAP4 DUP4 PUSH2 0x263F JUMP JUMPDEST DUP2 ADD SUB SLT PUSH2 0x678 JUMPI MLOAD SWAP1 JUMP JUMPDEST RETURNDATASIZE SWAP2 POP PUSH2 0x33DB JUMP JUMPDEST SWAP2 SWAP4 SWAP6 POP SWAP2 SWAP4 PUSH1 0x20 DUP1 PUSH2 0x345E DUP4 PUSH32 0xFFFFFFFFFFFFFFFFFFFFFFFFFFFFFFFFFFFFFFFFFFFFFFFFFFFFFFFFFFFFFFE0 DUP7 PUSH1 0x1 SWAP7 SUB ADD DUP8 MSTORE PUSH1 0x80 PUSH1 0x60 DUP12 MLOAD DUP1 MLOAD DUP5 MSTORE DUP6 DUP2 ADD MLOAD DUP7 DUP6 ADD MSTORE PUSH1 0x40 DUP2 ADD MLOAD PUSH1 0x40 DUP6 ADD MSTORE ADD MLOAD SWAP2 DUP2 PUSH1 0x60 DUP3 ADD MSTORE ADD SWAP1 PUSH2 0x270C JUMP JUMPDEST SWAP8 ADD SWAP4 ADD SWAP4 ADD SWAP1 SWAP3 DUP7 SWAP6 SWAP5 SWAP3 SWAP4 PUSH2 0x338F JUMP JUMPDEST DUP3 PUSH1 0x80 DUP8 ADD MSTORE PUSH2 0x327A JUMP JUMPDEST DUP3 MLOAD SWAP1 PUSH8 0xFFFFFFFFFFFFFFFF DUP3 GT PUSH2 0x678 JUMPI PUSH1 0x80 PUSH32 0xFFFFFFFFFFFFFFFFFFFFFFFFFFFFFFFFFFFFFFFFFFFFFFFFFFFFFFFFFFFFFFE0 DUP4 DUP8 DUP7 ADD ADD DUP10 SUB ADD SLT PUSH2 0x678 JUMPI PUSH1 0x40 MLOAD SWAP2 PUSH2 0x34CC PUSH1 0x80 DUP5 PUSH2 0x263F JUMP JUMPDEST DUP4 DUP7 ADD DUP2 ADD PUSH1 0x40 DUP2 DUP2 ADD MLOAD DUP6 MSTORE PUSH1 0x60 DUP3 ADD MLOAD PUSH1 0x20 DUP7 ADD MSTORE PUSH1 0x80 DUP3 ADD MLOAD SWAP1 DUP6 ADD MSTORE PUSH1 0xA0 ADD MLOAD SWAP2 PUSH8 0xFFFFFFFFFFFFFFFF DUP4 GT PUSH2 0x678 JUMPI PUSH1 0x40 SWAP4 PUSH2 0x351C PUSH1 0x20 SWAP5 SWAP4 DUP7 DUP7 SWAP6 DUP7 DUP15 ADD SWAP3 DUP13 DUP12 ADD ADD ADD ADD PUSH2 0x3BA5 JUMP JUMPDEST PUSH1 0x60 DUP3 ADD MSTORE DUP2 MSTORE ADD SWAP4 ADD SWAP3 SWAP1 POP PUSH2 0x3235 JUMP JUMPDEST SWAP2 SWAP4 SWAP2 PUSH1 0x5 DUP2 SUB PUSH2 0x3560 JUMPI POP POP SWAP1 PUSH1 0x0 SWAP3 PUSH2 0x305E DUP5 SWAP4 PUSH20 0x6352A56CAADC4F1E25CD6C75970FA768A3304E64 DUP1 SWAP4 PUSH2 0x3A9A JUMP JUMPDEST SWAP2 SWAP3 SWAP2 PUSH1 0x6 DUP2 SUB PUSH2 0x3672 JUMPI POP POP PUSH1 0x40 MLOAD SWAP3 PUSH32 0xF3DCED3C00000000000000000000000000000000000000000000000000000000 DUP5 MSTORE PUSH1 0x20 SWAP4 PUSH20 0xA748D6573ACA135AF68F2635BE60CB80278BD855 SWAP2 DUP6 DUP3 PUSH1 0x4 DUP2 DUP7 GAS STATICCALL DUP1 ISZERO PUSH2 0x2DCB JUMPI DUP7 SWAP1 PUSH1 0x0 SWAP1 PUSH2 0x362A JUMPI JUMPDEST PUSH20 0xFFFFFFFFFFFFFFFFFFFFFFFFFFFFFFFFFFFFFFFF SWAP4 POP PUSH1 0x4 PUSH1 0x40 MLOAD DUP1 SWAP6 DUP2 SWAP4 PUSH32 0x1C6ECED500000000000000000000000000000000000000000000000000000000 DUP4 MSTORE AND GAS STATICCALL SWAP2 DUP3 ISZERO PUSH2 0x2DCB JUMPI PUSH1 0x0 SWAP3 PUSH2 0x2D85 JUMPI POP PUSH1 0x0 SWAP5 DUP6 SWAP5 SWAP4 SWAP3 PUSH2 0x2D61 SWAP3 PUSH2 0x3A9A JUMP JUMPDEST POP DUP3 DUP2 RETURNDATASIZE DUP4 GT PUSH2 0x366B JUMPI JUMPDEST PUSH2 0x363F DUP2 DUP4 PUSH2 0x263F JUMP JUMPDEST DUP2 ADD SUB SLT PUSH2 0x678 JUMPI DUP6 PUSH2 0x3666 PUSH20 0xFFFFFFFFFFFFFFFFFFFFFFFFFFFFFFFFFFFFFFFF SWAP4 PUSH2 0x2871 JUMP JUMPDEST PUSH2 0x35C5 JUMP JUMPDEST POP RETURNDATASIZE PUSH2 0x3635 JUMP JUMPDEST SWAP1 SWAP2 POP PUSH1 0x7 SUB PUSH2 0x3A11 JUMPI PUSH2 0x369B DUP3 PUSH20 0xE592427A0AECE92DE3EDEE1F18E0157C05861564 DUP6 PUSH2 0x3A9A JUMP JUMPDEST PUSH1 0x0 DUP1 PUSH1 0x40 MLOAD SWAP1 PUSH2 0x36AD PUSH1 0x80 DUP4 PUSH2 0x263F JUMP JUMPDEST PUSH1 0x64 DUP3 MSTORE PUSH2 0x1F4 PUSH1 0x20 DUP4 ADD MSTORE PUSH2 0xBB8 PUSH1 0x40 DUP4 ADD MSTORE PUSH2 0x2710 PUSH1 0x60 DUP4 ADD MSTORE PUSH1 0x0 JUMPDEST PUSH1 0x4 DUP2 LT PUSH2 0x382B JUMPI POP POP POP PUSH3 0xFFFFFF AND SWAP1 DUP2 ISZERO PUSH2 0x3801 JUMPI PUSH20 0xFFFFFFFFFFFFFFFFFFFFFFFFFFFFFFFFFFFFFFFF SWAP1 DUP2 PUSH1 0x40 MLOAD SWAP6 PUSH2 0x370A PUSH2 0x100 DUP9 PUSH2 0x263F JUMP JUMPDEST AND DUP6 MSTORE AND PUSH1 0x20 DUP5 ADD MSTORE PUSH1 0x40 DUP4 ADD MSTORE ADDRESS PUSH1 0x60 DUP4 ADD MSTORE PUSH4 0xFFFFFFFF PUSH1 0x80 DUP4 ADD MSTORE PUSH1 0xA0 DUP3 ADD MSTORE PUSH1 0x0 PUSH1 0xC0 DUP3 ADD MSTORE PUSH1 0x0 PUSH1 0xE0 DUP3 ADD MSTORE PUSH20 0xFFFFFFFFFFFFFFFFFFFFFFFFFFFFFFFFFFFFFFFF PUSH1 0xE0 PUSH1 0x40 MLOAD SWAP3 PUSH32 0x414BF38900000000000000000000000000000000000000000000000000000000 DUP5 MSTORE DUP3 DUP2 MLOAD AND PUSH1 0x4 DUP6 ADD MSTORE DUP3 PUSH1 0x20 DUP3 ADD MLOAD AND PUSH1 0x24 DUP6 ADD MSTORE PUSH3 0xFFFFFF PUSH1 0x40 DUP3 ADD MLOAD AND PUSH1 0x44 DUP6 ADD MSTORE DUP3 PUSH1 0x60 DUP3 ADD MLOAD AND PUSH1 0x64 DUP6 ADD MSTORE PUSH1 0x80 DUP2 ADD MLOAD PUSH1 0x84 DUP6 ADD MSTORE PUSH1 0xA0 DUP2 ADD MLOAD PUSH1 0xA4 DUP6 ADD MSTORE PUSH1 0xC0 DUP2 ADD MLOAD PUSH1 0xC4 DUP6 ADD MSTORE ADD MLOAD AND PUSH1 0xE4 DUP3 ADD MSTORE PUSH1 0x20 DUP2 PUSH2 0x104 DUP2 PUSH1 0x0 PUSH20 0xE592427A0AECE92DE3EDEE1F18E0157C05861564 GAS CALL SWAP1 DUP2 ISZERO PUSH2 0x2DCB JUMPI PUSH1 0x0 SWAP2 PUSH2 0x33CD JUMPI POP SWAP1 JUMP JUMPDEST PUSH1 0x4 PUSH1 0x40 MLOAD PUSH32 0xE2DB3AAD00000000000000000000000000000000000000000000000000000000 DUP2 MSTORE REVERT JUMPDEST PUSH3 0xFFFFFF PUSH2 0x3839 DUP3 DUP6 PUSH2 0x3BFD JUMP JUMPDEST MLOAD AND PUSH1 0x40 MLOAD SWAP1 PUSH32 0x1698EE8200000000000000000000000000000000000000000000000000000000 DUP3 MSTORE PUSH20 0xFFFFFFFFFFFFFFFFFFFFFFFFFFFFFFFFFFFFFFFF DUP10 AND PUSH1 0x4 DUP4 ADD MSTORE PUSH20 0xFFFFFFFFFFFFFFFFFFFFFFFFFFFFFFFFFFFFFFFF DUP8 AND PUSH1 0x24 DUP4 ADD MSTORE PUSH1 0x44 DUP3 ADD MSTORE PUSH1 0x20 DUP2 PUSH1 0x64 DUP2 PUSH20 0x1F98431C8AD98523631AE4A59F267346EA31F984 GAS STATICCALL DUP1 ISZERO PUSH2 0x2DCB JUMPI PUSH1 0x0 SWAP1 PUSH2 0x39C4 JUMPI JUMPDEST PUSH20 0xFFFFFFFFFFFFFFFFFFFFFFFFFFFFFFFFFFFFFFFF SWAP2 POP AND DUP1 PUSH2 0x38F1 JUMPI JUMPDEST POP PUSH1 0x1 ADD PUSH2 0x36CC JUMP JUMPDEST PUSH1 0x20 PUSH1 0x4 SWAP2 PUSH1 0x40 MLOAD SWAP3 DUP4 DUP1 SWAP3 PUSH32 0x1A68650200000000000000000000000000000000000000000000000000000000 DUP3 MSTORE GAS STATICCALL DUP1 ISZERO PUSH2 0x2DCB JUMPI PUSH1 0x0 SWAP1 PUSH2 0x3969 JUMPI JUMPDEST PUSH16 0xFFFFFFFFFFFFFFFFFFFFFFFFFFFFFFFF SWAP2 POP AND DUP3 DUP2 GT ISZERO PUSH2 0x38E8 JUMPI SWAP2 POP SWAP3 POP PUSH1 0x1 PUSH3 0xFFFFFF PUSH2 0x3960 DUP6 DUP6 PUSH2 0x3BFD JUMP JUMPDEST MLOAD AND SWAP4 SWAP1 PUSH2 0x38E8 JUMP JUMPDEST POP PUSH1 0x20 DUP2 RETURNDATASIZE PUSH1 0x20 GT PUSH2 0x39BC JUMPI JUMPDEST DUP2 PUSH2 0x3983 PUSH1 0x20 SWAP4 DUP4 PUSH2 0x263F JUMP JUMPDEST DUP2 ADD SUB SLT PUSH2 0x678 JUMPI MLOAD PUSH16 0xFFFFFFFFFFFFFFFFFFFFFFFFFFFFFFFF DUP2 AND DUP2 SUB PUSH2 0x678 JUMPI PUSH16 0xFFFFFFFFFFFFFFFFFFFFFFFFFFFFFFFF SWAP1 PUSH2 0x3930 JUMP JUMPDEST RETURNDATASIZE SWAP2 POP PUSH2 0x3976 JUMP JUMPDEST POP PUSH1 0x20 DUP2 RETURNDATASIZE PUSH1 0x20 GT PUSH2 0x3A09 JUMPI JUMPDEST DUP2 PUSH2 0x39DE PUSH1 0x20 SWAP4 DUP4 PUSH2 0x263F JUMP JUMPDEST DUP2 ADD SUB SLT PUSH2 0x678 JUMPI PUSH2 0x3A04 PUSH20 0xFFFFFFFFFFFFFFFFFFFFFFFFFFFFFFFFFFFFFFFF SWAP2 PUSH2 0x2871 JUMP JUMPDEST PUSH2 0x38CA JUMP JUMPDEST RETURNDATASIZE SWAP2 POP PUSH2 0x39D1 JUMP JUMPDEST PUSH1 0x4 PUSH1 0x40 MLOAD PUSH32 0xEFF442C100000000000000000000000000000000000000000000000000000000 DUP2 MSTORE REVERT JUMPDEST PUSH32 0x4E487B7100000000000000000000000000000000000000000000000000000000 PUSH1 0x0 MSTORE PUSH1 0x21 PUSH1 0x4 MSTORE PUSH1 0x24 PUSH1 0x0 REVERT JUMPDEST RETURNDATASIZE ISZERO PUSH2 0x3A95 JUMPI RETURNDATASIZE SWAP1 PUSH2 0x3A7B DUP3 PUSH2 0x26AF JUMP JUMPDEST SWAP2 PUSH2 0x3A89 PUSH1 0x40 MLOAD SWAP4 DUP5 PUSH2 0x263F JUMP JUMPDEST DUP3 MSTORE RETURNDATASIZE PUSH1 0x0 PUSH1 0x20 DUP5 ADD RETURNDATACOPY JUMP JUMPDEST PUSH1 0x60 SWAP1 JUMP JUMPDEST SWAP1 SWAP2 PUSH1 0x40 MLOAD PUSH32 0xDD62ED3E00000000000000000000000000000000000000000000000000000000 DUP2 MSTORE ADDRESS PUSH1 0x4 DUP3 ADD MSTORE PUSH1 0x20 DUP2 PUSH1 0x44 DUP2 PUSH20 0xFFFFFFFFFFFFFFFFFFFFFFFFFFFFFFFFFFFFFFFF DUP1 DUP10 AND PUSH1 0x24 DUP4 ADD MSTORE DUP8 AND GAS STATICCALL SWAP1 DUP2 ISZERO PUSH2 0x2DCB JUMPI PUSH1 0x0 SWAP2 PUSH2 0x3B74 JUMPI JUMPDEST POP LT ISZERO PUSH2 0x3B70 JUMPI PUSH1 0x44 PUSH1 0x10 PUSH1 0x0 DUP1 SWAP4 PUSH1 0x20 SWAP6 PUSH1 0x14 MSTORE PUSH32 0xFFFFFFFFFFFFFFFFFFFFFFFFFFFFFFFFFFFFFFFFFFFFFFFFFFFFFFFFFFFFFFFF PUSH1 0x34 MSTORE PUSH16 0x95EA7B3000000000000000000000000 DUP3 MSTORE GAS CALL RETURNDATASIZE ISZERO PUSH1 0x1 PUSH1 0x0 MLOAD EQ OR AND ISZERO PUSH2 0x3B62 JUMPI PUSH1 0x0 PUSH1 0x34 MSTORE JUMP JUMPDEST PUSH4 0x3E3F8F73 PUSH1 0x0 MSTORE PUSH1 0x4 PUSH1 0x1C REVERT JUMPDEST POP POP JUMP JUMPDEST SWAP1 PUSH1 0x20 DUP3 RETURNDATASIZE DUP3 GT PUSH2 0x3B9D JUMPI JUMPDEST DUP2 PUSH2 0x3B8D PUSH1 0x20 SWAP4 DUP4 PUSH2 0x263F JUMP JUMPDEST DUP2 ADD SUB SLT PUSH2 0x80C JUMPI POP MLOAD CODESIZE PUSH2 0x3AFE JUMP JUMPDEST RETURNDATASIZE SWAP2 POP PUSH2 0x3B80 JUMP JUMPDEST DUP2 PUSH1 0x1F DUP3 ADD SLT ISZERO PUSH2 0x678 JUMPI DUP1 MLOAD PUSH2 0x3BBB DUP2 PUSH2 0x26AF JUMP JUMPDEST SWAP3 PUSH2 0x3BC9 PUSH1 0x40 MLOAD SWAP5 DUP6 PUSH2 0x263F JUMP JUMPDEST DUP2 DUP5 MSTORE PUSH1 0x20 DUP3 DUP5 ADD ADD GT PUSH2 0x678 JUMPI PUSH2 0x2C30 SWAP2 PUSH1 0x20 DUP1 DUP6 ADD SWAP2 ADD PUSH2 0x26E9 JUMP JUMPDEST SWAP2 SWAP1 DUP3 PUSH1 0x40 SWAP2 SUB SLT PUSH2 0x678 JUMPI PUSH1 0x20 DUP3 MLOAD SWAP3 ADD MLOAD SWAP1 JUMP JUMPDEST SWAP1 PUSH1 0x4 DUP2 LT ISZERO PUSH2 0x2902 JUMPI PUSH1 0x5 SHL ADD SWAP1 JUMP JUMPDEST MLOAD SWAP1 PUSH6 0xFFFFFFFFFFFF DUP3 AND DUP3 SUB PUSH2 0x678 JUMPI JUMP JUMPDEST SWAP2 PUSH1 0x40 MLOAD PUSH32 0x927DA10500000000000000000000000000000000000000000000000000000000 DUP2 MSTORE ADDRESS PUSH1 0x4 DUP3 ADD MSTORE PUSH20 0xFFFFFFFFFFFFFFFFFFFFFFFFFFFFFFFFFFFFFFFF DUP1 DUP1 SWAP6 AND SWAP4 DUP5 PUSH1 0x24 DUP5 ADD MSTORE AND SWAP2 DUP3 PUSH1 0x44 DUP4 ADD MSTORE PUSH15 0x22D473030F116DDEE9F6B43AC78BA3 SWAP2 PUSH1 0x60 DUP2 PUSH1 0x64 DUP2 DUP7 GAS STATICCALL DUP1 ISZERO PUSH2 0x2DCB JUMPI DUP7 SWAP2 PUSH1 0x0 SWAP2 PUSH2 0x3D1C JUMPI JUMPDEST POP AND LT ISZERO PUSH2 0x3D16 JUMPI DUP1 EXTCODESIZE ISZERO PUSH2 0x678 JUMPI PUSH1 0x0 SWAP3 DUP4 PUSH1 0x84 SWAP3 PUSH1 0x40 MLOAD SWAP7 DUP8 SWAP6 DUP7 SWAP5 PUSH32 0x87517C4500000000000000000000000000000000000000000000000000000000 DUP7 MSTORE PUSH1 0x4 DUP7 ADD MSTORE PUSH1 0x24 DUP6 ADD MSTORE PUSH1 0x44 DUP5 ADD MSTORE PUSH6 0xFFFFFFFFFFFF PUSH1 0x64 DUP5 ADD MSTORE GAS CALL DUP1 ISZERO PUSH2 0x2DCB JUMPI PUSH2 0x3D0B JUMPI POP JUMP JUMPDEST PUSH1 0x0 PUSH2 0x2D7D SWAP2 PUSH2 0x263F JUMP JUMPDEST POP POP POP POP JUMP JUMPDEST SWAP1 SWAP2 POP PUSH1 0x60 DUP2 RETURNDATASIZE DUP3 GT PUSH2 0x3D6E JUMPI JUMPDEST DUP2 PUSH2 0x3D37 PUSH1 0x60 SWAP4 DUP4 PUSH2 0x263F JUMP JUMPDEST DUP2 ADD SUB SLT PUSH2 0x799 JUMPI DUP1 MLOAD SWAP2 DUP8 DUP4 AND DUP4 SUB PUSH2 0x80C JUMPI POP SWAP1 PUSH2 0x3D67 PUSH1 0x40 DUP4 PUSH2 0x3D60 PUSH1 0x20 DUP12 SWAP7 ADD PUSH2 0x3C0E JUMP JUMPDEST POP ADD PUSH2 0x3C0E JUMP JUMPDEST POP CODESIZE PUSH2 0x3CA0 JUMP JUMPDEST RETURNDATASIZE SWAP2 POP PUSH2 0x3D2A JUMP JUMPDEST SWAP2 SWAP1 PUSH2 0x3D82 ADDRESS DUP5 PUSH2 0x3FA8 JUMP JUMPDEST PUSH2 0x3D8C ADDRESS DUP4 PUSH2 0x3FA8 JUMP JUMPDEST SWAP1 DUP1 PUSH2 0x3E2B JUMPI JUMPDEST POP DUP1 PUSH2 0x3E1A JUMPI JUMPDEST POP PUSH32 0x0 SWAP3 PUSH20 0xFFFFFFFFFFFFFFFFFFFFFFFFFFFFFFFFFFFFFFFF DUP1 SWAP2 DUP2 DUP7 AND SWAP3 DUP4 SWAP2 AND EQ ISZERO SWAP3 DUP4 PUSH2 0x3E0D JUMPI JUMPDEST POP POP POP PUSH2 0x3DEF JUMPI POP POP JUMP JUMPDEST PUSH2 0x3DF9 ADDRESS DUP4 PUSH2 0x3FA8 JUMP JUMPDEST SWAP1 DUP2 PUSH2 0x3E04 JUMPI POP POP POP JUMP JUMPDEST PUSH2 0x2D7D SWAP3 PUSH2 0x3F5F JUMP JUMPDEST AND EQ ISZERO SWAP1 POP CODESIZE DUP1 DUP1 PUSH2 0x3DE4 JUMP JUMPDEST PUSH2 0x3E25 SWAP1 DUP4 DUP4 PUSH2 0x3F5F JUMP JUMPDEST CODESIZE PUSH2 0x3D9A JUMP JUMPDEST PUSH2 0x3E36 SWAP1 DUP5 DUP7 PUSH2 0x3F5F JUMP JUMPDEST CODESIZE PUSH2 0x3D93 JUMP JUMPDEST SWAP1 DUP1 PUSH32 0xFFFFFFFFFFFFFFFFFFFFFFFFFFFFFFFFFFFFFFFFFFFFFFFFFFFFFFFFFFFFFFFF DIV DUP3 GT DUP2 MUL PUSH2 0x3E77 JUMPI PUSH8 0xDE0B6B3A7640000 SWAP2 MUL DIV SWAP1 JUMP JUMPDEST PUSH4 0xBAC65E5B PUSH1 0x0 MSTORE PUSH1 0x4 PUSH1 0x1C REVERT JUMPDEST SWAP2 PUSH1 0x0 SWAP3 DUP3 DUP2 MUL SWAP3 PUSH32 0xFFFFFFFFFFFFFFFFFFFFFFFFFFFFFFFFFFFFFFFFFFFFFFFFFFFFFFFFFFFFFFFF DUP2 DUP4 MULMOD SWAP2 DUP5 DUP4 LT DUP6 ADD DUP1 DUP5 SUB SWAP4 EQ PUSH2 0x3F25 JUMPI DUP3 DUP5 GT ISZERO PUSH2 0x3F18 JUMPI SWAP1 DUP4 SWAP2 MULMOD SWAP1 PUSH1 0x1 DUP4 DUP7 SUB DUP5 AND DUP1 DUP1 DUP1 SWAP7 DIV PUSH1 0x2 DUP1 DUP3 PUSH1 0x3 MUL XOR DUP1 DUP4 MUL DUP3 SUB MUL DUP1 DUP4 MUL DUP3 SUB MUL DUP1 DUP4 MUL DUP3 SUB MUL DUP1 DUP4 MUL DUP3 SUB MUL DUP1 DUP4 MUL DUP3 SUB MUL DUP1 SWAP3 MUL SWAP1 SUB MUL SWAP8 SUB DIV ADD SWAP1 DUP5 DUP4 GT SWAP1 SUB MUL SWAP3 SUB DIV OR MUL SWAP1 JUMP JUMPDEST PUSH4 0xAE47F702 DUP7 MSTORE PUSH1 0x4 PUSH1 0x1C REVERT JUMPDEST POP POP POP SWAP2 DUP3 ISZERO PUSH2 0x3F34 JUMPI POP DIV SWAP1 JUMP JUMPDEST PUSH4 0xAE47F702 SWAP1 MSTORE PUSH1 0x4 PUSH1 0x1C REVERT JUMPDEST PUSH1 0x0 DUP1 DUP1 SWAP4 DUP2 SWAP4 GAS CALL ISZERO PUSH2 0x3F51 JUMPI JUMP JUMPDEST PUSH4 0xB12D13EB PUSH1 0x0 MSTORE PUSH1 0x4 PUSH1 0x1C REVERT JUMPDEST PUSH1 0x10 SWAP3 PUSH1 0x20 SWAP3 PUSH1 0x14 MSTORE PUSH1 0x34 MSTORE PUSH1 0x44 PUSH1 0x0 SWAP4 DUP5 DUP1 SWAP4 PUSH16 0xA9059CBB000000000000000000000000 DUP3 MSTORE GAS CALL RETURNDATASIZE ISZERO PUSH1 0x1 DUP4 MLOAD EQ OR AND ISZERO PUSH2 0x3F9B JUMPI PUSH1 0x34 MSTORE JUMP JUMPDEST PUSH4 0x90B8EC18 SWAP1 MSTORE PUSH1 0x4 PUSH1 0x1C REVERT JUMPDEST PUSH1 0x24 PUSH1 0x10 PUSH1 0x20 SWAP4 SWAP3 DUP5 SWAP4 PUSH1 0x14 MSTORE PUSH16 0x70A08231000000000000000000000000 PUSH1 0x0 MSTORE GAS STATICCALL PUSH1 0x1F RETURNDATASIZE GT AND PUSH1 0x20 MLOAD MUL SWAP1 JUMP INVALID LOG1 PUSH5 0x736F6C6343 STOP ADDMOD GT STOP EXP "},"methodIdentifiers":{"OKX_AGGREGATION_ROUTER()":"d0736749","ONE_INCH_ROUTER_V5()":"bdcb9932","OPEN_OCEAN_EXCHANGE_PROXY()":"72e05064","OxPROJECT_EXCHANGE_PROXY()":"2f764135","PARASWAP_AUGUSTUS_SWAPPER_V5()":"88a799f6","PERMIT2()":"6afdd850","UNISWAP_V3_ROUTER()":"41c64a2f","VAULT()":"411557d1","altairBorrow_O9E(address,uint256,bytes)":"8f53d74f","altairLiquidate_f2x(address,uint256,uint256,bytes)":"e95471c7","altairRedeem_u91A(address,uint256,bytes)":"989bebcf","getAssetsForShares(address,uint256,uint256)":"d0189a91","hangar18()":"e8a24e1d","name()":"06fdde03","nativeToken()":"e1758bd8","sweepNative()":"ab803a76","sweepTokens(address[],address)":"7071f0c4","usd()":"d63a6ccd","version()":"54fd4d50"}}}}}