{"contracts/cygnus-periphery/CygnusAltair.sol":{"CygnusAltair":{"abi":[{"inputs":[{"internalType":"contract IHangar18","name":"_hangar18","type":"address"}],"stateMutability":"nonpayable","type":"constructor"},{"inputs":[],"name":"CygnusAltair__0xProjectTransactionFailed","type":"error"},{"inputs":[],"name":"CygnusAltair__AltairXDoesNotExist","type":"error"},{"inputs":[],"name":"CygnusAltair__MsgSenderNotAdmin","type":"error"},{"inputs":[],"name":"CygnusAltair__OneInchTransactionFailed","type":"error"},{"inputs":[],"name":"CygnusAltair__OpenOceanTransactionFailed","type":"error"},{"inputs":[],"name":"CygnusAltair__ParaswapTransactionFailed","type":"error"},{"inputs":[],"name":"CygnusAltair__ShuttleDoesNotExist","type":"error"},{"inputs":[],"name":"CygnusAltair__TransactionExpired","type":"error"},{"anonymous":false,"inputs":[{"indexed":true,"internalType":"uint256","name":"shuttleId","type":"uint256"},{"indexed":false,"internalType":"address","name":"borrowable","type":"address"},{"indexed":false,"internalType":"address","name":"collateral","type":"address"},{"indexed":false,"internalType":"address","name":"lpTokenAddres","type":"address"},{"indexed":false,"internalType":"address","name":"extension","type":"address"}],"name":"NewExtension","type":"event"},{"stateMutability":"payable","type":"fallback"},{"inputs":[],"name":"OKX_AGGREGATION_ROUTER","outputs":[{"internalType":"address","name":"","type":"address"}],"stateMutability":"view","type":"function"},{"inputs":[],"name":"ONE_INCH_ROUTER_V5","outputs":[{"internalType":"address","name":"","type":"address"}],"stateMutability":"view","type":"function"},{"inputs":[],"name":"OPEN_OCEAN_EXCHANGE_PROXY","outputs":[{"internalType":"address","name":"","type":"address"}],"stateMutability":"view","type":"function"},{"inputs":[],"name":"OxPROJECT_EXCHANGE_PROXY","outputs":[{"internalType":"address","name":"","type":"address"}],"stateMutability":"view","type":"function"},{"inputs":[],"name":"PARASWAP_AUGUSTUS_SWAPPER_V5","outputs":[{"internalType":"address","name":"","type":"address"}],"stateMutability":"view","type":"function"},{"inputs":[],"name":"PERMIT2","outputs":[{"internalType":"address","name":"","type":"address"}],"stateMutability":"view","type":"function"},{"inputs":[],"name":"UNISWAP_V3_ROUTER","outputs":[{"internalType":"address","name":"","type":"address"}],"stateMutability":"view","type":"function"},{"inputs":[{"internalType":"uint256","name":"","type":"uint256"}],"name":"allExtensions","outputs":[{"internalType":"address","name":"","type":"address"}],"stateMutability":"view","type":"function"},{"inputs":[],"name":"altairExtensionsLength","outputs":[{"internalType":"uint256","name":"","type":"uint256"}],"stateMutability":"view","type":"function"},{"inputs":[{"internalType":"address","name":"borrowable","type":"address"},{"internalType":"uint256","name":"amount","type":"uint256"},{"internalType":"address","name":"recipient","type":"address"},{"internalType":"uint256","name":"deadline","type":"uint256"},{"internalType":"bytes","name":"permitData","type":"bytes"}],"name":"borrow","outputs":[],"stateMutability":"nonpayable","type":"function"},{"inputs":[{"internalType":"address","name":"lpTokenPair","type":"address"},{"internalType":"address","name":"collateral","type":"address"},{"internalType":"address","name":"borrowable","type":"address"},{"internalType":"uint256","name":"cygLPAmount","type":"uint256"},{"internalType":"uint256","name":"usdAmountMin","type":"uint256"},{"internalType":"uint256","name":"deadline","type":"uint256"},{"internalType":"bytes","name":"permitData","type":"bytes"},{"internalType":"enum ICygnusAltair.DexAggregator","name":"dexAggregator","type":"uint8"},{"internalType":"bytes[]","name":"swapdata","type":"bytes[]"}],"name":"deleverage","outputs":[{"internalType":"uint256","name":"usdAmount","type":"uint256"}],"stateMutability":"nonpayable","type":"function"},{"inputs":[{"internalType":"address","name":"borrowable","type":"address"},{"internalType":"address","name":"collateral","type":"address"},{"internalType":"uint256","name":"amountMax","type":"uint256"},{"internalType":"address","name":"borrower","type":"address"},{"internalType":"uint256","name":"deadline","type":"uint256"},{"internalType":"enum ICygnusAltair.DexAggregator","name":"dexAggregator","type":"uint8"},{"internalType":"bytes[]","name":"swapdata","type":"bytes[]"}],"name":"flashLiquidate","outputs":[{"internalType":"uint256","name":"amount","type":"uint256"}],"stateMutability":"nonpayable","type":"function"},{"inputs":[{"internalType":"address","name":"poolToken","type":"address"}],"name":"getAltairExtension","outputs":[{"internalType":"address","name":"","type":"address"}],"stateMutability":"view","type":"function"},{"inputs":[{"internalType":"address","name":"lpTokenPair","type":"address"},{"internalType":"uint256","name":"shares","type":"uint256"},{"internalType":"uint256","name":"difference","type":"uint256"}],"name":"getAssetsForShares","outputs":[{"internalType":"address[]","name":"tokens","type":"address[]"},{"internalType":"uint256[]","name":"amounts","type":"uint256[]"}],"stateMutability":"view","type":"function"},{"inputs":[{"internalType":"uint256","name":"shuttleId","type":"uint256"}],"name":"getShuttleExtension","outputs":[{"internalType":"address","name":"","type":"address"}],"stateMutability":"view","type":"function"},{"inputs":[],"name":"hangar18","outputs":[{"internalType":"contract IHangar18","name":"","type":"address"}],"stateMutability":"view","type":"function"},{"inputs":[{"internalType":"address","name":"","type":"address"}],"name":"isExtension","outputs":[{"internalType":"bool","name":"","type":"bool"}],"stateMutability":"view","type":"function"},{"inputs":[{"internalType":"address","name":"lpTokenPair","type":"address"},{"internalType":"address","name":"collateral","type":"address"},{"internalType":"address","name":"borrowable","type":"address"},{"internalType":"uint256","name":"usdAmount","type":"uint256"},{"internalType":"uint256","name":"lpAmountMin","type":"uint256"},{"internalType":"uint256","name":"deadline","type":"uint256"},{"internalType":"bytes","name":"permitData","type":"bytes"},{"internalType":"enum ICygnusAltair.DexAggregator","name":"dexAggregator","type":"uint8"},{"internalType":"bytes[]","name":"swapdata","type":"bytes[]"}],"name":"leverage","outputs":[{"internalType":"uint256","name":"liquidity","type":"uint256"}],"stateMutability":"nonpayable","type":"function"},{"inputs":[{"internalType":"address","name":"borrowable","type":"address"},{"internalType":"uint256","name":"amountMax","type":"uint256"},{"internalType":"address","name":"borrower","type":"address"},{"internalType":"address","name":"recipient","type":"address"},{"internalType":"uint256","name":"deadline","type":"uint256"},{"internalType":"bytes","name":"permitData","type":"bytes"}],"name":"liquidate","outputs":[{"internalType":"uint256","name":"amount","type":"uint256"},{"internalType":"uint256","name":"seizeTokens","type":"uint256"}],"stateMutability":"nonpayable","type":"function"},{"inputs":[{"internalType":"address","name":"borrowable","type":"address"},{"internalType":"uint256","name":"amountMax","type":"uint256"},{"internalType":"address","name":"borrower","type":"address"},{"internalType":"address","name":"recipient","type":"address"},{"internalType":"uint256","name":"deadline","type":"uint256"},{"components":[{"components":[{"internalType":"address","name":"token","type":"address"},{"internalType":"uint160","name":"amount","type":"uint160"},{"internalType":"uint48","name":"expiration","type":"uint48"},{"internalType":"uint48","name":"nonce","type":"uint48"}],"internalType":"struct IAllowanceTransfer.PermitDetails","name":"details","type":"tuple"},{"internalType":"address","name":"spender","type":"address"},{"internalType":"uint256","name":"sigDeadline","type":"uint256"}],"internalType":"struct IAllowanceTransfer.PermitSingle","name":"_permit","type":"tuple"},{"internalType":"bytes","name":"signature","type":"bytes"}],"name":"liquidatePermit2Allowance","outputs":[{"internalType":"uint256","name":"amount","type":"uint256"},{"internalType":"uint256","name":"seizeTokens","type":"uint256"}],"stateMutability":"nonpayable","type":"function"},{"inputs":[{"internalType":"address","name":"borrowable","type":"address"},{"internalType":"uint256","name":"amountMax","type":"uint256"},{"internalType":"address","name":"borrower","type":"address"},{"internalType":"address","name":"recipient","type":"address"},{"internalType":"uint256","name":"deadline","type":"uint256"},{"components":[{"components":[{"internalType":"address","name":"token","type":"address"},{"internalType":"uint256","name":"amount","type":"uint256"}],"internalType":"struct ISignatureTransfer.TokenPermissions","name":"permitted","type":"tuple"},{"internalType":"uint256","name":"nonce","type":"uint256"},{"internalType":"uint256","name":"deadline","type":"uint256"}],"internalType":"struct ISignatureTransfer.PermitTransferFrom","name":"_permit","type":"tuple"},{"internalType":"bytes","name":"signature","type":"bytes"}],"name":"liquidatePermit2Signature","outputs":[{"internalType":"uint256","name":"amount","type":"uint256"},{"internalType":"uint256","name":"seizeTokens","type":"uint256"}],"stateMutability":"nonpayable","type":"function"},{"inputs":[],"name":"name","outputs":[{"internalType":"string","name":"","type":"string"}],"stateMutability":"view","type":"function"},{"inputs":[],"name":"nativeToken","outputs":[{"internalType":"contract IWrappedNative","name":"","type":"address"}],"stateMutability":"view","type":"function"},{"inputs":[{"internalType":"address","name":"borrowable","type":"address"},{"internalType":"uint256","name":"amountMax","type":"uint256"},{"internalType":"address","name":"borrower","type":"address"},{"internalType":"uint256","name":"deadline","type":"uint256"},{"internalType":"bytes","name":"permitData","type":"bytes"}],"name":"repay","outputs":[{"internalType":"uint256","name":"amount","type":"uint256"}],"stateMutability":"nonpayable","type":"function"},{"inputs":[{"internalType":"address","name":"borrowable","type":"address"},{"internalType":"uint256","name":"amountMax","type":"uint256"},{"internalType":"address","name":"borrower","type":"address"},{"internalType":"uint256","name":"deadline","type":"uint256"},{"components":[{"components":[{"internalType":"address","name":"token","type":"address"},{"internalType":"uint160","name":"amount","type":"uint160"},{"internalType":"uint48","name":"expiration","type":"uint48"},{"internalType":"uint48","name":"nonce","type":"uint48"}],"internalType":"struct IAllowanceTransfer.PermitDetails","name":"details","type":"tuple"},{"internalType":"address","name":"spender","type":"address"},{"internalType":"uint256","name":"sigDeadline","type":"uint256"}],"internalType":"struct IAllowanceTransfer.PermitSingle","name":"_permit","type":"tuple"},{"internalType":"bytes","name":"signature","type":"bytes"}],"name":"repayPermit2Allowance","outputs":[{"internalType":"uint256","name":"amount","type":"uint256"}],"stateMutability":"nonpayable","type":"function"},{"inputs":[{"internalType":"address","name":"borrowable","type":"address"},{"internalType":"uint256","name":"amountMax","type":"uint256"},{"internalType":"address","name":"borrower","type":"address"},{"internalType":"uint256","name":"deadline","type":"uint256"},{"components":[{"components":[{"internalType":"address","name":"token","type":"address"},{"internalType":"uint256","name":"amount","type":"uint256"}],"internalType":"struct ISignatureTransfer.TokenPermissions","name":"permitted","type":"tuple"},{"internalType":"uint256","name":"nonce","type":"uint256"},{"internalType":"uint256","name":"deadline","type":"uint256"}],"internalType":"struct ISignatureTransfer.PermitTransferFrom","name":"_permit","type":"tuple"},{"internalType":"bytes","name":"signature","type":"bytes"}],"name":"repayPermit2Signature","outputs":[{"internalType":"uint256","name":"amount","type":"uint256"}],"stateMutability":"nonpayable","type":"function"},{"inputs":[{"internalType":"uint256[]","name":"shuttleIds","type":"uint256[]"},{"internalType":"address","name":"extension","type":"address"}],"name":"setAltairExtension","outputs":[],"stateMutability":"nonpayable","type":"function"},{"inputs":[],"name":"sweepNative","outputs":[],"stateMutability":"nonpayable","type":"function"},{"inputs":[{"internalType":"contract IERC20[]","name":"tokens","type":"address[]"},{"internalType":"address","name":"to","type":"address"}],"name":"sweepTokens","outputs":[],"stateMutability":"nonpayable","type":"function"},{"inputs":[],"name":"usd","outputs":[{"internalType":"address","name":"","type":"address"}],"stateMutability":"view","type":"function"},{"inputs":[],"name":"version","outputs":[{"internalType":"string","name":"","type":"string"}],"stateMutability":"view","type":"function"},{"stateMutability":"payable","type":"receive"}],"evm":{"bytecode":{"linkReferences":{},"object":"60e0604090808252346200017257806200355d803803809162000023828562000177565b83396020928391810103126200017257516001600160a01b03908181169081810362000172576080528351631c2eb17b60e31b8152908382600481845afa9283156200016757600493859360009162000145575b501660c052845163d63a6ccd60e01b815292839182905afa9182156200013a5760009262000106575b505060a0525161338a9081620001d382396080518181816102e50152818161126101528181611690015281816117ed0152611b3f015260a051818181610bb501528181610fd10152818161143c015281816114b6015261258c015260c051816108370152f35b6200012a9250803d1062000132575b62000121818362000177565b810190620001b1565b3880620000a0565b503d62000115565b83513d6000823e3d90fd5b620001609150843d8611620001325762000121818362000177565b3862000077565b85513d6000823e3d90fd5b600080fd5b601f909101601f19168101906001600160401b038211908210176200019b57604052565b634e487b7160e01b600052604160045260246000fd5b908160209103126200017257516001600160a01b038116810362000172579056fe60a08060405260043610156100c8575b5036156100c65760003381528060205273ffffffffffffffffffffffffffffffffffffffff604082205416801561009c57818091604051368382378036810184815203915af43d15610093573d61006581612aa7565b906100736040519283612a37565b8152809260203d92013e5b1561008b57602081519101f35b602081519101fd5b6060915061007e565b60046040517fd4de0f16000000000000000000000000000000000000000000000000000000008152fd5b005b600090813560e01c90816301ce1f6e146129b05750806306fdde03146129295780630c0cf11a146128ed5780630e12d0081461270a5780630f22d4351461244e57806321a5e9081461224c5780632a90e82f14611f1c5780632f76413514611ecf5780633b91809514611ac757806341c64a2f14611a7a57806354fd4d50146119ef5780636afdd850146119a75780637071f0c41461170d57806370bf79c61461161357806372e05064146115c657806376c05f651461147b5780637f32d8f41461138057806388a799f614611333578063ab803a76146111ee578063bdcb9932146111a1578063c2a95ddf14610e86578063d0189a9114610c26578063d073674914610bd9578063d63a6ccd14610b6a578063d6906d231461096a578063dbe5f2fb1461085b578063e1758bd8146107ec578063e731f6d11461077c578063e75ee2e314610309578063e8a24e1d1461029a5763f847ed480361000f57346102975760207ffffffffffffffffffffffffffffffffffffffffffffffffffffffffffffffffc360112610297576004359073ffffffffffffffffffffffffffffffffffffffff82168092036102925760408160209360ff9352600184522054166040519015158152f35b600080fd5b80fd5b503461029757807ffffffffffffffffffffffffffffffffffffffffffffffffffffffffffffffffc36011261029757602060405173ffffffffffffffffffffffffffffffffffffffff7f0000000000000000000000000000000000000000000000000000000000000000168152f35b5034610297576103439061033c610321366004612c08565b97999c9390989a9196949261033584612ddb565b3691612d65565b9089612e0d565b6040517f18160ddd00000000000000000000000000000000000000000000000000000000815260208160048173ffffffffffffffffffffffffffffffffffffffff8c165afa90811561077157899161073f575b50604051907f01e1d11400000000000000000000000000000000000000000000000000000000825260208260048173ffffffffffffffffffffffffffffffffffffffff8d165afa918215610734578a92610700575b507fffffffffffffffffffffffffffffffffffffffffffffffffffffffffffffffff828409838302808210018082146106ae578082038311156106a157956106459c958573ffffffffffffffffffffffffffffffffffffffff8e8760209f9d989760e09f9d98976105e79d826104ea9a6104f19e099160018487038516808080970460028082600302188083028203028083028203028083028203028083028203028083028203028092029003029803040191858902841191030302928602030417029a5b816040519a6104c16101008d612a37565b168a52818d168f8b0152166040890152336060890152608088015260a087015260c08601613162565b369161319d565b858201526105bb604051958692888085015273ffffffffffffffffffffffffffffffffffffffff815116604085015273ffffffffffffffffffffffffffffffffffffffff8982015116606085015273ffffffffffffffffffffffffffffffffffffffff604082015116608085015273ffffffffffffffffffffffffffffffffffffffff60608201511660a0850152608081015160c085015260a0810151828501526105a560c082015161010086019061321d565b015161010061012084015261014083019061322a565b037fffffffffffffffffffffffffffffffffffffffffffffffffffffffffffffffe08101855284612a37565b8473ffffffffffffffffffffffffffffffffffffffff6040518098819682957ffa14fdc20000000000000000000000000000000000000000000000000000000084523060048501526024840152606060448401526064830190612ae1565b0393165af19081156106955790610662575b602090604051908152f35b506020813d60201161068d575b8161067c60209383612a37565b810103126102925760209051610657565b3d915061066f565b604051903d90823e3d90fd5b63ae47f7028c526004601cfd5b505090819a97989a156106f357946104ea6105e79560e099958573ffffffffffffffffffffffffffffffffffffffff6106459f9b9660209e9b6104f19902049a6104b0565b63ae47f7028a526004601cfd5b9091506020813d60201161072c575b8161071c60209383612a37565b81010312610292575190386103eb565b3d915061070f565b6040513d8c823e3d90fd5b90506020813d602011610769575b8161075a60209383612a37565b81010312610292575138610396565b3d915061074d565b6040513d8b823e3d90fd5b50346102975760207ffffffffffffffffffffffffffffffffffffffffffffffffffffffffffffffffc360112610297576004359060025482101561029757602073ffffffffffffffffffffffffffffffffffffffff6107dc846002612c96565b9190546040519260031b1c168152f35b503461029757807ffffffffffffffffffffffffffffffffffffffffffffffffffffffffffffffffc36011261029757602060405173ffffffffffffffffffffffffffffffffffffffff7f0000000000000000000000000000000000000000000000000000000000000000168152f35b503461029757610924602061088d610886610877366004612bb6565b61033583949895969793612ddb565b9084612e0d565b8573ffffffffffffffffffffffffffffffffffffffff6108ac82612aa7565b946108ba6040519687612a37565b8286527fffffffffffffffffffffffffffffffffffffffffffffffffffffffffffffffe06108e784612aa7565b013688880137604051978896879586937f1e7dcc0d0000000000000000000000000000000000000000000000000000000085523360048601612d9c565b0393165af1801561095f57610937575080f35b602090813d8111610958575b61094d8183612a37565b810103126102925780f35b503d610943565b6040513d84823e3d90fd5b503461029757610b3590602060c06109cb610aff73ffffffffffffffffffffffffffffffffffffffff610a156109c26104ea6109a7366004612c08565b9a999d969f94939198959760809c93919c5261033584612ddb565b90608051612e0d565b81604051996109db60e08c612a37565b168952168b88015273ffffffffffffffffffffffffffffffffffffffff608051166040880152336060880152608087015260a08601613162565b84820152610ad3604051948592878085015273ffffffffffffffffffffffffffffffffffffffff815116604085015273ffffffffffffffffffffffffffffffffffffffff8882015116606085015273ffffffffffffffffffffffffffffffffffffffff604082015116608085015273ffffffffffffffffffffffffffffffffffffffff60608201511660a0850152608081015182850152610abe60a082015160e086019061321d565b015160e061010084015261012083019061322a565b037fffffffffffffffffffffffffffffffffffffffffffffffffffffffffffffffe08101845283612a37565b60405194859283927f1e7dcc0d000000000000000000000000000000000000000000000000000000008452303360048601612d9c565b03818473ffffffffffffffffffffffffffffffffffffffff608051165af1908115610695579061066257602090604051908152f35b503461029757807ffffffffffffffffffffffffffffffffffffffffffffffffffffffffffffffffc36011261029757602060405173ffffffffffffffffffffffffffffffffffffffff7f0000000000000000000000000000000000000000000000000000000000000000168152f35b503461029757807ffffffffffffffffffffffffffffffffffffffffffffffffffffffffffffffffc36011261029757602060405173a748d6573aca135af68f2635be60cb80278bd8558152f35b50346102975760607ffffffffffffffffffffffffffffffffffffffffffffffffffffffffffffffffc360112610297576004359073ffffffffffffffffffffffffffffffffffffffff918281168091036102925780825260208281528360408420541691821561009c5783906064604051809581937fd0189a910000000000000000000000000000000000000000000000000000000083526004830152602435602483015260443560448301525afa9283156106955780928194610d6a575b509093929160405194859460408601604087528351809152826060880194019185905b828210610d4d5750505050848203818601528080855193848152019401925b828110610d3657505050500390f35b835185528695509381019392810192600101610d27565b835181168652899850948401949284019260019190910190610d08565b925092503d8084843e610d7d8184612a37565b820191604081840312610e8257805167ffffffffffffffff90818111610e625782019184601f84011215610e6257825192610db784612b9e565b93610dc56040519586612a37565b808552858086019160051b83010191878311610e7e5786809101915b838310610e665750915050810151918211610e6257019280601f85011215610e5e578351610e0e81612b9e565b94610e1c6040519687612a37565b818652848087019260051b820101928311610e5a5784809101915b838310610e4a5750505050919238610ce5565b8251815291810191859101610e37565b8680fd5b8480fd5b8580fd5b8190610e7184612cdd565b8152019101908690610de1565b8880fd5b8380fd5b5034610297576101807ffffffffffffffffffffffffffffffffffffffffffffffffffffffffffffffffc3601126102975760043573ffffffffffffffffffffffffffffffffffffffff918282169283830361029257604435908082168203610292576064359080821682036102925760c07fffffffffffffffffffffffffffffffffffffffffffffffffffffffffffffff5c360112610e82576101643567ffffffffffffffff8111610e5e57610f40903690600401612b3f565b610f4e608497929735612ddb565b610f5b8560243584612ee9565b9681611113575b50506e22d473030f116ddee9f6b43ac78ba391823b15610e62576040517f36c7851600000000000000000000000000000000000000000000000000000000815233600482015273ffffffffffffffffffffffffffffffffffffffff9283166024820152908716821660448201527f000000000000000000000000000000000000000000000000000000000000000090911660648201529084908290608490829084905af18015611108579084916110ef575b5061101f8591612aa7565b9561102d6040519788612a37565b8487527fffffffffffffffffffffffffffffffffffffffffffffffffffffffffffffffe061105a86612aa7565b019285602095869536878c01376110a06040519a8b96879586947f27ce385400000000000000000000000000000000000000000000000000000000865260048601612d9c565b03925af191821561069557916110bf575b604080945051928352820152f35b80915083813d83116110e8575b6110d68183612a37565b810103126102925760409251906110b1565b503d6110cc565b816110f991612a37565b611104578238611014565b8280fd5b6040513d86823e3d90fd5b6e22d473030f116ddee9f6b43ac78ba390813b1561119d5791879161116b93836040518096819582947f2b67b57000000000000000000000000000000000000000000000000000000000845260a43360048601613056565b03925af180156111925790869115610f62578161118791612a37565b610e5e578438610f62565b6040513d88823e3d90fd5b8780fd5b503461029757807ffffffffffffffffffffffffffffffffffffffffffffffffffffffffffffffffc360112610297576020604051731111111254eeb25477b68fb85ed929f73a9605828152f35b503461029757807ffffffffffffffffffffffffffffffffffffffffffffffffffffffffffffffffc360112610297576040517ff851a44000000000000000000000000000000000000000000000000000000000815273ffffffffffffffffffffffffffffffffffffffff602082600481847f0000000000000000000000000000000000000000000000000000000000000000165afa9182156113285783926112ed575b50811633036112c357819047806112a6575050f35b8280929181925af1156112b65780f35b63b12d13eb90526004601cfd5b60046040517f1a19b036000000000000000000000000000000000000000000000000000000008152fd5b9091506020813d8211611320575b8161130860209383612a37565b810103126111045761131990612cdd565b9038611291565b3d91506112fb565b6040513d85823e3d90fd5b503461029757807ffffffffffffffffffffffffffffffffffffffffffffffffffffffffffffffffc36011261029757602060405173def171fe48cf0115b1d80b88dc8eab59176fee578152f35b50346102975760c07ffffffffffffffffffffffffffffffffffffffffffffffffffffffffffffffffc360112610297576004359073ffffffffffffffffffffffffffffffffffffffff908183169182840361029257604435908082168203610292576064359081168103610292576084359460a43567ffffffffffffffff8111610e5e57956114719161146a61141e61146398993690600401612b3f565b91909361142a81612ddb565b6114378860243586612ee9565b998a957f0000000000000000000000000000000000000000000000000000000000000000943691612d65565b9083612e0d565b3390613324565b8361101f84612aa7565b50346102975761146361146a6114b1926114dd611499366004612bb6565b92998a8699939296956114ab84612ddb565b86612ee9565b9889957f0000000000000000000000000000000000000000000000000000000000000000943691612d65565b6114e681612aa7565b916114f46040519384612a37565b818352817fffffffffffffffffffffffffffffffffffffffffffffffffffffffffffffffe061152282612aa7565b0191818073ffffffffffffffffffffffffffffffffffffffff6020998a9636888b013761157e604051998a97889687947f1e7dcc0d00000000000000000000000000000000000000000000000000000000865260048601612d9c565b0393165af1908115610695575090839161159d575b5050604051908152f35b813d83116115bf575b6115b08183612a37565b81010312610292578138611593565b503d6115a6565b503461029757807ffffffffffffffffffffffffffffffffffffffffffffffffffffffffffffffffc360112610297576020604051736352a56caadc4f1e25cd6c75970fa768a3304e648152f35b50346102975760207ffffffffffffffffffffffffffffffffffffffffffffffffffffffffffffffffc360112610297576040517f1ad4c8c3000000000000000000000000000000000000000000000000000000008152600435600482015273ffffffffffffffffffffffffffffffffffffffff9060a081602481857f0000000000000000000000000000000000000000000000000000000000000000165afa90811561132857928260409260209583916116da575b50168152808452205416604051908152f35b6116fb915060a03d8111611706575b6116f38183612a37565b810190612cfe565b5092505050386116c8565b503d6116e9565b50346102975760407ffffffffffffffffffffffffffffffffffffffffffffffffffffffffffffffffc3601126102975760043567ffffffffffffffff81116119a357366023820112156119a357806004013561176881612b9e565b916117766040519384612a37565b8183526020908184016024809460051b83010191368311610e5a578401905b82821061197757505050813573ffffffffffffffffffffffffffffffffffffffff8082168203610292576040517ff851a4400000000000000000000000000000000000000000000000000000000081528381600481857f0000000000000000000000000000000000000000000000000000000000000000165afa801561196c5782918891611934575b501633036112c357855b85518110156119305784848361183e848a613310565b5116604051928380927f70a082310000000000000000000000000000000000000000000000000000000082523060048301525afa9081156119255788916118f8575b50848884898461189e575b5050505050611899906132a4565b611828565b826044926118ae88601094613310565b51168960145260349687526fa9059cbb00000000000000000000000082525af13d1560018a51141716156118eb578790526118998488848961188b565b6390b8ec1888526004601cfd5b90508481813d831161191e575b61190f8183612a37565b81010312610292575138611880565b503d611905565b6040513d8a823e3d90fd5b8680f35b809250858092503d8311611965575b61194d8183612a37565b81010312610e5a5761195f8291612cdd565b3861181e565b503d611943565b6040513d89823e3d90fd5b813573ffffffffffffffffffffffffffffffffffffffff8116810361119d578152908301908301611795565b5080fd5b503461029757807ffffffffffffffffffffffffffffffffffffffffffffffffffffffffffffffffc3601126102975760206040516e22d473030f116ddee9f6b43ac78ba38152f35b503461029757807ffffffffffffffffffffffffffffffffffffffffffffffffffffffffffffffffc36011261029757611a76611a2b6005612aa7565b611a386040519182612a37565b600581527f312e302e300000000000000000000000000000000000000000000000000000006020820152604051918291602083526020830190612ae1565b0390f35b503461029757807ffffffffffffffffffffffffffffffffffffffffffffffffffffffffffffffffc36011261029757602060405173e592427a0aece92de3edee1f18e0157c058615648152f35b50346102975760407ffffffffffffffffffffffffffffffffffffffffffffffffffffffffffffffffc3601126102975760043567ffffffffffffffff81116119a357611b17903690600401612b6d565b90602491823573ffffffffffffffffffffffffffffffffffffffff80821680920361029257807f00000000000000000000000000000000000000000000000000000000000000001692604051947ff851a4400000000000000000000000000000000000000000000000000000000086526020958681600481895afa80156107715784918a91611e97575b501633036112c357875b828110611bb6578880f35b611bc1818484613300565b3590604051917f1ad4c8c3000000000000000000000000000000000000000000000000000000008352600483015260a080838b818b5afa928315611e8c578b908c928d95611e64575b505015611e3a5785908960ff60408e8b8152600180945220541615611d94575b5016808b528a89528560408c20937fffffffffffffffffffffffff00000000000000000000000000000000000000009489868254161790551690818c5260408c208885825416179055604051937f6f307dc30000000000000000000000000000000000000000000000000000000085528a85600481865afa908d821561069557898d938c988391611d22575b5097604083608096947fc7502982709bb9cda5fd431f4c948f40a65965127a4e069f83cb4f168a599e03989694611d1d9c1695868252522091825416179055611d00868a8a613300565b35946040519283528d8301526040820152896060820152a26132a4565b611bab565b985050509186819492943d8311611d8d575b611d3e8183612a37565b810103126119a3578b7fc7502982709bb9cda5fd431f4c948f40a65965127a4e069f83cb4f168a599e03938b6040856080968e611d7d611d1d9d612cdd565b949c509496985050939550611cb6565b503d611d34565b909150600280549068010000000000000000821015611e0e57611dc0828b92858c979695018155612c96565b819291549060031b86811b9283911b16911916179055888d52808b5260408d20907fffffffffffffffffffffffffffffffffffffffffffffffffffffffffffffff0082541617905538611c2a565b8c8e7f4e487b710000000000000000000000000000000000000000000000000000000081526041600452fd5b60046040517f51a9ca53000000000000000000000000000000000000000000000000000000008152fd5b91509150611e7f929350803d10611706576116f38183612a37565b5093929091503880611c0a565b6040513d8d823e3d90fd5b809250888092503d8311611ec8575b611eb08183612a37565b81010312610e7e57611ec28491612cdd565b38611ba1565b503d611ea6565b503461029757807ffffffffffffffffffffffffffffffffffffffffffffffffffffffffffffffffc36011261029757602060405173def1c0ded9bec7f1a1670819833240f027b25eff8152f35b50346102975760e07ffffffffffffffffffffffffffffffffffffffffffffffffffffffffffffffffc360112610297576004359073ffffffffffffffffffffffffffffffffffffffff821682036102925773ffffffffffffffffffffffffffffffffffffffff60243516602435036102925773ffffffffffffffffffffffffffffffffffffffff606435166064350361029257600860a43510156102975760c43567ffffffffffffffff81116119a357611fda903690600401612b6d565b611fe8608494929435612ddb565b611ff760643560443584612ee9565b93604051917f6f307dc300000000000000000000000000000000000000000000000000000000835260208360048173ffffffffffffffffffffffffffffffffffffffff602435165afa9283156122415785936121d7575b509260e06121526020946120c061218f9573ffffffffffffffffffffffffffffffffffffffff99988a6040519461208761010087612a37565b1684528a60243516898501528a871660408501523360608501528a6064351660808501528b60a08501526104ea60a43560c08601613162565b8382015261212660405193849288808501528a81511660408501528a898201511660608501528a60408201511660808501528a60608201511660a08501528a60808201511660c085015260a0810151828501526105a560c082015161010086019061321d565b037fffffffffffffffffffffffffffffffffffffffffffffffffffffffffffffffe08101835282612a37565b846040519687809581947f27ce38540000000000000000000000000000000000000000000000000000000083528b60243560643560048601612d9c565b0393165af190811561069557506121ac575b602082604051908152f35b602090813d83116121d0575b6121c28183612a37565b8101031261029257386121a1565b503d6121b8565b9092506020813d602011612239575b816121f360209383612a37565b81010312610e5e579260e06121526020946120c061218f9561222a73ffffffffffffffffffffffffffffffffffffffff9a99612cdd565b9750955050929596505061204e565b3d91506121e6565b6040513d87823e3d90fd5b5034610297576101407ffffffffffffffffffffffffffffffffffffffffffffffffffffffffffffffffc3601126102975760043573ffffffffffffffffffffffffffffffffffffffff9182821691828103610292576044359284841684036102925760643594851685036102925760807fffffffffffffffffffffffffffffffffffffffffffffffffffffffffffffff5c36011261110457610124359467ffffffffffffffff8611610e825761232161230a86973690600401612b3f565b969094612318608435612ddb565b60243590612ee9565b94604051612330604082612a37565b83815260209487868301526e22d473030f116ddee9f6b43ac78ba391823b1561119d57916123969391888094604051968795869485937f30f28b7a000000000000000000000000000000000000000000000000000000008552339060a4600487016130f4565b03925af180156122415791858594928894612430575b506123b681612aa7565b986123c46040519a8b612a37565b818a527fffffffffffffffffffffffffffffffffffffffffffffffffffffffffffffffe06123f183612aa7565b0136878c01376110a06040519a8b96879586947f27ce385400000000000000000000000000000000000000000000000000000000865260048601612d9c565b8193955061243f929450612a37565b610e82578291859185386123ac565b5034610297576101607ffffffffffffffffffffffffffffffffffffffffffffffffffffffffffffffffc3601126102975760043573ffffffffffffffffffffffffffffffffffffffff9182821690818303610292576044359380851685036102925760c07fffffffffffffffffffffffffffffffffffffffffffffffffffffffffffffff7c3601126119a3576101443567ffffffffffffffff8111611104576124fb903690600401612b3f565b612509606496929635612ddb565b6125168760243584612ee9565b958161268b575b50506e22d473030f116ddee9f6b43ac78ba390813b15610e82576040517f36c7851600000000000000000000000000000000000000000000000000000000815233600482015273ffffffffffffffffffffffffffffffffffffffff9182166024820152928616811660448401527f000000000000000000000000000000000000000000000000000000000000000016606483015282908290608490829084905af1801561095f57908291612676575b506125d690612aa7565b916125e46040519384612a37565b818352817fffffffffffffffffffffffffffffffffffffffffffffffffffffffffffffffe061261282612aa7565b01918180602098899536878a0137612659604051988996879586947f1e7dcc0d00000000000000000000000000000000000000000000000000000000865260048601612d9c565b03925af1908115610695575090839161159d575050604051908152f35b8161268091612a37565b6102975780386125cc565b6e22d473030f116ddee9f6b43ac78ba390813b15610e62579185916126e393836040518096819582947f2b67b57000000000000000000000000000000000000000000000000000000000845260843360048601613056565b03925af18015611108579084911561251d57816126ff91612a37565b61110457823861251d565b5034610297576101207ffffffffffffffffffffffffffffffffffffffffffffffffffffffffffffffffc3601126102975760043573ffffffffffffffffffffffffffffffffffffffff808216928383036102975760443591821682036102975760807fffffffffffffffffffffffffffffffffffffffffffffffffffffffffffffff7c36011261029757610104359367ffffffffffffffff85116119a3576127c96127bb8495963690600401612b3f565b959096612318606435612ddb565b936040516127d8604082612a37565b82815260209686888301526e22d473030f116ddee9f6b43ac78ba391823b15610e62579161283e9391868094604051968795869485937f30f28b7a00000000000000000000000000000000000000000000000000000000855233906084600487016130f4565b03925af1801561132857908692916128d9575b508290818061285f81612aa7565b9661286d6040519889612a37565b8188527fffffffffffffffffffffffffffffffffffffffffffffffffffffffffffffffe061289a83612aa7565b0136878a0137612659604051988996879586947f1e7dcc0d00000000000000000000000000000000000000000000000000000000865260048601612d9c565b836128e691949294612a37565b9138612851565b503461029757807ffffffffffffffffffffffffffffffffffffffffffffffffffffffffffffffffc360112610297576020600254604051908152f35b503461029757807ffffffffffffffffffffffffffffffffffffffffffffffffffffffffffffffffc36011261029757611a766129656015612aa7565b6129726040519182612a37565b601581527f4379676e75733a20416c7461697220526f7574657200000000000000000000006020820152604051918291602083526020830190612ae1565b9050346119a35760207ffffffffffffffffffffffffffffffffffffffffffffffffffffffffffffffffc3601126119a35760043573ffffffffffffffffffffffffffffffffffffffff90818116809103610e825783604091602095528085522054168152f35b359073ffffffffffffffffffffffffffffffffffffffff8216820361029257565b90601f7fffffffffffffffffffffffffffffffffffffffffffffffffffffffffffffffe0910116810190811067ffffffffffffffff821117612a7857604052565b7f4e487b7100000000000000000000000000000000000000000000000000000000600052604160045260246000fd5b67ffffffffffffffff8111612a7857601f017fffffffffffffffffffffffffffffffffffffffffffffffffffffffffffffffe01660200190565b919082519283825260005b848110612b2b5750507fffffffffffffffffffffffffffffffffffffffffffffffffffffffffffffffe0601f8460006020809697860101520116010190565b602081830181015184830182015201612aec565b9181601f840112156102925782359167ffffffffffffffff8311610292576020838186019501011161029257565b9181601f840112156102925782359167ffffffffffffffff8311610292576020808501948460051b01011161029257565b67ffffffffffffffff8111612a785760051b60200190565b91909160a08184031261029257612bcc81612a16565b92602082013592612bdf60408401612a16565b92606081013592608082013567ffffffffffffffff811161029257612c049201612b3f565b9091565b916101208383031261029257612c1d83612a16565b92612c2a60208201612a16565b92612c3760408301612a16565b9260608301359260808101359260a08201359267ffffffffffffffff9060c08401358281116102925783612c6c918601612b3f565b9490949360e08201356008811015610292579361010083013590811161029257612c049201612b6d565b8054821015612cae5760005260206000200190600090565b7f4e487b7100000000000000000000000000000000000000000000000000000000600052603260045260246000fd5b519073ffffffffffffffffffffffffffffffffffffffff8216820361029257565b908160a09103126102925780518015158103610292579160208201516affffffffffffffffffffff811681036102925791612d3b60408201612cdd565b916080612d4a60608401612cdd565b9201516bffffffffffffffffffffffff811681036102925790565b929192612d7182612aa7565b91612d7f6040519384612a37565b829481845281830111610292578281602093846000960137010152565b9092612dd8949360809373ffffffffffffffffffffffffffffffffffffffff809216845216602083015260408201528160608201520190612ae1565b90565b4211612de357565b60046040517fc828cdf5000000000000000000000000000000000000000000000000000000008152fd5b919081518015612ee35782608091810103126102925760208201519260408301519360ff85168095036102925773ffffffffffffffffffffffffffffffffffffffff60806060860151950151921693843b156102925760009460e493869260405198899788967fd505accf00000000000000000000000000000000000000000000000000000000885233600489015230602489015260448801526064870152608486015260a485015260c48401525af18015612ed757612eca5750565b6000612ed591612a37565b565b6040513d6000823e3d90fd5b50505050565b909173ffffffffffffffffffffffffffffffffffffffff809216803b15610292576040928351927fa6afed95000000000000000000000000000000000000000000000000000000008452600093848160048183885af18015612ffa579086939291612fe5575b50602490835194859384927f7d6af0790000000000000000000000000000000000000000000000000000000084521660048301525afa928315612fda578293612fa7575b50505080821015612fa2575090565b905090565b9080929350813d8311612fd3575b612fbf8183612a37565b810103126119a35760200151903880612f93565b503d612fb5565b51913d9150823e3d90fd5b94612ff38160249397612a37565b9490612f4f565b86513d87823e3d90fd5b359065ffffffffffff8216820361029257565b601f82602094937fffffffffffffffffffffffffffffffffffffffffffffffffffffffffffffffe0938186528686013760008582860101520116010190565b90939173ffffffffffffffffffffffffffffffffffffffff80951682528461307d82612a16565b16602083015260208101359085821680920361029257612dd89560a092604085015265ffffffffffff806130b360408501613004565b1660608601526130c560608401613004565b1660808501526130d760808301612a16565b1682840152013560c0820152610100908160e08201520191613017565b91926020612dd89694606073ffffffffffffffffffffffffffffffffffffffff948561311f82612a16565b16875283810135848801526040810135604088015201356060860152838151166080860152015160a08401521660c0820152610100908160e08201520191613017565b600882101561316e5752565b7f4e487b7100000000000000000000000000000000000000000000000000000000600052602160045260246000fd5b929190926131aa84612b9e565b916131b86040519384612a37565b829480845260208094019060051b8301928284116102925780915b8483106131e257505050505050565b823567ffffffffffffffff811161029257820184601f820112156102925786916132128683858095359101612d65565b8152019201916131d3565b90600882101561316e5752565b908082519081815260208091019281808460051b8301019501936000915b8483106132585750505050505090565b9091929394958480613294837fffffffffffffffffffffffffffffffffffffffffffffffffffffffffffffffe086600196030187528a51612ae1565b9801930193019194939290613248565b7fffffffffffffffffffffffffffffffffffffffffffffffffffffffffffffffff81146132d15760010190565b7f4e487b7100000000000000000000000000000000000000000000000000000000600052601160045260246000fd5b9190811015612cae5760051b0190565b8051821015612cae5760209160051b010190565b601c600060649281946020966040519860605260405260601b602c526f23b872dd000000000000000000000000600c525af13d1560016000511417161561336f576000606052604052565b637939f4246000526004601cfdfea164736f6c6343000811000a","opcodes":"PUSH1 0xE0 PUSH1 0x40 SWAP1 DUP1 DUP3 MSTORE CALLVALUE PUSH3 0x172 JUMPI DUP1 PUSH3 0x355D DUP1 CODESIZE SUB DUP1 SWAP2 PUSH3 0x23 DUP3 DUP6 PUSH3 0x177 JUMP JUMPDEST DUP4 CODECOPY PUSH1 0x20 SWAP3 DUP4 SWAP2 DUP2 ADD SUB SLT PUSH3 0x172 JUMPI MLOAD PUSH1 0x1 PUSH1 0x1 PUSH1 0xA0 SHL SUB SWAP1 DUP2 DUP2 AND SWAP1 DUP2 DUP2 SUB PUSH3 0x172 JUMPI PUSH1 0x80 MSTORE DUP4 MLOAD PUSH4 0x1C2EB17B PUSH1 0xE3 SHL DUP2 MSTORE SWAP1 DUP4 DUP3 PUSH1 0x4 DUP2 DUP5 GAS STATICCALL SWAP3 DUP4 ISZERO PUSH3 0x167 JUMPI PUSH1 0x4 SWAP4 DUP6 SWAP4 PUSH1 0x0 SWAP2 PUSH3 0x145 JUMPI JUMPDEST POP AND PUSH1 0xC0 MSTORE DUP5 MLOAD PUSH4 0xD63A6CCD PUSH1 0xE0 SHL DUP2 MSTORE SWAP3 DUP4 SWAP2 DUP3 SWAP1 GAS STATICCALL SWAP2 DUP3 ISZERO PUSH3 0x13A JUMPI PUSH1 0x0 SWAP3 PUSH3 0x106 JUMPI JUMPDEST POP POP PUSH1 0xA0 MSTORE MLOAD PUSH2 0x338A SWAP1 DUP2 PUSH3 0x1D3 DUP3 CODECOPY PUSH1 0x80 MLOAD DUP2 DUP2 DUP2 PUSH2 0x2E5 ADD MSTORE DUP2 DUP2 PUSH2 0x1261 ADD MSTORE DUP2 DUP2 PUSH2 0x1690 ADD MSTORE DUP2 DUP2 PUSH2 0x17ED ADD MSTORE PUSH2 0x1B3F ADD MSTORE PUSH1 0xA0 MLOAD DUP2 DUP2 DUP2 PUSH2 0xBB5 ADD MSTORE DUP2 DUP2 PUSH2 0xFD1 ADD MSTORE DUP2 DUP2 PUSH2 0x143C ADD MSTORE DUP2 DUP2 PUSH2 0x14B6 ADD MSTORE PUSH2 0x258C ADD MSTORE PUSH1 0xC0 MLOAD DUP2 PUSH2 0x837 ADD MSTORE RETURN JUMPDEST PUSH3 0x12A SWAP3 POP DUP1 RETURNDATASIZE LT PUSH3 0x132 JUMPI JUMPDEST PUSH3 0x121 DUP2 DUP4 PUSH3 0x177 JUMP JUMPDEST DUP2 ADD SWAP1 PUSH3 0x1B1 JUMP JUMPDEST CODESIZE DUP1 PUSH3 0xA0 JUMP JUMPDEST POP RETURNDATASIZE PUSH3 0x115 JUMP JUMPDEST DUP4 MLOAD RETURNDATASIZE PUSH1 0x0 DUP3 RETURNDATACOPY RETURNDATASIZE SWAP1 REVERT JUMPDEST PUSH3 0x160 SWAP2 POP DUP5 RETURNDATASIZE DUP7 GT PUSH3 0x132 JUMPI PUSH3 0x121 DUP2 DUP4 PUSH3 0x177 JUMP JUMPDEST CODESIZE PUSH3 0x77 JUMP JUMPDEST DUP6 MLOAD RETURNDATASIZE PUSH1 0x0 DUP3 RETURNDATACOPY RETURNDATASIZE SWAP1 REVERT JUMPDEST PUSH1 0x0 DUP1 REVERT JUMPDEST PUSH1 0x1F SWAP1 SWAP2 ADD PUSH1 0x1F NOT AND DUP2 ADD SWAP1 PUSH1 0x1 PUSH1 0x1 PUSH1 0x40 SHL SUB DUP3 GT SWAP1 DUP3 LT OR PUSH3 0x19B JUMPI PUSH1 0x40 MSTORE JUMP JUMPDEST PUSH4 0x4E487B71 PUSH1 0xE0 SHL PUSH1 0x0 MSTORE PUSH1 0x41 PUSH1 0x4 MSTORE PUSH1 0x24 PUSH1 0x0 REVERT JUMPDEST SWAP1 DUP2 PUSH1 0x20 SWAP2 SUB SLT PUSH3 0x172 JUMPI MLOAD PUSH1 0x1 PUSH1 0x1 PUSH1 0xA0 SHL SUB DUP2 AND DUP2 SUB PUSH3 0x172 JUMPI SWAP1 JUMP INVALID PUSH1 0xA0 DUP1 PUSH1 0x40 MSTORE PUSH1 0x4 CALLDATASIZE LT ISZERO PUSH2 0xC8 JUMPI JUMPDEST POP CALLDATASIZE ISZERO PUSH2 0xC6 JUMPI PUSH1 0x0 CALLER DUP2 MSTORE DUP1 PUSH1 0x20 MSTORE PUSH20 0xFFFFFFFFFFFFFFFFFFFFFFFFFFFFFFFFFFFFFFFF PUSH1 0x40 DUP3 KECCAK256 SLOAD AND DUP1 ISZERO PUSH2 0x9C JUMPI DUP2 DUP1 SWAP2 PUSH1 0x40 MLOAD CALLDATASIZE DUP4 DUP3 CALLDATACOPY DUP1 CALLDATASIZE DUP2 ADD DUP5 DUP2 MSTORE SUB SWAP2 GAS DELEGATECALL RETURNDATASIZE ISZERO PUSH2 0x93 JUMPI RETURNDATASIZE PUSH2 0x65 DUP2 PUSH2 0x2AA7 JUMP JUMPDEST SWAP1 PUSH2 0x73 PUSH1 0x40 MLOAD SWAP3 DUP4 PUSH2 0x2A37 JUMP JUMPDEST DUP2 MSTORE DUP1 SWAP3 PUSH1 0x20 RETURNDATASIZE SWAP3 ADD RETURNDATACOPY JUMPDEST ISZERO PUSH2 0x8B JUMPI PUSH1 0x20 DUP2 MLOAD SWAP2 ADD RETURN JUMPDEST PUSH1 0x20 DUP2 MLOAD SWAP2 ADD REVERT JUMPDEST PUSH1 0x60 SWAP2 POP PUSH2 0x7E JUMP JUMPDEST PUSH1 0x4 PUSH1 0x40 MLOAD PUSH32 0xD4DE0F1600000000000000000000000000000000000000000000000000000000 DUP2 MSTORE REVERT JUMPDEST STOP JUMPDEST PUSH1 0x0 SWAP1 DUP2 CALLDATALOAD PUSH1 0xE0 SHR SWAP1 DUP2 PUSH4 0x1CE1F6E EQ PUSH2 0x29B0 JUMPI POP DUP1 PUSH4 0x6FDDE03 EQ PUSH2 0x2929 JUMPI DUP1 PUSH4 0xC0CF11A EQ PUSH2 0x28ED JUMPI DUP1 PUSH4 0xE12D008 EQ PUSH2 0x270A JUMPI DUP1 PUSH4 0xF22D435 EQ PUSH2 0x244E JUMPI DUP1 PUSH4 0x21A5E908 EQ PUSH2 0x224C JUMPI DUP1 PUSH4 0x2A90E82F EQ PUSH2 0x1F1C JUMPI DUP1 PUSH4 0x2F764135 EQ PUSH2 0x1ECF JUMPI DUP1 PUSH4 0x3B918095 EQ PUSH2 0x1AC7 JUMPI DUP1 PUSH4 0x41C64A2F EQ PUSH2 0x1A7A JUMPI DUP1 PUSH4 0x54FD4D50 EQ PUSH2 0x19EF JUMPI DUP1 PUSH4 0x6AFDD850 EQ PUSH2 0x19A7 JUMPI DUP1 PUSH4 0x7071F0C4 EQ PUSH2 0x170D JUMPI DUP1 PUSH4 0x70BF79C6 EQ PUSH2 0x1613 JUMPI DUP1 PUSH4 0x72E05064 EQ PUSH2 0x15C6 JUMPI DUP1 PUSH4 0x76C05F65 EQ PUSH2 0x147B JUMPI DUP1 PUSH4 0x7F32D8F4 EQ PUSH2 0x1380 JUMPI DUP1 PUSH4 0x88A799F6 EQ PUSH2 0x1333 JUMPI DUP1 PUSH4 0xAB803A76 EQ PUSH2 0x11EE JUMPI DUP1 PUSH4 0xBDCB9932 EQ PUSH2 0x11A1 JUMPI DUP1 PUSH4 0xC2A95DDF EQ PUSH2 0xE86 JUMPI DUP1 PUSH4 0xD0189A91 EQ PUSH2 0xC26 JUMPI DUP1 PUSH4 0xD0736749 EQ PUSH2 0xBD9 JUMPI DUP1 PUSH4 0xD63A6CCD EQ PUSH2 0xB6A JUMPI DUP1 PUSH4 0xD6906D23 EQ PUSH2 0x96A JUMPI DUP1 PUSH4 0xDBE5F2FB EQ PUSH2 0x85B JUMPI DUP1 PUSH4 0xE1758BD8 EQ PUSH2 0x7EC JUMPI DUP1 PUSH4 0xE731F6D1 EQ PUSH2 0x77C JUMPI DUP1 PUSH4 0xE75EE2E3 EQ PUSH2 0x309 JUMPI DUP1 PUSH4 0xE8A24E1D EQ PUSH2 0x29A JUMPI PUSH4 0xF847ED48 SUB PUSH2 0xF JUMPI CALLVALUE PUSH2 0x297 JUMPI PUSH1 0x20 PUSH32 0xFFFFFFFFFFFFFFFFFFFFFFFFFFFFFFFFFFFFFFFFFFFFFFFFFFFFFFFFFFFFFFFC CALLDATASIZE ADD SLT PUSH2 0x297 JUMPI PUSH1 0x4 CALLDATALOAD SWAP1 PUSH20 0xFFFFFFFFFFFFFFFFFFFFFFFFFFFFFFFFFFFFFFFF DUP3 AND DUP1 SWAP3 SUB PUSH2 0x292 JUMPI PUSH1 0x40 DUP2 PUSH1 0x20 SWAP4 PUSH1 0xFF SWAP4 MSTORE PUSH1 0x1 DUP5 MSTORE KECCAK256 SLOAD AND PUSH1 0x40 MLOAD SWAP1 ISZERO ISZERO DUP2 MSTORE RETURN JUMPDEST PUSH1 0x0 DUP1 REVERT JUMPDEST DUP1 REVERT JUMPDEST POP CALLVALUE PUSH2 0x297 JUMPI DUP1 PUSH32 0xFFFFFFFFFFFFFFFFFFFFFFFFFFFFFFFFFFFFFFFFFFFFFFFFFFFFFFFFFFFFFFFC CALLDATASIZE ADD SLT PUSH2 0x297 JUMPI PUSH1 0x20 PUSH1 0x40 MLOAD PUSH20 0xFFFFFFFFFFFFFFFFFFFFFFFFFFFFFFFFFFFFFFFF PUSH32 0x0 AND DUP2 MSTORE RETURN JUMPDEST POP CALLVALUE PUSH2 0x297 JUMPI PUSH2 0x343 SWAP1 PUSH2 0x33C PUSH2 0x321 CALLDATASIZE PUSH1 0x4 PUSH2 0x2C08 JUMP JUMPDEST SWAP8 SWAP10 SWAP13 SWAP4 SWAP1 SWAP9 SWAP11 SWAP2 SWAP7 SWAP5 SWAP3 PUSH2 0x335 DUP5 PUSH2 0x2DDB JUMP JUMPDEST CALLDATASIZE SWAP2 PUSH2 0x2D65 JUMP JUMPDEST SWAP1 DUP10 PUSH2 0x2E0D JUMP JUMPDEST PUSH1 0x40 MLOAD PUSH32 0x18160DDD00000000000000000000000000000000000000000000000000000000 DUP2 MSTORE PUSH1 0x20 DUP2 PUSH1 0x4 DUP2 PUSH20 0xFFFFFFFFFFFFFFFFFFFFFFFFFFFFFFFFFFFFFFFF DUP13 AND GAS STATICCALL SWAP1 DUP2 ISZERO PUSH2 0x771 JUMPI DUP10 SWAP2 PUSH2 0x73F JUMPI JUMPDEST POP PUSH1 0x40 MLOAD SWAP1 PUSH32 0x1E1D11400000000000000000000000000000000000000000000000000000000 DUP3 MSTORE PUSH1 0x20 DUP3 PUSH1 0x4 DUP2 PUSH20 0xFFFFFFFFFFFFFFFFFFFFFFFFFFFFFFFFFFFFFFFF DUP14 AND GAS STATICCALL SWAP2 DUP3 ISZERO PUSH2 0x734 JUMPI DUP11 SWAP3 PUSH2 0x700 JUMPI JUMPDEST POP PUSH32 0xFFFFFFFFFFFFFFFFFFFFFFFFFFFFFFFFFFFFFFFFFFFFFFFFFFFFFFFFFFFFFFFF DUP3 DUP5 MULMOD DUP4 DUP4 MUL DUP1 DUP3 LT ADD DUP1 DUP3 EQ PUSH2 0x6AE JUMPI DUP1 DUP3 SUB DUP4 GT ISZERO PUSH2 0x6A1 JUMPI SWAP6 PUSH2 0x645 SWAP13 SWAP6 DUP6 PUSH20 0xFFFFFFFFFFFFFFFFFFFFFFFFFFFFFFFFFFFFFFFF DUP15 DUP8 PUSH1 0x20 SWAP16 SWAP14 SWAP9 SWAP8 PUSH1 0xE0 SWAP16 SWAP14 SWAP9 SWAP8 PUSH2 0x5E7 SWAP14 DUP3 PUSH2 0x4EA SWAP11 PUSH2 0x4F1 SWAP15 MULMOD SWAP2 PUSH1 0x1 DUP5 DUP8 SUB DUP6 AND DUP1 DUP1 DUP1 SWAP8 DIV PUSH1 0x2 DUP1 DUP3 PUSH1 0x3 MUL XOR DUP1 DUP4 MUL DUP3 SUB MUL DUP1 DUP4 MUL DUP3 SUB MUL DUP1 DUP4 MUL DUP3 SUB MUL DUP1 DUP4 MUL DUP3 SUB MUL DUP1 DUP4 MUL DUP3 SUB MUL DUP1 SWAP3 MUL SWAP1 SUB MUL SWAP9 SUB DIV ADD SWAP2 DUP6 DUP10 MUL DUP5 GT SWAP2 SUB SUB MUL SWAP3 DUP7 MUL SUB DIV OR MUL SWAP11 JUMPDEST DUP2 PUSH1 0x40 MLOAD SWAP11 PUSH2 0x4C1 PUSH2 0x100 DUP14 PUSH2 0x2A37 JUMP JUMPDEST AND DUP11 MSTORE DUP2 DUP14 AND DUP16 DUP12 ADD MSTORE AND PUSH1 0x40 DUP10 ADD MSTORE CALLER PUSH1 0x60 DUP10 ADD MSTORE PUSH1 0x80 DUP9 ADD MSTORE PUSH1 0xA0 DUP8 ADD MSTORE PUSH1 0xC0 DUP7 ADD PUSH2 0x3162 JUMP JUMPDEST CALLDATASIZE SWAP2 PUSH2 0x319D JUMP JUMPDEST DUP6 DUP3 ADD MSTORE PUSH2 0x5BB PUSH1 0x40 MLOAD SWAP6 DUP7 SWAP3 DUP9 DUP1 DUP6 ADD MSTORE PUSH20 0xFFFFFFFFFFFFFFFFFFFFFFFFFFFFFFFFFFFFFFFF DUP2 MLOAD AND PUSH1 0x40 DUP6 ADD MSTORE PUSH20 0xFFFFFFFFFFFFFFFFFFFFFFFFFFFFFFFFFFFFFFFF DUP10 DUP3 ADD MLOAD AND PUSH1 0x60 DUP6 ADD MSTORE PUSH20 0xFFFFFFFFFFFFFFFFFFFFFFFFFFFFFFFFFFFFFFFF PUSH1 0x40 DUP3 ADD MLOAD AND PUSH1 0x80 DUP6 ADD MSTORE PUSH20 0xFFFFFFFFFFFFFFFFFFFFFFFFFFFFFFFFFFFFFFFF PUSH1 0x60 DUP3 ADD MLOAD AND PUSH1 0xA0 DUP6 ADD MSTORE PUSH1 0x80 DUP2 ADD MLOAD PUSH1 0xC0 DUP6 ADD MSTORE PUSH1 0xA0 DUP2 ADD MLOAD DUP3 DUP6 ADD MSTORE PUSH2 0x5A5 PUSH1 0xC0 DUP3 ADD MLOAD PUSH2 0x100 DUP7 ADD SWAP1 PUSH2 0x321D JUMP JUMPDEST ADD MLOAD PUSH2 0x100 PUSH2 0x120 DUP5 ADD MSTORE PUSH2 0x140 DUP4 ADD SWAP1 PUSH2 0x322A JUMP JUMPDEST SUB PUSH32 0xFFFFFFFFFFFFFFFFFFFFFFFFFFFFFFFFFFFFFFFFFFFFFFFFFFFFFFFFFFFFFFE0 DUP2 ADD DUP6 MSTORE DUP5 PUSH2 0x2A37 JUMP JUMPDEST DUP5 PUSH20 0xFFFFFFFFFFFFFFFFFFFFFFFFFFFFFFFFFFFFFFFF PUSH1 0x40 MLOAD DUP1 SWAP9 DUP2 SWAP7 DUP3 SWAP6 PUSH32 0xFA14FDC200000000000000000000000000000000000000000000000000000000 DUP5 MSTORE ADDRESS PUSH1 0x4 DUP6 ADD MSTORE PUSH1 0x24 DUP5 ADD MSTORE PUSH1 0x60 PUSH1 0x44 DUP5 ADD MSTORE PUSH1 0x64 DUP4 ADD SWAP1 PUSH2 0x2AE1 JUMP JUMPDEST SUB SWAP4 AND GAS CALL SWAP1 DUP2 ISZERO PUSH2 0x695 JUMPI SWAP1 PUSH2 0x662 JUMPI JUMPDEST PUSH1 0x20 SWAP1 PUSH1 0x40 MLOAD SWAP1 DUP2 MSTORE RETURN JUMPDEST POP PUSH1 0x20 DUP2 RETURNDATASIZE PUSH1 0x20 GT PUSH2 0x68D JUMPI JUMPDEST DUP2 PUSH2 0x67C PUSH1 0x20 SWAP4 DUP4 PUSH2 0x2A37 JUMP JUMPDEST DUP2 ADD SUB SLT PUSH2 0x292 JUMPI PUSH1 0x20 SWAP1 MLOAD PUSH2 0x657 JUMP JUMPDEST RETURNDATASIZE SWAP2 POP PUSH2 0x66F JUMP JUMPDEST PUSH1 0x40 MLOAD SWAP1 RETURNDATASIZE SWAP1 DUP3 RETURNDATACOPY RETURNDATASIZE SWAP1 REVERT JUMPDEST PUSH4 0xAE47F702 DUP13 MSTORE PUSH1 0x4 PUSH1 0x1C REVERT JUMPDEST POP POP SWAP1 DUP2 SWAP11 SWAP8 SWAP9 SWAP11 ISZERO PUSH2 0x6F3 JUMPI SWAP5 PUSH2 0x4EA PUSH2 0x5E7 SWAP6 PUSH1 0xE0 SWAP10 SWAP6 DUP6 PUSH20 0xFFFFFFFFFFFFFFFFFFFFFFFFFFFFFFFFFFFFFFFF PUSH2 0x645 SWAP16 SWAP12 SWAP7 PUSH1 0x20 SWAP15 SWAP12 PUSH2 0x4F1 SWAP10 MUL DIV SWAP11 PUSH2 0x4B0 JUMP JUMPDEST PUSH4 0xAE47F702 DUP11 MSTORE PUSH1 0x4 PUSH1 0x1C REVERT JUMPDEST SWAP1 SWAP2 POP PUSH1 0x20 DUP2 RETURNDATASIZE PUSH1 0x20 GT PUSH2 0x72C JUMPI JUMPDEST DUP2 PUSH2 0x71C PUSH1 0x20 SWAP4 DUP4 PUSH2 0x2A37 JUMP JUMPDEST DUP2 ADD SUB SLT PUSH2 0x292 JUMPI MLOAD SWAP1 CODESIZE PUSH2 0x3EB JUMP JUMPDEST RETURNDATASIZE SWAP2 POP PUSH2 0x70F JUMP JUMPDEST PUSH1 0x40 MLOAD RETURNDATASIZE DUP13 DUP3 RETURNDATACOPY RETURNDATASIZE SWAP1 REVERT JUMPDEST SWAP1 POP PUSH1 0x20 DUP2 RETURNDATASIZE PUSH1 0x20 GT PUSH2 0x769 JUMPI JUMPDEST DUP2 PUSH2 0x75A PUSH1 0x20 SWAP4 DUP4 PUSH2 0x2A37 JUMP JUMPDEST DUP2 ADD SUB SLT PUSH2 0x292 JUMPI MLOAD CODESIZE PUSH2 0x396 JUMP JUMPDEST RETURNDATASIZE SWAP2 POP PUSH2 0x74D JUMP JUMPDEST PUSH1 0x40 MLOAD RETURNDATASIZE DUP12 DUP3 RETURNDATACOPY RETURNDATASIZE SWAP1 REVERT JUMPDEST POP CALLVALUE PUSH2 0x297 JUMPI PUSH1 0x20 PUSH32 0xFFFFFFFFFFFFFFFFFFFFFFFFFFFFFFFFFFFFFFFFFFFFFFFFFFFFFFFFFFFFFFFC CALLDATASIZE ADD SLT PUSH2 0x297 JUMPI PUSH1 0x4 CALLDATALOAD SWAP1 PUSH1 0x2 SLOAD DUP3 LT ISZERO PUSH2 0x297 JUMPI PUSH1 0x20 PUSH20 0xFFFFFFFFFFFFFFFFFFFFFFFFFFFFFFFFFFFFFFFF PUSH2 0x7DC DUP5 PUSH1 0x2 PUSH2 0x2C96 JUMP JUMPDEST SWAP2 SWAP1 SLOAD PUSH1 0x40 MLOAD SWAP3 PUSH1 0x3 SHL SHR AND DUP2 MSTORE RETURN JUMPDEST POP CALLVALUE PUSH2 0x297 JUMPI DUP1 PUSH32 0xFFFFFFFFFFFFFFFFFFFFFFFFFFFFFFFFFFFFFFFFFFFFFFFFFFFFFFFFFFFFFFFC CALLDATASIZE ADD SLT PUSH2 0x297 JUMPI PUSH1 0x20 PUSH1 0x40 MLOAD PUSH20 0xFFFFFFFFFFFFFFFFFFFFFFFFFFFFFFFFFFFFFFFF PUSH32 0x0 AND DUP2 MSTORE RETURN JUMPDEST POP CALLVALUE PUSH2 0x297 JUMPI PUSH2 0x924 PUSH1 0x20 PUSH2 0x88D PUSH2 0x886 PUSH2 0x877 CALLDATASIZE PUSH1 0x4 PUSH2 0x2BB6 JUMP JUMPDEST PUSH2 0x335 DUP4 SWAP5 SWAP9 SWAP6 SWAP7 SWAP8 SWAP4 PUSH2 0x2DDB JUMP JUMPDEST SWAP1 DUP5 PUSH2 0x2E0D JUMP JUMPDEST DUP6 PUSH20 0xFFFFFFFFFFFFFFFFFFFFFFFFFFFFFFFFFFFFFFFF PUSH2 0x8AC DUP3 PUSH2 0x2AA7 JUMP JUMPDEST SWAP5 PUSH2 0x8BA PUSH1 0x40 MLOAD SWAP7 DUP8 PUSH2 0x2A37 JUMP JUMPDEST DUP3 DUP7 MSTORE PUSH32 0xFFFFFFFFFFFFFFFFFFFFFFFFFFFFFFFFFFFFFFFFFFFFFFFFFFFFFFFFFFFFFFE0 PUSH2 0x8E7 DUP5 PUSH2 0x2AA7 JUMP JUMPDEST ADD CALLDATASIZE DUP9 DUP9 ADD CALLDATACOPY PUSH1 0x40 MLOAD SWAP8 DUP9 SWAP7 DUP8 SWAP6 DUP7 SWAP4 PUSH32 0x1E7DCC0D00000000000000000000000000000000000000000000000000000000 DUP6 MSTORE CALLER PUSH1 0x4 DUP7 ADD PUSH2 0x2D9C JUMP JUMPDEST SUB SWAP4 AND GAS CALL DUP1 ISZERO PUSH2 0x95F JUMPI PUSH2 0x937 JUMPI POP DUP1 RETURN JUMPDEST PUSH1 0x20 SWAP1 DUP2 RETURNDATASIZE DUP2 GT PUSH2 0x958 JUMPI JUMPDEST PUSH2 0x94D DUP2 DUP4 PUSH2 0x2A37 JUMP JUMPDEST DUP2 ADD SUB SLT PUSH2 0x292 JUMPI DUP1 RETURN JUMPDEST POP RETURNDATASIZE PUSH2 0x943 JUMP JUMPDEST PUSH1 0x40 MLOAD RETURNDATASIZE DUP5 DUP3 RETURNDATACOPY RETURNDATASIZE SWAP1 REVERT JUMPDEST POP CALLVALUE PUSH2 0x297 JUMPI PUSH2 0xB35 SWAP1 PUSH1 0x20 PUSH1 0xC0 PUSH2 0x9CB PUSH2 0xAFF PUSH20 0xFFFFFFFFFFFFFFFFFFFFFFFFFFFFFFFFFFFFFFFF PUSH2 0xA15 PUSH2 0x9C2 PUSH2 0x4EA PUSH2 0x9A7 CALLDATASIZE PUSH1 0x4 PUSH2 0x2C08 JUMP JUMPDEST SWAP11 SWAP10 SWAP14 SWAP7 SWAP16 SWAP5 SWAP4 SWAP2 SWAP9 SWAP6 SWAP8 PUSH1 0x80 SWAP13 SWAP4 SWAP2 SWAP13 MSTORE PUSH2 0x335 DUP5 PUSH2 0x2DDB JUMP JUMPDEST SWAP1 PUSH1 0x80 MLOAD PUSH2 0x2E0D JUMP JUMPDEST DUP2 PUSH1 0x40 MLOAD SWAP10 PUSH2 0x9DB PUSH1 0xE0 DUP13 PUSH2 0x2A37 JUMP JUMPDEST AND DUP10 MSTORE AND DUP12 DUP9 ADD MSTORE PUSH20 0xFFFFFFFFFFFFFFFFFFFFFFFFFFFFFFFFFFFFFFFF PUSH1 0x80 MLOAD AND PUSH1 0x40 DUP9 ADD MSTORE CALLER PUSH1 0x60 DUP9 ADD MSTORE PUSH1 0x80 DUP8 ADD MSTORE PUSH1 0xA0 DUP7 ADD PUSH2 0x3162 JUMP JUMPDEST DUP5 DUP3 ADD MSTORE PUSH2 0xAD3 PUSH1 0x40 MLOAD SWAP5 DUP6 SWAP3 DUP8 DUP1 DUP6 ADD MSTORE PUSH20 0xFFFFFFFFFFFFFFFFFFFFFFFFFFFFFFFFFFFFFFFF DUP2 MLOAD AND PUSH1 0x40 DUP6 ADD MSTORE PUSH20 0xFFFFFFFFFFFFFFFFFFFFFFFFFFFFFFFFFFFFFFFF DUP9 DUP3 ADD MLOAD AND PUSH1 0x60 DUP6 ADD MSTORE PUSH20 0xFFFFFFFFFFFFFFFFFFFFFFFFFFFFFFFFFFFFFFFF PUSH1 0x40 DUP3 ADD MLOAD AND PUSH1 0x80 DUP6 ADD MSTORE PUSH20 0xFFFFFFFFFFFFFFFFFFFFFFFFFFFFFFFFFFFFFFFF PUSH1 0x60 DUP3 ADD MLOAD AND PUSH1 0xA0 DUP6 ADD MSTORE PUSH1 0x80 DUP2 ADD MLOAD DUP3 DUP6 ADD MSTORE PUSH2 0xABE PUSH1 0xA0 DUP3 ADD MLOAD PUSH1 0xE0 DUP7 ADD SWAP1 PUSH2 0x321D JUMP JUMPDEST ADD MLOAD PUSH1 0xE0 PUSH2 0x100 DUP5 ADD MSTORE PUSH2 0x120 DUP4 ADD SWAP1 PUSH2 0x322A JUMP JUMPDEST SUB PUSH32 0xFFFFFFFFFFFFFFFFFFFFFFFFFFFFFFFFFFFFFFFFFFFFFFFFFFFFFFFFFFFFFFE0 DUP2 ADD DUP5 MSTORE DUP4 PUSH2 0x2A37 JUMP JUMPDEST PUSH1 0x40 MLOAD SWAP5 DUP6 SWAP3 DUP4 SWAP3 PUSH32 0x1E7DCC0D00000000000000000000000000000000000000000000000000000000 DUP5 MSTORE ADDRESS CALLER PUSH1 0x4 DUP7 ADD PUSH2 0x2D9C JUMP JUMPDEST SUB DUP2 DUP5 PUSH20 0xFFFFFFFFFFFFFFFFFFFFFFFFFFFFFFFFFFFFFFFF PUSH1 0x80 MLOAD AND GAS CALL SWAP1 DUP2 ISZERO PUSH2 0x695 JUMPI SWAP1 PUSH2 0x662 JUMPI PUSH1 0x20 SWAP1 PUSH1 0x40 MLOAD SWAP1 DUP2 MSTORE RETURN JUMPDEST POP CALLVALUE PUSH2 0x297 JUMPI DUP1 PUSH32 0xFFFFFFFFFFFFFFFFFFFFFFFFFFFFFFFFFFFFFFFFFFFFFFFFFFFFFFFFFFFFFFFC CALLDATASIZE ADD SLT PUSH2 0x297 JUMPI PUSH1 0x20 PUSH1 0x40 MLOAD PUSH20 0xFFFFFFFFFFFFFFFFFFFFFFFFFFFFFFFFFFFFFFFF PUSH32 0x0 AND DUP2 MSTORE RETURN JUMPDEST POP CALLVALUE PUSH2 0x297 JUMPI DUP1 PUSH32 0xFFFFFFFFFFFFFFFFFFFFFFFFFFFFFFFFFFFFFFFFFFFFFFFFFFFFFFFFFFFFFFFC CALLDATASIZE ADD SLT PUSH2 0x297 JUMPI PUSH1 0x20 PUSH1 0x40 MLOAD PUSH20 0xA748D6573ACA135AF68F2635BE60CB80278BD855 DUP2 MSTORE RETURN JUMPDEST POP CALLVALUE PUSH2 0x297 JUMPI PUSH1 0x60 PUSH32 0xFFFFFFFFFFFFFFFFFFFFFFFFFFFFFFFFFFFFFFFFFFFFFFFFFFFFFFFFFFFFFFFC CALLDATASIZE ADD SLT PUSH2 0x297 JUMPI PUSH1 0x4 CALLDATALOAD SWAP1 PUSH20 0xFFFFFFFFFFFFFFFFFFFFFFFFFFFFFFFFFFFFFFFF SWAP2 DUP3 DUP2 AND DUP1 SWAP2 SUB PUSH2 0x292 JUMPI DUP1 DUP3 MSTORE PUSH1 0x20 DUP3 DUP2 MSTORE DUP4 PUSH1 0x40 DUP5 KECCAK256 SLOAD AND SWAP2 DUP3 ISZERO PUSH2 0x9C JUMPI DUP4 SWAP1 PUSH1 0x64 PUSH1 0x40 MLOAD DUP1 SWAP6 DUP2 SWAP4 PUSH32 0xD0189A9100000000000000000000000000000000000000000000000000000000 DUP4 MSTORE PUSH1 0x4 DUP4 ADD MSTORE PUSH1 0x24 CALLDATALOAD PUSH1 0x24 DUP4 ADD MSTORE PUSH1 0x44 CALLDATALOAD PUSH1 0x44 DUP4 ADD MSTORE GAS STATICCALL SWAP3 DUP4 ISZERO PUSH2 0x695 JUMPI DUP1 SWAP3 DUP2 SWAP5 PUSH2 0xD6A JUMPI JUMPDEST POP SWAP1 SWAP4 SWAP3 SWAP2 PUSH1 0x40 MLOAD SWAP5 DUP6 SWAP5 PUSH1 0x40 DUP7 ADD PUSH1 0x40 DUP8 MSTORE DUP4 MLOAD DUP1 SWAP2 MSTORE DUP3 PUSH1 0x60 DUP9 ADD SWAP5 ADD SWAP2 DUP6 SWAP1 JUMPDEST DUP3 DUP3 LT PUSH2 0xD4D JUMPI POP POP POP POP DUP5 DUP3 SUB DUP2 DUP7 ADD MSTORE DUP1 DUP1 DUP6 MLOAD SWAP4 DUP5 DUP2 MSTORE ADD SWAP5 ADD SWAP3 JUMPDEST DUP3 DUP2 LT PUSH2 0xD36 JUMPI POP POP POP POP SUB SWAP1 RETURN JUMPDEST DUP4 MLOAD DUP6 MSTORE DUP7 SWAP6 POP SWAP4 DUP2 ADD SWAP4 SWAP3 DUP2 ADD SWAP3 PUSH1 0x1 ADD PUSH2 0xD27 JUMP JUMPDEST DUP4 MLOAD DUP2 AND DUP7 MSTORE DUP10 SWAP9 POP SWAP5 DUP5 ADD SWAP5 SWAP3 DUP5 ADD SWAP3 PUSH1 0x1 SWAP2 SWAP1 SWAP2 ADD SWAP1 PUSH2 0xD08 JUMP JUMPDEST SWAP3 POP SWAP3 POP RETURNDATASIZE DUP1 DUP5 DUP5 RETURNDATACOPY PUSH2 0xD7D DUP2 DUP5 PUSH2 0x2A37 JUMP JUMPDEST DUP3 ADD SWAP2 PUSH1 0x40 DUP2 DUP5 SUB SLT PUSH2 0xE82 JUMPI DUP1 MLOAD PUSH8 0xFFFFFFFFFFFFFFFF SWAP1 DUP2 DUP2 GT PUSH2 0xE62 JUMPI DUP3 ADD SWAP2 DUP5 PUSH1 0x1F DUP5 ADD SLT ISZERO PUSH2 0xE62 JUMPI DUP3 MLOAD SWAP3 PUSH2 0xDB7 DUP5 PUSH2 0x2B9E JUMP JUMPDEST SWAP4 PUSH2 0xDC5 PUSH1 0x40 MLOAD SWAP6 DUP7 PUSH2 0x2A37 JUMP JUMPDEST DUP1 DUP6 MSTORE DUP6 DUP1 DUP7 ADD SWAP2 PUSH1 0x5 SHL DUP4 ADD ADD SWAP2 DUP8 DUP4 GT PUSH2 0xE7E JUMPI DUP7 DUP1 SWAP2 ADD SWAP2 JUMPDEST DUP4 DUP4 LT PUSH2 0xE66 JUMPI POP SWAP2 POP POP DUP2 ADD MLOAD SWAP2 DUP3 GT PUSH2 0xE62 JUMPI ADD SWAP3 DUP1 PUSH1 0x1F DUP6 ADD SLT ISZERO PUSH2 0xE5E JUMPI DUP4 MLOAD PUSH2 0xE0E DUP2 PUSH2 0x2B9E JUMP JUMPDEST SWAP5 PUSH2 0xE1C PUSH1 0x40 MLOAD SWAP7 DUP8 PUSH2 0x2A37 JUMP JUMPDEST DUP2 DUP7 MSTORE DUP5 DUP1 DUP8 ADD SWAP3 PUSH1 0x5 SHL DUP3 ADD ADD SWAP3 DUP4 GT PUSH2 0xE5A JUMPI DUP5 DUP1 SWAP2 ADD SWAP2 JUMPDEST DUP4 DUP4 LT PUSH2 0xE4A JUMPI POP POP POP POP SWAP2 SWAP3 CODESIZE PUSH2 0xCE5 JUMP JUMPDEST DUP3 MLOAD DUP2 MSTORE SWAP2 DUP2 ADD SWAP2 DUP6 SWAP2 ADD PUSH2 0xE37 JUMP JUMPDEST DUP7 DUP1 REVERT JUMPDEST DUP5 DUP1 REVERT JUMPDEST DUP6 DUP1 REVERT JUMPDEST DUP2 SWAP1 PUSH2 0xE71 DUP5 PUSH2 0x2CDD JUMP JUMPDEST DUP2 MSTORE ADD SWAP2 ADD SWAP1 DUP7 SWAP1 PUSH2 0xDE1 JUMP JUMPDEST DUP9 DUP1 REVERT JUMPDEST DUP4 DUP1 REVERT JUMPDEST POP CALLVALUE PUSH2 0x297 JUMPI PUSH2 0x180 PUSH32 0xFFFFFFFFFFFFFFFFFFFFFFFFFFFFFFFFFFFFFFFFFFFFFFFFFFFFFFFFFFFFFFFC CALLDATASIZE ADD SLT PUSH2 0x297 JUMPI PUSH1 0x4 CALLDATALOAD PUSH20 0xFFFFFFFFFFFFFFFFFFFFFFFFFFFFFFFFFFFFFFFF SWAP2 DUP3 DUP3 AND SWAP3 DUP4 DUP4 SUB PUSH2 0x292 JUMPI PUSH1 0x44 CALLDATALOAD SWAP1 DUP1 DUP3 AND DUP3 SUB PUSH2 0x292 JUMPI PUSH1 0x64 CALLDATALOAD SWAP1 DUP1 DUP3 AND DUP3 SUB PUSH2 0x292 JUMPI PUSH1 0xC0 PUSH32 0xFFFFFFFFFFFFFFFFFFFFFFFFFFFFFFFFFFFFFFFFFFFFFFFFFFFFFFFFFFFFFF5C CALLDATASIZE ADD SLT PUSH2 0xE82 JUMPI PUSH2 0x164 CALLDATALOAD PUSH8 0xFFFFFFFFFFFFFFFF DUP2 GT PUSH2 0xE5E JUMPI PUSH2 0xF40 SWAP1 CALLDATASIZE SWAP1 PUSH1 0x4 ADD PUSH2 0x2B3F JUMP JUMPDEST PUSH2 0xF4E PUSH1 0x84 SWAP8 SWAP3 SWAP8 CALLDATALOAD PUSH2 0x2DDB JUMP JUMPDEST PUSH2 0xF5B DUP6 PUSH1 0x24 CALLDATALOAD DUP5 PUSH2 0x2EE9 JUMP JUMPDEST SWAP7 DUP2 PUSH2 0x1113 JUMPI JUMPDEST POP POP PUSH15 0x22D473030F116DDEE9F6B43AC78BA3 SWAP2 DUP3 EXTCODESIZE ISZERO PUSH2 0xE62 JUMPI PUSH1 0x40 MLOAD PUSH32 0x36C7851600000000000000000000000000000000000000000000000000000000 DUP2 MSTORE CALLER PUSH1 0x4 DUP3 ADD MSTORE PUSH20 0xFFFFFFFFFFFFFFFFFFFFFFFFFFFFFFFFFFFFFFFF SWAP3 DUP4 AND PUSH1 0x24 DUP3 ADD MSTORE SWAP1 DUP8 AND DUP3 AND PUSH1 0x44 DUP3 ADD MSTORE PUSH32 0x0 SWAP1 SWAP2 AND PUSH1 0x64 DUP3 ADD MSTORE SWAP1 DUP5 SWAP1 DUP3 SWAP1 PUSH1 0x84 SWAP1 DUP3 SWAP1 DUP5 SWAP1 GAS CALL DUP1 ISZERO PUSH2 0x1108 JUMPI SWAP1 DUP5 SWAP2 PUSH2 0x10EF JUMPI JUMPDEST POP PUSH2 0x101F DUP6 SWAP2 PUSH2 0x2AA7 JUMP JUMPDEST SWAP6 PUSH2 0x102D PUSH1 0x40 MLOAD SWAP8 DUP9 PUSH2 0x2A37 JUMP JUMPDEST DUP5 DUP8 MSTORE PUSH32 0xFFFFFFFFFFFFFFFFFFFFFFFFFFFFFFFFFFFFFFFFFFFFFFFFFFFFFFFFFFFFFFE0 PUSH2 0x105A DUP7 PUSH2 0x2AA7 JUMP JUMPDEST ADD SWAP3 DUP6 PUSH1 0x20 SWAP6 DUP7 SWAP6 CALLDATASIZE DUP8 DUP13 ADD CALLDATACOPY PUSH2 0x10A0 PUSH1 0x40 MLOAD SWAP11 DUP12 SWAP7 DUP8 SWAP6 DUP7 SWAP5 PUSH32 0x27CE385400000000000000000000000000000000000000000000000000000000 DUP7 MSTORE PUSH1 0x4 DUP7 ADD PUSH2 0x2D9C JUMP JUMPDEST SUB SWAP3 GAS CALL SWAP2 DUP3 ISZERO PUSH2 0x695 JUMPI SWAP2 PUSH2 0x10BF JUMPI JUMPDEST PUSH1 0x40 DUP1 SWAP5 POP MLOAD SWAP3 DUP4 MSTORE DUP3 ADD MSTORE RETURN JUMPDEST DUP1 SWAP2 POP DUP4 DUP2 RETURNDATASIZE DUP4 GT PUSH2 0x10E8 JUMPI JUMPDEST PUSH2 0x10D6 DUP2 DUP4 PUSH2 0x2A37 JUMP JUMPDEST DUP2 ADD SUB SLT PUSH2 0x292 JUMPI PUSH1 0x40 SWAP3 MLOAD SWAP1 PUSH2 0x10B1 JUMP JUMPDEST POP RETURNDATASIZE PUSH2 0x10CC JUMP JUMPDEST DUP2 PUSH2 0x10F9 SWAP2 PUSH2 0x2A37 JUMP JUMPDEST PUSH2 0x1104 JUMPI DUP3 CODESIZE PUSH2 0x1014 JUMP JUMPDEST DUP3 DUP1 REVERT JUMPDEST PUSH1 0x40 MLOAD RETURNDATASIZE DUP7 DUP3 RETURNDATACOPY RETURNDATASIZE SWAP1 REVERT JUMPDEST PUSH15 0x22D473030F116DDEE9F6B43AC78BA3 SWAP1 DUP2 EXTCODESIZE ISZERO PUSH2 0x119D JUMPI SWAP2 DUP8 SWAP2 PUSH2 0x116B SWAP4 DUP4 PUSH1 0x40 MLOAD DUP1 SWAP7 DUP2 SWAP6 DUP3 SWAP5 PUSH32 0x2B67B57000000000000000000000000000000000000000000000000000000000 DUP5 MSTORE PUSH1 0xA4 CALLER PUSH1 0x4 DUP7 ADD PUSH2 0x3056 JUMP JUMPDEST SUB SWAP3 GAS CALL DUP1 ISZERO PUSH2 0x1192 JUMPI SWAP1 DUP7 SWAP2 ISZERO PUSH2 0xF62 JUMPI DUP2 PUSH2 0x1187 SWAP2 PUSH2 0x2A37 JUMP JUMPDEST PUSH2 0xE5E JUMPI DUP5 CODESIZE PUSH2 0xF62 JUMP JUMPDEST PUSH1 0x40 MLOAD RETURNDATASIZE DUP9 DUP3 RETURNDATACOPY RETURNDATASIZE SWAP1 REVERT JUMPDEST DUP8 DUP1 REVERT JUMPDEST POP CALLVALUE PUSH2 0x297 JUMPI DUP1 PUSH32 0xFFFFFFFFFFFFFFFFFFFFFFFFFFFFFFFFFFFFFFFFFFFFFFFFFFFFFFFFFFFFFFFC CALLDATASIZE ADD SLT PUSH2 0x297 JUMPI PUSH1 0x20 PUSH1 0x40 MLOAD PUSH20 0x1111111254EEB25477B68FB85ED929F73A960582 DUP2 MSTORE RETURN JUMPDEST POP CALLVALUE PUSH2 0x297 JUMPI DUP1 PUSH32 0xFFFFFFFFFFFFFFFFFFFFFFFFFFFFFFFFFFFFFFFFFFFFFFFFFFFFFFFFFFFFFFFC CALLDATASIZE ADD SLT PUSH2 0x297 JUMPI PUSH1 0x40 MLOAD PUSH32 0xF851A44000000000000000000000000000000000000000000000000000000000 DUP2 MSTORE PUSH20 0xFFFFFFFFFFFFFFFFFFFFFFFFFFFFFFFFFFFFFFFF PUSH1 0x20 DUP3 PUSH1 0x4 DUP2 DUP5 PUSH32 0x0 AND GAS STATICCALL SWAP2 DUP3 ISZERO PUSH2 0x1328 JUMPI DUP4 SWAP3 PUSH2 0x12ED JUMPI JUMPDEST POP DUP2 AND CALLER SUB PUSH2 0x12C3 JUMPI DUP2 SWAP1 SELFBALANCE DUP1 PUSH2 0x12A6 JUMPI POP POP RETURN JUMPDEST DUP3 DUP1 SWAP3 SWAP2 DUP2 SWAP3 GAS CALL ISZERO PUSH2 0x12B6 JUMPI DUP1 RETURN JUMPDEST PUSH4 0xB12D13EB SWAP1 MSTORE PUSH1 0x4 PUSH1 0x1C REVERT JUMPDEST PUSH1 0x4 PUSH1 0x40 MLOAD PUSH32 0x1A19B03600000000000000000000000000000000000000000000000000000000 DUP2 MSTORE REVERT JUMPDEST SWAP1 SWAP2 POP PUSH1 0x20 DUP2 RETURNDATASIZE DUP3 GT PUSH2 0x1320 JUMPI JUMPDEST DUP2 PUSH2 0x1308 PUSH1 0x20 SWAP4 DUP4 PUSH2 0x2A37 JUMP JUMPDEST DUP2 ADD SUB SLT PUSH2 0x1104 JUMPI PUSH2 0x1319 SWAP1 PUSH2 0x2CDD JUMP JUMPDEST SWAP1 CODESIZE PUSH2 0x1291 JUMP JUMPDEST RETURNDATASIZE SWAP2 POP PUSH2 0x12FB JUMP JUMPDEST PUSH1 0x40 MLOAD RETURNDATASIZE DUP6 DUP3 RETURNDATACOPY RETURNDATASIZE SWAP1 REVERT JUMPDEST POP CALLVALUE PUSH2 0x297 JUMPI DUP1 PUSH32 0xFFFFFFFFFFFFFFFFFFFFFFFFFFFFFFFFFFFFFFFFFFFFFFFFFFFFFFFFFFFFFFFC CALLDATASIZE ADD SLT PUSH2 0x297 JUMPI PUSH1 0x20 PUSH1 0x40 MLOAD PUSH20 0xDEF171FE48CF0115B1D80B88DC8EAB59176FEE57 DUP2 MSTORE RETURN JUMPDEST POP CALLVALUE PUSH2 0x297 JUMPI PUSH1 0xC0 PUSH32 0xFFFFFFFFFFFFFFFFFFFFFFFFFFFFFFFFFFFFFFFFFFFFFFFFFFFFFFFFFFFFFFFC CALLDATASIZE ADD SLT PUSH2 0x297 JUMPI PUSH1 0x4 CALLDATALOAD SWAP1 PUSH20 0xFFFFFFFFFFFFFFFFFFFFFFFFFFFFFFFFFFFFFFFF SWAP1 DUP2 DUP4 AND SWAP2 DUP3 DUP5 SUB PUSH2 0x292 JUMPI PUSH1 0x44 CALLDATALOAD SWAP1 DUP1 DUP3 AND DUP3 SUB PUSH2 0x292 JUMPI PUSH1 0x64 CALLDATALOAD SWAP1 DUP2 AND DUP2 SUB PUSH2 0x292 JUMPI PUSH1 0x84 CALLDATALOAD SWAP5 PUSH1 0xA4 CALLDATALOAD PUSH8 0xFFFFFFFFFFFFFFFF DUP2 GT PUSH2 0xE5E JUMPI SWAP6 PUSH2 0x1471 SWAP2 PUSH2 0x146A PUSH2 0x141E PUSH2 0x1463 SWAP9 SWAP10 CALLDATASIZE SWAP1 PUSH1 0x4 ADD PUSH2 0x2B3F JUMP JUMPDEST SWAP2 SWAP1 SWAP4 PUSH2 0x142A DUP2 PUSH2 0x2DDB JUMP JUMPDEST PUSH2 0x1437 DUP9 PUSH1 0x24 CALLDATALOAD DUP7 PUSH2 0x2EE9 JUMP JUMPDEST SWAP10 DUP11 SWAP6 PUSH32 0x0 SWAP5 CALLDATASIZE SWAP2 PUSH2 0x2D65 JUMP JUMPDEST SWAP1 DUP4 PUSH2 0x2E0D JUMP JUMPDEST CALLER SWAP1 PUSH2 0x3324 JUMP JUMPDEST DUP4 PUSH2 0x101F DUP5 PUSH2 0x2AA7 JUMP JUMPDEST POP CALLVALUE PUSH2 0x297 JUMPI PUSH2 0x1463 PUSH2 0x146A PUSH2 0x14B1 SWAP3 PUSH2 0x14DD PUSH2 0x1499 CALLDATASIZE PUSH1 0x4 PUSH2 0x2BB6 JUMP JUMPDEST SWAP3 SWAP10 DUP11 DUP7 SWAP10 SWAP4 SWAP3 SWAP7 SWAP6 PUSH2 0x14AB DUP5 PUSH2 0x2DDB JUMP JUMPDEST DUP7 PUSH2 0x2EE9 JUMP JUMPDEST SWAP9 DUP10 SWAP6 PUSH32 0x0 SWAP5 CALLDATASIZE SWAP2 PUSH2 0x2D65 JUMP JUMPDEST PUSH2 0x14E6 DUP2 PUSH2 0x2AA7 JUMP JUMPDEST SWAP2 PUSH2 0x14F4 PUSH1 0x40 MLOAD SWAP4 DUP5 PUSH2 0x2A37 JUMP JUMPDEST DUP2 DUP4 MSTORE DUP2 PUSH32 0xFFFFFFFFFFFFFFFFFFFFFFFFFFFFFFFFFFFFFFFFFFFFFFFFFFFFFFFFFFFFFFE0 PUSH2 0x1522 DUP3 PUSH2 0x2AA7 JUMP JUMPDEST ADD SWAP2 DUP2 DUP1 PUSH20 0xFFFFFFFFFFFFFFFFFFFFFFFFFFFFFFFFFFFFFFFF PUSH1 0x20 SWAP10 DUP11 SWAP7 CALLDATASIZE DUP9 DUP12 ADD CALLDATACOPY PUSH2 0x157E PUSH1 0x40 MLOAD SWAP10 DUP11 SWAP8 DUP9 SWAP7 DUP8 SWAP5 PUSH32 0x1E7DCC0D00000000000000000000000000000000000000000000000000000000 DUP7 MSTORE PUSH1 0x4 DUP7 ADD PUSH2 0x2D9C JUMP JUMPDEST SUB SWAP4 AND GAS CALL SWAP1 DUP2 ISZERO PUSH2 0x695 JUMPI POP SWAP1 DUP4 SWAP2 PUSH2 0x159D JUMPI JUMPDEST POP POP PUSH1 0x40 MLOAD SWAP1 DUP2 MSTORE RETURN JUMPDEST DUP2 RETURNDATASIZE DUP4 GT PUSH2 0x15BF JUMPI JUMPDEST PUSH2 0x15B0 DUP2 DUP4 PUSH2 0x2A37 JUMP JUMPDEST DUP2 ADD SUB SLT PUSH2 0x292 JUMPI DUP2 CODESIZE PUSH2 0x1593 JUMP JUMPDEST POP RETURNDATASIZE PUSH2 0x15A6 JUMP JUMPDEST POP CALLVALUE PUSH2 0x297 JUMPI DUP1 PUSH32 0xFFFFFFFFFFFFFFFFFFFFFFFFFFFFFFFFFFFFFFFFFFFFFFFFFFFFFFFFFFFFFFFC CALLDATASIZE ADD SLT PUSH2 0x297 JUMPI PUSH1 0x20 PUSH1 0x40 MLOAD PUSH20 0x6352A56CAADC4F1E25CD6C75970FA768A3304E64 DUP2 MSTORE RETURN JUMPDEST POP CALLVALUE PUSH2 0x297 JUMPI PUSH1 0x20 PUSH32 0xFFFFFFFFFFFFFFFFFFFFFFFFFFFFFFFFFFFFFFFFFFFFFFFFFFFFFFFFFFFFFFFC CALLDATASIZE ADD SLT PUSH2 0x297 JUMPI PUSH1 0x40 MLOAD PUSH32 0x1AD4C8C300000000000000000000000000000000000000000000000000000000 DUP2 MSTORE PUSH1 0x4 CALLDATALOAD PUSH1 0x4 DUP3 ADD MSTORE PUSH20 0xFFFFFFFFFFFFFFFFFFFFFFFFFFFFFFFFFFFFFFFF SWAP1 PUSH1 0xA0 DUP2 PUSH1 0x24 DUP2 DUP6 PUSH32 0x0 AND GAS STATICCALL SWAP1 DUP2 ISZERO PUSH2 0x1328 JUMPI SWAP3 DUP3 PUSH1 0x40 SWAP3 PUSH1 0x20 SWAP6 DUP4 SWAP2 PUSH2 0x16DA JUMPI JUMPDEST POP AND DUP2 MSTORE DUP1 DUP5 MSTORE KECCAK256 SLOAD AND PUSH1 0x40 MLOAD SWAP1 DUP2 MSTORE RETURN JUMPDEST PUSH2 0x16FB SWAP2 POP PUSH1 0xA0 RETURNDATASIZE DUP2 GT PUSH2 0x1706 JUMPI JUMPDEST PUSH2 0x16F3 DUP2 DUP4 PUSH2 0x2A37 JUMP JUMPDEST DUP2 ADD SWAP1 PUSH2 0x2CFE JUMP JUMPDEST POP SWAP3 POP POP POP CODESIZE PUSH2 0x16C8 JUMP JUMPDEST POP RETURNDATASIZE PUSH2 0x16E9 JUMP JUMPDEST POP CALLVALUE PUSH2 0x297 JUMPI PUSH1 0x40 PUSH32 0xFFFFFFFFFFFFFFFFFFFFFFFFFFFFFFFFFFFFFFFFFFFFFFFFFFFFFFFFFFFFFFFC CALLDATASIZE ADD SLT PUSH2 0x297 JUMPI PUSH1 0x4 CALLDATALOAD PUSH8 0xFFFFFFFFFFFFFFFF DUP2 GT PUSH2 0x19A3 JUMPI CALLDATASIZE PUSH1 0x23 DUP3 ADD SLT ISZERO PUSH2 0x19A3 JUMPI DUP1 PUSH1 0x4 ADD CALLDATALOAD PUSH2 0x1768 DUP2 PUSH2 0x2B9E JUMP JUMPDEST SWAP2 PUSH2 0x1776 PUSH1 0x40 MLOAD SWAP4 DUP5 PUSH2 0x2A37 JUMP JUMPDEST DUP2 DUP4 MSTORE PUSH1 0x20 SWAP1 DUP2 DUP5 ADD PUSH1 0x24 DUP1 SWAP5 PUSH1 0x5 SHL DUP4 ADD ADD SWAP2 CALLDATASIZE DUP4 GT PUSH2 0xE5A JUMPI DUP5 ADD SWAP1 JUMPDEST DUP3 DUP3 LT PUSH2 0x1977 JUMPI POP POP POP DUP2 CALLDATALOAD PUSH20 0xFFFFFFFFFFFFFFFFFFFFFFFFFFFFFFFFFFFFFFFF DUP1 DUP3 AND DUP3 SUB PUSH2 0x292 JUMPI PUSH1 0x40 MLOAD PUSH32 0xF851A44000000000000000000000000000000000000000000000000000000000 DUP2 MSTORE DUP4 DUP2 PUSH1 0x4 DUP2 DUP6 PUSH32 0x0 AND GAS STATICCALL DUP1 ISZERO PUSH2 0x196C JUMPI DUP3 SWAP2 DUP9 SWAP2 PUSH2 0x1934 JUMPI JUMPDEST POP AND CALLER SUB PUSH2 0x12C3 JUMPI DUP6 JUMPDEST DUP6 MLOAD DUP2 LT ISZERO PUSH2 0x1930 JUMPI DUP5 DUP5 DUP4 PUSH2 0x183E DUP5 DUP11 PUSH2 0x3310 JUMP JUMPDEST MLOAD AND PUSH1 0x40 MLOAD SWAP3 DUP4 DUP1 SWAP3 PUSH32 0x70A0823100000000000000000000000000000000000000000000000000000000 DUP3 MSTORE ADDRESS PUSH1 0x4 DUP4 ADD MSTORE GAS STATICCALL SWAP1 DUP2 ISZERO PUSH2 0x1925 JUMPI DUP9 SWAP2 PUSH2 0x18F8 JUMPI JUMPDEST POP DUP5 DUP9 DUP5 DUP10 DUP5 PUSH2 0x189E JUMPI JUMPDEST POP POP POP POP POP PUSH2 0x1899 SWAP1 PUSH2 0x32A4 JUMP JUMPDEST PUSH2 0x1828 JUMP JUMPDEST DUP3 PUSH1 0x44 SWAP3 PUSH2 0x18AE DUP9 PUSH1 0x10 SWAP5 PUSH2 0x3310 JUMP JUMPDEST MLOAD AND DUP10 PUSH1 0x14 MSTORE PUSH1 0x34 SWAP7 DUP8 MSTORE PUSH16 0xA9059CBB000000000000000000000000 DUP3 MSTORE GAS CALL RETURNDATASIZE ISZERO PUSH1 0x1 DUP11 MLOAD EQ OR AND ISZERO PUSH2 0x18EB JUMPI DUP8 SWAP1 MSTORE PUSH2 0x1899 DUP5 DUP9 DUP5 DUP10 PUSH2 0x188B JUMP JUMPDEST PUSH4 0x90B8EC18 DUP9 MSTORE PUSH1 0x4 PUSH1 0x1C REVERT JUMPDEST SWAP1 POP DUP5 DUP2 DUP2 RETURNDATASIZE DUP4 GT PUSH2 0x191E JUMPI JUMPDEST PUSH2 0x190F DUP2 DUP4 PUSH2 0x2A37 JUMP JUMPDEST DUP2 ADD SUB SLT PUSH2 0x292 JUMPI MLOAD CODESIZE PUSH2 0x1880 JUMP JUMPDEST POP RETURNDATASIZE PUSH2 0x1905 JUMP JUMPDEST PUSH1 0x40 MLOAD RETURNDATASIZE DUP11 DUP3 RETURNDATACOPY RETURNDATASIZE SWAP1 REVERT JUMPDEST DUP7 DUP1 RETURN JUMPDEST DUP1 SWAP3 POP DUP6 DUP1 SWAP3 POP RETURNDATASIZE DUP4 GT PUSH2 0x1965 JUMPI JUMPDEST PUSH2 0x194D DUP2 DUP4 PUSH2 0x2A37 JUMP JUMPDEST DUP2 ADD SUB SLT PUSH2 0xE5A JUMPI PUSH2 0x195F DUP3 SWAP2 PUSH2 0x2CDD JUMP JUMPDEST CODESIZE PUSH2 0x181E JUMP JUMPDEST POP RETURNDATASIZE PUSH2 0x1943 JUMP JUMPDEST PUSH1 0x40 MLOAD RETURNDATASIZE DUP10 DUP3 RETURNDATACOPY RETURNDATASIZE SWAP1 REVERT JUMPDEST DUP2 CALLDATALOAD PUSH20 0xFFFFFFFFFFFFFFFFFFFFFFFFFFFFFFFFFFFFFFFF DUP2 AND DUP2 SUB PUSH2 0x119D JUMPI DUP2 MSTORE SWAP1 DUP4 ADD SWAP1 DUP4 ADD PUSH2 0x1795 JUMP JUMPDEST POP DUP1 REVERT JUMPDEST POP CALLVALUE PUSH2 0x297 JUMPI DUP1 PUSH32 0xFFFFFFFFFFFFFFFFFFFFFFFFFFFFFFFFFFFFFFFFFFFFFFFFFFFFFFFFFFFFFFFC CALLDATASIZE ADD SLT PUSH2 0x297 JUMPI PUSH1 0x20 PUSH1 0x40 MLOAD PUSH15 0x22D473030F116DDEE9F6B43AC78BA3 DUP2 MSTORE RETURN JUMPDEST POP CALLVALUE PUSH2 0x297 JUMPI DUP1 PUSH32 0xFFFFFFFFFFFFFFFFFFFFFFFFFFFFFFFFFFFFFFFFFFFFFFFFFFFFFFFFFFFFFFFC CALLDATASIZE ADD SLT PUSH2 0x297 JUMPI PUSH2 0x1A76 PUSH2 0x1A2B PUSH1 0x5 PUSH2 0x2AA7 JUMP JUMPDEST PUSH2 0x1A38 PUSH1 0x40 MLOAD SWAP2 DUP3 PUSH2 0x2A37 JUMP JUMPDEST PUSH1 0x5 DUP2 MSTORE PUSH32 0x312E302E30000000000000000000000000000000000000000000000000000000 PUSH1 0x20 DUP3 ADD MSTORE PUSH1 0x40 MLOAD SWAP2 DUP3 SWAP2 PUSH1 0x20 DUP4 MSTORE PUSH1 0x20 DUP4 ADD SWAP1 PUSH2 0x2AE1 JUMP JUMPDEST SUB SWAP1 RETURN JUMPDEST POP CALLVALUE PUSH2 0x297 JUMPI DUP1 PUSH32 0xFFFFFFFFFFFFFFFFFFFFFFFFFFFFFFFFFFFFFFFFFFFFFFFFFFFFFFFFFFFFFFFC CALLDATASIZE ADD SLT PUSH2 0x297 JUMPI PUSH1 0x20 PUSH1 0x40 MLOAD PUSH20 0xE592427A0AECE92DE3EDEE1F18E0157C05861564 DUP2 MSTORE RETURN JUMPDEST POP CALLVALUE PUSH2 0x297 JUMPI PUSH1 0x40 PUSH32 0xFFFFFFFFFFFFFFFFFFFFFFFFFFFFFFFFFFFFFFFFFFFFFFFFFFFFFFFFFFFFFFFC CALLDATASIZE ADD SLT PUSH2 0x297 JUMPI PUSH1 0x4 CALLDATALOAD PUSH8 0xFFFFFFFFFFFFFFFF DUP2 GT PUSH2 0x19A3 JUMPI PUSH2 0x1B17 SWAP1 CALLDATASIZE SWAP1 PUSH1 0x4 ADD PUSH2 0x2B6D JUMP JUMPDEST SWAP1 PUSH1 0x24 SWAP2 DUP3 CALLDATALOAD PUSH20 0xFFFFFFFFFFFFFFFFFFFFFFFFFFFFFFFFFFFFFFFF DUP1 DUP3 AND DUP1 SWAP3 SUB PUSH2 0x292 JUMPI DUP1 PUSH32 0x0 AND SWAP3 PUSH1 0x40 MLOAD SWAP5 PUSH32 0xF851A44000000000000000000000000000000000000000000000000000000000 DUP7 MSTORE PUSH1 0x20 SWAP6 DUP7 DUP2 PUSH1 0x4 DUP2 DUP10 GAS STATICCALL DUP1 ISZERO PUSH2 0x771 JUMPI DUP5 SWAP2 DUP11 SWAP2 PUSH2 0x1E97 JUMPI JUMPDEST POP AND CALLER SUB PUSH2 0x12C3 JUMPI DUP8 JUMPDEST DUP3 DUP2 LT PUSH2 0x1BB6 JUMPI DUP9 DUP1 RETURN JUMPDEST PUSH2 0x1BC1 DUP2 DUP5 DUP5 PUSH2 0x3300 JUMP JUMPDEST CALLDATALOAD SWAP1 PUSH1 0x40 MLOAD SWAP2 PUSH32 0x1AD4C8C300000000000000000000000000000000000000000000000000000000 DUP4 MSTORE PUSH1 0x4 DUP4 ADD MSTORE PUSH1 0xA0 DUP1 DUP4 DUP12 DUP2 DUP12 GAS STATICCALL SWAP3 DUP4 ISZERO PUSH2 0x1E8C JUMPI DUP12 SWAP1 DUP13 SWAP3 DUP14 SWAP6 PUSH2 0x1E64 JUMPI JUMPDEST POP POP ISZERO PUSH2 0x1E3A JUMPI DUP6 SWAP1 DUP10 PUSH1 0xFF PUSH1 0x40 DUP15 DUP12 DUP2 MSTORE PUSH1 0x1 DUP1 SWAP5 MSTORE KECCAK256 SLOAD AND ISZERO PUSH2 0x1D94 JUMPI JUMPDEST POP AND DUP1 DUP12 MSTORE DUP11 DUP10 MSTORE DUP6 PUSH1 0x40 DUP13 KECCAK256 SWAP4 PUSH32 0xFFFFFFFFFFFFFFFFFFFFFFFF0000000000000000000000000000000000000000 SWAP5 DUP10 DUP7 DUP3 SLOAD AND OR SWAP1 SSTORE AND SWAP1 DUP2 DUP13 MSTORE PUSH1 0x40 DUP13 KECCAK256 DUP9 DUP6 DUP3 SLOAD AND OR SWAP1 SSTORE PUSH1 0x40 MLOAD SWAP4 PUSH32 0x6F307DC300000000000000000000000000000000000000000000000000000000 DUP6 MSTORE DUP11 DUP6 PUSH1 0x4 DUP2 DUP7 GAS STATICCALL SWAP1 DUP14 DUP3 ISZERO PUSH2 0x695 JUMPI DUP10 DUP14 SWAP4 DUP13 SWAP9 DUP4 SWAP2 PUSH2 0x1D22 JUMPI JUMPDEST POP SWAP8 PUSH1 0x40 DUP4 PUSH1 0x80 SWAP7 SWAP5 PUSH32 0xC7502982709BB9CDA5FD431F4C948F40A65965127A4E069F83CB4F168A599E03 SWAP9 SWAP7 SWAP5 PUSH2 0x1D1D SWAP13 AND SWAP6 DUP7 DUP3 MSTORE MSTORE KECCAK256 SWAP2 DUP3 SLOAD AND OR SWAP1 SSTORE PUSH2 0x1D00 DUP7 DUP11 DUP11 PUSH2 0x3300 JUMP JUMPDEST CALLDATALOAD SWAP5 PUSH1 0x40 MLOAD SWAP3 DUP4 MSTORE DUP14 DUP4 ADD MSTORE PUSH1 0x40 DUP3 ADD MSTORE DUP10 PUSH1 0x60 DUP3 ADD MSTORE LOG2 PUSH2 0x32A4 JUMP JUMPDEST PUSH2 0x1BAB JUMP JUMPDEST SWAP9 POP POP POP SWAP2 DUP7 DUP2 SWAP5 SWAP3 SWAP5 RETURNDATASIZE DUP4 GT PUSH2 0x1D8D JUMPI JUMPDEST PUSH2 0x1D3E DUP2 DUP4 PUSH2 0x2A37 JUMP JUMPDEST DUP2 ADD SUB SLT PUSH2 0x19A3 JUMPI DUP12 PUSH32 0xC7502982709BB9CDA5FD431F4C948F40A65965127A4E069F83CB4F168A599E03 SWAP4 DUP12 PUSH1 0x40 DUP6 PUSH1 0x80 SWAP7 DUP15 PUSH2 0x1D7D PUSH2 0x1D1D SWAP14 PUSH2 0x2CDD JUMP JUMPDEST SWAP5 SWAP13 POP SWAP5 SWAP7 SWAP9 POP POP SWAP4 SWAP6 POP PUSH2 0x1CB6 JUMP JUMPDEST POP RETURNDATASIZE PUSH2 0x1D34 JUMP JUMPDEST SWAP1 SWAP2 POP PUSH1 0x2 DUP1 SLOAD SWAP1 PUSH9 0x10000000000000000 DUP3 LT ISZERO PUSH2 0x1E0E JUMPI PUSH2 0x1DC0 DUP3 DUP12 SWAP3 DUP6 DUP13 SWAP8 SWAP7 SWAP6 ADD DUP2 SSTORE PUSH2 0x2C96 JUMP JUMPDEST DUP2 SWAP3 SWAP2 SLOAD SWAP1 PUSH1 0x3 SHL DUP7 DUP2 SHL SWAP3 DUP4 SWAP2 SHL AND SWAP2 NOT AND OR SWAP1 SSTORE DUP9 DUP14 MSTORE DUP1 DUP12 MSTORE PUSH1 0x40 DUP14 KECCAK256 SWAP1 PUSH32 0xFFFFFFFFFFFFFFFFFFFFFFFFFFFFFFFFFFFFFFFFFFFFFFFFFFFFFFFFFFFFFF00 DUP3 SLOAD AND OR SWAP1 SSTORE CODESIZE PUSH2 0x1C2A JUMP JUMPDEST DUP13 DUP15 PUSH32 0x4E487B7100000000000000000000000000000000000000000000000000000000 DUP2 MSTORE PUSH1 0x41 PUSH1 0x4 MSTORE REVERT JUMPDEST PUSH1 0x4 PUSH1 0x40 MLOAD PUSH32 0x51A9CA5300000000000000000000000000000000000000000000000000000000 DUP2 MSTORE REVERT JUMPDEST SWAP2 POP SWAP2 POP PUSH2 0x1E7F SWAP3 SWAP4 POP DUP1 RETURNDATASIZE LT PUSH2 0x1706 JUMPI PUSH2 0x16F3 DUP2 DUP4 PUSH2 0x2A37 JUMP JUMPDEST POP SWAP4 SWAP3 SWAP1 SWAP2 POP CODESIZE DUP1 PUSH2 0x1C0A JUMP JUMPDEST PUSH1 0x40 MLOAD RETURNDATASIZE DUP14 DUP3 RETURNDATACOPY RETURNDATASIZE SWAP1 REVERT JUMPDEST DUP1 SWAP3 POP DUP9 DUP1 SWAP3 POP RETURNDATASIZE DUP4 GT PUSH2 0x1EC8 JUMPI JUMPDEST PUSH2 0x1EB0 DUP2 DUP4 PUSH2 0x2A37 JUMP JUMPDEST DUP2 ADD SUB SLT PUSH2 0xE7E JUMPI PUSH2 0x1EC2 DUP5 SWAP2 PUSH2 0x2CDD JUMP JUMPDEST CODESIZE PUSH2 0x1BA1 JUMP JUMPDEST POP RETURNDATASIZE PUSH2 0x1EA6 JUMP JUMPDEST POP CALLVALUE PUSH2 0x297 JUMPI DUP1 PUSH32 0xFFFFFFFFFFFFFFFFFFFFFFFFFFFFFFFFFFFFFFFFFFFFFFFFFFFFFFFFFFFFFFFC CALLDATASIZE ADD SLT PUSH2 0x297 JUMPI PUSH1 0x20 PUSH1 0x40 MLOAD PUSH20 0xDEF1C0DED9BEC7F1A1670819833240F027B25EFF DUP2 MSTORE RETURN JUMPDEST POP CALLVALUE PUSH2 0x297 JUMPI PUSH1 0xE0 PUSH32 0xFFFFFFFFFFFFFFFFFFFFFFFFFFFFFFFFFFFFFFFFFFFFFFFFFFFFFFFFFFFFFFFC CALLDATASIZE ADD SLT PUSH2 0x297 JUMPI PUSH1 0x4 CALLDATALOAD SWAP1 PUSH20 0xFFFFFFFFFFFFFFFFFFFFFFFFFFFFFFFFFFFFFFFF DUP3 AND DUP3 SUB PUSH2 0x292 JUMPI PUSH20 0xFFFFFFFFFFFFFFFFFFFFFFFFFFFFFFFFFFFFFFFF PUSH1 0x24 CALLDATALOAD AND PUSH1 0x24 CALLDATALOAD SUB PUSH2 0x292 JUMPI PUSH20 0xFFFFFFFFFFFFFFFFFFFFFFFFFFFFFFFFFFFFFFFF PUSH1 0x64 CALLDATALOAD AND PUSH1 0x64 CALLDATALOAD SUB PUSH2 0x292 JUMPI PUSH1 0x8 PUSH1 0xA4 CALLDATALOAD LT ISZERO PUSH2 0x297 JUMPI PUSH1 0xC4 CALLDATALOAD PUSH8 0xFFFFFFFFFFFFFFFF DUP2 GT PUSH2 0x19A3 JUMPI PUSH2 0x1FDA SWAP1 CALLDATASIZE SWAP1 PUSH1 0x4 ADD PUSH2 0x2B6D JUMP JUMPDEST PUSH2 0x1FE8 PUSH1 0x84 SWAP5 SWAP3 SWAP5 CALLDATALOAD PUSH2 0x2DDB JUMP JUMPDEST PUSH2 0x1FF7 PUSH1 0x64 CALLDATALOAD PUSH1 0x44 CALLDATALOAD DUP5 PUSH2 0x2EE9 JUMP JUMPDEST SWAP4 PUSH1 0x40 MLOAD SWAP2 PUSH32 0x6F307DC300000000000000000000000000000000000000000000000000000000 DUP4 MSTORE PUSH1 0x20 DUP4 PUSH1 0x4 DUP2 PUSH20 0xFFFFFFFFFFFFFFFFFFFFFFFFFFFFFFFFFFFFFFFF PUSH1 0x24 CALLDATALOAD AND GAS STATICCALL SWAP3 DUP4 ISZERO PUSH2 0x2241 JUMPI DUP6 SWAP4 PUSH2 0x21D7 JUMPI JUMPDEST POP SWAP3 PUSH1 0xE0 PUSH2 0x2152 PUSH1 0x20 SWAP5 PUSH2 0x20C0 PUSH2 0x218F SWAP6 PUSH20 0xFFFFFFFFFFFFFFFFFFFFFFFFFFFFFFFFFFFFFFFF SWAP10 SWAP9 DUP11 PUSH1 0x40 MLOAD SWAP5 PUSH2 0x2087 PUSH2 0x100 DUP8 PUSH2 0x2A37 JUMP JUMPDEST AND DUP5 MSTORE DUP11 PUSH1 0x24 CALLDATALOAD AND DUP10 DUP6 ADD MSTORE DUP11 DUP8 AND PUSH1 0x40 DUP6 ADD MSTORE CALLER PUSH1 0x60 DUP6 ADD MSTORE DUP11 PUSH1 0x64 CALLDATALOAD AND PUSH1 0x80 DUP6 ADD MSTORE DUP12 PUSH1 0xA0 DUP6 ADD MSTORE PUSH2 0x4EA PUSH1 0xA4 CALLDATALOAD PUSH1 0xC0 DUP7 ADD PUSH2 0x3162 JUMP JUMPDEST DUP4 DUP3 ADD MSTORE PUSH2 0x2126 PUSH1 0x40 MLOAD SWAP4 DUP5 SWAP3 DUP9 DUP1 DUP6 ADD MSTORE DUP11 DUP2 MLOAD AND PUSH1 0x40 DUP6 ADD MSTORE DUP11 DUP10 DUP3 ADD MLOAD AND PUSH1 0x60 DUP6 ADD MSTORE DUP11 PUSH1 0x40 DUP3 ADD MLOAD AND PUSH1 0x80 DUP6 ADD MSTORE DUP11 PUSH1 0x60 DUP3 ADD MLOAD AND PUSH1 0xA0 DUP6 ADD MSTORE DUP11 PUSH1 0x80 DUP3 ADD MLOAD AND PUSH1 0xC0 DUP6 ADD MSTORE PUSH1 0xA0 DUP2 ADD MLOAD DUP3 DUP6 ADD MSTORE PUSH2 0x5A5 PUSH1 0xC0 DUP3 ADD MLOAD PUSH2 0x100 DUP7 ADD SWAP1 PUSH2 0x321D JUMP JUMPDEST SUB PUSH32 0xFFFFFFFFFFFFFFFFFFFFFFFFFFFFFFFFFFFFFFFFFFFFFFFFFFFFFFFFFFFFFFE0 DUP2 ADD DUP4 MSTORE DUP3 PUSH2 0x2A37 JUMP JUMPDEST DUP5 PUSH1 0x40 MLOAD SWAP7 DUP8 DUP1 SWAP6 DUP2 SWAP5 PUSH32 0x27CE385400000000000000000000000000000000000000000000000000000000 DUP4 MSTORE DUP12 PUSH1 0x24 CALLDATALOAD PUSH1 0x64 CALLDATALOAD PUSH1 0x4 DUP7 ADD PUSH2 0x2D9C JUMP JUMPDEST SUB SWAP4 AND GAS CALL SWAP1 DUP2 ISZERO PUSH2 0x695 JUMPI POP PUSH2 0x21AC JUMPI JUMPDEST PUSH1 0x20 DUP3 PUSH1 0x40 MLOAD SWAP1 DUP2 MSTORE RETURN JUMPDEST PUSH1 0x20 SWAP1 DUP2 RETURNDATASIZE DUP4 GT PUSH2 0x21D0 JUMPI JUMPDEST PUSH2 0x21C2 DUP2 DUP4 PUSH2 0x2A37 JUMP JUMPDEST DUP2 ADD SUB SLT PUSH2 0x292 JUMPI CODESIZE PUSH2 0x21A1 JUMP JUMPDEST POP RETURNDATASIZE PUSH2 0x21B8 JUMP JUMPDEST SWAP1 SWAP3 POP PUSH1 0x20 DUP2 RETURNDATASIZE PUSH1 0x20 GT PUSH2 0x2239 JUMPI JUMPDEST DUP2 PUSH2 0x21F3 PUSH1 0x20 SWAP4 DUP4 PUSH2 0x2A37 JUMP JUMPDEST DUP2 ADD SUB SLT PUSH2 0xE5E JUMPI SWAP3 PUSH1 0xE0 PUSH2 0x2152 PUSH1 0x20 SWAP5 PUSH2 0x20C0 PUSH2 0x218F SWAP6 PUSH2 0x222A PUSH20 0xFFFFFFFFFFFFFFFFFFFFFFFFFFFFFFFFFFFFFFFF SWAP11 SWAP10 PUSH2 0x2CDD JUMP JUMPDEST SWAP8 POP SWAP6 POP POP SWAP3 SWAP6 SWAP7 POP POP PUSH2 0x204E JUMP JUMPDEST RETURNDATASIZE SWAP2 POP PUSH2 0x21E6 JUMP JUMPDEST PUSH1 0x40 MLOAD RETURNDATASIZE DUP8 DUP3 RETURNDATACOPY RETURNDATASIZE SWAP1 REVERT JUMPDEST POP CALLVALUE PUSH2 0x297 JUMPI PUSH2 0x140 PUSH32 0xFFFFFFFFFFFFFFFFFFFFFFFFFFFFFFFFFFFFFFFFFFFFFFFFFFFFFFFFFFFFFFFC CALLDATASIZE ADD SLT PUSH2 0x297 JUMPI PUSH1 0x4 CALLDATALOAD PUSH20 0xFFFFFFFFFFFFFFFFFFFFFFFFFFFFFFFFFFFFFFFF SWAP2 DUP3 DUP3 AND SWAP2 DUP3 DUP2 SUB PUSH2 0x292 JUMPI PUSH1 0x44 CALLDATALOAD SWAP3 DUP5 DUP5 AND DUP5 SUB PUSH2 0x292 JUMPI PUSH1 0x64 CALLDATALOAD SWAP5 DUP6 AND DUP6 SUB PUSH2 0x292 JUMPI PUSH1 0x80 PUSH32 0xFFFFFFFFFFFFFFFFFFFFFFFFFFFFFFFFFFFFFFFFFFFFFFFFFFFFFFFFFFFFFF5C CALLDATASIZE ADD SLT PUSH2 0x1104 JUMPI PUSH2 0x124 CALLDATALOAD SWAP5 PUSH8 0xFFFFFFFFFFFFFFFF DUP7 GT PUSH2 0xE82 JUMPI PUSH2 0x2321 PUSH2 0x230A DUP7 SWAP8 CALLDATASIZE SWAP1 PUSH1 0x4 ADD PUSH2 0x2B3F JUMP JUMPDEST SWAP7 SWAP1 SWAP5 PUSH2 0x2318 PUSH1 0x84 CALLDATALOAD PUSH2 0x2DDB JUMP JUMPDEST PUSH1 0x24 CALLDATALOAD SWAP1 PUSH2 0x2EE9 JUMP JUMPDEST SWAP5 PUSH1 0x40 MLOAD PUSH2 0x2330 PUSH1 0x40 DUP3 PUSH2 0x2A37 JUMP JUMPDEST DUP4 DUP2 MSTORE PUSH1 0x20 SWAP5 DUP8 DUP7 DUP4 ADD MSTORE PUSH15 0x22D473030F116DDEE9F6B43AC78BA3 SWAP2 DUP3 EXTCODESIZE ISZERO PUSH2 0x119D JUMPI SWAP2 PUSH2 0x2396 SWAP4 SWAP2 DUP9 DUP1 SWAP5 PUSH1 0x40 MLOAD SWAP7 DUP8 SWAP6 DUP7 SWAP5 DUP6 SWAP4 PUSH32 0x30F28B7A00000000000000000000000000000000000000000000000000000000 DUP6 MSTORE CALLER SWAP1 PUSH1 0xA4 PUSH1 0x4 DUP8 ADD PUSH2 0x30F4 JUMP JUMPDEST SUB SWAP3 GAS CALL DUP1 ISZERO PUSH2 0x2241 JUMPI SWAP2 DUP6 DUP6 SWAP5 SWAP3 DUP9 SWAP5 PUSH2 0x2430 JUMPI JUMPDEST POP PUSH2 0x23B6 DUP2 PUSH2 0x2AA7 JUMP JUMPDEST SWAP9 PUSH2 0x23C4 PUSH1 0x40 MLOAD SWAP11 DUP12 PUSH2 0x2A37 JUMP JUMPDEST DUP2 DUP11 MSTORE PUSH32 0xFFFFFFFFFFFFFFFFFFFFFFFFFFFFFFFFFFFFFFFFFFFFFFFFFFFFFFFFFFFFFFE0 PUSH2 0x23F1 DUP4 PUSH2 0x2AA7 JUMP JUMPDEST ADD CALLDATASIZE DUP8 DUP13 ADD CALLDATACOPY PUSH2 0x10A0 PUSH1 0x40 MLOAD SWAP11 DUP12 SWAP7 DUP8 SWAP6 DUP7 SWAP5 PUSH32 0x27CE385400000000000000000000000000000000000000000000000000000000 DUP7 MSTORE PUSH1 0x4 DUP7 ADD PUSH2 0x2D9C JUMP JUMPDEST DUP2 SWAP4 SWAP6 POP PUSH2 0x243F SWAP3 SWAP5 POP PUSH2 0x2A37 JUMP JUMPDEST PUSH2 0xE82 JUMPI DUP3 SWAP2 DUP6 SWAP2 DUP6 CODESIZE PUSH2 0x23AC JUMP JUMPDEST POP CALLVALUE PUSH2 0x297 JUMPI PUSH2 0x160 PUSH32 0xFFFFFFFFFFFFFFFFFFFFFFFFFFFFFFFFFFFFFFFFFFFFFFFFFFFFFFFFFFFFFFFC CALLDATASIZE ADD SLT PUSH2 0x297 JUMPI PUSH1 0x4 CALLDATALOAD PUSH20 0xFFFFFFFFFFFFFFFFFFFFFFFFFFFFFFFFFFFFFFFF SWAP2 DUP3 DUP3 AND SWAP1 DUP2 DUP4 SUB PUSH2 0x292 JUMPI PUSH1 0x44 CALLDATALOAD SWAP4 DUP1 DUP6 AND DUP6 SUB PUSH2 0x292 JUMPI PUSH1 0xC0 PUSH32 0xFFFFFFFFFFFFFFFFFFFFFFFFFFFFFFFFFFFFFFFFFFFFFFFFFFFFFFFFFFFFFF7C CALLDATASIZE ADD SLT PUSH2 0x19A3 JUMPI PUSH2 0x144 CALLDATALOAD PUSH8 0xFFFFFFFFFFFFFFFF DUP2 GT PUSH2 0x1104 JUMPI PUSH2 0x24FB SWAP1 CALLDATASIZE SWAP1 PUSH1 0x4 ADD PUSH2 0x2B3F JUMP JUMPDEST PUSH2 0x2509 PUSH1 0x64 SWAP7 SWAP3 SWAP7 CALLDATALOAD PUSH2 0x2DDB JUMP JUMPDEST PUSH2 0x2516 DUP8 PUSH1 0x24 CALLDATALOAD DUP5 PUSH2 0x2EE9 JUMP JUMPDEST SWAP6 DUP2 PUSH2 0x268B JUMPI JUMPDEST POP POP PUSH15 0x22D473030F116DDEE9F6B43AC78BA3 SWAP1 DUP2 EXTCODESIZE ISZERO PUSH2 0xE82 JUMPI PUSH1 0x40 MLOAD PUSH32 0x36C7851600000000000000000000000000000000000000000000000000000000 DUP2 MSTORE CALLER PUSH1 0x4 DUP3 ADD MSTORE PUSH20 0xFFFFFFFFFFFFFFFFFFFFFFFFFFFFFFFFFFFFFFFF SWAP2 DUP3 AND PUSH1 0x24 DUP3 ADD MSTORE SWAP3 DUP7 AND DUP2 AND PUSH1 0x44 DUP5 ADD MSTORE PUSH32 0x0 AND PUSH1 0x64 DUP4 ADD MSTORE DUP3 SWAP1 DUP3 SWAP1 PUSH1 0x84 SWAP1 DUP3 SWAP1 DUP5 SWAP1 GAS CALL DUP1 ISZERO PUSH2 0x95F JUMPI SWAP1 DUP3 SWAP2 PUSH2 0x2676 JUMPI JUMPDEST POP PUSH2 0x25D6 SWAP1 PUSH2 0x2AA7 JUMP JUMPDEST SWAP2 PUSH2 0x25E4 PUSH1 0x40 MLOAD SWAP4 DUP5 PUSH2 0x2A37 JUMP JUMPDEST DUP2 DUP4 MSTORE DUP2 PUSH32 0xFFFFFFFFFFFFFFFFFFFFFFFFFFFFFFFFFFFFFFFFFFFFFFFFFFFFFFFFFFFFFFE0 PUSH2 0x2612 DUP3 PUSH2 0x2AA7 JUMP JUMPDEST ADD SWAP2 DUP2 DUP1 PUSH1 0x20 SWAP9 DUP10 SWAP6 CALLDATASIZE DUP8 DUP11 ADD CALLDATACOPY PUSH2 0x2659 PUSH1 0x40 MLOAD SWAP9 DUP10 SWAP7 DUP8 SWAP6 DUP7 SWAP5 PUSH32 0x1E7DCC0D00000000000000000000000000000000000000000000000000000000 DUP7 MSTORE PUSH1 0x4 DUP7 ADD PUSH2 0x2D9C JUMP JUMPDEST SUB SWAP3 GAS CALL SWAP1 DUP2 ISZERO PUSH2 0x695 JUMPI POP SWAP1 DUP4 SWAP2 PUSH2 0x159D JUMPI POP POP PUSH1 0x40 MLOAD SWAP1 DUP2 MSTORE RETURN JUMPDEST DUP2 PUSH2 0x2680 SWAP2 PUSH2 0x2A37 JUMP JUMPDEST PUSH2 0x297 JUMPI DUP1 CODESIZE PUSH2 0x25CC JUMP JUMPDEST PUSH15 0x22D473030F116DDEE9F6B43AC78BA3 SWAP1 DUP2 EXTCODESIZE ISZERO PUSH2 0xE62 JUMPI SWAP2 DUP6 SWAP2 PUSH2 0x26E3 SWAP4 DUP4 PUSH1 0x40 MLOAD DUP1 SWAP7 DUP2 SWAP6 DUP3 SWAP5 PUSH32 0x2B67B57000000000000000000000000000000000000000000000000000000000 DUP5 MSTORE PUSH1 0x84 CALLER PUSH1 0x4 DUP7 ADD PUSH2 0x3056 JUMP JUMPDEST SUB SWAP3 GAS CALL DUP1 ISZERO PUSH2 0x1108 JUMPI SWAP1 DUP5 SWAP2 ISZERO PUSH2 0x251D JUMPI DUP2 PUSH2 0x26FF SWAP2 PUSH2 0x2A37 JUMP JUMPDEST PUSH2 0x1104 JUMPI DUP3 CODESIZE PUSH2 0x251D JUMP JUMPDEST POP CALLVALUE PUSH2 0x297 JUMPI PUSH2 0x120 PUSH32 0xFFFFFFFFFFFFFFFFFFFFFFFFFFFFFFFFFFFFFFFFFFFFFFFFFFFFFFFFFFFFFFFC CALLDATASIZE ADD SLT PUSH2 0x297 JUMPI PUSH1 0x4 CALLDATALOAD PUSH20 0xFFFFFFFFFFFFFFFFFFFFFFFFFFFFFFFFFFFFFFFF DUP1 DUP3 AND SWAP3 DUP4 DUP4 SUB PUSH2 0x297 JUMPI PUSH1 0x44 CALLDATALOAD SWAP2 DUP3 AND DUP3 SUB PUSH2 0x297 JUMPI PUSH1 0x80 PUSH32 0xFFFFFFFFFFFFFFFFFFFFFFFFFFFFFFFFFFFFFFFFFFFFFFFFFFFFFFFFFFFFFF7C CALLDATASIZE ADD SLT PUSH2 0x297 JUMPI PUSH2 0x104 CALLDATALOAD SWAP4 PUSH8 0xFFFFFFFFFFFFFFFF DUP6 GT PUSH2 0x19A3 JUMPI PUSH2 0x27C9 PUSH2 0x27BB DUP5 SWAP6 SWAP7 CALLDATASIZE SWAP1 PUSH1 0x4 ADD PUSH2 0x2B3F JUMP JUMPDEST SWAP6 SWAP1 SWAP7 PUSH2 0x2318 PUSH1 0x64 CALLDATALOAD PUSH2 0x2DDB JUMP JUMPDEST SWAP4 PUSH1 0x40 MLOAD PUSH2 0x27D8 PUSH1 0x40 DUP3 PUSH2 0x2A37 JUMP JUMPDEST DUP3 DUP2 MSTORE PUSH1 0x20 SWAP7 DUP7 DUP9 DUP4 ADD MSTORE PUSH15 0x22D473030F116DDEE9F6B43AC78BA3 SWAP2 DUP3 EXTCODESIZE ISZERO PUSH2 0xE62 JUMPI SWAP2 PUSH2 0x283E SWAP4 SWAP2 DUP7 DUP1 SWAP5 PUSH1 0x40 MLOAD SWAP7 DUP8 SWAP6 DUP7 SWAP5 DUP6 SWAP4 PUSH32 0x30F28B7A00000000000000000000000000000000000000000000000000000000 DUP6 MSTORE CALLER SWAP1 PUSH1 0x84 PUSH1 0x4 DUP8 ADD PUSH2 0x30F4 JUMP JUMPDEST SUB SWAP3 GAS CALL DUP1 ISZERO PUSH2 0x1328 JUMPI SWAP1 DUP7 SWAP3 SWAP2 PUSH2 0x28D9 JUMPI JUMPDEST POP DUP3 SWAP1 DUP2 DUP1 PUSH2 0x285F DUP2 PUSH2 0x2AA7 JUMP JUMPDEST SWAP7 PUSH2 0x286D PUSH1 0x40 MLOAD SWAP9 DUP10 PUSH2 0x2A37 JUMP JUMPDEST DUP2 DUP9 MSTORE PUSH32 0xFFFFFFFFFFFFFFFFFFFFFFFFFFFFFFFFFFFFFFFFFFFFFFFFFFFFFFFFFFFFFFE0 PUSH2 0x289A DUP4 PUSH2 0x2AA7 JUMP JUMPDEST ADD CALLDATASIZE DUP8 DUP11 ADD CALLDATACOPY PUSH2 0x2659 PUSH1 0x40 MLOAD SWAP9 DUP10 SWAP7 DUP8 SWAP6 DUP7 SWAP5 PUSH32 0x1E7DCC0D00000000000000000000000000000000000000000000000000000000 DUP7 MSTORE PUSH1 0x4 DUP7 ADD PUSH2 0x2D9C JUMP JUMPDEST DUP4 PUSH2 0x28E6 SWAP2 SWAP5 SWAP3 SWAP5 PUSH2 0x2A37 JUMP JUMPDEST SWAP2 CODESIZE PUSH2 0x2851 JUMP JUMPDEST POP CALLVALUE PUSH2 0x297 JUMPI DUP1 PUSH32 0xFFFFFFFFFFFFFFFFFFFFFFFFFFFFFFFFFFFFFFFFFFFFFFFFFFFFFFFFFFFFFFFC CALLDATASIZE ADD SLT PUSH2 0x297 JUMPI PUSH1 0x20 PUSH1 0x2 SLOAD PUSH1 0x40 MLOAD SWAP1 DUP2 MSTORE RETURN JUMPDEST POP CALLVALUE PUSH2 0x297 JUMPI DUP1 PUSH32 0xFFFFFFFFFFFFFFFFFFFFFFFFFFFFFFFFFFFFFFFFFFFFFFFFFFFFFFFFFFFFFFFC CALLDATASIZE ADD SLT PUSH2 0x297 JUMPI PUSH2 0x1A76 PUSH2 0x2965 PUSH1 0x15 PUSH2 0x2AA7 JUMP JUMPDEST PUSH2 0x2972 PUSH1 0x40 MLOAD SWAP2 DUP3 PUSH2 0x2A37 JUMP JUMPDEST PUSH1 0x15 DUP2 MSTORE PUSH32 0x4379676E75733A20416C7461697220526F757465720000000000000000000000 PUSH1 0x20 DUP3 ADD MSTORE PUSH1 0x40 MLOAD SWAP2 DUP3 SWAP2 PUSH1 0x20 DUP4 MSTORE PUSH1 0x20 DUP4 ADD SWAP1 PUSH2 0x2AE1 JUMP JUMPDEST SWAP1 POP CALLVALUE PUSH2 0x19A3 JUMPI PUSH1 0x20 PUSH32 0xFFFFFFFFFFFFFFFFFFFFFFFFFFFFFFFFFFFFFFFFFFFFFFFFFFFFFFFFFFFFFFFC CALLDATASIZE ADD SLT PUSH2 0x19A3 JUMPI PUSH1 0x4 CALLDATALOAD PUSH20 0xFFFFFFFFFFFFFFFFFFFFFFFFFFFFFFFFFFFFFFFF SWAP1 DUP2 DUP2 AND DUP1 SWAP2 SUB PUSH2 0xE82 JUMPI DUP4 PUSH1 0x40 SWAP2 PUSH1 0x20 SWAP6 MSTORE DUP1 DUP6 MSTORE KECCAK256 SLOAD AND DUP2 MSTORE RETURN JUMPDEST CALLDATALOAD SWAP1 PUSH20 0xFFFFFFFFFFFFFFFFFFFFFFFFFFFFFFFFFFFFFFFF DUP3 AND DUP3 SUB PUSH2 0x292 JUMPI JUMP JUMPDEST SWAP1 PUSH1 0x1F PUSH32 0xFFFFFFFFFFFFFFFFFFFFFFFFFFFFFFFFFFFFFFFFFFFFFFFFFFFFFFFFFFFFFFE0 SWAP2 ADD AND DUP2 ADD SWAP1 DUP2 LT PUSH8 0xFFFFFFFFFFFFFFFF DUP3 GT OR PUSH2 0x2A78 JUMPI PUSH1 0x40 MSTORE JUMP JUMPDEST PUSH32 0x4E487B7100000000000000000000000000000000000000000000000000000000 PUSH1 0x0 MSTORE PUSH1 0x41 PUSH1 0x4 MSTORE PUSH1 0x24 PUSH1 0x0 REVERT JUMPDEST PUSH8 0xFFFFFFFFFFFFFFFF DUP2 GT PUSH2 0x2A78 JUMPI PUSH1 0x1F ADD PUSH32 0xFFFFFFFFFFFFFFFFFFFFFFFFFFFFFFFFFFFFFFFFFFFFFFFFFFFFFFFFFFFFFFE0 AND PUSH1 0x20 ADD SWAP1 JUMP JUMPDEST SWAP2 SWAP1 DUP3 MLOAD SWAP3 DUP4 DUP3 MSTORE PUSH1 0x0 JUMPDEST DUP5 DUP2 LT PUSH2 0x2B2B JUMPI POP POP PUSH32 0xFFFFFFFFFFFFFFFFFFFFFFFFFFFFFFFFFFFFFFFFFFFFFFFFFFFFFFFFFFFFFFE0 PUSH1 0x1F DUP5 PUSH1 0x0 PUSH1 0x20 DUP1 SWAP7 SWAP8 DUP7 ADD ADD MSTORE ADD AND ADD ADD SWAP1 JUMP JUMPDEST PUSH1 0x20 DUP2 DUP4 ADD DUP2 ADD MLOAD DUP5 DUP4 ADD DUP3 ADD MSTORE ADD PUSH2 0x2AEC JUMP JUMPDEST SWAP2 DUP2 PUSH1 0x1F DUP5 ADD SLT ISZERO PUSH2 0x292 JUMPI DUP3 CALLDATALOAD SWAP2 PUSH8 0xFFFFFFFFFFFFFFFF DUP4 GT PUSH2 0x292 JUMPI PUSH1 0x20 DUP4 DUP2 DUP7 ADD SWAP6 ADD ADD GT PUSH2 0x292 JUMPI JUMP JUMPDEST SWAP2 DUP2 PUSH1 0x1F DUP5 ADD SLT ISZERO PUSH2 0x292 JUMPI DUP3 CALLDATALOAD SWAP2 PUSH8 0xFFFFFFFFFFFFFFFF DUP4 GT PUSH2 0x292 JUMPI PUSH1 0x20 DUP1 DUP6 ADD SWAP5 DUP5 PUSH1 0x5 SHL ADD ADD GT PUSH2 0x292 JUMPI JUMP JUMPDEST PUSH8 0xFFFFFFFFFFFFFFFF DUP2 GT PUSH2 0x2A78 JUMPI PUSH1 0x5 SHL PUSH1 0x20 ADD SWAP1 JUMP JUMPDEST SWAP2 SWAP1 SWAP2 PUSH1 0xA0 DUP2 DUP5 SUB SLT PUSH2 0x292 JUMPI PUSH2 0x2BCC DUP2 PUSH2 0x2A16 JUMP JUMPDEST SWAP3 PUSH1 0x20 DUP3 ADD CALLDATALOAD SWAP3 PUSH2 0x2BDF PUSH1 0x40 DUP5 ADD PUSH2 0x2A16 JUMP JUMPDEST SWAP3 PUSH1 0x60 DUP2 ADD CALLDATALOAD SWAP3 PUSH1 0x80 DUP3 ADD CALLDATALOAD PUSH8 0xFFFFFFFFFFFFFFFF DUP2 GT PUSH2 0x292 JUMPI PUSH2 0x2C04 SWAP3 ADD PUSH2 0x2B3F JUMP JUMPDEST SWAP1 SWAP2 JUMP JUMPDEST SWAP2 PUSH2 0x120 DUP4 DUP4 SUB SLT PUSH2 0x292 JUMPI PUSH2 0x2C1D DUP4 PUSH2 0x2A16 JUMP JUMPDEST SWAP3 PUSH2 0x2C2A PUSH1 0x20 DUP3 ADD PUSH2 0x2A16 JUMP JUMPDEST SWAP3 PUSH2 0x2C37 PUSH1 0x40 DUP4 ADD PUSH2 0x2A16 JUMP JUMPDEST SWAP3 PUSH1 0x60 DUP4 ADD CALLDATALOAD SWAP3 PUSH1 0x80 DUP2 ADD CALLDATALOAD SWAP3 PUSH1 0xA0 DUP3 ADD CALLDATALOAD SWAP3 PUSH8 0xFFFFFFFFFFFFFFFF SWAP1 PUSH1 0xC0 DUP5 ADD CALLDATALOAD DUP3 DUP2 GT PUSH2 0x292 JUMPI DUP4 PUSH2 0x2C6C SWAP2 DUP7 ADD PUSH2 0x2B3F JUMP JUMPDEST SWAP5 SWAP1 SWAP5 SWAP4 PUSH1 0xE0 DUP3 ADD CALLDATALOAD PUSH1 0x8 DUP2 LT ISZERO PUSH2 0x292 JUMPI SWAP4 PUSH2 0x100 DUP4 ADD CALLDATALOAD SWAP1 DUP2 GT PUSH2 0x292 JUMPI PUSH2 0x2C04 SWAP3 ADD PUSH2 0x2B6D JUMP JUMPDEST DUP1 SLOAD DUP3 LT ISZERO PUSH2 0x2CAE JUMPI PUSH1 0x0 MSTORE PUSH1 0x20 PUSH1 0x0 KECCAK256 ADD SWAP1 PUSH1 0x0 SWAP1 JUMP JUMPDEST PUSH32 0x4E487B7100000000000000000000000000000000000000000000000000000000 PUSH1 0x0 MSTORE PUSH1 0x32 PUSH1 0x4 MSTORE PUSH1 0x24 PUSH1 0x0 REVERT JUMPDEST MLOAD SWAP1 PUSH20 0xFFFFFFFFFFFFFFFFFFFFFFFFFFFFFFFFFFFFFFFF DUP3 AND DUP3 SUB PUSH2 0x292 JUMPI JUMP JUMPDEST SWAP1 DUP2 PUSH1 0xA0 SWAP2 SUB SLT PUSH2 0x292 JUMPI DUP1 MLOAD DUP1 ISZERO ISZERO DUP2 SUB PUSH2 0x292 JUMPI SWAP2 PUSH1 0x20 DUP3 ADD MLOAD PUSH11 0xFFFFFFFFFFFFFFFFFFFFFF DUP2 AND DUP2 SUB PUSH2 0x292 JUMPI SWAP2 PUSH2 0x2D3B PUSH1 0x40 DUP3 ADD PUSH2 0x2CDD JUMP JUMPDEST SWAP2 PUSH1 0x80 PUSH2 0x2D4A PUSH1 0x60 DUP5 ADD PUSH2 0x2CDD JUMP JUMPDEST SWAP3 ADD MLOAD PUSH12 0xFFFFFFFFFFFFFFFFFFFFFFFF DUP2 AND DUP2 SUB PUSH2 0x292 JUMPI SWAP1 JUMP JUMPDEST SWAP3 SWAP2 SWAP3 PUSH2 0x2D71 DUP3 PUSH2 0x2AA7 JUMP JUMPDEST SWAP2 PUSH2 0x2D7F PUSH1 0x40 MLOAD SWAP4 DUP5 PUSH2 0x2A37 JUMP JUMPDEST DUP3 SWAP5 DUP2 DUP5 MSTORE DUP2 DUP4 ADD GT PUSH2 0x292 JUMPI DUP3 DUP2 PUSH1 0x20 SWAP4 DUP5 PUSH1 0x0 SWAP7 ADD CALLDATACOPY ADD ADD MSTORE JUMP JUMPDEST SWAP1 SWAP3 PUSH2 0x2DD8 SWAP5 SWAP4 PUSH1 0x80 SWAP4 PUSH20 0xFFFFFFFFFFFFFFFFFFFFFFFFFFFFFFFFFFFFFFFF DUP1 SWAP3 AND DUP5 MSTORE AND PUSH1 0x20 DUP4 ADD MSTORE PUSH1 0x40 DUP3 ADD MSTORE DUP2 PUSH1 0x60 DUP3 ADD MSTORE ADD SWAP1 PUSH2 0x2AE1 JUMP JUMPDEST SWAP1 JUMP JUMPDEST TIMESTAMP GT PUSH2 0x2DE3 JUMPI JUMP JUMPDEST PUSH1 0x4 PUSH1 0x40 MLOAD PUSH32 0xC828CDF500000000000000000000000000000000000000000000000000000000 DUP2 MSTORE REVERT JUMPDEST SWAP2 SWAP1 DUP2 MLOAD DUP1 ISZERO PUSH2 0x2EE3 JUMPI DUP3 PUSH1 0x80 SWAP2 DUP2 ADD SUB SLT PUSH2 0x292 JUMPI PUSH1 0x20 DUP3 ADD MLOAD SWAP3 PUSH1 0x40 DUP4 ADD MLOAD SWAP4 PUSH1 0xFF DUP6 AND DUP1 SWAP6 SUB PUSH2 0x292 JUMPI PUSH20 0xFFFFFFFFFFFFFFFFFFFFFFFFFFFFFFFFFFFFFFFF PUSH1 0x80 PUSH1 0x60 DUP7 ADD MLOAD SWAP6 ADD MLOAD SWAP3 AND SWAP4 DUP5 EXTCODESIZE ISZERO PUSH2 0x292 JUMPI PUSH1 0x0 SWAP5 PUSH1 0xE4 SWAP4 DUP7 SWAP3 PUSH1 0x40 MLOAD SWAP9 DUP10 SWAP8 DUP9 SWAP7 PUSH32 0xD505ACCF00000000000000000000000000000000000000000000000000000000 DUP9 MSTORE CALLER PUSH1 0x4 DUP10 ADD MSTORE ADDRESS PUSH1 0x24 DUP10 ADD MSTORE PUSH1 0x44 DUP9 ADD MSTORE PUSH1 0x64 DUP8 ADD MSTORE PUSH1 0x84 DUP7 ADD MSTORE PUSH1 0xA4 DUP6 ADD MSTORE PUSH1 0xC4 DUP5 ADD MSTORE GAS CALL DUP1 ISZERO PUSH2 0x2ED7 JUMPI PUSH2 0x2ECA JUMPI POP JUMP JUMPDEST PUSH1 0x0 PUSH2 0x2ED5 SWAP2 PUSH2 0x2A37 JUMP JUMPDEST JUMP JUMPDEST PUSH1 0x40 MLOAD RETURNDATASIZE PUSH1 0x0 DUP3 RETURNDATACOPY RETURNDATASIZE SWAP1 REVERT JUMPDEST POP POP POP POP JUMP JUMPDEST SWAP1 SWAP2 PUSH20 0xFFFFFFFFFFFFFFFFFFFFFFFFFFFFFFFFFFFFFFFF DUP1 SWAP3 AND DUP1 EXTCODESIZE ISZERO PUSH2 0x292 JUMPI PUSH1 0x40 SWAP3 DUP4 MLOAD SWAP3 PUSH32 0xA6AFED9500000000000000000000000000000000000000000000000000000000 DUP5 MSTORE PUSH1 0x0 SWAP4 DUP5 DUP2 PUSH1 0x4 DUP2 DUP4 DUP9 GAS CALL DUP1 ISZERO PUSH2 0x2FFA JUMPI SWAP1 DUP7 SWAP4 SWAP3 SWAP2 PUSH2 0x2FE5 JUMPI JUMPDEST POP PUSH1 0x24 SWAP1 DUP4 MLOAD SWAP5 DUP6 SWAP4 DUP5 SWAP3 PUSH32 0x7D6AF07900000000000000000000000000000000000000000000000000000000 DUP5 MSTORE AND PUSH1 0x4 DUP4 ADD MSTORE GAS STATICCALL SWAP3 DUP4 ISZERO PUSH2 0x2FDA JUMPI DUP3 SWAP4 PUSH2 0x2FA7 JUMPI JUMPDEST POP POP POP DUP1 DUP3 LT ISZERO PUSH2 0x2FA2 JUMPI POP SWAP1 JUMP JUMPDEST SWAP1 POP SWAP1 JUMP JUMPDEST SWAP1 DUP1 SWAP3 SWAP4 POP DUP2 RETURNDATASIZE DUP4 GT PUSH2 0x2FD3 JUMPI JUMPDEST PUSH2 0x2FBF DUP2 DUP4 PUSH2 0x2A37 JUMP JUMPDEST DUP2 ADD SUB SLT PUSH2 0x19A3 JUMPI PUSH1 0x20 ADD MLOAD SWAP1 CODESIZE DUP1 PUSH2 0x2F93 JUMP JUMPDEST POP RETURNDATASIZE PUSH2 0x2FB5 JUMP JUMPDEST MLOAD SWAP2 RETURNDATASIZE SWAP2 POP DUP3 RETURNDATACOPY RETURNDATASIZE SWAP1 REVERT JUMPDEST SWAP5 PUSH2 0x2FF3 DUP2 PUSH1 0x24 SWAP4 SWAP8 PUSH2 0x2A37 JUMP JUMPDEST SWAP5 SWAP1 PUSH2 0x2F4F JUMP JUMPDEST DUP7 MLOAD RETURNDATASIZE DUP8 DUP3 RETURNDATACOPY RETURNDATASIZE SWAP1 REVERT JUMPDEST CALLDATALOAD SWAP1 PUSH6 0xFFFFFFFFFFFF DUP3 AND DUP3 SUB PUSH2 0x292 JUMPI JUMP JUMPDEST PUSH1 0x1F DUP3 PUSH1 0x20 SWAP5 SWAP4 PUSH32 0xFFFFFFFFFFFFFFFFFFFFFFFFFFFFFFFFFFFFFFFFFFFFFFFFFFFFFFFFFFFFFFE0 SWAP4 DUP2 DUP7 MSTORE DUP7 DUP7 ADD CALLDATACOPY PUSH1 0x0 DUP6 DUP3 DUP7 ADD ADD MSTORE ADD AND ADD ADD SWAP1 JUMP JUMPDEST SWAP1 SWAP4 SWAP2 PUSH20 0xFFFFFFFFFFFFFFFFFFFFFFFFFFFFFFFFFFFFFFFF DUP1 SWAP6 AND DUP3 MSTORE DUP5 PUSH2 0x307D DUP3 PUSH2 0x2A16 JUMP JUMPDEST AND PUSH1 0x20 DUP4 ADD MSTORE PUSH1 0x20 DUP2 ADD CALLDATALOAD SWAP1 DUP6 DUP3 AND DUP1 SWAP3 SUB PUSH2 0x292 JUMPI PUSH2 0x2DD8 SWAP6 PUSH1 0xA0 SWAP3 PUSH1 0x40 DUP6 ADD MSTORE PUSH6 0xFFFFFFFFFFFF DUP1 PUSH2 0x30B3 PUSH1 0x40 DUP6 ADD PUSH2 0x3004 JUMP JUMPDEST AND PUSH1 0x60 DUP7 ADD MSTORE PUSH2 0x30C5 PUSH1 0x60 DUP5 ADD PUSH2 0x3004 JUMP JUMPDEST AND PUSH1 0x80 DUP6 ADD MSTORE PUSH2 0x30D7 PUSH1 0x80 DUP4 ADD PUSH2 0x2A16 JUMP JUMPDEST AND DUP3 DUP5 ADD MSTORE ADD CALLDATALOAD PUSH1 0xC0 DUP3 ADD MSTORE PUSH2 0x100 SWAP1 DUP2 PUSH1 0xE0 DUP3 ADD MSTORE ADD SWAP2 PUSH2 0x3017 JUMP JUMPDEST SWAP2 SWAP3 PUSH1 0x20 PUSH2 0x2DD8 SWAP7 SWAP5 PUSH1 0x60 PUSH20 0xFFFFFFFFFFFFFFFFFFFFFFFFFFFFFFFFFFFFFFFF SWAP5 DUP6 PUSH2 0x311F DUP3 PUSH2 0x2A16 JUMP JUMPDEST AND DUP8 MSTORE DUP4 DUP2 ADD CALLDATALOAD DUP5 DUP9 ADD MSTORE PUSH1 0x40 DUP2 ADD CALLDATALOAD PUSH1 0x40 DUP9 ADD MSTORE ADD CALLDATALOAD PUSH1 0x60 DUP7 ADD MSTORE DUP4 DUP2 MLOAD AND PUSH1 0x80 DUP7 ADD MSTORE ADD MLOAD PUSH1 0xA0 DUP5 ADD MSTORE AND PUSH1 0xC0 DUP3 ADD MSTORE PUSH2 0x100 SWAP1 DUP2 PUSH1 0xE0 DUP3 ADD MSTORE ADD SWAP2 PUSH2 0x3017 JUMP JUMPDEST PUSH1 0x8 DUP3 LT ISZERO PUSH2 0x316E JUMPI MSTORE JUMP JUMPDEST PUSH32 0x4E487B7100000000000000000000000000000000000000000000000000000000 PUSH1 0x0 MSTORE PUSH1 0x21 PUSH1 0x4 MSTORE PUSH1 0x24 PUSH1 0x0 REVERT JUMPDEST SWAP3 SWAP2 SWAP1 SWAP3 PUSH2 0x31AA DUP5 PUSH2 0x2B9E JUMP JUMPDEST SWAP2 PUSH2 0x31B8 PUSH1 0x40 MLOAD SWAP4 DUP5 PUSH2 0x2A37 JUMP JUMPDEST DUP3 SWAP5 DUP1 DUP5 MSTORE PUSH1 0x20 DUP1 SWAP5 ADD SWAP1 PUSH1 0x5 SHL DUP4 ADD SWAP3 DUP3 DUP5 GT PUSH2 0x292 JUMPI DUP1 SWAP2 JUMPDEST DUP5 DUP4 LT PUSH2 0x31E2 JUMPI POP POP POP POP POP POP JUMP JUMPDEST DUP3 CALLDATALOAD PUSH8 0xFFFFFFFFFFFFFFFF DUP2 GT PUSH2 0x292 JUMPI DUP3 ADD DUP5 PUSH1 0x1F DUP3 ADD SLT ISZERO PUSH2 0x292 JUMPI DUP7 SWAP2 PUSH2 0x3212 DUP7 DUP4 DUP6 DUP1 SWAP6 CALLDATALOAD SWAP2 ADD PUSH2 0x2D65 JUMP JUMPDEST DUP2 MSTORE ADD SWAP3 ADD SWAP2 PUSH2 0x31D3 JUMP JUMPDEST SWAP1 PUSH1 0x8 DUP3 LT ISZERO PUSH2 0x316E JUMPI MSTORE JUMP JUMPDEST SWAP1 DUP1 DUP3 MLOAD SWAP1 DUP2 DUP2 MSTORE PUSH1 0x20 DUP1 SWAP2 ADD SWAP3 DUP2 DUP1 DUP5 PUSH1 0x5 SHL DUP4 ADD ADD SWAP6 ADD SWAP4 PUSH1 0x0 SWAP2 JUMPDEST DUP5 DUP4 LT PUSH2 0x3258 JUMPI POP POP POP POP POP POP SWAP1 JUMP JUMPDEST SWAP1 SWAP2 SWAP3 SWAP4 SWAP5 SWAP6 DUP5 DUP1 PUSH2 0x3294 DUP4 PUSH32 0xFFFFFFFFFFFFFFFFFFFFFFFFFFFFFFFFFFFFFFFFFFFFFFFFFFFFFFFFFFFFFFE0 DUP7 PUSH1 0x1 SWAP7 SUB ADD DUP8 MSTORE DUP11 MLOAD PUSH2 0x2AE1 JUMP JUMPDEST SWAP9 ADD SWAP4 ADD SWAP4 ADD SWAP2 SWAP5 SWAP4 SWAP3 SWAP1 PUSH2 0x3248 JUMP JUMPDEST PUSH32 0xFFFFFFFFFFFFFFFFFFFFFFFFFFFFFFFFFFFFFFFFFFFFFFFFFFFFFFFFFFFFFFFF DUP2 EQ PUSH2 0x32D1 JUMPI PUSH1 0x1 ADD SWAP1 JUMP JUMPDEST PUSH32 0x4E487B7100000000000000000000000000000000000000000000000000000000 PUSH1 0x0 MSTORE PUSH1 0x11 PUSH1 0x4 MSTORE PUSH1 0x24 PUSH1 0x0 REVERT JUMPDEST SWAP2 SWAP1 DUP2 LT ISZERO PUSH2 0x2CAE JUMPI PUSH1 0x5 SHL ADD SWAP1 JUMP JUMPDEST DUP1 MLOAD DUP3 LT ISZERO PUSH2 0x2CAE JUMPI PUSH1 0x20 SWAP2 PUSH1 0x5 SHL ADD ADD SWAP1 JUMP JUMPDEST PUSH1 0x1C PUSH1 0x0 PUSH1 0x64 SWAP3 DUP2 SWAP5 PUSH1 0x20 SWAP7 PUSH1 0x40 MLOAD SWAP9 PUSH1 0x60 MSTORE PUSH1 0x40 MSTORE PUSH1 0x60 SHL PUSH1 0x2C MSTORE PUSH16 0x23B872DD000000000000000000000000 PUSH1 0xC MSTORE GAS CALL RETURNDATASIZE ISZERO PUSH1 0x1 PUSH1 0x0 MLOAD EQ OR AND ISZERO PUSH2 0x336F JUMPI PUSH1 0x0 PUSH1 0x60 MSTORE PUSH1 0x40 MSTORE JUMP JUMPDEST PUSH4 0x7939F424 PUSH1 0x0 MSTORE PUSH1 0x4 PUSH1 0x1C REVERT INVALID LOG1 PUSH5 0x736F6C6343 STOP ADDMOD GT STOP EXP "},"methodIdentifiers":{"OKX_AGGREGATION_ROUTER()":"d0736749","ONE_INCH_ROUTER_V5()":"bdcb9932","OPEN_OCEAN_EXCHANGE_PROXY()":"72e05064","OxPROJECT_EXCHANGE_PROXY()":"2f764135","PARASWAP_AUGUSTUS_SWAPPER_V5()":"88a799f6","PERMIT2()":"6afdd850","UNISWAP_V3_ROUTER()":"41c64a2f","allExtensions(uint256)":"e731f6d1","altairExtensionsLength()":"0c0cf11a","borrow(address,uint256,address,uint256,bytes)":"dbe5f2fb","deleverage(address,address,address,uint256,uint256,uint256,bytes,uint8,bytes[])":"e75ee2e3","flashLiquidate(address,address,uint256,address,uint256,uint8,bytes[])":"2a90e82f","getAltairExtension(address)":"01ce1f6e","getAssetsForShares(address,uint256,uint256)":"d0189a91","getShuttleExtension(uint256)":"70bf79c6","hangar18()":"e8a24e1d","isExtension(address)":"f847ed48","leverage(address,address,address,uint256,uint256,uint256,bytes,uint8,bytes[])":"d6906d23","liquidate(address,uint256,address,address,uint256,bytes)":"7f32d8f4","liquidatePermit2Allowance(address,uint256,address,address,uint256,((address,uint160,uint48,uint48),address,uint256),bytes)":"c2a95ddf","liquidatePermit2Signature(address,uint256,address,address,uint256,((address,uint256),uint256,uint256),bytes)":"21a5e908","name()":"06fdde03","nativeToken()":"e1758bd8","repay(address,uint256,address,uint256,bytes)":"76c05f65","repayPermit2Allowance(address,uint256,address,uint256,((address,uint160,uint48,uint48),address,uint256),bytes)":"0f22d435","repayPermit2Signature(address,uint256,address,uint256,((address,uint256),uint256,uint256),bytes)":"0e12d008","setAltairExtension(uint256[],address)":"3b918095","sweepNative()":"ab803a76","sweepTokens(address[],address)":"7071f0c4","usd()":"d63a6ccd","version()":"54fd4d50"}}}}}