{"contracts/cygnus-periphery/XHypervisor.sol":{"XHypervisor":{"abi":[{"inputs":[{"internalType":"contract IHangar18","name":"_hangar18","type":"address"}],"stateMutability":"nonpayable","type":"constructor"},{"inputs":[],"name":"CygnusAltair__0xProjectTransactionFailed","type":"error"},{"inputs":[],"name":"CygnusAltair__InsufficientLPTokenAmount","type":"error"},{"inputs":[],"name":"CygnusAltair__InsufficientLiquidateUsd","type":"error"},{"inputs":[],"name":"CygnusAltair__InsufficientUSDAmount","type":"error"},{"inputs":[],"name":"CygnusAltair__InvalidAggregator","type":"error"},{"inputs":[],"name":"CygnusAltair__InvalidPool","type":"error"},{"inputs":[],"name":"CygnusAltair__MsgSenderNotAdmin","type":"error"},{"inputs":[],"name":"CygnusAltair__MsgSenderNotBorrowable","type":"error"},{"inputs":[],"name":"CygnusAltair__MsgSenderNotCollateral","type":"error"},{"inputs":[],"name":"CygnusAltair__MsgSenderNotRouter","type":"error"},{"inputs":[],"name":"CygnusAltair__OneInchTransactionFailed","type":"error"},{"inputs":[],"name":"CygnusAltair__OnlyDelegateCall","type":"error"},{"inputs":[],"name":"CygnusAltair__OpenOceanTransactionFailed","type":"error"},{"inputs":[],"name":"CygnusAltair__ParaswapTransactionFailed","type":"error"},{"inputs":[],"name":"OKX_AGGREGATION_ROUTER","outputs":[{"internalType":"address","name":"","type":"address"}],"stateMutability":"view","type":"function"},{"inputs":[],"name":"ONE_INCH_ROUTER_V5","outputs":[{"internalType":"address","name":"","type":"address"}],"stateMutability":"view","type":"function"},{"inputs":[],"name":"OPEN_OCEAN_EXCHANGE_PROXY","outputs":[{"internalType":"address","name":"","type":"address"}],"stateMutability":"view","type":"function"},{"inputs":[],"name":"OxPROJECT_EXCHANGE_PROXY","outputs":[{"internalType":"address","name":"","type":"address"}],"stateMutability":"view","type":"function"},{"inputs":[],"name":"PARASWAP_AUGUSTUS_SWAPPER_V5","outputs":[{"internalType":"address","name":"","type":"address"}],"stateMutability":"view","type":"function"},{"inputs":[],"name":"PERMIT2","outputs":[{"internalType":"address","name":"","type":"address"}],"stateMutability":"view","type":"function"},{"inputs":[],"name":"UNISWAP_V3_ROUTER","outputs":[{"internalType":"address","name":"","type":"address"}],"stateMutability":"view","type":"function"},{"inputs":[{"internalType":"address","name":"sender","type":"address"},{"internalType":"uint256","name":"borrowAmount","type":"uint256"},{"internalType":"bytes","name":"data","type":"bytes"}],"name":"altairBorrow_O9E","outputs":[{"internalType":"uint256","name":"liquidity","type":"uint256"}],"stateMutability":"nonpayable","type":"function"},{"inputs":[{"internalType":"address","name":"sender","type":"address"},{"internalType":"uint256","name":"cygLPAmount","type":"uint256"},{"internalType":"uint256","name":"repayAmount","type":"uint256"},{"internalType":"bytes","name":"data","type":"bytes"}],"name":"altairLiquidate_f2x","outputs":[],"stateMutability":"nonpayable","type":"function"},{"inputs":[{"internalType":"address","name":"sender","type":"address"},{"internalType":"uint256","name":"redeemAmount","type":"uint256"},{"internalType":"bytes","name":"data","type":"bytes"}],"name":"altairRedeem_u91A","outputs":[{"internalType":"uint256","name":"usdAmount","type":"uint256"}],"stateMutability":"nonpayable","type":"function"},{"inputs":[{"internalType":"address","name":"underlying","type":"address"},{"internalType":"uint256","name":"shares","type":"uint256"},{"internalType":"uint256","name":"difference","type":"uint256"}],"name":"getAssetsForShares","outputs":[{"internalType":"address[]","name":"tokens","type":"address[]"},{"internalType":"uint256[]","name":"amounts","type":"uint256[]"}],"stateMutability":"view","type":"function"},{"inputs":[],"name":"hangar18","outputs":[{"internalType":"contract IHangar18","name":"","type":"address"}],"stateMutability":"view","type":"function"},{"inputs":[],"name":"name","outputs":[{"internalType":"string","name":"","type":"string"}],"stateMutability":"view","type":"function"},{"inputs":[],"name":"nativeToken","outputs":[{"internalType":"contract IWrappedNative","name":"","type":"address"}],"stateMutability":"view","type":"function"},{"inputs":[],"name":"sweepNative","outputs":[],"stateMutability":"nonpayable","type":"function"},{"inputs":[{"internalType":"contract IERC20[]","name":"tokens","type":"address[]"},{"internalType":"address","name":"to","type":"address"}],"name":"sweepTokens","outputs":[],"stateMutability":"nonpayable","type":"function"},{"inputs":[],"name":"usd","outputs":[{"internalType":"address","name":"","type":"address"}],"stateMutability":"view","type":"function"},{"inputs":[],"name":"version","outputs":[{"internalType":"string","name":"","type":"string"}],"stateMutability":"view","type":"function"},{"stateMutability":"payable","type":"receive"}],"evm":{"bytecode":{"linkReferences":{},"object":"610100604090808252346200018757806200443780380380916200002482856200018c565b83396020928391810103126200018757516001600160a01b039081811690818103620001875760a0528351631c2eb17b60e31b8152908382600481845afa9283156200017c5760049385936000916200015a575b501660e052845163d63a6ccd60e01b815292839182905afa9182156200014f576000926200011b575b505060c052306080525161424f9081620001e8823960805181612c8c015260a05181818161078701528181610d04015261258d015260c0518181816104c7015281816108650152818161101d01528181611ad00152818161221e01528181612d560152613fc5015260e0518181816107f601526112d60152f35b6200013f9250803d1062000147575b6200013681836200018c565b810190620001c6565b3880620000a1565b503d6200012a565b83513d6000823e3d90fd5b620001759150843d861162000147576200013681836200018c565b3862000078565b85513d6000823e3d90fd5b600080fd5b601f909101601f19168101906001600160401b03821190821017620001b057604052565b634e487b7160e01b600052604160045260246000fd5b908160209103126200018757516001600160a01b038116810362000187579056fe6080604052600436101561001b575b361561001957600080fd5b005b6000803560e01c806306fdde03146128a45780632f7641351461285757806341c64a2f1461280a57806354fd4d501461277f5780636afdd850146127375780637071f0c4146124ab57806372e050641461245e57806388a799f6146124115780638f53d74f146115a9578063989bebcf14610dbf578063ab803a7614610c91578063bdcb993214610c44578063d0189a91146108d6578063d073674914610889578063d63a6ccd1461081a578063e1758bd8146107ab578063e8a24e1d1461073c5763e95471c7146100ed575061000e565b346107395760807ffffffffffffffffffffffffffffffffffffffffffffffffffffffffffffffffc3601126107395760043573ffffffffffffffffffffffffffffffffffffffff80821680920361063e576044359167ffffffffffffffff9160643583811161073557610164903690600401612a9a565b61016f939193612c75565b83019060209384818403126107315780359086821161072d57019061010093848385031261072d576101a46040519586612951565b6101ad83612a79565b85526101ba868401612a79565b948681019586526101cd60408501612a79565b93604082019485526101e160608201612a79565b95606083019687526101f560808301612a79565b608084015260a082013560a084015260c08201359960088b10156107295760c084019a8b5260e0830135908111610729576102309201612bbb565b60e082019081529230146102685760046040517fa610e788000000000000000000000000000000000000000000000000000000008152fd5b8184511633036106ff5781808092511696511693511693511695519060088210156106d2575191886040517f18160ddd0000000000000000000000000000000000000000000000000000000081528781600481865afa9081156106c7578291610696575b50604051907f01e1d1140000000000000000000000000000000000000000000000000000000082528882600481875afa801561068b5789928491610655575b506103af9161031c916024356140f0565b93610326846129c1565b6103336040519182612951565b8481527fffffffffffffffffffffffffffffffffffffffffffffffffffffffffffffffe0610360866129c1565b0136858301376040519485809481937ffa14fdc2000000000000000000000000000000000000000000000000000000008352306004840152896024840152606060448401526064830190612a1e565b03925af190811561064a57879161061c575b505060408051610420926103d6608083612951565b8b82528b898301528b838301528b6060830152825193849283927fa85598720000000000000000000000000000000000000000000000000000000084523090309060048601612d06565b03818c895af19182156106115789918a936105de575b506040517f0dfe168100000000000000000000000000000000000000000000000000000000815287816004818a5afa9687156105945788918c9861059f575b5090600491604051928380927fd21220a70000000000000000000000000000000000000000000000000000000082525afa978815610594578b9861054b575b50506104c4939287928792612d4f565b507f0000000000000000000000000000000000000000000000000000000000000000946104f13087614213565b918183106105215761051e9661051461050d8461051996612b7f565b88836141ca565b6141ca565b613f9e565b80f35b60046040517f38040e8d000000000000000000000000000000000000000000000000000000008152fd5b908092939850819594953d831161058d575b6105678183612951565b81010312610589576104c49361057d8792612b05565b979291819495506104b4565b8980fd5b503d61055d565b6040513d8d823e3d90fd5b8281939299503d83116105d7575b6105b78183612951565b810103126105d357876105cb600492612b05565b979091610475565b8a80fd5b503d6105ad565b909250610603915060403d60401161060a575b6105fb8183612951565b810190612b69565b9138610436565b503d6105f1565b6040513d8b823e3d90fd5b813d8311610643575b61062f8183612951565b8101031261063e5785386103c1565b600080fd5b503d610625565b6040513d8c823e3d90fd5b92809294508391503d8311610684575b61066f8183612951565b8101031261063e57518a9188916103af61030b565b503d610665565b6040513d85823e3d90fd5b809250888092503d83116106c0575b6106af8183612951565b8101031261063e57899051386102cc565b503d6106a5565b6040513d84823e3d90fd5b6024897f4e487b710000000000000000000000000000000000000000000000000000000081526021600452fd5b60046040517fe0ffcbfd000000000000000000000000000000000000000000000000000000008152fd5b8c80fd5b8880fd5b8780fd5b8580fd5b80fd5b503461073957807ffffffffffffffffffffffffffffffffffffffffffffffffffffffffffffffffc36011261073957602060405173ffffffffffffffffffffffffffffffffffffffff7f0000000000000000000000000000000000000000000000000000000000000000168152f35b503461073957807ffffffffffffffffffffffffffffffffffffffffffffffffffffffffffffffffc36011261073957602060405173ffffffffffffffffffffffffffffffffffffffff7f0000000000000000000000000000000000000000000000000000000000000000168152f35b503461073957807ffffffffffffffffffffffffffffffffffffffffffffffffffffffffffffffffc36011261073957602060405173ffffffffffffffffffffffffffffffffffffffff7f0000000000000000000000000000000000000000000000000000000000000000168152f35b503461073957807ffffffffffffffffffffffffffffffffffffffffffffffffffffffffffffffffc36011261073957602060405173a748d6573aca135af68f2635be60cb80278bd8558152f35b50346107395760607ffffffffffffffffffffffffffffffffffffffffffffffffffffffffffffffffc3601126107395760043573ffffffffffffffffffffffffffffffffffffffff9182821680920361063e576040517f18160ddd00000000000000000000000000000000000000000000000000000000815260243591602091604435908381600481895afa90811561068b578391610c17575b50604051917fc4a7761e0000000000000000000000000000000000000000000000000000000083526040836004818a5afa918215610c0c5784938593610be5575b50604051926109c1606085612951565b60028452868401976040368a37604051956109dd606088612951565b600287528887019a6040368d376040517f0dfe16810000000000000000000000000000000000000000000000000000000081528a81600481855afa90811561064a57918b918f938c91610ba7575b50600493610a398d8c612b26565b91169052604051928380927fd21220a70000000000000000000000000000000000000000000000000000000082525afa90811561061157878e918b93610b47575b509c9b999a989796610aab87610aab979583999795610ab095610aa16001610ac09e612b26565b91169052856140f0565b612b7f565b610aba8b89612b26565b526140f0565b610acb600183612b26565b526040519687966040880190604089525180915260608801949186905b828210610b2a5750505050858303868301525180835291810193925b828110610b1357505050500390f35b835185528695509381019392810192600101610b04565b8351811687528a9950958501959285019260019190910190610ae8565b925050508981813d8311610ba0575b610b608183612951565b8101031261072d5791610ab086610aab8f97610aab97958b610ac09b9a610aa16001610b8c869c612b05565b999b50505095509350959750979850610a7a565b503d610b56565b92809294508391503d8311610bde575b610bc18183612951565b81010312610589576004918e610bd78d93612b05565b9093610a2b565b503d610bb7565b909250610c0291935060403d60401161060a576105fb8183612951565b92909291386109b1565b6040513d86823e3d90fd5b90508381813d8311610c3d575b610c2e8183612951565b8101031261063e575138610970565b503d610c24565b503461073957807ffffffffffffffffffffffffffffffffffffffffffffffffffffffffffffffffc360112610739576020604051731111111254eeb25477b68fb85ed929f73a9605828152f35b503461073957807ffffffffffffffffffffffffffffffffffffffffffffffffffffffffffffffffc360112610739576040517ff851a44000000000000000000000000000000000000000000000000000000000815273ffffffffffffffffffffffffffffffffffffffff602082600481847f0000000000000000000000000000000000000000000000000000000000000000165afa91821561068b578392610d80575b5081163303610d56574780610d47578280f35b610d50916141ac565b38808280f35b60046040517f1a19b036000000000000000000000000000000000000000000000000000000008152fd5b9091506020813d8211610db7575b81610d9b60209383612951565b81010312610db357610dac90612b05565b9038610d34565b8280fd5b3d9150610d8e565b503461073957610dd0366004612ac8565b610ddc93919293612c75565b820190602093848484031261073557833567ffffffffffffffff9485821161073157019261010092838583031261073157610e1a6040519485612951565b610e2385612a79565b8452610e30878601612a79565b94878501958652610e4360408201612a79565b6040860152610e5460608201612a79565b936060860194855260808601916080810135835260a087019460a0820135865260c08201359960088b10156107295760c089019a8b5260e083013590811161072957610ea09201612bbb565b60e087019081529573ffffffffffffffffffffffffffffffffffffffff9384163014610ef05760046040517fa610e788000000000000000000000000000000000000000000000000000000008152fd5b83885116330361157f578380809251169651169751169151935197519560088710156115525760408a8c610f7893519481845193610f2f608086612951565b818552840152818484015281606084015283518095819482937fa85598720000000000000000000000000000000000000000000000000000000084523090309060048601612d06565b03918a5af1908115610594578b908c92611530575b50604051977f0dfe16810000000000000000000000000000000000000000000000000000000089528c8c8a6004818c5afa9889156112b7578d91996114f9575b60049a506040519a8b80927fd21220a70000000000000000000000000000000000000000000000000000000082525afa988915611445578d996114b5575b5061101a939289928992612d4f565b507f0000000000000000000000000000000000000000000000000000000000000000916110473084614213565b97881061148b57604051927fe99a6ac70000000000000000000000000000000000000000000000000000000084528984600481865afa938415610594578b94611454575b5081841693843b15611450576040517fa6afed950000000000000000000000000000000000000000000000000000000081528c81600481838a5af1801561144557611427575b50908b9594939291604051947f7d6af0790000000000000000000000000000000000000000000000000000000086528a6004870152604086602481845afa90811561141c578c8e926111d7988b916113fb575b508091106000146113f0575061113d8d80945b866141ca565b611146896129c1565b906111546040519283612951565b8982527fffffffffffffffffffffffffffffffffffffffffffffffffffffffffffffffe06111818b6129c1565b0136848401378c8a604051809a819582947f1e7dcc0d0000000000000000000000000000000000000000000000000000000084526004840152836024840152836044840152608060648401526084830190612a1e565b03925af19081156113e5578c958b926113b2575b50808c116112c4575b50506040517f23b872dd00000000000000000000000000000000000000000000000000000000815273ffffffffffffffffffffffffffffffffffffffff808b1660048301528416602482015260448101959095525092999192508991829081606481015b03925af180156112b75761127b575b50906112739291613f9e565b604051908152f35b8587813d83116112b0575b6112908183612951565b8101031261073957506112a7611273949596613ec6565b50859493611267565b503d611286565b50604051903d90823e3d90fd5b6112d2908c96939496612b7f565b92857f000000000000000000000000000000000000000000000000000000000000000016809682161460001461139b57505050823b15611397578480936024604051809681937f2e1a7d4d0000000000000000000000000000000000000000000000000000000083528660048401525af1801561138c578a93869161136d575b5050926113636112589394896141ac565b92913888816111f4565b819294509061137b91612951565b6113885788918438611352565b8380fd5b6040513d87823e3d90fd5b8480fd5b6112589550906113ad929693916141ca565b611363565b915094809297503d83116113de575b6113cb8183612951565b8101031261063e578a94888b94386111eb565b503d6113c1565b6040513d89823e3d90fd5b61113d908094611137565b611414915060403d60401161060a576105fb8183612951565b905038611124565b6040513d8a823e3d90fd5b8c611439919d9297969594939d612951565b9a9091929394386110d1565b6040513d8f823e3d90fd5b8b80fd5b9093508981813d8311611484575b61146c8183612951565b810103126105d35761147d90612b05565b923861108b565b503d611462565b60046040517fb2a4caeb000000000000000000000000000000000000000000000000000000008152fd5b909198508b81819594953d83116114f2575b6114d18183612951565b810103126107295761101a936114e78992612b05565b99929150929361100b565b503d6114c7565b985089813d8311611529575b61150f8183612951565b81010312610729578b61152360049a612b05565b98610fcd565b503d611505565b905061154b915060403d60401161060a576105fb8183612951565b9038610f8d565b60248b7f4e487b710000000000000000000000000000000000000000000000000000000081526021600452fd5b60046040517fd0e9c9f6000000000000000000000000000000000000000000000000000000008152fd5b5034610739576115ba366004612ac8565b6115c5939293612c75565b81019360208286031261073957813567ffffffffffffffff92838211610db357019160e08387031261240d576040519561160060e088612951565b61160984612a79565b875261161760208501612a79565b966020810197885261162b60408601612a79565b6040820190815261163e60608701612a79565b926060830193845260808301946080880135865260a08801359760088910156107315760a0850198895260c08101359182116107315761167f929101612bbb565b60c083019081529673ffffffffffffffffffffffffffffffffffffffff1630146116cd5760046040517fa610e788000000000000000000000000000000000000000000000000000000008152fd5b5173ffffffffffffffffffffffffffffffffffffffff1633036106ff5773ffffffffffffffffffffffffffffffffffffffff8080925116925116975116915193519460088610156123e0575193604051947f0dfe1681000000000000000000000000000000000000000000000000000000008652602086600481865afa95861561138c5785966123a4575b50604051967fd21220a7000000000000000000000000000000000000000000000000000000008852602088600481875afa97881561239957869861235d575b50604051987f86a29081000000000000000000000000000000000000000000000000000000008a5260208a600481885afa998a156113e557879a61231d575b508860048314888115612311575b81156122d2575b501561221a57506040517f313ce56700000000000000000000000000000000000000000000000000000000815260208160048173ffffffffffffffffffffffffffffffffffffffff8d165afa801561141c5788906121df575b61184e9150613ea6565b6040517f313ce56700000000000000000000000000000000000000000000000000000000815260208160048173ffffffffffffffffffffffffffffffffffffffff8f165afa80156106115789906121a4575b6118aa9150613ea6565b906118b582826140ad565b64e8d4a5100081111561219c57620f4240905b6040517f16f0115b0000000000000000000000000000000000000000000000000000000081526020816004818d5afa90811561213f578c9161214a575b5060e073ffffffffffffffffffffffffffffffffffffffff916004604051809481937fe76c01e4000000000000000000000000000000000000000000000000000000008352165afa90811561213f578c91612076575b507fffffffffffffffffffffffffffffffffffffffffffffffffffffffffffffffff600273ffffffffffffffffffffffffffffffffffffffff61199e9316613ed3565b9062ffffff83161561204957926119d58f9594936119cd604094611a4d9662ffffff8085169416900490613f8b565b60c01c613f8b565b948d73ffffffffffffffffffffffffffffffffffffffff8c8551968795869485937f5ccfb71d0000000000000000000000000000000000000000000000000000000085526004850160409194939294606082019573ffffffffffffffffffffffffffffffffffffffff80921683521660208201520152565b0392165afa90811561064a5791611a74611a7c928c611a8196958192612027575b50612d42565b60011c6140ad565b6140ad565b90670de0b6b3a764000091828101809111611fcd578015611ffa576ec097ce7bc90715b34b9f100000000004808303928311611fcd5781611ac78c9493611acd93614064565b92614064565b927f0000000000000000000000000000000000000000000000000000000000000000918973ffffffffffffffffffffffffffffffffffffffff8416918c858473ffffffffffffffffffffffffffffffffffffffff831603611faf575b5050505073ffffffffffffffffffffffffffffffffffffffff841603611f8f575b50505050505b611b5a3086614213565b611b643088614213565b97611b70828589613bd6565b611b7b89858a613bd6565b604080517f5ccfb71d00000000000000000000000000000000000000000000000000000000815273ffffffffffffffffffffffffffffffffffffffff8087166004830152891660248201526044810184905290818060648101038173ffffffffffffffffffffffffffffffffffffffff86165afa9081156113e55787908892611f6d575b508a10611eb3575b808a11611e97575b5073ffffffffffffffffffffffffffffffffffffffff9291602091611c98604051611c3b608082612951565b89815289858201528960408201528960608201526040519c8d947f8e3c92e4000000000000000000000000000000000000000000000000000000008652600486015260248501523060448501528760648501526084840190612cde565b8188610104968793165af197881561138c578598611e63575b508710611e3a5782611ce3886101209585611cde836e22d473030f116ddee9f6b43ac78ba3602099613bd6565b613d47565b888589611df2611cf2836129c1565b611cff6040519182612951565b8381527fffffffffffffffffffffffffffffffffffffffffffffffffffffffffffffffe0611d2c856129c1565b013689830137604051988997889687957f8808e71c0000000000000000000000000000000000000000000000000000000087526004870152602486015273ffffffffffffffffffffffffffffffffffffffff865416604486015260015473ffffffffffffffffffffffffffffffffffffffff8116606487015265ffffffffffff8160a01c16608487015260d01c60a486015273ffffffffffffffffffffffffffffffffffffffff6002541660c486015260035460e4860152840152610124830190612a1e565b03925af180156106c757611e0f575b602085611273888787613f9e565b602090813d8311611e33575b611e258183612951565b810103126107395780611e01565b503d611e1b565b60046040517ebf8768000000000000000000000000000000000000000000000000000000008152fd5b9097506020813d602011611e8f575b81611e7f60209383612951565b8101031261139757519638611cb1565b3d9150611e72565b985073ffffffffffffffffffffffffffffffffffffffff611c0f565b604080517f5ccfb71d00000000000000000000000000000000000000000000000000000000815273ffffffffffffffffffffffffffffffffffffffff80881660048301528b166024820152604481018c905290818060648101038173ffffffffffffffffffffffffffffffffffffffff87165afa90811561141c578891611f4c575b50808411611f44575b50611c07565b925038611f3e565b611f65915060403d60401161060a576105fb8183612951565b905038611f35565b9050611f88915060403d60401161060a576105fb8183612951565b9038611bff565b611f9d6001611fa496612b26565b5190612e21565b503880878180611b4a565b611fbc611fc3948b612b26565b5186612e21565b5089388c85611b29565b6024897f4e487b710000000000000000000000000000000000000000000000000000000081526011600452fd5b6024897f4e487b710000000000000000000000000000000000000000000000000000000081526012600452fd5b9050612042915060403d60401161060a576105fb8183612951565b9038611a6e565b60248c7f4e487b710000000000000000000000000000000000000000000000000000000081526012600452fd5b905060e0813d60e011612137575b8161209160e09383612951565b81010312611450576120a281612b05565b9060208101518060020b0361072957600273ffffffffffffffffffffffffffffffffffffffff61199e9361212d60c0856120ff60407fffffffffffffffffffffffffffffffffffffffffffffffffffffffffffffffff9801613eb7565b5061210c60608201613eb7565b5061211960808201613e98565b5061212660a08201613e98565b5001613ec6565b509350505061195b565b3d9150612084565b6040513d8e823e3d90fd5b90506020813d602011612194575b8161216560209383612951565b810103126114505760e061218d73ffffffffffffffffffffffffffffffffffffffff92612b05565b9150611905565b3d9150612158565b6001906118c8565b506020813d6020116121d7575b816121be60209383612951565b8101031261072d576121d26118aa91613e98565b6118a0565b3d91506121b1565b506020813d602011612212575b816121f960209383612951565b810103126107315761220d61184e91613e98565b611844565b3d91506121ec565b90917f00000000000000000000000000000000000000000000000000000000000000009073ffffffffffffffffffffffffffffffffffffffff821689858c858473ffffffffffffffffffffffffffffffffffffffff8316036122bb575b5050505073ffffffffffffffffffffffffffffffffffffffff8416036122a2575b5050505050611b50565b611f9d60016122b096612b26565b503880878180612298565b611fbc6122c8948b612b26565b5089858c85612277565b9150506122e4578860078314386117eb565b6024877f4e487b710000000000000000000000000000000000000000000000000000000081526021600452fd5b505060018314886117e4565b9099506020813d602011612355575b8161233960209383612951565b810103126123515761234a90612b05565b98386117d6565b8680fd5b3d915061232c565b9097506020813d602011612391575b8161237960209383612951565b810103126107355761238a90612b05565b9638611797565b3d915061236c565b6040513d88823e3d90fd5b9095506020813d6020116123d8575b816123c060209383612951565b81010312611397576123d190612b05565b9438611758565b3d91506123b3565b6024847f4e487b710000000000000000000000000000000000000000000000000000000081526021600452fd5b5080fd5b503461073957807ffffffffffffffffffffffffffffffffffffffffffffffffffffffffffffffffc36011261073957602060405173def171fe48cf0115b1d80b88dc8eab59176fee578152f35b503461073957807ffffffffffffffffffffffffffffffffffffffffffffffffffffffffffffffffc360112610739576020604051736352a56caadc4f1e25cd6c75970fa768a3304e648152f35b50346107395760407ffffffffffffffffffffffffffffffffffffffffffffffffffffffffffffffffc360112610739576004359067ffffffffffffffff821161073957366023830112156107395781600401359061250882612a61565b906125166040519283612951565b8282526020938483016024809560051b83010191368311611388578501905b82821061270b57505050823573ffffffffffffffffffffffffffffffffffffffff8082168203610db3576040517ff851a4400000000000000000000000000000000000000000000000000000000081528681600481857f0000000000000000000000000000000000000000000000000000000000000000165afa908115610c0c5790829185916126d3575b50163303610d5657825b84518110156126cf578587836125e08489612b26565b5116604051928380927f70a082310000000000000000000000000000000000000000000000000000000082523060048301525afa90811561138c5785916126a2575b5080612685575b507fffffffffffffffffffffffffffffffffffffffffffffffffffffffffffffffff8114612659576001016125ca565b85847f4e487b710000000000000000000000000000000000000000000000000000000081526011600452fd5b61269c908484612695858a612b26565b51166141ca565b38612629565b90508781813d83116126c8575b6126b98183612951565b81010312611397575138612622565b503d6126af565b8380f35b809250888092503d8311612704575b6126ec8183612951565b81010312611388576126fe8291612b05565b386125c0565b503d6126e2565b813573ffffffffffffffffffffffffffffffffffffffff81168103611397578152908601908601612535565b503461073957807ffffffffffffffffffffffffffffffffffffffffffffffffffffffffffffffffc3601126107395760206040516e22d473030f116ddee9f6b43ac78ba38152f35b503461073957807ffffffffffffffffffffffffffffffffffffffffffffffffffffffffffffffffc360112610739576128066127bb60056129c1565b6127c86040519182612951565b600581527f312e302e300000000000000000000000000000000000000000000000000000006020820152604051918291602083526020830190612a1e565b0390f35b503461073957807ffffffffffffffffffffffffffffffffffffffffffffffffffffffffffffffffc36011261073957602060405173e592427a0aece92de3edee1f18e0157c058615648152f35b503461073957807ffffffffffffffffffffffffffffffffffffffffffffffffffffffffffffffffc36011261073957602060405173def1c0ded9bec7f1a1670819833240f027b25eff8152f35b503461073957807ffffffffffffffffffffffffffffffffffffffffffffffffffffffffffffffffc360112610739576128066128e060226129c1565b6128ed6040519182612951565b602281527f416c7461697220457874656e73696f6e3a2048797065727669736f7220506f6f60208201527f6c730000000000000000000000000000000000000000000000000000000000006040820152604051918291602083526020830190612a1e565b90601f7fffffffffffffffffffffffffffffffffffffffffffffffffffffffffffffffe0910116810190811067ffffffffffffffff82111761299257604052565b7f4e487b7100000000000000000000000000000000000000000000000000000000600052604160045260246000fd5b67ffffffffffffffff811161299257601f017fffffffffffffffffffffffffffffffffffffffffffffffffffffffffffffffe01660200190565b60005b838110612a0e5750506000910152565b81810151838201526020016129fe565b907fffffffffffffffffffffffffffffffffffffffffffffffffffffffffffffffe0601f602093612a5a815180928187528780880191016129fb565b0116010190565b67ffffffffffffffff81116129925760051b60200190565b359073ffffffffffffffffffffffffffffffffffffffff8216820361063e57565b9181601f8401121561063e5782359167ffffffffffffffff831161063e576020838186019501011161063e57565b9160608383031261063e57612adc83612a79565b92602081013592604082013567ffffffffffffffff811161063e57612b019201612a9a565b9091565b519073ffffffffffffffffffffffffffffffffffffffff8216820361063e57565b8051821015612b3a5760209160051b010190565b7f4e487b7100000000000000000000000000000000000000000000000000000000600052603260045260246000fd5b919082604091031261063e576020825192015190565b91908203918211612b8c57565b7f4e487b7100000000000000000000000000000000000000000000000000000000600052601160045260246000fd5b9080601f8301121561063e57813591612bd383612a61565b92604090612be382519586612951565b808552602093848087019260051b8501019381851161063e57858101925b858410612c12575050505050505090565b833567ffffffffffffffff811161063e57820183603f8201121561063e578781013591612c3e836129c1565b612c4a88519182612951565b8381528588858501011161063e5760008a8581968b8397018386013783010152815201930192612c01565b73ffffffffffffffffffffffffffffffffffffffff7f0000000000000000000000000000000000000000000000000000000000000000163014612cb457565b60046040517fc97bbbae000000000000000000000000000000000000000000000000000000008152fd5b6000915b60048310612cef57505050565b600190825181526020809101920192019190612ce2565b90815273ffffffffffffffffffffffffffffffffffffffff91821660208201529116604082015260e081019291612d409160600190612cde565b565b91908201809211612b8c57565b90949391947f00000000000000000000000000000000000000000000000000000000000000009373ffffffffffffffffffffffffffffffffffffffff80861680828416149081928215612e15575b5050612dda575091611f9d6001612dcb612dd799969488612dd19997612dc460008d612b26565b5187612e21565b97612b26565b90612d42565b90565b90612dd7979492959391600090600014612dff575050611f9d6001612dd19697612b26565b611f9d919350612e10969597612b26565b612d42565b87161490503880612d9d565b93929091936008811015613b775780612f13575050604051927fd2c4b59800000000000000000000000000000000000000000000000000000000845260209373def171fe48cf0115b1d80b88dc8eab59176fee57918582600481865afa918215612f0757600092612ec1575b5060009485949392612e9e92613bd6565b84825192019034905af1612eb0613ba6565b9015612ebb57015190565b80519101fd5b90939291508581813d8311612f00575b612edb8183612951565b8101031261063e576000948594612ef4612e9e93612b05565b93949550915094612e8d565b503d612ed1565b6040513d6000823e3d90fd5b929391926001810361316a57505090805181018160208201910393610140851261063e5760e07fffffffffffffffffffffffffffffffffffffffffffffffffffffffffffffffe0612f6660208601612b05565b96011261063e57604094855194612f7e60e087612951565b612f89878601612b05565b8652612f9760608601612b05565b9060208701918252612fab60808701612b05565b94888801958652612fbe60a08801612b05565b976060810198895260c08801516080820190815260e08901519060a083019182526101008a01519260c081019384526101208b015167ffffffffffffffff9081811161063e57866020613013928f0101613ce1565b956101408d015191821161063e578e9c6130309201602001613ce1565b9589835103613162575b731111111254eeb25477b68fb85ed929f73a960582998a61305a92613bd6565b8a519b8c809b819a829a7f12aa3caf00000000000000000000000000000000000000000000000000000000845273ffffffffffffffffffffffffffffffffffffffff80968195828095169060040152511660248d0152511660448b015251166064890152511660848701525160a48601525160c48501525160e48401526101048301610140905261014483016130ef91612a1e565b8281037ffffffffffffffffffffffffffffffffffffffffffffffffffffffffffffffffc0161012484015261312391612a1e565b03915a90600091f19182156131585760009261313e57505090565b6131549250803d1061060a576105fb8183612951565b5090565b513d6000823e3d90fd5b89835261303a565b600281036131c2575050906000929161319a8493731111111254eeb25477b68fb85ed929f73a9605828093613bd6565b6020825192019034905af16131ad613ba6565b90156131ba576020015190565b602081519101fd5b600381036131f2575050906000929161319a849373def1c0ded9bec7f1a1670819833240f027b25eff8093613bd6565b6004810361366a575050815182019060608383031261063e5761321760208401612b05565b60408401519467ffffffffffffffff861161063e5761014086860185031261063e576040519261324961014085612951565b613257602088880101612b05565b8452613267604088880101612b05565b602085015261327a606088880101612b05565b604085015261328d608088880101612b05565b606085015260a08787010151608085015260c0878701015160a085015260e0878701015160c08501526101009687818801015160e08601526132d461012082890101612b05565b8886015261014081880101519067ffffffffffffffff821161063e57602061330392818901928a010101613ce1565b61012085015260608601519467ffffffffffffffff861161063e5760208101603f87890101121561063e576020868801015161333e81612a61565b9661334c6040519889612951565b8188526020880180996020850160408560051b85840101011161063e57604083820101915b60408560051b858401010183106135b757505050505050916133c382736352a56caadc4f1e25cd6c75970fa768a3304e646101209587956080613488990151036135ac575b9998979695949399613bd6565b6040519687967f90411a3200000000000000000000000000000000000000000000000000000000885273ffffffffffffffffffffffffffffffffffffffff8092166004890152606060248901528183511660648901528160208401511660848901528160408401511660a48901528160608401511660c4890152608083015160e489015260a083015161010489015260c083015161012489015260e08301516101448901528201511661016487015201516101406101848601526101a4850190612a1e565b907ffffffffffffffffffffffffffffffffffffffffffffffffffffffffffffffffc84830301604485015251808252602082019160208260051b82010193926000915b838310613538575050505050908060209203816000736352a56caadc4f1e25cd6c75970fa768a3304e645af1908115612f0757600091613509575090565b90506020813d602011613530575b8161352460209383612951565b8101031261063e575190565b3d9150613517565b91939550919360208061359a837fffffffffffffffffffffffffffffffffffffffffffffffffffffffffffffffe08660019603018752608060608b51805184528581015186850152604081015160408501520151918160608201520190612a1e565b970193019301909286959492936134cb565b8260808701526133b6565b82519067ffffffffffffffff821161063e5760807fffffffffffffffffffffffffffffffffffffffffffffffffffffffffffffffe083878601018903011261063e5760405191613608608084612951565b838601810160408181015185526060820151602086015260808201519085015260a001519167ffffffffffffffff831161063e5760409361365860209493868695868e01928c8b01010101613ce1565b60608201528152019301929050613371565b9193916005810361369c5750509060009261319a8493736352a56caadc4f1e25cd6c75970fa768a3304e648093613bd6565b919291600681036137ae575050604051927ff3dced3c00000000000000000000000000000000000000000000000000000000845260209373a748d6573aca135af68f2635be60cb80278bd855918582600481865afa8015612f07578690600090613766575b73ffffffffffffffffffffffffffffffffffffffff93506004604051809581937f1c6eced5000000000000000000000000000000000000000000000000000000008352165afa918215612f0757600092612ec1575060009485949392612e9e92613bd6565b5082813d83116137a7575b61377b8183612951565b8101031261063e57856137a273ffffffffffffffffffffffffffffffffffffffff93612b05565b613701565b503d613771565b909150600703613b4d576137d78273e592427a0aece92de3edee1f18e0157c0586156485613bd6565b600080604051906137e9608083612951565b606482526101f46020830152610bb86040830152612710606083015260005b600481106139675750505062ffffff1690811561393d5773ffffffffffffffffffffffffffffffffffffffff90816040519561384661010088612951565b168552166020840152604083015230606083015263ffffffff608083015260a0820152600060c0820152600060e082015273ffffffffffffffffffffffffffffffffffffffff60e0604051927f414bf38900000000000000000000000000000000000000000000000000000000845282815116600485015282602082015116602485015262ffffff60408201511660448501528260608201511660648501526080810151608485015260a081015160a485015260c081015160c485015201511660e482015260208161010481600073e592427a0aece92de3edee1f18e0157c058615645af1908115612f0757600091613509575090565b60046040517fe2db3aad000000000000000000000000000000000000000000000000000000008152fd5b62ffffff6139758285613d23565b5116604051907f1698ee8200000000000000000000000000000000000000000000000000000000825273ffffffffffffffffffffffffffffffffffffffff8916600483015273ffffffffffffffffffffffffffffffffffffffff871660248301526044820152602081606481731f98431c8ad98523631ae4a59f267346ea31f9845afa8015612f0757600090613b00575b73ffffffffffffffffffffffffffffffffffffffff91501680613a2d575b50600101613808565b6020600491604051928380927f1a6865020000000000000000000000000000000000000000000000000000000082525afa8015612f0757600090613aa5575b6fffffffffffffffffffffffffffffffff91501682811115613a245791509250600162ffffff613a9c8585613d23565b51169390613a24565b506020813d602011613af8575b81613abf60209383612951565b8101031261063e57516fffffffffffffffffffffffffffffffff8116810361063e576fffffffffffffffffffffffffffffffff90613a6c565b3d9150613ab2565b506020813d602011613b45575b81613b1a60209383612951565b8101031261063e57613b4073ffffffffffffffffffffffffffffffffffffffff91612b05565b613a06565b3d9150613b0d565b60046040517feff442c1000000000000000000000000000000000000000000000000000000008152fd5b7f4e487b7100000000000000000000000000000000000000000000000000000000600052602160045260246000fd5b3d15613bd1573d90613bb7826129c1565b91613bc56040519384612951565b82523d6000602084013e565b606090565b90916040517fdd62ed3e00000000000000000000000000000000000000000000000000000000815230600482015260208160448173ffffffffffffffffffffffffffffffffffffffff808916602483015287165afa908115612f0757600091613cb0575b501015613cac5760446010600080936020956014527fffffffffffffffffffffffffffffffffffffffffffffffffffffffffffffffff6034526f095ea7b300000000000000000000000082525af13d15600160005114171615613c9e576000603452565b633e3f8f736000526004601cfd5b5050565b906020823d8211613cd9575b81613cc960209383612951565b8101031261073957505138613c3a565b3d9150613cbc565b81601f8201121561063e578051613cf7816129c1565b92613d056040519485612951565b8184526020828401011161063e57612dd791602080850191016129fb565b906004811015612b3a5760051b0190565b519065ffffffffffff8216820361063e57565b916040517f927da10500000000000000000000000000000000000000000000000000000000815230600482015273ffffffffffffffffffffffffffffffffffffffff808095169384602484015216918260448301526e22d473030f116ddee9f6b43ac78ba391606081606481865afa8015612f07578691600091613e42575b50161015613e3c57803b1561063e576000928360849260405196879586947f87517c4500000000000000000000000000000000000000000000000000000000865260048601526024850152604484015265ffffffffffff60648401525af18015612f0757613e315750565b6000612d4091612951565b50505050565b91506060823d8211613e90575b81613e5c60609383612951565b81010312610739575080613e896040613e758994612b05565b92613e8260208201613d34565b5001613d34565b5038613dc6565b3d9150613e4f565b519060ff8216820361063e57565b60ff16604d8111612b8c57600a0a90565b519061ffff8216820361063e57565b5190811515820361063e57565b908015613f83578115613f7b578180600114613f7257600214613f585760208110610133831016604e8210600b84101617613f4c579091600191825b808211613f255750508290048111612b8c570290565b90938083048111612b8c57818516613f43575b800293811c90613f0f565b80930292613f38565b900a91908211612b8c57565b905060ff8193929311612b8c576001901b918211612b8c57565b50505050600190565b505050600090565b505050600190565b81810292918115918404141715612b8c57565b9190613faa3084614213565b613fb43083614213565b9080614053575b5080614042575b507f00000000000000000000000000000000000000000000000000000000000000009273ffffffffffffffffffffffffffffffffffffffff80918186169283911614159283614035575b505050614017575050565b6140213083614213565b908161402c57505050565b612d40926141ca565b161415905038808061400c565b61404d9083836141ca565b38613fc2565b61405e9084866141ca565b38613fbb565b90807fffffffffffffffffffffffffffffffffffffffffffffffffffffffffffffffff048211810261409f57670de0b6b3a764000091020490565b63bac65e5b6000526004601cfd5b670de0b6b3a7640000907812725dd1d243aba0e75fe645cc4873f9e65afe688c928e1f2181118202158302156140e257020490565b637c5f487d6000526004601cfd5b91600092828102927fffffffffffffffffffffffffffffffffffffffffffffffffffffffffffffffff8183099184831085018084039314614190578284111561418357908391099060018386038416808080960460028082600302188083028203028083028203028083028203028083028203028083028203028092029003029703040190848311900302920304170290565b63ae47f70286526004601cfd5b50505091821561419f57500490565b63ae47f70290526004601cfd5b600080809381935af1156141bc57565b63b12d13eb6000526004601cfd5b60109260209260145260345260446000938480936fa9059cbb00000000000000000000000082525af13d15600183511417161561420657603452565b6390b8ec1890526004601cfd5b602460106020939284936014526f70a082310000000000000000000000006000525afa601f3d1116602051029056fea164736f6c6343000811000a","opcodes":"PUSH2 0x100 PUSH1 0x40 SWAP1 DUP1 DUP3 MSTORE CALLVALUE PUSH3 0x187 JUMPI DUP1 PUSH3 0x4437 DUP1 CODESIZE SUB DUP1 SWAP2 PUSH3 0x24 DUP3 DUP6 PUSH3 0x18C JUMP JUMPDEST DUP4 CODECOPY PUSH1 0x20 SWAP3 DUP4 SWAP2 DUP2 ADD SUB SLT PUSH3 0x187 JUMPI MLOAD PUSH1 0x1 PUSH1 0x1 PUSH1 0xA0 SHL SUB SWAP1 DUP2 DUP2 AND SWAP1 DUP2 DUP2 SUB PUSH3 0x187 JUMPI PUSH1 0xA0 MSTORE DUP4 MLOAD PUSH4 0x1C2EB17B PUSH1 0xE3 SHL DUP2 MSTORE SWAP1 DUP4 DUP3 PUSH1 0x4 DUP2 DUP5 GAS STATICCALL SWAP3 DUP4 ISZERO PUSH3 0x17C JUMPI PUSH1 0x4 SWAP4 DUP6 SWAP4 PUSH1 0x0 SWAP2 PUSH3 0x15A JUMPI JUMPDEST POP AND PUSH1 0xE0 MSTORE DUP5 MLOAD PUSH4 0xD63A6CCD PUSH1 0xE0 SHL DUP2 MSTORE SWAP3 DUP4 SWAP2 DUP3 SWAP1 GAS STATICCALL SWAP2 DUP3 ISZERO PUSH3 0x14F JUMPI PUSH1 0x0 SWAP3 PUSH3 0x11B JUMPI JUMPDEST POP POP PUSH1 0xC0 MSTORE ADDRESS PUSH1 0x80 MSTORE MLOAD PUSH2 0x424F SWAP1 DUP2 PUSH3 0x1E8 DUP3 CODECOPY PUSH1 0x80 MLOAD DUP2 PUSH2 0x2C8C ADD MSTORE PUSH1 0xA0 MLOAD DUP2 DUP2 DUP2 PUSH2 0x787 ADD MSTORE DUP2 DUP2 PUSH2 0xD04 ADD MSTORE PUSH2 0x258D ADD MSTORE PUSH1 0xC0 MLOAD DUP2 DUP2 DUP2 PUSH2 0x4C7 ADD MSTORE DUP2 DUP2 PUSH2 0x865 ADD MSTORE DUP2 DUP2 PUSH2 0x101D ADD MSTORE DUP2 DUP2 PUSH2 0x1AD0 ADD MSTORE DUP2 DUP2 PUSH2 0x221E ADD MSTORE DUP2 DUP2 PUSH2 0x2D56 ADD MSTORE PUSH2 0x3FC5 ADD MSTORE PUSH1 0xE0 MLOAD DUP2 DUP2 DUP2 PUSH2 0x7F6 ADD MSTORE PUSH2 0x12D6 ADD MSTORE RETURN JUMPDEST PUSH3 0x13F SWAP3 POP DUP1 RETURNDATASIZE LT PUSH3 0x147 JUMPI JUMPDEST PUSH3 0x136 DUP2 DUP4 PUSH3 0x18C JUMP JUMPDEST DUP2 ADD SWAP1 PUSH3 0x1C6 JUMP JUMPDEST CODESIZE DUP1 PUSH3 0xA1 JUMP JUMPDEST POP RETURNDATASIZE PUSH3 0x12A JUMP JUMPDEST DUP4 MLOAD RETURNDATASIZE PUSH1 0x0 DUP3 RETURNDATACOPY RETURNDATASIZE SWAP1 REVERT JUMPDEST PUSH3 0x175 SWAP2 POP DUP5 RETURNDATASIZE DUP7 GT PUSH3 0x147 JUMPI PUSH3 0x136 DUP2 DUP4 PUSH3 0x18C JUMP JUMPDEST CODESIZE PUSH3 0x78 JUMP JUMPDEST DUP6 MLOAD RETURNDATASIZE PUSH1 0x0 DUP3 RETURNDATACOPY RETURNDATASIZE SWAP1 REVERT JUMPDEST PUSH1 0x0 DUP1 REVERT JUMPDEST PUSH1 0x1F SWAP1 SWAP2 ADD PUSH1 0x1F NOT AND DUP2 ADD SWAP1 PUSH1 0x1 PUSH1 0x1 PUSH1 0x40 SHL SUB DUP3 GT SWAP1 DUP3 LT OR PUSH3 0x1B0 JUMPI PUSH1 0x40 MSTORE JUMP JUMPDEST PUSH4 0x4E487B71 PUSH1 0xE0 SHL PUSH1 0x0 MSTORE PUSH1 0x41 PUSH1 0x4 MSTORE PUSH1 0x24 PUSH1 0x0 REVERT JUMPDEST SWAP1 DUP2 PUSH1 0x20 SWAP2 SUB SLT PUSH3 0x187 JUMPI MLOAD PUSH1 0x1 PUSH1 0x1 PUSH1 0xA0 SHL SUB DUP2 AND DUP2 SUB PUSH3 0x187 JUMPI SWAP1 JUMP INVALID PUSH1 0x80 PUSH1 0x40 MSTORE PUSH1 0x4 CALLDATASIZE LT ISZERO PUSH2 0x1B JUMPI JUMPDEST CALLDATASIZE ISZERO PUSH2 0x19 JUMPI PUSH1 0x0 DUP1 REVERT JUMPDEST STOP JUMPDEST PUSH1 0x0 DUP1 CALLDATALOAD PUSH1 0xE0 SHR DUP1 PUSH4 0x6FDDE03 EQ PUSH2 0x28A4 JUMPI DUP1 PUSH4 0x2F764135 EQ PUSH2 0x2857 JUMPI DUP1 PUSH4 0x41C64A2F EQ PUSH2 0x280A JUMPI DUP1 PUSH4 0x54FD4D50 EQ PUSH2 0x277F JUMPI DUP1 PUSH4 0x6AFDD850 EQ PUSH2 0x2737 JUMPI DUP1 PUSH4 0x7071F0C4 EQ PUSH2 0x24AB JUMPI DUP1 PUSH4 0x72E05064 EQ PUSH2 0x245E JUMPI DUP1 PUSH4 0x88A799F6 EQ PUSH2 0x2411 JUMPI DUP1 PUSH4 0x8F53D74F EQ PUSH2 0x15A9 JUMPI DUP1 PUSH4 0x989BEBCF EQ PUSH2 0xDBF JUMPI DUP1 PUSH4 0xAB803A76 EQ PUSH2 0xC91 JUMPI DUP1 PUSH4 0xBDCB9932 EQ PUSH2 0xC44 JUMPI DUP1 PUSH4 0xD0189A91 EQ PUSH2 0x8D6 JUMPI DUP1 PUSH4 0xD0736749 EQ PUSH2 0x889 JUMPI DUP1 PUSH4 0xD63A6CCD EQ PUSH2 0x81A JUMPI DUP1 PUSH4 0xE1758BD8 EQ PUSH2 0x7AB JUMPI DUP1 PUSH4 0xE8A24E1D EQ PUSH2 0x73C JUMPI PUSH4 0xE95471C7 EQ PUSH2 0xED JUMPI POP PUSH2 0xE JUMP JUMPDEST CALLVALUE PUSH2 0x739 JUMPI PUSH1 0x80 PUSH32 0xFFFFFFFFFFFFFFFFFFFFFFFFFFFFFFFFFFFFFFFFFFFFFFFFFFFFFFFFFFFFFFFC CALLDATASIZE ADD SLT PUSH2 0x739 JUMPI PUSH1 0x4 CALLDATALOAD PUSH20 0xFFFFFFFFFFFFFFFFFFFFFFFFFFFFFFFFFFFFFFFF DUP1 DUP3 AND DUP1 SWAP3 SUB PUSH2 0x63E JUMPI PUSH1 0x44 CALLDATALOAD SWAP2 PUSH8 0xFFFFFFFFFFFFFFFF SWAP2 PUSH1 0x64 CALLDATALOAD DUP4 DUP2 GT PUSH2 0x735 JUMPI PUSH2 0x164 SWAP1 CALLDATASIZE SWAP1 PUSH1 0x4 ADD PUSH2 0x2A9A JUMP JUMPDEST PUSH2 0x16F SWAP4 SWAP2 SWAP4 PUSH2 0x2C75 JUMP JUMPDEST DUP4 ADD SWAP1 PUSH1 0x20 SWAP4 DUP5 DUP2 DUP5 SUB SLT PUSH2 0x731 JUMPI DUP1 CALLDATALOAD SWAP1 DUP7 DUP3 GT PUSH2 0x72D JUMPI ADD SWAP1 PUSH2 0x100 SWAP4 DUP5 DUP4 DUP6 SUB SLT PUSH2 0x72D JUMPI PUSH2 0x1A4 PUSH1 0x40 MLOAD SWAP6 DUP7 PUSH2 0x2951 JUMP JUMPDEST PUSH2 0x1AD DUP4 PUSH2 0x2A79 JUMP JUMPDEST DUP6 MSTORE PUSH2 0x1BA DUP7 DUP5 ADD PUSH2 0x2A79 JUMP JUMPDEST SWAP5 DUP7 DUP2 ADD SWAP6 DUP7 MSTORE PUSH2 0x1CD PUSH1 0x40 DUP6 ADD PUSH2 0x2A79 JUMP JUMPDEST SWAP4 PUSH1 0x40 DUP3 ADD SWAP5 DUP6 MSTORE PUSH2 0x1E1 PUSH1 0x60 DUP3 ADD PUSH2 0x2A79 JUMP JUMPDEST SWAP6 PUSH1 0x60 DUP4 ADD SWAP7 DUP8 MSTORE PUSH2 0x1F5 PUSH1 0x80 DUP4 ADD PUSH2 0x2A79 JUMP JUMPDEST PUSH1 0x80 DUP5 ADD MSTORE PUSH1 0xA0 DUP3 ADD CALLDATALOAD PUSH1 0xA0 DUP5 ADD MSTORE PUSH1 0xC0 DUP3 ADD CALLDATALOAD SWAP10 PUSH1 0x8 DUP12 LT ISZERO PUSH2 0x729 JUMPI PUSH1 0xC0 DUP5 ADD SWAP11 DUP12 MSTORE PUSH1 0xE0 DUP4 ADD CALLDATALOAD SWAP1 DUP2 GT PUSH2 0x729 JUMPI PUSH2 0x230 SWAP3 ADD PUSH2 0x2BBB JUMP JUMPDEST PUSH1 0xE0 DUP3 ADD SWAP1 DUP2 MSTORE SWAP3 ADDRESS EQ PUSH2 0x268 JUMPI PUSH1 0x4 PUSH1 0x40 MLOAD PUSH32 0xA610E78800000000000000000000000000000000000000000000000000000000 DUP2 MSTORE REVERT JUMPDEST DUP2 DUP5 MLOAD AND CALLER SUB PUSH2 0x6FF JUMPI DUP2 DUP1 DUP1 SWAP3 MLOAD AND SWAP7 MLOAD AND SWAP4 MLOAD AND SWAP4 MLOAD AND SWAP6 MLOAD SWAP1 PUSH1 0x8 DUP3 LT ISZERO PUSH2 0x6D2 JUMPI MLOAD SWAP2 DUP9 PUSH1 0x40 MLOAD PUSH32 0x18160DDD00000000000000000000000000000000000000000000000000000000 DUP2 MSTORE DUP8 DUP2 PUSH1 0x4 DUP2 DUP7 GAS STATICCALL SWAP1 DUP2 ISZERO PUSH2 0x6C7 JUMPI DUP3 SWAP2 PUSH2 0x696 JUMPI JUMPDEST POP PUSH1 0x40 MLOAD SWAP1 PUSH32 0x1E1D11400000000000000000000000000000000000000000000000000000000 DUP3 MSTORE DUP9 DUP3 PUSH1 0x4 DUP2 DUP8 GAS STATICCALL DUP1 ISZERO PUSH2 0x68B JUMPI DUP10 SWAP3 DUP5 SWAP2 PUSH2 0x655 JUMPI JUMPDEST POP PUSH2 0x3AF SWAP2 PUSH2 0x31C SWAP2 PUSH1 0x24 CALLDATALOAD PUSH2 0x40F0 JUMP JUMPDEST SWAP4 PUSH2 0x326 DUP5 PUSH2 0x29C1 JUMP JUMPDEST PUSH2 0x333 PUSH1 0x40 MLOAD SWAP2 DUP3 PUSH2 0x2951 JUMP JUMPDEST DUP5 DUP2 MSTORE PUSH32 0xFFFFFFFFFFFFFFFFFFFFFFFFFFFFFFFFFFFFFFFFFFFFFFFFFFFFFFFFFFFFFFE0 PUSH2 0x360 DUP7 PUSH2 0x29C1 JUMP JUMPDEST ADD CALLDATASIZE DUP6 DUP4 ADD CALLDATACOPY PUSH1 0x40 MLOAD SWAP5 DUP6 DUP1 SWAP5 DUP2 SWAP4 PUSH32 0xFA14FDC200000000000000000000000000000000000000000000000000000000 DUP4 MSTORE ADDRESS PUSH1 0x4 DUP5 ADD MSTORE DUP10 PUSH1 0x24 DUP5 ADD MSTORE PUSH1 0x60 PUSH1 0x44 DUP5 ADD MSTORE PUSH1 0x64 DUP4 ADD SWAP1 PUSH2 0x2A1E JUMP JUMPDEST SUB SWAP3 GAS CALL SWAP1 DUP2 ISZERO PUSH2 0x64A JUMPI DUP8 SWAP2 PUSH2 0x61C JUMPI JUMPDEST POP POP PUSH1 0x40 DUP1 MLOAD PUSH2 0x420 SWAP3 PUSH2 0x3D6 PUSH1 0x80 DUP4 PUSH2 0x2951 JUMP JUMPDEST DUP12 DUP3 MSTORE DUP12 DUP10 DUP4 ADD MSTORE DUP12 DUP4 DUP4 ADD MSTORE DUP12 PUSH1 0x60 DUP4 ADD MSTORE DUP3 MLOAD SWAP4 DUP5 SWAP3 DUP4 SWAP3 PUSH32 0xA855987200000000000000000000000000000000000000000000000000000000 DUP5 MSTORE ADDRESS SWAP1 ADDRESS SWAP1 PUSH1 0x4 DUP7 ADD PUSH2 0x2D06 JUMP JUMPDEST SUB DUP2 DUP13 DUP10 GAS CALL SWAP2 DUP3 ISZERO PUSH2 0x611 JUMPI DUP10 SWAP2 DUP11 SWAP4 PUSH2 0x5DE JUMPI JUMPDEST POP PUSH1 0x40 MLOAD PUSH32 0xDFE168100000000000000000000000000000000000000000000000000000000 DUP2 MSTORE DUP8 DUP2 PUSH1 0x4 DUP2 DUP11 GAS STATICCALL SWAP7 DUP8 ISZERO PUSH2 0x594 JUMPI DUP9 SWAP2 DUP13 SWAP9 PUSH2 0x59F JUMPI JUMPDEST POP SWAP1 PUSH1 0x4 SWAP2 PUSH1 0x40 MLOAD SWAP3 DUP4 DUP1 SWAP3 PUSH32 0xD21220A700000000000000000000000000000000000000000000000000000000 DUP3 MSTORE GAS STATICCALL SWAP8 DUP9 ISZERO PUSH2 0x594 JUMPI DUP12 SWAP9 PUSH2 0x54B JUMPI JUMPDEST POP POP PUSH2 0x4C4 SWAP4 SWAP3 DUP8 SWAP3 DUP8 SWAP3 PUSH2 0x2D4F JUMP JUMPDEST POP PUSH32 0x0 SWAP5 PUSH2 0x4F1 ADDRESS DUP8 PUSH2 0x4213 JUMP JUMPDEST SWAP2 DUP2 DUP4 LT PUSH2 0x521 JUMPI PUSH2 0x51E SWAP7 PUSH2 0x514 PUSH2 0x50D DUP5 PUSH2 0x519 SWAP7 PUSH2 0x2B7F JUMP JUMPDEST DUP9 DUP4 PUSH2 0x41CA JUMP JUMPDEST PUSH2 0x41CA JUMP JUMPDEST PUSH2 0x3F9E JUMP JUMPDEST DUP1 RETURN JUMPDEST PUSH1 0x4 PUSH1 0x40 MLOAD PUSH32 0x38040E8D00000000000000000000000000000000000000000000000000000000 DUP2 MSTORE REVERT JUMPDEST SWAP1 DUP1 SWAP3 SWAP4 SWAP9 POP DUP2 SWAP6 SWAP5 SWAP6 RETURNDATASIZE DUP4 GT PUSH2 0x58D JUMPI JUMPDEST PUSH2 0x567 DUP2 DUP4 PUSH2 0x2951 JUMP JUMPDEST DUP2 ADD SUB SLT PUSH2 0x589 JUMPI PUSH2 0x4C4 SWAP4 PUSH2 0x57D DUP8 SWAP3 PUSH2 0x2B05 JUMP JUMPDEST SWAP8 SWAP3 SWAP2 DUP2 SWAP5 SWAP6 POP PUSH2 0x4B4 JUMP JUMPDEST DUP10 DUP1 REVERT JUMPDEST POP RETURNDATASIZE PUSH2 0x55D JUMP JUMPDEST PUSH1 0x40 MLOAD RETURNDATASIZE DUP14 DUP3 RETURNDATACOPY RETURNDATASIZE SWAP1 REVERT JUMPDEST DUP3 DUP2 SWAP4 SWAP3 SWAP10 POP RETURNDATASIZE DUP4 GT PUSH2 0x5D7 JUMPI JUMPDEST PUSH2 0x5B7 DUP2 DUP4 PUSH2 0x2951 JUMP JUMPDEST DUP2 ADD SUB SLT PUSH2 0x5D3 JUMPI DUP8 PUSH2 0x5CB PUSH1 0x4 SWAP3 PUSH2 0x2B05 JUMP JUMPDEST SWAP8 SWAP1 SWAP2 PUSH2 0x475 JUMP JUMPDEST DUP11 DUP1 REVERT JUMPDEST POP RETURNDATASIZE PUSH2 0x5AD JUMP JUMPDEST SWAP1 SWAP3 POP PUSH2 0x603 SWAP2 POP PUSH1 0x40 RETURNDATASIZE PUSH1 0x40 GT PUSH2 0x60A JUMPI JUMPDEST PUSH2 0x5FB DUP2 DUP4 PUSH2 0x2951 JUMP JUMPDEST DUP2 ADD SWAP1 PUSH2 0x2B69 JUMP JUMPDEST SWAP2 CODESIZE PUSH2 0x436 JUMP JUMPDEST POP RETURNDATASIZE PUSH2 0x5F1 JUMP JUMPDEST PUSH1 0x40 MLOAD RETURNDATASIZE DUP12 DUP3 RETURNDATACOPY RETURNDATASIZE SWAP1 REVERT JUMPDEST DUP2 RETURNDATASIZE DUP4 GT PUSH2 0x643 JUMPI JUMPDEST PUSH2 0x62F DUP2 DUP4 PUSH2 0x2951 JUMP JUMPDEST DUP2 ADD SUB SLT PUSH2 0x63E JUMPI DUP6 CODESIZE PUSH2 0x3C1 JUMP JUMPDEST PUSH1 0x0 DUP1 REVERT JUMPDEST POP RETURNDATASIZE PUSH2 0x625 JUMP JUMPDEST PUSH1 0x40 MLOAD RETURNDATASIZE DUP13 DUP3 RETURNDATACOPY RETURNDATASIZE SWAP1 REVERT JUMPDEST SWAP3 DUP1 SWAP3 SWAP5 POP DUP4 SWAP2 POP RETURNDATASIZE DUP4 GT PUSH2 0x684 JUMPI JUMPDEST PUSH2 0x66F DUP2 DUP4 PUSH2 0x2951 JUMP JUMPDEST DUP2 ADD SUB SLT PUSH2 0x63E JUMPI MLOAD DUP11 SWAP2 DUP9 SWAP2 PUSH2 0x3AF PUSH2 0x30B JUMP JUMPDEST POP RETURNDATASIZE PUSH2 0x665 JUMP JUMPDEST PUSH1 0x40 MLOAD RETURNDATASIZE DUP6 DUP3 RETURNDATACOPY RETURNDATASIZE SWAP1 REVERT JUMPDEST DUP1 SWAP3 POP DUP9 DUP1 SWAP3 POP RETURNDATASIZE DUP4 GT PUSH2 0x6C0 JUMPI JUMPDEST PUSH2 0x6AF DUP2 DUP4 PUSH2 0x2951 JUMP JUMPDEST DUP2 ADD SUB SLT PUSH2 0x63E JUMPI DUP10 SWAP1 MLOAD CODESIZE PUSH2 0x2CC JUMP JUMPDEST POP RETURNDATASIZE PUSH2 0x6A5 JUMP JUMPDEST PUSH1 0x40 MLOAD RETURNDATASIZE DUP5 DUP3 RETURNDATACOPY RETURNDATASIZE SWAP1 REVERT JUMPDEST PUSH1 0x24 DUP10 PUSH32 0x4E487B7100000000000000000000000000000000000000000000000000000000 DUP2 MSTORE PUSH1 0x21 PUSH1 0x4 MSTORE REVERT JUMPDEST PUSH1 0x4 PUSH1 0x40 MLOAD PUSH32 0xE0FFCBFD00000000000000000000000000000000000000000000000000000000 DUP2 MSTORE REVERT JUMPDEST DUP13 DUP1 REVERT JUMPDEST DUP9 DUP1 REVERT JUMPDEST DUP8 DUP1 REVERT JUMPDEST DUP6 DUP1 REVERT JUMPDEST DUP1 REVERT JUMPDEST POP CALLVALUE PUSH2 0x739 JUMPI DUP1 PUSH32 0xFFFFFFFFFFFFFFFFFFFFFFFFFFFFFFFFFFFFFFFFFFFFFFFFFFFFFFFFFFFFFFFC CALLDATASIZE ADD SLT PUSH2 0x739 JUMPI PUSH1 0x20 PUSH1 0x40 MLOAD PUSH20 0xFFFFFFFFFFFFFFFFFFFFFFFFFFFFFFFFFFFFFFFF PUSH32 0x0 AND DUP2 MSTORE RETURN JUMPDEST POP CALLVALUE PUSH2 0x739 JUMPI DUP1 PUSH32 0xFFFFFFFFFFFFFFFFFFFFFFFFFFFFFFFFFFFFFFFFFFFFFFFFFFFFFFFFFFFFFFFC CALLDATASIZE ADD SLT PUSH2 0x739 JUMPI PUSH1 0x20 PUSH1 0x40 MLOAD PUSH20 0xFFFFFFFFFFFFFFFFFFFFFFFFFFFFFFFFFFFFFFFF PUSH32 0x0 AND DUP2 MSTORE RETURN JUMPDEST POP CALLVALUE PUSH2 0x739 JUMPI DUP1 PUSH32 0xFFFFFFFFFFFFFFFFFFFFFFFFFFFFFFFFFFFFFFFFFFFFFFFFFFFFFFFFFFFFFFFC CALLDATASIZE ADD SLT PUSH2 0x739 JUMPI PUSH1 0x20 PUSH1 0x40 MLOAD PUSH20 0xFFFFFFFFFFFFFFFFFFFFFFFFFFFFFFFFFFFFFFFF PUSH32 0x0 AND DUP2 MSTORE RETURN JUMPDEST POP CALLVALUE PUSH2 0x739 JUMPI DUP1 PUSH32 0xFFFFFFFFFFFFFFFFFFFFFFFFFFFFFFFFFFFFFFFFFFFFFFFFFFFFFFFFFFFFFFFC CALLDATASIZE ADD SLT PUSH2 0x739 JUMPI PUSH1 0x20 PUSH1 0x40 MLOAD PUSH20 0xA748D6573ACA135AF68F2635BE60CB80278BD855 DUP2 MSTORE RETURN JUMPDEST POP CALLVALUE PUSH2 0x739 JUMPI PUSH1 0x60 PUSH32 0xFFFFFFFFFFFFFFFFFFFFFFFFFFFFFFFFFFFFFFFFFFFFFFFFFFFFFFFFFFFFFFFC CALLDATASIZE ADD SLT PUSH2 0x739 JUMPI PUSH1 0x4 CALLDATALOAD PUSH20 0xFFFFFFFFFFFFFFFFFFFFFFFFFFFFFFFFFFFFFFFF SWAP2 DUP3 DUP3 AND DUP1 SWAP3 SUB PUSH2 0x63E JUMPI PUSH1 0x40 MLOAD PUSH32 0x18160DDD00000000000000000000000000000000000000000000000000000000 DUP2 MSTORE PUSH1 0x24 CALLDATALOAD SWAP2 PUSH1 0x20 SWAP2 PUSH1 0x44 CALLDATALOAD SWAP1 DUP4 DUP2 PUSH1 0x4 DUP2 DUP10 GAS STATICCALL SWAP1 DUP2 ISZERO PUSH2 0x68B JUMPI DUP4 SWAP2 PUSH2 0xC17 JUMPI JUMPDEST POP PUSH1 0x40 MLOAD SWAP2 PUSH32 0xC4A7761E00000000000000000000000000000000000000000000000000000000 DUP4 MSTORE PUSH1 0x40 DUP4 PUSH1 0x4 DUP2 DUP11 GAS STATICCALL SWAP2 DUP3 ISZERO PUSH2 0xC0C JUMPI DUP5 SWAP4 DUP6 SWAP4 PUSH2 0xBE5 JUMPI JUMPDEST POP PUSH1 0x40 MLOAD SWAP3 PUSH2 0x9C1 PUSH1 0x60 DUP6 PUSH2 0x2951 JUMP JUMPDEST PUSH1 0x2 DUP5 MSTORE DUP7 DUP5 ADD SWAP8 PUSH1 0x40 CALLDATASIZE DUP11 CALLDATACOPY PUSH1 0x40 MLOAD SWAP6 PUSH2 0x9DD PUSH1 0x60 DUP9 PUSH2 0x2951 JUMP JUMPDEST PUSH1 0x2 DUP8 MSTORE DUP9 DUP8 ADD SWAP11 PUSH1 0x40 CALLDATASIZE DUP14 CALLDATACOPY PUSH1 0x40 MLOAD PUSH32 0xDFE168100000000000000000000000000000000000000000000000000000000 DUP2 MSTORE DUP11 DUP2 PUSH1 0x4 DUP2 DUP6 GAS STATICCALL SWAP1 DUP2 ISZERO PUSH2 0x64A JUMPI SWAP2 DUP12 SWAP2 DUP16 SWAP4 DUP13 SWAP2 PUSH2 0xBA7 JUMPI JUMPDEST POP PUSH1 0x4 SWAP4 PUSH2 0xA39 DUP14 DUP13 PUSH2 0x2B26 JUMP JUMPDEST SWAP2 AND SWAP1 MSTORE PUSH1 0x40 MLOAD SWAP3 DUP4 DUP1 SWAP3 PUSH32 0xD21220A700000000000000000000000000000000000000000000000000000000 DUP3 MSTORE GAS STATICCALL SWAP1 DUP2 ISZERO PUSH2 0x611 JUMPI DUP8 DUP15 SWAP2 DUP12 SWAP4 PUSH2 0xB47 JUMPI JUMPDEST POP SWAP13 SWAP12 SWAP10 SWAP11 SWAP9 SWAP8 SWAP7 PUSH2 0xAAB DUP8 PUSH2 0xAAB SWAP8 SWAP6 DUP4 SWAP10 SWAP8 SWAP6 PUSH2 0xAB0 SWAP6 PUSH2 0xAA1 PUSH1 0x1 PUSH2 0xAC0 SWAP15 PUSH2 0x2B26 JUMP JUMPDEST SWAP2 AND SWAP1 MSTORE DUP6 PUSH2 0x40F0 JUMP JUMPDEST PUSH2 0x2B7F JUMP JUMPDEST PUSH2 0xABA DUP12 DUP10 PUSH2 0x2B26 JUMP JUMPDEST MSTORE PUSH2 0x40F0 JUMP JUMPDEST PUSH2 0xACB PUSH1 0x1 DUP4 PUSH2 0x2B26 JUMP JUMPDEST MSTORE PUSH1 0x40 MLOAD SWAP7 DUP8 SWAP7 PUSH1 0x40 DUP9 ADD SWAP1 PUSH1 0x40 DUP10 MSTORE MLOAD DUP1 SWAP2 MSTORE PUSH1 0x60 DUP9 ADD SWAP5 SWAP2 DUP7 SWAP1 JUMPDEST DUP3 DUP3 LT PUSH2 0xB2A JUMPI POP POP POP POP DUP6 DUP4 SUB DUP7 DUP4 ADD MSTORE MLOAD DUP1 DUP4 MSTORE SWAP2 DUP2 ADD SWAP4 SWAP3 JUMPDEST DUP3 DUP2 LT PUSH2 0xB13 JUMPI POP POP POP POP SUB SWAP1 RETURN JUMPDEST DUP4 MLOAD DUP6 MSTORE DUP7 SWAP6 POP SWAP4 DUP2 ADD SWAP4 SWAP3 DUP2 ADD SWAP3 PUSH1 0x1 ADD PUSH2 0xB04 JUMP JUMPDEST DUP4 MLOAD DUP2 AND DUP8 MSTORE DUP11 SWAP10 POP SWAP6 DUP6 ADD SWAP6 SWAP3 DUP6 ADD SWAP3 PUSH1 0x1 SWAP2 SWAP1 SWAP2 ADD SWAP1 PUSH2 0xAE8 JUMP JUMPDEST SWAP3 POP POP POP DUP10 DUP2 DUP2 RETURNDATASIZE DUP4 GT PUSH2 0xBA0 JUMPI JUMPDEST PUSH2 0xB60 DUP2 DUP4 PUSH2 0x2951 JUMP JUMPDEST DUP2 ADD SUB SLT PUSH2 0x72D JUMPI SWAP2 PUSH2 0xAB0 DUP7 PUSH2 0xAAB DUP16 SWAP8 PUSH2 0xAAB SWAP8 SWAP6 DUP12 PUSH2 0xAC0 SWAP12 SWAP11 PUSH2 0xAA1 PUSH1 0x1 PUSH2 0xB8C DUP7 SWAP13 PUSH2 0x2B05 JUMP JUMPDEST SWAP10 SWAP12 POP POP POP SWAP6 POP SWAP4 POP SWAP6 SWAP8 POP SWAP8 SWAP9 POP PUSH2 0xA7A JUMP JUMPDEST POP RETURNDATASIZE PUSH2 0xB56 JUMP JUMPDEST SWAP3 DUP1 SWAP3 SWAP5 POP DUP4 SWAP2 POP RETURNDATASIZE DUP4 GT PUSH2 0xBDE JUMPI JUMPDEST PUSH2 0xBC1 DUP2 DUP4 PUSH2 0x2951 JUMP JUMPDEST DUP2 ADD SUB SLT PUSH2 0x589 JUMPI PUSH1 0x4 SWAP2 DUP15 PUSH2 0xBD7 DUP14 SWAP4 PUSH2 0x2B05 JUMP JUMPDEST SWAP1 SWAP4 PUSH2 0xA2B JUMP JUMPDEST POP RETURNDATASIZE PUSH2 0xBB7 JUMP JUMPDEST SWAP1 SWAP3 POP PUSH2 0xC02 SWAP2 SWAP4 POP PUSH1 0x40 RETURNDATASIZE PUSH1 0x40 GT PUSH2 0x60A JUMPI PUSH2 0x5FB DUP2 DUP4 PUSH2 0x2951 JUMP JUMPDEST SWAP3 SWAP1 SWAP3 SWAP2 CODESIZE PUSH2 0x9B1 JUMP JUMPDEST PUSH1 0x40 MLOAD RETURNDATASIZE DUP7 DUP3 RETURNDATACOPY RETURNDATASIZE SWAP1 REVERT JUMPDEST SWAP1 POP DUP4 DUP2 DUP2 RETURNDATASIZE DUP4 GT PUSH2 0xC3D JUMPI JUMPDEST PUSH2 0xC2E DUP2 DUP4 PUSH2 0x2951 JUMP JUMPDEST DUP2 ADD SUB SLT PUSH2 0x63E JUMPI MLOAD CODESIZE PUSH2 0x970 JUMP JUMPDEST POP RETURNDATASIZE PUSH2 0xC24 JUMP JUMPDEST POP CALLVALUE PUSH2 0x739 JUMPI DUP1 PUSH32 0xFFFFFFFFFFFFFFFFFFFFFFFFFFFFFFFFFFFFFFFFFFFFFFFFFFFFFFFFFFFFFFFC CALLDATASIZE ADD SLT PUSH2 0x739 JUMPI PUSH1 0x20 PUSH1 0x40 MLOAD PUSH20 0x1111111254EEB25477B68FB85ED929F73A960582 DUP2 MSTORE RETURN JUMPDEST POP CALLVALUE PUSH2 0x739 JUMPI DUP1 PUSH32 0xFFFFFFFFFFFFFFFFFFFFFFFFFFFFFFFFFFFFFFFFFFFFFFFFFFFFFFFFFFFFFFFC CALLDATASIZE ADD SLT PUSH2 0x739 JUMPI PUSH1 0x40 MLOAD PUSH32 0xF851A44000000000000000000000000000000000000000000000000000000000 DUP2 MSTORE PUSH20 0xFFFFFFFFFFFFFFFFFFFFFFFFFFFFFFFFFFFFFFFF PUSH1 0x20 DUP3 PUSH1 0x4 DUP2 DUP5 PUSH32 0x0 AND GAS STATICCALL SWAP2 DUP3 ISZERO PUSH2 0x68B JUMPI DUP4 SWAP3 PUSH2 0xD80 JUMPI JUMPDEST POP DUP2 AND CALLER SUB PUSH2 0xD56 JUMPI SELFBALANCE DUP1 PUSH2 0xD47 JUMPI DUP3 DUP1 RETURN JUMPDEST PUSH2 0xD50 SWAP2 PUSH2 0x41AC JUMP JUMPDEST CODESIZE DUP1 DUP3 DUP1 RETURN JUMPDEST PUSH1 0x4 PUSH1 0x40 MLOAD PUSH32 0x1A19B03600000000000000000000000000000000000000000000000000000000 DUP2 MSTORE REVERT JUMPDEST SWAP1 SWAP2 POP PUSH1 0x20 DUP2 RETURNDATASIZE DUP3 GT PUSH2 0xDB7 JUMPI JUMPDEST DUP2 PUSH2 0xD9B PUSH1 0x20 SWAP4 DUP4 PUSH2 0x2951 JUMP JUMPDEST DUP2 ADD SUB SLT PUSH2 0xDB3 JUMPI PUSH2 0xDAC SWAP1 PUSH2 0x2B05 JUMP JUMPDEST SWAP1 CODESIZE PUSH2 0xD34 JUMP JUMPDEST DUP3 DUP1 REVERT JUMPDEST RETURNDATASIZE SWAP2 POP PUSH2 0xD8E JUMP JUMPDEST POP CALLVALUE PUSH2 0x739 JUMPI PUSH2 0xDD0 CALLDATASIZE PUSH1 0x4 PUSH2 0x2AC8 JUMP JUMPDEST PUSH2 0xDDC SWAP4 SWAP2 SWAP3 SWAP4 PUSH2 0x2C75 JUMP JUMPDEST DUP3 ADD SWAP1 PUSH1 0x20 SWAP4 DUP5 DUP5 DUP5 SUB SLT PUSH2 0x735 JUMPI DUP4 CALLDATALOAD PUSH8 0xFFFFFFFFFFFFFFFF SWAP5 DUP6 DUP3 GT PUSH2 0x731 JUMPI ADD SWAP3 PUSH2 0x100 SWAP3 DUP4 DUP6 DUP4 SUB SLT PUSH2 0x731 JUMPI PUSH2 0xE1A PUSH1 0x40 MLOAD SWAP5 DUP6 PUSH2 0x2951 JUMP JUMPDEST PUSH2 0xE23 DUP6 PUSH2 0x2A79 JUMP JUMPDEST DUP5 MSTORE PUSH2 0xE30 DUP8 DUP7 ADD PUSH2 0x2A79 JUMP JUMPDEST SWAP5 DUP8 DUP6 ADD SWAP6 DUP7 MSTORE PUSH2 0xE43 PUSH1 0x40 DUP3 ADD PUSH2 0x2A79 JUMP JUMPDEST PUSH1 0x40 DUP7 ADD MSTORE PUSH2 0xE54 PUSH1 0x60 DUP3 ADD PUSH2 0x2A79 JUMP JUMPDEST SWAP4 PUSH1 0x60 DUP7 ADD SWAP5 DUP6 MSTORE PUSH1 0x80 DUP7 ADD SWAP2 PUSH1 0x80 DUP2 ADD CALLDATALOAD DUP4 MSTORE PUSH1 0xA0 DUP8 ADD SWAP5 PUSH1 0xA0 DUP3 ADD CALLDATALOAD DUP7 MSTORE PUSH1 0xC0 DUP3 ADD CALLDATALOAD SWAP10 PUSH1 0x8 DUP12 LT ISZERO PUSH2 0x729 JUMPI PUSH1 0xC0 DUP10 ADD SWAP11 DUP12 MSTORE PUSH1 0xE0 DUP4 ADD CALLDATALOAD SWAP1 DUP2 GT PUSH2 0x729 JUMPI PUSH2 0xEA0 SWAP3 ADD PUSH2 0x2BBB JUMP JUMPDEST PUSH1 0xE0 DUP8 ADD SWAP1 DUP2 MSTORE SWAP6 PUSH20 0xFFFFFFFFFFFFFFFFFFFFFFFFFFFFFFFFFFFFFFFF SWAP4 DUP5 AND ADDRESS EQ PUSH2 0xEF0 JUMPI PUSH1 0x4 PUSH1 0x40 MLOAD PUSH32 0xA610E78800000000000000000000000000000000000000000000000000000000 DUP2 MSTORE REVERT JUMPDEST DUP4 DUP9 MLOAD AND CALLER SUB PUSH2 0x157F JUMPI DUP4 DUP1 DUP1 SWAP3 MLOAD AND SWAP7 MLOAD AND SWAP8 MLOAD AND SWAP2 MLOAD SWAP4 MLOAD SWAP8 MLOAD SWAP6 PUSH1 0x8 DUP8 LT ISZERO PUSH2 0x1552 JUMPI PUSH1 0x40 DUP11 DUP13 PUSH2 0xF78 SWAP4 MLOAD SWAP5 DUP2 DUP5 MLOAD SWAP4 PUSH2 0xF2F PUSH1 0x80 DUP7 PUSH2 0x2951 JUMP JUMPDEST DUP2 DUP6 MSTORE DUP5 ADD MSTORE DUP2 DUP5 DUP5 ADD MSTORE DUP2 PUSH1 0x60 DUP5 ADD MSTORE DUP4 MLOAD DUP1 SWAP6 DUP2 SWAP5 DUP3 SWAP4 PUSH32 0xA855987200000000000000000000000000000000000000000000000000000000 DUP5 MSTORE ADDRESS SWAP1 ADDRESS SWAP1 PUSH1 0x4 DUP7 ADD PUSH2 0x2D06 JUMP JUMPDEST SUB SWAP2 DUP11 GAS CALL SWAP1 DUP2 ISZERO PUSH2 0x594 JUMPI DUP12 SWAP1 DUP13 SWAP3 PUSH2 0x1530 JUMPI JUMPDEST POP PUSH1 0x40 MLOAD SWAP8 PUSH32 0xDFE168100000000000000000000000000000000000000000000000000000000 DUP10 MSTORE DUP13 DUP13 DUP11 PUSH1 0x4 DUP2 DUP13 GAS STATICCALL SWAP9 DUP10 ISZERO PUSH2 0x12B7 JUMPI DUP14 SWAP2 SWAP10 PUSH2 0x14F9 JUMPI JUMPDEST PUSH1 0x4 SWAP11 POP PUSH1 0x40 MLOAD SWAP11 DUP12 DUP1 SWAP3 PUSH32 0xD21220A700000000000000000000000000000000000000000000000000000000 DUP3 MSTORE GAS STATICCALL SWAP9 DUP10 ISZERO PUSH2 0x1445 JUMPI DUP14 SWAP10 PUSH2 0x14B5 JUMPI JUMPDEST POP PUSH2 0x101A SWAP4 SWAP3 DUP10 SWAP3 DUP10 SWAP3 PUSH2 0x2D4F JUMP JUMPDEST POP PUSH32 0x0 SWAP2 PUSH2 0x1047 ADDRESS DUP5 PUSH2 0x4213 JUMP JUMPDEST SWAP8 DUP9 LT PUSH2 0x148B JUMPI PUSH1 0x40 MLOAD SWAP3 PUSH32 0xE99A6AC700000000000000000000000000000000000000000000000000000000 DUP5 MSTORE DUP10 DUP5 PUSH1 0x4 DUP2 DUP7 GAS STATICCALL SWAP4 DUP5 ISZERO PUSH2 0x594 JUMPI DUP12 SWAP5 PUSH2 0x1454 JUMPI JUMPDEST POP DUP2 DUP5 AND SWAP4 DUP5 EXTCODESIZE ISZERO PUSH2 0x1450 JUMPI PUSH1 0x40 MLOAD PUSH32 0xA6AFED9500000000000000000000000000000000000000000000000000000000 DUP2 MSTORE DUP13 DUP2 PUSH1 0x4 DUP2 DUP4 DUP11 GAS CALL DUP1 ISZERO PUSH2 0x1445 JUMPI PUSH2 0x1427 JUMPI JUMPDEST POP SWAP1 DUP12 SWAP6 SWAP5 SWAP4 SWAP3 SWAP2 PUSH1 0x40 MLOAD SWAP5 PUSH32 0x7D6AF07900000000000000000000000000000000000000000000000000000000 DUP7 MSTORE DUP11 PUSH1 0x4 DUP8 ADD MSTORE PUSH1 0x40 DUP7 PUSH1 0x24 DUP2 DUP5 GAS STATICCALL SWAP1 DUP2 ISZERO PUSH2 0x141C JUMPI DUP13 DUP15 SWAP3 PUSH2 0x11D7 SWAP9 DUP12 SWAP2 PUSH2 0x13FB JUMPI JUMPDEST POP DUP1 SWAP2 LT PUSH1 0x0 EQ PUSH2 0x13F0 JUMPI POP PUSH2 0x113D DUP14 DUP1 SWAP5 JUMPDEST DUP7 PUSH2 0x41CA JUMP JUMPDEST PUSH2 0x1146 DUP10 PUSH2 0x29C1 JUMP JUMPDEST SWAP1 PUSH2 0x1154 PUSH1 0x40 MLOAD SWAP3 DUP4 PUSH2 0x2951 JUMP JUMPDEST DUP10 DUP3 MSTORE PUSH32 0xFFFFFFFFFFFFFFFFFFFFFFFFFFFFFFFFFFFFFFFFFFFFFFFFFFFFFFFFFFFFFFE0 PUSH2 0x1181 DUP12 PUSH2 0x29C1 JUMP JUMPDEST ADD CALLDATASIZE DUP5 DUP5 ADD CALLDATACOPY DUP13 DUP11 PUSH1 0x40 MLOAD DUP1 SWAP11 DUP2 SWAP6 DUP3 SWAP5 PUSH32 0x1E7DCC0D00000000000000000000000000000000000000000000000000000000 DUP5 MSTORE PUSH1 0x4 DUP5 ADD MSTORE DUP4 PUSH1 0x24 DUP5 ADD MSTORE DUP4 PUSH1 0x44 DUP5 ADD MSTORE PUSH1 0x80 PUSH1 0x64 DUP5 ADD MSTORE PUSH1 0x84 DUP4 ADD SWAP1 PUSH2 0x2A1E JUMP JUMPDEST SUB SWAP3 GAS CALL SWAP1 DUP2 ISZERO PUSH2 0x13E5 JUMPI DUP13 SWAP6 DUP12 SWAP3 PUSH2 0x13B2 JUMPI JUMPDEST POP DUP1 DUP13 GT PUSH2 0x12C4 JUMPI JUMPDEST POP POP PUSH1 0x40 MLOAD PUSH32 0x23B872DD00000000000000000000000000000000000000000000000000000000 DUP2 MSTORE PUSH20 0xFFFFFFFFFFFFFFFFFFFFFFFFFFFFFFFFFFFFFFFF DUP1 DUP12 AND PUSH1 0x4 DUP4 ADD MSTORE DUP5 AND PUSH1 0x24 DUP3 ADD MSTORE PUSH1 0x44 DUP2 ADD SWAP6 SWAP1 SWAP6 MSTORE POP SWAP3 SWAP10 SWAP2 SWAP3 POP DUP10 SWAP2 DUP3 SWAP1 DUP2 PUSH1 0x64 DUP2 ADD JUMPDEST SUB SWAP3 GAS CALL DUP1 ISZERO PUSH2 0x12B7 JUMPI PUSH2 0x127B JUMPI JUMPDEST POP SWAP1 PUSH2 0x1273 SWAP3 SWAP2 PUSH2 0x3F9E JUMP JUMPDEST PUSH1 0x40 MLOAD SWAP1 DUP2 MSTORE RETURN JUMPDEST DUP6 DUP8 DUP2 RETURNDATASIZE DUP4 GT PUSH2 0x12B0 JUMPI JUMPDEST PUSH2 0x1290 DUP2 DUP4 PUSH2 0x2951 JUMP JUMPDEST DUP2 ADD SUB SLT PUSH2 0x739 JUMPI POP PUSH2 0x12A7 PUSH2 0x1273 SWAP5 SWAP6 SWAP7 PUSH2 0x3EC6 JUMP JUMPDEST POP DUP6 SWAP5 SWAP4 PUSH2 0x1267 JUMP JUMPDEST POP RETURNDATASIZE PUSH2 0x1286 JUMP JUMPDEST POP PUSH1 0x40 MLOAD SWAP1 RETURNDATASIZE SWAP1 DUP3 RETURNDATACOPY RETURNDATASIZE SWAP1 REVERT JUMPDEST PUSH2 0x12D2 SWAP1 DUP13 SWAP7 SWAP4 SWAP5 SWAP7 PUSH2 0x2B7F JUMP JUMPDEST SWAP3 DUP6 PUSH32 0x0 AND DUP1 SWAP7 DUP3 AND EQ PUSH1 0x0 EQ PUSH2 0x139B JUMPI POP POP POP DUP3 EXTCODESIZE ISZERO PUSH2 0x1397 JUMPI DUP5 DUP1 SWAP4 PUSH1 0x24 PUSH1 0x40 MLOAD DUP1 SWAP7 DUP2 SWAP4 PUSH32 0x2E1A7D4D00000000000000000000000000000000000000000000000000000000 DUP4 MSTORE DUP7 PUSH1 0x4 DUP5 ADD MSTORE GAS CALL DUP1 ISZERO PUSH2 0x138C JUMPI DUP11 SWAP4 DUP7 SWAP2 PUSH2 0x136D JUMPI JUMPDEST POP POP SWAP3 PUSH2 0x1363 PUSH2 0x1258 SWAP4 SWAP5 DUP10 PUSH2 0x41AC JUMP JUMPDEST SWAP3 SWAP2 CODESIZE DUP9 DUP2 PUSH2 0x11F4 JUMP JUMPDEST DUP2 SWAP3 SWAP5 POP SWAP1 PUSH2 0x137B SWAP2 PUSH2 0x2951 JUMP JUMPDEST PUSH2 0x1388 JUMPI DUP9 SWAP2 DUP5 CODESIZE PUSH2 0x1352 JUMP JUMPDEST DUP4 DUP1 REVERT JUMPDEST PUSH1 0x40 MLOAD RETURNDATASIZE DUP8 DUP3 RETURNDATACOPY RETURNDATASIZE SWAP1 REVERT JUMPDEST DUP5 DUP1 REVERT JUMPDEST PUSH2 0x1258 SWAP6 POP SWAP1 PUSH2 0x13AD SWAP3 SWAP7 SWAP4 SWAP2 PUSH2 0x41CA JUMP JUMPDEST PUSH2 0x1363 JUMP JUMPDEST SWAP2 POP SWAP5 DUP1 SWAP3 SWAP8 POP RETURNDATASIZE DUP4 GT PUSH2 0x13DE JUMPI JUMPDEST PUSH2 0x13CB DUP2 DUP4 PUSH2 0x2951 JUMP JUMPDEST DUP2 ADD SUB SLT PUSH2 0x63E JUMPI DUP11 SWAP5 DUP9 DUP12 SWAP5 CODESIZE PUSH2 0x11EB JUMP JUMPDEST POP RETURNDATASIZE PUSH2 0x13C1 JUMP JUMPDEST PUSH1 0x40 MLOAD RETURNDATASIZE DUP10 DUP3 RETURNDATACOPY RETURNDATASIZE SWAP1 REVERT JUMPDEST PUSH2 0x113D SWAP1 DUP1 SWAP5 PUSH2 0x1137 JUMP JUMPDEST PUSH2 0x1414 SWAP2 POP PUSH1 0x40 RETURNDATASIZE PUSH1 0x40 GT PUSH2 0x60A JUMPI PUSH2 0x5FB DUP2 DUP4 PUSH2 0x2951 JUMP JUMPDEST SWAP1 POP CODESIZE PUSH2 0x1124 JUMP JUMPDEST PUSH1 0x40 MLOAD RETURNDATASIZE DUP11 DUP3 RETURNDATACOPY RETURNDATASIZE SWAP1 REVERT JUMPDEST DUP13 PUSH2 0x1439 SWAP2 SWAP14 SWAP3 SWAP8 SWAP7 SWAP6 SWAP5 SWAP4 SWAP14 PUSH2 0x2951 JUMP JUMPDEST SWAP11 SWAP1 SWAP2 SWAP3 SWAP4 SWAP5 CODESIZE PUSH2 0x10D1 JUMP JUMPDEST PUSH1 0x40 MLOAD RETURNDATASIZE DUP16 DUP3 RETURNDATACOPY RETURNDATASIZE SWAP1 REVERT JUMPDEST DUP12 DUP1 REVERT JUMPDEST SWAP1 SWAP4 POP DUP10 DUP2 DUP2 RETURNDATASIZE DUP4 GT PUSH2 0x1484 JUMPI JUMPDEST PUSH2 0x146C DUP2 DUP4 PUSH2 0x2951 JUMP JUMPDEST DUP2 ADD SUB SLT PUSH2 0x5D3 JUMPI PUSH2 0x147D SWAP1 PUSH2 0x2B05 JUMP JUMPDEST SWAP3 CODESIZE PUSH2 0x108B JUMP JUMPDEST POP RETURNDATASIZE PUSH2 0x1462 JUMP JUMPDEST PUSH1 0x4 PUSH1 0x40 MLOAD PUSH32 0xB2A4CAEB00000000000000000000000000000000000000000000000000000000 DUP2 MSTORE REVERT JUMPDEST SWAP1 SWAP2 SWAP9 POP DUP12 DUP2 DUP2 SWAP6 SWAP5 SWAP6 RETURNDATASIZE DUP4 GT PUSH2 0x14F2 JUMPI JUMPDEST PUSH2 0x14D1 DUP2 DUP4 PUSH2 0x2951 JUMP JUMPDEST DUP2 ADD SUB SLT PUSH2 0x729 JUMPI PUSH2 0x101A SWAP4 PUSH2 0x14E7 DUP10 SWAP3 PUSH2 0x2B05 JUMP JUMPDEST SWAP10 SWAP3 SWAP2 POP SWAP3 SWAP4 PUSH2 0x100B JUMP JUMPDEST POP RETURNDATASIZE PUSH2 0x14C7 JUMP JUMPDEST SWAP9 POP DUP10 DUP2 RETURNDATASIZE DUP4 GT PUSH2 0x1529 JUMPI JUMPDEST PUSH2 0x150F DUP2 DUP4 PUSH2 0x2951 JUMP JUMPDEST DUP2 ADD SUB SLT PUSH2 0x729 JUMPI DUP12 PUSH2 0x1523 PUSH1 0x4 SWAP11 PUSH2 0x2B05 JUMP JUMPDEST SWAP9 PUSH2 0xFCD JUMP JUMPDEST POP RETURNDATASIZE PUSH2 0x1505 JUMP JUMPDEST SWAP1 POP PUSH2 0x154B SWAP2 POP PUSH1 0x40 RETURNDATASIZE PUSH1 0x40 GT PUSH2 0x60A JUMPI PUSH2 0x5FB DUP2 DUP4 PUSH2 0x2951 JUMP JUMPDEST SWAP1 CODESIZE PUSH2 0xF8D JUMP JUMPDEST PUSH1 0x24 DUP12 PUSH32 0x4E487B7100000000000000000000000000000000000000000000000000000000 DUP2 MSTORE PUSH1 0x21 PUSH1 0x4 MSTORE REVERT JUMPDEST PUSH1 0x4 PUSH1 0x40 MLOAD PUSH32 0xD0E9C9F600000000000000000000000000000000000000000000000000000000 DUP2 MSTORE REVERT JUMPDEST POP CALLVALUE PUSH2 0x739 JUMPI PUSH2 0x15BA CALLDATASIZE PUSH1 0x4 PUSH2 0x2AC8 JUMP JUMPDEST PUSH2 0x15C5 SWAP4 SWAP3 SWAP4 PUSH2 0x2C75 JUMP JUMPDEST DUP2 ADD SWAP4 PUSH1 0x20 DUP3 DUP7 SUB SLT PUSH2 0x739 JUMPI DUP2 CALLDATALOAD PUSH8 0xFFFFFFFFFFFFFFFF SWAP3 DUP4 DUP3 GT PUSH2 0xDB3 JUMPI ADD SWAP2 PUSH1 0xE0 DUP4 DUP8 SUB SLT PUSH2 0x240D JUMPI PUSH1 0x40 MLOAD SWAP6 PUSH2 0x1600 PUSH1 0xE0 DUP9 PUSH2 0x2951 JUMP JUMPDEST PUSH2 0x1609 DUP5 PUSH2 0x2A79 JUMP JUMPDEST DUP8 MSTORE PUSH2 0x1617 PUSH1 0x20 DUP6 ADD PUSH2 0x2A79 JUMP JUMPDEST SWAP7 PUSH1 0x20 DUP2 ADD SWAP8 DUP9 MSTORE PUSH2 0x162B PUSH1 0x40 DUP7 ADD PUSH2 0x2A79 JUMP JUMPDEST PUSH1 0x40 DUP3 ADD SWAP1 DUP2 MSTORE PUSH2 0x163E PUSH1 0x60 DUP8 ADD PUSH2 0x2A79 JUMP JUMPDEST SWAP3 PUSH1 0x60 DUP4 ADD SWAP4 DUP5 MSTORE PUSH1 0x80 DUP4 ADD SWAP5 PUSH1 0x80 DUP9 ADD CALLDATALOAD DUP7 MSTORE PUSH1 0xA0 DUP9 ADD CALLDATALOAD SWAP8 PUSH1 0x8 DUP10 LT ISZERO PUSH2 0x731 JUMPI PUSH1 0xA0 DUP6 ADD SWAP9 DUP10 MSTORE PUSH1 0xC0 DUP2 ADD CALLDATALOAD SWAP2 DUP3 GT PUSH2 0x731 JUMPI PUSH2 0x167F SWAP3 SWAP2 ADD PUSH2 0x2BBB JUMP JUMPDEST PUSH1 0xC0 DUP4 ADD SWAP1 DUP2 MSTORE SWAP7 PUSH20 0xFFFFFFFFFFFFFFFFFFFFFFFFFFFFFFFFFFFFFFFF AND ADDRESS EQ PUSH2 0x16CD JUMPI PUSH1 0x4 PUSH1 0x40 MLOAD PUSH32 0xA610E78800000000000000000000000000000000000000000000000000000000 DUP2 MSTORE REVERT JUMPDEST MLOAD PUSH20 0xFFFFFFFFFFFFFFFFFFFFFFFFFFFFFFFFFFFFFFFF AND CALLER SUB PUSH2 0x6FF JUMPI PUSH20 0xFFFFFFFFFFFFFFFFFFFFFFFFFFFFFFFFFFFFFFFF DUP1 DUP1 SWAP3 MLOAD AND SWAP3 MLOAD AND SWAP8 MLOAD AND SWAP2 MLOAD SWAP4 MLOAD SWAP5 PUSH1 0x8 DUP7 LT ISZERO PUSH2 0x23E0 JUMPI MLOAD SWAP4 PUSH1 0x40 MLOAD SWAP5 PUSH32 0xDFE168100000000000000000000000000000000000000000000000000000000 DUP7 MSTORE PUSH1 0x20 DUP7 PUSH1 0x4 DUP2 DUP7 GAS STATICCALL SWAP6 DUP7 ISZERO PUSH2 0x138C JUMPI DUP6 SWAP7 PUSH2 0x23A4 JUMPI JUMPDEST POP PUSH1 0x40 MLOAD SWAP7 PUSH32 0xD21220A700000000000000000000000000000000000000000000000000000000 DUP9 MSTORE PUSH1 0x20 DUP9 PUSH1 0x4 DUP2 DUP8 GAS STATICCALL SWAP8 DUP9 ISZERO PUSH2 0x2399 JUMPI DUP7 SWAP9 PUSH2 0x235D JUMPI JUMPDEST POP PUSH1 0x40 MLOAD SWAP9 PUSH32 0x86A2908100000000000000000000000000000000000000000000000000000000 DUP11 MSTORE PUSH1 0x20 DUP11 PUSH1 0x4 DUP2 DUP9 GAS STATICCALL SWAP10 DUP11 ISZERO PUSH2 0x13E5 JUMPI DUP8 SWAP11 PUSH2 0x231D JUMPI JUMPDEST POP DUP9 PUSH1 0x4 DUP4 EQ DUP9 DUP2 ISZERO PUSH2 0x2311 JUMPI JUMPDEST DUP2 ISZERO PUSH2 0x22D2 JUMPI JUMPDEST POP ISZERO PUSH2 0x221A JUMPI POP PUSH1 0x40 MLOAD PUSH32 0x313CE56700000000000000000000000000000000000000000000000000000000 DUP2 MSTORE PUSH1 0x20 DUP2 PUSH1 0x4 DUP2 PUSH20 0xFFFFFFFFFFFFFFFFFFFFFFFFFFFFFFFFFFFFFFFF DUP14 AND GAS STATICCALL DUP1 ISZERO PUSH2 0x141C JUMPI DUP9 SWAP1 PUSH2 0x21DF JUMPI JUMPDEST PUSH2 0x184E SWAP2 POP PUSH2 0x3EA6 JUMP JUMPDEST PUSH1 0x40 MLOAD PUSH32 0x313CE56700000000000000000000000000000000000000000000000000000000 DUP2 MSTORE PUSH1 0x20 DUP2 PUSH1 0x4 DUP2 PUSH20 0xFFFFFFFFFFFFFFFFFFFFFFFFFFFFFFFFFFFFFFFF DUP16 AND GAS STATICCALL DUP1 ISZERO PUSH2 0x611 JUMPI DUP10 SWAP1 PUSH2 0x21A4 JUMPI JUMPDEST PUSH2 0x18AA SWAP2 POP PUSH2 0x3EA6 JUMP JUMPDEST SWAP1 PUSH2 0x18B5 DUP3 DUP3 PUSH2 0x40AD JUMP JUMPDEST PUSH5 0xE8D4A51000 DUP2 GT ISZERO PUSH2 0x219C JUMPI PUSH3 0xF4240 SWAP1 JUMPDEST PUSH1 0x40 MLOAD PUSH32 0x16F0115B00000000000000000000000000000000000000000000000000000000 DUP2 MSTORE PUSH1 0x20 DUP2 PUSH1 0x4 DUP2 DUP14 GAS STATICCALL SWAP1 DUP2 ISZERO PUSH2 0x213F JUMPI DUP13 SWAP2 PUSH2 0x214A JUMPI JUMPDEST POP PUSH1 0xE0 PUSH20 0xFFFFFFFFFFFFFFFFFFFFFFFFFFFFFFFFFFFFFFFF SWAP2 PUSH1 0x4 PUSH1 0x40 MLOAD DUP1 SWAP5 DUP2 SWAP4 PUSH32 0xE76C01E400000000000000000000000000000000000000000000000000000000 DUP4 MSTORE AND GAS STATICCALL SWAP1 DUP2 ISZERO PUSH2 0x213F JUMPI DUP13 SWAP2 PUSH2 0x2076 JUMPI JUMPDEST POP PUSH32 0xFFFFFFFFFFFFFFFFFFFFFFFFFFFFFFFFFFFFFFFFFFFFFFFFFFFFFFFFFFFFFFFF PUSH1 0x2 PUSH20 0xFFFFFFFFFFFFFFFFFFFFFFFFFFFFFFFFFFFFFFFF PUSH2 0x199E SWAP4 AND PUSH2 0x3ED3 JUMP JUMPDEST SWAP1 PUSH3 0xFFFFFF DUP4 AND ISZERO PUSH2 0x2049 JUMPI SWAP3 PUSH2 0x19D5 DUP16 SWAP6 SWAP5 SWAP4 PUSH2 0x19CD PUSH1 0x40 SWAP5 PUSH2 0x1A4D SWAP7 PUSH3 0xFFFFFF DUP1 DUP6 AND SWAP5 AND SWAP1 DIV SWAP1 PUSH2 0x3F8B JUMP JUMPDEST PUSH1 0xC0 SHR PUSH2 0x3F8B JUMP JUMPDEST SWAP5 DUP14 PUSH20 0xFFFFFFFFFFFFFFFFFFFFFFFFFFFFFFFFFFFFFFFF DUP13 DUP6 MLOAD SWAP7 DUP8 SWAP6 DUP7 SWAP5 DUP6 SWAP4 PUSH32 0x5CCFB71D00000000000000000000000000000000000000000000000000000000 DUP6 MSTORE PUSH1 0x4 DUP6 ADD PUSH1 0x40 SWAP2 SWAP5 SWAP4 SWAP3 SWAP5 PUSH1 0x60 DUP3 ADD SWAP6 PUSH20 0xFFFFFFFFFFFFFFFFFFFFFFFFFFFFFFFFFFFFFFFF DUP1 SWAP3 AND DUP4 MSTORE AND PUSH1 0x20 DUP3 ADD MSTORE ADD MSTORE JUMP JUMPDEST SUB SWAP3 AND GAS STATICCALL SWAP1 DUP2 ISZERO PUSH2 0x64A JUMPI SWAP2 PUSH2 0x1A74 PUSH2 0x1A7C SWAP3 DUP13 PUSH2 0x1A81 SWAP7 SWAP6 DUP2 SWAP3 PUSH2 0x2027 JUMPI JUMPDEST POP PUSH2 0x2D42 JUMP JUMPDEST PUSH1 0x1 SHR PUSH2 0x40AD JUMP JUMPDEST PUSH2 0x40AD JUMP JUMPDEST SWAP1 PUSH8 0xDE0B6B3A7640000 SWAP2 DUP3 DUP2 ADD DUP1 SWAP2 GT PUSH2 0x1FCD JUMPI DUP1 ISZERO PUSH2 0x1FFA JUMPI PUSH15 0xC097CE7BC90715B34B9F1000000000 DIV DUP1 DUP4 SUB SWAP3 DUP4 GT PUSH2 0x1FCD JUMPI DUP2 PUSH2 0x1AC7 DUP13 SWAP5 SWAP4 PUSH2 0x1ACD SWAP4 PUSH2 0x4064 JUMP JUMPDEST SWAP3 PUSH2 0x4064 JUMP JUMPDEST SWAP3 PUSH32 0x0 SWAP2 DUP10 PUSH20 0xFFFFFFFFFFFFFFFFFFFFFFFFFFFFFFFFFFFFFFFF DUP5 AND SWAP2 DUP13 DUP6 DUP5 PUSH20 0xFFFFFFFFFFFFFFFFFFFFFFFFFFFFFFFFFFFFFFFF DUP4 AND SUB PUSH2 0x1FAF JUMPI JUMPDEST POP POP POP POP PUSH20 0xFFFFFFFFFFFFFFFFFFFFFFFFFFFFFFFFFFFFFFFF DUP5 AND SUB PUSH2 0x1F8F JUMPI JUMPDEST POP POP POP POP POP JUMPDEST PUSH2 0x1B5A ADDRESS DUP7 PUSH2 0x4213 JUMP JUMPDEST PUSH2 0x1B64 ADDRESS DUP9 PUSH2 0x4213 JUMP JUMPDEST SWAP8 PUSH2 0x1B70 DUP3 DUP6 DUP10 PUSH2 0x3BD6 JUMP JUMPDEST PUSH2 0x1B7B DUP10 DUP6 DUP11 PUSH2 0x3BD6 JUMP JUMPDEST PUSH1 0x40 DUP1 MLOAD PUSH32 0x5CCFB71D00000000000000000000000000000000000000000000000000000000 DUP2 MSTORE PUSH20 0xFFFFFFFFFFFFFFFFFFFFFFFFFFFFFFFFFFFFFFFF DUP1 DUP8 AND PUSH1 0x4 DUP4 ADD MSTORE DUP10 AND PUSH1 0x24 DUP3 ADD MSTORE PUSH1 0x44 DUP2 ADD DUP5 SWAP1 MSTORE SWAP1 DUP2 DUP1 PUSH1 0x64 DUP2 ADD SUB DUP2 PUSH20 0xFFFFFFFFFFFFFFFFFFFFFFFFFFFFFFFFFFFFFFFF DUP7 AND GAS STATICCALL SWAP1 DUP2 ISZERO PUSH2 0x13E5 JUMPI DUP8 SWAP1 DUP9 SWAP3 PUSH2 0x1F6D JUMPI JUMPDEST POP DUP11 LT PUSH2 0x1EB3 JUMPI JUMPDEST DUP1 DUP11 GT PUSH2 0x1E97 JUMPI JUMPDEST POP PUSH20 0xFFFFFFFFFFFFFFFFFFFFFFFFFFFFFFFFFFFFFFFF SWAP3 SWAP2 PUSH1 0x20 SWAP2 PUSH2 0x1C98 PUSH1 0x40 MLOAD PUSH2 0x1C3B PUSH1 0x80 DUP3 PUSH2 0x2951 JUMP JUMPDEST DUP10 DUP2 MSTORE DUP10 DUP6 DUP3 ADD MSTORE DUP10 PUSH1 0x40 DUP3 ADD MSTORE DUP10 PUSH1 0x60 DUP3 ADD MSTORE PUSH1 0x40 MLOAD SWAP13 DUP14 SWAP5 PUSH32 0x8E3C92E400000000000000000000000000000000000000000000000000000000 DUP7 MSTORE PUSH1 0x4 DUP7 ADD MSTORE PUSH1 0x24 DUP6 ADD MSTORE ADDRESS PUSH1 0x44 DUP6 ADD MSTORE DUP8 PUSH1 0x64 DUP6 ADD MSTORE PUSH1 0x84 DUP5 ADD SWAP1 PUSH2 0x2CDE JUMP JUMPDEST DUP2 DUP9 PUSH2 0x104 SWAP7 DUP8 SWAP4 AND GAS CALL SWAP8 DUP9 ISZERO PUSH2 0x138C JUMPI DUP6 SWAP9 PUSH2 0x1E63 JUMPI JUMPDEST POP DUP8 LT PUSH2 0x1E3A JUMPI DUP3 PUSH2 0x1CE3 DUP9 PUSH2 0x120 SWAP6 DUP6 PUSH2 0x1CDE DUP4 PUSH15 0x22D473030F116DDEE9F6B43AC78BA3 PUSH1 0x20 SWAP10 PUSH2 0x3BD6 JUMP JUMPDEST PUSH2 0x3D47 JUMP JUMPDEST DUP9 DUP6 DUP10 PUSH2 0x1DF2 PUSH2 0x1CF2 DUP4 PUSH2 0x29C1 JUMP JUMPDEST PUSH2 0x1CFF PUSH1 0x40 MLOAD SWAP2 DUP3 PUSH2 0x2951 JUMP JUMPDEST DUP4 DUP2 MSTORE PUSH32 0xFFFFFFFFFFFFFFFFFFFFFFFFFFFFFFFFFFFFFFFFFFFFFFFFFFFFFFFFFFFFFFE0 PUSH2 0x1D2C DUP6 PUSH2 0x29C1 JUMP JUMPDEST ADD CALLDATASIZE DUP10 DUP4 ADD CALLDATACOPY PUSH1 0x40 MLOAD SWAP9 DUP10 SWAP8 DUP9 SWAP7 DUP8 SWAP6 PUSH32 0x8808E71C00000000000000000000000000000000000000000000000000000000 DUP8 MSTORE PUSH1 0x4 DUP8 ADD MSTORE PUSH1 0x24 DUP7 ADD MSTORE PUSH20 0xFFFFFFFFFFFFFFFFFFFFFFFFFFFFFFFFFFFFFFFF DUP7 SLOAD AND PUSH1 0x44 DUP7 ADD MSTORE PUSH1 0x1 SLOAD PUSH20 0xFFFFFFFFFFFFFFFFFFFFFFFFFFFFFFFFFFFFFFFF DUP2 AND PUSH1 0x64 DUP8 ADD MSTORE PUSH6 0xFFFFFFFFFFFF DUP2 PUSH1 0xA0 SHR AND PUSH1 0x84 DUP8 ADD MSTORE PUSH1 0xD0 SHR PUSH1 0xA4 DUP7 ADD MSTORE PUSH20 0xFFFFFFFFFFFFFFFFFFFFFFFFFFFFFFFFFFFFFFFF PUSH1 0x2 SLOAD AND PUSH1 0xC4 DUP7 ADD MSTORE PUSH1 0x3 SLOAD PUSH1 0xE4 DUP7 ADD MSTORE DUP5 ADD MSTORE PUSH2 0x124 DUP4 ADD SWAP1 PUSH2 0x2A1E JUMP JUMPDEST SUB SWAP3 GAS CALL DUP1 ISZERO PUSH2 0x6C7 JUMPI PUSH2 0x1E0F JUMPI JUMPDEST PUSH1 0x20 DUP6 PUSH2 0x1273 DUP9 DUP8 DUP8 PUSH2 0x3F9E JUMP JUMPDEST PUSH1 0x20 SWAP1 DUP2 RETURNDATASIZE DUP4 GT PUSH2 0x1E33 JUMPI JUMPDEST PUSH2 0x1E25 DUP2 DUP4 PUSH2 0x2951 JUMP JUMPDEST DUP2 ADD SUB SLT PUSH2 0x739 JUMPI DUP1 PUSH2 0x1E01 JUMP JUMPDEST POP RETURNDATASIZE PUSH2 0x1E1B JUMP JUMPDEST PUSH1 0x4 PUSH1 0x40 MLOAD PUSH31 0xBF876800000000000000000000000000000000000000000000000000000000 DUP2 MSTORE REVERT JUMPDEST SWAP1 SWAP8 POP PUSH1 0x20 DUP2 RETURNDATASIZE PUSH1 0x20 GT PUSH2 0x1E8F JUMPI JUMPDEST DUP2 PUSH2 0x1E7F PUSH1 0x20 SWAP4 DUP4 PUSH2 0x2951 JUMP JUMPDEST DUP2 ADD SUB SLT PUSH2 0x1397 JUMPI MLOAD SWAP7 CODESIZE PUSH2 0x1CB1 JUMP JUMPDEST RETURNDATASIZE SWAP2 POP PUSH2 0x1E72 JUMP JUMPDEST SWAP9 POP PUSH20 0xFFFFFFFFFFFFFFFFFFFFFFFFFFFFFFFFFFFFFFFF PUSH2 0x1C0F JUMP JUMPDEST PUSH1 0x40 DUP1 MLOAD PUSH32 0x5CCFB71D00000000000000000000000000000000000000000000000000000000 DUP2 MSTORE PUSH20 0xFFFFFFFFFFFFFFFFFFFFFFFFFFFFFFFFFFFFFFFF DUP1 DUP9 AND PUSH1 0x4 DUP4 ADD MSTORE DUP12 AND PUSH1 0x24 DUP3 ADD MSTORE PUSH1 0x44 DUP2 ADD DUP13 SWAP1 MSTORE SWAP1 DUP2 DUP1 PUSH1 0x64 DUP2 ADD SUB DUP2 PUSH20 0xFFFFFFFFFFFFFFFFFFFFFFFFFFFFFFFFFFFFFFFF DUP8 AND GAS STATICCALL SWAP1 DUP2 ISZERO PUSH2 0x141C JUMPI DUP9 SWAP2 PUSH2 0x1F4C JUMPI JUMPDEST POP DUP1 DUP5 GT PUSH2 0x1F44 JUMPI JUMPDEST POP PUSH2 0x1C07 JUMP JUMPDEST SWAP3 POP CODESIZE PUSH2 0x1F3E JUMP JUMPDEST PUSH2 0x1F65 SWAP2 POP PUSH1 0x40 RETURNDATASIZE PUSH1 0x40 GT PUSH2 0x60A JUMPI PUSH2 0x5FB DUP2 DUP4 PUSH2 0x2951 JUMP JUMPDEST SWAP1 POP CODESIZE PUSH2 0x1F35 JUMP JUMPDEST SWAP1 POP PUSH2 0x1F88 SWAP2 POP PUSH1 0x40 RETURNDATASIZE PUSH1 0x40 GT PUSH2 0x60A JUMPI PUSH2 0x5FB DUP2 DUP4 PUSH2 0x2951 JUMP JUMPDEST SWAP1 CODESIZE PUSH2 0x1BFF JUMP JUMPDEST PUSH2 0x1F9D PUSH1 0x1 PUSH2 0x1FA4 SWAP7 PUSH2 0x2B26 JUMP JUMPDEST MLOAD SWAP1 PUSH2 0x2E21 JUMP JUMPDEST POP CODESIZE DUP1 DUP8 DUP2 DUP1 PUSH2 0x1B4A JUMP JUMPDEST PUSH2 0x1FBC PUSH2 0x1FC3 SWAP5 DUP12 PUSH2 0x2B26 JUMP JUMPDEST MLOAD DUP7 PUSH2 0x2E21 JUMP JUMPDEST POP DUP10 CODESIZE DUP13 DUP6 PUSH2 0x1B29 JUMP JUMPDEST PUSH1 0x24 DUP10 PUSH32 0x4E487B7100000000000000000000000000000000000000000000000000000000 DUP2 MSTORE PUSH1 0x11 PUSH1 0x4 MSTORE REVERT JUMPDEST PUSH1 0x24 DUP10 PUSH32 0x4E487B7100000000000000000000000000000000000000000000000000000000 DUP2 MSTORE PUSH1 0x12 PUSH1 0x4 MSTORE REVERT JUMPDEST SWAP1 POP PUSH2 0x2042 SWAP2 POP PUSH1 0x40 RETURNDATASIZE PUSH1 0x40 GT PUSH2 0x60A JUMPI PUSH2 0x5FB DUP2 DUP4 PUSH2 0x2951 JUMP JUMPDEST SWAP1 CODESIZE PUSH2 0x1A6E JUMP JUMPDEST PUSH1 0x24 DUP13 PUSH32 0x4E487B7100000000000000000000000000000000000000000000000000000000 DUP2 MSTORE PUSH1 0x12 PUSH1 0x4 MSTORE REVERT JUMPDEST SWAP1 POP PUSH1 0xE0 DUP2 RETURNDATASIZE PUSH1 0xE0 GT PUSH2 0x2137 JUMPI JUMPDEST DUP2 PUSH2 0x2091 PUSH1 0xE0 SWAP4 DUP4 PUSH2 0x2951 JUMP JUMPDEST DUP2 ADD SUB SLT PUSH2 0x1450 JUMPI PUSH2 0x20A2 DUP2 PUSH2 0x2B05 JUMP JUMPDEST SWAP1 PUSH1 0x20 DUP2 ADD MLOAD DUP1 PUSH1 0x2 SIGNEXTEND SUB PUSH2 0x729 JUMPI PUSH1 0x2 PUSH20 0xFFFFFFFFFFFFFFFFFFFFFFFFFFFFFFFFFFFFFFFF PUSH2 0x199E SWAP4 PUSH2 0x212D PUSH1 0xC0 DUP6 PUSH2 0x20FF PUSH1 0x40 PUSH32 0xFFFFFFFFFFFFFFFFFFFFFFFFFFFFFFFFFFFFFFFFFFFFFFFFFFFFFFFFFFFFFFFF SWAP9 ADD PUSH2 0x3EB7 JUMP JUMPDEST POP PUSH2 0x210C PUSH1 0x60 DUP3 ADD PUSH2 0x3EB7 JUMP JUMPDEST POP PUSH2 0x2119 PUSH1 0x80 DUP3 ADD PUSH2 0x3E98 JUMP JUMPDEST POP PUSH2 0x2126 PUSH1 0xA0 DUP3 ADD PUSH2 0x3E98 JUMP JUMPDEST POP ADD PUSH2 0x3EC6 JUMP JUMPDEST POP SWAP4 POP POP POP PUSH2 0x195B JUMP JUMPDEST RETURNDATASIZE SWAP2 POP PUSH2 0x2084 JUMP JUMPDEST PUSH1 0x40 MLOAD RETURNDATASIZE DUP15 DUP3 RETURNDATACOPY RETURNDATASIZE SWAP1 REVERT JUMPDEST SWAP1 POP PUSH1 0x20 DUP2 RETURNDATASIZE PUSH1 0x20 GT PUSH2 0x2194 JUMPI JUMPDEST DUP2 PUSH2 0x2165 PUSH1 0x20 SWAP4 DUP4 PUSH2 0x2951 JUMP JUMPDEST DUP2 ADD SUB SLT PUSH2 0x1450 JUMPI PUSH1 0xE0 PUSH2 0x218D PUSH20 0xFFFFFFFFFFFFFFFFFFFFFFFFFFFFFFFFFFFFFFFF SWAP3 PUSH2 0x2B05 JUMP JUMPDEST SWAP2 POP PUSH2 0x1905 JUMP JUMPDEST RETURNDATASIZE SWAP2 POP PUSH2 0x2158 JUMP JUMPDEST PUSH1 0x1 SWAP1 PUSH2 0x18C8 JUMP JUMPDEST POP PUSH1 0x20 DUP2 RETURNDATASIZE PUSH1 0x20 GT PUSH2 0x21D7 JUMPI JUMPDEST DUP2 PUSH2 0x21BE PUSH1 0x20 SWAP4 DUP4 PUSH2 0x2951 JUMP JUMPDEST DUP2 ADD SUB SLT PUSH2 0x72D JUMPI PUSH2 0x21D2 PUSH2 0x18AA SWAP2 PUSH2 0x3E98 JUMP JUMPDEST PUSH2 0x18A0 JUMP JUMPDEST RETURNDATASIZE SWAP2 POP PUSH2 0x21B1 JUMP JUMPDEST POP PUSH1 0x20 DUP2 RETURNDATASIZE PUSH1 0x20 GT PUSH2 0x2212 JUMPI JUMPDEST DUP2 PUSH2 0x21F9 PUSH1 0x20 SWAP4 DUP4 PUSH2 0x2951 JUMP JUMPDEST DUP2 ADD SUB SLT PUSH2 0x731 JUMPI PUSH2 0x220D PUSH2 0x184E SWAP2 PUSH2 0x3E98 JUMP JUMPDEST PUSH2 0x1844 JUMP JUMPDEST RETURNDATASIZE SWAP2 POP PUSH2 0x21EC JUMP JUMPDEST SWAP1 SWAP2 PUSH32 0x0 SWAP1 PUSH20 0xFFFFFFFFFFFFFFFFFFFFFFFFFFFFFFFFFFFFFFFF DUP3 AND DUP10 DUP6 DUP13 DUP6 DUP5 PUSH20 0xFFFFFFFFFFFFFFFFFFFFFFFFFFFFFFFFFFFFFFFF DUP4 AND SUB PUSH2 0x22BB JUMPI JUMPDEST POP POP POP POP PUSH20 0xFFFFFFFFFFFFFFFFFFFFFFFFFFFFFFFFFFFFFFFF DUP5 AND SUB PUSH2 0x22A2 JUMPI JUMPDEST POP POP POP POP POP PUSH2 0x1B50 JUMP JUMPDEST PUSH2 0x1F9D PUSH1 0x1 PUSH2 0x22B0 SWAP7 PUSH2 0x2B26 JUMP JUMPDEST POP CODESIZE DUP1 DUP8 DUP2 DUP1 PUSH2 0x2298 JUMP JUMPDEST PUSH2 0x1FBC PUSH2 0x22C8 SWAP5 DUP12 PUSH2 0x2B26 JUMP JUMPDEST POP DUP10 DUP6 DUP13 DUP6 PUSH2 0x2277 JUMP JUMPDEST SWAP2 POP POP PUSH2 0x22E4 JUMPI DUP9 PUSH1 0x7 DUP4 EQ CODESIZE PUSH2 0x17EB JUMP JUMPDEST PUSH1 0x24 DUP8 PUSH32 0x4E487B7100000000000000000000000000000000000000000000000000000000 DUP2 MSTORE PUSH1 0x21 PUSH1 0x4 MSTORE REVERT JUMPDEST POP POP PUSH1 0x1 DUP4 EQ DUP9 PUSH2 0x17E4 JUMP JUMPDEST SWAP1 SWAP10 POP PUSH1 0x20 DUP2 RETURNDATASIZE PUSH1 0x20 GT PUSH2 0x2355 JUMPI JUMPDEST DUP2 PUSH2 0x2339 PUSH1 0x20 SWAP4 DUP4 PUSH2 0x2951 JUMP JUMPDEST DUP2 ADD SUB SLT PUSH2 0x2351 JUMPI PUSH2 0x234A SWAP1 PUSH2 0x2B05 JUMP JUMPDEST SWAP9 CODESIZE PUSH2 0x17D6 JUMP JUMPDEST DUP7 DUP1 REVERT JUMPDEST RETURNDATASIZE SWAP2 POP PUSH2 0x232C JUMP JUMPDEST SWAP1 SWAP8 POP PUSH1 0x20 DUP2 RETURNDATASIZE PUSH1 0x20 GT PUSH2 0x2391 JUMPI JUMPDEST DUP2 PUSH2 0x2379 PUSH1 0x20 SWAP4 DUP4 PUSH2 0x2951 JUMP JUMPDEST DUP2 ADD SUB SLT PUSH2 0x735 JUMPI PUSH2 0x238A SWAP1 PUSH2 0x2B05 JUMP JUMPDEST SWAP7 CODESIZE PUSH2 0x1797 JUMP JUMPDEST RETURNDATASIZE SWAP2 POP PUSH2 0x236C JUMP JUMPDEST PUSH1 0x40 MLOAD RETURNDATASIZE DUP9 DUP3 RETURNDATACOPY RETURNDATASIZE SWAP1 REVERT JUMPDEST SWAP1 SWAP6 POP PUSH1 0x20 DUP2 RETURNDATASIZE PUSH1 0x20 GT PUSH2 0x23D8 JUMPI JUMPDEST DUP2 PUSH2 0x23C0 PUSH1 0x20 SWAP4 DUP4 PUSH2 0x2951 JUMP JUMPDEST DUP2 ADD SUB SLT PUSH2 0x1397 JUMPI PUSH2 0x23D1 SWAP1 PUSH2 0x2B05 JUMP JUMPDEST SWAP5 CODESIZE PUSH2 0x1758 JUMP JUMPDEST RETURNDATASIZE SWAP2 POP PUSH2 0x23B3 JUMP JUMPDEST PUSH1 0x24 DUP5 PUSH32 0x4E487B7100000000000000000000000000000000000000000000000000000000 DUP2 MSTORE PUSH1 0x21 PUSH1 0x4 MSTORE REVERT JUMPDEST POP DUP1 REVERT JUMPDEST POP CALLVALUE PUSH2 0x739 JUMPI DUP1 PUSH32 0xFFFFFFFFFFFFFFFFFFFFFFFFFFFFFFFFFFFFFFFFFFFFFFFFFFFFFFFFFFFFFFFC CALLDATASIZE ADD SLT PUSH2 0x739 JUMPI PUSH1 0x20 PUSH1 0x40 MLOAD PUSH20 0xDEF171FE48CF0115B1D80B88DC8EAB59176FEE57 DUP2 MSTORE RETURN JUMPDEST POP CALLVALUE PUSH2 0x739 JUMPI DUP1 PUSH32 0xFFFFFFFFFFFFFFFFFFFFFFFFFFFFFFFFFFFFFFFFFFFFFFFFFFFFFFFFFFFFFFFC CALLDATASIZE ADD SLT PUSH2 0x739 JUMPI PUSH1 0x20 PUSH1 0x40 MLOAD PUSH20 0x6352A56CAADC4F1E25CD6C75970FA768A3304E64 DUP2 MSTORE RETURN JUMPDEST POP CALLVALUE PUSH2 0x739 JUMPI PUSH1 0x40 PUSH32 0xFFFFFFFFFFFFFFFFFFFFFFFFFFFFFFFFFFFFFFFFFFFFFFFFFFFFFFFFFFFFFFFC CALLDATASIZE ADD SLT PUSH2 0x739 JUMPI PUSH1 0x4 CALLDATALOAD SWAP1 PUSH8 0xFFFFFFFFFFFFFFFF DUP3 GT PUSH2 0x739 JUMPI CALLDATASIZE PUSH1 0x23 DUP4 ADD SLT ISZERO PUSH2 0x739 JUMPI DUP2 PUSH1 0x4 ADD CALLDATALOAD SWAP1 PUSH2 0x2508 DUP3 PUSH2 0x2A61 JUMP JUMPDEST SWAP1 PUSH2 0x2516 PUSH1 0x40 MLOAD SWAP3 DUP4 PUSH2 0x2951 JUMP JUMPDEST DUP3 DUP3 MSTORE PUSH1 0x20 SWAP4 DUP5 DUP4 ADD PUSH1 0x24 DUP1 SWAP6 PUSH1 0x5 SHL DUP4 ADD ADD SWAP2 CALLDATASIZE DUP4 GT PUSH2 0x1388 JUMPI DUP6 ADD SWAP1 JUMPDEST DUP3 DUP3 LT PUSH2 0x270B JUMPI POP POP POP DUP3 CALLDATALOAD PUSH20 0xFFFFFFFFFFFFFFFFFFFFFFFFFFFFFFFFFFFFFFFF DUP1 DUP3 AND DUP3 SUB PUSH2 0xDB3 JUMPI PUSH1 0x40 MLOAD PUSH32 0xF851A44000000000000000000000000000000000000000000000000000000000 DUP2 MSTORE DUP7 DUP2 PUSH1 0x4 DUP2 DUP6 PUSH32 0x0 AND GAS STATICCALL SWAP1 DUP2 ISZERO PUSH2 0xC0C JUMPI SWAP1 DUP3 SWAP2 DUP6 SWAP2 PUSH2 0x26D3 JUMPI JUMPDEST POP AND CALLER SUB PUSH2 0xD56 JUMPI DUP3 JUMPDEST DUP5 MLOAD DUP2 LT ISZERO PUSH2 0x26CF JUMPI DUP6 DUP8 DUP4 PUSH2 0x25E0 DUP5 DUP10 PUSH2 0x2B26 JUMP JUMPDEST MLOAD AND PUSH1 0x40 MLOAD SWAP3 DUP4 DUP1 SWAP3 PUSH32 0x70A0823100000000000000000000000000000000000000000000000000000000 DUP3 MSTORE ADDRESS PUSH1 0x4 DUP4 ADD MSTORE GAS STATICCALL SWAP1 DUP2 ISZERO PUSH2 0x138C JUMPI DUP6 SWAP2 PUSH2 0x26A2 JUMPI JUMPDEST POP DUP1 PUSH2 0x2685 JUMPI JUMPDEST POP PUSH32 0xFFFFFFFFFFFFFFFFFFFFFFFFFFFFFFFFFFFFFFFFFFFFFFFFFFFFFFFFFFFFFFFF DUP2 EQ PUSH2 0x2659 JUMPI PUSH1 0x1 ADD PUSH2 0x25CA JUMP JUMPDEST DUP6 DUP5 PUSH32 0x4E487B7100000000000000000000000000000000000000000000000000000000 DUP2 MSTORE PUSH1 0x11 PUSH1 0x4 MSTORE REVERT JUMPDEST PUSH2 0x269C SWAP1 DUP5 DUP5 PUSH2 0x2695 DUP6 DUP11 PUSH2 0x2B26 JUMP JUMPDEST MLOAD AND PUSH2 0x41CA JUMP JUMPDEST CODESIZE PUSH2 0x2629 JUMP JUMPDEST SWAP1 POP DUP8 DUP2 DUP2 RETURNDATASIZE DUP4 GT PUSH2 0x26C8 JUMPI JUMPDEST PUSH2 0x26B9 DUP2 DUP4 PUSH2 0x2951 JUMP JUMPDEST DUP2 ADD SUB SLT PUSH2 0x1397 JUMPI MLOAD CODESIZE PUSH2 0x2622 JUMP JUMPDEST POP RETURNDATASIZE PUSH2 0x26AF JUMP JUMPDEST DUP4 DUP1 RETURN JUMPDEST DUP1 SWAP3 POP DUP9 DUP1 SWAP3 POP RETURNDATASIZE DUP4 GT PUSH2 0x2704 JUMPI JUMPDEST PUSH2 0x26EC DUP2 DUP4 PUSH2 0x2951 JUMP JUMPDEST DUP2 ADD SUB SLT PUSH2 0x1388 JUMPI PUSH2 0x26FE DUP3 SWAP2 PUSH2 0x2B05 JUMP JUMPDEST CODESIZE PUSH2 0x25C0 JUMP JUMPDEST POP RETURNDATASIZE PUSH2 0x26E2 JUMP JUMPDEST DUP2 CALLDATALOAD PUSH20 0xFFFFFFFFFFFFFFFFFFFFFFFFFFFFFFFFFFFFFFFF DUP2 AND DUP2 SUB PUSH2 0x1397 JUMPI DUP2 MSTORE SWAP1 DUP7 ADD SWAP1 DUP7 ADD PUSH2 0x2535 JUMP JUMPDEST POP CALLVALUE PUSH2 0x739 JUMPI DUP1 PUSH32 0xFFFFFFFFFFFFFFFFFFFFFFFFFFFFFFFFFFFFFFFFFFFFFFFFFFFFFFFFFFFFFFFC CALLDATASIZE ADD SLT PUSH2 0x739 JUMPI PUSH1 0x20 PUSH1 0x40 MLOAD PUSH15 0x22D473030F116DDEE9F6B43AC78BA3 DUP2 MSTORE RETURN JUMPDEST POP CALLVALUE PUSH2 0x739 JUMPI DUP1 PUSH32 0xFFFFFFFFFFFFFFFFFFFFFFFFFFFFFFFFFFFFFFFFFFFFFFFFFFFFFFFFFFFFFFFC CALLDATASIZE ADD SLT PUSH2 0x739 JUMPI PUSH2 0x2806 PUSH2 0x27BB PUSH1 0x5 PUSH2 0x29C1 JUMP JUMPDEST PUSH2 0x27C8 PUSH1 0x40 MLOAD SWAP2 DUP3 PUSH2 0x2951 JUMP JUMPDEST PUSH1 0x5 DUP2 MSTORE PUSH32 0x312E302E30000000000000000000000000000000000000000000000000000000 PUSH1 0x20 DUP3 ADD MSTORE PUSH1 0x40 MLOAD SWAP2 DUP3 SWAP2 PUSH1 0x20 DUP4 MSTORE PUSH1 0x20 DUP4 ADD SWAP1 PUSH2 0x2A1E JUMP JUMPDEST SUB SWAP1 RETURN JUMPDEST POP CALLVALUE PUSH2 0x739 JUMPI DUP1 PUSH32 0xFFFFFFFFFFFFFFFFFFFFFFFFFFFFFFFFFFFFFFFFFFFFFFFFFFFFFFFFFFFFFFFC CALLDATASIZE ADD SLT PUSH2 0x739 JUMPI PUSH1 0x20 PUSH1 0x40 MLOAD PUSH20 0xE592427A0AECE92DE3EDEE1F18E0157C05861564 DUP2 MSTORE RETURN JUMPDEST POP CALLVALUE PUSH2 0x739 JUMPI DUP1 PUSH32 0xFFFFFFFFFFFFFFFFFFFFFFFFFFFFFFFFFFFFFFFFFFFFFFFFFFFFFFFFFFFFFFFC CALLDATASIZE ADD SLT PUSH2 0x739 JUMPI PUSH1 0x20 PUSH1 0x40 MLOAD PUSH20 0xDEF1C0DED9BEC7F1A1670819833240F027B25EFF DUP2 MSTORE RETURN JUMPDEST POP CALLVALUE PUSH2 0x739 JUMPI DUP1 PUSH32 0xFFFFFFFFFFFFFFFFFFFFFFFFFFFFFFFFFFFFFFFFFFFFFFFFFFFFFFFFFFFFFFFC CALLDATASIZE ADD SLT PUSH2 0x739 JUMPI PUSH2 0x2806 PUSH2 0x28E0 PUSH1 0x22 PUSH2 0x29C1 JUMP JUMPDEST PUSH2 0x28ED PUSH1 0x40 MLOAD SWAP2 DUP3 PUSH2 0x2951 JUMP JUMPDEST PUSH1 0x22 DUP2 MSTORE PUSH32 0x416C7461697220457874656E73696F6E3A2048797065727669736F7220506F6F PUSH1 0x20 DUP3 ADD MSTORE PUSH32 0x6C73000000000000000000000000000000000000000000000000000000000000 PUSH1 0x40 DUP3 ADD MSTORE PUSH1 0x40 MLOAD SWAP2 DUP3 SWAP2 PUSH1 0x20 DUP4 MSTORE PUSH1 0x20 DUP4 ADD SWAP1 PUSH2 0x2A1E JUMP JUMPDEST SWAP1 PUSH1 0x1F PUSH32 0xFFFFFFFFFFFFFFFFFFFFFFFFFFFFFFFFFFFFFFFFFFFFFFFFFFFFFFFFFFFFFFE0 SWAP2 ADD AND DUP2 ADD SWAP1 DUP2 LT PUSH8 0xFFFFFFFFFFFFFFFF DUP3 GT OR PUSH2 0x2992 JUMPI PUSH1 0x40 MSTORE JUMP JUMPDEST PUSH32 0x4E487B7100000000000000000000000000000000000000000000000000000000 PUSH1 0x0 MSTORE PUSH1 0x41 PUSH1 0x4 MSTORE PUSH1 0x24 PUSH1 0x0 REVERT JUMPDEST PUSH8 0xFFFFFFFFFFFFFFFF DUP2 GT PUSH2 0x2992 JUMPI PUSH1 0x1F ADD PUSH32 0xFFFFFFFFFFFFFFFFFFFFFFFFFFFFFFFFFFFFFFFFFFFFFFFFFFFFFFFFFFFFFFE0 AND PUSH1 0x20 ADD SWAP1 JUMP JUMPDEST PUSH1 0x0 JUMPDEST DUP4 DUP2 LT PUSH2 0x2A0E JUMPI POP POP PUSH1 0x0 SWAP2 ADD MSTORE JUMP JUMPDEST DUP2 DUP2 ADD MLOAD DUP4 DUP3 ADD MSTORE PUSH1 0x20 ADD PUSH2 0x29FE JUMP JUMPDEST SWAP1 PUSH32 0xFFFFFFFFFFFFFFFFFFFFFFFFFFFFFFFFFFFFFFFFFFFFFFFFFFFFFFFFFFFFFFE0 PUSH1 0x1F PUSH1 0x20 SWAP4 PUSH2 0x2A5A DUP2 MLOAD DUP1 SWAP3 DUP2 DUP8 MSTORE DUP8 DUP1 DUP9 ADD SWAP2 ADD PUSH2 0x29FB JUMP JUMPDEST ADD AND ADD ADD SWAP1 JUMP JUMPDEST PUSH8 0xFFFFFFFFFFFFFFFF DUP2 GT PUSH2 0x2992 JUMPI PUSH1 0x5 SHL PUSH1 0x20 ADD SWAP1 JUMP JUMPDEST CALLDATALOAD SWAP1 PUSH20 0xFFFFFFFFFFFFFFFFFFFFFFFFFFFFFFFFFFFFFFFF DUP3 AND DUP3 SUB PUSH2 0x63E JUMPI JUMP JUMPDEST SWAP2 DUP2 PUSH1 0x1F DUP5 ADD SLT ISZERO PUSH2 0x63E JUMPI DUP3 CALLDATALOAD SWAP2 PUSH8 0xFFFFFFFFFFFFFFFF DUP4 GT PUSH2 0x63E JUMPI PUSH1 0x20 DUP4 DUP2 DUP7 ADD SWAP6 ADD ADD GT PUSH2 0x63E JUMPI JUMP JUMPDEST SWAP2 PUSH1 0x60 DUP4 DUP4 SUB SLT PUSH2 0x63E JUMPI PUSH2 0x2ADC DUP4 PUSH2 0x2A79 JUMP JUMPDEST SWAP3 PUSH1 0x20 DUP2 ADD CALLDATALOAD SWAP3 PUSH1 0x40 DUP3 ADD CALLDATALOAD PUSH8 0xFFFFFFFFFFFFFFFF DUP2 GT PUSH2 0x63E JUMPI PUSH2 0x2B01 SWAP3 ADD PUSH2 0x2A9A JUMP JUMPDEST SWAP1 SWAP2 JUMP JUMPDEST MLOAD SWAP1 PUSH20 0xFFFFFFFFFFFFFFFFFFFFFFFFFFFFFFFFFFFFFFFF DUP3 AND DUP3 SUB PUSH2 0x63E JUMPI JUMP JUMPDEST DUP1 MLOAD DUP3 LT ISZERO PUSH2 0x2B3A JUMPI PUSH1 0x20 SWAP2 PUSH1 0x5 SHL ADD ADD SWAP1 JUMP JUMPDEST PUSH32 0x4E487B7100000000000000000000000000000000000000000000000000000000 PUSH1 0x0 MSTORE PUSH1 0x32 PUSH1 0x4 MSTORE PUSH1 0x24 PUSH1 0x0 REVERT JUMPDEST SWAP2 SWAP1 DUP3 PUSH1 0x40 SWAP2 SUB SLT PUSH2 0x63E JUMPI PUSH1 0x20 DUP3 MLOAD SWAP3 ADD MLOAD SWAP1 JUMP JUMPDEST SWAP2 SWAP1 DUP3 SUB SWAP2 DUP3 GT PUSH2 0x2B8C JUMPI JUMP JUMPDEST PUSH32 0x4E487B7100000000000000000000000000000000000000000000000000000000 PUSH1 0x0 MSTORE PUSH1 0x11 PUSH1 0x4 MSTORE PUSH1 0x24 PUSH1 0x0 REVERT JUMPDEST SWAP1 DUP1 PUSH1 0x1F DUP4 ADD SLT ISZERO PUSH2 0x63E JUMPI DUP2 CALLDATALOAD SWAP2 PUSH2 0x2BD3 DUP4 PUSH2 0x2A61 JUMP JUMPDEST SWAP3 PUSH1 0x40 SWAP1 PUSH2 0x2BE3 DUP3 MLOAD SWAP6 DUP7 PUSH2 0x2951 JUMP JUMPDEST DUP1 DUP6 MSTORE PUSH1 0x20 SWAP4 DUP5 DUP1 DUP8 ADD SWAP3 PUSH1 0x5 SHL DUP6 ADD ADD SWAP4 DUP2 DUP6 GT PUSH2 0x63E JUMPI DUP6 DUP2 ADD SWAP3 JUMPDEST DUP6 DUP5 LT PUSH2 0x2C12 JUMPI POP POP POP POP POP POP POP SWAP1 JUMP JUMPDEST DUP4 CALLDATALOAD PUSH8 0xFFFFFFFFFFFFFFFF DUP2 GT PUSH2 0x63E JUMPI DUP3 ADD DUP4 PUSH1 0x3F DUP3 ADD SLT ISZERO PUSH2 0x63E JUMPI DUP8 DUP2 ADD CALLDATALOAD SWAP2 PUSH2 0x2C3E DUP4 PUSH2 0x29C1 JUMP JUMPDEST PUSH2 0x2C4A DUP9 MLOAD SWAP2 DUP3 PUSH2 0x2951 JUMP JUMPDEST DUP4 DUP2 MSTORE DUP6 DUP9 DUP6 DUP6 ADD ADD GT PUSH2 0x63E JUMPI PUSH1 0x0 DUP11 DUP6 DUP2 SWAP7 DUP12 DUP4 SWAP8 ADD DUP4 DUP7 ADD CALLDATACOPY DUP4 ADD ADD MSTORE DUP2 MSTORE ADD SWAP4 ADD SWAP3 PUSH2 0x2C01 JUMP JUMPDEST PUSH20 0xFFFFFFFFFFFFFFFFFFFFFFFFFFFFFFFFFFFFFFFF PUSH32 0x0 AND ADDRESS EQ PUSH2 0x2CB4 JUMPI JUMP JUMPDEST PUSH1 0x4 PUSH1 0x40 MLOAD PUSH32 0xC97BBBAE00000000000000000000000000000000000000000000000000000000 DUP2 MSTORE REVERT JUMPDEST PUSH1 0x0 SWAP2 JUMPDEST PUSH1 0x4 DUP4 LT PUSH2 0x2CEF JUMPI POP POP POP JUMP JUMPDEST PUSH1 0x1 SWAP1 DUP3 MLOAD DUP2 MSTORE PUSH1 0x20 DUP1 SWAP2 ADD SWAP3 ADD SWAP3 ADD SWAP2 SWAP1 PUSH2 0x2CE2 JUMP JUMPDEST SWAP1 DUP2 MSTORE PUSH20 0xFFFFFFFFFFFFFFFFFFFFFFFFFFFFFFFFFFFFFFFF SWAP2 DUP3 AND PUSH1 0x20 DUP3 ADD MSTORE SWAP2 AND PUSH1 0x40 DUP3 ADD MSTORE PUSH1 0xE0 DUP2 ADD SWAP3 SWAP2 PUSH2 0x2D40 SWAP2 PUSH1 0x60 ADD SWAP1 PUSH2 0x2CDE JUMP JUMPDEST JUMP JUMPDEST SWAP2 SWAP1 DUP3 ADD DUP1 SWAP3 GT PUSH2 0x2B8C JUMPI JUMP JUMPDEST SWAP1 SWAP5 SWAP4 SWAP2 SWAP5 PUSH32 0x0 SWAP4 PUSH20 0xFFFFFFFFFFFFFFFFFFFFFFFFFFFFFFFFFFFFFFFF DUP1 DUP7 AND DUP1 DUP3 DUP5 AND EQ SWAP1 DUP2 SWAP3 DUP3 ISZERO PUSH2 0x2E15 JUMPI JUMPDEST POP POP PUSH2 0x2DDA JUMPI POP SWAP2 PUSH2 0x1F9D PUSH1 0x1 PUSH2 0x2DCB PUSH2 0x2DD7 SWAP10 SWAP7 SWAP5 DUP9 PUSH2 0x2DD1 SWAP10 SWAP8 PUSH2 0x2DC4 PUSH1 0x0 DUP14 PUSH2 0x2B26 JUMP JUMPDEST MLOAD DUP8 PUSH2 0x2E21 JUMP JUMPDEST SWAP8 PUSH2 0x2B26 JUMP JUMPDEST SWAP1 PUSH2 0x2D42 JUMP JUMPDEST SWAP1 JUMP JUMPDEST SWAP1 PUSH2 0x2DD7 SWAP8 SWAP5 SWAP3 SWAP6 SWAP4 SWAP2 PUSH1 0x0 SWAP1 PUSH1 0x0 EQ PUSH2 0x2DFF JUMPI POP POP PUSH2 0x1F9D PUSH1 0x1 PUSH2 0x2DD1 SWAP7 SWAP8 PUSH2 0x2B26 JUMP JUMPDEST PUSH2 0x1F9D SWAP2 SWAP4 POP PUSH2 0x2E10 SWAP7 SWAP6 SWAP8 PUSH2 0x2B26 JUMP JUMPDEST PUSH2 0x2D42 JUMP JUMPDEST DUP8 AND EQ SWAP1 POP CODESIZE DUP1 PUSH2 0x2D9D JUMP JUMPDEST SWAP4 SWAP3 SWAP1 SWAP2 SWAP4 PUSH1 0x8 DUP2 LT ISZERO PUSH2 0x3B77 JUMPI DUP1 PUSH2 0x2F13 JUMPI POP POP PUSH1 0x40 MLOAD SWAP3 PUSH32 0xD2C4B59800000000000000000000000000000000000000000000000000000000 DUP5 MSTORE PUSH1 0x20 SWAP4 PUSH20 0xDEF171FE48CF0115B1D80B88DC8EAB59176FEE57 SWAP2 DUP6 DUP3 PUSH1 0x4 DUP2 DUP7 GAS STATICCALL SWAP2 DUP3 ISZERO PUSH2 0x2F07 JUMPI PUSH1 0x0 SWAP3 PUSH2 0x2EC1 JUMPI JUMPDEST POP PUSH1 0x0 SWAP5 DUP6 SWAP5 SWAP4 SWAP3 PUSH2 0x2E9E SWAP3 PUSH2 0x3BD6 JUMP JUMPDEST DUP5 DUP3 MLOAD SWAP3 ADD SWAP1 CALLVALUE SWAP1 GAS CALL PUSH2 0x2EB0 PUSH2 0x3BA6 JUMP JUMPDEST SWAP1 ISZERO PUSH2 0x2EBB JUMPI ADD MLOAD SWAP1 JUMP JUMPDEST DUP1 MLOAD SWAP2 ADD REVERT JUMPDEST SWAP1 SWAP4 SWAP3 SWAP2 POP DUP6 DUP2 DUP2 RETURNDATASIZE DUP4 GT PUSH2 0x2F00 JUMPI JUMPDEST PUSH2 0x2EDB DUP2 DUP4 PUSH2 0x2951 JUMP JUMPDEST DUP2 ADD SUB SLT PUSH2 0x63E JUMPI PUSH1 0x0 SWAP5 DUP6 SWAP5 PUSH2 0x2EF4 PUSH2 0x2E9E SWAP4 PUSH2 0x2B05 JUMP JUMPDEST SWAP4 SWAP5 SWAP6 POP SWAP2 POP SWAP5 PUSH2 0x2E8D JUMP JUMPDEST POP RETURNDATASIZE PUSH2 0x2ED1 JUMP JUMPDEST PUSH1 0x40 MLOAD RETURNDATASIZE PUSH1 0x0 DUP3 RETURNDATACOPY RETURNDATASIZE SWAP1 REVERT JUMPDEST SWAP3 SWAP4 SWAP2 SWAP3 PUSH1 0x1 DUP2 SUB PUSH2 0x316A JUMPI POP POP SWAP1 DUP1 MLOAD DUP2 ADD DUP2 PUSH1 0x20 DUP3 ADD SWAP2 SUB SWAP4 PUSH2 0x140 DUP6 SLT PUSH2 0x63E JUMPI PUSH1 0xE0 PUSH32 0xFFFFFFFFFFFFFFFFFFFFFFFFFFFFFFFFFFFFFFFFFFFFFFFFFFFFFFFFFFFFFFE0 PUSH2 0x2F66 PUSH1 0x20 DUP7 ADD PUSH2 0x2B05 JUMP JUMPDEST SWAP7 ADD SLT PUSH2 0x63E JUMPI PUSH1 0x40 SWAP5 DUP6 MLOAD SWAP5 PUSH2 0x2F7E PUSH1 0xE0 DUP8 PUSH2 0x2951 JUMP JUMPDEST PUSH2 0x2F89 DUP8 DUP7 ADD PUSH2 0x2B05 JUMP JUMPDEST DUP7 MSTORE PUSH2 0x2F97 PUSH1 0x60 DUP7 ADD PUSH2 0x2B05 JUMP JUMPDEST SWAP1 PUSH1 0x20 DUP8 ADD SWAP2 DUP3 MSTORE PUSH2 0x2FAB PUSH1 0x80 DUP8 ADD PUSH2 0x2B05 JUMP JUMPDEST SWAP5 DUP9 DUP9 ADD SWAP6 DUP7 MSTORE PUSH2 0x2FBE PUSH1 0xA0 DUP9 ADD PUSH2 0x2B05 JUMP JUMPDEST SWAP8 PUSH1 0x60 DUP2 ADD SWAP9 DUP10 MSTORE PUSH1 0xC0 DUP9 ADD MLOAD PUSH1 0x80 DUP3 ADD SWAP1 DUP2 MSTORE PUSH1 0xE0 DUP10 ADD MLOAD SWAP1 PUSH1 0xA0 DUP4 ADD SWAP2 DUP3 MSTORE PUSH2 0x100 DUP11 ADD MLOAD SWAP3 PUSH1 0xC0 DUP2 ADD SWAP4 DUP5 MSTORE PUSH2 0x120 DUP12 ADD MLOAD PUSH8 0xFFFFFFFFFFFFFFFF SWAP1 DUP2 DUP2 GT PUSH2 0x63E JUMPI DUP7 PUSH1 0x20 PUSH2 0x3013 SWAP3 DUP16 ADD ADD PUSH2 0x3CE1 JUMP JUMPDEST SWAP6 PUSH2 0x140 DUP14 ADD MLOAD SWAP2 DUP3 GT PUSH2 0x63E JUMPI DUP15 SWAP13 PUSH2 0x3030 SWAP3 ADD PUSH1 0x20 ADD PUSH2 0x3CE1 JUMP JUMPDEST SWAP6 DUP10 DUP4 MLOAD SUB PUSH2 0x3162 JUMPI JUMPDEST PUSH20 0x1111111254EEB25477B68FB85ED929F73A960582 SWAP10 DUP11 PUSH2 0x305A SWAP3 PUSH2 0x3BD6 JUMP JUMPDEST DUP11 MLOAD SWAP12 DUP13 DUP1 SWAP12 DUP2 SWAP11 DUP3 SWAP11 PUSH32 0x12AA3CAF00000000000000000000000000000000000000000000000000000000 DUP5 MSTORE PUSH20 0xFFFFFFFFFFFFFFFFFFFFFFFFFFFFFFFFFFFFFFFF DUP1 SWAP7 DUP2 SWAP6 DUP3 DUP1 SWAP6 AND SWAP1 PUSH1 0x4 ADD MSTORE MLOAD AND PUSH1 0x24 DUP14 ADD MSTORE MLOAD AND PUSH1 0x44 DUP12 ADD MSTORE MLOAD AND PUSH1 0x64 DUP10 ADD MSTORE MLOAD AND PUSH1 0x84 DUP8 ADD MSTORE MLOAD PUSH1 0xA4 DUP7 ADD MSTORE MLOAD PUSH1 0xC4 DUP6 ADD MSTORE MLOAD PUSH1 0xE4 DUP5 ADD MSTORE PUSH2 0x104 DUP4 ADD PUSH2 0x140 SWAP1 MSTORE PUSH2 0x144 DUP4 ADD PUSH2 0x30EF SWAP2 PUSH2 0x2A1E JUMP JUMPDEST DUP3 DUP2 SUB PUSH32 0xFFFFFFFFFFFFFFFFFFFFFFFFFFFFFFFFFFFFFFFFFFFFFFFFFFFFFFFFFFFFFFFC ADD PUSH2 0x124 DUP5 ADD MSTORE PUSH2 0x3123 SWAP2 PUSH2 0x2A1E JUMP JUMPDEST SUB SWAP2 GAS SWAP1 PUSH1 0x0 SWAP2 CALL SWAP2 DUP3 ISZERO PUSH2 0x3158 JUMPI PUSH1 0x0 SWAP3 PUSH2 0x313E JUMPI POP POP SWAP1 JUMP JUMPDEST PUSH2 0x3154 SWAP3 POP DUP1 RETURNDATASIZE LT PUSH2 0x60A JUMPI PUSH2 0x5FB DUP2 DUP4 PUSH2 0x2951 JUMP JUMPDEST POP SWAP1 JUMP JUMPDEST MLOAD RETURNDATASIZE PUSH1 0x0 DUP3 RETURNDATACOPY RETURNDATASIZE SWAP1 REVERT JUMPDEST DUP10 DUP4 MSTORE PUSH2 0x303A JUMP JUMPDEST PUSH1 0x2 DUP2 SUB PUSH2 0x31C2 JUMPI POP POP SWAP1 PUSH1 0x0 SWAP3 SWAP2 PUSH2 0x319A DUP5 SWAP4 PUSH20 0x1111111254EEB25477B68FB85ED929F73A960582 DUP1 SWAP4 PUSH2 0x3BD6 JUMP JUMPDEST PUSH1 0x20 DUP3 MLOAD SWAP3 ADD SWAP1 CALLVALUE SWAP1 GAS CALL PUSH2 0x31AD PUSH2 0x3BA6 JUMP JUMPDEST SWAP1 ISZERO PUSH2 0x31BA JUMPI PUSH1 0x20 ADD MLOAD SWAP1 JUMP JUMPDEST PUSH1 0x20 DUP2 MLOAD SWAP2 ADD REVERT JUMPDEST PUSH1 0x3 DUP2 SUB PUSH2 0x31F2 JUMPI POP POP SWAP1 PUSH1 0x0 SWAP3 SWAP2 PUSH2 0x319A DUP5 SWAP4 PUSH20 0xDEF1C0DED9BEC7F1A1670819833240F027B25EFF DUP1 SWAP4 PUSH2 0x3BD6 JUMP JUMPDEST PUSH1 0x4 DUP2 SUB PUSH2 0x366A JUMPI POP POP DUP2 MLOAD DUP3 ADD SWAP1 PUSH1 0x60 DUP4 DUP4 SUB SLT PUSH2 0x63E JUMPI PUSH2 0x3217 PUSH1 0x20 DUP5 ADD PUSH2 0x2B05 JUMP JUMPDEST PUSH1 0x40 DUP5 ADD MLOAD SWAP5 PUSH8 0xFFFFFFFFFFFFFFFF DUP7 GT PUSH2 0x63E JUMPI PUSH2 0x140 DUP7 DUP7 ADD DUP6 SUB SLT PUSH2 0x63E JUMPI PUSH1 0x40 MLOAD SWAP3 PUSH2 0x3249 PUSH2 0x140 DUP6 PUSH2 0x2951 JUMP JUMPDEST PUSH2 0x3257 PUSH1 0x20 DUP9 DUP9 ADD ADD PUSH2 0x2B05 JUMP JUMPDEST DUP5 MSTORE PUSH2 0x3267 PUSH1 0x40 DUP9 DUP9 ADD ADD PUSH2 0x2B05 JUMP JUMPDEST PUSH1 0x20 DUP6 ADD MSTORE PUSH2 0x327A PUSH1 0x60 DUP9 DUP9 ADD ADD PUSH2 0x2B05 JUMP JUMPDEST PUSH1 0x40 DUP6 ADD MSTORE PUSH2 0x328D PUSH1 0x80 DUP9 DUP9 ADD ADD PUSH2 0x2B05 JUMP JUMPDEST PUSH1 0x60 DUP6 ADD MSTORE PUSH1 0xA0 DUP8 DUP8 ADD ADD MLOAD PUSH1 0x80 DUP6 ADD MSTORE PUSH1 0xC0 DUP8 DUP8 ADD ADD MLOAD PUSH1 0xA0 DUP6 ADD MSTORE PUSH1 0xE0 DUP8 DUP8 ADD ADD MLOAD PUSH1 0xC0 DUP6 ADD MSTORE PUSH2 0x100 SWAP7 DUP8 DUP2 DUP9 ADD ADD MLOAD PUSH1 0xE0 DUP7 ADD MSTORE PUSH2 0x32D4 PUSH2 0x120 DUP3 DUP10 ADD ADD PUSH2 0x2B05 JUMP JUMPDEST DUP9 DUP7 ADD MSTORE PUSH2 0x140 DUP2 DUP9 ADD ADD MLOAD SWAP1 PUSH8 0xFFFFFFFFFFFFFFFF DUP3 GT PUSH2 0x63E JUMPI PUSH1 0x20 PUSH2 0x3303 SWAP3 DUP2 DUP10 ADD SWAP3 DUP11 ADD ADD ADD PUSH2 0x3CE1 JUMP JUMPDEST PUSH2 0x120 DUP6 ADD MSTORE PUSH1 0x60 DUP7 ADD MLOAD SWAP5 PUSH8 0xFFFFFFFFFFFFFFFF DUP7 GT PUSH2 0x63E JUMPI PUSH1 0x20 DUP2 ADD PUSH1 0x3F DUP8 DUP10 ADD ADD SLT ISZERO PUSH2 0x63E JUMPI PUSH1 0x20 DUP7 DUP9 ADD ADD MLOAD PUSH2 0x333E DUP2 PUSH2 0x2A61 JUMP JUMPDEST SWAP7 PUSH2 0x334C PUSH1 0x40 MLOAD SWAP9 DUP10 PUSH2 0x2951 JUMP JUMPDEST DUP2 DUP9 MSTORE PUSH1 0x20 DUP9 ADD DUP1 SWAP10 PUSH1 0x20 DUP6 ADD PUSH1 0x40 DUP6 PUSH1 0x5 SHL DUP6 DUP5 ADD ADD ADD GT PUSH2 0x63E JUMPI PUSH1 0x40 DUP4 DUP3 ADD ADD SWAP2 JUMPDEST PUSH1 0x40 DUP6 PUSH1 0x5 SHL DUP6 DUP5 ADD ADD ADD DUP4 LT PUSH2 0x35B7 JUMPI POP POP POP POP POP POP SWAP2 PUSH2 0x33C3 DUP3 PUSH20 0x6352A56CAADC4F1E25CD6C75970FA768A3304E64 PUSH2 0x120 SWAP6 DUP8 SWAP6 PUSH1 0x80 PUSH2 0x3488 SWAP10 ADD MLOAD SUB PUSH2 0x35AC JUMPI JUMPDEST SWAP10 SWAP9 SWAP8 SWAP7 SWAP6 SWAP5 SWAP4 SWAP10 PUSH2 0x3BD6 JUMP JUMPDEST PUSH1 0x40 MLOAD SWAP7 DUP8 SWAP7 PUSH32 0x90411A3200000000000000000000000000000000000000000000000000000000 DUP9 MSTORE PUSH20 0xFFFFFFFFFFFFFFFFFFFFFFFFFFFFFFFFFFFFFFFF DUP1 SWAP3 AND PUSH1 0x4 DUP10 ADD MSTORE PUSH1 0x60 PUSH1 0x24 DUP10 ADD MSTORE DUP2 DUP4 MLOAD AND PUSH1 0x64 DUP10 ADD MSTORE DUP2 PUSH1 0x20 DUP5 ADD MLOAD AND PUSH1 0x84 DUP10 ADD MSTORE DUP2 PUSH1 0x40 DUP5 ADD MLOAD AND PUSH1 0xA4 DUP10 ADD MSTORE DUP2 PUSH1 0x60 DUP5 ADD MLOAD AND PUSH1 0xC4 DUP10 ADD MSTORE PUSH1 0x80 DUP4 ADD MLOAD PUSH1 0xE4 DUP10 ADD MSTORE PUSH1 0xA0 DUP4 ADD MLOAD PUSH2 0x104 DUP10 ADD MSTORE PUSH1 0xC0 DUP4 ADD MLOAD PUSH2 0x124 DUP10 ADD MSTORE PUSH1 0xE0 DUP4 ADD MLOAD PUSH2 0x144 DUP10 ADD MSTORE DUP3 ADD MLOAD AND PUSH2 0x164 DUP8 ADD MSTORE ADD MLOAD PUSH2 0x140 PUSH2 0x184 DUP7 ADD MSTORE PUSH2 0x1A4 DUP6 ADD SWAP1 PUSH2 0x2A1E JUMP JUMPDEST SWAP1 PUSH32 0xFFFFFFFFFFFFFFFFFFFFFFFFFFFFFFFFFFFFFFFFFFFFFFFFFFFFFFFFFFFFFFFC DUP5 DUP4 SUB ADD PUSH1 0x44 DUP6 ADD MSTORE MLOAD DUP1 DUP3 MSTORE PUSH1 0x20 DUP3 ADD SWAP2 PUSH1 0x20 DUP3 PUSH1 0x5 SHL DUP3 ADD ADD SWAP4 SWAP3 PUSH1 0x0 SWAP2 JUMPDEST DUP4 DUP4 LT PUSH2 0x3538 JUMPI POP POP POP POP POP SWAP1 DUP1 PUSH1 0x20 SWAP3 SUB DUP2 PUSH1 0x0 PUSH20 0x6352A56CAADC4F1E25CD6C75970FA768A3304E64 GAS CALL SWAP1 DUP2 ISZERO PUSH2 0x2F07 JUMPI PUSH1 0x0 SWAP2 PUSH2 0x3509 JUMPI POP SWAP1 JUMP JUMPDEST SWAP1 POP PUSH1 0x20 DUP2 RETURNDATASIZE PUSH1 0x20 GT PUSH2 0x3530 JUMPI JUMPDEST DUP2 PUSH2 0x3524 PUSH1 0x20 SWAP4 DUP4 PUSH2 0x2951 JUMP JUMPDEST DUP2 ADD SUB SLT PUSH2 0x63E JUMPI MLOAD SWAP1 JUMP JUMPDEST RETURNDATASIZE SWAP2 POP PUSH2 0x3517 JUMP JUMPDEST SWAP2 SWAP4 SWAP6 POP SWAP2 SWAP4 PUSH1 0x20 DUP1 PUSH2 0x359A DUP4 PUSH32 0xFFFFFFFFFFFFFFFFFFFFFFFFFFFFFFFFFFFFFFFFFFFFFFFFFFFFFFFFFFFFFFE0 DUP7 PUSH1 0x1 SWAP7 SUB ADD DUP8 MSTORE PUSH1 0x80 PUSH1 0x60 DUP12 MLOAD DUP1 MLOAD DUP5 MSTORE DUP6 DUP2 ADD MLOAD DUP7 DUP6 ADD MSTORE PUSH1 0x40 DUP2 ADD MLOAD PUSH1 0x40 DUP6 ADD MSTORE ADD MLOAD SWAP2 DUP2 PUSH1 0x60 DUP3 ADD MSTORE ADD SWAP1 PUSH2 0x2A1E JUMP JUMPDEST SWAP8 ADD SWAP4 ADD SWAP4 ADD SWAP1 SWAP3 DUP7 SWAP6 SWAP5 SWAP3 SWAP4 PUSH2 0x34CB JUMP JUMPDEST DUP3 PUSH1 0x80 DUP8 ADD MSTORE PUSH2 0x33B6 JUMP JUMPDEST DUP3 MLOAD SWAP1 PUSH8 0xFFFFFFFFFFFFFFFF DUP3 GT PUSH2 0x63E JUMPI PUSH1 0x80 PUSH32 0xFFFFFFFFFFFFFFFFFFFFFFFFFFFFFFFFFFFFFFFFFFFFFFFFFFFFFFFFFFFFFFE0 DUP4 DUP8 DUP7 ADD ADD DUP10 SUB ADD SLT PUSH2 0x63E JUMPI PUSH1 0x40 MLOAD SWAP2 PUSH2 0x3608 PUSH1 0x80 DUP5 PUSH2 0x2951 JUMP JUMPDEST DUP4 DUP7 ADD DUP2 ADD PUSH1 0x40 DUP2 DUP2 ADD MLOAD DUP6 MSTORE PUSH1 0x60 DUP3 ADD MLOAD PUSH1 0x20 DUP7 ADD MSTORE PUSH1 0x80 DUP3 ADD MLOAD SWAP1 DUP6 ADD MSTORE PUSH1 0xA0 ADD MLOAD SWAP2 PUSH8 0xFFFFFFFFFFFFFFFF DUP4 GT PUSH2 0x63E JUMPI PUSH1 0x40 SWAP4 PUSH2 0x3658 PUSH1 0x20 SWAP5 SWAP4 DUP7 DUP7 SWAP6 DUP7 DUP15 ADD SWAP3 DUP13 DUP12 ADD ADD ADD ADD PUSH2 0x3CE1 JUMP JUMPDEST PUSH1 0x60 DUP3 ADD MSTORE DUP2 MSTORE ADD SWAP4 ADD SWAP3 SWAP1 POP PUSH2 0x3371 JUMP JUMPDEST SWAP2 SWAP4 SWAP2 PUSH1 0x5 DUP2 SUB PUSH2 0x369C JUMPI POP POP SWAP1 PUSH1 0x0 SWAP3 PUSH2 0x319A DUP5 SWAP4 PUSH20 0x6352A56CAADC4F1E25CD6C75970FA768A3304E64 DUP1 SWAP4 PUSH2 0x3BD6 JUMP JUMPDEST SWAP2 SWAP3 SWAP2 PUSH1 0x6 DUP2 SUB PUSH2 0x37AE JUMPI POP POP PUSH1 0x40 MLOAD SWAP3 PUSH32 0xF3DCED3C00000000000000000000000000000000000000000000000000000000 DUP5 MSTORE PUSH1 0x20 SWAP4 PUSH20 0xA748D6573ACA135AF68F2635BE60CB80278BD855 SWAP2 DUP6 DUP3 PUSH1 0x4 DUP2 DUP7 GAS STATICCALL DUP1 ISZERO PUSH2 0x2F07 JUMPI DUP7 SWAP1 PUSH1 0x0 SWAP1 PUSH2 0x3766 JUMPI JUMPDEST PUSH20 0xFFFFFFFFFFFFFFFFFFFFFFFFFFFFFFFFFFFFFFFF SWAP4 POP PUSH1 0x4 PUSH1 0x40 MLOAD DUP1 SWAP6 DUP2 SWAP4 PUSH32 0x1C6ECED500000000000000000000000000000000000000000000000000000000 DUP4 MSTORE AND GAS STATICCALL SWAP2 DUP3 ISZERO PUSH2 0x2F07 JUMPI PUSH1 0x0 SWAP3 PUSH2 0x2EC1 JUMPI POP PUSH1 0x0 SWAP5 DUP6 SWAP5 SWAP4 SWAP3 PUSH2 0x2E9E SWAP3 PUSH2 0x3BD6 JUMP JUMPDEST POP DUP3 DUP2 RETURNDATASIZE DUP4 GT PUSH2 0x37A7 JUMPI JUMPDEST PUSH2 0x377B DUP2 DUP4 PUSH2 0x2951 JUMP JUMPDEST DUP2 ADD SUB SLT PUSH2 0x63E JUMPI DUP6 PUSH2 0x37A2 PUSH20 0xFFFFFFFFFFFFFFFFFFFFFFFFFFFFFFFFFFFFFFFF SWAP4 PUSH2 0x2B05 JUMP JUMPDEST PUSH2 0x3701 JUMP JUMPDEST POP RETURNDATASIZE PUSH2 0x3771 JUMP JUMPDEST SWAP1 SWAP2 POP PUSH1 0x7 SUB PUSH2 0x3B4D JUMPI PUSH2 0x37D7 DUP3 PUSH20 0xE592427A0AECE92DE3EDEE1F18E0157C05861564 DUP6 PUSH2 0x3BD6 JUMP JUMPDEST PUSH1 0x0 DUP1 PUSH1 0x40 MLOAD SWAP1 PUSH2 0x37E9 PUSH1 0x80 DUP4 PUSH2 0x2951 JUMP JUMPDEST PUSH1 0x64 DUP3 MSTORE PUSH2 0x1F4 PUSH1 0x20 DUP4 ADD MSTORE PUSH2 0xBB8 PUSH1 0x40 DUP4 ADD MSTORE PUSH2 0x2710 PUSH1 0x60 DUP4 ADD MSTORE PUSH1 0x0 JUMPDEST PUSH1 0x4 DUP2 LT PUSH2 0x3967 JUMPI POP POP POP PUSH3 0xFFFFFF AND SWAP1 DUP2 ISZERO PUSH2 0x393D JUMPI PUSH20 0xFFFFFFFFFFFFFFFFFFFFFFFFFFFFFFFFFFFFFFFF SWAP1 DUP2 PUSH1 0x40 MLOAD SWAP6 PUSH2 0x3846 PUSH2 0x100 DUP9 PUSH2 0x2951 JUMP JUMPDEST AND DUP6 MSTORE AND PUSH1 0x20 DUP5 ADD MSTORE PUSH1 0x40 DUP4 ADD MSTORE ADDRESS PUSH1 0x60 DUP4 ADD MSTORE PUSH4 0xFFFFFFFF PUSH1 0x80 DUP4 ADD MSTORE PUSH1 0xA0 DUP3 ADD MSTORE PUSH1 0x0 PUSH1 0xC0 DUP3 ADD MSTORE PUSH1 0x0 PUSH1 0xE0 DUP3 ADD MSTORE PUSH20 0xFFFFFFFFFFFFFFFFFFFFFFFFFFFFFFFFFFFFFFFF PUSH1 0xE0 PUSH1 0x40 MLOAD SWAP3 PUSH32 0x414BF38900000000000000000000000000000000000000000000000000000000 DUP5 MSTORE DUP3 DUP2 MLOAD AND PUSH1 0x4 DUP6 ADD MSTORE DUP3 PUSH1 0x20 DUP3 ADD MLOAD AND PUSH1 0x24 DUP6 ADD MSTORE PUSH3 0xFFFFFF PUSH1 0x40 DUP3 ADD MLOAD AND PUSH1 0x44 DUP6 ADD MSTORE DUP3 PUSH1 0x60 DUP3 ADD MLOAD AND PUSH1 0x64 DUP6 ADD MSTORE PUSH1 0x80 DUP2 ADD MLOAD PUSH1 0x84 DUP6 ADD MSTORE PUSH1 0xA0 DUP2 ADD MLOAD PUSH1 0xA4 DUP6 ADD MSTORE PUSH1 0xC0 DUP2 ADD MLOAD PUSH1 0xC4 DUP6 ADD MSTORE ADD MLOAD AND PUSH1 0xE4 DUP3 ADD MSTORE PUSH1 0x20 DUP2 PUSH2 0x104 DUP2 PUSH1 0x0 PUSH20 0xE592427A0AECE92DE3EDEE1F18E0157C05861564 GAS CALL SWAP1 DUP2 ISZERO PUSH2 0x2F07 JUMPI PUSH1 0x0 SWAP2 PUSH2 0x3509 JUMPI POP SWAP1 JUMP JUMPDEST PUSH1 0x4 PUSH1 0x40 MLOAD PUSH32 0xE2DB3AAD00000000000000000000000000000000000000000000000000000000 DUP2 MSTORE REVERT JUMPDEST PUSH3 0xFFFFFF PUSH2 0x3975 DUP3 DUP6 PUSH2 0x3D23 JUMP JUMPDEST MLOAD AND PUSH1 0x40 MLOAD SWAP1 PUSH32 0x1698EE8200000000000000000000000000000000000000000000000000000000 DUP3 MSTORE PUSH20 0xFFFFFFFFFFFFFFFFFFFFFFFFFFFFFFFFFFFFFFFF DUP10 AND PUSH1 0x4 DUP4 ADD MSTORE PUSH20 0xFFFFFFFFFFFFFFFFFFFFFFFFFFFFFFFFFFFFFFFF DUP8 AND PUSH1 0x24 DUP4 ADD MSTORE PUSH1 0x44 DUP3 ADD MSTORE PUSH1 0x20 DUP2 PUSH1 0x64 DUP2 PUSH20 0x1F98431C8AD98523631AE4A59F267346EA31F984 GAS STATICCALL DUP1 ISZERO PUSH2 0x2F07 JUMPI PUSH1 0x0 SWAP1 PUSH2 0x3B00 JUMPI JUMPDEST PUSH20 0xFFFFFFFFFFFFFFFFFFFFFFFFFFFFFFFFFFFFFFFF SWAP2 POP AND DUP1 PUSH2 0x3A2D JUMPI JUMPDEST POP PUSH1 0x1 ADD PUSH2 0x3808 JUMP JUMPDEST PUSH1 0x20 PUSH1 0x4 SWAP2 PUSH1 0x40 MLOAD SWAP3 DUP4 DUP1 SWAP3 PUSH32 0x1A68650200000000000000000000000000000000000000000000000000000000 DUP3 MSTORE GAS STATICCALL DUP1 ISZERO PUSH2 0x2F07 JUMPI PUSH1 0x0 SWAP1 PUSH2 0x3AA5 JUMPI JUMPDEST PUSH16 0xFFFFFFFFFFFFFFFFFFFFFFFFFFFFFFFF SWAP2 POP AND DUP3 DUP2 GT ISZERO PUSH2 0x3A24 JUMPI SWAP2 POP SWAP3 POP PUSH1 0x1 PUSH3 0xFFFFFF PUSH2 0x3A9C DUP6 DUP6 PUSH2 0x3D23 JUMP JUMPDEST MLOAD AND SWAP4 SWAP1 PUSH2 0x3A24 JUMP JUMPDEST POP PUSH1 0x20 DUP2 RETURNDATASIZE PUSH1 0x20 GT PUSH2 0x3AF8 JUMPI JUMPDEST DUP2 PUSH2 0x3ABF PUSH1 0x20 SWAP4 DUP4 PUSH2 0x2951 JUMP JUMPDEST DUP2 ADD SUB SLT PUSH2 0x63E JUMPI MLOAD PUSH16 0xFFFFFFFFFFFFFFFFFFFFFFFFFFFFFFFF DUP2 AND DUP2 SUB PUSH2 0x63E JUMPI PUSH16 0xFFFFFFFFFFFFFFFFFFFFFFFFFFFFFFFF SWAP1 PUSH2 0x3A6C JUMP JUMPDEST RETURNDATASIZE SWAP2 POP PUSH2 0x3AB2 JUMP JUMPDEST POP PUSH1 0x20 DUP2 RETURNDATASIZE PUSH1 0x20 GT PUSH2 0x3B45 JUMPI JUMPDEST DUP2 PUSH2 0x3B1A PUSH1 0x20 SWAP4 DUP4 PUSH2 0x2951 JUMP JUMPDEST DUP2 ADD SUB SLT PUSH2 0x63E JUMPI PUSH2 0x3B40 PUSH20 0xFFFFFFFFFFFFFFFFFFFFFFFFFFFFFFFFFFFFFFFF SWAP2 PUSH2 0x2B05 JUMP JUMPDEST PUSH2 0x3A06 JUMP JUMPDEST RETURNDATASIZE SWAP2 POP PUSH2 0x3B0D JUMP JUMPDEST PUSH1 0x4 PUSH1 0x40 MLOAD PUSH32 0xEFF442C100000000000000000000000000000000000000000000000000000000 DUP2 MSTORE REVERT JUMPDEST PUSH32 0x4E487B7100000000000000000000000000000000000000000000000000000000 PUSH1 0x0 MSTORE PUSH1 0x21 PUSH1 0x4 MSTORE PUSH1 0x24 PUSH1 0x0 REVERT JUMPDEST RETURNDATASIZE ISZERO PUSH2 0x3BD1 JUMPI RETURNDATASIZE SWAP1 PUSH2 0x3BB7 DUP3 PUSH2 0x29C1 JUMP JUMPDEST SWAP2 PUSH2 0x3BC5 PUSH1 0x40 MLOAD SWAP4 DUP5 PUSH2 0x2951 JUMP JUMPDEST DUP3 MSTORE RETURNDATASIZE PUSH1 0x0 PUSH1 0x20 DUP5 ADD RETURNDATACOPY JUMP JUMPDEST PUSH1 0x60 SWAP1 JUMP JUMPDEST SWAP1 SWAP2 PUSH1 0x40 MLOAD PUSH32 0xDD62ED3E00000000000000000000000000000000000000000000000000000000 DUP2 MSTORE ADDRESS PUSH1 0x4 DUP3 ADD MSTORE PUSH1 0x20 DUP2 PUSH1 0x44 DUP2 PUSH20 0xFFFFFFFFFFFFFFFFFFFFFFFFFFFFFFFFFFFFFFFF DUP1 DUP10 AND PUSH1 0x24 DUP4 ADD MSTORE DUP8 AND GAS STATICCALL SWAP1 DUP2 ISZERO PUSH2 0x2F07 JUMPI PUSH1 0x0 SWAP2 PUSH2 0x3CB0 JUMPI JUMPDEST POP LT ISZERO PUSH2 0x3CAC JUMPI PUSH1 0x44 PUSH1 0x10 PUSH1 0x0 DUP1 SWAP4 PUSH1 0x20 SWAP6 PUSH1 0x14 MSTORE PUSH32 0xFFFFFFFFFFFFFFFFFFFFFFFFFFFFFFFFFFFFFFFFFFFFFFFFFFFFFFFFFFFFFFFF PUSH1 0x34 MSTORE PUSH16 0x95EA7B3000000000000000000000000 DUP3 MSTORE GAS CALL RETURNDATASIZE ISZERO PUSH1 0x1 PUSH1 0x0 MLOAD EQ OR AND ISZERO PUSH2 0x3C9E JUMPI PUSH1 0x0 PUSH1 0x34 MSTORE JUMP JUMPDEST PUSH4 0x3E3F8F73 PUSH1 0x0 MSTORE PUSH1 0x4 PUSH1 0x1C REVERT JUMPDEST POP POP JUMP JUMPDEST SWAP1 PUSH1 0x20 DUP3 RETURNDATASIZE DUP3 GT PUSH2 0x3CD9 JUMPI JUMPDEST DUP2 PUSH2 0x3CC9 PUSH1 0x20 SWAP4 DUP4 PUSH2 0x2951 JUMP JUMPDEST DUP2 ADD SUB SLT PUSH2 0x739 JUMPI POP MLOAD CODESIZE PUSH2 0x3C3A JUMP JUMPDEST RETURNDATASIZE SWAP2 POP PUSH2 0x3CBC JUMP JUMPDEST DUP2 PUSH1 0x1F DUP3 ADD SLT ISZERO PUSH2 0x63E JUMPI DUP1 MLOAD PUSH2 0x3CF7 DUP2 PUSH2 0x29C1 JUMP JUMPDEST SWAP3 PUSH2 0x3D05 PUSH1 0x40 MLOAD SWAP5 DUP6 PUSH2 0x2951 JUMP JUMPDEST DUP2 DUP5 MSTORE PUSH1 0x20 DUP3 DUP5 ADD ADD GT PUSH2 0x63E JUMPI PUSH2 0x2DD7 SWAP2 PUSH1 0x20 DUP1 DUP6 ADD SWAP2 ADD PUSH2 0x29FB JUMP JUMPDEST SWAP1 PUSH1 0x4 DUP2 LT ISZERO PUSH2 0x2B3A JUMPI PUSH1 0x5 SHL ADD SWAP1 JUMP JUMPDEST MLOAD SWAP1 PUSH6 0xFFFFFFFFFFFF DUP3 AND DUP3 SUB PUSH2 0x63E JUMPI JUMP JUMPDEST SWAP2 PUSH1 0x40 MLOAD PUSH32 0x927DA10500000000000000000000000000000000000000000000000000000000 DUP2 MSTORE ADDRESS PUSH1 0x4 DUP3 ADD MSTORE PUSH20 0xFFFFFFFFFFFFFFFFFFFFFFFFFFFFFFFFFFFFFFFF DUP1 DUP1 SWAP6 AND SWAP4 DUP5 PUSH1 0x24 DUP5 ADD MSTORE AND SWAP2 DUP3 PUSH1 0x44 DUP4 ADD MSTORE PUSH15 0x22D473030F116DDEE9F6B43AC78BA3 SWAP2 PUSH1 0x60 DUP2 PUSH1 0x64 DUP2 DUP7 GAS STATICCALL DUP1 ISZERO PUSH2 0x2F07 JUMPI DUP7 SWAP2 PUSH1 0x0 SWAP2 PUSH2 0x3E42 JUMPI JUMPDEST POP AND LT ISZERO PUSH2 0x3E3C JUMPI DUP1 EXTCODESIZE ISZERO PUSH2 0x63E JUMPI PUSH1 0x0 SWAP3 DUP4 PUSH1 0x84 SWAP3 PUSH1 0x40 MLOAD SWAP7 DUP8 SWAP6 DUP7 SWAP5 PUSH32 0x87517C4500000000000000000000000000000000000000000000000000000000 DUP7 MSTORE PUSH1 0x4 DUP7 ADD MSTORE PUSH1 0x24 DUP6 ADD MSTORE PUSH1 0x44 DUP5 ADD MSTORE PUSH6 0xFFFFFFFFFFFF PUSH1 0x64 DUP5 ADD MSTORE GAS CALL DUP1 ISZERO PUSH2 0x2F07 JUMPI PUSH2 0x3E31 JUMPI POP JUMP JUMPDEST PUSH1 0x0 PUSH2 0x2D40 SWAP2 PUSH2 0x2951 JUMP JUMPDEST POP POP POP POP JUMP JUMPDEST SWAP2 POP PUSH1 0x60 DUP3 RETURNDATASIZE DUP3 GT PUSH2 0x3E90 JUMPI JUMPDEST DUP2 PUSH2 0x3E5C PUSH1 0x60 SWAP4 DUP4 PUSH2 0x2951 JUMP JUMPDEST DUP2 ADD SUB SLT PUSH2 0x739 JUMPI POP DUP1 PUSH2 0x3E89 PUSH1 0x40 PUSH2 0x3E75 DUP10 SWAP5 PUSH2 0x2B05 JUMP JUMPDEST SWAP3 PUSH2 0x3E82 PUSH1 0x20 DUP3 ADD PUSH2 0x3D34 JUMP JUMPDEST POP ADD PUSH2 0x3D34 JUMP JUMPDEST POP CODESIZE PUSH2 0x3DC6 JUMP JUMPDEST RETURNDATASIZE SWAP2 POP PUSH2 0x3E4F JUMP JUMPDEST MLOAD SWAP1 PUSH1 0xFF DUP3 AND DUP3 SUB PUSH2 0x63E JUMPI JUMP JUMPDEST PUSH1 0xFF AND PUSH1 0x4D DUP2 GT PUSH2 0x2B8C JUMPI PUSH1 0xA EXP SWAP1 JUMP JUMPDEST MLOAD SWAP1 PUSH2 0xFFFF DUP3 AND DUP3 SUB PUSH2 0x63E JUMPI JUMP JUMPDEST MLOAD SWAP1 DUP2 ISZERO ISZERO DUP3 SUB PUSH2 0x63E JUMPI JUMP JUMPDEST SWAP1 DUP1 ISZERO PUSH2 0x3F83 JUMPI DUP2 ISZERO PUSH2 0x3F7B JUMPI DUP2 DUP1 PUSH1 0x1 EQ PUSH2 0x3F72 JUMPI PUSH1 0x2 EQ PUSH2 0x3F58 JUMPI PUSH1 0x20 DUP2 LT PUSH2 0x133 DUP4 LT AND PUSH1 0x4E DUP3 LT PUSH1 0xB DUP5 LT AND OR PUSH2 0x3F4C JUMPI SWAP1 SWAP2 PUSH1 0x1 SWAP2 DUP3 JUMPDEST DUP1 DUP3 GT PUSH2 0x3F25 JUMPI POP POP DUP3 SWAP1 DIV DUP2 GT PUSH2 0x2B8C JUMPI MUL SWAP1 JUMP JUMPDEST SWAP1 SWAP4 DUP1 DUP4 DIV DUP2 GT PUSH2 0x2B8C JUMPI DUP2 DUP6 AND PUSH2 0x3F43 JUMPI JUMPDEST DUP1 MUL SWAP4 DUP2 SHR SWAP1 PUSH2 0x3F0F JUMP JUMPDEST DUP1 SWAP4 MUL SWAP3 PUSH2 0x3F38 JUMP JUMPDEST SWAP1 EXP SWAP2 SWAP1 DUP3 GT PUSH2 0x2B8C JUMPI JUMP JUMPDEST SWAP1 POP PUSH1 0xFF DUP2 SWAP4 SWAP3 SWAP4 GT PUSH2 0x2B8C JUMPI PUSH1 0x1 SWAP1 SHL SWAP2 DUP3 GT PUSH2 0x2B8C JUMPI JUMP JUMPDEST POP POP POP POP PUSH1 0x1 SWAP1 JUMP JUMPDEST POP POP POP PUSH1 0x0 SWAP1 JUMP JUMPDEST POP POP POP PUSH1 0x1 SWAP1 JUMP JUMPDEST DUP2 DUP2 MUL SWAP3 SWAP2 DUP2 ISZERO SWAP2 DUP5 DIV EQ OR ISZERO PUSH2 0x2B8C JUMPI JUMP JUMPDEST SWAP2 SWAP1 PUSH2 0x3FAA ADDRESS DUP5 PUSH2 0x4213 JUMP JUMPDEST PUSH2 0x3FB4 ADDRESS DUP4 PUSH2 0x4213 JUMP JUMPDEST SWAP1 DUP1 PUSH2 0x4053 JUMPI JUMPDEST POP DUP1 PUSH2 0x4042 JUMPI JUMPDEST POP PUSH32 0x0 SWAP3 PUSH20 0xFFFFFFFFFFFFFFFFFFFFFFFFFFFFFFFFFFFFFFFF DUP1 SWAP2 DUP2 DUP7 AND SWAP3 DUP4 SWAP2 AND EQ ISZERO SWAP3 DUP4 PUSH2 0x4035 JUMPI JUMPDEST POP POP POP PUSH2 0x4017 JUMPI POP POP JUMP JUMPDEST PUSH2 0x4021 ADDRESS DUP4 PUSH2 0x4213 JUMP JUMPDEST SWAP1 DUP2 PUSH2 0x402C JUMPI POP POP POP JUMP JUMPDEST PUSH2 0x2D40 SWAP3 PUSH2 0x41CA JUMP JUMPDEST AND EQ ISZERO SWAP1 POP CODESIZE DUP1 DUP1 PUSH2 0x400C JUMP JUMPDEST PUSH2 0x404D SWAP1 DUP4 DUP4 PUSH2 0x41CA JUMP JUMPDEST CODESIZE PUSH2 0x3FC2 JUMP JUMPDEST PUSH2 0x405E SWAP1 DUP5 DUP7 PUSH2 0x41CA JUMP JUMPDEST CODESIZE PUSH2 0x3FBB JUMP JUMPDEST SWAP1 DUP1 PUSH32 0xFFFFFFFFFFFFFFFFFFFFFFFFFFFFFFFFFFFFFFFFFFFFFFFFFFFFFFFFFFFFFFFF DIV DUP3 GT DUP2 MUL PUSH2 0x409F JUMPI PUSH8 0xDE0B6B3A7640000 SWAP2 MUL DIV SWAP1 JUMP JUMPDEST PUSH4 0xBAC65E5B PUSH1 0x0 MSTORE PUSH1 0x4 PUSH1 0x1C REVERT JUMPDEST PUSH8 0xDE0B6B3A7640000 SWAP1 PUSH25 0x12725DD1D243ABA0E75FE645CC4873F9E65AFE688C928E1F21 DUP2 GT DUP3 MUL ISZERO DUP4 MUL ISZERO PUSH2 0x40E2 JUMPI MUL DIV SWAP1 JUMP JUMPDEST PUSH4 0x7C5F487D PUSH1 0x0 MSTORE PUSH1 0x4 PUSH1 0x1C REVERT JUMPDEST SWAP2 PUSH1 0x0 SWAP3 DUP3 DUP2 MUL SWAP3 PUSH32 0xFFFFFFFFFFFFFFFFFFFFFFFFFFFFFFFFFFFFFFFFFFFFFFFFFFFFFFFFFFFFFFFF DUP2 DUP4 MULMOD SWAP2 DUP5 DUP4 LT DUP6 ADD DUP1 DUP5 SUB SWAP4 EQ PUSH2 0x4190 JUMPI DUP3 DUP5 GT ISZERO PUSH2 0x4183 JUMPI SWAP1 DUP4 SWAP2 MULMOD SWAP1 PUSH1 0x1 DUP4 DUP7 SUB DUP5 AND DUP1 DUP1 DUP1 SWAP7 DIV PUSH1 0x2 DUP1 DUP3 PUSH1 0x3 MUL XOR DUP1 DUP4 MUL DUP3 SUB MUL DUP1 DUP4 MUL DUP3 SUB MUL DUP1 DUP4 MUL DUP3 SUB MUL DUP1 DUP4 MUL DUP3 SUB MUL DUP1 DUP4 MUL DUP3 SUB MUL DUP1 SWAP3 MUL SWAP1 SUB MUL SWAP8 SUB DIV ADD SWAP1 DUP5 DUP4 GT SWAP1 SUB MUL SWAP3 SUB DIV OR MUL SWAP1 JUMP JUMPDEST PUSH4 0xAE47F702 DUP7 MSTORE PUSH1 0x4 PUSH1 0x1C REVERT JUMPDEST POP POP POP SWAP2 DUP3 ISZERO PUSH2 0x419F JUMPI POP DIV SWAP1 JUMP JUMPDEST PUSH4 0xAE47F702 SWAP1 MSTORE PUSH1 0x4 PUSH1 0x1C REVERT JUMPDEST PUSH1 0x0 DUP1 DUP1 SWAP4 DUP2 SWAP4 GAS CALL ISZERO PUSH2 0x41BC JUMPI JUMP JUMPDEST PUSH4 0xB12D13EB PUSH1 0x0 MSTORE PUSH1 0x4 PUSH1 0x1C REVERT JUMPDEST PUSH1 0x10 SWAP3 PUSH1 0x20 SWAP3 PUSH1 0x14 MSTORE PUSH1 0x34 MSTORE PUSH1 0x44 PUSH1 0x0 SWAP4 DUP5 DUP1 SWAP4 PUSH16 0xA9059CBB000000000000000000000000 DUP3 MSTORE GAS CALL RETURNDATASIZE ISZERO PUSH1 0x1 DUP4 MLOAD EQ OR AND ISZERO PUSH2 0x4206 JUMPI PUSH1 0x34 MSTORE JUMP JUMPDEST PUSH4 0x90B8EC18 SWAP1 MSTORE PUSH1 0x4 PUSH1 0x1C REVERT JUMPDEST PUSH1 0x24 PUSH1 0x10 PUSH1 0x20 SWAP4 SWAP3 DUP5 SWAP4 PUSH1 0x14 MSTORE PUSH16 0x70A08231000000000000000000000000 PUSH1 0x0 MSTORE GAS STATICCALL PUSH1 0x1F RETURNDATASIZE GT AND PUSH1 0x20 MLOAD MUL SWAP1 JUMP INVALID LOG1 PUSH5 0x736F6C6343 STOP ADDMOD GT STOP EXP "},"methodIdentifiers":{"OKX_AGGREGATION_ROUTER()":"d0736749","ONE_INCH_ROUTER_V5()":"bdcb9932","OPEN_OCEAN_EXCHANGE_PROXY()":"72e05064","OxPROJECT_EXCHANGE_PROXY()":"2f764135","PARASWAP_AUGUSTUS_SWAPPER_V5()":"88a799f6","PERMIT2()":"6afdd850","UNISWAP_V3_ROUTER()":"41c64a2f","altairBorrow_O9E(address,uint256,bytes)":"8f53d74f","altairLiquidate_f2x(address,uint256,uint256,bytes)":"e95471c7","altairRedeem_u91A(address,uint256,bytes)":"989bebcf","getAssetsForShares(address,uint256,uint256)":"d0189a91","hangar18()":"e8a24e1d","name()":"06fdde03","nativeToken()":"e1758bd8","sweepNative()":"ab803a76","sweepTokens(address[],address)":"7071f0c4","usd()":"d63a6ccd","version()":"54fd4d50"}}}}}