{"contracts/cygnus-periphery/XHypervisor.sol":{"XHypervisor":{"abi":[{"inputs":[{"internalType":"contract IHangar18","name":"_hangar18","type":"address"},{"internalType":"string","name":"name","type":"string"}],"stateMutability":"nonpayable","type":"constructor"},{"inputs":[],"name":"CygnusAltair__0xProjectTransactionFailed","type":"error"},{"inputs":[],"name":"CygnusAltair__InsufficientLPTokenAmount","type":"error"},{"inputs":[],"name":"CygnusAltair__InsufficientLiquidateUsd","type":"error"},{"inputs":[],"name":"CygnusAltair__InsufficientUSDAmount","type":"error"},{"inputs":[],"name":"CygnusAltair__MsgSenderNotBorrowable","type":"error"},{"inputs":[],"name":"CygnusAltair__MsgSenderNotCollateral","type":"error"},{"inputs":[],"name":"CygnusAltair__MsgSenderNotRouter","type":"error"},{"inputs":[],"name":"CygnusAltair__OneInchTransactionFailed","type":"error"},{"inputs":[],"name":"CygnusAltair__OnlyDelegateCall","type":"error"},{"inputs":[],"name":"CygnusAltair__OpenOceanTransactionFailed","type":"error"},{"inputs":[],"name":"CygnusAltair__ParaswapTransactionFailed","type":"error"},{"inputs":[],"name":"ONE_INCH_ROUTER_V5","outputs":[{"internalType":"address","name":"","type":"address"}],"stateMutability":"view","type":"function"},{"inputs":[],"name":"OPEN_OCEAN_EXCHANGE_PROXY","outputs":[{"internalType":"address","name":"","type":"address"}],"stateMutability":"view","type":"function"},{"inputs":[],"name":"OxPROJECT_EXCHANGE_PROXY","outputs":[{"internalType":"address","name":"","type":"address"}],"stateMutability":"view","type":"function"},{"inputs":[],"name":"PARASWAP_AUGUSTUS_SWAPPER_V5","outputs":[{"internalType":"address","name":"","type":"address"}],"stateMutability":"view","type":"function"},{"inputs":[],"name":"PERMIT2","outputs":[{"internalType":"address","name":"","type":"address"}],"stateMutability":"view","type":"function"},{"inputs":[],"name":"UNISWAP_V3_ROUTER","outputs":[{"internalType":"address","name":"","type":"address"}],"stateMutability":"view","type":"function"},{"inputs":[{"internalType":"address","name":"sender","type":"address"},{"internalType":"uint256","name":"borrowAmount","type":"uint256"},{"internalType":"bytes","name":"data","type":"bytes"}],"name":"altairBorrow_O9E","outputs":[{"internalType":"uint256","name":"liquidity","type":"uint256"}],"stateMutability":"nonpayable","type":"function"},{"inputs":[{"internalType":"address","name":"sender","type":"address"},{"internalType":"uint256","name":"cygLPAmount","type":"uint256"},{"internalType":"uint256","name":"repayAmount","type":"uint256"},{"internalType":"bytes","name":"data","type":"bytes"}],"name":"altairLiquidate_f2x","outputs":[],"stateMutability":"nonpayable","type":"function"},{"inputs":[{"internalType":"address","name":"sender","type":"address"},{"internalType":"uint256","name":"redeemAmount","type":"uint256"},{"internalType":"bytes","name":"data","type":"bytes"}],"name":"altairRedeem_u91A","outputs":[{"internalType":"uint256","name":"usdAmount","type":"uint256"}],"stateMutability":"nonpayable","type":"function"},{"inputs":[{"internalType":"address","name":"underlying","type":"address"},{"internalType":"uint256","name":"shares","type":"uint256"},{"internalType":"uint256","name":"difference","type":"uint256"}],"name":"getAssetsForShares","outputs":[{"internalType":"address[]","name":"tokens","type":"address[]"},{"internalType":"uint256[]","name":"amounts","type":"uint256[]"}],"stateMutability":"view","type":"function"},{"inputs":[],"name":"hangar18","outputs":[{"internalType":"contract IHangar18","name":"","type":"address"}],"stateMutability":"view","type":"function"},{"inputs":[],"name":"name","outputs":[{"internalType":"string","name":"","type":"string"}],"stateMutability":"view","type":"function"},{"inputs":[],"name":"nativeToken","outputs":[{"internalType":"contract IWrappedNative","name":"","type":"address"}],"stateMutability":"view","type":"function"},{"inputs":[{"internalType":"string","name":"_name","type":"string"}],"name":"setName","outputs":[],"stateMutability":"nonpayable","type":"function"},{"inputs":[],"name":"sweepNative","outputs":[],"stateMutability":"nonpayable","type":"function"},{"inputs":[{"internalType":"address","name":"token","type":"address"}],"name":"sweepToken","outputs":[],"stateMutability":"nonpayable","type":"function"},{"inputs":[],"name":"usd","outputs":[{"internalType":"address","name":"","type":"address"}],"stateMutability":"view","type":"function"},{"stateMutability":"payable","type":"receive"}],"evm":{"bytecode":{"linkReferences":{},"object":"610100604090808252346200039757620047f480380380916200002382856200039c565b833981018282820312620003975781516001600160a01b039081811690818103620003975760208581015190956001600160401b03919082821162000397570190601f95808784011215620003975782519282841162000381578951601f1994620000958a820187168c01836200039c565b8082528a8201938b8285010111620003975783620000f9603b938e620000e58f957f4379676e75733a20416c7461697220457874656e73696f6e202d20000000000099876200010a9a01620003c0565b5196879485015251809285850190620003c0565b810103601b8101845201826200039c565b805191821162000381576004968754916001928381811c9116801562000376575b8b821014620003615782811162000316575b5089918411600114620002b05783945090839291600094620002a4575b50501b916000199060031b1c19161784555b60a0528451631c2eb17b60e31b81529184838581855afa80156200029957859360009162000277575b501660e052845163d63a6ccd60e01b815292839182905afa9182156200026c5760009262000238575b505060c05230608052516143ed908162000407823960805181612e69015260a05181818161077b01528181610c94015281816110450152612912015260c0518181816104bb015281816108590152818161133001528181611dd4015281816125220152612f33015260e0518181816107ea01526115e90152f35b6200025c9250803d1062000264575b6200025381836200039c565b810190620003e5565b3880620001be565b503d62000247565b83513d6000823e3d90fd5b620002929150843d861162000264576200025381836200039c565b3862000195565b86513d6000823e3d90fd5b0151925038806200015a565b919383169188600052838a6000209360005b8c88838310620002fe5750505010620002e4575b505050811b0184556200016c565b015160001960f88460031b161c19169055388080620002d6565b868601518855909601959485019487935001620002c2565b896000528a6000208380870160051c8201928d881062000357575b0160051c019084905b8281106200034a5750506200013d565b600081550184906200033a565b9250819262000331565b60228a634e487b7160e01b6000525260246000fd5b90607f16906200012b565b634e487b7160e01b600052604160045260246000fd5b600080fd5b601f909101601f19168101906001600160401b038211908210176200038157604052565b60005b838110620003d45750506000910152565b8181015183820152602001620003c3565b908160209103126200039757516001600160a01b038116810362000397579056fe608080604052600436101561001d575b50361561001b57600080fd5b005b600090813560e01c90816306fdde03146129aa575080631be19560146128915780632f7641351461284457806341c64a2f146127f75780636afdd850146127af57806372e050641461276257806388a799f6146127155780638f53d74f146118ad578063989bebcf146110d2578063ab803a7614610fd2578063bdcb993214610f85578063c47f002714610beb578063d0189a911461087d578063d63a6ccd1461080e578063e1758bd81461079f578063e8a24e1d146107305763e95471c70361000f573461072d5760807ffffffffffffffffffffffffffffffffffffffffffffffffffffffffffffffffc36011261072d5760043573ffffffffffffffffffffffffffffffffffffffff808216809203610632576044359167ffffffffffffffff9160643583811161072957610158903690600401612c15565b610163939193612e52565b830190602093848184031261072557803590868211610721570190610100938483850312610721576101986040519586612b1e565b6101a183612bf4565b85526101ae868401612bf4565b948681019586526101c160408501612bf4565b93604082019485526101d560608201612bf4565b95606083019687526101e960808301612bf4565b608084015260a082013560a084015260c08201359960078b101561071d5760c084019a8b5260e083013590811161071d576102249201612dbf565b60e0820190815292301461025c5760046040517fa610e788000000000000000000000000000000000000000000000000000000008152fd5b8184511633036106f35781808092511696511693511693511695519060078210156106c6575191886040517f18160ddd0000000000000000000000000000000000000000000000000000000081528781600481865afa9081156106bb57829161068a575b50604051907f01e1d1140000000000000000000000000000000000000000000000000000000082528882600481875afa801561067f5789928491610649575b506103a3916103109160243561428e565b9361031a84612c80565b6103276040519182612b1e565b8481527fffffffffffffffffffffffffffffffffffffffffffffffffffffffffffffffe061035486612c80565b0136858301376040519485809481937ffa14fdc2000000000000000000000000000000000000000000000000000000008352306004840152896024840152606060448401526064830190612bb1565b03925af190811561063e578791610610575b505060408051610414926103ca608083612b1e565b8b82528b898301528b838301528b6060830152825193849283927fa85598720000000000000000000000000000000000000000000000000000000084523090309060048601612ee3565b03818c895af19182156106055789918a936105d2575b506040517f0dfe168100000000000000000000000000000000000000000000000000000000815287816004818a5afa9687156105885788918c98610593575b5090600491604051928380927fd21220a70000000000000000000000000000000000000000000000000000000082525afa978815610588578b9861053f575b50506104b8939287928792612f2c565b507f0000000000000000000000000000000000000000000000000000000000000000946104e530876143b1565b9181831061051557610512966105086105018461050d96612d83565b8883614368565b614368565b6141bc565b80f35b60046040517f38040e8d000000000000000000000000000000000000000000000000000000008152fd5b908092939850819594953d8311610581575b61055b8183612b1e565b8101031261057d576104b8936105718792612cf1565b979291819495506104a8565b8980fd5b503d610551565b6040513d8d823e3d90fd5b8281939299503d83116105cb575b6105ab8183612b1e565b810103126105c757876105bf600492612cf1565b979091610469565b8a80fd5b503d6105a1565b9092506105f7915060403d6040116105fe575b6105ef8183612b1e565b810190612d12565b913861042a565b503d6105e5565b6040513d8b823e3d90fd5b813d8311610637575b6106238183612b1e565b810103126106325785386103b5565b600080fd5b503d610619565b6040513d8c823e3d90fd5b92809294508391503d8311610678575b6106638183612b1e565b8101031261063257518a9188916103a36102ff565b503d610659565b6040513d85823e3d90fd5b809250888092503d83116106b4575b6106a38183612b1e565b8101031261063257899051386102c0565b503d610699565b6040513d84823e3d90fd5b6024897f4e487b710000000000000000000000000000000000000000000000000000000081526021600452fd5b60046040517fe0ffcbfd000000000000000000000000000000000000000000000000000000008152fd5b8c80fd5b8880fd5b8780fd5b8580fd5b80fd5b503461072d57807ffffffffffffffffffffffffffffffffffffffffffffffffffffffffffffffffc36011261072d57602060405173ffffffffffffffffffffffffffffffffffffffff7f0000000000000000000000000000000000000000000000000000000000000000168152f35b503461072d57807ffffffffffffffffffffffffffffffffffffffffffffffffffffffffffffffffc36011261072d57602060405173ffffffffffffffffffffffffffffffffffffffff7f0000000000000000000000000000000000000000000000000000000000000000168152f35b503461072d57807ffffffffffffffffffffffffffffffffffffffffffffffffffffffffffffffffc36011261072d57602060405173ffffffffffffffffffffffffffffffffffffffff7f0000000000000000000000000000000000000000000000000000000000000000168152f35b503461072d5760607ffffffffffffffffffffffffffffffffffffffffffffffffffffffffffffffffc36011261072d5760043573ffffffffffffffffffffffffffffffffffffffff91828216809203610632576040517f18160ddd00000000000000000000000000000000000000000000000000000000815260243591602091604435908381600481895afa90811561067f578391610bbe575b50604051917fc4a7761e0000000000000000000000000000000000000000000000000000000083526040836004818a5afa918215610bb35784938593610b8c575b5060405192610968606085612b1e565b60028452868401976040368a3760405195610984606088612b1e565b600287528887019a6040368d376040517f0dfe16810000000000000000000000000000000000000000000000000000000081528a81600481855afa90811561063e57918b918f938c91610b4e575b506004936109e08d8c612d40565b91169052604051928380927fd21220a70000000000000000000000000000000000000000000000000000000082525afa90811561060557878e918b93610aee575b509c9b999a989796610a5287610a52979583999795610a5795610a486001610a679e612d40565b911690528561428e565b612d83565b610a618b89612d40565b5261428e565b610a72600183612d40565b526040519687966040880190604089525180915260608801949186905b828210610ad15750505050858303868301525180835291810193925b828110610aba57505050500390f35b835185528695509381019392810192600101610aab565b8351811687528a9950958501959285019260019190910190610a8f565b925050508981813d8311610b47575b610b078183612b1e565b810103126107215791610a5786610a528f97610a5297958b610a679b9a610a486001610b33869c612cf1565b999b50505095509350959750979850610a21565b503d610afd565b92809294508391503d8311610b85575b610b688183612b1e565b8101031261057d576004918e610b7e8d93612cf1565b90936109d2565b503d610b5e565b909250610ba991935060403d6040116105fe576105ef8183612b1e565b9290929138610958565b6040513d86823e3d90fd5b90508381813d8311610be4575b610bd58183612b1e565b81010312610632575138610917565b503d610bcb565b503461072d57602090817ffffffffffffffffffffffffffffffffffffffffffffffffffffffffffffffffc36011261072d5767ffffffffffffffff600435818111610f815736602382011215610f8157610c4f903690602481600401359101612cba565b926040517ff851a44000000000000000000000000000000000000000000000000000000000815273ffffffffffffffffffffffffffffffffffffffff908281600481857f0000000000000000000000000000000000000000000000000000000000000000165afa908115610f76578591610f3d575b50163303610ede57610d1d603b60405180967f4379676e75733a20416c7461697220457874656e73696f6e202d20000000000085830152610d0d81518092878686019101612b8e565b810103601b810187520185612b1e565b8351918211610eb157610d31600454612acb565b601f8111610e4f575b5080601f8311600114610d9257508293829392610d87575b50507fffffffffffffffffffffffffffffffffffffffffffffffffffffffffffffffff8260011b9260031b1c19161760045580f35b015190503880610d52565b907fffffffffffffffffffffffffffffffffffffffffffffffffffffffffffffffe0831694600485527f8a35acfbc15ff81a39ae7d344fd709f28e8600b4aa8c65c6b64bfe7fe36bd19b9285905b878210610e37575050836001959610610e00575b505050811b0160045580f35b01517fffffffffffffffffffffffffffffffffffffffffffffffffffffffffffffffff60f88460031b161c19169055388080610df4565b80600185968294968601518155019501930190610de0565b600484527f8a35acfbc15ff81a39ae7d344fd709f28e8600b4aa8c65c6b64bfe7fe36bd19b601f840160051c810191838510610ea7575b601f0160051c01905b818110610e9c5750610d3a565b848155600101610e8f565b9091508190610e86565b6024837f4e487b710000000000000000000000000000000000000000000000000000000081526041600452fd5b6040517f08c379a000000000000000000000000000000000000000000000000000000000815260206004820152600a60248201527f4f6e6c792061646d696e000000000000000000000000000000000000000000006044820152606490fd5b90508281813d8311610f6f575b610f548183612b1e565b81010312610f6b57610f6590612cf1565b38610cc4565b8480fd5b503d610f4a565b6040513d87823e3d90fd5b8280fd5b503461072d57807ffffffffffffffffffffffffffffffffffffffffffffffffffffffffffffffffc36011261072d576020604051731111111254eeb25477b68fb85ed929f73a9605828152f35b503461072d57807ffffffffffffffffffffffffffffffffffffffffffffffffffffffffffffffffc36011261072d576040517ff851a44000000000000000000000000000000000000000000000000000000000815273ffffffffffffffffffffffffffffffffffffffff602082600481847f0000000000000000000000000000000000000000000000000000000000000000165afa91821561067f578392611097575b5081163303610ede574780611088578280f35b6110919161434a565b38808280f35b9091506020813d82116110ca575b816110b260209383612b1e565b81010312610f81576110c390612cf1565b9038611075565b3d91506110a5565b503461072d576110e3366004612c43565b6110ef93919293612e52565b820190602093848484031261072957833567ffffffffffffffff948582116107255701926101009283858303126107255761112d6040519485612b1e565b61113685612bf4565b8452611143878601612bf4565b9487850195865261115660408201612bf4565b604086015261116760608201612bf4565b936060860194855260808601916080810135835260a087019460a0820135865260c08201359960078b101561071d5760c089019a8b5260e083013590811161071d576111b39201612dbf565b60e087019081529573ffffffffffffffffffffffffffffffffffffffff93841630146112035760046040517fa610e788000000000000000000000000000000000000000000000000000000008152fd5b838851163303611883578380809251169651169751169151935197519560078710156118565760408a8c61128b93519481845193611242608086612b1e565b818552840152818484015281606084015283518095819482937fa85598720000000000000000000000000000000000000000000000000000000084523090309060048601612ee3565b03918a5af1908115610588578b908c92611834575b50604051977f0dfe16810000000000000000000000000000000000000000000000000000000089528c8c8a6004818c5afa9889156115ca578d91996117fd575b60049a506040519a8b80927fd21220a70000000000000000000000000000000000000000000000000000000082525afa988915611749578d996117b9575b5061132d939289928992612f2c565b507f00000000000000000000000000000000000000000000000000000000000000009161135a30846143b1565b97881061178f57604051927fe99a6ac70000000000000000000000000000000000000000000000000000000084528984600481865afa938415610588578b94611758575b5081841693843b15611754576040517fa6afed950000000000000000000000000000000000000000000000000000000081528c81600481838a5af180156117495761172b575b50908b9594939291604051947f7d6af0790000000000000000000000000000000000000000000000000000000086528a6004870152604086602481845afa908115611720578c8e926114ea988b916116ff575b508091106000146116f457506114508d80945b86614368565b61145989612c80565b906114676040519283612b1e565b8982527fffffffffffffffffffffffffffffffffffffffffffffffffffffffffffffffe06114948b612c80565b0136848401378c8a604051809a819582947f1e7dcc0d0000000000000000000000000000000000000000000000000000000084526004840152836024840152836044840152608060648401526084830190612bb1565b03925af19081156116e9578c958b926116b6575b50808c116115d7575b50506040517f23b872dd00000000000000000000000000000000000000000000000000000000815273ffffffffffffffffffffffffffffffffffffffff808b1660048301528416602482015260448101959095525092999192508991829081606481015b03925af180156115ca5761158e575b509061158692916141bc565b604051908152f35b8587813d83116115c3575b6115a38183612b1e565b8101031261072d57506115ba6115869495966140e4565b5085949361157a565b503d611599565b50604051903d90823e3d90fd5b6115e5908c96939496612d83565b92857f000000000000000000000000000000000000000000000000000000000000000016809682161460001461169f57505050823b15610f6b578480936024604051809681937f2e1a7d4d0000000000000000000000000000000000000000000000000000000083528660048401525af18015610f76578a938691611680575b50509261167661156b93948961434a565b9291388881611507565b819294509061168e91612b1e565b61169b5788918438611665565b8380fd5b61156b9550906116b192969391614368565b611676565b915094809297503d83116116e2575b6116cf8183612b1e565b81010312610632578a94888b94386114fe565b503d6116c5565b6040513d89823e3d90fd5b61145090809461144a565b611718915060403d6040116105fe576105ef8183612b1e565b905038611437565b6040513d8a823e3d90fd5b8c61173d919d9297969594939d612b1e565b9a9091929394386113e4565b6040513d8f823e3d90fd5b8b80fd5b9093508981813d8311611788575b6117708183612b1e565b810103126105c75761178190612cf1565b923861139e565b503d611766565b60046040517fb2a4caeb000000000000000000000000000000000000000000000000000000008152fd5b909198508b81819594953d83116117f6575b6117d58183612b1e565b8101031261071d5761132d936117eb8992612cf1565b99929150929361131e565b503d6117cb565b985089813d831161182d575b6118138183612b1e565b8101031261071d578b61182760049a612cf1565b986112e0565b503d611809565b905061184f915060403d6040116105fe576105ef8183612b1e565b90386112a0565b60248b7f4e487b710000000000000000000000000000000000000000000000000000000081526021600452fd5b60046040517fd0e9c9f6000000000000000000000000000000000000000000000000000000008152fd5b503461072d576118be366004612c43565b6118c9939293612e52565b81019360208286031261072d57813567ffffffffffffffff92838211610f8157019160e083870312612711576040519561190460e088612b1e565b61190d84612bf4565b875261191b60208501612bf4565b966020810197885261192f60408601612bf4565b6040820190815261194260608701612bf4565b926060830193845260808301946080880135865260a08801359760078910156107255760a0850198895260c081013591821161072557611983929101612dbf565b60c083019081529673ffffffffffffffffffffffffffffffffffffffff1630146119d15760046040517fa610e788000000000000000000000000000000000000000000000000000000008152fd5b5173ffffffffffffffffffffffffffffffffffffffff1633036106f35773ffffffffffffffffffffffffffffffffffffffff8080925116925116975116915193519460078610156126e4575193604051947f0dfe1681000000000000000000000000000000000000000000000000000000008652602086600481865afa958615610f765785966126a8575b50604051967fd21220a7000000000000000000000000000000000000000000000000000000008852602088600481875afa97881561269d578698612661575b50604051987f86a29081000000000000000000000000000000000000000000000000000000008a5260208a600481885afa998a156116e957879a612621575b508860048314888115612615575b81156125d6575b501561251e57506040517f313ce56700000000000000000000000000000000000000000000000000000000815260208160048173ffffffffffffffffffffffffffffffffffffffff8d165afa80156117205788906124e3575b611b5291506140c4565b6040517f313ce56700000000000000000000000000000000000000000000000000000000815260208160048173ffffffffffffffffffffffffffffffffffffffff8f165afa80156106055789906124a8575b611bae91506140c4565b90611bb9828261424b565b64e8d4a510008111156124a057620f4240905b6040517f16f0115b0000000000000000000000000000000000000000000000000000000081526020816004818d5afa908115612443578c9161244e575b5060e073ffffffffffffffffffffffffffffffffffffffff916004604051809481937fe76c01e4000000000000000000000000000000000000000000000000000000008352165afa908115612443578c9161237a575b507fffffffffffffffffffffffffffffffffffffffffffffffffffffffffffffffff600273ffffffffffffffffffffffffffffffffffffffff611ca293166140f1565b9062ffffff83161561234d5792611cd98f959493611cd1604094611d519662ffffff80851694169004906141a9565b60c01c6141a9565b948d73ffffffffffffffffffffffffffffffffffffffff8c8551968795869485937f5ccfb71d0000000000000000000000000000000000000000000000000000000085526004850160409194939294606082019573ffffffffffffffffffffffffffffffffffffffff80921683521660208201520152565b0392165afa90811561063e5791611d78611d80928c611d859695819261232b575b50612f1f565b60011c61424b565b61424b565b90670de0b6b3a7640000918281018091116122d15780156122fe576ec097ce7bc90715b34b9f1000000000048083039283116122d15781611dcb8c9493611dd193614202565b92614202565b927f0000000000000000000000000000000000000000000000000000000000000000918973ffffffffffffffffffffffffffffffffffffffff8416918c858473ffffffffffffffffffffffffffffffffffffffff8316036122b3575b5050505073ffffffffffffffffffffffffffffffffffffffff841603612293575b50505050505b611e5e30866143b1565b611e6830886143b1565b97611e74828589613df4565b611e7f89858a613df4565b604080517f5ccfb71d00000000000000000000000000000000000000000000000000000000815273ffffffffffffffffffffffffffffffffffffffff8087166004830152891660248201526044810184905290818060648101038173ffffffffffffffffffffffffffffffffffffffff86165afa9081156116e95787908892612271575b508a106121b7575b808a1161219b575b5073ffffffffffffffffffffffffffffffffffffffff9291602091611f9c604051611f3f608082612b1e565b89815289858201528960408201528960608201526040519c8d947f8e3c92e4000000000000000000000000000000000000000000000000000000008652600486015260248501523060448501528760648501526084840190612ebb565b8188610104968793165af1978815610f76578598612167575b50871061213e5782611fe7886101209585611fe2836e22d473030f116ddee9f6b43ac78ba3602099613df4565b613f65565b8885896120f6611ff683612c80565b6120036040519182612b1e565b8381527fffffffffffffffffffffffffffffffffffffffffffffffffffffffffffffffe061203085612c80565b013689830137604051988997889687957f8808e71c0000000000000000000000000000000000000000000000000000000087526004870152602486015273ffffffffffffffffffffffffffffffffffffffff865416604486015260015473ffffffffffffffffffffffffffffffffffffffff8116606487015265ffffffffffff8160a01c16608487015260d01c60a486015273ffffffffffffffffffffffffffffffffffffffff6002541660c486015260035460e4860152840152610124830190612bb1565b03925af180156106bb57612113575b6020856115868887876141bc565b602090813d8311612137575b6121298183612b1e565b8101031261072d5780612105565b503d61211f565b60046040517ebf8768000000000000000000000000000000000000000000000000000000008152fd5b9097506020813d602011612193575b8161218360209383612b1e565b81010312610f6b57519638611fb5565b3d9150612176565b985073ffffffffffffffffffffffffffffffffffffffff611f13565b604080517f5ccfb71d00000000000000000000000000000000000000000000000000000000815273ffffffffffffffffffffffffffffffffffffffff80881660048301528b166024820152604481018c905290818060648101038173ffffffffffffffffffffffffffffffffffffffff87165afa908115611720578891612250575b50808411612248575b50611f0b565b925038612242565b612269915060403d6040116105fe576105ef8183612b1e565b905038612239565b905061228c915060403d6040116105fe576105ef8183612b1e565b9038611f03565b6122a160016122a896612d40565b5190612ffe565b503880878180611e4e565b6122c06122c7948b612d40565b5186612ffe565b5089388c85611e2d565b6024897f4e487b710000000000000000000000000000000000000000000000000000000081526011600452fd5b6024897f4e487b710000000000000000000000000000000000000000000000000000000081526012600452fd5b9050612346915060403d6040116105fe576105ef8183612b1e565b9038611d72565b60248c7f4e487b710000000000000000000000000000000000000000000000000000000081526012600452fd5b905060e0813d60e01161243b575b8161239560e09383612b1e565b81010312611754576123a681612cf1565b9060208101518060020b0361071d57600273ffffffffffffffffffffffffffffffffffffffff611ca29361243160c08561240360407fffffffffffffffffffffffffffffffffffffffffffffffffffffffffffffffff98016140d5565b50612410606082016140d5565b5061241d608082016140b6565b5061242a60a082016140b6565b50016140e4565b5093505050611c5f565b3d9150612388565b6040513d8e823e3d90fd5b90506020813d602011612498575b8161246960209383612b1e565b810103126117545760e061249173ffffffffffffffffffffffffffffffffffffffff92612cf1565b9150611c09565b3d915061245c565b600190611bcc565b506020813d6020116124db575b816124c260209383612b1e565b81010312610721576124d6611bae916140b6565b611ba4565b3d91506124b5565b506020813d602011612516575b816124fd60209383612b1e565b8101031261072557612511611b52916140b6565b611b48565b3d91506124f0565b90917f00000000000000000000000000000000000000000000000000000000000000009073ffffffffffffffffffffffffffffffffffffffff821689858c858473ffffffffffffffffffffffffffffffffffffffff8316036125bf575b5050505073ffffffffffffffffffffffffffffffffffffffff8416036125a6575b5050505050611e54565b6122a160016125b496612d40565b50388087818061259c565b6122c06125cc948b612d40565b5089858c8561257b565b9150506125e857886006831438611aef565b6024877f4e487b710000000000000000000000000000000000000000000000000000000081526021600452fd5b50506001831488611ae8565b9099506020813d602011612659575b8161263d60209383612b1e565b810103126126555761264e90612cf1565b9838611ada565b8680fd5b3d9150612630565b9097506020813d602011612695575b8161267d60209383612b1e565b810103126107295761268e90612cf1565b9638611a9b565b3d9150612670565b6040513d88823e3d90fd5b9095506020813d6020116126dc575b816126c460209383612b1e565b81010312610f6b576126d590612cf1565b9438611a5c565b3d91506126b7565b6024847f4e487b710000000000000000000000000000000000000000000000000000000081526021600452fd5b5080fd5b503461072d57807ffffffffffffffffffffffffffffffffffffffffffffffffffffffffffffffffc36011261072d57602060405173def171fe48cf0115b1d80b88dc8eab59176fee578152f35b503461072d57807ffffffffffffffffffffffffffffffffffffffffffffffffffffffffffffffffc36011261072d576020604051736352a56caadc4f1e25cd6c75970fa768a3304e648152f35b503461072d57807ffffffffffffffffffffffffffffffffffffffffffffffffffffffffffffffffc36011261072d5760206040516e22d473030f116ddee9f6b43ac78ba38152f35b503461072d57807ffffffffffffffffffffffffffffffffffffffffffffffffffffffffffffffffc36011261072d57602060405173e592427a0aece92de3edee1f18e0157c058615648152f35b503461072d57807ffffffffffffffffffffffffffffffffffffffffffffffffffffffffffffffffc36011261072d57602060405173def1c0ded9bec7f1a1670819833240f027b25eff8152f35b503461072d5760207ffffffffffffffffffffffffffffffffffffffffffffffffffffffffffffffffc36011261072d5760043573ffffffffffffffffffffffffffffffffffffffff8082168203610f8157604051907ff851a440000000000000000000000000000000000000000000000000000000008252602082600481847f0000000000000000000000000000000000000000000000000000000000000000165afa918215610bb357849261296f575b5081163303610ede5761295530836143b1565b908161295f578380f35b61296892614368565b3880808380f35b9091506020813d82116129a2575b8161298a60209383612b1e565b8101031261169b5761299b90612cf1565b9038612942565b3d915061297d565b823461072d57807ffffffffffffffffffffffffffffffffffffffffffffffffffffffffffffffffc36011261072d57806004546129e681612acb565b80855291600191808316908115612a835750600114612a28575b612a2485612a1081870382612b1e565b604051918291602083526020830190612bb1565b0390f35b9250600483527f8a35acfbc15ff81a39ae7d344fd709f28e8600b4aa8c65c6b64bfe7fe36bd19b5b828410612a6b575050508101602001612a1082612a24612a00565b80546020858701810191909152909301928101612a50565b869550612a2496935060209250612a109491507fffffffffffffffffffffffffffffffffffffffffffffffffffffffffffffff001682840152151560051b8201019293612a00565b90600182811c92168015612b14575b6020831014612ae557565b7f4e487b7100000000000000000000000000000000000000000000000000000000600052602260045260246000fd5b91607f1691612ada565b90601f7fffffffffffffffffffffffffffffffffffffffffffffffffffffffffffffffe0910116810190811067ffffffffffffffff821117612b5f57604052565b7f4e487b7100000000000000000000000000000000000000000000000000000000600052604160045260246000fd5b60005b838110612ba15750506000910152565b8181015183820152602001612b91565b907fffffffffffffffffffffffffffffffffffffffffffffffffffffffffffffffe0601f602093612bed81518092818752878088019101612b8e565b0116010190565b359073ffffffffffffffffffffffffffffffffffffffff8216820361063257565b9181601f840112156106325782359167ffffffffffffffff8311610632576020838186019501011161063257565b9160608383031261063257612c5783612bf4565b92602081013592604082013567ffffffffffffffff811161063257612c7c9201612c15565b9091565b67ffffffffffffffff8111612b5f57601f017fffffffffffffffffffffffffffffffffffffffffffffffffffffffffffffffe01660200190565b929192612cc682612c80565b91612cd46040519384612b1e565b829481845281830111610632578281602093846000960137010152565b519073ffffffffffffffffffffffffffffffffffffffff8216820361063257565b9190826040910312610632576020825192015190565b67ffffffffffffffff8111612b5f5760051b60200190565b8051821015612d545760209160051b010190565b7f4e487b7100000000000000000000000000000000000000000000000000000000600052603260045260246000fd5b91908203918211612d9057565b7f4e487b7100000000000000000000000000000000000000000000000000000000600052601160045260246000fd5b81601f8201121561063257803590612dd682612d28565b92604092612de684519586612b1e565b808552602093848087019260051b8501019383851161063257858101925b858410612e15575050505050505090565b833567ffffffffffffffff811161063257820185603f82011215610632578791612e4787838786809601359101612cba565b815201930192612e04565b73ffffffffffffffffffffffffffffffffffffffff7f0000000000000000000000000000000000000000000000000000000000000000163014612e9157565b60046040517fc97bbbae000000000000000000000000000000000000000000000000000000008152fd5b6000915b60048310612ecc57505050565b600190825181526020809101920192019190612ebf565b90815273ffffffffffffffffffffffffffffffffffffffff91821660208201529116604082015260e081019291612f1d9160600190612ebb565b565b91908201809211612d9057565b90949391947f00000000000000000000000000000000000000000000000000000000000000009373ffffffffffffffffffffffffffffffffffffffff80861680828416149081928215612ff2575b5050612fb75750916122a16001612fa8612fb499969488612fae9997612fa160008d612d40565b5187612ffe565b97612d40565b90612f1f565b90565b90612fb4979492959391600090600014612fdc5750506122a16001612fae9697612d40565b6122a1919350612fed969597612d40565b612f1f565b87161490503880612f7a565b909193926000916007811015613d9557806130f25750506040517fd2c4b59800000000000000000000000000000000000000000000000000000000815260209473def171fe48cf0115b1d80b88dc8eab59176fee5792508582600481865afa9182156130e6576000926130a0575b506000948594939261307d92613df4565b84825192019034905af161308f613dc4565b901561309a57015190565b80519101fd5b90939291508581813d83116130df575b6130ba8183612b1e565b810103126106325760009485946130d361307d93612cf1565b9394955091509461306c565b503d6130b0565b6040513d6000823e3d90fd5b939492936001810361334a575050509080518101816020820191039361014085126106325760e07fffffffffffffffffffffffffffffffffffffffffffffffffffffffffffffffe061314660208601612cf1565b9601126106325760409485519461315e60e087612b1e565b613169878601612cf1565b865261317760608601612cf1565b906020870191825261318b60808701612cf1565b9488880195865261319e60a08801612cf1565b976060810198895260c08801516080820190815260e08901519060a083019182526101008a01519260c081019384526101208b015167ffffffffffffffff90818111610632578660206131f3928f0101613eff565b956101408d0151918211610632578e9c6132109201602001613eff565b9589835103613342575b731111111254eeb25477b68fb85ed929f73a960582998a61323a92613df4565b8a519b8c809b819a829a7f12aa3caf00000000000000000000000000000000000000000000000000000000845273ffffffffffffffffffffffffffffffffffffffff80968195828095169060040152511660248d0152511660448b015251166064890152511660848701525160a48601525160c48501525160e48401526101048301610140905261014483016132cf91612bb1565b8281037ffffffffffffffffffffffffffffffffffffffffffffffffffffffffffffffffc0161012484015261330391612bb1565b03915a90600091f19182156133385760009261331e57505090565b6133349250803d106105fe576105ef8183612b1e565b5090565b513d6000823e3d90fd5b89835261321a565b600281036133a357505050906000929161337b8493731111111254eeb25477b68fb85ed929f73a9605828093613df4565b6020825192019034905af161338e613dc4565b901561339b576020015190565b602081519101fd5b600381036133d457505050906000929161337b849373def1c0ded9bec7f1a1670819833240f027b25eff8093613df4565b6004810361384d575050508151820190606083830312610632576133fa60208401612cf1565b60408401519467ffffffffffffffff861161063257610140868601850312610632576040519261342c61014085612b1e565b61343a602088880101612cf1565b845261344a604088880101612cf1565b602085015261345d606088880101612cf1565b6040850152613470608088880101612cf1565b606085015260a08787010151608085015260c0878701015160a085015260e0878701015160c08501526101009687818801015160e08601526134b761012082890101612cf1565b8886015261014081880101519067ffffffffffffffff82116106325760206134e692818901928a010101613eff565b61012085015260608601519467ffffffffffffffff86116106325760208101603f878901011215610632576020868801015161352181612d28565b9661352f6040519889612b1e565b8188526020880180996020850160408560051b85840101011161063257604083820101915b60408560051b8584010101831061379a57505050505050916135a682736352a56caadc4f1e25cd6c75970fa768a3304e64610120958795608061366b9901510361378f575b9998979695949399613df4565b6040519687967f90411a3200000000000000000000000000000000000000000000000000000000885273ffffffffffffffffffffffffffffffffffffffff8092166004890152606060248901528183511660648901528160208401511660848901528160408401511660a48901528160608401511660c4890152608083015160e489015260a083015161010489015260c083015161012489015260e08301516101448901528201511661016487015201516101406101848601526101a4850190612bb1565b907ffffffffffffffffffffffffffffffffffffffffffffffffffffffffffffffffc84830301604485015251808252602082019160208260051b82010193926000915b83831061371b575050505050908060209203816000736352a56caadc4f1e25cd6c75970fa768a3304e645af19081156130e6576000916136ec575090565b90506020813d602011613713575b8161370760209383612b1e565b81010312610632575190565b3d91506136fa565b91939550919360208061377d837fffffffffffffffffffffffffffffffffffffffffffffffffffffffffffffffe08660019603018752608060608b51805184528581015186850152604081015160408501520151918160608201520190612bb1565b970193019301909286959492936136ae565b826080870152613599565b82519067ffffffffffffffff82116106325760807fffffffffffffffffffffffffffffffffffffffffffffffffffffffffffffffe083878601018903011261063257604051916137eb608084612b1e565b838601810160408181015185526060820151602086015260808201519085015260a001519167ffffffffffffffff83116106325760409361383b60209493868695868e01928c8b01010101613eff565b60608201528152019301929050613554565b939492936005810361388257505050916000929161337b8493736352a56caadc4f1e25cd6c75970fa768a3304e648093613df4565b600691929695501461389357505050565b90919293506138b78273e592427a0aece92de3edee1f18e0157c0586156485613df4565b6000906000604051906138cb608083612b1e565b606482526101f46020830152610bb86040830152612710606083015260005b60048110613a19575050509073ffffffffffffffffffffffffffffffffffffffff62ffffff92816040519661392161010089612b1e565b16865216602085015216604083015230606083015263ffffffff608083015260a0820152600060c0820152600060e082015273ffffffffffffffffffffffffffffffffffffffff60e0604051927f414bf38900000000000000000000000000000000000000000000000000000000845282815116600485015282602082015116602485015262ffffff60408201511660448501528260608201511660648501526080810151608485015260a081015160a485015260c081015160c485015201511660e482015260208161010481600073e592427a0aece92de3edee1f18e0157c058615645af19081156130e6576000916136ec575090565b62ffffff613a278285613f41565b5116604051907f1698ee8200000000000000000000000000000000000000000000000000000000825273ffffffffffffffffffffffffffffffffffffffff8916600483015273ffffffffffffffffffffffffffffffffffffffff861660248301526044820152602081606481731f98431c8ad98523631ae4a59f267346ea31f9845afa80156130e657600090613d48575b73ffffffffffffffffffffffffffffffffffffffff91501680613b06575b507fffffffffffffffffffffffffffffffffffffffffffffffffffffffffffffffff8114612d90576001016138ea565b6020600491604051928380927f1a6865020000000000000000000000000000000000000000000000000000000082525afa9081156130e657600091613ced575b506fffffffffffffffffffffffffffffffff62989680911611613b6a575b38613ad6565b62ffffff613b788285613f41565b511660405190613b8960a083612b1e565b73ffffffffffffffffffffffffffffffffffffffff8916825273ffffffffffffffffffffffffffffffffffffffff8616602083015287604083015260608201526000608082015273ffffffffffffffffffffffffffffffffffffffff6080604051927fc6a5026a0000000000000000000000000000000000000000000000000000000084528281511660048501528260208201511660248501526040810151604485015262ffffff6060820151166064850152015116608482015260808160a48160007361ffe014ba17989e743c5f6cb21bf9697530b21e5af19081156130e657600091613c9c575b50828111613c81575b50613b64565b9150935062ffffff613c938584613f41565b51169338613c7b565b90506080813d608011613ce5575b81613cb760809383612b1e565b81010312610632576040815191613cd060208201612cf1565b50015163ffffffff8116036106325738613c72565b3d9150613caa565b90506020813d602011613d40575b81613d0860209383612b1e565b8101031261063257516fffffffffffffffffffffffffffffffff81168103610632576fffffffffffffffffffffffffffffffff613b46565b3d9150613cfb565b506020813d602011613d8d575b81613d6260209383612b1e565b8101031261063257613d8873ffffffffffffffffffffffffffffffffffffffff91612cf1565b613ab8565b3d9150613d55565b7f4e487b7100000000000000000000000000000000000000000000000000000000600052602160045260246000fd5b3d15613def573d90613dd582612c80565b91613de36040519384612b1e565b82523d6000602084013e565b606090565b90916040517fdd62ed3e00000000000000000000000000000000000000000000000000000000815230600482015260208160448173ffffffffffffffffffffffffffffffffffffffff808916602483015287165afa9081156130e657600091613ece575b501015613eca5760446010600080936020956014527fffffffffffffffffffffffffffffffffffffffffffffffffffffffffffffffff6034526f095ea7b300000000000000000000000082525af13d15600160005114171615613ebc576000603452565b633e3f8f736000526004601cfd5b5050565b906020823d8211613ef7575b81613ee760209383612b1e565b8101031261072d57505138613e58565b3d9150613eda565b81601f82011215610632578051613f1581612c80565b92613f236040519485612b1e565b8184526020828401011161063257612fb49160208085019101612b8e565b906004811015612d545760051b0190565b519065ffffffffffff8216820361063257565b916040517f927da10500000000000000000000000000000000000000000000000000000000815230600482015273ffffffffffffffffffffffffffffffffffffffff808095169384602484015216918260448301526e22d473030f116ddee9f6b43ac78ba391606081606481865afa80156130e6578691600091614060575b5016101561405a57803b15610632576000928360849260405196879586947f87517c4500000000000000000000000000000000000000000000000000000000865260048601526024850152604484015265ffffffffffff60648401525af180156130e65761404f5750565b6000612f1d91612b1e565b50505050565b91506060823d82116140ae575b8161407a60609383612b1e565b8101031261072d5750806140a760406140938994612cf1565b926140a060208201613f52565b5001613f52565b5038613fe4565b3d915061406d565b519060ff8216820361063257565b60ff16604d8111612d9057600a0a90565b519061ffff8216820361063257565b5190811515820361063257565b9080156141a1578115614199578180600114614190576002146141765760208110610133831016604e8210600b8410161761416a579091600191825b8082116141435750508290048111612d90570290565b90938083048111612d9057818516614161575b800293811c9061412d565b80930292614156565b900a91908211612d9057565b905060ff8193929311612d90576001901b918211612d9057565b50505050600190565b505050600090565b505050600190565b81810292918115918404141715612d9057565b90916141c830836143b1565b916141d330856143b1565b9282816141f1575b505050816141e857505050565b612f1d92614368565b6141fa92614368565b3880826141db565b90807fffffffffffffffffffffffffffffffffffffffffffffffffffffffffffffffff048211810261423d57670de0b6b3a764000091020490565b63bac65e5b6000526004601cfd5b670de0b6b3a7640000907812725dd1d243aba0e75fe645cc4873f9e65afe688c928e1f21811182021583021561428057020490565b637c5f487d6000526004601cfd5b91600092828102927fffffffffffffffffffffffffffffffffffffffffffffffffffffffffffffffff818309918483108501808403931461432e578284111561432157908391099060018386038416808080960460028082600302188083028203028083028203028083028203028083028203028083028203028092029003029703040190848311900302920304170290565b63ae47f70286526004601cfd5b50505091821561433d57500490565b63ae47f70290526004601cfd5b600080809381935af11561435a57565b63b12d13eb6000526004601cfd5b60109260209260145260345260446000938480936fa9059cbb00000000000000000000000082525af13d1560018351141716156143a457603452565b6390b8ec1890526004601cfd5b602460106020939284936014526f70a082310000000000000000000000006000525afa601f3d1116602051029056fea164736f6c6343000811000a","opcodes":"PUSH2 0x100 PUSH1 0x40 SWAP1 DUP1 DUP3 MSTORE CALLVALUE PUSH3 0x397 JUMPI PUSH3 0x47F4 DUP1 CODESIZE SUB DUP1 SWAP2 PUSH3 0x23 DUP3 DUP6 PUSH3 0x39C JUMP JUMPDEST DUP4 CODECOPY DUP2 ADD DUP3 DUP3 DUP3 SUB SLT PUSH3 0x397 JUMPI DUP2 MLOAD PUSH1 0x1 PUSH1 0x1 PUSH1 0xA0 SHL SUB SWAP1 DUP2 DUP2 AND SWAP1 DUP2 DUP2 SUB PUSH3 0x397 JUMPI PUSH1 0x20 DUP6 DUP2 ADD MLOAD SWAP1 SWAP6 PUSH1 0x1 PUSH1 0x1 PUSH1 0x40 SHL SUB SWAP2 SWAP1 DUP3 DUP3 GT PUSH3 0x397 JUMPI ADD SWAP1 PUSH1 0x1F SWAP6 DUP1 DUP8 DUP5 ADD SLT ISZERO PUSH3 0x397 JUMPI DUP3 MLOAD SWAP3 DUP3 DUP5 GT PUSH3 0x381 JUMPI DUP10 MLOAD PUSH1 0x1F NOT SWAP5 PUSH3 0x95 DUP11 DUP3 ADD DUP8 AND DUP13 ADD DUP4 PUSH3 0x39C JUMP JUMPDEST DUP1 DUP3 MSTORE DUP11 DUP3 ADD SWAP4 DUP12 DUP3 DUP6 ADD ADD GT PUSH3 0x397 JUMPI DUP4 PUSH3 0xF9 PUSH1 0x3B SWAP4 DUP15 PUSH3 0xE5 DUP16 SWAP6 PUSH32 0x4379676E75733A20416C7461697220457874656E73696F6E202D200000000000 SWAP10 DUP8 PUSH3 0x10A SWAP11 ADD PUSH3 0x3C0 JUMP JUMPDEST MLOAD SWAP7 DUP8 SWAP5 DUP6 ADD MSTORE MLOAD DUP1 SWAP3 DUP6 DUP6 ADD SWAP1 PUSH3 0x3C0 JUMP JUMPDEST DUP2 ADD SUB PUSH1 0x1B DUP2 ADD DUP5 MSTORE ADD DUP3 PUSH3 0x39C JUMP JUMPDEST DUP1 MLOAD SWAP2 DUP3 GT PUSH3 0x381 JUMPI PUSH1 0x4 SWAP7 DUP8 SLOAD SWAP2 PUSH1 0x1 SWAP3 DUP4 DUP2 DUP2 SHR SWAP2 AND DUP1 ISZERO PUSH3 0x376 JUMPI JUMPDEST DUP12 DUP3 LT EQ PUSH3 0x361 JUMPI DUP3 DUP2 GT PUSH3 0x316 JUMPI JUMPDEST POP DUP10 SWAP2 DUP5 GT PUSH1 0x1 EQ PUSH3 0x2B0 JUMPI DUP4 SWAP5 POP SWAP1 DUP4 SWAP3 SWAP2 PUSH1 0x0 SWAP5 PUSH3 0x2A4 JUMPI JUMPDEST POP POP SHL SWAP2 PUSH1 0x0 NOT SWAP1 PUSH1 0x3 SHL SHR NOT AND OR DUP5 SSTORE JUMPDEST PUSH1 0xA0 MSTORE DUP5 MLOAD PUSH4 0x1C2EB17B PUSH1 0xE3 SHL DUP2 MSTORE SWAP2 DUP5 DUP4 DUP6 DUP2 DUP6 GAS STATICCALL DUP1 ISZERO PUSH3 0x299 JUMPI DUP6 SWAP4 PUSH1 0x0 SWAP2 PUSH3 0x277 JUMPI JUMPDEST POP AND PUSH1 0xE0 MSTORE DUP5 MLOAD PUSH4 0xD63A6CCD PUSH1 0xE0 SHL DUP2 MSTORE SWAP3 DUP4 SWAP2 DUP3 SWAP1 GAS STATICCALL SWAP2 DUP3 ISZERO PUSH3 0x26C JUMPI PUSH1 0x0 SWAP3 PUSH3 0x238 JUMPI JUMPDEST POP POP PUSH1 0xC0 MSTORE ADDRESS PUSH1 0x80 MSTORE MLOAD PUSH2 0x43ED SWAP1 DUP2 PUSH3 0x407 DUP3 CODECOPY PUSH1 0x80 MLOAD DUP2 PUSH2 0x2E69 ADD MSTORE PUSH1 0xA0 MLOAD DUP2 DUP2 DUP2 PUSH2 0x77B ADD MSTORE DUP2 DUP2 PUSH2 0xC94 ADD MSTORE DUP2 DUP2 PUSH2 0x1045 ADD MSTORE PUSH2 0x2912 ADD MSTORE PUSH1 0xC0 MLOAD DUP2 DUP2 DUP2 PUSH2 0x4BB ADD MSTORE DUP2 DUP2 PUSH2 0x859 ADD MSTORE DUP2 DUP2 PUSH2 0x1330 ADD MSTORE DUP2 DUP2 PUSH2 0x1DD4 ADD MSTORE DUP2 DUP2 PUSH2 0x2522 ADD MSTORE PUSH2 0x2F33 ADD MSTORE PUSH1 0xE0 MLOAD DUP2 DUP2 DUP2 PUSH2 0x7EA ADD MSTORE PUSH2 0x15E9 ADD MSTORE RETURN JUMPDEST PUSH3 0x25C SWAP3 POP DUP1 RETURNDATASIZE LT PUSH3 0x264 JUMPI JUMPDEST PUSH3 0x253 DUP2 DUP4 PUSH3 0x39C JUMP JUMPDEST DUP2 ADD SWAP1 PUSH3 0x3E5 JUMP JUMPDEST CODESIZE DUP1 PUSH3 0x1BE JUMP JUMPDEST POP RETURNDATASIZE PUSH3 0x247 JUMP JUMPDEST DUP4 MLOAD RETURNDATASIZE PUSH1 0x0 DUP3 RETURNDATACOPY RETURNDATASIZE SWAP1 REVERT JUMPDEST PUSH3 0x292 SWAP2 POP DUP5 RETURNDATASIZE DUP7 GT PUSH3 0x264 JUMPI PUSH3 0x253 DUP2 DUP4 PUSH3 0x39C JUMP JUMPDEST CODESIZE PUSH3 0x195 JUMP JUMPDEST DUP7 MLOAD RETURNDATASIZE PUSH1 0x0 DUP3 RETURNDATACOPY RETURNDATASIZE SWAP1 REVERT JUMPDEST ADD MLOAD SWAP3 POP CODESIZE DUP1 PUSH3 0x15A JUMP JUMPDEST SWAP2 SWAP4 DUP4 AND SWAP2 DUP9 PUSH1 0x0 MSTORE DUP4 DUP11 PUSH1 0x0 KECCAK256 SWAP4 PUSH1 0x0 JUMPDEST DUP13 DUP9 DUP4 DUP4 LT PUSH3 0x2FE JUMPI POP POP POP LT PUSH3 0x2E4 JUMPI JUMPDEST POP POP POP DUP2 SHL ADD DUP5 SSTORE PUSH3 0x16C JUMP JUMPDEST ADD MLOAD PUSH1 0x0 NOT PUSH1 0xF8 DUP5 PUSH1 0x3 SHL AND SHR NOT AND SWAP1 SSTORE CODESIZE DUP1 DUP1 PUSH3 0x2D6 JUMP JUMPDEST DUP7 DUP7 ADD MLOAD DUP9 SSTORE SWAP1 SWAP7 ADD SWAP6 SWAP5 DUP6 ADD SWAP5 DUP8 SWAP4 POP ADD PUSH3 0x2C2 JUMP JUMPDEST DUP10 PUSH1 0x0 MSTORE DUP11 PUSH1 0x0 KECCAK256 DUP4 DUP1 DUP8 ADD PUSH1 0x5 SHR DUP3 ADD SWAP3 DUP14 DUP9 LT PUSH3 0x357 JUMPI JUMPDEST ADD PUSH1 0x5 SHR ADD SWAP1 DUP5 SWAP1 JUMPDEST DUP3 DUP2 LT PUSH3 0x34A JUMPI POP POP PUSH3 0x13D JUMP JUMPDEST PUSH1 0x0 DUP2 SSTORE ADD DUP5 SWAP1 PUSH3 0x33A JUMP JUMPDEST SWAP3 POP DUP2 SWAP3 PUSH3 0x331 JUMP JUMPDEST PUSH1 0x22 DUP11 PUSH4 0x4E487B71 PUSH1 0xE0 SHL PUSH1 0x0 MSTORE MSTORE PUSH1 0x24 PUSH1 0x0 REVERT JUMPDEST SWAP1 PUSH1 0x7F AND SWAP1 PUSH3 0x12B JUMP JUMPDEST PUSH4 0x4E487B71 PUSH1 0xE0 SHL PUSH1 0x0 MSTORE PUSH1 0x41 PUSH1 0x4 MSTORE PUSH1 0x24 PUSH1 0x0 REVERT JUMPDEST PUSH1 0x0 DUP1 REVERT JUMPDEST PUSH1 0x1F SWAP1 SWAP2 ADD PUSH1 0x1F NOT AND DUP2 ADD SWAP1 PUSH1 0x1 PUSH1 0x1 PUSH1 0x40 SHL SUB DUP3 GT SWAP1 DUP3 LT OR PUSH3 0x381 JUMPI PUSH1 0x40 MSTORE JUMP JUMPDEST PUSH1 0x0 JUMPDEST DUP4 DUP2 LT PUSH3 0x3D4 JUMPI POP POP PUSH1 0x0 SWAP2 ADD MSTORE JUMP JUMPDEST DUP2 DUP2 ADD MLOAD DUP4 DUP3 ADD MSTORE PUSH1 0x20 ADD PUSH3 0x3C3 JUMP JUMPDEST SWAP1 DUP2 PUSH1 0x20 SWAP2 SUB SLT PUSH3 0x397 JUMPI MLOAD PUSH1 0x1 PUSH1 0x1 PUSH1 0xA0 SHL SUB DUP2 AND DUP2 SUB PUSH3 0x397 JUMPI SWAP1 JUMP INVALID PUSH1 0x80 DUP1 PUSH1 0x40 MSTORE PUSH1 0x4 CALLDATASIZE LT ISZERO PUSH2 0x1D JUMPI JUMPDEST POP CALLDATASIZE ISZERO PUSH2 0x1B JUMPI PUSH1 0x0 DUP1 REVERT JUMPDEST STOP JUMPDEST PUSH1 0x0 SWAP1 DUP2 CALLDATALOAD PUSH1 0xE0 SHR SWAP1 DUP2 PUSH4 0x6FDDE03 EQ PUSH2 0x29AA JUMPI POP DUP1 PUSH4 0x1BE19560 EQ PUSH2 0x2891 JUMPI DUP1 PUSH4 0x2F764135 EQ PUSH2 0x2844 JUMPI DUP1 PUSH4 0x41C64A2F EQ PUSH2 0x27F7 JUMPI DUP1 PUSH4 0x6AFDD850 EQ PUSH2 0x27AF JUMPI DUP1 PUSH4 0x72E05064 EQ PUSH2 0x2762 JUMPI DUP1 PUSH4 0x88A799F6 EQ PUSH2 0x2715 JUMPI DUP1 PUSH4 0x8F53D74F EQ PUSH2 0x18AD JUMPI DUP1 PUSH4 0x989BEBCF EQ PUSH2 0x10D2 JUMPI DUP1 PUSH4 0xAB803A76 EQ PUSH2 0xFD2 JUMPI DUP1 PUSH4 0xBDCB9932 EQ PUSH2 0xF85 JUMPI DUP1 PUSH4 0xC47F0027 EQ PUSH2 0xBEB JUMPI DUP1 PUSH4 0xD0189A91 EQ PUSH2 0x87D JUMPI DUP1 PUSH4 0xD63A6CCD EQ PUSH2 0x80E JUMPI DUP1 PUSH4 0xE1758BD8 EQ PUSH2 0x79F JUMPI DUP1 PUSH4 0xE8A24E1D EQ PUSH2 0x730 JUMPI PUSH4 0xE95471C7 SUB PUSH2 0xF JUMPI CALLVALUE PUSH2 0x72D JUMPI PUSH1 0x80 PUSH32 0xFFFFFFFFFFFFFFFFFFFFFFFFFFFFFFFFFFFFFFFFFFFFFFFFFFFFFFFFFFFFFFFC CALLDATASIZE ADD SLT PUSH2 0x72D JUMPI PUSH1 0x4 CALLDATALOAD PUSH20 0xFFFFFFFFFFFFFFFFFFFFFFFFFFFFFFFFFFFFFFFF DUP1 DUP3 AND DUP1 SWAP3 SUB PUSH2 0x632 JUMPI PUSH1 0x44 CALLDATALOAD SWAP2 PUSH8 0xFFFFFFFFFFFFFFFF SWAP2 PUSH1 0x64 CALLDATALOAD DUP4 DUP2 GT PUSH2 0x729 JUMPI PUSH2 0x158 SWAP1 CALLDATASIZE SWAP1 PUSH1 0x4 ADD PUSH2 0x2C15 JUMP JUMPDEST PUSH2 0x163 SWAP4 SWAP2 SWAP4 PUSH2 0x2E52 JUMP JUMPDEST DUP4 ADD SWAP1 PUSH1 0x20 SWAP4 DUP5 DUP2 DUP5 SUB SLT PUSH2 0x725 JUMPI DUP1 CALLDATALOAD SWAP1 DUP7 DUP3 GT PUSH2 0x721 JUMPI ADD SWAP1 PUSH2 0x100 SWAP4 DUP5 DUP4 DUP6 SUB SLT PUSH2 0x721 JUMPI PUSH2 0x198 PUSH1 0x40 MLOAD SWAP6 DUP7 PUSH2 0x2B1E JUMP JUMPDEST PUSH2 0x1A1 DUP4 PUSH2 0x2BF4 JUMP JUMPDEST DUP6 MSTORE PUSH2 0x1AE DUP7 DUP5 ADD PUSH2 0x2BF4 JUMP JUMPDEST SWAP5 DUP7 DUP2 ADD SWAP6 DUP7 MSTORE PUSH2 0x1C1 PUSH1 0x40 DUP6 ADD PUSH2 0x2BF4 JUMP JUMPDEST SWAP4 PUSH1 0x40 DUP3 ADD SWAP5 DUP6 MSTORE PUSH2 0x1D5 PUSH1 0x60 DUP3 ADD PUSH2 0x2BF4 JUMP JUMPDEST SWAP6 PUSH1 0x60 DUP4 ADD SWAP7 DUP8 MSTORE PUSH2 0x1E9 PUSH1 0x80 DUP4 ADD PUSH2 0x2BF4 JUMP JUMPDEST PUSH1 0x80 DUP5 ADD MSTORE PUSH1 0xA0 DUP3 ADD CALLDATALOAD PUSH1 0xA0 DUP5 ADD MSTORE PUSH1 0xC0 DUP3 ADD CALLDATALOAD SWAP10 PUSH1 0x7 DUP12 LT ISZERO PUSH2 0x71D JUMPI PUSH1 0xC0 DUP5 ADD SWAP11 DUP12 MSTORE PUSH1 0xE0 DUP4 ADD CALLDATALOAD SWAP1 DUP2 GT PUSH2 0x71D JUMPI PUSH2 0x224 SWAP3 ADD PUSH2 0x2DBF JUMP JUMPDEST PUSH1 0xE0 DUP3 ADD SWAP1 DUP2 MSTORE SWAP3 ADDRESS EQ PUSH2 0x25C JUMPI PUSH1 0x4 PUSH1 0x40 MLOAD PUSH32 0xA610E78800000000000000000000000000000000000000000000000000000000 DUP2 MSTORE REVERT JUMPDEST DUP2 DUP5 MLOAD AND CALLER SUB PUSH2 0x6F3 JUMPI DUP2 DUP1 DUP1 SWAP3 MLOAD AND SWAP7 MLOAD AND SWAP4 MLOAD AND SWAP4 MLOAD AND SWAP6 MLOAD SWAP1 PUSH1 0x7 DUP3 LT ISZERO PUSH2 0x6C6 JUMPI MLOAD SWAP2 DUP9 PUSH1 0x40 MLOAD PUSH32 0x18160DDD00000000000000000000000000000000000000000000000000000000 DUP2 MSTORE DUP8 DUP2 PUSH1 0x4 DUP2 DUP7 GAS STATICCALL SWAP1 DUP2 ISZERO PUSH2 0x6BB JUMPI DUP3 SWAP2 PUSH2 0x68A JUMPI JUMPDEST POP PUSH1 0x40 MLOAD SWAP1 PUSH32 0x1E1D11400000000000000000000000000000000000000000000000000000000 DUP3 MSTORE DUP9 DUP3 PUSH1 0x4 DUP2 DUP8 GAS STATICCALL DUP1 ISZERO PUSH2 0x67F JUMPI DUP10 SWAP3 DUP5 SWAP2 PUSH2 0x649 JUMPI JUMPDEST POP PUSH2 0x3A3 SWAP2 PUSH2 0x310 SWAP2 PUSH1 0x24 CALLDATALOAD PUSH2 0x428E JUMP JUMPDEST SWAP4 PUSH2 0x31A DUP5 PUSH2 0x2C80 JUMP JUMPDEST PUSH2 0x327 PUSH1 0x40 MLOAD SWAP2 DUP3 PUSH2 0x2B1E JUMP JUMPDEST DUP5 DUP2 MSTORE PUSH32 0xFFFFFFFFFFFFFFFFFFFFFFFFFFFFFFFFFFFFFFFFFFFFFFFFFFFFFFFFFFFFFFE0 PUSH2 0x354 DUP7 PUSH2 0x2C80 JUMP JUMPDEST ADD CALLDATASIZE DUP6 DUP4 ADD CALLDATACOPY PUSH1 0x40 MLOAD SWAP5 DUP6 DUP1 SWAP5 DUP2 SWAP4 PUSH32 0xFA14FDC200000000000000000000000000000000000000000000000000000000 DUP4 MSTORE ADDRESS PUSH1 0x4 DUP5 ADD MSTORE DUP10 PUSH1 0x24 DUP5 ADD MSTORE PUSH1 0x60 PUSH1 0x44 DUP5 ADD MSTORE PUSH1 0x64 DUP4 ADD SWAP1 PUSH2 0x2BB1 JUMP JUMPDEST SUB SWAP3 GAS CALL SWAP1 DUP2 ISZERO PUSH2 0x63E JUMPI DUP8 SWAP2 PUSH2 0x610 JUMPI JUMPDEST POP POP PUSH1 0x40 DUP1 MLOAD PUSH2 0x414 SWAP3 PUSH2 0x3CA PUSH1 0x80 DUP4 PUSH2 0x2B1E JUMP JUMPDEST DUP12 DUP3 MSTORE DUP12 DUP10 DUP4 ADD MSTORE DUP12 DUP4 DUP4 ADD MSTORE DUP12 PUSH1 0x60 DUP4 ADD MSTORE DUP3 MLOAD SWAP4 DUP5 SWAP3 DUP4 SWAP3 PUSH32 0xA855987200000000000000000000000000000000000000000000000000000000 DUP5 MSTORE ADDRESS SWAP1 ADDRESS SWAP1 PUSH1 0x4 DUP7 ADD PUSH2 0x2EE3 JUMP JUMPDEST SUB DUP2 DUP13 DUP10 GAS CALL SWAP2 DUP3 ISZERO PUSH2 0x605 JUMPI DUP10 SWAP2 DUP11 SWAP4 PUSH2 0x5D2 JUMPI JUMPDEST POP PUSH1 0x40 MLOAD PUSH32 0xDFE168100000000000000000000000000000000000000000000000000000000 DUP2 MSTORE DUP8 DUP2 PUSH1 0x4 DUP2 DUP11 GAS STATICCALL SWAP7 DUP8 ISZERO PUSH2 0x588 JUMPI DUP9 SWAP2 DUP13 SWAP9 PUSH2 0x593 JUMPI JUMPDEST POP SWAP1 PUSH1 0x4 SWAP2 PUSH1 0x40 MLOAD SWAP3 DUP4 DUP1 SWAP3 PUSH32 0xD21220A700000000000000000000000000000000000000000000000000000000 DUP3 MSTORE GAS STATICCALL SWAP8 DUP9 ISZERO PUSH2 0x588 JUMPI DUP12 SWAP9 PUSH2 0x53F JUMPI JUMPDEST POP POP PUSH2 0x4B8 SWAP4 SWAP3 DUP8 SWAP3 DUP8 SWAP3 PUSH2 0x2F2C JUMP JUMPDEST POP PUSH32 0x0 SWAP5 PUSH2 0x4E5 ADDRESS DUP8 PUSH2 0x43B1 JUMP JUMPDEST SWAP2 DUP2 DUP4 LT PUSH2 0x515 JUMPI PUSH2 0x512 SWAP7 PUSH2 0x508 PUSH2 0x501 DUP5 PUSH2 0x50D SWAP7 PUSH2 0x2D83 JUMP JUMPDEST DUP9 DUP4 PUSH2 0x4368 JUMP JUMPDEST PUSH2 0x4368 JUMP JUMPDEST PUSH2 0x41BC JUMP JUMPDEST DUP1 RETURN JUMPDEST PUSH1 0x4 PUSH1 0x40 MLOAD PUSH32 0x38040E8D00000000000000000000000000000000000000000000000000000000 DUP2 MSTORE REVERT JUMPDEST SWAP1 DUP1 SWAP3 SWAP4 SWAP9 POP DUP2 SWAP6 SWAP5 SWAP6 RETURNDATASIZE DUP4 GT PUSH2 0x581 JUMPI JUMPDEST PUSH2 0x55B DUP2 DUP4 PUSH2 0x2B1E JUMP JUMPDEST DUP2 ADD SUB SLT PUSH2 0x57D JUMPI PUSH2 0x4B8 SWAP4 PUSH2 0x571 DUP8 SWAP3 PUSH2 0x2CF1 JUMP JUMPDEST SWAP8 SWAP3 SWAP2 DUP2 SWAP5 SWAP6 POP PUSH2 0x4A8 JUMP JUMPDEST DUP10 DUP1 REVERT JUMPDEST POP RETURNDATASIZE PUSH2 0x551 JUMP JUMPDEST PUSH1 0x40 MLOAD RETURNDATASIZE DUP14 DUP3 RETURNDATACOPY RETURNDATASIZE SWAP1 REVERT JUMPDEST DUP3 DUP2 SWAP4 SWAP3 SWAP10 POP RETURNDATASIZE DUP4 GT PUSH2 0x5CB JUMPI JUMPDEST PUSH2 0x5AB DUP2 DUP4 PUSH2 0x2B1E JUMP JUMPDEST DUP2 ADD SUB SLT PUSH2 0x5C7 JUMPI DUP8 PUSH2 0x5BF PUSH1 0x4 SWAP3 PUSH2 0x2CF1 JUMP JUMPDEST SWAP8 SWAP1 SWAP2 PUSH2 0x469 JUMP JUMPDEST DUP11 DUP1 REVERT JUMPDEST POP RETURNDATASIZE PUSH2 0x5A1 JUMP JUMPDEST SWAP1 SWAP3 POP PUSH2 0x5F7 SWAP2 POP PUSH1 0x40 RETURNDATASIZE PUSH1 0x40 GT PUSH2 0x5FE JUMPI JUMPDEST PUSH2 0x5EF DUP2 DUP4 PUSH2 0x2B1E JUMP JUMPDEST DUP2 ADD SWAP1 PUSH2 0x2D12 JUMP JUMPDEST SWAP2 CODESIZE PUSH2 0x42A JUMP JUMPDEST POP RETURNDATASIZE PUSH2 0x5E5 JUMP JUMPDEST PUSH1 0x40 MLOAD RETURNDATASIZE DUP12 DUP3 RETURNDATACOPY RETURNDATASIZE SWAP1 REVERT JUMPDEST DUP2 RETURNDATASIZE DUP4 GT PUSH2 0x637 JUMPI JUMPDEST PUSH2 0x623 DUP2 DUP4 PUSH2 0x2B1E JUMP JUMPDEST DUP2 ADD SUB SLT PUSH2 0x632 JUMPI DUP6 CODESIZE PUSH2 0x3B5 JUMP JUMPDEST PUSH1 0x0 DUP1 REVERT JUMPDEST POP RETURNDATASIZE PUSH2 0x619 JUMP JUMPDEST PUSH1 0x40 MLOAD RETURNDATASIZE DUP13 DUP3 RETURNDATACOPY RETURNDATASIZE SWAP1 REVERT JUMPDEST SWAP3 DUP1 SWAP3 SWAP5 POP DUP4 SWAP2 POP RETURNDATASIZE DUP4 GT PUSH2 0x678 JUMPI JUMPDEST PUSH2 0x663 DUP2 DUP4 PUSH2 0x2B1E JUMP JUMPDEST DUP2 ADD SUB SLT PUSH2 0x632 JUMPI MLOAD DUP11 SWAP2 DUP9 SWAP2 PUSH2 0x3A3 PUSH2 0x2FF JUMP JUMPDEST POP RETURNDATASIZE PUSH2 0x659 JUMP JUMPDEST PUSH1 0x40 MLOAD RETURNDATASIZE DUP6 DUP3 RETURNDATACOPY RETURNDATASIZE SWAP1 REVERT JUMPDEST DUP1 SWAP3 POP DUP9 DUP1 SWAP3 POP RETURNDATASIZE DUP4 GT PUSH2 0x6B4 JUMPI JUMPDEST PUSH2 0x6A3 DUP2 DUP4 PUSH2 0x2B1E JUMP JUMPDEST DUP2 ADD SUB SLT PUSH2 0x632 JUMPI DUP10 SWAP1 MLOAD CODESIZE PUSH2 0x2C0 JUMP JUMPDEST POP RETURNDATASIZE PUSH2 0x699 JUMP JUMPDEST PUSH1 0x40 MLOAD RETURNDATASIZE DUP5 DUP3 RETURNDATACOPY RETURNDATASIZE SWAP1 REVERT JUMPDEST PUSH1 0x24 DUP10 PUSH32 0x4E487B7100000000000000000000000000000000000000000000000000000000 DUP2 MSTORE PUSH1 0x21 PUSH1 0x4 MSTORE REVERT JUMPDEST PUSH1 0x4 PUSH1 0x40 MLOAD PUSH32 0xE0FFCBFD00000000000000000000000000000000000000000000000000000000 DUP2 MSTORE REVERT JUMPDEST DUP13 DUP1 REVERT JUMPDEST DUP9 DUP1 REVERT JUMPDEST DUP8 DUP1 REVERT JUMPDEST DUP6 DUP1 REVERT JUMPDEST DUP1 REVERT JUMPDEST POP CALLVALUE PUSH2 0x72D JUMPI DUP1 PUSH32 0xFFFFFFFFFFFFFFFFFFFFFFFFFFFFFFFFFFFFFFFFFFFFFFFFFFFFFFFFFFFFFFFC CALLDATASIZE ADD SLT PUSH2 0x72D JUMPI PUSH1 0x20 PUSH1 0x40 MLOAD PUSH20 0xFFFFFFFFFFFFFFFFFFFFFFFFFFFFFFFFFFFFFFFF PUSH32 0x0 AND DUP2 MSTORE RETURN JUMPDEST POP CALLVALUE PUSH2 0x72D JUMPI DUP1 PUSH32 0xFFFFFFFFFFFFFFFFFFFFFFFFFFFFFFFFFFFFFFFFFFFFFFFFFFFFFFFFFFFFFFFC CALLDATASIZE ADD SLT PUSH2 0x72D JUMPI PUSH1 0x20 PUSH1 0x40 MLOAD PUSH20 0xFFFFFFFFFFFFFFFFFFFFFFFFFFFFFFFFFFFFFFFF PUSH32 0x0 AND DUP2 MSTORE RETURN JUMPDEST POP CALLVALUE PUSH2 0x72D JUMPI DUP1 PUSH32 0xFFFFFFFFFFFFFFFFFFFFFFFFFFFFFFFFFFFFFFFFFFFFFFFFFFFFFFFFFFFFFFFC CALLDATASIZE ADD SLT PUSH2 0x72D JUMPI PUSH1 0x20 PUSH1 0x40 MLOAD PUSH20 0xFFFFFFFFFFFFFFFFFFFFFFFFFFFFFFFFFFFFFFFF PUSH32 0x0 AND DUP2 MSTORE RETURN JUMPDEST POP CALLVALUE PUSH2 0x72D JUMPI PUSH1 0x60 PUSH32 0xFFFFFFFFFFFFFFFFFFFFFFFFFFFFFFFFFFFFFFFFFFFFFFFFFFFFFFFFFFFFFFFC CALLDATASIZE ADD SLT PUSH2 0x72D JUMPI PUSH1 0x4 CALLDATALOAD PUSH20 0xFFFFFFFFFFFFFFFFFFFFFFFFFFFFFFFFFFFFFFFF SWAP2 DUP3 DUP3 AND DUP1 SWAP3 SUB PUSH2 0x632 JUMPI PUSH1 0x40 MLOAD PUSH32 0x18160DDD00000000000000000000000000000000000000000000000000000000 DUP2 MSTORE PUSH1 0x24 CALLDATALOAD SWAP2 PUSH1 0x20 SWAP2 PUSH1 0x44 CALLDATALOAD SWAP1 DUP4 DUP2 PUSH1 0x4 DUP2 DUP10 GAS STATICCALL SWAP1 DUP2 ISZERO PUSH2 0x67F JUMPI DUP4 SWAP2 PUSH2 0xBBE JUMPI JUMPDEST POP PUSH1 0x40 MLOAD SWAP2 PUSH32 0xC4A7761E00000000000000000000000000000000000000000000000000000000 DUP4 MSTORE PUSH1 0x40 DUP4 PUSH1 0x4 DUP2 DUP11 GAS STATICCALL SWAP2 DUP3 ISZERO PUSH2 0xBB3 JUMPI DUP5 SWAP4 DUP6 SWAP4 PUSH2 0xB8C JUMPI JUMPDEST POP PUSH1 0x40 MLOAD SWAP3 PUSH2 0x968 PUSH1 0x60 DUP6 PUSH2 0x2B1E JUMP JUMPDEST PUSH1 0x2 DUP5 MSTORE DUP7 DUP5 ADD SWAP8 PUSH1 0x40 CALLDATASIZE DUP11 CALLDATACOPY PUSH1 0x40 MLOAD SWAP6 PUSH2 0x984 PUSH1 0x60 DUP9 PUSH2 0x2B1E JUMP JUMPDEST PUSH1 0x2 DUP8 MSTORE DUP9 DUP8 ADD SWAP11 PUSH1 0x40 CALLDATASIZE DUP14 CALLDATACOPY PUSH1 0x40 MLOAD PUSH32 0xDFE168100000000000000000000000000000000000000000000000000000000 DUP2 MSTORE DUP11 DUP2 PUSH1 0x4 DUP2 DUP6 GAS STATICCALL SWAP1 DUP2 ISZERO PUSH2 0x63E JUMPI SWAP2 DUP12 SWAP2 DUP16 SWAP4 DUP13 SWAP2 PUSH2 0xB4E JUMPI JUMPDEST POP PUSH1 0x4 SWAP4 PUSH2 0x9E0 DUP14 DUP13 PUSH2 0x2D40 JUMP JUMPDEST SWAP2 AND SWAP1 MSTORE PUSH1 0x40 MLOAD SWAP3 DUP4 DUP1 SWAP3 PUSH32 0xD21220A700000000000000000000000000000000000000000000000000000000 DUP3 MSTORE GAS STATICCALL SWAP1 DUP2 ISZERO PUSH2 0x605 JUMPI DUP8 DUP15 SWAP2 DUP12 SWAP4 PUSH2 0xAEE JUMPI JUMPDEST POP SWAP13 SWAP12 SWAP10 SWAP11 SWAP9 SWAP8 SWAP7 PUSH2 0xA52 DUP8 PUSH2 0xA52 SWAP8 SWAP6 DUP4 SWAP10 SWAP8 SWAP6 PUSH2 0xA57 SWAP6 PUSH2 0xA48 PUSH1 0x1 PUSH2 0xA67 SWAP15 PUSH2 0x2D40 JUMP JUMPDEST SWAP2 AND SWAP1 MSTORE DUP6 PUSH2 0x428E JUMP JUMPDEST PUSH2 0x2D83 JUMP JUMPDEST PUSH2 0xA61 DUP12 DUP10 PUSH2 0x2D40 JUMP JUMPDEST MSTORE PUSH2 0x428E JUMP JUMPDEST PUSH2 0xA72 PUSH1 0x1 DUP4 PUSH2 0x2D40 JUMP JUMPDEST MSTORE PUSH1 0x40 MLOAD SWAP7 DUP8 SWAP7 PUSH1 0x40 DUP9 ADD SWAP1 PUSH1 0x40 DUP10 MSTORE MLOAD DUP1 SWAP2 MSTORE PUSH1 0x60 DUP9 ADD SWAP5 SWAP2 DUP7 SWAP1 JUMPDEST DUP3 DUP3 LT PUSH2 0xAD1 JUMPI POP POP POP POP DUP6 DUP4 SUB DUP7 DUP4 ADD MSTORE MLOAD DUP1 DUP4 MSTORE SWAP2 DUP2 ADD SWAP4 SWAP3 JUMPDEST DUP3 DUP2 LT PUSH2 0xABA JUMPI POP POP POP POP SUB SWAP1 RETURN JUMPDEST DUP4 MLOAD DUP6 MSTORE DUP7 SWAP6 POP SWAP4 DUP2 ADD SWAP4 SWAP3 DUP2 ADD SWAP3 PUSH1 0x1 ADD PUSH2 0xAAB JUMP JUMPDEST DUP4 MLOAD DUP2 AND DUP8 MSTORE DUP11 SWAP10 POP SWAP6 DUP6 ADD SWAP6 SWAP3 DUP6 ADD SWAP3 PUSH1 0x1 SWAP2 SWAP1 SWAP2 ADD SWAP1 PUSH2 0xA8F JUMP JUMPDEST SWAP3 POP POP POP DUP10 DUP2 DUP2 RETURNDATASIZE DUP4 GT PUSH2 0xB47 JUMPI JUMPDEST PUSH2 0xB07 DUP2 DUP4 PUSH2 0x2B1E JUMP JUMPDEST DUP2 ADD SUB SLT PUSH2 0x721 JUMPI SWAP2 PUSH2 0xA57 DUP7 PUSH2 0xA52 DUP16 SWAP8 PUSH2 0xA52 SWAP8 SWAP6 DUP12 PUSH2 0xA67 SWAP12 SWAP11 PUSH2 0xA48 PUSH1 0x1 PUSH2 0xB33 DUP7 SWAP13 PUSH2 0x2CF1 JUMP JUMPDEST SWAP10 SWAP12 POP POP POP SWAP6 POP SWAP4 POP SWAP6 SWAP8 POP SWAP8 SWAP9 POP PUSH2 0xA21 JUMP JUMPDEST POP RETURNDATASIZE PUSH2 0xAFD JUMP JUMPDEST SWAP3 DUP1 SWAP3 SWAP5 POP DUP4 SWAP2 POP RETURNDATASIZE DUP4 GT PUSH2 0xB85 JUMPI JUMPDEST PUSH2 0xB68 DUP2 DUP4 PUSH2 0x2B1E JUMP JUMPDEST DUP2 ADD SUB SLT PUSH2 0x57D JUMPI PUSH1 0x4 SWAP2 DUP15 PUSH2 0xB7E DUP14 SWAP4 PUSH2 0x2CF1 JUMP JUMPDEST SWAP1 SWAP4 PUSH2 0x9D2 JUMP JUMPDEST POP RETURNDATASIZE PUSH2 0xB5E JUMP JUMPDEST SWAP1 SWAP3 POP PUSH2 0xBA9 SWAP2 SWAP4 POP PUSH1 0x40 RETURNDATASIZE PUSH1 0x40 GT PUSH2 0x5FE JUMPI PUSH2 0x5EF DUP2 DUP4 PUSH2 0x2B1E JUMP JUMPDEST SWAP3 SWAP1 SWAP3 SWAP2 CODESIZE PUSH2 0x958 JUMP JUMPDEST PUSH1 0x40 MLOAD RETURNDATASIZE DUP7 DUP3 RETURNDATACOPY RETURNDATASIZE SWAP1 REVERT JUMPDEST SWAP1 POP DUP4 DUP2 DUP2 RETURNDATASIZE DUP4 GT PUSH2 0xBE4 JUMPI JUMPDEST PUSH2 0xBD5 DUP2 DUP4 PUSH2 0x2B1E JUMP JUMPDEST DUP2 ADD SUB SLT PUSH2 0x632 JUMPI MLOAD CODESIZE PUSH2 0x917 JUMP JUMPDEST POP RETURNDATASIZE PUSH2 0xBCB JUMP JUMPDEST POP CALLVALUE PUSH2 0x72D JUMPI PUSH1 0x20 SWAP1 DUP2 PUSH32 0xFFFFFFFFFFFFFFFFFFFFFFFFFFFFFFFFFFFFFFFFFFFFFFFFFFFFFFFFFFFFFFFC CALLDATASIZE ADD SLT PUSH2 0x72D JUMPI PUSH8 0xFFFFFFFFFFFFFFFF PUSH1 0x4 CALLDATALOAD DUP2 DUP2 GT PUSH2 0xF81 JUMPI CALLDATASIZE PUSH1 0x23 DUP3 ADD SLT ISZERO PUSH2 0xF81 JUMPI PUSH2 0xC4F SWAP1 CALLDATASIZE SWAP1 PUSH1 0x24 DUP2 PUSH1 0x4 ADD CALLDATALOAD SWAP2 ADD PUSH2 0x2CBA JUMP JUMPDEST SWAP3 PUSH1 0x40 MLOAD PUSH32 0xF851A44000000000000000000000000000000000000000000000000000000000 DUP2 MSTORE PUSH20 0xFFFFFFFFFFFFFFFFFFFFFFFFFFFFFFFFFFFFFFFF SWAP1 DUP3 DUP2 PUSH1 0x4 DUP2 DUP6 PUSH32 0x0 AND GAS STATICCALL SWAP1 DUP2 ISZERO PUSH2 0xF76 JUMPI DUP6 SWAP2 PUSH2 0xF3D JUMPI JUMPDEST POP AND CALLER SUB PUSH2 0xEDE JUMPI PUSH2 0xD1D PUSH1 0x3B PUSH1 0x40 MLOAD DUP1 SWAP7 PUSH32 0x4379676E75733A20416C7461697220457874656E73696F6E202D200000000000 DUP6 DUP4 ADD MSTORE PUSH2 0xD0D DUP2 MLOAD DUP1 SWAP3 DUP8 DUP7 DUP7 ADD SWAP2 ADD PUSH2 0x2B8E JUMP JUMPDEST DUP2 ADD SUB PUSH1 0x1B DUP2 ADD DUP8 MSTORE ADD DUP6 PUSH2 0x2B1E JUMP JUMPDEST DUP4 MLOAD SWAP2 DUP3 GT PUSH2 0xEB1 JUMPI PUSH2 0xD31 PUSH1 0x4 SLOAD PUSH2 0x2ACB JUMP JUMPDEST PUSH1 0x1F DUP2 GT PUSH2 0xE4F JUMPI JUMPDEST POP DUP1 PUSH1 0x1F DUP4 GT PUSH1 0x1 EQ PUSH2 0xD92 JUMPI POP DUP3 SWAP4 DUP3 SWAP4 SWAP3 PUSH2 0xD87 JUMPI JUMPDEST POP POP PUSH32 0xFFFFFFFFFFFFFFFFFFFFFFFFFFFFFFFFFFFFFFFFFFFFFFFFFFFFFFFFFFFFFFFF DUP3 PUSH1 0x1 SHL SWAP3 PUSH1 0x3 SHL SHR NOT AND OR PUSH1 0x4 SSTORE DUP1 RETURN JUMPDEST ADD MLOAD SWAP1 POP CODESIZE DUP1 PUSH2 0xD52 JUMP JUMPDEST SWAP1 PUSH32 0xFFFFFFFFFFFFFFFFFFFFFFFFFFFFFFFFFFFFFFFFFFFFFFFFFFFFFFFFFFFFFFE0 DUP4 AND SWAP5 PUSH1 0x4 DUP6 MSTORE PUSH32 0x8A35ACFBC15FF81A39AE7D344FD709F28E8600B4AA8C65C6B64BFE7FE36BD19B SWAP3 DUP6 SWAP1 JUMPDEST DUP8 DUP3 LT PUSH2 0xE37 JUMPI POP POP DUP4 PUSH1 0x1 SWAP6 SWAP7 LT PUSH2 0xE00 JUMPI JUMPDEST POP POP POP DUP2 SHL ADD PUSH1 0x4 SSTORE DUP1 RETURN JUMPDEST ADD MLOAD PUSH32 0xFFFFFFFFFFFFFFFFFFFFFFFFFFFFFFFFFFFFFFFFFFFFFFFFFFFFFFFFFFFFFFFF PUSH1 0xF8 DUP5 PUSH1 0x3 SHL AND SHR NOT AND SWAP1 SSTORE CODESIZE DUP1 DUP1 PUSH2 0xDF4 JUMP JUMPDEST DUP1 PUSH1 0x1 DUP6 SWAP7 DUP3 SWAP5 SWAP7 DUP7 ADD MLOAD DUP2 SSTORE ADD SWAP6 ADD SWAP4 ADD SWAP1 PUSH2 0xDE0 JUMP JUMPDEST PUSH1 0x4 DUP5 MSTORE PUSH32 0x8A35ACFBC15FF81A39AE7D344FD709F28E8600B4AA8C65C6B64BFE7FE36BD19B PUSH1 0x1F DUP5 ADD PUSH1 0x5 SHR DUP2 ADD SWAP2 DUP4 DUP6 LT PUSH2 0xEA7 JUMPI JUMPDEST PUSH1 0x1F ADD PUSH1 0x5 SHR ADD SWAP1 JUMPDEST DUP2 DUP2 LT PUSH2 0xE9C JUMPI POP PUSH2 0xD3A JUMP JUMPDEST DUP5 DUP2 SSTORE PUSH1 0x1 ADD PUSH2 0xE8F JUMP JUMPDEST SWAP1 SWAP2 POP DUP2 SWAP1 PUSH2 0xE86 JUMP JUMPDEST PUSH1 0x24 DUP4 PUSH32 0x4E487B7100000000000000000000000000000000000000000000000000000000 DUP2 MSTORE PUSH1 0x41 PUSH1 0x4 MSTORE REVERT JUMPDEST PUSH1 0x40 MLOAD PUSH32 0x8C379A000000000000000000000000000000000000000000000000000000000 DUP2 MSTORE PUSH1 0x20 PUSH1 0x4 DUP3 ADD MSTORE PUSH1 0xA PUSH1 0x24 DUP3 ADD MSTORE PUSH32 0x4F6E6C792061646D696E00000000000000000000000000000000000000000000 PUSH1 0x44 DUP3 ADD MSTORE PUSH1 0x64 SWAP1 REVERT JUMPDEST SWAP1 POP DUP3 DUP2 DUP2 RETURNDATASIZE DUP4 GT PUSH2 0xF6F JUMPI JUMPDEST PUSH2 0xF54 DUP2 DUP4 PUSH2 0x2B1E JUMP JUMPDEST DUP2 ADD SUB SLT PUSH2 0xF6B JUMPI PUSH2 0xF65 SWAP1 PUSH2 0x2CF1 JUMP JUMPDEST CODESIZE PUSH2 0xCC4 JUMP JUMPDEST DUP5 DUP1 REVERT JUMPDEST POP RETURNDATASIZE PUSH2 0xF4A JUMP JUMPDEST PUSH1 0x40 MLOAD RETURNDATASIZE DUP8 DUP3 RETURNDATACOPY RETURNDATASIZE SWAP1 REVERT JUMPDEST DUP3 DUP1 REVERT JUMPDEST POP CALLVALUE PUSH2 0x72D JUMPI DUP1 PUSH32 0xFFFFFFFFFFFFFFFFFFFFFFFFFFFFFFFFFFFFFFFFFFFFFFFFFFFFFFFFFFFFFFFC CALLDATASIZE ADD SLT PUSH2 0x72D JUMPI PUSH1 0x20 PUSH1 0x40 MLOAD PUSH20 0x1111111254EEB25477B68FB85ED929F73A960582 DUP2 MSTORE RETURN JUMPDEST POP CALLVALUE PUSH2 0x72D JUMPI DUP1 PUSH32 0xFFFFFFFFFFFFFFFFFFFFFFFFFFFFFFFFFFFFFFFFFFFFFFFFFFFFFFFFFFFFFFFC CALLDATASIZE ADD SLT PUSH2 0x72D JUMPI PUSH1 0x40 MLOAD PUSH32 0xF851A44000000000000000000000000000000000000000000000000000000000 DUP2 MSTORE PUSH20 0xFFFFFFFFFFFFFFFFFFFFFFFFFFFFFFFFFFFFFFFF PUSH1 0x20 DUP3 PUSH1 0x4 DUP2 DUP5 PUSH32 0x0 AND GAS STATICCALL SWAP2 DUP3 ISZERO PUSH2 0x67F JUMPI DUP4 SWAP3 PUSH2 0x1097 JUMPI JUMPDEST POP DUP2 AND CALLER SUB PUSH2 0xEDE JUMPI SELFBALANCE DUP1 PUSH2 0x1088 JUMPI DUP3 DUP1 RETURN JUMPDEST PUSH2 0x1091 SWAP2 PUSH2 0x434A JUMP JUMPDEST CODESIZE DUP1 DUP3 DUP1 RETURN JUMPDEST SWAP1 SWAP2 POP PUSH1 0x20 DUP2 RETURNDATASIZE DUP3 GT PUSH2 0x10CA JUMPI JUMPDEST DUP2 PUSH2 0x10B2 PUSH1 0x20 SWAP4 DUP4 PUSH2 0x2B1E JUMP JUMPDEST DUP2 ADD SUB SLT PUSH2 0xF81 JUMPI PUSH2 0x10C3 SWAP1 PUSH2 0x2CF1 JUMP JUMPDEST SWAP1 CODESIZE PUSH2 0x1075 JUMP JUMPDEST RETURNDATASIZE SWAP2 POP PUSH2 0x10A5 JUMP JUMPDEST POP CALLVALUE PUSH2 0x72D JUMPI PUSH2 0x10E3 CALLDATASIZE PUSH1 0x4 PUSH2 0x2C43 JUMP JUMPDEST PUSH2 0x10EF SWAP4 SWAP2 SWAP3 SWAP4 PUSH2 0x2E52 JUMP JUMPDEST DUP3 ADD SWAP1 PUSH1 0x20 SWAP4 DUP5 DUP5 DUP5 SUB SLT PUSH2 0x729 JUMPI DUP4 CALLDATALOAD PUSH8 0xFFFFFFFFFFFFFFFF SWAP5 DUP6 DUP3 GT PUSH2 0x725 JUMPI ADD SWAP3 PUSH2 0x100 SWAP3 DUP4 DUP6 DUP4 SUB SLT PUSH2 0x725 JUMPI PUSH2 0x112D PUSH1 0x40 MLOAD SWAP5 DUP6 PUSH2 0x2B1E JUMP JUMPDEST PUSH2 0x1136 DUP6 PUSH2 0x2BF4 JUMP JUMPDEST DUP5 MSTORE PUSH2 0x1143 DUP8 DUP7 ADD PUSH2 0x2BF4 JUMP JUMPDEST SWAP5 DUP8 DUP6 ADD SWAP6 DUP7 MSTORE PUSH2 0x1156 PUSH1 0x40 DUP3 ADD PUSH2 0x2BF4 JUMP JUMPDEST PUSH1 0x40 DUP7 ADD MSTORE PUSH2 0x1167 PUSH1 0x60 DUP3 ADD PUSH2 0x2BF4 JUMP JUMPDEST SWAP4 PUSH1 0x60 DUP7 ADD SWAP5 DUP6 MSTORE PUSH1 0x80 DUP7 ADD SWAP2 PUSH1 0x80 DUP2 ADD CALLDATALOAD DUP4 MSTORE PUSH1 0xA0 DUP8 ADD SWAP5 PUSH1 0xA0 DUP3 ADD CALLDATALOAD DUP7 MSTORE PUSH1 0xC0 DUP3 ADD CALLDATALOAD SWAP10 PUSH1 0x7 DUP12 LT ISZERO PUSH2 0x71D JUMPI PUSH1 0xC0 DUP10 ADD SWAP11 DUP12 MSTORE PUSH1 0xE0 DUP4 ADD CALLDATALOAD SWAP1 DUP2 GT PUSH2 0x71D JUMPI PUSH2 0x11B3 SWAP3 ADD PUSH2 0x2DBF JUMP JUMPDEST PUSH1 0xE0 DUP8 ADD SWAP1 DUP2 MSTORE SWAP6 PUSH20 0xFFFFFFFFFFFFFFFFFFFFFFFFFFFFFFFFFFFFFFFF SWAP4 DUP5 AND ADDRESS EQ PUSH2 0x1203 JUMPI PUSH1 0x4 PUSH1 0x40 MLOAD PUSH32 0xA610E78800000000000000000000000000000000000000000000000000000000 DUP2 MSTORE REVERT JUMPDEST DUP4 DUP9 MLOAD AND CALLER SUB PUSH2 0x1883 JUMPI DUP4 DUP1 DUP1 SWAP3 MLOAD AND SWAP7 MLOAD AND SWAP8 MLOAD AND SWAP2 MLOAD SWAP4 MLOAD SWAP8 MLOAD SWAP6 PUSH1 0x7 DUP8 LT ISZERO PUSH2 0x1856 JUMPI PUSH1 0x40 DUP11 DUP13 PUSH2 0x128B SWAP4 MLOAD SWAP5 DUP2 DUP5 MLOAD SWAP4 PUSH2 0x1242 PUSH1 0x80 DUP7 PUSH2 0x2B1E JUMP JUMPDEST DUP2 DUP6 MSTORE DUP5 ADD MSTORE DUP2 DUP5 DUP5 ADD MSTORE DUP2 PUSH1 0x60 DUP5 ADD MSTORE DUP4 MLOAD DUP1 SWAP6 DUP2 SWAP5 DUP3 SWAP4 PUSH32 0xA855987200000000000000000000000000000000000000000000000000000000 DUP5 MSTORE ADDRESS SWAP1 ADDRESS SWAP1 PUSH1 0x4 DUP7 ADD PUSH2 0x2EE3 JUMP JUMPDEST SUB SWAP2 DUP11 GAS CALL SWAP1 DUP2 ISZERO PUSH2 0x588 JUMPI DUP12 SWAP1 DUP13 SWAP3 PUSH2 0x1834 JUMPI JUMPDEST POP PUSH1 0x40 MLOAD SWAP8 PUSH32 0xDFE168100000000000000000000000000000000000000000000000000000000 DUP10 MSTORE DUP13 DUP13 DUP11 PUSH1 0x4 DUP2 DUP13 GAS STATICCALL SWAP9 DUP10 ISZERO PUSH2 0x15CA JUMPI DUP14 SWAP2 SWAP10 PUSH2 0x17FD JUMPI JUMPDEST PUSH1 0x4 SWAP11 POP PUSH1 0x40 MLOAD SWAP11 DUP12 DUP1 SWAP3 PUSH32 0xD21220A700000000000000000000000000000000000000000000000000000000 DUP3 MSTORE GAS STATICCALL SWAP9 DUP10 ISZERO PUSH2 0x1749 JUMPI DUP14 SWAP10 PUSH2 0x17B9 JUMPI JUMPDEST POP PUSH2 0x132D SWAP4 SWAP3 DUP10 SWAP3 DUP10 SWAP3 PUSH2 0x2F2C JUMP JUMPDEST POP PUSH32 0x0 SWAP2 PUSH2 0x135A ADDRESS DUP5 PUSH2 0x43B1 JUMP JUMPDEST SWAP8 DUP9 LT PUSH2 0x178F JUMPI PUSH1 0x40 MLOAD SWAP3 PUSH32 0xE99A6AC700000000000000000000000000000000000000000000000000000000 DUP5 MSTORE DUP10 DUP5 PUSH1 0x4 DUP2 DUP7 GAS STATICCALL SWAP4 DUP5 ISZERO PUSH2 0x588 JUMPI DUP12 SWAP5 PUSH2 0x1758 JUMPI JUMPDEST POP DUP2 DUP5 AND SWAP4 DUP5 EXTCODESIZE ISZERO PUSH2 0x1754 JUMPI PUSH1 0x40 MLOAD PUSH32 0xA6AFED9500000000000000000000000000000000000000000000000000000000 DUP2 MSTORE DUP13 DUP2 PUSH1 0x4 DUP2 DUP4 DUP11 GAS CALL DUP1 ISZERO PUSH2 0x1749 JUMPI PUSH2 0x172B JUMPI JUMPDEST POP SWAP1 DUP12 SWAP6 SWAP5 SWAP4 SWAP3 SWAP2 PUSH1 0x40 MLOAD SWAP5 PUSH32 0x7D6AF07900000000000000000000000000000000000000000000000000000000 DUP7 MSTORE DUP11 PUSH1 0x4 DUP8 ADD MSTORE PUSH1 0x40 DUP7 PUSH1 0x24 DUP2 DUP5 GAS STATICCALL SWAP1 DUP2 ISZERO PUSH2 0x1720 JUMPI DUP13 DUP15 SWAP3 PUSH2 0x14EA SWAP9 DUP12 SWAP2 PUSH2 0x16FF JUMPI JUMPDEST POP DUP1 SWAP2 LT PUSH1 0x0 EQ PUSH2 0x16F4 JUMPI POP PUSH2 0x1450 DUP14 DUP1 SWAP5 JUMPDEST DUP7 PUSH2 0x4368 JUMP JUMPDEST PUSH2 0x1459 DUP10 PUSH2 0x2C80 JUMP JUMPDEST SWAP1 PUSH2 0x1467 PUSH1 0x40 MLOAD SWAP3 DUP4 PUSH2 0x2B1E JUMP JUMPDEST DUP10 DUP3 MSTORE PUSH32 0xFFFFFFFFFFFFFFFFFFFFFFFFFFFFFFFFFFFFFFFFFFFFFFFFFFFFFFFFFFFFFFE0 PUSH2 0x1494 DUP12 PUSH2 0x2C80 JUMP JUMPDEST ADD CALLDATASIZE DUP5 DUP5 ADD CALLDATACOPY DUP13 DUP11 PUSH1 0x40 MLOAD DUP1 SWAP11 DUP2 SWAP6 DUP3 SWAP5 PUSH32 0x1E7DCC0D00000000000000000000000000000000000000000000000000000000 DUP5 MSTORE PUSH1 0x4 DUP5 ADD MSTORE DUP4 PUSH1 0x24 DUP5 ADD MSTORE DUP4 PUSH1 0x44 DUP5 ADD MSTORE PUSH1 0x80 PUSH1 0x64 DUP5 ADD MSTORE PUSH1 0x84 DUP4 ADD SWAP1 PUSH2 0x2BB1 JUMP JUMPDEST SUB SWAP3 GAS CALL SWAP1 DUP2 ISZERO PUSH2 0x16E9 JUMPI DUP13 SWAP6 DUP12 SWAP3 PUSH2 0x16B6 JUMPI JUMPDEST POP DUP1 DUP13 GT PUSH2 0x15D7 JUMPI JUMPDEST POP POP PUSH1 0x40 MLOAD PUSH32 0x23B872DD00000000000000000000000000000000000000000000000000000000 DUP2 MSTORE PUSH20 0xFFFFFFFFFFFFFFFFFFFFFFFFFFFFFFFFFFFFFFFF DUP1 DUP12 AND PUSH1 0x4 DUP4 ADD MSTORE DUP5 AND PUSH1 0x24 DUP3 ADD MSTORE PUSH1 0x44 DUP2 ADD SWAP6 SWAP1 SWAP6 MSTORE POP SWAP3 SWAP10 SWAP2 SWAP3 POP DUP10 SWAP2 DUP3 SWAP1 DUP2 PUSH1 0x64 DUP2 ADD JUMPDEST SUB SWAP3 GAS CALL DUP1 ISZERO PUSH2 0x15CA JUMPI PUSH2 0x158E JUMPI JUMPDEST POP SWAP1 PUSH2 0x1586 SWAP3 SWAP2 PUSH2 0x41BC JUMP JUMPDEST PUSH1 0x40 MLOAD SWAP1 DUP2 MSTORE RETURN JUMPDEST DUP6 DUP8 DUP2 RETURNDATASIZE DUP4 GT PUSH2 0x15C3 JUMPI JUMPDEST PUSH2 0x15A3 DUP2 DUP4 PUSH2 0x2B1E JUMP JUMPDEST DUP2 ADD SUB SLT PUSH2 0x72D JUMPI POP PUSH2 0x15BA PUSH2 0x1586 SWAP5 SWAP6 SWAP7 PUSH2 0x40E4 JUMP JUMPDEST POP DUP6 SWAP5 SWAP4 PUSH2 0x157A JUMP JUMPDEST POP RETURNDATASIZE PUSH2 0x1599 JUMP JUMPDEST POP PUSH1 0x40 MLOAD SWAP1 RETURNDATASIZE SWAP1 DUP3 RETURNDATACOPY RETURNDATASIZE SWAP1 REVERT JUMPDEST PUSH2 0x15E5 SWAP1 DUP13 SWAP7 SWAP4 SWAP5 SWAP7 PUSH2 0x2D83 JUMP JUMPDEST SWAP3 DUP6 PUSH32 0x0 AND DUP1 SWAP7 DUP3 AND EQ PUSH1 0x0 EQ PUSH2 0x169F JUMPI POP POP POP DUP3 EXTCODESIZE ISZERO PUSH2 0xF6B JUMPI DUP5 DUP1 SWAP4 PUSH1 0x24 PUSH1 0x40 MLOAD DUP1 SWAP7 DUP2 SWAP4 PUSH32 0x2E1A7D4D00000000000000000000000000000000000000000000000000000000 DUP4 MSTORE DUP7 PUSH1 0x4 DUP5 ADD MSTORE GAS CALL DUP1 ISZERO PUSH2 0xF76 JUMPI DUP11 SWAP4 DUP7 SWAP2 PUSH2 0x1680 JUMPI JUMPDEST POP POP SWAP3 PUSH2 0x1676 PUSH2 0x156B SWAP4 SWAP5 DUP10 PUSH2 0x434A JUMP JUMPDEST SWAP3 SWAP2 CODESIZE DUP9 DUP2 PUSH2 0x1507 JUMP JUMPDEST DUP2 SWAP3 SWAP5 POP SWAP1 PUSH2 0x168E SWAP2 PUSH2 0x2B1E JUMP JUMPDEST PUSH2 0x169B JUMPI DUP9 SWAP2 DUP5 CODESIZE PUSH2 0x1665 JUMP JUMPDEST DUP4 DUP1 REVERT JUMPDEST PUSH2 0x156B SWAP6 POP SWAP1 PUSH2 0x16B1 SWAP3 SWAP7 SWAP4 SWAP2 PUSH2 0x4368 JUMP JUMPDEST PUSH2 0x1676 JUMP JUMPDEST SWAP2 POP SWAP5 DUP1 SWAP3 SWAP8 POP RETURNDATASIZE DUP4 GT PUSH2 0x16E2 JUMPI JUMPDEST PUSH2 0x16CF DUP2 DUP4 PUSH2 0x2B1E JUMP JUMPDEST DUP2 ADD SUB SLT PUSH2 0x632 JUMPI DUP11 SWAP5 DUP9 DUP12 SWAP5 CODESIZE PUSH2 0x14FE JUMP JUMPDEST POP RETURNDATASIZE PUSH2 0x16C5 JUMP JUMPDEST PUSH1 0x40 MLOAD RETURNDATASIZE DUP10 DUP3 RETURNDATACOPY RETURNDATASIZE SWAP1 REVERT JUMPDEST PUSH2 0x1450 SWAP1 DUP1 SWAP5 PUSH2 0x144A JUMP JUMPDEST PUSH2 0x1718 SWAP2 POP PUSH1 0x40 RETURNDATASIZE PUSH1 0x40 GT PUSH2 0x5FE JUMPI PUSH2 0x5EF DUP2 DUP4 PUSH2 0x2B1E JUMP JUMPDEST SWAP1 POP CODESIZE PUSH2 0x1437 JUMP JUMPDEST PUSH1 0x40 MLOAD RETURNDATASIZE DUP11 DUP3 RETURNDATACOPY RETURNDATASIZE SWAP1 REVERT JUMPDEST DUP13 PUSH2 0x173D SWAP2 SWAP14 SWAP3 SWAP8 SWAP7 SWAP6 SWAP5 SWAP4 SWAP14 PUSH2 0x2B1E JUMP JUMPDEST SWAP11 SWAP1 SWAP2 SWAP3 SWAP4 SWAP5 CODESIZE PUSH2 0x13E4 JUMP JUMPDEST PUSH1 0x40 MLOAD RETURNDATASIZE DUP16 DUP3 RETURNDATACOPY RETURNDATASIZE SWAP1 REVERT JUMPDEST DUP12 DUP1 REVERT JUMPDEST SWAP1 SWAP4 POP DUP10 DUP2 DUP2 RETURNDATASIZE DUP4 GT PUSH2 0x1788 JUMPI JUMPDEST PUSH2 0x1770 DUP2 DUP4 PUSH2 0x2B1E JUMP JUMPDEST DUP2 ADD SUB SLT PUSH2 0x5C7 JUMPI PUSH2 0x1781 SWAP1 PUSH2 0x2CF1 JUMP JUMPDEST SWAP3 CODESIZE PUSH2 0x139E JUMP JUMPDEST POP RETURNDATASIZE PUSH2 0x1766 JUMP JUMPDEST PUSH1 0x4 PUSH1 0x40 MLOAD PUSH32 0xB2A4CAEB00000000000000000000000000000000000000000000000000000000 DUP2 MSTORE REVERT JUMPDEST SWAP1 SWAP2 SWAP9 POP DUP12 DUP2 DUP2 SWAP6 SWAP5 SWAP6 RETURNDATASIZE DUP4 GT PUSH2 0x17F6 JUMPI JUMPDEST PUSH2 0x17D5 DUP2 DUP4 PUSH2 0x2B1E JUMP JUMPDEST DUP2 ADD SUB SLT PUSH2 0x71D JUMPI PUSH2 0x132D SWAP4 PUSH2 0x17EB DUP10 SWAP3 PUSH2 0x2CF1 JUMP JUMPDEST SWAP10 SWAP3 SWAP2 POP SWAP3 SWAP4 PUSH2 0x131E JUMP JUMPDEST POP RETURNDATASIZE PUSH2 0x17CB JUMP JUMPDEST SWAP9 POP DUP10 DUP2 RETURNDATASIZE DUP4 GT PUSH2 0x182D JUMPI JUMPDEST PUSH2 0x1813 DUP2 DUP4 PUSH2 0x2B1E JUMP JUMPDEST DUP2 ADD SUB SLT PUSH2 0x71D JUMPI DUP12 PUSH2 0x1827 PUSH1 0x4 SWAP11 PUSH2 0x2CF1 JUMP JUMPDEST SWAP9 PUSH2 0x12E0 JUMP JUMPDEST POP RETURNDATASIZE PUSH2 0x1809 JUMP JUMPDEST SWAP1 POP PUSH2 0x184F SWAP2 POP PUSH1 0x40 RETURNDATASIZE PUSH1 0x40 GT PUSH2 0x5FE JUMPI PUSH2 0x5EF DUP2 DUP4 PUSH2 0x2B1E JUMP JUMPDEST SWAP1 CODESIZE PUSH2 0x12A0 JUMP JUMPDEST PUSH1 0x24 DUP12 PUSH32 0x4E487B7100000000000000000000000000000000000000000000000000000000 DUP2 MSTORE PUSH1 0x21 PUSH1 0x4 MSTORE REVERT JUMPDEST PUSH1 0x4 PUSH1 0x40 MLOAD PUSH32 0xD0E9C9F600000000000000000000000000000000000000000000000000000000 DUP2 MSTORE REVERT JUMPDEST POP CALLVALUE PUSH2 0x72D JUMPI PUSH2 0x18BE CALLDATASIZE PUSH1 0x4 PUSH2 0x2C43 JUMP JUMPDEST PUSH2 0x18C9 SWAP4 SWAP3 SWAP4 PUSH2 0x2E52 JUMP JUMPDEST DUP2 ADD SWAP4 PUSH1 0x20 DUP3 DUP7 SUB SLT PUSH2 0x72D JUMPI DUP2 CALLDATALOAD PUSH8 0xFFFFFFFFFFFFFFFF SWAP3 DUP4 DUP3 GT PUSH2 0xF81 JUMPI ADD SWAP2 PUSH1 0xE0 DUP4 DUP8 SUB SLT PUSH2 0x2711 JUMPI PUSH1 0x40 MLOAD SWAP6 PUSH2 0x1904 PUSH1 0xE0 DUP9 PUSH2 0x2B1E JUMP JUMPDEST PUSH2 0x190D DUP5 PUSH2 0x2BF4 JUMP JUMPDEST DUP8 MSTORE PUSH2 0x191B PUSH1 0x20 DUP6 ADD PUSH2 0x2BF4 JUMP JUMPDEST SWAP7 PUSH1 0x20 DUP2 ADD SWAP8 DUP9 MSTORE PUSH2 0x192F PUSH1 0x40 DUP7 ADD PUSH2 0x2BF4 JUMP JUMPDEST PUSH1 0x40 DUP3 ADD SWAP1 DUP2 MSTORE PUSH2 0x1942 PUSH1 0x60 DUP8 ADD PUSH2 0x2BF4 JUMP JUMPDEST SWAP3 PUSH1 0x60 DUP4 ADD SWAP4 DUP5 MSTORE PUSH1 0x80 DUP4 ADD SWAP5 PUSH1 0x80 DUP9 ADD CALLDATALOAD DUP7 MSTORE PUSH1 0xA0 DUP9 ADD CALLDATALOAD SWAP8 PUSH1 0x7 DUP10 LT ISZERO PUSH2 0x725 JUMPI PUSH1 0xA0 DUP6 ADD SWAP9 DUP10 MSTORE PUSH1 0xC0 DUP2 ADD CALLDATALOAD SWAP2 DUP3 GT PUSH2 0x725 JUMPI PUSH2 0x1983 SWAP3 SWAP2 ADD PUSH2 0x2DBF JUMP JUMPDEST PUSH1 0xC0 DUP4 ADD SWAP1 DUP2 MSTORE SWAP7 PUSH20 0xFFFFFFFFFFFFFFFFFFFFFFFFFFFFFFFFFFFFFFFF AND ADDRESS EQ PUSH2 0x19D1 JUMPI PUSH1 0x4 PUSH1 0x40 MLOAD PUSH32 0xA610E78800000000000000000000000000000000000000000000000000000000 DUP2 MSTORE REVERT JUMPDEST MLOAD PUSH20 0xFFFFFFFFFFFFFFFFFFFFFFFFFFFFFFFFFFFFFFFF AND CALLER SUB PUSH2 0x6F3 JUMPI PUSH20 0xFFFFFFFFFFFFFFFFFFFFFFFFFFFFFFFFFFFFFFFF DUP1 DUP1 SWAP3 MLOAD AND SWAP3 MLOAD AND SWAP8 MLOAD AND SWAP2 MLOAD SWAP4 MLOAD SWAP5 PUSH1 0x7 DUP7 LT ISZERO PUSH2 0x26E4 JUMPI MLOAD SWAP4 PUSH1 0x40 MLOAD SWAP5 PUSH32 0xDFE168100000000000000000000000000000000000000000000000000000000 DUP7 MSTORE PUSH1 0x20 DUP7 PUSH1 0x4 DUP2 DUP7 GAS STATICCALL SWAP6 DUP7 ISZERO PUSH2 0xF76 JUMPI DUP6 SWAP7 PUSH2 0x26A8 JUMPI JUMPDEST POP PUSH1 0x40 MLOAD SWAP7 PUSH32 0xD21220A700000000000000000000000000000000000000000000000000000000 DUP9 MSTORE PUSH1 0x20 DUP9 PUSH1 0x4 DUP2 DUP8 GAS STATICCALL SWAP8 DUP9 ISZERO PUSH2 0x269D JUMPI DUP7 SWAP9 PUSH2 0x2661 JUMPI JUMPDEST POP PUSH1 0x40 MLOAD SWAP9 PUSH32 0x86A2908100000000000000000000000000000000000000000000000000000000 DUP11 MSTORE PUSH1 0x20 DUP11 PUSH1 0x4 DUP2 DUP9 GAS STATICCALL SWAP10 DUP11 ISZERO PUSH2 0x16E9 JUMPI DUP8 SWAP11 PUSH2 0x2621 JUMPI JUMPDEST POP DUP9 PUSH1 0x4 DUP4 EQ DUP9 DUP2 ISZERO PUSH2 0x2615 JUMPI JUMPDEST DUP2 ISZERO PUSH2 0x25D6 JUMPI JUMPDEST POP ISZERO PUSH2 0x251E JUMPI POP PUSH1 0x40 MLOAD PUSH32 0x313CE56700000000000000000000000000000000000000000000000000000000 DUP2 MSTORE PUSH1 0x20 DUP2 PUSH1 0x4 DUP2 PUSH20 0xFFFFFFFFFFFFFFFFFFFFFFFFFFFFFFFFFFFFFFFF DUP14 AND GAS STATICCALL DUP1 ISZERO PUSH2 0x1720 JUMPI DUP9 SWAP1 PUSH2 0x24E3 JUMPI JUMPDEST PUSH2 0x1B52 SWAP2 POP PUSH2 0x40C4 JUMP JUMPDEST PUSH1 0x40 MLOAD PUSH32 0x313CE56700000000000000000000000000000000000000000000000000000000 DUP2 MSTORE PUSH1 0x20 DUP2 PUSH1 0x4 DUP2 PUSH20 0xFFFFFFFFFFFFFFFFFFFFFFFFFFFFFFFFFFFFFFFF DUP16 AND GAS STATICCALL DUP1 ISZERO PUSH2 0x605 JUMPI DUP10 SWAP1 PUSH2 0x24A8 JUMPI JUMPDEST PUSH2 0x1BAE SWAP2 POP PUSH2 0x40C4 JUMP JUMPDEST SWAP1 PUSH2 0x1BB9 DUP3 DUP3 PUSH2 0x424B JUMP JUMPDEST PUSH5 0xE8D4A51000 DUP2 GT ISZERO PUSH2 0x24A0 JUMPI PUSH3 0xF4240 SWAP1 JUMPDEST PUSH1 0x40 MLOAD PUSH32 0x16F0115B00000000000000000000000000000000000000000000000000000000 DUP2 MSTORE PUSH1 0x20 DUP2 PUSH1 0x4 DUP2 DUP14 GAS STATICCALL SWAP1 DUP2 ISZERO PUSH2 0x2443 JUMPI DUP13 SWAP2 PUSH2 0x244E JUMPI JUMPDEST POP PUSH1 0xE0 PUSH20 0xFFFFFFFFFFFFFFFFFFFFFFFFFFFFFFFFFFFFFFFF SWAP2 PUSH1 0x4 PUSH1 0x40 MLOAD DUP1 SWAP5 DUP2 SWAP4 PUSH32 0xE76C01E400000000000000000000000000000000000000000000000000000000 DUP4 MSTORE AND GAS STATICCALL SWAP1 DUP2 ISZERO PUSH2 0x2443 JUMPI DUP13 SWAP2 PUSH2 0x237A JUMPI JUMPDEST POP PUSH32 0xFFFFFFFFFFFFFFFFFFFFFFFFFFFFFFFFFFFFFFFFFFFFFFFFFFFFFFFFFFFFFFFF PUSH1 0x2 PUSH20 0xFFFFFFFFFFFFFFFFFFFFFFFFFFFFFFFFFFFFFFFF PUSH2 0x1CA2 SWAP4 AND PUSH2 0x40F1 JUMP JUMPDEST SWAP1 PUSH3 0xFFFFFF DUP4 AND ISZERO PUSH2 0x234D JUMPI SWAP3 PUSH2 0x1CD9 DUP16 SWAP6 SWAP5 SWAP4 PUSH2 0x1CD1 PUSH1 0x40 SWAP5 PUSH2 0x1D51 SWAP7 PUSH3 0xFFFFFF DUP1 DUP6 AND SWAP5 AND SWAP1 DIV SWAP1 PUSH2 0x41A9 JUMP JUMPDEST PUSH1 0xC0 SHR PUSH2 0x41A9 JUMP JUMPDEST SWAP5 DUP14 PUSH20 0xFFFFFFFFFFFFFFFFFFFFFFFFFFFFFFFFFFFFFFFF DUP13 DUP6 MLOAD SWAP7 DUP8 SWAP6 DUP7 SWAP5 DUP6 SWAP4 PUSH32 0x5CCFB71D00000000000000000000000000000000000000000000000000000000 DUP6 MSTORE PUSH1 0x4 DUP6 ADD PUSH1 0x40 SWAP2 SWAP5 SWAP4 SWAP3 SWAP5 PUSH1 0x60 DUP3 ADD SWAP6 PUSH20 0xFFFFFFFFFFFFFFFFFFFFFFFFFFFFFFFFFFFFFFFF DUP1 SWAP3 AND DUP4 MSTORE AND PUSH1 0x20 DUP3 ADD MSTORE ADD MSTORE JUMP JUMPDEST SUB SWAP3 AND GAS STATICCALL SWAP1 DUP2 ISZERO PUSH2 0x63E JUMPI SWAP2 PUSH2 0x1D78 PUSH2 0x1D80 SWAP3 DUP13 PUSH2 0x1D85 SWAP7 SWAP6 DUP2 SWAP3 PUSH2 0x232B JUMPI JUMPDEST POP PUSH2 0x2F1F JUMP JUMPDEST PUSH1 0x1 SHR PUSH2 0x424B JUMP JUMPDEST PUSH2 0x424B JUMP JUMPDEST SWAP1 PUSH8 0xDE0B6B3A7640000 SWAP2 DUP3 DUP2 ADD DUP1 SWAP2 GT PUSH2 0x22D1 JUMPI DUP1 ISZERO PUSH2 0x22FE JUMPI PUSH15 0xC097CE7BC90715B34B9F1000000000 DIV DUP1 DUP4 SUB SWAP3 DUP4 GT PUSH2 0x22D1 JUMPI DUP2 PUSH2 0x1DCB DUP13 SWAP5 SWAP4 PUSH2 0x1DD1 SWAP4 PUSH2 0x4202 JUMP JUMPDEST SWAP3 PUSH2 0x4202 JUMP JUMPDEST SWAP3 PUSH32 0x0 SWAP2 DUP10 PUSH20 0xFFFFFFFFFFFFFFFFFFFFFFFFFFFFFFFFFFFFFFFF DUP5 AND SWAP2 DUP13 DUP6 DUP5 PUSH20 0xFFFFFFFFFFFFFFFFFFFFFFFFFFFFFFFFFFFFFFFF DUP4 AND SUB PUSH2 0x22B3 JUMPI JUMPDEST POP POP POP POP PUSH20 0xFFFFFFFFFFFFFFFFFFFFFFFFFFFFFFFFFFFFFFFF DUP5 AND SUB PUSH2 0x2293 JUMPI JUMPDEST POP POP POP POP POP JUMPDEST PUSH2 0x1E5E ADDRESS DUP7 PUSH2 0x43B1 JUMP JUMPDEST PUSH2 0x1E68 ADDRESS DUP9 PUSH2 0x43B1 JUMP JUMPDEST SWAP8 PUSH2 0x1E74 DUP3 DUP6 DUP10 PUSH2 0x3DF4 JUMP JUMPDEST PUSH2 0x1E7F DUP10 DUP6 DUP11 PUSH2 0x3DF4 JUMP JUMPDEST PUSH1 0x40 DUP1 MLOAD PUSH32 0x5CCFB71D00000000000000000000000000000000000000000000000000000000 DUP2 MSTORE PUSH20 0xFFFFFFFFFFFFFFFFFFFFFFFFFFFFFFFFFFFFFFFF DUP1 DUP8 AND PUSH1 0x4 DUP4 ADD MSTORE DUP10 AND PUSH1 0x24 DUP3 ADD MSTORE PUSH1 0x44 DUP2 ADD DUP5 SWAP1 MSTORE SWAP1 DUP2 DUP1 PUSH1 0x64 DUP2 ADD SUB DUP2 PUSH20 0xFFFFFFFFFFFFFFFFFFFFFFFFFFFFFFFFFFFFFFFF DUP7 AND GAS STATICCALL SWAP1 DUP2 ISZERO PUSH2 0x16E9 JUMPI DUP8 SWAP1 DUP9 SWAP3 PUSH2 0x2271 JUMPI JUMPDEST POP DUP11 LT PUSH2 0x21B7 JUMPI JUMPDEST DUP1 DUP11 GT PUSH2 0x219B JUMPI JUMPDEST POP PUSH20 0xFFFFFFFFFFFFFFFFFFFFFFFFFFFFFFFFFFFFFFFF SWAP3 SWAP2 PUSH1 0x20 SWAP2 PUSH2 0x1F9C PUSH1 0x40 MLOAD PUSH2 0x1F3F PUSH1 0x80 DUP3 PUSH2 0x2B1E JUMP JUMPDEST DUP10 DUP2 MSTORE DUP10 DUP6 DUP3 ADD MSTORE DUP10 PUSH1 0x40 DUP3 ADD MSTORE DUP10 PUSH1 0x60 DUP3 ADD MSTORE PUSH1 0x40 MLOAD SWAP13 DUP14 SWAP5 PUSH32 0x8E3C92E400000000000000000000000000000000000000000000000000000000 DUP7 MSTORE PUSH1 0x4 DUP7 ADD MSTORE PUSH1 0x24 DUP6 ADD MSTORE ADDRESS PUSH1 0x44 DUP6 ADD MSTORE DUP8 PUSH1 0x64 DUP6 ADD MSTORE PUSH1 0x84 DUP5 ADD SWAP1 PUSH2 0x2EBB JUMP JUMPDEST DUP2 DUP9 PUSH2 0x104 SWAP7 DUP8 SWAP4 AND GAS CALL SWAP8 DUP9 ISZERO PUSH2 0xF76 JUMPI DUP6 SWAP9 PUSH2 0x2167 JUMPI JUMPDEST POP DUP8 LT PUSH2 0x213E JUMPI DUP3 PUSH2 0x1FE7 DUP9 PUSH2 0x120 SWAP6 DUP6 PUSH2 0x1FE2 DUP4 PUSH15 0x22D473030F116DDEE9F6B43AC78BA3 PUSH1 0x20 SWAP10 PUSH2 0x3DF4 JUMP JUMPDEST PUSH2 0x3F65 JUMP JUMPDEST DUP9 DUP6 DUP10 PUSH2 0x20F6 PUSH2 0x1FF6 DUP4 PUSH2 0x2C80 JUMP JUMPDEST PUSH2 0x2003 PUSH1 0x40 MLOAD SWAP2 DUP3 PUSH2 0x2B1E JUMP JUMPDEST DUP4 DUP2 MSTORE PUSH32 0xFFFFFFFFFFFFFFFFFFFFFFFFFFFFFFFFFFFFFFFFFFFFFFFFFFFFFFFFFFFFFFE0 PUSH2 0x2030 DUP6 PUSH2 0x2C80 JUMP JUMPDEST ADD CALLDATASIZE DUP10 DUP4 ADD CALLDATACOPY PUSH1 0x40 MLOAD SWAP9 DUP10 SWAP8 DUP9 SWAP7 DUP8 SWAP6 PUSH32 0x8808E71C00000000000000000000000000000000000000000000000000000000 DUP8 MSTORE PUSH1 0x4 DUP8 ADD MSTORE PUSH1 0x24 DUP7 ADD MSTORE PUSH20 0xFFFFFFFFFFFFFFFFFFFFFFFFFFFFFFFFFFFFFFFF DUP7 SLOAD AND PUSH1 0x44 DUP7 ADD MSTORE PUSH1 0x1 SLOAD PUSH20 0xFFFFFFFFFFFFFFFFFFFFFFFFFFFFFFFFFFFFFFFF DUP2 AND PUSH1 0x64 DUP8 ADD MSTORE PUSH6 0xFFFFFFFFFFFF DUP2 PUSH1 0xA0 SHR AND PUSH1 0x84 DUP8 ADD MSTORE PUSH1 0xD0 SHR PUSH1 0xA4 DUP7 ADD MSTORE PUSH20 0xFFFFFFFFFFFFFFFFFFFFFFFFFFFFFFFFFFFFFFFF PUSH1 0x2 SLOAD AND PUSH1 0xC4 DUP7 ADD MSTORE PUSH1 0x3 SLOAD PUSH1 0xE4 DUP7 ADD MSTORE DUP5 ADD MSTORE PUSH2 0x124 DUP4 ADD SWAP1 PUSH2 0x2BB1 JUMP JUMPDEST SUB SWAP3 GAS CALL DUP1 ISZERO PUSH2 0x6BB JUMPI PUSH2 0x2113 JUMPI JUMPDEST PUSH1 0x20 DUP6 PUSH2 0x1586 DUP9 DUP8 DUP8 PUSH2 0x41BC JUMP JUMPDEST PUSH1 0x20 SWAP1 DUP2 RETURNDATASIZE DUP4 GT PUSH2 0x2137 JUMPI JUMPDEST PUSH2 0x2129 DUP2 DUP4 PUSH2 0x2B1E JUMP JUMPDEST DUP2 ADD SUB SLT PUSH2 0x72D JUMPI DUP1 PUSH2 0x2105 JUMP JUMPDEST POP RETURNDATASIZE PUSH2 0x211F JUMP JUMPDEST PUSH1 0x4 PUSH1 0x40 MLOAD PUSH31 0xBF876800000000000000000000000000000000000000000000000000000000 DUP2 MSTORE REVERT JUMPDEST SWAP1 SWAP8 POP PUSH1 0x20 DUP2 RETURNDATASIZE PUSH1 0x20 GT PUSH2 0x2193 JUMPI JUMPDEST DUP2 PUSH2 0x2183 PUSH1 0x20 SWAP4 DUP4 PUSH2 0x2B1E JUMP JUMPDEST DUP2 ADD SUB SLT PUSH2 0xF6B JUMPI MLOAD SWAP7 CODESIZE PUSH2 0x1FB5 JUMP JUMPDEST RETURNDATASIZE SWAP2 POP PUSH2 0x2176 JUMP JUMPDEST SWAP9 POP PUSH20 0xFFFFFFFFFFFFFFFFFFFFFFFFFFFFFFFFFFFFFFFF PUSH2 0x1F13 JUMP JUMPDEST PUSH1 0x40 DUP1 MLOAD PUSH32 0x5CCFB71D00000000000000000000000000000000000000000000000000000000 DUP2 MSTORE PUSH20 0xFFFFFFFFFFFFFFFFFFFFFFFFFFFFFFFFFFFFFFFF DUP1 DUP9 AND PUSH1 0x4 DUP4 ADD MSTORE DUP12 AND PUSH1 0x24 DUP3 ADD MSTORE PUSH1 0x44 DUP2 ADD DUP13 SWAP1 MSTORE SWAP1 DUP2 DUP1 PUSH1 0x64 DUP2 ADD SUB DUP2 PUSH20 0xFFFFFFFFFFFFFFFFFFFFFFFFFFFFFFFFFFFFFFFF DUP8 AND GAS STATICCALL SWAP1 DUP2 ISZERO PUSH2 0x1720 JUMPI DUP9 SWAP2 PUSH2 0x2250 JUMPI JUMPDEST POP DUP1 DUP5 GT PUSH2 0x2248 JUMPI JUMPDEST POP PUSH2 0x1F0B JUMP JUMPDEST SWAP3 POP CODESIZE PUSH2 0x2242 JUMP JUMPDEST PUSH2 0x2269 SWAP2 POP PUSH1 0x40 RETURNDATASIZE PUSH1 0x40 GT PUSH2 0x5FE JUMPI PUSH2 0x5EF DUP2 DUP4 PUSH2 0x2B1E JUMP JUMPDEST SWAP1 POP CODESIZE PUSH2 0x2239 JUMP JUMPDEST SWAP1 POP PUSH2 0x228C SWAP2 POP PUSH1 0x40 RETURNDATASIZE PUSH1 0x40 GT PUSH2 0x5FE JUMPI PUSH2 0x5EF DUP2 DUP4 PUSH2 0x2B1E JUMP JUMPDEST SWAP1 CODESIZE PUSH2 0x1F03 JUMP JUMPDEST PUSH2 0x22A1 PUSH1 0x1 PUSH2 0x22A8 SWAP7 PUSH2 0x2D40 JUMP JUMPDEST MLOAD SWAP1 PUSH2 0x2FFE JUMP JUMPDEST POP CODESIZE DUP1 DUP8 DUP2 DUP1 PUSH2 0x1E4E JUMP JUMPDEST PUSH2 0x22C0 PUSH2 0x22C7 SWAP5 DUP12 PUSH2 0x2D40 JUMP JUMPDEST MLOAD DUP7 PUSH2 0x2FFE JUMP JUMPDEST POP DUP10 CODESIZE DUP13 DUP6 PUSH2 0x1E2D JUMP JUMPDEST PUSH1 0x24 DUP10 PUSH32 0x4E487B7100000000000000000000000000000000000000000000000000000000 DUP2 MSTORE PUSH1 0x11 PUSH1 0x4 MSTORE REVERT JUMPDEST PUSH1 0x24 DUP10 PUSH32 0x4E487B7100000000000000000000000000000000000000000000000000000000 DUP2 MSTORE PUSH1 0x12 PUSH1 0x4 MSTORE REVERT JUMPDEST SWAP1 POP PUSH2 0x2346 SWAP2 POP PUSH1 0x40 RETURNDATASIZE PUSH1 0x40 GT PUSH2 0x5FE JUMPI PUSH2 0x5EF DUP2 DUP4 PUSH2 0x2B1E JUMP JUMPDEST SWAP1 CODESIZE PUSH2 0x1D72 JUMP JUMPDEST PUSH1 0x24 DUP13 PUSH32 0x4E487B7100000000000000000000000000000000000000000000000000000000 DUP2 MSTORE PUSH1 0x12 PUSH1 0x4 MSTORE REVERT JUMPDEST SWAP1 POP PUSH1 0xE0 DUP2 RETURNDATASIZE PUSH1 0xE0 GT PUSH2 0x243B JUMPI JUMPDEST DUP2 PUSH2 0x2395 PUSH1 0xE0 SWAP4 DUP4 PUSH2 0x2B1E JUMP JUMPDEST DUP2 ADD SUB SLT PUSH2 0x1754 JUMPI PUSH2 0x23A6 DUP2 PUSH2 0x2CF1 JUMP JUMPDEST SWAP1 PUSH1 0x20 DUP2 ADD MLOAD DUP1 PUSH1 0x2 SIGNEXTEND SUB PUSH2 0x71D JUMPI PUSH1 0x2 PUSH20 0xFFFFFFFFFFFFFFFFFFFFFFFFFFFFFFFFFFFFFFFF PUSH2 0x1CA2 SWAP4 PUSH2 0x2431 PUSH1 0xC0 DUP6 PUSH2 0x2403 PUSH1 0x40 PUSH32 0xFFFFFFFFFFFFFFFFFFFFFFFFFFFFFFFFFFFFFFFFFFFFFFFFFFFFFFFFFFFFFFFF SWAP9 ADD PUSH2 0x40D5 JUMP JUMPDEST POP PUSH2 0x2410 PUSH1 0x60 DUP3 ADD PUSH2 0x40D5 JUMP JUMPDEST POP PUSH2 0x241D PUSH1 0x80 DUP3 ADD PUSH2 0x40B6 JUMP JUMPDEST POP PUSH2 0x242A PUSH1 0xA0 DUP3 ADD PUSH2 0x40B6 JUMP JUMPDEST POP ADD PUSH2 0x40E4 JUMP JUMPDEST POP SWAP4 POP POP POP PUSH2 0x1C5F JUMP JUMPDEST RETURNDATASIZE SWAP2 POP PUSH2 0x2388 JUMP JUMPDEST PUSH1 0x40 MLOAD RETURNDATASIZE DUP15 DUP3 RETURNDATACOPY RETURNDATASIZE SWAP1 REVERT JUMPDEST SWAP1 POP PUSH1 0x20 DUP2 RETURNDATASIZE PUSH1 0x20 GT PUSH2 0x2498 JUMPI JUMPDEST DUP2 PUSH2 0x2469 PUSH1 0x20 SWAP4 DUP4 PUSH2 0x2B1E JUMP JUMPDEST DUP2 ADD SUB SLT PUSH2 0x1754 JUMPI PUSH1 0xE0 PUSH2 0x2491 PUSH20 0xFFFFFFFFFFFFFFFFFFFFFFFFFFFFFFFFFFFFFFFF SWAP3 PUSH2 0x2CF1 JUMP JUMPDEST SWAP2 POP PUSH2 0x1C09 JUMP JUMPDEST RETURNDATASIZE SWAP2 POP PUSH2 0x245C JUMP JUMPDEST PUSH1 0x1 SWAP1 PUSH2 0x1BCC JUMP JUMPDEST POP PUSH1 0x20 DUP2 RETURNDATASIZE PUSH1 0x20 GT PUSH2 0x24DB JUMPI JUMPDEST DUP2 PUSH2 0x24C2 PUSH1 0x20 SWAP4 DUP4 PUSH2 0x2B1E JUMP JUMPDEST DUP2 ADD SUB SLT PUSH2 0x721 JUMPI PUSH2 0x24D6 PUSH2 0x1BAE SWAP2 PUSH2 0x40B6 JUMP JUMPDEST PUSH2 0x1BA4 JUMP JUMPDEST RETURNDATASIZE SWAP2 POP PUSH2 0x24B5 JUMP JUMPDEST POP PUSH1 0x20 DUP2 RETURNDATASIZE PUSH1 0x20 GT PUSH2 0x2516 JUMPI JUMPDEST DUP2 PUSH2 0x24FD PUSH1 0x20 SWAP4 DUP4 PUSH2 0x2B1E JUMP JUMPDEST DUP2 ADD SUB SLT PUSH2 0x725 JUMPI PUSH2 0x2511 PUSH2 0x1B52 SWAP2 PUSH2 0x40B6 JUMP JUMPDEST PUSH2 0x1B48 JUMP JUMPDEST RETURNDATASIZE SWAP2 POP PUSH2 0x24F0 JUMP JUMPDEST SWAP1 SWAP2 PUSH32 0x0 SWAP1 PUSH20 0xFFFFFFFFFFFFFFFFFFFFFFFFFFFFFFFFFFFFFFFF DUP3 AND DUP10 DUP6 DUP13 DUP6 DUP5 PUSH20 0xFFFFFFFFFFFFFFFFFFFFFFFFFFFFFFFFFFFFFFFF DUP4 AND SUB PUSH2 0x25BF JUMPI JUMPDEST POP POP POP POP PUSH20 0xFFFFFFFFFFFFFFFFFFFFFFFFFFFFFFFFFFFFFFFF DUP5 AND SUB PUSH2 0x25A6 JUMPI JUMPDEST POP POP POP POP POP PUSH2 0x1E54 JUMP JUMPDEST PUSH2 0x22A1 PUSH1 0x1 PUSH2 0x25B4 SWAP7 PUSH2 0x2D40 JUMP JUMPDEST POP CODESIZE DUP1 DUP8 DUP2 DUP1 PUSH2 0x259C JUMP JUMPDEST PUSH2 0x22C0 PUSH2 0x25CC SWAP5 DUP12 PUSH2 0x2D40 JUMP JUMPDEST POP DUP10 DUP6 DUP13 DUP6 PUSH2 0x257B JUMP JUMPDEST SWAP2 POP POP PUSH2 0x25E8 JUMPI DUP9 PUSH1 0x6 DUP4 EQ CODESIZE PUSH2 0x1AEF JUMP JUMPDEST PUSH1 0x24 DUP8 PUSH32 0x4E487B7100000000000000000000000000000000000000000000000000000000 DUP2 MSTORE PUSH1 0x21 PUSH1 0x4 MSTORE REVERT JUMPDEST POP POP PUSH1 0x1 DUP4 EQ DUP9 PUSH2 0x1AE8 JUMP JUMPDEST SWAP1 SWAP10 POP PUSH1 0x20 DUP2 RETURNDATASIZE PUSH1 0x20 GT PUSH2 0x2659 JUMPI JUMPDEST DUP2 PUSH2 0x263D PUSH1 0x20 SWAP4 DUP4 PUSH2 0x2B1E JUMP JUMPDEST DUP2 ADD SUB SLT PUSH2 0x2655 JUMPI PUSH2 0x264E SWAP1 PUSH2 0x2CF1 JUMP JUMPDEST SWAP9 CODESIZE PUSH2 0x1ADA JUMP JUMPDEST DUP7 DUP1 REVERT JUMPDEST RETURNDATASIZE SWAP2 POP PUSH2 0x2630 JUMP JUMPDEST SWAP1 SWAP8 POP PUSH1 0x20 DUP2 RETURNDATASIZE PUSH1 0x20 GT PUSH2 0x2695 JUMPI JUMPDEST DUP2 PUSH2 0x267D PUSH1 0x20 SWAP4 DUP4 PUSH2 0x2B1E JUMP JUMPDEST DUP2 ADD SUB SLT PUSH2 0x729 JUMPI PUSH2 0x268E SWAP1 PUSH2 0x2CF1 JUMP JUMPDEST SWAP7 CODESIZE PUSH2 0x1A9B JUMP JUMPDEST RETURNDATASIZE SWAP2 POP PUSH2 0x2670 JUMP JUMPDEST PUSH1 0x40 MLOAD RETURNDATASIZE DUP9 DUP3 RETURNDATACOPY RETURNDATASIZE SWAP1 REVERT JUMPDEST SWAP1 SWAP6 POP PUSH1 0x20 DUP2 RETURNDATASIZE PUSH1 0x20 GT PUSH2 0x26DC JUMPI JUMPDEST DUP2 PUSH2 0x26C4 PUSH1 0x20 SWAP4 DUP4 PUSH2 0x2B1E JUMP JUMPDEST DUP2 ADD SUB SLT PUSH2 0xF6B JUMPI PUSH2 0x26D5 SWAP1 PUSH2 0x2CF1 JUMP JUMPDEST SWAP5 CODESIZE PUSH2 0x1A5C JUMP JUMPDEST RETURNDATASIZE SWAP2 POP PUSH2 0x26B7 JUMP JUMPDEST PUSH1 0x24 DUP5 PUSH32 0x4E487B7100000000000000000000000000000000000000000000000000000000 DUP2 MSTORE PUSH1 0x21 PUSH1 0x4 MSTORE REVERT JUMPDEST POP DUP1 REVERT JUMPDEST POP CALLVALUE PUSH2 0x72D JUMPI DUP1 PUSH32 0xFFFFFFFFFFFFFFFFFFFFFFFFFFFFFFFFFFFFFFFFFFFFFFFFFFFFFFFFFFFFFFFC CALLDATASIZE ADD SLT PUSH2 0x72D JUMPI PUSH1 0x20 PUSH1 0x40 MLOAD PUSH20 0xDEF171FE48CF0115B1D80B88DC8EAB59176FEE57 DUP2 MSTORE RETURN JUMPDEST POP CALLVALUE PUSH2 0x72D JUMPI DUP1 PUSH32 0xFFFFFFFFFFFFFFFFFFFFFFFFFFFFFFFFFFFFFFFFFFFFFFFFFFFFFFFFFFFFFFFC CALLDATASIZE ADD SLT PUSH2 0x72D JUMPI PUSH1 0x20 PUSH1 0x40 MLOAD PUSH20 0x6352A56CAADC4F1E25CD6C75970FA768A3304E64 DUP2 MSTORE RETURN JUMPDEST POP CALLVALUE PUSH2 0x72D JUMPI DUP1 PUSH32 0xFFFFFFFFFFFFFFFFFFFFFFFFFFFFFFFFFFFFFFFFFFFFFFFFFFFFFFFFFFFFFFFC CALLDATASIZE ADD SLT PUSH2 0x72D JUMPI PUSH1 0x20 PUSH1 0x40 MLOAD PUSH15 0x22D473030F116DDEE9F6B43AC78BA3 DUP2 MSTORE RETURN JUMPDEST POP CALLVALUE PUSH2 0x72D JUMPI DUP1 PUSH32 0xFFFFFFFFFFFFFFFFFFFFFFFFFFFFFFFFFFFFFFFFFFFFFFFFFFFFFFFFFFFFFFFC CALLDATASIZE ADD SLT PUSH2 0x72D JUMPI PUSH1 0x20 PUSH1 0x40 MLOAD PUSH20 0xE592427A0AECE92DE3EDEE1F18E0157C05861564 DUP2 MSTORE RETURN JUMPDEST POP CALLVALUE PUSH2 0x72D JUMPI DUP1 PUSH32 0xFFFFFFFFFFFFFFFFFFFFFFFFFFFFFFFFFFFFFFFFFFFFFFFFFFFFFFFFFFFFFFFC CALLDATASIZE ADD SLT PUSH2 0x72D JUMPI PUSH1 0x20 PUSH1 0x40 MLOAD PUSH20 0xDEF1C0DED9BEC7F1A1670819833240F027B25EFF DUP2 MSTORE RETURN JUMPDEST POP CALLVALUE PUSH2 0x72D JUMPI PUSH1 0x20 PUSH32 0xFFFFFFFFFFFFFFFFFFFFFFFFFFFFFFFFFFFFFFFFFFFFFFFFFFFFFFFFFFFFFFFC CALLDATASIZE ADD SLT PUSH2 0x72D JUMPI PUSH1 0x4 CALLDATALOAD PUSH20 0xFFFFFFFFFFFFFFFFFFFFFFFFFFFFFFFFFFFFFFFF DUP1 DUP3 AND DUP3 SUB PUSH2 0xF81 JUMPI PUSH1 0x40 MLOAD SWAP1 PUSH32 0xF851A44000000000000000000000000000000000000000000000000000000000 DUP3 MSTORE PUSH1 0x20 DUP3 PUSH1 0x4 DUP2 DUP5 PUSH32 0x0 AND GAS STATICCALL SWAP2 DUP3 ISZERO PUSH2 0xBB3 JUMPI DUP5 SWAP3 PUSH2 0x296F JUMPI JUMPDEST POP DUP2 AND CALLER SUB PUSH2 0xEDE JUMPI PUSH2 0x2955 ADDRESS DUP4 PUSH2 0x43B1 JUMP JUMPDEST SWAP1 DUP2 PUSH2 0x295F JUMPI DUP4 DUP1 RETURN JUMPDEST PUSH2 0x2968 SWAP3 PUSH2 0x4368 JUMP JUMPDEST CODESIZE DUP1 DUP1 DUP4 DUP1 RETURN JUMPDEST SWAP1 SWAP2 POP PUSH1 0x20 DUP2 RETURNDATASIZE DUP3 GT PUSH2 0x29A2 JUMPI JUMPDEST DUP2 PUSH2 0x298A PUSH1 0x20 SWAP4 DUP4 PUSH2 0x2B1E JUMP JUMPDEST DUP2 ADD SUB SLT PUSH2 0x169B JUMPI PUSH2 0x299B SWAP1 PUSH2 0x2CF1 JUMP JUMPDEST SWAP1 CODESIZE PUSH2 0x2942 JUMP JUMPDEST RETURNDATASIZE SWAP2 POP PUSH2 0x297D JUMP JUMPDEST DUP3 CALLVALUE PUSH2 0x72D JUMPI DUP1 PUSH32 0xFFFFFFFFFFFFFFFFFFFFFFFFFFFFFFFFFFFFFFFFFFFFFFFFFFFFFFFFFFFFFFFC CALLDATASIZE ADD SLT PUSH2 0x72D JUMPI DUP1 PUSH1 0x4 SLOAD PUSH2 0x29E6 DUP2 PUSH2 0x2ACB JUMP JUMPDEST DUP1 DUP6 MSTORE SWAP2 PUSH1 0x1 SWAP2 DUP1 DUP4 AND SWAP1 DUP2 ISZERO PUSH2 0x2A83 JUMPI POP PUSH1 0x1 EQ PUSH2 0x2A28 JUMPI JUMPDEST PUSH2 0x2A24 DUP6 PUSH2 0x2A10 DUP2 DUP8 SUB DUP3 PUSH2 0x2B1E JUMP JUMPDEST PUSH1 0x40 MLOAD SWAP2 DUP3 SWAP2 PUSH1 0x20 DUP4 MSTORE PUSH1 0x20 DUP4 ADD SWAP1 PUSH2 0x2BB1 JUMP JUMPDEST SUB SWAP1 RETURN JUMPDEST SWAP3 POP PUSH1 0x4 DUP4 MSTORE PUSH32 0x8A35ACFBC15FF81A39AE7D344FD709F28E8600B4AA8C65C6B64BFE7FE36BD19B JUMPDEST DUP3 DUP5 LT PUSH2 0x2A6B JUMPI POP POP POP DUP2 ADD PUSH1 0x20 ADD PUSH2 0x2A10 DUP3 PUSH2 0x2A24 PUSH2 0x2A00 JUMP JUMPDEST DUP1 SLOAD PUSH1 0x20 DUP6 DUP8 ADD DUP2 ADD SWAP2 SWAP1 SWAP2 MSTORE SWAP1 SWAP4 ADD SWAP3 DUP2 ADD PUSH2 0x2A50 JUMP JUMPDEST DUP7 SWAP6 POP PUSH2 0x2A24 SWAP7 SWAP4 POP PUSH1 0x20 SWAP3 POP PUSH2 0x2A10 SWAP5 SWAP2 POP PUSH32 0xFFFFFFFFFFFFFFFFFFFFFFFFFFFFFFFFFFFFFFFFFFFFFFFFFFFFFFFFFFFFFF00 AND DUP3 DUP5 ADD MSTORE ISZERO ISZERO PUSH1 0x5 SHL DUP3 ADD ADD SWAP3 SWAP4 PUSH2 0x2A00 JUMP JUMPDEST SWAP1 PUSH1 0x1 DUP3 DUP2 SHR SWAP3 AND DUP1 ISZERO PUSH2 0x2B14 JUMPI JUMPDEST PUSH1 0x20 DUP4 LT EQ PUSH2 0x2AE5 JUMPI JUMP JUMPDEST PUSH32 0x4E487B7100000000000000000000000000000000000000000000000000000000 PUSH1 0x0 MSTORE PUSH1 0x22 PUSH1 0x4 MSTORE PUSH1 0x24 PUSH1 0x0 REVERT JUMPDEST SWAP2 PUSH1 0x7F AND SWAP2 PUSH2 0x2ADA JUMP JUMPDEST SWAP1 PUSH1 0x1F PUSH32 0xFFFFFFFFFFFFFFFFFFFFFFFFFFFFFFFFFFFFFFFFFFFFFFFFFFFFFFFFFFFFFFE0 SWAP2 ADD AND DUP2 ADD SWAP1 DUP2 LT PUSH8 0xFFFFFFFFFFFFFFFF DUP3 GT OR PUSH2 0x2B5F JUMPI PUSH1 0x40 MSTORE JUMP JUMPDEST PUSH32 0x4E487B7100000000000000000000000000000000000000000000000000000000 PUSH1 0x0 MSTORE PUSH1 0x41 PUSH1 0x4 MSTORE PUSH1 0x24 PUSH1 0x0 REVERT JUMPDEST PUSH1 0x0 JUMPDEST DUP4 DUP2 LT PUSH2 0x2BA1 JUMPI POP POP PUSH1 0x0 SWAP2 ADD MSTORE JUMP JUMPDEST DUP2 DUP2 ADD MLOAD DUP4 DUP3 ADD MSTORE PUSH1 0x20 ADD PUSH2 0x2B91 JUMP JUMPDEST SWAP1 PUSH32 0xFFFFFFFFFFFFFFFFFFFFFFFFFFFFFFFFFFFFFFFFFFFFFFFFFFFFFFFFFFFFFFE0 PUSH1 0x1F PUSH1 0x20 SWAP4 PUSH2 0x2BED DUP2 MLOAD DUP1 SWAP3 DUP2 DUP8 MSTORE DUP8 DUP1 DUP9 ADD SWAP2 ADD PUSH2 0x2B8E JUMP JUMPDEST ADD AND ADD ADD SWAP1 JUMP JUMPDEST CALLDATALOAD SWAP1 PUSH20 0xFFFFFFFFFFFFFFFFFFFFFFFFFFFFFFFFFFFFFFFF DUP3 AND DUP3 SUB PUSH2 0x632 JUMPI JUMP JUMPDEST SWAP2 DUP2 PUSH1 0x1F DUP5 ADD SLT ISZERO PUSH2 0x632 JUMPI DUP3 CALLDATALOAD SWAP2 PUSH8 0xFFFFFFFFFFFFFFFF DUP4 GT PUSH2 0x632 JUMPI PUSH1 0x20 DUP4 DUP2 DUP7 ADD SWAP6 ADD ADD GT PUSH2 0x632 JUMPI JUMP JUMPDEST SWAP2 PUSH1 0x60 DUP4 DUP4 SUB SLT PUSH2 0x632 JUMPI PUSH2 0x2C57 DUP4 PUSH2 0x2BF4 JUMP JUMPDEST SWAP3 PUSH1 0x20 DUP2 ADD CALLDATALOAD SWAP3 PUSH1 0x40 DUP3 ADD CALLDATALOAD PUSH8 0xFFFFFFFFFFFFFFFF DUP2 GT PUSH2 0x632 JUMPI PUSH2 0x2C7C SWAP3 ADD PUSH2 0x2C15 JUMP JUMPDEST SWAP1 SWAP2 JUMP JUMPDEST PUSH8 0xFFFFFFFFFFFFFFFF DUP2 GT PUSH2 0x2B5F JUMPI PUSH1 0x1F ADD PUSH32 0xFFFFFFFFFFFFFFFFFFFFFFFFFFFFFFFFFFFFFFFFFFFFFFFFFFFFFFFFFFFFFFE0 AND PUSH1 0x20 ADD SWAP1 JUMP JUMPDEST SWAP3 SWAP2 SWAP3 PUSH2 0x2CC6 DUP3 PUSH2 0x2C80 JUMP JUMPDEST SWAP2 PUSH2 0x2CD4 PUSH1 0x40 MLOAD SWAP4 DUP5 PUSH2 0x2B1E JUMP JUMPDEST DUP3 SWAP5 DUP2 DUP5 MSTORE DUP2 DUP4 ADD GT PUSH2 0x632 JUMPI DUP3 DUP2 PUSH1 0x20 SWAP4 DUP5 PUSH1 0x0 SWAP7 ADD CALLDATACOPY ADD ADD MSTORE JUMP JUMPDEST MLOAD SWAP1 PUSH20 0xFFFFFFFFFFFFFFFFFFFFFFFFFFFFFFFFFFFFFFFF DUP3 AND DUP3 SUB PUSH2 0x632 JUMPI JUMP JUMPDEST SWAP2 SWAP1 DUP3 PUSH1 0x40 SWAP2 SUB SLT PUSH2 0x632 JUMPI PUSH1 0x20 DUP3 MLOAD SWAP3 ADD MLOAD SWAP1 JUMP JUMPDEST PUSH8 0xFFFFFFFFFFFFFFFF DUP2 GT PUSH2 0x2B5F JUMPI PUSH1 0x5 SHL PUSH1 0x20 ADD SWAP1 JUMP JUMPDEST DUP1 MLOAD DUP3 LT ISZERO PUSH2 0x2D54 JUMPI PUSH1 0x20 SWAP2 PUSH1 0x5 SHL ADD ADD SWAP1 JUMP JUMPDEST PUSH32 0x4E487B7100000000000000000000000000000000000000000000000000000000 PUSH1 0x0 MSTORE PUSH1 0x32 PUSH1 0x4 MSTORE PUSH1 0x24 PUSH1 0x0 REVERT JUMPDEST SWAP2 SWAP1 DUP3 SUB SWAP2 DUP3 GT PUSH2 0x2D90 JUMPI JUMP JUMPDEST PUSH32 0x4E487B7100000000000000000000000000000000000000000000000000000000 PUSH1 0x0 MSTORE PUSH1 0x11 PUSH1 0x4 MSTORE PUSH1 0x24 PUSH1 0x0 REVERT JUMPDEST DUP2 PUSH1 0x1F DUP3 ADD SLT ISZERO PUSH2 0x632 JUMPI DUP1 CALLDATALOAD SWAP1 PUSH2 0x2DD6 DUP3 PUSH2 0x2D28 JUMP JUMPDEST SWAP3 PUSH1 0x40 SWAP3 PUSH2 0x2DE6 DUP5 MLOAD SWAP6 DUP7 PUSH2 0x2B1E JUMP JUMPDEST DUP1 DUP6 MSTORE PUSH1 0x20 SWAP4 DUP5 DUP1 DUP8 ADD SWAP3 PUSH1 0x5 SHL DUP6 ADD ADD SWAP4 DUP4 DUP6 GT PUSH2 0x632 JUMPI DUP6 DUP2 ADD SWAP3 JUMPDEST DUP6 DUP5 LT PUSH2 0x2E15 JUMPI POP POP POP POP POP POP POP SWAP1 JUMP JUMPDEST DUP4 CALLDATALOAD PUSH8 0xFFFFFFFFFFFFFFFF DUP2 GT PUSH2 0x632 JUMPI DUP3 ADD DUP6 PUSH1 0x3F DUP3 ADD SLT ISZERO PUSH2 0x632 JUMPI DUP8 SWAP2 PUSH2 0x2E47 DUP8 DUP4 DUP8 DUP7 DUP1 SWAP7 ADD CALLDATALOAD SWAP2 ADD PUSH2 0x2CBA JUMP JUMPDEST DUP2 MSTORE ADD SWAP4 ADD SWAP3 PUSH2 0x2E04 JUMP JUMPDEST PUSH20 0xFFFFFFFFFFFFFFFFFFFFFFFFFFFFFFFFFFFFFFFF PUSH32 0x0 AND ADDRESS EQ PUSH2 0x2E91 JUMPI JUMP JUMPDEST PUSH1 0x4 PUSH1 0x40 MLOAD PUSH32 0xC97BBBAE00000000000000000000000000000000000000000000000000000000 DUP2 MSTORE REVERT JUMPDEST PUSH1 0x0 SWAP2 JUMPDEST PUSH1 0x4 DUP4 LT PUSH2 0x2ECC JUMPI POP POP POP JUMP JUMPDEST PUSH1 0x1 SWAP1 DUP3 MLOAD DUP2 MSTORE PUSH1 0x20 DUP1 SWAP2 ADD SWAP3 ADD SWAP3 ADD SWAP2 SWAP1 PUSH2 0x2EBF JUMP JUMPDEST SWAP1 DUP2 MSTORE PUSH20 0xFFFFFFFFFFFFFFFFFFFFFFFFFFFFFFFFFFFFFFFF SWAP2 DUP3 AND PUSH1 0x20 DUP3 ADD MSTORE SWAP2 AND PUSH1 0x40 DUP3 ADD MSTORE PUSH1 0xE0 DUP2 ADD SWAP3 SWAP2 PUSH2 0x2F1D SWAP2 PUSH1 0x60 ADD SWAP1 PUSH2 0x2EBB JUMP JUMPDEST JUMP JUMPDEST SWAP2 SWAP1 DUP3 ADD DUP1 SWAP3 GT PUSH2 0x2D90 JUMPI JUMP JUMPDEST SWAP1 SWAP5 SWAP4 SWAP2 SWAP5 PUSH32 0x0 SWAP4 PUSH20 0xFFFFFFFFFFFFFFFFFFFFFFFFFFFFFFFFFFFFFFFF DUP1 DUP7 AND DUP1 DUP3 DUP5 AND EQ SWAP1 DUP2 SWAP3 DUP3 ISZERO PUSH2 0x2FF2 JUMPI JUMPDEST POP POP PUSH2 0x2FB7 JUMPI POP SWAP2 PUSH2 0x22A1 PUSH1 0x1 PUSH2 0x2FA8 PUSH2 0x2FB4 SWAP10 SWAP7 SWAP5 DUP9 PUSH2 0x2FAE SWAP10 SWAP8 PUSH2 0x2FA1 PUSH1 0x0 DUP14 PUSH2 0x2D40 JUMP JUMPDEST MLOAD DUP8 PUSH2 0x2FFE JUMP JUMPDEST SWAP8 PUSH2 0x2D40 JUMP JUMPDEST SWAP1 PUSH2 0x2F1F JUMP JUMPDEST SWAP1 JUMP JUMPDEST SWAP1 PUSH2 0x2FB4 SWAP8 SWAP5 SWAP3 SWAP6 SWAP4 SWAP2 PUSH1 0x0 SWAP1 PUSH1 0x0 EQ PUSH2 0x2FDC JUMPI POP POP PUSH2 0x22A1 PUSH1 0x1 PUSH2 0x2FAE SWAP7 SWAP8 PUSH2 0x2D40 JUMP JUMPDEST PUSH2 0x22A1 SWAP2 SWAP4 POP PUSH2 0x2FED SWAP7 SWAP6 SWAP8 PUSH2 0x2D40 JUMP JUMPDEST PUSH2 0x2F1F JUMP JUMPDEST DUP8 AND EQ SWAP1 POP CODESIZE DUP1 PUSH2 0x2F7A JUMP JUMPDEST SWAP1 SWAP2 SWAP4 SWAP3 PUSH1 0x0 SWAP2 PUSH1 0x7 DUP2 LT ISZERO PUSH2 0x3D95 JUMPI DUP1 PUSH2 0x30F2 JUMPI POP POP PUSH1 0x40 MLOAD PUSH32 0xD2C4B59800000000000000000000000000000000000000000000000000000000 DUP2 MSTORE PUSH1 0x20 SWAP5 PUSH20 0xDEF171FE48CF0115B1D80B88DC8EAB59176FEE57 SWAP3 POP DUP6 DUP3 PUSH1 0x4 DUP2 DUP7 GAS STATICCALL SWAP2 DUP3 ISZERO PUSH2 0x30E6 JUMPI PUSH1 0x0 SWAP3 PUSH2 0x30A0 JUMPI JUMPDEST POP PUSH1 0x0 SWAP5 DUP6 SWAP5 SWAP4 SWAP3 PUSH2 0x307D SWAP3 PUSH2 0x3DF4 JUMP JUMPDEST DUP5 DUP3 MLOAD SWAP3 ADD SWAP1 CALLVALUE SWAP1 GAS CALL PUSH2 0x308F PUSH2 0x3DC4 JUMP JUMPDEST SWAP1 ISZERO PUSH2 0x309A JUMPI ADD MLOAD SWAP1 JUMP JUMPDEST DUP1 MLOAD SWAP2 ADD REVERT JUMPDEST SWAP1 SWAP4 SWAP3 SWAP2 POP DUP6 DUP2 DUP2 RETURNDATASIZE DUP4 GT PUSH2 0x30DF JUMPI JUMPDEST PUSH2 0x30BA DUP2 DUP4 PUSH2 0x2B1E JUMP JUMPDEST DUP2 ADD SUB SLT PUSH2 0x632 JUMPI PUSH1 0x0 SWAP5 DUP6 SWAP5 PUSH2 0x30D3 PUSH2 0x307D SWAP4 PUSH2 0x2CF1 JUMP JUMPDEST SWAP4 SWAP5 SWAP6 POP SWAP2 POP SWAP5 PUSH2 0x306C JUMP JUMPDEST POP RETURNDATASIZE PUSH2 0x30B0 JUMP JUMPDEST PUSH1 0x40 MLOAD RETURNDATASIZE PUSH1 0x0 DUP3 RETURNDATACOPY RETURNDATASIZE SWAP1 REVERT JUMPDEST SWAP4 SWAP5 SWAP3 SWAP4 PUSH1 0x1 DUP2 SUB PUSH2 0x334A JUMPI POP POP POP SWAP1 DUP1 MLOAD DUP2 ADD DUP2 PUSH1 0x20 DUP3 ADD SWAP2 SUB SWAP4 PUSH2 0x140 DUP6 SLT PUSH2 0x632 JUMPI PUSH1 0xE0 PUSH32 0xFFFFFFFFFFFFFFFFFFFFFFFFFFFFFFFFFFFFFFFFFFFFFFFFFFFFFFFFFFFFFFE0 PUSH2 0x3146 PUSH1 0x20 DUP7 ADD PUSH2 0x2CF1 JUMP JUMPDEST SWAP7 ADD SLT PUSH2 0x632 JUMPI PUSH1 0x40 SWAP5 DUP6 MLOAD SWAP5 PUSH2 0x315E PUSH1 0xE0 DUP8 PUSH2 0x2B1E JUMP JUMPDEST PUSH2 0x3169 DUP8 DUP7 ADD PUSH2 0x2CF1 JUMP JUMPDEST DUP7 MSTORE PUSH2 0x3177 PUSH1 0x60 DUP7 ADD PUSH2 0x2CF1 JUMP JUMPDEST SWAP1 PUSH1 0x20 DUP8 ADD SWAP2 DUP3 MSTORE PUSH2 0x318B PUSH1 0x80 DUP8 ADD PUSH2 0x2CF1 JUMP JUMPDEST SWAP5 DUP9 DUP9 ADD SWAP6 DUP7 MSTORE PUSH2 0x319E PUSH1 0xA0 DUP9 ADD PUSH2 0x2CF1 JUMP JUMPDEST SWAP8 PUSH1 0x60 DUP2 ADD SWAP9 DUP10 MSTORE PUSH1 0xC0 DUP9 ADD MLOAD PUSH1 0x80 DUP3 ADD SWAP1 DUP2 MSTORE PUSH1 0xE0 DUP10 ADD MLOAD SWAP1 PUSH1 0xA0 DUP4 ADD SWAP2 DUP3 MSTORE PUSH2 0x100 DUP11 ADD MLOAD SWAP3 PUSH1 0xC0 DUP2 ADD SWAP4 DUP5 MSTORE PUSH2 0x120 DUP12 ADD MLOAD PUSH8 0xFFFFFFFFFFFFFFFF SWAP1 DUP2 DUP2 GT PUSH2 0x632 JUMPI DUP7 PUSH1 0x20 PUSH2 0x31F3 SWAP3 DUP16 ADD ADD PUSH2 0x3EFF JUMP JUMPDEST SWAP6 PUSH2 0x140 DUP14 ADD MLOAD SWAP2 DUP3 GT PUSH2 0x632 JUMPI DUP15 SWAP13 PUSH2 0x3210 SWAP3 ADD PUSH1 0x20 ADD PUSH2 0x3EFF JUMP JUMPDEST SWAP6 DUP10 DUP4 MLOAD SUB PUSH2 0x3342 JUMPI JUMPDEST PUSH20 0x1111111254EEB25477B68FB85ED929F73A960582 SWAP10 DUP11 PUSH2 0x323A SWAP3 PUSH2 0x3DF4 JUMP JUMPDEST DUP11 MLOAD SWAP12 DUP13 DUP1 SWAP12 DUP2 SWAP11 DUP3 SWAP11 PUSH32 0x12AA3CAF00000000000000000000000000000000000000000000000000000000 DUP5 MSTORE PUSH20 0xFFFFFFFFFFFFFFFFFFFFFFFFFFFFFFFFFFFFFFFF DUP1 SWAP7 DUP2 SWAP6 DUP3 DUP1 SWAP6 AND SWAP1 PUSH1 0x4 ADD MSTORE MLOAD AND PUSH1 0x24 DUP14 ADD MSTORE MLOAD AND PUSH1 0x44 DUP12 ADD MSTORE MLOAD AND PUSH1 0x64 DUP10 ADD MSTORE MLOAD AND PUSH1 0x84 DUP8 ADD MSTORE MLOAD PUSH1 0xA4 DUP7 ADD MSTORE MLOAD PUSH1 0xC4 DUP6 ADD MSTORE MLOAD PUSH1 0xE4 DUP5 ADD MSTORE PUSH2 0x104 DUP4 ADD PUSH2 0x140 SWAP1 MSTORE PUSH2 0x144 DUP4 ADD PUSH2 0x32CF SWAP2 PUSH2 0x2BB1 JUMP JUMPDEST DUP3 DUP2 SUB PUSH32 0xFFFFFFFFFFFFFFFFFFFFFFFFFFFFFFFFFFFFFFFFFFFFFFFFFFFFFFFFFFFFFFFC ADD PUSH2 0x124 DUP5 ADD MSTORE PUSH2 0x3303 SWAP2 PUSH2 0x2BB1 JUMP JUMPDEST SUB SWAP2 GAS SWAP1 PUSH1 0x0 SWAP2 CALL SWAP2 DUP3 ISZERO PUSH2 0x3338 JUMPI PUSH1 0x0 SWAP3 PUSH2 0x331E JUMPI POP POP SWAP1 JUMP JUMPDEST PUSH2 0x3334 SWAP3 POP DUP1 RETURNDATASIZE LT PUSH2 0x5FE JUMPI PUSH2 0x5EF DUP2 DUP4 PUSH2 0x2B1E JUMP JUMPDEST POP SWAP1 JUMP JUMPDEST MLOAD RETURNDATASIZE PUSH1 0x0 DUP3 RETURNDATACOPY RETURNDATASIZE SWAP1 REVERT JUMPDEST DUP10 DUP4 MSTORE PUSH2 0x321A JUMP JUMPDEST PUSH1 0x2 DUP2 SUB PUSH2 0x33A3 JUMPI POP POP POP SWAP1 PUSH1 0x0 SWAP3 SWAP2 PUSH2 0x337B DUP5 SWAP4 PUSH20 0x1111111254EEB25477B68FB85ED929F73A960582 DUP1 SWAP4 PUSH2 0x3DF4 JUMP JUMPDEST PUSH1 0x20 DUP3 MLOAD SWAP3 ADD SWAP1 CALLVALUE SWAP1 GAS CALL PUSH2 0x338E PUSH2 0x3DC4 JUMP JUMPDEST SWAP1 ISZERO PUSH2 0x339B JUMPI PUSH1 0x20 ADD MLOAD SWAP1 JUMP JUMPDEST PUSH1 0x20 DUP2 MLOAD SWAP2 ADD REVERT JUMPDEST PUSH1 0x3 DUP2 SUB PUSH2 0x33D4 JUMPI POP POP POP SWAP1 PUSH1 0x0 SWAP3 SWAP2 PUSH2 0x337B DUP5 SWAP4 PUSH20 0xDEF1C0DED9BEC7F1A1670819833240F027B25EFF DUP1 SWAP4 PUSH2 0x3DF4 JUMP JUMPDEST PUSH1 0x4 DUP2 SUB PUSH2 0x384D JUMPI POP POP POP DUP2 MLOAD DUP3 ADD SWAP1 PUSH1 0x60 DUP4 DUP4 SUB SLT PUSH2 0x632 JUMPI PUSH2 0x33FA PUSH1 0x20 DUP5 ADD PUSH2 0x2CF1 JUMP JUMPDEST PUSH1 0x40 DUP5 ADD MLOAD SWAP5 PUSH8 0xFFFFFFFFFFFFFFFF DUP7 GT PUSH2 0x632 JUMPI PUSH2 0x140 DUP7 DUP7 ADD DUP6 SUB SLT PUSH2 0x632 JUMPI PUSH1 0x40 MLOAD SWAP3 PUSH2 0x342C PUSH2 0x140 DUP6 PUSH2 0x2B1E JUMP JUMPDEST PUSH2 0x343A PUSH1 0x20 DUP9 DUP9 ADD ADD PUSH2 0x2CF1 JUMP JUMPDEST DUP5 MSTORE PUSH2 0x344A PUSH1 0x40 DUP9 DUP9 ADD ADD PUSH2 0x2CF1 JUMP JUMPDEST PUSH1 0x20 DUP6 ADD MSTORE PUSH2 0x345D PUSH1 0x60 DUP9 DUP9 ADD ADD PUSH2 0x2CF1 JUMP JUMPDEST PUSH1 0x40 DUP6 ADD MSTORE PUSH2 0x3470 PUSH1 0x80 DUP9 DUP9 ADD ADD PUSH2 0x2CF1 JUMP JUMPDEST PUSH1 0x60 DUP6 ADD MSTORE PUSH1 0xA0 DUP8 DUP8 ADD ADD MLOAD PUSH1 0x80 DUP6 ADD MSTORE PUSH1 0xC0 DUP8 DUP8 ADD ADD MLOAD PUSH1 0xA0 DUP6 ADD MSTORE PUSH1 0xE0 DUP8 DUP8 ADD ADD MLOAD PUSH1 0xC0 DUP6 ADD MSTORE PUSH2 0x100 SWAP7 DUP8 DUP2 DUP9 ADD ADD MLOAD PUSH1 0xE0 DUP7 ADD MSTORE PUSH2 0x34B7 PUSH2 0x120 DUP3 DUP10 ADD ADD PUSH2 0x2CF1 JUMP JUMPDEST DUP9 DUP7 ADD MSTORE PUSH2 0x140 DUP2 DUP9 ADD ADD MLOAD SWAP1 PUSH8 0xFFFFFFFFFFFFFFFF DUP3 GT PUSH2 0x632 JUMPI PUSH1 0x20 PUSH2 0x34E6 SWAP3 DUP2 DUP10 ADD SWAP3 DUP11 ADD ADD ADD PUSH2 0x3EFF JUMP JUMPDEST PUSH2 0x120 DUP6 ADD MSTORE PUSH1 0x60 DUP7 ADD MLOAD SWAP5 PUSH8 0xFFFFFFFFFFFFFFFF DUP7 GT PUSH2 0x632 JUMPI PUSH1 0x20 DUP2 ADD PUSH1 0x3F DUP8 DUP10 ADD ADD SLT ISZERO PUSH2 0x632 JUMPI PUSH1 0x20 DUP7 DUP9 ADD ADD MLOAD PUSH2 0x3521 DUP2 PUSH2 0x2D28 JUMP JUMPDEST SWAP7 PUSH2 0x352F PUSH1 0x40 MLOAD SWAP9 DUP10 PUSH2 0x2B1E JUMP JUMPDEST DUP2 DUP9 MSTORE PUSH1 0x20 DUP9 ADD DUP1 SWAP10 PUSH1 0x20 DUP6 ADD PUSH1 0x40 DUP6 PUSH1 0x5 SHL DUP6 DUP5 ADD ADD ADD GT PUSH2 0x632 JUMPI PUSH1 0x40 DUP4 DUP3 ADD ADD SWAP2 JUMPDEST PUSH1 0x40 DUP6 PUSH1 0x5 SHL DUP6 DUP5 ADD ADD ADD DUP4 LT PUSH2 0x379A JUMPI POP POP POP POP POP POP SWAP2 PUSH2 0x35A6 DUP3 PUSH20 0x6352A56CAADC4F1E25CD6C75970FA768A3304E64 PUSH2 0x120 SWAP6 DUP8 SWAP6 PUSH1 0x80 PUSH2 0x366B SWAP10 ADD MLOAD SUB PUSH2 0x378F JUMPI JUMPDEST SWAP10 SWAP9 SWAP8 SWAP7 SWAP6 SWAP5 SWAP4 SWAP10 PUSH2 0x3DF4 JUMP JUMPDEST PUSH1 0x40 MLOAD SWAP7 DUP8 SWAP7 PUSH32 0x90411A3200000000000000000000000000000000000000000000000000000000 DUP9 MSTORE PUSH20 0xFFFFFFFFFFFFFFFFFFFFFFFFFFFFFFFFFFFFFFFF DUP1 SWAP3 AND PUSH1 0x4 DUP10 ADD MSTORE PUSH1 0x60 PUSH1 0x24 DUP10 ADD MSTORE DUP2 DUP4 MLOAD AND PUSH1 0x64 DUP10 ADD MSTORE DUP2 PUSH1 0x20 DUP5 ADD MLOAD AND PUSH1 0x84 DUP10 ADD MSTORE DUP2 PUSH1 0x40 DUP5 ADD MLOAD AND PUSH1 0xA4 DUP10 ADD MSTORE DUP2 PUSH1 0x60 DUP5 ADD MLOAD AND PUSH1 0xC4 DUP10 ADD MSTORE PUSH1 0x80 DUP4 ADD MLOAD PUSH1 0xE4 DUP10 ADD MSTORE PUSH1 0xA0 DUP4 ADD MLOAD PUSH2 0x104 DUP10 ADD MSTORE PUSH1 0xC0 DUP4 ADD MLOAD PUSH2 0x124 DUP10 ADD MSTORE PUSH1 0xE0 DUP4 ADD MLOAD PUSH2 0x144 DUP10 ADD MSTORE DUP3 ADD MLOAD AND PUSH2 0x164 DUP8 ADD MSTORE ADD MLOAD PUSH2 0x140 PUSH2 0x184 DUP7 ADD MSTORE PUSH2 0x1A4 DUP6 ADD SWAP1 PUSH2 0x2BB1 JUMP JUMPDEST SWAP1 PUSH32 0xFFFFFFFFFFFFFFFFFFFFFFFFFFFFFFFFFFFFFFFFFFFFFFFFFFFFFFFFFFFFFFFC DUP5 DUP4 SUB ADD PUSH1 0x44 DUP6 ADD MSTORE MLOAD DUP1 DUP3 MSTORE PUSH1 0x20 DUP3 ADD SWAP2 PUSH1 0x20 DUP3 PUSH1 0x5 SHL DUP3 ADD ADD SWAP4 SWAP3 PUSH1 0x0 SWAP2 JUMPDEST DUP4 DUP4 LT PUSH2 0x371B JUMPI POP POP POP POP POP SWAP1 DUP1 PUSH1 0x20 SWAP3 SUB DUP2 PUSH1 0x0 PUSH20 0x6352A56CAADC4F1E25CD6C75970FA768A3304E64 GAS CALL SWAP1 DUP2 ISZERO PUSH2 0x30E6 JUMPI PUSH1 0x0 SWAP2 PUSH2 0x36EC JUMPI POP SWAP1 JUMP JUMPDEST SWAP1 POP PUSH1 0x20 DUP2 RETURNDATASIZE PUSH1 0x20 GT PUSH2 0x3713 JUMPI JUMPDEST DUP2 PUSH2 0x3707 PUSH1 0x20 SWAP4 DUP4 PUSH2 0x2B1E JUMP JUMPDEST DUP2 ADD SUB SLT PUSH2 0x632 JUMPI MLOAD SWAP1 JUMP JUMPDEST RETURNDATASIZE SWAP2 POP PUSH2 0x36FA JUMP JUMPDEST SWAP2 SWAP4 SWAP6 POP SWAP2 SWAP4 PUSH1 0x20 DUP1 PUSH2 0x377D DUP4 PUSH32 0xFFFFFFFFFFFFFFFFFFFFFFFFFFFFFFFFFFFFFFFFFFFFFFFFFFFFFFFFFFFFFFE0 DUP7 PUSH1 0x1 SWAP7 SUB ADD DUP8 MSTORE PUSH1 0x80 PUSH1 0x60 DUP12 MLOAD DUP1 MLOAD DUP5 MSTORE DUP6 DUP2 ADD MLOAD DUP7 DUP6 ADD MSTORE PUSH1 0x40 DUP2 ADD MLOAD PUSH1 0x40 DUP6 ADD MSTORE ADD MLOAD SWAP2 DUP2 PUSH1 0x60 DUP3 ADD MSTORE ADD SWAP1 PUSH2 0x2BB1 JUMP JUMPDEST SWAP8 ADD SWAP4 ADD SWAP4 ADD SWAP1 SWAP3 DUP7 SWAP6 SWAP5 SWAP3 SWAP4 PUSH2 0x36AE JUMP JUMPDEST DUP3 PUSH1 0x80 DUP8 ADD MSTORE PUSH2 0x3599 JUMP JUMPDEST DUP3 MLOAD SWAP1 PUSH8 0xFFFFFFFFFFFFFFFF DUP3 GT PUSH2 0x632 JUMPI PUSH1 0x80 PUSH32 0xFFFFFFFFFFFFFFFFFFFFFFFFFFFFFFFFFFFFFFFFFFFFFFFFFFFFFFFFFFFFFFE0 DUP4 DUP8 DUP7 ADD ADD DUP10 SUB ADD SLT PUSH2 0x632 JUMPI PUSH1 0x40 MLOAD SWAP2 PUSH2 0x37EB PUSH1 0x80 DUP5 PUSH2 0x2B1E JUMP JUMPDEST DUP4 DUP7 ADD DUP2 ADD PUSH1 0x40 DUP2 DUP2 ADD MLOAD DUP6 MSTORE PUSH1 0x60 DUP3 ADD MLOAD PUSH1 0x20 DUP7 ADD MSTORE PUSH1 0x80 DUP3 ADD MLOAD SWAP1 DUP6 ADD MSTORE PUSH1 0xA0 ADD MLOAD SWAP2 PUSH8 0xFFFFFFFFFFFFFFFF DUP4 GT PUSH2 0x632 JUMPI PUSH1 0x40 SWAP4 PUSH2 0x383B PUSH1 0x20 SWAP5 SWAP4 DUP7 DUP7 SWAP6 DUP7 DUP15 ADD SWAP3 DUP13 DUP12 ADD ADD ADD ADD PUSH2 0x3EFF JUMP JUMPDEST PUSH1 0x60 DUP3 ADD MSTORE DUP2 MSTORE ADD SWAP4 ADD SWAP3 SWAP1 POP PUSH2 0x3554 JUMP JUMPDEST SWAP4 SWAP5 SWAP3 SWAP4 PUSH1 0x5 DUP2 SUB PUSH2 0x3882 JUMPI POP POP POP SWAP2 PUSH1 0x0 SWAP3 SWAP2 PUSH2 0x337B DUP5 SWAP4 PUSH20 0x6352A56CAADC4F1E25CD6C75970FA768A3304E64 DUP1 SWAP4 PUSH2 0x3DF4 JUMP JUMPDEST PUSH1 0x6 SWAP2 SWAP3 SWAP7 SWAP6 POP EQ PUSH2 0x3893 JUMPI POP POP POP JUMP JUMPDEST SWAP1 SWAP2 SWAP3 SWAP4 POP PUSH2 0x38B7 DUP3 PUSH20 0xE592427A0AECE92DE3EDEE1F18E0157C05861564 DUP6 PUSH2 0x3DF4 JUMP JUMPDEST PUSH1 0x0 SWAP1 PUSH1 0x0 PUSH1 0x40 MLOAD SWAP1 PUSH2 0x38CB PUSH1 0x80 DUP4 PUSH2 0x2B1E JUMP JUMPDEST PUSH1 0x64 DUP3 MSTORE PUSH2 0x1F4 PUSH1 0x20 DUP4 ADD MSTORE PUSH2 0xBB8 PUSH1 0x40 DUP4 ADD MSTORE PUSH2 0x2710 PUSH1 0x60 DUP4 ADD MSTORE PUSH1 0x0 JUMPDEST PUSH1 0x4 DUP2 LT PUSH2 0x3A19 JUMPI POP POP POP SWAP1 PUSH20 0xFFFFFFFFFFFFFFFFFFFFFFFFFFFFFFFFFFFFFFFF PUSH3 0xFFFFFF SWAP3 DUP2 PUSH1 0x40 MLOAD SWAP7 PUSH2 0x3921 PUSH2 0x100 DUP10 PUSH2 0x2B1E JUMP JUMPDEST AND DUP7 MSTORE AND PUSH1 0x20 DUP6 ADD MSTORE AND PUSH1 0x40 DUP4 ADD MSTORE ADDRESS PUSH1 0x60 DUP4 ADD MSTORE PUSH4 0xFFFFFFFF PUSH1 0x80 DUP4 ADD MSTORE PUSH1 0xA0 DUP3 ADD MSTORE PUSH1 0x0 PUSH1 0xC0 DUP3 ADD MSTORE PUSH1 0x0 PUSH1 0xE0 DUP3 ADD MSTORE PUSH20 0xFFFFFFFFFFFFFFFFFFFFFFFFFFFFFFFFFFFFFFFF PUSH1 0xE0 PUSH1 0x40 MLOAD SWAP3 PUSH32 0x414BF38900000000000000000000000000000000000000000000000000000000 DUP5 MSTORE DUP3 DUP2 MLOAD AND PUSH1 0x4 DUP6 ADD MSTORE DUP3 PUSH1 0x20 DUP3 ADD MLOAD AND PUSH1 0x24 DUP6 ADD MSTORE PUSH3 0xFFFFFF PUSH1 0x40 DUP3 ADD MLOAD AND PUSH1 0x44 DUP6 ADD MSTORE DUP3 PUSH1 0x60 DUP3 ADD MLOAD AND PUSH1 0x64 DUP6 ADD MSTORE PUSH1 0x80 DUP2 ADD MLOAD PUSH1 0x84 DUP6 ADD MSTORE PUSH1 0xA0 DUP2 ADD MLOAD PUSH1 0xA4 DUP6 ADD MSTORE PUSH1 0xC0 DUP2 ADD MLOAD PUSH1 0xC4 DUP6 ADD MSTORE ADD MLOAD AND PUSH1 0xE4 DUP3 ADD MSTORE PUSH1 0x20 DUP2 PUSH2 0x104 DUP2 PUSH1 0x0 PUSH20 0xE592427A0AECE92DE3EDEE1F18E0157C05861564 GAS CALL SWAP1 DUP2 ISZERO PUSH2 0x30E6 JUMPI PUSH1 0x0 SWAP2 PUSH2 0x36EC JUMPI POP SWAP1 JUMP JUMPDEST PUSH3 0xFFFFFF PUSH2 0x3A27 DUP3 DUP6 PUSH2 0x3F41 JUMP JUMPDEST MLOAD AND PUSH1 0x40 MLOAD SWAP1 PUSH32 0x1698EE8200000000000000000000000000000000000000000000000000000000 DUP3 MSTORE PUSH20 0xFFFFFFFFFFFFFFFFFFFFFFFFFFFFFFFFFFFFFFFF DUP10 AND PUSH1 0x4 DUP4 ADD MSTORE PUSH20 0xFFFFFFFFFFFFFFFFFFFFFFFFFFFFFFFFFFFFFFFF DUP7 AND PUSH1 0x24 DUP4 ADD MSTORE PUSH1 0x44 DUP3 ADD MSTORE PUSH1 0x20 DUP2 PUSH1 0x64 DUP2 PUSH20 0x1F98431C8AD98523631AE4A59F267346EA31F984 GAS STATICCALL DUP1 ISZERO PUSH2 0x30E6 JUMPI PUSH1 0x0 SWAP1 PUSH2 0x3D48 JUMPI JUMPDEST PUSH20 0xFFFFFFFFFFFFFFFFFFFFFFFFFFFFFFFFFFFFFFFF SWAP2 POP AND DUP1 PUSH2 0x3B06 JUMPI JUMPDEST POP PUSH32 0xFFFFFFFFFFFFFFFFFFFFFFFFFFFFFFFFFFFFFFFFFFFFFFFFFFFFFFFFFFFFFFFF DUP2 EQ PUSH2 0x2D90 JUMPI PUSH1 0x1 ADD PUSH2 0x38EA JUMP JUMPDEST PUSH1 0x20 PUSH1 0x4 SWAP2 PUSH1 0x40 MLOAD SWAP3 DUP4 DUP1 SWAP3 PUSH32 0x1A68650200000000000000000000000000000000000000000000000000000000 DUP3 MSTORE GAS STATICCALL SWAP1 DUP2 ISZERO PUSH2 0x30E6 JUMPI PUSH1 0x0 SWAP2 PUSH2 0x3CED JUMPI JUMPDEST POP PUSH16 0xFFFFFFFFFFFFFFFFFFFFFFFFFFFFFFFF PUSH3 0x989680 SWAP2 AND GT PUSH2 0x3B6A JUMPI JUMPDEST CODESIZE PUSH2 0x3AD6 JUMP JUMPDEST PUSH3 0xFFFFFF PUSH2 0x3B78 DUP3 DUP6 PUSH2 0x3F41 JUMP JUMPDEST MLOAD AND PUSH1 0x40 MLOAD SWAP1 PUSH2 0x3B89 PUSH1 0xA0 DUP4 PUSH2 0x2B1E JUMP JUMPDEST PUSH20 0xFFFFFFFFFFFFFFFFFFFFFFFFFFFFFFFFFFFFFFFF DUP10 AND DUP3 MSTORE PUSH20 0xFFFFFFFFFFFFFFFFFFFFFFFFFFFFFFFFFFFFFFFF DUP7 AND PUSH1 0x20 DUP4 ADD MSTORE DUP8 PUSH1 0x40 DUP4 ADD MSTORE PUSH1 0x60 DUP3 ADD MSTORE PUSH1 0x0 PUSH1 0x80 DUP3 ADD MSTORE PUSH20 0xFFFFFFFFFFFFFFFFFFFFFFFFFFFFFFFFFFFFFFFF PUSH1 0x80 PUSH1 0x40 MLOAD SWAP3 PUSH32 0xC6A5026A00000000000000000000000000000000000000000000000000000000 DUP5 MSTORE DUP3 DUP2 MLOAD AND PUSH1 0x4 DUP6 ADD MSTORE DUP3 PUSH1 0x20 DUP3 ADD MLOAD AND PUSH1 0x24 DUP6 ADD MSTORE PUSH1 0x40 DUP2 ADD MLOAD PUSH1 0x44 DUP6 ADD MSTORE PUSH3 0xFFFFFF PUSH1 0x60 DUP3 ADD MLOAD AND PUSH1 0x64 DUP6 ADD MSTORE ADD MLOAD AND PUSH1 0x84 DUP3 ADD MSTORE PUSH1 0x80 DUP2 PUSH1 0xA4 DUP2 PUSH1 0x0 PUSH20 0x61FFE014BA17989E743C5F6CB21BF9697530B21E GAS CALL SWAP1 DUP2 ISZERO PUSH2 0x30E6 JUMPI PUSH1 0x0 SWAP2 PUSH2 0x3C9C JUMPI JUMPDEST POP DUP3 DUP2 GT PUSH2 0x3C81 JUMPI JUMPDEST POP PUSH2 0x3B64 JUMP JUMPDEST SWAP2 POP SWAP4 POP PUSH3 0xFFFFFF PUSH2 0x3C93 DUP6 DUP5 PUSH2 0x3F41 JUMP JUMPDEST MLOAD AND SWAP4 CODESIZE PUSH2 0x3C7B JUMP JUMPDEST SWAP1 POP PUSH1 0x80 DUP2 RETURNDATASIZE PUSH1 0x80 GT PUSH2 0x3CE5 JUMPI JUMPDEST DUP2 PUSH2 0x3CB7 PUSH1 0x80 SWAP4 DUP4 PUSH2 0x2B1E JUMP JUMPDEST DUP2 ADD SUB SLT PUSH2 0x632 JUMPI PUSH1 0x40 DUP2 MLOAD SWAP2 PUSH2 0x3CD0 PUSH1 0x20 DUP3 ADD PUSH2 0x2CF1 JUMP JUMPDEST POP ADD MLOAD PUSH4 0xFFFFFFFF DUP2 AND SUB PUSH2 0x632 JUMPI CODESIZE PUSH2 0x3C72 JUMP JUMPDEST RETURNDATASIZE SWAP2 POP PUSH2 0x3CAA JUMP JUMPDEST SWAP1 POP PUSH1 0x20 DUP2 RETURNDATASIZE PUSH1 0x20 GT PUSH2 0x3D40 JUMPI JUMPDEST DUP2 PUSH2 0x3D08 PUSH1 0x20 SWAP4 DUP4 PUSH2 0x2B1E JUMP JUMPDEST DUP2 ADD SUB SLT PUSH2 0x632 JUMPI MLOAD PUSH16 0xFFFFFFFFFFFFFFFFFFFFFFFFFFFFFFFF DUP2 AND DUP2 SUB PUSH2 0x632 JUMPI PUSH16 0xFFFFFFFFFFFFFFFFFFFFFFFFFFFFFFFF PUSH2 0x3B46 JUMP JUMPDEST RETURNDATASIZE SWAP2 POP PUSH2 0x3CFB JUMP JUMPDEST POP PUSH1 0x20 DUP2 RETURNDATASIZE PUSH1 0x20 GT PUSH2 0x3D8D JUMPI JUMPDEST DUP2 PUSH2 0x3D62 PUSH1 0x20 SWAP4 DUP4 PUSH2 0x2B1E JUMP JUMPDEST DUP2 ADD SUB SLT PUSH2 0x632 JUMPI PUSH2 0x3D88 PUSH20 0xFFFFFFFFFFFFFFFFFFFFFFFFFFFFFFFFFFFFFFFF SWAP2 PUSH2 0x2CF1 JUMP JUMPDEST PUSH2 0x3AB8 JUMP JUMPDEST RETURNDATASIZE SWAP2 POP PUSH2 0x3D55 JUMP JUMPDEST PUSH32 0x4E487B7100000000000000000000000000000000000000000000000000000000 PUSH1 0x0 MSTORE PUSH1 0x21 PUSH1 0x4 MSTORE PUSH1 0x24 PUSH1 0x0 REVERT JUMPDEST RETURNDATASIZE ISZERO PUSH2 0x3DEF JUMPI RETURNDATASIZE SWAP1 PUSH2 0x3DD5 DUP3 PUSH2 0x2C80 JUMP JUMPDEST SWAP2 PUSH2 0x3DE3 PUSH1 0x40 MLOAD SWAP4 DUP5 PUSH2 0x2B1E JUMP JUMPDEST DUP3 MSTORE RETURNDATASIZE PUSH1 0x0 PUSH1 0x20 DUP5 ADD RETURNDATACOPY JUMP JUMPDEST PUSH1 0x60 SWAP1 JUMP JUMPDEST SWAP1 SWAP2 PUSH1 0x40 MLOAD PUSH32 0xDD62ED3E00000000000000000000000000000000000000000000000000000000 DUP2 MSTORE ADDRESS PUSH1 0x4 DUP3 ADD MSTORE PUSH1 0x20 DUP2 PUSH1 0x44 DUP2 PUSH20 0xFFFFFFFFFFFFFFFFFFFFFFFFFFFFFFFFFFFFFFFF DUP1 DUP10 AND PUSH1 0x24 DUP4 ADD MSTORE DUP8 AND GAS STATICCALL SWAP1 DUP2 ISZERO PUSH2 0x30E6 JUMPI PUSH1 0x0 SWAP2 PUSH2 0x3ECE JUMPI JUMPDEST POP LT ISZERO PUSH2 0x3ECA JUMPI PUSH1 0x44 PUSH1 0x10 PUSH1 0x0 DUP1 SWAP4 PUSH1 0x20 SWAP6 PUSH1 0x14 MSTORE PUSH32 0xFFFFFFFFFFFFFFFFFFFFFFFFFFFFFFFFFFFFFFFFFFFFFFFFFFFFFFFFFFFFFFFF PUSH1 0x34 MSTORE PUSH16 0x95EA7B3000000000000000000000000 DUP3 MSTORE GAS CALL RETURNDATASIZE ISZERO PUSH1 0x1 PUSH1 0x0 MLOAD EQ OR AND ISZERO PUSH2 0x3EBC JUMPI PUSH1 0x0 PUSH1 0x34 MSTORE JUMP JUMPDEST PUSH4 0x3E3F8F73 PUSH1 0x0 MSTORE PUSH1 0x4 PUSH1 0x1C REVERT JUMPDEST POP POP JUMP JUMPDEST SWAP1 PUSH1 0x20 DUP3 RETURNDATASIZE DUP3 GT PUSH2 0x3EF7 JUMPI JUMPDEST DUP2 PUSH2 0x3EE7 PUSH1 0x20 SWAP4 DUP4 PUSH2 0x2B1E JUMP JUMPDEST DUP2 ADD SUB SLT PUSH2 0x72D JUMPI POP MLOAD CODESIZE PUSH2 0x3E58 JUMP JUMPDEST RETURNDATASIZE SWAP2 POP PUSH2 0x3EDA JUMP JUMPDEST DUP2 PUSH1 0x1F DUP3 ADD SLT ISZERO PUSH2 0x632 JUMPI DUP1 MLOAD PUSH2 0x3F15 DUP2 PUSH2 0x2C80 JUMP JUMPDEST SWAP3 PUSH2 0x3F23 PUSH1 0x40 MLOAD SWAP5 DUP6 PUSH2 0x2B1E JUMP JUMPDEST DUP2 DUP5 MSTORE PUSH1 0x20 DUP3 DUP5 ADD ADD GT PUSH2 0x632 JUMPI PUSH2 0x2FB4 SWAP2 PUSH1 0x20 DUP1 DUP6 ADD SWAP2 ADD PUSH2 0x2B8E JUMP JUMPDEST SWAP1 PUSH1 0x4 DUP2 LT ISZERO PUSH2 0x2D54 JUMPI PUSH1 0x5 SHL ADD SWAP1 JUMP JUMPDEST MLOAD SWAP1 PUSH6 0xFFFFFFFFFFFF DUP3 AND DUP3 SUB PUSH2 0x632 JUMPI JUMP JUMPDEST SWAP2 PUSH1 0x40 MLOAD PUSH32 0x927DA10500000000000000000000000000000000000000000000000000000000 DUP2 MSTORE ADDRESS PUSH1 0x4 DUP3 ADD MSTORE PUSH20 0xFFFFFFFFFFFFFFFFFFFFFFFFFFFFFFFFFFFFFFFF DUP1 DUP1 SWAP6 AND SWAP4 DUP5 PUSH1 0x24 DUP5 ADD MSTORE AND SWAP2 DUP3 PUSH1 0x44 DUP4 ADD MSTORE PUSH15 0x22D473030F116DDEE9F6B43AC78BA3 SWAP2 PUSH1 0x60 DUP2 PUSH1 0x64 DUP2 DUP7 GAS STATICCALL DUP1 ISZERO PUSH2 0x30E6 JUMPI DUP7 SWAP2 PUSH1 0x0 SWAP2 PUSH2 0x4060 JUMPI JUMPDEST POP AND LT ISZERO PUSH2 0x405A JUMPI DUP1 EXTCODESIZE ISZERO PUSH2 0x632 JUMPI PUSH1 0x0 SWAP3 DUP4 PUSH1 0x84 SWAP3 PUSH1 0x40 MLOAD SWAP7 DUP8 SWAP6 DUP7 SWAP5 PUSH32 0x87517C4500000000000000000000000000000000000000000000000000000000 DUP7 MSTORE PUSH1 0x4 DUP7 ADD MSTORE PUSH1 0x24 DUP6 ADD MSTORE PUSH1 0x44 DUP5 ADD MSTORE PUSH6 0xFFFFFFFFFFFF PUSH1 0x64 DUP5 ADD MSTORE GAS CALL DUP1 ISZERO PUSH2 0x30E6 JUMPI PUSH2 0x404F JUMPI POP JUMP JUMPDEST PUSH1 0x0 PUSH2 0x2F1D SWAP2 PUSH2 0x2B1E JUMP JUMPDEST POP POP POP POP JUMP JUMPDEST SWAP2 POP PUSH1 0x60 DUP3 RETURNDATASIZE DUP3 GT PUSH2 0x40AE JUMPI JUMPDEST DUP2 PUSH2 0x407A PUSH1 0x60 SWAP4 DUP4 PUSH2 0x2B1E JUMP JUMPDEST DUP2 ADD SUB SLT PUSH2 0x72D JUMPI POP DUP1 PUSH2 0x40A7 PUSH1 0x40 PUSH2 0x4093 DUP10 SWAP5 PUSH2 0x2CF1 JUMP JUMPDEST SWAP3 PUSH2 0x40A0 PUSH1 0x20 DUP3 ADD PUSH2 0x3F52 JUMP JUMPDEST POP ADD PUSH2 0x3F52 JUMP JUMPDEST POP CODESIZE PUSH2 0x3FE4 JUMP JUMPDEST RETURNDATASIZE SWAP2 POP PUSH2 0x406D JUMP JUMPDEST MLOAD SWAP1 PUSH1 0xFF DUP3 AND DUP3 SUB PUSH2 0x632 JUMPI JUMP JUMPDEST PUSH1 0xFF AND PUSH1 0x4D DUP2 GT PUSH2 0x2D90 JUMPI PUSH1 0xA EXP SWAP1 JUMP JUMPDEST MLOAD SWAP1 PUSH2 0xFFFF DUP3 AND DUP3 SUB PUSH2 0x632 JUMPI JUMP JUMPDEST MLOAD SWAP1 DUP2 ISZERO ISZERO DUP3 SUB PUSH2 0x632 JUMPI JUMP JUMPDEST SWAP1 DUP1 ISZERO PUSH2 0x41A1 JUMPI DUP2 ISZERO PUSH2 0x4199 JUMPI DUP2 DUP1 PUSH1 0x1 EQ PUSH2 0x4190 JUMPI PUSH1 0x2 EQ PUSH2 0x4176 JUMPI PUSH1 0x20 DUP2 LT PUSH2 0x133 DUP4 LT AND PUSH1 0x4E DUP3 LT PUSH1 0xB DUP5 LT AND OR PUSH2 0x416A JUMPI SWAP1 SWAP2 PUSH1 0x1 SWAP2 DUP3 JUMPDEST DUP1 DUP3 GT PUSH2 0x4143 JUMPI POP POP DUP3 SWAP1 DIV DUP2 GT PUSH2 0x2D90 JUMPI MUL SWAP1 JUMP JUMPDEST SWAP1 SWAP4 DUP1 DUP4 DIV DUP2 GT PUSH2 0x2D90 JUMPI DUP2 DUP6 AND PUSH2 0x4161 JUMPI JUMPDEST DUP1 MUL SWAP4 DUP2 SHR SWAP1 PUSH2 0x412D JUMP JUMPDEST DUP1 SWAP4 MUL SWAP3 PUSH2 0x4156 JUMP JUMPDEST SWAP1 EXP SWAP2 SWAP1 DUP3 GT PUSH2 0x2D90 JUMPI JUMP JUMPDEST SWAP1 POP PUSH1 0xFF DUP2 SWAP4 SWAP3 SWAP4 GT PUSH2 0x2D90 JUMPI PUSH1 0x1 SWAP1 SHL SWAP2 DUP3 GT PUSH2 0x2D90 JUMPI JUMP JUMPDEST POP POP POP POP PUSH1 0x1 SWAP1 JUMP JUMPDEST POP POP POP PUSH1 0x0 SWAP1 JUMP JUMPDEST POP POP POP PUSH1 0x1 SWAP1 JUMP JUMPDEST DUP2 DUP2 MUL SWAP3 SWAP2 DUP2 ISZERO SWAP2 DUP5 DIV EQ OR ISZERO PUSH2 0x2D90 JUMPI JUMP JUMPDEST SWAP1 SWAP2 PUSH2 0x41C8 ADDRESS DUP4 PUSH2 0x43B1 JUMP JUMPDEST SWAP2 PUSH2 0x41D3 ADDRESS DUP6 PUSH2 0x43B1 JUMP JUMPDEST SWAP3 DUP3 DUP2 PUSH2 0x41F1 JUMPI JUMPDEST POP POP POP DUP2 PUSH2 0x41E8 JUMPI POP POP POP JUMP JUMPDEST PUSH2 0x2F1D SWAP3 PUSH2 0x4368 JUMP JUMPDEST PUSH2 0x41FA SWAP3 PUSH2 0x4368 JUMP JUMPDEST CODESIZE DUP1 DUP3 PUSH2 0x41DB JUMP JUMPDEST SWAP1 DUP1 PUSH32 0xFFFFFFFFFFFFFFFFFFFFFFFFFFFFFFFFFFFFFFFFFFFFFFFFFFFFFFFFFFFFFFFF DIV DUP3 GT DUP2 MUL PUSH2 0x423D JUMPI PUSH8 0xDE0B6B3A7640000 SWAP2 MUL DIV SWAP1 JUMP JUMPDEST PUSH4 0xBAC65E5B PUSH1 0x0 MSTORE PUSH1 0x4 PUSH1 0x1C REVERT JUMPDEST PUSH8 0xDE0B6B3A7640000 SWAP1 PUSH25 0x12725DD1D243ABA0E75FE645CC4873F9E65AFE688C928E1F21 DUP2 GT DUP3 MUL ISZERO DUP4 MUL ISZERO PUSH2 0x4280 JUMPI MUL DIV SWAP1 JUMP JUMPDEST PUSH4 0x7C5F487D PUSH1 0x0 MSTORE PUSH1 0x4 PUSH1 0x1C REVERT JUMPDEST SWAP2 PUSH1 0x0 SWAP3 DUP3 DUP2 MUL SWAP3 PUSH32 0xFFFFFFFFFFFFFFFFFFFFFFFFFFFFFFFFFFFFFFFFFFFFFFFFFFFFFFFFFFFFFFFF DUP2 DUP4 MULMOD SWAP2 DUP5 DUP4 LT DUP6 ADD DUP1 DUP5 SUB SWAP4 EQ PUSH2 0x432E JUMPI DUP3 DUP5 GT ISZERO PUSH2 0x4321 JUMPI SWAP1 DUP4 SWAP2 MULMOD SWAP1 PUSH1 0x1 DUP4 DUP7 SUB DUP5 AND DUP1 DUP1 DUP1 SWAP7 DIV PUSH1 0x2 DUP1 DUP3 PUSH1 0x3 MUL XOR DUP1 DUP4 MUL DUP3 SUB MUL DUP1 DUP4 MUL DUP3 SUB MUL DUP1 DUP4 MUL DUP3 SUB MUL DUP1 DUP4 MUL DUP3 SUB MUL DUP1 DUP4 MUL DUP3 SUB MUL DUP1 SWAP3 MUL SWAP1 SUB MUL SWAP8 SUB DIV ADD SWAP1 DUP5 DUP4 GT SWAP1 SUB MUL SWAP3 SUB DIV OR MUL SWAP1 JUMP JUMPDEST PUSH4 0xAE47F702 DUP7 MSTORE PUSH1 0x4 PUSH1 0x1C REVERT JUMPDEST POP POP POP SWAP2 DUP3 ISZERO PUSH2 0x433D JUMPI POP DIV SWAP1 JUMP JUMPDEST PUSH4 0xAE47F702 SWAP1 MSTORE PUSH1 0x4 PUSH1 0x1C REVERT JUMPDEST PUSH1 0x0 DUP1 DUP1 SWAP4 DUP2 SWAP4 GAS CALL ISZERO PUSH2 0x435A JUMPI JUMP JUMPDEST PUSH4 0xB12D13EB PUSH1 0x0 MSTORE PUSH1 0x4 PUSH1 0x1C REVERT JUMPDEST PUSH1 0x10 SWAP3 PUSH1 0x20 SWAP3 PUSH1 0x14 MSTORE PUSH1 0x34 MSTORE PUSH1 0x44 PUSH1 0x0 SWAP4 DUP5 DUP1 SWAP4 PUSH16 0xA9059CBB000000000000000000000000 DUP3 MSTORE GAS CALL RETURNDATASIZE ISZERO PUSH1 0x1 DUP4 MLOAD EQ OR AND ISZERO PUSH2 0x43A4 JUMPI PUSH1 0x34 MSTORE JUMP JUMPDEST PUSH4 0x90B8EC18 SWAP1 MSTORE PUSH1 0x4 PUSH1 0x1C REVERT JUMPDEST PUSH1 0x24 PUSH1 0x10 PUSH1 0x20 SWAP4 SWAP3 DUP5 SWAP4 PUSH1 0x14 MSTORE PUSH16 0x70A08231000000000000000000000000 PUSH1 0x0 MSTORE GAS STATICCALL PUSH1 0x1F RETURNDATASIZE GT AND PUSH1 0x20 MLOAD MUL SWAP1 JUMP INVALID LOG1 PUSH5 0x736F6C6343 STOP ADDMOD GT STOP EXP "},"methodIdentifiers":{"ONE_INCH_ROUTER_V5()":"bdcb9932","OPEN_OCEAN_EXCHANGE_PROXY()":"72e05064","OxPROJECT_EXCHANGE_PROXY()":"2f764135","PARASWAP_AUGUSTUS_SWAPPER_V5()":"88a799f6","PERMIT2()":"6afdd850","UNISWAP_V3_ROUTER()":"41c64a2f","altairBorrow_O9E(address,uint256,bytes)":"8f53d74f","altairLiquidate_f2x(address,uint256,uint256,bytes)":"e95471c7","altairRedeem_u91A(address,uint256,bytes)":"989bebcf","getAssetsForShares(address,uint256,uint256)":"d0189a91","hangar18()":"e8a24e1d","name()":"06fdde03","nativeToken()":"e1758bd8","setName(string)":"c47f0027","sweepNative()":"ab803a76","sweepToken(address)":"1be19560","usd()":"d63a6ccd"}}}}}