{"contracts/cygnus-periphery/CygnusAltair.sol":{"CygnusAltair":{"abi":[{"inputs":[{"internalType":"contract IHangar18","name":"_hangar18","type":"address"}],"stateMutability":"nonpayable","type":"constructor"},{"inputs":[],"name":"CygnusAltair__0xProjectTransactionFailed","type":"error"},{"inputs":[],"name":"CygnusAltair__AltairXDoesNotExist","type":"error"},{"inputs":[],"name":"CygnusAltair__MsgSenderNotAdmin","type":"error"},{"inputs":[],"name":"CygnusAltair__OneInchTransactionFailed","type":"error"},{"inputs":[],"name":"CygnusAltair__OpenOceanTransactionFailed","type":"error"},{"inputs":[],"name":"CygnusAltair__ParaswapTransactionFailed","type":"error"},{"inputs":[],"name":"CygnusAltair__ShuttleDoesNotExist","type":"error"},{"inputs":[],"name":"CygnusAltair__TransactionExpired","type":"error"},{"stateMutability":"payable","type":"fallback"},{"inputs":[],"name":"ONE_INCH_ROUTER_V5","outputs":[{"internalType":"address","name":"","type":"address"}],"stateMutability":"view","type":"function"},{"inputs":[],"name":"OPEN_OCEAN_EXCHANGE_PROXY","outputs":[{"internalType":"address","name":"","type":"address"}],"stateMutability":"view","type":"function"},{"inputs":[],"name":"OxPROJECT_EXCHANGE_PROXY","outputs":[{"internalType":"address","name":"","type":"address"}],"stateMutability":"view","type":"function"},{"inputs":[],"name":"PARASWAP_AUGUSTUS_SWAPPER_V5","outputs":[{"internalType":"address","name":"","type":"address"}],"stateMutability":"view","type":"function"},{"inputs":[],"name":"PERMIT2","outputs":[{"internalType":"address","name":"","type":"address"}],"stateMutability":"view","type":"function"},{"inputs":[],"name":"UNISWAP_V3_ROUTER","outputs":[{"internalType":"address","name":"","type":"address"}],"stateMutability":"view","type":"function"},{"inputs":[{"internalType":"uint256","name":"","type":"uint256"}],"name":"allExtensions","outputs":[{"internalType":"address","name":"","type":"address"}],"stateMutability":"view","type":"function"},{"inputs":[],"name":"altairExtensionsLength","outputs":[{"internalType":"uint256","name":"","type":"uint256"}],"stateMutability":"view","type":"function"},{"inputs":[{"internalType":"address","name":"borrowable","type":"address"},{"internalType":"uint256","name":"amount","type":"uint256"},{"internalType":"address","name":"recipient","type":"address"},{"internalType":"uint256","name":"deadline","type":"uint256"},{"internalType":"bytes","name":"permitData","type":"bytes"}],"name":"borrow","outputs":[],"stateMutability":"nonpayable","type":"function"},{"inputs":[{"internalType":"address","name":"lpTokenPair","type":"address"},{"internalType":"address","name":"collateral","type":"address"},{"internalType":"address","name":"borrowable","type":"address"},{"internalType":"uint256","name":"cygLPAmount","type":"uint256"},{"internalType":"uint256","name":"usdAmountMin","type":"uint256"},{"internalType":"uint256","name":"deadline","type":"uint256"},{"internalType":"bytes","name":"permitData","type":"bytes"},{"internalType":"enum ICygnusAltair.DexAggregator","name":"dexAggregator","type":"uint8"},{"internalType":"bytes[]","name":"swapdata","type":"bytes[]"}],"name":"deleverage","outputs":[{"internalType":"uint256","name":"usdAmount","type":"uint256"}],"stateMutability":"nonpayable","type":"function"},{"inputs":[{"internalType":"address","name":"borrowable","type":"address"},{"internalType":"address","name":"collateral","type":"address"},{"internalType":"uint256","name":"amountMax","type":"uint256"},{"internalType":"address","name":"borrower","type":"address"},{"internalType":"uint256","name":"deadline","type":"uint256"},{"internalType":"enum ICygnusAltair.DexAggregator","name":"dexAggregator","type":"uint8"},{"internalType":"bytes[]","name":"swapdata","type":"bytes[]"}],"name":"flashLiquidate","outputs":[{"internalType":"uint256","name":"amount","type":"uint256"}],"stateMutability":"nonpayable","type":"function"},{"inputs":[{"internalType":"address","name":"poolToken","type":"address"}],"name":"getAltairExtension","outputs":[{"internalType":"address","name":"","type":"address"}],"stateMutability":"view","type":"function"},{"inputs":[{"internalType":"address","name":"lpTokenPair","type":"address"},{"internalType":"uint256","name":"shares","type":"uint256"},{"internalType":"uint256","name":"difference","type":"uint256"}],"name":"getAssetsForShares","outputs":[{"internalType":"address[]","name":"tokens","type":"address[]"},{"internalType":"uint256[]","name":"amounts","type":"uint256[]"}],"stateMutability":"view","type":"function"},{"inputs":[{"internalType":"uint256","name":"shuttleId","type":"uint256"}],"name":"getShuttleExtension","outputs":[{"internalType":"address","name":"","type":"address"}],"stateMutability":"view","type":"function"},{"inputs":[],"name":"hangar18","outputs":[{"internalType":"contract IHangar18","name":"","type":"address"}],"stateMutability":"view","type":"function"},{"inputs":[{"internalType":"address","name":"","type":"address"}],"name":"isExtension","outputs":[{"internalType":"bool","name":"","type":"bool"}],"stateMutability":"view","type":"function"},{"inputs":[{"internalType":"contract ICygnusBorrow","name":"borrowable","type":"address"},{"internalType":"address","name":"borrower","type":"address"}],"name":"latestAccountLiquidity","outputs":[{"internalType":"uint256","name":"liquidity","type":"uint256"},{"internalType":"uint256","name":"shortfall","type":"uint256"}],"stateMutability":"nonpayable","type":"function"},{"inputs":[{"internalType":"address","name":"user","type":"address"}],"name":"latestBorrowerAll","outputs":[{"internalType":"uint256","name":"principal","type":"uint256"},{"internalType":"uint256","name":"borrowBalance","type":"uint256"},{"internalType":"uint256","name":"positionUsd","type":"uint256"}],"stateMutability":"nonpayable","type":"function"},{"inputs":[{"internalType":"contract ICygnusBorrow","name":"borrowable","type":"address"},{"internalType":"address","name":"borrower","type":"address"}],"name":"latestBorrowerPosition","outputs":[{"internalType":"uint256","name":"cygLPBalance","type":"uint256"},{"internalType":"uint256","name":"principal","type":"uint256"},{"internalType":"uint256","name":"borrowBalance","type":"uint256"},{"internalType":"uint256","name":"price","type":"uint256"},{"internalType":"uint256","name":"rate","type":"uint256"},{"internalType":"uint256","name":"positionUsd","type":"uint256"},{"internalType":"uint256","name":"positionLp","type":"uint256"},{"internalType":"uint256","name":"health","type":"uint256"}],"stateMutability":"nonpayable","type":"function"},{"inputs":[{"internalType":"address","name":"user","type":"address"}],"name":"latestLenderAll","outputs":[{"internalType":"uint256","name":"cygUsdBalance","type":"uint256"},{"internalType":"uint256","name":"positionUsd","type":"uint256"}],"stateMutability":"nonpayable","type":"function"},{"inputs":[{"internalType":"contract ICygnusBorrow","name":"borrowable","type":"address"},{"internalType":"address","name":"lender","type":"address"}],"name":"latestLenderPosition","outputs":[{"internalType":"uint256","name":"cygUsdBalance","type":"uint256"},{"internalType":"uint256","name":"rate","type":"uint256"},{"internalType":"uint256","name":"positionUsd","type":"uint256"}],"stateMutability":"nonpayable","type":"function"},{"inputs":[{"internalType":"contract ICygnusBorrow","name":"borrowable","type":"address"}],"name":"latestShuttleInfo","outputs":[{"internalType":"uint256","name":"supplyApr","type":"uint256"},{"internalType":"uint256","name":"borrowApr","type":"uint256"},{"internalType":"uint256","name":"util","type":"uint256"},{"internalType":"uint256","name":"totalBorrows","type":"uint256"},{"internalType":"uint256","name":"totalBalance","type":"uint256"},{"internalType":"uint256","name":"exchangeRate","type":"uint256"}],"stateMutability":"nonpayable","type":"function"},{"inputs":[{"internalType":"address","name":"lpTokenPair","type":"address"},{"internalType":"address","name":"collateral","type":"address"},{"internalType":"address","name":"borrowable","type":"address"},{"internalType":"uint256","name":"usdAmount","type":"uint256"},{"internalType":"uint256","name":"lpAmountMin","type":"uint256"},{"internalType":"uint256","name":"deadline","type":"uint256"},{"internalType":"bytes","name":"permitData","type":"bytes"},{"internalType":"enum ICygnusAltair.DexAggregator","name":"dexAggregator","type":"uint8"},{"internalType":"bytes[]","name":"swapdata","type":"bytes[]"}],"name":"leverage","outputs":[{"internalType":"uint256","name":"liquidity","type":"uint256"}],"stateMutability":"nonpayable","type":"function"},{"inputs":[{"internalType":"address","name":"borrowable","type":"address"},{"internalType":"uint256","name":"amountMax","type":"uint256"},{"internalType":"address","name":"borrower","type":"address"},{"internalType":"address","name":"recipient","type":"address"},{"internalType":"uint256","name":"deadline","type":"uint256"},{"internalType":"bytes","name":"permitData","type":"bytes"}],"name":"liquidate","outputs":[{"internalType":"uint256","name":"amount","type":"uint256"},{"internalType":"uint256","name":"seizeTokens","type":"uint256"}],"stateMutability":"nonpayable","type":"function"},{"inputs":[{"internalType":"address","name":"borrowable","type":"address"},{"internalType":"uint256","name":"amountMax","type":"uint256"},{"internalType":"address","name":"borrower","type":"address"},{"internalType":"address","name":"recipient","type":"address"},{"internalType":"uint256","name":"deadline","type":"uint256"},{"components":[{"components":[{"internalType":"address","name":"token","type":"address"},{"internalType":"uint160","name":"amount","type":"uint160"},{"internalType":"uint48","name":"expiration","type":"uint48"},{"internalType":"uint48","name":"nonce","type":"uint48"}],"internalType":"struct IAllowanceTransfer.PermitDetails","name":"details","type":"tuple"},{"internalType":"address","name":"spender","type":"address"},{"internalType":"uint256","name":"sigDeadline","type":"uint256"}],"internalType":"struct IAllowanceTransfer.PermitSingle","name":"_permit","type":"tuple"},{"internalType":"bytes","name":"signature","type":"bytes"}],"name":"liquidatePermit2Allowance","outputs":[{"internalType":"uint256","name":"amount","type":"uint256"},{"internalType":"uint256","name":"seizeTokens","type":"uint256"}],"stateMutability":"nonpayable","type":"function"},{"inputs":[{"internalType":"address","name":"borrowable","type":"address"},{"internalType":"uint256","name":"amountMax","type":"uint256"},{"internalType":"address","name":"borrower","type":"address"},{"internalType":"address","name":"recipient","type":"address"},{"internalType":"uint256","name":"deadline","type":"uint256"},{"components":[{"components":[{"internalType":"address","name":"token","type":"address"},{"internalType":"uint256","name":"amount","type":"uint256"}],"internalType":"struct ISignatureTransfer.TokenPermissions","name":"permitted","type":"tuple"},{"internalType":"uint256","name":"nonce","type":"uint256"},{"internalType":"uint256","name":"deadline","type":"uint256"}],"internalType":"struct ISignatureTransfer.PermitTransferFrom","name":"_permit","type":"tuple"},{"internalType":"bytes","name":"signature","type":"bytes"}],"name":"liquidatePermit2Signature","outputs":[{"internalType":"uint256","name":"amount","type":"uint256"},{"internalType":"uint256","name":"seizeTokens","type":"uint256"}],"stateMutability":"nonpayable","type":"function"},{"inputs":[],"name":"name","outputs":[{"internalType":"string","name":"","type":"string"}],"stateMutability":"view","type":"function"},{"inputs":[],"name":"nativeToken","outputs":[{"internalType":"contract IWrappedNative","name":"","type":"address"}],"stateMutability":"view","type":"function"},{"inputs":[{"internalType":"address","name":"borrowable","type":"address"},{"internalType":"uint256","name":"amountMax","type":"uint256"},{"internalType":"address","name":"borrower","type":"address"},{"internalType":"uint256","name":"deadline","type":"uint256"},{"internalType":"bytes","name":"permitData","type":"bytes"}],"name":"repay","outputs":[{"internalType":"uint256","name":"amount","type":"uint256"}],"stateMutability":"nonpayable","type":"function"},{"inputs":[{"internalType":"address","name":"borrowable","type":"address"},{"internalType":"uint256","name":"amountMax","type":"uint256"},{"internalType":"address","name":"borrower","type":"address"},{"internalType":"uint256","name":"deadline","type":"uint256"},{"components":[{"components":[{"internalType":"address","name":"token","type":"address"},{"internalType":"uint160","name":"amount","type":"uint160"},{"internalType":"uint48","name":"expiration","type":"uint48"},{"internalType":"uint48","name":"nonce","type":"uint48"}],"internalType":"struct IAllowanceTransfer.PermitDetails","name":"details","type":"tuple"},{"internalType":"address","name":"spender","type":"address"},{"internalType":"uint256","name":"sigDeadline","type":"uint256"}],"internalType":"struct IAllowanceTransfer.PermitSingle","name":"_permit","type":"tuple"},{"internalType":"bytes","name":"signature","type":"bytes"}],"name":"repayPermit2Allowance","outputs":[{"internalType":"uint256","name":"amount","type":"uint256"}],"stateMutability":"nonpayable","type":"function"},{"inputs":[{"internalType":"address","name":"borrowable","type":"address"},{"internalType":"uint256","name":"amountMax","type":"uint256"},{"internalType":"address","name":"borrower","type":"address"},{"internalType":"uint256","name":"deadline","type":"uint256"},{"components":[{"components":[{"internalType":"address","name":"token","type":"address"},{"internalType":"uint256","name":"amount","type":"uint256"}],"internalType":"struct ISignatureTransfer.TokenPermissions","name":"permitted","type":"tuple"},{"internalType":"uint256","name":"nonce","type":"uint256"},{"internalType":"uint256","name":"deadline","type":"uint256"}],"internalType":"struct ISignatureTransfer.PermitTransferFrom","name":"_permit","type":"tuple"},{"internalType":"bytes","name":"signature","type":"bytes"}],"name":"repayPermit2Signature","outputs":[{"internalType":"uint256","name":"amount","type":"uint256"}],"stateMutability":"nonpayable","type":"function"},{"inputs":[{"internalType":"uint256","name":"shuttleId","type":"uint256"},{"internalType":"address","name":"extension","type":"address"}],"name":"setAltairExtension","outputs":[],"stateMutability":"nonpayable","type":"function"},{"inputs":[],"name":"sweepNative","outputs":[],"stateMutability":"nonpayable","type":"function"},{"inputs":[{"internalType":"contract IERC20[]","name":"tokens","type":"address[]"},{"internalType":"address","name":"to","type":"address"}],"name":"sweepTokens","outputs":[],"stateMutability":"nonpayable","type":"function"},{"inputs":[],"name":"usd","outputs":[{"internalType":"address","name":"","type":"address"}],"stateMutability":"view","type":"function"},{"inputs":[],"name":"version","outputs":[{"internalType":"string","name":"","type":"string"}],"stateMutability":"view","type":"function"},{"stateMutability":"payable","type":"receive"}],"evm":{"bytecode":{"linkReferences":{},"object":"60e0604090808252346200021d578062004445803803809162000023828562000222565b83396020928391810103126200021d57516001600160a01b0390818116908181036200021d576003546001908181811c9116801562000212575b86821014620001fc57601f8111620001cd575b50507f4379676e75733a20416c7461697220526f75746572000000000000000000002a6003556080528351631c2eb17b60e31b8152908382600481845afa928315620001c2576004938593600091620001a0575b501660c052845163d63a6ccd60e01b815292839182905afa918215620001955760009262000161575b505060a052516141c790816200027e82396080518181816105030152818161181a01528181611b0901528181611f2d0152818161207a0152818161252e0152612f89015260a051818181610dd3015281816115bc01528181611cd901528181611d5301526132b3015260c05181610a550152f35b620001859250803d106200018d575b6200017c818362000222565b8101906200025c565b3880620000ed565b503d62000170565b83513d6000823e3d90fd5b620001bb9150843d86116200018d576200017c818362000222565b38620000c4565b85513d6000823e3d90fd5b6003600052601f86600020910160051c8101905b818110620001f0575062000070565b600081558201620001e1565b634e487b7160e01b600052602260045260246000fd5b90607f16906200005d565b600080fd5b601f909101601f19168101906001600160401b038211908210176200024657604052565b634e487b7160e01b600052604160045260246000fd5b908160209103126200021d57516001600160a01b03811681036200021d579056fe60a08060405260043610156100c8575b5036156100c65760003381528060205273ffffffffffffffffffffffffffffffffffffffff604082205416801561009c57818091604051368382378036810184815203915af43d15610093573d61006581613967565b90610073604051928361383a565b8152809260203d92013e5b1561008b57602081519101f35b602081519101fd5b6060915061007e565b60046040517fd4de0f16000000000000000000000000000000000000000000000000000000008152fd5b005b600090813560e01c90816301ce1f6e146137b35750806306fdde03146136505780630c0cf11a146136145780630e12d008146134315780630f22d4351461317557806314016d2114612f095780631b18ff8a14612d2b57806321a5e90814612b295780632a90e82f146128045780632d6bf1f9146124d85780632f7641351461248b57806341c64a2f1461243e57806354fd4d50146123b7578063668e143d146122625780636afdd8501461221a5780637071f0c414611f9a57806370bf79c614611eb057806372e0506414611e6357806376c05f6514611d185780637f32d8f414611c1d57806388a799f614611bd0578063ab803a7614611a96578063b8feb704146117bf578063bdcb993214611772578063c2a95ddf14611471578063d0189a911461121d578063d636651214610df7578063d63a6ccd14610d88578063d6906d2314610b88578063dbe5f2fb14610a79578063e1758bd814610a0a578063e731f6d11461099a578063e75ee2e314610527578063e8a24e1d146104b8578063f847ed481461044b5763fc4bcda90361000f57346104485760407ffffffffffffffffffffffffffffffffffffffffffffffffffffffffffffffffc360112610448576004359073ffffffffffffffffffffffffffffffffffffffff91828116809103610443576024359083821680920361044357803b1561040c576040517ffff6cae9000000000000000000000000000000000000000000000000000000008152838160048183865af1801561043857908491610423575b50506020600491604051928380927fd8dfeb450000000000000000000000000000000000000000000000000000000082525afa9081156104185783916103d4575b506024604092835195869384927f5ec88c790000000000000000000000000000000000000000000000000000000084526004840152165afa80156103c7576040928291610398575b5082519182526020820152f35b90506103ba9150823d84116103c0575b6103b2818361383a565b810190613c32565b3861038b565b503d6103a8565b50604051903d90823e3d90fd5b90506020813d8211610410575b816103ee6020938361383a565b8101031261040c57906024610404604093613ae0565b919250610343565b8280fd5b3d91506103e1565b6040513d85823e3d90fd5b8161042d9161383a565b61040c578238610302565b6040513d86823e3d90fd5b600080fd5b80fd5b50346104485760207ffffffffffffffffffffffffffffffffffffffffffffffffffffffffffffffffc360112610448576004359073ffffffffffffffffffffffffffffffffffffffff82168092036104435760408160209360ff9352600184522054166040519015158152f35b503461044857807ffffffffffffffffffffffffffffffffffffffffffffffffffffffffffffffffc36011261044857602060405173ffffffffffffffffffffffffffffffffffffffff7f0000000000000000000000000000000000000000000000000000000000000000168152f35b5034610448576105619061055a61053f366004613a0b565b97999c9390989a9196949261055384613cbb565b3691613c48565b9089613ced565b6040517f18160ddd00000000000000000000000000000000000000000000000000000000815260208160048173ffffffffffffffffffffffffffffffffffffffff8c165afa90811561098f57899161095d575b50604051907f01e1d11400000000000000000000000000000000000000000000000000000000825260208260048173ffffffffffffffffffffffffffffffffffffffff8d165afa918215610952578a9261091e575b507fffffffffffffffffffffffffffffffffffffffffffffffffffffffffffffffff828409838302808210018082146108cc578082038311156108bf57956108639c958573ffffffffffffffffffffffffffffffffffffffff8e8760209f9d989760e09f9d98976108059d826107089a61070f9e099160018487038516808080970460028082600302188083028203028083028203028083028203028083028203028083028203028092029003029803040191858902841191030302928602030417029a5b816040519a6106df6101008d61383a565b168a52818d168f8b0152166040890152336060890152608088015260a087015260c08601614030565b369161406b565b858201526107d9604051958692888085015273ffffffffffffffffffffffffffffffffffffffff815116604085015273ffffffffffffffffffffffffffffffffffffffff8982015116606085015273ffffffffffffffffffffffffffffffffffffffff604082015116608085015273ffffffffffffffffffffffffffffffffffffffff60608201511660a0850152608081015160c085015260a0810151828501526107c360c08201516101008601906140eb565b01516101006101208401526101408301906140f8565b037fffffffffffffffffffffffffffffffffffffffffffffffffffffffffffffffe0810185528461383a565b8473ffffffffffffffffffffffffffffffffffffffff6040518098819682957ffa14fdc200000000000000000000000000000000000000000000000000000000845230600485015260248401526060604484015260648301906138aa565b0393165af19081156108b35790610880575b602090604051908152f35b506020813d6020116108ab575b8161089a6020938361383a565b810103126104435760209051610875565b3d915061088d565b604051903d90823e3d90fd5b63ae47f7028c526004601cfd5b505090819a97989a1561091157946107086108059560e099958573ffffffffffffffffffffffffffffffffffffffff6108639f9b9660209e9b61070f9902049a6106ce565b63ae47f7028a526004601cfd5b9091506020813d60201161094a575b8161093a6020938361383a565b8101031261044357519038610609565b3d915061092d565b6040513d8c823e3d90fd5b90506020813d602011610987575b816109786020938361383a565b810103126104435751386105b4565b3d915061096b565b6040513d8b823e3d90fd5b50346104485760207ffffffffffffffffffffffffffffffffffffffffffffffffffffffffffffffffc360112610448576004359060025482101561044857602073ffffffffffffffffffffffffffffffffffffffff6109fa846002613a99565b9190546040519260031b1c168152f35b503461044857807ffffffffffffffffffffffffffffffffffffffffffffffffffffffffffffffffc36011261044857602060405173ffffffffffffffffffffffffffffffffffffffff7f0000000000000000000000000000000000000000000000000000000000000000168152f35b503461044857610b426020610aab610aa4610a953660046139b9565b61055383949895969793613cbb565b9084613ced565b8573ffffffffffffffffffffffffffffffffffffffff610aca82613967565b94610ad8604051968761383a565b8286527fffffffffffffffffffffffffffffffffffffffffffffffffffffffffffffffe0610b0584613967565b013688880137604051978896879586937f1e7dcc0d0000000000000000000000000000000000000000000000000000000085523360048601613c7f565b0393165af18015610b7d57610b55575080f35b602090813d8111610b76575b610b6b818361383a565b810103126104435780f35b503d610b61565b6040513d84823e3d90fd5b503461044857610d5390602060c0610be9610d1d73ffffffffffffffffffffffffffffffffffffffff610c33610be0610708610bc5366004613a0b565b9a999d969f94939198959760809c93919c5261055384613cbb565b90608051613ced565b8160405199610bf960e08c61383a565b168952168b88015273ffffffffffffffffffffffffffffffffffffffff608051166040880152336060880152608087015260a08601614030565b84820152610cf1604051948592878085015273ffffffffffffffffffffffffffffffffffffffff815116604085015273ffffffffffffffffffffffffffffffffffffffff8882015116606085015273ffffffffffffffffffffffffffffffffffffffff604082015116608085015273ffffffffffffffffffffffffffffffffffffffff60608201511660a0850152608081015182850152610cdc60a082015160e08601906140eb565b015160e06101008401526101208301906140f8565b037fffffffffffffffffffffffffffffffffffffffffffffffffffffffffffffffe0810184528361383a565b60405194859283927f1e7dcc0d000000000000000000000000000000000000000000000000000000008452303360048601613c7f565b03818473ffffffffffffffffffffffffffffffffffffffff608051165af19081156108b3579061088057602090604051908152f35b503461044857807ffffffffffffffffffffffffffffffffffffffffffffffffffffffffffffffffc36011261044857602060405173ffffffffffffffffffffffffffffffffffffffff7f0000000000000000000000000000000000000000000000000000000000000000168152f35b503461044857602090817ffffffffffffffffffffffffffffffffffffffffffffffffffffffffffffffffc360112610448576004359073ffffffffffffffffffffffffffffffffffffffff80831680930361044357823b15611219576040517ffff6cae9000000000000000000000000000000000000000000000000000000008152828160048183885af1801561041857908391611204575b5050604051927fad2961a30000000000000000000000000000000000000000000000000000000084528484600481845afa9384156104185783946111d5575b506301e133809485850294808604871490151715611162576040517fc914b4370000000000000000000000000000000000000000000000000000000081528181600481865afa801561115757859061118f575b65ffffffffffff915016868102968188041490151715611162576040517f6c321c8a0000000000000000000000000000000000000000000000000000000081528181600481865afa90811561115757859161112a575b50604051917f47bd37180000000000000000000000000000000000000000000000000000000083528083600481875afa92831561111f5786936110e4575b50604051937fad7a672f0000000000000000000000000000000000000000000000000000000085528185600481845afa9485156110d957879561109d575b5081600491604051928380927f3ba0b9a90000000000000000000000000000000000000000000000000000000082525afa9687156108b35796611067575b509060c0976bffffffffffffffffffffffff9392604051988952880152604087015216606085015216608083015260a0820152f35b92919080965083813d8311611096575b611081818361383a565b810103126104435791519490919060c0611032565b503d611077565b9094508181813d83116110d2575b6110b5818361383a565b810103126110ce575185811681036110ce579381610ff4565b8680fd5b503d6110ab565b6040513d89823e3d90fd5b9080935081813d8311611118575b6110fc818361383a565b810103126111145761110d90613b01565b9138610fb6565b8580fd5b503d6110f2565b6040513d88823e3d90fd5b90508181813d8311611150575b611141818361383a565b81010312610443575138610f78565b503d611137565b6040513d87823e3d90fd5b6024847f4e487b710000000000000000000000000000000000000000000000000000000081526011600452fd5b508181813d83116111ce575b6111a5818361383a565b810103126111ca575165ffffffffffff811681036111ca5765ffffffffffff90610f22565b8480fd5b503d61119b565b9093508481813d83116111fd575b6111ed818361383a565b8101031261044357519238610ecf565b503d6111e3565b8161120e9161383a565b611219578138610e90565b5080fd5b50346104485760607ffffffffffffffffffffffffffffffffffffffffffffffffffffffffffffffffc360112610448576004359073ffffffffffffffffffffffffffffffffffffffff918281168091036104435780825260208281528360408420541691821561009c5783906064604051809581937fd0189a910000000000000000000000000000000000000000000000000000000083526004830152602435602483015260443560448301525afa9283156108b35780928194611361575b509093929160405194859460408601604087528351809152826060880194019185905b8282106113445750505050848203818601528080855193848152019401925b82811061132d57505050500390f35b83518552869550938101939281019260010161131e565b8351811686528998509484019492840192600191909101906112ff565b925092503d8084843e611374818461383a565b82019160408184031261146d57805167ffffffffffffffff908181116111145782019184601f84011215611114578251926113ae846139a1565b936113bc604051958661383a565b808552858086019160051b830101918783116114695786809101915b838310611451575091505081015191821161111457019280601f850112156111ca578351611405816139a1565b94611413604051968761383a565b818652848087019260051b8201019283116110ce5784809101915b83831061144157505050509192386112dc565b825181529181019185910161142e565b819061145c84613ae0565b81520191019086906113d8565b8880fd5b8380fd5b5034610448576101807ffffffffffffffffffffffffffffffffffffffffffffffffffffffffffffffffc3601126104485760043573ffffffffffffffffffffffffffffffffffffffff918282169283830361044357604435908082168203610443576064359080821682036104435760c07fffffffffffffffffffffffffffffffffffffffffffffffffffffffffffffff5c36011261146d576101643567ffffffffffffffff81116111ca5761152b903690600401613908565b611539608497929735613cbb565b6115468560243584613dc9565b96816116ef575b50506e22d473030f116ddee9f6b43ac78ba391823b15611114576040517f36c7851600000000000000000000000000000000000000000000000000000000815233600482015273ffffffffffffffffffffffffffffffffffffffff9283166024820152908716821660448201527f000000000000000000000000000000000000000000000000000000000000000090911660648201529084908290608490829084905af18015610438579084916116da575b5061160a8591613967565b95611618604051978861383a565b8487527fffffffffffffffffffffffffffffffffffffffffffffffffffffffffffffffe061164586613967565b019285602095869536878c013761168b6040519a8b96879586947f27ce385400000000000000000000000000000000000000000000000000000000865260048601613c7f565b03925af19182156108b357916116aa575b604080945051928352820152f35b80915083813d83116116d3575b6116c1818361383a565b8101031261044357604092519061169c565b503d6116b7565b816116e49161383a565b61040c5782386115ff565b6e22d473030f116ddee9f6b43ac78ba390813b1561176e5791879161174793836040518096819582947f2b67b57000000000000000000000000000000000000000000000000000000000845260a43360048601613f24565b03925af1801561111f579086911561154d57816117639161383a565b6111ca57843861154d565b8780fd5b503461044857807ffffffffffffffffffffffffffffffffffffffffffffffffffffffffffffffffc360112610448576020604051731111111254eeb25477b68fb85ed929f73a9605828152f35b50346104485760207ffffffffffffffffffffffffffffffffffffffffffffffffffffffffffffffffc360112610448576004359073ffffffffffffffffffffffffffffffffffffffff808316809303610443578180938192807f000000000000000000000000000000000000000000000000000000000000000016604051927f80ffbb88000000000000000000000000000000000000000000000000000000008452602084600481855afa938415611157578594611a63575b5084939291905b8386106118a35760408051898152602081018b9052908101889052606090f35b0390f35b90919293949597966040517f1ad4c8c300000000000000000000000000000000000000000000000000000000815287600482015260a09060249180828481895afa91821561098f579087918a918b94611a2b575b505016803b15611469578880916004604051809481937ffff6cae90000000000000000000000000000000000000000000000000000000083525af1801561098f578792918a91611a10575b505060405180937fbb3f673600000000000000000000000000000000000000000000000000000000825286600483015281610100948594165afa918215611a0557916119ba93916119b4938a908b928c946119c4575b50506119a8906119ae9394613c0a565b9b613c0a565b9a613c0a565b96613b73565b949392919061187f565b6119ae94506119a893506119ed9250803d106119fe575b6119e5818361383a565b810190613bcf565b505095945050509293819250611998565b503d6119db565b6040513d8a823e3d90fd5b8192935090611a1e9161383a565b61176e5785908838611942565b611a4f93945080919250903d10611a5c575b611a47818361383a565b810190613b1a565b50939250905038806118f7565b503d611a3d565b9093506020813d8211611a8e575b81611a7e6020938361383a565b8101031261044357519238611878565b3d9150611a71565b503461044857807ffffffffffffffffffffffffffffffffffffffffffffffffffffffffffffffffc360112610448576040517ff851a44000000000000000000000000000000000000000000000000000000000815273ffffffffffffffffffffffffffffffffffffffff602082600481847f0000000000000000000000000000000000000000000000000000000000000000165afa918215610418578392611b95575b5081163303611b6b5781904780611b4e575050f35b8280929181925af115611b5e5780f35b63b12d13eb90526004601cfd5b60046040517f1a19b036000000000000000000000000000000000000000000000000000000008152fd5b9091506020813d8211611bc8575b81611bb06020938361383a565b8101031261040c57611bc190613ae0565b9038611b39565b3d9150611ba3565b503461044857807ffffffffffffffffffffffffffffffffffffffffffffffffffffffffffffffffc36011261044857602060405173def171fe48cf0115b1d80b88dc8eab59176fee578152f35b50346104485760c07ffffffffffffffffffffffffffffffffffffffffffffffffffffffffffffffffc360112610448576004359073ffffffffffffffffffffffffffffffffffffffff908183169182840361044357604435908082168203610443576064359081168103610443576084359460a43567ffffffffffffffff81116111ca5795611d0e91611d07611cbb611d0098993690600401613908565b919093611cc781613cbb565b611cd48860243586613dc9565b998a957f0000000000000000000000000000000000000000000000000000000000000000943691613c48565b9083613ced565b3390614161565b8361160a84613967565b503461044857611d00611d07611d4e92611d7a611d363660046139b9565b92998a869993929695611d4884613cbb565b86613dc9565b9889957f0000000000000000000000000000000000000000000000000000000000000000943691613c48565b611d8381613967565b91611d91604051938461383a565b818352817fffffffffffffffffffffffffffffffffffffffffffffffffffffffffffffffe0611dbf82613967565b0191818073ffffffffffffffffffffffffffffffffffffffff6020998a9636888b0137611e1b604051998a97889687947f1e7dcc0d00000000000000000000000000000000000000000000000000000000865260048601613c7f565b0393165af19081156108b35750908391611e3a575b5050604051908152f35b813d8311611e5c575b611e4d818361383a565b81010312610443578138611e30565b503d611e43565b503461044857807ffffffffffffffffffffffffffffffffffffffffffffffffffffffffffffffffc360112610448576020604051736352a56caadc4f1e25cd6c75970fa768a3304e648152f35b50346104485760207ffffffffffffffffffffffffffffffffffffffffffffffffffffffffffffffffc360112610448576040517f1ad4c8c3000000000000000000000000000000000000000000000000000000008152600435600482015273ffffffffffffffffffffffffffffffffffffffff9060a081602481857f0000000000000000000000000000000000000000000000000000000000000000165afa9081156104185792826040926020958391611f77575b50168152808452205416604051908152f35b611f8f915060a03d8111611a5c57611a47818361383a565b509250505038611f65565b50346104485760407ffffffffffffffffffffffffffffffffffffffffffffffffffffffffffffffffc3601126104485760043567ffffffffffffffff81116112195736602382011215611219578060040135611ff5816139a1565b91612003604051938461383a565b8183526020908184016024809460051b830101913683116110ce578401905b8282106121ee57505050813573ffffffffffffffffffffffffffffffffffffffff8082168203610443576040517ff851a4400000000000000000000000000000000000000000000000000000000081528381600481857f0000000000000000000000000000000000000000000000000000000000000000165afa80156110d957829188916121b6575b50163303611b6b57855b85518110156121b2578484836120cb848a61414d565b5116604051928380927f70a082310000000000000000000000000000000000000000000000000000000082523060048301525afa908115611a05578891612185575b50848884898461212b575b505050505061212690613b73565b6120b5565b8260449261213b8860109461414d565b51168960145260349687526fa9059cbb00000000000000000000000082525af13d1560018a51141716156121785787905261212684888489612118565b6390b8ec1888526004601cfd5b90508481813d83116121ab575b61219c818361383a565b8101031261044357513861210d565b503d612192565b8680f35b809250858092503d83116121e7575b6121cf818361383a565b810103126110ce576121e18291613ae0565b386120ab565b503d6121c5565b813573ffffffffffffffffffffffffffffffffffffffff8116810361176e578152908301908301612022565b503461044857807ffffffffffffffffffffffffffffffffffffffffffffffffffffffffffffffffc3601126104485760206040516e22d473030f116ddee9f6b43ac78ba38152f35b50346104485760407ffffffffffffffffffffffffffffffffffffffffffffffffffffffffffffffffc3601126104485760043573ffffffffffffffffffffffffffffffffffffffff8082168092036104435760243590811680910361044357813b1561040c57826040517ffff6cae9000000000000000000000000000000000000000000000000000000008152818160048183885af18015610b7d576123a2575b50506060906024604051809481937f5d413fa200000000000000000000000000000000000000000000000000000000835260048301525afa8015610b7d578291839161236c575b5061189f90604051938493846040919493926060820195825260208201520152565b905061189f9250612394915060603d811161239b575b61238c818361383a565b810190613c17565b909261234a565b503d612382565b816123ac9161383a565b61040c578238612303565b503461044857807ffffffffffffffffffffffffffffffffffffffffffffffffffffffffffffffffc3601126104485761189f6123f36005613967565b612400604051918261383a565b600581527f312e302e3000000000000000000000000000000000000000000000000000000060208201526040519182916020835260208301906138aa565b503461044857807ffffffffffffffffffffffffffffffffffffffffffffffffffffffffffffffffc36011261044857602060405173e592427a0aece92de3edee1f18e0157c058615648152f35b503461044857807ffffffffffffffffffffffffffffffffffffffffffffffffffffffffffffffffc36011261044857602060405173def1c0ded9bec7f1a1670819833240f027b25eff8152f35b50346104485760407ffffffffffffffffffffffffffffffffffffffffffffffffffffffffffffffffc3601126104485760243573ffffffffffffffffffffffffffffffffffffffff9081811680910361044357817f0000000000000000000000000000000000000000000000000000000000000000166040517ff851a4400000000000000000000000000000000000000000000000000000000081526020908181600481865afa801561111f57859187916127cc575b50163303611b6b5760a0602492604051938480927f1ad4c8c300000000000000000000000000000000000000000000000000000000825260043560048301525afa9384156111575785869387966127a1575b50156127775785928484526001835260ff604085205416156126c9575b811683528282526004828260408620977fffffffffffffffffffffffff000000000000000000000000000000000000000098888a82541617905516808652604086208789825416179055604051928380927f6f307dc30000000000000000000000000000000000000000000000000000000082525afa908115610438578491612694575b5016825252604083209182541617905580f35b90508281813d83116126c2575b6126ab818361383a565b8101031261146d576126bc90613ae0565b38612681565b503d6126a1565b909192506002546801000000000000000081101561274a57918091856126f98560018b9897016002556002613a99565b819291549060031b85811b9283911b16911916179055858552600184526040852060017fffffffffffffffffffffffffffffffffffffffffffffffffffffffffffffff0082541617905590506125fd565b6024877f4e487b710000000000000000000000000000000000000000000000000000000081526041600452fd5b60046040517f51a9ca53000000000000000000000000000000000000000000000000000000008152fd5b919550506127be91925060a03d8111611a5c57611a47818361383a565b5095909392909150386125e0565b809250838092503d83116127fd575b6127e5818361383a565b81010312611114576127f78591613ae0565b3861258e565b503d6127db565b50346104485760e07ffffffffffffffffffffffffffffffffffffffffffffffffffffffffffffffffc360112610448576004359073ffffffffffffffffffffffffffffffffffffffff821682036104435773ffffffffffffffffffffffffffffffffffffffff60243516602435036104435773ffffffffffffffffffffffffffffffffffffffff606435166064350361044357600760a43510156104485760c43567ffffffffffffffff8111611219576128c2903690600401613936565b6128d0608494929435613cbb565b6128df60643560443584613dc9565b93604051917f6f307dc300000000000000000000000000000000000000000000000000000000835260208360048173ffffffffffffffffffffffffffffffffffffffff602435165afa928315611157578593612abf575b509260e0612a3a6020946129a8612a779573ffffffffffffffffffffffffffffffffffffffff99988a6040519461296f6101008761383a565b1684528a60243516898501528a871660408501523360608501528a6064351660808501528b60a085015261070860a43560c08601614030565b83820152612a0e60405193849288808501528a81511660408501528a898201511660608501528a60408201511660808501528a60608201511660a08501528a60808201511660c085015260a0810151828501526107c360c08201516101008601906140eb565b037fffffffffffffffffffffffffffffffffffffffffffffffffffffffffffffffe0810183528261383a565b846040519687809581947f27ce38540000000000000000000000000000000000000000000000000000000083528b60243560643560048601613c7f565b0393165af19081156108b35750612a94575b602082604051908152f35b602090813d8311612ab8575b612aaa818361383a565b810103126104435738612a89565b503d612aa0565b9092506020813d602011612b21575b81612adb6020938361383a565b810103126111ca579260e0612a3a6020946129a8612a7795612b1273ffffffffffffffffffffffffffffffffffffffff9a99613ae0565b97509550509295965050612936565b3d9150612ace565b5034610448576101407ffffffffffffffffffffffffffffffffffffffffffffffffffffffffffffffffc3601126104485760043573ffffffffffffffffffffffffffffffffffffffff9182821691828103610443576044359284841684036104435760643594851685036104435760807fffffffffffffffffffffffffffffffffffffffffffffffffffffffffffffff5c36011261040c57610124359467ffffffffffffffff861161146d57612bfe612be786973690600401613908565b969094612bf5608435613cbb565b60243590613dc9565b94604051612c0d60408261383a565b83815260209487868301526e22d473030f116ddee9f6b43ac78ba391823b1561176e5791612c739391888094604051968795869485937f30f28b7a000000000000000000000000000000000000000000000000000000008552339060a460048701613fc2565b03925af180156111575791858594928894612d0d575b50612c9381613967565b98612ca16040519a8b61383a565b818a527fffffffffffffffffffffffffffffffffffffffffffffffffffffffffffffffe0612cce83613967565b0136878c013761168b6040519a8b96879586947f27ce385400000000000000000000000000000000000000000000000000000000865260048601613c7f565b81939550612d1c92945061383a565b61146d57829185918538612c89565b50346104485760407ffffffffffffffffffffffffffffffffffffffffffffffffffffffffffffffffc3601126104485760043573ffffffffffffffffffffffffffffffffffffffff91828216809203610443576024359183831680930361044357803b15611219576040517ffff6cae9000000000000000000000000000000000000000000000000000000008152828160048183865af1801561041857908391612ef4575b50506020600491604051928380927fd8dfeb450000000000000000000000000000000000000000000000000000000082525afa908115610b7d578291612ebb575b50604051927fbb3f6736000000000000000000000000000000000000000000000000000000008452600484015282602481610100968794165afa9081156108b357809281828390849285948697612e8f575b50604051978852602088015260408701526060860152608085015260a084015260c083015260e0820152f35b9650505050505050612eae9150823d84116119fe576119e5818361383a565b9590949193919038612e63565b90506020813d8211612eec575b81612ed56020938361383a565b8101031261121957612ee690613ae0565b38612e11565b3d9150612ec8565b81612efe9161383a565b611219578138612dd0565b5034610448576020807ffffffffffffffffffffffffffffffffffffffffffffffffffffffffffffffffc3601126112195760043573ffffffffffffffffffffffffffffffffffffffff91828216809203610443576040517f80ffbb88000000000000000000000000000000000000000000000000000000008152849384937f00000000000000000000000000000000000000000000000000000000000000008216918484600481865afa938415611a05578894613146575b5092919087935b838510612fde5760408888888351928352820152f35b9091929395966040517f1ad4c8c300000000000000000000000000000000000000000000000000000000815287600482015260a0602491818184818a5afa90811561313b5785928d92613119575b50501691823b15613115578a6040517ffff6cae9000000000000000000000000000000000000000000000000000000008152818160048183895af18015610b7d57613100575b5050604051928380937f5d413fa200000000000000000000000000000000000000000000000000000000825287600483015260609485935afa8b81156108b3576130d3946119b49482936130dc575b50506130cd9192613c0a565b99613c0a565b93929190612fc8565b6130cd93506130f79250803d1061239b5761238c818361383a565b929050386130c1565b8161310a9161383a565b613115578a38613072565b8a80fd5b61312f9250803d10611a5c57611a47818361383a565b5050915050388061302c565b6040513d8e823e3d90fd5b9093508481813d831161316e575b61315e818361383a565b8101031261044357519238612fc1565b503d613154565b5034610448576101607ffffffffffffffffffffffffffffffffffffffffffffffffffffffffffffffffc3601126104485760043573ffffffffffffffffffffffffffffffffffffffff9182821690818303610443576044359380851685036104435760c07fffffffffffffffffffffffffffffffffffffffffffffffffffffffffffffff7c360112611219576101443567ffffffffffffffff811161040c57613222903690600401613908565b613230606496929635613cbb565b61323d8760243584613dc9565b95816133b2575b50506e22d473030f116ddee9f6b43ac78ba390813b1561146d576040517f36c7851600000000000000000000000000000000000000000000000000000000815233600482015273ffffffffffffffffffffffffffffffffffffffff9182166024820152928616811660448401527f000000000000000000000000000000000000000000000000000000000000000016606483015282908290608490829084905af18015610b7d5790829161339d575b506132fd90613967565b9161330b604051938461383a565b818352817fffffffffffffffffffffffffffffffffffffffffffffffffffffffffffffffe061333982613967565b01918180602098899536878a0137613380604051988996879586947f1e7dcc0d00000000000000000000000000000000000000000000000000000000865260048601613c7f565b03925af19081156108b35750908391611e3a575050604051908152f35b816133a79161383a565b6104485780386132f3565b6e22d473030f116ddee9f6b43ac78ba390813b156111145791859161340a93836040518096819582947f2b67b57000000000000000000000000000000000000000000000000000000000845260843360048601613f24565b03925af18015610438579084911561324457816134269161383a565b61040c578238613244565b5034610448576101207ffffffffffffffffffffffffffffffffffffffffffffffffffffffffffffffffc3601126104485760043573ffffffffffffffffffffffffffffffffffffffff808216928383036104485760443591821682036104485760807fffffffffffffffffffffffffffffffffffffffffffffffffffffffffffffff7c36011261044857610104359367ffffffffffffffff8511611219576134f06134e28495963690600401613908565b959096612bf5606435613cbb565b936040516134ff60408261383a565b82815260209686888301526e22d473030f116ddee9f6b43ac78ba391823b1561111457916135659391868094604051968795869485937f30f28b7a0000000000000000000000000000000000000000000000000000000085523390608460048701613fc2565b03925af180156104185790869291613600575b508290818061358681613967565b96613594604051988961383a565b8188527fffffffffffffffffffffffffffffffffffffffffffffffffffffffffffffffe06135c183613967565b0136878a0137613380604051988996879586947f1e7dcc0d00000000000000000000000000000000000000000000000000000000865260048601613c7f565b8361360d9194929461383a565b9138613578565b503461044857807ffffffffffffffffffffffffffffffffffffffffffffffffffffffffffffffffc360112610448576020600254604051908152f35b503461044857807ffffffffffffffffffffffffffffffffffffffffffffffffffffffffffffffffc36011261044857604051908060035491600183811c928185169485156137a9575b602095868610811461377c5785885287949392918790821561373b5750506001146136e1575b50506136cd9250038361383a565b61189f6040519282849384528301906138aa565b90859250600382527fc2575a0e9e593c00f959f8c92f12db2869c3395a3b0502d05e2516446f71f85b5b8583106137235750506136cd935082010138806136bf565b8054838901850152879450869390920191810161370b565b915093506136cd9592507fffffffffffffffffffffffffffffffffffffffffffffffffffffffffffffff0091501682840152151560051b82010138806136bf565b6024837f4e487b710000000000000000000000000000000000000000000000000000000081526022600452fd5b93607f1693613699565b9050346112195760207ffffffffffffffffffffffffffffffffffffffffffffffffffffffffffffffffc3601126112195760043573ffffffffffffffffffffffffffffffffffffffff9081811680910361146d5783604091602095528085522054168152f35b359073ffffffffffffffffffffffffffffffffffffffff8216820361044357565b90601f7fffffffffffffffffffffffffffffffffffffffffffffffffffffffffffffffe0910116810190811067ffffffffffffffff82111761387b57604052565b7f4e487b7100000000000000000000000000000000000000000000000000000000600052604160045260246000fd5b919082519283825260005b8481106138f45750507fffffffffffffffffffffffffffffffffffffffffffffffffffffffffffffffe0601f8460006020809697860101520116010190565b6020818301810151848301820152016138b5565b9181601f840112156104435782359167ffffffffffffffff8311610443576020838186019501011161044357565b9181601f840112156104435782359167ffffffffffffffff8311610443576020808501948460051b01011161044357565b67ffffffffffffffff811161387b57601f017fffffffffffffffffffffffffffffffffffffffffffffffffffffffffffffffe01660200190565b67ffffffffffffffff811161387b5760051b60200190565b91909160a081840312610443576139cf81613819565b926020820135926139e260408401613819565b92606081013592608082013567ffffffffffffffff811161044357613a079201613908565b9091565b916101208383031261044357613a2083613819565b92613a2d60208201613819565b92613a3a60408301613819565b9260608301359260808101359260a08201359267ffffffffffffffff9060c08401358281116104435783613a6f918601613908565b9490949360e08201356007811015610443579361010083013590811161044357613a079201613936565b8054821015613ab15760005260206000200190600090565b7f4e487b7100000000000000000000000000000000000000000000000000000000600052603260045260246000fd5b519073ffffffffffffffffffffffffffffffffffffffff8216820361044357565b51906bffffffffffffffffffffffff8216820361044357565b908160a09103126104435780518015158103610443579160208201516affffffffffffffffffffff811681036104435791613b5760408201613ae0565b91613b706080613b6960608501613ae0565b9301613b01565b90565b7fffffffffffffffffffffffffffffffffffffffffffffffffffffffffffffffff8114613ba05760010190565b7f4e487b7100000000000000000000000000000000000000000000000000000000600052601160045260246000fd5b9190826101009103126104435781519160208101519160408201519160608101519160808201519160a08101519160e060c083015192015190565b91908201809211613ba057565b90816060910312610443578051916040602083015192015190565b9190826040910312610443576020825192015190565b929192613c5482613967565b91613c62604051938461383a565b829481845281830111610443578281602093846000960137010152565b9092613b70949360809373ffffffffffffffffffffffffffffffffffffffff8092168452166020830152604082015281606082015201906138aa565b4211613cc357565b60046040517fc828cdf5000000000000000000000000000000000000000000000000000000008152fd5b919081518015613dc35782608091810103126104435760208201519260408301519360ff85168095036104435773ffffffffffffffffffffffffffffffffffffffff60806060860151950151921693843b156104435760009460e493869260405198899788967fd505accf00000000000000000000000000000000000000000000000000000000885233600489015230602489015260448801526064870152608486015260a485015260c48401525af18015613db757613daa5750565b6000613db59161383a565b565b6040513d6000823e3d90fd5b50505050565b909173ffffffffffffffffffffffffffffffffffffffff809216803b15610443576040928351927fa6afed95000000000000000000000000000000000000000000000000000000008452600093848160048183885af18015613ec8579086939291613eb3575b50602490835194859384927f7d6af0790000000000000000000000000000000000000000000000000000000084521660048301525afa928315613ea8578293613e87575b50505080821015613e82575090565b905090565b613e9e929350803d106103c0576103b2818361383a565b9050903880613e73565b51913d9150823e3d90fd5b94613ec1816024939761383a565b9490613e2f565b86513d87823e3d90fd5b359065ffffffffffff8216820361044357565b601f82602094937fffffffffffffffffffffffffffffffffffffffffffffffffffffffffffffffe0938186528686013760008582860101520116010190565b90939173ffffffffffffffffffffffffffffffffffffffff809516825284613f4b82613819565b16602083015260208101359085821680920361044357613b709560a092604085015265ffffffffffff80613f8160408501613ed2565b166060860152613f9360608401613ed2565b166080850152613fa560808301613819565b1682840152013560c0820152610100908160e08201520191613ee5565b91926020613b709694606073ffffffffffffffffffffffffffffffffffffffff9485613fed82613819565b16875283810135848801526040810135604088015201356060860152838151166080860152015160a08401521660c0820152610100908160e08201520191613ee5565b600782101561403c5752565b7f4e487b7100000000000000000000000000000000000000000000000000000000600052602160045260246000fd5b92919092614078846139a1565b91614086604051938461383a565b829480845260208094019060051b8301928284116104435780915b8483106140b057505050505050565b823567ffffffffffffffff811161044357820184601f820112156104435786916140e08683858095359101613c48565b8152019201916140a1565b90600782101561403c5752565b90815180825260208092019182818360051b85019501936000915b8483106141235750505050505090565b909192939495848061413d83856001950387528a516138aa565b9801930193019194939290614113565b8051821015613ab15760209160051b010190565b601c600060649281946020966040519860605260405260601b602c526f23b872dd000000000000000000000000600c525af13d156001600051141716156141ac576000606052604052565b637939f4246000526004601cfdfea164736f6c6343000811000a","opcodes":"PUSH1 0xE0 PUSH1 0x40 SWAP1 DUP1 DUP3 MSTORE CALLVALUE PUSH3 0x21D JUMPI DUP1 PUSH3 0x4445 DUP1 CODESIZE SUB DUP1 SWAP2 PUSH3 0x23 DUP3 DUP6 PUSH3 0x222 JUMP JUMPDEST DUP4 CODECOPY PUSH1 0x20 SWAP3 DUP4 SWAP2 DUP2 ADD SUB SLT PUSH3 0x21D JUMPI MLOAD PUSH1 0x1 PUSH1 0x1 PUSH1 0xA0 SHL SUB SWAP1 DUP2 DUP2 AND SWAP1 DUP2 DUP2 SUB PUSH3 0x21D JUMPI PUSH1 0x3 SLOAD PUSH1 0x1 SWAP1 DUP2 DUP2 DUP2 SHR SWAP2 AND DUP1 ISZERO PUSH3 0x212 JUMPI JUMPDEST DUP7 DUP3 LT EQ PUSH3 0x1FC JUMPI PUSH1 0x1F DUP2 GT PUSH3 0x1CD JUMPI JUMPDEST POP POP PUSH32 0x4379676E75733A20416C7461697220526F75746572000000000000000000002A PUSH1 0x3 SSTORE PUSH1 0x80 MSTORE DUP4 MLOAD PUSH4 0x1C2EB17B PUSH1 0xE3 SHL DUP2 MSTORE SWAP1 DUP4 DUP3 PUSH1 0x4 DUP2 DUP5 GAS STATICCALL SWAP3 DUP4 ISZERO PUSH3 0x1C2 JUMPI PUSH1 0x4 SWAP4 DUP6 SWAP4 PUSH1 0x0 SWAP2 PUSH3 0x1A0 JUMPI JUMPDEST POP AND PUSH1 0xC0 MSTORE DUP5 MLOAD PUSH4 0xD63A6CCD PUSH1 0xE0 SHL DUP2 MSTORE SWAP3 DUP4 SWAP2 DUP3 SWAP1 GAS STATICCALL SWAP2 DUP3 ISZERO PUSH3 0x195 JUMPI PUSH1 0x0 SWAP3 PUSH3 0x161 JUMPI JUMPDEST POP POP PUSH1 0xA0 MSTORE MLOAD PUSH2 0x41C7 SWAP1 DUP2 PUSH3 0x27E DUP3 CODECOPY PUSH1 0x80 MLOAD DUP2 DUP2 DUP2 PUSH2 0x503 ADD MSTORE DUP2 DUP2 PUSH2 0x181A ADD MSTORE DUP2 DUP2 PUSH2 0x1B09 ADD MSTORE DUP2 DUP2 PUSH2 0x1F2D ADD MSTORE DUP2 DUP2 PUSH2 0x207A ADD MSTORE DUP2 DUP2 PUSH2 0x252E ADD MSTORE PUSH2 0x2F89 ADD MSTORE PUSH1 0xA0 MLOAD DUP2 DUP2 DUP2 PUSH2 0xDD3 ADD MSTORE DUP2 DUP2 PUSH2 0x15BC ADD MSTORE DUP2 DUP2 PUSH2 0x1CD9 ADD MSTORE DUP2 DUP2 PUSH2 0x1D53 ADD MSTORE PUSH2 0x32B3 ADD MSTORE PUSH1 0xC0 MLOAD DUP2 PUSH2 0xA55 ADD MSTORE RETURN JUMPDEST PUSH3 0x185 SWAP3 POP DUP1 RETURNDATASIZE LT PUSH3 0x18D JUMPI JUMPDEST PUSH3 0x17C DUP2 DUP4 PUSH3 0x222 JUMP JUMPDEST DUP2 ADD SWAP1 PUSH3 0x25C JUMP JUMPDEST CODESIZE DUP1 PUSH3 0xED JUMP JUMPDEST POP RETURNDATASIZE PUSH3 0x170 JUMP JUMPDEST DUP4 MLOAD RETURNDATASIZE PUSH1 0x0 DUP3 RETURNDATACOPY RETURNDATASIZE SWAP1 REVERT JUMPDEST PUSH3 0x1BB SWAP2 POP DUP5 RETURNDATASIZE DUP7 GT PUSH3 0x18D JUMPI PUSH3 0x17C DUP2 DUP4 PUSH3 0x222 JUMP JUMPDEST CODESIZE PUSH3 0xC4 JUMP JUMPDEST DUP6 MLOAD RETURNDATASIZE PUSH1 0x0 DUP3 RETURNDATACOPY RETURNDATASIZE SWAP1 REVERT JUMPDEST PUSH1 0x3 PUSH1 0x0 MSTORE PUSH1 0x1F DUP7 PUSH1 0x0 KECCAK256 SWAP2 ADD PUSH1 0x5 SHR DUP2 ADD SWAP1 JUMPDEST DUP2 DUP2 LT PUSH3 0x1F0 JUMPI POP PUSH3 0x70 JUMP JUMPDEST PUSH1 0x0 DUP2 SSTORE DUP3 ADD PUSH3 0x1E1 JUMP JUMPDEST PUSH4 0x4E487B71 PUSH1 0xE0 SHL PUSH1 0x0 MSTORE PUSH1 0x22 PUSH1 0x4 MSTORE PUSH1 0x24 PUSH1 0x0 REVERT JUMPDEST SWAP1 PUSH1 0x7F AND SWAP1 PUSH3 0x5D JUMP JUMPDEST PUSH1 0x0 DUP1 REVERT JUMPDEST PUSH1 0x1F SWAP1 SWAP2 ADD PUSH1 0x1F NOT AND DUP2 ADD SWAP1 PUSH1 0x1 PUSH1 0x1 PUSH1 0x40 SHL SUB DUP3 GT SWAP1 DUP3 LT OR PUSH3 0x246 JUMPI PUSH1 0x40 MSTORE JUMP JUMPDEST PUSH4 0x4E487B71 PUSH1 0xE0 SHL PUSH1 0x0 MSTORE PUSH1 0x41 PUSH1 0x4 MSTORE PUSH1 0x24 PUSH1 0x0 REVERT JUMPDEST SWAP1 DUP2 PUSH1 0x20 SWAP2 SUB SLT PUSH3 0x21D JUMPI MLOAD PUSH1 0x1 PUSH1 0x1 PUSH1 0xA0 SHL SUB DUP2 AND DUP2 SUB PUSH3 0x21D JUMPI SWAP1 JUMP INVALID PUSH1 0xA0 DUP1 PUSH1 0x40 MSTORE PUSH1 0x4 CALLDATASIZE LT ISZERO PUSH2 0xC8 JUMPI JUMPDEST POP CALLDATASIZE ISZERO PUSH2 0xC6 JUMPI PUSH1 0x0 CALLER DUP2 MSTORE DUP1 PUSH1 0x20 MSTORE PUSH20 0xFFFFFFFFFFFFFFFFFFFFFFFFFFFFFFFFFFFFFFFF PUSH1 0x40 DUP3 KECCAK256 SLOAD AND DUP1 ISZERO PUSH2 0x9C JUMPI DUP2 DUP1 SWAP2 PUSH1 0x40 MLOAD CALLDATASIZE DUP4 DUP3 CALLDATACOPY DUP1 CALLDATASIZE DUP2 ADD DUP5 DUP2 MSTORE SUB SWAP2 GAS DELEGATECALL RETURNDATASIZE ISZERO PUSH2 0x93 JUMPI RETURNDATASIZE PUSH2 0x65 DUP2 PUSH2 0x3967 JUMP JUMPDEST SWAP1 PUSH2 0x73 PUSH1 0x40 MLOAD SWAP3 DUP4 PUSH2 0x383A JUMP JUMPDEST DUP2 MSTORE DUP1 SWAP3 PUSH1 0x20 RETURNDATASIZE SWAP3 ADD RETURNDATACOPY JUMPDEST ISZERO PUSH2 0x8B JUMPI PUSH1 0x20 DUP2 MLOAD SWAP2 ADD RETURN JUMPDEST PUSH1 0x20 DUP2 MLOAD SWAP2 ADD REVERT JUMPDEST PUSH1 0x60 SWAP2 POP PUSH2 0x7E JUMP JUMPDEST PUSH1 0x4 PUSH1 0x40 MLOAD PUSH32 0xD4DE0F1600000000000000000000000000000000000000000000000000000000 DUP2 MSTORE REVERT JUMPDEST STOP JUMPDEST PUSH1 0x0 SWAP1 DUP2 CALLDATALOAD PUSH1 0xE0 SHR SWAP1 DUP2 PUSH4 0x1CE1F6E EQ PUSH2 0x37B3 JUMPI POP DUP1 PUSH4 0x6FDDE03 EQ PUSH2 0x3650 JUMPI DUP1 PUSH4 0xC0CF11A EQ PUSH2 0x3614 JUMPI DUP1 PUSH4 0xE12D008 EQ PUSH2 0x3431 JUMPI DUP1 PUSH4 0xF22D435 EQ PUSH2 0x3175 JUMPI DUP1 PUSH4 0x14016D21 EQ PUSH2 0x2F09 JUMPI DUP1 PUSH4 0x1B18FF8A EQ PUSH2 0x2D2B JUMPI DUP1 PUSH4 0x21A5E908 EQ PUSH2 0x2B29 JUMPI DUP1 PUSH4 0x2A90E82F EQ PUSH2 0x2804 JUMPI DUP1 PUSH4 0x2D6BF1F9 EQ PUSH2 0x24D8 JUMPI DUP1 PUSH4 0x2F764135 EQ PUSH2 0x248B JUMPI DUP1 PUSH4 0x41C64A2F EQ PUSH2 0x243E JUMPI DUP1 PUSH4 0x54FD4D50 EQ PUSH2 0x23B7 JUMPI DUP1 PUSH4 0x668E143D EQ PUSH2 0x2262 JUMPI DUP1 PUSH4 0x6AFDD850 EQ PUSH2 0x221A JUMPI DUP1 PUSH4 0x7071F0C4 EQ PUSH2 0x1F9A JUMPI DUP1 PUSH4 0x70BF79C6 EQ PUSH2 0x1EB0 JUMPI DUP1 PUSH4 0x72E05064 EQ PUSH2 0x1E63 JUMPI DUP1 PUSH4 0x76C05F65 EQ PUSH2 0x1D18 JUMPI DUP1 PUSH4 0x7F32D8F4 EQ PUSH2 0x1C1D JUMPI DUP1 PUSH4 0x88A799F6 EQ PUSH2 0x1BD0 JUMPI DUP1 PUSH4 0xAB803A76 EQ PUSH2 0x1A96 JUMPI DUP1 PUSH4 0xB8FEB704 EQ PUSH2 0x17BF JUMPI DUP1 PUSH4 0xBDCB9932 EQ PUSH2 0x1772 JUMPI DUP1 PUSH4 0xC2A95DDF EQ PUSH2 0x1471 JUMPI DUP1 PUSH4 0xD0189A91 EQ PUSH2 0x121D JUMPI DUP1 PUSH4 0xD6366512 EQ PUSH2 0xDF7 JUMPI DUP1 PUSH4 0xD63A6CCD EQ PUSH2 0xD88 JUMPI DUP1 PUSH4 0xD6906D23 EQ PUSH2 0xB88 JUMPI DUP1 PUSH4 0xDBE5F2FB EQ PUSH2 0xA79 JUMPI DUP1 PUSH4 0xE1758BD8 EQ PUSH2 0xA0A JUMPI DUP1 PUSH4 0xE731F6D1 EQ PUSH2 0x99A JUMPI DUP1 PUSH4 0xE75EE2E3 EQ PUSH2 0x527 JUMPI DUP1 PUSH4 0xE8A24E1D EQ PUSH2 0x4B8 JUMPI DUP1 PUSH4 0xF847ED48 EQ PUSH2 0x44B JUMPI PUSH4 0xFC4BCDA9 SUB PUSH2 0xF JUMPI CALLVALUE PUSH2 0x448 JUMPI PUSH1 0x40 PUSH32 0xFFFFFFFFFFFFFFFFFFFFFFFFFFFFFFFFFFFFFFFFFFFFFFFFFFFFFFFFFFFFFFFC CALLDATASIZE ADD SLT PUSH2 0x448 JUMPI PUSH1 0x4 CALLDATALOAD SWAP1 PUSH20 0xFFFFFFFFFFFFFFFFFFFFFFFFFFFFFFFFFFFFFFFF SWAP2 DUP3 DUP2 AND DUP1 SWAP2 SUB PUSH2 0x443 JUMPI PUSH1 0x24 CALLDATALOAD SWAP1 DUP4 DUP3 AND DUP1 SWAP3 SUB PUSH2 0x443 JUMPI DUP1 EXTCODESIZE ISZERO PUSH2 0x40C JUMPI PUSH1 0x40 MLOAD PUSH32 0xFFF6CAE900000000000000000000000000000000000000000000000000000000 DUP2 MSTORE DUP4 DUP2 PUSH1 0x4 DUP2 DUP4 DUP7 GAS CALL DUP1 ISZERO PUSH2 0x438 JUMPI SWAP1 DUP5 SWAP2 PUSH2 0x423 JUMPI JUMPDEST POP POP PUSH1 0x20 PUSH1 0x4 SWAP2 PUSH1 0x40 MLOAD SWAP3 DUP4 DUP1 SWAP3 PUSH32 0xD8DFEB4500000000000000000000000000000000000000000000000000000000 DUP3 MSTORE GAS STATICCALL SWAP1 DUP2 ISZERO PUSH2 0x418 JUMPI DUP4 SWAP2 PUSH2 0x3D4 JUMPI JUMPDEST POP PUSH1 0x24 PUSH1 0x40 SWAP3 DUP4 MLOAD SWAP6 DUP7 SWAP4 DUP5 SWAP3 PUSH32 0x5EC88C7900000000000000000000000000000000000000000000000000000000 DUP5 MSTORE PUSH1 0x4 DUP5 ADD MSTORE AND GAS STATICCALL DUP1 ISZERO PUSH2 0x3C7 JUMPI PUSH1 0x40 SWAP3 DUP3 SWAP2 PUSH2 0x398 JUMPI JUMPDEST POP DUP3 MLOAD SWAP2 DUP3 MSTORE PUSH1 0x20 DUP3 ADD MSTORE RETURN JUMPDEST SWAP1 POP PUSH2 0x3BA SWAP2 POP DUP3 RETURNDATASIZE DUP5 GT PUSH2 0x3C0 JUMPI JUMPDEST PUSH2 0x3B2 DUP2 DUP4 PUSH2 0x383A JUMP JUMPDEST DUP2 ADD SWAP1 PUSH2 0x3C32 JUMP JUMPDEST CODESIZE PUSH2 0x38B JUMP JUMPDEST POP RETURNDATASIZE PUSH2 0x3A8 JUMP JUMPDEST POP PUSH1 0x40 MLOAD SWAP1 RETURNDATASIZE SWAP1 DUP3 RETURNDATACOPY RETURNDATASIZE SWAP1 REVERT JUMPDEST SWAP1 POP PUSH1 0x20 DUP2 RETURNDATASIZE DUP3 GT PUSH2 0x410 JUMPI JUMPDEST DUP2 PUSH2 0x3EE PUSH1 0x20 SWAP4 DUP4 PUSH2 0x383A JUMP JUMPDEST DUP2 ADD SUB SLT PUSH2 0x40C JUMPI SWAP1 PUSH1 0x24 PUSH2 0x404 PUSH1 0x40 SWAP4 PUSH2 0x3AE0 JUMP JUMPDEST SWAP2 SWAP3 POP PUSH2 0x343 JUMP JUMPDEST DUP3 DUP1 REVERT JUMPDEST RETURNDATASIZE SWAP2 POP PUSH2 0x3E1 JUMP JUMPDEST PUSH1 0x40 MLOAD RETURNDATASIZE DUP6 DUP3 RETURNDATACOPY RETURNDATASIZE SWAP1 REVERT JUMPDEST DUP2 PUSH2 0x42D SWAP2 PUSH2 0x383A JUMP JUMPDEST PUSH2 0x40C JUMPI DUP3 CODESIZE PUSH2 0x302 JUMP JUMPDEST PUSH1 0x40 MLOAD RETURNDATASIZE DUP7 DUP3 RETURNDATACOPY RETURNDATASIZE SWAP1 REVERT JUMPDEST PUSH1 0x0 DUP1 REVERT JUMPDEST DUP1 REVERT JUMPDEST POP CALLVALUE PUSH2 0x448 JUMPI PUSH1 0x20 PUSH32 0xFFFFFFFFFFFFFFFFFFFFFFFFFFFFFFFFFFFFFFFFFFFFFFFFFFFFFFFFFFFFFFFC CALLDATASIZE ADD SLT PUSH2 0x448 JUMPI PUSH1 0x4 CALLDATALOAD SWAP1 PUSH20 0xFFFFFFFFFFFFFFFFFFFFFFFFFFFFFFFFFFFFFFFF DUP3 AND DUP1 SWAP3 SUB PUSH2 0x443 JUMPI PUSH1 0x40 DUP2 PUSH1 0x20 SWAP4 PUSH1 0xFF SWAP4 MSTORE PUSH1 0x1 DUP5 MSTORE KECCAK256 SLOAD AND PUSH1 0x40 MLOAD SWAP1 ISZERO ISZERO DUP2 MSTORE RETURN JUMPDEST POP CALLVALUE PUSH2 0x448 JUMPI DUP1 PUSH32 0xFFFFFFFFFFFFFFFFFFFFFFFFFFFFFFFFFFFFFFFFFFFFFFFFFFFFFFFFFFFFFFFC CALLDATASIZE ADD SLT PUSH2 0x448 JUMPI PUSH1 0x20 PUSH1 0x40 MLOAD PUSH20 0xFFFFFFFFFFFFFFFFFFFFFFFFFFFFFFFFFFFFFFFF PUSH32 0x0 AND DUP2 MSTORE RETURN JUMPDEST POP CALLVALUE PUSH2 0x448 JUMPI PUSH2 0x561 SWAP1 PUSH2 0x55A PUSH2 0x53F CALLDATASIZE PUSH1 0x4 PUSH2 0x3A0B JUMP JUMPDEST SWAP8 SWAP10 SWAP13 SWAP4 SWAP1 SWAP9 SWAP11 SWAP2 SWAP7 SWAP5 SWAP3 PUSH2 0x553 DUP5 PUSH2 0x3CBB JUMP JUMPDEST CALLDATASIZE SWAP2 PUSH2 0x3C48 JUMP JUMPDEST SWAP1 DUP10 PUSH2 0x3CED JUMP JUMPDEST PUSH1 0x40 MLOAD PUSH32 0x18160DDD00000000000000000000000000000000000000000000000000000000 DUP2 MSTORE PUSH1 0x20 DUP2 PUSH1 0x4 DUP2 PUSH20 0xFFFFFFFFFFFFFFFFFFFFFFFFFFFFFFFFFFFFFFFF DUP13 AND GAS STATICCALL SWAP1 DUP2 ISZERO PUSH2 0x98F JUMPI DUP10 SWAP2 PUSH2 0x95D JUMPI JUMPDEST POP PUSH1 0x40 MLOAD SWAP1 PUSH32 0x1E1D11400000000000000000000000000000000000000000000000000000000 DUP3 MSTORE PUSH1 0x20 DUP3 PUSH1 0x4 DUP2 PUSH20 0xFFFFFFFFFFFFFFFFFFFFFFFFFFFFFFFFFFFFFFFF DUP14 AND GAS STATICCALL SWAP2 DUP3 ISZERO PUSH2 0x952 JUMPI DUP11 SWAP3 PUSH2 0x91E JUMPI JUMPDEST POP PUSH32 0xFFFFFFFFFFFFFFFFFFFFFFFFFFFFFFFFFFFFFFFFFFFFFFFFFFFFFFFFFFFFFFFF DUP3 DUP5 MULMOD DUP4 DUP4 MUL DUP1 DUP3 LT ADD DUP1 DUP3 EQ PUSH2 0x8CC JUMPI DUP1 DUP3 SUB DUP4 GT ISZERO PUSH2 0x8BF JUMPI SWAP6 PUSH2 0x863 SWAP13 SWAP6 DUP6 PUSH20 0xFFFFFFFFFFFFFFFFFFFFFFFFFFFFFFFFFFFFFFFF DUP15 DUP8 PUSH1 0x20 SWAP16 SWAP14 SWAP9 SWAP8 PUSH1 0xE0 SWAP16 SWAP14 SWAP9 SWAP8 PUSH2 0x805 SWAP14 DUP3 PUSH2 0x708 SWAP11 PUSH2 0x70F SWAP15 MULMOD SWAP2 PUSH1 0x1 DUP5 DUP8 SUB DUP6 AND DUP1 DUP1 DUP1 SWAP8 DIV PUSH1 0x2 DUP1 DUP3 PUSH1 0x3 MUL XOR DUP1 DUP4 MUL DUP3 SUB MUL DUP1 DUP4 MUL DUP3 SUB MUL DUP1 DUP4 MUL DUP3 SUB MUL DUP1 DUP4 MUL DUP3 SUB MUL DUP1 DUP4 MUL DUP3 SUB MUL DUP1 SWAP3 MUL SWAP1 SUB MUL SWAP9 SUB DIV ADD SWAP2 DUP6 DUP10 MUL DUP5 GT SWAP2 SUB SUB MUL SWAP3 DUP7 MUL SUB DIV OR MUL SWAP11 JUMPDEST DUP2 PUSH1 0x40 MLOAD SWAP11 PUSH2 0x6DF PUSH2 0x100 DUP14 PUSH2 0x383A JUMP JUMPDEST AND DUP11 MSTORE DUP2 DUP14 AND DUP16 DUP12 ADD MSTORE AND PUSH1 0x40 DUP10 ADD MSTORE CALLER PUSH1 0x60 DUP10 ADD MSTORE PUSH1 0x80 DUP9 ADD MSTORE PUSH1 0xA0 DUP8 ADD MSTORE PUSH1 0xC0 DUP7 ADD PUSH2 0x4030 JUMP JUMPDEST CALLDATASIZE SWAP2 PUSH2 0x406B JUMP JUMPDEST DUP6 DUP3 ADD MSTORE PUSH2 0x7D9 PUSH1 0x40 MLOAD SWAP6 DUP7 SWAP3 DUP9 DUP1 DUP6 ADD MSTORE PUSH20 0xFFFFFFFFFFFFFFFFFFFFFFFFFFFFFFFFFFFFFFFF DUP2 MLOAD AND PUSH1 0x40 DUP6 ADD MSTORE PUSH20 0xFFFFFFFFFFFFFFFFFFFFFFFFFFFFFFFFFFFFFFFF DUP10 DUP3 ADD MLOAD AND PUSH1 0x60 DUP6 ADD MSTORE PUSH20 0xFFFFFFFFFFFFFFFFFFFFFFFFFFFFFFFFFFFFFFFF PUSH1 0x40 DUP3 ADD MLOAD AND PUSH1 0x80 DUP6 ADD MSTORE PUSH20 0xFFFFFFFFFFFFFFFFFFFFFFFFFFFFFFFFFFFFFFFF PUSH1 0x60 DUP3 ADD MLOAD AND PUSH1 0xA0 DUP6 ADD MSTORE PUSH1 0x80 DUP2 ADD MLOAD PUSH1 0xC0 DUP6 ADD MSTORE PUSH1 0xA0 DUP2 ADD MLOAD DUP3 DUP6 ADD MSTORE PUSH2 0x7C3 PUSH1 0xC0 DUP3 ADD MLOAD PUSH2 0x100 DUP7 ADD SWAP1 PUSH2 0x40EB JUMP JUMPDEST ADD MLOAD PUSH2 0x100 PUSH2 0x120 DUP5 ADD MSTORE PUSH2 0x140 DUP4 ADD SWAP1 PUSH2 0x40F8 JUMP JUMPDEST SUB PUSH32 0xFFFFFFFFFFFFFFFFFFFFFFFFFFFFFFFFFFFFFFFFFFFFFFFFFFFFFFFFFFFFFFE0 DUP2 ADD DUP6 MSTORE DUP5 PUSH2 0x383A JUMP JUMPDEST DUP5 PUSH20 0xFFFFFFFFFFFFFFFFFFFFFFFFFFFFFFFFFFFFFFFF PUSH1 0x40 MLOAD DUP1 SWAP9 DUP2 SWAP7 DUP3 SWAP6 PUSH32 0xFA14FDC200000000000000000000000000000000000000000000000000000000 DUP5 MSTORE ADDRESS PUSH1 0x4 DUP6 ADD MSTORE PUSH1 0x24 DUP5 ADD MSTORE PUSH1 0x60 PUSH1 0x44 DUP5 ADD MSTORE PUSH1 0x64 DUP4 ADD SWAP1 PUSH2 0x38AA JUMP JUMPDEST SUB SWAP4 AND GAS CALL SWAP1 DUP2 ISZERO PUSH2 0x8B3 JUMPI SWAP1 PUSH2 0x880 JUMPI JUMPDEST PUSH1 0x20 SWAP1 PUSH1 0x40 MLOAD SWAP1 DUP2 MSTORE RETURN JUMPDEST POP PUSH1 0x20 DUP2 RETURNDATASIZE PUSH1 0x20 GT PUSH2 0x8AB JUMPI JUMPDEST DUP2 PUSH2 0x89A PUSH1 0x20 SWAP4 DUP4 PUSH2 0x383A JUMP JUMPDEST DUP2 ADD SUB SLT PUSH2 0x443 JUMPI PUSH1 0x20 SWAP1 MLOAD PUSH2 0x875 JUMP JUMPDEST RETURNDATASIZE SWAP2 POP PUSH2 0x88D JUMP JUMPDEST PUSH1 0x40 MLOAD SWAP1 RETURNDATASIZE SWAP1 DUP3 RETURNDATACOPY RETURNDATASIZE SWAP1 REVERT JUMPDEST PUSH4 0xAE47F702 DUP13 MSTORE PUSH1 0x4 PUSH1 0x1C REVERT JUMPDEST POP POP SWAP1 DUP2 SWAP11 SWAP8 SWAP9 SWAP11 ISZERO PUSH2 0x911 JUMPI SWAP5 PUSH2 0x708 PUSH2 0x805 SWAP6 PUSH1 0xE0 SWAP10 SWAP6 DUP6 PUSH20 0xFFFFFFFFFFFFFFFFFFFFFFFFFFFFFFFFFFFFFFFF PUSH2 0x863 SWAP16 SWAP12 SWAP7 PUSH1 0x20 SWAP15 SWAP12 PUSH2 0x70F SWAP10 MUL DIV SWAP11 PUSH2 0x6CE JUMP JUMPDEST PUSH4 0xAE47F702 DUP11 MSTORE PUSH1 0x4 PUSH1 0x1C REVERT JUMPDEST SWAP1 SWAP2 POP PUSH1 0x20 DUP2 RETURNDATASIZE PUSH1 0x20 GT PUSH2 0x94A JUMPI JUMPDEST DUP2 PUSH2 0x93A PUSH1 0x20 SWAP4 DUP4 PUSH2 0x383A JUMP JUMPDEST DUP2 ADD SUB SLT PUSH2 0x443 JUMPI MLOAD SWAP1 CODESIZE PUSH2 0x609 JUMP JUMPDEST RETURNDATASIZE SWAP2 POP PUSH2 0x92D JUMP JUMPDEST PUSH1 0x40 MLOAD RETURNDATASIZE DUP13 DUP3 RETURNDATACOPY RETURNDATASIZE SWAP1 REVERT JUMPDEST SWAP1 POP PUSH1 0x20 DUP2 RETURNDATASIZE PUSH1 0x20 GT PUSH2 0x987 JUMPI JUMPDEST DUP2 PUSH2 0x978 PUSH1 0x20 SWAP4 DUP4 PUSH2 0x383A JUMP JUMPDEST DUP2 ADD SUB SLT PUSH2 0x443 JUMPI MLOAD CODESIZE PUSH2 0x5B4 JUMP JUMPDEST RETURNDATASIZE SWAP2 POP PUSH2 0x96B JUMP JUMPDEST PUSH1 0x40 MLOAD RETURNDATASIZE DUP12 DUP3 RETURNDATACOPY RETURNDATASIZE SWAP1 REVERT JUMPDEST POP CALLVALUE PUSH2 0x448 JUMPI PUSH1 0x20 PUSH32 0xFFFFFFFFFFFFFFFFFFFFFFFFFFFFFFFFFFFFFFFFFFFFFFFFFFFFFFFFFFFFFFFC CALLDATASIZE ADD SLT PUSH2 0x448 JUMPI PUSH1 0x4 CALLDATALOAD SWAP1 PUSH1 0x2 SLOAD DUP3 LT ISZERO PUSH2 0x448 JUMPI PUSH1 0x20 PUSH20 0xFFFFFFFFFFFFFFFFFFFFFFFFFFFFFFFFFFFFFFFF PUSH2 0x9FA DUP5 PUSH1 0x2 PUSH2 0x3A99 JUMP JUMPDEST SWAP2 SWAP1 SLOAD PUSH1 0x40 MLOAD SWAP3 PUSH1 0x3 SHL SHR AND DUP2 MSTORE RETURN JUMPDEST POP CALLVALUE PUSH2 0x448 JUMPI DUP1 PUSH32 0xFFFFFFFFFFFFFFFFFFFFFFFFFFFFFFFFFFFFFFFFFFFFFFFFFFFFFFFFFFFFFFFC CALLDATASIZE ADD SLT PUSH2 0x448 JUMPI PUSH1 0x20 PUSH1 0x40 MLOAD PUSH20 0xFFFFFFFFFFFFFFFFFFFFFFFFFFFFFFFFFFFFFFFF PUSH32 0x0 AND DUP2 MSTORE RETURN JUMPDEST POP CALLVALUE PUSH2 0x448 JUMPI PUSH2 0xB42 PUSH1 0x20 PUSH2 0xAAB PUSH2 0xAA4 PUSH2 0xA95 CALLDATASIZE PUSH1 0x4 PUSH2 0x39B9 JUMP JUMPDEST PUSH2 0x553 DUP4 SWAP5 SWAP9 SWAP6 SWAP7 SWAP8 SWAP4 PUSH2 0x3CBB JUMP JUMPDEST SWAP1 DUP5 PUSH2 0x3CED JUMP JUMPDEST DUP6 PUSH20 0xFFFFFFFFFFFFFFFFFFFFFFFFFFFFFFFFFFFFFFFF PUSH2 0xACA DUP3 PUSH2 0x3967 JUMP JUMPDEST SWAP5 PUSH2 0xAD8 PUSH1 0x40 MLOAD SWAP7 DUP8 PUSH2 0x383A JUMP JUMPDEST DUP3 DUP7 MSTORE PUSH32 0xFFFFFFFFFFFFFFFFFFFFFFFFFFFFFFFFFFFFFFFFFFFFFFFFFFFFFFFFFFFFFFE0 PUSH2 0xB05 DUP5 PUSH2 0x3967 JUMP JUMPDEST ADD CALLDATASIZE DUP9 DUP9 ADD CALLDATACOPY PUSH1 0x40 MLOAD SWAP8 DUP9 SWAP7 DUP8 SWAP6 DUP7 SWAP4 PUSH32 0x1E7DCC0D00000000000000000000000000000000000000000000000000000000 DUP6 MSTORE CALLER PUSH1 0x4 DUP7 ADD PUSH2 0x3C7F JUMP JUMPDEST SUB SWAP4 AND GAS CALL DUP1 ISZERO PUSH2 0xB7D JUMPI PUSH2 0xB55 JUMPI POP DUP1 RETURN JUMPDEST PUSH1 0x20 SWAP1 DUP2 RETURNDATASIZE DUP2 GT PUSH2 0xB76 JUMPI JUMPDEST PUSH2 0xB6B DUP2 DUP4 PUSH2 0x383A JUMP JUMPDEST DUP2 ADD SUB SLT PUSH2 0x443 JUMPI DUP1 RETURN JUMPDEST POP RETURNDATASIZE PUSH2 0xB61 JUMP JUMPDEST PUSH1 0x40 MLOAD RETURNDATASIZE DUP5 DUP3 RETURNDATACOPY RETURNDATASIZE SWAP1 REVERT JUMPDEST POP CALLVALUE PUSH2 0x448 JUMPI PUSH2 0xD53 SWAP1 PUSH1 0x20 PUSH1 0xC0 PUSH2 0xBE9 PUSH2 0xD1D PUSH20 0xFFFFFFFFFFFFFFFFFFFFFFFFFFFFFFFFFFFFFFFF PUSH2 0xC33 PUSH2 0xBE0 PUSH2 0x708 PUSH2 0xBC5 CALLDATASIZE PUSH1 0x4 PUSH2 0x3A0B JUMP JUMPDEST SWAP11 SWAP10 SWAP14 SWAP7 SWAP16 SWAP5 SWAP4 SWAP2 SWAP9 SWAP6 SWAP8 PUSH1 0x80 SWAP13 SWAP4 SWAP2 SWAP13 MSTORE PUSH2 0x553 DUP5 PUSH2 0x3CBB JUMP JUMPDEST SWAP1 PUSH1 0x80 MLOAD PUSH2 0x3CED JUMP JUMPDEST DUP2 PUSH1 0x40 MLOAD SWAP10 PUSH2 0xBF9 PUSH1 0xE0 DUP13 PUSH2 0x383A JUMP JUMPDEST AND DUP10 MSTORE AND DUP12 DUP9 ADD MSTORE PUSH20 0xFFFFFFFFFFFFFFFFFFFFFFFFFFFFFFFFFFFFFFFF PUSH1 0x80 MLOAD AND PUSH1 0x40 DUP9 ADD MSTORE CALLER PUSH1 0x60 DUP9 ADD MSTORE PUSH1 0x80 DUP8 ADD MSTORE PUSH1 0xA0 DUP7 ADD PUSH2 0x4030 JUMP JUMPDEST DUP5 DUP3 ADD MSTORE PUSH2 0xCF1 PUSH1 0x40 MLOAD SWAP5 DUP6 SWAP3 DUP8 DUP1 DUP6 ADD MSTORE PUSH20 0xFFFFFFFFFFFFFFFFFFFFFFFFFFFFFFFFFFFFFFFF DUP2 MLOAD AND PUSH1 0x40 DUP6 ADD MSTORE PUSH20 0xFFFFFFFFFFFFFFFFFFFFFFFFFFFFFFFFFFFFFFFF DUP9 DUP3 ADD MLOAD AND PUSH1 0x60 DUP6 ADD MSTORE PUSH20 0xFFFFFFFFFFFFFFFFFFFFFFFFFFFFFFFFFFFFFFFF PUSH1 0x40 DUP3 ADD MLOAD AND PUSH1 0x80 DUP6 ADD MSTORE PUSH20 0xFFFFFFFFFFFFFFFFFFFFFFFFFFFFFFFFFFFFFFFF PUSH1 0x60 DUP3 ADD MLOAD AND PUSH1 0xA0 DUP6 ADD MSTORE PUSH1 0x80 DUP2 ADD MLOAD DUP3 DUP6 ADD MSTORE PUSH2 0xCDC PUSH1 0xA0 DUP3 ADD MLOAD PUSH1 0xE0 DUP7 ADD SWAP1 PUSH2 0x40EB JUMP JUMPDEST ADD MLOAD PUSH1 0xE0 PUSH2 0x100 DUP5 ADD MSTORE PUSH2 0x120 DUP4 ADD SWAP1 PUSH2 0x40F8 JUMP JUMPDEST SUB PUSH32 0xFFFFFFFFFFFFFFFFFFFFFFFFFFFFFFFFFFFFFFFFFFFFFFFFFFFFFFFFFFFFFFE0 DUP2 ADD DUP5 MSTORE DUP4 PUSH2 0x383A JUMP JUMPDEST PUSH1 0x40 MLOAD SWAP5 DUP6 SWAP3 DUP4 SWAP3 PUSH32 0x1E7DCC0D00000000000000000000000000000000000000000000000000000000 DUP5 MSTORE ADDRESS CALLER PUSH1 0x4 DUP7 ADD PUSH2 0x3C7F JUMP JUMPDEST SUB DUP2 DUP5 PUSH20 0xFFFFFFFFFFFFFFFFFFFFFFFFFFFFFFFFFFFFFFFF PUSH1 0x80 MLOAD AND GAS CALL SWAP1 DUP2 ISZERO PUSH2 0x8B3 JUMPI SWAP1 PUSH2 0x880 JUMPI PUSH1 0x20 SWAP1 PUSH1 0x40 MLOAD SWAP1 DUP2 MSTORE RETURN JUMPDEST POP CALLVALUE PUSH2 0x448 JUMPI DUP1 PUSH32 0xFFFFFFFFFFFFFFFFFFFFFFFFFFFFFFFFFFFFFFFFFFFFFFFFFFFFFFFFFFFFFFFC CALLDATASIZE ADD SLT PUSH2 0x448 JUMPI PUSH1 0x20 PUSH1 0x40 MLOAD PUSH20 0xFFFFFFFFFFFFFFFFFFFFFFFFFFFFFFFFFFFFFFFF PUSH32 0x0 AND DUP2 MSTORE RETURN JUMPDEST POP CALLVALUE PUSH2 0x448 JUMPI PUSH1 0x20 SWAP1 DUP2 PUSH32 0xFFFFFFFFFFFFFFFFFFFFFFFFFFFFFFFFFFFFFFFFFFFFFFFFFFFFFFFFFFFFFFFC CALLDATASIZE ADD SLT PUSH2 0x448 JUMPI PUSH1 0x4 CALLDATALOAD SWAP1 PUSH20 0xFFFFFFFFFFFFFFFFFFFFFFFFFFFFFFFFFFFFFFFF DUP1 DUP4 AND DUP1 SWAP4 SUB PUSH2 0x443 JUMPI DUP3 EXTCODESIZE ISZERO PUSH2 0x1219 JUMPI PUSH1 0x40 MLOAD PUSH32 0xFFF6CAE900000000000000000000000000000000000000000000000000000000 DUP2 MSTORE DUP3 DUP2 PUSH1 0x4 DUP2 DUP4 DUP9 GAS CALL DUP1 ISZERO PUSH2 0x418 JUMPI SWAP1 DUP4 SWAP2 PUSH2 0x1204 JUMPI JUMPDEST POP POP PUSH1 0x40 MLOAD SWAP3 PUSH32 0xAD2961A300000000000000000000000000000000000000000000000000000000 DUP5 MSTORE DUP5 DUP5 PUSH1 0x4 DUP2 DUP5 GAS STATICCALL SWAP4 DUP5 ISZERO PUSH2 0x418 JUMPI DUP4 SWAP5 PUSH2 0x11D5 JUMPI JUMPDEST POP PUSH4 0x1E13380 SWAP5 DUP6 DUP6 MUL SWAP5 DUP1 DUP7 DIV DUP8 EQ SWAP1 ISZERO OR ISZERO PUSH2 0x1162 JUMPI PUSH1 0x40 MLOAD PUSH32 0xC914B43700000000000000000000000000000000000000000000000000000000 DUP2 MSTORE DUP2 DUP2 PUSH1 0x4 DUP2 DUP7 GAS STATICCALL DUP1 ISZERO PUSH2 0x1157 JUMPI DUP6 SWAP1 PUSH2 0x118F JUMPI JUMPDEST PUSH6 0xFFFFFFFFFFFF SWAP2 POP AND DUP7 DUP2 MUL SWAP7 DUP2 DUP9 DIV EQ SWAP1 ISZERO OR ISZERO PUSH2 0x1162 JUMPI PUSH1 0x40 MLOAD PUSH32 0x6C321C8A00000000000000000000000000000000000000000000000000000000 DUP2 MSTORE DUP2 DUP2 PUSH1 0x4 DUP2 DUP7 GAS STATICCALL SWAP1 DUP2 ISZERO PUSH2 0x1157 JUMPI DUP6 SWAP2 PUSH2 0x112A JUMPI JUMPDEST POP PUSH1 0x40 MLOAD SWAP2 PUSH32 0x47BD371800000000000000000000000000000000000000000000000000000000 DUP4 MSTORE DUP1 DUP4 PUSH1 0x4 DUP2 DUP8 GAS STATICCALL SWAP3 DUP4 ISZERO PUSH2 0x111F JUMPI DUP7 SWAP4 PUSH2 0x10E4 JUMPI JUMPDEST POP PUSH1 0x40 MLOAD SWAP4 PUSH32 0xAD7A672F00000000000000000000000000000000000000000000000000000000 DUP6 MSTORE DUP2 DUP6 PUSH1 0x4 DUP2 DUP5 GAS STATICCALL SWAP5 DUP6 ISZERO PUSH2 0x10D9 JUMPI DUP8 SWAP6 PUSH2 0x109D JUMPI JUMPDEST POP DUP2 PUSH1 0x4 SWAP2 PUSH1 0x40 MLOAD SWAP3 DUP4 DUP1 SWAP3 PUSH32 0x3BA0B9A900000000000000000000000000000000000000000000000000000000 DUP3 MSTORE GAS STATICCALL SWAP7 DUP8 ISZERO PUSH2 0x8B3 JUMPI SWAP7 PUSH2 0x1067 JUMPI JUMPDEST POP SWAP1 PUSH1 0xC0 SWAP8 PUSH12 0xFFFFFFFFFFFFFFFFFFFFFFFF SWAP4 SWAP3 PUSH1 0x40 MLOAD SWAP9 DUP10 MSTORE DUP9 ADD MSTORE PUSH1 0x40 DUP8 ADD MSTORE AND PUSH1 0x60 DUP6 ADD MSTORE AND PUSH1 0x80 DUP4 ADD MSTORE PUSH1 0xA0 DUP3 ADD MSTORE RETURN JUMPDEST SWAP3 SWAP2 SWAP1 DUP1 SWAP7 POP DUP4 DUP2 RETURNDATASIZE DUP4 GT PUSH2 0x1096 JUMPI JUMPDEST PUSH2 0x1081 DUP2 DUP4 PUSH2 0x383A JUMP JUMPDEST DUP2 ADD SUB SLT PUSH2 0x443 JUMPI SWAP2 MLOAD SWAP5 SWAP1 SWAP2 SWAP1 PUSH1 0xC0 PUSH2 0x1032 JUMP JUMPDEST POP RETURNDATASIZE PUSH2 0x1077 JUMP JUMPDEST SWAP1 SWAP5 POP DUP2 DUP2 DUP2 RETURNDATASIZE DUP4 GT PUSH2 0x10D2 JUMPI JUMPDEST PUSH2 0x10B5 DUP2 DUP4 PUSH2 0x383A JUMP JUMPDEST DUP2 ADD SUB SLT PUSH2 0x10CE JUMPI MLOAD DUP6 DUP2 AND DUP2 SUB PUSH2 0x10CE JUMPI SWAP4 DUP2 PUSH2 0xFF4 JUMP JUMPDEST DUP7 DUP1 REVERT JUMPDEST POP RETURNDATASIZE PUSH2 0x10AB JUMP JUMPDEST PUSH1 0x40 MLOAD RETURNDATASIZE DUP10 DUP3 RETURNDATACOPY RETURNDATASIZE SWAP1 REVERT JUMPDEST SWAP1 DUP1 SWAP4 POP DUP2 DUP2 RETURNDATASIZE DUP4 GT PUSH2 0x1118 JUMPI JUMPDEST PUSH2 0x10FC DUP2 DUP4 PUSH2 0x383A JUMP JUMPDEST DUP2 ADD SUB SLT PUSH2 0x1114 JUMPI PUSH2 0x110D SWAP1 PUSH2 0x3B01 JUMP JUMPDEST SWAP2 CODESIZE PUSH2 0xFB6 JUMP JUMPDEST DUP6 DUP1 REVERT JUMPDEST POP RETURNDATASIZE PUSH2 0x10F2 JUMP JUMPDEST PUSH1 0x40 MLOAD RETURNDATASIZE DUP9 DUP3 RETURNDATACOPY RETURNDATASIZE SWAP1 REVERT JUMPDEST SWAP1 POP DUP2 DUP2 DUP2 RETURNDATASIZE DUP4 GT PUSH2 0x1150 JUMPI JUMPDEST PUSH2 0x1141 DUP2 DUP4 PUSH2 0x383A JUMP JUMPDEST DUP2 ADD SUB SLT PUSH2 0x443 JUMPI MLOAD CODESIZE PUSH2 0xF78 JUMP JUMPDEST POP RETURNDATASIZE PUSH2 0x1137 JUMP JUMPDEST PUSH1 0x40 MLOAD RETURNDATASIZE DUP8 DUP3 RETURNDATACOPY RETURNDATASIZE SWAP1 REVERT JUMPDEST PUSH1 0x24 DUP5 PUSH32 0x4E487B7100000000000000000000000000000000000000000000000000000000 DUP2 MSTORE PUSH1 0x11 PUSH1 0x4 MSTORE REVERT JUMPDEST POP DUP2 DUP2 DUP2 RETURNDATASIZE DUP4 GT PUSH2 0x11CE JUMPI JUMPDEST PUSH2 0x11A5 DUP2 DUP4 PUSH2 0x383A JUMP JUMPDEST DUP2 ADD SUB SLT PUSH2 0x11CA JUMPI MLOAD PUSH6 0xFFFFFFFFFFFF DUP2 AND DUP2 SUB PUSH2 0x11CA JUMPI PUSH6 0xFFFFFFFFFFFF SWAP1 PUSH2 0xF22 JUMP JUMPDEST DUP5 DUP1 REVERT JUMPDEST POP RETURNDATASIZE PUSH2 0x119B JUMP JUMPDEST SWAP1 SWAP4 POP DUP5 DUP2 DUP2 RETURNDATASIZE DUP4 GT PUSH2 0x11FD JUMPI JUMPDEST PUSH2 0x11ED DUP2 DUP4 PUSH2 0x383A JUMP JUMPDEST DUP2 ADD SUB SLT PUSH2 0x443 JUMPI MLOAD SWAP3 CODESIZE PUSH2 0xECF JUMP JUMPDEST POP RETURNDATASIZE PUSH2 0x11E3 JUMP JUMPDEST DUP2 PUSH2 0x120E SWAP2 PUSH2 0x383A JUMP JUMPDEST PUSH2 0x1219 JUMPI DUP2 CODESIZE PUSH2 0xE90 JUMP JUMPDEST POP DUP1 REVERT JUMPDEST POP CALLVALUE PUSH2 0x448 JUMPI PUSH1 0x60 PUSH32 0xFFFFFFFFFFFFFFFFFFFFFFFFFFFFFFFFFFFFFFFFFFFFFFFFFFFFFFFFFFFFFFFC CALLDATASIZE ADD SLT PUSH2 0x448 JUMPI PUSH1 0x4 CALLDATALOAD SWAP1 PUSH20 0xFFFFFFFFFFFFFFFFFFFFFFFFFFFFFFFFFFFFFFFF SWAP2 DUP3 DUP2 AND DUP1 SWAP2 SUB PUSH2 0x443 JUMPI DUP1 DUP3 MSTORE PUSH1 0x20 DUP3 DUP2 MSTORE DUP4 PUSH1 0x40 DUP5 KECCAK256 SLOAD AND SWAP2 DUP3 ISZERO PUSH2 0x9C JUMPI DUP4 SWAP1 PUSH1 0x64 PUSH1 0x40 MLOAD DUP1 SWAP6 DUP2 SWAP4 PUSH32 0xD0189A9100000000000000000000000000000000000000000000000000000000 DUP4 MSTORE PUSH1 0x4 DUP4 ADD MSTORE PUSH1 0x24 CALLDATALOAD PUSH1 0x24 DUP4 ADD MSTORE PUSH1 0x44 CALLDATALOAD PUSH1 0x44 DUP4 ADD MSTORE GAS STATICCALL SWAP3 DUP4 ISZERO PUSH2 0x8B3 JUMPI DUP1 SWAP3 DUP2 SWAP5 PUSH2 0x1361 JUMPI JUMPDEST POP SWAP1 SWAP4 SWAP3 SWAP2 PUSH1 0x40 MLOAD SWAP5 DUP6 SWAP5 PUSH1 0x40 DUP7 ADD PUSH1 0x40 DUP8 MSTORE DUP4 MLOAD DUP1 SWAP2 MSTORE DUP3 PUSH1 0x60 DUP9 ADD SWAP5 ADD SWAP2 DUP6 SWAP1 JUMPDEST DUP3 DUP3 LT PUSH2 0x1344 JUMPI POP POP POP POP DUP5 DUP3 SUB DUP2 DUP7 ADD MSTORE DUP1 DUP1 DUP6 MLOAD SWAP4 DUP5 DUP2 MSTORE ADD SWAP5 ADD SWAP3 JUMPDEST DUP3 DUP2 LT PUSH2 0x132D JUMPI POP POP POP POP SUB SWAP1 RETURN JUMPDEST DUP4 MLOAD DUP6 MSTORE DUP7 SWAP6 POP SWAP4 DUP2 ADD SWAP4 SWAP3 DUP2 ADD SWAP3 PUSH1 0x1 ADD PUSH2 0x131E JUMP JUMPDEST DUP4 MLOAD DUP2 AND DUP7 MSTORE DUP10 SWAP9 POP SWAP5 DUP5 ADD SWAP5 SWAP3 DUP5 ADD SWAP3 PUSH1 0x1 SWAP2 SWAP1 SWAP2 ADD SWAP1 PUSH2 0x12FF JUMP JUMPDEST SWAP3 POP SWAP3 POP RETURNDATASIZE DUP1 DUP5 DUP5 RETURNDATACOPY PUSH2 0x1374 DUP2 DUP5 PUSH2 0x383A JUMP JUMPDEST DUP3 ADD SWAP2 PUSH1 0x40 DUP2 DUP5 SUB SLT PUSH2 0x146D JUMPI DUP1 MLOAD PUSH8 0xFFFFFFFFFFFFFFFF SWAP1 DUP2 DUP2 GT PUSH2 0x1114 JUMPI DUP3 ADD SWAP2 DUP5 PUSH1 0x1F DUP5 ADD SLT ISZERO PUSH2 0x1114 JUMPI DUP3 MLOAD SWAP3 PUSH2 0x13AE DUP5 PUSH2 0x39A1 JUMP JUMPDEST SWAP4 PUSH2 0x13BC PUSH1 0x40 MLOAD SWAP6 DUP7 PUSH2 0x383A JUMP JUMPDEST DUP1 DUP6 MSTORE DUP6 DUP1 DUP7 ADD SWAP2 PUSH1 0x5 SHL DUP4 ADD ADD SWAP2 DUP8 DUP4 GT PUSH2 0x1469 JUMPI DUP7 DUP1 SWAP2 ADD SWAP2 JUMPDEST DUP4 DUP4 LT PUSH2 0x1451 JUMPI POP SWAP2 POP POP DUP2 ADD MLOAD SWAP2 DUP3 GT PUSH2 0x1114 JUMPI ADD SWAP3 DUP1 PUSH1 0x1F DUP6 ADD SLT ISZERO PUSH2 0x11CA JUMPI DUP4 MLOAD PUSH2 0x1405 DUP2 PUSH2 0x39A1 JUMP JUMPDEST SWAP5 PUSH2 0x1413 PUSH1 0x40 MLOAD SWAP7 DUP8 PUSH2 0x383A JUMP JUMPDEST DUP2 DUP7 MSTORE DUP5 DUP1 DUP8 ADD SWAP3 PUSH1 0x5 SHL DUP3 ADD ADD SWAP3 DUP4 GT PUSH2 0x10CE JUMPI DUP5 DUP1 SWAP2 ADD SWAP2 JUMPDEST DUP4 DUP4 LT PUSH2 0x1441 JUMPI POP POP POP POP SWAP2 SWAP3 CODESIZE PUSH2 0x12DC JUMP JUMPDEST DUP3 MLOAD DUP2 MSTORE SWAP2 DUP2 ADD SWAP2 DUP6 SWAP2 ADD PUSH2 0x142E JUMP JUMPDEST DUP2 SWAP1 PUSH2 0x145C DUP5 PUSH2 0x3AE0 JUMP JUMPDEST DUP2 MSTORE ADD SWAP2 ADD SWAP1 DUP7 SWAP1 PUSH2 0x13D8 JUMP JUMPDEST DUP9 DUP1 REVERT JUMPDEST DUP4 DUP1 REVERT JUMPDEST POP CALLVALUE PUSH2 0x448 JUMPI PUSH2 0x180 PUSH32 0xFFFFFFFFFFFFFFFFFFFFFFFFFFFFFFFFFFFFFFFFFFFFFFFFFFFFFFFFFFFFFFFC CALLDATASIZE ADD SLT PUSH2 0x448 JUMPI PUSH1 0x4 CALLDATALOAD PUSH20 0xFFFFFFFFFFFFFFFFFFFFFFFFFFFFFFFFFFFFFFFF SWAP2 DUP3 DUP3 AND SWAP3 DUP4 DUP4 SUB PUSH2 0x443 JUMPI PUSH1 0x44 CALLDATALOAD SWAP1 DUP1 DUP3 AND DUP3 SUB PUSH2 0x443 JUMPI PUSH1 0x64 CALLDATALOAD SWAP1 DUP1 DUP3 AND DUP3 SUB PUSH2 0x443 JUMPI PUSH1 0xC0 PUSH32 0xFFFFFFFFFFFFFFFFFFFFFFFFFFFFFFFFFFFFFFFFFFFFFFFFFFFFFFFFFFFFFF5C CALLDATASIZE ADD SLT PUSH2 0x146D JUMPI PUSH2 0x164 CALLDATALOAD PUSH8 0xFFFFFFFFFFFFFFFF DUP2 GT PUSH2 0x11CA JUMPI PUSH2 0x152B SWAP1 CALLDATASIZE SWAP1 PUSH1 0x4 ADD PUSH2 0x3908 JUMP JUMPDEST PUSH2 0x1539 PUSH1 0x84 SWAP8 SWAP3 SWAP8 CALLDATALOAD PUSH2 0x3CBB JUMP JUMPDEST PUSH2 0x1546 DUP6 PUSH1 0x24 CALLDATALOAD DUP5 PUSH2 0x3DC9 JUMP JUMPDEST SWAP7 DUP2 PUSH2 0x16EF JUMPI JUMPDEST POP POP PUSH15 0x22D473030F116DDEE9F6B43AC78BA3 SWAP2 DUP3 EXTCODESIZE ISZERO PUSH2 0x1114 JUMPI PUSH1 0x40 MLOAD PUSH32 0x36C7851600000000000000000000000000000000000000000000000000000000 DUP2 MSTORE CALLER PUSH1 0x4 DUP3 ADD MSTORE PUSH20 0xFFFFFFFFFFFFFFFFFFFFFFFFFFFFFFFFFFFFFFFF SWAP3 DUP4 AND PUSH1 0x24 DUP3 ADD MSTORE SWAP1 DUP8 AND DUP3 AND PUSH1 0x44 DUP3 ADD MSTORE PUSH32 0x0 SWAP1 SWAP2 AND PUSH1 0x64 DUP3 ADD MSTORE SWAP1 DUP5 SWAP1 DUP3 SWAP1 PUSH1 0x84 SWAP1 DUP3 SWAP1 DUP5 SWAP1 GAS CALL DUP1 ISZERO PUSH2 0x438 JUMPI SWAP1 DUP5 SWAP2 PUSH2 0x16DA JUMPI JUMPDEST POP PUSH2 0x160A DUP6 SWAP2 PUSH2 0x3967 JUMP JUMPDEST SWAP6 PUSH2 0x1618 PUSH1 0x40 MLOAD SWAP8 DUP9 PUSH2 0x383A JUMP JUMPDEST DUP5 DUP8 MSTORE PUSH32 0xFFFFFFFFFFFFFFFFFFFFFFFFFFFFFFFFFFFFFFFFFFFFFFFFFFFFFFFFFFFFFFE0 PUSH2 0x1645 DUP7 PUSH2 0x3967 JUMP JUMPDEST ADD SWAP3 DUP6 PUSH1 0x20 SWAP6 DUP7 SWAP6 CALLDATASIZE DUP8 DUP13 ADD CALLDATACOPY PUSH2 0x168B PUSH1 0x40 MLOAD SWAP11 DUP12 SWAP7 DUP8 SWAP6 DUP7 SWAP5 PUSH32 0x27CE385400000000000000000000000000000000000000000000000000000000 DUP7 MSTORE PUSH1 0x4 DUP7 ADD PUSH2 0x3C7F JUMP JUMPDEST SUB SWAP3 GAS CALL SWAP2 DUP3 ISZERO PUSH2 0x8B3 JUMPI SWAP2 PUSH2 0x16AA JUMPI JUMPDEST PUSH1 0x40 DUP1 SWAP5 POP MLOAD SWAP3 DUP4 MSTORE DUP3 ADD MSTORE RETURN JUMPDEST DUP1 SWAP2 POP DUP4 DUP2 RETURNDATASIZE DUP4 GT PUSH2 0x16D3 JUMPI JUMPDEST PUSH2 0x16C1 DUP2 DUP4 PUSH2 0x383A JUMP JUMPDEST DUP2 ADD SUB SLT PUSH2 0x443 JUMPI PUSH1 0x40 SWAP3 MLOAD SWAP1 PUSH2 0x169C JUMP JUMPDEST POP RETURNDATASIZE PUSH2 0x16B7 JUMP JUMPDEST DUP2 PUSH2 0x16E4 SWAP2 PUSH2 0x383A JUMP JUMPDEST PUSH2 0x40C JUMPI DUP3 CODESIZE PUSH2 0x15FF JUMP JUMPDEST PUSH15 0x22D473030F116DDEE9F6B43AC78BA3 SWAP1 DUP2 EXTCODESIZE ISZERO PUSH2 0x176E JUMPI SWAP2 DUP8 SWAP2 PUSH2 0x1747 SWAP4 DUP4 PUSH1 0x40 MLOAD DUP1 SWAP7 DUP2 SWAP6 DUP3 SWAP5 PUSH32 0x2B67B57000000000000000000000000000000000000000000000000000000000 DUP5 MSTORE PUSH1 0xA4 CALLER PUSH1 0x4 DUP7 ADD PUSH2 0x3F24 JUMP JUMPDEST SUB SWAP3 GAS CALL DUP1 ISZERO PUSH2 0x111F JUMPI SWAP1 DUP7 SWAP2 ISZERO PUSH2 0x154D JUMPI DUP2 PUSH2 0x1763 SWAP2 PUSH2 0x383A JUMP JUMPDEST PUSH2 0x11CA JUMPI DUP5 CODESIZE PUSH2 0x154D JUMP JUMPDEST DUP8 DUP1 REVERT JUMPDEST POP CALLVALUE PUSH2 0x448 JUMPI DUP1 PUSH32 0xFFFFFFFFFFFFFFFFFFFFFFFFFFFFFFFFFFFFFFFFFFFFFFFFFFFFFFFFFFFFFFFC CALLDATASIZE ADD SLT PUSH2 0x448 JUMPI PUSH1 0x20 PUSH1 0x40 MLOAD PUSH20 0x1111111254EEB25477B68FB85ED929F73A960582 DUP2 MSTORE RETURN JUMPDEST POP CALLVALUE PUSH2 0x448 JUMPI PUSH1 0x20 PUSH32 0xFFFFFFFFFFFFFFFFFFFFFFFFFFFFFFFFFFFFFFFFFFFFFFFFFFFFFFFFFFFFFFFC CALLDATASIZE ADD SLT PUSH2 0x448 JUMPI PUSH1 0x4 CALLDATALOAD SWAP1 PUSH20 0xFFFFFFFFFFFFFFFFFFFFFFFFFFFFFFFFFFFFFFFF DUP1 DUP4 AND DUP1 SWAP4 SUB PUSH2 0x443 JUMPI DUP2 DUP1 SWAP4 DUP2 SWAP3 DUP1 PUSH32 0x0 AND PUSH1 0x40 MLOAD SWAP3 PUSH32 0x80FFBB8800000000000000000000000000000000000000000000000000000000 DUP5 MSTORE PUSH1 0x20 DUP5 PUSH1 0x4 DUP2 DUP6 GAS STATICCALL SWAP4 DUP5 ISZERO PUSH2 0x1157 JUMPI DUP6 SWAP5 PUSH2 0x1A63 JUMPI JUMPDEST POP DUP5 SWAP4 SWAP3 SWAP2 SWAP1 JUMPDEST DUP4 DUP7 LT PUSH2 0x18A3 JUMPI PUSH1 0x40 DUP1 MLOAD DUP10 DUP2 MSTORE PUSH1 0x20 DUP2 ADD DUP12 SWAP1 MSTORE SWAP1 DUP2 ADD DUP9 SWAP1 MSTORE PUSH1 0x60 SWAP1 RETURN JUMPDEST SUB SWAP1 RETURN JUMPDEST SWAP1 SWAP2 SWAP3 SWAP4 SWAP5 SWAP6 SWAP8 SWAP7 PUSH1 0x40 MLOAD PUSH32 0x1AD4C8C300000000000000000000000000000000000000000000000000000000 DUP2 MSTORE DUP8 PUSH1 0x4 DUP3 ADD MSTORE PUSH1 0xA0 SWAP1 PUSH1 0x24 SWAP2 DUP1 DUP3 DUP5 DUP2 DUP10 GAS STATICCALL SWAP2 DUP3 ISZERO PUSH2 0x98F JUMPI SWAP1 DUP8 SWAP2 DUP11 SWAP2 DUP12 SWAP5 PUSH2 0x1A2B JUMPI JUMPDEST POP POP AND DUP1 EXTCODESIZE ISZERO PUSH2 0x1469 JUMPI DUP9 DUP1 SWAP2 PUSH1 0x4 PUSH1 0x40 MLOAD DUP1 SWAP5 DUP2 SWAP4 PUSH32 0xFFF6CAE900000000000000000000000000000000000000000000000000000000 DUP4 MSTORE GAS CALL DUP1 ISZERO PUSH2 0x98F JUMPI DUP8 SWAP3 SWAP2 DUP11 SWAP2 PUSH2 0x1A10 JUMPI JUMPDEST POP POP PUSH1 0x40 MLOAD DUP1 SWAP4 PUSH32 0xBB3F673600000000000000000000000000000000000000000000000000000000 DUP3 MSTORE DUP7 PUSH1 0x4 DUP4 ADD MSTORE DUP2 PUSH2 0x100 SWAP5 DUP6 SWAP5 AND GAS STATICCALL SWAP2 DUP3 ISZERO PUSH2 0x1A05 JUMPI SWAP2 PUSH2 0x19BA SWAP4 SWAP2 PUSH2 0x19B4 SWAP4 DUP11 SWAP1 DUP12 SWAP3 DUP13 SWAP5 PUSH2 0x19C4 JUMPI JUMPDEST POP POP PUSH2 0x19A8 SWAP1 PUSH2 0x19AE SWAP4 SWAP5 PUSH2 0x3C0A JUMP JUMPDEST SWAP12 PUSH2 0x3C0A JUMP JUMPDEST SWAP11 PUSH2 0x3C0A JUMP JUMPDEST SWAP7 PUSH2 0x3B73 JUMP JUMPDEST SWAP5 SWAP4 SWAP3 SWAP2 SWAP1 PUSH2 0x187F JUMP JUMPDEST PUSH2 0x19AE SWAP5 POP PUSH2 0x19A8 SWAP4 POP PUSH2 0x19ED SWAP3 POP DUP1 RETURNDATASIZE LT PUSH2 0x19FE JUMPI JUMPDEST PUSH2 0x19E5 DUP2 DUP4 PUSH2 0x383A JUMP JUMPDEST DUP2 ADD SWAP1 PUSH2 0x3BCF JUMP JUMPDEST POP POP SWAP6 SWAP5 POP POP POP SWAP3 SWAP4 DUP2 SWAP3 POP PUSH2 0x1998 JUMP JUMPDEST POP RETURNDATASIZE PUSH2 0x19DB JUMP JUMPDEST PUSH1 0x40 MLOAD RETURNDATASIZE DUP11 DUP3 RETURNDATACOPY RETURNDATASIZE SWAP1 REVERT JUMPDEST DUP2 SWAP3 SWAP4 POP SWAP1 PUSH2 0x1A1E SWAP2 PUSH2 0x383A JUMP JUMPDEST PUSH2 0x176E JUMPI DUP6 SWAP1 DUP9 CODESIZE PUSH2 0x1942 JUMP JUMPDEST PUSH2 0x1A4F SWAP4 SWAP5 POP DUP1 SWAP2 SWAP3 POP SWAP1 RETURNDATASIZE LT PUSH2 0x1A5C JUMPI JUMPDEST PUSH2 0x1A47 DUP2 DUP4 PUSH2 0x383A JUMP JUMPDEST DUP2 ADD SWAP1 PUSH2 0x3B1A JUMP JUMPDEST POP SWAP4 SWAP3 POP SWAP1 POP CODESIZE DUP1 PUSH2 0x18F7 JUMP JUMPDEST POP RETURNDATASIZE PUSH2 0x1A3D JUMP JUMPDEST SWAP1 SWAP4 POP PUSH1 0x20 DUP2 RETURNDATASIZE DUP3 GT PUSH2 0x1A8E JUMPI JUMPDEST DUP2 PUSH2 0x1A7E PUSH1 0x20 SWAP4 DUP4 PUSH2 0x383A JUMP JUMPDEST DUP2 ADD SUB SLT PUSH2 0x443 JUMPI MLOAD SWAP3 CODESIZE PUSH2 0x1878 JUMP JUMPDEST RETURNDATASIZE SWAP2 POP PUSH2 0x1A71 JUMP JUMPDEST POP CALLVALUE PUSH2 0x448 JUMPI DUP1 PUSH32 0xFFFFFFFFFFFFFFFFFFFFFFFFFFFFFFFFFFFFFFFFFFFFFFFFFFFFFFFFFFFFFFFC CALLDATASIZE ADD SLT PUSH2 0x448 JUMPI PUSH1 0x40 MLOAD PUSH32 0xF851A44000000000000000000000000000000000000000000000000000000000 DUP2 MSTORE PUSH20 0xFFFFFFFFFFFFFFFFFFFFFFFFFFFFFFFFFFFFFFFF PUSH1 0x20 DUP3 PUSH1 0x4 DUP2 DUP5 PUSH32 0x0 AND GAS STATICCALL SWAP2 DUP3 ISZERO PUSH2 0x418 JUMPI DUP4 SWAP3 PUSH2 0x1B95 JUMPI JUMPDEST POP DUP2 AND CALLER SUB PUSH2 0x1B6B JUMPI DUP2 SWAP1 SELFBALANCE DUP1 PUSH2 0x1B4E JUMPI POP POP RETURN JUMPDEST DUP3 DUP1 SWAP3 SWAP2 DUP2 SWAP3 GAS CALL ISZERO PUSH2 0x1B5E JUMPI DUP1 RETURN JUMPDEST PUSH4 0xB12D13EB SWAP1 MSTORE PUSH1 0x4 PUSH1 0x1C REVERT JUMPDEST PUSH1 0x4 PUSH1 0x40 MLOAD PUSH32 0x1A19B03600000000000000000000000000000000000000000000000000000000 DUP2 MSTORE REVERT JUMPDEST SWAP1 SWAP2 POP PUSH1 0x20 DUP2 RETURNDATASIZE DUP3 GT PUSH2 0x1BC8 JUMPI JUMPDEST DUP2 PUSH2 0x1BB0 PUSH1 0x20 SWAP4 DUP4 PUSH2 0x383A JUMP JUMPDEST DUP2 ADD SUB SLT PUSH2 0x40C JUMPI PUSH2 0x1BC1 SWAP1 PUSH2 0x3AE0 JUMP JUMPDEST SWAP1 CODESIZE PUSH2 0x1B39 JUMP JUMPDEST RETURNDATASIZE SWAP2 POP PUSH2 0x1BA3 JUMP JUMPDEST POP CALLVALUE PUSH2 0x448 JUMPI DUP1 PUSH32 0xFFFFFFFFFFFFFFFFFFFFFFFFFFFFFFFFFFFFFFFFFFFFFFFFFFFFFFFFFFFFFFFC CALLDATASIZE ADD SLT PUSH2 0x448 JUMPI PUSH1 0x20 PUSH1 0x40 MLOAD PUSH20 0xDEF171FE48CF0115B1D80B88DC8EAB59176FEE57 DUP2 MSTORE RETURN JUMPDEST POP CALLVALUE PUSH2 0x448 JUMPI PUSH1 0xC0 PUSH32 0xFFFFFFFFFFFFFFFFFFFFFFFFFFFFFFFFFFFFFFFFFFFFFFFFFFFFFFFFFFFFFFFC CALLDATASIZE ADD SLT PUSH2 0x448 JUMPI PUSH1 0x4 CALLDATALOAD SWAP1 PUSH20 0xFFFFFFFFFFFFFFFFFFFFFFFFFFFFFFFFFFFFFFFF SWAP1 DUP2 DUP4 AND SWAP2 DUP3 DUP5 SUB PUSH2 0x443 JUMPI PUSH1 0x44 CALLDATALOAD SWAP1 DUP1 DUP3 AND DUP3 SUB PUSH2 0x443 JUMPI PUSH1 0x64 CALLDATALOAD SWAP1 DUP2 AND DUP2 SUB PUSH2 0x443 JUMPI PUSH1 0x84 CALLDATALOAD SWAP5 PUSH1 0xA4 CALLDATALOAD PUSH8 0xFFFFFFFFFFFFFFFF DUP2 GT PUSH2 0x11CA JUMPI SWAP6 PUSH2 0x1D0E SWAP2 PUSH2 0x1D07 PUSH2 0x1CBB PUSH2 0x1D00 SWAP9 SWAP10 CALLDATASIZE SWAP1 PUSH1 0x4 ADD PUSH2 0x3908 JUMP JUMPDEST SWAP2 SWAP1 SWAP4 PUSH2 0x1CC7 DUP2 PUSH2 0x3CBB JUMP JUMPDEST PUSH2 0x1CD4 DUP9 PUSH1 0x24 CALLDATALOAD DUP7 PUSH2 0x3DC9 JUMP JUMPDEST SWAP10 DUP11 SWAP6 PUSH32 0x0 SWAP5 CALLDATASIZE SWAP2 PUSH2 0x3C48 JUMP JUMPDEST SWAP1 DUP4 PUSH2 0x3CED JUMP JUMPDEST CALLER SWAP1 PUSH2 0x4161 JUMP JUMPDEST DUP4 PUSH2 0x160A DUP5 PUSH2 0x3967 JUMP JUMPDEST POP CALLVALUE PUSH2 0x448 JUMPI PUSH2 0x1D00 PUSH2 0x1D07 PUSH2 0x1D4E SWAP3 PUSH2 0x1D7A PUSH2 0x1D36 CALLDATASIZE PUSH1 0x4 PUSH2 0x39B9 JUMP JUMPDEST SWAP3 SWAP10 DUP11 DUP7 SWAP10 SWAP4 SWAP3 SWAP7 SWAP6 PUSH2 0x1D48 DUP5 PUSH2 0x3CBB JUMP JUMPDEST DUP7 PUSH2 0x3DC9 JUMP JUMPDEST SWAP9 DUP10 SWAP6 PUSH32 0x0 SWAP5 CALLDATASIZE SWAP2 PUSH2 0x3C48 JUMP JUMPDEST PUSH2 0x1D83 DUP2 PUSH2 0x3967 JUMP JUMPDEST SWAP2 PUSH2 0x1D91 PUSH1 0x40 MLOAD SWAP4 DUP5 PUSH2 0x383A JUMP JUMPDEST DUP2 DUP4 MSTORE DUP2 PUSH32 0xFFFFFFFFFFFFFFFFFFFFFFFFFFFFFFFFFFFFFFFFFFFFFFFFFFFFFFFFFFFFFFE0 PUSH2 0x1DBF DUP3 PUSH2 0x3967 JUMP JUMPDEST ADD SWAP2 DUP2 DUP1 PUSH20 0xFFFFFFFFFFFFFFFFFFFFFFFFFFFFFFFFFFFFFFFF PUSH1 0x20 SWAP10 DUP11 SWAP7 CALLDATASIZE DUP9 DUP12 ADD CALLDATACOPY PUSH2 0x1E1B PUSH1 0x40 MLOAD SWAP10 DUP11 SWAP8 DUP9 SWAP7 DUP8 SWAP5 PUSH32 0x1E7DCC0D00000000000000000000000000000000000000000000000000000000 DUP7 MSTORE PUSH1 0x4 DUP7 ADD PUSH2 0x3C7F JUMP JUMPDEST SUB SWAP4 AND GAS CALL SWAP1 DUP2 ISZERO PUSH2 0x8B3 JUMPI POP SWAP1 DUP4 SWAP2 PUSH2 0x1E3A JUMPI JUMPDEST POP POP PUSH1 0x40 MLOAD SWAP1 DUP2 MSTORE RETURN JUMPDEST DUP2 RETURNDATASIZE DUP4 GT PUSH2 0x1E5C JUMPI JUMPDEST PUSH2 0x1E4D DUP2 DUP4 PUSH2 0x383A JUMP JUMPDEST DUP2 ADD SUB SLT PUSH2 0x443 JUMPI DUP2 CODESIZE PUSH2 0x1E30 JUMP JUMPDEST POP RETURNDATASIZE PUSH2 0x1E43 JUMP JUMPDEST POP CALLVALUE PUSH2 0x448 JUMPI DUP1 PUSH32 0xFFFFFFFFFFFFFFFFFFFFFFFFFFFFFFFFFFFFFFFFFFFFFFFFFFFFFFFFFFFFFFFC CALLDATASIZE ADD SLT PUSH2 0x448 JUMPI PUSH1 0x20 PUSH1 0x40 MLOAD PUSH20 0x6352A56CAADC4F1E25CD6C75970FA768A3304E64 DUP2 MSTORE RETURN JUMPDEST POP CALLVALUE PUSH2 0x448 JUMPI PUSH1 0x20 PUSH32 0xFFFFFFFFFFFFFFFFFFFFFFFFFFFFFFFFFFFFFFFFFFFFFFFFFFFFFFFFFFFFFFFC CALLDATASIZE ADD SLT PUSH2 0x448 JUMPI PUSH1 0x40 MLOAD PUSH32 0x1AD4C8C300000000000000000000000000000000000000000000000000000000 DUP2 MSTORE PUSH1 0x4 CALLDATALOAD PUSH1 0x4 DUP3 ADD MSTORE PUSH20 0xFFFFFFFFFFFFFFFFFFFFFFFFFFFFFFFFFFFFFFFF SWAP1 PUSH1 0xA0 DUP2 PUSH1 0x24 DUP2 DUP6 PUSH32 0x0 AND GAS STATICCALL SWAP1 DUP2 ISZERO PUSH2 0x418 JUMPI SWAP3 DUP3 PUSH1 0x40 SWAP3 PUSH1 0x20 SWAP6 DUP4 SWAP2 PUSH2 0x1F77 JUMPI JUMPDEST POP AND DUP2 MSTORE DUP1 DUP5 MSTORE KECCAK256 SLOAD AND PUSH1 0x40 MLOAD SWAP1 DUP2 MSTORE RETURN JUMPDEST PUSH2 0x1F8F SWAP2 POP PUSH1 0xA0 RETURNDATASIZE DUP2 GT PUSH2 0x1A5C JUMPI PUSH2 0x1A47 DUP2 DUP4 PUSH2 0x383A JUMP JUMPDEST POP SWAP3 POP POP POP CODESIZE PUSH2 0x1F65 JUMP JUMPDEST POP CALLVALUE PUSH2 0x448 JUMPI PUSH1 0x40 PUSH32 0xFFFFFFFFFFFFFFFFFFFFFFFFFFFFFFFFFFFFFFFFFFFFFFFFFFFFFFFFFFFFFFFC CALLDATASIZE ADD SLT PUSH2 0x448 JUMPI PUSH1 0x4 CALLDATALOAD PUSH8 0xFFFFFFFFFFFFFFFF DUP2 GT PUSH2 0x1219 JUMPI CALLDATASIZE PUSH1 0x23 DUP3 ADD SLT ISZERO PUSH2 0x1219 JUMPI DUP1 PUSH1 0x4 ADD CALLDATALOAD PUSH2 0x1FF5 DUP2 PUSH2 0x39A1 JUMP JUMPDEST SWAP2 PUSH2 0x2003 PUSH1 0x40 MLOAD SWAP4 DUP5 PUSH2 0x383A JUMP JUMPDEST DUP2 DUP4 MSTORE PUSH1 0x20 SWAP1 DUP2 DUP5 ADD PUSH1 0x24 DUP1 SWAP5 PUSH1 0x5 SHL DUP4 ADD ADD SWAP2 CALLDATASIZE DUP4 GT PUSH2 0x10CE JUMPI DUP5 ADD SWAP1 JUMPDEST DUP3 DUP3 LT PUSH2 0x21EE JUMPI POP POP POP DUP2 CALLDATALOAD PUSH20 0xFFFFFFFFFFFFFFFFFFFFFFFFFFFFFFFFFFFFFFFF DUP1 DUP3 AND DUP3 SUB PUSH2 0x443 JUMPI PUSH1 0x40 MLOAD PUSH32 0xF851A44000000000000000000000000000000000000000000000000000000000 DUP2 MSTORE DUP4 DUP2 PUSH1 0x4 DUP2 DUP6 PUSH32 0x0 AND GAS STATICCALL DUP1 ISZERO PUSH2 0x10D9 JUMPI DUP3 SWAP2 DUP9 SWAP2 PUSH2 0x21B6 JUMPI JUMPDEST POP AND CALLER SUB PUSH2 0x1B6B JUMPI DUP6 JUMPDEST DUP6 MLOAD DUP2 LT ISZERO PUSH2 0x21B2 JUMPI DUP5 DUP5 DUP4 PUSH2 0x20CB DUP5 DUP11 PUSH2 0x414D JUMP JUMPDEST MLOAD AND PUSH1 0x40 MLOAD SWAP3 DUP4 DUP1 SWAP3 PUSH32 0x70A0823100000000000000000000000000000000000000000000000000000000 DUP3 MSTORE ADDRESS PUSH1 0x4 DUP4 ADD MSTORE GAS STATICCALL SWAP1 DUP2 ISZERO PUSH2 0x1A05 JUMPI DUP9 SWAP2 PUSH2 0x2185 JUMPI JUMPDEST POP DUP5 DUP9 DUP5 DUP10 DUP5 PUSH2 0x212B JUMPI JUMPDEST POP POP POP POP POP PUSH2 0x2126 SWAP1 PUSH2 0x3B73 JUMP JUMPDEST PUSH2 0x20B5 JUMP JUMPDEST DUP3 PUSH1 0x44 SWAP3 PUSH2 0x213B DUP9 PUSH1 0x10 SWAP5 PUSH2 0x414D JUMP JUMPDEST MLOAD AND DUP10 PUSH1 0x14 MSTORE PUSH1 0x34 SWAP7 DUP8 MSTORE PUSH16 0xA9059CBB000000000000000000000000 DUP3 MSTORE GAS CALL RETURNDATASIZE ISZERO PUSH1 0x1 DUP11 MLOAD EQ OR AND ISZERO PUSH2 0x2178 JUMPI DUP8 SWAP1 MSTORE PUSH2 0x2126 DUP5 DUP9 DUP5 DUP10 PUSH2 0x2118 JUMP JUMPDEST PUSH4 0x90B8EC18 DUP9 MSTORE PUSH1 0x4 PUSH1 0x1C REVERT JUMPDEST SWAP1 POP DUP5 DUP2 DUP2 RETURNDATASIZE DUP4 GT PUSH2 0x21AB JUMPI JUMPDEST PUSH2 0x219C DUP2 DUP4 PUSH2 0x383A JUMP JUMPDEST DUP2 ADD SUB SLT PUSH2 0x443 JUMPI MLOAD CODESIZE PUSH2 0x210D JUMP JUMPDEST POP RETURNDATASIZE PUSH2 0x2192 JUMP JUMPDEST DUP7 DUP1 RETURN JUMPDEST DUP1 SWAP3 POP DUP6 DUP1 SWAP3 POP RETURNDATASIZE DUP4 GT PUSH2 0x21E7 JUMPI JUMPDEST PUSH2 0x21CF DUP2 DUP4 PUSH2 0x383A JUMP JUMPDEST DUP2 ADD SUB SLT PUSH2 0x10CE JUMPI PUSH2 0x21E1 DUP3 SWAP2 PUSH2 0x3AE0 JUMP JUMPDEST CODESIZE PUSH2 0x20AB JUMP JUMPDEST POP RETURNDATASIZE PUSH2 0x21C5 JUMP JUMPDEST DUP2 CALLDATALOAD PUSH20 0xFFFFFFFFFFFFFFFFFFFFFFFFFFFFFFFFFFFFFFFF DUP2 AND DUP2 SUB PUSH2 0x176E JUMPI DUP2 MSTORE SWAP1 DUP4 ADD SWAP1 DUP4 ADD PUSH2 0x2022 JUMP JUMPDEST POP CALLVALUE PUSH2 0x448 JUMPI DUP1 PUSH32 0xFFFFFFFFFFFFFFFFFFFFFFFFFFFFFFFFFFFFFFFFFFFFFFFFFFFFFFFFFFFFFFFC CALLDATASIZE ADD SLT PUSH2 0x448 JUMPI PUSH1 0x20 PUSH1 0x40 MLOAD PUSH15 0x22D473030F116DDEE9F6B43AC78BA3 DUP2 MSTORE RETURN JUMPDEST POP CALLVALUE PUSH2 0x448 JUMPI PUSH1 0x40 PUSH32 0xFFFFFFFFFFFFFFFFFFFFFFFFFFFFFFFFFFFFFFFFFFFFFFFFFFFFFFFFFFFFFFFC CALLDATASIZE ADD SLT PUSH2 0x448 JUMPI PUSH1 0x4 CALLDATALOAD PUSH20 0xFFFFFFFFFFFFFFFFFFFFFFFFFFFFFFFFFFFFFFFF DUP1 DUP3 AND DUP1 SWAP3 SUB PUSH2 0x443 JUMPI PUSH1 0x24 CALLDATALOAD SWAP1 DUP2 AND DUP1 SWAP2 SUB PUSH2 0x443 JUMPI DUP2 EXTCODESIZE ISZERO PUSH2 0x40C JUMPI DUP3 PUSH1 0x40 MLOAD PUSH32 0xFFF6CAE900000000000000000000000000000000000000000000000000000000 DUP2 MSTORE DUP2 DUP2 PUSH1 0x4 DUP2 DUP4 DUP9 GAS CALL DUP1 ISZERO PUSH2 0xB7D JUMPI PUSH2 0x23A2 JUMPI JUMPDEST POP POP PUSH1 0x60 SWAP1 PUSH1 0x24 PUSH1 0x40 MLOAD DUP1 SWAP5 DUP2 SWAP4 PUSH32 0x5D413FA200000000000000000000000000000000000000000000000000000000 DUP4 MSTORE PUSH1 0x4 DUP4 ADD MSTORE GAS STATICCALL DUP1 ISZERO PUSH2 0xB7D JUMPI DUP3 SWAP2 DUP4 SWAP2 PUSH2 0x236C JUMPI JUMPDEST POP PUSH2 0x189F SWAP1 PUSH1 0x40 MLOAD SWAP4 DUP5 SWAP4 DUP5 PUSH1 0x40 SWAP2 SWAP5 SWAP4 SWAP3 PUSH1 0x60 DUP3 ADD SWAP6 DUP3 MSTORE PUSH1 0x20 DUP3 ADD MSTORE ADD MSTORE JUMP JUMPDEST SWAP1 POP PUSH2 0x189F SWAP3 POP PUSH2 0x2394 SWAP2 POP PUSH1 0x60 RETURNDATASIZE DUP2 GT PUSH2 0x239B JUMPI JUMPDEST PUSH2 0x238C DUP2 DUP4 PUSH2 0x383A JUMP JUMPDEST DUP2 ADD SWAP1 PUSH2 0x3C17 JUMP JUMPDEST SWAP1 SWAP3 PUSH2 0x234A JUMP JUMPDEST POP RETURNDATASIZE PUSH2 0x2382 JUMP JUMPDEST DUP2 PUSH2 0x23AC SWAP2 PUSH2 0x383A JUMP JUMPDEST PUSH2 0x40C JUMPI DUP3 CODESIZE PUSH2 0x2303 JUMP JUMPDEST POP CALLVALUE PUSH2 0x448 JUMPI DUP1 PUSH32 0xFFFFFFFFFFFFFFFFFFFFFFFFFFFFFFFFFFFFFFFFFFFFFFFFFFFFFFFFFFFFFFFC CALLDATASIZE ADD SLT PUSH2 0x448 JUMPI PUSH2 0x189F PUSH2 0x23F3 PUSH1 0x5 PUSH2 0x3967 JUMP JUMPDEST PUSH2 0x2400 PUSH1 0x40 MLOAD SWAP2 DUP3 PUSH2 0x383A JUMP JUMPDEST PUSH1 0x5 DUP2 MSTORE PUSH32 0x312E302E30000000000000000000000000000000000000000000000000000000 PUSH1 0x20 DUP3 ADD MSTORE PUSH1 0x40 MLOAD SWAP2 DUP3 SWAP2 PUSH1 0x20 DUP4 MSTORE PUSH1 0x20 DUP4 ADD SWAP1 PUSH2 0x38AA JUMP JUMPDEST POP CALLVALUE PUSH2 0x448 JUMPI DUP1 PUSH32 0xFFFFFFFFFFFFFFFFFFFFFFFFFFFFFFFFFFFFFFFFFFFFFFFFFFFFFFFFFFFFFFFC CALLDATASIZE ADD SLT PUSH2 0x448 JUMPI PUSH1 0x20 PUSH1 0x40 MLOAD PUSH20 0xE592427A0AECE92DE3EDEE1F18E0157C05861564 DUP2 MSTORE RETURN JUMPDEST POP CALLVALUE PUSH2 0x448 JUMPI DUP1 PUSH32 0xFFFFFFFFFFFFFFFFFFFFFFFFFFFFFFFFFFFFFFFFFFFFFFFFFFFFFFFFFFFFFFFC CALLDATASIZE ADD SLT PUSH2 0x448 JUMPI PUSH1 0x20 PUSH1 0x40 MLOAD PUSH20 0xDEF1C0DED9BEC7F1A1670819833240F027B25EFF DUP2 MSTORE RETURN JUMPDEST POP CALLVALUE PUSH2 0x448 JUMPI PUSH1 0x40 PUSH32 0xFFFFFFFFFFFFFFFFFFFFFFFFFFFFFFFFFFFFFFFFFFFFFFFFFFFFFFFFFFFFFFFC CALLDATASIZE ADD SLT PUSH2 0x448 JUMPI PUSH1 0x24 CALLDATALOAD PUSH20 0xFFFFFFFFFFFFFFFFFFFFFFFFFFFFFFFFFFFFFFFF SWAP1 DUP2 DUP2 AND DUP1 SWAP2 SUB PUSH2 0x443 JUMPI DUP2 PUSH32 0x0 AND PUSH1 0x40 MLOAD PUSH32 0xF851A44000000000000000000000000000000000000000000000000000000000 DUP2 MSTORE PUSH1 0x20 SWAP1 DUP2 DUP2 PUSH1 0x4 DUP2 DUP7 GAS STATICCALL DUP1 ISZERO PUSH2 0x111F JUMPI DUP6 SWAP2 DUP8 SWAP2 PUSH2 0x27CC JUMPI JUMPDEST POP AND CALLER SUB PUSH2 0x1B6B JUMPI PUSH1 0xA0 PUSH1 0x24 SWAP3 PUSH1 0x40 MLOAD SWAP4 DUP5 DUP1 SWAP3 PUSH32 0x1AD4C8C300000000000000000000000000000000000000000000000000000000 DUP3 MSTORE PUSH1 0x4 CALLDATALOAD PUSH1 0x4 DUP4 ADD MSTORE GAS STATICCALL SWAP4 DUP5 ISZERO PUSH2 0x1157 JUMPI DUP6 DUP7 SWAP4 DUP8 SWAP7 PUSH2 0x27A1 JUMPI JUMPDEST POP ISZERO PUSH2 0x2777 JUMPI DUP6 SWAP3 DUP5 DUP5 MSTORE PUSH1 0x1 DUP4 MSTORE PUSH1 0xFF PUSH1 0x40 DUP6 KECCAK256 SLOAD AND ISZERO PUSH2 0x26C9 JUMPI JUMPDEST DUP2 AND DUP4 MSTORE DUP3 DUP3 MSTORE PUSH1 0x4 DUP3 DUP3 PUSH1 0x40 DUP7 KECCAK256 SWAP8 PUSH32 0xFFFFFFFFFFFFFFFFFFFFFFFF0000000000000000000000000000000000000000 SWAP9 DUP9 DUP11 DUP3 SLOAD AND OR SWAP1 SSTORE AND DUP1 DUP7 MSTORE PUSH1 0x40 DUP7 KECCAK256 DUP8 DUP10 DUP3 SLOAD AND OR SWAP1 SSTORE PUSH1 0x40 MLOAD SWAP3 DUP4 DUP1 SWAP3 PUSH32 0x6F307DC300000000000000000000000000000000000000000000000000000000 DUP3 MSTORE GAS STATICCALL SWAP1 DUP2 ISZERO PUSH2 0x438 JUMPI DUP5 SWAP2 PUSH2 0x2694 JUMPI JUMPDEST POP AND DUP3 MSTORE MSTORE PUSH1 0x40 DUP4 KECCAK256 SWAP2 DUP3 SLOAD AND OR SWAP1 SSTORE DUP1 RETURN JUMPDEST SWAP1 POP DUP3 DUP2 DUP2 RETURNDATASIZE DUP4 GT PUSH2 0x26C2 JUMPI JUMPDEST PUSH2 0x26AB DUP2 DUP4 PUSH2 0x383A JUMP JUMPDEST DUP2 ADD SUB SLT PUSH2 0x146D JUMPI PUSH2 0x26BC SWAP1 PUSH2 0x3AE0 JUMP JUMPDEST CODESIZE PUSH2 0x2681 JUMP JUMPDEST POP RETURNDATASIZE PUSH2 0x26A1 JUMP JUMPDEST SWAP1 SWAP2 SWAP3 POP PUSH1 0x2 SLOAD PUSH9 0x10000000000000000 DUP2 LT ISZERO PUSH2 0x274A JUMPI SWAP2 DUP1 SWAP2 DUP6 PUSH2 0x26F9 DUP6 PUSH1 0x1 DUP12 SWAP9 SWAP8 ADD PUSH1 0x2 SSTORE PUSH1 0x2 PUSH2 0x3A99 JUMP JUMPDEST DUP2 SWAP3 SWAP2 SLOAD SWAP1 PUSH1 0x3 SHL DUP6 DUP2 SHL SWAP3 DUP4 SWAP2 SHL AND SWAP2 NOT AND OR SWAP1 SSTORE DUP6 DUP6 MSTORE PUSH1 0x1 DUP5 MSTORE PUSH1 0x40 DUP6 KECCAK256 PUSH1 0x1 PUSH32 0xFFFFFFFFFFFFFFFFFFFFFFFFFFFFFFFFFFFFFFFFFFFFFFFFFFFFFFFFFFFFFF00 DUP3 SLOAD AND OR SWAP1 SSTORE SWAP1 POP PUSH2 0x25FD JUMP JUMPDEST PUSH1 0x24 DUP8 PUSH32 0x4E487B7100000000000000000000000000000000000000000000000000000000 DUP2 MSTORE PUSH1 0x41 PUSH1 0x4 MSTORE REVERT JUMPDEST PUSH1 0x4 PUSH1 0x40 MLOAD PUSH32 0x51A9CA5300000000000000000000000000000000000000000000000000000000 DUP2 MSTORE REVERT JUMPDEST SWAP2 SWAP6 POP POP PUSH2 0x27BE SWAP2 SWAP3 POP PUSH1 0xA0 RETURNDATASIZE DUP2 GT PUSH2 0x1A5C JUMPI PUSH2 0x1A47 DUP2 DUP4 PUSH2 0x383A JUMP JUMPDEST POP SWAP6 SWAP1 SWAP4 SWAP3 SWAP1 SWAP2 POP CODESIZE PUSH2 0x25E0 JUMP JUMPDEST DUP1 SWAP3 POP DUP4 DUP1 SWAP3 POP RETURNDATASIZE DUP4 GT PUSH2 0x27FD JUMPI JUMPDEST PUSH2 0x27E5 DUP2 DUP4 PUSH2 0x383A JUMP JUMPDEST DUP2 ADD SUB SLT PUSH2 0x1114 JUMPI PUSH2 0x27F7 DUP6 SWAP2 PUSH2 0x3AE0 JUMP JUMPDEST CODESIZE PUSH2 0x258E JUMP JUMPDEST POP RETURNDATASIZE PUSH2 0x27DB JUMP JUMPDEST POP CALLVALUE PUSH2 0x448 JUMPI PUSH1 0xE0 PUSH32 0xFFFFFFFFFFFFFFFFFFFFFFFFFFFFFFFFFFFFFFFFFFFFFFFFFFFFFFFFFFFFFFFC CALLDATASIZE ADD SLT PUSH2 0x448 JUMPI PUSH1 0x4 CALLDATALOAD SWAP1 PUSH20 0xFFFFFFFFFFFFFFFFFFFFFFFFFFFFFFFFFFFFFFFF DUP3 AND DUP3 SUB PUSH2 0x443 JUMPI PUSH20 0xFFFFFFFFFFFFFFFFFFFFFFFFFFFFFFFFFFFFFFFF PUSH1 0x24 CALLDATALOAD AND PUSH1 0x24 CALLDATALOAD SUB PUSH2 0x443 JUMPI PUSH20 0xFFFFFFFFFFFFFFFFFFFFFFFFFFFFFFFFFFFFFFFF PUSH1 0x64 CALLDATALOAD AND PUSH1 0x64 CALLDATALOAD SUB PUSH2 0x443 JUMPI PUSH1 0x7 PUSH1 0xA4 CALLDATALOAD LT ISZERO PUSH2 0x448 JUMPI PUSH1 0xC4 CALLDATALOAD PUSH8 0xFFFFFFFFFFFFFFFF DUP2 GT PUSH2 0x1219 JUMPI PUSH2 0x28C2 SWAP1 CALLDATASIZE SWAP1 PUSH1 0x4 ADD PUSH2 0x3936 JUMP JUMPDEST PUSH2 0x28D0 PUSH1 0x84 SWAP5 SWAP3 SWAP5 CALLDATALOAD PUSH2 0x3CBB JUMP JUMPDEST PUSH2 0x28DF PUSH1 0x64 CALLDATALOAD PUSH1 0x44 CALLDATALOAD DUP5 PUSH2 0x3DC9 JUMP JUMPDEST SWAP4 PUSH1 0x40 MLOAD SWAP2 PUSH32 0x6F307DC300000000000000000000000000000000000000000000000000000000 DUP4 MSTORE PUSH1 0x20 DUP4 PUSH1 0x4 DUP2 PUSH20 0xFFFFFFFFFFFFFFFFFFFFFFFFFFFFFFFFFFFFFFFF PUSH1 0x24 CALLDATALOAD AND GAS STATICCALL SWAP3 DUP4 ISZERO PUSH2 0x1157 JUMPI DUP6 SWAP4 PUSH2 0x2ABF JUMPI JUMPDEST POP SWAP3 PUSH1 0xE0 PUSH2 0x2A3A PUSH1 0x20 SWAP5 PUSH2 0x29A8 PUSH2 0x2A77 SWAP6 PUSH20 0xFFFFFFFFFFFFFFFFFFFFFFFFFFFFFFFFFFFFFFFF SWAP10 SWAP9 DUP11 PUSH1 0x40 MLOAD SWAP5 PUSH2 0x296F PUSH2 0x100 DUP8 PUSH2 0x383A JUMP JUMPDEST AND DUP5 MSTORE DUP11 PUSH1 0x24 CALLDATALOAD AND DUP10 DUP6 ADD MSTORE DUP11 DUP8 AND PUSH1 0x40 DUP6 ADD MSTORE CALLER PUSH1 0x60 DUP6 ADD MSTORE DUP11 PUSH1 0x64 CALLDATALOAD AND PUSH1 0x80 DUP6 ADD MSTORE DUP12 PUSH1 0xA0 DUP6 ADD MSTORE PUSH2 0x708 PUSH1 0xA4 CALLDATALOAD PUSH1 0xC0 DUP7 ADD PUSH2 0x4030 JUMP JUMPDEST DUP4 DUP3 ADD MSTORE PUSH2 0x2A0E PUSH1 0x40 MLOAD SWAP4 DUP5 SWAP3 DUP9 DUP1 DUP6 ADD MSTORE DUP11 DUP2 MLOAD AND PUSH1 0x40 DUP6 ADD MSTORE DUP11 DUP10 DUP3 ADD MLOAD AND PUSH1 0x60 DUP6 ADD MSTORE DUP11 PUSH1 0x40 DUP3 ADD MLOAD AND PUSH1 0x80 DUP6 ADD MSTORE DUP11 PUSH1 0x60 DUP3 ADD MLOAD AND PUSH1 0xA0 DUP6 ADD MSTORE DUP11 PUSH1 0x80 DUP3 ADD MLOAD AND PUSH1 0xC0 DUP6 ADD MSTORE PUSH1 0xA0 DUP2 ADD MLOAD DUP3 DUP6 ADD MSTORE PUSH2 0x7C3 PUSH1 0xC0 DUP3 ADD MLOAD PUSH2 0x100 DUP7 ADD SWAP1 PUSH2 0x40EB JUMP JUMPDEST SUB PUSH32 0xFFFFFFFFFFFFFFFFFFFFFFFFFFFFFFFFFFFFFFFFFFFFFFFFFFFFFFFFFFFFFFE0 DUP2 ADD DUP4 MSTORE DUP3 PUSH2 0x383A JUMP JUMPDEST DUP5 PUSH1 0x40 MLOAD SWAP7 DUP8 DUP1 SWAP6 DUP2 SWAP5 PUSH32 0x27CE385400000000000000000000000000000000000000000000000000000000 DUP4 MSTORE DUP12 PUSH1 0x24 CALLDATALOAD PUSH1 0x64 CALLDATALOAD PUSH1 0x4 DUP7 ADD PUSH2 0x3C7F JUMP JUMPDEST SUB SWAP4 AND GAS CALL SWAP1 DUP2 ISZERO PUSH2 0x8B3 JUMPI POP PUSH2 0x2A94 JUMPI JUMPDEST PUSH1 0x20 DUP3 PUSH1 0x40 MLOAD SWAP1 DUP2 MSTORE RETURN JUMPDEST PUSH1 0x20 SWAP1 DUP2 RETURNDATASIZE DUP4 GT PUSH2 0x2AB8 JUMPI JUMPDEST PUSH2 0x2AAA DUP2 DUP4 PUSH2 0x383A JUMP JUMPDEST DUP2 ADD SUB SLT PUSH2 0x443 JUMPI CODESIZE PUSH2 0x2A89 JUMP JUMPDEST POP RETURNDATASIZE PUSH2 0x2AA0 JUMP JUMPDEST SWAP1 SWAP3 POP PUSH1 0x20 DUP2 RETURNDATASIZE PUSH1 0x20 GT PUSH2 0x2B21 JUMPI JUMPDEST DUP2 PUSH2 0x2ADB PUSH1 0x20 SWAP4 DUP4 PUSH2 0x383A JUMP JUMPDEST DUP2 ADD SUB SLT PUSH2 0x11CA JUMPI SWAP3 PUSH1 0xE0 PUSH2 0x2A3A PUSH1 0x20 SWAP5 PUSH2 0x29A8 PUSH2 0x2A77 SWAP6 PUSH2 0x2B12 PUSH20 0xFFFFFFFFFFFFFFFFFFFFFFFFFFFFFFFFFFFFFFFF SWAP11 SWAP10 PUSH2 0x3AE0 JUMP JUMPDEST SWAP8 POP SWAP6 POP POP SWAP3 SWAP6 SWAP7 POP POP PUSH2 0x2936 JUMP JUMPDEST RETURNDATASIZE SWAP2 POP PUSH2 0x2ACE JUMP JUMPDEST POP CALLVALUE PUSH2 0x448 JUMPI PUSH2 0x140 PUSH32 0xFFFFFFFFFFFFFFFFFFFFFFFFFFFFFFFFFFFFFFFFFFFFFFFFFFFFFFFFFFFFFFFC CALLDATASIZE ADD SLT PUSH2 0x448 JUMPI PUSH1 0x4 CALLDATALOAD PUSH20 0xFFFFFFFFFFFFFFFFFFFFFFFFFFFFFFFFFFFFFFFF SWAP2 DUP3 DUP3 AND SWAP2 DUP3 DUP2 SUB PUSH2 0x443 JUMPI PUSH1 0x44 CALLDATALOAD SWAP3 DUP5 DUP5 AND DUP5 SUB PUSH2 0x443 JUMPI PUSH1 0x64 CALLDATALOAD SWAP5 DUP6 AND DUP6 SUB PUSH2 0x443 JUMPI PUSH1 0x80 PUSH32 0xFFFFFFFFFFFFFFFFFFFFFFFFFFFFFFFFFFFFFFFFFFFFFFFFFFFFFFFFFFFFFF5C CALLDATASIZE ADD SLT PUSH2 0x40C JUMPI PUSH2 0x124 CALLDATALOAD SWAP5 PUSH8 0xFFFFFFFFFFFFFFFF DUP7 GT PUSH2 0x146D JUMPI PUSH2 0x2BFE PUSH2 0x2BE7 DUP7 SWAP8 CALLDATASIZE SWAP1 PUSH1 0x4 ADD PUSH2 0x3908 JUMP JUMPDEST SWAP7 SWAP1 SWAP5 PUSH2 0x2BF5 PUSH1 0x84 CALLDATALOAD PUSH2 0x3CBB JUMP JUMPDEST PUSH1 0x24 CALLDATALOAD SWAP1 PUSH2 0x3DC9 JUMP JUMPDEST SWAP5 PUSH1 0x40 MLOAD PUSH2 0x2C0D PUSH1 0x40 DUP3 PUSH2 0x383A JUMP JUMPDEST DUP4 DUP2 MSTORE PUSH1 0x20 SWAP5 DUP8 DUP7 DUP4 ADD MSTORE PUSH15 0x22D473030F116DDEE9F6B43AC78BA3 SWAP2 DUP3 EXTCODESIZE ISZERO PUSH2 0x176E JUMPI SWAP2 PUSH2 0x2C73 SWAP4 SWAP2 DUP9 DUP1 SWAP5 PUSH1 0x40 MLOAD SWAP7 DUP8 SWAP6 DUP7 SWAP5 DUP6 SWAP4 PUSH32 0x30F28B7A00000000000000000000000000000000000000000000000000000000 DUP6 MSTORE CALLER SWAP1 PUSH1 0xA4 PUSH1 0x4 DUP8 ADD PUSH2 0x3FC2 JUMP JUMPDEST SUB SWAP3 GAS CALL DUP1 ISZERO PUSH2 0x1157 JUMPI SWAP2 DUP6 DUP6 SWAP5 SWAP3 DUP9 SWAP5 PUSH2 0x2D0D JUMPI JUMPDEST POP PUSH2 0x2C93 DUP2 PUSH2 0x3967 JUMP JUMPDEST SWAP9 PUSH2 0x2CA1 PUSH1 0x40 MLOAD SWAP11 DUP12 PUSH2 0x383A JUMP JUMPDEST DUP2 DUP11 MSTORE PUSH32 0xFFFFFFFFFFFFFFFFFFFFFFFFFFFFFFFFFFFFFFFFFFFFFFFFFFFFFFFFFFFFFFE0 PUSH2 0x2CCE DUP4 PUSH2 0x3967 JUMP JUMPDEST ADD CALLDATASIZE DUP8 DUP13 ADD CALLDATACOPY PUSH2 0x168B PUSH1 0x40 MLOAD SWAP11 DUP12 SWAP7 DUP8 SWAP6 DUP7 SWAP5 PUSH32 0x27CE385400000000000000000000000000000000000000000000000000000000 DUP7 MSTORE PUSH1 0x4 DUP7 ADD PUSH2 0x3C7F JUMP JUMPDEST DUP2 SWAP4 SWAP6 POP PUSH2 0x2D1C SWAP3 SWAP5 POP PUSH2 0x383A JUMP JUMPDEST PUSH2 0x146D JUMPI DUP3 SWAP2 DUP6 SWAP2 DUP6 CODESIZE PUSH2 0x2C89 JUMP JUMPDEST POP CALLVALUE PUSH2 0x448 JUMPI PUSH1 0x40 PUSH32 0xFFFFFFFFFFFFFFFFFFFFFFFFFFFFFFFFFFFFFFFFFFFFFFFFFFFFFFFFFFFFFFFC CALLDATASIZE ADD SLT PUSH2 0x448 JUMPI PUSH1 0x4 CALLDATALOAD PUSH20 0xFFFFFFFFFFFFFFFFFFFFFFFFFFFFFFFFFFFFFFFF SWAP2 DUP3 DUP3 AND DUP1 SWAP3 SUB PUSH2 0x443 JUMPI PUSH1 0x24 CALLDATALOAD SWAP2 DUP4 DUP4 AND DUP1 SWAP4 SUB PUSH2 0x443 JUMPI DUP1 EXTCODESIZE ISZERO PUSH2 0x1219 JUMPI PUSH1 0x40 MLOAD PUSH32 0xFFF6CAE900000000000000000000000000000000000000000000000000000000 DUP2 MSTORE DUP3 DUP2 PUSH1 0x4 DUP2 DUP4 DUP7 GAS CALL DUP1 ISZERO PUSH2 0x418 JUMPI SWAP1 DUP4 SWAP2 PUSH2 0x2EF4 JUMPI JUMPDEST POP POP PUSH1 0x20 PUSH1 0x4 SWAP2 PUSH1 0x40 MLOAD SWAP3 DUP4 DUP1 SWAP3 PUSH32 0xD8DFEB4500000000000000000000000000000000000000000000000000000000 DUP3 MSTORE GAS STATICCALL SWAP1 DUP2 ISZERO PUSH2 0xB7D JUMPI DUP3 SWAP2 PUSH2 0x2EBB JUMPI JUMPDEST POP PUSH1 0x40 MLOAD SWAP3 PUSH32 0xBB3F673600000000000000000000000000000000000000000000000000000000 DUP5 MSTORE PUSH1 0x4 DUP5 ADD MSTORE DUP3 PUSH1 0x24 DUP2 PUSH2 0x100 SWAP7 DUP8 SWAP5 AND GAS STATICCALL SWAP1 DUP2 ISZERO PUSH2 0x8B3 JUMPI DUP1 SWAP3 DUP2 DUP3 DUP4 SWAP1 DUP5 SWAP3 DUP6 SWAP5 DUP7 SWAP8 PUSH2 0x2E8F JUMPI JUMPDEST POP PUSH1 0x40 MLOAD SWAP8 DUP9 MSTORE PUSH1 0x20 DUP9 ADD MSTORE PUSH1 0x40 DUP8 ADD MSTORE PUSH1 0x60 DUP7 ADD MSTORE PUSH1 0x80 DUP6 ADD MSTORE PUSH1 0xA0 DUP5 ADD MSTORE PUSH1 0xC0 DUP4 ADD MSTORE PUSH1 0xE0 DUP3 ADD MSTORE RETURN JUMPDEST SWAP7 POP POP POP POP POP POP POP PUSH2 0x2EAE SWAP2 POP DUP3 RETURNDATASIZE DUP5 GT PUSH2 0x19FE JUMPI PUSH2 0x19E5 DUP2 DUP4 PUSH2 0x383A JUMP JUMPDEST SWAP6 SWAP1 SWAP5 SWAP2 SWAP4 SWAP2 SWAP1 CODESIZE PUSH2 0x2E63 JUMP JUMPDEST SWAP1 POP PUSH1 0x20 DUP2 RETURNDATASIZE DUP3 GT PUSH2 0x2EEC JUMPI JUMPDEST DUP2 PUSH2 0x2ED5 PUSH1 0x20 SWAP4 DUP4 PUSH2 0x383A JUMP JUMPDEST DUP2 ADD SUB SLT PUSH2 0x1219 JUMPI PUSH2 0x2EE6 SWAP1 PUSH2 0x3AE0 JUMP JUMPDEST CODESIZE PUSH2 0x2E11 JUMP JUMPDEST RETURNDATASIZE SWAP2 POP PUSH2 0x2EC8 JUMP JUMPDEST DUP2 PUSH2 0x2EFE SWAP2 PUSH2 0x383A JUMP JUMPDEST PUSH2 0x1219 JUMPI DUP2 CODESIZE PUSH2 0x2DD0 JUMP JUMPDEST POP CALLVALUE PUSH2 0x448 JUMPI PUSH1 0x20 DUP1 PUSH32 0xFFFFFFFFFFFFFFFFFFFFFFFFFFFFFFFFFFFFFFFFFFFFFFFFFFFFFFFFFFFFFFFC CALLDATASIZE ADD SLT PUSH2 0x1219 JUMPI PUSH1 0x4 CALLDATALOAD PUSH20 0xFFFFFFFFFFFFFFFFFFFFFFFFFFFFFFFFFFFFFFFF SWAP2 DUP3 DUP3 AND DUP1 SWAP3 SUB PUSH2 0x443 JUMPI PUSH1 0x40 MLOAD PUSH32 0x80FFBB8800000000000000000000000000000000000000000000000000000000 DUP2 MSTORE DUP5 SWAP4 DUP5 SWAP4 PUSH32 0x0 DUP3 AND SWAP2 DUP5 DUP5 PUSH1 0x4 DUP2 DUP7 GAS STATICCALL SWAP4 DUP5 ISZERO PUSH2 0x1A05 JUMPI DUP9 SWAP5 PUSH2 0x3146 JUMPI JUMPDEST POP SWAP3 SWAP2 SWAP1 DUP8 SWAP4 JUMPDEST DUP4 DUP6 LT PUSH2 0x2FDE JUMPI PUSH1 0x40 DUP9 DUP9 DUP9 DUP4 MLOAD SWAP3 DUP4 MSTORE DUP3 ADD MSTORE RETURN JUMPDEST SWAP1 SWAP2 SWAP3 SWAP4 SWAP6 SWAP7 PUSH1 0x40 MLOAD PUSH32 0x1AD4C8C300000000000000000000000000000000000000000000000000000000 DUP2 MSTORE DUP8 PUSH1 0x4 DUP3 ADD MSTORE PUSH1 0xA0 PUSH1 0x24 SWAP2 DUP2 DUP2 DUP5 DUP2 DUP11 GAS STATICCALL SWAP1 DUP2 ISZERO PUSH2 0x313B JUMPI DUP6 SWAP3 DUP14 SWAP3 PUSH2 0x3119 JUMPI JUMPDEST POP POP AND SWAP2 DUP3 EXTCODESIZE ISZERO PUSH2 0x3115 JUMPI DUP11 PUSH1 0x40 MLOAD PUSH32 0xFFF6CAE900000000000000000000000000000000000000000000000000000000 DUP2 MSTORE DUP2 DUP2 PUSH1 0x4 DUP2 DUP4 DUP10 GAS CALL DUP1 ISZERO PUSH2 0xB7D JUMPI PUSH2 0x3100 JUMPI JUMPDEST POP POP PUSH1 0x40 MLOAD SWAP3 DUP4 DUP1 SWAP4 PUSH32 0x5D413FA200000000000000000000000000000000000000000000000000000000 DUP3 MSTORE DUP8 PUSH1 0x4 DUP4 ADD MSTORE PUSH1 0x60 SWAP5 DUP6 SWAP4 GAS STATICCALL DUP12 DUP2 ISZERO PUSH2 0x8B3 JUMPI PUSH2 0x30D3 SWAP5 PUSH2 0x19B4 SWAP5 DUP3 SWAP4 PUSH2 0x30DC JUMPI JUMPDEST POP POP PUSH2 0x30CD SWAP2 SWAP3 PUSH2 0x3C0A JUMP JUMPDEST SWAP10 PUSH2 0x3C0A JUMP JUMPDEST SWAP4 SWAP3 SWAP2 SWAP1 PUSH2 0x2FC8 JUMP JUMPDEST PUSH2 0x30CD SWAP4 POP PUSH2 0x30F7 SWAP3 POP DUP1 RETURNDATASIZE LT PUSH2 0x239B JUMPI PUSH2 0x238C DUP2 DUP4 PUSH2 0x383A JUMP JUMPDEST SWAP3 SWAP1 POP CODESIZE PUSH2 0x30C1 JUMP JUMPDEST DUP2 PUSH2 0x310A SWAP2 PUSH2 0x383A JUMP JUMPDEST PUSH2 0x3115 JUMPI DUP11 CODESIZE PUSH2 0x3072 JUMP JUMPDEST DUP11 DUP1 REVERT JUMPDEST PUSH2 0x312F SWAP3 POP DUP1 RETURNDATASIZE LT PUSH2 0x1A5C JUMPI PUSH2 0x1A47 DUP2 DUP4 PUSH2 0x383A JUMP JUMPDEST POP POP SWAP2 POP POP CODESIZE DUP1 PUSH2 0x302C JUMP JUMPDEST PUSH1 0x40 MLOAD RETURNDATASIZE DUP15 DUP3 RETURNDATACOPY RETURNDATASIZE SWAP1 REVERT JUMPDEST SWAP1 SWAP4 POP DUP5 DUP2 DUP2 RETURNDATASIZE DUP4 GT PUSH2 0x316E JUMPI JUMPDEST PUSH2 0x315E DUP2 DUP4 PUSH2 0x383A JUMP JUMPDEST DUP2 ADD SUB SLT PUSH2 0x443 JUMPI MLOAD SWAP3 CODESIZE PUSH2 0x2FC1 JUMP JUMPDEST POP RETURNDATASIZE PUSH2 0x3154 JUMP JUMPDEST POP CALLVALUE PUSH2 0x448 JUMPI PUSH2 0x160 PUSH32 0xFFFFFFFFFFFFFFFFFFFFFFFFFFFFFFFFFFFFFFFFFFFFFFFFFFFFFFFFFFFFFFFC CALLDATASIZE ADD SLT PUSH2 0x448 JUMPI PUSH1 0x4 CALLDATALOAD PUSH20 0xFFFFFFFFFFFFFFFFFFFFFFFFFFFFFFFFFFFFFFFF SWAP2 DUP3 DUP3 AND SWAP1 DUP2 DUP4 SUB PUSH2 0x443 JUMPI PUSH1 0x44 CALLDATALOAD SWAP4 DUP1 DUP6 AND DUP6 SUB PUSH2 0x443 JUMPI PUSH1 0xC0 PUSH32 0xFFFFFFFFFFFFFFFFFFFFFFFFFFFFFFFFFFFFFFFFFFFFFFFFFFFFFFFFFFFFFF7C CALLDATASIZE ADD SLT PUSH2 0x1219 JUMPI PUSH2 0x144 CALLDATALOAD PUSH8 0xFFFFFFFFFFFFFFFF DUP2 GT PUSH2 0x40C JUMPI PUSH2 0x3222 SWAP1 CALLDATASIZE SWAP1 PUSH1 0x4 ADD PUSH2 0x3908 JUMP JUMPDEST PUSH2 0x3230 PUSH1 0x64 SWAP7 SWAP3 SWAP7 CALLDATALOAD PUSH2 0x3CBB JUMP JUMPDEST PUSH2 0x323D DUP8 PUSH1 0x24 CALLDATALOAD DUP5 PUSH2 0x3DC9 JUMP JUMPDEST SWAP6 DUP2 PUSH2 0x33B2 JUMPI JUMPDEST POP POP PUSH15 0x22D473030F116DDEE9F6B43AC78BA3 SWAP1 DUP2 EXTCODESIZE ISZERO PUSH2 0x146D JUMPI PUSH1 0x40 MLOAD PUSH32 0x36C7851600000000000000000000000000000000000000000000000000000000 DUP2 MSTORE CALLER PUSH1 0x4 DUP3 ADD MSTORE PUSH20 0xFFFFFFFFFFFFFFFFFFFFFFFFFFFFFFFFFFFFFFFF SWAP2 DUP3 AND PUSH1 0x24 DUP3 ADD MSTORE SWAP3 DUP7 AND DUP2 AND PUSH1 0x44 DUP5 ADD MSTORE PUSH32 0x0 AND PUSH1 0x64 DUP4 ADD MSTORE DUP3 SWAP1 DUP3 SWAP1 PUSH1 0x84 SWAP1 DUP3 SWAP1 DUP5 SWAP1 GAS CALL DUP1 ISZERO PUSH2 0xB7D JUMPI SWAP1 DUP3 SWAP2 PUSH2 0x339D JUMPI JUMPDEST POP PUSH2 0x32FD SWAP1 PUSH2 0x3967 JUMP JUMPDEST SWAP2 PUSH2 0x330B PUSH1 0x40 MLOAD SWAP4 DUP5 PUSH2 0x383A JUMP JUMPDEST DUP2 DUP4 MSTORE DUP2 PUSH32 0xFFFFFFFFFFFFFFFFFFFFFFFFFFFFFFFFFFFFFFFFFFFFFFFFFFFFFFFFFFFFFFE0 PUSH2 0x3339 DUP3 PUSH2 0x3967 JUMP JUMPDEST ADD SWAP2 DUP2 DUP1 PUSH1 0x20 SWAP9 DUP10 SWAP6 CALLDATASIZE DUP8 DUP11 ADD CALLDATACOPY PUSH2 0x3380 PUSH1 0x40 MLOAD SWAP9 DUP10 SWAP7 DUP8 SWAP6 DUP7 SWAP5 PUSH32 0x1E7DCC0D00000000000000000000000000000000000000000000000000000000 DUP7 MSTORE PUSH1 0x4 DUP7 ADD PUSH2 0x3C7F JUMP JUMPDEST SUB SWAP3 GAS CALL SWAP1 DUP2 ISZERO PUSH2 0x8B3 JUMPI POP SWAP1 DUP4 SWAP2 PUSH2 0x1E3A JUMPI POP POP PUSH1 0x40 MLOAD SWAP1 DUP2 MSTORE RETURN JUMPDEST DUP2 PUSH2 0x33A7 SWAP2 PUSH2 0x383A JUMP JUMPDEST PUSH2 0x448 JUMPI DUP1 CODESIZE PUSH2 0x32F3 JUMP JUMPDEST PUSH15 0x22D473030F116DDEE9F6B43AC78BA3 SWAP1 DUP2 EXTCODESIZE ISZERO PUSH2 0x1114 JUMPI SWAP2 DUP6 SWAP2 PUSH2 0x340A SWAP4 DUP4 PUSH1 0x40 MLOAD DUP1 SWAP7 DUP2 SWAP6 DUP3 SWAP5 PUSH32 0x2B67B57000000000000000000000000000000000000000000000000000000000 DUP5 MSTORE PUSH1 0x84 CALLER PUSH1 0x4 DUP7 ADD PUSH2 0x3F24 JUMP JUMPDEST SUB SWAP3 GAS CALL DUP1 ISZERO PUSH2 0x438 JUMPI SWAP1 DUP5 SWAP2 ISZERO PUSH2 0x3244 JUMPI DUP2 PUSH2 0x3426 SWAP2 PUSH2 0x383A JUMP JUMPDEST PUSH2 0x40C JUMPI DUP3 CODESIZE PUSH2 0x3244 JUMP JUMPDEST POP CALLVALUE PUSH2 0x448 JUMPI PUSH2 0x120 PUSH32 0xFFFFFFFFFFFFFFFFFFFFFFFFFFFFFFFFFFFFFFFFFFFFFFFFFFFFFFFFFFFFFFFC CALLDATASIZE ADD SLT PUSH2 0x448 JUMPI PUSH1 0x4 CALLDATALOAD PUSH20 0xFFFFFFFFFFFFFFFFFFFFFFFFFFFFFFFFFFFFFFFF DUP1 DUP3 AND SWAP3 DUP4 DUP4 SUB PUSH2 0x448 JUMPI PUSH1 0x44 CALLDATALOAD SWAP2 DUP3 AND DUP3 SUB PUSH2 0x448 JUMPI PUSH1 0x80 PUSH32 0xFFFFFFFFFFFFFFFFFFFFFFFFFFFFFFFFFFFFFFFFFFFFFFFFFFFFFFFFFFFFFF7C CALLDATASIZE ADD SLT PUSH2 0x448 JUMPI PUSH2 0x104 CALLDATALOAD SWAP4 PUSH8 0xFFFFFFFFFFFFFFFF DUP6 GT PUSH2 0x1219 JUMPI PUSH2 0x34F0 PUSH2 0x34E2 DUP5 SWAP6 SWAP7 CALLDATASIZE SWAP1 PUSH1 0x4 ADD PUSH2 0x3908 JUMP JUMPDEST SWAP6 SWAP1 SWAP7 PUSH2 0x2BF5 PUSH1 0x64 CALLDATALOAD PUSH2 0x3CBB JUMP JUMPDEST SWAP4 PUSH1 0x40 MLOAD PUSH2 0x34FF PUSH1 0x40 DUP3 PUSH2 0x383A JUMP JUMPDEST DUP3 DUP2 MSTORE PUSH1 0x20 SWAP7 DUP7 DUP9 DUP4 ADD MSTORE PUSH15 0x22D473030F116DDEE9F6B43AC78BA3 SWAP2 DUP3 EXTCODESIZE ISZERO PUSH2 0x1114 JUMPI SWAP2 PUSH2 0x3565 SWAP4 SWAP2 DUP7 DUP1 SWAP5 PUSH1 0x40 MLOAD SWAP7 DUP8 SWAP6 DUP7 SWAP5 DUP6 SWAP4 PUSH32 0x30F28B7A00000000000000000000000000000000000000000000000000000000 DUP6 MSTORE CALLER SWAP1 PUSH1 0x84 PUSH1 0x4 DUP8 ADD PUSH2 0x3FC2 JUMP JUMPDEST SUB SWAP3 GAS CALL DUP1 ISZERO PUSH2 0x418 JUMPI SWAP1 DUP7 SWAP3 SWAP2 PUSH2 0x3600 JUMPI JUMPDEST POP DUP3 SWAP1 DUP2 DUP1 PUSH2 0x3586 DUP2 PUSH2 0x3967 JUMP JUMPDEST SWAP7 PUSH2 0x3594 PUSH1 0x40 MLOAD SWAP9 DUP10 PUSH2 0x383A JUMP JUMPDEST DUP2 DUP9 MSTORE PUSH32 0xFFFFFFFFFFFFFFFFFFFFFFFFFFFFFFFFFFFFFFFFFFFFFFFFFFFFFFFFFFFFFFE0 PUSH2 0x35C1 DUP4 PUSH2 0x3967 JUMP JUMPDEST ADD CALLDATASIZE DUP8 DUP11 ADD CALLDATACOPY PUSH2 0x3380 PUSH1 0x40 MLOAD SWAP9 DUP10 SWAP7 DUP8 SWAP6 DUP7 SWAP5 PUSH32 0x1E7DCC0D00000000000000000000000000000000000000000000000000000000 DUP7 MSTORE PUSH1 0x4 DUP7 ADD PUSH2 0x3C7F JUMP JUMPDEST DUP4 PUSH2 0x360D SWAP2 SWAP5 SWAP3 SWAP5 PUSH2 0x383A JUMP JUMPDEST SWAP2 CODESIZE PUSH2 0x3578 JUMP JUMPDEST POP CALLVALUE PUSH2 0x448 JUMPI DUP1 PUSH32 0xFFFFFFFFFFFFFFFFFFFFFFFFFFFFFFFFFFFFFFFFFFFFFFFFFFFFFFFFFFFFFFFC CALLDATASIZE ADD SLT PUSH2 0x448 JUMPI PUSH1 0x20 PUSH1 0x2 SLOAD PUSH1 0x40 MLOAD SWAP1 DUP2 MSTORE RETURN JUMPDEST POP CALLVALUE PUSH2 0x448 JUMPI DUP1 PUSH32 0xFFFFFFFFFFFFFFFFFFFFFFFFFFFFFFFFFFFFFFFFFFFFFFFFFFFFFFFFFFFFFFFC CALLDATASIZE ADD SLT PUSH2 0x448 JUMPI PUSH1 0x40 MLOAD SWAP1 DUP1 PUSH1 0x3 SLOAD SWAP2 PUSH1 0x1 DUP4 DUP2 SHR SWAP3 DUP2 DUP6 AND SWAP5 DUP6 ISZERO PUSH2 0x37A9 JUMPI JUMPDEST PUSH1 0x20 SWAP6 DUP7 DUP7 LT DUP2 EQ PUSH2 0x377C JUMPI DUP6 DUP9 MSTORE DUP8 SWAP5 SWAP4 SWAP3 SWAP2 DUP8 SWAP1 DUP3 ISZERO PUSH2 0x373B JUMPI POP POP PUSH1 0x1 EQ PUSH2 0x36E1 JUMPI JUMPDEST POP POP PUSH2 0x36CD SWAP3 POP SUB DUP4 PUSH2 0x383A JUMP JUMPDEST PUSH2 0x189F PUSH1 0x40 MLOAD SWAP3 DUP3 DUP5 SWAP4 DUP5 MSTORE DUP4 ADD SWAP1 PUSH2 0x38AA JUMP JUMPDEST SWAP1 DUP6 SWAP3 POP PUSH1 0x3 DUP3 MSTORE PUSH32 0xC2575A0E9E593C00F959F8C92F12DB2869C3395A3B0502D05E2516446F71F85B JUMPDEST DUP6 DUP4 LT PUSH2 0x3723 JUMPI POP POP PUSH2 0x36CD SWAP4 POP DUP3 ADD ADD CODESIZE DUP1 PUSH2 0x36BF JUMP JUMPDEST DUP1 SLOAD DUP4 DUP10 ADD DUP6 ADD MSTORE DUP8 SWAP5 POP DUP7 SWAP4 SWAP1 SWAP3 ADD SWAP2 DUP2 ADD PUSH2 0x370B JUMP JUMPDEST SWAP2 POP SWAP4 POP PUSH2 0x36CD SWAP6 SWAP3 POP PUSH32 0xFFFFFFFFFFFFFFFFFFFFFFFFFFFFFFFFFFFFFFFFFFFFFFFFFFFFFFFFFFFFFF00 SWAP2 POP AND DUP3 DUP5 ADD MSTORE ISZERO ISZERO PUSH1 0x5 SHL DUP3 ADD ADD CODESIZE DUP1 PUSH2 0x36BF JUMP JUMPDEST PUSH1 0x24 DUP4 PUSH32 0x4E487B7100000000000000000000000000000000000000000000000000000000 DUP2 MSTORE PUSH1 0x22 PUSH1 0x4 MSTORE REVERT JUMPDEST SWAP4 PUSH1 0x7F AND SWAP4 PUSH2 0x3699 JUMP JUMPDEST SWAP1 POP CALLVALUE PUSH2 0x1219 JUMPI PUSH1 0x20 PUSH32 0xFFFFFFFFFFFFFFFFFFFFFFFFFFFFFFFFFFFFFFFFFFFFFFFFFFFFFFFFFFFFFFFC CALLDATASIZE ADD SLT PUSH2 0x1219 JUMPI PUSH1 0x4 CALLDATALOAD PUSH20 0xFFFFFFFFFFFFFFFFFFFFFFFFFFFFFFFFFFFFFFFF SWAP1 DUP2 DUP2 AND DUP1 SWAP2 SUB PUSH2 0x146D JUMPI DUP4 PUSH1 0x40 SWAP2 PUSH1 0x20 SWAP6 MSTORE DUP1 DUP6 MSTORE KECCAK256 SLOAD AND DUP2 MSTORE RETURN JUMPDEST CALLDATALOAD SWAP1 PUSH20 0xFFFFFFFFFFFFFFFFFFFFFFFFFFFFFFFFFFFFFFFF DUP3 AND DUP3 SUB PUSH2 0x443 JUMPI JUMP JUMPDEST SWAP1 PUSH1 0x1F PUSH32 0xFFFFFFFFFFFFFFFFFFFFFFFFFFFFFFFFFFFFFFFFFFFFFFFFFFFFFFFFFFFFFFE0 SWAP2 ADD AND DUP2 ADD SWAP1 DUP2 LT PUSH8 0xFFFFFFFFFFFFFFFF DUP3 GT OR PUSH2 0x387B JUMPI PUSH1 0x40 MSTORE JUMP JUMPDEST PUSH32 0x4E487B7100000000000000000000000000000000000000000000000000000000 PUSH1 0x0 MSTORE PUSH1 0x41 PUSH1 0x4 MSTORE PUSH1 0x24 PUSH1 0x0 REVERT JUMPDEST SWAP2 SWAP1 DUP3 MLOAD SWAP3 DUP4 DUP3 MSTORE PUSH1 0x0 JUMPDEST DUP5 DUP2 LT PUSH2 0x38F4 JUMPI POP POP PUSH32 0xFFFFFFFFFFFFFFFFFFFFFFFFFFFFFFFFFFFFFFFFFFFFFFFFFFFFFFFFFFFFFFE0 PUSH1 0x1F DUP5 PUSH1 0x0 PUSH1 0x20 DUP1 SWAP7 SWAP8 DUP7 ADD ADD MSTORE ADD AND ADD ADD SWAP1 JUMP JUMPDEST PUSH1 0x20 DUP2 DUP4 ADD DUP2 ADD MLOAD DUP5 DUP4 ADD DUP3 ADD MSTORE ADD PUSH2 0x38B5 JUMP JUMPDEST SWAP2 DUP2 PUSH1 0x1F DUP5 ADD SLT ISZERO PUSH2 0x443 JUMPI DUP3 CALLDATALOAD SWAP2 PUSH8 0xFFFFFFFFFFFFFFFF DUP4 GT PUSH2 0x443 JUMPI PUSH1 0x20 DUP4 DUP2 DUP7 ADD SWAP6 ADD ADD GT PUSH2 0x443 JUMPI JUMP JUMPDEST SWAP2 DUP2 PUSH1 0x1F DUP5 ADD SLT ISZERO PUSH2 0x443 JUMPI DUP3 CALLDATALOAD SWAP2 PUSH8 0xFFFFFFFFFFFFFFFF DUP4 GT PUSH2 0x443 JUMPI PUSH1 0x20 DUP1 DUP6 ADD SWAP5 DUP5 PUSH1 0x5 SHL ADD ADD GT PUSH2 0x443 JUMPI JUMP JUMPDEST PUSH8 0xFFFFFFFFFFFFFFFF DUP2 GT PUSH2 0x387B JUMPI PUSH1 0x1F ADD PUSH32 0xFFFFFFFFFFFFFFFFFFFFFFFFFFFFFFFFFFFFFFFFFFFFFFFFFFFFFFFFFFFFFFE0 AND PUSH1 0x20 ADD SWAP1 JUMP JUMPDEST PUSH8 0xFFFFFFFFFFFFFFFF DUP2 GT PUSH2 0x387B JUMPI PUSH1 0x5 SHL PUSH1 0x20 ADD SWAP1 JUMP JUMPDEST SWAP2 SWAP1 SWAP2 PUSH1 0xA0 DUP2 DUP5 SUB SLT PUSH2 0x443 JUMPI PUSH2 0x39CF DUP2 PUSH2 0x3819 JUMP JUMPDEST SWAP3 PUSH1 0x20 DUP3 ADD CALLDATALOAD SWAP3 PUSH2 0x39E2 PUSH1 0x40 DUP5 ADD PUSH2 0x3819 JUMP JUMPDEST SWAP3 PUSH1 0x60 DUP2 ADD CALLDATALOAD SWAP3 PUSH1 0x80 DUP3 ADD CALLDATALOAD PUSH8 0xFFFFFFFFFFFFFFFF DUP2 GT PUSH2 0x443 JUMPI PUSH2 0x3A07 SWAP3 ADD PUSH2 0x3908 JUMP JUMPDEST SWAP1 SWAP2 JUMP JUMPDEST SWAP2 PUSH2 0x120 DUP4 DUP4 SUB SLT PUSH2 0x443 JUMPI PUSH2 0x3A20 DUP4 PUSH2 0x3819 JUMP JUMPDEST SWAP3 PUSH2 0x3A2D PUSH1 0x20 DUP3 ADD PUSH2 0x3819 JUMP JUMPDEST SWAP3 PUSH2 0x3A3A PUSH1 0x40 DUP4 ADD PUSH2 0x3819 JUMP JUMPDEST SWAP3 PUSH1 0x60 DUP4 ADD CALLDATALOAD SWAP3 PUSH1 0x80 DUP2 ADD CALLDATALOAD SWAP3 PUSH1 0xA0 DUP3 ADD CALLDATALOAD SWAP3 PUSH8 0xFFFFFFFFFFFFFFFF SWAP1 PUSH1 0xC0 DUP5 ADD CALLDATALOAD DUP3 DUP2 GT PUSH2 0x443 JUMPI DUP4 PUSH2 0x3A6F SWAP2 DUP7 ADD PUSH2 0x3908 JUMP JUMPDEST SWAP5 SWAP1 SWAP5 SWAP4 PUSH1 0xE0 DUP3 ADD CALLDATALOAD PUSH1 0x7 DUP2 LT ISZERO PUSH2 0x443 JUMPI SWAP4 PUSH2 0x100 DUP4 ADD CALLDATALOAD SWAP1 DUP2 GT PUSH2 0x443 JUMPI PUSH2 0x3A07 SWAP3 ADD PUSH2 0x3936 JUMP JUMPDEST DUP1 SLOAD DUP3 LT ISZERO PUSH2 0x3AB1 JUMPI PUSH1 0x0 MSTORE PUSH1 0x20 PUSH1 0x0 KECCAK256 ADD SWAP1 PUSH1 0x0 SWAP1 JUMP JUMPDEST PUSH32 0x4E487B7100000000000000000000000000000000000000000000000000000000 PUSH1 0x0 MSTORE PUSH1 0x32 PUSH1 0x4 MSTORE PUSH1 0x24 PUSH1 0x0 REVERT JUMPDEST MLOAD SWAP1 PUSH20 0xFFFFFFFFFFFFFFFFFFFFFFFFFFFFFFFFFFFFFFFF DUP3 AND DUP3 SUB PUSH2 0x443 JUMPI JUMP JUMPDEST MLOAD SWAP1 PUSH12 0xFFFFFFFFFFFFFFFFFFFFFFFF DUP3 AND DUP3 SUB PUSH2 0x443 JUMPI JUMP JUMPDEST SWAP1 DUP2 PUSH1 0xA0 SWAP2 SUB SLT PUSH2 0x443 JUMPI DUP1 MLOAD DUP1 ISZERO ISZERO DUP2 SUB PUSH2 0x443 JUMPI SWAP2 PUSH1 0x20 DUP3 ADD MLOAD PUSH11 0xFFFFFFFFFFFFFFFFFFFFFF DUP2 AND DUP2 SUB PUSH2 0x443 JUMPI SWAP2 PUSH2 0x3B57 PUSH1 0x40 DUP3 ADD PUSH2 0x3AE0 JUMP JUMPDEST SWAP2 PUSH2 0x3B70 PUSH1 0x80 PUSH2 0x3B69 PUSH1 0x60 DUP6 ADD PUSH2 0x3AE0 JUMP JUMPDEST SWAP4 ADD PUSH2 0x3B01 JUMP JUMPDEST SWAP1 JUMP JUMPDEST PUSH32 0xFFFFFFFFFFFFFFFFFFFFFFFFFFFFFFFFFFFFFFFFFFFFFFFFFFFFFFFFFFFFFFFF DUP2 EQ PUSH2 0x3BA0 JUMPI PUSH1 0x1 ADD SWAP1 JUMP JUMPDEST PUSH32 0x4E487B7100000000000000000000000000000000000000000000000000000000 PUSH1 0x0 MSTORE PUSH1 0x11 PUSH1 0x4 MSTORE PUSH1 0x24 PUSH1 0x0 REVERT JUMPDEST SWAP2 SWAP1 DUP3 PUSH2 0x100 SWAP2 SUB SLT PUSH2 0x443 JUMPI DUP2 MLOAD SWAP2 PUSH1 0x20 DUP2 ADD MLOAD SWAP2 PUSH1 0x40 DUP3 ADD MLOAD SWAP2 PUSH1 0x60 DUP2 ADD MLOAD SWAP2 PUSH1 0x80 DUP3 ADD MLOAD SWAP2 PUSH1 0xA0 DUP2 ADD MLOAD SWAP2 PUSH1 0xE0 PUSH1 0xC0 DUP4 ADD MLOAD SWAP3 ADD MLOAD SWAP1 JUMP JUMPDEST SWAP2 SWAP1 DUP3 ADD DUP1 SWAP3 GT PUSH2 0x3BA0 JUMPI JUMP JUMPDEST SWAP1 DUP2 PUSH1 0x60 SWAP2 SUB SLT PUSH2 0x443 JUMPI DUP1 MLOAD SWAP2 PUSH1 0x40 PUSH1 0x20 DUP4 ADD MLOAD SWAP3 ADD MLOAD SWAP1 JUMP JUMPDEST SWAP2 SWAP1 DUP3 PUSH1 0x40 SWAP2 SUB SLT PUSH2 0x443 JUMPI PUSH1 0x20 DUP3 MLOAD SWAP3 ADD MLOAD SWAP1 JUMP JUMPDEST SWAP3 SWAP2 SWAP3 PUSH2 0x3C54 DUP3 PUSH2 0x3967 JUMP JUMPDEST SWAP2 PUSH2 0x3C62 PUSH1 0x40 MLOAD SWAP4 DUP5 PUSH2 0x383A JUMP JUMPDEST DUP3 SWAP5 DUP2 DUP5 MSTORE DUP2 DUP4 ADD GT PUSH2 0x443 JUMPI DUP3 DUP2 PUSH1 0x20 SWAP4 DUP5 PUSH1 0x0 SWAP7 ADD CALLDATACOPY ADD ADD MSTORE JUMP JUMPDEST SWAP1 SWAP3 PUSH2 0x3B70 SWAP5 SWAP4 PUSH1 0x80 SWAP4 PUSH20 0xFFFFFFFFFFFFFFFFFFFFFFFFFFFFFFFFFFFFFFFF DUP1 SWAP3 AND DUP5 MSTORE AND PUSH1 0x20 DUP4 ADD MSTORE PUSH1 0x40 DUP3 ADD MSTORE DUP2 PUSH1 0x60 DUP3 ADD MSTORE ADD SWAP1 PUSH2 0x38AA JUMP JUMPDEST TIMESTAMP GT PUSH2 0x3CC3 JUMPI JUMP JUMPDEST PUSH1 0x4 PUSH1 0x40 MLOAD PUSH32 0xC828CDF500000000000000000000000000000000000000000000000000000000 DUP2 MSTORE REVERT JUMPDEST SWAP2 SWAP1 DUP2 MLOAD DUP1 ISZERO PUSH2 0x3DC3 JUMPI DUP3 PUSH1 0x80 SWAP2 DUP2 ADD SUB SLT PUSH2 0x443 JUMPI PUSH1 0x20 DUP3 ADD MLOAD SWAP3 PUSH1 0x40 DUP4 ADD MLOAD SWAP4 PUSH1 0xFF DUP6 AND DUP1 SWAP6 SUB PUSH2 0x443 JUMPI PUSH20 0xFFFFFFFFFFFFFFFFFFFFFFFFFFFFFFFFFFFFFFFF PUSH1 0x80 PUSH1 0x60 DUP7 ADD MLOAD SWAP6 ADD MLOAD SWAP3 AND SWAP4 DUP5 EXTCODESIZE ISZERO PUSH2 0x443 JUMPI PUSH1 0x0 SWAP5 PUSH1 0xE4 SWAP4 DUP7 SWAP3 PUSH1 0x40 MLOAD SWAP9 DUP10 SWAP8 DUP9 SWAP7 PUSH32 0xD505ACCF00000000000000000000000000000000000000000000000000000000 DUP9 MSTORE CALLER PUSH1 0x4 DUP10 ADD MSTORE ADDRESS PUSH1 0x24 DUP10 ADD MSTORE PUSH1 0x44 DUP9 ADD MSTORE PUSH1 0x64 DUP8 ADD MSTORE PUSH1 0x84 DUP7 ADD MSTORE PUSH1 0xA4 DUP6 ADD MSTORE PUSH1 0xC4 DUP5 ADD MSTORE GAS CALL DUP1 ISZERO PUSH2 0x3DB7 JUMPI PUSH2 0x3DAA JUMPI POP JUMP JUMPDEST PUSH1 0x0 PUSH2 0x3DB5 SWAP2 PUSH2 0x383A JUMP JUMPDEST JUMP JUMPDEST PUSH1 0x40 MLOAD RETURNDATASIZE PUSH1 0x0 DUP3 RETURNDATACOPY RETURNDATASIZE SWAP1 REVERT JUMPDEST POP POP POP POP JUMP JUMPDEST SWAP1 SWAP2 PUSH20 0xFFFFFFFFFFFFFFFFFFFFFFFFFFFFFFFFFFFFFFFF DUP1 SWAP3 AND DUP1 EXTCODESIZE ISZERO PUSH2 0x443 JUMPI PUSH1 0x40 SWAP3 DUP4 MLOAD SWAP3 PUSH32 0xA6AFED9500000000000000000000000000000000000000000000000000000000 DUP5 MSTORE PUSH1 0x0 SWAP4 DUP5 DUP2 PUSH1 0x4 DUP2 DUP4 DUP9 GAS CALL DUP1 ISZERO PUSH2 0x3EC8 JUMPI SWAP1 DUP7 SWAP4 SWAP3 SWAP2 PUSH2 0x3EB3 JUMPI JUMPDEST POP PUSH1 0x24 SWAP1 DUP4 MLOAD SWAP5 DUP6 SWAP4 DUP5 SWAP3 PUSH32 0x7D6AF07900000000000000000000000000000000000000000000000000000000 DUP5 MSTORE AND PUSH1 0x4 DUP4 ADD MSTORE GAS STATICCALL SWAP3 DUP4 ISZERO PUSH2 0x3EA8 JUMPI DUP3 SWAP4 PUSH2 0x3E87 JUMPI JUMPDEST POP POP POP DUP1 DUP3 LT ISZERO PUSH2 0x3E82 JUMPI POP SWAP1 JUMP JUMPDEST SWAP1 POP SWAP1 JUMP JUMPDEST PUSH2 0x3E9E SWAP3 SWAP4 POP DUP1 RETURNDATASIZE LT PUSH2 0x3C0 JUMPI PUSH2 0x3B2 DUP2 DUP4 PUSH2 0x383A JUMP JUMPDEST SWAP1 POP SWAP1 CODESIZE DUP1 PUSH2 0x3E73 JUMP JUMPDEST MLOAD SWAP2 RETURNDATASIZE SWAP2 POP DUP3 RETURNDATACOPY RETURNDATASIZE SWAP1 REVERT JUMPDEST SWAP5 PUSH2 0x3EC1 DUP2 PUSH1 0x24 SWAP4 SWAP8 PUSH2 0x383A JUMP JUMPDEST SWAP5 SWAP1 PUSH2 0x3E2F JUMP JUMPDEST DUP7 MLOAD RETURNDATASIZE DUP8 DUP3 RETURNDATACOPY RETURNDATASIZE SWAP1 REVERT JUMPDEST CALLDATALOAD SWAP1 PUSH6 0xFFFFFFFFFFFF DUP3 AND DUP3 SUB PUSH2 0x443 JUMPI JUMP JUMPDEST PUSH1 0x1F DUP3 PUSH1 0x20 SWAP5 SWAP4 PUSH32 0xFFFFFFFFFFFFFFFFFFFFFFFFFFFFFFFFFFFFFFFFFFFFFFFFFFFFFFFFFFFFFFE0 SWAP4 DUP2 DUP7 MSTORE DUP7 DUP7 ADD CALLDATACOPY PUSH1 0x0 DUP6 DUP3 DUP7 ADD ADD MSTORE ADD AND ADD ADD SWAP1 JUMP JUMPDEST SWAP1 SWAP4 SWAP2 PUSH20 0xFFFFFFFFFFFFFFFFFFFFFFFFFFFFFFFFFFFFFFFF DUP1 SWAP6 AND DUP3 MSTORE DUP5 PUSH2 0x3F4B DUP3 PUSH2 0x3819 JUMP JUMPDEST AND PUSH1 0x20 DUP4 ADD MSTORE PUSH1 0x20 DUP2 ADD CALLDATALOAD SWAP1 DUP6 DUP3 AND DUP1 SWAP3 SUB PUSH2 0x443 JUMPI PUSH2 0x3B70 SWAP6 PUSH1 0xA0 SWAP3 PUSH1 0x40 DUP6 ADD MSTORE PUSH6 0xFFFFFFFFFFFF DUP1 PUSH2 0x3F81 PUSH1 0x40 DUP6 ADD PUSH2 0x3ED2 JUMP JUMPDEST AND PUSH1 0x60 DUP7 ADD MSTORE PUSH2 0x3F93 PUSH1 0x60 DUP5 ADD PUSH2 0x3ED2 JUMP JUMPDEST AND PUSH1 0x80 DUP6 ADD MSTORE PUSH2 0x3FA5 PUSH1 0x80 DUP4 ADD PUSH2 0x3819 JUMP JUMPDEST AND DUP3 DUP5 ADD MSTORE ADD CALLDATALOAD PUSH1 0xC0 DUP3 ADD MSTORE PUSH2 0x100 SWAP1 DUP2 PUSH1 0xE0 DUP3 ADD MSTORE ADD SWAP2 PUSH2 0x3EE5 JUMP JUMPDEST SWAP2 SWAP3 PUSH1 0x20 PUSH2 0x3B70 SWAP7 SWAP5 PUSH1 0x60 PUSH20 0xFFFFFFFFFFFFFFFFFFFFFFFFFFFFFFFFFFFFFFFF SWAP5 DUP6 PUSH2 0x3FED DUP3 PUSH2 0x3819 JUMP JUMPDEST AND DUP8 MSTORE DUP4 DUP2 ADD CALLDATALOAD DUP5 DUP9 ADD MSTORE PUSH1 0x40 DUP2 ADD CALLDATALOAD PUSH1 0x40 DUP9 ADD MSTORE ADD CALLDATALOAD PUSH1 0x60 DUP7 ADD MSTORE DUP4 DUP2 MLOAD AND PUSH1 0x80 DUP7 ADD MSTORE ADD MLOAD PUSH1 0xA0 DUP5 ADD MSTORE AND PUSH1 0xC0 DUP3 ADD MSTORE PUSH2 0x100 SWAP1 DUP2 PUSH1 0xE0 DUP3 ADD MSTORE ADD SWAP2 PUSH2 0x3EE5 JUMP JUMPDEST PUSH1 0x7 DUP3 LT ISZERO PUSH2 0x403C JUMPI MSTORE JUMP JUMPDEST PUSH32 0x4E487B7100000000000000000000000000000000000000000000000000000000 PUSH1 0x0 MSTORE PUSH1 0x21 PUSH1 0x4 MSTORE PUSH1 0x24 PUSH1 0x0 REVERT JUMPDEST SWAP3 SWAP2 SWAP1 SWAP3 PUSH2 0x4078 DUP5 PUSH2 0x39A1 JUMP JUMPDEST SWAP2 PUSH2 0x4086 PUSH1 0x40 MLOAD SWAP4 DUP5 PUSH2 0x383A JUMP JUMPDEST DUP3 SWAP5 DUP1 DUP5 MSTORE PUSH1 0x20 DUP1 SWAP5 ADD SWAP1 PUSH1 0x5 SHL DUP4 ADD SWAP3 DUP3 DUP5 GT PUSH2 0x443 JUMPI DUP1 SWAP2 JUMPDEST DUP5 DUP4 LT PUSH2 0x40B0 JUMPI POP POP POP POP POP POP JUMP JUMPDEST DUP3 CALLDATALOAD PUSH8 0xFFFFFFFFFFFFFFFF DUP2 GT PUSH2 0x443 JUMPI DUP3 ADD DUP5 PUSH1 0x1F DUP3 ADD SLT ISZERO PUSH2 0x443 JUMPI DUP7 SWAP2 PUSH2 0x40E0 DUP7 DUP4 DUP6 DUP1 SWAP6 CALLDATALOAD SWAP2 ADD PUSH2 0x3C48 JUMP JUMPDEST DUP2 MSTORE ADD SWAP3 ADD SWAP2 PUSH2 0x40A1 JUMP JUMPDEST SWAP1 PUSH1 0x7 DUP3 LT ISZERO PUSH2 0x403C JUMPI MSTORE JUMP JUMPDEST SWAP1 DUP2 MLOAD DUP1 DUP3 MSTORE PUSH1 0x20 DUP1 SWAP3 ADD SWAP2 DUP3 DUP2 DUP4 PUSH1 0x5 SHL DUP6 ADD SWAP6 ADD SWAP4 PUSH1 0x0 SWAP2 JUMPDEST DUP5 DUP4 LT PUSH2 0x4123 JUMPI POP POP POP POP POP POP SWAP1 JUMP JUMPDEST SWAP1 SWAP2 SWAP3 SWAP4 SWAP5 SWAP6 DUP5 DUP1 PUSH2 0x413D DUP4 DUP6 PUSH1 0x1 SWAP6 SUB DUP8 MSTORE DUP11 MLOAD PUSH2 0x38AA JUMP JUMPDEST SWAP9 ADD SWAP4 ADD SWAP4 ADD SWAP2 SWAP5 SWAP4 SWAP3 SWAP1 PUSH2 0x4113 JUMP JUMPDEST DUP1 MLOAD DUP3 LT ISZERO PUSH2 0x3AB1 JUMPI PUSH1 0x20 SWAP2 PUSH1 0x5 SHL ADD ADD SWAP1 JUMP JUMPDEST PUSH1 0x1C PUSH1 0x0 PUSH1 0x64 SWAP3 DUP2 SWAP5 PUSH1 0x20 SWAP7 PUSH1 0x40 MLOAD SWAP9 PUSH1 0x60 MSTORE PUSH1 0x40 MSTORE PUSH1 0x60 SHL PUSH1 0x2C MSTORE PUSH16 0x23B872DD000000000000000000000000 PUSH1 0xC MSTORE GAS CALL RETURNDATASIZE ISZERO PUSH1 0x1 PUSH1 0x0 MLOAD EQ OR AND ISZERO PUSH2 0x41AC JUMPI PUSH1 0x0 PUSH1 0x60 MSTORE PUSH1 0x40 MSTORE JUMP JUMPDEST PUSH4 0x7939F424 PUSH1 0x0 MSTORE PUSH1 0x4 PUSH1 0x1C REVERT INVALID LOG1 PUSH5 0x736F6C6343 STOP ADDMOD GT STOP EXP "},"methodIdentifiers":{"ONE_INCH_ROUTER_V5()":"bdcb9932","OPEN_OCEAN_EXCHANGE_PROXY()":"72e05064","OxPROJECT_EXCHANGE_PROXY()":"2f764135","PARASWAP_AUGUSTUS_SWAPPER_V5()":"88a799f6","PERMIT2()":"6afdd850","UNISWAP_V3_ROUTER()":"41c64a2f","allExtensions(uint256)":"e731f6d1","altairExtensionsLength()":"0c0cf11a","borrow(address,uint256,address,uint256,bytes)":"dbe5f2fb","deleverage(address,address,address,uint256,uint256,uint256,bytes,uint8,bytes[])":"e75ee2e3","flashLiquidate(address,address,uint256,address,uint256,uint8,bytes[])":"2a90e82f","getAltairExtension(address)":"01ce1f6e","getAssetsForShares(address,uint256,uint256)":"d0189a91","getShuttleExtension(uint256)":"70bf79c6","hangar18()":"e8a24e1d","isExtension(address)":"f847ed48","latestAccountLiquidity(address,address)":"fc4bcda9","latestBorrowerAll(address)":"b8feb704","latestBorrowerPosition(address,address)":"1b18ff8a","latestLenderAll(address)":"14016d21","latestLenderPosition(address,address)":"668e143d","latestShuttleInfo(address)":"d6366512","leverage(address,address,address,uint256,uint256,uint256,bytes,uint8,bytes[])":"d6906d23","liquidate(address,uint256,address,address,uint256,bytes)":"7f32d8f4","liquidatePermit2Allowance(address,uint256,address,address,uint256,((address,uint160,uint48,uint48),address,uint256),bytes)":"c2a95ddf","liquidatePermit2Signature(address,uint256,address,address,uint256,((address,uint256),uint256,uint256),bytes)":"21a5e908","name()":"06fdde03","nativeToken()":"e1758bd8","repay(address,uint256,address,uint256,bytes)":"76c05f65","repayPermit2Allowance(address,uint256,address,uint256,((address,uint160,uint48,uint48),address,uint256),bytes)":"0f22d435","repayPermit2Signature(address,uint256,address,uint256,((address,uint256),uint256,uint256),bytes)":"0e12d008","setAltairExtension(uint256,address)":"2d6bf1f9","sweepNative()":"ab803a76","sweepTokens(address[],address)":"7071f0c4","usd()":"d63a6ccd","version()":"54fd4d50"}}}}}