{
  "_format": "hh-sol-artifact-1",
  "contractName": "CygnusAltair",
  "sourceName": "contracts/cygnus-periphery/CygnusAltair.sol",
  "abi": [
    {
      "inputs": [
        {
          "internalType": "contract IHangar18",
          "name": "_hangar18",
          "type": "address"
        }
      ],
      "stateMutability": "nonpayable",
      "type": "constructor"
    },
    {
      "inputs": [],
      "name": "CygnusAltair__0xProjectTransactionFailed",
      "type": "error"
    },
    {
      "inputs": [],
      "name": "CygnusAltair__AltairXDoesNotExist",
      "type": "error"
    },
    {
      "inputs": [],
      "name": "CygnusAltair__MsgSenderNotAdmin",
      "type": "error"
    },
    {
      "inputs": [],
      "name": "CygnusAltair__OneInchTransactionFailed",
      "type": "error"
    },
    {
      "inputs": [],
      "name": "CygnusAltair__OpenOceanTransactionFailed",
      "type": "error"
    },
    {
      "inputs": [],
      "name": "CygnusAltair__ParaswapTransactionFailed",
      "type": "error"
    },
    {
      "inputs": [],
      "name": "CygnusAltair__ShuttleDoesNotExist",
      "type": "error"
    },
    {
      "inputs": [],
      "name": "CygnusAltair__TransactionExpired",
      "type": "error"
    },
    {
      "anonymous": false,
      "inputs": [
        {
          "indexed": true,
          "internalType": "uint256",
          "name": "shuttleId",
          "type": "uint256"
        },
        {
          "indexed": false,
          "internalType": "address",
          "name": "borrowable",
          "type": "address"
        },
        {
          "indexed": false,
          "internalType": "address",
          "name": "collateral",
          "type": "address"
        },
        {
          "indexed": false,
          "internalType": "address",
          "name": "lpTokenAddres",
          "type": "address"
        },
        {
          "indexed": false,
          "internalType": "address",
          "name": "extension",
          "type": "address"
        }
      ],
      "name": "NewExtension",
      "type": "event"
    },
    {
      "stateMutability": "payable",
      "type": "fallback"
    },
    {
      "inputs": [],
      "name": "OKX_AGGREGATION_ROUTER",
      "outputs": [
        {
          "internalType": "address",
          "name": "",
          "type": "address"
        }
      ],
      "stateMutability": "view",
      "type": "function"
    },
    {
      "inputs": [],
      "name": "ONE_INCH_ROUTER_V5",
      "outputs": [
        {
          "internalType": "address",
          "name": "",
          "type": "address"
        }
      ],
      "stateMutability": "view",
      "type": "function"
    },
    {
      "inputs": [],
      "name": "OPEN_OCEAN_EXCHANGE_PROXY",
      "outputs": [
        {
          "internalType": "address",
          "name": "",
          "type": "address"
        }
      ],
      "stateMutability": "view",
      "type": "function"
    },
    {
      "inputs": [],
      "name": "OxPROJECT_EXCHANGE_PROXY",
      "outputs": [
        {
          "internalType": "address",
          "name": "",
          "type": "address"
        }
      ],
      "stateMutability": "view",
      "type": "function"
    },
    {
      "inputs": [],
      "name": "PARASWAP_AUGUSTUS_SWAPPER_V5",
      "outputs": [
        {
          "internalType": "address",
          "name": "",
          "type": "address"
        }
      ],
      "stateMutability": "view",
      "type": "function"
    },
    {
      "inputs": [],
      "name": "PERMIT2",
      "outputs": [
        {
          "internalType": "address",
          "name": "",
          "type": "address"
        }
      ],
      "stateMutability": "view",
      "type": "function"
    },
    {
      "inputs": [],
      "name": "UNISWAP_V3_ROUTER",
      "outputs": [
        {
          "internalType": "address",
          "name": "",
          "type": "address"
        }
      ],
      "stateMutability": "view",
      "type": "function"
    },
    {
      "inputs": [
        {
          "internalType": "uint256",
          "name": "",
          "type": "uint256"
        }
      ],
      "name": "allExtensions",
      "outputs": [
        {
          "internalType": "address",
          "name": "",
          "type": "address"
        }
      ],
      "stateMutability": "view",
      "type": "function"
    },
    {
      "inputs": [],
      "name": "altairExtensionsLength",
      "outputs": [
        {
          "internalType": "uint256",
          "name": "",
          "type": "uint256"
        }
      ],
      "stateMutability": "view",
      "type": "function"
    },
    {
      "inputs": [
        {
          "internalType": "address",
          "name": "borrowable",
          "type": "address"
        },
        {
          "internalType": "uint256",
          "name": "amount",
          "type": "uint256"
        },
        {
          "internalType": "address",
          "name": "recipient",
          "type": "address"
        },
        {
          "internalType": "uint256",
          "name": "deadline",
          "type": "uint256"
        },
        {
          "internalType": "bytes",
          "name": "permitData",
          "type": "bytes"
        }
      ],
      "name": "borrow",
      "outputs": [],
      "stateMutability": "nonpayable",
      "type": "function"
    },
    {
      "inputs": [
        {
          "internalType": "address",
          "name": "lpTokenPair",
          "type": "address"
        },
        {
          "internalType": "address",
          "name": "collateral",
          "type": "address"
        },
        {
          "internalType": "address",
          "name": "borrowable",
          "type": "address"
        },
        {
          "internalType": "uint256",
          "name": "cygLPAmount",
          "type": "uint256"
        },
        {
          "internalType": "uint256",
          "name": "usdAmountMin",
          "type": "uint256"
        },
        {
          "internalType": "uint256",
          "name": "deadline",
          "type": "uint256"
        },
        {
          "internalType": "bytes",
          "name": "permitData",
          "type": "bytes"
        },
        {
          "internalType": "enum ICygnusAltair.DexAggregator",
          "name": "dexAggregator",
          "type": "uint8"
        },
        {
          "internalType": "bytes[]",
          "name": "swapdata",
          "type": "bytes[]"
        }
      ],
      "name": "deleverage",
      "outputs": [
        {
          "internalType": "uint256",
          "name": "usdAmount",
          "type": "uint256"
        }
      ],
      "stateMutability": "nonpayable",
      "type": "function"
    },
    {
      "inputs": [
        {
          "internalType": "address",
          "name": "borrowable",
          "type": "address"
        },
        {
          "internalType": "address",
          "name": "collateral",
          "type": "address"
        },
        {
          "internalType": "uint256",
          "name": "amountMax",
          "type": "uint256"
        },
        {
          "internalType": "address",
          "name": "borrower",
          "type": "address"
        },
        {
          "internalType": "uint256",
          "name": "deadline",
          "type": "uint256"
        },
        {
          "internalType": "enum ICygnusAltair.DexAggregator",
          "name": "dexAggregator",
          "type": "uint8"
        },
        {
          "internalType": "bytes[]",
          "name": "swapdata",
          "type": "bytes[]"
        }
      ],
      "name": "flashLiquidate",
      "outputs": [
        {
          "internalType": "uint256",
          "name": "amount",
          "type": "uint256"
        }
      ],
      "stateMutability": "nonpayable",
      "type": "function"
    },
    {
      "inputs": [
        {
          "internalType": "address",
          "name": "poolToken",
          "type": "address"
        }
      ],
      "name": "getAltairExtension",
      "outputs": [
        {
          "internalType": "address",
          "name": "",
          "type": "address"
        }
      ],
      "stateMutability": "view",
      "type": "function"
    },
    {
      "inputs": [
        {
          "internalType": "address",
          "name": "lpTokenPair",
          "type": "address"
        },
        {
          "internalType": "uint256",
          "name": "shares",
          "type": "uint256"
        },
        {
          "internalType": "uint256",
          "name": "difference",
          "type": "uint256"
        }
      ],
      "name": "getAssetsForShares",
      "outputs": [
        {
          "internalType": "address[]",
          "name": "tokens",
          "type": "address[]"
        },
        {
          "internalType": "uint256[]",
          "name": "amounts",
          "type": "uint256[]"
        }
      ],
      "stateMutability": "view",
      "type": "function"
    },
    {
      "inputs": [
        {
          "internalType": "uint256",
          "name": "shuttleId",
          "type": "uint256"
        }
      ],
      "name": "getShuttleExtension",
      "outputs": [
        {
          "internalType": "address",
          "name": "",
          "type": "address"
        }
      ],
      "stateMutability": "view",
      "type": "function"
    },
    {
      "inputs": [],
      "name": "hangar18",
      "outputs": [
        {
          "internalType": "contract IHangar18",
          "name": "",
          "type": "address"
        }
      ],
      "stateMutability": "view",
      "type": "function"
    },
    {
      "inputs": [
        {
          "internalType": "address",
          "name": "",
          "type": "address"
        }
      ],
      "name": "isExtension",
      "outputs": [
        {
          "internalType": "bool",
          "name": "",
          "type": "bool"
        }
      ],
      "stateMutability": "view",
      "type": "function"
    },
    {
      "inputs": [
        {
          "internalType": "address",
          "name": "lpTokenPair",
          "type": "address"
        },
        {
          "internalType": "address",
          "name": "collateral",
          "type": "address"
        },
        {
          "internalType": "address",
          "name": "borrowable",
          "type": "address"
        },
        {
          "internalType": "uint256",
          "name": "usdAmount",
          "type": "uint256"
        },
        {
          "internalType": "uint256",
          "name": "lpAmountMin",
          "type": "uint256"
        },
        {
          "internalType": "uint256",
          "name": "deadline",
          "type": "uint256"
        },
        {
          "internalType": "bytes",
          "name": "permitData",
          "type": "bytes"
        },
        {
          "internalType": "enum ICygnusAltair.DexAggregator",
          "name": "dexAggregator",
          "type": "uint8"
        },
        {
          "internalType": "bytes[]",
          "name": "swapdata",
          "type": "bytes[]"
        }
      ],
      "name": "leverage",
      "outputs": [
        {
          "internalType": "uint256",
          "name": "liquidity",
          "type": "uint256"
        }
      ],
      "stateMutability": "nonpayable",
      "type": "function"
    },
    {
      "inputs": [
        {
          "internalType": "address",
          "name": "borrowable",
          "type": "address"
        },
        {
          "internalType": "uint256",
          "name": "amountMax",
          "type": "uint256"
        },
        {
          "internalType": "address",
          "name": "borrower",
          "type": "address"
        },
        {
          "internalType": "address",
          "name": "recipient",
          "type": "address"
        },
        {
          "internalType": "uint256",
          "name": "deadline",
          "type": "uint256"
        },
        {
          "internalType": "bytes",
          "name": "permitData",
          "type": "bytes"
        }
      ],
      "name": "liquidate",
      "outputs": [
        {
          "internalType": "uint256",
          "name": "amount",
          "type": "uint256"
        },
        {
          "internalType": "uint256",
          "name": "seizeTokens",
          "type": "uint256"
        }
      ],
      "stateMutability": "nonpayable",
      "type": "function"
    },
    {
      "inputs": [
        {
          "internalType": "address",
          "name": "borrowable",
          "type": "address"
        },
        {
          "internalType": "uint256",
          "name": "amountMax",
          "type": "uint256"
        },
        {
          "internalType": "address",
          "name": "borrower",
          "type": "address"
        },
        {
          "internalType": "address",
          "name": "recipient",
          "type": "address"
        },
        {
          "internalType": "uint256",
          "name": "deadline",
          "type": "uint256"
        },
        {
          "components": [
            {
              "components": [
                {
                  "internalType": "address",
                  "name": "token",
                  "type": "address"
                },
                {
                  "internalType": "uint160",
                  "name": "amount",
                  "type": "uint160"
                },
                {
                  "internalType": "uint48",
                  "name": "expiration",
                  "type": "uint48"
                },
                {
                  "internalType": "uint48",
                  "name": "nonce",
                  "type": "uint48"
                }
              ],
              "internalType": "struct IAllowanceTransfer.PermitDetails",
              "name": "details",
              "type": "tuple"
            },
            {
              "internalType": "address",
              "name": "spender",
              "type": "address"
            },
            {
              "internalType": "uint256",
              "name": "sigDeadline",
              "type": "uint256"
            }
          ],
          "internalType": "struct IAllowanceTransfer.PermitSingle",
          "name": "_permit",
          "type": "tuple"
        },
        {
          "internalType": "bytes",
          "name": "signature",
          "type": "bytes"
        }
      ],
      "name": "liquidatePermit2Allowance",
      "outputs": [
        {
          "internalType": "uint256",
          "name": "amount",
          "type": "uint256"
        },
        {
          "internalType": "uint256",
          "name": "seizeTokens",
          "type": "uint256"
        }
      ],
      "stateMutability": "nonpayable",
      "type": "function"
    },
    {
      "inputs": [
        {
          "internalType": "address",
          "name": "borrowable",
          "type": "address"
        },
        {
          "internalType": "uint256",
          "name": "amountMax",
          "type": "uint256"
        },
        {
          "internalType": "address",
          "name": "borrower",
          "type": "address"
        },
        {
          "internalType": "address",
          "name": "recipient",
          "type": "address"
        },
        {
          "internalType": "uint256",
          "name": "deadline",
          "type": "uint256"
        },
        {
          "components": [
            {
              "components": [
                {
                  "internalType": "address",
                  "name": "token",
                  "type": "address"
                },
                {
                  "internalType": "uint256",
                  "name": "amount",
                  "type": "uint256"
                }
              ],
              "internalType": "struct ISignatureTransfer.TokenPermissions",
              "name": "permitted",
              "type": "tuple"
            },
            {
              "internalType": "uint256",
              "name": "nonce",
              "type": "uint256"
            },
            {
              "internalType": "uint256",
              "name": "deadline",
              "type": "uint256"
            }
          ],
          "internalType": "struct ISignatureTransfer.PermitTransferFrom",
          "name": "_permit",
          "type": "tuple"
        },
        {
          "internalType": "bytes",
          "name": "signature",
          "type": "bytes"
        }
      ],
      "name": "liquidatePermit2Signature",
      "outputs": [
        {
          "internalType": "uint256",
          "name": "amount",
          "type": "uint256"
        },
        {
          "internalType": "uint256",
          "name": "seizeTokens",
          "type": "uint256"
        }
      ],
      "stateMutability": "nonpayable",
      "type": "function"
    },
    {
      "inputs": [],
      "name": "name",
      "outputs": [
        {
          "internalType": "string",
          "name": "",
          "type": "string"
        }
      ],
      "stateMutability": "view",
      "type": "function"
    },
    {
      "inputs": [],
      "name": "nativeToken",
      "outputs": [
        {
          "internalType": "contract IWrappedNative",
          "name": "",
          "type": "address"
        }
      ],
      "stateMutability": "view",
      "type": "function"
    },
    {
      "inputs": [
        {
          "internalType": "address",
          "name": "borrowable",
          "type": "address"
        },
        {
          "internalType": "uint256",
          "name": "amountMax",
          "type": "uint256"
        },
        {
          "internalType": "address",
          "name": "borrower",
          "type": "address"
        },
        {
          "internalType": "uint256",
          "name": "deadline",
          "type": "uint256"
        },
        {
          "internalType": "bytes",
          "name": "permitData",
          "type": "bytes"
        }
      ],
      "name": "repay",
      "outputs": [
        {
          "internalType": "uint256",
          "name": "amount",
          "type": "uint256"
        }
      ],
      "stateMutability": "nonpayable",
      "type": "function"
    },
    {
      "inputs": [
        {
          "internalType": "address",
          "name": "borrowable",
          "type": "address"
        },
        {
          "internalType": "uint256",
          "name": "amountMax",
          "type": "uint256"
        },
        {
          "internalType": "address",
          "name": "borrower",
          "type": "address"
        },
        {
          "internalType": "uint256",
          "name": "deadline",
          "type": "uint256"
        },
        {
          "components": [
            {
              "components": [
                {
                  "internalType": "address",
                  "name": "token",
                  "type": "address"
                },
                {
                  "internalType": "uint160",
                  "name": "amount",
                  "type": "uint160"
                },
                {
                  "internalType": "uint48",
                  "name": "expiration",
                  "type": "uint48"
                },
                {
                  "internalType": "uint48",
                  "name": "nonce",
                  "type": "uint48"
                }
              ],
              "internalType": "struct IAllowanceTransfer.PermitDetails",
              "name": "details",
              "type": "tuple"
            },
            {
              "internalType": "address",
              "name": "spender",
              "type": "address"
            },
            {
              "internalType": "uint256",
              "name": "sigDeadline",
              "type": "uint256"
            }
          ],
          "internalType": "struct IAllowanceTransfer.PermitSingle",
          "name": "_permit",
          "type": "tuple"
        },
        {
          "internalType": "bytes",
          "name": "signature",
          "type": "bytes"
        }
      ],
      "name": "repayPermit2Allowance",
      "outputs": [
        {
          "internalType": "uint256",
          "name": "amount",
          "type": "uint256"
        }
      ],
      "stateMutability": "nonpayable",
      "type": "function"
    },
    {
      "inputs": [
        {
          "internalType": "address",
          "name": "borrowable",
          "type": "address"
        },
        {
          "internalType": "uint256",
          "name": "amountMax",
          "type": "uint256"
        },
        {
          "internalType": "address",
          "name": "borrower",
          "type": "address"
        },
        {
          "internalType": "uint256",
          "name": "deadline",
          "type": "uint256"
        },
        {
          "components": [
            {
              "components": [
                {
                  "internalType": "address",
                  "name": "token",
                  "type": "address"
                },
                {
                  "internalType": "uint256",
                  "name": "amount",
                  "type": "uint256"
                }
              ],
              "internalType": "struct ISignatureTransfer.TokenPermissions",
              "name": "permitted",
              "type": "tuple"
            },
            {
              "internalType": "uint256",
              "name": "nonce",
              "type": "uint256"
            },
            {
              "internalType": "uint256",
              "name": "deadline",
              "type": "uint256"
            }
          ],
          "internalType": "struct ISignatureTransfer.PermitTransferFrom",
          "name": "_permit",
          "type": "tuple"
        },
        {
          "internalType": "bytes",
          "name": "signature",
          "type": "bytes"
        }
      ],
      "name": "repayPermit2Signature",
      "outputs": [
        {
          "internalType": "uint256",
          "name": "amount",
          "type": "uint256"
        }
      ],
      "stateMutability": "nonpayable",
      "type": "function"
    },
    {
      "inputs": [
        {
          "internalType": "uint256[]",
          "name": "shuttleIds",
          "type": "uint256[]"
        },
        {
          "internalType": "address",
          "name": "extension",
          "type": "address"
        }
      ],
      "name": "setAltairExtension",
      "outputs": [],
      "stateMutability": "nonpayable",
      "type": "function"
    },
    {
      "inputs": [],
      "name": "sweepNative",
      "outputs": [],
      "stateMutability": "nonpayable",
      "type": "function"
    },
    {
      "inputs": [
        {
          "internalType": "contract IERC20[]",
          "name": "tokens",
          "type": "address[]"
        },
        {
          "internalType": "address",
          "name": "to",
          "type": "address"
        }
      ],
      "name": "sweepTokens",
      "outputs": [],
      "stateMutability": "nonpayable",
      "type": "function"
    },
    {
      "inputs": [],
      "name": "usd",
      "outputs": [
        {
          "internalType": "address",
          "name": "",
          "type": "address"
        }
      ],
      "stateMutability": "view",
      "type": "function"
    },
    {
      "inputs": [],
      "name": "version",
      "outputs": [
        {
          "internalType": "string",
          "name": "",
          "type": "string"
        }
      ],
      "stateMutability": "view",
      "type": "function"
    },
    {
      "stateMutability": "payable",
      "type": "receive"
    }
  ],
  "bytecode": "0x60e0604090808252346200017257806200355d803803809162000023828562000177565b83396020928391810103126200017257516001600160a01b03908181169081810362000172576080528351631c2eb17b60e31b8152908382600481845afa9283156200016757600493859360009162000145575b501660c052845163d63a6ccd60e01b815292839182905afa9182156200013a5760009262000106575b505060a0525161338a9081620001d382396080518181816102e50152818161126101528181611690015281816117ed0152611b3f015260a051818181610bb501528181610fd10152818161143c015281816114b6015261258c015260c051816108370152f35b6200012a9250803d1062000132575b62000121818362000177565b810190620001b1565b3880620000a0565b503d62000115565b83513d6000823e3d90fd5b620001609150843d8611620001325762000121818362000177565b3862000077565b85513d6000823e3d90fd5b600080fd5b601f909101601f19168101906001600160401b038211908210176200019b57604052565b634e487b7160e01b600052604160045260246000fd5b908160209103126200017257516001600160a01b038116810362000172579056fe60a08060405260043610156100c8575b5036156100c65760003381528060205273ffffffffffffffffffffffffffffffffffffffff604082205416801561009c57818091604051368382378036810184815203915af43d15610093573d61006581612aa7565b906100736040519283612a37565b8152809260203d92013e5b1561008b57602081519101f35b602081519101fd5b6060915061007e565b60046040517fd4de0f16000000000000000000000000000000000000000000000000000000008152fd5b005b600090813560e01c90816301ce1f6e146129b05750806306fdde03146129295780630c0cf11a146128ed5780630e12d0081461270a5780630f22d4351461244e57806321a5e9081461224c5780632a90e82f14611f1c5780632f76413514611ecf5780633b91809514611ac757806341c64a2f14611a7a57806354fd4d50146119ef5780636afdd850146119a75780637071f0c41461170d57806370bf79c61461161357806372e05064146115c657806376c05f651461147b5780637f32d8f41461138057806388a799f614611333578063ab803a76146111ee578063bdcb9932146111a1578063c2a95ddf14610e86578063d0189a9114610c26578063d073674914610bd9578063d63a6ccd14610b6a578063d6906d231461096a578063dbe5f2fb1461085b578063e1758bd8146107ec578063e731f6d11461077c578063e75ee2e314610309578063e8a24e1d1461029a5763f847ed480361000f57346102975760207ffffffffffffffffffffffffffffffffffffffffffffffffffffffffffffffffc360112610297576004359073ffffffffffffffffffffffffffffffffffffffff82168092036102925760408160209360ff9352600184522054166040519015158152f35b600080fd5b80fd5b503461029757807ffffffffffffffffffffffffffffffffffffffffffffffffffffffffffffffffc36011261029757602060405173ffffffffffffffffffffffffffffffffffffffff7f0000000000000000000000000000000000000000000000000000000000000000168152f35b5034610297576103439061033c610321366004612c08565b97999c9390989a9196949261033584612ddb565b3691612d65565b9089612e0d565b6040517f18160ddd00000000000000000000000000000000000000000000000000000000815260208160048173ffffffffffffffffffffffffffffffffffffffff8c165afa90811561077157899161073f575b50604051907f01e1d11400000000000000000000000000000000000000000000000000000000825260208260048173ffffffffffffffffffffffffffffffffffffffff8d165afa918215610734578a92610700575b507fffffffffffffffffffffffffffffffffffffffffffffffffffffffffffffffff828409838302808210018082146106ae578082038311156106a157956106459c958573ffffffffffffffffffffffffffffffffffffffff8e8760209f9d989760e09f9d98976105e79d826104ea9a6104f19e099160018487038516808080970460028082600302188083028203028083028203028083028203028083028203028083028203028092029003029803040191858902841191030302928602030417029a5b816040519a6104c16101008d612a37565b168a52818d168f8b0152166040890152336060890152608088015260a087015260c08601613162565b369161319d565b858201526105bb604051958692888085015273ffffffffffffffffffffffffffffffffffffffff815116604085015273ffffffffffffffffffffffffffffffffffffffff8982015116606085015273ffffffffffffffffffffffffffffffffffffffff604082015116608085015273ffffffffffffffffffffffffffffffffffffffff60608201511660a0850152608081015160c085015260a0810151828501526105a560c082015161010086019061321d565b015161010061012084015261014083019061322a565b037fffffffffffffffffffffffffffffffffffffffffffffffffffffffffffffffe08101855284612a37565b8473ffffffffffffffffffffffffffffffffffffffff6040518098819682957ffa14fdc20000000000000000000000000000000000000000000000000000000084523060048501526024840152606060448401526064830190612ae1565b0393165af19081156106955790610662575b602090604051908152f35b506020813d60201161068d575b8161067c60209383612a37565b810103126102925760209051610657565b3d915061066f565b604051903d90823e3d90fd5b63ae47f7028c526004601cfd5b505090819a97989a156106f357946104ea6105e79560e099958573ffffffffffffffffffffffffffffffffffffffff6106459f9b9660209e9b6104f19902049a6104b0565b63ae47f7028a526004601cfd5b9091506020813d60201161072c575b8161071c60209383612a37565b81010312610292575190386103eb565b3d915061070f565b6040513d8c823e3d90fd5b90506020813d602011610769575b8161075a60209383612a37565b81010312610292575138610396565b3d915061074d565b6040513d8b823e3d90fd5b50346102975760207ffffffffffffffffffffffffffffffffffffffffffffffffffffffffffffffffc360112610297576004359060025482101561029757602073ffffffffffffffffffffffffffffffffffffffff6107dc846002612c96565b9190546040519260031b1c168152f35b503461029757807ffffffffffffffffffffffffffffffffffffffffffffffffffffffffffffffffc36011261029757602060405173ffffffffffffffffffffffffffffffffffffffff7f0000000000000000000000000000000000000000000000000000000000000000168152f35b503461029757610924602061088d610886610877366004612bb6565b61033583949895969793612ddb565b9084612e0d565b8573ffffffffffffffffffffffffffffffffffffffff6108ac82612aa7565b946108ba6040519687612a37565b8286527fffffffffffffffffffffffffffffffffffffffffffffffffffffffffffffffe06108e784612aa7565b013688880137604051978896879586937f1e7dcc0d0000000000000000000000000000000000000000000000000000000085523360048601612d9c565b0393165af1801561095f57610937575080f35b602090813d8111610958575b61094d8183612a37565b810103126102925780f35b503d610943565b6040513d84823e3d90fd5b503461029757610b3590602060c06109cb610aff73ffffffffffffffffffffffffffffffffffffffff610a156109c26104ea6109a7366004612c08565b9a999d969f94939198959760809c93919c5261033584612ddb565b90608051612e0d565b81604051996109db60e08c612a37565b168952168b88015273ffffffffffffffffffffffffffffffffffffffff608051166040880152336060880152608087015260a08601613162565b84820152610ad3604051948592878085015273ffffffffffffffffffffffffffffffffffffffff815116604085015273ffffffffffffffffffffffffffffffffffffffff8882015116606085015273ffffffffffffffffffffffffffffffffffffffff604082015116608085015273ffffffffffffffffffffffffffffffffffffffff60608201511660a0850152608081015182850152610abe60a082015160e086019061321d565b015160e061010084015261012083019061322a565b037fffffffffffffffffffffffffffffffffffffffffffffffffffffffffffffffe08101845283612a37565b60405194859283927f1e7dcc0d000000000000000000000000000000000000000000000000000000008452303360048601612d9c565b03818473ffffffffffffffffffffffffffffffffffffffff608051165af1908115610695579061066257602090604051908152f35b503461029757807ffffffffffffffffffffffffffffffffffffffffffffffffffffffffffffffffc36011261029757602060405173ffffffffffffffffffffffffffffffffffffffff7f0000000000000000000000000000000000000000000000000000000000000000168152f35b503461029757807ffffffffffffffffffffffffffffffffffffffffffffffffffffffffffffffffc36011261029757602060405173a748d6573aca135af68f2635be60cb80278bd8558152f35b50346102975760607ffffffffffffffffffffffffffffffffffffffffffffffffffffffffffffffffc360112610297576004359073ffffffffffffffffffffffffffffffffffffffff918281168091036102925780825260208281528360408420541691821561009c5783906064604051809581937fd0189a910000000000000000000000000000000000000000000000000000000083526004830152602435602483015260443560448301525afa9283156106955780928194610d6a575b509093929160405194859460408601604087528351809152826060880194019185905b828210610d4d5750505050848203818601528080855193848152019401925b828110610d3657505050500390f35b835185528695509381019392810192600101610d27565b835181168652899850948401949284019260019190910190610d08565b925092503d8084843e610d7d8184612a37565b820191604081840312610e8257805167ffffffffffffffff90818111610e625782019184601f84011215610e6257825192610db784612b9e565b93610dc56040519586612a37565b808552858086019160051b83010191878311610e7e5786809101915b838310610e665750915050810151918211610e6257019280601f85011215610e5e578351610e0e81612b9e565b94610e1c6040519687612a37565b818652848087019260051b820101928311610e5a5784809101915b838310610e4a5750505050919238610ce5565b8251815291810191859101610e37565b8680fd5b8480fd5b8580fd5b8190610e7184612cdd565b8152019101908690610de1565b8880fd5b8380fd5b5034610297576101807ffffffffffffffffffffffffffffffffffffffffffffffffffffffffffffffffc3601126102975760043573ffffffffffffffffffffffffffffffffffffffff918282169283830361029257604435908082168203610292576064359080821682036102925760c07fffffffffffffffffffffffffffffffffffffffffffffffffffffffffffffff5c360112610e82576101643567ffffffffffffffff8111610e5e57610f40903690600401612b3f565b610f4e608497929735612ddb565b610f5b8560243584612ee9565b9681611113575b50506e22d473030f116ddee9f6b43ac78ba391823b15610e62576040517f36c7851600000000000000000000000000000000000000000000000000000000815233600482015273ffffffffffffffffffffffffffffffffffffffff9283166024820152908716821660448201527f000000000000000000000000000000000000000000000000000000000000000090911660648201529084908290608490829084905af18015611108579084916110ef575b5061101f8591612aa7565b9561102d6040519788612a37565b8487527fffffffffffffffffffffffffffffffffffffffffffffffffffffffffffffffe061105a86612aa7565b019285602095869536878c01376110a06040519a8b96879586947f27ce385400000000000000000000000000000000000000000000000000000000865260048601612d9c565b03925af191821561069557916110bf575b604080945051928352820152f35b80915083813d83116110e8575b6110d68183612a37565b810103126102925760409251906110b1565b503d6110cc565b816110f991612a37565b611104578238611014565b8280fd5b6040513d86823e3d90fd5b6e22d473030f116ddee9f6b43ac78ba390813b1561119d5791879161116b93836040518096819582947f2b67b57000000000000000000000000000000000000000000000000000000000845260a43360048601613056565b03925af180156111925790869115610f62578161118791612a37565b610e5e578438610f62565b6040513d88823e3d90fd5b8780fd5b503461029757807ffffffffffffffffffffffffffffffffffffffffffffffffffffffffffffffffc360112610297576020604051731111111254eeb25477b68fb85ed929f73a9605828152f35b503461029757807ffffffffffffffffffffffffffffffffffffffffffffffffffffffffffffffffc360112610297576040517ff851a44000000000000000000000000000000000000000000000000000000000815273ffffffffffffffffffffffffffffffffffffffff602082600481847f0000000000000000000000000000000000000000000000000000000000000000165afa9182156113285783926112ed575b50811633036112c357819047806112a6575050f35b8280929181925af1156112b65780f35b63b12d13eb90526004601cfd5b60046040517f1a19b036000000000000000000000000000000000000000000000000000000008152fd5b9091506020813d8211611320575b8161130860209383612a37565b810103126111045761131990612cdd565b9038611291565b3d91506112fb565b6040513d85823e3d90fd5b503461029757807ffffffffffffffffffffffffffffffffffffffffffffffffffffffffffffffffc36011261029757602060405173def171fe48cf0115b1d80b88dc8eab59176fee578152f35b50346102975760c07ffffffffffffffffffffffffffffffffffffffffffffffffffffffffffffffffc360112610297576004359073ffffffffffffffffffffffffffffffffffffffff908183169182840361029257604435908082168203610292576064359081168103610292576084359460a43567ffffffffffffffff8111610e5e57956114719161146a61141e61146398993690600401612b3f565b91909361142a81612ddb565b6114378860243586612ee9565b998a957f0000000000000000000000000000000000000000000000000000000000000000943691612d65565b9083612e0d565b3390613324565b8361101f84612aa7565b50346102975761146361146a6114b1926114dd611499366004612bb6565b92998a8699939296956114ab84612ddb565b86612ee9565b9889957f0000000000000000000000000000000000000000000000000000000000000000943691612d65565b6114e681612aa7565b916114f46040519384612a37565b818352817fffffffffffffffffffffffffffffffffffffffffffffffffffffffffffffffe061152282612aa7565b0191818073ffffffffffffffffffffffffffffffffffffffff6020998a9636888b013761157e604051998a97889687947f1e7dcc0d00000000000000000000000000000000000000000000000000000000865260048601612d9c565b0393165af1908115610695575090839161159d575b5050604051908152f35b813d83116115bf575b6115b08183612a37565b81010312610292578138611593565b503d6115a6565b503461029757807ffffffffffffffffffffffffffffffffffffffffffffffffffffffffffffffffc360112610297576020604051736352a56caadc4f1e25cd6c75970fa768a3304e648152f35b50346102975760207ffffffffffffffffffffffffffffffffffffffffffffffffffffffffffffffffc360112610297576040517f1ad4c8c3000000000000000000000000000000000000000000000000000000008152600435600482015273ffffffffffffffffffffffffffffffffffffffff9060a081602481857f0000000000000000000000000000000000000000000000000000000000000000165afa90811561132857928260409260209583916116da575b50168152808452205416604051908152f35b6116fb915060a03d8111611706575b6116f38183612a37565b810190612cfe565b5092505050386116c8565b503d6116e9565b50346102975760407ffffffffffffffffffffffffffffffffffffffffffffffffffffffffffffffffc3601126102975760043567ffffffffffffffff81116119a357366023820112156119a357806004013561176881612b9e565b916117766040519384612a37565b8183526020908184016024809460051b83010191368311610e5a578401905b82821061197757505050813573ffffffffffffffffffffffffffffffffffffffff8082168203610292576040517ff851a4400000000000000000000000000000000000000000000000000000000081528381600481857f0000000000000000000000000000000000000000000000000000000000000000165afa801561196c5782918891611934575b501633036112c357855b85518110156119305784848361183e848a613310565b5116604051928380927f70a082310000000000000000000000000000000000000000000000000000000082523060048301525afa9081156119255788916118f8575b50848884898461189e575b5050505050611899906132a4565b611828565b826044926118ae88601094613310565b51168960145260349687526fa9059cbb00000000000000000000000082525af13d1560018a51141716156118eb578790526118998488848961188b565b6390b8ec1888526004601cfd5b90508481813d831161191e575b61190f8183612a37565b81010312610292575138611880565b503d611905565b6040513d8a823e3d90fd5b8680f35b809250858092503d8311611965575b61194d8183612a37565b81010312610e5a5761195f8291612cdd565b3861181e565b503d611943565b6040513d89823e3d90fd5b813573ffffffffffffffffffffffffffffffffffffffff8116810361119d578152908301908301611795565b5080fd5b503461029757807ffffffffffffffffffffffffffffffffffffffffffffffffffffffffffffffffc3601126102975760206040516e22d473030f116ddee9f6b43ac78ba38152f35b503461029757807ffffffffffffffffffffffffffffffffffffffffffffffffffffffffffffffffc36011261029757611a76611a2b6005612aa7565b611a386040519182612a37565b600581527f312e302e300000000000000000000000000000000000000000000000000000006020820152604051918291602083526020830190612ae1565b0390f35b503461029757807ffffffffffffffffffffffffffffffffffffffffffffffffffffffffffffffffc36011261029757602060405173e592427a0aece92de3edee1f18e0157c058615648152f35b50346102975760407ffffffffffffffffffffffffffffffffffffffffffffffffffffffffffffffffc3601126102975760043567ffffffffffffffff81116119a357611b17903690600401612b6d565b90602491823573ffffffffffffffffffffffffffffffffffffffff80821680920361029257807f00000000000000000000000000000000000000000000000000000000000000001692604051947ff851a4400000000000000000000000000000000000000000000000000000000086526020958681600481895afa80156107715784918a91611e97575b501633036112c357875b828110611bb6578880f35b611bc1818484613300565b3590604051917f1ad4c8c3000000000000000000000000000000000000000000000000000000008352600483015260a080838b818b5afa928315611e8c578b908c928d95611e64575b505015611e3a5785908960ff60408e8b8152600180945220541615611d94575b5016808b528a89528560408c20937fffffffffffffffffffffffff00000000000000000000000000000000000000009489868254161790551690818c5260408c208885825416179055604051937f6f307dc30000000000000000000000000000000000000000000000000000000085528a85600481865afa908d821561069557898d938c988391611d22575b5097604083608096947fc7502982709bb9cda5fd431f4c948f40a65965127a4e069f83cb4f168a599e03989694611d1d9c1695868252522091825416179055611d00868a8a613300565b35946040519283528d8301526040820152896060820152a26132a4565b611bab565b985050509186819492943d8311611d8d575b611d3e8183612a37565b810103126119a3578b7fc7502982709bb9cda5fd431f4c948f40a65965127a4e069f83cb4f168a599e03938b6040856080968e611d7d611d1d9d612cdd565b949c509496985050939550611cb6565b503d611d34565b909150600280549068010000000000000000821015611e0e57611dc0828b92858c979695018155612c96565b819291549060031b86811b9283911b16911916179055888d52808b5260408d20907fffffffffffffffffffffffffffffffffffffffffffffffffffffffffffffff0082541617905538611c2a565b8c8e7f4e487b710000000000000000000000000000000000000000000000000000000081526041600452fd5b60046040517f51a9ca53000000000000000000000000000000000000000000000000000000008152fd5b91509150611e7f929350803d10611706576116f38183612a37565b5093929091503880611c0a565b6040513d8d823e3d90fd5b809250888092503d8311611ec8575b611eb08183612a37565b81010312610e7e57611ec28491612cdd565b38611ba1565b503d611ea6565b503461029757807ffffffffffffffffffffffffffffffffffffffffffffffffffffffffffffffffc36011261029757602060405173def1c0ded9bec7f1a1670819833240f027b25eff8152f35b50346102975760e07ffffffffffffffffffffffffffffffffffffffffffffffffffffffffffffffffc360112610297576004359073ffffffffffffffffffffffffffffffffffffffff821682036102925773ffffffffffffffffffffffffffffffffffffffff60243516602435036102925773ffffffffffffffffffffffffffffffffffffffff606435166064350361029257600860a43510156102975760c43567ffffffffffffffff81116119a357611fda903690600401612b6d565b611fe8608494929435612ddb565b611ff760643560443584612ee9565b93604051917f6f307dc300000000000000000000000000000000000000000000000000000000835260208360048173ffffffffffffffffffffffffffffffffffffffff602435165afa9283156122415785936121d7575b509260e06121526020946120c061218f9573ffffffffffffffffffffffffffffffffffffffff99988a6040519461208761010087612a37565b1684528a60243516898501528a871660408501523360608501528a6064351660808501528b60a08501526104ea60a43560c08601613162565b8382015261212660405193849288808501528a81511660408501528a898201511660608501528a60408201511660808501528a60608201511660a08501528a60808201511660c085015260a0810151828501526105a560c082015161010086019061321d565b037fffffffffffffffffffffffffffffffffffffffffffffffffffffffffffffffe08101835282612a37565b846040519687809581947f27ce38540000000000000000000000000000000000000000000000000000000083528b60243560643560048601612d9c565b0393165af190811561069557506121ac575b602082604051908152f35b602090813d83116121d0575b6121c28183612a37565b8101031261029257386121a1565b503d6121b8565b9092506020813d602011612239575b816121f360209383612a37565b81010312610e5e579260e06121526020946120c061218f9561222a73ffffffffffffffffffffffffffffffffffffffff9a99612cdd565b9750955050929596505061204e565b3d91506121e6565b6040513d87823e3d90fd5b5034610297576101407ffffffffffffffffffffffffffffffffffffffffffffffffffffffffffffffffc3601126102975760043573ffffffffffffffffffffffffffffffffffffffff9182821691828103610292576044359284841684036102925760643594851685036102925760807fffffffffffffffffffffffffffffffffffffffffffffffffffffffffffffff5c36011261110457610124359467ffffffffffffffff8611610e825761232161230a86973690600401612b3f565b969094612318608435612ddb565b60243590612ee9565b94604051612330604082612a37565b83815260209487868301526e22d473030f116ddee9f6b43ac78ba391823b1561119d57916123969391888094604051968795869485937f30f28b7a000000000000000000000000000000000000000000000000000000008552339060a4600487016130f4565b03925af180156122415791858594928894612430575b506123b681612aa7565b986123c46040519a8b612a37565b818a527fffffffffffffffffffffffffffffffffffffffffffffffffffffffffffffffe06123f183612aa7565b0136878c01376110a06040519a8b96879586947f27ce385400000000000000000000000000000000000000000000000000000000865260048601612d9c565b8193955061243f929450612a37565b610e82578291859185386123ac565b5034610297576101607ffffffffffffffffffffffffffffffffffffffffffffffffffffffffffffffffc3601126102975760043573ffffffffffffffffffffffffffffffffffffffff9182821690818303610292576044359380851685036102925760c07fffffffffffffffffffffffffffffffffffffffffffffffffffffffffffffff7c3601126119a3576101443567ffffffffffffffff8111611104576124fb903690600401612b3f565b612509606496929635612ddb565b6125168760243584612ee9565b958161268b575b50506e22d473030f116ddee9f6b43ac78ba390813b15610e82576040517f36c7851600000000000000000000000000000000000000000000000000000000815233600482015273ffffffffffffffffffffffffffffffffffffffff9182166024820152928616811660448401527f000000000000000000000000000000000000000000000000000000000000000016606483015282908290608490829084905af1801561095f57908291612676575b506125d690612aa7565b916125e46040519384612a37565b818352817fffffffffffffffffffffffffffffffffffffffffffffffffffffffffffffffe061261282612aa7565b01918180602098899536878a0137612659604051988996879586947f1e7dcc0d00000000000000000000000000000000000000000000000000000000865260048601612d9c565b03925af1908115610695575090839161159d575050604051908152f35b8161268091612a37565b6102975780386125cc565b6e22d473030f116ddee9f6b43ac78ba390813b15610e62579185916126e393836040518096819582947f2b67b57000000000000000000000000000000000000000000000000000000000845260843360048601613056565b03925af18015611108579084911561251d57816126ff91612a37565b61110457823861251d565b5034610297576101207ffffffffffffffffffffffffffffffffffffffffffffffffffffffffffffffffc3601126102975760043573ffffffffffffffffffffffffffffffffffffffff808216928383036102975760443591821682036102975760807fffffffffffffffffffffffffffffffffffffffffffffffffffffffffffffff7c36011261029757610104359367ffffffffffffffff85116119a3576127c96127bb8495963690600401612b3f565b959096612318606435612ddb565b936040516127d8604082612a37565b82815260209686888301526e22d473030f116ddee9f6b43ac78ba391823b15610e62579161283e9391868094604051968795869485937f30f28b7a00000000000000000000000000000000000000000000000000000000855233906084600487016130f4565b03925af1801561132857908692916128d9575b508290818061285f81612aa7565b9661286d6040519889612a37565b8188527fffffffffffffffffffffffffffffffffffffffffffffffffffffffffffffffe061289a83612aa7565b0136878a0137612659604051988996879586947f1e7dcc0d00000000000000000000000000000000000000000000000000000000865260048601612d9c565b836128e691949294612a37565b9138612851565b503461029757807ffffffffffffffffffffffffffffffffffffffffffffffffffffffffffffffffc360112610297576020600254604051908152f35b503461029757807ffffffffffffffffffffffffffffffffffffffffffffffffffffffffffffffffc36011261029757611a766129656015612aa7565b6129726040519182612a37565b601581527f4379676e75733a20416c7461697220526f7574657200000000000000000000006020820152604051918291602083526020830190612ae1565b9050346119a35760207ffffffffffffffffffffffffffffffffffffffffffffffffffffffffffffffffc3601126119a35760043573ffffffffffffffffffffffffffffffffffffffff90818116809103610e825783604091602095528085522054168152f35b359073ffffffffffffffffffffffffffffffffffffffff8216820361029257565b90601f7fffffffffffffffffffffffffffffffffffffffffffffffffffffffffffffffe0910116810190811067ffffffffffffffff821117612a7857604052565b7f4e487b7100000000000000000000000000000000000000000000000000000000600052604160045260246000fd5b67ffffffffffffffff8111612a7857601f017fffffffffffffffffffffffffffffffffffffffffffffffffffffffffffffffe01660200190565b919082519283825260005b848110612b2b5750507fffffffffffffffffffffffffffffffffffffffffffffffffffffffffffffffe0601f8460006020809697860101520116010190565b602081830181015184830182015201612aec565b9181601f840112156102925782359167ffffffffffffffff8311610292576020838186019501011161029257565b9181601f840112156102925782359167ffffffffffffffff8311610292576020808501948460051b01011161029257565b67ffffffffffffffff8111612a785760051b60200190565b91909160a08184031261029257612bcc81612a16565b92602082013592612bdf60408401612a16565b92606081013592608082013567ffffffffffffffff811161029257612c049201612b3f565b9091565b916101208383031261029257612c1d83612a16565b92612c2a60208201612a16565b92612c3760408301612a16565b9260608301359260808101359260a08201359267ffffffffffffffff9060c08401358281116102925783612c6c918601612b3f565b9490949360e08201356008811015610292579361010083013590811161029257612c049201612b6d565b8054821015612cae5760005260206000200190600090565b7f4e487b7100000000000000000000000000000000000000000000000000000000600052603260045260246000fd5b519073ffffffffffffffffffffffffffffffffffffffff8216820361029257565b908160a09103126102925780518015158103610292579160208201516affffffffffffffffffffff811681036102925791612d3b60408201612cdd565b916080612d4a60608401612cdd565b9201516bffffffffffffffffffffffff811681036102925790565b929192612d7182612aa7565b91612d7f6040519384612a37565b829481845281830111610292578281602093846000960137010152565b9092612dd8949360809373ffffffffffffffffffffffffffffffffffffffff809216845216602083015260408201528160608201520190612ae1565b90565b4211612de357565b60046040517fc828cdf5000000000000000000000000000000000000000000000000000000008152fd5b919081518015612ee35782608091810103126102925760208201519260408301519360ff85168095036102925773ffffffffffffffffffffffffffffffffffffffff60806060860151950151921693843b156102925760009460e493869260405198899788967fd505accf00000000000000000000000000000000000000000000000000000000885233600489015230602489015260448801526064870152608486015260a485015260c48401525af18015612ed757612eca5750565b6000612ed591612a37565b565b6040513d6000823e3d90fd5b50505050565b909173ffffffffffffffffffffffffffffffffffffffff809216803b15610292576040928351927fa6afed95000000000000000000000000000000000000000000000000000000008452600093848160048183885af18015612ffa579086939291612fe5575b50602490835194859384927f7d6af0790000000000000000000000000000000000000000000000000000000084521660048301525afa928315612fda578293612fa7575b50505080821015612fa2575090565b905090565b9080929350813d8311612fd3575b612fbf8183612a37565b810103126119a35760200151903880612f93565b503d612fb5565b51913d9150823e3d90fd5b94612ff38160249397612a37565b9490612f4f565b86513d87823e3d90fd5b359065ffffffffffff8216820361029257565b601f82602094937fffffffffffffffffffffffffffffffffffffffffffffffffffffffffffffffe0938186528686013760008582860101520116010190565b90939173ffffffffffffffffffffffffffffffffffffffff80951682528461307d82612a16565b16602083015260208101359085821680920361029257612dd89560a092604085015265ffffffffffff806130b360408501613004565b1660608601526130c560608401613004565b1660808501526130d760808301612a16565b1682840152013560c0820152610100908160e08201520191613017565b91926020612dd89694606073ffffffffffffffffffffffffffffffffffffffff948561311f82612a16565b16875283810135848801526040810135604088015201356060860152838151166080860152015160a08401521660c0820152610100908160e08201520191613017565b600882101561316e5752565b7f4e487b7100000000000000000000000000000000000000000000000000000000600052602160045260246000fd5b929190926131aa84612b9e565b916131b86040519384612a37565b829480845260208094019060051b8301928284116102925780915b8483106131e257505050505050565b823567ffffffffffffffff811161029257820184601f820112156102925786916132128683858095359101612d65565b8152019201916131d3565b90600882101561316e5752565b908082519081815260208091019281808460051b8301019501936000915b8483106132585750505050505090565b9091929394958480613294837fffffffffffffffffffffffffffffffffffffffffffffffffffffffffffffffe086600196030187528a51612ae1565b9801930193019194939290613248565b7fffffffffffffffffffffffffffffffffffffffffffffffffffffffffffffffff81146132d15760010190565b7f4e487b7100000000000000000000000000000000000000000000000000000000600052601160045260246000fd5b9190811015612cae5760051b0190565b8051821015612cae5760209160051b010190565b601c600060649281946020966040519860605260405260601b602c526f23b872dd000000000000000000000000600c525af13d1560016000511417161561336f576000606052604052565b637939f4246000526004601cfdfea164736f6c6343000811000a",
  "linkReferences": {},
  "deployedLinkReferences": {}
}