{
  "_format": "hh-sol-artifact-1",
  "contractName": "CygnusAltair",
  "sourceName": "contracts/cygnus-periphery/CygnusAltair.sol",
  "abi": [
    {
      "inputs": [
        {
          "internalType": "contract IHangar18",
          "name": "_hangar18",
          "type": "address"
        }
      ],
      "stateMutability": "nonpayable",
      "type": "constructor"
    },
    {
      "inputs": [],
      "name": "CygnusAltair__0xProjectTransactionFailed",
      "type": "error"
    },
    {
      "inputs": [],
      "name": "CygnusAltair__AltairXDoesNotExist",
      "type": "error"
    },
    {
      "inputs": [],
      "name": "CygnusAltair__MsgSenderNotAdmin",
      "type": "error"
    },
    {
      "inputs": [],
      "name": "CygnusAltair__OneInchTransactionFailed",
      "type": "error"
    },
    {
      "inputs": [],
      "name": "CygnusAltair__OpenOceanTransactionFailed",
      "type": "error"
    },
    {
      "inputs": [],
      "name": "CygnusAltair__ParaswapTransactionFailed",
      "type": "error"
    },
    {
      "inputs": [],
      "name": "CygnusAltair__ShuttleDoesNotExist",
      "type": "error"
    },
    {
      "inputs": [],
      "name": "CygnusAltair__TransactionExpired",
      "type": "error"
    },
    {
      "stateMutability": "payable",
      "type": "fallback"
    },
    {
      "inputs": [],
      "name": "ONE_INCH_ROUTER_V5",
      "outputs": [
        {
          "internalType": "address",
          "name": "",
          "type": "address"
        }
      ],
      "stateMutability": "view",
      "type": "function"
    },
    {
      "inputs": [],
      "name": "OPEN_OCEAN_EXCHANGE_PROXY",
      "outputs": [
        {
          "internalType": "address",
          "name": "",
          "type": "address"
        }
      ],
      "stateMutability": "view",
      "type": "function"
    },
    {
      "inputs": [],
      "name": "OxPROJECT_EXCHANGE_PROXY",
      "outputs": [
        {
          "internalType": "address",
          "name": "",
          "type": "address"
        }
      ],
      "stateMutability": "view",
      "type": "function"
    },
    {
      "inputs": [],
      "name": "PARASWAP_AUGUSTUS_SWAPPER_V5",
      "outputs": [
        {
          "internalType": "address",
          "name": "",
          "type": "address"
        }
      ],
      "stateMutability": "view",
      "type": "function"
    },
    {
      "inputs": [],
      "name": "PERMIT2",
      "outputs": [
        {
          "internalType": "address",
          "name": "",
          "type": "address"
        }
      ],
      "stateMutability": "view",
      "type": "function"
    },
    {
      "inputs": [],
      "name": "UNISWAP_V3_ROUTER",
      "outputs": [
        {
          "internalType": "address",
          "name": "",
          "type": "address"
        }
      ],
      "stateMutability": "view",
      "type": "function"
    },
    {
      "inputs": [
        {
          "internalType": "uint256",
          "name": "",
          "type": "uint256"
        }
      ],
      "name": "allExtensions",
      "outputs": [
        {
          "internalType": "address",
          "name": "",
          "type": "address"
        }
      ],
      "stateMutability": "view",
      "type": "function"
    },
    {
      "inputs": [],
      "name": "altairExtensionsLength",
      "outputs": [
        {
          "internalType": "uint256",
          "name": "",
          "type": "uint256"
        }
      ],
      "stateMutability": "view",
      "type": "function"
    },
    {
      "inputs": [
        {
          "internalType": "address",
          "name": "borrowable",
          "type": "address"
        },
        {
          "internalType": "uint256",
          "name": "amount",
          "type": "uint256"
        },
        {
          "internalType": "address",
          "name": "recipient",
          "type": "address"
        },
        {
          "internalType": "uint256",
          "name": "deadline",
          "type": "uint256"
        },
        {
          "internalType": "bytes",
          "name": "permitData",
          "type": "bytes"
        }
      ],
      "name": "borrow",
      "outputs": [],
      "stateMutability": "nonpayable",
      "type": "function"
    },
    {
      "inputs": [
        {
          "internalType": "address",
          "name": "lpTokenPair",
          "type": "address"
        },
        {
          "internalType": "address",
          "name": "collateral",
          "type": "address"
        },
        {
          "internalType": "address",
          "name": "borrowable",
          "type": "address"
        },
        {
          "internalType": "uint256",
          "name": "cygLPAmount",
          "type": "uint256"
        },
        {
          "internalType": "uint256",
          "name": "usdAmountMin",
          "type": "uint256"
        },
        {
          "internalType": "uint256",
          "name": "deadline",
          "type": "uint256"
        },
        {
          "internalType": "bytes",
          "name": "permitData",
          "type": "bytes"
        },
        {
          "internalType": "enum ICygnusAltair.DexAggregator",
          "name": "dexAggregator",
          "type": "uint8"
        },
        {
          "internalType": "bytes[]",
          "name": "swapdata",
          "type": "bytes[]"
        }
      ],
      "name": "deleverage",
      "outputs": [
        {
          "internalType": "uint256",
          "name": "usdAmount",
          "type": "uint256"
        }
      ],
      "stateMutability": "nonpayable",
      "type": "function"
    },
    {
      "inputs": [
        {
          "internalType": "address",
          "name": "borrowable",
          "type": "address"
        },
        {
          "internalType": "address",
          "name": "collateral",
          "type": "address"
        },
        {
          "internalType": "uint256",
          "name": "amountMax",
          "type": "uint256"
        },
        {
          "internalType": "address",
          "name": "borrower",
          "type": "address"
        },
        {
          "internalType": "uint256",
          "name": "deadline",
          "type": "uint256"
        },
        {
          "internalType": "enum ICygnusAltair.DexAggregator",
          "name": "dexAggregator",
          "type": "uint8"
        },
        {
          "internalType": "bytes[]",
          "name": "swapdata",
          "type": "bytes[]"
        }
      ],
      "name": "flashLiquidate",
      "outputs": [
        {
          "internalType": "uint256",
          "name": "amount",
          "type": "uint256"
        }
      ],
      "stateMutability": "nonpayable",
      "type": "function"
    },
    {
      "inputs": [
        {
          "internalType": "address",
          "name": "poolToken",
          "type": "address"
        }
      ],
      "name": "getAltairExtension",
      "outputs": [
        {
          "internalType": "address",
          "name": "",
          "type": "address"
        }
      ],
      "stateMutability": "view",
      "type": "function"
    },
    {
      "inputs": [
        {
          "internalType": "address",
          "name": "lpTokenPair",
          "type": "address"
        },
        {
          "internalType": "uint256",
          "name": "shares",
          "type": "uint256"
        },
        {
          "internalType": "uint256",
          "name": "difference",
          "type": "uint256"
        }
      ],
      "name": "getAssetsForShares",
      "outputs": [
        {
          "internalType": "address[]",
          "name": "tokens",
          "type": "address[]"
        },
        {
          "internalType": "uint256[]",
          "name": "amounts",
          "type": "uint256[]"
        }
      ],
      "stateMutability": "view",
      "type": "function"
    },
    {
      "inputs": [
        {
          "internalType": "uint256",
          "name": "shuttleId",
          "type": "uint256"
        }
      ],
      "name": "getShuttleExtension",
      "outputs": [
        {
          "internalType": "address",
          "name": "",
          "type": "address"
        }
      ],
      "stateMutability": "view",
      "type": "function"
    },
    {
      "inputs": [],
      "name": "hangar18",
      "outputs": [
        {
          "internalType": "contract IHangar18",
          "name": "",
          "type": "address"
        }
      ],
      "stateMutability": "view",
      "type": "function"
    },
    {
      "inputs": [
        {
          "internalType": "address",
          "name": "",
          "type": "address"
        }
      ],
      "name": "isExtension",
      "outputs": [
        {
          "internalType": "bool",
          "name": "",
          "type": "bool"
        }
      ],
      "stateMutability": "view",
      "type": "function"
    },
    {
      "inputs": [
        {
          "internalType": "contract ICygnusBorrow",
          "name": "borrowable",
          "type": "address"
        },
        {
          "internalType": "address",
          "name": "borrower",
          "type": "address"
        }
      ],
      "name": "latestAccountLiquidity",
      "outputs": [
        {
          "internalType": "uint256",
          "name": "liquidity",
          "type": "uint256"
        },
        {
          "internalType": "uint256",
          "name": "shortfall",
          "type": "uint256"
        }
      ],
      "stateMutability": "nonpayable",
      "type": "function"
    },
    {
      "inputs": [
        {
          "internalType": "address",
          "name": "user",
          "type": "address"
        }
      ],
      "name": "latestBorrowerAll",
      "outputs": [
        {
          "internalType": "uint256",
          "name": "principal",
          "type": "uint256"
        },
        {
          "internalType": "uint256",
          "name": "borrowBalance",
          "type": "uint256"
        },
        {
          "internalType": "uint256",
          "name": "positionUsd",
          "type": "uint256"
        }
      ],
      "stateMutability": "nonpayable",
      "type": "function"
    },
    {
      "inputs": [
        {
          "internalType": "contract ICygnusBorrow",
          "name": "borrowable",
          "type": "address"
        },
        {
          "internalType": "address",
          "name": "borrower",
          "type": "address"
        }
      ],
      "name": "latestBorrowerPosition",
      "outputs": [
        {
          "internalType": "uint256",
          "name": "cygLPBalance",
          "type": "uint256"
        },
        {
          "internalType": "uint256",
          "name": "principal",
          "type": "uint256"
        },
        {
          "internalType": "uint256",
          "name": "borrowBalance",
          "type": "uint256"
        },
        {
          "internalType": "uint256",
          "name": "price",
          "type": "uint256"
        },
        {
          "internalType": "uint256",
          "name": "rate",
          "type": "uint256"
        },
        {
          "internalType": "uint256",
          "name": "positionUsd",
          "type": "uint256"
        },
        {
          "internalType": "uint256",
          "name": "positionLp",
          "type": "uint256"
        },
        {
          "internalType": "uint256",
          "name": "health",
          "type": "uint256"
        }
      ],
      "stateMutability": "nonpayable",
      "type": "function"
    },
    {
      "inputs": [
        {
          "internalType": "address",
          "name": "user",
          "type": "address"
        }
      ],
      "name": "latestLenderAll",
      "outputs": [
        {
          "internalType": "uint256",
          "name": "cygUsdBalance",
          "type": "uint256"
        },
        {
          "internalType": "uint256",
          "name": "positionUsd",
          "type": "uint256"
        }
      ],
      "stateMutability": "nonpayable",
      "type": "function"
    },
    {
      "inputs": [
        {
          "internalType": "contract ICygnusBorrow",
          "name": "borrowable",
          "type": "address"
        },
        {
          "internalType": "address",
          "name": "lender",
          "type": "address"
        }
      ],
      "name": "latestLenderPosition",
      "outputs": [
        {
          "internalType": "uint256",
          "name": "cygUsdBalance",
          "type": "uint256"
        },
        {
          "internalType": "uint256",
          "name": "rate",
          "type": "uint256"
        },
        {
          "internalType": "uint256",
          "name": "positionUsd",
          "type": "uint256"
        }
      ],
      "stateMutability": "nonpayable",
      "type": "function"
    },
    {
      "inputs": [
        {
          "internalType": "contract ICygnusBorrow",
          "name": "borrowable",
          "type": "address"
        }
      ],
      "name": "latestShuttleInfo",
      "outputs": [
        {
          "internalType": "uint256",
          "name": "supplyApr",
          "type": "uint256"
        },
        {
          "internalType": "uint256",
          "name": "borrowApr",
          "type": "uint256"
        },
        {
          "internalType": "uint256",
          "name": "util",
          "type": "uint256"
        },
        {
          "internalType": "uint256",
          "name": "totalBorrows",
          "type": "uint256"
        },
        {
          "internalType": "uint256",
          "name": "totalBalance",
          "type": "uint256"
        },
        {
          "internalType": "uint256",
          "name": "exchangeRate",
          "type": "uint256"
        }
      ],
      "stateMutability": "nonpayable",
      "type": "function"
    },
    {
      "inputs": [
        {
          "internalType": "address",
          "name": "lpTokenPair",
          "type": "address"
        },
        {
          "internalType": "address",
          "name": "collateral",
          "type": "address"
        },
        {
          "internalType": "address",
          "name": "borrowable",
          "type": "address"
        },
        {
          "internalType": "uint256",
          "name": "usdAmount",
          "type": "uint256"
        },
        {
          "internalType": "uint256",
          "name": "lpAmountMin",
          "type": "uint256"
        },
        {
          "internalType": "uint256",
          "name": "deadline",
          "type": "uint256"
        },
        {
          "internalType": "bytes",
          "name": "permitData",
          "type": "bytes"
        },
        {
          "internalType": "enum ICygnusAltair.DexAggregator",
          "name": "dexAggregator",
          "type": "uint8"
        },
        {
          "internalType": "bytes[]",
          "name": "swapdata",
          "type": "bytes[]"
        }
      ],
      "name": "leverage",
      "outputs": [
        {
          "internalType": "uint256",
          "name": "liquidity",
          "type": "uint256"
        }
      ],
      "stateMutability": "nonpayable",
      "type": "function"
    },
    {
      "inputs": [
        {
          "internalType": "address",
          "name": "borrowable",
          "type": "address"
        },
        {
          "internalType": "uint256",
          "name": "amountMax",
          "type": "uint256"
        },
        {
          "internalType": "address",
          "name": "borrower",
          "type": "address"
        },
        {
          "internalType": "address",
          "name": "recipient",
          "type": "address"
        },
        {
          "internalType": "uint256",
          "name": "deadline",
          "type": "uint256"
        },
        {
          "internalType": "bytes",
          "name": "permitData",
          "type": "bytes"
        }
      ],
      "name": "liquidate",
      "outputs": [
        {
          "internalType": "uint256",
          "name": "amount",
          "type": "uint256"
        },
        {
          "internalType": "uint256",
          "name": "seizeTokens",
          "type": "uint256"
        }
      ],
      "stateMutability": "nonpayable",
      "type": "function"
    },
    {
      "inputs": [
        {
          "internalType": "address",
          "name": "borrowable",
          "type": "address"
        },
        {
          "internalType": "uint256",
          "name": "amountMax",
          "type": "uint256"
        },
        {
          "internalType": "address",
          "name": "borrower",
          "type": "address"
        },
        {
          "internalType": "address",
          "name": "recipient",
          "type": "address"
        },
        {
          "internalType": "uint256",
          "name": "deadline",
          "type": "uint256"
        },
        {
          "components": [
            {
              "components": [
                {
                  "internalType": "address",
                  "name": "token",
                  "type": "address"
                },
                {
                  "internalType": "uint160",
                  "name": "amount",
                  "type": "uint160"
                },
                {
                  "internalType": "uint48",
                  "name": "expiration",
                  "type": "uint48"
                },
                {
                  "internalType": "uint48",
                  "name": "nonce",
                  "type": "uint48"
                }
              ],
              "internalType": "struct IAllowanceTransfer.PermitDetails",
              "name": "details",
              "type": "tuple"
            },
            {
              "internalType": "address",
              "name": "spender",
              "type": "address"
            },
            {
              "internalType": "uint256",
              "name": "sigDeadline",
              "type": "uint256"
            }
          ],
          "internalType": "struct IAllowanceTransfer.PermitSingle",
          "name": "_permit",
          "type": "tuple"
        },
        {
          "internalType": "bytes",
          "name": "signature",
          "type": "bytes"
        }
      ],
      "name": "liquidatePermit2Allowance",
      "outputs": [
        {
          "internalType": "uint256",
          "name": "amount",
          "type": "uint256"
        },
        {
          "internalType": "uint256",
          "name": "seizeTokens",
          "type": "uint256"
        }
      ],
      "stateMutability": "nonpayable",
      "type": "function"
    },
    {
      "inputs": [
        {
          "internalType": "address",
          "name": "borrowable",
          "type": "address"
        },
        {
          "internalType": "uint256",
          "name": "amountMax",
          "type": "uint256"
        },
        {
          "internalType": "address",
          "name": "borrower",
          "type": "address"
        },
        {
          "internalType": "address",
          "name": "recipient",
          "type": "address"
        },
        {
          "internalType": "uint256",
          "name": "deadline",
          "type": "uint256"
        },
        {
          "components": [
            {
              "components": [
                {
                  "internalType": "address",
                  "name": "token",
                  "type": "address"
                },
                {
                  "internalType": "uint256",
                  "name": "amount",
                  "type": "uint256"
                }
              ],
              "internalType": "struct ISignatureTransfer.TokenPermissions",
              "name": "permitted",
              "type": "tuple"
            },
            {
              "internalType": "uint256",
              "name": "nonce",
              "type": "uint256"
            },
            {
              "internalType": "uint256",
              "name": "deadline",
              "type": "uint256"
            }
          ],
          "internalType": "struct ISignatureTransfer.PermitTransferFrom",
          "name": "_permit",
          "type": "tuple"
        },
        {
          "internalType": "bytes",
          "name": "signature",
          "type": "bytes"
        }
      ],
      "name": "liquidatePermit2Signature",
      "outputs": [
        {
          "internalType": "uint256",
          "name": "amount",
          "type": "uint256"
        },
        {
          "internalType": "uint256",
          "name": "seizeTokens",
          "type": "uint256"
        }
      ],
      "stateMutability": "nonpayable",
      "type": "function"
    },
    {
      "inputs": [],
      "name": "name",
      "outputs": [
        {
          "internalType": "string",
          "name": "",
          "type": "string"
        }
      ],
      "stateMutability": "view",
      "type": "function"
    },
    {
      "inputs": [],
      "name": "nativeToken",
      "outputs": [
        {
          "internalType": "contract IWrappedNative",
          "name": "",
          "type": "address"
        }
      ],
      "stateMutability": "view",
      "type": "function"
    },
    {
      "inputs": [
        {
          "internalType": "address",
          "name": "borrowable",
          "type": "address"
        },
        {
          "internalType": "uint256",
          "name": "amountMax",
          "type": "uint256"
        },
        {
          "internalType": "address",
          "name": "borrower",
          "type": "address"
        },
        {
          "internalType": "uint256",
          "name": "deadline",
          "type": "uint256"
        },
        {
          "internalType": "bytes",
          "name": "permitData",
          "type": "bytes"
        }
      ],
      "name": "repay",
      "outputs": [
        {
          "internalType": "uint256",
          "name": "amount",
          "type": "uint256"
        }
      ],
      "stateMutability": "nonpayable",
      "type": "function"
    },
    {
      "inputs": [
        {
          "internalType": "address",
          "name": "borrowable",
          "type": "address"
        },
        {
          "internalType": "uint256",
          "name": "amountMax",
          "type": "uint256"
        },
        {
          "internalType": "address",
          "name": "borrower",
          "type": "address"
        },
        {
          "internalType": "uint256",
          "name": "deadline",
          "type": "uint256"
        },
        {
          "components": [
            {
              "components": [
                {
                  "internalType": "address",
                  "name": "token",
                  "type": "address"
                },
                {
                  "internalType": "uint160",
                  "name": "amount",
                  "type": "uint160"
                },
                {
                  "internalType": "uint48",
                  "name": "expiration",
                  "type": "uint48"
                },
                {
                  "internalType": "uint48",
                  "name": "nonce",
                  "type": "uint48"
                }
              ],
              "internalType": "struct IAllowanceTransfer.PermitDetails",
              "name": "details",
              "type": "tuple"
            },
            {
              "internalType": "address",
              "name": "spender",
              "type": "address"
            },
            {
              "internalType": "uint256",
              "name": "sigDeadline",
              "type": "uint256"
            }
          ],
          "internalType": "struct IAllowanceTransfer.PermitSingle",
          "name": "_permit",
          "type": "tuple"
        },
        {
          "internalType": "bytes",
          "name": "signature",
          "type": "bytes"
        }
      ],
      "name": "repayPermit2Allowance",
      "outputs": [
        {
          "internalType": "uint256",
          "name": "amount",
          "type": "uint256"
        }
      ],
      "stateMutability": "nonpayable",
      "type": "function"
    },
    {
      "inputs": [
        {
          "internalType": "address",
          "name": "borrowable",
          "type": "address"
        },
        {
          "internalType": "uint256",
          "name": "amountMax",
          "type": "uint256"
        },
        {
          "internalType": "address",
          "name": "borrower",
          "type": "address"
        },
        {
          "internalType": "uint256",
          "name": "deadline",
          "type": "uint256"
        },
        {
          "components": [
            {
              "components": [
                {
                  "internalType": "address",
                  "name": "token",
                  "type": "address"
                },
                {
                  "internalType": "uint256",
                  "name": "amount",
                  "type": "uint256"
                }
              ],
              "internalType": "struct ISignatureTransfer.TokenPermissions",
              "name": "permitted",
              "type": "tuple"
            },
            {
              "internalType": "uint256",
              "name": "nonce",
              "type": "uint256"
            },
            {
              "internalType": "uint256",
              "name": "deadline",
              "type": "uint256"
            }
          ],
          "internalType": "struct ISignatureTransfer.PermitTransferFrom",
          "name": "_permit",
          "type": "tuple"
        },
        {
          "internalType": "bytes",
          "name": "signature",
          "type": "bytes"
        }
      ],
      "name": "repayPermit2Signature",
      "outputs": [
        {
          "internalType": "uint256",
          "name": "amount",
          "type": "uint256"
        }
      ],
      "stateMutability": "nonpayable",
      "type": "function"
    },
    {
      "inputs": [
        {
          "internalType": "uint256",
          "name": "shuttleId",
          "type": "uint256"
        },
        {
          "internalType": "address",
          "name": "extension",
          "type": "address"
        }
      ],
      "name": "setAltairExtension",
      "outputs": [],
      "stateMutability": "nonpayable",
      "type": "function"
    },
    {
      "inputs": [],
      "name": "sweepNative",
      "outputs": [],
      "stateMutability": "nonpayable",
      "type": "function"
    },
    {
      "inputs": [
        {
          "internalType": "contract IERC20[]",
          "name": "tokens",
          "type": "address[]"
        },
        {
          "internalType": "address",
          "name": "to",
          "type": "address"
        }
      ],
      "name": "sweepTokens",
      "outputs": [],
      "stateMutability": "nonpayable",
      "type": "function"
    },
    {
      "inputs": [],
      "name": "usd",
      "outputs": [
        {
          "internalType": "address",
          "name": "",
          "type": "address"
        }
      ],
      "stateMutability": "view",
      "type": "function"
    },
    {
      "inputs": [],
      "name": "version",
      "outputs": [
        {
          "internalType": "string",
          "name": "",
          "type": "string"
        }
      ],
      "stateMutability": "view",
      "type": "function"
    },
    {
      "stateMutability": "payable",
      "type": "receive"
    }
  ],
  "bytecode": "0x60e0604090808252346200021d578062004445803803809162000023828562000222565b83396020928391810103126200021d57516001600160a01b0390818116908181036200021d576003546001908181811c9116801562000212575b86821014620001fc57601f8111620001cd575b50507f4379676e75733a20416c7461697220526f75746572000000000000000000002a6003556080528351631c2eb17b60e31b8152908382600481845afa928315620001c2576004938593600091620001a0575b501660c052845163d63a6ccd60e01b815292839182905afa918215620001955760009262000161575b505060a052516141c790816200027e82396080518181816105030152818161181a01528181611b0901528181611f2d0152818161207a0152818161252e0152612f89015260a051818181610dd3015281816115bc01528181611cd901528181611d5301526132b3015260c05181610a550152f35b620001859250803d106200018d575b6200017c818362000222565b8101906200025c565b3880620000ed565b503d62000170565b83513d6000823e3d90fd5b620001bb9150843d86116200018d576200017c818362000222565b38620000c4565b85513d6000823e3d90fd5b6003600052601f86600020910160051c8101905b818110620001f0575062000070565b600081558201620001e1565b634e487b7160e01b600052602260045260246000fd5b90607f16906200005d565b600080fd5b601f909101601f19168101906001600160401b038211908210176200024657604052565b634e487b7160e01b600052604160045260246000fd5b908160209103126200021d57516001600160a01b03811681036200021d579056fe60a08060405260043610156100c8575b5036156100c65760003381528060205273ffffffffffffffffffffffffffffffffffffffff604082205416801561009c57818091604051368382378036810184815203915af43d15610093573d61006581613967565b90610073604051928361383a565b8152809260203d92013e5b1561008b57602081519101f35b602081519101fd5b6060915061007e565b60046040517fd4de0f16000000000000000000000000000000000000000000000000000000008152fd5b005b600090813560e01c90816301ce1f6e146137b35750806306fdde03146136505780630c0cf11a146136145780630e12d008146134315780630f22d4351461317557806314016d2114612f095780631b18ff8a14612d2b57806321a5e90814612b295780632a90e82f146128045780632d6bf1f9146124d85780632f7641351461248b57806341c64a2f1461243e57806354fd4d50146123b7578063668e143d146122625780636afdd8501461221a5780637071f0c414611f9a57806370bf79c614611eb057806372e0506414611e6357806376c05f6514611d185780637f32d8f414611c1d57806388a799f614611bd0578063ab803a7614611a96578063b8feb704146117bf578063bdcb993214611772578063c2a95ddf14611471578063d0189a911461121d578063d636651214610df7578063d63a6ccd14610d88578063d6906d2314610b88578063dbe5f2fb14610a79578063e1758bd814610a0a578063e731f6d11461099a578063e75ee2e314610527578063e8a24e1d146104b8578063f847ed481461044b5763fc4bcda90361000f57346104485760407ffffffffffffffffffffffffffffffffffffffffffffffffffffffffffffffffc360112610448576004359073ffffffffffffffffffffffffffffffffffffffff91828116809103610443576024359083821680920361044357803b1561040c576040517ffff6cae9000000000000000000000000000000000000000000000000000000008152838160048183865af1801561043857908491610423575b50506020600491604051928380927fd8dfeb450000000000000000000000000000000000000000000000000000000082525afa9081156104185783916103d4575b506024604092835195869384927f5ec88c790000000000000000000000000000000000000000000000000000000084526004840152165afa80156103c7576040928291610398575b5082519182526020820152f35b90506103ba9150823d84116103c0575b6103b2818361383a565b810190613c32565b3861038b565b503d6103a8565b50604051903d90823e3d90fd5b90506020813d8211610410575b816103ee6020938361383a565b8101031261040c57906024610404604093613ae0565b919250610343565b8280fd5b3d91506103e1565b6040513d85823e3d90fd5b8161042d9161383a565b61040c578238610302565b6040513d86823e3d90fd5b600080fd5b80fd5b50346104485760207ffffffffffffffffffffffffffffffffffffffffffffffffffffffffffffffffc360112610448576004359073ffffffffffffffffffffffffffffffffffffffff82168092036104435760408160209360ff9352600184522054166040519015158152f35b503461044857807ffffffffffffffffffffffffffffffffffffffffffffffffffffffffffffffffc36011261044857602060405173ffffffffffffffffffffffffffffffffffffffff7f0000000000000000000000000000000000000000000000000000000000000000168152f35b5034610448576105619061055a61053f366004613a0b565b97999c9390989a9196949261055384613cbb565b3691613c48565b9089613ced565b6040517f18160ddd00000000000000000000000000000000000000000000000000000000815260208160048173ffffffffffffffffffffffffffffffffffffffff8c165afa90811561098f57899161095d575b50604051907f01e1d11400000000000000000000000000000000000000000000000000000000825260208260048173ffffffffffffffffffffffffffffffffffffffff8d165afa918215610952578a9261091e575b507fffffffffffffffffffffffffffffffffffffffffffffffffffffffffffffffff828409838302808210018082146108cc578082038311156108bf57956108639c958573ffffffffffffffffffffffffffffffffffffffff8e8760209f9d989760e09f9d98976108059d826107089a61070f9e099160018487038516808080970460028082600302188083028203028083028203028083028203028083028203028083028203028092029003029803040191858902841191030302928602030417029a5b816040519a6106df6101008d61383a565b168a52818d168f8b0152166040890152336060890152608088015260a087015260c08601614030565b369161406b565b858201526107d9604051958692888085015273ffffffffffffffffffffffffffffffffffffffff815116604085015273ffffffffffffffffffffffffffffffffffffffff8982015116606085015273ffffffffffffffffffffffffffffffffffffffff604082015116608085015273ffffffffffffffffffffffffffffffffffffffff60608201511660a0850152608081015160c085015260a0810151828501526107c360c08201516101008601906140eb565b01516101006101208401526101408301906140f8565b037fffffffffffffffffffffffffffffffffffffffffffffffffffffffffffffffe0810185528461383a565b8473ffffffffffffffffffffffffffffffffffffffff6040518098819682957ffa14fdc200000000000000000000000000000000000000000000000000000000845230600485015260248401526060604484015260648301906138aa565b0393165af19081156108b35790610880575b602090604051908152f35b506020813d6020116108ab575b8161089a6020938361383a565b810103126104435760209051610875565b3d915061088d565b604051903d90823e3d90fd5b63ae47f7028c526004601cfd5b505090819a97989a1561091157946107086108059560e099958573ffffffffffffffffffffffffffffffffffffffff6108639f9b9660209e9b61070f9902049a6106ce565b63ae47f7028a526004601cfd5b9091506020813d60201161094a575b8161093a6020938361383a565b8101031261044357519038610609565b3d915061092d565b6040513d8c823e3d90fd5b90506020813d602011610987575b816109786020938361383a565b810103126104435751386105b4565b3d915061096b565b6040513d8b823e3d90fd5b50346104485760207ffffffffffffffffffffffffffffffffffffffffffffffffffffffffffffffffc360112610448576004359060025482101561044857602073ffffffffffffffffffffffffffffffffffffffff6109fa846002613a99565b9190546040519260031b1c168152f35b503461044857807ffffffffffffffffffffffffffffffffffffffffffffffffffffffffffffffffc36011261044857602060405173ffffffffffffffffffffffffffffffffffffffff7f0000000000000000000000000000000000000000000000000000000000000000168152f35b503461044857610b426020610aab610aa4610a953660046139b9565b61055383949895969793613cbb565b9084613ced565b8573ffffffffffffffffffffffffffffffffffffffff610aca82613967565b94610ad8604051968761383a565b8286527fffffffffffffffffffffffffffffffffffffffffffffffffffffffffffffffe0610b0584613967565b013688880137604051978896879586937f1e7dcc0d0000000000000000000000000000000000000000000000000000000085523360048601613c7f565b0393165af18015610b7d57610b55575080f35b602090813d8111610b76575b610b6b818361383a565b810103126104435780f35b503d610b61565b6040513d84823e3d90fd5b503461044857610d5390602060c0610be9610d1d73ffffffffffffffffffffffffffffffffffffffff610c33610be0610708610bc5366004613a0b565b9a999d969f94939198959760809c93919c5261055384613cbb565b90608051613ced565b8160405199610bf960e08c61383a565b168952168b88015273ffffffffffffffffffffffffffffffffffffffff608051166040880152336060880152608087015260a08601614030565b84820152610cf1604051948592878085015273ffffffffffffffffffffffffffffffffffffffff815116604085015273ffffffffffffffffffffffffffffffffffffffff8882015116606085015273ffffffffffffffffffffffffffffffffffffffff604082015116608085015273ffffffffffffffffffffffffffffffffffffffff60608201511660a0850152608081015182850152610cdc60a082015160e08601906140eb565b015160e06101008401526101208301906140f8565b037fffffffffffffffffffffffffffffffffffffffffffffffffffffffffffffffe0810184528361383a565b60405194859283927f1e7dcc0d000000000000000000000000000000000000000000000000000000008452303360048601613c7f565b03818473ffffffffffffffffffffffffffffffffffffffff608051165af19081156108b3579061088057602090604051908152f35b503461044857807ffffffffffffffffffffffffffffffffffffffffffffffffffffffffffffffffc36011261044857602060405173ffffffffffffffffffffffffffffffffffffffff7f0000000000000000000000000000000000000000000000000000000000000000168152f35b503461044857602090817ffffffffffffffffffffffffffffffffffffffffffffffffffffffffffffffffc360112610448576004359073ffffffffffffffffffffffffffffffffffffffff80831680930361044357823b15611219576040517ffff6cae9000000000000000000000000000000000000000000000000000000008152828160048183885af1801561041857908391611204575b5050604051927fad2961a30000000000000000000000000000000000000000000000000000000084528484600481845afa9384156104185783946111d5575b506301e133809485850294808604871490151715611162576040517fc914b4370000000000000000000000000000000000000000000000000000000081528181600481865afa801561115757859061118f575b65ffffffffffff915016868102968188041490151715611162576040517f6c321c8a0000000000000000000000000000000000000000000000000000000081528181600481865afa90811561115757859161112a575b50604051917f47bd37180000000000000000000000000000000000000000000000000000000083528083600481875afa92831561111f5786936110e4575b50604051937fad7a672f0000000000000000000000000000000000000000000000000000000085528185600481845afa9485156110d957879561109d575b5081600491604051928380927f3ba0b9a90000000000000000000000000000000000000000000000000000000082525afa9687156108b35796611067575b509060c0976bffffffffffffffffffffffff9392604051988952880152604087015216606085015216608083015260a0820152f35b92919080965083813d8311611096575b611081818361383a565b810103126104435791519490919060c0611032565b503d611077565b9094508181813d83116110d2575b6110b5818361383a565b810103126110ce575185811681036110ce579381610ff4565b8680fd5b503d6110ab565b6040513d89823e3d90fd5b9080935081813d8311611118575b6110fc818361383a565b810103126111145761110d90613b01565b9138610fb6565b8580fd5b503d6110f2565b6040513d88823e3d90fd5b90508181813d8311611150575b611141818361383a565b81010312610443575138610f78565b503d611137565b6040513d87823e3d90fd5b6024847f4e487b710000000000000000000000000000000000000000000000000000000081526011600452fd5b508181813d83116111ce575b6111a5818361383a565b810103126111ca575165ffffffffffff811681036111ca5765ffffffffffff90610f22565b8480fd5b503d61119b565b9093508481813d83116111fd575b6111ed818361383a565b8101031261044357519238610ecf565b503d6111e3565b8161120e9161383a565b611219578138610e90565b5080fd5b50346104485760607ffffffffffffffffffffffffffffffffffffffffffffffffffffffffffffffffc360112610448576004359073ffffffffffffffffffffffffffffffffffffffff918281168091036104435780825260208281528360408420541691821561009c5783906064604051809581937fd0189a910000000000000000000000000000000000000000000000000000000083526004830152602435602483015260443560448301525afa9283156108b35780928194611361575b509093929160405194859460408601604087528351809152826060880194019185905b8282106113445750505050848203818601528080855193848152019401925b82811061132d57505050500390f35b83518552869550938101939281019260010161131e565b8351811686528998509484019492840192600191909101906112ff565b925092503d8084843e611374818461383a565b82019160408184031261146d57805167ffffffffffffffff908181116111145782019184601f84011215611114578251926113ae846139a1565b936113bc604051958661383a565b808552858086019160051b830101918783116114695786809101915b838310611451575091505081015191821161111457019280601f850112156111ca578351611405816139a1565b94611413604051968761383a565b818652848087019260051b8201019283116110ce5784809101915b83831061144157505050509192386112dc565b825181529181019185910161142e565b819061145c84613ae0565b81520191019086906113d8565b8880fd5b8380fd5b5034610448576101807ffffffffffffffffffffffffffffffffffffffffffffffffffffffffffffffffc3601126104485760043573ffffffffffffffffffffffffffffffffffffffff918282169283830361044357604435908082168203610443576064359080821682036104435760c07fffffffffffffffffffffffffffffffffffffffffffffffffffffffffffffff5c36011261146d576101643567ffffffffffffffff81116111ca5761152b903690600401613908565b611539608497929735613cbb565b6115468560243584613dc9565b96816116ef575b50506e22d473030f116ddee9f6b43ac78ba391823b15611114576040517f36c7851600000000000000000000000000000000000000000000000000000000815233600482015273ffffffffffffffffffffffffffffffffffffffff9283166024820152908716821660448201527f000000000000000000000000000000000000000000000000000000000000000090911660648201529084908290608490829084905af18015610438579084916116da575b5061160a8591613967565b95611618604051978861383a565b8487527fffffffffffffffffffffffffffffffffffffffffffffffffffffffffffffffe061164586613967565b019285602095869536878c013761168b6040519a8b96879586947f27ce385400000000000000000000000000000000000000000000000000000000865260048601613c7f565b03925af19182156108b357916116aa575b604080945051928352820152f35b80915083813d83116116d3575b6116c1818361383a565b8101031261044357604092519061169c565b503d6116b7565b816116e49161383a565b61040c5782386115ff565b6e22d473030f116ddee9f6b43ac78ba390813b1561176e5791879161174793836040518096819582947f2b67b57000000000000000000000000000000000000000000000000000000000845260a43360048601613f24565b03925af1801561111f579086911561154d57816117639161383a565b6111ca57843861154d565b8780fd5b503461044857807ffffffffffffffffffffffffffffffffffffffffffffffffffffffffffffffffc360112610448576020604051731111111254eeb25477b68fb85ed929f73a9605828152f35b50346104485760207ffffffffffffffffffffffffffffffffffffffffffffffffffffffffffffffffc360112610448576004359073ffffffffffffffffffffffffffffffffffffffff808316809303610443578180938192807f000000000000000000000000000000000000000000000000000000000000000016604051927f80ffbb88000000000000000000000000000000000000000000000000000000008452602084600481855afa938415611157578594611a63575b5084939291905b8386106118a35760408051898152602081018b9052908101889052606090f35b0390f35b90919293949597966040517f1ad4c8c300000000000000000000000000000000000000000000000000000000815287600482015260a09060249180828481895afa91821561098f579087918a918b94611a2b575b505016803b15611469578880916004604051809481937ffff6cae90000000000000000000000000000000000000000000000000000000083525af1801561098f578792918a91611a10575b505060405180937fbb3f673600000000000000000000000000000000000000000000000000000000825286600483015281610100948594165afa918215611a0557916119ba93916119b4938a908b928c946119c4575b50506119a8906119ae9394613c0a565b9b613c0a565b9a613c0a565b96613b73565b949392919061187f565b6119ae94506119a893506119ed9250803d106119fe575b6119e5818361383a565b810190613bcf565b505095945050509293819250611998565b503d6119db565b6040513d8a823e3d90fd5b8192935090611a1e9161383a565b61176e5785908838611942565b611a4f93945080919250903d10611a5c575b611a47818361383a565b810190613b1a565b50939250905038806118f7565b503d611a3d565b9093506020813d8211611a8e575b81611a7e6020938361383a565b8101031261044357519238611878565b3d9150611a71565b503461044857807ffffffffffffffffffffffffffffffffffffffffffffffffffffffffffffffffc360112610448576040517ff851a44000000000000000000000000000000000000000000000000000000000815273ffffffffffffffffffffffffffffffffffffffff602082600481847f0000000000000000000000000000000000000000000000000000000000000000165afa918215610418578392611b95575b5081163303611b6b5781904780611b4e575050f35b8280929181925af115611b5e5780f35b63b12d13eb90526004601cfd5b60046040517f1a19b036000000000000000000000000000000000000000000000000000000008152fd5b9091506020813d8211611bc8575b81611bb06020938361383a565b8101031261040c57611bc190613ae0565b9038611b39565b3d9150611ba3565b503461044857807ffffffffffffffffffffffffffffffffffffffffffffffffffffffffffffffffc36011261044857602060405173def171fe48cf0115b1d80b88dc8eab59176fee578152f35b50346104485760c07ffffffffffffffffffffffffffffffffffffffffffffffffffffffffffffffffc360112610448576004359073ffffffffffffffffffffffffffffffffffffffff908183169182840361044357604435908082168203610443576064359081168103610443576084359460a43567ffffffffffffffff81116111ca5795611d0e91611d07611cbb611d0098993690600401613908565b919093611cc781613cbb565b611cd48860243586613dc9565b998a957f0000000000000000000000000000000000000000000000000000000000000000943691613c48565b9083613ced565b3390614161565b8361160a84613967565b503461044857611d00611d07611d4e92611d7a611d363660046139b9565b92998a869993929695611d4884613cbb565b86613dc9565b9889957f0000000000000000000000000000000000000000000000000000000000000000943691613c48565b611d8381613967565b91611d91604051938461383a565b818352817fffffffffffffffffffffffffffffffffffffffffffffffffffffffffffffffe0611dbf82613967565b0191818073ffffffffffffffffffffffffffffffffffffffff6020998a9636888b0137611e1b604051998a97889687947f1e7dcc0d00000000000000000000000000000000000000000000000000000000865260048601613c7f565b0393165af19081156108b35750908391611e3a575b5050604051908152f35b813d8311611e5c575b611e4d818361383a565b81010312610443578138611e30565b503d611e43565b503461044857807ffffffffffffffffffffffffffffffffffffffffffffffffffffffffffffffffc360112610448576020604051736352a56caadc4f1e25cd6c75970fa768a3304e648152f35b50346104485760207ffffffffffffffffffffffffffffffffffffffffffffffffffffffffffffffffc360112610448576040517f1ad4c8c3000000000000000000000000000000000000000000000000000000008152600435600482015273ffffffffffffffffffffffffffffffffffffffff9060a081602481857f0000000000000000000000000000000000000000000000000000000000000000165afa9081156104185792826040926020958391611f77575b50168152808452205416604051908152f35b611f8f915060a03d8111611a5c57611a47818361383a565b509250505038611f65565b50346104485760407ffffffffffffffffffffffffffffffffffffffffffffffffffffffffffffffffc3601126104485760043567ffffffffffffffff81116112195736602382011215611219578060040135611ff5816139a1565b91612003604051938461383a565b8183526020908184016024809460051b830101913683116110ce578401905b8282106121ee57505050813573ffffffffffffffffffffffffffffffffffffffff8082168203610443576040517ff851a4400000000000000000000000000000000000000000000000000000000081528381600481857f0000000000000000000000000000000000000000000000000000000000000000165afa80156110d957829188916121b6575b50163303611b6b57855b85518110156121b2578484836120cb848a61414d565b5116604051928380927f70a082310000000000000000000000000000000000000000000000000000000082523060048301525afa908115611a05578891612185575b50848884898461212b575b505050505061212690613b73565b6120b5565b8260449261213b8860109461414d565b51168960145260349687526fa9059cbb00000000000000000000000082525af13d1560018a51141716156121785787905261212684888489612118565b6390b8ec1888526004601cfd5b90508481813d83116121ab575b61219c818361383a565b8101031261044357513861210d565b503d612192565b8680f35b809250858092503d83116121e7575b6121cf818361383a565b810103126110ce576121e18291613ae0565b386120ab565b503d6121c5565b813573ffffffffffffffffffffffffffffffffffffffff8116810361176e578152908301908301612022565b503461044857807ffffffffffffffffffffffffffffffffffffffffffffffffffffffffffffffffc3601126104485760206040516e22d473030f116ddee9f6b43ac78ba38152f35b50346104485760407ffffffffffffffffffffffffffffffffffffffffffffffffffffffffffffffffc3601126104485760043573ffffffffffffffffffffffffffffffffffffffff8082168092036104435760243590811680910361044357813b1561040c57826040517ffff6cae9000000000000000000000000000000000000000000000000000000008152818160048183885af18015610b7d576123a2575b50506060906024604051809481937f5d413fa200000000000000000000000000000000000000000000000000000000835260048301525afa8015610b7d578291839161236c575b5061189f90604051938493846040919493926060820195825260208201520152565b905061189f9250612394915060603d811161239b575b61238c818361383a565b810190613c17565b909261234a565b503d612382565b816123ac9161383a565b61040c578238612303565b503461044857807ffffffffffffffffffffffffffffffffffffffffffffffffffffffffffffffffc3601126104485761189f6123f36005613967565b612400604051918261383a565b600581527f312e302e3000000000000000000000000000000000000000000000000000000060208201526040519182916020835260208301906138aa565b503461044857807ffffffffffffffffffffffffffffffffffffffffffffffffffffffffffffffffc36011261044857602060405173e592427a0aece92de3edee1f18e0157c058615648152f35b503461044857807ffffffffffffffffffffffffffffffffffffffffffffffffffffffffffffffffc36011261044857602060405173def1c0ded9bec7f1a1670819833240f027b25eff8152f35b50346104485760407ffffffffffffffffffffffffffffffffffffffffffffffffffffffffffffffffc3601126104485760243573ffffffffffffffffffffffffffffffffffffffff9081811680910361044357817f0000000000000000000000000000000000000000000000000000000000000000166040517ff851a4400000000000000000000000000000000000000000000000000000000081526020908181600481865afa801561111f57859187916127cc575b50163303611b6b5760a0602492604051938480927f1ad4c8c300000000000000000000000000000000000000000000000000000000825260043560048301525afa9384156111575785869387966127a1575b50156127775785928484526001835260ff604085205416156126c9575b811683528282526004828260408620977fffffffffffffffffffffffff000000000000000000000000000000000000000098888a82541617905516808652604086208789825416179055604051928380927f6f307dc30000000000000000000000000000000000000000000000000000000082525afa908115610438578491612694575b5016825252604083209182541617905580f35b90508281813d83116126c2575b6126ab818361383a565b8101031261146d576126bc90613ae0565b38612681565b503d6126a1565b909192506002546801000000000000000081101561274a57918091856126f98560018b9897016002556002613a99565b819291549060031b85811b9283911b16911916179055858552600184526040852060017fffffffffffffffffffffffffffffffffffffffffffffffffffffffffffffff0082541617905590506125fd565b6024877f4e487b710000000000000000000000000000000000000000000000000000000081526041600452fd5b60046040517f51a9ca53000000000000000000000000000000000000000000000000000000008152fd5b919550506127be91925060a03d8111611a5c57611a47818361383a565b5095909392909150386125e0565b809250838092503d83116127fd575b6127e5818361383a565b81010312611114576127f78591613ae0565b3861258e565b503d6127db565b50346104485760e07ffffffffffffffffffffffffffffffffffffffffffffffffffffffffffffffffc360112610448576004359073ffffffffffffffffffffffffffffffffffffffff821682036104435773ffffffffffffffffffffffffffffffffffffffff60243516602435036104435773ffffffffffffffffffffffffffffffffffffffff606435166064350361044357600760a43510156104485760c43567ffffffffffffffff8111611219576128c2903690600401613936565b6128d0608494929435613cbb565b6128df60643560443584613dc9565b93604051917f6f307dc300000000000000000000000000000000000000000000000000000000835260208360048173ffffffffffffffffffffffffffffffffffffffff602435165afa928315611157578593612abf575b509260e0612a3a6020946129a8612a779573ffffffffffffffffffffffffffffffffffffffff99988a6040519461296f6101008761383a565b1684528a60243516898501528a871660408501523360608501528a6064351660808501528b60a085015261070860a43560c08601614030565b83820152612a0e60405193849288808501528a81511660408501528a898201511660608501528a60408201511660808501528a60608201511660a08501528a60808201511660c085015260a0810151828501526107c360c08201516101008601906140eb565b037fffffffffffffffffffffffffffffffffffffffffffffffffffffffffffffffe0810183528261383a565b846040519687809581947f27ce38540000000000000000000000000000000000000000000000000000000083528b60243560643560048601613c7f565b0393165af19081156108b35750612a94575b602082604051908152f35b602090813d8311612ab8575b612aaa818361383a565b810103126104435738612a89565b503d612aa0565b9092506020813d602011612b21575b81612adb6020938361383a565b810103126111ca579260e0612a3a6020946129a8612a7795612b1273ffffffffffffffffffffffffffffffffffffffff9a99613ae0565b97509550509295965050612936565b3d9150612ace565b5034610448576101407ffffffffffffffffffffffffffffffffffffffffffffffffffffffffffffffffc3601126104485760043573ffffffffffffffffffffffffffffffffffffffff9182821691828103610443576044359284841684036104435760643594851685036104435760807fffffffffffffffffffffffffffffffffffffffffffffffffffffffffffffff5c36011261040c57610124359467ffffffffffffffff861161146d57612bfe612be786973690600401613908565b969094612bf5608435613cbb565b60243590613dc9565b94604051612c0d60408261383a565b83815260209487868301526e22d473030f116ddee9f6b43ac78ba391823b1561176e5791612c739391888094604051968795869485937f30f28b7a000000000000000000000000000000000000000000000000000000008552339060a460048701613fc2565b03925af180156111575791858594928894612d0d575b50612c9381613967565b98612ca16040519a8b61383a565b818a527fffffffffffffffffffffffffffffffffffffffffffffffffffffffffffffffe0612cce83613967565b0136878c013761168b6040519a8b96879586947f27ce385400000000000000000000000000000000000000000000000000000000865260048601613c7f565b81939550612d1c92945061383a565b61146d57829185918538612c89565b50346104485760407ffffffffffffffffffffffffffffffffffffffffffffffffffffffffffffffffc3601126104485760043573ffffffffffffffffffffffffffffffffffffffff91828216809203610443576024359183831680930361044357803b15611219576040517ffff6cae9000000000000000000000000000000000000000000000000000000008152828160048183865af1801561041857908391612ef4575b50506020600491604051928380927fd8dfeb450000000000000000000000000000000000000000000000000000000082525afa908115610b7d578291612ebb575b50604051927fbb3f6736000000000000000000000000000000000000000000000000000000008452600484015282602481610100968794165afa9081156108b357809281828390849285948697612e8f575b50604051978852602088015260408701526060860152608085015260a084015260c083015260e0820152f35b9650505050505050612eae9150823d84116119fe576119e5818361383a565b9590949193919038612e63565b90506020813d8211612eec575b81612ed56020938361383a565b8101031261121957612ee690613ae0565b38612e11565b3d9150612ec8565b81612efe9161383a565b611219578138612dd0565b5034610448576020807ffffffffffffffffffffffffffffffffffffffffffffffffffffffffffffffffc3601126112195760043573ffffffffffffffffffffffffffffffffffffffff91828216809203610443576040517f80ffbb88000000000000000000000000000000000000000000000000000000008152849384937f00000000000000000000000000000000000000000000000000000000000000008216918484600481865afa938415611a05578894613146575b5092919087935b838510612fde5760408888888351928352820152f35b9091929395966040517f1ad4c8c300000000000000000000000000000000000000000000000000000000815287600482015260a0602491818184818a5afa90811561313b5785928d92613119575b50501691823b15613115578a6040517ffff6cae9000000000000000000000000000000000000000000000000000000008152818160048183895af18015610b7d57613100575b5050604051928380937f5d413fa200000000000000000000000000000000000000000000000000000000825287600483015260609485935afa8b81156108b3576130d3946119b49482936130dc575b50506130cd9192613c0a565b99613c0a565b93929190612fc8565b6130cd93506130f79250803d1061239b5761238c818361383a565b929050386130c1565b8161310a9161383a565b613115578a38613072565b8a80fd5b61312f9250803d10611a5c57611a47818361383a565b5050915050388061302c565b6040513d8e823e3d90fd5b9093508481813d831161316e575b61315e818361383a565b8101031261044357519238612fc1565b503d613154565b5034610448576101607ffffffffffffffffffffffffffffffffffffffffffffffffffffffffffffffffc3601126104485760043573ffffffffffffffffffffffffffffffffffffffff9182821690818303610443576044359380851685036104435760c07fffffffffffffffffffffffffffffffffffffffffffffffffffffffffffffff7c360112611219576101443567ffffffffffffffff811161040c57613222903690600401613908565b613230606496929635613cbb565b61323d8760243584613dc9565b95816133b2575b50506e22d473030f116ddee9f6b43ac78ba390813b1561146d576040517f36c7851600000000000000000000000000000000000000000000000000000000815233600482015273ffffffffffffffffffffffffffffffffffffffff9182166024820152928616811660448401527f000000000000000000000000000000000000000000000000000000000000000016606483015282908290608490829084905af18015610b7d5790829161339d575b506132fd90613967565b9161330b604051938461383a565b818352817fffffffffffffffffffffffffffffffffffffffffffffffffffffffffffffffe061333982613967565b01918180602098899536878a0137613380604051988996879586947f1e7dcc0d00000000000000000000000000000000000000000000000000000000865260048601613c7f565b03925af19081156108b35750908391611e3a575050604051908152f35b816133a79161383a565b6104485780386132f3565b6e22d473030f116ddee9f6b43ac78ba390813b156111145791859161340a93836040518096819582947f2b67b57000000000000000000000000000000000000000000000000000000000845260843360048601613f24565b03925af18015610438579084911561324457816134269161383a565b61040c578238613244565b5034610448576101207ffffffffffffffffffffffffffffffffffffffffffffffffffffffffffffffffc3601126104485760043573ffffffffffffffffffffffffffffffffffffffff808216928383036104485760443591821682036104485760807fffffffffffffffffffffffffffffffffffffffffffffffffffffffffffffff7c36011261044857610104359367ffffffffffffffff8511611219576134f06134e28495963690600401613908565b959096612bf5606435613cbb565b936040516134ff60408261383a565b82815260209686888301526e22d473030f116ddee9f6b43ac78ba391823b1561111457916135659391868094604051968795869485937f30f28b7a0000000000000000000000000000000000000000000000000000000085523390608460048701613fc2565b03925af180156104185790869291613600575b508290818061358681613967565b96613594604051988961383a565b8188527fffffffffffffffffffffffffffffffffffffffffffffffffffffffffffffffe06135c183613967565b0136878a0137613380604051988996879586947f1e7dcc0d00000000000000000000000000000000000000000000000000000000865260048601613c7f565b8361360d9194929461383a565b9138613578565b503461044857807ffffffffffffffffffffffffffffffffffffffffffffffffffffffffffffffffc360112610448576020600254604051908152f35b503461044857807ffffffffffffffffffffffffffffffffffffffffffffffffffffffffffffffffc36011261044857604051908060035491600183811c928185169485156137a9575b602095868610811461377c5785885287949392918790821561373b5750506001146136e1575b50506136cd9250038361383a565b61189f6040519282849384528301906138aa565b90859250600382527fc2575a0e9e593c00f959f8c92f12db2869c3395a3b0502d05e2516446f71f85b5b8583106137235750506136cd935082010138806136bf565b8054838901850152879450869390920191810161370b565b915093506136cd9592507fffffffffffffffffffffffffffffffffffffffffffffffffffffffffffffff0091501682840152151560051b82010138806136bf565b6024837f4e487b710000000000000000000000000000000000000000000000000000000081526022600452fd5b93607f1693613699565b9050346112195760207ffffffffffffffffffffffffffffffffffffffffffffffffffffffffffffffffc3601126112195760043573ffffffffffffffffffffffffffffffffffffffff9081811680910361146d5783604091602095528085522054168152f35b359073ffffffffffffffffffffffffffffffffffffffff8216820361044357565b90601f7fffffffffffffffffffffffffffffffffffffffffffffffffffffffffffffffe0910116810190811067ffffffffffffffff82111761387b57604052565b7f4e487b7100000000000000000000000000000000000000000000000000000000600052604160045260246000fd5b919082519283825260005b8481106138f45750507fffffffffffffffffffffffffffffffffffffffffffffffffffffffffffffffe0601f8460006020809697860101520116010190565b6020818301810151848301820152016138b5565b9181601f840112156104435782359167ffffffffffffffff8311610443576020838186019501011161044357565b9181601f840112156104435782359167ffffffffffffffff8311610443576020808501948460051b01011161044357565b67ffffffffffffffff811161387b57601f017fffffffffffffffffffffffffffffffffffffffffffffffffffffffffffffffe01660200190565b67ffffffffffffffff811161387b5760051b60200190565b91909160a081840312610443576139cf81613819565b926020820135926139e260408401613819565b92606081013592608082013567ffffffffffffffff811161044357613a079201613908565b9091565b916101208383031261044357613a2083613819565b92613a2d60208201613819565b92613a3a60408301613819565b9260608301359260808101359260a08201359267ffffffffffffffff9060c08401358281116104435783613a6f918601613908565b9490949360e08201356007811015610443579361010083013590811161044357613a079201613936565b8054821015613ab15760005260206000200190600090565b7f4e487b7100000000000000000000000000000000000000000000000000000000600052603260045260246000fd5b519073ffffffffffffffffffffffffffffffffffffffff8216820361044357565b51906bffffffffffffffffffffffff8216820361044357565b908160a09103126104435780518015158103610443579160208201516affffffffffffffffffffff811681036104435791613b5760408201613ae0565b91613b706080613b6960608501613ae0565b9301613b01565b90565b7fffffffffffffffffffffffffffffffffffffffffffffffffffffffffffffffff8114613ba05760010190565b7f4e487b7100000000000000000000000000000000000000000000000000000000600052601160045260246000fd5b9190826101009103126104435781519160208101519160408201519160608101519160808201519160a08101519160e060c083015192015190565b91908201809211613ba057565b90816060910312610443578051916040602083015192015190565b9190826040910312610443576020825192015190565b929192613c5482613967565b91613c62604051938461383a565b829481845281830111610443578281602093846000960137010152565b9092613b70949360809373ffffffffffffffffffffffffffffffffffffffff8092168452166020830152604082015281606082015201906138aa565b4211613cc357565b60046040517fc828cdf5000000000000000000000000000000000000000000000000000000008152fd5b919081518015613dc35782608091810103126104435760208201519260408301519360ff85168095036104435773ffffffffffffffffffffffffffffffffffffffff60806060860151950151921693843b156104435760009460e493869260405198899788967fd505accf00000000000000000000000000000000000000000000000000000000885233600489015230602489015260448801526064870152608486015260a485015260c48401525af18015613db757613daa5750565b6000613db59161383a565b565b6040513d6000823e3d90fd5b50505050565b909173ffffffffffffffffffffffffffffffffffffffff809216803b15610443576040928351927fa6afed95000000000000000000000000000000000000000000000000000000008452600093848160048183885af18015613ec8579086939291613eb3575b50602490835194859384927f7d6af0790000000000000000000000000000000000000000000000000000000084521660048301525afa928315613ea8578293613e87575b50505080821015613e82575090565b905090565b613e9e929350803d106103c0576103b2818361383a565b9050903880613e73565b51913d9150823e3d90fd5b94613ec1816024939761383a565b9490613e2f565b86513d87823e3d90fd5b359065ffffffffffff8216820361044357565b601f82602094937fffffffffffffffffffffffffffffffffffffffffffffffffffffffffffffffe0938186528686013760008582860101520116010190565b90939173ffffffffffffffffffffffffffffffffffffffff809516825284613f4b82613819565b16602083015260208101359085821680920361044357613b709560a092604085015265ffffffffffff80613f8160408501613ed2565b166060860152613f9360608401613ed2565b166080850152613fa560808301613819565b1682840152013560c0820152610100908160e08201520191613ee5565b91926020613b709694606073ffffffffffffffffffffffffffffffffffffffff9485613fed82613819565b16875283810135848801526040810135604088015201356060860152838151166080860152015160a08401521660c0820152610100908160e08201520191613ee5565b600782101561403c5752565b7f4e487b7100000000000000000000000000000000000000000000000000000000600052602160045260246000fd5b92919092614078846139a1565b91614086604051938461383a565b829480845260208094019060051b8301928284116104435780915b8483106140b057505050505050565b823567ffffffffffffffff811161044357820184601f820112156104435786916140e08683858095359101613c48565b8152019201916140a1565b90600782101561403c5752565b90815180825260208092019182818360051b85019501936000915b8483106141235750505050505090565b909192939495848061413d83856001950387528a516138aa565b9801930193019194939290614113565b8051821015613ab15760209160051b010190565b601c600060649281946020966040519860605260405260601b602c526f23b872dd000000000000000000000000600c525af13d156001600051141716156141ac576000606052604052565b637939f4246000526004601cfdfea164736f6c6343000811000a",
  "linkReferences": {},
  "deployedLinkReferences": {}
}