{
  "_format": "hh-sol-artifact-1",
  "contractName": "CygnusAltairX",
  "sourceName": "contracts/cygnus-periphery/CygnusAltairX.sol",
  "abi": [
    {
      "inputs": [
        {
          "internalType": "address",
          "name": "factory",
          "type": "address"
        },
        {
          "internalType": "address",
          "name": "oneInchRouterV4",
          "type": "address"
        }
      ],
      "stateMutability": "nonpayable",
      "type": "constructor"
    },
    {
      "inputs": [
        {
          "internalType": "uint256",
          "name": "amount",
          "type": "uint256"
        }
      ],
      "name": "CygnusAltair__InsufficientBurnAmountA",
      "type": "error"
    },
    {
      "inputs": [
        {
          "internalType": "uint256",
          "name": "amount",
          "type": "uint256"
        }
      ],
      "name": "CygnusAltair__InsufficientBurnAmountB",
      "type": "error"
    },
    {
      "inputs": [
        {
          "internalType": "uint256",
          "name": "lpAmountMin",
          "type": "uint256"
        },
        {
          "internalType": "uint256",
          "name": "liquidity",
          "type": "uint256"
        }
      ],
      "name": "CygnusAltair__InsufficientLPTokenAmount",
      "type": "error"
    },
    {
      "inputs": [
        {
          "internalType": "uint256",
          "name": "usdcAmountMin",
          "type": "uint256"
        },
        {
          "internalType": "uint256",
          "name": "amountUsdc",
          "type": "uint256"
        }
      ],
      "name": "CygnusAltair__InsufficientRedeemAmount",
      "type": "error"
    },
    {
      "inputs": [
        {
          "internalType": "address",
          "name": "redeemer",
          "type": "address"
        },
        {
          "internalType": "uint256",
          "name": "redeemTokens",
          "type": "uint256"
        }
      ],
      "name": "CygnusAltair__InvalidRedeemAmount",
      "type": "error"
    },
    {
      "inputs": [
        {
          "internalType": "address",
          "name": "sender",
          "type": "address"
        },
        {
          "internalType": "address",
          "name": "admin",
          "type": "address"
        }
      ],
      "name": "CygnusAltair__MsgSenderNotAdmin",
      "type": "error"
    },
    {
      "inputs": [
        {
          "internalType": "address",
          "name": "sender",
          "type": "address"
        },
        {
          "internalType": "address",
          "name": "borrowable",
          "type": "address"
        }
      ],
      "name": "CygnusAltair__MsgSenderNotBorrowable",
      "type": "error"
    },
    {
      "inputs": [
        {
          "internalType": "address",
          "name": "sender",
          "type": "address"
        },
        {
          "internalType": "address",
          "name": "collateral",
          "type": "address"
        }
      ],
      "name": "CygnusAltair__MsgSenderNotCollateral",
      "type": "error"
    },
    {
      "inputs": [
        {
          "internalType": "address",
          "name": "sender",
          "type": "address"
        },
        {
          "internalType": "address",
          "name": "origin",
          "type": "address"
        }
      ],
      "name": "CygnusAltair__MsgSenderNotRouter",
      "type": "error"
    },
    {
      "inputs": [
        {
          "internalType": "address",
          "name": "poolToken",
          "type": "address"
        }
      ],
      "name": "CygnusAltair__NotNativeTokenSender",
      "type": "error"
    },
    {
      "inputs": [
        {
          "internalType": "uint256",
          "name": "deadline",
          "type": "uint256"
        }
      ],
      "name": "CygnusAltair__TransactionExpired",
      "type": "error"
    },
    {
      "inputs": [
        {
          "internalType": "uint256",
          "name": "prod1",
          "type": "uint256"
        }
      ],
      "name": "PRBMath__MulDivFixedPointOverflow",
      "type": "error"
    },
    {
      "inputs": [],
      "name": "LOCAL_BYTES",
      "outputs": [
        {
          "internalType": "bytes",
          "name": "",
          "type": "bytes"
        }
      ],
      "stateMutability": "view",
      "type": "function"
    },
    {
      "inputs": [],
      "name": "aggregationRouterV4",
      "outputs": [
        {
          "internalType": "contract IAggregationRouterV4",
          "name": "",
          "type": "address"
        }
      ],
      "stateMutability": "view",
      "type": "function"
    },
    {
      "inputs": [
        {
          "internalType": "address",
          "name": "sender",
          "type": "address"
        },
        {
          "internalType": "uint256",
          "name": "borrowAmount",
          "type": "uint256"
        },
        {
          "internalType": "bytes",
          "name": "data",
          "type": "bytes"
        }
      ],
      "name": "altairBorrow_O9E",
      "outputs": [],
      "stateMutability": "nonpayable",
      "type": "function"
    },
    {
      "inputs": [
        {
          "internalType": "address",
          "name": "sender",
          "type": "address"
        },
        {
          "internalType": "uint256",
          "name": "redeemAmount",
          "type": "uint256"
        },
        {
          "internalType": "address",
          "name": "token0",
          "type": "address"
        },
        {
          "internalType": "address",
          "name": "token1",
          "type": "address"
        },
        {
          "internalType": "bytes",
          "name": "data",
          "type": "bytes"
        }
      ],
      "name": "altairRedeem_u91A",
      "outputs": [],
      "stateMutability": "nonpayable",
      "type": "function"
    },
    {
      "inputs": [
        {
          "internalType": "address",
          "name": "borrowable",
          "type": "address"
        },
        {
          "internalType": "uint256",
          "name": "amount",
          "type": "uint256"
        },
        {
          "internalType": "address",
          "name": "recipient",
          "type": "address"
        },
        {
          "internalType": "uint256",
          "name": "deadline",
          "type": "uint256"
        },
        {
          "internalType": "bytes",
          "name": "permitData",
          "type": "bytes"
        }
      ],
      "name": "borrow",
      "outputs": [],
      "stateMutability": "nonpayable",
      "type": "function"
    },
    {
      "inputs": [
        {
          "internalType": "address",
          "name": "collateral",
          "type": "address"
        },
        {
          "internalType": "address",
          "name": "borrowable",
          "type": "address"
        },
        {
          "internalType": "uint256",
          "name": "redeemTokens",
          "type": "uint256"
        },
        {
          "internalType": "uint256",
          "name": "usdcAmountMin",
          "type": "uint256"
        },
        {
          "internalType": "uint256",
          "name": "deadline",
          "type": "uint256"
        },
        {
          "internalType": "bytes",
          "name": "permitData",
          "type": "bytes"
        },
        {
          "internalType": "bytes[]",
          "name": "swapData",
          "type": "bytes[]"
        }
      ],
      "name": "deleverage",
      "outputs": [],
      "stateMutability": "nonpayable",
      "type": "function"
    },
    {
      "inputs": [],
      "name": "hangar18",
      "outputs": [
        {
          "internalType": "address",
          "name": "",
          "type": "address"
        }
      ],
      "stateMutability": "view",
      "type": "function"
    },
    {
      "inputs": [
        {
          "internalType": "address",
          "name": "collateral",
          "type": "address"
        },
        {
          "internalType": "address",
          "name": "borrowable",
          "type": "address"
        },
        {
          "internalType": "uint256",
          "name": "amountUsdcDesired",
          "type": "uint256"
        },
        {
          "internalType": "uint256",
          "name": "amountLPMin",
          "type": "uint256"
        },
        {
          "internalType": "address",
          "name": "recipient",
          "type": "address"
        },
        {
          "internalType": "uint256",
          "name": "deadline",
          "type": "uint256"
        },
        {
          "internalType": "bytes",
          "name": "permitData",
          "type": "bytes"
        },
        {
          "internalType": "bytes[]",
          "name": "swapData",
          "type": "bytes[]"
        }
      ],
      "name": "leverage",
      "outputs": [],
      "stateMutability": "nonpayable",
      "type": "function"
    },
    {
      "inputs": [
        {
          "internalType": "address",
          "name": "borrowable",
          "type": "address"
        },
        {
          "internalType": "uint256",
          "name": "amountMax",
          "type": "uint256"
        },
        {
          "internalType": "address",
          "name": "borrower",
          "type": "address"
        },
        {
          "internalType": "address",
          "name": "recipient",
          "type": "address"
        },
        {
          "internalType": "uint256",
          "name": "deadline",
          "type": "uint256"
        }
      ],
      "name": "liquidate",
      "outputs": [
        {
          "internalType": "uint256",
          "name": "amount",
          "type": "uint256"
        },
        {
          "internalType": "uint256",
          "name": "seizeTokens",
          "type": "uint256"
        }
      ],
      "stateMutability": "nonpayable",
      "type": "function"
    },
    {
      "inputs": [
        {
          "internalType": "address",
          "name": "lpTokenPair",
          "type": "address"
        },
        {
          "internalType": "address",
          "name": "collateral",
          "type": "address"
        },
        {
          "internalType": "address",
          "name": "borrowable",
          "type": "address"
        },
        {
          "internalType": "uint256",
          "name": "amountMax",
          "type": "uint256"
        },
        {
          "internalType": "address",
          "name": "borrower",
          "type": "address"
        },
        {
          "internalType": "address",
          "name": "recipient",
          "type": "address"
        },
        {
          "internalType": "uint256",
          "name": "deadline",
          "type": "uint256"
        },
        {
          "internalType": "bytes[]",
          "name": "swapData",
          "type": "bytes[]"
        }
      ],
      "name": "liquidateToUsdc",
      "outputs": [
        {
          "internalType": "uint256",
          "name": "amountUsdc",
          "type": "uint256"
        }
      ],
      "stateMutability": "nonpayable",
      "type": "function"
    },
    {
      "inputs": [],
      "name": "nativeToken",
      "outputs": [
        {
          "internalType": "address",
          "name": "",
          "type": "address"
        }
      ],
      "stateMutability": "view",
      "type": "function"
    },
    {
      "inputs": [
        {
          "internalType": "address",
          "name": "borrowable",
          "type": "address"
        },
        {
          "internalType": "uint256",
          "name": "amountMax",
          "type": "uint256"
        },
        {
          "internalType": "address",
          "name": "borrower",
          "type": "address"
        },
        {
          "internalType": "uint256",
          "name": "deadline",
          "type": "uint256"
        }
      ],
      "name": "repay",
      "outputs": [
        {
          "internalType": "uint256",
          "name": "amount",
          "type": "uint256"
        }
      ],
      "stateMutability": "nonpayable",
      "type": "function"
    },
    {
      "inputs": [],
      "name": "usdc",
      "outputs": [
        {
          "internalType": "address",
          "name": "",
          "type": "address"
        }
      ],
      "stateMutability": "view",
      "type": "function"
    },
    {
      "stateMutability": "payable",
      "type": "receive"
    }
  ],
  "bytecode": "0x6101006040523480156200001257600080fd5b5060405162003f2238038062003f228339810160408190526200003591620001ba565b816001600160a01b031660a0816001600160a01b031660601b81525050816001600160a01b031663e1758bd86040518163ffffffff1660e01b815260040160206040518083038186803b1580156200008c57600080fd5b505afa158015620000a1573d6000803e3d6000fd5b505050506040513d601f19601f82011682018060405250810190620000c7919062000196565b6001600160a01b031660c0816001600160a01b031660601b81525050816001600160a01b0316633e413bee6040518163ffffffff1660e01b815260040160206040518083038186803b1580156200011d57600080fd5b505afa15801562000132573d6000803e3d6000fd5b505050506040513d601f19601f8201168201806040525081019062000158919062000196565b6001600160601b0319606091821b811660805291901b1660e05250620001f1565b80516001600160a01b03811681146200019157600080fd5b919050565b600060208284031215620001a8578081fd5b620001b38262000179565b9392505050565b60008060408385031215620001cd578081fd5b620001d88362000179565b9150620001e86020840162000179565b90509250929050565b60805160601c60a05160601c60c05160601c60e05160601c613c6e620002b46000396000818161018a015281816126b5015261271b01526000818160de0152818161034e015281816119a6015281816119fb01528181611a9c0152818161252401526125a5015260006103820152600081816102080152818161113f01528181611895015281816118ea0152818161193f0152818161214c015281816121de01528181612233015281816122880152818161236c01526124180152613c6e6000f3fe6080604052600436106100d65760003560e01c80636aee7c1e1161007f578063a4ca2bf411610059578063a4ca2bf4146102fc578063dbe5f2fb1461031c578063e1758bd81461033c578063e8a24e1d1461037057600080fd5b80636aee7c1e1461027f5780638f53d74f146102ad578063953ec666146102cd57600080fd5b80633e413bee116100b05780633e413bee146101f65780635bb964891461022a5780635c1e64041461024a57600080fd5b8063188a4b6c146101585780633401e1681461017857806339fd16c3146101d657600080fd5b3661015357337f000000000000000000000000000000000000000000000000000000000000000073ffffffffffffffffffffffffffffffffffffffff1614610151576040517fb58564160000000000000000000000000000000000000000000000000000000081523360048201526024015b60405180910390fd5b005b600080fd5b34801561016457600080fd5b5061015161017336600461324b565b6103a4565b34801561018457600080fd5b506101ac7f000000000000000000000000000000000000000000000000000000000000000081565b60405173ffffffffffffffffffffffffffffffffffffffff90911681526020015b60405180910390f35b3480156101e257600080fd5b506101516101f13660046131b1565b6104e5565b34801561020257600080fd5b506101ac7f000000000000000000000000000000000000000000000000000000000000000081565b34801561023657600080fd5b506101516102453660046130ec565b6105dd565b34801561025657600080fd5b5061026a6102653660046132ce565b610694565b604080519283526020830191909152016101cd565b34801561028b57600080fd5b5061029f61029a366004613328565b610806565b6040519081526020016101cd565b3480156102b957600080fd5b506101516102c83660046133cb565b61090a565b3480156102d957600080fd5b506102ef60408051600081526020810190915281565b6040516101cd91906137e3565b34801561030857600080fd5b5061029f610317366004613037565b610d3d565b34801561032857600080fd5b5061015161033736600461336f565b610e72565b34801561034857600080fd5b506101ac7f000000000000000000000000000000000000000000000000000000000000000081565b34801561037c57600080fd5b506101ac7f000000000000000000000000000000000000000000000000000000000000000081565b60006103b282840184613546565b905073ffffffffffffffffffffffffffffffffffffffff87163014610421576040517fb61e0f2900000000000000000000000000000000000000000000000000000000815273ffffffffffffffffffffffffffffffffffffffff88166004820152326024820152604401610148565b602081015173ffffffffffffffffffffffffffffffffffffffff163373ffffffffffffffffffffffffffffffffffffffff16146104ae5760208101516040517fe5ac816600000000000000000000000000000000000000000000000000000000815233600482015273ffffffffffffffffffffffffffffffffffffffff9091166024820152604401610148565b6104dc816000015182606001518360200151846040015185608001518660a001518c8c8c8a60c00151610f1c565b50505050505050565b846104ef81611224565b60008811610532576040517f0c1055d000000000000000000000000000000000000000000000000000000000815233600482015260248101899052604401610148565b60008a73ffffffffffffffffffffffffffffffffffffffff16636f307dc36040518163ffffffff1660e01b815260040160206040518083038186803b15801561057a57600080fd5b505afa15801561058e573d6000803e3d6000fd5b505050506040513d601f19601f820116820180604052508101906105b29190612f17565b90506105c18b8a898989611264565b6105d08b8b8b848c8989611383565b5050505050505050505050565b846105e781611224565b60008b73ffffffffffffffffffffffffffffffffffffffff16636f307dc36040518163ffffffff1660e01b815260040160206040518083038186803b15801561062f57600080fd5b505afa158015610643573d6000803e3d6000fd5b505050506040513d601f19601f820116820180604052508101906106679190612f17565b90506106768b8b898989611546565b610686818d8d8d8d8d8a8a6115bc565b505050505050505050505050565b600080826106a181611224565b6106ac888888611721565b92506107503389858b73ffffffffffffffffffffffffffffffffffffffff16636f307dc36040518163ffffffff1660e01b815260040160206040518083038186803b1580156106fa57600080fd5b505afa15801561070e573d6000803e3d6000fd5b505050506040513d601f19601f820116820180604052508101906107329190612f17565b73ffffffffffffffffffffffffffffffffffffffff1692919061183f565b6040517f86b9d81f00000000000000000000000000000000000000000000000000000000815273ffffffffffffffffffffffffffffffffffffffff878116600483015286811660248301528916906386b9d81f90604401602060405180830381600087803b1580156107c157600080fd5b505af11580156107d5573d6000803e3d6000fd5b505050506040513d601f19601f820116820180604052508101906107f99190613655565b9150509550959350505050565b60008161081281611224565b61081d868686611721565b915061086b3387848973ffffffffffffffffffffffffffffffffffffffff16636f307dc36040518163ffffffff1660e01b815260040160206040518083038186803b1580156106fa57600080fd5b60408051600080825260208201928390527f1e7dcc0d0000000000000000000000000000000000000000000000000000000090925273ffffffffffffffffffffffffffffffffffffffff881691631e7dcc0d916108cf91889181906024810161376f565b600060405180830381600087803b1580156108e957600080fd5b505af11580156108fd573d6000803e3d6000fd5b5050505050949350505050565b60006109188284018461348b565b905073ffffffffffffffffffffffffffffffffffffffff85163014610987576040517fb61e0f2900000000000000000000000000000000000000000000000000000000815273ffffffffffffffffffffffffffffffffffffffff86166004820152326024820152604401610148565b604081015173ffffffffffffffffffffffffffffffffffffffff163373ffffffffffffffffffffffffffffffffffffffff1614610a145760408181015190517faead146700000000000000000000000000000000000000000000000000000000815233600482015273ffffffffffffffffffffffffffffffffffffffff9091166024820152604401610148565b6000816000015173ffffffffffffffffffffffffffffffffffffffff16630dfe16816040518163ffffffff1660e01b815260040160206040518083038186803b158015610a6057600080fd5b505afa158015610a74573d6000803e3d6000fd5b505050506040513d601f19601f82011682018060405250810190610a989190612f17565b90506000826000015173ffffffffffffffffffffffffffffffffffffffff1663d21220a76040518163ffffffff1660e01b815260040160206040518083038186803b158015610ae657600080fd5b505afa158015610afa573d6000803e3d6000fd5b505050506040513d601f19601f82011682018060405250810190610b1e9190612f17565b9050600080610b38856000015185858b8960a0015161188d565b86519193509150610b619073ffffffffffffffffffffffffffffffffffffffff86169084611c99565b8451610b859073ffffffffffffffffffffffffffffffffffffffff85169083611c99565b84516040517f6a62784200000000000000000000000000000000000000000000000000000000815230600482015260009173ffffffffffffffffffffffffffffffffffffffff1690636a62784290602401602060405180830381600087803b158015610bf057600080fd5b505af1158015610c04573d6000803e3d6000fd5b505050506040513d601f19601f82011682018060405250810190610c289190613655565b90508560800151811015610c785760808601516040517f4f9e62b4000000000000000000000000000000000000000000000000000000008152600481019190915260248101829052604401610148565b610c8b8660000151876020015183611cdd565b602086015160608701516040517f6e553f650000000000000000000000000000000000000000000000000000000081526004810184905273ffffffffffffffffffffffffffffffffffffffff9182166024820152911690636e553f6590604401602060405180830381600087803b158015610d0557600080fd5b505af1158015610d19573d6000803e3d6000fd5b505050506040513d601f19601f820116820180604052508101906105d09190613655565b600083610d4981611224565b6000610d568a8a8a611721565b9050610da4338b838d73ffffffffffffffffffffffffffffffffffffffff16636f307dc36040518163ffffffff1660e01b815260040160206040518083038186803b1580156106fa57600080fd5b6040517f86b9d81f00000000000000000000000000000000000000000000000000000000815273ffffffffffffffffffffffffffffffffffffffff89811660048301528881166024830152600091908c16906386b9d81f90604401602060405180830381600087803b158015610e1957600080fd5b505af1158015610e2d573d6000803e3d6000fd5b505050506040513d601f19601f82011682018060405250810190610e519190613655565b9050610e618d8d8a848a8a611dd5565b9d9c50505050505050505050505050565b82610e7c81611224565b610e898787868686611546565b604080516000815260208101918290527f1e7dcc0d0000000000000000000000000000000000000000000000000000000090915273ffffffffffffffffffffffffffffffffffffffff881690631e7dcc0d90610eee90339089908b906024810161376f565b600060405180830381600087803b158015610f0857600080fd5b505af11580156105d0573d6000803e3d6000fd5b6040517fa9059cbb00000000000000000000000000000000000000000000000000000000815273ffffffffffffffffffffffffffffffffffffffff8b1660048201819052602482018690529063a9059cbb90604401602060405180830381600087803b158015610f8b57600080fd5b505af1158015610f9f573d6000803e3d6000fd5b505050506040513d601f19601f82011682018060405250810190610fc39190613425565b506040517f89afcb44000000000000000000000000000000000000000000000000000000008152306004820152600090819073ffffffffffffffffffffffffffffffffffffffff8d16906389afcb44906024016040805180830381600087803b15801561102f57600080fd5b505af1158015611043573d6000803e3d6000fd5b505050506040513d601f19601f82011682018060405250810190611067919061366d565b91509150600082116110a8576040517fd5ff6de300000000000000000000000000000000000000000000000000000000815260048101839052602401610148565b600081116110e5576040517fa0bd09d300000000000000000000000000000000000000000000000000000000815260048101829052602401610148565b60006110f483838888886121da565b905087811015611139576040517e6d48fc0000000000000000000000000000000000000000000000000000000081526004810189905260248101829052604401610148565b6111658a7f00000000000000000000000000000000000000000000000000000000000000008e84612446565b6040517f23b872dd00000000000000000000000000000000000000000000000000000000815273ffffffffffffffffffffffffffffffffffffffff8d811660048301528c1660248201819052604482018b9052906323b872dd90606401602060405180830381600087803b1580156111dc57600080fd5b505af11580156111f0573d6000803e3d6000fd5b505050506040513d601f19601f820116820180604052508101906112149190613425565b5050505050505050505050505050565b80421115611261576040517fd8bf612600000000000000000000000000000000000000000000000000000000815260048101829052602401610148565b50565b8061126e5761137c565b600080808061127f85870187613441565b935093509350935060008461129457886112b6565b7fffffffffffffffffffffffffffffffffffffffffffffffffffffffffffffffff5b905073ffffffffffffffffffffffffffffffffffffffff8a1663d505accf335b6040517fffffffff0000000000000000000000000000000000000000000000000000000060e084901b16815273ffffffffffffffffffffffffffffffffffffffff909116600482015230602482015260448101849052606481018b905260ff8716608482015260a4810186905260c4810185905260e4015b600060405180830381600087803b15801561136857600080fd5b505af1158015611214573d6000803e3d6000fd5b5050505050565b60008773ffffffffffffffffffffffffffffffffffffffff16633ba0b9a96040518163ffffffff1660e01b8152600401602060405180830381600087803b1580156113cd57600080fd5b505af11580156113e1573d6000803e3d6000fd5b505050506040513d601f19601f820116820180604052508101906114059190613655565b905060006114138783612665565b905060006040518060e001604052808873ffffffffffffffffffffffffffffffffffffffff1681526020018b73ffffffffffffffffffffffffffffffffffffffff1681526020018a73ffffffffffffffffffffffffffffffffffffffff16815260200161147d3390565b73ffffffffffffffffffffffffffffffffffffffff168152602081018a9052604081018890526060016114b08688613b6d565b90526040516114c2919060200161394d565b604080517fffffffffffffffffffffffffffffffffffffffffffffffffffffffffffffffe0818403018152908290527ffa14fdc2000000000000000000000000000000000000000000000000000000008252915073ffffffffffffffffffffffffffffffffffffffff8b169063fa14fdc29061134e903090869086906004016137ae565b806115505761137c565b600080808061156185870187613441565b93509350935093506000846115765788611598565b7fffffffffffffffffffffffffffffffffffffffffffffffffffffffffffffffff5b905073ffffffffffffffffffffffffffffffffffffffff8a16639e79b55c336112d6565b60006040518060c001604052808a73ffffffffffffffffffffffffffffffffffffffff1681526020018973ffffffffffffffffffffffffffffffffffffffff1681526020018873ffffffffffffffffffffffffffffffffffffffff1681526020018573ffffffffffffffffffffffffffffffffffffffff16815260200186815260200184849061164c9190613b6d565b905260405161165e91906020016138e2565b604080517fffffffffffffffffffffffffffffffffffffffffffffffffffffffffffffffe0818403018152908290527f1e7dcc0d000000000000000000000000000000000000000000000000000000008252915073ffffffffffffffffffffffffffffffffffffffff881690631e7dcc0d906116e490879030908b90879060040161376f565b600060405180830381600087803b1580156116fe57600080fd5b505af1158015611712573d6000803e3d6000fd5b50505050505050505050505050565b60008373ffffffffffffffffffffffffffffffffffffffff1663a6afed956040518163ffffffff1660e01b8152600401600060405180830381600087803b15801561176b57600080fd5b505af115801561177f573d6000803e3d6000fd5b50506040517f7d6af07900000000000000000000000000000000000000000000000000000000815273ffffffffffffffffffffffffffffffffffffffff85811660048301526000935087169150637d6af0799060240160206040518083038186803b1580156117ed57600080fd5b505afa158015611801573d6000803e3d6000fd5b505050506040513d601f19601f820116820180604052508101906118259190613655565b90508084106118345780611836565b835b95945050505050565b6040516323b872dd600052836020528260405281606052602060006064601c6000895af13d15600160005114171661187f57637939f4246000526004601cfd5b600060605260405250505050565b6000806000807f000000000000000000000000000000000000000000000000000000000000000073ffffffffffffffffffffffffffffffffffffffff168873ffffffffffffffffffffffffffffffffffffffff16148061193857507f000000000000000000000000000000000000000000000000000000000000000073ffffffffffffffffffffffffffffffffffffffff168773ffffffffffffffffffffffffffffffffffffffff16145b156119a4577f000000000000000000000000000000000000000000000000000000000000000073ffffffffffffffffffffffffffffffffffffffff168873ffffffffffffffffffffffffffffffffffffffff161461199757868861199a565b87875b9092509050611b39565b7f000000000000000000000000000000000000000000000000000000000000000073ffffffffffffffffffffffffffffffffffffffff168873ffffffffffffffffffffffffffffffffffffffff161480611a4957507f000000000000000000000000000000000000000000000000000000000000000073ffffffffffffffffffffffffffffffffffffffff168773ffffffffffffffffffffffffffffffffffffffff16145b15611af457611a9985600081518110611a8b577f4e487b7100000000000000000000000000000000000000000000000000000000600052603260045260246000fd5b602002602001015187612678565b507f000000000000000000000000000000000000000000000000000000000000000073ffffffffffffffffffffffffffffffffffffffff168873ffffffffffffffffffffffffffffffffffffffff161461199757868861199a565b611b3185600081518110611a8b577f4e487b7100000000000000000000000000000000000000000000000000000000600052603260045260246000fd5b508791508690505b6000808a73ffffffffffffffffffffffffffffffffffffffff16630902f1ac6040518163ffffffff1660e01b815260040160606040518083038186803b158015611b8257600080fd5b505afa158015611b96573d6000803e3d6000fd5b505050506040513d601f19601f82011682018060405250810190611bba9190613607565b509150915060008a73ffffffffffffffffffffffffffffffffffffffff168573ffffffffffffffffffffffffffffffffffffffff1614611bfa5781611bfc565b825b6dffffffffffffffffffffffffffff1690506000611c25611c1c876127b3565b836103e5612859565b9050611c7289600181518110611c64577f4e487b7100000000000000000000000000000000000000000000000000000000600052603260045260246000fd5b602002602001015182612678565b50611c7c8c6127b3565b9750611c878b6127b3565b96505050505050509550959350505050565b60405163a9059cbb6000528260205281604052602060006044601c6000885af13d156001600051141716611cd5576390b8ec186000526004601cfd5b604052505050565b6040517fdd62ed3e00000000000000000000000000000000000000000000000000000000815230600482015273ffffffffffffffffffffffffffffffffffffffff838116602483015282919085169063dd62ed3e9060440160206040518083038186803b158015611d4d57600080fd5b505afa158015611d61573d6000803e3d6000fd5b505050506040513d601f19601f82011682018060405250810190611d859190613655565b10611d8f57505050565b611dd073ffffffffffffffffffffffffffffffffffffffff8416837fffffffffffffffffffffffffffffffffffffffffffffffffffffffffffffffff6128f7565b505050565b6040517fba0876520000000000000000000000000000000000000000000000000000000081526004810184905273ffffffffffffffffffffffffffffffffffffffff858116602483018190526044830152600091829188169063ba08765290606401602060405180830381600087803b158015611e5157600080fd5b505af1158015611e65573d6000803e3d6000fd5b505050506040513d601f19601f82011682018060405250810190611e899190613655565b905060008873ffffffffffffffffffffffffffffffffffffffff16630dfe16816040518163ffffffff1660e01b815260040160206040518083038186803b158015611ed357600080fd5b505afa158015611ee7573d6000803e3d6000fd5b505050506040513d601f19601f82011682018060405250810190611f0b9190612f17565b905060008973ffffffffffffffffffffffffffffffffffffffff1663d21220a76040518163ffffffff1660e01b815260040160206040518083038186803b158015611f5557600080fd5b505afa158015611f69573d6000803e3d6000fd5b505050506040513d601f19601f82011682018060405250810190611f8d9190612f17565b6040517f23b872dd00000000000000000000000000000000000000000000000000000000815273ffffffffffffffffffffffffffffffffffffffff8a811660048301528c1660248201819052604482018690529192506323b872dd90606401602060405180830381600087803b15801561200657600080fd5b505af115801561201a573d6000803e3d6000fd5b505050506040513d601f19601f8201168201806040525081019061203e9190613425565b506040517f89afcb44000000000000000000000000000000000000000000000000000000008152306004820152600090819073ffffffffffffffffffffffffffffffffffffffff8d16906389afcb44906024016040805180830381600087803b1580156120aa57600080fd5b505af11580156120be573d6000803e3d6000fd5b505050506040513d601f19601f820116820180604052508101906120e2919061366d565b90925090506120fd828286866120f88c8e613b6d565b6121da565b6040517fa9059cbb00000000000000000000000000000000000000000000000000000000815273ffffffffffffffffffffffffffffffffffffffff8c81166004830152602482018390529197507f00000000000000000000000000000000000000000000000000000000000000009091169063a9059cbb90604401602060405180830381600087803b15801561219257600080fd5b505af11580156121a6573d6000803e3d6000fd5b505050506040513d601f19601f820116820180604052508101906121ca9190613425565b5050505050509695505050505050565b60007f000000000000000000000000000000000000000000000000000000000000000073ffffffffffffffffffffffffffffffffffffffff168473ffffffffffffffffffffffffffffffffffffffff16148061228157507f000000000000000000000000000000000000000000000000000000000000000073ffffffffffffffffffffffffffffffffffffffff168373ffffffffffffffffffffffffffffffffffffffff16145b15612397577f000000000000000000000000000000000000000000000000000000000000000073ffffffffffffffffffffffffffffffffffffffff168473ffffffffffffffffffffffffffffffffffffffff161461231b5761231682600081518110611a8b577f4e487b7100000000000000000000000000000000000000000000000000000000600052603260045260246000fd5b612366565b61236682600081518110612358577f4e487b7100000000000000000000000000000000000000000000000000000000600052603260045260246000fd5b602002602001015186612678565b506123907f00000000000000000000000000000000000000000000000000000000000000006127b3565b9050611836565b6123d482600081518110611a8b577f4e487b7100000000000000000000000000000000000000000000000000000000600052603260045260246000fd5b5061241282600181518110612358577f4e487b7100000000000000000000000000000000000000000000000000000000600052603260045260246000fd5b5061243c7f00000000000000000000000000000000000000000000000000000000000000006127b3565b9695505050505050565b6000612453858385611721565b905061247673ffffffffffffffffffffffffffffffffffffffff85168683611c99565b60408051600080825260208201928390527f1e7dcc0d0000000000000000000000000000000000000000000000000000000090925273ffffffffffffffffffffffffffffffffffffffff871691631e7dcc0d916124da91879181906024810161376f565b600060405180830381600087803b1580156124f457600080fd5b505af1158015612508573d6000803e3d6000fd5b505050508082111561137c5760006125208284613b56565b90507f000000000000000000000000000000000000000000000000000000000000000073ffffffffffffffffffffffffffffffffffffffff168573ffffffffffffffffffffffffffffffffffffffff16141561263c576040517f2e1a7d4d000000000000000000000000000000000000000000000000000000008152600481018290527f000000000000000000000000000000000000000000000000000000000000000073ffffffffffffffffffffffffffffffffffffffff1690632e1a7d4d90602401600060405180830381600087803b1580156125fe57600080fd5b505af1158015612612573d6000803e3d6000fd5b506126379250505073ffffffffffffffffffffffffffffffffffffffff851682612933565b61265d565b61265d73ffffffffffffffffffffffffffffffffffffffff86168583611c99565b505050505050565b60006126718383612953565b9392505050565b600080600080858060200190518101906126929190612f33565b925092509250848260800151146126ab57608082018590525b6126de82600001517f00000000000000000000000000000000000000000000000000000000000000008460800151611cdd565b6040517f7c02520000000000000000000000000000000000000000000000000000000000815273ffffffffffffffffffffffffffffffffffffffff7f00000000000000000000000000000000000000000000000000000000000000001690637c02520090612754908690869086906004016137f6565b606060405180830381600087803b15801561276e57600080fd5b505af1158015612782573d6000803e3d6000fd5b505050506040513d601f19601f820116820180604052508101906127a69190613690565b5090979650505050505050565b6040517f70a0823100000000000000000000000000000000000000000000000000000000815230600482015260009073ffffffffffffffffffffffffffffffffffffffff8316906370a082319060240160206040518083038186803b15801561281b57600080fd5b505afa15801561282f573d6000803e3d6000fd5b505050506040513d601f19601f820116820180604052508101906128539190613655565b92915050565b60008083612869846103e8613ac8565b6128739190613b19565b905060008385612885886103e8613b19565b61288f9190613b19565b61289a906004613b19565b6128a49190613b19565b905060006128c5826128b68580613b19565b6128c09190613ac8565b612a66565b905060006128d4866002613b19565b9050806128e18584613b56565b6128eb9190613ae0565b98975050505050505050565b60405163095ea7b36000528260205281604052602060006044601c6000885af13d156001600051141716611cd557633e3f8f736000526004601cfd5b60008060008084865af161294f5763b12d13eb6000526004601cfd5b5050565b600080807fffffffffffffffffffffffffffffffffffffffffffffffffffffffffffffffff848609848602925082811083820303915050670de0b6b3a764000081106129ce576040517fd31b340200000000000000000000000000000000000000000000000000000000815260048101829052602401610148565b600080670de0b6b3a76400008688099150506706f05b59d3b1ffff811182612a085780670de0b6b3a7640000850401945050505050612853565b6204000082850304939091119091037d40000000000000000000000000000000000000000000000000000000000002919091177faccb18165bd6fe31ae1cf318dc5b51eee0e1ba569b88cd74c1773b91fac106690201905092915050565b600081612a7557506000919050565b506001817001000000000000000000000000000000008110612a9c5760409190911b9060801c5b680100000000000000008110612ab75760209190911b9060401c5b6401000000008110612ace5760109190911b9060201c5b620100008110612ae35760089190911b9060101c5b6101008110612af75760049190911b9060081c5b60108110612b0a5760029190911b9060041c5b60088110612b1a57600182901b91505b6001828481612b52577f4e487b7100000000000000000000000000000000000000000000000000000000600052601260045260246000fd5b048301901c91506001828481612b91577f4e487b7100000000000000000000000000000000000000000000000000000000600052601260045260246000fd5b048301901c91506001828481612bd0577f4e487b7100000000000000000000000000000000000000000000000000000000600052601260045260246000fd5b048301901c91506001828481612c0f577f4e487b7100000000000000000000000000000000000000000000000000000000600052601260045260246000fd5b048301901c91506001828481612c4e577f4e487b7100000000000000000000000000000000000000000000000000000000600052601260045260246000fd5b048301901c91506001828481612c8d577f4e487b7100000000000000000000000000000000000000000000000000000000600052601260045260246000fd5b048301901c91506001828481612ccc577f4e487b7100000000000000000000000000000000000000000000000000000000600052601260045260246000fd5b048301901c91506000828481612d0b577f4e487b7100000000000000000000000000000000000000000000000000000000600052601260045260246000fd5b04905080831015612d1c5782612d1e565b805b949350505050565b600067ffffffffffffffff80841115612d4157612d41613bd9565b8360051b6020612d52818301613a33565b868152935080840185838101891015612d6a57600080fd5b600093505b87841015612de657803585811115612d8657600080fd5b8701601f81018a13612d9757600080fd5b8035612daa612da582613a82565b613a33565b8181528b86838501011115612dbe57600080fd5b8186840187830137600091810186019190915283525060019390930192908201908201612d6f565b50505050509392505050565b8035612dfd81613c08565b919050565b8051612dfd81613c08565b60008083601f840112612e1e578182fd5b50813567ffffffffffffffff811115612e35578182fd5b6020830191508360208260051b8501011115612e5057600080fd5b9250929050565b600082601f830112612e67578081fd5b61267183833560208501612d26565b60008083601f840112612e87578182fd5b50813567ffffffffffffffff811115612e9e578182fd5b602083019150836020828501011115612e5057600080fd5b600082601f830112612ec6578081fd5b8151612ed4612da582613a82565b818152846020838601011115612ee8578283fd5b612d1e826020830160208701613b7a565b80516dffffffffffffffffffffffffffff81168114612dfd57600080fd5b600060208284031215612f28578081fd5b815161267181613c08565b600080600060608486031215612f47578182fd5b8351612f5281613c08565b602085015190935067ffffffffffffffff80821115612f6f578384fd5b908501906101008288031215612f83578384fd5b612f8b6139c3565b612f9483612e02565b8152612fa260208401612e02565b6020820152612fb360408401612e02565b6040820152612fc460608401612e02565b60608201526080830151608082015260a083015160a082015260c083015160c082015260e083015182811115612ff8578586fd5b61300489828601612eb6565b60e0830152506040870151909450915080821115613020578283fd5b5061302d86828701612eb6565b9150509250925092565b60008060008060008060008060006101008a8c031215613055578687fd5b893561306081613c08565b985060208a013561307081613c08565b975060408a013561308081613c08565b965060608a0135955060808a013561309781613c08565b945060a08a01356130a781613c08565b935060c08a0135925060e08a013567ffffffffffffffff8111156130c9578283fd5b6130d58c828d01612e0d565b915080935050809150509295985092959850929598565b6000806000806000806000806000806101008b8d03121561310b578384fd5b8a3561311681613c08565b995060208b013561312681613c08565b985060408b0135975060608b0135965060808b013561314481613c08565b955060a08b0135945060c08b013567ffffffffffffffff80821115613167578586fd5b6131738e838f01612e76565b909650945060e08d013591508082111561318b578283fd5b506131988d828e01612e0d565b915080935050809150509295989b9194979a5092959850565b600080600080600080600080600060e08a8c0312156131ce578283fd5b89356131d981613c08565b985060208a01356131e981613c08565b975060408a0135965060608a0135955060808a0135945060a08a013567ffffffffffffffff8082111561321a578485fd5b6132268d838e01612e76565b909650945060c08c013591508082111561323e578384fd5b506130d58c828d01612e0d565b60008060008060008060a08789031215613263578384fd5b863561326e81613c08565b955060208701359450604087013561328581613c08565b9350606087013561329581613c08565b9250608087013567ffffffffffffffff8111156132b0578283fd5b6132bc89828a01612e76565b979a9699509497509295939492505050565b600080600080600060a086880312156132e5578283fd5b85356132f081613c08565b945060208601359350604086013561330781613c08565b9250606086013561331781613c08565b949793965091946080013592915050565b6000806000806080858703121561333d578182fd5b843561334881613c08565b935060208501359250604085013561335f81613c08565b9396929550929360600135925050565b60008060008060008060a08789031215613387578384fd5b863561339281613c08565b95506020870135945060408701356133a981613c08565b935060608701359250608087013567ffffffffffffffff8111156132b0578283fd5b600080600080606085870312156133e0578182fd5b84356133eb81613c08565b935060208501359250604085013567ffffffffffffffff81111561340d578283fd5b61341987828801612e76565b95989497509550505050565b600060208284031215613436578081fd5b815161267181613c2a565b60008060008060808587031215613456578182fd5b843561346181613c2a565b9350602085013560ff81168114613476578283fd5b93969395505050506040820135916060013590565b60006020828403121561349c578081fd5b813567ffffffffffffffff808211156134b3578283fd5b9083019060c082860312156134c6578283fd5b6134ce6139ed565b82356134d981613c08565b815260208301356134e981613c08565b60208201526134fa60408401612df2565b604082015261350b60608401612df2565b60608201526080830135608082015260a08301358281111561352b578485fd5b61353787828601612e57565b60a08301525095945050505050565b600060208284031215613557578081fd5b813567ffffffffffffffff8082111561356e578283fd5b9083019060e08286031215613581578283fd5b613589613a10565b61359283612df2565b81526135a060208401612df2565b60208201526135b160408401612df2565b60408201526135c260608401612df2565b60608201526080830135608082015260a083013560a082015260c0830135828111156135ec578485fd5b6135f887828601612e57565b60c08301525095945050505050565b60008060006060848603121561361b578081fd5b61362484612ef9565b925061363260208501612ef9565b9150604084015163ffffffff8116811461364a578182fd5b809150509250925092565b600060208284031215613666578081fd5b5051919050565b6000806040838503121561367f578182fd5b505080516020909101519092909150565b6000806000606084860312156136a4578081fd5b8351925060208401519150604084015190509250925092565b600082825180855260208086019550808260051b840101818601855b848110156127a6577fffffffffffffffffffffffffffffffffffffffffffffffffffffffffffffffe0868403018952613713838351613725565b988401989250908301906001016136d9565b6000815180845261373d816020860160208601613b7a565b601f017fffffffffffffffffffffffffffffffffffffffffffffffffffffffffffffffe0169290920160200192915050565b600073ffffffffffffffffffffffffffffffffffffffff80871683528086166020840152508360408301526080606083015261243c6080830184613725565b73ffffffffffffffffffffffffffffffffffffffff841681528260208201526060604082015260006118366060830184613725565b6020815260006126716020830184613725565b600073ffffffffffffffffffffffffffffffffffffffff80861683526060602084015280855116606084015250602084015161384a608084018273ffffffffffffffffffffffffffffffffffffffff169052565b50604084015173ffffffffffffffffffffffffffffffffffffffff811660a084015250606084015173ffffffffffffffffffffffffffffffffffffffff811660c084015250608084015160e083015260a0840151610100818185015260c086015161012085015260e0860151915080610140850152506138ce610160840182613725565b9050828103604084015261243c8185613725565b60208152600073ffffffffffffffffffffffffffffffffffffffff80845116602084015280602085015116604084015280604085015116606084015280606085015116608084015250608083015160a083015260a083015160c080840152612d1e60e08401826136bd565b60208152600073ffffffffffffffffffffffffffffffffffffffff80845116602084015280602085015116604084015280604085015116606084015280606085015116608084015250608083015160a083015260a083015160c083015260c083015160e080840152612d1e6101008401826136bd565b604051610100810167ffffffffffffffff811182821017156139e7576139e7613bd9565b60405290565b60405160c0810167ffffffffffffffff811182821017156139e7576139e7613bd9565b60405160e0810167ffffffffffffffff811182821017156139e7576139e7613bd9565b604051601f82017fffffffffffffffffffffffffffffffffffffffffffffffffffffffffffffffe016810167ffffffffffffffff81118282101715613a7a57613a7a613bd9565b604052919050565b600067ffffffffffffffff821115613a9c57613a9c613bd9565b50601f017fffffffffffffffffffffffffffffffffffffffffffffffffffffffffffffffe01660200190565b60008219821115613adb57613adb613baa565b500190565b600082613b14577f4e487b710000000000000000000000000000000000000000000000000000000081526012600452602481fd5b500490565b6000817fffffffffffffffffffffffffffffffffffffffffffffffffffffffffffffffff0483118215151615613b5157613b51613baa565b500290565b600082821015613b6857613b68613baa565b500390565b6000612671368484612d26565b60005b83811015613b95578181015183820152602001613b7d565b83811115613ba4576000848401525b50505050565b7f4e487b7100000000000000000000000000000000000000000000000000000000600052601160045260246000fd5b7f4e487b7100000000000000000000000000000000000000000000000000000000600052604160045260246000fd5b73ffffffffffffffffffffffffffffffffffffffff8116811461126157600080fd5b801515811461126157600080fdfea2646970667358221220fd95b811060ed49099ad9441dcc567de96b096e0801a3e8904b6dfda2a84565964736f6c63430008040033",
  "linkReferences": {},
  "deployedLinkReferences": {}
}