{
  "_format": "hh-sol-artifact-1",
  "contractName": "CygnusAltairX",
  "sourceName": "contracts/cygnus-periphery/CygnusAltairX.sol",
  "abi": [
    {
      "inputs": [
        {
          "internalType": "contract IHangar18",
          "name": "_hangar18",
          "type": "address"
        },
        {
          "internalType": "uint256",
          "name": "_orbiterId",
          "type": "uint256"
        }
      ],
      "stateMutability": "nonpayable",
      "type": "constructor"
    },
    {
      "inputs": [],
      "name": "CygnusAltairY__OrbitersNotActive",
      "type": "error"
    },
    {
      "inputs": [],
      "name": "CygnusAltair__InsufficientLPTokenAmount",
      "type": "error"
    },
    {
      "inputs": [],
      "name": "CygnusAltair__InsufficientLiquidateUsd",
      "type": "error"
    },
    {
      "inputs": [],
      "name": "CygnusAltair__InsufficientUSDAmount",
      "type": "error"
    },
    {
      "inputs": [
        {
          "internalType": "address",
          "name": "redeemer",
          "type": "address"
        },
        {
          "internalType": "uint256",
          "name": "redeemTokens",
          "type": "uint256"
        }
      ],
      "name": "CygnusAltair__InvalidRedeemAmount",
      "type": "error"
    },
    {
      "inputs": [
        {
          "internalType": "address",
          "name": "sender",
          "type": "address"
        },
        {
          "internalType": "address",
          "name": "admin",
          "type": "address"
        }
      ],
      "name": "CygnusAltair__MsgSenderNotAdmin",
      "type": "error"
    },
    {
      "inputs": [
        {
          "internalType": "address",
          "name": "sender",
          "type": "address"
        },
        {
          "internalType": "address",
          "name": "borrowable",
          "type": "address"
        }
      ],
      "name": "CygnusAltair__MsgSenderNotBorrowable",
      "type": "error"
    },
    {
      "inputs": [
        {
          "internalType": "address",
          "name": "sender",
          "type": "address"
        },
        {
          "internalType": "address",
          "name": "collateral",
          "type": "address"
        }
      ],
      "name": "CygnusAltair__MsgSenderNotCollateral",
      "type": "error"
    },
    {
      "inputs": [
        {
          "internalType": "address",
          "name": "sender",
          "type": "address"
        },
        {
          "internalType": "address",
          "name": "origin",
          "type": "address"
        }
      ],
      "name": "CygnusAltair__MsgSenderNotRouter",
      "type": "error"
    },
    {
      "inputs": [
        {
          "internalType": "address",
          "name": "poolToken",
          "type": "address"
        }
      ],
      "name": "CygnusAltair__NotNativeTokenSender",
      "type": "error"
    },
    {
      "inputs": [],
      "name": "CygnusAltair__ParaswapTransactionFailed",
      "type": "error"
    },
    {
      "inputs": [
        {
          "internalType": "uint256",
          "name": "deadline",
          "type": "uint256"
        }
      ],
      "name": "CygnusAltair__TransactionExpired",
      "type": "error"
    },
    {
      "inputs": [],
      "name": "DEX_ROUTER",
      "outputs": [
        {
          "internalType": "contract IDexRouter",
          "name": "",
          "type": "address"
        }
      ],
      "stateMutability": "view",
      "type": "function"
    },
    {
      "inputs": [],
      "name": "ONE_INCH_ROUTER_V5",
      "outputs": [
        {
          "internalType": "address",
          "name": "",
          "type": "address"
        }
      ],
      "stateMutability": "view",
      "type": "function"
    },
    {
      "inputs": [],
      "name": "PARASWAP_AUGUSTUS_SWAPPER_V5",
      "outputs": [
        {
          "internalType": "address",
          "name": "",
          "type": "address"
        }
      ],
      "stateMutability": "view",
      "type": "function"
    },
    {
      "inputs": [],
      "name": "PERMIT2",
      "outputs": [
        {
          "internalType": "address",
          "name": "",
          "type": "address"
        }
      ],
      "stateMutability": "view",
      "type": "function"
    },
    {
      "inputs": [],
      "name": "albireo",
      "outputs": [
        {
          "internalType": "contract IAlbireoOrbiter",
          "name": "",
          "type": "address"
        }
      ],
      "stateMutability": "view",
      "type": "function"
    },
    {
      "inputs": [
        {
          "internalType": "address",
          "name": "sender",
          "type": "address"
        },
        {
          "internalType": "uint256",
          "name": "borrowAmount",
          "type": "uint256"
        },
        {
          "internalType": "bytes",
          "name": "data",
          "type": "bytes"
        }
      ],
      "name": "altairBorrow_O9E",
      "outputs": [],
      "stateMutability": "nonpayable",
      "type": "function"
    },
    {
      "inputs": [
        {
          "internalType": "address",
          "name": "sender",
          "type": "address"
        },
        {
          "internalType": "uint256",
          "name": "cygLPAmount",
          "type": "uint256"
        },
        {
          "internalType": "uint256",
          "name": "repayAmount",
          "type": "uint256"
        },
        {
          "internalType": "bytes",
          "name": "data",
          "type": "bytes"
        }
      ],
      "name": "altairLiquidate_f2x",
      "outputs": [],
      "stateMutability": "nonpayable",
      "type": "function"
    },
    {
      "inputs": [
        {
          "internalType": "address",
          "name": "sender",
          "type": "address"
        },
        {
          "internalType": "uint256",
          "name": "redeemAmount",
          "type": "uint256"
        },
        {
          "internalType": "bytes",
          "name": "data",
          "type": "bytes"
        }
      ],
      "name": "altairRedeem_u91A",
      "outputs": [],
      "stateMutability": "nonpayable",
      "type": "function"
    },
    {
      "inputs": [
        {
          "internalType": "address",
          "name": "borrowable",
          "type": "address"
        },
        {
          "internalType": "uint256",
          "name": "amount",
          "type": "uint256"
        },
        {
          "internalType": "address",
          "name": "recipient",
          "type": "address"
        },
        {
          "internalType": "uint256",
          "name": "deadline",
          "type": "uint256"
        },
        {
          "internalType": "bytes",
          "name": "permitData",
          "type": "bytes"
        }
      ],
      "name": "borrow",
      "outputs": [],
      "stateMutability": "nonpayable",
      "type": "function"
    },
    {
      "inputs": [
        {
          "internalType": "address",
          "name": "lpTokenPair",
          "type": "address"
        },
        {
          "internalType": "address",
          "name": "collateral",
          "type": "address"
        },
        {
          "internalType": "address",
          "name": "borrowable",
          "type": "address"
        },
        {
          "internalType": "uint256",
          "name": "cygLPAmount",
          "type": "uint256"
        },
        {
          "internalType": "uint256",
          "name": "usdAmountMin",
          "type": "uint256"
        },
        {
          "internalType": "uint256",
          "name": "deadline",
          "type": "uint256"
        },
        {
          "internalType": "bytes",
          "name": "permitData",
          "type": "bytes"
        },
        {
          "internalType": "enum ICygnusAltair.DexAggregator",
          "name": "dexAggregator",
          "type": "uint8"
        },
        {
          "internalType": "bytes[]",
          "name": "swapData",
          "type": "bytes[]"
        }
      ],
      "name": "deleverage",
      "outputs": [],
      "stateMutability": "nonpayable",
      "type": "function"
    },
    {
      "inputs": [],
      "name": "deneb",
      "outputs": [
        {
          "internalType": "contract IDenebOrbiter",
          "name": "",
          "type": "address"
        }
      ],
      "stateMutability": "view",
      "type": "function"
    },
    {
      "inputs": [],
      "name": "emptyPermit",
      "outputs": [
        {
          "components": [
            {
              "internalType": "address",
              "name": "token",
              "type": "address"
            },
            {
              "internalType": "uint160",
              "name": "amount",
              "type": "uint160"
            },
            {
              "internalType": "uint48",
              "name": "expiration",
              "type": "uint48"
            },
            {
              "internalType": "uint48",
              "name": "nonce",
              "type": "uint48"
            }
          ],
          "internalType": "struct IAllowanceTransfer.PermitDetails",
          "name": "details",
          "type": "tuple"
        },
        {
          "internalType": "address",
          "name": "spender",
          "type": "address"
        },
        {
          "internalType": "uint256",
          "name": "sigDeadline",
          "type": "uint256"
        }
      ],
      "stateMutability": "view",
      "type": "function"
    },
    {
      "inputs": [
        {
          "internalType": "address",
          "name": "borrowable",
          "type": "address"
        },
        {
          "internalType": "address",
          "name": "collateral",
          "type": "address"
        },
        {
          "internalType": "uint256",
          "name": "amountMax",
          "type": "uint256"
        },
        {
          "internalType": "address",
          "name": "borrower",
          "type": "address"
        },
        {
          "internalType": "address",
          "name": "recipient",
          "type": "address"
        },
        {
          "internalType": "uint256",
          "name": "deadline",
          "type": "uint256"
        },
        {
          "internalType": "enum ICygnusAltair.DexAggregator",
          "name": "dexAggregator",
          "type": "uint8"
        },
        {
          "internalType": "bytes[]",
          "name": "swapData",
          "type": "bytes[]"
        }
      ],
      "name": "flashLiquidate",
      "outputs": [
        {
          "internalType": "uint256",
          "name": "amount",
          "type": "uint256"
        }
      ],
      "stateMutability": "nonpayable",
      "type": "function"
    },
    {
      "inputs": [
        {
          "internalType": "address",
          "name": "underlying",
          "type": "address"
        },
        {
          "internalType": "uint256",
          "name": "shares",
          "type": "uint256"
        }
      ],
      "name": "getAssetsForShares",
      "outputs": [
        {
          "internalType": "address[]",
          "name": "tokens",
          "type": "address[]"
        },
        {
          "internalType": "uint256[]",
          "name": "amounts",
          "type": "uint256[]"
        }
      ],
      "stateMutability": "view",
      "type": "function"
    },
    {
      "inputs": [],
      "name": "hangar18",
      "outputs": [
        {
          "internalType": "contract IHangar18",
          "name": "",
          "type": "address"
        }
      ],
      "stateMutability": "view",
      "type": "function"
    },
    {
      "inputs": [
        {
          "internalType": "address",
          "name": "lpTokenPair",
          "type": "address"
        },
        {
          "internalType": "address",
          "name": "collateral",
          "type": "address"
        },
        {
          "internalType": "address",
          "name": "borrowable",
          "type": "address"
        },
        {
          "internalType": "uint256",
          "name": "usdAmount",
          "type": "uint256"
        },
        {
          "internalType": "uint256",
          "name": "lpAmountMin",
          "type": "uint256"
        },
        {
          "internalType": "uint256",
          "name": "deadline",
          "type": "uint256"
        },
        {
          "internalType": "bytes",
          "name": "permitData",
          "type": "bytes"
        },
        {
          "internalType": "enum ICygnusAltair.DexAggregator",
          "name": "dexAggregator",
          "type": "uint8"
        },
        {
          "internalType": "bytes[]",
          "name": "swapData",
          "type": "bytes[]"
        }
      ],
      "name": "leverage",
      "outputs": [],
      "stateMutability": "nonpayable",
      "type": "function"
    },
    {
      "inputs": [
        {
          "internalType": "address",
          "name": "borrowable",
          "type": "address"
        },
        {
          "internalType": "uint256",
          "name": "amountMax",
          "type": "uint256"
        },
        {
          "internalType": "address",
          "name": "borrower",
          "type": "address"
        },
        {
          "internalType": "address",
          "name": "recipient",
          "type": "address"
        },
        {
          "internalType": "uint256",
          "name": "deadline",
          "type": "uint256"
        }
      ],
      "name": "liquidate",
      "outputs": [
        {
          "internalType": "uint256",
          "name": "amount",
          "type": "uint256"
        },
        {
          "internalType": "uint256",
          "name": "seizeTokens",
          "type": "uint256"
        }
      ],
      "stateMutability": "nonpayable",
      "type": "function"
    },
    {
      "inputs": [
        {
          "internalType": "address",
          "name": "borrowable",
          "type": "address"
        },
        {
          "internalType": "uint256",
          "name": "amountMax",
          "type": "uint256"
        },
        {
          "internalType": "address",
          "name": "borrower",
          "type": "address"
        },
        {
          "internalType": "address",
          "name": "recipient",
          "type": "address"
        },
        {
          "internalType": "uint256",
          "name": "deadline",
          "type": "uint256"
        },
        {
          "components": [
            {
              "components": [
                {
                  "internalType": "address",
                  "name": "token",
                  "type": "address"
                },
                {
                  "internalType": "uint160",
                  "name": "amount",
                  "type": "uint160"
                },
                {
                  "internalType": "uint48",
                  "name": "expiration",
                  "type": "uint48"
                },
                {
                  "internalType": "uint48",
                  "name": "nonce",
                  "type": "uint48"
                }
              ],
              "internalType": "struct IAllowanceTransfer.PermitDetails",
              "name": "details",
              "type": "tuple"
            },
            {
              "internalType": "address",
              "name": "spender",
              "type": "address"
            },
            {
              "internalType": "uint256",
              "name": "sigDeadline",
              "type": "uint256"
            }
          ],
          "internalType": "struct IAllowanceTransfer.PermitSingle",
          "name": "_permit",
          "type": "tuple"
        },
        {
          "internalType": "bytes",
          "name": "signature",
          "type": "bytes"
        }
      ],
      "name": "liquidatePermit2Allowance",
      "outputs": [
        {
          "internalType": "uint256",
          "name": "amount",
          "type": "uint256"
        },
        {
          "internalType": "uint256",
          "name": "seizeTokens",
          "type": "uint256"
        }
      ],
      "stateMutability": "nonpayable",
      "type": "function"
    },
    {
      "inputs": [
        {
          "internalType": "address",
          "name": "borrowable",
          "type": "address"
        },
        {
          "internalType": "uint256",
          "name": "amountMax",
          "type": "uint256"
        },
        {
          "internalType": "address",
          "name": "borrower",
          "type": "address"
        },
        {
          "internalType": "address",
          "name": "recipient",
          "type": "address"
        },
        {
          "internalType": "uint256",
          "name": "deadline",
          "type": "uint256"
        },
        {
          "components": [
            {
              "components": [
                {
                  "internalType": "address",
                  "name": "token",
                  "type": "address"
                },
                {
                  "internalType": "uint256",
                  "name": "amount",
                  "type": "uint256"
                }
              ],
              "internalType": "struct ISignatureTransfer.TokenPermissions",
              "name": "permitted",
              "type": "tuple"
            },
            {
              "internalType": "uint256",
              "name": "nonce",
              "type": "uint256"
            },
            {
              "internalType": "uint256",
              "name": "deadline",
              "type": "uint256"
            }
          ],
          "internalType": "struct ISignatureTransfer.PermitTransferFrom",
          "name": "_permit",
          "type": "tuple"
        },
        {
          "internalType": "bytes",
          "name": "signature",
          "type": "bytes"
        }
      ],
      "name": "liquidatePermit2Signature",
      "outputs": [
        {
          "internalType": "uint256",
          "name": "amount",
          "type": "uint256"
        },
        {
          "internalType": "uint256",
          "name": "seizeTokens",
          "type": "uint256"
        }
      ],
      "stateMutability": "nonpayable",
      "type": "function"
    },
    {
      "inputs": [],
      "name": "name",
      "outputs": [
        {
          "internalType": "string",
          "name": "",
          "type": "string"
        }
      ],
      "stateMutability": "view",
      "type": "function"
    },
    {
      "inputs": [],
      "name": "nativeToken",
      "outputs": [
        {
          "internalType": "address",
          "name": "",
          "type": "address"
        }
      ],
      "stateMutability": "view",
      "type": "function"
    },
    {
      "inputs": [],
      "name": "orbiterId",
      "outputs": [
        {
          "internalType": "uint256",
          "name": "",
          "type": "uint256"
        }
      ],
      "stateMutability": "view",
      "type": "function"
    },
    {
      "inputs": [
        {
          "internalType": "address",
          "name": "borrowable",
          "type": "address"
        },
        {
          "internalType": "uint256",
          "name": "amountMax",
          "type": "uint256"
        },
        {
          "internalType": "address",
          "name": "borrower",
          "type": "address"
        },
        {
          "internalType": "uint256",
          "name": "deadline",
          "type": "uint256"
        }
      ],
      "name": "repay",
      "outputs": [
        {
          "internalType": "uint256",
          "name": "amount",
          "type": "uint256"
        }
      ],
      "stateMutability": "nonpayable",
      "type": "function"
    },
    {
      "inputs": [
        {
          "internalType": "address",
          "name": "borrowable",
          "type": "address"
        },
        {
          "internalType": "uint256",
          "name": "amountMax",
          "type": "uint256"
        },
        {
          "internalType": "address",
          "name": "borrower",
          "type": "address"
        },
        {
          "internalType": "uint256",
          "name": "deadline",
          "type": "uint256"
        },
        {
          "components": [
            {
              "components": [
                {
                  "internalType": "address",
                  "name": "token",
                  "type": "address"
                },
                {
                  "internalType": "uint160",
                  "name": "amount",
                  "type": "uint160"
                },
                {
                  "internalType": "uint48",
                  "name": "expiration",
                  "type": "uint48"
                },
                {
                  "internalType": "uint48",
                  "name": "nonce",
                  "type": "uint48"
                }
              ],
              "internalType": "struct IAllowanceTransfer.PermitDetails",
              "name": "details",
              "type": "tuple"
            },
            {
              "internalType": "address",
              "name": "spender",
              "type": "address"
            },
            {
              "internalType": "uint256",
              "name": "sigDeadline",
              "type": "uint256"
            }
          ],
          "internalType": "struct IAllowanceTransfer.PermitSingle",
          "name": "_permit",
          "type": "tuple"
        },
        {
          "internalType": "bytes",
          "name": "signature",
          "type": "bytes"
        }
      ],
      "name": "repayPermit2Allowance",
      "outputs": [
        {
          "internalType": "uint256",
          "name": "amount",
          "type": "uint256"
        }
      ],
      "stateMutability": "nonpayable",
      "type": "function"
    },
    {
      "inputs": [
        {
          "internalType": "address",
          "name": "borrowable",
          "type": "address"
        },
        {
          "internalType": "uint256",
          "name": "amountMax",
          "type": "uint256"
        },
        {
          "internalType": "address",
          "name": "borrower",
          "type": "address"
        },
        {
          "internalType": "uint256",
          "name": "deadline",
          "type": "uint256"
        },
        {
          "components": [
            {
              "components": [
                {
                  "internalType": "address",
                  "name": "token",
                  "type": "address"
                },
                {
                  "internalType": "uint256",
                  "name": "amount",
                  "type": "uint256"
                }
              ],
              "internalType": "struct ISignatureTransfer.TokenPermissions",
              "name": "permitted",
              "type": "tuple"
            },
            {
              "internalType": "uint256",
              "name": "nonce",
              "type": "uint256"
            },
            {
              "internalType": "uint256",
              "name": "deadline",
              "type": "uint256"
            }
          ],
          "internalType": "struct ISignatureTransfer.PermitTransferFrom",
          "name": "_permit",
          "type": "tuple"
        },
        {
          "internalType": "bytes",
          "name": "signature",
          "type": "bytes"
        }
      ],
      "name": "repayPermit2Signature",
      "outputs": [
        {
          "internalType": "uint256",
          "name": "amount",
          "type": "uint256"
        }
      ],
      "stateMutability": "nonpayable",
      "type": "function"
    },
    {
      "inputs": [],
      "name": "usd",
      "outputs": [
        {
          "internalType": "address",
          "name": "",
          "type": "address"
        }
      ],
      "stateMutability": "view",
      "type": "function"
    },
    {
      "stateMutability": "payable",
      "type": "receive"
    }
  ],
  "bytecode": "0x610140604081815234620004b057808262004fd58038038091620000248285620004b5565b833981010312620004b05781516001600160a01b039290919083831690818403620004b05760208091015193608052825191631c2eb17b60e31b835260049282818581855afa90811562000483576000916200048e575b5060c052835163d63a6ccd60e01b815282818581855afa9081156200048357916000916024949383916200044f575b5060a052855193848092632815a89760e11b825289888301525afa91821562000444576000908190829883956200033f575b505061010097885260e052156200032f576200013560318551809470021bcb3b73ab996a0b63a30b4b916ac1d1607d1b858301526200012481518092878686019101620004ef565b8101036011810185520183620004b5565b8151916001600160401b0383116200031a576000546001948582811c921680156200030f575b84831014620002fa5750601f8111620002ac575b5081601f841160011462000240575092829391839260009462000234575b50501b916000199060031b1c1916176000555b6101209182525190614a9f92836200053684396080518361193a015260a0518381816107fe01528181610a7e01528181610bdf015281816113020152818161265601528181613253015281816133b301528181613e5701526143d1015260c0518381816116b20152818161200c01528181613f1301526145e0015260e0518361118d0152518261091701525181610d170152f35b0151925038806200018d565b919083601f1981166000805284600020946000905b8883831062000291575050501062000277575b505050811b01600055620001a0565b015160001960f88460031b161c1916905538808062000268565b85870151885590960195948501948793509081019062000255565b6000805282600020601f850160051c810191848610620002ef575b601f0160051c019085905b828110620002e25750506200016f565b60008155018590620002d2565b9091508190620002c7565b602290634e487b7160e01b6000525260246000fd5b91607f16916200015b565b604184634e487b7160e01b6000525260246000fd5b835163cb18368160e01b81528390fd5b94509750503d8082893e620003558189620004b5565b87019661012081890312620004405780519081151582036200043c57808401516001600160581b038116036200043c578681015192858416840362000426576060820151958087168703620004405760c08301519081160362000426576101008201516001600160401b03928382116200043c5701908a601f8301121562000426578151928311620004295788519a620003f9601f8501601f191688018d620004b5565b838c52868484010111620004265750906200041a9185808c019101620004ef565b909296923880620000dc565b80fd5b634e487b7160e01b815260418852602490fd5b8280fd5b5080fd5b84513d6000823e3d90fd5b620004749150843d86116200047b575b6200046b8183620004b5565b81019062000514565b38620000aa565b503d6200045f565b85513d6000823e3d90fd5b620004a99150833d85116200047b576200046b8183620004b5565b386200007b565b600080fd5b601f909101601f19168101906001600160401b03821190821017620004d957604052565b634e487b7160e01b600052604160045260246000fd5b60005b838110620005035750506000910152565b8181015183820152602001620004f2565b90816020910312620004b057516001600160a01b0381168103620004b0579056fe60806040526004361015610023575b361561001957600080fd5b610021611ff5565b005b60003560e01c806306fdde031461022b5780630e12d008146102225780630f22d435146102195780631907cd7d1461021057806321a5e908146102075780635c1e6404146101fe5780636aee7c1e146101f55780636afdd850146101ec578063729f6cfe146101e35780637af11ac0146101da57806388a799f6146101d15780638f53d74f146101c8578063989bebcf146101bf5780639bbf470d146101b6578063bdcb9932146101ad578063c2a95ddf146101a4578063d63a6ccd1461019b578063d6906d2314610192578063dbe5f2fb14610189578063e1758bd814610180578063e75ee2e314610177578063e8a24e1d1461016e578063e95471c714610165578063ebb0d6161461015c578063fd62695b146101535763fee0bdc40361000e5761014e611f09565b61000e565b5061014e611e45565b5061014e611bd6565b5061014e61195e565b5061014e6118ee565b5061014e6116d6565b5061014e611666565b5061014e611544565b5061014e6113f4565b5061014e6112b6565b5061014e6111ff565b5061014e6111b1565b5061014e611141565b5061014e610f9b565b5061014e610e15565b5061014e610d88565b5061014e610d3a565b5061014e610ce0565b5061014e610c97565b5061014e610b60565b5061014e610a04565b5061014e61093b565b5061014e6108cb565b5061014e6106fa565b5061014e6104ec565b5061014e61033c565b600091031261023f57565b600080fd5b507f4e487b7100000000000000000000000000000000000000000000000000000000600052604160045260246000fd5b90601f7fffffffffffffffffffffffffffffffffffffffffffffffffffffffffffffffe0910116810190811067ffffffffffffffff8211176102b557604052565b6102bd610244565b604052565b60005b8381106102d55750506000910152565b81810151838201526020016102c5565b907fffffffffffffffffffffffffffffffffffffffffffffffffffffffffffffffe0601f602093610321815180928187528780880191016102c2565b0116010190565b9060206103399281815201906102e5565b90565b503461023f576000807ffffffffffffffffffffffffffffffffffffffffffffffffffffffffffffffffc36011261048257604051908080549060019180831c92808216928315610478575b602092838610851461044b57858852602088019490811561040c57506001146103cb575b6103c7876103bb81890382610274565b60405191829182610328565b0390f35b94506103df85949394600052602060002090565b8386106103fb57505050910190506103bb826103c738806103ab565b8054858701529482019481016103df565b7fffffffffffffffffffffffffffffffffffffffffffffffffffffffffffffff001685525050505090151560051b0190506103bb826103c738806103ab565b6024827f4e487b710000000000000000000000000000000000000000000000000000000081526022600452fd5b93607f1693610387565b80fd5b73ffffffffffffffffffffffffffffffffffffffff81160361023f57565b35906104ae82610485565b565b9081608091031261023f5790565b9181601f8401121561023f5782359167ffffffffffffffff831161023f576020838186019501011161023f57565b503461023f576101207ffffffffffffffffffffffffffffffffffffffffffffffffffffffffffffffffc36011261023f5760043561052981610485565b6044359061053682610485565b6105413660846104b0565b906101043567ffffffffffffffff811161023f576105639036906004016104be565b909161057060643561217c565b61057d8560243583612318565b936105886040611efb565b73ffffffffffffffffffffffffffffffffffffffff83168152908560208301526e22d473030f116ddee9f6b43ac78ba393843b1561023f5773ffffffffffffffffffffffffffffffffffffffff94610618916040519485809481937f30f28b7a00000000000000000000000000000000000000000000000000000000835260009b8c988995339160048701612545565b03925af180156106df575b6106cb575b501692610634826120e4565b90843b156106c757826103c7958180809461067e604051978896879586947f1e7dcc0d00000000000000000000000000000000000000000000000000000000865260048601612133565b03925af180156106ba575b6106a0575b50506040519081529081906020820190565b6106ad6106b39282610274565b80610234565b388061068e565b6106c261216f565b610689565b8280fd5b806106ad856106d993610274565b38610628565b6106e761216f565b610623565b908160c091031261023f5790565b503461023f576101607ffffffffffffffffffffffffffffffffffffffffffffffffffffffffffffffffc36011261023f5760043561073781610485565b6044359061074482610485565b61074f3660846106ec565b906101443567ffffffffffffffff811161023f576107719036906004016104be565b9261077d60643561217c565b61078a8560243585612318565b938061083c575b5050506e22d473030f116ddee9f6b43ac78ba3803b1561023f576040517f36c7851600000000000000000000000000000000000000000000000000000000815233600482015273ffffffffffffffffffffffffffffffffffffffff808416602483015284811660448301527f00000000000000000000000000000000000000000000000000000000000000008116606483015260009390929091908490829081838160848101610618565b6e22d473030f116ddee9f6b43ac78ba3803b1561023f576108929360008094604051968795869485937f2b67b570000000000000000000000000000000000000000000000000000000008552336004860161249f565b03925af180156108be575b6108a9575b8080610791565b806106ad60006108b893610274565b386108a2565b6108c661216f565b61089d565b503461023f5760007ffffffffffffffffffffffffffffffffffffffffffffffffffffffffffffffffc36011261023f57602060405173ffffffffffffffffffffffffffffffffffffffff7f0000000000000000000000000000000000000000000000000000000000000000168152f35b503461023f576101407ffffffffffffffffffffffffffffffffffffffffffffffffffffffffffffffffc36011261023f5760043561097881610485565b60443561098481610485565b6064359061099182610485565b60807fffffffffffffffffffffffffffffffffffffffffffffffffffffffffffffff5c36011261023f576101243567ffffffffffffffff811161023f576109f2936109e260a49236906004016104be565b94909360843592602435906127d7565b60408051928352602083019190915290f35b503461023f5760a07ffffffffffffffffffffffffffffffffffffffffffffffffffffffffffffffffc36011261023f57600435610a4081610485565b60443590610a4d82610485565b6020606435610a5b81610485565b610a6660843561217c565b610a738460243585612318565b928391610aa28383337f00000000000000000000000000000000000000000000000000000000000000006149c1565b600073ffffffffffffffffffffffffffffffffffffffff610ac2826120e4565b97610afc604051998a97889687947f27ce385400000000000000000000000000000000000000000000000000000000865260048601612133565b0393165af1918215610b53575b600092610b23575b50604080519182526020820192909252f35b610b4591925060203d8111610b4c575b610b3d8183610274565b8101906125b6565b9038610b11565b503d610b33565b610b5b61216f565b610b09565b503461023f5760807ffffffffffffffffffffffffffffffffffffffffffffffffffffffffffffffffc36011261023f57600435610b9c81610485565b60443590610ba982610485565b610bb460643561217c565b73ffffffffffffffffffffffffffffffffffffffff610bd68360243584612318565b91610c038382337f00000000000000000000000000000000000000000000000000000000000000006149c1565b1691600092610c11846120e4565b91813b15610c93579380809281806103c798610c5c604051988996879586947f1e7dcc0d00000000000000000000000000000000000000000000000000000000865260048601612133565b03925af18015610c86575b610c7d5750506040519081529081906020820190565b6106b391610274565b610c8e61216f565b610c67565b8480fd5b503461023f5760007ffffffffffffffffffffffffffffffffffffffffffffffffffffffffffffffffc36011261023f5760206040516e22d473030f116ddee9f6b43ac78ba38152f35b503461023f5760007ffffffffffffffffffffffffffffffffffffffffffffffffffffffffffffffffc36011261023f5760206040517f00000000000000000000000000000000000000000000000000000000000000008152f35b503461023f5760007ffffffffffffffffffffffffffffffffffffffffffffffffffffffffffffffffc36011261023f576020604051739c12939390052919af3155f41bf4160fd3666a6f8152f35b503461023f5760007ffffffffffffffffffffffffffffffffffffffffffffffffffffffffffffffffc36011261023f57602060405173def171fe48cf0115b1d80b88dc8eab59176fee578152f35b9160608383031261023f578235610dec81610485565b92602081013592604082013567ffffffffffffffff811161023f57610e1192016104be565b9091565b503461023f57610e34610e29366004610dd6565b8194929401906139be565b73ffffffffffffffffffffffffffffffffffffffff92908284163014610ea1576040517fb61e0f2900000000000000000000000000000000000000000000000000000000815273ffffffffffffffffffffffffffffffffffffffff84166004820152326024820152604490fd5b909150610ec5604082015173ffffffffffffffffffffffffffffffffffffffff1690565b9283163303610f4e578051610021935073ffffffffffffffffffffffffffffffffffffffff1691610f0d606083015173ffffffffffffffffffffffffffffffffffffffff1690565b90610f2f602084015173ffffffffffffffffffffffffffffffffffffffff1690565b60808401519260c060a086015195610f4687612b16565b015195613b1c565b6040517faead146700000000000000000000000000000000000000000000000000000000815233600482015273ffffffffffffffffffffffffffffffffffffffff84166024820152604490fd5b503461023f57610fbb610faf366004610dd6565b9293928101915061424c565b9073ffffffffffffffffffffffffffffffffffffffff8082163014611027576040517fb61e0f2900000000000000000000000000000000000000000000000000000000815273ffffffffffffffffffffffffffffffffffffffff83166004820152326024820152604490fd5b905061104a602083015173ffffffffffffffffffffffffffffffffffffffff1690565b90811633036110f25761002182611075815173ffffffffffffffffffffffffffffffffffffffff1690565b90611097606082015173ffffffffffffffffffffffffffffffffffffffff1690565b602082015173ffffffffffffffffffffffffffffffffffffffff16604083015173ffffffffffffffffffffffffffffffffffffffff1660808401519160a08501519360e060c0870151966110ea88612b16565b0151966142f4565b6040517fe5ac816600000000000000000000000000000000000000000000000000000000815233600482015273ffffffffffffffffffffffffffffffffffffffff919091166024820152604490fd5b503461023f5760007ffffffffffffffffffffffffffffffffffffffffffffffffffffffffffffffffc36011261023f57602060405173ffffffffffffffffffffffffffffffffffffffff7f0000000000000000000000000000000000000000000000000000000000000000168152f35b503461023f5760007ffffffffffffffffffffffffffffffffffffffffffffffffffffffffffffffffc36011261023f576020604051731111111254eeb25477b68fb85ed929f73a9605828152f35b503461023f576101807ffffffffffffffffffffffffffffffffffffffffffffffffffffffffffffffffc36011261023f5760043561123c81610485565b60443561124881610485565b6064359061125582610485565b60c07fffffffffffffffffffffffffffffffffffffffffffffffffffffffffffffff5c36011261023f576101643567ffffffffffffffff811161023f576109f2936112a660a49236906004016104be565b94909360843592602435906125c5565b503461023f5760007ffffffffffffffffffffffffffffffffffffffffffffffffffffffffffffffffc36011261023f57602060405173ffffffffffffffffffffffffffffffffffffffff7f0000000000000000000000000000000000000000000000000000000000000000168152f35b3590600282101561023f57565b9181601f8401121561023f5782359167ffffffffffffffff831161023f576020808501948460051b01011161023f57565b916101208383031261023f57823561137b81610485565b92602081013561138a81610485565b92611397604083016104a3565b9260608301359260808101359260a08201359267ffffffffffffffff9060c084013582811161023f57836113cc9186016104be565b949094936113dc60e08301611326565b9361010083013590811161023f57610e119201611333565b503461023f5761148a61143d6114a56114d1611435611491611417366004611364565b98959f979492969e9390999b919661142e8461217c565b36916120ad565b908d846121c4565b6040519761144c60e08a610274565b73ffffffffffffffffffffffffffffffffffffffff92838092168a5216602089015216998a6040880152336060880152608087015260a08601612b4f565b3691612b82565b60c082015260405192839160208301612d2d565b037fffffffffffffffffffffffffffffffffffffffffffffffffffffffffffffffe08101835282610274565b823b1561023f5761151792600092836040518096819582947f1e7dcc0d000000000000000000000000000000000000000000000000000000008452303360048601612133565b03925af18015611537575b61152857005b806106ad600061002193610274565b61153f61216f565b611522565b503461023f57600060a07ffffffffffffffffffffffffffffffffffffffffffffffffffffffffffffffffc3601126104825760043561158281610485565b81602435916044359061159482610485565b6064359060843567ffffffffffffffff8111610c935773ffffffffffffffffffffffffffffffffffffffff926115dd6115d46115e59336906004016104be565b61142e8461217c565b9087846121c4565b166115ef836120e4565b90803b156116625761163594848094604051978895869485937f1e7dcc0d0000000000000000000000000000000000000000000000000000000085523360048601612133565b03925af18015611655575b6116475780f35b61165091610274565b388180f35b61165d61216f565b611640565b8380fd5b503461023f5760007ffffffffffffffffffffffffffffffffffffffffffffffffffffffffffffffffc36011261023f57602060405173ffffffffffffffffffffffffffffffffffffffff7f0000000000000000000000000000000000000000000000000000000000000000168152f35b503461023f576116e7366004611364565b91999894909597969389936116fb8361217c565b3690611706926120ad565b6117119185876121c4565b73ffffffffffffffffffffffffffffffffffffffff841694604051917f3ba0b9a90000000000000000000000000000000000000000000000000000000083526000809b819a82868b815a93600492602095f19788156118249c6117da6117926118509c6118109b61148a996117f7966118e1575b916118c3575b508561489e565b9c6117bd6117a1610100611efb565b73ffffffffffffffffffffffffffffffffffffffff909d168d52565b73ffffffffffffffffffffffffffffffffffffffff1660208c0152565b73ffffffffffffffffffffffffffffffffffffffff1660408a0152565b336060890152608088015260a087015260c08601612b4f565b60e082015260405194859160208301612da6565b037fffffffffffffffffffffffffffffffffffffffffffffffffffffffffffffffe08101855284610274565b813b15611662578361189295604051968795869485937ffa14fdc200000000000000000000000000000000000000000000000000000000855260048501612e48565b03925af180156118b6575b6118a5575080f35b806106ad836118b393610274565b80f35b6118be61216f565b61189d565b6118db915060203d8111610b4c57610b3d8183610274565b3861178b565b6118e961216f565b611785565b503461023f5760007ffffffffffffffffffffffffffffffffffffffffffffffffffffffffffffffffc36011261023f57602060405173ffffffffffffffffffffffffffffffffffffffff7f0000000000000000000000000000000000000000000000000000000000000000168152f35b503461023f5760807ffffffffffffffffffffffffffffffffffffffffffffffffffffffffffffffffc36011261023f5760043561199a81610485565b60643567ffffffffffffffff811161023f576119bd6119c59136906004016104be565b810190612fc6565b9073ffffffffffffffffffffffffffffffffffffffff8082163014611a31576040517fb61e0f2900000000000000000000000000000000000000000000000000000000815273ffffffffffffffffffffffffffffffffffffffff83166004820152326024820152604490fd5b9050611a54604083015173ffffffffffffffffffffffffffffffffffffffff1690565b9081163303611aff5761002182611a7f815173ffffffffffffffffffffffffffffffffffffffff1690565b90611aa1602082015173ffffffffffffffffffffffffffffffffffffffff1690565b604082015173ffffffffffffffffffffffffffffffffffffffff1692611ade606084015173ffffffffffffffffffffffffffffffffffffffff1690565b60e060c085015194611aef86612b16565b01519460443593602435936130c9565b6040517faead146700000000000000000000000000000000000000000000000000000000815233600482015273ffffffffffffffffffffffffffffffffffffffff919091166024820152604490fd5b6040810190604081528251809252606081019160208094019060005b818110611bac575050508281830391015281808451928381520193019160005b828110611b98575050505090565b835185529381019392810192600101611b8a565b825173ffffffffffffffffffffffffffffffffffffffff1685529385019391850191600101611b6a565b503461023f5760407ffffffffffffffffffffffffffffffffffffffffffffffffffffffffffffffffc36011261023f57600435611c1281610485565b73ffffffffffffffffffffffffffffffffffffffff6024359116906040517f18160ddd000000000000000000000000000000000000000000000000000000008152602081600481865afa908115611e38575b600091611e1a575b50604051907f0902f1ac000000000000000000000000000000000000000000000000000000008252606082600481875afa918215611e0d575b6000908193611dd9575b5092611d769293611cc06002612ecb565b94611d47600460e0611cd26002612ecb565b99604051928380927f392f37e90000000000000000000000000000000000000000000000000000000082525afa908115611dcc575b6000908192611d91575b50611d3c90611d2160008b612f89565b9073ffffffffffffffffffffffffffffffffffffffff169052565b611d21600189612f89565b611d63846dffffffffffffffffffffffffffff809416856148e7565b611d6e600089612f89565b5216906148e7565b611d81600184612f89565b526103c760405192839283611b4e565b611d3c9250611db7915060e03d8111611dc5575b611daf8183610274565b810190612f10565b969550935050505090611d11565b503d611da5565b611dd461216f565b611d07565b611d769350611dff915060603d8111611e06575b611df78183610274565b810190612e95565b5092611caf565b503d611ded565b611e1561216f565b611ca5565b611e32915060203d8111610b4c57610b3d8183610274565b38611c6c565b611e4061216f565b611c64565b503461023f576101007ffffffffffffffffffffffffffffffffffffffffffffffffffffffffffffffffc36011261023f57600435611e8281610485565b602435611e8e81610485565b606435611e9a81610485565b60843592611ea784610485565b60c435600281101561023f5760e4359367ffffffffffffffff851161023f576103c795611edb611eeb963690600401611333565b95909460a43593604435916128ce565b6040519081529081906020820190565b906104ae6040519283610274565b503461023f5760007ffffffffffffffffffffffffffffffffffffffffffffffffffffffffffffffffc36011261023f57604051611f47608082610274565b73ffffffffffffffffffffffffffffffffffffffff80600154168252600254818116602084015265ffffffffffff8160a01c16604084015260d01c606083015260035416906103c76004546040519384938460a0919493929460c082019573ffffffffffffffffffffffffffffffffffffffff91828151168452826020820151166020850152606065ffffffffffff9182604082015116604087015201511660608401521660808201520152565b73ffffffffffffffffffffffffffffffffffffffff7f000000000000000000000000000000000000000000000000000000000000000016330361203457565b60246040517fb5856416000000000000000000000000000000000000000000000000000000008152336004820152fd5b7fffffffffffffffffffffffffffffffffffffffffffffffffffffffffffffffe0601f60209267ffffffffffffffff81116120a0575b01160190565b6120a8610244565b61209a565b9291926120b982612064565b916120c76040519384610274565b82948184528183011161023f578281602093846000960137010152565b906120ee82612064565b6120fb6040519182610274565b8281527fffffffffffffffffffffffffffffffffffffffffffffffffffffffffffffffe06121298294612064565b0190602036910137565b9092610339949360809373ffffffffffffffffffffffffffffffffffffffff8092168452166020830152604082015281606082015201906102e5565b506040513d6000823e3d90fd5b8042116121865750565b602490604051907fd8bf61260000000000000000000000000000000000000000000000000000000082526004820152fd5b5190811515820361023f57565b91835180156122fb57846080918101031261023f576121e5602085016121b7565b9060408501519260ff8416840361023f5760806060870151960151926000146122df575073ffffffffffffffffffffffffffffffffffffffff7fffffffffffffffffffffffffffffffffffffffffffffffffffffffffffffffff945b1691823b1561023f576040517fd505accf0000000000000000000000000000000000000000000000000000000081523360048201523060248201526044810195909552606485019190915260ff909216608484015260a483019390935260c482015290600090829081838160e481015b03925af180156122d2575b6122c35750565b806106ad60006104ae93610274565b6122da61216f565b6122bc565b73ffffffffffffffffffffffffffffffffffffffff9094612241565b5050505050565b919082604091031261023f576020825192015190565b90919073ffffffffffffffffffffffffffffffffffffffff16803b1561023f576123cb9160409182517fa6afed9500000000000000000000000000000000000000000000000000000000815260008160048183865af18015612443575b61242e575b50825180809581947f7d6af0790000000000000000000000000000000000000000000000000000000083526004830191909173ffffffffffffffffffffffffffffffffffffffff6020820193169052565b03915afa908115612421575b6000916123f1575b50808210156123ec575090565b905090565b612412915060403d811161241a575b61240a8183610274565b810190612302565b9050386123df565b503d612400565b61242961216f565b6123d7565b806106ad600061243d93610274565b3861237a565b61244b61216f565b612375565b65ffffffffffff81160361023f57565b601f82602094937fffffffffffffffffffffffffffffffffffffffffffffffffffffffffffffffe0938186528686013760008582860101520116010190565b90610339949260a09173ffffffffffffffffffffffffffffffffffffffff80911684528082356124ce81610485565b1660208501528060208301356124e381610485565b16604085015260408201356124f781612450565b65ffffffffffff8091166060860152606083013561251481612450565b166080850152608082013561252881610485565b1682840152013560c0820152610100908160e08201520191612460565b919260206103399694606084359461255c86610485565b73ffffffffffffffffffffffffffffffffffffffff809616875283810135848801526040810135604088015201356060860152838151166080860152015160a08401521660c0820152610100908160e08201520191612460565b9081602091031261023f575190565b93916125e1916125db8297949a9998959a61217c565b85612318565b9480612748575b5050506e22d473030f116ddee9f6b43ac78ba394853b1561023f576040517f36c7851600000000000000000000000000000000000000000000000000000000815233600482015273ffffffffffffffffffffffffffffffffffffffff838116602483015285811660448301527f0000000000000000000000000000000000000000000000000000000000000000811660648301526000976020948794909390928a9290919083908290608490829084905af1801561273b575b612727575b506126b0826120e4565b966126ea604051988997889687947f27ce385400000000000000000000000000000000000000000000000000000000865260048601612133565b0393165af193841561271a575b9361270157509190565b61033991935060203d8111610b4c57610b3d8183610274565b61272261216f565b6126f7565b806106ad8461273593610274565b386126a6565b61274361216f565b6126a1565b6e22d473030f116ddee9f6b43ac78ba3803b1561023f5761279e9360008094604051968795869485937f2b67b570000000000000000000000000000000000000000000000000000000008552336004860161249f565b03925af180156127ca575b6127b5575b80806125e8565b806106ad60006127c493610274565b386127ae565b6127d261216f565b6127a9565b916127f2916127ec82979598969a999a61217c565b83612318565b946127fd6040611efb565b73ffffffffffffffffffffffffffffffffffffffff83168152938660208601526e22d473030f116ddee9f6b43ac78ba393843b1561023f57879460405180978180947f30f28b7a00000000000000000000000000000000000000000000000000000000825260009e8f9788943390600486019461287995612545565b03925af16020949080156128c1575b6128ad575b508773ffffffffffffffffffffffffffffffffffffffff6126b0826120e4565b806106ad8a6128bb93610274565b3861288d565b6128c961216f565b612888565b9296876128f0612a369a99600094956128ea612a0a9b9a61217c565b87612318565b998a9660405180947f6f307dc300000000000000000000000000000000000000000000000000000000825260209c8d9b8c948b8b8787600473ffffffffffffffffffffffffffffffffffffffff9d8e85165afa968715612af4575b8c97612aab575b50916129af6129cc926117da61148a96956129f79a9b612992612976610100611efb565b73ffffffffffffffffffffffffffffffffffffffff909e168e52565b8c019073ffffffffffffffffffffffffffffffffffffffff169052565b73ffffffffffffffffffffffffffffffffffffffff166060880152565b73ffffffffffffffffffffffffffffffffffffffff881660808701528c60a087015260c08601612b4f565b60e0820152604051998a918a8301612c64565b037fffffffffffffffffffffffffffffffffffffffffffffffffffffffffffffffe081018a5289610274565b612a6f604051988997889687947f27ce385400000000000000000000000000000000000000000000000000000000865260048601612133565b0393165af18015612a9e575b612a8457505090565b81612a9a92903d10610b4c57610b3d8183610274565b5090565b612aa661216f565b612a7b565b6129f797506129cc926117da61148a969593612adf6129af948d803d10612aed575b612ad78183610274565b810190612b01565b9a5093959650509250612952565b503d612acd565b612afc61216f565b61294b565b9081602091031261023f575161033981610485565b60021115612b2057565b7f4e487b7100000000000000000000000000000000000000000000000000000000600052602160045260246000fd5b6002821015612b205752565b60209067ffffffffffffffff8111612b75575b60051b0190565b612b7d610244565b612b6e565b92919092612b8f84612b5b565b91612b9d6040519384610274565b829480845260208094019060051b83019282841161023f5780915b848310612bc757505050505050565b823567ffffffffffffffff811161023f57820184601f8201121561023f578691612bf786838580953591016120ad565b815201920191612bb8565b906002821015612b205752565b90815180825260208092019182818360051b82019501936000915b848310612c3a5750505050505090565b9091929394958480612c5483856001950387528a516102e5565b9801930193019194939290612c2a565b61012060e0610339936020845273ffffffffffffffffffffffffffffffffffffffff8082511660208601526020820151166040850152612cc16040820151606086019073ffffffffffffffffffffffffffffffffffffffff169052565b606081015173ffffffffffffffffffffffffffffffffffffffff166080850152608081015173ffffffffffffffffffffffffffffffffffffffff1660a085015260a081015160c0850152612d1c60c082015183860190612c02565b015191610100808201520190612c0f565b61010060c0610339936020845273ffffffffffffffffffffffffffffffffffffffff8082511660208601528060208301511660408601528060408301511660608601526060820151166080850152608081015160a0850152612d9660a082015183860190612c02565b01519160e0808201520190612c0f565b61012060e0610339936020845273ffffffffffffffffffffffffffffffffffffffff8082511660208601526020820151166040850152612e036040820151606086019073ffffffffffffffffffffffffffffffffffffffff169052565b606081015173ffffffffffffffffffffffffffffffffffffffff166080850152608081015160a085015260a081015160c0850152612d1c60c082015183860190612c02565b610339939273ffffffffffffffffffffffffffffffffffffffff606093168252602082015281604082015201906102e5565b51906dffffffffffffffffffffffffffff8216820361023f57565b9081606091031261023f57612ea981612e7a565b916040612eb860208401612e7a565b92015163ffffffff8116810361023f5790565b90612ed582612b5b565b612ee26040519182610274565b8281527fffffffffffffffffffffffffffffffffffffffffffffffffffffffffffffffe06121298294612b5b565b908160e091031261023f57805191602082015191604081015191606082015191612f3c608082016121b7565b9160c060a0830151612f4d81610485565b92015161033981610485565b507f4e487b7100000000000000000000000000000000000000000000000000000000600052603260045260246000fd5b6020918151811015612f9e575b60051b010190565b612fa6612f59565b612f96565b9080601f8301121561023f5781602061033993359101612b82565b9060208282031261023f57813567ffffffffffffffff9283821161023f570190610100808383031261023f57612ffb90611efb565b92613005836104a3565b8452613013602084016104a3565b6020850152613024604084016104a3565b6040850152613035606084016104a3565b6060850152613046608084016104a3565b608085015260a083013560a085015261306160c08401611326565b60c085015260e083013590811161023f5761307c9201612fab565b60e082015290565b507f4e487b7100000000000000000000000000000000000000000000000000000000600052601160045260246000fd5b919082039182116130c157565b6104ae613084565b969297959093919373ffffffffffffffffffffffffffffffffffffffff809116976040986131378a517f3ba0b9a90000000000000000000000000000000000000000000000000000000081526000966020826004818b885af191821561337c575b889261335c575b5061489e565b90613141866120e4565b91813b1561335857868095936004979593613190938f9a6132509c9b518096819582947ffa14fdc20000000000000000000000000000000000000000000000000000000084528a8f8501612e48565b03925af1801561334b575b613337575b5016908951907f89afcb440000000000000000000000000000000000000000000000000000000082528a82806131f53089830191909173ffffffffffffffffffffffffffffffffffffffff6020820193169052565b038187875af192831561332a575b84928594613306575b5060e0908c51968780927f392f37e90000000000000000000000000000000000000000000000000000000082525afa9485156132f9575b84956132cd575b50613396565b507f000000000000000000000000000000000000000000000000000000000000000061327c3082614a63565b948386106132a4575061329f8596613298856104ae97986130b4565b9083614a1a565b614a1a565b600490517f38040e8d000000000000000000000000000000000000000000000000000000008152fd5b9094506132e991935060e03d8111611dc557611daf8183610274565b979550935050505092933861324a565b61330161216f565b613243565b61332291945060e093508c8d3d1061241a5761240a8183610274565b93909261320c565b61333261216f565b613203565b806106ad8661334593610274565b386131a0565b61335361216f565b61319b565b8680fd5b61337591925060203d8111610b4c57610b3d8183610274565b9038613131565b61338461216f565b61312a565b919082018092116130c157565b919294939473ffffffffffffffffffffffffffffffffffffffff807f00000000000000000000000000000000000000000000000000000000000000001680828416149081928215613475575b5050613421575091613414600161340e610339989461341b979661340760008b612f89565b5186613481565b96612f89565b5190613481565b90613389565b61033996929493919015613457575060408561341b9596516001101561344a575b015190613481565b613452612f59565b613442565b9150602085613470959496511561344a57015190613481565b613389565b891614905038806133e2565b939291906000946002811015612b2057806134a257506103399394506135d6565b60019192506134b081612b16565b146134ba575b5050565b600092935060409173ffffffffffffffffffffffffffffffffffffffff6134ed8360208061359296518301019101613724565b60808397929994930195808751036135ce575b5061355c61353e613525895173ffffffffffffffffffffffffffffffffffffffff1690565b73ffffffffffffffffffffffffffffffffffffffff1690565b9651731111111254eeb25477b68fb85ed929f73a96058280986138a2565b8751988997889687957f12aa3caf0000000000000000000000000000000000000000000000000000000087521660048601613815565b03925af19081156135c1575b6000916135a9575090565b612a9a915060403d811161241a5761240a8183610274565b6135c961216f565b61359e565b865238613500565b60009190829161363c604051957fd2c4b59800000000000000000000000000000000000000000000000000000000875260209673def171fe48cf0115b1d80b88dc8eab59176fee57938882600481885afa9182156136ca575b87926136ab575b506138a2565b84825192019034905af13d156136a3573d9061365782612064565b916136656040519384610274565b82523d60008484013e5b1561367957015190565b60046040517f29e660eb000000000000000000000000000000000000000000000000000000008152fd5b60609061366f565b6136c3919250893d8b11612aed57612ad78183610274565b9038613636565b6136d261216f565b61362f565b51906104ae82610485565b81601f8201121561023f5780516136f881612064565b926137066040519485610274565b8184526020828401011161023f5761033991602080850191016102c2565b9081810392610140841261023f5760e07fffffffffffffffffffffffffffffffffffffffffffffffffffffffffffffffe0845161376081610485565b95011261023f5760405161377560e082610274565b602084015161378381610485565b8152604084015161379381610485565b60208201526137a4606085016136d7565b60408201526137b5608085016136d7565b606082015260a0840151608082015260c084015160a082015260e084015160c0820152926101008101519267ffffffffffffffff9384811161023f57816137fd9184016136e2565b9361012083015190811161023f5761033992016136e2565b9260c061033995936138939373ffffffffffffffffffffffffffffffffffffffff80911687528082511660208801528060208301511660408801528060408301511660608801526060820151166080870152608081015160a087015260a081015182870152015160e0850152610140806101008601528401906102e5565b916101208184039101526102e5565b6040517fdd62ed3e00000000000000000000000000000000000000000000000000000000815230600482015273ffffffffffffffffffffffffffffffffffffffff83166024820152919290916020818060448101038173ffffffffffffffffffffffffffffffffffffffff87165afa9081156139b1575b600091613993575b5010156134b65760446010600080936020956014527fffffffffffffffffffffffffffffffffffffffffffffffffffffffffffffffff6034526f095ea7b300000000000000000000000082525af13d15600160005114171615613985576000603452565b633e3f8f736000526004601cfd5b6139ab915060203d8111610b4c57610b3d8183610274565b38613921565b6139b961216f565b613919565b9060208282031261023f57813567ffffffffffffffff9283821161023f57019060e08282031261023f576139f260e0611efb565b926139fc836104a3565b8452613a0a602084016104a3565b6020850152613a1b604084016104a3565b6040850152613a2c606084016104a3565b606085015260808301356080850152613a4760a08401611326565b60a085015260c083013590811161023f57613a629201612fab565b60c082015290565b91926103399493600392845273ffffffffffffffffffffffffffffffffffffffff80911660208501528082541660408501526001820154908116606085015265ffffffffffff8160a01c16608085015260d01c60a0840152613b03613ae6600283015473ffffffffffffffffffffffffffffffffffffffff1690565b73ffffffffffffffffffffffffffffffffffffffff1660c0850152565b015460e0820152610120908161010082015201906102e5565b9593919594929094604051937f392f37e900000000000000000000000000000000000000000000000000000000855273ffffffffffffffffffffffffffffffffffffffff9260e0866004818787165afa968715613cb1575b60009182938398849a613c78575b50908989613b9296959493613e4a565b928310613c4f5786866000602094613bca876104ae9c87613bc5836e22d473030f116ddee9f6b43ac78ba360019b6138a2565b613cf1565b613bd3826120e4565b96613c0d604051988997889687947f8808e71c00000000000000000000000000000000000000000000000000000000865260048601613a6a565b0393165af18015613c42575b613c24575b506146d0565b613c3b9060203d8111610b4c57610b3d8183610274565b5038613c1e565b613c4a61216f565b613c19565b60046040517ebf8768000000000000000000000000000000000000000000000000000000008152fd5b9193509850613c9b919750613b92935060e03d8111611dc557611daf8183610274565b9c909b9297939692955091935090919050613b82565b613cb961216f565b613b74565b9081606091031261023f578051613cd481610485565b9160406020830151613ce581612450565b92015161033981612450565b6040517f927da10500000000000000000000000000000000000000000000000000000000815230600482015273ffffffffffffffffffffffffffffffffffffffff82811660248301528316604482015291929091906e22d473030f116ddee9f6b43ac78ba390606083606481855afa928315613e3d575b600093613e0b575b5073ffffffffffffffffffffffffffffffffffffffff8093161015613e0557803b1561023f576040517f87517c4500000000000000000000000000000000000000000000000000000000815273ffffffffffffffffffffffffffffffffffffffff938416600482015293831660248501529116604483015265ffffffffffff60648301526000908290818381608481016122b1565b50505050565b613e2d91935060603d8111613e36575b613e258183610274565b810190613cbe565b50509138613d70565b503d613e1b565b613e4561216f565b613d68565b93906103399691959293957f00000000000000000000000000000000000000000000000000000000000000009073ffffffffffffffffffffffffffffffffffffffff978883169289851698848a1480958115613fba575b5015613f0a5750505050600014613efa57613eed92613edc92600592955b95965b613ecc3089614a63565b98881603613ef357505b86614762565b613ee7818486614040565b946130b4565b9161414e565b9050613ed6565b613eed92613edc92600592613ebf565b919350919793897f00000000000000000000000000000000000000000000000000000000000000001680861480918115613fae575b5015613f8e5715613f7057613eed9693613edc9693600596936134146000613f6a959c5b9c9d612f89565b50613ec2565b96613eed9693613edc9693600596936134146000613f6a959c613f63565b5096613eed9693613edc9693600596936134146000613f6a959c9d612f89565b90508b8a161438613f3f565b90508b8a161438613ea1565b602090818184031261023f5780519067ffffffffffffffff821161023f57019180601f8401121561023f578251613ffc81612b5b565b9361400a6040519586610274565b818552838086019260051b82010192831161023f578301905b828210614031575050505090565b81518152908301908301614023565b906140ff9291739c12939390052919af3155f41bf4160fd3666a6f926140678185846138a2565b60e4604051809481937f13dcfc5900000000000000000000000000000000000000000000000000000000835260048301526000968795869283602486015273ffffffffffffffffffffffffffffffffffffffff80921660448601521660648401528160848401523060a48401524260c48401525af1918215614126575b8092614103575b50506140f9600182516130b4565b90612f89565b5190565b61411f92503d8091833e6141178183610274565b810190613fc6565b38806140eb565b61412e61216f565b6140e4565b9081606091031261023f578051916040602083015192015190565b9061012490600060609495739c12939390052919af3155f41bf4160fd3666a6f9061417a8883886138a2565b6141858183866138a2565b60405197889687957f5a47ddc300000000000000000000000000000000000000000000000000000000875273ffffffffffffffffffffffffffffffffffffffff8092166004880152166024860152836044860152606485015260848401528160a48401528160c48401523060e4840152426101048401525af190811561423f575b600091614211575090565b614232915060603d8111614238575b61422a8183610274565b810190614133565b91505090565b503d614220565b61424761216f565b614206565b9060208282031261023f57813567ffffffffffffffff9283821161023f570190610100808383031261023f5761428190611efb565b9261428b836104a3565b8452614299602084016104a3565b60208501526142aa604084016104a3565b60408501526142bb606084016104a3565b60608501526080830135608085015260a083013560a085015261306160c08401611326565b9081602091031261023f57610339906121b7565b93969490929591956143ce73ffffffffffffffffffffffffffffffffffffffff8096169660409460048651997f89afcb44000000000000000000000000000000000000000000000000000000008b528a8881806143703087830191909173ffffffffffffffffffffffffffffffffffffffff6020820193169052565b0360009e8f865af191821561451d575b8c918d936144f9575b5060e0908a51948580927f392f37e90000000000000000000000000000000000000000000000000000000082525afa9384156144ec575b8c938d956132cd5750613396565b507f0000000000000000000000000000000000000000000000000000000000000000906143fb3083614a63565b9283106144c3579261441a8896938660209a97946144799c9a9761452a565b51978896879586937f23b872dd0000000000000000000000000000000000000000000000000000000085526004850160409194939294606082019573ffffffffffffffffffffffffffffffffffffffff80921683521660208201520152565b0393165af180156144b6575b61448c5750565b6144ac9060203d81116144af575b6144a48183610274565b8101906142e0565b50565b503d61449a565b6144be61216f565b614485565b600484517fb2a4caeb000000000000000000000000000000000000000000000000000000008152fd5b6144f461216f565b6143c0565b61451591935060e092508a3d8c1161241a5761240a8183610274565b929091614389565b61452561216f565b614380565b93929391909161453b828683612318565b614546818386614a1a565b60009573ffffffffffffffffffffffffffffffffffffffff9283168761456b816120e4565b91803b156146cc5781908180896145b1604051978896879586947f1e7dcc0d00000000000000000000000000000000000000000000000000000000865260048601612133565b03925af180156146bf575b6146ab575b508181116145d3575b50505050509050565b906145dd916130b4565b927f0000000000000000000000000000000000000000000000000000000000000000821691811682036146995750803b15610c93579361466d93948160405180927f2e1a7d4d0000000000000000000000000000000000000000000000000000000082528183816146568a600483019190602083019252565b03925af1801561468c575b614678575b50506149a3565b8038808080806145ca565b6106ad6146859282610274565b3880614666565b61469461216f565b614661565b90506146a6939450614a1a565b61466d565b806106ad896146b993610274565b386145c1565b6146c761216f565b6145bc565b5080fd5b90916146dc3083614a63565b916146e73085614a63565b928281614705575b505050816146fc57505050565b6104ae92614a1a565b61470e92614a1a565b3880826146ef565b818102929181159184041417156130c157565b8115614733570490565b7f4e487b7100000000000000000000000000000000000000000000000000000000600052601260045260246000fd5b614872906148686147c5610339956147ad612710918203968288938411614891575b6147978285830180841161488457614716565b9681810291818304149015171561488457614716565b8060021b908082046004149015171561488457614716565b936147d08380614716565b948501809511614877575b8470ffffffffffffffffffffffffffffffffff1060071b85811c68ffffffffffffffffff1060061b1785811c64ffffffffff1060051b1785811c62ffffff1060041b1760019060b56201000088831c0191831c1b0260121c80870401811c80870401811c80870401811c80870401811c80870401811c80870401811c80870401901c809281926002614716565b95041090036130b4565b614729565b61487f613084565b6147db565b61488c613084565b614716565b614899613084565b614784565b90807fffffffffffffffffffffffffffffffffffffffffffffffffffffffffffffffff04821181026148d957670de0b6b3a764000091020490565b63bac65e5b6000526004601cfd5b91600092828102927fffffffffffffffffffffffffffffffffffffffffffffffffffffffffffffffff8183099184831085018084039314614987578284111561497a57908391099060018386038416808080960460028082600302188083028203028083028203028083028203028083028203028083028203028092029003029703040190848311900302920304170290565b63ae47f70286526004601cfd5b50505091821561499657500490565b63ae47f70290526004601cfd5b600080809381935af1156149b357565b63b12d13eb6000526004601cfd5b601c600060649281946020966040519860605260405260601b602c526f23b872dd000000000000000000000000600c525af13d15600160005114171615614a0c576000606052604052565b637939f4246000526004601cfd5b60109260209260145260345260446000938480936fa9059cbb00000000000000000000000082525af13d156001835114171615614a5657603452565b6390b8ec1890526004601cfd5b602460106020939284936014526f70a082310000000000000000000000006000525afa601f3d1116602051029056fea164736f6c6343000811000a",
  "linkReferences": {},
  "deployedLinkReferences": {}
}