{
  "_format": "hh-sol-artifact-1",
  "contractName": "CygnusAltairX",
  "sourceName": "contracts/cygnus-periphery/CygnusAltairX.sol",
  "abi": [
    {
      "inputs": [
        {
          "internalType": "address",
          "name": "factory",
          "type": "address"
        },
        {
          "internalType": "address",
          "name": "oneInchRouterV5",
          "type": "address"
        }
      ],
      "stateMutability": "nonpayable",
      "type": "constructor"
    },
    {
      "inputs": [
        {
          "internalType": "uint256",
          "name": "amount",
          "type": "uint256"
        }
      ],
      "name": "CygnusAltair__InsufficientBurnAmountA",
      "type": "error"
    },
    {
      "inputs": [
        {
          "internalType": "uint256",
          "name": "amount",
          "type": "uint256"
        }
      ],
      "name": "CygnusAltair__InsufficientBurnAmountB",
      "type": "error"
    },
    {
      "inputs": [
        {
          "internalType": "uint256",
          "name": "lpAmountMin",
          "type": "uint256"
        },
        {
          "internalType": "uint256",
          "name": "liquidity",
          "type": "uint256"
        }
      ],
      "name": "CygnusAltair__InsufficientLPTokenAmount",
      "type": "error"
    },
    {
      "inputs": [
        {
          "internalType": "uint256",
          "name": "usdAmountMin",
          "type": "uint256"
        },
        {
          "internalType": "uint256",
          "name": "usdAmount",
          "type": "uint256"
        }
      ],
      "name": "CygnusAltair__InsufficientLiquidateUsd",
      "type": "error"
    },
    {
      "inputs": [
        {
          "internalType": "uint256",
          "name": "usdAmountMin",
          "type": "uint256"
        },
        {
          "internalType": "uint256",
          "name": "usdAmount",
          "type": "uint256"
        }
      ],
      "name": "CygnusAltair__InsufficientRedeemAmount",
      "type": "error"
    },
    {
      "inputs": [
        {
          "internalType": "address",
          "name": "redeemer",
          "type": "address"
        },
        {
          "internalType": "uint256",
          "name": "redeemTokens",
          "type": "uint256"
        }
      ],
      "name": "CygnusAltair__InvalidRedeemAmount",
      "type": "error"
    },
    {
      "inputs": [
        {
          "internalType": "address",
          "name": "sender",
          "type": "address"
        },
        {
          "internalType": "address",
          "name": "admin",
          "type": "address"
        }
      ],
      "name": "CygnusAltair__MsgSenderNotAdmin",
      "type": "error"
    },
    {
      "inputs": [
        {
          "internalType": "address",
          "name": "sender",
          "type": "address"
        },
        {
          "internalType": "address",
          "name": "borrowable",
          "type": "address"
        }
      ],
      "name": "CygnusAltair__MsgSenderNotBorrowable",
      "type": "error"
    },
    {
      "inputs": [
        {
          "internalType": "address",
          "name": "sender",
          "type": "address"
        },
        {
          "internalType": "address",
          "name": "collateral",
          "type": "address"
        }
      ],
      "name": "CygnusAltair__MsgSenderNotCollateral",
      "type": "error"
    },
    {
      "inputs": [
        {
          "internalType": "address",
          "name": "sender",
          "type": "address"
        },
        {
          "internalType": "address",
          "name": "origin",
          "type": "address"
        }
      ],
      "name": "CygnusAltair__MsgSenderNotRouter",
      "type": "error"
    },
    {
      "inputs": [
        {
          "internalType": "address",
          "name": "poolToken",
          "type": "address"
        }
      ],
      "name": "CygnusAltair__NotNativeTokenSender",
      "type": "error"
    },
    {
      "inputs": [
        {
          "internalType": "uint256",
          "name": "deadline",
          "type": "uint256"
        }
      ],
      "name": "CygnusAltair__TransactionExpired",
      "type": "error"
    },
    {
      "inputs": [],
      "name": "LOCAL_BYTES",
      "outputs": [
        {
          "internalType": "bytes",
          "name": "",
          "type": "bytes"
        }
      ],
      "stateMutability": "view",
      "type": "function"
    },
    {
      "inputs": [],
      "name": "aggregationRouterV5",
      "outputs": [
        {
          "internalType": "contract IAggregationRouterV5",
          "name": "",
          "type": "address"
        }
      ],
      "stateMutability": "view",
      "type": "function"
    },
    {
      "inputs": [
        {
          "internalType": "address",
          "name": "sender",
          "type": "address"
        },
        {
          "internalType": "uint256",
          "name": "borrowAmount",
          "type": "uint256"
        },
        {
          "internalType": "bytes",
          "name": "data",
          "type": "bytes"
        }
      ],
      "name": "altairBorrow_O9E",
      "outputs": [],
      "stateMutability": "nonpayable",
      "type": "function"
    },
    {
      "inputs": [
        {
          "internalType": "address",
          "name": "sender",
          "type": "address"
        },
        {
          "internalType": "uint256",
          "name": "redeemAmount",
          "type": "uint256"
        },
        {
          "internalType": "address",
          "name": "token0",
          "type": "address"
        },
        {
          "internalType": "address",
          "name": "token1",
          "type": "address"
        },
        {
          "internalType": "bytes",
          "name": "data",
          "type": "bytes"
        }
      ],
      "name": "altairRedeem_u91A",
      "outputs": [],
      "stateMutability": "nonpayable",
      "type": "function"
    },
    {
      "inputs": [
        {
          "internalType": "address",
          "name": "borrowable",
          "type": "address"
        },
        {
          "internalType": "uint256",
          "name": "amount",
          "type": "uint256"
        },
        {
          "internalType": "address",
          "name": "recipient",
          "type": "address"
        },
        {
          "internalType": "uint256",
          "name": "deadline",
          "type": "uint256"
        },
        {
          "internalType": "bytes",
          "name": "permitData",
          "type": "bytes"
        }
      ],
      "name": "borrow",
      "outputs": [],
      "stateMutability": "nonpayable",
      "type": "function"
    },
    {
      "inputs": [
        {
          "internalType": "address",
          "name": "collateral",
          "type": "address"
        },
        {
          "internalType": "address",
          "name": "borrowable",
          "type": "address"
        },
        {
          "internalType": "uint256",
          "name": "redeemTokens",
          "type": "uint256"
        },
        {
          "internalType": "uint256",
          "name": "usdAmountMin",
          "type": "uint256"
        },
        {
          "internalType": "uint256",
          "name": "deadline",
          "type": "uint256"
        },
        {
          "internalType": "bytes[]",
          "name": "swapData",
          "type": "bytes[]"
        },
        {
          "internalType": "bytes",
          "name": "permitData",
          "type": "bytes"
        }
      ],
      "name": "deleverage",
      "outputs": [],
      "stateMutability": "nonpayable",
      "type": "function"
    },
    {
      "inputs": [],
      "name": "hangar18",
      "outputs": [
        {
          "internalType": "address",
          "name": "",
          "type": "address"
        }
      ],
      "stateMutability": "view",
      "type": "function"
    },
    {
      "inputs": [
        {
          "internalType": "address",
          "name": "collateral",
          "type": "address"
        },
        {
          "internalType": "address",
          "name": "borrowable",
          "type": "address"
        },
        {
          "internalType": "uint256",
          "name": "amountUsd",
          "type": "uint256"
        },
        {
          "internalType": "uint256",
          "name": "amountLPMin",
          "type": "uint256"
        },
        {
          "internalType": "address",
          "name": "recipient",
          "type": "address"
        },
        {
          "internalType": "uint256",
          "name": "deadline",
          "type": "uint256"
        },
        {
          "internalType": "bytes[]",
          "name": "swapData",
          "type": "bytes[]"
        },
        {
          "internalType": "bytes",
          "name": "permitData",
          "type": "bytes"
        }
      ],
      "name": "leverage",
      "outputs": [],
      "stateMutability": "nonpayable",
      "type": "function"
    },
    {
      "inputs": [
        {
          "internalType": "address",
          "name": "borrowable",
          "type": "address"
        },
        {
          "internalType": "uint256",
          "name": "amountMax",
          "type": "uint256"
        },
        {
          "internalType": "address",
          "name": "borrower",
          "type": "address"
        },
        {
          "internalType": "address",
          "name": "recipient",
          "type": "address"
        },
        {
          "internalType": "uint256",
          "name": "deadline",
          "type": "uint256"
        }
      ],
      "name": "liquidate",
      "outputs": [
        {
          "internalType": "uint256",
          "name": "amount",
          "type": "uint256"
        },
        {
          "internalType": "uint256",
          "name": "seizeTokens",
          "type": "uint256"
        }
      ],
      "stateMutability": "nonpayable",
      "type": "function"
    },
    {
      "inputs": [
        {
          "internalType": "address",
          "name": "lpTokenPair",
          "type": "address"
        },
        {
          "internalType": "address",
          "name": "collateral",
          "type": "address"
        },
        {
          "internalType": "address",
          "name": "borrowable",
          "type": "address"
        },
        {
          "internalType": "uint256",
          "name": "amountMax",
          "type": "uint256"
        },
        {
          "internalType": "uint256",
          "name": "amountMin",
          "type": "uint256"
        },
        {
          "internalType": "address",
          "name": "borrower",
          "type": "address"
        },
        {
          "internalType": "address",
          "name": "recipient",
          "type": "address"
        },
        {
          "internalType": "uint256",
          "name": "deadline",
          "type": "uint256"
        },
        {
          "internalType": "bytes[]",
          "name": "swapData",
          "type": "bytes[]"
        }
      ],
      "name": "liquidateToUsd",
      "outputs": [
        {
          "internalType": "uint256",
          "name": "amountUsd",
          "type": "uint256"
        }
      ],
      "stateMutability": "nonpayable",
      "type": "function"
    },
    {
      "inputs": [],
      "name": "nativeToken",
      "outputs": [
        {
          "internalType": "address",
          "name": "",
          "type": "address"
        }
      ],
      "stateMutability": "view",
      "type": "function"
    },
    {
      "inputs": [
        {
          "internalType": "address",
          "name": "borrowable",
          "type": "address"
        },
        {
          "internalType": "uint256",
          "name": "amountMax",
          "type": "uint256"
        },
        {
          "internalType": "address",
          "name": "borrower",
          "type": "address"
        },
        {
          "internalType": "uint256",
          "name": "deadline",
          "type": "uint256"
        }
      ],
      "name": "repay",
      "outputs": [
        {
          "internalType": "uint256",
          "name": "amount",
          "type": "uint256"
        }
      ],
      "stateMutability": "nonpayable",
      "type": "function"
    },
    {
      "inputs": [],
      "name": "usd",
      "outputs": [
        {
          "internalType": "address",
          "name": "",
          "type": "address"
        }
      ],
      "stateMutability": "view",
      "type": "function"
    },
    {
      "stateMutability": "payable",
      "type": "receive"
    }
  ],
  "bytecode": "0x6101006040523480156200001257600080fd5b5060405162003beb38038062003beb8339810160408190526200003591620001ba565b816001600160a01b031660a0816001600160a01b031660601b81525050816001600160a01b031663e1758bd86040518163ffffffff1660e01b815260040160206040518083038186803b1580156200008c57600080fd5b505afa158015620000a1573d6000803e3d6000fd5b505050506040513d601f19601f82011682018060405250810190620000c7919062000196565b6001600160a01b031660c0816001600160a01b031660601b81525050816001600160a01b031663d63a6ccd6040518163ffffffff1660e01b815260040160206040518083038186803b1580156200011d57600080fd5b505afa15801562000132573d6000803e3d6000fd5b505050506040513d601f19601f8201168201806040525081019062000158919062000196565b6001600160601b0319606091821b811660805291901b1660e05250620001f1565b80516001600160a01b03811681146200019157600080fd5b919050565b600060208284031215620001a8578081fd5b620001b38262000179565b9392505050565b60008060408385031215620001cd578081fd5b620001d88362000179565b9150620001e86020840162000179565b90509250929050565b60805160601c60a05160601c60c05160601c60e05160601c613937620002b4600039600081816101bd0152818161272d015261279301526000818160de0152818161034e01528181611d1101528181611d6601528181611dbb0152818161257c01526125fd015260006103820152600081816102fa015281816111e00152818161174701528181611bb401528181611c0901528181611c5e015281816122360152818161228b015281816122e0015281816123c4015261247001526139376000f3fe6080604052600436106100d65760003560e01c80637f69e8d21161007f578063d63a6ccd11610059578063d63a6ccd146102e8578063dbe5f2fb1461031c578063e1758bd81461033c578063e8a24e1d1461037057600080fd5b80637f69e8d2146102795780638f53d74f14610299578063953ec666146102b957600080fd5b80635c1e6404116100b05780635c1e6404146102045780636aee7c1e14610239578063726bb08c1461025957600080fd5b8063188a4b6c1461015857806324a288131461017857806341cb8afd146101ab57600080fd5b3661015357337f000000000000000000000000000000000000000000000000000000000000000073ffffffffffffffffffffffffffffffffffffffff1614610151576040517fb58564160000000000000000000000000000000000000000000000000000000081523360048201526024015b60405180910390fd5b005b600080fd5b34801561016457600080fd5b50610151610173366004612fac565b6103a4565b34801561018457600080fd5b50610198610193366004612d8f565b6104e5565b6040519081526020015b60405180910390f35b3480156101b757600080fd5b506101df7f000000000000000000000000000000000000000000000000000000000000000081565b60405173ffffffffffffffffffffffffffffffffffffffff90911681526020016101a2565b34801561021057600080fd5b5061022461021f36600461302f565b610672565b604080519283526020830191909152016101a2565b34801561024557600080fd5b50610198610254366004613089565b61078e565b34801561026557600080fd5b50610151610274366004612e4f565b610892565b34801561028557600080fd5b50610151610294366004612efb565b61097e565b3480156102a557600080fd5b506101516102b436600461312c565b610aab565b3480156102c557600080fd5b506102db60408051600081526020810190915281565b6040516101a29190613500565b3480156102f457600080fd5b506101df7f000000000000000000000000000000000000000000000000000000000000000081565b34801561032857600080fd5b506101516103373660046130d0565b610ede565b34801561034857600080fd5b506101df7f000000000000000000000000000000000000000000000000000000000000000081565b34801561037c57600080fd5b506101df7f000000000000000000000000000000000000000000000000000000000000000081565b60006103b2828401846132a4565b905073ffffffffffffffffffffffffffffffffffffffff87163014610421576040517fb61e0f2900000000000000000000000000000000000000000000000000000000815273ffffffffffffffffffffffffffffffffffffffff88166004820152326024820152604401610148565b602081015173ffffffffffffffffffffffffffffffffffffffff163373ffffffffffffffffffffffffffffffffffffffff16146104ae5760208101516040517fe5ac816600000000000000000000000000000000000000000000000000000000815233600482015273ffffffffffffffffffffffffffffffffffffffff9091166024820152604401610148565b6104dc816000015182606001518360200151846040015185608001518660a001518c8c8c8a60c00151610fbd565b50505050505050565b6000836104f1816112c5565b60006104fe8b8b8a611305565b90506105a2338c838e73ffffffffffffffffffffffffffffffffffffffff16636f307dc36040518163ffffffff1660e01b815260040160206040518083038186803b15801561054c57600080fd5b505afa158015610560573d6000803e3d6000fd5b505050506040513d601f19601f820116820180604052508101906105849190612c54565b73ffffffffffffffffffffffffffffffffffffffff16929190611423565b6040517f86b9d81f00000000000000000000000000000000000000000000000000000000815273ffffffffffffffffffffffffffffffffffffffff89811660048301528881166024830152600091908d16906386b9d81f90604401602060405180830381600087803b15801561061757600080fd5b505af115801561062b573d6000803e3d6000fd5b505050506040513d601f19601f8201168201806040525081019061064f91906133b3565b90506106608e8e8a848e8b8b611471565b9e9d5050505050505050505050505050565b6000808261067f816112c5565b61068a888888611305565b92506106d83389858b73ffffffffffffffffffffffffffffffffffffffff16636f307dc36040518163ffffffff1660e01b815260040160206040518083038186803b15801561054c57600080fd5b6040517f86b9d81f00000000000000000000000000000000000000000000000000000000815273ffffffffffffffffffffffffffffffffffffffff878116600483015286811660248301528916906386b9d81f90604401602060405180830381600087803b15801561074957600080fd5b505af115801561075d573d6000803e3d6000fd5b505050506040513d601f19601f8201168201806040525081019061078191906133b3565b9150509550959350505050565b60008161079a816112c5565b6107a5868686611305565b91506107f33387848973ffffffffffffffffffffffffffffffffffffffff16636f307dc36040518163ffffffff1660e01b815260040160206040518083038186803b15801561054c57600080fd5b60408051600080825260208201928390527f1e7dcc0d0000000000000000000000000000000000000000000000000000000090925273ffffffffffffffffffffffffffffffffffffffff881691631e7dcc0d9161085791889181906024810161348c565b600060405180830381600087803b15801561087157600080fd5b505af1158015610885573d6000803e3d6000fd5b5050505050949350505050565b8461089c816112c5565b6108de8a8a8886868080601f01602080910402602001604051908101604052809392919081815260200183838082843760009201919091525061177d92505050565b60008b73ffffffffffffffffffffffffffffffffffffffff16636f307dc36040518163ffffffff1660e01b815260040160206040518083038186803b15801561092657600080fd5b505afa15801561093a573d6000803e3d6000fd5b505050506040513d601f19601f8201168201806040525081019061095e9190612c54565b9050610970818d8d8d8d8d8c8c611893565b505050505050505050505050565b84610988816112c5565b600088116109cb576040517f0c1055d000000000000000000000000000000000000000000000000000000000815233600482015260248101899052604401610148565b610a0d8a898886868080601f01602080910402602001604051908101604052809392919081815260200183838082843760009201919091525061177d92505050565b60008a73ffffffffffffffffffffffffffffffffffffffff16636f307dc36040518163ffffffff1660e01b815260040160206040518083038186803b158015610a5557600080fd5b505afa158015610a69573d6000803e3d6000fd5b505050506040513d601f19601f82011682018060405250810190610a8d9190612c54565b9050610a9e8b8b8b848c8b8b6119bb565b5050505050505050505050565b6000610ab9828401846131e9565b905073ffffffffffffffffffffffffffffffffffffffff85163014610b28576040517fb61e0f2900000000000000000000000000000000000000000000000000000000815273ffffffffffffffffffffffffffffffffffffffff86166004820152326024820152604401610148565b604081015173ffffffffffffffffffffffffffffffffffffffff163373ffffffffffffffffffffffffffffffffffffffff1614610bb55760408181015190517faead146700000000000000000000000000000000000000000000000000000000815233600482015273ffffffffffffffffffffffffffffffffffffffff9091166024820152604401610148565b6000816000015173ffffffffffffffffffffffffffffffffffffffff16630dfe16816040518163ffffffff1660e01b815260040160206040518083038186803b158015610c0157600080fd5b505afa158015610c15573d6000803e3d6000fd5b505050506040513d601f19601f82011682018060405250810190610c399190612c54565b90506000826000015173ffffffffffffffffffffffffffffffffffffffff1663d21220a76040518163ffffffff1660e01b815260040160206040518083038186803b158015610c8757600080fd5b505afa158015610c9b573d6000803e3d6000fd5b505050506040513d601f19601f82011682018060405250810190610cbf9190612c54565b9050600080610cd9856000015185858b8960a00151611bac565b86519193509150610d029073ffffffffffffffffffffffffffffffffffffffff861690846120f1565b8451610d269073ffffffffffffffffffffffffffffffffffffffff851690836120f1565b84516040517f6a62784200000000000000000000000000000000000000000000000000000000815230600482015260009173ffffffffffffffffffffffffffffffffffffffff1690636a62784290602401602060405180830381600087803b158015610d9157600080fd5b505af1158015610da5573d6000803e3d6000fd5b505050506040513d601f19601f82011682018060405250810190610dc991906133b3565b90508560800151811015610e195760808601516040517f4f9e62b4000000000000000000000000000000000000000000000000000000008152600481019190915260248101829052604401610148565b610e2c866000015187602001518361213a565b602086015160608701516040517f6e553f650000000000000000000000000000000000000000000000000000000081526004810184905273ffffffffffffffffffffffffffffffffffffffff9182166024820152911690636e553f6590604401602060405180830381600087803b158015610ea657600080fd5b505af1158015610eba573d6000803e3d6000fd5b505050506040513d601f19601f82011682018060405250810190610a9e91906133b3565b82610ee8816112c5565b610f2a87878686868080601f01602080910402602001604051908101604052809392919081815260200183838082843760009201919091525061177d92505050565b604080516000815260208101918290527f1e7dcc0d0000000000000000000000000000000000000000000000000000000090915273ffffffffffffffffffffffffffffffffffffffff881690631e7dcc0d90610f8f90339089908b906024810161348c565b600060405180830381600087803b158015610fa957600080fd5b505af1158015610a9e573d6000803e3d6000fd5b6040517fa9059cbb00000000000000000000000000000000000000000000000000000000815273ffffffffffffffffffffffffffffffffffffffff8b1660048201819052602482018690529063a9059cbb90604401602060405180830381600087803b15801561102c57600080fd5b505af1158015611040573d6000803e3d6000fd5b505050506040513d601f19601f820116820180604052508101906110649190613186565b506040517f89afcb44000000000000000000000000000000000000000000000000000000008152306004820152600090819073ffffffffffffffffffffffffffffffffffffffff8d16906389afcb44906024016040805180830381600087803b1580156110d057600080fd5b505af11580156110e4573d6000803e3d6000fd5b505050506040513d601f19601f8201168201806040525081019061110891906133cb565b9150915060008211611149576040517fd5ff6de300000000000000000000000000000000000000000000000000000000815260048101839052602401610148565b60008111611186576040517fa0bd09d300000000000000000000000000000000000000000000000000000000815260048101829052602401610148565b60006111958383888888612232565b9050878110156111da576040517e6d48fc0000000000000000000000000000000000000000000000000000000081526004810189905260248101829052604401610148565b6112068a7f00000000000000000000000000000000000000000000000000000000000000008e8461249e565b6040517f23b872dd00000000000000000000000000000000000000000000000000000000815273ffffffffffffffffffffffffffffffffffffffff8d811660048301528c1660248201819052604482018b9052906323b872dd90606401602060405180830381600087803b15801561127d57600080fd5b505af1158015611291573d6000803e3d6000fd5b505050506040513d601f19601f820116820180604052508101906112b59190613186565b5050505050505050505050505050565b80421115611302576040517fd8bf612600000000000000000000000000000000000000000000000000000000815260048101829052602401610148565b50565b60008373ffffffffffffffffffffffffffffffffffffffff1663a6afed956040518163ffffffff1660e01b8152600401600060405180830381600087803b15801561134f57600080fd5b505af1158015611363573d6000803e3d6000fd5b50506040517f7d6af07900000000000000000000000000000000000000000000000000000000815273ffffffffffffffffffffffffffffffffffffffff85811660048301526000935087169150637d6af0799060240160206040518083038186803b1580156113d157600080fd5b505afa1580156113e5573d6000803e3d6000fd5b505050506040513d601f19601f8201168201806040525081019061140991906133b3565b9050808410611418578061141a565b835b95945050505050565b6040516323b872dd600052836020528260405281606052602060006064601c6000895af13d15600160005114171661146357637939f4246000526004601cfd5b600060605260405250505050565b6040517fba0876520000000000000000000000000000000000000000000000000000000081526004810185905273ffffffffffffffffffffffffffffffffffffffff888116602483015286811660448301526000919088169063ba08765290606401602060405180830381600087803b1580156114ed57600080fd5b505af1158015611501573d6000803e3d6000fd5b505050506040513d601f19601f8201168201806040525081019061152591906133b3565b506040517f89afcb44000000000000000000000000000000000000000000000000000000008152306004820152600090819073ffffffffffffffffffffffffffffffffffffffff8b16906389afcb44906024016040805180830381600087803b15801561159157600080fd5b505af11580156115a5573d6000803e3d6000fd5b505050506040513d601f19601f820116820180604052508101906115c991906133cb565b9150915060008a73ffffffffffffffffffffffffffffffffffffffff16630dfe16816040518163ffffffff1660e01b815260040160206040518083038186803b15801561161557600080fd5b505afa158015611629573d6000803e3d6000fd5b505050506040513d601f19601f8201168201806040525081019061164d9190612c54565b905060008b73ffffffffffffffffffffffffffffffffffffffff1663d21220a76040518163ffffffff1660e01b815260040160206040518083038186803b15801561169757600080fd5b505afa1580156116ab573d6000803e3d6000fd5b505050506040513d601f19601f820116820180604052508101906116cf9190612c54565b90506116e7848484846116e28b8d613848565b612232565b94508785101561172d576040517f6efd26080000000000000000000000000000000000000000000000000000000081526004810189905260248101869052604401610148565b61176e73ffffffffffffffffffffffffffffffffffffffff7f0000000000000000000000000000000000000000000000000000000000000000168b876120f1565b50505050979650505050505050565b80516117885761188d565b600080600080848060200190518101906117a291906131a0565b93509350935093506000846117b757876117d9565b7fffffffffffffffffffffffffffffffffffffffffffffffffffffffffffffffff5b6040517fd505accf000000000000000000000000000000000000000000000000000000008152336004820152306024820152604481018290526064810189905260ff8616608482015260a4810185905260c4810184905290915073ffffffffffffffffffffffffffffffffffffffff8a169063d505accf9060e4015b600060405180830381600087803b15801561186f57600080fd5b505af1158015611883573d6000803e3d6000fd5b5050505050505050505b50505050565b60006040518060c001604052808a73ffffffffffffffffffffffffffffffffffffffff1681526020018973ffffffffffffffffffffffffffffffffffffffff1681526020018873ffffffffffffffffffffffffffffffffffffffff1681526020018573ffffffffffffffffffffffffffffffffffffffff1681526020018681526020018484906119239190613848565b905260405161193591906020016135e1565b604080517fffffffffffffffffffffffffffffffffffffffffffffffffffffffffffffffe0818403018152908290527f1e7dcc0d000000000000000000000000000000000000000000000000000000008252915073ffffffffffffffffffffffffffffffffffffffff881690631e7dcc0d9061185590879030908b90879060040161348c565b60008773ffffffffffffffffffffffffffffffffffffffff16633ba0b9a96040518163ffffffff1660e01b8152600401602060405180830381600087803b158015611a0557600080fd5b505af1158015611a19573d6000803e3d6000fd5b505050506040513d601f19601f82011682018060405250810190611a3d91906133b3565b90506000611a4b87836126be565b905060006040518060e001604052808873ffffffffffffffffffffffffffffffffffffffff1681526020018b73ffffffffffffffffffffffffffffffffffffffff1681526020018a73ffffffffffffffffffffffffffffffffffffffff168152602001611ab53390565b73ffffffffffffffffffffffffffffffffffffffff168152602081018a905260408101889052606001611ae88688613848565b9052604051611afa919060200161364c565b604080517fffffffffffffffffffffffffffffffffffffffffffffffffffffffffffffffe0818403018152908290527ffa14fdc2000000000000000000000000000000000000000000000000000000008252915073ffffffffffffffffffffffffffffffffffffffff8b169063fa14fdc290611b7e903090869086906004016134cb565b600060405180830381600087803b158015611b9857600080fd5b505af11580156112b5573d6000803e3d6000fd5b6000806000807f000000000000000000000000000000000000000000000000000000000000000073ffffffffffffffffffffffffffffffffffffffff168873ffffffffffffffffffffffffffffffffffffffff161480611c5757507f000000000000000000000000000000000000000000000000000000000000000073ffffffffffffffffffffffffffffffffffffffff168773ffffffffffffffffffffffffffffffffffffffff16145b15611cc3577f000000000000000000000000000000000000000000000000000000000000000073ffffffffffffffffffffffffffffffffffffffff168873ffffffffffffffffffffffffffffffffffffffff1614611cb6578688611cb9565b87875b9092509050611e19565b611d0e85600081518110611d00577f4e487b7100000000000000000000000000000000000000000000000000000000600052603260045260246000fd5b6020026020010151876126ec565b507f000000000000000000000000000000000000000000000000000000000000000073ffffffffffffffffffffffffffffffffffffffff168873ffffffffffffffffffffffffffffffffffffffff161480611db457507f000000000000000000000000000000000000000000000000000000000000000073ffffffffffffffffffffffffffffffffffffffff168773ffffffffffffffffffffffffffffffffffffffff16145b15611e13577f000000000000000000000000000000000000000000000000000000000000000073ffffffffffffffffffffffffffffffffffffffff168873ffffffffffffffffffffffffffffffffffffffff1614611cb6578688611cb9565b50869050855b6000808a73ffffffffffffffffffffffffffffffffffffffff16630902f1ac6040518163ffffffff1660e01b815260040160606040518083038186803b158015611e6257600080fd5b505afa158015611e76573d6000803e3d6000fd5b505050506040513d601f19601f82011682018060405250810190611e9a9190613365565b50915091506000808b73ffffffffffffffffffffffffffffffffffffffff168673ffffffffffffffffffffffffffffffffffffffff1614611edc578284611edf565b83835b6dffffffffffffffffffffffffffff1691506dffffffffffffffffffffffffffff1691506000611f1a611f118861282b565b846103e5612853565b90506000611f29828585612978565b9050611f568f838a73ffffffffffffffffffffffffffffffffffffffff166120f19092919063ffffffff16565b8d73ffffffffffffffffffffffffffffffffffffffff168873ffffffffffffffffffffffffffffffffffffffff161461202b5773ffffffffffffffffffffffffffffffffffffffff8f1663022c0d9f82600030816040519080825280601f01601f191660200182016040528015611fd4576020820181803683370190505b506040518563ffffffff1660e01b8152600401611ff494939291906135a6565b600060405180830381600087803b15801561200e57600080fd5b505af1158015612022573d6000803e3d6000fd5b505050506120c9565b73ffffffffffffffffffffffffffffffffffffffff8f1663022c0d9f60008330826040519080825280601f01601f191660200182016040528015612076576020820181803683370190505b506040518563ffffffff1660e01b815260040161209694939291906135a6565b600060405180830381600087803b1580156120b057600080fd5b505af11580156120c4573d6000803e3d6000fd5b505050505b6120d28e61282b565b99506120dd8d61282b565b985050505050505050509550959350505050565b81601a5280603a5269a9059cbb00000000000060005260206000604460166000875af13d156001600051141716612130576390b8ec186000526004601cfd5b6000603a52505050565b6040517fdd62ed3e00000000000000000000000000000000000000000000000000000000815230600482015273ffffffffffffffffffffffffffffffffffffffff838116602483015282919085169063dd62ed3e9060440160206040518083038186803b1580156121aa57600080fd5b505afa1580156121be573d6000803e3d6000fd5b505050506040513d601f19601f820116820180604052508101906121e291906133b3565b106121ec57505050565b61222d73ffffffffffffffffffffffffffffffffffffffff8416837fffffffffffffffffffffffffffffffffffffffffffffffffffffffffffffffff6129c7565b505050565b60007f000000000000000000000000000000000000000000000000000000000000000073ffffffffffffffffffffffffffffffffffffffff168473ffffffffffffffffffffffffffffffffffffffff1614806122d957507f000000000000000000000000000000000000000000000000000000000000000073ffffffffffffffffffffffffffffffffffffffff168373ffffffffffffffffffffffffffffffffffffffff16145b156123ef577f000000000000000000000000000000000000000000000000000000000000000073ffffffffffffffffffffffffffffffffffffffff168473ffffffffffffffffffffffffffffffffffffffff16146123735761236e82600081518110611d00577f4e487b7100000000000000000000000000000000000000000000000000000000600052603260045260246000fd5b6123be565b6123be826000815181106123b0577f4e487b7100000000000000000000000000000000000000000000000000000000600052603260045260246000fd5b6020026020010151866126ec565b506123e87f000000000000000000000000000000000000000000000000000000000000000061282b565b905061141a565b61242c82600081518110611d00577f4e487b7100000000000000000000000000000000000000000000000000000000600052603260045260246000fd5b5061246a826001815181106123b0577f4e487b7100000000000000000000000000000000000000000000000000000000600052603260045260246000fd5b506124947f000000000000000000000000000000000000000000000000000000000000000061282b565b9695505050505050565b60006124ab858385611305565b90506124ce73ffffffffffffffffffffffffffffffffffffffff851686836120f1565b60408051600080825260208201928390527f1e7dcc0d0000000000000000000000000000000000000000000000000000000090925273ffffffffffffffffffffffffffffffffffffffff871691631e7dcc0d9161253291879181906024810161348c565b600060405180830381600087803b15801561254c57600080fd5b505af1158015612560573d6000803e3d6000fd5b50505050808211156126b75760006125788284613831565b90507f000000000000000000000000000000000000000000000000000000000000000073ffffffffffffffffffffffffffffffffffffffff168573ffffffffffffffffffffffffffffffffffffffff161415612694576040517f2e1a7d4d000000000000000000000000000000000000000000000000000000008152600481018290527f000000000000000000000000000000000000000000000000000000000000000073ffffffffffffffffffffffffffffffffffffffff1690632e1a7d4d90602401600060405180830381600087803b15801561265657600080fd5b505af115801561266a573d6000803e3d6000fd5b5061268f9250505073ffffffffffffffffffffffffffffffffffffffff851682612a06565b6126b5565b6126b573ffffffffffffffffffffffffffffffffffffffff861685836120f1565b505b5050505050565b6000816000190483118202156126dc5763bac65e5b6000526004601cfd5b50670de0b6b3a764000091020490565b6000806000806000868060200190518101906127089190612c70565b93509350935093508583608001511461272357608083018690525b61275683600001517f0000000000000000000000000000000000000000000000000000000000000000856080015161213a565b6040517f12aa3caf00000000000000000000000000000000000000000000000000000000815273ffffffffffffffffffffffffffffffffffffffff7f000000000000000000000000000000000000000000000000000000000000000016906312aa3caf906127ce908790879087908790600401613513565b6040805180830381600087803b1580156127e757600080fd5b505af11580156127fb573d6000803e3d6000fd5b505050506040513d601f19601f8201168201806040525081019061281f91906133cb565b50979650505050505050565b600061284d73ffffffffffffffffffffffffffffffffffffffff831630612a26565b92915050565b60008083612863846103e86137a3565b61286d91906137f4565b90506000838561287f886103e86137f4565b61288991906137f4565b6128949060046137f4565b61289e91906137f4565b90506000612946826128b085806137f4565b6128ba91906137a3565b70ffffffffffffffffffffffffffffffffff811160071b81811c68ffffffffffffffffff1060061b1781811c64ffffffffff1060051b1781811c62ffffff1060041b1781811c620100000160b5600192831c1b0260121c80830401811c80830401811c80830401811c80830401811c80830401811c80830401811c80830401901c908190048111900390565b905060006129558660026137f4565b9050806129628584613831565b61296c91906137bb565b98975050505050505050565b600080612987856103e56137f4565b9050600061299584836137f4565b90506000826129a6876103e86137f4565b6129b091906137a3565b90506129bc81836137bb565b979650505050505050565b81601a5280603a5269095ea7b300000000000060005260206000604460166000875af13d15600160005114171661213057633e3f8f736000526004601cfd5b60008060008084865af1612a225763b12d13eb6000526004601cfd5b5050565b60006370a08231600052816020526020806024601c865afa601f3d111660205102905092915050565b600067ffffffffffffffff80841115612a6a57612a6a6138b0565b8360051b6020612a7b81830161370e565b868152935080840185838101891015612a9357600080fd5b600093505b87841015612b0f57803585811115612aaf57600080fd5b8701601f81018a13612ac057600080fd5b8035612ad3612ace8261375d565b61370e565b8181528b86838501011115612ae757600080fd5b8186840187830137600091810186019190915283525060019390930192908201908201612a98565b50505050509392505050565b8035612b26816138df565b919050565b60008083601f840112612b3c578182fd5b50813567ffffffffffffffff811115612b53578182fd5b6020830191508360208260051b8501011115612b6e57600080fd5b9250929050565b600082601f830112612b85578081fd5b612b9483833560208501612a4f565b9392505050565b80518015158114612b2657600080fd5b60008083601f840112612bbc578182fd5b50813567ffffffffffffffff811115612bd3578182fd5b602083019150836020828501011115612b6e57600080fd5b600082601f830112612bfb578081fd5b8151612c09612ace8261375d565b818152846020838601011115612c1d578283fd5b612c2e826020830160208701613855565b949350505050565b80516dffffffffffffffffffffffffffff81168114612b2657600080fd5b600060208284031215612c65578081fd5b8151612b94816138df565b600080600080848603610140811215612c87578384fd5b8551612c92816138df565b945060e07fffffffffffffffffffffffffffffffffffffffffffffffffffffffffffffffe082011215612cc3578384fd5b50612ccc6136c2565b6020860151612cda816138df565b81526040860151612cea816138df565b60208201526060860151612cfd816138df565b60408201526080860151612d10816138df565b8060608301525060a0860151608082015260c086015160a082015260e086015160c08201528093505061010085015167ffffffffffffffff80821115612d54578384fd5b612d6088838901612beb565b9350610120870151915080821115612d76578283fd5b50612d8387828801612beb565b91505092959194509250565b6000806000806000806000806000806101208b8d031215612dae578788fd5b8a35612db9816138df565b995060208b0135612dc9816138df565b985060408b0135612dd9816138df565b975060608b0135965060808b0135955060a08b0135612df7816138df565b945060c08b0135612e07816138df565b935060e08b013592506101008b013567ffffffffffffffff811115612e2a578283fd5b612e368d828e01612b2b565b915080935050809150509295989b9194979a5092959850565b6000806000806000806000806000806101008b8d031215612e6e578384fd5b8a35612e79816138df565b995060208b0135612e89816138df565b985060408b0135975060608b0135965060808b0135612ea7816138df565b955060a08b0135945060c08b013567ffffffffffffffff80821115612eca578586fd5b612ed68e838f01612b2b565b909650945060e08d0135915080821115612eee578384fd5b50612e368d828e01612bab565b600080600080600080600080600060e08a8c031215612f18578283fd5b8935612f23816138df565b985060208a0135612f33816138df565b975060408a0135965060608a0135955060808a0135945060a08a013567ffffffffffffffff80821115612f64578485fd5b612f708d838e01612b2b565b909650945060c08c0135915080821115612f88578384fd5b50612f958c828d01612bab565b915080935050809150509295985092959850929598565b60008060008060008060a08789031215612fc4578384fd5b8635612fcf816138df565b9550602087013594506040870135612fe6816138df565b93506060870135612ff6816138df565b9250608087013567ffffffffffffffff811115613011578283fd5b61301d89828a01612bab565b979a9699509497509295939492505050565b600080600080600060a08688031215613046578283fd5b8535613051816138df565b9450602086013593506040860135613068816138df565b92506060860135613078816138df565b949793965091946080013592915050565b6000806000806080858703121561309e578182fd5b84356130a9816138df565b93506020850135925060408501356130c0816138df565b9396929550929360600135925050565b60008060008060008060a087890312156130e8578384fd5b86356130f3816138df565b955060208701359450604087013561310a816138df565b935060608701359250608087013567ffffffffffffffff811115613011578283fd5b60008060008060608587031215613141578182fd5b843561314c816138df565b935060208501359250604085013567ffffffffffffffff81111561316e578283fd5b61317a87828801612bab565b95989497509550505050565b600060208284031215613197578081fd5b612b9482612b9b565b600080600080608085870312156131b5578182fd5b6131be85612b9b565b9350602085015160ff811681146131d3578283fd5b6040860151606090960151949790965092505050565b6000602082840312156131fa578081fd5b813567ffffffffffffffff80821115613211578283fd5b9083019060c08286031215613224578283fd5b61322c6136eb565b8235613237816138df565b81526020830135613247816138df565b602082015261325860408401612b1b565b604082015261326960608401612b1b565b60608201526080830135608082015260a083013582811115613289578485fd5b61329587828601612b75565b60a08301525095945050505050565b6000602082840312156132b5578081fd5b813567ffffffffffffffff808211156132cc578283fd5b9083019060e082860312156132df578283fd5b6132e76136c2565b6132f083612b1b565b81526132fe60208401612b1b565b602082015261330f60408401612b1b565b604082015261332060608401612b1b565b60608201526080830135608082015260a083013560a082015260c08301358281111561334a578485fd5b61335687828601612b75565b60c08301525095945050505050565b600080600060608486031215613379578081fd5b61338284612c36565b925061339060208501612c36565b9150604084015163ffffffff811681146133a8578182fd5b809150509250925092565b6000602082840312156133c4578081fd5b5051919050565b600080604083850312156133dd578182fd5b505080516020909101519092909150565b600081518084526020808501808196508360051b81019150828601855b85811015613435578284038952613423848351613442565b9885019893509084019060010161340b565b5091979650505050505050565b6000815180845261345a816020860160208601613855565b601f017fffffffffffffffffffffffffffffffffffffffffffffffffffffffffffffffe0169290920160200192915050565b600073ffffffffffffffffffffffffffffffffffffffff8087168352808616602084015250836040830152608060608301526124946080830184613442565b73ffffffffffffffffffffffffffffffffffffffff8416815282602082015260606040820152600061141a6060830184613442565b602081526000612b946020830184613442565b600061014073ffffffffffffffffffffffffffffffffffffffff808816845280875116602085015280602088015116604085015280604088015116606085015280606088015116608085015250608086015160a084015260a086015160c084015260c086015160e08401528061010084015261359181840186613442565b90508281036101208401526129bc8185613442565b84815283602082015273ffffffffffffffffffffffffffffffffffffffff831660408201526080606082015260006124946080830184613442565b60208152600073ffffffffffffffffffffffffffffffffffffffff80845116602084015280602085015116604084015280604085015116606084015280606085015116608084015250608083015160a083015260a083015160c080840152612c2e60e08401826133ee565b60208152600073ffffffffffffffffffffffffffffffffffffffff80845116602084015280602085015116604084015280604085015116606084015280606085015116608084015250608083015160a083015260a083015160c083015260c083015160e080840152612c2e6101008401826133ee565b60405160e0810167ffffffffffffffff811182821017156136e5576136e56138b0565b60405290565b60405160c0810167ffffffffffffffff811182821017156136e5576136e56138b0565b604051601f82017fffffffffffffffffffffffffffffffffffffffffffffffffffffffffffffffe016810167ffffffffffffffff81118282101715613755576137556138b0565b604052919050565b600067ffffffffffffffff821115613777576137776138b0565b50601f017fffffffffffffffffffffffffffffffffffffffffffffffffffffffffffffffe01660200190565b600082198211156137b6576137b6613881565b500190565b6000826137ef577f4e487b710000000000000000000000000000000000000000000000000000000081526012600452602481fd5b500490565b6000817fffffffffffffffffffffffffffffffffffffffffffffffffffffffffffffffff048311821515161561382c5761382c613881565b500290565b60008282101561384357613843613881565b500390565b6000612b94368484612a4f565b60005b83811015613870578181015183820152602001613858565b8381111561188d5750506000910152565b7f4e487b7100000000000000000000000000000000000000000000000000000000600052601160045260246000fd5b7f4e487b7100000000000000000000000000000000000000000000000000000000600052604160045260246000fd5b73ffffffffffffffffffffffffffffffffffffffff8116811461130257600080fdfea26469706673582212207c6846511876f5b6f1ab0ea47cad04e8d43136ba878ab5d56a36a5d2428d6ec664736f6c63430008040033",
  "linkReferences": {},
  "deployedLinkReferences": {}
}