{
  "_format": "hh-sol-artifact-1",
  "contractName": "CygnusAltairX",
  "sourceName": "contracts/CygnusAltairX.sol",
  "abi": [
    {
      "inputs": [
        {
          "internalType": "address",
          "name": "factory",
          "type": "address"
        }
      ],
      "stateMutability": "nonpayable",
      "type": "constructor"
    },
    {
      "inputs": [
        {
          "internalType": "uint256",
          "name": "amount",
          "type": "uint256"
        }
      ],
      "name": "CygnusAltair__InsufficientBurnAmountA",
      "type": "error"
    },
    {
      "inputs": [
        {
          "internalType": "uint256",
          "name": "amount",
          "type": "uint256"
        }
      ],
      "name": "CygnusAltair__InsufficientBurnAmountB",
      "type": "error"
    },
    {
      "inputs": [
        {
          "internalType": "uint256",
          "name": "reservesTokenA",
          "type": "uint256"
        },
        {
          "internalType": "uint256",
          "name": "reservesTokenB",
          "type": "uint256"
        }
      ],
      "name": "CygnusAltair__InsufficientReserves",
      "type": "error"
    },
    {
      "inputs": [
        {
          "internalType": "uint256",
          "name": "amountTokenA",
          "type": "uint256"
        }
      ],
      "name": "CygnusAltair__InsufficientTokenAAmount",
      "type": "error"
    },
    {
      "inputs": [
        {
          "internalType": "uint256",
          "name": "amountTokenA",
          "type": "uint256"
        }
      ],
      "name": "CygnusAltair__InsufficientTokenAmount",
      "type": "error"
    },
    {
      "inputs": [
        {
          "internalType": "uint256",
          "name": "amountTokenB",
          "type": "uint256"
        }
      ],
      "name": "CygnusAltair__InsufficientTokenBAmount",
      "type": "error"
    },
    {
      "inputs": [
        {
          "internalType": "address",
          "name": "redeemer",
          "type": "address"
        },
        {
          "internalType": "uint256",
          "name": "redeemTokens",
          "type": "uint256"
        }
      ],
      "name": "CygnusAltair__InvalidRedeemAmount",
      "type": "error"
    },
    {
      "inputs": [
        {
          "internalType": "address",
          "name": "sender",
          "type": "address"
        },
        {
          "internalType": "address",
          "name": "borrowable",
          "type": "address"
        }
      ],
      "name": "CygnusAltair__MsgSenderNotBorrowable",
      "type": "error"
    },
    {
      "inputs": [
        {
          "internalType": "address",
          "name": "sender",
          "type": "address"
        },
        {
          "internalType": "address",
          "name": "origin",
          "type": "address"
        },
        {
          "internalType": "address",
          "name": "collateral",
          "type": "address"
        }
      ],
      "name": "CygnusAltair__MsgSenderNotCollateral",
      "type": "error"
    },
    {
      "inputs": [
        {
          "internalType": "address",
          "name": "sender",
          "type": "address"
        },
        {
          "internalType": "address",
          "name": "origin",
          "type": "address"
        },
        {
          "internalType": "address",
          "name": "borrower",
          "type": "address"
        }
      ],
      "name": "CygnusAltair__MsgSenderNotRouter",
      "type": "error"
    },
    {
      "inputs": [
        {
          "internalType": "address",
          "name": "poolToken",
          "type": "address"
        }
      ],
      "name": "CygnusAltair__NotNativeTokenSender",
      "type": "error"
    },
    {
      "inputs": [
        {
          "internalType": "uint256",
          "name": "",
          "type": "uint256"
        }
      ],
      "name": "CygnusAltair__TransactionExpired",
      "type": "error"
    },
    {
      "inputs": [
        {
          "internalType": "uint256",
          "name": "prod1",
          "type": "uint256"
        }
      ],
      "name": "PRBMath__MulDivFixedPointOverflow",
      "type": "error"
    },
    {
      "inputs": [
        {
          "internalType": "address",
          "name": "target",
          "type": "address"
        }
      ],
      "name": "SafeErc20__CallToNonContract",
      "type": "error"
    },
    {
      "inputs": [],
      "name": "SafeErc20__NoReturnData",
      "type": "error"
    },
    {
      "inputs": [],
      "name": "JOE_ADAPTER",
      "outputs": [
        {
          "internalType": "contract IYakAdapter",
          "name": "",
          "type": "address"
        }
      ],
      "stateMutability": "view",
      "type": "function"
    },
    {
      "inputs": [],
      "name": "LOCAL_BYTES",
      "outputs": [
        {
          "internalType": "bytes",
          "name": "",
          "type": "bytes"
        }
      ],
      "stateMutability": "view",
      "type": "function"
    },
    {
      "inputs": [],
      "name": "PANGOLIN_ADAPTER",
      "outputs": [
        {
          "internalType": "contract IYakAdapter",
          "name": "",
          "type": "address"
        }
      ],
      "stateMutability": "view",
      "type": "function"
    },
    {
      "inputs": [],
      "name": "PLATYPUS_ADAPTER",
      "outputs": [
        {
          "internalType": "contract IYakAdapter",
          "name": "",
          "type": "address"
        }
      ],
      "stateMutability": "view",
      "type": "function"
    },
    {
      "inputs": [
        {
          "internalType": "address",
          "name": "sender",
          "type": "address"
        },
        {
          "internalType": "address",
          "name": "borrower",
          "type": "address"
        },
        {
          "internalType": "uint256",
          "name": "borrowAmount",
          "type": "uint256"
        },
        {
          "internalType": "bytes",
          "name": "data",
          "type": "bytes"
        }
      ],
      "name": "altairBorrow_O9E",
      "outputs": [],
      "stateMutability": "nonpayable",
      "type": "function"
    },
    {
      "inputs": [
        {
          "internalType": "address",
          "name": "sender",
          "type": "address"
        },
        {
          "internalType": "uint256",
          "name": "redeemAmount",
          "type": "uint256"
        },
        {
          "internalType": "bytes",
          "name": "data",
          "type": "bytes"
        }
      ],
      "name": "altairRedeem_u91A",
      "outputs": [],
      "stateMutability": "nonpayable",
      "type": "function"
    },
    {
      "inputs": [
        {
          "internalType": "address",
          "name": "cygnusDai",
          "type": "address"
        },
        {
          "internalType": "uint256",
          "name": "amount",
          "type": "uint256"
        },
        {
          "internalType": "address",
          "name": "recipient",
          "type": "address"
        },
        {
          "internalType": "uint256",
          "name": "deadline",
          "type": "uint256"
        },
        {
          "internalType": "bytes",
          "name": "permitData",
          "type": "bytes"
        }
      ],
      "name": "borrow",
      "outputs": [],
      "stateMutability": "nonpayable",
      "type": "function"
    },
    {
      "inputs": [],
      "name": "dai",
      "outputs": [
        {
          "internalType": "address",
          "name": "",
          "type": "address"
        }
      ],
      "stateMutability": "view",
      "type": "function"
    },
    {
      "inputs": [
        {
          "internalType": "address",
          "name": "collateral",
          "type": "address"
        },
        {
          "internalType": "uint256",
          "name": "redeemTokens",
          "type": "uint256"
        },
        {
          "internalType": "uint256",
          "name": "deadline",
          "type": "uint256"
        },
        {
          "internalType": "bytes",
          "name": "permitData",
          "type": "bytes"
        }
      ],
      "name": "deleverage",
      "outputs": [],
      "stateMutability": "nonpayable",
      "type": "function"
    },
    {
      "inputs": [],
      "name": "hangar18",
      "outputs": [
        {
          "internalType": "address",
          "name": "",
          "type": "address"
        }
      ],
      "stateMutability": "view",
      "type": "function"
    },
    {
      "inputs": [
        {
          "internalType": "address",
          "name": "collateral",
          "type": "address"
        },
        {
          "internalType": "uint256",
          "name": "amountDAIDesired",
          "type": "uint256"
        },
        {
          "internalType": "address",
          "name": "recipient",
          "type": "address"
        },
        {
          "internalType": "uint256",
          "name": "deadline",
          "type": "uint256"
        },
        {
          "internalType": "bytes",
          "name": "permitData",
          "type": "bytes"
        }
      ],
      "name": "leverage",
      "outputs": [],
      "stateMutability": "nonpayable",
      "type": "function"
    },
    {
      "inputs": [
        {
          "internalType": "address",
          "name": "cygnusDai",
          "type": "address"
        },
        {
          "internalType": "uint256",
          "name": "amountMax",
          "type": "uint256"
        },
        {
          "internalType": "address",
          "name": "borrower",
          "type": "address"
        },
        {
          "internalType": "address",
          "name": "recipient",
          "type": "address"
        },
        {
          "internalType": "uint256",
          "name": "deadline",
          "type": "uint256"
        }
      ],
      "name": "liquidate",
      "outputs": [
        {
          "internalType": "uint256",
          "name": "amount",
          "type": "uint256"
        },
        {
          "internalType": "uint256",
          "name": "seizeTokens",
          "type": "uint256"
        }
      ],
      "stateMutability": "nonpayable",
      "type": "function"
    },
    {
      "inputs": [
        {
          "internalType": "address",
          "name": "cygnusDai",
          "type": "address"
        },
        {
          "internalType": "uint256",
          "name": "amountMax",
          "type": "uint256"
        },
        {
          "internalType": "address",
          "name": "borrower",
          "type": "address"
        },
        {
          "internalType": "address",
          "name": "recipient",
          "type": "address"
        },
        {
          "internalType": "uint256",
          "name": "deadline",
          "type": "uint256"
        }
      ],
      "name": "liquidateToDai",
      "outputs": [
        {
          "internalType": "uint256",
          "name": "amountDai",
          "type": "uint256"
        }
      ],
      "stateMutability": "nonpayable",
      "type": "function"
    },
    {
      "inputs": [
        {
          "internalType": "address",
          "name": "terminalToken",
          "type": "address"
        },
        {
          "internalType": "uint256",
          "name": "amount",
          "type": "uint256"
        },
        {
          "internalType": "address",
          "name": "recipient",
          "type": "address"
        },
        {
          "internalType": "uint256",
          "name": "deadline",
          "type": "uint256"
        }
      ],
      "name": "mint",
      "outputs": [
        {
          "internalType": "uint256",
          "name": "tokens",
          "type": "uint256"
        }
      ],
      "stateMutability": "nonpayable",
      "type": "function"
    },
    {
      "inputs": [
        {
          "internalType": "address",
          "name": "collateral",
          "type": "address"
        },
        {
          "internalType": "uint256",
          "name": "amount",
          "type": "uint256"
        },
        {
          "internalType": "address",
          "name": "recipient",
          "type": "address"
        },
        {
          "internalType": "uint256",
          "name": "deadline",
          "type": "uint256"
        },
        {
          "internalType": "bytes",
          "name": "permitData",
          "type": "bytes"
        }
      ],
      "name": "mintCollateral",
      "outputs": [
        {
          "internalType": "uint256",
          "name": "tokens",
          "type": "uint256"
        }
      ],
      "stateMutability": "nonpayable",
      "type": "function"
    },
    {
      "inputs": [],
      "name": "nativeToken",
      "outputs": [
        {
          "internalType": "address",
          "name": "",
          "type": "address"
        }
      ],
      "stateMutability": "view",
      "type": "function"
    },
    {
      "inputs": [
        {
          "internalType": "address",
          "name": "terminalToken",
          "type": "address"
        },
        {
          "internalType": "uint256",
          "name": "tokens",
          "type": "uint256"
        },
        {
          "internalType": "address",
          "name": "recipient",
          "type": "address"
        },
        {
          "internalType": "uint256",
          "name": "deadline",
          "type": "uint256"
        },
        {
          "internalType": "bytes",
          "name": "permitData",
          "type": "bytes"
        }
      ],
      "name": "redeem",
      "outputs": [
        {
          "internalType": "uint256",
          "name": "amount",
          "type": "uint256"
        }
      ],
      "stateMutability": "nonpayable",
      "type": "function"
    },
    {
      "inputs": [
        {
          "internalType": "address",
          "name": "cygnusDai",
          "type": "address"
        },
        {
          "internalType": "uint256",
          "name": "amountMax",
          "type": "uint256"
        },
        {
          "internalType": "address",
          "name": "borrower",
          "type": "address"
        },
        {
          "internalType": "uint256",
          "name": "deadline",
          "type": "uint256"
        }
      ],
      "name": "repay",
      "outputs": [
        {
          "internalType": "uint256",
          "name": "amount",
          "type": "uint256"
        }
      ],
      "stateMutability": "nonpayable",
      "type": "function"
    },
    {
      "stateMutability": "payable",
      "type": "receive"
    }
  ],
  "bytecode": "0x60e06040523480156200001157600080fd5b506040516200456c3803806200456c83398101604081905262000034916200016e565b806001600160a01b03166080816001600160a01b031660601b81525050806001600160a01b031663e1758bd86040518163ffffffff1660e01b815260040160206040518083038186803b1580156200008b57600080fd5b505afa158015620000a0573d6000803e3d6000fd5b505050506040513d601f19601f82011682018060405250810190620000c691906200016e565b6001600160a01b031660a0816001600160a01b031660601b81525050806001600160a01b031663f4b9fa756040518163ffffffff1660e01b815260040160206040518083038186803b1580156200011c57600080fd5b505afa15801562000131573d6000803e3d6000fd5b505050506040513d601f19601f820116820180604052508101906200015791906200016e565b60601b6001600160601b03191660c052506200019e565b60006020828403121562000180578081fd5b81516001600160a01b038116811462000197578182fd5b9392505050565b60805160601c60a05160601c60c05160601c6142c3620002a96000396000818161045d01528181610b1701528181611f2c01528181611f8101528181611fd6015281816122260152818161227801528181612414015281816126c50152818161271a0152818161276f01526127d9015260008181610135015281816103f50152818161202d0152818161205d01528181612084015281816120d90152818161212e01528181612185015281816121b0015281816121db015281816122050152818161224a015281816127fa0152818161282101528181612876015281816128cb015281816129280152818161294d015281816131e9015261326a0152600061042901526142c36000f3fe60806040526004361061012d5760003560e01c8063953ec666116100a5578063dbe5f2fb11610074578063e8a24e1d11610059578063e8a24e1d14610417578063f4b9fa751461044b578063fff48b1f1461047f57600080fd5b8063dbe5f2fb146103c3578063e1758bd8146103e357600080fd5b8063953ec6661461032c578063989bebcf1461035b578063cd7dbbc01461037b578063d9ce75a1146103a357600080fd5b806343e26448116100fc5780636aee7c1e116100e15780636aee7c1e146102c45780638316b700146102e457806389f9f06f1461030c57600080fd5b806343e264481461026f5780635c1e64041461028f57600080fd5b80631172d362146101af5780631f1cc5bc146102015780633c173a4f1461022f5780633eefb3791461024f57600080fd5b366101aa57337f000000000000000000000000000000000000000000000000000000000000000073ffffffffffffffffffffffffffffffffffffffff16146101a8576040517fb58564160000000000000000000000000000000000000000000000000000000081523360048201526024015b60405180910390fd5b005b600080fd5b3480156101bb57600080fd5b506101d7736da140b4004d1eccfc5fffeb010bb7a58575b44681565b60405173ffffffffffffffffffffffffffffffffffffffff90911681526020015b60405180910390f35b34801561020d57600080fd5b5061022161021c366004613c6b565b61049f565b6040519081526020016101f8565b34801561023b57600080fd5b5061022161024a366004613baa565b61062e565b34801561025b57600080fd5b5061022161026a366004613b50565b6106d0565b34801561027b57600080fd5b5061022161028a366004613bf1565b610ba7565b34801561029b57600080fd5b506102af6102aa366004613b50565b610c8d565b604080519283526020830191909152016101f8565b3480156102d057600080fd5b506102216102df366004613baa565b610dab565b3480156102f057600080fd5b506101d773db66686ac8bea67400cf9e5dd6c8849575b9014881565b34801561031857600080fd5b506101a8610327366004613dab565b610eb1565b34801561033857600080fd5b5061034e60408051600081526020810190915281565b6040516101f891906140da565b34801561036757600080fd5b506101a8610376366004613d51565b611294565b34801561038757600080fd5b506101d7733614657edc3cb90ba420e5f4f61679777e4974e381565b3480156103af57600080fd5b506101a86103be366004613bf1565b6113cc565b3480156103cf57600080fd5b506101a86103de366004613c6b565b611536565b3480156103ef57600080fd5b506101d77f000000000000000000000000000000000000000000000000000000000000000081565b34801561042357600080fd5b506101d77f000000000000000000000000000000000000000000000000000000000000000081565b34801561045757600080fd5b506101d77f000000000000000000000000000000000000000000000000000000000000000081565b34801561048b57600080fd5b506101a861049a366004613adf565b6115eb565b6000826104ab816119b1565b6104b7878786866119f1565b73ffffffffffffffffffffffffffffffffffffffff87166323b872dd336040517fffffffff0000000000000000000000000000000000000000000000000000000060e084901b16815273ffffffffffffffffffffffffffffffffffffffff9182166004820152908a16602482015260448101899052606401602060405180830381600087803b15801561054957600080fd5b505af115801561055d573d6000803e3d6000fd5b505050506040513d601f19601f820116820180604052508101906105819190613df6565b506040517f95a2251f00000000000000000000000000000000000000000000000000000000815273ffffffffffffffffffffffffffffffffffffffff86811660048301528816906395a2251f90602401602060405180830381600087803b1580156105eb57600080fd5b505af11580156105ff573d6000803e3d6000fd5b505050506040513d601f19601f820116820180604052508101906106239190613fc5565b979650505050505050565b60008161063a816119b1565b6106c6868773ffffffffffffffffffffffffffffffffffffffff16636f307dc36040518163ffffffff1660e01b8152600401602060405180830381600087803b15801561068657600080fd5b505af115801561069a573d6000803e3d6000fd5b505050506040513d601f19601f820116820180604052508101906106be9190613ac3565b873388611b22565b9695505050505050565b6000816106dc816119b1565b60006106e9888888611c2b565b905061078f3389838b73ffffffffffffffffffffffffffffffffffffffff16636f307dc36040518163ffffffff1660e01b8152600401602060405180830381600087803b15801561073957600080fd5b505af115801561074d573d6000803e3d6000fd5b505050506040513d601f19601f820116820180604052508101906107719190613ac3565b73ffffffffffffffffffffffffffffffffffffffff16929190611d49565b6040517f86b9d81f00000000000000000000000000000000000000000000000000000000815273ffffffffffffffffffffffffffffffffffffffff87811660048301528681166024830152600091908a16906386b9d81f90604401602060405180830381600087803b15801561080457600080fd5b505af1158015610818573d6000803e3d6000fd5b505050506040513d601f19601f8201168201806040525081019061083c9190613fc5565b905060008973ffffffffffffffffffffffffffffffffffffffff1663d8dfeb456040518163ffffffff1660e01b815260040160206040518083038186803b15801561088657600080fd5b505afa15801561089a573d6000803e3d6000fd5b505050506040513d601f19601f820116820180604052508101906108be9190613ac3565b905060006108e0828433604080516000808252602082019092528c915061049f565b905060008273ffffffffffffffffffffffffffffffffffffffff16636f307dc36040518163ffffffff1660e01b8152600401602060405180830381600087803b15801561092c57600080fd5b505af1158015610940573d6000803e3d6000fd5b505050506040513d601f19601f820116820180604052508101906109649190613ac3565b6040517f23b872dd00000000000000000000000000000000000000000000000000000000815273ffffffffffffffffffffffffffffffffffffffff8b81166004830152821660248201819052604482018590529192506323b872dd90606401602060405180830381600087803b1580156109dd57600080fd5b505af11580156109f1573d6000803e3d6000fd5b505050506040513d601f19601f82011682018060405250810190610a159190613df6565b506040517f89afcb44000000000000000000000000000000000000000000000000000000008152306004820152600090819073ffffffffffffffffffffffffffffffffffffffff8416906389afcb44906024016040805180830381600087803b158015610a8157600080fd5b505af1158015610a95573d6000803e3d6000fd5b505050506040513d601f19601f82011682018060405250810190610ab99190613fdd565b91509150610ac8828285611e25565b6040517fa9059cbb00000000000000000000000000000000000000000000000000000000815273ffffffffffffffffffffffffffffffffffffffff8d8116600483015260248201839052919a507f00000000000000000000000000000000000000000000000000000000000000009091169063a9059cbb90604401602060405180830381600087803b158015610b5d57600080fd5b505af1158015610b71573d6000803e3d6000fd5b505050506040513d601f19601f82011682018060405250810190610b959190613df6565b50505050505050505095945050505050565b600083610bb3816119b1565b610bf588888787878080601f0160208091040260200160405190810160405280939291908181526020018383808284376000920191909152506119f192505050565b610c81888973ffffffffffffffffffffffffffffffffffffffff16636f307dc36040518163ffffffff1660e01b8152600401602060405180830381600087803b158015610c4157600080fd5b505af1158015610c55573d6000803e3d6000fd5b505050506040513d601f19601f82011682018060405250810190610c799190613ac3565b89338a611b22565b98975050505050505050565b60008082610c9a816119b1565b610ca5888888611c2b565b9250610cf53389858b73ffffffffffffffffffffffffffffffffffffffff16636f307dc36040518163ffffffff1660e01b8152600401602060405180830381600087803b15801561073957600080fd5b6040517f86b9d81f00000000000000000000000000000000000000000000000000000000815273ffffffffffffffffffffffffffffffffffffffff878116600483015286811660248301528916906386b9d81f90604401602060405180830381600087803b158015610d6657600080fd5b505af1158015610d7a573d6000803e3d6000fd5b505050506040513d601f19601f82011682018060405250810190610d9e9190613fc5565b9150509550959350505050565b600081610db7816119b1565b610dc2868686611c2b565b9150610e123387848973ffffffffffffffffffffffffffffffffffffffff16636f307dc36040518163ffffffff1660e01b8152600401602060405180830381600087803b15801561073957600080fd5b60408051600080825260208201928390527f1e7dcc0d0000000000000000000000000000000000000000000000000000000090925273ffffffffffffffffffffffffffffffffffffffff881691631e7dcc0d91610e76918891819060248101614066565b600060405180830381600087803b158015610e9057600080fd5b505af1158015610ea4573d6000803e3d6000fd5b5050505050949350505050565b82610ebb816119b1565b60008673ffffffffffffffffffffffffffffffffffffffff16636f307dc36040518163ffffffff1660e01b8152600401602060405180830381600087803b158015610f0557600080fd5b505af1158015610f19573d6000803e3d6000fd5b505050506040513d601f19601f82011682018060405250810190610f3d9190613ac3565b905060008611610f82576040517f0c1055d00000000000000000000000000000000000000000000000000000000081523360048201526024810187905260440161019f565b60008773ffffffffffffffffffffffffffffffffffffffff16633ba0b9a96040518163ffffffff1660e01b8152600401602060405180830381600087803b158015610fcc57600080fd5b505af1158015610fe0573d6000803e3d6000fd5b505050506040513d601f19601f820116820180604052508101906110049190613fc5565b9050600061101d8261101760018b6141ca565b9061229c565b905061106189898989898080601f0160208091040260200160405190810160405280939291908181526020018383808284376000920191909152506119f192505050565b60006040518060c001604052808573ffffffffffffffffffffffffffffffffffffffff1681526020018b73ffffffffffffffffffffffffffffffffffffffff1681526020018b73ffffffffffffffffffffffffffffffffffffffff1663adbb25976040518163ffffffff1660e01b815260040160206040518083038186803b1580156110ec57600080fd5b505afa158015611100573d6000803e3d6000fd5b505050506040513d601f19601f820116820180604052508101906111249190613ac3565b73ffffffffffffffffffffffffffffffffffffffff1681526020013373ffffffffffffffffffffffffffffffffffffffff1681526020018a8152602001838152506040516020016111d29190600060c08201905073ffffffffffffffffffffffffffffffffffffffff808451168352806020850151166020840152806040850151166040840152806060850151166060840152506080830151608083015260a083015160a083015292915050565b604080517fffffffffffffffffffffffffffffffffffffffffffffffffffffffffffffffe0818403018152908290527f8e5c2532000000000000000000000000000000000000000000000000000000008252915073ffffffffffffffffffffffffffffffffffffffff8b1690638e5c253290611256903090869086906004016140a5565b600060405180830381600087803b15801561127057600080fd5b505af1158015611284573d6000803e3d6000fd5b5050505050505050505050505050565b60006112a282840184613edd565b602081015190915073ffffffffffffffffffffffffffffffffffffffff861630146113255760608201516040517f52feed2000000000000000000000000000000000000000000000000000000000815273ffffffffffffffffffffffffffffffffffffffff8089166004830152326024830152909116604482015260640161019f565b3373ffffffffffffffffffffffffffffffffffffffff82161461139e5760208201516040517ff84f314300000000000000000000000000000000000000000000000000000000815233600482015232602482015273ffffffffffffffffffffffffffffffffffffffff909116604482015260640161019f565b6113c4826000015183606001518460200151856040015186608001518760a001516122af565b505050505050565b826113d6816119b1565b60008773ffffffffffffffffffffffffffffffffffffffff16636f307dc36040518163ffffffff1660e01b8152600401602060405180830381600087803b15801561142057600080fd5b505af1158015611434573d6000803e3d6000fd5b505050506040513d601f19601f820116820180604052508101906114589190613ac3565b905060008873ffffffffffffffffffffffffffffffffffffffff1663adbb25976040518163ffffffff1660e01b815260040160206040518083038186803b1580156114a257600080fd5b505afa1580156114b6573d6000803e3d6000fd5b505050506040513d601f19601f820116820180604052508101906114da9190613ac3565b905061151e81898888888080601f0160208091040260200160405190810160405280939291908181526020018383808284376000920191909152506124e992505050565b61152b828a838b8b612569565b505050505050505050565b81611540816119b1565b61154c868685856124e9565b604080516000815260208101918290527f1e7dcc0d0000000000000000000000000000000000000000000000000000000090915273ffffffffffffffffffffffffffffffffffffffff871690631e7dcc0d906115b190339088908a9060248101614066565b600060405180830381600087803b1580156115cb57600080fd5b505af11580156115df573d6000803e3d6000fd5b50505050505050505050565b60006115f982840184613e59565b604081015190915073ffffffffffffffffffffffffffffffffffffffff87163014611676576040517f52feed2000000000000000000000000000000000000000000000000000000000815273ffffffffffffffffffffffffffffffffffffffff80891660048301523260248301528716604482015260640161019f565b3373ffffffffffffffffffffffffffffffffffffffff8216146116e3576040517faead146700000000000000000000000000000000000000000000000000000000815233600482015273ffffffffffffffffffffffffffffffffffffffff8216602482015260440161019f565b6000826000015173ffffffffffffffffffffffffffffffffffffffff16630dfe16816040518163ffffffff1660e01b815260040160206040518083038186803b15801561172f57600080fd5b505afa158015611743573d6000803e3d6000fd5b505050506040513d601f19601f820116820180604052508101906117679190613ac3565b90506000836000015173ffffffffffffffffffffffffffffffffffffffff1663d21220a76040518163ffffffff1660e01b815260040160206040518083038186803b1580156117b557600080fd5b505afa1580156117c9573d6000803e3d6000fd5b505050506040513d601f19601f820116820180604052508101906117ed9190613ac3565b9050600080611802866000015185858c6126bd565b8751919350915061182b9073ffffffffffffffffffffffffffffffffffffffff86169084612aa5565b855161184f9073ffffffffffffffffffffffffffffffffffffffff85169083612aa5565b855160208701516040517f6a62784200000000000000000000000000000000000000000000000000000000815273ffffffffffffffffffffffffffffffffffffffff9182166004820152911690636a62784290602401602060405180830381600087803b1580156118bf57600080fd5b505af11580156118d3573d6000803e3d6000fd5b505050506040513d601f19601f820116820180604052508101906118f79190613fc5565b50602086015160608701516040517f6a62784200000000000000000000000000000000000000000000000000000000815273ffffffffffffffffffffffffffffffffffffffff9182166004820152911690636a62784290602401602060405180830381600087803b15801561196b57600080fd5b505af115801561197f573d6000803e3d6000fd5b505050506040513d601f19601f820116820180604052508101906119a39190613fc5565b505050505050505050505050565b804211156119ee576040517fd8bf61260000000000000000000000000000000000000000000000000000000081526004810182905260240161019f565b50565b80516119fc57611b1c565b60008060008084806020019051810190611a169190613e10565b9350935093509350600084611a2b5787611a4d565b7fffffffffffffffffffffffffffffffffffffffffffffffffffffffffffffffff5b905073ffffffffffffffffffffffffffffffffffffffff891663d505accf335b6040517fffffffff0000000000000000000000000000000000000000000000000000000060e084901b16815273ffffffffffffffffffffffffffffffffffffffff909116600482015230602482015260448101849052606481018a905260ff8716608482015260a4810186905260c4810185905260e401600060405180830381600087803b158015611afe57600080fd5b505af1158015611b12573d6000803e3d6000fd5b5050505050505050505b50505050565b600073ffffffffffffffffffffffffffffffffffffffff8316301415611b6857611b6373ffffffffffffffffffffffffffffffffffffffff86168786612aa5565b611b8a565b611b8a73ffffffffffffffffffffffffffffffffffffffff8616848887611d49565b6040517f6a62784200000000000000000000000000000000000000000000000000000000815273ffffffffffffffffffffffffffffffffffffffff8381166004830152871690636a62784290602401602060405180830381600087803b158015611bf357600080fd5b505af1158015611c07573d6000803e3d6000fd5b505050506040513d601f19601f820116820180604052508101906106c69190613fc5565b60008373ffffffffffffffffffffffffffffffffffffffff1663a6afed956040518163ffffffff1660e01b8152600401600060405180830381600087803b158015611c7557600080fd5b505af1158015611c89573d6000803e3d6000fd5b50506040517f7d6af07900000000000000000000000000000000000000000000000000000000815273ffffffffffffffffffffffffffffffffffffffff85811660048301526000935087169150637d6af0799060240160206040518083038186803b158015611cf757600080fd5b505afa158015611d0b573d6000803e3d6000fd5b505050506040513d601f19601f82011682018060405250810190611d2f9190613fc5565b9050808410611d3e5780611d40565b835b95945050505050565b60405173ffffffffffffffffffffffffffffffffffffffff80851660248301528316604482015260648101829052611b1c9085907f23b872dd00000000000000000000000000000000000000000000000000000000906084015b604080517fffffffffffffffffffffffffffffffffffffffffffffffffffffffffffffffe08184030181529190526020810180517bffffffffffffffffffffffffffffffffffffffffffffffffffffffff167fffffffff0000000000000000000000000000000000000000000000000000000090931692909217909152612b00565b6000808273ffffffffffffffffffffffffffffffffffffffff16630dfe16816040518163ffffffff1660e01b815260040160206040518083038186803b158015611e6e57600080fd5b505afa158015611e82573d6000803e3d6000fd5b505050506040513d601f19601f82011682018060405250810190611ea69190613ac3565b905060008373ffffffffffffffffffffffffffffffffffffffff1663d21220a76040518163ffffffff1660e01b815260040160206040518083038186803b158015611ef057600080fd5b505afa158015611f04573d6000803e3d6000fd5b505050506040513d601f19601f82011682018060405250810190611f289190613ac3565b90507f000000000000000000000000000000000000000000000000000000000000000073ffffffffffffffffffffffffffffffffffffffff168273ffffffffffffffffffffffffffffffffffffffff161480611fcf57507f000000000000000000000000000000000000000000000000000000000000000073ffffffffffffffffffffffffffffffffffffffff168173ffffffffffffffffffffffffffffffffffffffff16145b15612082577f000000000000000000000000000000000000000000000000000000000000000073ffffffffffffffffffffffffffffffffffffffff168273ffffffffffffffffffffffffffffffffffffffff161461205757612052827f000000000000000000000000000000000000000000000000000000000000000088612b96565b612200565b612052817f000000000000000000000000000000000000000000000000000000000000000087612b96565b7f000000000000000000000000000000000000000000000000000000000000000073ffffffffffffffffffffffffffffffffffffffff168273ffffffffffffffffffffffffffffffffffffffff16148061212757507f000000000000000000000000000000000000000000000000000000000000000073ffffffffffffffffffffffffffffffffffffffff168173ffffffffffffffffffffffffffffffffffffffff16145b156121aa577f000000000000000000000000000000000000000000000000000000000000000073ffffffffffffffffffffffffffffffffffffffff168273ffffffffffffffffffffffffffffffffffffffff161461205757612052827f000000000000000000000000000000000000000000000000000000000000000088612b96565b6121d5827f000000000000000000000000000000000000000000000000000000000000000088612b96565b612200817f000000000000000000000000000000000000000000000000000000000000000087612b96565b6122737f00000000000000000000000000000000000000000000000000000000000000007f000000000000000000000000000000000000000000000000000000000000000061226e7f0000000000000000000000000000000000000000000000000000000000000000612f52565b612b96565b6106c67f0000000000000000000000000000000000000000000000000000000000000000612f52565b60006122a88383612ff8565b9392505050565b6040517fa9059cbb00000000000000000000000000000000000000000000000000000000815273ffffffffffffffffffffffffffffffffffffffff871660048201819052602482018390529063a9059cbb90604401602060405180830381600087803b15801561231e57600080fd5b505af1158015612332573d6000803e3d6000fd5b505050506040513d601f19601f820116820180604052508101906123569190613df6565b506040517f89afcb44000000000000000000000000000000000000000000000000000000008152306004820152600090819073ffffffffffffffffffffffffffffffffffffffff8916906389afcb44906024016040805180830381600087803b1580156123c257600080fd5b505af11580156123d6573d6000803e3d6000fd5b505050506040513d601f19601f820116820180604052508101906123fa9190613fdd565b9092509050600061240c83838b611e25565b905061243a867f00000000000000000000000000000000000000000000000000000000000000008a8461310b565b6040517f23b872dd00000000000000000000000000000000000000000000000000000000815273ffffffffffffffffffffffffffffffffffffffff898116600483015288166024820181905260448201879052906323b872dd90606401602060405180830381600087803b1580156124b157600080fd5b505af11580156124c5573d6000803e3d6000fd5b505050506040513d601f19601f820116820180604052508101906115df9190613df6565b80516124f457611b1c565b6000806000808480602001905181019061250e9190613e10565b93509350935093506000846125235787612545565b7fffffffffffffffffffffffffffffffffffffffffffffffffffffffffffffffff5b905073ffffffffffffffffffffffffffffffffffffffff8916639e79b55c33611a6d565b600060405180608001604052808773ffffffffffffffffffffffffffffffffffffffff1681526020018673ffffffffffffffffffffffffffffffffffffffff1681526020018573ffffffffffffffffffffffffffffffffffffffff1681526020018373ffffffffffffffffffffffffffffffffffffffff168152506040516020016126379190815173ffffffffffffffffffffffffffffffffffffffff9081168252602080840151821690830152604080840151821690830152606092830151169181019190915260800190565b604080517fffffffffffffffffffffffffffffffffffffffffffffffffffffffffffffffe0818403018152908290527f1e7dcc0d000000000000000000000000000000000000000000000000000000008252915073ffffffffffffffffffffffffffffffffffffffff851690631e7dcc0d906115b1908590309088908790600401614066565b6000806000807f000000000000000000000000000000000000000000000000000000000000000073ffffffffffffffffffffffffffffffffffffffff168773ffffffffffffffffffffffffffffffffffffffff16148061276857507f000000000000000000000000000000000000000000000000000000000000000073ffffffffffffffffffffffffffffffffffffffff168673ffffffffffffffffffffffffffffffffffffffff16145b156127d4577f000000000000000000000000000000000000000000000000000000000000000073ffffffffffffffffffffffffffffffffffffffff168773ffffffffffffffffffffffffffffffffffffffff16146127c75785876127ca565b86865b9092509050612977565b61281f7f00000000000000000000000000000000000000000000000000000000000000007f000000000000000000000000000000000000000000000000000000000000000087612b96565b7f000000000000000000000000000000000000000000000000000000000000000073ffffffffffffffffffffffffffffffffffffffff168773ffffffffffffffffffffffffffffffffffffffff1614806128c457507f000000000000000000000000000000000000000000000000000000000000000073ffffffffffffffffffffffffffffffffffffffff168673ffffffffffffffffffffffffffffffffffffffff16145b15612923577f000000000000000000000000000000000000000000000000000000000000000073ffffffffffffffffffffffffffffffffffffffff168773ffffffffffffffffffffffffffffffffffffffff16146127c75785876127ca565b6129717f00000000000000000000000000000000000000000000000000000000000000008861226e7f0000000000000000000000000000000000000000000000000000000000000000612f52565b50859050845b6000808973ffffffffffffffffffffffffffffffffffffffff16630902f1ac6040518163ffffffff1660e01b815260040160606040518083038186803b1580156129c057600080fd5b505afa1580156129d4573d6000803e3d6000fd5b505050506040513d601f19601f820116820180604052508101906129f89190613f77565b506dffffffffffffffffffffffffffff1691506dffffffffffffffffffffffffffff16915060008973ffffffffffffffffffffffffffffffffffffffff168573ffffffffffffffffffffffffffffffffffffffff1614612a585781612a5a565b825b90506000612a73612a6a87612f52565b836103e5613312565b9050612a80868683612b96565b612a898b612f52565b9750612a948a612f52565b965050505050505094509492505050565b60405173ffffffffffffffffffffffffffffffffffffffff8316602482015260448101829052612afb9084907fa9059cbb0000000000000000000000000000000000000000000000000000000090606401611da3565b505050565b6000612b4283836040518060400160405280601581526020017f5361666545726332304c6f774c6576656c43616c6c00000000000000000000008152506133a4565b805190915015612afb5780806020019051810190612b609190613df6565b612afb576040517f64d6fc4d00000000000000000000000000000000000000000000000000000000815260040160405180910390fd5b6040517fef99893a0000000000000000000000000000000000000000000000000000000081526004810182905273ffffffffffffffffffffffffffffffffffffffff80851660248301528316604482015260009081908190736da140b4004d1eccfc5fffeb010bb7a58575b4469063ef99893a90606401602060405180830381600087803b158015612c2757600080fd5b505af1158015612c3b573d6000803e3d6000fd5b505050506040513d601f19601f82011682018060405250810190612c5f9190613fc5565b6040517fef99893a0000000000000000000000000000000000000000000000000000000081526004810186905273ffffffffffffffffffffffffffffffffffffffff80891660248301528716604482015273db66686ac8bea67400cf9e5dd6c8849575b901489063ef99893a90606401602060405180830381600087803b158015612ce957600080fd5b505af1158015612cfd573d6000803e3d6000fd5b505050506040513d601f19601f82011682018060405250810190612d219190613fc5565b6040517fef99893a0000000000000000000000000000000000000000000000000000000081526004810187905273ffffffffffffffffffffffffffffffffffffffff808a16602483015288166044820152733614657edc3cb90ba420e5f4f61679777e4974e39063ef99893a90606401602060405180830381600087803b158015612dab57600080fd5b505af1158015612dbf573d6000803e3d6000fd5b505050506040513d601f19601f82011682018060405250810190612de39190613fc5565b925092509250600080838511612e3057828411612e1557733614657edc3cb90ba420e5f4f61679777e4974e383612e69565b73db66686ac8bea67400cf9e5dd6c8849575b9014884612e69565b828511612e5257733614657edc3cb90ba420e5f4f61679777e4974e383612e69565b736da140b4004d1eccfc5fffeb010bb7a58575b446855b91509150612e9888837fffffffffffffffffffffffffffffffffffffffffffffffffffffffffffffffff6134ce565b612eb973ffffffffffffffffffffffffffffffffffffffff89168388612aa5565b6040517feab90da6000000000000000000000000000000000000000000000000000000008152600481018790526024810182905273ffffffffffffffffffffffffffffffffffffffff8981166044830152888116606483015230608483015283169063eab90da69060a401600060405180830381600087803b158015612f3e57600080fd5b505af11580156119a3573d6000803e3d6000fd5b6040517f70a0823100000000000000000000000000000000000000000000000000000000815230600482015260009073ffffffffffffffffffffffffffffffffffffffff8316906370a082319060240160206040518083038186803b158015612fba57600080fd5b505afa158015612fce573d6000803e3d6000fd5b505050506040513d601f19601f82011682018060405250810190612ff29190613fc5565b92915050565b600080807fffffffffffffffffffffffffffffffffffffffffffffffffffffffffffffffff848609848602925082811083820303915050670de0b6b3a76400008110613073576040517fd31b34020000000000000000000000000000000000000000000000000000000081526004810182905260240161019f565b600080670de0b6b3a76400008688099150506706f05b59d3b1ffff8111826130ad5780670de0b6b3a7640000850401945050505050612ff2565b6204000082850304939091119091037d40000000000000000000000000000000000000000000000000000000000002919091177faccb18165bd6fe31ae1cf318dc5b51eee0e1ba569b88cd74c1773b91fac106690201905092915050565b6000613118858385611c2b565b905061313b73ffffffffffffffffffffffffffffffffffffffff85168683612aa5565b60408051600080825260208201928390527f1e7dcc0d0000000000000000000000000000000000000000000000000000000090925273ffffffffffffffffffffffffffffffffffffffff871691631e7dcc0d9161319f918791819060248101614066565b600060405180830381600087803b1580156131b957600080fd5b505af11580156131cd573d6000803e3d6000fd5b505050508082111561330b5760006131e582846141ca565b90507f000000000000000000000000000000000000000000000000000000000000000073ffffffffffffffffffffffffffffffffffffffff168573ffffffffffffffffffffffffffffffffffffffff1614156132ea576040517f2e1a7d4d000000000000000000000000000000000000000000000000000000008152600481018290527f000000000000000000000000000000000000000000000000000000000000000073ffffffffffffffffffffffffffffffffffffffff1690632e1a7d4d90602401600060405180830381600087803b1580156132c357600080fd5b505af11580156132d7573d6000803e3d6000fd5b505050506132e584826135ab565b6113c4565b6113c473ffffffffffffffffffffffffffffffffffffffff86168583612aa5565b5050505050565b60008083613322846103e861413c565b61332c919061418d565b90506000838561333e886103e861418d565b613348919061418d565b61335390600461418d565b61335d919061418d565b9050600061337e8261336f858061418d565b613379919061413c565b613620565b9050600061338d86600261418d565b90508061339a85846141ca565b610c819190614154565b606073ffffffffffffffffffffffffffffffffffffffff84163b61340c576040517f8201cc0500000000000000000000000000000000000000000000000000000000815273ffffffffffffffffffffffffffffffffffffffff8516600482015260240161019f565b6000808573ffffffffffffffffffffffffffffffffffffffff1685604051613434919061404a565b6000604051808303816000865af19150503d8060008114613471576040519150601f19603f3d011682016040523d82523d6000602084013e613476565b606091505b5091509150811561348a5791506122a89050565b80511561349a5780518082602001fd5b836040517f08c379a000000000000000000000000000000000000000000000000000000000815260040161019f91906140da565b6040517fdd62ed3e00000000000000000000000000000000000000000000000000000000815230600482015273ffffffffffffffffffffffffffffffffffffffff838116602483015282919085169063dd62ed3e9060440160206040518083038186803b15801561353e57600080fd5b505afa158015613552573d6000803e3d6000fd5b505050506040513d601f19601f820116820180604052508101906135769190613fc5565b1061358057505050565b612afb83837fffffffffffffffffffffffffffffffffffffffffffffffffffffffffffffffff6138e0565b600080600080600085875af1905080612afb576040517f08c379a000000000000000000000000000000000000000000000000000000000815260206004820152601460248201527f415641585f5452414e534645525f4641494c4544000000000000000000000000604482015260640161019f565b60008161362f57506000919050565b5060018170010000000000000000000000000000000081106136565760409190911b9060801c5b6801000000000000000081106136715760209190911b9060401c5b64010000000081106136885760109190911b9060201c5b62010000811061369d5760089190911b9060101c5b61010081106136b15760049190911b9060081c5b601081106136c45760029190911b9060041c5b600881106136d457600182901b91505b600182848161370c577f4e487b7100000000000000000000000000000000000000000000000000000000600052601260045260246000fd5b048301901c9150600182848161374b577f4e487b7100000000000000000000000000000000000000000000000000000000600052601260045260246000fd5b048301901c9150600182848161378a577f4e487b7100000000000000000000000000000000000000000000000000000000600052601260045260246000fd5b048301901c915060018284816137c9577f4e487b7100000000000000000000000000000000000000000000000000000000600052601260045260246000fd5b048301901c91506001828481613808577f4e487b7100000000000000000000000000000000000000000000000000000000600052601260045260246000fd5b048301901c91506001828481613847577f4e487b7100000000000000000000000000000000000000000000000000000000600052601260045260246000fd5b048301901c91506001828481613886577f4e487b7100000000000000000000000000000000000000000000000000000000600052601260045260246000fd5b048301901c915060008284816138c5577f4e487b7100000000000000000000000000000000000000000000000000000000600052601260045260246000fd5b049050808310156138d657826138d8565b805b949350505050565b6040805173ffffffffffffffffffffffffffffffffffffffff8481166024830152604480830185905283518084039091018152606490920183526020820180517bffffffffffffffffffffffffffffffffffffffffffffffffffffffff167f095ea7b3000000000000000000000000000000000000000000000000000000001790529151600092839290871691613977919061404a565b6000604051808303816000865af19150503d80600081146139b4576040519150601f19603f3d011682016040523d82523d6000602084013e6139b9565b606091505b50915091508180156139e35750805115806139e35750808060200190518101906139e39190613df6565b61330b576040517f08c379a000000000000000000000000000000000000000000000000000000000815260206004820152600c60248201527f2173616665417070726f76650000000000000000000000000000000000000000604482015260640161019f565b80518015158114613a5957600080fd5b919050565b60008083601f840112613a6f578182fd5b50813567ffffffffffffffff811115613a86578182fd5b602083019150836020828501011115613a9e57600080fd5b9250929050565b80516dffffffffffffffffffffffffffff81168114613a5957600080fd5b600060208284031215613ad4578081fd5b81516122a88161426b565b600080600080600060808688031215613af6578081fd5b8535613b018161426b565b94506020860135613b118161426b565b935060408601359250606086013567ffffffffffffffff811115613b33578182fd5b613b3f88828901613a5e565b969995985093965092949392505050565b600080600080600060a08688031215613b67578081fd5b8535613b728161426b565b9450602086013593506040860135613b898161426b565b92506060860135613b998161426b565b949793965091946080013592915050565b60008060008060808587031215613bbf578384fd5b8435613bca8161426b565b9350602085013592506040850135613be18161426b565b9396929550929360600135925050565b60008060008060008060a08789031215613c09578081fd5b8635613c148161426b565b9550602087013594506040870135613c2b8161426b565b935060608701359250608087013567ffffffffffffffff811115613c4d578182fd5b613c5989828a01613a5e565b979a9699509497509295939492505050565b600080600080600060a08688031215613c82578081fd5b8535613c8d8161426b565b945060208681013594506040870135613ca58161426b565b935060608701359250608087013567ffffffffffffffff80821115613cc8578384fd5b818901915089601f830112613cdb578384fd5b813581811115613ced57613ced61423c565b613d1d847fffffffffffffffffffffffffffffffffffffffffffffffffffffffffffffffe0601f840116016140ed565b91508082528a84828501011115613d32578485fd5b8084840185840137810190920192909252949793965091945092919050565b60008060008060608587031215613d66578182fd5b8435613d718161426b565b935060208501359250604085013567ffffffffffffffff811115613d93578283fd5b613d9f87828801613a5e565b95989497509550505050565b600080600080600060808688031215613dc2578283fd5b8535613dcd8161426b565b94506020860135935060408601359250606086013567ffffffffffffffff811115613b33578182fd5b600060208284031215613e07578081fd5b6122a882613a49565b60008060008060808587031215613e25578182fd5b613e2e85613a49565b9350602085015160ff81168114613e43578283fd5b6040860151606090960151949790965092505050565b600060808284031215613e6a578081fd5b6040516080810181811067ffffffffffffffff82111715613e8d57613e8d61423c565b6040528235613e9b8161426b565b81526020830135613eab8161426b565b60208201526040830135613ebe8161426b565b60408201526060830135613ed18161426b565b60608201529392505050565b600060c08284031215613eee578081fd5b60405160c0810181811067ffffffffffffffff82111715613f1157613f1161423c565b6040528235613f1f8161426b565b81526020830135613f2f8161426b565b60208201526040830135613f428161426b565b60408201526060830135613f558161426b565b60608201526080838101359082015260a0928301359281019290925250919050565b600080600060608486031215613f8b578081fd5b613f9484613aa5565b9250613fa260208501613aa5565b9150604084015163ffffffff81168114613fba578182fd5b809150509250925092565b600060208284031215613fd6578081fd5b5051919050565b60008060408385031215613fef578182fd5b505080516020909101519092909150565b600081518084526140188160208601602086016141e1565b601f017fffffffffffffffffffffffffffffffffffffffffffffffffffffffffffffffe0169290920160200192915050565b6000825161405c8184602087016141e1565b9190910192915050565b600073ffffffffffffffffffffffffffffffffffffffff8087168352808616602084015250836040830152608060608301526106c66080830184614000565b73ffffffffffffffffffffffffffffffffffffffff84168152826020820152606060408201526000611d406060830184614000565b6020815260006122a86020830184614000565b604051601f82017fffffffffffffffffffffffffffffffffffffffffffffffffffffffffffffffe016810167ffffffffffffffff811182821017156141345761413461423c565b604052919050565b6000821982111561414f5761414f61420d565b500190565b600082614188577f4e487b710000000000000000000000000000000000000000000000000000000081526012600452602481fd5b500490565b6000817fffffffffffffffffffffffffffffffffffffffffffffffffffffffffffffffff04831182151516156141c5576141c561420d565b500290565b6000828210156141dc576141dc61420d565b500390565b60005b838110156141fc5781810151838201526020016141e4565b83811115611b1c5750506000910152565b7f4e487b7100000000000000000000000000000000000000000000000000000000600052601160045260246000fd5b7f4e487b7100000000000000000000000000000000000000000000000000000000600052604160045260246000fd5b73ffffffffffffffffffffffffffffffffffffffff811681146119ee57600080fdfea264697066735822122003f1c4f7663d9a1c81b68deed387f40b3f3f7927437ca4c4d323c627092b5ab464736f6c63430008040033",
  "linkReferences": {},
  "deployedLinkReferences": {}
}