{
  "_format": "hh-sol-artifact-1",
  "contractName": "BorrowableHarvester",
  "sourceName": "contracts/cygnus-periphery/BorrowableHarvester.sol",
  "abi": [
    {
      "inputs": [
        {
          "internalType": "contract IHangar18",
          "name": "_hangar18",
          "type": "address"
        }
      ],
      "stateMutability": "nonpayable",
      "type": "constructor"
    },
    {
      "inputs": [],
      "name": "CygnusHarvester__CantReinvestZero",
      "type": "error"
    },
    {
      "inputs": [
        {
          "internalType": "address",
          "name": "token",
          "type": "address"
        }
      ],
      "name": "CygnusHarvester__CantSweepRewardToken",
      "type": "error"
    },
    {
      "inputs": [
        {
          "internalType": "address",
          "name": "dstReceiver",
          "type": "address"
        },
        {
          "internalType": "address",
          "name": "receiver",
          "type": "address"
        }
      ],
      "name": "CygnusHarvester__DstReceiverNotValid",
      "type": "error"
    },
    {
      "inputs": [
        {
          "internalType": "address",
          "name": "dstToken",
          "type": "address"
        },
        {
          "internalType": "address",
          "name": "token",
          "type": "address"
        }
      ],
      "name": "CygnusHarvester__DstTokenNotValid",
      "type": "error"
    },
    {
      "inputs": [
        {
          "internalType": "uint256",
          "name": "newFee",
          "type": "uint256"
        },
        {
          "internalType": "uint256",
          "name": "maxFee",
          "type": "uint256"
        }
      ],
      "name": "CygnusHarvester__FeeExceedsLimit",
      "type": "error"
    },
    {
      "inputs": [
        {
          "internalType": "address",
          "name": "harvester",
          "type": "address"
        }
      ],
      "name": "CygnusHarvester__HarvesterAlreadyInitialized",
      "type": "error"
    },
    {
      "inputs": [
        {
          "internalType": "address",
          "name": "harvester",
          "type": "address"
        }
      ],
      "name": "CygnusHarvester__HarvesterNotInitialized",
      "type": "error"
    },
    {
      "inputs": [
        {
          "internalType": "address",
          "name": "sender",
          "type": "address"
        },
        {
          "internalType": "address",
          "name": "admin",
          "type": "address"
        }
      ],
      "name": "CygnusHarvester__MsgSenderNotAdmin",
      "type": "error"
    },
    {
      "inputs": [
        {
          "internalType": "address",
          "name": "sender",
          "type": "address"
        },
        {
          "internalType": "address",
          "name": "origin",
          "type": "address"
        }
      ],
      "name": "CygnusHarvester__OnlyEOAAllowed",
      "type": "error"
    },
    {
      "inputs": [
        {
          "internalType": "address",
          "name": "srcToken",
          "type": "address"
        },
        {
          "internalType": "address",
          "name": "token",
          "type": "address"
        }
      ],
      "name": "CygnusHarvester__SrcTokenNotValid",
      "type": "error"
    },
    {
      "inputs": [
        {
          "internalType": "uint256",
          "name": "min",
          "type": "uint256"
        },
        {
          "internalType": "uint256",
          "name": "max",
          "type": "uint256"
        },
        {
          "internalType": "uint256",
          "name": "reward",
          "type": "uint256"
        }
      ],
      "name": "CygnusHarvester__X1RewardNotInRange",
      "type": "error"
    },
    {
      "inputs": [],
      "name": "CygnusHarvester__X1VaultRewardNotOne",
      "type": "error"
    },
    {
      "inputs": [],
      "name": "ReentrantCall",
      "type": "error"
    },
    {
      "anonymous": false,
      "inputs": [
        {
          "indexed": false,
          "internalType": "uint256",
          "name": "timestamp",
          "type": "uint256"
        },
        {
          "indexed": false,
          "internalType": "address",
          "name": "sender",
          "type": "address"
        },
        {
          "indexed": false,
          "internalType": "uint256",
          "name": "tokensLength",
          "type": "uint256"
        }
      ],
      "name": "CygnusX1VaultCollect",
      "type": "event"
    },
    {
      "anonymous": false,
      "inputs": [
        {
          "indexed": true,
          "internalType": "uint256",
          "name": "harvesterId",
          "type": "uint256"
        },
        {
          "indexed": false,
          "internalType": "address",
          "name": "poolToken",
          "type": "address"
        },
        {
          "indexed": false,
          "internalType": "address",
          "name": "underlying",
          "type": "address"
        }
      ],
      "name": "InitializeHarvester",
      "type": "event"
    },
    {
      "anonymous": false,
      "inputs": [
        {
          "indexed": true,
          "internalType": "address",
          "name": "sender",
          "type": "address"
        },
        {
          "indexed": false,
          "internalType": "uint256",
          "name": "oldFee",
          "type": "uint256"
        },
        {
          "indexed": false,
          "internalType": "uint256",
          "name": "newFee",
          "type": "uint256"
        }
      ],
      "name": "NewHarvestFee",
      "type": "event"
    },
    {
      "anonymous": false,
      "inputs": [
        {
          "indexed": false,
          "internalType": "address",
          "name": "newToken",
          "type": "address"
        },
        {
          "indexed": false,
          "internalType": "uint256",
          "name": "rewardTokensLength",
          "type": "uint256"
        }
      ],
      "name": "NewX1RewardToken",
      "type": "event"
    },
    {
      "anonymous": false,
      "inputs": [
        {
          "indexed": true,
          "internalType": "address",
          "name": "sender",
          "type": "address"
        },
        {
          "indexed": false,
          "internalType": "uint256",
          "name": "oldReward",
          "type": "uint256"
        },
        {
          "indexed": false,
          "internalType": "uint256",
          "name": "newReward",
          "type": "uint256"
        }
      ],
      "name": "NewX1VaultReward",
      "type": "event"
    },
    {
      "inputs": [],
      "name": "MAX_X1_REWARD",
      "outputs": [
        {
          "internalType": "uint256",
          "name": "",
          "type": "uint256"
        }
      ],
      "stateMutability": "view",
      "type": "function"
    },
    {
      "inputs": [],
      "name": "MIN_X1_REWARD",
      "outputs": [
        {
          "internalType": "uint256",
          "name": "",
          "type": "uint256"
        }
      ],
      "stateMutability": "view",
      "type": "function"
    },
    {
      "inputs": [],
      "name": "ONE_INCH_ROUTER_V5",
      "outputs": [
        {
          "internalType": "contract IAggregationRouterV5",
          "name": "",
          "type": "address"
        }
      ],
      "stateMutability": "view",
      "type": "function"
    },
    {
      "inputs": [
        {
          "internalType": "address",
          "name": "rewardToken",
          "type": "address"
        }
      ],
      "name": "addX1VaultRewardToken",
      "outputs": [],
      "stateMutability": "nonpayable",
      "type": "function"
    },
    {
      "inputs": [
        {
          "internalType": "uint256",
          "name": "",
          "type": "uint256"
        }
      ],
      "name": "allHarvesters",
      "outputs": [
        {
          "internalType": "address",
          "name": "",
          "type": "address"
        }
      ],
      "stateMutability": "view",
      "type": "function"
    },
    {
      "inputs": [
        {
          "internalType": "uint256",
          "name": "",
          "type": "uint256"
        }
      ],
      "name": "allX1RewardTokens",
      "outputs": [
        {
          "internalType": "address",
          "name": "",
          "type": "address"
        }
      ],
      "stateMutability": "view",
      "type": "function"
    },
    {
      "inputs": [
        {
          "internalType": "address",
          "name": "rewardToken",
          "type": "address"
        }
      ],
      "name": "collectX1RewardToken",
      "outputs": [],
      "stateMutability": "nonpayable",
      "type": "function"
    },
    {
      "inputs": [],
      "name": "collectX1RewardsAll",
      "outputs": [],
      "stateMutability": "nonpayable",
      "type": "function"
    },
    {
      "inputs": [],
      "name": "cygnusX1Vault",
      "outputs": [
        {
          "internalType": "address",
          "name": "",
          "type": "address"
        }
      ],
      "stateMutability": "view",
      "type": "function"
    },
    {
      "inputs": [
        {
          "internalType": "address",
          "name": "",
          "type": "address"
        }
      ],
      "name": "getHarvester",
      "outputs": [
        {
          "internalType": "address",
          "name": "underlying",
          "type": "address"
        },
        {
          "internalType": "address",
          "name": "wantToken",
          "type": "address"
        }
      ],
      "stateMutability": "view",
      "type": "function"
    },
    {
      "inputs": [],
      "name": "hangar18",
      "outputs": [
        {
          "internalType": "contract IHangar18",
          "name": "",
          "type": "address"
        }
      ],
      "stateMutability": "view",
      "type": "function"
    },
    {
      "inputs": [],
      "name": "harvestersLength",
      "outputs": [
        {
          "internalType": "uint256",
          "name": "",
          "type": "uint256"
        }
      ],
      "stateMutability": "view",
      "type": "function"
    },
    {
      "inputs": [
        {
          "internalType": "address",
          "name": "borrowable",
          "type": "address"
        }
      ],
      "name": "initializeHarvester",
      "outputs": [],
      "stateMutability": "nonpayable",
      "type": "function"
    },
    {
      "inputs": [],
      "name": "lastX1Collect",
      "outputs": [
        {
          "internalType": "uint256",
          "name": "",
          "type": "uint256"
        }
      ],
      "stateMutability": "view",
      "type": "function"
    },
    {
      "inputs": [],
      "name": "name",
      "outputs": [
        {
          "internalType": "string",
          "name": "",
          "type": "string"
        }
      ],
      "stateMutability": "view",
      "type": "function"
    },
    {
      "inputs": [],
      "name": "nativeToken",
      "outputs": [
        {
          "internalType": "address",
          "name": "",
          "type": "address"
        }
      ],
      "stateMutability": "view",
      "type": "function"
    },
    {
      "inputs": [
        {
          "internalType": "uint256",
          "name": "vaultReward",
          "type": "uint256"
        }
      ],
      "name": "newX1VaultReward",
      "outputs": [],
      "stateMutability": "nonpayable",
      "type": "function"
    },
    {
      "inputs": [
        {
          "internalType": "address",
          "name": "borrowable",
          "type": "address"
        },
        {
          "internalType": "bytes[]",
          "name": "swapData",
          "type": "bytes[]"
        }
      ],
      "name": "reinvestRewards",
      "outputs": [
        {
          "internalType": "uint256",
          "name": "liquidity",
          "type": "uint256"
        }
      ],
      "stateMutability": "nonpayable",
      "type": "function"
    },
    {
      "inputs": [
        {
          "internalType": "address",
          "name": "rewardToken",
          "type": "address"
        }
      ],
      "name": "rewardTokenBalance",
      "outputs": [
        {
          "internalType": "uint256",
          "name": "",
          "type": "uint256"
        }
      ],
      "stateMutability": "view",
      "type": "function"
    },
    {
      "inputs": [
        {
          "internalType": "uint256",
          "name": "index",
          "type": "uint256"
        }
      ],
      "name": "rewardTokenBalanceAtIndex",
      "outputs": [
        {
          "internalType": "uint256",
          "name": "",
          "type": "uint256"
        }
      ],
      "stateMutability": "view",
      "type": "function"
    },
    {
      "inputs": [
        {
          "internalType": "address",
          "name": "token",
          "type": "address"
        }
      ],
      "name": "sweepToken",
      "outputs": [],
      "stateMutability": "nonpayable",
      "type": "function"
    },
    {
      "inputs": [],
      "name": "x1RewardTokensLength",
      "outputs": [
        {
          "internalType": "uint256",
          "name": "",
          "type": "uint256"
        }
      ],
      "stateMutability": "view",
      "type": "function"
    },
    {
      "inputs": [],
      "name": "x1VaultReward",
      "outputs": [
        {
          "internalType": "uint256",
          "name": "",
          "type": "uint256"
        }
      ],
      "stateMutability": "view",
      "type": "function"
    }
  ],
  "bytecode": "0x60e06040908082523462000164578062002028803803809162000023828562000169565b8339602092839181010312620001645751906001600160a01b0382168083036200016457600092600160ff198554161784556702c68af0bb1400006004556080528351631c2eb17b60e31b81528281600481855afa9081156200015a579183929160049492869162000138575b5060a05285516318e7df3d60e31b815293849182905afa9283156200012d5792620000f9575b505060c05251611e639081620001c582396080518181816101640152611c6b015260a051816101d8015260c0518181816102810152818161105901526112020152f35b6200011d9250803d1062000125575b62000114818362000169565b810190620001a3565b3880620000b6565b503d62000108565b8451903d90823e3d90fd5b620001539150833d8511620001255762000114818362000169565b3862000090565b85513d86823e3d90fd5b600080fd5b601f909101601f19168101906001600160401b038211908210176200018d57604052565b634e487b7160e01b600052604160045260246000fd5b908160209103126200016457516001600160a01b038116810362000164579056fe6080604052600436101561001257600080fd5b60003560e01c806306fdde031461178057806311475b2a1461173f5780631be19560146116cc5780631f700dcd1461165e57806320750215146116225780632c0da13d146115c05780632c3de320146114f15780634bb2bfa3146112d85780635fa9d9b01461129c57806385f80f071461122e578063941177a51461115857806394bbf438146110fc57806397f4e01b14610f81578063a62df98d1461046e578063a7ba8a39146103d7578063b5b946e31461039b578063b7218b371461035f578063ba3f30c6146102f2578063bdcb9932146102a5578063c73ef9e814610236578063d5d4f0e1146101fc578063e1758bd81461018d5763e8a24e1d1461011957600080fd5b346101885760007ffffffffffffffffffffffffffffffffffffffffffffffffffffffffffffffffc36011261018857602060405173ffffffffffffffffffffffffffffffffffffffff7f0000000000000000000000000000000000000000000000000000000000000000168152f35b600080fd5b346101885760007ffffffffffffffffffffffffffffffffffffffffffffffffffffffffffffffffc36011261018857602060405173ffffffffffffffffffffffffffffffffffffffff7f0000000000000000000000000000000000000000000000000000000000000000168152f35b346101885760007ffffffffffffffffffffffffffffffffffffffffffffffffffffffffffffffffc36011261018857602060405160008152f35b346101885760007ffffffffffffffffffffffffffffffffffffffffffffffffffffffffffffffffc36011261018857602060405173ffffffffffffffffffffffffffffffffffffffff7f0000000000000000000000000000000000000000000000000000000000000000168152f35b346101885760007ffffffffffffffffffffffffffffffffffffffffffffffffffffffffffffffffc360112610188576020604051731111111254eeb25477b68fb85ed929f73a9605828152f35b346101885760207ffffffffffffffffffffffffffffffffffffffffffffffffffffffffffffffffc36011261018857602061035773ffffffffffffffffffffffffffffffffffffffff6103486004356003611930565b90549060031b1c163090611e27565b604051908152f35b346101885760007ffffffffffffffffffffffffffffffffffffffffffffffffffffffffffffffffc360112610188576020600454604051908152f35b346101885760007ffffffffffffffffffffffffffffffffffffffffffffffffffffffffffffffffc360112610188576020600554604051908152f35b346101885760207ffffffffffffffffffffffffffffffffffffffffffffffffffffffffffffffffc3601126101885760043573ffffffffffffffffffffffffffffffffffffffff90818116809103610188576000908152600160208181526040928390208054920154835173ffffffffffffffffffffffffffffffffffffffff9386168416815294169091169083015290f35b0390f35b346101885760407ffffffffffffffffffffffffffffffffffffffffffffffffffffffffffffffffc3601126101885760043573ffffffffffffffffffffffffffffffffffffffff811681036101885767ffffffffffffffff60243511610188573660236024350112156101885767ffffffffffffffff60243560040135116101885736602480356004013560051b81350101116101885760009073ffffffffffffffffffffffffffffffffffffffff8116600052600160205260406000206040519061053b604083611807565b73ffffffffffffffffffffffffffffffffffffffff60018183541692838552015416602083015215610f5157604051917f0572b0cc0000000000000000000000000000000000000000000000000000000083526000836004818373ffffffffffffffffffffffffffffffffffffffff86165af1908115610bb557600093600092610e0c575b5060005b8451811015610cfa576105d78184611981565b516105e5575b6001016105c4565b9473ffffffffffffffffffffffffffffffffffffffff6106058787611981565b5116600060208160646106188b89611981565b519460405195606052306040523360601b602c526f23b872dd000000000000000000000000600c52601c9485915af13d15600160005114171615610ced5750600060605260405273ffffffffffffffffffffffffffffffffffffffff61067e8787611981565b51602086015173ffffffffffffffffffffffffffffffffffffffff16911614610cd05760243560040135861015610ca1577fffffffffffffffffffffffffffffffffffffffffffffffffffffffffffffffbd60243536030160248760051b813501013512156101885767ffffffffffffffff6024808860051b81350101358135010135116101885760248035600588901b8101820135019081013536036044909101136101885773ffffffffffffffffffffffffffffffffffffffff6107448787611981565b511673ffffffffffffffffffffffffffffffffffffffff60208601511661076b8886611981565b516024803560058b901b810182013501908101358101039161014083126101885760e07fffffffffffffffffffffffffffffffffffffffffffffffffffffffffffffffe06107c9604460248e60051b8135010135602435010161190f565b94011261018857604051936107df60e086611807565b6107f9606460248d60051b8135010135602435010161190f565b8552610815608460248d60051b8135010135602435010161190f565b602086015261083460a460248d60051b8135010135602435010161190f565b604086015261085360c460248d60051b8135010135602435010161190f565b60608601526024803560058d901b8101909101350160e4810135608087015261010481013560a087015261012481013560c087015267ffffffffffffffff6101449091013511610188576108c86024803560058e901b81018201350190810135810160449081019161014481013501016119d1565b5067ffffffffffffffff61016460248d60051b813501013560243501013511610188576109166024803560058e901b81018201350190810135810160449081019161016481013501016119d1565b9280608087015103610c96575b5073ffffffffffffffffffffffffffffffffffffffff855116818103610c4757505073ffffffffffffffffffffffffffffffffffffffff602085015116818103610bf857505073ffffffffffffffffffffffffffffffffffffffff60608401511673ffffffffffffffffffffffffffffffffffffffff86168103610bc15750604091610b4273ffffffffffffffffffffffffffffffffffffffff926109e584875116731111111254eeb25477b68fb85ed929f73a960582608089015191611a18565b610b116109f26000611877565b6109fe87519182611807565b600081527fffffffffffffffffffffffffffffffffffffffffffffffffffffffffffffffe0610a2d6000611877565b0136602083013760c0875198899788977f12aa3caf00000000000000000000000000000000000000000000000000000000895216600488015273ffffffffffffffffffffffffffffffffffffffff815116602488015273ffffffffffffffffffffffffffffffffffffffff602082015116604488015273ffffffffffffffffffffffffffffffffffffffff8982015116606488015273ffffffffffffffffffffffffffffffffffffffff6060820151166084880152608081015160a488015260a081015160c4880152015160e48601526101406101048601526101448501906118b1565b907ffffffffffffffffffffffffffffffffffffffffffffffffffffffffffffffffc848303016101248501526118b1565b03816000731111111254eeb25477b68fb85ed929f73a9605825af1908115610bb557600091610b82575b50610b7990600192611995565b955b90506105dd565b90506040813d604011610bad575b81610b9d60409383611807565b8101031261018857516001610b6c565b3d9150610b90565b6040513d6000823e3d90fd5b604490604051907f03918a030000000000000000000000000000000000000000000000000000000082526004820152336024820152fd5b6040517f74924cb200000000000000000000000000000000000000000000000000000000815273ffffffffffffffffffffffffffffffffffffffff918216600482015291166024820152604490fd5b6040517fbf3a09e600000000000000000000000000000000000000000000000000000000815273ffffffffffffffffffffffffffffffffffffffff918216600482015291166024820152604490fd5b60808601528b610923565b7f4e487b7100000000000000000000000000000000000000000000000000000000600052603260045260246000fd5b610ce7600191610ce08886611981565b5190611995565b95610b7b565b600490637939f424600052fd5b50848015610de257600454807fffffffffffffffffffffffffffffffffffffffffffffffffffffffffffffffff0482118102610dd457670de0b6b3a764000090820204900373ffffffffffffffffffffffffffffffffffffffff82163b1561018857600073ffffffffffffffffffffffffffffffffffffffff6024829460405195869384927f81f5b6f4000000000000000000000000000000000000000000000000000000008452876004850152165af1918215610bb557602092610dc3575b50604051908152f35b6000610dce91611807565b82610dba565b63bac65e5b6000526004601cfd5b60046040517f496ee71b000000000000000000000000000000000000000000000000000000008152fd5b935090503d806000853e610e208185611807565b60408482810103126101885783519067ffffffffffffffff821161018857808501601f8387010112156101885781850151610e5a81611948565b92610e686040519485611807565b818452602084019083880160208460051b838b010101116101885790602082890101915b60208460051b828b0101018310610f36575050505060208501519067ffffffffffffffff821161018857808601601f838801011215610188578186015191610ed383611948565b96610ee16040519889611807565b8388526020880192810160208560051b8484010101116101885780820160200192915b60208560051b82840101018410610f225750505050509290856105c0565b602080809486518152019401939250610f04565b6020808093610f4486611960565b8152019301929150610e8c565b60246040517fce9b924b000000000000000000000000000000000000000000000000000000008152336004820152fd5b346101885760007ffffffffffffffffffffffffffffffffffffffffffffffffffffffffffffffffc3601126101885760005460ff8116156110d2577fffffffffffffffffffffffffffffffffffffffffffffffffffffffffffffff00809116600055610fed6003611b40565b9060009160005b81518110156110875773ffffffffffffffffffffffffffffffffffffffff61102830826110218587611981565b5116611e27565b908161103f575b505061103a90611ba7565b610ff4565b9461107e600192849761105561103a9688611981565b51167f000000000000000000000000000000000000000000000000000000000000000090611dde565b0193908561102f565b6001837f16a9fd824a632ba02af308c1f7597f156fa9ec25b50bf207e0c0c34d28d27ab660608742600555604051904282523360208301526040820152a16000541617600055600080f35b60046040517f37ed32e8000000000000000000000000000000000000000000000000000000008152fd5b346101885760207ffffffffffffffffffffffffffffffffffffffffffffffffffffffffffffffffc3601126101885760043573ffffffffffffffffffffffffffffffffffffffff81168103610188576103576020913090611e27565b346101885760207ffffffffffffffffffffffffffffffffffffffffffffffffffffffffffffffffc3601126101885760043573ffffffffffffffffffffffffffffffffffffffff81168103610188576111af611c27565b6111b93082611e27565b806111fc575b426005557f16a9fd824a632ba02af308c1f7597f156fa9ec25b50bf207e0c0c34d28d27ab6606060405142815233602082015260016040820152a1005b611227917f000000000000000000000000000000000000000000000000000000000000000090611dde565b80806111bf565b346101885760207ffffffffffffffffffffffffffffffffffffffffffffffffffffffffffffffffc360112610188576004356002548110156101885773ffffffffffffffffffffffffffffffffffffffff61128c6020926002611930565b9190546040519260031b1c168152f35b346101885760007ffffffffffffffffffffffffffffffffffffffffffffffffffffffffffffffffc360112610188576020600254604051908152f35b34610188576020807ffffffffffffffffffffffffffffffffffffffffffffffffffffffffffffffffc360112610188576004359073ffffffffffffffffffffffffffffffffffffffff80831680840361018857611333611c27565b8060005260018352604060002060405161134e604082611807565b8484600181855416948585520154169101526114c057604051927f6f307dc30000000000000000000000000000000000000000000000000000000084528084600481855afa928315610bb55760009361146a575b7faaba566daac618884a3651a227aed179a85936588f933de535762f4a9aaae31694506001604051926113d6604085611807565b82861694858552818501958652600052526001816040600020935116927fffffffffffffffffffffffff00000000000000000000000000000000000000009384825416178155019251169082541617905561143081611d32565b61143b836002611bd4565b6002546040805173ffffffffffffffffffffffffffffffffffffffff95861681529290941660208301529290a2005b92508084813d83116114b9575b6114818183611807565b81010312610188576114b37faaba566daac618884a3651a227aed179a85936588f933de535762f4a9aaae31694611960565b926113a2565b503d611477565b602490604051907f769200dd0000000000000000000000000000000000000000000000000000000082526004820152fd5b346101885760207ffffffffffffffffffffffffffffffffffffffffffffffffffffffffffffffffc3601126101885760043561152b611c27565b670de0b6b3a764000080821180156115b8575b61157b5750806004556040519080825260208201527fa1367aa3830e872ca7d226920b1be2dcd9b6ebe0844a6f86c22d717a34b7ef0260403392a2005b606491604051917f2f753cf00000000000000000000000000000000000000000000000000000000083526000600484015260248301526044820152fd5b50600061153e565b346101885760207ffffffffffffffffffffffffffffffffffffffffffffffffffffffffffffffffc3601126101885760043573ffffffffffffffffffffffffffffffffffffffff81168103610188576116209061161b611c27565b611d32565b005b346101885760007ffffffffffffffffffffffffffffffffffffffffffffffffffffffffffffffffc360112610188576020600354604051908152f35b346101885760207ffffffffffffffffffffffffffffffffffffffffffffffffffffffffffffffffc360112610188576004356003548110156101885773ffffffffffffffffffffffffffffffffffffffff6116bc6020926003611930565b90549060031b1c16604051908152f35b346101885760207ffffffffffffffffffffffffffffffffffffffffffffffffffffffffffffffffc3601126101885760043573ffffffffffffffffffffffffffffffffffffffff8116810361018857611723611c27565b61172d3082611e27565b8061173457005b611620913390611dde565b346101885760007ffffffffffffffffffffffffffffffffffffffffffffffffffffffffffffffffc360112610188576020604051670de0b6b3a76400008152f35b346101885760007ffffffffffffffffffffffffffffffffffffffffffffffffffffffffffffffffc3601126101885761046a6117bc601f611877565b6117c96040519182611807565b601f81527f4379676e7573204861727665737465723a20536f6e6e6520526577617264730060208201526040519182916020835260208301906118b1565b90601f7fffffffffffffffffffffffffffffffffffffffffffffffffffffffffffffffe0910116810190811067ffffffffffffffff82111761184857604052565b7f4e487b7100000000000000000000000000000000000000000000000000000000600052604160045260246000fd5b67ffffffffffffffff811161184857601f017fffffffffffffffffffffffffffffffffffffffffffffffffffffffffffffffe01660200190565b919082519283825260005b8481106118fb5750507fffffffffffffffffffffffffffffffffffffffffffffffffffffffffffffffe0601f8460006020809697860101520116010190565b6020818301810151848301820152016118bc565b359073ffffffffffffffffffffffffffffffffffffffff8216820361018857565b8054821015610ca15760005260206000200190600090565b67ffffffffffffffff81116118485760051b60200190565b519073ffffffffffffffffffffffffffffffffffffffff8216820361018857565b8051821015610ca15760209160051b010190565b919082018092116119a257565b7f4e487b7100000000000000000000000000000000000000000000000000000000600052601160045260246000fd5b81601f82011215610188578035906119e882611877565b926119f66040519485611807565b8284526020838301011161018857816000926020809301838601378301015290565b6040517fdd62ed3e00000000000000000000000000000000000000000000000000000000815230600482015273ffffffffffffffffffffffffffffffffffffffff83166024820152919290916020818060448101038173ffffffffffffffffffffffffffffffffffffffff87165afa908115610bb557600091611b0c575b501015611b085760446010600080936020956014527fffffffffffffffffffffffffffffffffffffffffffffffffffffffffffffffff6034526f095ea7b300000000000000000000000082525af13d15600160005114171615611afa576000603452565b633e3f8f736000526004601cfd5b5050565b906020823d8211611b38575b81611b2560209383611807565b81010312611b3557505138611a96565b80fd5b3d9150611b18565b9060405191828154918282526020928383019160005283600020936000905b828210611b7757505050611b7592500383611807565b565b855473ffffffffffffffffffffffffffffffffffffffff1684526001958601958895509381019390910190611b5f565b7fffffffffffffffffffffffffffffffffffffffffffffffffffffffffffffffff81146119a25760010190565b80546801000000000000000081101561184857611bf691600182018155611930565b819291549060031b9173ffffffffffffffffffffffffffffffffffffffff9283811b93849216901b16911916179055565b6040517ff851a44000000000000000000000000000000000000000000000000000000000815273ffffffffffffffffffffffffffffffffffffffff602082600481847f0000000000000000000000000000000000000000000000000000000000000000165afa918215610bb557600092611cf7575b5081163303611ca85750565b6040517f90a9d16f00000000000000000000000000000000000000000000000000000000815233600482015273ffffffffffffffffffffffffffffffffffffffff919091166024820152604490fd5b90916020823d8211611d2a575b81611d1160209383611807565b81010312611b355750611d2390611960565b9038611c9c565b3d9150611d04565b611d3c6003611b40565b9060005b8251811015611d865773ffffffffffffffffffffffffffffffffffffffff80611d698386611981565b511690831614611d8157611d7c90611ba7565b611d40565b505050565b507f6e88551d1e5f4e837d99cdaeb8dab5a3e0eede87e21670b9c9d3787d0a0d11ea9150604090611db8816003611bd4565b60035473ffffffffffffffffffffffffffffffffffffffff8351921682526020820152a1565b60109260209260145260345260446000938480936fa9059cbb00000000000000000000000082525af13d156001835114171615611e1a57603452565b6390b8ec1890526004601cfd5b602460106020939284936014526f70a082310000000000000000000000006000525afa601f3d1116602051029056fea164736f6c6343000811000a",
  "linkReferences": {},
  "deployedLinkReferences": {}
}