{
  "_format": "hh-sol-artifact-1",
  "contractName": "XHypervisor",
  "sourceName": "contracts/cygnus-periphery/XHypervisor.sol",
  "abi": [
    {
      "inputs": [
        {
          "internalType": "contract IHangar18",
          "name": "_hangar18",
          "type": "address"
        }
      ],
      "stateMutability": "nonpayable",
      "type": "constructor"
    },
    {
      "inputs": [],
      "name": "CygnusAltair__0xProjectTransactionFailed",
      "type": "error"
    },
    {
      "inputs": [],
      "name": "CygnusAltair__InsufficientLPTokenAmount",
      "type": "error"
    },
    {
      "inputs": [],
      "name": "CygnusAltair__InsufficientLiquidateUsd",
      "type": "error"
    },
    {
      "inputs": [],
      "name": "CygnusAltair__InsufficientUSDAmount",
      "type": "error"
    },
    {
      "inputs": [],
      "name": "CygnusAltair__InvalidAggregator",
      "type": "error"
    },
    {
      "inputs": [],
      "name": "CygnusAltair__InvalidPool",
      "type": "error"
    },
    {
      "inputs": [],
      "name": "CygnusAltair__MsgSenderNotAdmin",
      "type": "error"
    },
    {
      "inputs": [],
      "name": "CygnusAltair__MsgSenderNotBorrowable",
      "type": "error"
    },
    {
      "inputs": [],
      "name": "CygnusAltair__MsgSenderNotCollateral",
      "type": "error"
    },
    {
      "inputs": [],
      "name": "CygnusAltair__MsgSenderNotRouter",
      "type": "error"
    },
    {
      "inputs": [],
      "name": "CygnusAltair__OneInchTransactionFailed",
      "type": "error"
    },
    {
      "inputs": [],
      "name": "CygnusAltair__OnlyDelegateCall",
      "type": "error"
    },
    {
      "inputs": [],
      "name": "CygnusAltair__OpenOceanTransactionFailed",
      "type": "error"
    },
    {
      "inputs": [],
      "name": "CygnusAltair__ParaswapTransactionFailed",
      "type": "error"
    },
    {
      "inputs": [],
      "name": "OKX_AGGREGATION_ROUTER",
      "outputs": [
        {
          "internalType": "address",
          "name": "",
          "type": "address"
        }
      ],
      "stateMutability": "view",
      "type": "function"
    },
    {
      "inputs": [],
      "name": "ONE_INCH_ROUTER_V5",
      "outputs": [
        {
          "internalType": "address",
          "name": "",
          "type": "address"
        }
      ],
      "stateMutability": "view",
      "type": "function"
    },
    {
      "inputs": [],
      "name": "OPEN_OCEAN_EXCHANGE_PROXY",
      "outputs": [
        {
          "internalType": "address",
          "name": "",
          "type": "address"
        }
      ],
      "stateMutability": "view",
      "type": "function"
    },
    {
      "inputs": [],
      "name": "OxPROJECT_EXCHANGE_PROXY",
      "outputs": [
        {
          "internalType": "address",
          "name": "",
          "type": "address"
        }
      ],
      "stateMutability": "view",
      "type": "function"
    },
    {
      "inputs": [],
      "name": "PARASWAP_AUGUSTUS_SWAPPER_V5",
      "outputs": [
        {
          "internalType": "address",
          "name": "",
          "type": "address"
        }
      ],
      "stateMutability": "view",
      "type": "function"
    },
    {
      "inputs": [],
      "name": "PERMIT2",
      "outputs": [
        {
          "internalType": "address",
          "name": "",
          "type": "address"
        }
      ],
      "stateMutability": "view",
      "type": "function"
    },
    {
      "inputs": [],
      "name": "UNISWAP_V3_ROUTER",
      "outputs": [
        {
          "internalType": "address",
          "name": "",
          "type": "address"
        }
      ],
      "stateMutability": "view",
      "type": "function"
    },
    {
      "inputs": [
        {
          "internalType": "address",
          "name": "sender",
          "type": "address"
        },
        {
          "internalType": "uint256",
          "name": "borrowAmount",
          "type": "uint256"
        },
        {
          "internalType": "bytes",
          "name": "data",
          "type": "bytes"
        }
      ],
      "name": "altairBorrow_O9E",
      "outputs": [
        {
          "internalType": "uint256",
          "name": "liquidity",
          "type": "uint256"
        }
      ],
      "stateMutability": "nonpayable",
      "type": "function"
    },
    {
      "inputs": [
        {
          "internalType": "address",
          "name": "sender",
          "type": "address"
        },
        {
          "internalType": "uint256",
          "name": "cygLPAmount",
          "type": "uint256"
        },
        {
          "internalType": "uint256",
          "name": "repayAmount",
          "type": "uint256"
        },
        {
          "internalType": "bytes",
          "name": "data",
          "type": "bytes"
        }
      ],
      "name": "altairLiquidate_f2x",
      "outputs": [],
      "stateMutability": "nonpayable",
      "type": "function"
    },
    {
      "inputs": [
        {
          "internalType": "address",
          "name": "sender",
          "type": "address"
        },
        {
          "internalType": "uint256",
          "name": "redeemAmount",
          "type": "uint256"
        },
        {
          "internalType": "bytes",
          "name": "data",
          "type": "bytes"
        }
      ],
      "name": "altairRedeem_u91A",
      "outputs": [
        {
          "internalType": "uint256",
          "name": "usdAmount",
          "type": "uint256"
        }
      ],
      "stateMutability": "nonpayable",
      "type": "function"
    },
    {
      "inputs": [
        {
          "internalType": "address",
          "name": "underlying",
          "type": "address"
        },
        {
          "internalType": "uint256",
          "name": "shares",
          "type": "uint256"
        },
        {
          "internalType": "uint256",
          "name": "difference",
          "type": "uint256"
        }
      ],
      "name": "getAssetsForShares",
      "outputs": [
        {
          "internalType": "address[]",
          "name": "tokens",
          "type": "address[]"
        },
        {
          "internalType": "uint256[]",
          "name": "amounts",
          "type": "uint256[]"
        }
      ],
      "stateMutability": "view",
      "type": "function"
    },
    {
      "inputs": [],
      "name": "hangar18",
      "outputs": [
        {
          "internalType": "contract IHangar18",
          "name": "",
          "type": "address"
        }
      ],
      "stateMutability": "view",
      "type": "function"
    },
    {
      "inputs": [],
      "name": "name",
      "outputs": [
        {
          "internalType": "string",
          "name": "",
          "type": "string"
        }
      ],
      "stateMutability": "view",
      "type": "function"
    },
    {
      "inputs": [],
      "name": "nativeToken",
      "outputs": [
        {
          "internalType": "contract IWrappedNative",
          "name": "",
          "type": "address"
        }
      ],
      "stateMutability": "view",
      "type": "function"
    },
    {
      "inputs": [],
      "name": "sweepNative",
      "outputs": [],
      "stateMutability": "nonpayable",
      "type": "function"
    },
    {
      "inputs": [
        {
          "internalType": "contract IERC20[]",
          "name": "tokens",
          "type": "address[]"
        },
        {
          "internalType": "address",
          "name": "to",
          "type": "address"
        }
      ],
      "name": "sweepTokens",
      "outputs": [],
      "stateMutability": "nonpayable",
      "type": "function"
    },
    {
      "inputs": [],
      "name": "usd",
      "outputs": [
        {
          "internalType": "address",
          "name": "",
          "type": "address"
        }
      ],
      "stateMutability": "view",
      "type": "function"
    },
    {
      "inputs": [],
      "name": "version",
      "outputs": [
        {
          "internalType": "string",
          "name": "",
          "type": "string"
        }
      ],
      "stateMutability": "view",
      "type": "function"
    },
    {
      "stateMutability": "payable",
      "type": "receive"
    }
  ],
  "bytecode": "0x610100604090808252346200018757806200443780380380916200002482856200018c565b83396020928391810103126200018757516001600160a01b039081811690818103620001875760a0528351631c2eb17b60e31b8152908382600481845afa9283156200017c5760049385936000916200015a575b501660e052845163d63a6ccd60e01b815292839182905afa9182156200014f576000926200011b575b505060c052306080525161424f9081620001e8823960805181612c8c015260a05181818161078701528181610d04015261258d015260c0518181816104c7015281816108650152818161101d01528181611ad00152818161221e01528181612d560152613fc5015260e0518181816107f601526112d60152f35b6200013f9250803d1062000147575b6200013681836200018c565b810190620001c6565b3880620000a1565b503d6200012a565b83513d6000823e3d90fd5b620001759150843d861162000147576200013681836200018c565b3862000078565b85513d6000823e3d90fd5b600080fd5b601f909101601f19168101906001600160401b03821190821017620001b057604052565b634e487b7160e01b600052604160045260246000fd5b908160209103126200018757516001600160a01b038116810362000187579056fe6080604052600436101561001b575b361561001957600080fd5b005b6000803560e01c806306fdde03146128a45780632f7641351461285757806341c64a2f1461280a57806354fd4d501461277f5780636afdd850146127375780637071f0c4146124ab57806372e050641461245e57806388a799f6146124115780638f53d74f146115a9578063989bebcf14610dbf578063ab803a7614610c91578063bdcb993214610c44578063d0189a91146108d6578063d073674914610889578063d63a6ccd1461081a578063e1758bd8146107ab578063e8a24e1d1461073c5763e95471c7146100ed575061000e565b346107395760807ffffffffffffffffffffffffffffffffffffffffffffffffffffffffffffffffc3601126107395760043573ffffffffffffffffffffffffffffffffffffffff80821680920361063e576044359167ffffffffffffffff9160643583811161073557610164903690600401612a9a565b61016f939193612c75565b83019060209384818403126107315780359086821161072d57019061010093848385031261072d576101a46040519586612951565b6101ad83612a79565b85526101ba868401612a79565b948681019586526101cd60408501612a79565b93604082019485526101e160608201612a79565b95606083019687526101f560808301612a79565b608084015260a082013560a084015260c08201359960088b10156107295760c084019a8b5260e0830135908111610729576102309201612bbb565b60e082019081529230146102685760046040517fa610e788000000000000000000000000000000000000000000000000000000008152fd5b8184511633036106ff5781808092511696511693511693511695519060088210156106d2575191886040517f18160ddd0000000000000000000000000000000000000000000000000000000081528781600481865afa9081156106c7578291610696575b50604051907f01e1d1140000000000000000000000000000000000000000000000000000000082528882600481875afa801561068b5789928491610655575b506103af9161031c916024356140f0565b93610326846129c1565b6103336040519182612951565b8481527fffffffffffffffffffffffffffffffffffffffffffffffffffffffffffffffe0610360866129c1565b0136858301376040519485809481937ffa14fdc2000000000000000000000000000000000000000000000000000000008352306004840152896024840152606060448401526064830190612a1e565b03925af190811561064a57879161061c575b505060408051610420926103d6608083612951565b8b82528b898301528b838301528b6060830152825193849283927fa85598720000000000000000000000000000000000000000000000000000000084523090309060048601612d06565b03818c895af19182156106115789918a936105de575b506040517f0dfe168100000000000000000000000000000000000000000000000000000000815287816004818a5afa9687156105945788918c9861059f575b5090600491604051928380927fd21220a70000000000000000000000000000000000000000000000000000000082525afa978815610594578b9861054b575b50506104c4939287928792612d4f565b507f0000000000000000000000000000000000000000000000000000000000000000946104f13087614213565b918183106105215761051e9661051461050d8461051996612b7f565b88836141ca565b6141ca565b613f9e565b80f35b60046040517f38040e8d000000000000000000000000000000000000000000000000000000008152fd5b908092939850819594953d831161058d575b6105678183612951565b81010312610589576104c49361057d8792612b05565b979291819495506104b4565b8980fd5b503d61055d565b6040513d8d823e3d90fd5b8281939299503d83116105d7575b6105b78183612951565b810103126105d357876105cb600492612b05565b979091610475565b8a80fd5b503d6105ad565b909250610603915060403d60401161060a575b6105fb8183612951565b810190612b69565b9138610436565b503d6105f1565b6040513d8b823e3d90fd5b813d8311610643575b61062f8183612951565b8101031261063e5785386103c1565b600080fd5b503d610625565b6040513d8c823e3d90fd5b92809294508391503d8311610684575b61066f8183612951565b8101031261063e57518a9188916103af61030b565b503d610665565b6040513d85823e3d90fd5b809250888092503d83116106c0575b6106af8183612951565b8101031261063e57899051386102cc565b503d6106a5565b6040513d84823e3d90fd5b6024897f4e487b710000000000000000000000000000000000000000000000000000000081526021600452fd5b60046040517fe0ffcbfd000000000000000000000000000000000000000000000000000000008152fd5b8c80fd5b8880fd5b8780fd5b8580fd5b80fd5b503461073957807ffffffffffffffffffffffffffffffffffffffffffffffffffffffffffffffffc36011261073957602060405173ffffffffffffffffffffffffffffffffffffffff7f0000000000000000000000000000000000000000000000000000000000000000168152f35b503461073957807ffffffffffffffffffffffffffffffffffffffffffffffffffffffffffffffffc36011261073957602060405173ffffffffffffffffffffffffffffffffffffffff7f0000000000000000000000000000000000000000000000000000000000000000168152f35b503461073957807ffffffffffffffffffffffffffffffffffffffffffffffffffffffffffffffffc36011261073957602060405173ffffffffffffffffffffffffffffffffffffffff7f0000000000000000000000000000000000000000000000000000000000000000168152f35b503461073957807ffffffffffffffffffffffffffffffffffffffffffffffffffffffffffffffffc36011261073957602060405173a748d6573aca135af68f2635be60cb80278bd8558152f35b50346107395760607ffffffffffffffffffffffffffffffffffffffffffffffffffffffffffffffffc3601126107395760043573ffffffffffffffffffffffffffffffffffffffff9182821680920361063e576040517f18160ddd00000000000000000000000000000000000000000000000000000000815260243591602091604435908381600481895afa90811561068b578391610c17575b50604051917fc4a7761e0000000000000000000000000000000000000000000000000000000083526040836004818a5afa918215610c0c5784938593610be5575b50604051926109c1606085612951565b60028452868401976040368a37604051956109dd606088612951565b600287528887019a6040368d376040517f0dfe16810000000000000000000000000000000000000000000000000000000081528a81600481855afa90811561064a57918b918f938c91610ba7575b50600493610a398d8c612b26565b91169052604051928380927fd21220a70000000000000000000000000000000000000000000000000000000082525afa90811561061157878e918b93610b47575b509c9b999a989796610aab87610aab979583999795610ab095610aa16001610ac09e612b26565b91169052856140f0565b612b7f565b610aba8b89612b26565b526140f0565b610acb600183612b26565b526040519687966040880190604089525180915260608801949186905b828210610b2a5750505050858303868301525180835291810193925b828110610b1357505050500390f35b835185528695509381019392810192600101610b04565b8351811687528a9950958501959285019260019190910190610ae8565b925050508981813d8311610ba0575b610b608183612951565b8101031261072d5791610ab086610aab8f97610aab97958b610ac09b9a610aa16001610b8c869c612b05565b999b50505095509350959750979850610a7a565b503d610b56565b92809294508391503d8311610bde575b610bc18183612951565b81010312610589576004918e610bd78d93612b05565b9093610a2b565b503d610bb7565b909250610c0291935060403d60401161060a576105fb8183612951565b92909291386109b1565b6040513d86823e3d90fd5b90508381813d8311610c3d575b610c2e8183612951565b8101031261063e575138610970565b503d610c24565b503461073957807ffffffffffffffffffffffffffffffffffffffffffffffffffffffffffffffffc360112610739576020604051731111111254eeb25477b68fb85ed929f73a9605828152f35b503461073957807ffffffffffffffffffffffffffffffffffffffffffffffffffffffffffffffffc360112610739576040517ff851a44000000000000000000000000000000000000000000000000000000000815273ffffffffffffffffffffffffffffffffffffffff602082600481847f0000000000000000000000000000000000000000000000000000000000000000165afa91821561068b578392610d80575b5081163303610d56574780610d47578280f35b610d50916141ac565b38808280f35b60046040517f1a19b036000000000000000000000000000000000000000000000000000000008152fd5b9091506020813d8211610db7575b81610d9b60209383612951565b81010312610db357610dac90612b05565b9038610d34565b8280fd5b3d9150610d8e565b503461073957610dd0366004612ac8565b610ddc93919293612c75565b820190602093848484031261073557833567ffffffffffffffff9485821161073157019261010092838583031261073157610e1a6040519485612951565b610e2385612a79565b8452610e30878601612a79565b94878501958652610e4360408201612a79565b6040860152610e5460608201612a79565b936060860194855260808601916080810135835260a087019460a0820135865260c08201359960088b10156107295760c089019a8b5260e083013590811161072957610ea09201612bbb565b60e087019081529573ffffffffffffffffffffffffffffffffffffffff9384163014610ef05760046040517fa610e788000000000000000000000000000000000000000000000000000000008152fd5b83885116330361157f578380809251169651169751169151935197519560088710156115525760408a8c610f7893519481845193610f2f608086612951565b818552840152818484015281606084015283518095819482937fa85598720000000000000000000000000000000000000000000000000000000084523090309060048601612d06565b03918a5af1908115610594578b908c92611530575b50604051977f0dfe16810000000000000000000000000000000000000000000000000000000089528c8c8a6004818c5afa9889156112b7578d91996114f9575b60049a506040519a8b80927fd21220a70000000000000000000000000000000000000000000000000000000082525afa988915611445578d996114b5575b5061101a939289928992612d4f565b507f0000000000000000000000000000000000000000000000000000000000000000916110473084614213565b97881061148b57604051927fe99a6ac70000000000000000000000000000000000000000000000000000000084528984600481865afa938415610594578b94611454575b5081841693843b15611450576040517fa6afed950000000000000000000000000000000000000000000000000000000081528c81600481838a5af1801561144557611427575b50908b9594939291604051947f7d6af0790000000000000000000000000000000000000000000000000000000086528a6004870152604086602481845afa90811561141c578c8e926111d7988b916113fb575b508091106000146113f0575061113d8d80945b866141ca565b611146896129c1565b906111546040519283612951565b8982527fffffffffffffffffffffffffffffffffffffffffffffffffffffffffffffffe06111818b6129c1565b0136848401378c8a604051809a819582947f1e7dcc0d0000000000000000000000000000000000000000000000000000000084526004840152836024840152836044840152608060648401526084830190612a1e565b03925af19081156113e5578c958b926113b2575b50808c116112c4575b50506040517f23b872dd00000000000000000000000000000000000000000000000000000000815273ffffffffffffffffffffffffffffffffffffffff808b1660048301528416602482015260448101959095525092999192508991829081606481015b03925af180156112b75761127b575b50906112739291613f9e565b604051908152f35b8587813d83116112b0575b6112908183612951565b8101031261073957506112a7611273949596613ec6565b50859493611267565b503d611286565b50604051903d90823e3d90fd5b6112d2908c96939496612b7f565b92857f000000000000000000000000000000000000000000000000000000000000000016809682161460001461139b57505050823b15611397578480936024604051809681937f2e1a7d4d0000000000000000000000000000000000000000000000000000000083528660048401525af1801561138c578a93869161136d575b5050926113636112589394896141ac565b92913888816111f4565b819294509061137b91612951565b6113885788918438611352565b8380fd5b6040513d87823e3d90fd5b8480fd5b6112589550906113ad929693916141ca565b611363565b915094809297503d83116113de575b6113cb8183612951565b8101031261063e578a94888b94386111eb565b503d6113c1565b6040513d89823e3d90fd5b61113d908094611137565b611414915060403d60401161060a576105fb8183612951565b905038611124565b6040513d8a823e3d90fd5b8c611439919d9297969594939d612951565b9a9091929394386110d1565b6040513d8f823e3d90fd5b8b80fd5b9093508981813d8311611484575b61146c8183612951565b810103126105d35761147d90612b05565b923861108b565b503d611462565b60046040517fb2a4caeb000000000000000000000000000000000000000000000000000000008152fd5b909198508b81819594953d83116114f2575b6114d18183612951565b810103126107295761101a936114e78992612b05565b99929150929361100b565b503d6114c7565b985089813d8311611529575b61150f8183612951565b81010312610729578b61152360049a612b05565b98610fcd565b503d611505565b905061154b915060403d60401161060a576105fb8183612951565b9038610f8d565b60248b7f4e487b710000000000000000000000000000000000000000000000000000000081526021600452fd5b60046040517fd0e9c9f6000000000000000000000000000000000000000000000000000000008152fd5b5034610739576115ba366004612ac8565b6115c5939293612c75565b81019360208286031261073957813567ffffffffffffffff92838211610db357019160e08387031261240d576040519561160060e088612951565b61160984612a79565b875261161760208501612a79565b966020810197885261162b60408601612a79565b6040820190815261163e60608701612a79565b926060830193845260808301946080880135865260a08801359760088910156107315760a0850198895260c08101359182116107315761167f929101612bbb565b60c083019081529673ffffffffffffffffffffffffffffffffffffffff1630146116cd5760046040517fa610e788000000000000000000000000000000000000000000000000000000008152fd5b5173ffffffffffffffffffffffffffffffffffffffff1633036106ff5773ffffffffffffffffffffffffffffffffffffffff8080925116925116975116915193519460088610156123e0575193604051947f0dfe1681000000000000000000000000000000000000000000000000000000008652602086600481865afa95861561138c5785966123a4575b50604051967fd21220a7000000000000000000000000000000000000000000000000000000008852602088600481875afa97881561239957869861235d575b50604051987f86a29081000000000000000000000000000000000000000000000000000000008a5260208a600481885afa998a156113e557879a61231d575b508860048314888115612311575b81156122d2575b501561221a57506040517f313ce56700000000000000000000000000000000000000000000000000000000815260208160048173ffffffffffffffffffffffffffffffffffffffff8d165afa801561141c5788906121df575b61184e9150613ea6565b6040517f313ce56700000000000000000000000000000000000000000000000000000000815260208160048173ffffffffffffffffffffffffffffffffffffffff8f165afa80156106115789906121a4575b6118aa9150613ea6565b906118b582826140ad565b64e8d4a5100081111561219c57620f4240905b6040517f16f0115b0000000000000000000000000000000000000000000000000000000081526020816004818d5afa90811561213f578c9161214a575b5060e073ffffffffffffffffffffffffffffffffffffffff916004604051809481937fe76c01e4000000000000000000000000000000000000000000000000000000008352165afa90811561213f578c91612076575b507fffffffffffffffffffffffffffffffffffffffffffffffffffffffffffffffff600273ffffffffffffffffffffffffffffffffffffffff61199e9316613ed3565b9062ffffff83161561204957926119d58f9594936119cd604094611a4d9662ffffff8085169416900490613f8b565b60c01c613f8b565b948d73ffffffffffffffffffffffffffffffffffffffff8c8551968795869485937f5ccfb71d0000000000000000000000000000000000000000000000000000000085526004850160409194939294606082019573ffffffffffffffffffffffffffffffffffffffff80921683521660208201520152565b0392165afa90811561064a5791611a74611a7c928c611a8196958192612027575b50612d42565b60011c6140ad565b6140ad565b90670de0b6b3a764000091828101809111611fcd578015611ffa576ec097ce7bc90715b34b9f100000000004808303928311611fcd5781611ac78c9493611acd93614064565b92614064565b927f0000000000000000000000000000000000000000000000000000000000000000918973ffffffffffffffffffffffffffffffffffffffff8416918c858473ffffffffffffffffffffffffffffffffffffffff831603611faf575b5050505073ffffffffffffffffffffffffffffffffffffffff841603611f8f575b50505050505b611b5a3086614213565b611b643088614213565b97611b70828589613bd6565b611b7b89858a613bd6565b604080517f5ccfb71d00000000000000000000000000000000000000000000000000000000815273ffffffffffffffffffffffffffffffffffffffff8087166004830152891660248201526044810184905290818060648101038173ffffffffffffffffffffffffffffffffffffffff86165afa9081156113e55787908892611f6d575b508a10611eb3575b808a11611e97575b5073ffffffffffffffffffffffffffffffffffffffff9291602091611c98604051611c3b608082612951565b89815289858201528960408201528960608201526040519c8d947f8e3c92e4000000000000000000000000000000000000000000000000000000008652600486015260248501523060448501528760648501526084840190612cde565b8188610104968793165af197881561138c578598611e63575b508710611e3a5782611ce3886101209585611cde836e22d473030f116ddee9f6b43ac78ba3602099613bd6565b613d47565b888589611df2611cf2836129c1565b611cff6040519182612951565b8381527fffffffffffffffffffffffffffffffffffffffffffffffffffffffffffffffe0611d2c856129c1565b013689830137604051988997889687957f8808e71c0000000000000000000000000000000000000000000000000000000087526004870152602486015273ffffffffffffffffffffffffffffffffffffffff865416604486015260015473ffffffffffffffffffffffffffffffffffffffff8116606487015265ffffffffffff8160a01c16608487015260d01c60a486015273ffffffffffffffffffffffffffffffffffffffff6002541660c486015260035460e4860152840152610124830190612a1e565b03925af180156106c757611e0f575b602085611273888787613f9e565b602090813d8311611e33575b611e258183612951565b810103126107395780611e01565b503d611e1b565b60046040517ebf8768000000000000000000000000000000000000000000000000000000008152fd5b9097506020813d602011611e8f575b81611e7f60209383612951565b8101031261139757519638611cb1565b3d9150611e72565b985073ffffffffffffffffffffffffffffffffffffffff611c0f565b604080517f5ccfb71d00000000000000000000000000000000000000000000000000000000815273ffffffffffffffffffffffffffffffffffffffff80881660048301528b166024820152604481018c905290818060648101038173ffffffffffffffffffffffffffffffffffffffff87165afa90811561141c578891611f4c575b50808411611f44575b50611c07565b925038611f3e565b611f65915060403d60401161060a576105fb8183612951565b905038611f35565b9050611f88915060403d60401161060a576105fb8183612951565b9038611bff565b611f9d6001611fa496612b26565b5190612e21565b503880878180611b4a565b611fbc611fc3948b612b26565b5186612e21565b5089388c85611b29565b6024897f4e487b710000000000000000000000000000000000000000000000000000000081526011600452fd5b6024897f4e487b710000000000000000000000000000000000000000000000000000000081526012600452fd5b9050612042915060403d60401161060a576105fb8183612951565b9038611a6e565b60248c7f4e487b710000000000000000000000000000000000000000000000000000000081526012600452fd5b905060e0813d60e011612137575b8161209160e09383612951565b81010312611450576120a281612b05565b9060208101518060020b0361072957600273ffffffffffffffffffffffffffffffffffffffff61199e9361212d60c0856120ff60407fffffffffffffffffffffffffffffffffffffffffffffffffffffffffffffffff9801613eb7565b5061210c60608201613eb7565b5061211960808201613e98565b5061212660a08201613e98565b5001613ec6565b509350505061195b565b3d9150612084565b6040513d8e823e3d90fd5b90506020813d602011612194575b8161216560209383612951565b810103126114505760e061218d73ffffffffffffffffffffffffffffffffffffffff92612b05565b9150611905565b3d9150612158565b6001906118c8565b506020813d6020116121d7575b816121be60209383612951565b8101031261072d576121d26118aa91613e98565b6118a0565b3d91506121b1565b506020813d602011612212575b816121f960209383612951565b810103126107315761220d61184e91613e98565b611844565b3d91506121ec565b90917f00000000000000000000000000000000000000000000000000000000000000009073ffffffffffffffffffffffffffffffffffffffff821689858c858473ffffffffffffffffffffffffffffffffffffffff8316036122bb575b5050505073ffffffffffffffffffffffffffffffffffffffff8416036122a2575b5050505050611b50565b611f9d60016122b096612b26565b503880878180612298565b611fbc6122c8948b612b26565b5089858c85612277565b9150506122e4578860078314386117eb565b6024877f4e487b710000000000000000000000000000000000000000000000000000000081526021600452fd5b505060018314886117e4565b9099506020813d602011612355575b8161233960209383612951565b810103126123515761234a90612b05565b98386117d6565b8680fd5b3d915061232c565b9097506020813d602011612391575b8161237960209383612951565b810103126107355761238a90612b05565b9638611797565b3d915061236c565b6040513d88823e3d90fd5b9095506020813d6020116123d8575b816123c060209383612951565b81010312611397576123d190612b05565b9438611758565b3d91506123b3565b6024847f4e487b710000000000000000000000000000000000000000000000000000000081526021600452fd5b5080fd5b503461073957807ffffffffffffffffffffffffffffffffffffffffffffffffffffffffffffffffc36011261073957602060405173def171fe48cf0115b1d80b88dc8eab59176fee578152f35b503461073957807ffffffffffffffffffffffffffffffffffffffffffffffffffffffffffffffffc360112610739576020604051736352a56caadc4f1e25cd6c75970fa768a3304e648152f35b50346107395760407ffffffffffffffffffffffffffffffffffffffffffffffffffffffffffffffffc360112610739576004359067ffffffffffffffff821161073957366023830112156107395781600401359061250882612a61565b906125166040519283612951565b8282526020938483016024809560051b83010191368311611388578501905b82821061270b57505050823573ffffffffffffffffffffffffffffffffffffffff8082168203610db3576040517ff851a4400000000000000000000000000000000000000000000000000000000081528681600481857f0000000000000000000000000000000000000000000000000000000000000000165afa908115610c0c5790829185916126d3575b50163303610d5657825b84518110156126cf578587836125e08489612b26565b5116604051928380927f70a082310000000000000000000000000000000000000000000000000000000082523060048301525afa90811561138c5785916126a2575b5080612685575b507fffffffffffffffffffffffffffffffffffffffffffffffffffffffffffffffff8114612659576001016125ca565b85847f4e487b710000000000000000000000000000000000000000000000000000000081526011600452fd5b61269c908484612695858a612b26565b51166141ca565b38612629565b90508781813d83116126c8575b6126b98183612951565b81010312611397575138612622565b503d6126af565b8380f35b809250888092503d8311612704575b6126ec8183612951565b81010312611388576126fe8291612b05565b386125c0565b503d6126e2565b813573ffffffffffffffffffffffffffffffffffffffff81168103611397578152908601908601612535565b503461073957807ffffffffffffffffffffffffffffffffffffffffffffffffffffffffffffffffc3601126107395760206040516e22d473030f116ddee9f6b43ac78ba38152f35b503461073957807ffffffffffffffffffffffffffffffffffffffffffffffffffffffffffffffffc360112610739576128066127bb60056129c1565b6127c86040519182612951565b600581527f312e302e300000000000000000000000000000000000000000000000000000006020820152604051918291602083526020830190612a1e565b0390f35b503461073957807ffffffffffffffffffffffffffffffffffffffffffffffffffffffffffffffffc36011261073957602060405173e592427a0aece92de3edee1f18e0157c058615648152f35b503461073957807ffffffffffffffffffffffffffffffffffffffffffffffffffffffffffffffffc36011261073957602060405173def1c0ded9bec7f1a1670819833240f027b25eff8152f35b503461073957807ffffffffffffffffffffffffffffffffffffffffffffffffffffffffffffffffc360112610739576128066128e060226129c1565b6128ed6040519182612951565b602281527f416c7461697220457874656e73696f6e3a2048797065727669736f7220506f6f60208201527f6c730000000000000000000000000000000000000000000000000000000000006040820152604051918291602083526020830190612a1e565b90601f7fffffffffffffffffffffffffffffffffffffffffffffffffffffffffffffffe0910116810190811067ffffffffffffffff82111761299257604052565b7f4e487b7100000000000000000000000000000000000000000000000000000000600052604160045260246000fd5b67ffffffffffffffff811161299257601f017fffffffffffffffffffffffffffffffffffffffffffffffffffffffffffffffe01660200190565b60005b838110612a0e5750506000910152565b81810151838201526020016129fe565b907fffffffffffffffffffffffffffffffffffffffffffffffffffffffffffffffe0601f602093612a5a815180928187528780880191016129fb565b0116010190565b67ffffffffffffffff81116129925760051b60200190565b359073ffffffffffffffffffffffffffffffffffffffff8216820361063e57565b9181601f8401121561063e5782359167ffffffffffffffff831161063e576020838186019501011161063e57565b9160608383031261063e57612adc83612a79565b92602081013592604082013567ffffffffffffffff811161063e57612b019201612a9a565b9091565b519073ffffffffffffffffffffffffffffffffffffffff8216820361063e57565b8051821015612b3a5760209160051b010190565b7f4e487b7100000000000000000000000000000000000000000000000000000000600052603260045260246000fd5b919082604091031261063e576020825192015190565b91908203918211612b8c57565b7f4e487b7100000000000000000000000000000000000000000000000000000000600052601160045260246000fd5b9080601f8301121561063e57813591612bd383612a61565b92604090612be382519586612951565b808552602093848087019260051b8501019381851161063e57858101925b858410612c12575050505050505090565b833567ffffffffffffffff811161063e57820183603f8201121561063e578781013591612c3e836129c1565b612c4a88519182612951565b8381528588858501011161063e5760008a8581968b8397018386013783010152815201930192612c01565b73ffffffffffffffffffffffffffffffffffffffff7f0000000000000000000000000000000000000000000000000000000000000000163014612cb457565b60046040517fc97bbbae000000000000000000000000000000000000000000000000000000008152fd5b6000915b60048310612cef57505050565b600190825181526020809101920192019190612ce2565b90815273ffffffffffffffffffffffffffffffffffffffff91821660208201529116604082015260e081019291612d409160600190612cde565b565b91908201809211612b8c57565b90949391947f00000000000000000000000000000000000000000000000000000000000000009373ffffffffffffffffffffffffffffffffffffffff80861680828416149081928215612e15575b5050612dda575091611f9d6001612dcb612dd799969488612dd19997612dc460008d612b26565b5187612e21565b97612b26565b90612d42565b90565b90612dd7979492959391600090600014612dff575050611f9d6001612dd19697612b26565b611f9d919350612e10969597612b26565b612d42565b87161490503880612d9d565b93929091936008811015613b775780612f13575050604051927fd2c4b59800000000000000000000000000000000000000000000000000000000845260209373def171fe48cf0115b1d80b88dc8eab59176fee57918582600481865afa918215612f0757600092612ec1575b5060009485949392612e9e92613bd6565b84825192019034905af1612eb0613ba6565b9015612ebb57015190565b80519101fd5b90939291508581813d8311612f00575b612edb8183612951565b8101031261063e576000948594612ef4612e9e93612b05565b93949550915094612e8d565b503d612ed1565b6040513d6000823e3d90fd5b929391926001810361316a57505090805181018160208201910393610140851261063e5760e07fffffffffffffffffffffffffffffffffffffffffffffffffffffffffffffffe0612f6660208601612b05565b96011261063e57604094855194612f7e60e087612951565b612f89878601612b05565b8652612f9760608601612b05565b9060208701918252612fab60808701612b05565b94888801958652612fbe60a08801612b05565b976060810198895260c08801516080820190815260e08901519060a083019182526101008a01519260c081019384526101208b015167ffffffffffffffff9081811161063e57866020613013928f0101613ce1565b956101408d015191821161063e578e9c6130309201602001613ce1565b9589835103613162575b731111111254eeb25477b68fb85ed929f73a960582998a61305a92613bd6565b8a519b8c809b819a829a7f12aa3caf00000000000000000000000000000000000000000000000000000000845273ffffffffffffffffffffffffffffffffffffffff80968195828095169060040152511660248d0152511660448b015251166064890152511660848701525160a48601525160c48501525160e48401526101048301610140905261014483016130ef91612a1e565b8281037ffffffffffffffffffffffffffffffffffffffffffffffffffffffffffffffffc0161012484015261312391612a1e565b03915a90600091f19182156131585760009261313e57505090565b6131549250803d1061060a576105fb8183612951565b5090565b513d6000823e3d90fd5b89835261303a565b600281036131c2575050906000929161319a8493731111111254eeb25477b68fb85ed929f73a9605828093613bd6565b6020825192019034905af16131ad613ba6565b90156131ba576020015190565b602081519101fd5b600381036131f2575050906000929161319a849373def1c0ded9bec7f1a1670819833240f027b25eff8093613bd6565b6004810361366a575050815182019060608383031261063e5761321760208401612b05565b60408401519467ffffffffffffffff861161063e5761014086860185031261063e576040519261324961014085612951565b613257602088880101612b05565b8452613267604088880101612b05565b602085015261327a606088880101612b05565b604085015261328d608088880101612b05565b606085015260a08787010151608085015260c0878701015160a085015260e0878701015160c08501526101009687818801015160e08601526132d461012082890101612b05565b8886015261014081880101519067ffffffffffffffff821161063e57602061330392818901928a010101613ce1565b61012085015260608601519467ffffffffffffffff861161063e5760208101603f87890101121561063e576020868801015161333e81612a61565b9661334c6040519889612951565b8188526020880180996020850160408560051b85840101011161063e57604083820101915b60408560051b858401010183106135b757505050505050916133c382736352a56caadc4f1e25cd6c75970fa768a3304e646101209587956080613488990151036135ac575b9998979695949399613bd6565b6040519687967f90411a3200000000000000000000000000000000000000000000000000000000885273ffffffffffffffffffffffffffffffffffffffff8092166004890152606060248901528183511660648901528160208401511660848901528160408401511660a48901528160608401511660c4890152608083015160e489015260a083015161010489015260c083015161012489015260e08301516101448901528201511661016487015201516101406101848601526101a4850190612a1e565b907ffffffffffffffffffffffffffffffffffffffffffffffffffffffffffffffffc84830301604485015251808252602082019160208260051b82010193926000915b838310613538575050505050908060209203816000736352a56caadc4f1e25cd6c75970fa768a3304e645af1908115612f0757600091613509575090565b90506020813d602011613530575b8161352460209383612951565b8101031261063e575190565b3d9150613517565b91939550919360208061359a837fffffffffffffffffffffffffffffffffffffffffffffffffffffffffffffffe08660019603018752608060608b51805184528581015186850152604081015160408501520151918160608201520190612a1e565b970193019301909286959492936134cb565b8260808701526133b6565b82519067ffffffffffffffff821161063e5760807fffffffffffffffffffffffffffffffffffffffffffffffffffffffffffffffe083878601018903011261063e5760405191613608608084612951565b838601810160408181015185526060820151602086015260808201519085015260a001519167ffffffffffffffff831161063e5760409361365860209493868695868e01928c8b01010101613ce1565b60608201528152019301929050613371565b9193916005810361369c5750509060009261319a8493736352a56caadc4f1e25cd6c75970fa768a3304e648093613bd6565b919291600681036137ae575050604051927ff3dced3c00000000000000000000000000000000000000000000000000000000845260209373a748d6573aca135af68f2635be60cb80278bd855918582600481865afa8015612f07578690600090613766575b73ffffffffffffffffffffffffffffffffffffffff93506004604051809581937f1c6eced5000000000000000000000000000000000000000000000000000000008352165afa918215612f0757600092612ec1575060009485949392612e9e92613bd6565b5082813d83116137a7575b61377b8183612951565b8101031261063e57856137a273ffffffffffffffffffffffffffffffffffffffff93612b05565b613701565b503d613771565b909150600703613b4d576137d78273e592427a0aece92de3edee1f18e0157c0586156485613bd6565b600080604051906137e9608083612951565b606482526101f46020830152610bb86040830152612710606083015260005b600481106139675750505062ffffff1690811561393d5773ffffffffffffffffffffffffffffffffffffffff90816040519561384661010088612951565b168552166020840152604083015230606083015263ffffffff608083015260a0820152600060c0820152600060e082015273ffffffffffffffffffffffffffffffffffffffff60e0604051927f414bf38900000000000000000000000000000000000000000000000000000000845282815116600485015282602082015116602485015262ffffff60408201511660448501528260608201511660648501526080810151608485015260a081015160a485015260c081015160c485015201511660e482015260208161010481600073e592427a0aece92de3edee1f18e0157c058615645af1908115612f0757600091613509575090565b60046040517fe2db3aad000000000000000000000000000000000000000000000000000000008152fd5b62ffffff6139758285613d23565b5116604051907f1698ee8200000000000000000000000000000000000000000000000000000000825273ffffffffffffffffffffffffffffffffffffffff8916600483015273ffffffffffffffffffffffffffffffffffffffff871660248301526044820152602081606481731f98431c8ad98523631ae4a59f267346ea31f9845afa8015612f0757600090613b00575b73ffffffffffffffffffffffffffffffffffffffff91501680613a2d575b50600101613808565b6020600491604051928380927f1a6865020000000000000000000000000000000000000000000000000000000082525afa8015612f0757600090613aa5575b6fffffffffffffffffffffffffffffffff91501682811115613a245791509250600162ffffff613a9c8585613d23565b51169390613a24565b506020813d602011613af8575b81613abf60209383612951565b8101031261063e57516fffffffffffffffffffffffffffffffff8116810361063e576fffffffffffffffffffffffffffffffff90613a6c565b3d9150613ab2565b506020813d602011613b45575b81613b1a60209383612951565b8101031261063e57613b4073ffffffffffffffffffffffffffffffffffffffff91612b05565b613a06565b3d9150613b0d565b60046040517feff442c1000000000000000000000000000000000000000000000000000000008152fd5b7f4e487b7100000000000000000000000000000000000000000000000000000000600052602160045260246000fd5b3d15613bd1573d90613bb7826129c1565b91613bc56040519384612951565b82523d6000602084013e565b606090565b90916040517fdd62ed3e00000000000000000000000000000000000000000000000000000000815230600482015260208160448173ffffffffffffffffffffffffffffffffffffffff808916602483015287165afa908115612f0757600091613cb0575b501015613cac5760446010600080936020956014527fffffffffffffffffffffffffffffffffffffffffffffffffffffffffffffffff6034526f095ea7b300000000000000000000000082525af13d15600160005114171615613c9e576000603452565b633e3f8f736000526004601cfd5b5050565b906020823d8211613cd9575b81613cc960209383612951565b8101031261073957505138613c3a565b3d9150613cbc565b81601f8201121561063e578051613cf7816129c1565b92613d056040519485612951565b8184526020828401011161063e57612dd791602080850191016129fb565b906004811015612b3a5760051b0190565b519065ffffffffffff8216820361063e57565b916040517f927da10500000000000000000000000000000000000000000000000000000000815230600482015273ffffffffffffffffffffffffffffffffffffffff808095169384602484015216918260448301526e22d473030f116ddee9f6b43ac78ba391606081606481865afa8015612f07578691600091613e42575b50161015613e3c57803b1561063e576000928360849260405196879586947f87517c4500000000000000000000000000000000000000000000000000000000865260048601526024850152604484015265ffffffffffff60648401525af18015612f0757613e315750565b6000612d4091612951565b50505050565b91506060823d8211613e90575b81613e5c60609383612951565b81010312610739575080613e896040613e758994612b05565b92613e8260208201613d34565b5001613d34565b5038613dc6565b3d9150613e4f565b519060ff8216820361063e57565b60ff16604d8111612b8c57600a0a90565b519061ffff8216820361063e57565b5190811515820361063e57565b908015613f83578115613f7b578180600114613f7257600214613f585760208110610133831016604e8210600b84101617613f4c579091600191825b808211613f255750508290048111612b8c570290565b90938083048111612b8c57818516613f43575b800293811c90613f0f565b80930292613f38565b900a91908211612b8c57565b905060ff8193929311612b8c576001901b918211612b8c57565b50505050600190565b505050600090565b505050600190565b81810292918115918404141715612b8c57565b9190613faa3084614213565b613fb43083614213565b9080614053575b5080614042575b507f00000000000000000000000000000000000000000000000000000000000000009273ffffffffffffffffffffffffffffffffffffffff80918186169283911614159283614035575b505050614017575050565b6140213083614213565b908161402c57505050565b612d40926141ca565b161415905038808061400c565b61404d9083836141ca565b38613fc2565b61405e9084866141ca565b38613fbb565b90807fffffffffffffffffffffffffffffffffffffffffffffffffffffffffffffffff048211810261409f57670de0b6b3a764000091020490565b63bac65e5b6000526004601cfd5b670de0b6b3a7640000907812725dd1d243aba0e75fe645cc4873f9e65afe688c928e1f2181118202158302156140e257020490565b637c5f487d6000526004601cfd5b91600092828102927fffffffffffffffffffffffffffffffffffffffffffffffffffffffffffffffff8183099184831085018084039314614190578284111561418357908391099060018386038416808080960460028082600302188083028203028083028203028083028203028083028203028083028203028092029003029703040190848311900302920304170290565b63ae47f70286526004601cfd5b50505091821561419f57500490565b63ae47f70290526004601cfd5b600080809381935af1156141bc57565b63b12d13eb6000526004601cfd5b60109260209260145260345260446000938480936fa9059cbb00000000000000000000000082525af13d15600183511417161561420657603452565b6390b8ec1890526004601cfd5b602460106020939284936014526f70a082310000000000000000000000006000525afa601f3d1116602051029056fea164736f6c6343000811000a",
  "linkReferences": {},
  "deployedLinkReferences": {}
}