{
  "_format": "hh-sol-artifact-1",
  "contractName": "XHypervisor",
  "sourceName": "contracts/cygnus-periphery/XHypervisor.sol",
  "abi": [
    {
      "inputs": [
        {
          "internalType": "contract IHangar18",
          "name": "_hangar18",
          "type": "address"
        }
      ],
      "stateMutability": "nonpayable",
      "type": "constructor"
    },
    {
      "inputs": [],
      "name": "CygnusAltair__0xProjectTransactionFailed",
      "type": "error"
    },
    {
      "inputs": [],
      "name": "CygnusAltair__InsufficientLPTokenAmount",
      "type": "error"
    },
    {
      "inputs": [],
      "name": "CygnusAltair__InsufficientLiquidateUsd",
      "type": "error"
    },
    {
      "inputs": [],
      "name": "CygnusAltair__InsufficientUSDAmount",
      "type": "error"
    },
    {
      "inputs": [],
      "name": "CygnusAltair__InvalidAggregator",
      "type": "error"
    },
    {
      "inputs": [],
      "name": "CygnusAltair__InvalidPool",
      "type": "error"
    },
    {
      "inputs": [],
      "name": "CygnusAltair__MsgSenderNotAdmin",
      "type": "error"
    },
    {
      "inputs": [],
      "name": "CygnusAltair__MsgSenderNotBorrowable",
      "type": "error"
    },
    {
      "inputs": [],
      "name": "CygnusAltair__MsgSenderNotCollateral",
      "type": "error"
    },
    {
      "inputs": [],
      "name": "CygnusAltair__MsgSenderNotRouter",
      "type": "error"
    },
    {
      "inputs": [],
      "name": "CygnusAltair__OneInchTransactionFailed",
      "type": "error"
    },
    {
      "inputs": [],
      "name": "CygnusAltair__OnlyDelegateCall",
      "type": "error"
    },
    {
      "inputs": [],
      "name": "CygnusAltair__OpenOceanTransactionFailed",
      "type": "error"
    },
    {
      "inputs": [],
      "name": "CygnusAltair__ParaswapTransactionFailed",
      "type": "error"
    },
    {
      "inputs": [],
      "name": "OKX_AGGREGATION_ROUTER",
      "outputs": [
        {
          "internalType": "address",
          "name": "",
          "type": "address"
        }
      ],
      "stateMutability": "view",
      "type": "function"
    },
    {
      "inputs": [],
      "name": "ONE_INCH_ROUTER_V5",
      "outputs": [
        {
          "internalType": "address",
          "name": "",
          "type": "address"
        }
      ],
      "stateMutability": "view",
      "type": "function"
    },
    {
      "inputs": [],
      "name": "OPEN_OCEAN_EXCHANGE_PROXY",
      "outputs": [
        {
          "internalType": "address",
          "name": "",
          "type": "address"
        }
      ],
      "stateMutability": "view",
      "type": "function"
    },
    {
      "inputs": [],
      "name": "OxPROJECT_EXCHANGE_PROXY",
      "outputs": [
        {
          "internalType": "address",
          "name": "",
          "type": "address"
        }
      ],
      "stateMutability": "view",
      "type": "function"
    },
    {
      "inputs": [],
      "name": "PARASWAP_AUGUSTUS_SWAPPER_V5",
      "outputs": [
        {
          "internalType": "address",
          "name": "",
          "type": "address"
        }
      ],
      "stateMutability": "view",
      "type": "function"
    },
    {
      "inputs": [],
      "name": "PERMIT2",
      "outputs": [
        {
          "internalType": "address",
          "name": "",
          "type": "address"
        }
      ],
      "stateMutability": "view",
      "type": "function"
    },
    {
      "inputs": [],
      "name": "UNISWAP_V3_ROUTER",
      "outputs": [
        {
          "internalType": "address",
          "name": "",
          "type": "address"
        }
      ],
      "stateMutability": "view",
      "type": "function"
    },
    {
      "inputs": [
        {
          "internalType": "address",
          "name": "sender",
          "type": "address"
        },
        {
          "internalType": "uint256",
          "name": "borrowAmount",
          "type": "uint256"
        },
        {
          "internalType": "bytes",
          "name": "data",
          "type": "bytes"
        }
      ],
      "name": "altairBorrow_O9E",
      "outputs": [
        {
          "internalType": "uint256",
          "name": "liquidity",
          "type": "uint256"
        }
      ],
      "stateMutability": "nonpayable",
      "type": "function"
    },
    {
      "inputs": [
        {
          "internalType": "address",
          "name": "sender",
          "type": "address"
        },
        {
          "internalType": "uint256",
          "name": "cygLPAmount",
          "type": "uint256"
        },
        {
          "internalType": "uint256",
          "name": "repayAmount",
          "type": "uint256"
        },
        {
          "internalType": "bytes",
          "name": "data",
          "type": "bytes"
        }
      ],
      "name": "altairLiquidate_f2x",
      "outputs": [],
      "stateMutability": "nonpayable",
      "type": "function"
    },
    {
      "inputs": [
        {
          "internalType": "address",
          "name": "sender",
          "type": "address"
        },
        {
          "internalType": "uint256",
          "name": "redeemAmount",
          "type": "uint256"
        },
        {
          "internalType": "bytes",
          "name": "data",
          "type": "bytes"
        }
      ],
      "name": "altairRedeem_u91A",
      "outputs": [
        {
          "internalType": "uint256",
          "name": "usdAmount",
          "type": "uint256"
        }
      ],
      "stateMutability": "nonpayable",
      "type": "function"
    },
    {
      "inputs": [
        {
          "internalType": "address",
          "name": "underlying",
          "type": "address"
        },
        {
          "internalType": "uint256",
          "name": "shares",
          "type": "uint256"
        },
        {
          "internalType": "uint256",
          "name": "difference",
          "type": "uint256"
        }
      ],
      "name": "getAssetsForShares",
      "outputs": [
        {
          "internalType": "address[]",
          "name": "tokens",
          "type": "address[]"
        },
        {
          "internalType": "uint256[]",
          "name": "amounts",
          "type": "uint256[]"
        }
      ],
      "stateMutability": "view",
      "type": "function"
    },
    {
      "inputs": [],
      "name": "hangar18",
      "outputs": [
        {
          "internalType": "contract IHangar18",
          "name": "",
          "type": "address"
        }
      ],
      "stateMutability": "view",
      "type": "function"
    },
    {
      "inputs": [],
      "name": "name",
      "outputs": [
        {
          "internalType": "string",
          "name": "",
          "type": "string"
        }
      ],
      "stateMutability": "view",
      "type": "function"
    },
    {
      "inputs": [],
      "name": "nativeToken",
      "outputs": [
        {
          "internalType": "contract IWrappedNative",
          "name": "",
          "type": "address"
        }
      ],
      "stateMutability": "view",
      "type": "function"
    },
    {
      "inputs": [],
      "name": "sweepNative",
      "outputs": [],
      "stateMutability": "nonpayable",
      "type": "function"
    },
    {
      "inputs": [
        {
          "internalType": "contract IERC20[]",
          "name": "tokens",
          "type": "address[]"
        },
        {
          "internalType": "address",
          "name": "to",
          "type": "address"
        }
      ],
      "name": "sweepTokens",
      "outputs": [],
      "stateMutability": "nonpayable",
      "type": "function"
    },
    {
      "inputs": [],
      "name": "usd",
      "outputs": [
        {
          "internalType": "address",
          "name": "",
          "type": "address"
        }
      ],
      "stateMutability": "view",
      "type": "function"
    },
    {
      "inputs": [],
      "name": "version",
      "outputs": [
        {
          "internalType": "string",
          "name": "",
          "type": "string"
        }
      ],
      "stateMutability": "view",
      "type": "function"
    },
    {
      "stateMutability": "payable",
      "type": "receive"
    }
  ],
  "bytecode": "0x610100604090808252346200018757806200439680380380916200002482856200018c565b83396020928391810103126200018757516001600160a01b039081811690818103620001875760a0528351631c2eb17b60e31b8152908382600481845afa9283156200017c5760049385936000916200015a575b501660e052845163d63a6ccd60e01b815292839182905afa9182156200014f576000926200011b575b505060c05230608052516141ae9081620001e8823960805181612c26015260a05181818161078701528181610d040152612523015260c0518181816104c7015281816108650152818161101d01528181611a62015281816121c301528181612cf00152613f50015260e0518181816107f601526112900152f35b6200013f9250803d1062000147575b6200013681836200018c565b810190620001c6565b3880620000a1565b503d6200012a565b83513d6000823e3d90fd5b620001759150843d861162000147576200013681836200018c565b3862000078565b85513d6000823e3d90fd5b600080fd5b601f909101601f19168101906001600160401b03821190821017620001b057604052565b634e487b7160e01b600052604160045260246000fd5b908160209103126200018757516001600160a01b038116810362000187579056fe6080604052600436101561001b575b361561001957600080fd5b005b6000803560e01c806306fdde031461283e5780632f764135146127f157806341c64a2f146127a457806354fd4d50146127195780636afdd850146126d15780637071f0c41461244157806372e05064146123f457806388a799f6146123a75780638f53d74f1461153b578063989bebcf14610dbf578063ab803a7614610c91578063bdcb993214610c44578063d0189a91146108d6578063d073674914610889578063d63a6ccd1461081a578063e1758bd8146107ab578063e8a24e1d1461073c5763e95471c7146100ed575061000e565b346107395760807ffffffffffffffffffffffffffffffffffffffffffffffffffffffffffffffffc3601126107395760043573ffffffffffffffffffffffffffffffffffffffff80821680920361063e576044359167ffffffffffffffff9160643583811161073557610164903690600401612a34565b61016f939193612c0f565b83019060209384818403126107315780359086821161072d57019061010093848385031261072d576101a460405195866128eb565b6101ad83612a13565b85526101ba868401612a13565b948681019586526101cd60408501612a13565b93604082019485526101e160608201612a13565b95606083019687526101f560808301612a13565b608084015260a082013560a084015260c08201359960088b10156107295760c084019a8b5260e0830135908111610729576102309201612b55565b60e082019081529230146102685760046040517fa610e788000000000000000000000000000000000000000000000000000000008152fd5b8184511633036106ff5781808092511696511693511693511695519060088210156106d2575191886040517f18160ddd0000000000000000000000000000000000000000000000000000000081528781600481865afa9081156106c7578291610696575b50604051907f01e1d1140000000000000000000000000000000000000000000000000000000082528882600481875afa801561068b5789928491610655575b506103af9161031c9160243561404f565b936103268461295b565b61033360405191826128eb565b8481527fffffffffffffffffffffffffffffffffffffffffffffffffffffffffffffffe06103608661295b565b0136858301376040519485809481937ffa14fdc20000000000000000000000000000000000000000000000000000000083523060048401528960248401526060604484015260648301906129b8565b03925af190811561064a57879161061c575b505060408051610420926103d66080836128eb565b8b82528b898301528b838301528b6060830152825193849283927fa85598720000000000000000000000000000000000000000000000000000000084523090309060048601612ca0565b03818c895af19182156106115789918a936105de575b506040517f0dfe168100000000000000000000000000000000000000000000000000000000815287816004818a5afa9687156105945788918c9861059f575b5090600491604051928380927fd21220a70000000000000000000000000000000000000000000000000000000082525afa978815610594578b9861054b575b50506104c4939287928792612ce9565b507f0000000000000000000000000000000000000000000000000000000000000000946104f13087614172565b918183106105215761051e9661051461050d8461051996612b19565b8883614129565b614129565b613f38565b80f35b60046040517f38040e8d000000000000000000000000000000000000000000000000000000008152fd5b908092939850819594953d831161058d575b61056781836128eb565b81010312610589576104c49361057d8792612a9f565b979291819495506104b4565b8980fd5b503d61055d565b6040513d8d823e3d90fd5b8281939299503d83116105d7575b6105b781836128eb565b810103126105d357876105cb600492612a9f565b979091610475565b8a80fd5b503d6105ad565b909250610603915060403d60401161060a575b6105fb81836128eb565b810190612b03565b9138610436565b503d6105f1565b6040513d8b823e3d90fd5b813d8311610643575b61062f81836128eb565b8101031261063e5785386103c1565b600080fd5b503d610625565b6040513d8c823e3d90fd5b92809294508391503d8311610684575b61066f81836128eb565b8101031261063e57518a9188916103af61030b565b503d610665565b6040513d85823e3d90fd5b809250888092503d83116106c0575b6106af81836128eb565b8101031261063e57899051386102cc565b503d6106a5565b6040513d84823e3d90fd5b6024897f4e487b710000000000000000000000000000000000000000000000000000000081526021600452fd5b60046040517fe0ffcbfd000000000000000000000000000000000000000000000000000000008152fd5b8c80fd5b8880fd5b8780fd5b8580fd5b80fd5b503461073957807ffffffffffffffffffffffffffffffffffffffffffffffffffffffffffffffffc36011261073957602060405173ffffffffffffffffffffffffffffffffffffffff7f0000000000000000000000000000000000000000000000000000000000000000168152f35b503461073957807ffffffffffffffffffffffffffffffffffffffffffffffffffffffffffffffffc36011261073957602060405173ffffffffffffffffffffffffffffffffffffffff7f0000000000000000000000000000000000000000000000000000000000000000168152f35b503461073957807ffffffffffffffffffffffffffffffffffffffffffffffffffffffffffffffffc36011261073957602060405173ffffffffffffffffffffffffffffffffffffffff7f0000000000000000000000000000000000000000000000000000000000000000168152f35b503461073957807ffffffffffffffffffffffffffffffffffffffffffffffffffffffffffffffffc36011261073957602060405173a748d6573aca135af68f2635be60cb80278bd8558152f35b50346107395760607ffffffffffffffffffffffffffffffffffffffffffffffffffffffffffffffffc3601126107395760043573ffffffffffffffffffffffffffffffffffffffff9182821680920361063e576040517f18160ddd00000000000000000000000000000000000000000000000000000000815260243591602091604435908381600481895afa90811561068b578391610c17575b50604051917fc4a7761e0000000000000000000000000000000000000000000000000000000083526040836004818a5afa918215610c0c5784938593610be5575b50604051926109c16060856128eb565b60028452868401976040368a37604051956109dd6060886128eb565b600287528887019a6040368d376040517f0dfe16810000000000000000000000000000000000000000000000000000000081528a81600481855afa90811561064a57918b918f938c91610ba7575b50600493610a398d8c612ac0565b91169052604051928380927fd21220a70000000000000000000000000000000000000000000000000000000082525afa90811561061157878e918b93610b47575b509c9b999a989796610aab87610aab979583999795610ab095610aa16001610ac09e612ac0565b911690528561404f565b612b19565b610aba8b89612ac0565b5261404f565b610acb600183612ac0565b526040519687966040880190604089525180915260608801949186905b828210610b2a5750505050858303868301525180835291810193925b828110610b1357505050500390f35b835185528695509381019392810192600101610b04565b8351811687528a9950958501959285019260019190910190610ae8565b925050508981813d8311610ba0575b610b6081836128eb565b8101031261072d5791610ab086610aab8f97610aab97958b610ac09b9a610aa16001610b8c869c612a9f565b999b50505095509350959750979850610a7a565b503d610b56565b92809294508391503d8311610bde575b610bc181836128eb565b81010312610589576004918e610bd78d93612a9f565b9093610a2b565b503d610bb7565b909250610c0291935060403d60401161060a576105fb81836128eb565b92909291386109b1565b6040513d86823e3d90fd5b90508381813d8311610c3d575b610c2e81836128eb565b8101031261063e575138610970565b503d610c24565b503461073957807ffffffffffffffffffffffffffffffffffffffffffffffffffffffffffffffffc360112610739576020604051731111111254eeb25477b68fb85ed929f73a9605828152f35b503461073957807ffffffffffffffffffffffffffffffffffffffffffffffffffffffffffffffffc360112610739576040517ff851a44000000000000000000000000000000000000000000000000000000000815273ffffffffffffffffffffffffffffffffffffffff602082600481847f0000000000000000000000000000000000000000000000000000000000000000165afa91821561068b578392610d80575b5081163303610d56574780610d47578280f35b610d509161410b565b38808280f35b60046040517f1a19b036000000000000000000000000000000000000000000000000000000008152fd5b9091506020813d8211610db7575b81610d9b602093836128eb565b81010312610db357610dac90612a9f565b9038610d34565b8280fd5b3d9150610d8e565b503461073957610dd0366004612a62565b610ddc93919293612c0f565b820190602093848484031261073557833567ffffffffffffffff9485821161073157019261010092838583031261073157610e1a60405194856128eb565b610e2385612a13565b8452610e30878601612a13565b94878501958652610e4360408201612a13565b6040860152610e5460608201612a13565b936060860194855260808601916080810135835260a087019460a0820135865260c08201359960088b10156107295760c089019a8b5260e083013590811161072957610ea09201612b55565b60e087019081529573ffffffffffffffffffffffffffffffffffffffff9384163014610ef05760046040517fa610e788000000000000000000000000000000000000000000000000000000008152fd5b838851163303611511578380809251169651169751169151935197519560088710156114e45760408a8c610f7893519481845193610f2f6080866128eb565b818552840152818484015281606084015283518095819482937fa85598720000000000000000000000000000000000000000000000000000000084523090309060048601612ca0565b03918a5af1908115610594578b908c926114c2575b50604051977f0dfe16810000000000000000000000000000000000000000000000000000000089528c8c8a6004818c5afa98891561126f578d919961148b575b60049a506040519a8b80927fd21220a70000000000000000000000000000000000000000000000000000000082525afa988915611480578d9961143c575b5061101a939289928992612ce9565b507f0000000000000000000000000000000000000000000000000000000000000000926110473085614172565b978810611412578993604051937fe99a6ac70000000000000000000000000000000000000000000000000000000085528a85600481875afa9485156114075786956113d0575b5080851694604051957f7d6af0790000000000000000000000000000000000000000000000000000000087528a6004880152604087602481845afa9081156113c5578c8e92611190998b916113a4575b5080911060001461139957506110f68d80945b87614129565b6110ff8961295b565b9061110d60405192836128eb565b8982527fffffffffffffffffffffffffffffffffffffffffffffffffffffffffffffffe061113a8b61295b565b0136848401378c8a604051809b819582947f1e7dcc0d00000000000000000000000000000000000000000000000000000000845260048401528360248401528360448401526080606484015260848301906129b8565b03925af190811561138e578c968b9261135f575b50808c1161127c575b50506040517f23b872dd00000000000000000000000000000000000000000000000000000000815273ffffffffffffffffffffffffffffffffffffffff808b1660048301528516602482015260448101939093525090998a929150829081606481015b03925af1801561126f57611233575b509061122b9291613f38565b604051908152f35b8587813d8311611268575b61124881836128eb565b81010312610739575061125f61122b949596613e60565b5085949361121f565b503d61123e565b50604051903d90823e3d90fd5b61128d908c98959793949698612b19565b947f00000000000000000000000000000000000000000000000000000000000000008416938116840361134557505050803b156113415781906024604051809481937f2e1a7d4d0000000000000000000000000000000000000000000000000000000083528760048401525af1801561064a57611321575b5088928892611317611210938961410b565b90913888816111ad565b9288928a6113366113179c61121095976128eb565b9a5092509290611305565b5080fd5b61135a92969350906112109591979497614129565b611317565b90968092503d8311611387575b61137681836128eb565b8101031261073557888b95386111a4565b503d61136c565b6040513d89823e3d90fd5b6110f69080946110f0565b6113bd915060403d60401161060a576105fb81836128eb565b9050386110dd565b6040513d8a823e3d90fd5b9094508a81813d8311611400575b6113e881836128eb565b81010312610735576113f990612a9f565b933861108d565b503d6113de565b6040513d88823e3d90fd5b60046040517fb2a4caeb000000000000000000000000000000000000000000000000000000008152fd5b909198508b81819594953d8311611479575b61145881836128eb565b810103126107295761101a9361146e8992612a9f565b99929150929361100b565b503d61144e565b6040513d8f823e3d90fd5b985089813d83116114bb575b6114a181836128eb565b81010312610729578b6114b560049a612a9f565b98610fcd565b503d611497565b90506114dd915060403d60401161060a576105fb81836128eb565b9038610f8d565b60248b7f4e487b710000000000000000000000000000000000000000000000000000000081526021600452fd5b60046040517fd0e9c9f6000000000000000000000000000000000000000000000000000000008152fd5b50346107395761154c366004612a62565b611557939293612c0f565b81019360208286031261073957813567ffffffffffffffff92838211610db357019160e083870312611341576040519561159260e0886128eb565b61159b84612a13565b87526115a960208501612a13565b96602081019788526115bd60408601612a13565b604082019081526115d060608701612a13565b926060830193845260808301946080880135865260a08801359760088910156107315760a0850198895260c081013591821161073157611611929101612b55565b60c083019081529673ffffffffffffffffffffffffffffffffffffffff16301461165f5760046040517fa610e788000000000000000000000000000000000000000000000000000000008152fd5b5173ffffffffffffffffffffffffffffffffffffffff1633036106ff5773ffffffffffffffffffffffffffffffffffffffff80809251169251169751169151935194600886101561237a575193604051947f0dfe1681000000000000000000000000000000000000000000000000000000008652602086600481865afa958615611e2d57859661233e575b50604051967fd21220a7000000000000000000000000000000000000000000000000000000008852602088600481875afa978815611407578698612302575b50604051987f86a29081000000000000000000000000000000000000000000000000000000008a5260208a600481885afa998a1561138e57879a6122c2575b5088600483148881156122b6575b8115612277575b50156121bf57506040517f313ce56700000000000000000000000000000000000000000000000000000000815260208160048173ffffffffffffffffffffffffffffffffffffffff8d165afa80156113c5578890612184575b6117e09150613e40565b6040517f313ce56700000000000000000000000000000000000000000000000000000000815260208160048173ffffffffffffffffffffffffffffffffffffffff8f165afa8015610611578990612149575b61183c9150613e40565b90611847828261400c565b64e8d4a5100081111561214157620f4240905b6040517f16f0115b0000000000000000000000000000000000000000000000000000000081526020816004818d5afa9081156120e4578c916120ef575b5060e073ffffffffffffffffffffffffffffffffffffffff916004604051809481937fe76c01e4000000000000000000000000000000000000000000000000000000008352165afa9081156120e4578c91612017575b507fffffffffffffffffffffffffffffffffffffffffffffffffffffffffffffffff600273ffffffffffffffffffffffffffffffffffffffff6119309316613e6d565b9062ffffff831615611fea57926119678f95949361195f6040946119df9662ffffff8085169416900490613f25565b60c01c613f25565b948d73ffffffffffffffffffffffffffffffffffffffff8c8551968795869485937f5ccfb71d0000000000000000000000000000000000000000000000000000000085526004850160409194939294606082019573ffffffffffffffffffffffffffffffffffffffff80921683521660208201520152565b0392165afa90811561064a5791611a06611a0e928c611a1396958192611fc8575b50612cdc565b60011c61400c565b61400c565b90670de0b6b3a764000091828101809111611f6e578015611f9b576ec097ce7bc90715b34b9f100000000004808303928311611f6e5781611a598c9493611a5f93613fc3565b92613fc3565b927f0000000000000000000000000000000000000000000000000000000000000000918973ffffffffffffffffffffffffffffffffffffffff8416918c858473ffffffffffffffffffffffffffffffffffffffff831603611f50575b5050505073ffffffffffffffffffffffffffffffffffffffff841603611f30575b50505050505b611aec3086614172565b611af63088614172565b97611b02828589613b70565b611b0d89858a613b70565b604080517f5ccfb71d00000000000000000000000000000000000000000000000000000000815273ffffffffffffffffffffffffffffffffffffffff8087166004830152891660248201526044810184905290818060648101038173ffffffffffffffffffffffffffffffffffffffff86165afa90811561138e5787908892611f0e575b508a10611e54575b808a11611e38575b5073ffffffffffffffffffffffffffffffffffffffff9291602091611c2a604051611bcd6080826128eb565b89815289858201528960408201528960608201526040519c8d947f8e3c92e4000000000000000000000000000000000000000000000000000000008652600486015260248501523060448501528760648501526084840190612c78565b8188610104968793165af1978815611e2d578598611df5575b508710611dcc5782611c75886101209585611c70836e22d473030f116ddee9f6b43ac78ba3602099613b70565b613ce1565b888589611d84611c848361295b565b611c9160405191826128eb565b8381527fffffffffffffffffffffffffffffffffffffffffffffffffffffffffffffffe0611cbe8561295b565b013689830137604051988997889687957f8808e71c0000000000000000000000000000000000000000000000000000000087526004870152602486015273ffffffffffffffffffffffffffffffffffffffff865416604486015260015473ffffffffffffffffffffffffffffffffffffffff8116606487015265ffffffffffff8160a01c16608487015260d01c60a486015273ffffffffffffffffffffffffffffffffffffffff6002541660c486015260035460e48601528401526101248301906129b8565b03925af180156106c757611da1575b60208561122b888787613f38565b602090813d8311611dc5575b611db781836128eb565b810103126107395780611d93565b503d611dad565b60046040517ebf8768000000000000000000000000000000000000000000000000000000008152fd5b9097506020813d602011611e25575b81611e11602093836128eb565b81010312611e2157519638611c43565b8480fd5b3d9150611e04565b6040513d87823e3d90fd5b985073ffffffffffffffffffffffffffffffffffffffff611ba1565b604080517f5ccfb71d00000000000000000000000000000000000000000000000000000000815273ffffffffffffffffffffffffffffffffffffffff80881660048301528b166024820152604481018c905290818060648101038173ffffffffffffffffffffffffffffffffffffffff87165afa9081156113c5578891611eed575b50808411611ee5575b50611b99565b925038611edf565b611f06915060403d60401161060a576105fb81836128eb565b905038611ed6565b9050611f29915060403d60401161060a576105fb81836128eb565b9038611b91565b611f3e6001611f4596612ac0565b5190612dbb565b503880878180611adc565b611f5d611f64948b612ac0565b5186612dbb565b5089388c85611abb565b6024897f4e487b710000000000000000000000000000000000000000000000000000000081526011600452fd5b6024897f4e487b710000000000000000000000000000000000000000000000000000000081526012600452fd5b9050611fe3915060403d60401161060a576105fb81836128eb565b9038611a00565b60248c7f4e487b710000000000000000000000000000000000000000000000000000000081526012600452fd5b905060e0813d60e0116120dc575b8161203260e093836128eb565b810103126120d85761204381612a9f565b9060208101518060020b0361072957600273ffffffffffffffffffffffffffffffffffffffff611930936120ce60c0856120a060407fffffffffffffffffffffffffffffffffffffffffffffffffffffffffffffffff9801613e51565b506120ad60608201613e51565b506120ba60808201613e32565b506120c760a08201613e32565b5001613e60565b50935050506118ed565b8b80fd5b3d9150612025565b6040513d8e823e3d90fd5b90506020813d602011612139575b8161210a602093836128eb565b810103126120d85760e061213273ffffffffffffffffffffffffffffffffffffffff92612a9f565b9150611897565b3d91506120fd565b60019061185a565b506020813d60201161217c575b81612163602093836128eb565b8101031261072d5761217761183c91613e32565b611832565b3d9150612156565b506020813d6020116121b7575b8161219e602093836128eb565b81010312610731576121b26117e091613e32565b6117d6565b3d9150612191565b90917f00000000000000000000000000000000000000000000000000000000000000009073ffffffffffffffffffffffffffffffffffffffff821689858c858473ffffffffffffffffffffffffffffffffffffffff831603612260575b5050505073ffffffffffffffffffffffffffffffffffffffff841603612247575b5050505050611ae2565b611f3e600161225596612ac0565b50388087818061223d565b611f5d61226d948b612ac0565b5089858c8561221c565b9150506122895788600783143861177d565b6024877f4e487b710000000000000000000000000000000000000000000000000000000081526021600452fd5b50506001831488611776565b9099506020813d6020116122fa575b816122de602093836128eb565b810103126122f6576122ef90612a9f565b9838611768565b8680fd5b3d91506122d1565b9097506020813d602011612336575b8161231e602093836128eb565b810103126107355761232f90612a9f565b9638611729565b3d9150612311565b9095506020813d602011612372575b8161235a602093836128eb565b81010312611e215761236b90612a9f565b94386116ea565b3d915061234d565b6024847f4e487b710000000000000000000000000000000000000000000000000000000081526021600452fd5b503461073957807ffffffffffffffffffffffffffffffffffffffffffffffffffffffffffffffffc36011261073957602060405173def171fe48cf0115b1d80b88dc8eab59176fee578152f35b503461073957807ffffffffffffffffffffffffffffffffffffffffffffffffffffffffffffffffc360112610739576020604051736352a56caadc4f1e25cd6c75970fa768a3304e648152f35b50346107395760407ffffffffffffffffffffffffffffffffffffffffffffffffffffffffffffffffc360112610739576004359067ffffffffffffffff821161073957366023830112156107395781600401359061249e826129fb565b906124ac60405192836128eb565b8282526020938483016024809560051b8301019136831161269a578501905b8282106126a557505050823573ffffffffffffffffffffffffffffffffffffffff8082168203610db3576040517ff851a4400000000000000000000000000000000000000000000000000000000081528681600481857f0000000000000000000000000000000000000000000000000000000000000000165afa908115610c0c579082918591612669575b50163303610d5657825b8451811015612665578587836125768489612ac0565b5116604051928380927f70a082310000000000000000000000000000000000000000000000000000000082523060048301525afa908115611e2d578591612638575b508061261b575b507fffffffffffffffffffffffffffffffffffffffffffffffffffffffffffffffff81146125ef57600101612560565b85847f4e487b710000000000000000000000000000000000000000000000000000000081526011600452fd5b61263290848461262b858a612ac0565b5116614129565b386125bf565b90508781813d831161265e575b61264f81836128eb565b81010312611e215751386125b8565b503d612645565b8380f35b809250888092503d831161269e575b61268281836128eb565b8101031261269a576126948291612a9f565b38612556565b8380fd5b503d612678565b813573ffffffffffffffffffffffffffffffffffffffff81168103611e215781529086019086016124cb565b503461073957807ffffffffffffffffffffffffffffffffffffffffffffffffffffffffffffffffc3601126107395760206040516e22d473030f116ddee9f6b43ac78ba38152f35b503461073957807ffffffffffffffffffffffffffffffffffffffffffffffffffffffffffffffffc360112610739576127a0612755600561295b565b61276260405191826128eb565b600581527f312e302e3000000000000000000000000000000000000000000000000000000060208201526040519182916020835260208301906129b8565b0390f35b503461073957807ffffffffffffffffffffffffffffffffffffffffffffffffffffffffffffffffc36011261073957602060405173e592427a0aece92de3edee1f18e0157c058615648152f35b503461073957807ffffffffffffffffffffffffffffffffffffffffffffffffffffffffffffffffc36011261073957602060405173def1c0ded9bec7f1a1670819833240f027b25eff8152f35b503461073957807ffffffffffffffffffffffffffffffffffffffffffffffffffffffffffffffffc360112610739576127a061287a602261295b565b61288760405191826128eb565b602281527f416c7461697220457874656e73696f6e3a2048797065727669736f7220506f6f60208201527f6c7300000000000000000000000000000000000000000000000000000000000060408201526040519182916020835260208301906129b8565b90601f7fffffffffffffffffffffffffffffffffffffffffffffffffffffffffffffffe0910116810190811067ffffffffffffffff82111761292c57604052565b7f4e487b7100000000000000000000000000000000000000000000000000000000600052604160045260246000fd5b67ffffffffffffffff811161292c57601f017fffffffffffffffffffffffffffffffffffffffffffffffffffffffffffffffe01660200190565b60005b8381106129a85750506000910152565b8181015183820152602001612998565b907fffffffffffffffffffffffffffffffffffffffffffffffffffffffffffffffe0601f6020936129f481518092818752878088019101612995565b0116010190565b67ffffffffffffffff811161292c5760051b60200190565b359073ffffffffffffffffffffffffffffffffffffffff8216820361063e57565b9181601f8401121561063e5782359167ffffffffffffffff831161063e576020838186019501011161063e57565b9160608383031261063e57612a7683612a13565b92602081013592604082013567ffffffffffffffff811161063e57612a9b9201612a34565b9091565b519073ffffffffffffffffffffffffffffffffffffffff8216820361063e57565b8051821015612ad45760209160051b010190565b7f4e487b7100000000000000000000000000000000000000000000000000000000600052603260045260246000fd5b919082604091031261063e576020825192015190565b91908203918211612b2657565b7f4e487b7100000000000000000000000000000000000000000000000000000000600052601160045260246000fd5b9080601f8301121561063e57813591612b6d836129fb565b92604090612b7d825195866128eb565b808552602093848087019260051b8501019381851161063e57858101925b858410612bac575050505050505090565b833567ffffffffffffffff811161063e57820183603f8201121561063e578781013591612bd88361295b565b612be4885191826128eb565b8381528588858501011161063e5760008a8581968b8397018386013783010152815201930192612b9b565b73ffffffffffffffffffffffffffffffffffffffff7f0000000000000000000000000000000000000000000000000000000000000000163014612c4e57565b60046040517fc97bbbae000000000000000000000000000000000000000000000000000000008152fd5b6000915b60048310612c8957505050565b600190825181526020809101920192019190612c7c565b90815273ffffffffffffffffffffffffffffffffffffffff91821660208201529116604082015260e081019291612cda9160600190612c78565b565b91908201809211612b2657565b90949391947f00000000000000000000000000000000000000000000000000000000000000009373ffffffffffffffffffffffffffffffffffffffff80861680828416149081928215612daf575b5050612d74575091611f3e6001612d65612d7199969488612d6b9997612d5e60008d612ac0565b5187612dbb565b97612ac0565b90612cdc565b90565b90612d71979492959391600090600014612d99575050611f3e6001612d6b9697612ac0565b611f3e919350612daa969597612ac0565b612cdc565b87161490503880612d37565b93929091936008811015613b115780612ead575050604051927fd2c4b59800000000000000000000000000000000000000000000000000000000845260209373def171fe48cf0115b1d80b88dc8eab59176fee57918582600481865afa918215612ea157600092612e5b575b5060009485949392612e3892613b70565b84825192019034905af1612e4a613b40565b9015612e5557015190565b80519101fd5b90939291508581813d8311612e9a575b612e7581836128eb565b8101031261063e576000948594612e8e612e3893612a9f565b93949550915094612e27565b503d612e6b565b6040513d6000823e3d90fd5b929391926001810361310457505090805181018160208201910393610140851261063e5760e07fffffffffffffffffffffffffffffffffffffffffffffffffffffffffffffffe0612f0060208601612a9f565b96011261063e57604094855194612f1860e0876128eb565b612f23878601612a9f565b8652612f3160608601612a9f565b9060208701918252612f4560808701612a9f565b94888801958652612f5860a08801612a9f565b976060810198895260c08801516080820190815260e08901519060a083019182526101008a01519260c081019384526101208b015167ffffffffffffffff9081811161063e57866020612fad928f0101613c7b565b956101408d015191821161063e578e9c612fca9201602001613c7b565b95898351036130fc575b731111111254eeb25477b68fb85ed929f73a960582998a612ff492613b70565b8a519b8c809b819a829a7f12aa3caf00000000000000000000000000000000000000000000000000000000845273ffffffffffffffffffffffffffffffffffffffff80968195828095169060040152511660248d0152511660448b015251166064890152511660848701525160a48601525160c48501525160e4840152610104830161014090526101448301613089916129b8565b8281037ffffffffffffffffffffffffffffffffffffffffffffffffffffffffffffffffc016101248401526130bd916129b8565b03915a90600091f19182156130f2576000926130d857505090565b6130ee9250803d1061060a576105fb81836128eb565b5090565b513d6000823e3d90fd5b898352612fd4565b6002810361315c57505090600092916131348493731111111254eeb25477b68fb85ed929f73a9605828093613b70565b6020825192019034905af1613147613b40565b9015613154576020015190565b602081519101fd5b6003810361318c5750509060009291613134849373def1c0ded9bec7f1a1670819833240f027b25eff8093613b70565b60048103613604575050815182019060608383031261063e576131b160208401612a9f565b60408401519467ffffffffffffffff861161063e5761014086860185031261063e57604051926131e3610140856128eb565b6131f1602088880101612a9f565b8452613201604088880101612a9f565b6020850152613214606088880101612a9f565b6040850152613227608088880101612a9f565b606085015260a08787010151608085015260c0878701015160a085015260e0878701015160c08501526101009687818801015160e086015261326e61012082890101612a9f565b8886015261014081880101519067ffffffffffffffff821161063e57602061329d92818901928a010101613c7b565b61012085015260608601519467ffffffffffffffff861161063e5760208101603f87890101121561063e57602086880101516132d8816129fb565b966132e660405198896128eb565b8188526020880180996020850160408560051b85840101011161063e57604083820101915b60408560051b85840101018310613551575050505050509161335d82736352a56caadc4f1e25cd6c75970fa768a3304e64610120958795608061342299015103613546575b9998979695949399613b70565b6040519687967f90411a3200000000000000000000000000000000000000000000000000000000885273ffffffffffffffffffffffffffffffffffffffff8092166004890152606060248901528183511660648901528160208401511660848901528160408401511660a48901528160608401511660c4890152608083015160e489015260a083015161010489015260c083015161012489015260e08301516101448901528201511661016487015201516101406101848601526101a48501906129b8565b907ffffffffffffffffffffffffffffffffffffffffffffffffffffffffffffffffc84830301604485015251808252602082019160208260051b82010193926000915b8383106134d2575050505050908060209203816000736352a56caadc4f1e25cd6c75970fa768a3304e645af1908115612ea1576000916134a3575090565b90506020813d6020116134ca575b816134be602093836128eb565b8101031261063e575190565b3d91506134b1565b919395509193602080613534837fffffffffffffffffffffffffffffffffffffffffffffffffffffffffffffffe08660019603018752608060608b518051845285810151868501526040810151604085015201519181606082015201906129b8565b97019301930190928695949293613465565b826080870152613350565b82519067ffffffffffffffff821161063e5760807fffffffffffffffffffffffffffffffffffffffffffffffffffffffffffffffe083878601018903011261063e57604051916135a26080846128eb565b838601810160408181015185526060820151602086015260808201519085015260a001519167ffffffffffffffff831161063e576040936135f260209493868695868e01928c8b01010101613c7b565b6060820152815201930192905061330b565b91939160058103613636575050906000926131348493736352a56caadc4f1e25cd6c75970fa768a3304e648093613b70565b91929160068103613748575050604051927ff3dced3c00000000000000000000000000000000000000000000000000000000845260209373a748d6573aca135af68f2635be60cb80278bd855918582600481865afa8015612ea1578690600090613700575b73ffffffffffffffffffffffffffffffffffffffff93506004604051809581937f1c6eced5000000000000000000000000000000000000000000000000000000008352165afa918215612ea157600092612e5b575060009485949392612e3892613b70565b5082813d8311613741575b61371581836128eb565b8101031261063e578561373c73ffffffffffffffffffffffffffffffffffffffff93612a9f565b61369b565b503d61370b565b909150600703613ae7576137718273e592427a0aece92de3edee1f18e0157c0586156485613b70565b600080604051906137836080836128eb565b606482526101f46020830152610bb86040830152612710606083015260005b600481106139015750505062ffffff169081156138d75773ffffffffffffffffffffffffffffffffffffffff9081604051956137e0610100886128eb565b168552166020840152604083015230606083015263ffffffff608083015260a0820152600060c0820152600060e082015273ffffffffffffffffffffffffffffffffffffffff60e0604051927f414bf38900000000000000000000000000000000000000000000000000000000845282815116600485015282602082015116602485015262ffffff60408201511660448501528260608201511660648501526080810151608485015260a081015160a485015260c081015160c485015201511660e482015260208161010481600073e592427a0aece92de3edee1f18e0157c058615645af1908115612ea1576000916134a3575090565b60046040517fe2db3aad000000000000000000000000000000000000000000000000000000008152fd5b62ffffff61390f8285613cbd565b5116604051907f1698ee8200000000000000000000000000000000000000000000000000000000825273ffffffffffffffffffffffffffffffffffffffff8916600483015273ffffffffffffffffffffffffffffffffffffffff871660248301526044820152602081606481731f98431c8ad98523631ae4a59f267346ea31f9845afa8015612ea157600090613a9a575b73ffffffffffffffffffffffffffffffffffffffff915016806139c7575b506001016137a2565b6020600491604051928380927f1a6865020000000000000000000000000000000000000000000000000000000082525afa8015612ea157600090613a3f575b6fffffffffffffffffffffffffffffffff915016828111156139be5791509250600162ffffff613a368585613cbd565b511693906139be565b506020813d602011613a92575b81613a59602093836128eb565b8101031261063e57516fffffffffffffffffffffffffffffffff8116810361063e576fffffffffffffffffffffffffffffffff90613a06565b3d9150613a4c565b506020813d602011613adf575b81613ab4602093836128eb565b8101031261063e57613ada73ffffffffffffffffffffffffffffffffffffffff91612a9f565b6139a0565b3d9150613aa7565b60046040517feff442c1000000000000000000000000000000000000000000000000000000008152fd5b7f4e487b7100000000000000000000000000000000000000000000000000000000600052602160045260246000fd5b3d15613b6b573d90613b518261295b565b91613b5f60405193846128eb565b82523d6000602084013e565b606090565b90916040517fdd62ed3e00000000000000000000000000000000000000000000000000000000815230600482015260208160448173ffffffffffffffffffffffffffffffffffffffff808916602483015287165afa908115612ea157600091613c4a575b501015613c465760446010600080936020956014527fffffffffffffffffffffffffffffffffffffffffffffffffffffffffffffffff6034526f095ea7b300000000000000000000000082525af13d15600160005114171615613c38576000603452565b633e3f8f736000526004601cfd5b5050565b906020823d8211613c73575b81613c63602093836128eb565b8101031261073957505138613bd4565b3d9150613c56565b81601f8201121561063e578051613c918161295b565b92613c9f60405194856128eb565b8184526020828401011161063e57612d719160208085019101612995565b906004811015612ad45760051b0190565b519065ffffffffffff8216820361063e57565b916040517f927da10500000000000000000000000000000000000000000000000000000000815230600482015273ffffffffffffffffffffffffffffffffffffffff808095169384602484015216918260448301526e22d473030f116ddee9f6b43ac78ba391606081606481865afa8015612ea1578691600091613ddc575b50161015613dd657803b1561063e576000928360849260405196879586947f87517c4500000000000000000000000000000000000000000000000000000000865260048601526024850152604484015265ffffffffffff60648401525af18015612ea157613dcb5750565b6000612cda916128eb565b50505050565b91506060823d8211613e2a575b81613df6606093836128eb565b81010312610739575080613e236040613e0f8994612a9f565b92613e1c60208201613cce565b5001613cce565b5038613d60565b3d9150613de9565b519060ff8216820361063e57565b60ff16604d8111612b2657600a0a90565b519061ffff8216820361063e57565b5190811515820361063e57565b908015613f1d578115613f15578180600114613f0c57600214613ef25760208110610133831016604e8210600b84101617613ee6579091600191825b808211613ebf5750508290048111612b26570290565b90938083048111612b2657818516613edd575b800293811c90613ea9565b80930292613ed2565b900a91908211612b2657565b905060ff8193929311612b26576001901b918211612b2657565b50505050600190565b505050600090565b505050600190565b81810292918115918404141715612b2657565b91613f433084614172565b91613f4e3082614172565b7f000000000000000000000000000000000000000000000000000000000000000094613f7a3087614172565b948481613fb2575b91505081613fa1575b50505081613f9857505050565b612cda92614129565b613faa92614129565b388082613f8b565b613fbb92614129565b388084613f82565b90807fffffffffffffffffffffffffffffffffffffffffffffffffffffffffffffffff0482118102613ffe57670de0b6b3a764000091020490565b63bac65e5b6000526004601cfd5b670de0b6b3a7640000907812725dd1d243aba0e75fe645cc4873f9e65afe688c928e1f21811182021583021561404157020490565b637c5f487d6000526004601cfd5b91600092828102927fffffffffffffffffffffffffffffffffffffffffffffffffffffffffffffffff81830991848310850180840393146140ef57828411156140e257908391099060018386038416808080960460028082600302188083028203028083028203028083028203028083028203028083028203028092029003029703040190848311900302920304170290565b63ae47f70286526004601cfd5b5050509182156140fe57500490565b63ae47f70290526004601cfd5b600080809381935af11561411b57565b63b12d13eb6000526004601cfd5b60109260209260145260345260446000938480936fa9059cbb00000000000000000000000082525af13d15600183511417161561416557603452565b6390b8ec1890526004601cfd5b602460106020939284936014526f70a082310000000000000000000000006000525afa601f3d1116602051029056fea164736f6c6343000811000a",
  "linkReferences": {},
  "deployedLinkReferences": {}
}