{
  "_format": "hh-sol-artifact-1",
  "contractName": "XHypervisor",
  "sourceName": "contracts/cygnus-periphery/XHypervisor.sol",
  "abi": [
    {
      "inputs": [
        {
          "internalType": "contract IHangar18",
          "name": "_hangar18",
          "type": "address"
        },
        {
          "internalType": "string",
          "name": "name",
          "type": "string"
        }
      ],
      "stateMutability": "nonpayable",
      "type": "constructor"
    },
    {
      "inputs": [],
      "name": "CygnusAltair__0xProjectTransactionFailed",
      "type": "error"
    },
    {
      "inputs": [],
      "name": "CygnusAltair__InsufficientLPTokenAmount",
      "type": "error"
    },
    {
      "inputs": [],
      "name": "CygnusAltair__InsufficientLiquidateUsd",
      "type": "error"
    },
    {
      "inputs": [],
      "name": "CygnusAltair__InsufficientUSDAmount",
      "type": "error"
    },
    {
      "inputs": [],
      "name": "CygnusAltair__MsgSenderNotBorrowable",
      "type": "error"
    },
    {
      "inputs": [],
      "name": "CygnusAltair__MsgSenderNotCollateral",
      "type": "error"
    },
    {
      "inputs": [],
      "name": "CygnusAltair__MsgSenderNotRouter",
      "type": "error"
    },
    {
      "inputs": [],
      "name": "CygnusAltair__OneInchTransactionFailed",
      "type": "error"
    },
    {
      "inputs": [],
      "name": "CygnusAltair__OnlyDelegateCall",
      "type": "error"
    },
    {
      "inputs": [],
      "name": "CygnusAltair__OpenOceanTransactionFailed",
      "type": "error"
    },
    {
      "inputs": [],
      "name": "CygnusAltair__ParaswapTransactionFailed",
      "type": "error"
    },
    {
      "inputs": [],
      "name": "ONE_INCH_ROUTER_V5",
      "outputs": [
        {
          "internalType": "address",
          "name": "",
          "type": "address"
        }
      ],
      "stateMutability": "view",
      "type": "function"
    },
    {
      "inputs": [],
      "name": "OPEN_OCEAN_EXCHANGE_PROXY",
      "outputs": [
        {
          "internalType": "address",
          "name": "",
          "type": "address"
        }
      ],
      "stateMutability": "view",
      "type": "function"
    },
    {
      "inputs": [],
      "name": "OxPROJECT_EXCHANGE_PROXY",
      "outputs": [
        {
          "internalType": "address",
          "name": "",
          "type": "address"
        }
      ],
      "stateMutability": "view",
      "type": "function"
    },
    {
      "inputs": [],
      "name": "PARASWAP_AUGUSTUS_SWAPPER_V5",
      "outputs": [
        {
          "internalType": "address",
          "name": "",
          "type": "address"
        }
      ],
      "stateMutability": "view",
      "type": "function"
    },
    {
      "inputs": [],
      "name": "PERMIT2",
      "outputs": [
        {
          "internalType": "address",
          "name": "",
          "type": "address"
        }
      ],
      "stateMutability": "view",
      "type": "function"
    },
    {
      "inputs": [],
      "name": "UNISWAP_V3_ROUTER",
      "outputs": [
        {
          "internalType": "address",
          "name": "",
          "type": "address"
        }
      ],
      "stateMutability": "view",
      "type": "function"
    },
    {
      "inputs": [
        {
          "internalType": "address",
          "name": "sender",
          "type": "address"
        },
        {
          "internalType": "uint256",
          "name": "borrowAmount",
          "type": "uint256"
        },
        {
          "internalType": "bytes",
          "name": "data",
          "type": "bytes"
        }
      ],
      "name": "altairBorrow_O9E",
      "outputs": [
        {
          "internalType": "uint256",
          "name": "liquidity",
          "type": "uint256"
        }
      ],
      "stateMutability": "nonpayable",
      "type": "function"
    },
    {
      "inputs": [
        {
          "internalType": "address",
          "name": "sender",
          "type": "address"
        },
        {
          "internalType": "uint256",
          "name": "cygLPAmount",
          "type": "uint256"
        },
        {
          "internalType": "uint256",
          "name": "repayAmount",
          "type": "uint256"
        },
        {
          "internalType": "bytes",
          "name": "data",
          "type": "bytes"
        }
      ],
      "name": "altairLiquidate_f2x",
      "outputs": [],
      "stateMutability": "nonpayable",
      "type": "function"
    },
    {
      "inputs": [
        {
          "internalType": "address",
          "name": "sender",
          "type": "address"
        },
        {
          "internalType": "uint256",
          "name": "redeemAmount",
          "type": "uint256"
        },
        {
          "internalType": "bytes",
          "name": "data",
          "type": "bytes"
        }
      ],
      "name": "altairRedeem_u91A",
      "outputs": [
        {
          "internalType": "uint256",
          "name": "usdAmount",
          "type": "uint256"
        }
      ],
      "stateMutability": "nonpayable",
      "type": "function"
    },
    {
      "inputs": [
        {
          "internalType": "address",
          "name": "underlying",
          "type": "address"
        },
        {
          "internalType": "uint256",
          "name": "shares",
          "type": "uint256"
        },
        {
          "internalType": "uint256",
          "name": "difference",
          "type": "uint256"
        }
      ],
      "name": "getAssetsForShares",
      "outputs": [
        {
          "internalType": "address[]",
          "name": "tokens",
          "type": "address[]"
        },
        {
          "internalType": "uint256[]",
          "name": "amounts",
          "type": "uint256[]"
        }
      ],
      "stateMutability": "view",
      "type": "function"
    },
    {
      "inputs": [],
      "name": "hangar18",
      "outputs": [
        {
          "internalType": "contract IHangar18",
          "name": "",
          "type": "address"
        }
      ],
      "stateMutability": "view",
      "type": "function"
    },
    {
      "inputs": [],
      "name": "name",
      "outputs": [
        {
          "internalType": "string",
          "name": "",
          "type": "string"
        }
      ],
      "stateMutability": "view",
      "type": "function"
    },
    {
      "inputs": [],
      "name": "nativeToken",
      "outputs": [
        {
          "internalType": "contract IWrappedNative",
          "name": "",
          "type": "address"
        }
      ],
      "stateMutability": "view",
      "type": "function"
    },
    {
      "inputs": [
        {
          "internalType": "string",
          "name": "_name",
          "type": "string"
        }
      ],
      "name": "setName",
      "outputs": [],
      "stateMutability": "nonpayable",
      "type": "function"
    },
    {
      "inputs": [],
      "name": "sweepNative",
      "outputs": [],
      "stateMutability": "nonpayable",
      "type": "function"
    },
    {
      "inputs": [
        {
          "internalType": "address",
          "name": "token",
          "type": "address"
        }
      ],
      "name": "sweepToken",
      "outputs": [],
      "stateMutability": "nonpayable",
      "type": "function"
    },
    {
      "inputs": [],
      "name": "usd",
      "outputs": [
        {
          "internalType": "address",
          "name": "",
          "type": "address"
        }
      ],
      "stateMutability": "view",
      "type": "function"
    },
    {
      "stateMutability": "payable",
      "type": "receive"
    }
  ],
  "bytecode": "0x610100604090808252346200039757620047f480380380916200002382856200039c565b833981018282820312620003975781516001600160a01b039081811690818103620003975760208581015190956001600160401b03919082821162000397570190601f95808784011215620003975782519282841162000381578951601f1994620000958a820187168c01836200039c565b8082528a8201938b8285010111620003975783620000f9603b938e620000e58f957f4379676e75733a20416c7461697220457874656e73696f6e202d20000000000099876200010a9a01620003c0565b5196879485015251809285850190620003c0565b810103601b8101845201826200039c565b805191821162000381576004968754916001928381811c9116801562000376575b8b821014620003615782811162000316575b5089918411600114620002b05783945090839291600094620002a4575b50501b916000199060031b1c19161784555b60a0528451631c2eb17b60e31b81529184838581855afa80156200029957859360009162000277575b501660e052845163d63a6ccd60e01b815292839182905afa9182156200026c5760009262000238575b505060c05230608052516143ed908162000407823960805181612e69015260a05181818161077b01528181610c94015281816110450152612912015260c0518181816104bb015281816108590152818161133001528181611dd4015281816125220152612f33015260e0518181816107ea01526115e90152f35b6200025c9250803d1062000264575b6200025381836200039c565b810190620003e5565b3880620001be565b503d62000247565b83513d6000823e3d90fd5b620002929150843d861162000264576200025381836200039c565b3862000195565b86513d6000823e3d90fd5b0151925038806200015a565b919383169188600052838a6000209360005b8c88838310620002fe5750505010620002e4575b505050811b0184556200016c565b015160001960f88460031b161c19169055388080620002d6565b868601518855909601959485019487935001620002c2565b896000528a6000208380870160051c8201928d881062000357575b0160051c019084905b8281106200034a5750506200013d565b600081550184906200033a565b9250819262000331565b60228a634e487b7160e01b6000525260246000fd5b90607f16906200012b565b634e487b7160e01b600052604160045260246000fd5b600080fd5b601f909101601f19168101906001600160401b038211908210176200038157604052565b60005b838110620003d45750506000910152565b8181015183820152602001620003c3565b908160209103126200039757516001600160a01b038116810362000397579056fe608080604052600436101561001d575b50361561001b57600080fd5b005b600090813560e01c90816306fdde03146129aa575080631be19560146128915780632f7641351461284457806341c64a2f146127f75780636afdd850146127af57806372e050641461276257806388a799f6146127155780638f53d74f146118ad578063989bebcf146110d2578063ab803a7614610fd2578063bdcb993214610f85578063c47f002714610beb578063d0189a911461087d578063d63a6ccd1461080e578063e1758bd81461079f578063e8a24e1d146107305763e95471c70361000f573461072d5760807ffffffffffffffffffffffffffffffffffffffffffffffffffffffffffffffffc36011261072d5760043573ffffffffffffffffffffffffffffffffffffffff808216809203610632576044359167ffffffffffffffff9160643583811161072957610158903690600401612c15565b610163939193612e52565b830190602093848184031261072557803590868211610721570190610100938483850312610721576101986040519586612b1e565b6101a183612bf4565b85526101ae868401612bf4565b948681019586526101c160408501612bf4565b93604082019485526101d560608201612bf4565b95606083019687526101e960808301612bf4565b608084015260a082013560a084015260c08201359960078b101561071d5760c084019a8b5260e083013590811161071d576102249201612dbf565b60e0820190815292301461025c5760046040517fa610e788000000000000000000000000000000000000000000000000000000008152fd5b8184511633036106f35781808092511696511693511693511695519060078210156106c6575191886040517f18160ddd0000000000000000000000000000000000000000000000000000000081528781600481865afa9081156106bb57829161068a575b50604051907f01e1d1140000000000000000000000000000000000000000000000000000000082528882600481875afa801561067f5789928491610649575b506103a3916103109160243561428e565b9361031a84612c80565b6103276040519182612b1e565b8481527fffffffffffffffffffffffffffffffffffffffffffffffffffffffffffffffe061035486612c80565b0136858301376040519485809481937ffa14fdc2000000000000000000000000000000000000000000000000000000008352306004840152896024840152606060448401526064830190612bb1565b03925af190811561063e578791610610575b505060408051610414926103ca608083612b1e565b8b82528b898301528b838301528b6060830152825193849283927fa85598720000000000000000000000000000000000000000000000000000000084523090309060048601612ee3565b03818c895af19182156106055789918a936105d2575b506040517f0dfe168100000000000000000000000000000000000000000000000000000000815287816004818a5afa9687156105885788918c98610593575b5090600491604051928380927fd21220a70000000000000000000000000000000000000000000000000000000082525afa978815610588578b9861053f575b50506104b8939287928792612f2c565b507f0000000000000000000000000000000000000000000000000000000000000000946104e530876143b1565b9181831061051557610512966105086105018461050d96612d83565b8883614368565b614368565b6141bc565b80f35b60046040517f38040e8d000000000000000000000000000000000000000000000000000000008152fd5b908092939850819594953d8311610581575b61055b8183612b1e565b8101031261057d576104b8936105718792612cf1565b979291819495506104a8565b8980fd5b503d610551565b6040513d8d823e3d90fd5b8281939299503d83116105cb575b6105ab8183612b1e565b810103126105c757876105bf600492612cf1565b979091610469565b8a80fd5b503d6105a1565b9092506105f7915060403d6040116105fe575b6105ef8183612b1e565b810190612d12565b913861042a565b503d6105e5565b6040513d8b823e3d90fd5b813d8311610637575b6106238183612b1e565b810103126106325785386103b5565b600080fd5b503d610619565b6040513d8c823e3d90fd5b92809294508391503d8311610678575b6106638183612b1e565b8101031261063257518a9188916103a36102ff565b503d610659565b6040513d85823e3d90fd5b809250888092503d83116106b4575b6106a38183612b1e565b8101031261063257899051386102c0565b503d610699565b6040513d84823e3d90fd5b6024897f4e487b710000000000000000000000000000000000000000000000000000000081526021600452fd5b60046040517fe0ffcbfd000000000000000000000000000000000000000000000000000000008152fd5b8c80fd5b8880fd5b8780fd5b8580fd5b80fd5b503461072d57807ffffffffffffffffffffffffffffffffffffffffffffffffffffffffffffffffc36011261072d57602060405173ffffffffffffffffffffffffffffffffffffffff7f0000000000000000000000000000000000000000000000000000000000000000168152f35b503461072d57807ffffffffffffffffffffffffffffffffffffffffffffffffffffffffffffffffc36011261072d57602060405173ffffffffffffffffffffffffffffffffffffffff7f0000000000000000000000000000000000000000000000000000000000000000168152f35b503461072d57807ffffffffffffffffffffffffffffffffffffffffffffffffffffffffffffffffc36011261072d57602060405173ffffffffffffffffffffffffffffffffffffffff7f0000000000000000000000000000000000000000000000000000000000000000168152f35b503461072d5760607ffffffffffffffffffffffffffffffffffffffffffffffffffffffffffffffffc36011261072d5760043573ffffffffffffffffffffffffffffffffffffffff91828216809203610632576040517f18160ddd00000000000000000000000000000000000000000000000000000000815260243591602091604435908381600481895afa90811561067f578391610bbe575b50604051917fc4a7761e0000000000000000000000000000000000000000000000000000000083526040836004818a5afa918215610bb35784938593610b8c575b5060405192610968606085612b1e565b60028452868401976040368a3760405195610984606088612b1e565b600287528887019a6040368d376040517f0dfe16810000000000000000000000000000000000000000000000000000000081528a81600481855afa90811561063e57918b918f938c91610b4e575b506004936109e08d8c612d40565b91169052604051928380927fd21220a70000000000000000000000000000000000000000000000000000000082525afa90811561060557878e918b93610aee575b509c9b999a989796610a5287610a52979583999795610a5795610a486001610a679e612d40565b911690528561428e565b612d83565b610a618b89612d40565b5261428e565b610a72600183612d40565b526040519687966040880190604089525180915260608801949186905b828210610ad15750505050858303868301525180835291810193925b828110610aba57505050500390f35b835185528695509381019392810192600101610aab565b8351811687528a9950958501959285019260019190910190610a8f565b925050508981813d8311610b47575b610b078183612b1e565b810103126107215791610a5786610a528f97610a5297958b610a679b9a610a486001610b33869c612cf1565b999b50505095509350959750979850610a21565b503d610afd565b92809294508391503d8311610b85575b610b688183612b1e565b8101031261057d576004918e610b7e8d93612cf1565b90936109d2565b503d610b5e565b909250610ba991935060403d6040116105fe576105ef8183612b1e565b9290929138610958565b6040513d86823e3d90fd5b90508381813d8311610be4575b610bd58183612b1e565b81010312610632575138610917565b503d610bcb565b503461072d57602090817ffffffffffffffffffffffffffffffffffffffffffffffffffffffffffffffffc36011261072d5767ffffffffffffffff600435818111610f815736602382011215610f8157610c4f903690602481600401359101612cba565b926040517ff851a44000000000000000000000000000000000000000000000000000000000815273ffffffffffffffffffffffffffffffffffffffff908281600481857f0000000000000000000000000000000000000000000000000000000000000000165afa908115610f76578591610f3d575b50163303610ede57610d1d603b60405180967f4379676e75733a20416c7461697220457874656e73696f6e202d20000000000085830152610d0d81518092878686019101612b8e565b810103601b810187520185612b1e565b8351918211610eb157610d31600454612acb565b601f8111610e4f575b5080601f8311600114610d9257508293829392610d87575b50507fffffffffffffffffffffffffffffffffffffffffffffffffffffffffffffffff8260011b9260031b1c19161760045580f35b015190503880610d52565b907fffffffffffffffffffffffffffffffffffffffffffffffffffffffffffffffe0831694600485527f8a35acfbc15ff81a39ae7d344fd709f28e8600b4aa8c65c6b64bfe7fe36bd19b9285905b878210610e37575050836001959610610e00575b505050811b0160045580f35b01517fffffffffffffffffffffffffffffffffffffffffffffffffffffffffffffffff60f88460031b161c19169055388080610df4565b80600185968294968601518155019501930190610de0565b600484527f8a35acfbc15ff81a39ae7d344fd709f28e8600b4aa8c65c6b64bfe7fe36bd19b601f840160051c810191838510610ea7575b601f0160051c01905b818110610e9c5750610d3a565b848155600101610e8f565b9091508190610e86565b6024837f4e487b710000000000000000000000000000000000000000000000000000000081526041600452fd5b6040517f08c379a000000000000000000000000000000000000000000000000000000000815260206004820152600a60248201527f4f6e6c792061646d696e000000000000000000000000000000000000000000006044820152606490fd5b90508281813d8311610f6f575b610f548183612b1e565b81010312610f6b57610f6590612cf1565b38610cc4565b8480fd5b503d610f4a565b6040513d87823e3d90fd5b8280fd5b503461072d57807ffffffffffffffffffffffffffffffffffffffffffffffffffffffffffffffffc36011261072d576020604051731111111254eeb25477b68fb85ed929f73a9605828152f35b503461072d57807ffffffffffffffffffffffffffffffffffffffffffffffffffffffffffffffffc36011261072d576040517ff851a44000000000000000000000000000000000000000000000000000000000815273ffffffffffffffffffffffffffffffffffffffff602082600481847f0000000000000000000000000000000000000000000000000000000000000000165afa91821561067f578392611097575b5081163303610ede574780611088578280f35b6110919161434a565b38808280f35b9091506020813d82116110ca575b816110b260209383612b1e565b81010312610f81576110c390612cf1565b9038611075565b3d91506110a5565b503461072d576110e3366004612c43565b6110ef93919293612e52565b820190602093848484031261072957833567ffffffffffffffff948582116107255701926101009283858303126107255761112d6040519485612b1e565b61113685612bf4565b8452611143878601612bf4565b9487850195865261115660408201612bf4565b604086015261116760608201612bf4565b936060860194855260808601916080810135835260a087019460a0820135865260c08201359960078b101561071d5760c089019a8b5260e083013590811161071d576111b39201612dbf565b60e087019081529573ffffffffffffffffffffffffffffffffffffffff93841630146112035760046040517fa610e788000000000000000000000000000000000000000000000000000000008152fd5b838851163303611883578380809251169651169751169151935197519560078710156118565760408a8c61128b93519481845193611242608086612b1e565b818552840152818484015281606084015283518095819482937fa85598720000000000000000000000000000000000000000000000000000000084523090309060048601612ee3565b03918a5af1908115610588578b908c92611834575b50604051977f0dfe16810000000000000000000000000000000000000000000000000000000089528c8c8a6004818c5afa9889156115ca578d91996117fd575b60049a506040519a8b80927fd21220a70000000000000000000000000000000000000000000000000000000082525afa988915611749578d996117b9575b5061132d939289928992612f2c565b507f00000000000000000000000000000000000000000000000000000000000000009161135a30846143b1565b97881061178f57604051927fe99a6ac70000000000000000000000000000000000000000000000000000000084528984600481865afa938415610588578b94611758575b5081841693843b15611754576040517fa6afed950000000000000000000000000000000000000000000000000000000081528c81600481838a5af180156117495761172b575b50908b9594939291604051947f7d6af0790000000000000000000000000000000000000000000000000000000086528a6004870152604086602481845afa908115611720578c8e926114ea988b916116ff575b508091106000146116f457506114508d80945b86614368565b61145989612c80565b906114676040519283612b1e565b8982527fffffffffffffffffffffffffffffffffffffffffffffffffffffffffffffffe06114948b612c80565b0136848401378c8a604051809a819582947f1e7dcc0d0000000000000000000000000000000000000000000000000000000084526004840152836024840152836044840152608060648401526084830190612bb1565b03925af19081156116e9578c958b926116b6575b50808c116115d7575b50506040517f23b872dd00000000000000000000000000000000000000000000000000000000815273ffffffffffffffffffffffffffffffffffffffff808b1660048301528416602482015260448101959095525092999192508991829081606481015b03925af180156115ca5761158e575b509061158692916141bc565b604051908152f35b8587813d83116115c3575b6115a38183612b1e565b8101031261072d57506115ba6115869495966140e4565b5085949361157a565b503d611599565b50604051903d90823e3d90fd5b6115e5908c96939496612d83565b92857f000000000000000000000000000000000000000000000000000000000000000016809682161460001461169f57505050823b15610f6b578480936024604051809681937f2e1a7d4d0000000000000000000000000000000000000000000000000000000083528660048401525af18015610f76578a938691611680575b50509261167661156b93948961434a565b9291388881611507565b819294509061168e91612b1e565b61169b5788918438611665565b8380fd5b61156b9550906116b192969391614368565b611676565b915094809297503d83116116e2575b6116cf8183612b1e565b81010312610632578a94888b94386114fe565b503d6116c5565b6040513d89823e3d90fd5b61145090809461144a565b611718915060403d6040116105fe576105ef8183612b1e565b905038611437565b6040513d8a823e3d90fd5b8c61173d919d9297969594939d612b1e565b9a9091929394386113e4565b6040513d8f823e3d90fd5b8b80fd5b9093508981813d8311611788575b6117708183612b1e565b810103126105c75761178190612cf1565b923861139e565b503d611766565b60046040517fb2a4caeb000000000000000000000000000000000000000000000000000000008152fd5b909198508b81819594953d83116117f6575b6117d58183612b1e565b8101031261071d5761132d936117eb8992612cf1565b99929150929361131e565b503d6117cb565b985089813d831161182d575b6118138183612b1e565b8101031261071d578b61182760049a612cf1565b986112e0565b503d611809565b905061184f915060403d6040116105fe576105ef8183612b1e565b90386112a0565b60248b7f4e487b710000000000000000000000000000000000000000000000000000000081526021600452fd5b60046040517fd0e9c9f6000000000000000000000000000000000000000000000000000000008152fd5b503461072d576118be366004612c43565b6118c9939293612e52565b81019360208286031261072d57813567ffffffffffffffff92838211610f8157019160e083870312612711576040519561190460e088612b1e565b61190d84612bf4565b875261191b60208501612bf4565b966020810197885261192f60408601612bf4565b6040820190815261194260608701612bf4565b926060830193845260808301946080880135865260a08801359760078910156107255760a0850198895260c081013591821161072557611983929101612dbf565b60c083019081529673ffffffffffffffffffffffffffffffffffffffff1630146119d15760046040517fa610e788000000000000000000000000000000000000000000000000000000008152fd5b5173ffffffffffffffffffffffffffffffffffffffff1633036106f35773ffffffffffffffffffffffffffffffffffffffff8080925116925116975116915193519460078610156126e4575193604051947f0dfe1681000000000000000000000000000000000000000000000000000000008652602086600481865afa958615610f765785966126a8575b50604051967fd21220a7000000000000000000000000000000000000000000000000000000008852602088600481875afa97881561269d578698612661575b50604051987f86a29081000000000000000000000000000000000000000000000000000000008a5260208a600481885afa998a156116e957879a612621575b508860048314888115612615575b81156125d6575b501561251e57506040517f313ce56700000000000000000000000000000000000000000000000000000000815260208160048173ffffffffffffffffffffffffffffffffffffffff8d165afa80156117205788906124e3575b611b5291506140c4565b6040517f313ce56700000000000000000000000000000000000000000000000000000000815260208160048173ffffffffffffffffffffffffffffffffffffffff8f165afa80156106055789906124a8575b611bae91506140c4565b90611bb9828261424b565b64e8d4a510008111156124a057620f4240905b6040517f16f0115b0000000000000000000000000000000000000000000000000000000081526020816004818d5afa908115612443578c9161244e575b5060e073ffffffffffffffffffffffffffffffffffffffff916004604051809481937fe76c01e4000000000000000000000000000000000000000000000000000000008352165afa908115612443578c9161237a575b507fffffffffffffffffffffffffffffffffffffffffffffffffffffffffffffffff600273ffffffffffffffffffffffffffffffffffffffff611ca293166140f1565b9062ffffff83161561234d5792611cd98f959493611cd1604094611d519662ffffff80851694169004906141a9565b60c01c6141a9565b948d73ffffffffffffffffffffffffffffffffffffffff8c8551968795869485937f5ccfb71d0000000000000000000000000000000000000000000000000000000085526004850160409194939294606082019573ffffffffffffffffffffffffffffffffffffffff80921683521660208201520152565b0392165afa90811561063e5791611d78611d80928c611d859695819261232b575b50612f1f565b60011c61424b565b61424b565b90670de0b6b3a7640000918281018091116122d15780156122fe576ec097ce7bc90715b34b9f1000000000048083039283116122d15781611dcb8c9493611dd193614202565b92614202565b927f0000000000000000000000000000000000000000000000000000000000000000918973ffffffffffffffffffffffffffffffffffffffff8416918c858473ffffffffffffffffffffffffffffffffffffffff8316036122b3575b5050505073ffffffffffffffffffffffffffffffffffffffff841603612293575b50505050505b611e5e30866143b1565b611e6830886143b1565b97611e74828589613df4565b611e7f89858a613df4565b604080517f5ccfb71d00000000000000000000000000000000000000000000000000000000815273ffffffffffffffffffffffffffffffffffffffff8087166004830152891660248201526044810184905290818060648101038173ffffffffffffffffffffffffffffffffffffffff86165afa9081156116e95787908892612271575b508a106121b7575b808a1161219b575b5073ffffffffffffffffffffffffffffffffffffffff9291602091611f9c604051611f3f608082612b1e565b89815289858201528960408201528960608201526040519c8d947f8e3c92e4000000000000000000000000000000000000000000000000000000008652600486015260248501523060448501528760648501526084840190612ebb565b8188610104968793165af1978815610f76578598612167575b50871061213e5782611fe7886101209585611fe2836e22d473030f116ddee9f6b43ac78ba3602099613df4565b613f65565b8885896120f6611ff683612c80565b6120036040519182612b1e565b8381527fffffffffffffffffffffffffffffffffffffffffffffffffffffffffffffffe061203085612c80565b013689830137604051988997889687957f8808e71c0000000000000000000000000000000000000000000000000000000087526004870152602486015273ffffffffffffffffffffffffffffffffffffffff865416604486015260015473ffffffffffffffffffffffffffffffffffffffff8116606487015265ffffffffffff8160a01c16608487015260d01c60a486015273ffffffffffffffffffffffffffffffffffffffff6002541660c486015260035460e4860152840152610124830190612bb1565b03925af180156106bb57612113575b6020856115868887876141bc565b602090813d8311612137575b6121298183612b1e565b8101031261072d5780612105565b503d61211f565b60046040517ebf8768000000000000000000000000000000000000000000000000000000008152fd5b9097506020813d602011612193575b8161218360209383612b1e565b81010312610f6b57519638611fb5565b3d9150612176565b985073ffffffffffffffffffffffffffffffffffffffff611f13565b604080517f5ccfb71d00000000000000000000000000000000000000000000000000000000815273ffffffffffffffffffffffffffffffffffffffff80881660048301528b166024820152604481018c905290818060648101038173ffffffffffffffffffffffffffffffffffffffff87165afa908115611720578891612250575b50808411612248575b50611f0b565b925038612242565b612269915060403d6040116105fe576105ef8183612b1e565b905038612239565b905061228c915060403d6040116105fe576105ef8183612b1e565b9038611f03565b6122a160016122a896612d40565b5190612ffe565b503880878180611e4e565b6122c06122c7948b612d40565b5186612ffe565b5089388c85611e2d565b6024897f4e487b710000000000000000000000000000000000000000000000000000000081526011600452fd5b6024897f4e487b710000000000000000000000000000000000000000000000000000000081526012600452fd5b9050612346915060403d6040116105fe576105ef8183612b1e565b9038611d72565b60248c7f4e487b710000000000000000000000000000000000000000000000000000000081526012600452fd5b905060e0813d60e01161243b575b8161239560e09383612b1e565b81010312611754576123a681612cf1565b9060208101518060020b0361071d57600273ffffffffffffffffffffffffffffffffffffffff611ca29361243160c08561240360407fffffffffffffffffffffffffffffffffffffffffffffffffffffffffffffffff98016140d5565b50612410606082016140d5565b5061241d608082016140b6565b5061242a60a082016140b6565b50016140e4565b5093505050611c5f565b3d9150612388565b6040513d8e823e3d90fd5b90506020813d602011612498575b8161246960209383612b1e565b810103126117545760e061249173ffffffffffffffffffffffffffffffffffffffff92612cf1565b9150611c09565b3d915061245c565b600190611bcc565b506020813d6020116124db575b816124c260209383612b1e565b81010312610721576124d6611bae916140b6565b611ba4565b3d91506124b5565b506020813d602011612516575b816124fd60209383612b1e565b8101031261072557612511611b52916140b6565b611b48565b3d91506124f0565b90917f00000000000000000000000000000000000000000000000000000000000000009073ffffffffffffffffffffffffffffffffffffffff821689858c858473ffffffffffffffffffffffffffffffffffffffff8316036125bf575b5050505073ffffffffffffffffffffffffffffffffffffffff8416036125a6575b5050505050611e54565b6122a160016125b496612d40565b50388087818061259c565b6122c06125cc948b612d40565b5089858c8561257b565b9150506125e857886006831438611aef565b6024877f4e487b710000000000000000000000000000000000000000000000000000000081526021600452fd5b50506001831488611ae8565b9099506020813d602011612659575b8161263d60209383612b1e565b810103126126555761264e90612cf1565b9838611ada565b8680fd5b3d9150612630565b9097506020813d602011612695575b8161267d60209383612b1e565b810103126107295761268e90612cf1565b9638611a9b565b3d9150612670565b6040513d88823e3d90fd5b9095506020813d6020116126dc575b816126c460209383612b1e565b81010312610f6b576126d590612cf1565b9438611a5c565b3d91506126b7565b6024847f4e487b710000000000000000000000000000000000000000000000000000000081526021600452fd5b5080fd5b503461072d57807ffffffffffffffffffffffffffffffffffffffffffffffffffffffffffffffffc36011261072d57602060405173def171fe48cf0115b1d80b88dc8eab59176fee578152f35b503461072d57807ffffffffffffffffffffffffffffffffffffffffffffffffffffffffffffffffc36011261072d576020604051736352a56caadc4f1e25cd6c75970fa768a3304e648152f35b503461072d57807ffffffffffffffffffffffffffffffffffffffffffffffffffffffffffffffffc36011261072d5760206040516e22d473030f116ddee9f6b43ac78ba38152f35b503461072d57807ffffffffffffffffffffffffffffffffffffffffffffffffffffffffffffffffc36011261072d57602060405173e592427a0aece92de3edee1f18e0157c058615648152f35b503461072d57807ffffffffffffffffffffffffffffffffffffffffffffffffffffffffffffffffc36011261072d57602060405173def1c0ded9bec7f1a1670819833240f027b25eff8152f35b503461072d5760207ffffffffffffffffffffffffffffffffffffffffffffffffffffffffffffffffc36011261072d5760043573ffffffffffffffffffffffffffffffffffffffff8082168203610f8157604051907ff851a440000000000000000000000000000000000000000000000000000000008252602082600481847f0000000000000000000000000000000000000000000000000000000000000000165afa918215610bb357849261296f575b5081163303610ede5761295530836143b1565b908161295f578380f35b61296892614368565b3880808380f35b9091506020813d82116129a2575b8161298a60209383612b1e565b8101031261169b5761299b90612cf1565b9038612942565b3d915061297d565b823461072d57807ffffffffffffffffffffffffffffffffffffffffffffffffffffffffffffffffc36011261072d57806004546129e681612acb565b80855291600191808316908115612a835750600114612a28575b612a2485612a1081870382612b1e565b604051918291602083526020830190612bb1565b0390f35b9250600483527f8a35acfbc15ff81a39ae7d344fd709f28e8600b4aa8c65c6b64bfe7fe36bd19b5b828410612a6b575050508101602001612a1082612a24612a00565b80546020858701810191909152909301928101612a50565b869550612a2496935060209250612a109491507fffffffffffffffffffffffffffffffffffffffffffffffffffffffffffffff001682840152151560051b8201019293612a00565b90600182811c92168015612b14575b6020831014612ae557565b7f4e487b7100000000000000000000000000000000000000000000000000000000600052602260045260246000fd5b91607f1691612ada565b90601f7fffffffffffffffffffffffffffffffffffffffffffffffffffffffffffffffe0910116810190811067ffffffffffffffff821117612b5f57604052565b7f4e487b7100000000000000000000000000000000000000000000000000000000600052604160045260246000fd5b60005b838110612ba15750506000910152565b8181015183820152602001612b91565b907fffffffffffffffffffffffffffffffffffffffffffffffffffffffffffffffe0601f602093612bed81518092818752878088019101612b8e565b0116010190565b359073ffffffffffffffffffffffffffffffffffffffff8216820361063257565b9181601f840112156106325782359167ffffffffffffffff8311610632576020838186019501011161063257565b9160608383031261063257612c5783612bf4565b92602081013592604082013567ffffffffffffffff811161063257612c7c9201612c15565b9091565b67ffffffffffffffff8111612b5f57601f017fffffffffffffffffffffffffffffffffffffffffffffffffffffffffffffffe01660200190565b929192612cc682612c80565b91612cd46040519384612b1e565b829481845281830111610632578281602093846000960137010152565b519073ffffffffffffffffffffffffffffffffffffffff8216820361063257565b9190826040910312610632576020825192015190565b67ffffffffffffffff8111612b5f5760051b60200190565b8051821015612d545760209160051b010190565b7f4e487b7100000000000000000000000000000000000000000000000000000000600052603260045260246000fd5b91908203918211612d9057565b7f4e487b7100000000000000000000000000000000000000000000000000000000600052601160045260246000fd5b81601f8201121561063257803590612dd682612d28565b92604092612de684519586612b1e565b808552602093848087019260051b8501019383851161063257858101925b858410612e15575050505050505090565b833567ffffffffffffffff811161063257820185603f82011215610632578791612e4787838786809601359101612cba565b815201930192612e04565b73ffffffffffffffffffffffffffffffffffffffff7f0000000000000000000000000000000000000000000000000000000000000000163014612e9157565b60046040517fc97bbbae000000000000000000000000000000000000000000000000000000008152fd5b6000915b60048310612ecc57505050565b600190825181526020809101920192019190612ebf565b90815273ffffffffffffffffffffffffffffffffffffffff91821660208201529116604082015260e081019291612f1d9160600190612ebb565b565b91908201809211612d9057565b90949391947f00000000000000000000000000000000000000000000000000000000000000009373ffffffffffffffffffffffffffffffffffffffff80861680828416149081928215612ff2575b5050612fb75750916122a16001612fa8612fb499969488612fae9997612fa160008d612d40565b5187612ffe565b97612d40565b90612f1f565b90565b90612fb4979492959391600090600014612fdc5750506122a16001612fae9697612d40565b6122a1919350612fed969597612d40565b612f1f565b87161490503880612f7a565b909193926000916007811015613d9557806130f25750506040517fd2c4b59800000000000000000000000000000000000000000000000000000000815260209473def171fe48cf0115b1d80b88dc8eab59176fee5792508582600481865afa9182156130e6576000926130a0575b506000948594939261307d92613df4565b84825192019034905af161308f613dc4565b901561309a57015190565b80519101fd5b90939291508581813d83116130df575b6130ba8183612b1e565b810103126106325760009485946130d361307d93612cf1565b9394955091509461306c565b503d6130b0565b6040513d6000823e3d90fd5b939492936001810361334a575050509080518101816020820191039361014085126106325760e07fffffffffffffffffffffffffffffffffffffffffffffffffffffffffffffffe061314660208601612cf1565b9601126106325760409485519461315e60e087612b1e565b613169878601612cf1565b865261317760608601612cf1565b906020870191825261318b60808701612cf1565b9488880195865261319e60a08801612cf1565b976060810198895260c08801516080820190815260e08901519060a083019182526101008a01519260c081019384526101208b015167ffffffffffffffff90818111610632578660206131f3928f0101613eff565b956101408d0151918211610632578e9c6132109201602001613eff565b9589835103613342575b731111111254eeb25477b68fb85ed929f73a960582998a61323a92613df4565b8a519b8c809b819a829a7f12aa3caf00000000000000000000000000000000000000000000000000000000845273ffffffffffffffffffffffffffffffffffffffff80968195828095169060040152511660248d0152511660448b015251166064890152511660848701525160a48601525160c48501525160e48401526101048301610140905261014483016132cf91612bb1565b8281037ffffffffffffffffffffffffffffffffffffffffffffffffffffffffffffffffc0161012484015261330391612bb1565b03915a90600091f19182156133385760009261331e57505090565b6133349250803d106105fe576105ef8183612b1e565b5090565b513d6000823e3d90fd5b89835261321a565b600281036133a357505050906000929161337b8493731111111254eeb25477b68fb85ed929f73a9605828093613df4565b6020825192019034905af161338e613dc4565b901561339b576020015190565b602081519101fd5b600381036133d457505050906000929161337b849373def1c0ded9bec7f1a1670819833240f027b25eff8093613df4565b6004810361384d575050508151820190606083830312610632576133fa60208401612cf1565b60408401519467ffffffffffffffff861161063257610140868601850312610632576040519261342c61014085612b1e565b61343a602088880101612cf1565b845261344a604088880101612cf1565b602085015261345d606088880101612cf1565b6040850152613470608088880101612cf1565b606085015260a08787010151608085015260c0878701015160a085015260e0878701015160c08501526101009687818801015160e08601526134b761012082890101612cf1565b8886015261014081880101519067ffffffffffffffff82116106325760206134e692818901928a010101613eff565b61012085015260608601519467ffffffffffffffff86116106325760208101603f878901011215610632576020868801015161352181612d28565b9661352f6040519889612b1e565b8188526020880180996020850160408560051b85840101011161063257604083820101915b60408560051b8584010101831061379a57505050505050916135a682736352a56caadc4f1e25cd6c75970fa768a3304e64610120958795608061366b9901510361378f575b9998979695949399613df4565b6040519687967f90411a3200000000000000000000000000000000000000000000000000000000885273ffffffffffffffffffffffffffffffffffffffff8092166004890152606060248901528183511660648901528160208401511660848901528160408401511660a48901528160608401511660c4890152608083015160e489015260a083015161010489015260c083015161012489015260e08301516101448901528201511661016487015201516101406101848601526101a4850190612bb1565b907ffffffffffffffffffffffffffffffffffffffffffffffffffffffffffffffffc84830301604485015251808252602082019160208260051b82010193926000915b83831061371b575050505050908060209203816000736352a56caadc4f1e25cd6c75970fa768a3304e645af19081156130e6576000916136ec575090565b90506020813d602011613713575b8161370760209383612b1e565b81010312610632575190565b3d91506136fa565b91939550919360208061377d837fffffffffffffffffffffffffffffffffffffffffffffffffffffffffffffffe08660019603018752608060608b51805184528581015186850152604081015160408501520151918160608201520190612bb1565b970193019301909286959492936136ae565b826080870152613599565b82519067ffffffffffffffff82116106325760807fffffffffffffffffffffffffffffffffffffffffffffffffffffffffffffffe083878601018903011261063257604051916137eb608084612b1e565b838601810160408181015185526060820151602086015260808201519085015260a001519167ffffffffffffffff83116106325760409361383b60209493868695868e01928c8b01010101613eff565b60608201528152019301929050613554565b939492936005810361388257505050916000929161337b8493736352a56caadc4f1e25cd6c75970fa768a3304e648093613df4565b600691929695501461389357505050565b90919293506138b78273e592427a0aece92de3edee1f18e0157c0586156485613df4565b6000906000604051906138cb608083612b1e565b606482526101f46020830152610bb86040830152612710606083015260005b60048110613a19575050509073ffffffffffffffffffffffffffffffffffffffff62ffffff92816040519661392161010089612b1e565b16865216602085015216604083015230606083015263ffffffff608083015260a0820152600060c0820152600060e082015273ffffffffffffffffffffffffffffffffffffffff60e0604051927f414bf38900000000000000000000000000000000000000000000000000000000845282815116600485015282602082015116602485015262ffffff60408201511660448501528260608201511660648501526080810151608485015260a081015160a485015260c081015160c485015201511660e482015260208161010481600073e592427a0aece92de3edee1f18e0157c058615645af19081156130e6576000916136ec575090565b62ffffff613a278285613f41565b5116604051907f1698ee8200000000000000000000000000000000000000000000000000000000825273ffffffffffffffffffffffffffffffffffffffff8916600483015273ffffffffffffffffffffffffffffffffffffffff861660248301526044820152602081606481731f98431c8ad98523631ae4a59f267346ea31f9845afa80156130e657600090613d48575b73ffffffffffffffffffffffffffffffffffffffff91501680613b06575b507fffffffffffffffffffffffffffffffffffffffffffffffffffffffffffffffff8114612d90576001016138ea565b6020600491604051928380927f1a6865020000000000000000000000000000000000000000000000000000000082525afa9081156130e657600091613ced575b506fffffffffffffffffffffffffffffffff62989680911611613b6a575b38613ad6565b62ffffff613b788285613f41565b511660405190613b8960a083612b1e565b73ffffffffffffffffffffffffffffffffffffffff8916825273ffffffffffffffffffffffffffffffffffffffff8616602083015287604083015260608201526000608082015273ffffffffffffffffffffffffffffffffffffffff6080604051927fc6a5026a0000000000000000000000000000000000000000000000000000000084528281511660048501528260208201511660248501526040810151604485015262ffffff6060820151166064850152015116608482015260808160a48160007361ffe014ba17989e743c5f6cb21bf9697530b21e5af19081156130e657600091613c9c575b50828111613c81575b50613b64565b9150935062ffffff613c938584613f41565b51169338613c7b565b90506080813d608011613ce5575b81613cb760809383612b1e565b81010312610632576040815191613cd060208201612cf1565b50015163ffffffff8116036106325738613c72565b3d9150613caa565b90506020813d602011613d40575b81613d0860209383612b1e565b8101031261063257516fffffffffffffffffffffffffffffffff81168103610632576fffffffffffffffffffffffffffffffff613b46565b3d9150613cfb565b506020813d602011613d8d575b81613d6260209383612b1e565b8101031261063257613d8873ffffffffffffffffffffffffffffffffffffffff91612cf1565b613ab8565b3d9150613d55565b7f4e487b7100000000000000000000000000000000000000000000000000000000600052602160045260246000fd5b3d15613def573d90613dd582612c80565b91613de36040519384612b1e565b82523d6000602084013e565b606090565b90916040517fdd62ed3e00000000000000000000000000000000000000000000000000000000815230600482015260208160448173ffffffffffffffffffffffffffffffffffffffff808916602483015287165afa9081156130e657600091613ece575b501015613eca5760446010600080936020956014527fffffffffffffffffffffffffffffffffffffffffffffffffffffffffffffffff6034526f095ea7b300000000000000000000000082525af13d15600160005114171615613ebc576000603452565b633e3f8f736000526004601cfd5b5050565b906020823d8211613ef7575b81613ee760209383612b1e565b8101031261072d57505138613e58565b3d9150613eda565b81601f82011215610632578051613f1581612c80565b92613f236040519485612b1e565b8184526020828401011161063257612fb49160208085019101612b8e565b906004811015612d545760051b0190565b519065ffffffffffff8216820361063257565b916040517f927da10500000000000000000000000000000000000000000000000000000000815230600482015273ffffffffffffffffffffffffffffffffffffffff808095169384602484015216918260448301526e22d473030f116ddee9f6b43ac78ba391606081606481865afa80156130e6578691600091614060575b5016101561405a57803b15610632576000928360849260405196879586947f87517c4500000000000000000000000000000000000000000000000000000000865260048601526024850152604484015265ffffffffffff60648401525af180156130e65761404f5750565b6000612f1d91612b1e565b50505050565b91506060823d82116140ae575b8161407a60609383612b1e565b8101031261072d5750806140a760406140938994612cf1565b926140a060208201613f52565b5001613f52565b5038613fe4565b3d915061406d565b519060ff8216820361063257565b60ff16604d8111612d9057600a0a90565b519061ffff8216820361063257565b5190811515820361063257565b9080156141a1578115614199578180600114614190576002146141765760208110610133831016604e8210600b8410161761416a579091600191825b8082116141435750508290048111612d90570290565b90938083048111612d9057818516614161575b800293811c9061412d565b80930292614156565b900a91908211612d9057565b905060ff8193929311612d90576001901b918211612d9057565b50505050600190565b505050600090565b505050600190565b81810292918115918404141715612d9057565b90916141c830836143b1565b916141d330856143b1565b9282816141f1575b505050816141e857505050565b612f1d92614368565b6141fa92614368565b3880826141db565b90807fffffffffffffffffffffffffffffffffffffffffffffffffffffffffffffffff048211810261423d57670de0b6b3a764000091020490565b63bac65e5b6000526004601cfd5b670de0b6b3a7640000907812725dd1d243aba0e75fe645cc4873f9e65afe688c928e1f21811182021583021561428057020490565b637c5f487d6000526004601cfd5b91600092828102927fffffffffffffffffffffffffffffffffffffffffffffffffffffffffffffffff818309918483108501808403931461432e578284111561432157908391099060018386038416808080960460028082600302188083028203028083028203028083028203028083028203028083028203028092029003029703040190848311900302920304170290565b63ae47f70286526004601cfd5b50505091821561433d57500490565b63ae47f70290526004601cfd5b600080809381935af11561435a57565b63b12d13eb6000526004601cfd5b60109260209260145260345260446000938480936fa9059cbb00000000000000000000000082525af13d1560018351141716156143a457603452565b6390b8ec1890526004601cfd5b602460106020939284936014526f70a082310000000000000000000000006000525afa601f3d1116602051029056fea164736f6c6343000811000a",
  "linkReferences": {},
  "deployedLinkReferences": {}
}