{
  "_format": "hh-sol-artifact-1",
  "contractName": "XGyroECLP",
  "sourceName": "contracts/cygnus-periphery/XGyroECLP.sol",
  "abi": [
    {
      "inputs": [
        {
          "internalType": "contract IHangar18",
          "name": "_hangar18",
          "type": "address"
        }
      ],
      "stateMutability": "nonpayable",
      "type": "constructor"
    },
    {
      "inputs": [],
      "name": "CygnusAltair__0xProjectTransactionFailed",
      "type": "error"
    },
    {
      "inputs": [],
      "name": "CygnusAltair__InsufficientLPTokenAmount",
      "type": "error"
    },
    {
      "inputs": [],
      "name": "CygnusAltair__InsufficientLiquidateUsd",
      "type": "error"
    },
    {
      "inputs": [],
      "name": "CygnusAltair__InsufficientUSDAmount",
      "type": "error"
    },
    {
      "inputs": [],
      "name": "CygnusAltair__InvalidAggregator",
      "type": "error"
    },
    {
      "inputs": [],
      "name": "CygnusAltair__InvalidPool",
      "type": "error"
    },
    {
      "inputs": [],
      "name": "CygnusAltair__MsgSenderNotAdmin",
      "type": "error"
    },
    {
      "inputs": [],
      "name": "CygnusAltair__MsgSenderNotBorrowable",
      "type": "error"
    },
    {
      "inputs": [],
      "name": "CygnusAltair__MsgSenderNotCollateral",
      "type": "error"
    },
    {
      "inputs": [],
      "name": "CygnusAltair__MsgSenderNotRouter",
      "type": "error"
    },
    {
      "inputs": [],
      "name": "CygnusAltair__OneInchTransactionFailed",
      "type": "error"
    },
    {
      "inputs": [],
      "name": "CygnusAltair__OnlyDelegateCall",
      "type": "error"
    },
    {
      "inputs": [],
      "name": "CygnusAltair__OpenOceanTransactionFailed",
      "type": "error"
    },
    {
      "inputs": [],
      "name": "CygnusAltair__ParaswapTransactionFailed",
      "type": "error"
    },
    {
      "inputs": [],
      "name": "OKX_AGGREGATION_ROUTER",
      "outputs": [
        {
          "internalType": "address",
          "name": "",
          "type": "address"
        }
      ],
      "stateMutability": "view",
      "type": "function"
    },
    {
      "inputs": [],
      "name": "ONE_INCH_ROUTER_V5",
      "outputs": [
        {
          "internalType": "address",
          "name": "",
          "type": "address"
        }
      ],
      "stateMutability": "view",
      "type": "function"
    },
    {
      "inputs": [],
      "name": "OPEN_OCEAN_EXCHANGE_PROXY",
      "outputs": [
        {
          "internalType": "address",
          "name": "",
          "type": "address"
        }
      ],
      "stateMutability": "view",
      "type": "function"
    },
    {
      "inputs": [],
      "name": "OxPROJECT_EXCHANGE_PROXY",
      "outputs": [
        {
          "internalType": "address",
          "name": "",
          "type": "address"
        }
      ],
      "stateMutability": "view",
      "type": "function"
    },
    {
      "inputs": [],
      "name": "PARASWAP_AUGUSTUS_SWAPPER_V5",
      "outputs": [
        {
          "internalType": "address",
          "name": "",
          "type": "address"
        }
      ],
      "stateMutability": "view",
      "type": "function"
    },
    {
      "inputs": [],
      "name": "PERMIT2",
      "outputs": [
        {
          "internalType": "address",
          "name": "",
          "type": "address"
        }
      ],
      "stateMutability": "view",
      "type": "function"
    },
    {
      "inputs": [],
      "name": "UNISWAP_V3_ROUTER",
      "outputs": [
        {
          "internalType": "address",
          "name": "",
          "type": "address"
        }
      ],
      "stateMutability": "view",
      "type": "function"
    },
    {
      "inputs": [],
      "name": "VAULT",
      "outputs": [
        {
          "internalType": "contract IVault",
          "name": "",
          "type": "address"
        }
      ],
      "stateMutability": "view",
      "type": "function"
    },
    {
      "inputs": [
        {
          "internalType": "address",
          "name": "sender",
          "type": "address"
        },
        {
          "internalType": "uint256",
          "name": "borrowAmount",
          "type": "uint256"
        },
        {
          "internalType": "bytes",
          "name": "data",
          "type": "bytes"
        }
      ],
      "name": "altairBorrow_O9E",
      "outputs": [
        {
          "internalType": "uint256",
          "name": "liquidity",
          "type": "uint256"
        }
      ],
      "stateMutability": "nonpayable",
      "type": "function"
    },
    {
      "inputs": [
        {
          "internalType": "address",
          "name": "sender",
          "type": "address"
        },
        {
          "internalType": "uint256",
          "name": "cygLPAmount",
          "type": "uint256"
        },
        {
          "internalType": "uint256",
          "name": "repayAmount",
          "type": "uint256"
        },
        {
          "internalType": "bytes",
          "name": "data",
          "type": "bytes"
        }
      ],
      "name": "altairLiquidate_f2x",
      "outputs": [],
      "stateMutability": "nonpayable",
      "type": "function"
    },
    {
      "inputs": [
        {
          "internalType": "address",
          "name": "sender",
          "type": "address"
        },
        {
          "internalType": "uint256",
          "name": "redeemAmount",
          "type": "uint256"
        },
        {
          "internalType": "bytes",
          "name": "data",
          "type": "bytes"
        }
      ],
      "name": "altairRedeem_u91A",
      "outputs": [
        {
          "internalType": "uint256",
          "name": "usdAmount",
          "type": "uint256"
        }
      ],
      "stateMutability": "nonpayable",
      "type": "function"
    },
    {
      "inputs": [
        {
          "internalType": "address",
          "name": "underlying",
          "type": "address"
        },
        {
          "internalType": "uint256",
          "name": "shares",
          "type": "uint256"
        },
        {
          "internalType": "uint256",
          "name": "difference",
          "type": "uint256"
        }
      ],
      "name": "getAssetsForShares",
      "outputs": [
        {
          "internalType": "address[]",
          "name": "tokens",
          "type": "address[]"
        },
        {
          "internalType": "uint256[]",
          "name": "amounts",
          "type": "uint256[]"
        }
      ],
      "stateMutability": "view",
      "type": "function"
    },
    {
      "inputs": [],
      "name": "hangar18",
      "outputs": [
        {
          "internalType": "contract IHangar18",
          "name": "",
          "type": "address"
        }
      ],
      "stateMutability": "view",
      "type": "function"
    },
    {
      "inputs": [],
      "name": "name",
      "outputs": [
        {
          "internalType": "string",
          "name": "",
          "type": "string"
        }
      ],
      "stateMutability": "view",
      "type": "function"
    },
    {
      "inputs": [],
      "name": "nativeToken",
      "outputs": [
        {
          "internalType": "contract IWrappedNative",
          "name": "",
          "type": "address"
        }
      ],
      "stateMutability": "view",
      "type": "function"
    },
    {
      "inputs": [],
      "name": "sweepNative",
      "outputs": [],
      "stateMutability": "nonpayable",
      "type": "function"
    },
    {
      "inputs": [
        {
          "internalType": "contract IERC20[]",
          "name": "tokens",
          "type": "address[]"
        },
        {
          "internalType": "address",
          "name": "to",
          "type": "address"
        }
      ],
      "name": "sweepTokens",
      "outputs": [],
      "stateMutability": "nonpayable",
      "type": "function"
    },
    {
      "inputs": [],
      "name": "usd",
      "outputs": [
        {
          "internalType": "address",
          "name": "",
          "type": "address"
        }
      ],
      "stateMutability": "view",
      "type": "function"
    },
    {
      "inputs": [],
      "name": "version",
      "outputs": [
        {
          "internalType": "string",
          "name": "",
          "type": "string"
        }
      ],
      "stateMutability": "view",
      "type": "function"
    },
    {
      "stateMutability": "payable",
      "type": "receive"
    }
  ],
  "bytecode": "0x61010060409080825234620001b15780620041f68038038091620000248285620001b6565b8339602092839181010312620001b157516001600160a01b039081811690818103620001b15760a0528351631c2eb17b60e31b8152908382600481845afa928315620001a657600493859360009162000184575b501660e052845163d63a6ccd60e01b815292839182905afa918215620001795760009262000145575b505060c0523060805251613fe4908162000212823960805181612b07015260a0518181816107e801528181610c31015261227b015260c051818181610552015281816108c901528181610ffa01528181611863015281816118a301528181611d7e01528181611dba01528181611f4601528181611f8601528181611fc101528181611ff601528181612c3d0152613d9d015260e05181818161085a01526112370152f35b620001699250803d1062000171575b620001608183620001b6565b810190620001f0565b3880620000a1565b503d62000154565b83513d6000823e3d90fd5b6200019f9150843d86116200017157620001608183620001b6565b3862000078565b85513d6000823e3d90fd5b600080fd5b601f909101601f19168101906001600160401b03821190821017620001da57604052565b634e487b7160e01b600052604160045260246000fd5b90816020910312620001b157516001600160a01b0381168103620001b1579056fe6080604052600436101561001b575b361561001957600080fd5b005b600060e08135811c806306fdde03146125925780632f76413514612545578063411557d1146124f857806341c64a2f146124ab57806354fd4d50146124245780636afdd850146123dc5780637071f0c41461219857806372e050641461214b57806388a799f6146120fe5780638f53d74f1461149a578063989bebcf14610ce8578063ab803a7614610bbe578063bdcb993214610b71578063d0189a911461093a578063d0736749146108ed578063d63a6ccd1461087e578063e1758bd81461080f578063e8a24e1d1461079d5763e95471c7146100fa57505061000e565b346107995760807ffffffffffffffffffffffffffffffffffffffffffffffffffffffffffffffffc360112610799576004359073ffffffffffffffffffffffffffffffffffffffff91828116809103610678576044359267ffffffffffffffff9260643584811161079557610173903690600401612788565b61017e929192612af0565b820191602090818185031261060a5780359087821161079157016101008082860312610791576101b1604051918261263f565b6101ba82612767565b81526101c7838301612767565b968382019788526101da60408401612767565b92604083019384526101ee60608201612767565b966060840197885261020260808301612767565b608085015260a082013560a085015260c08201359a60088c101561078d5760c085019b8c528783013590811161078d5761023c9201612a36565b94820194855230146102725760046040517fa610e788000000000000000000000000000000000000000000000000000000008152fd5b85825116330361076357858080809351169851169251169451169651926008841015610736575191896040517f18160ddd0000000000000000000000000000000000000000000000000000000081528281600481875afa90811561072b5782916106fa575b50604051907f01e1d1140000000000000000000000000000000000000000000000000000000082528382600481885afa801561064557849284916106c4575b506103ba9161032791602435613e85565b94610331846126af565b61033e604051918261263f565b8481527fffffffffffffffffffffffffffffffffffffffffffffffffffffffffffffffe061036b866126af565b0136858301376040519485809481937ffa14fdc20000000000000000000000000000000000000000000000000000000083523060048401528a602484015260606044840152606483019061270c565b03925af180156106b95761068f575b5080600497604051988980927f38fff2d00000000000000000000000000000000000000000000000000000000082525afa968715610684578a97610650575b5089604051977ff94d46680000000000000000000000000000000000000000000000000000000089528060048a015273ba12222222228d8ba445958a75a0704d566bf2c892828a602481875afa998a1561064557839a61061f575b5061046e8a51612b59565b946040519060018383015260408201526040815261048d60608261263f565b856040519261049d60808561263f565b8c84528301526040820152826060820152833b1561061b576104f5938392836040518097819582947f8bdb39130000000000000000000000000000000000000000000000000000000084523090309060048601612bf4565b03925af191821561060e5788926105f1575b509361052361054f958861051c3092866128ee565b5116613fa8565b61052d8c856128ee565b5261053e308861051c6001866128ee565b6105496001856128ee565b52612c33565b507f00000000000000000000000000000000000000000000000000000000000000009461057c3087613fa8565b918183106105c7576105c49661059f610598846105a496612a29565b8883613f5f565b613f5f565b6105bc6001826105b488866128ee565b5116936128ee565b511690613d76565b80f35b60046040517f38040e8d000000000000000000000000000000000000000000000000000000008152fd5b819250906105fe9161263f565b61060a57858938610507565b8880fd5b50604051903d90823e3d90fd5b8280fd5b61063c919a503d8085833e610634818361263f565b810190612931565b50509838610463565b6040513d85823e3d90fd5b9080975081813d831161067d575b610668818361263f565b8101031261067857519538610408565b600080fd5b503d61065e565b6040513d8c823e3d90fd5b8190813d83116106b2575b6106a4818361263f565b8101031261067857386103c9565b503d61069a565b6040513d8d823e3d90fd5b92809294508391503d83116106f3575b6106de818361263f565b8101031261067857518b9183916103ba610316565b503d6106d4565b809250838092503d8311610724575b610713818361263f565b81010312610678578a9051386102d7565b503d610709565b6040513d84823e3d90fd5b60248a7f4e487b710000000000000000000000000000000000000000000000000000000081526021600452fd5b60046040517fe0ffcbfd000000000000000000000000000000000000000000000000000000008152fd5b8d80fd5b8980fd5b8680fd5b5080fd5b823461080c57807ffffffffffffffffffffffffffffffffffffffffffffffffffffffffffffffffc36011261080c57602060405173ffffffffffffffffffffffffffffffffffffffff7f0000000000000000000000000000000000000000000000000000000000000000168152f35b80fd5b823461080c57807ffffffffffffffffffffffffffffffffffffffffffffffffffffffffffffffffc36011261080c57602060405173ffffffffffffffffffffffffffffffffffffffff7f0000000000000000000000000000000000000000000000000000000000000000168152f35b823461080c57807ffffffffffffffffffffffffffffffffffffffffffffffffffffffffffffffffc36011261080c57602060405173ffffffffffffffffffffffffffffffffffffffff7f0000000000000000000000000000000000000000000000000000000000000000168152f35b823461080c57807ffffffffffffffffffffffffffffffffffffffffffffffffffffffffffffffffc36011261080c57602060405173a748d6573aca135af68f2635be60cb80278bd8558152f35b823461080c5760607ffffffffffffffffffffffffffffffffffffffffffffffffffffffffffffffffc36011261080c5760043573ffffffffffffffffffffffffffffffffffffffff8116809103610678576024359160443592604051907f38fff2d00000000000000000000000000000000000000000000000000000000082526020938483600481845afa908115610b365785908592610b41575b60049450604051948580927f18160ddd0000000000000000000000000000000000000000000000000000000082525afa928315610b36578493610b07575b50604051907ff94d46680000000000000000000000000000000000000000000000000000000082526004820152838160248173ba12222222228d8ba445958a75a0704d566bf2c85afa938415610afb5780918195610adc575b505b8151811015610aae5780610a9988610a9487610a8d610aa9968b6128ee565b5188613e85565b612a29565b610aa382886128ee565b52612892565b610a6e565b610acb82610ad888886040519485946040865260408601906127f3565b918483039085015261283d565b0390f35b909450610af391503d8086833e610634818361263f565b509387610a6c565b604051903d90823e3d90fd5b9092508481813d8311610b2f575b610b1f818361263f565b8101031261067857519186610a13565b503d610b15565b6040513d86823e3d90fd5b915083813d8311610b6a575b610b57818361263f565b81010312610678578460049351916109d5565b503d610b4d565b823461080c57807ffffffffffffffffffffffffffffffffffffffffffffffffffffffffffffffffc36011261080c576020604051731111111254eeb25477b68fb85ed929f73a9605828152f35b823461080c57807ffffffffffffffffffffffffffffffffffffffffffffffffffffffffffffffffc36011261080c576040517ff851a44000000000000000000000000000000000000000000000000000000000815273ffffffffffffffffffffffffffffffffffffffff602082600481847f0000000000000000000000000000000000000000000000000000000000000000165afa918215610645578392610cad575b5081163303610c83574780610c74578280f35b610c7d91613f41565b81808280f35b60046040517f1a19b036000000000000000000000000000000000000000000000000000000008152fd5b9091506020813d8211610ce0575b81610cc86020938361263f565b8101031261061b57610cd990612871565b9083610c61565b3d9150610cbb565b50903461080c57610cfa3660046127b6565b610d05929192612af0565b820192602093848482031261121057833567ffffffffffffffff9485821161149657019361010093848684031261149657610d43604051958661263f565b610d4c86612767565b8552610d59878701612767565b94878101958652610d6c60408801612767565b6040820152610d7d60608801612767565b906060810191825260808101946080890135865260a082019460a08a0135865260c08a01359960088b10156114925760c084019a8b528d81013591821161149257610dc9929101612a36565b9a81019a8b5273ffffffffffffffffffffffffffffffffffffffff9586163014610e175760046040517fa610e788000000000000000000000000000000000000000000000000000000008152fd5b85875116330361146857858080925116925116965116935192519651916008831015610736578860049798999a9b5192604051988980927f38fff2d00000000000000000000000000000000000000000000000000000000082525afa9687156106b9578b97611439575b50604051967ff94d46680000000000000000000000000000000000000000000000000000000088528060048901528b73ba12222222228d8ba445958a75a0704d566bf2c891818a602481865afa998a1561072b57829a61141b575b508c610ee88b51612b59565b9460405190600183830152604082015260408152610f0760608261263f565b8560405192610f1760808561263f565b8d84528301526040820152826060820152833b1561061b57610f6f938392836040518097819582947f8bdb39130000000000000000000000000000000000000000000000000000000084523090309060048601612bf4565b03925af191821561060e5789926113fe575b5093610fb194610fa0610f99308b61051c85886128ee565b91856128ee565b5261053e308961051c6001866128ee565b9586106113d4578791604051917fe99a6ac70000000000000000000000000000000000000000000000000000000083528883600481855afa928315610b3657849361139d575b507f000000000000000000000000000000000000000000000000000000000000000085841693843b15611210576040517fa6afed950000000000000000000000000000000000000000000000000000000081528681600481838a5af190811561121b578791611388575b50506040517f7d6af079000000000000000000000000000000000000000000000000000000008152896004820152604081602481895afa95861561121b5761115d968d928991611357575b50808d101561134c57506110c38c80945b86613f5f565b6110cc886126af565b906110da604051928361263f565b8882527fffffffffffffffffffffffffffffffffffffffffffffffffffffffffffffffe06111078a6126af565b0136848401378b89604051809a819582947f1e7dcc0d000000000000000000000000000000000000000000000000000000008452600484015283602484015283604484015260806064840152608483019061270c565b03925af1948515611341578b95611310575b50808a11611226575b505060649060405194859384927f23b872dd0000000000000000000000000000000000000000000000000000000084528a600485015281602485015260448401525af1801561121b576111e4575b506105bc6001826105b46111dc979899866128ee565b604051908152f35b8581813d8311611214575b6111f9818361263f565b8101031261079557518015150361121057386111c6565b8580fd5b503d6111ef565b6040513d89823e3d90fd5b61123291945089612a29565b8988877f0000000000000000000000000000000000000000000000000000000000000000169586898216146000146112fa57505050833b156112f6578480946024604051809781937f2e1a7d4d0000000000000000000000000000000000000000000000000000000083528660048401525af180156112eb578a9486916112ca575b5050906112c360649289613f41565b9038611178565b8192939550906112d99161263f565b6112e75791889284386112b4565b8380fd5b6040513d87823e3d90fd5b8480fd5b61130b929650906064949391613f5f565b6112c3565b9094809296503d831161133a575b611328818361263f565b8101031261067857899389933861116f565b503d61131e565b6040513d88823e3d90fd5b6110c39080946110bd565b611379915060403d604011611381575b611371818361263f565b810190613be7565b9050386110ac565b503d611367565b816113929161263f565b611210578538611061565b9092508881813d83116113cd575b6113b5818361263f565b810103126112e7576113c690612871565b9138610ff7565b503d6113ab565b60046040517fb2a4caeb000000000000000000000000000000000000000000000000000000008152fd5b8192509061140b9161263f565b61141757868b38610f81565b8a80fd5b611430919a503d8084833e610634818361263f565b50509838610edc565b9096508981813d8311611461575b611451818361263f565b8101031261067857519538610e81565b503d611447565b60046040517fd0e9c9f6000000000000000000000000000000000000000000000000000000008152fd5b8c80fd5b8780fd5b5034610799576114ab3660046127b6565b6114ba95939295949194612af0565b8401916020858403126112e757843567ffffffffffffffff9586821161121057019082828503126112f6576114f2604051938461263f565b6114fb82612767565b835261150960208301612767565b926020810193845261151d60408401612767565b6040820190815261153060608501612767565b9560608301968752608083019860808601358a5260a08601359560088710156107915760a0850196875260c081013591821161079157611571929101612a36565b60c083019081529273ffffffffffffffffffffffffffffffffffffffff1630146115bf5760046040517fa610e788000000000000000000000000000000000000000000000000000000008152fd5b5173ffffffffffffffffffffffffffffffffffffffff1633036107635773ffffffffffffffffffffffffffffffffffffffff8080925116955116935116955191519060088210156120d1575190604051907f38fff2d0000000000000000000000000000000000000000000000000000000008252602082600481895afa91821561121b57879261209d575b50604051987ff94d4668000000000000000000000000000000000000000000000000000000008a528260048b0152878a60248173ba12222222228d8ba445958a75a0704d566bf2c85afa938415611d6857889a8995612078575b508891908b6004851484811561206c575b8115612027575b5015611efc5773ffffffffffffffffffffffffffffffffffffffff6116e96001826105b4600498866128ee565b51169260208b604051968780927f38fff2d00000000000000000000000000000000000000000000000000000000082525afa948515611eb9578c95611ec4575b50604051947ff94d466800000000000000000000000000000000000000000000000000000000865260048601528b8560248173ba12222222228d8ba445958a75a0704d566bf2c85afa948515611eb9578c95611e99575b50604080517f702ec09100000000000000000000000000000000000000000000000000000000815290816004818f5afa908115611e8e57906117e6918e80918193611e59575b506117e06117da926117da6001938c6128ee565b51613e3c565b986128ee565b8501808611611e2c57670de0b6b3a7640000907812725dd1d243aba0e75fe645cc4873f9e65afe688c928e1f218711820215810215611e1f57818181890204810311611df2579081816118418561184b9695838c0204613e3c565b9802049003613e3c565b9373ffffffffffffffffffffffffffffffffffffffff7f0000000000000000000000000000000000000000000000000000000000000000168203611db4575b505073ffffffffffffffffffffffffffffffffffffffff7f0000000000000000000000000000000000000000000000000000000000000000168203611d73575b505050505b604051916118de60608461263f565b60028352604036602085013761190d3073ffffffffffffffffffffffffffffffffffffffff61051c8a8d6128ee565b61191788856128ee565b5261193c3073ffffffffffffffffffffffffffffffffffffffff61051c60018d6128ee565b6119476001856128ee565b52604051907f18160ddd0000000000000000000000000000000000000000000000000000000082526020826004818a5afa918215611d68578892611d32575b506119c2906119ab6119988a876128ee565b51846119a48c856128ee565b5191613e85565b926119a460016119bb81896128ee565b51936128ee565b9081811115611d2b57505b60405190600360208301526040820152604081526119ec60608261263f565b611a3673ffffffffffffffffffffffffffffffffffffffff611a0e898c6128ee565b511673ba12222222228d8ba445958a75a0704d566bf2c8611a2f8a876128ee565b5191613a9a565b611a7b73ffffffffffffffffffffffffffffffffffffffff611a5960018c6128ee565b511673ba12222222228d8ba445958a75a0704d566bf2c8611a2f6001876128ee565b60405192611a8a60808561263f565b8984526020840152604083015285606083015273ba12222222228d8ba445958a75a0704d566bf2c83b1561121057611b0b91869160405193849283927fb95cac280000000000000000000000000000000000000000000000000000000084526004840152306024840152306044840152608060648401526084830190612ba8565b03818373ba12222222228d8ba445958a75a0704d566bf2c85af180156112eb57611d17575b50611b6582611b3f3086613fa8565b9773ffffffffffffffffffffffffffffffffffffffff6105bc6001826105b48b866128ee565b8510611cee5783611b9686611ca79685611b91836e22d473030f116ddee9f6b43ac78ba3602099613a9a565b613c21565b611b9f846126af565b91611bad604051938461263f565b8483527fffffffffffffffffffffffffffffffffffffffffffffffffffffffffffffffe0611bda866126af565b013685850137846040518097819582947f8808e71c0000000000000000000000000000000000000000000000000000000084528b6004850152602484015273ffffffffffffffffffffffffffffffffffffffff845416604484015260015473ffffffffffffffffffffffffffffffffffffffff8116606485015265ffffffffffff8160a01c16608485015260d01c60a484015273ffffffffffffffffffffffffffffffffffffffff6002541660c484015260035460e484015261012061010484015261012483019061270c565b03925af1908115610afb5750611cc3575b602082604051908152f35b602090813d8311611ce7575b611cd9818361263f565b810103126106785738611cb8565b503d611ccf565b60046040517ebf8768000000000000000000000000000000000000000000000000000000008152fd5b84611d249195929561263f565b9238611b30565b90506119cd565b9091506020813d602011611d60575b81611d4e6020938361263f565b810103126114965751906119c2611986565b3d9150611d41565b6040513d8a823e3d90fd5b611daa93611da360017f0000000000000000000000000000000000000000000000000000000000000000936128ee565b5190612ce4565b50388080806118ca565b611dea917f0000000000000000000000000000000000000000000000000000000000000000611de38e866128ee565b5188612ce4565b50388061188a565b60248e7f4e487b710000000000000000000000000000000000000000000000000000000081526011600452fd5b637c5f487d8e526004601cfd5b60248d7f4e487b710000000000000000000000000000000000000000000000000000000081526011600452fd5b60019193506117da92506117da611e816117e09260403d60401161138157611371818361263f565b9590945092506117c69050565b6040513d8f823e3d90fd5b611eaf9195508c3d8091833e610634818361263f565b5090509338611780565b6040513d8e823e3d90fd5b9094506020813d602011611ef4575b81611ee06020938361263f565b81010312611ef057519338611729565b8b80fd5b3d9150611ed3565b9192611f2b600173ffffffffffffffffffffffffffffffffffffffff611f238194876128ee565b5116946128ee565b5116918373ffffffffffffffffffffffffffffffffffffffff7f0000000000000000000000000000000000000000000000000000000000000000168203611ff0575b505073ffffffffffffffffffffffffffffffffffffffff7f0000000000000000000000000000000000000000000000000000000000000000168203611fb6575b505050506118cf565b611fe693611da360017f0000000000000000000000000000000000000000000000000000000000000000936128ee565b5038808080611fad565b61201f917f0000000000000000000000000000000000000000000000000000000000000000611de38e866128ee565b503883611f6d565b92939450505061203f579088918b60078514386116bc565b6024897f4e487b710000000000000000000000000000000000000000000000000000000081526021600452fd5b505060018514846116b5565b89929b506120919195503d8084833e610634818361263f565b509a909a9490916116a4565b9091506020813d6020116120c9575b816120b96020938361263f565b810103126107955751903861164a565b3d91506120ac565b6024867f4e487b710000000000000000000000000000000000000000000000000000000081526021600452fd5b823461080c57807ffffffffffffffffffffffffffffffffffffffffffffffffffffffffffffffffc36011261080c57602060405173def171fe48cf0115b1d80b88dc8eab59176fee578152f35b823461080c57807ffffffffffffffffffffffffffffffffffffffffffffffffffffffffffffffffc36011261080c576020604051736352a56caadc4f1e25cd6c75970fa768a3304e648152f35b823461080c5760407ffffffffffffffffffffffffffffffffffffffffffffffffffffffffffffffffc36011261080c576004359067ffffffffffffffff821161080c573660238301121561080c5781600401356121f48161274f565b90612202604051928361263f565b8082526020938483016024809360051b83010191368311611210578301905b8282106123b05750505080359173ffffffffffffffffffffffffffffffffffffffff9182841684036112f6576040517ff851a4400000000000000000000000000000000000000000000000000000000081528681600481877f0000000000000000000000000000000000000000000000000000000000000000165afa908115611341579084918791612378575b50163303610c8357845b8251811015612374578087856122cf8594876128ee565b5116604051938480927f70a082310000000000000000000000000000000000000000000000000000000082523060048301525afa801561121b578790612343575b612321925080612326575b50612892565b6122b8565b61233d90878761233685896128ee565b5116613f5f565b8861231b565b50908781813d831161236d575b61235a818361263f565b8101031261079557906123219151612310565b503d612350565b8580f35b809250888092503d83116123a9575b612391818361263f565b81010312611210576123a38491612871565b886122ae565b503d612387565b813573ffffffffffffffffffffffffffffffffffffffff81168103610795578152908601908601612221565b823461080c57807ffffffffffffffffffffffffffffffffffffffffffffffffffffffffffffffffc36011261080c5760206040516e22d473030f116ddee9f6b43ac78ba38152f35b823461080c57807ffffffffffffffffffffffffffffffffffffffffffffffffffffffffffffffffc36011261080c57610ad861246060056126af565b61246d604051918261263f565b600581527f312e302e30000000000000000000000000000000000000000000000000000000602082015260405191829160208352602083019061270c565b823461080c57807ffffffffffffffffffffffffffffffffffffffffffffffffffffffffffffffffc36011261080c57602060405173e592427a0aece92de3edee1f18e0157c058615648152f35b823461080c57807ffffffffffffffffffffffffffffffffffffffffffffffffffffffffffffffffc36011261080c57602060405173ba12222222228d8ba445958a75a0704d566bf2c88152f35b823461080c57807ffffffffffffffffffffffffffffffffffffffffffffffffffffffffffffffffc36011261080c57602060405173def1c0ded9bec7f1a1670819833240f027b25eff8152f35b823461080c57807ffffffffffffffffffffffffffffffffffffffffffffffffffffffffffffffffc36011261080c57610ad86125ce60226126af565b6125db604051918261263f565b602281527f416c7461697220457874656e73696f6e3a2048797065727669736f7220506f6f60208201527f6c73000000000000000000000000000000000000000000000000000000000000604082015260405191829160208352602083019061270c565b90601f7fffffffffffffffffffffffffffffffffffffffffffffffffffffffffffffffe0910116810190811067ffffffffffffffff82111761268057604052565b7f4e487b7100000000000000000000000000000000000000000000000000000000600052604160045260246000fd5b67ffffffffffffffff811161268057601f017fffffffffffffffffffffffffffffffffffffffffffffffffffffffffffffffe01660200190565b60005b8381106126fc5750506000910152565b81810151838201526020016126ec565b907fffffffffffffffffffffffffffffffffffffffffffffffffffffffffffffffe0601f602093612748815180928187528780880191016126e9565b0116010190565b67ffffffffffffffff81116126805760051b60200190565b359073ffffffffffffffffffffffffffffffffffffffff8216820361067857565b9181601f840112156106785782359167ffffffffffffffff8311610678576020838186019501011161067857565b91606083830312610678576127ca83612767565b92602081013592604082013567ffffffffffffffff8111610678576127ef9201612788565b9091565b90815180825260208080930193019160005b828110612813575050505090565b835173ffffffffffffffffffffffffffffffffffffffff1685529381019392810192600101612805565b90815180825260208080930193019160005b82811061285d575050505090565b83518552938101939281019260010161284f565b519073ffffffffffffffffffffffffffffffffffffffff8216820361067857565b7fffffffffffffffffffffffffffffffffffffffffffffffffffffffffffffffff81146128bf5760010190565b7f4e487b7100000000000000000000000000000000000000000000000000000000600052601160045260246000fd5b80518210156129025760209160051b010190565b7f4e487b7100000000000000000000000000000000000000000000000000000000600052603260045260246000fd5b90916060828403126106785781519267ffffffffffffffff9384811161067857830181601f820112156106785780519061296a8261274f565b90612978604051928361263f565b828252602092838084019160051b830101918583116106785784809101915b838310612a11575050505094818501519081116106785784019180601f840112156106785782516129c78161274f565b936129d5604051958661263f565b818552838086019260051b820101928311610678578301905b828210612a02575050505060409092015190565b815181529083019083016129ee565b8190612a1c84612871565b8152019101908490612997565b919082039182116128bf57565b9080601f8301121561067857813591612a4e8361274f565b92604090612a5e8251958661263f565b808552602093848087019260051b8501019381851161067857858101925b858410612a8d575050505050505090565b833567ffffffffffffffff811161067857820183603f82011215610678578781013591612ab9836126af565b612ac58851918261263f565b838152858885850101116106785760008a8581968b8397018386013783010152815201930192612a7c565b73ffffffffffffffffffffffffffffffffffffffff7f0000000000000000000000000000000000000000000000000000000000000000163014612b2f57565b60046040517fc97bbbae000000000000000000000000000000000000000000000000000000008152fd5b90612b638261274f565b612b70604051918261263f565b8281527fffffffffffffffffffffffffffffffffffffffffffffffffffffffffffffffe0612b9e829461274f565b0190602036910137565b90606080612be9612bd7612bc586516080875260808701906127f3565b6020870151868203602088015261283d565b6040860151858203604087015261270c565b930151151591015290565b9091612c309493608093835273ffffffffffffffffffffffffffffffffffffffff80921660208401521660408201528160608201520190612ba8565b90565b90939291936000947f00000000000000000000000000000000000000000000000000000000000000009173ffffffffffffffffffffffffffffffffffffffff94858416975b8251811015612cd057808988612c91612c9d94876128ee565b511603612ca257612892565b612c78565b61231b612caf82856128ee565b51878a612cbc85896128ee565b5116612cc8858a6128ee565b51928b612ce4565b50505050915050612c309192503090613fa8565b93929091936008811015613a3b5780612dd7575050604051927fd2c4b59800000000000000000000000000000000000000000000000000000000845260209373def171fe48cf0115b1d80b88dc8eab59176fee57918582600481865afa918215612dcb57600092612d85575b5060009485949392612d6192613a9a565b84825192019034905af1612d73613a6a565b9015612d7f570151905b565b80519101fd5b90939291508581813d8311612dc4575b612d9f818361263f565b81010312610678576000948594612db8612d6193612871565b93949550915094612d50565b503d612d95565b6040513d6000823e3d90fd5b929391926001810361302e5750509080518101816020820191039361014085126106785760e07fffffffffffffffffffffffffffffffffffffffffffffffffffffffffffffffe0612e2a60208601612871565b96011261067857604094855194612e4260e08761263f565b612e4d878601612871565b8652612e5b60608601612871565b9060208701918252612e6f60808701612871565b94888801958652612e8260a08801612871565b976060810198895260c08801516080820190815260e08901519060a083019182526101008a01519260c081019384526101208b015167ffffffffffffffff9081811161067857866020612ed7928f0101613ba5565b956101408d0151918211610678578e9c612ef49201602001613ba5565b9589835103613026575b731111111254eeb25477b68fb85ed929f73a960582998a612f1e92613a9a565b8a519b8c809b819a829a7f12aa3caf00000000000000000000000000000000000000000000000000000000845273ffffffffffffffffffffffffffffffffffffffff80968195828095169060040152511660248d0152511660448b015251166064890152511660848701525160a48601525160c48501525160e4840152610104830161014090526101448301612fb39161270c565b8281037ffffffffffffffffffffffffffffffffffffffffffffffffffffffffffffffffc01610124840152612fe79161270c565b03915a90600091f191821561301c5760009261300257505090565b6130189250803d1061138157611371818361263f565b5090565b513d6000823e3d90fd5b898352612efe565b60028103613086575050906000929161305e8493731111111254eeb25477b68fb85ed929f73a9605828093613a9a565b6020825192019034905af1613071613a6a565b901561307e576020015190565b602081519101fd5b600381036130b6575050906000929161305e849373def1c0ded9bec7f1a1670819833240f027b25eff8093613a9a565b6004810361352e5750508151820190606083830312610678576130db60208401612871565b60408401519467ffffffffffffffff861161067857610140868601850312610678576040519261310d6101408561263f565b61311b602088880101612871565b845261312b604088880101612871565b602085015261313e606088880101612871565b6040850152613151608088880101612871565b606085015260a08787010151608085015260c0878701015160a085015260e0878701015160c08501526101009687818801015160e086015261319861012082890101612871565b8886015261014081880101519067ffffffffffffffff82116106785760206131c792818901928a010101613ba5565b61012085015260608601519467ffffffffffffffff86116106785760208101603f87890101121561067857602086880101516132028161274f565b96613210604051988961263f565b8188526020880180996020850160408560051b85840101011161067857604083820101915b60408560051b8584010101831061347b575050505050509161328782736352a56caadc4f1e25cd6c75970fa768a3304e64610120958795608061334c99015103613470575b9998979695949399613a9a565b6040519687967f90411a3200000000000000000000000000000000000000000000000000000000885273ffffffffffffffffffffffffffffffffffffffff8092166004890152606060248901528183511660648901528160208401511660848901528160408401511660a48901528160608401511660c4890152608083015160e489015260a083015161010489015260c083015161012489015260e08301516101448901528201511661016487015201516101406101848601526101a485019061270c565b907ffffffffffffffffffffffffffffffffffffffffffffffffffffffffffffffffc84830301604485015251808252602082019160208260051b82010193926000915b8383106133fc575050505050908060209203816000736352a56caadc4f1e25cd6c75970fa768a3304e645af1908115612dcb576000916133cd575090565b90506020813d6020116133f4575b816133e86020938361263f565b81010312610678575190565b3d91506133db565b91939550919360208061345e837fffffffffffffffffffffffffffffffffffffffffffffffffffffffffffffffe08660019603018752608060608b5180518452858101518685015260408101516040850152015191816060820152019061270c565b9701930193019092869594929361338f565b82608087015261327a565b82519067ffffffffffffffff82116106785760807fffffffffffffffffffffffffffffffffffffffffffffffffffffffffffffffe083878601018903011261067857604051916134cc60808461263f565b838601810160408181015185526060820151602086015260808201519085015260a001519167ffffffffffffffff83116106785760409361351c60209493868695868e01928c8b01010101613ba5565b60608201528152019301929050613235565b919391600581036135605750509060009261305e8493736352a56caadc4f1e25cd6c75970fa768a3304e648093613a9a565b91929160068103613672575050604051927ff3dced3c00000000000000000000000000000000000000000000000000000000845260209373a748d6573aca135af68f2635be60cb80278bd855918582600481865afa8015612dcb57869060009061362a575b73ffffffffffffffffffffffffffffffffffffffff93506004604051809581937f1c6eced5000000000000000000000000000000000000000000000000000000008352165afa918215612dcb57600092612d85575060009485949392612d6192613a9a565b5082813d831161366b575b61363f818361263f565b81010312610678578561366673ffffffffffffffffffffffffffffffffffffffff93612871565b6135c5565b503d613635565b909150600703613a115761369b8273e592427a0aece92de3edee1f18e0157c0586156485613a9a565b600080604051906136ad60808361263f565b606482526101f46020830152610bb86040830152612710606083015260005b6004811061382b5750505062ffffff169081156138015773ffffffffffffffffffffffffffffffffffffffff90816040519561370a6101008861263f565b168552166020840152604083015230606083015263ffffffff608083015260a0820152600060c0820152600060e082015273ffffffffffffffffffffffffffffffffffffffff60e0604051927f414bf38900000000000000000000000000000000000000000000000000000000845282815116600485015282602082015116602485015262ffffff60408201511660448501528260608201511660648501526080810151608485015260a081015160a485015260c081015160c485015201511660e482015260208161010481600073e592427a0aece92de3edee1f18e0157c058615645af1908115612dcb576000916133cd575090565b60046040517fe2db3aad000000000000000000000000000000000000000000000000000000008152fd5b62ffffff6138398285613bfd565b5116604051907f1698ee8200000000000000000000000000000000000000000000000000000000825273ffffffffffffffffffffffffffffffffffffffff8916600483015273ffffffffffffffffffffffffffffffffffffffff871660248301526044820152602081606481731f98431c8ad98523631ae4a59f267346ea31f9845afa8015612dcb576000906139c4575b73ffffffffffffffffffffffffffffffffffffffff915016806138f1575b506001016136cc565b6020600491604051928380927f1a6865020000000000000000000000000000000000000000000000000000000082525afa8015612dcb57600090613969575b6fffffffffffffffffffffffffffffffff915016828111156138e85791509250600162ffffff6139608585613bfd565b511693906138e8565b506020813d6020116139bc575b816139836020938361263f565b8101031261067857516fffffffffffffffffffffffffffffffff81168103610678576fffffffffffffffffffffffffffffffff90613930565b3d9150613976565b506020813d602011613a09575b816139de6020938361263f565b8101031261067857613a0473ffffffffffffffffffffffffffffffffffffffff91612871565b6138ca565b3d91506139d1565b60046040517feff442c1000000000000000000000000000000000000000000000000000000008152fd5b7f4e487b7100000000000000000000000000000000000000000000000000000000600052602160045260246000fd5b3d15613a95573d90613a7b826126af565b91613a89604051938461263f565b82523d6000602084013e565b606090565b90916040517fdd62ed3e00000000000000000000000000000000000000000000000000000000815230600482015260208160448173ffffffffffffffffffffffffffffffffffffffff808916602483015287165afa908115612dcb57600091613b74575b501015613b705760446010600080936020956014527fffffffffffffffffffffffffffffffffffffffffffffffffffffffffffffffff6034526f095ea7b300000000000000000000000082525af13d15600160005114171615613b62576000603452565b633e3f8f736000526004601cfd5b5050565b906020823d8211613b9d575b81613b8d6020938361263f565b8101031261080c57505138613afe565b3d9150613b80565b81601f82011215610678578051613bbb816126af565b92613bc9604051948561263f565b8184526020828401011161067857612c3091602080850191016126e9565b9190826040910312610678576020825192015190565b9060048110156129025760051b0190565b519065ffffffffffff8216820361067857565b916040517f927da10500000000000000000000000000000000000000000000000000000000815230600482015273ffffffffffffffffffffffffffffffffffffffff808095169384602484015216918260448301526e22d473030f116ddee9f6b43ac78ba391606081606481865afa8015612dcb578691600091613d1c575b50161015613d1657803b15610678576000928360849260405196879586947f87517c4500000000000000000000000000000000000000000000000000000000865260048601526024850152604484015265ffffffffffff60648401525af18015612dcb57613d0b5750565b6000612d7d9161263f565b50505050565b9091506060813d8211613d6e575b81613d376060938361263f565b8101031261079957805191878316830361080c575090613d67604083613d6060208b9601613c0e565b5001613c0e565b5038613ca0565b3d9150613d2a565b9190613d823084613fa8565b613d8c3083613fa8565b9080613e2b575b5080613e1a575b507f00000000000000000000000000000000000000000000000000000000000000009273ffffffffffffffffffffffffffffffffffffffff80918186169283911614159283613e0d575b505050613def575050565b613df93083613fa8565b9081613e0457505050565b612d7d92613f5f565b1614159050388080613de4565b613e25908383613f5f565b38613d9a565b613e36908486613f5f565b38613d93565b90807fffffffffffffffffffffffffffffffffffffffffffffffffffffffffffffffff0482118102613e7757670de0b6b3a764000091020490565b63bac65e5b6000526004601cfd5b91600092828102927fffffffffffffffffffffffffffffffffffffffffffffffffffffffffffffffff8183099184831085018084039314613f255782841115613f1857908391099060018386038416808080960460028082600302188083028203028083028203028083028203028083028203028083028203028092029003029703040190848311900302920304170290565b63ae47f70286526004601cfd5b505050918215613f3457500490565b63ae47f70290526004601cfd5b600080809381935af115613f5157565b63b12d13eb6000526004601cfd5b60109260209260145260345260446000938480936fa9059cbb00000000000000000000000082525af13d156001835114171615613f9b57603452565b6390b8ec1890526004601cfd5b602460106020939284936014526f70a082310000000000000000000000006000525afa601f3d1116602051029056fea164736f6c6343000811000a",
  "linkReferences": {},
  "deployedLinkReferences": {}
}